{
	"IntegerToRoman.sol": {
		"IngeterToRoman": {
			"abi": [
				{
					"inputs": [],
					"stateMutability": "nonpayable",
					"type": "constructor"
				},
				{
					"inputs": [
						{
							"internalType": "uint16",
							"name": "i",
							"type": "uint16"
						}
					],
					"name": "Ingeter2Roman",
					"outputs": [
						{
							"internalType": "string",
							"name": "",
							"type": "string"
						}
					],
					"stateMutability": "view",
					"type": "function"
				}
			],
			"devdoc": {
				"kind": "dev",
				"methods": {},
				"version": 1
			},
			"evm": {
				"assembly": "    /* \"IntegerToRoman.sol\":1039:3937  contract IngeterToRoman {... */\n  mstore(0x40, 0x80)\n    /* \"IntegerToRoman.sol\":1417:1631  constructor() {... */\n  callvalue\n  dup1\n  iszero\n  tag_1\n  jumpi\n  revert(0x00, 0x00)\ntag_1:\n  pop\n    /* \"IntegerToRoman.sol\":1442:1462  specialMap[4] = \"IV\" */\n  mload(0x40)\n  dup1\n  0x40\n  add\n  0x40\n  mstore\n  dup1\n  0x02\n  dup2\n  mstore\n  0x20\n  add\n  0x4956000000000000000000000000000000000000000000000000000000000000\n  dup2\n  mstore\n  pop\n    /* \"IntegerToRoman.sol\":1442:1452  specialMap */\n  0x00\n    /* \"IntegerToRoman.sol\":1442:1455  specialMap[4] */\n  0x00\n    /* \"IntegerToRoman.sol\":1453:1454  4 */\n  0x04\n    /* \"IntegerToRoman.sol\":1442:1455  specialMap[4] */\n  dup2\n  mstore\n  0x20\n  add\n  swap1\n  dup2\n  mstore\n  0x20\n  add\n  0x00\n  keccak256\n    /* \"IntegerToRoman.sol\":1442:1462  specialMap[4] = \"IV\" */\n  swap1\n  dup2\n  tag_4\n  swap2\n  swap1\n  tag_5\n  jump\t// in\ntag_4:\n  pop\n    /* \"IntegerToRoman.sol\":1473:1493  specialMap[9] = \"IX\" */\n  mload(0x40)\n  dup1\n  0x40\n  add\n  0x40\n  mstore\n  dup1\n  0x02\n  dup2\n  mstore\n  0x20\n  add\n  0x4958000000000000000000000000000000000000000000000000000000000000\n  dup2\n  mstore\n  pop\n    /* \"IntegerToRoman.sol\":1473:1483  specialMap */\n  0x00\n    /* \"IntegerToRoman.sol\":1473:1486  specialMap[9] */\n  0x00\n    /* \"IntegerToRoman.sol\":1484:1485  9 */\n  0x09\n    /* \"IntegerToRoman.sol\":1473:1486  specialMap[9] */\n  dup2\n  mstore\n  0x20\n  add\n  swap1\n  dup2\n  mstore\n  0x20\n  add\n  0x00\n  keccak256\n    /* \"IntegerToRoman.sol\":1473:1493  specialMap[9] = \"IX\" */\n  swap1\n  dup2\n  tag_6\n  swap2\n  swap1\n  tag_5\n  jump\t// in\ntag_6:\n  pop\n    /* \"IntegerToRoman.sol\":1504:1525  specialMap[40] = \"XL\" */\n  mload(0x40)\n  dup1\n  0x40\n  add\n  0x40\n  mstore\n  dup1\n  0x02\n  dup2\n  mstore\n  0x20\n  add\n  0x584c000000000000000000000000000000000000000000000000000000000000\n  dup2\n  mstore\n  pop\n    /* \"IntegerToRoman.sol\":1504:1514  specialMap */\n  0x00\n    /* \"IntegerToRoman.sol\":1504:1518  specialMap[40] */\n  0x00\n    /* \"IntegerToRoman.sol\":1515:1517  40 */\n  0x28\n    /* \"IntegerToRoman.sol\":1504:1518  specialMap[40] */\n  dup2\n  mstore\n  0x20\n  add\n  swap1\n  dup2\n  mstore\n  0x20\n  add\n  0x00\n  keccak256\n    /* \"IntegerToRoman.sol\":1504:1525  specialMap[40] = \"XL\" */\n  swap1\n  dup2\n  tag_7\n  swap2\n  swap1\n  tag_5\n  jump\t// in\ntag_7:\n  pop\n    /* \"IntegerToRoman.sol\":1536:1557  specialMap[90] = \"XC\" */\n  mload(0x40)\n  dup1\n  0x40\n  add\n  0x40\n  mstore\n  dup1\n  0x02\n  dup2\n  mstore\n  0x20\n  add\n  0x5843000000000000000000000000000000000000000000000000000000000000\n  dup2\n  mstore\n  pop\n    /* \"IntegerToRoman.sol\":1536:1546  specialMap */\n  0x00\n    /* \"IntegerToRoman.sol\":1536:1550  specialMap[90] */\n  0x00\n    /* \"IntegerToRoman.sol\":1547:1549  90 */\n  0x5a\n    /* \"IntegerToRoman.sol\":1536:1550  specialMap[90] */\n  dup2\n  mstore\n  0x20\n  add\n  swap1\n  dup2\n  mstore\n  0x20\n  add\n  0x00\n  keccak256\n    /* \"IntegerToRoman.sol\":1536:1557  specialMap[90] = \"XC\" */\n  swap1\n  dup2\n  tag_8\n  swap2\n  swap1\n  tag_5\n  jump\t// in\ntag_8:\n  pop\n    /* \"IntegerToRoman.sol\":1568:1590  specialMap[400] = \"CD\" */\n  mload(0x40)\n  dup1\n  0x40\n  add\n  0x40\n  mstore\n  dup1\n  0x02\n  dup2\n  mstore\n  0x20\n  add\n  0x4344000000000000000000000000000000000000000000000000000000000000\n  dup2\n  mstore\n  pop\n    /* \"IntegerToRoman.sol\":1568:1578  specialMap */\n  0x00\n    /* \"IntegerToRoman.sol\":1568:1583  specialMap[400] */\n  0x00\n    /* \"IntegerToRoman.sol\":1579:1582  400 */\n  0x0190\n    /* \"IntegerToRoman.sol\":1568:1583  specialMap[400] */\n  dup2\n  mstore\n  0x20\n  add\n  swap1\n  dup2\n  mstore\n  0x20\n  add\n  0x00\n  keccak256\n    /* \"IntegerToRoman.sol\":1568:1590  specialMap[400] = \"CD\" */\n  swap1\n  dup2\n  tag_9\n  swap2\n  swap1\n  tag_5\n  jump\t// in\ntag_9:\n  pop\n    /* \"IntegerToRoman.sol\":1601:1623  specialMap[900] = \"CM\" */\n  mload(0x40)\n  dup1\n  0x40\n  add\n  0x40\n  mstore\n  dup1\n  0x02\n  dup2\n  mstore\n  0x20\n  add\n  0x434d000000000000000000000000000000000000000000000000000000000000\n  dup2\n  mstore\n  pop\n    /* \"IntegerToRoman.sol\":1601:1611  specialMap */\n  0x00\n    /* \"IntegerToRoman.sol\":1601:1616  specialMap[900] */\n  0x00\n    /* \"IntegerToRoman.sol\":1612:1615  900 */\n  0x0384\n    /* \"IntegerToRoman.sol\":1601:1616  specialMap[900] */\n  dup2\n  mstore\n  0x20\n  add\n  swap1\n  dup2\n  mstore\n  0x20\n  add\n  0x00\n  keccak256\n    /* \"IntegerToRoman.sol\":1601:1623  specialMap[900] = \"CM\" */\n  swap1\n  dup2\n  tag_10\n  swap2\n  swap1\n  tag_5\n  jump\t// in\ntag_10:\n  pop\n    /* \"IntegerToRoman.sol\":1039:3937  contract IngeterToRoman {... */\n  jump(tag_11)\n    /* \"#utility.yul\":7:106   */\ntag_12:\n    /* \"#utility.yul\":59:65   */\n  0x00\n    /* \"#utility.yul\":93:98   */\n  dup2\n    /* \"#utility.yul\":87:99   */\n  mload\n    /* \"#utility.yul\":77:99   */\n  swap1\n  pop\n    /* \"#utility.yul\":7:106   */\n  swap2\n  swap1\n  pop\n  jump\t// out\n    /* \"#utility.yul\":112:292   */\ntag_13:\n    /* \"#utility.yul\":160:237   */\n  0x4e487b7100000000000000000000000000000000000000000000000000000000\n    /* \"#utility.yul\":157:158   */\n  0x00\n    /* \"#utility.yul\":150:238   */\n  mstore\n    /* \"#utility.yul\":257:261   */\n  0x41\n    /* \"#utility.yul\":254:255   */\n  0x04\n    /* \"#utility.yul\":247:262   */\n  mstore\n    /* \"#utility.yul\":281:285   */\n  0x24\n    /* \"#utility.yul\":278:279   */\n  0x00\n    /* \"#utility.yul\":271:286   */\n  revert\n    /* \"#utility.yul\":298:478   */\ntag_14:\n    /* \"#utility.yul\":346:423   */\n  0x4e487b7100000000000000000000000000000000000000000000000000000000\n    /* \"#utility.yul\":343:344   */\n  0x00\n    /* \"#utility.yul\":336:424   */\n  mstore\n    /* \"#utility.yul\":443:447   */\n  0x22\n    /* \"#utility.yul\":440:441   */\n  0x04\n    /* \"#utility.yul\":433:448   */\n  mstore\n    /* \"#utility.yul\":467:471   */\n  0x24\n    /* \"#utility.yul\":464:465   */\n  0x00\n    /* \"#utility.yul\":457:472   */\n  revert\n    /* \"#utility.yul\":484:804   */\ntag_15:\n    /* \"#utility.yul\":528:534   */\n  0x00\n    /* \"#utility.yul\":565:566   */\n  0x02\n    /* \"#utility.yul\":559:563   */\n  dup3\n    /* \"#utility.yul\":555:567   */\n  div\n    /* \"#utility.yul\":545:567   */\n  swap1\n  pop\n    /* \"#utility.yul\":612:613   */\n  0x01\n    /* \"#utility.yul\":606:610   */\n  dup3\n    /* \"#utility.yul\":602:614   */\n  and\n    /* \"#utility.yul\":633:651   */\n  dup1\n    /* \"#utility.yul\":623:704   */\n  tag_37\n  jumpi\n    /* \"#utility.yul\":689:693   */\n  0x7f\n    /* \"#utility.yul\":681:687   */\n  dup3\n    /* \"#utility.yul\":677:694   */\n  and\n    /* \"#utility.yul\":667:694   */\n  swap2\n  pop\n    /* \"#utility.yul\":623:704   */\ntag_37:\n    /* \"#utility.yul\":751:753   */\n  0x20\n    /* \"#utility.yul\":743:749   */\n  dup3\n    /* \"#utility.yul\":740:754   */\n  lt\n    /* \"#utility.yul\":720:738   */\n  dup2\n    /* \"#utility.yul\":717:755   */\n  sub\n    /* \"#utility.yul\":714:798   */\n  tag_38\n  jumpi\n    /* \"#utility.yul\":770:788   */\n  tag_39\n  tag_14\n  jump\t// in\ntag_39:\n    /* \"#utility.yul\":714:798   */\ntag_38:\n    /* \"#utility.yul\":535:804   */\n  pop\n    /* \"#utility.yul\":484:804   */\n  swap2\n  swap1\n  pop\n  jump\t// out\n    /* \"#utility.yul\":810:951   */\ntag_16:\n    /* \"#utility.yul\":859:863   */\n  0x00\n    /* \"#utility.yul\":882:885   */\n  dup2\n    /* \"#utility.yul\":874:885   */\n  swap1\n  pop\n    /* \"#utility.yul\":905:908   */\n  dup2\n    /* \"#utility.yul\":902:903   */\n  0x00\n    /* \"#utility.yul\":895:909   */\n  mstore\n    /* \"#utility.yul\":939:943   */\n  0x20\n    /* \"#utility.yul\":936:937   */\n  0x00\n    /* \"#utility.yul\":926:944   */\n  keccak256\n    /* \"#utility.yul\":918:944   */\n  swap1\n  pop\n    /* \"#utility.yul\":810:951   */\n  swap2\n  swap1\n  pop\n  jump\t// out\n    /* \"#utility.yul\":957:1050   */\ntag_17:\n    /* \"#utility.yul\":994:1000   */\n  0x00\n    /* \"#utility.yul\":1041:1043   */\n  0x20\n    /* \"#utility.yul\":1036:1038   */\n  0x1f\n    /* \"#utility.yul\":1029:1034   */\n  dup4\n    /* \"#utility.yul\":1025:1039   */\n  add\n    /* \"#utility.yul\":1021:1044   */\n  div\n    /* \"#utility.yul\":1011:1044   */\n  swap1\n  pop\n    /* \"#utility.yul\":957:1050   */\n  swap2\n  swap1\n  pop\n  jump\t// out\n    /* \"#utility.yul\":1056:1163   */\ntag_18:\n    /* \"#utility.yul\":1100:1108   */\n  0x00\n    /* \"#utility.yul\":1150:1155   */\n  dup3\n    /* \"#utility.yul\":1144:1148   */\n  dup3\n    /* \"#utility.yul\":1140:1156   */\n  shl\n    /* \"#utility.yul\":1119:1156   */\n  swap1\n  pop\n    /* \"#utility.yul\":1056:1163   */\n  swap3\n  swap2\n  pop\n  pop\n  jump\t// out\n    /* \"#utility.yul\":1169:1562   */\ntag_19:\n    /* \"#utility.yul\":1238:1244   */\n  0x00\n    /* \"#utility.yul\":1288:1289   */\n  0x08\n    /* \"#utility.yul\":1276:1286   */\n  dup4\n    /* \"#utility.yul\":1272:1290   */\n  mul\n    /* \"#utility.yul\":1311:1408   */\n  tag_44\n    /* \"#utility.yul\":1341:1407   */\n  0xffffffffffffffffffffffffffffffffffffffffffffffffffffffffffffffff\n    /* \"#utility.yul\":1330:1339   */\n  dup3\n    /* \"#utility.yul\":1311:1408   */\n  tag_18\n  jump\t// in\ntag_44:\n    /* \"#utility.yul\":1429:1468   */\n  tag_45\n    /* \"#utility.yul\":1459:1467   */\n  dup7\n    /* \"#utility.yul\":1448:1457   */\n  dup4\n    /* \"#utility.yul\":1429:1468   */\n  tag_18\n  jump\t// in\ntag_45:\n    /* \"#utility.yul\":1417:1468   */\n  swap6\n  pop\n    /* \"#utility.yul\":1501:1505   */\n  dup1\n    /* \"#utility.yul\":1497:1506   */\n  not\n    /* \"#utility.yul\":1490:1495   */\n  dup5\n    /* \"#utility.yul\":1486:1507   */\n  and\n    /* \"#utility.yul\":1477:1507   */\n  swap4\n  pop\n    /* \"#utility.yul\":1550:1554   */\n  dup1\n    /* \"#utility.yul\":1540:1548   */\n  dup7\n    /* \"#utility.yul\":1536:1555   */\n  and\n    /* \"#utility.yul\":1529:1534   */\n  dup5\n    /* \"#utility.yul\":1526:1556   */\n  or\n    /* \"#utility.yul\":1516:1556   */\n  swap3\n  pop\n    /* \"#utility.yul\":1245:1562   */\n  pop\n  pop\n    /* \"#utility.yul\":1169:1562   */\n  swap4\n  swap3\n  pop\n  pop\n  pop\n  jump\t// out\n    /* \"#utility.yul\":1568:1645   */\ntag_20:\n    /* \"#utility.yul\":1605:1612   */\n  0x00\n    /* \"#utility.yul\":1634:1639   */\n  dup2\n    /* \"#utility.yul\":1623:1639   */\n  swap1\n  pop\n    /* \"#utility.yul\":1568:1645   */\n  swap2\n  swap1\n  pop\n  jump\t// out\n    /* \"#utility.yul\":1651:1711   */\ntag_21:\n    /* \"#utility.yul\":1679:1682   */\n  0x00\n    /* \"#utility.yul\":1700:1705   */\n  dup2\n    /* \"#utility.yul\":1693:1705   */\n  swap1\n  pop\n    /* \"#utility.yul\":1651:1711   */\n  swap2\n  swap1\n  pop\n  jump\t// out\n    /* \"#utility.yul\":1717:1859   */\ntag_22:\n    /* \"#utility.yul\":1767:1776   */\n  0x00\n    /* \"#utility.yul\":1800:1853   */\n  tag_49\n    /* \"#utility.yul\":1818:1852   */\n  tag_50\n    /* \"#utility.yul\":1827:1851   */\n  tag_51\n    /* \"#utility.yul\":1845:1850   */\n  dup5\n    /* \"#utility.yul\":1827:1851   */\n  tag_20\n  jump\t// in\ntag_51:\n    /* \"#utility.yul\":1818:1852   */\n  tag_21\n  jump\t// in\ntag_50:\n    /* \"#utility.yul\":1800:1853   */\n  tag_20\n  jump\t// in\ntag_49:\n    /* \"#utility.yul\":1787:1853   */\n  swap1\n  pop\n    /* \"#utility.yul\":1717:1859   */\n  swap2\n  swap1\n  pop\n  jump\t// out\n    /* \"#utility.yul\":1865:1940   */\ntag_23:\n    /* \"#utility.yul\":1908:1911   */\n  0x00\n    /* \"#utility.yul\":1929:1934   */\n  dup2\n    /* \"#utility.yul\":1922:1934   */\n  swap1\n  pop\n    /* \"#utility.yul\":1865:1940   */\n  swap2\n  swap1\n  pop\n  jump\t// out\n    /* \"#utility.yul\":1946:2215   */\ntag_24:\n    /* \"#utility.yul\":2056:2095   */\n  tag_54\n    /* \"#utility.yul\":2087:2094   */\n  dup4\n    /* \"#utility.yul\":2056:2095   */\n  tag_22\n  jump\t// in\ntag_54:\n    /* \"#utility.yul\":2117:2208   */\n  tag_55\n    /* \"#utility.yul\":2166:2207   */\n  tag_56\n    /* \"#utility.yul\":2190:2206   */\n  dup3\n    /* \"#utility.yul\":2166:2207   */\n  tag_23\n  jump\t// in\ntag_56:\n    /* \"#utility.yul\":2158:2164   */\n  dup5\n    /* \"#utility.yul\":2151:2155   */\n  dup5\n    /* \"#utility.yul\":2145:2156   */\n  sload\n    /* \"#utility.yul\":2117:2208   */\n  tag_19\n  jump\t// in\ntag_55:\n    /* \"#utility.yul\":2111:2115   */\n  dup3\n    /* \"#utility.yul\":2104:2209   */\n  sstore\n    /* \"#utility.yul\":2022:2215   */\n  pop\n    /* \"#utility.yul\":1946:2215   */\n  pop\n  pop\n  pop\n  jump\t// out\n    /* \"#utility.yul\":2221:2294   */\ntag_25:\n    /* \"#utility.yul\":2266:2269   */\n  0x00\n    /* \"#utility.yul\":2287:2288   */\n  0x00\n    /* \"#utility.yul\":2280:2288   */\n  swap1\n  pop\n    /* \"#utility.yul\":2221:2294   */\n  swap1\n  jump\t// out\n    /* \"#utility.yul\":2300:2489   */\ntag_26:\n    /* \"#utility.yul\":2377:2409   */\n  tag_59\n  tag_25\n  jump\t// in\ntag_59:\n    /* \"#utility.yul\":2418:2483   */\n  tag_60\n    /* \"#utility.yul\":2476:2482   */\n  dup2\n    /* \"#utility.yul\":2468:2474   */\n  dup5\n    /* \"#utility.yul\":2462:2466   */\n  dup5\n    /* \"#utility.yul\":2418:2483   */\n  tag_24\n  jump\t// in\ntag_60:\n    /* \"#utility.yul\":2353:2489   */\n  pop\n    /* \"#utility.yul\":2300:2489   */\n  pop\n  pop\n  jump\t// out\n    /* \"#utility.yul\":2495:2681   */\ntag_27:\n    /* \"#utility.yul\":2555:2675   */\ntag_62:\n    /* \"#utility.yul\":2572:2575   */\n  dup2\n    /* \"#utility.yul\":2565:2570   */\n  dup2\n    /* \"#utility.yul\":2562:2576   */\n  lt\n    /* \"#utility.yul\":2555:2675   */\n  iszero\n  tag_64\n  jumpi\n    /* \"#utility.yul\":2626:2665   */\n  tag_65\n    /* \"#utility.yul\":2663:2664   */\n  0x00\n    /* \"#utility.yul\":2656:2661   */\n  dup3\n    /* \"#utility.yul\":2626:2665   */\n  tag_26\n  jump\t// in\ntag_65:\n    /* \"#utility.yul\":2599:2600   */\n  0x01\n    /* \"#utility.yul\":2592:2597   */\n  dup2\n    /* \"#utility.yul\":2588:2601   */\n  add\n    /* \"#utility.yul\":2579:2601   */\n  swap1\n  pop\n    /* \"#utility.yul\":2555:2675   */\n  jump(tag_62)\ntag_64:\n    /* \"#utility.yul\":2495:2681   */\n  pop\n  pop\n  jump\t// out\n    /* \"#utility.yul\":2687:3230   */\ntag_28:\n    /* \"#utility.yul\":2788:2790   */\n  0x1f\n    /* \"#utility.yul\":2783:2786   */\n  dup3\n    /* \"#utility.yul\":2780:2791   */\n  gt\n    /* \"#utility.yul\":2777:3223   */\n  iszero\n  tag_67\n  jumpi\n    /* \"#utility.yul\":2822:2860   */\n  tag_68\n    /* \"#utility.yul\":2854:2859   */\n  dup2\n    /* \"#utility.yul\":2822:2860   */\n  tag_16\n  jump\t// in\ntag_68:\n    /* \"#utility.yul\":2906:2935   */\n  tag_69\n    /* \"#utility.yul\":2924:2934   */\n  dup5\n    /* \"#utility.yul\":2906:2935   */\n  tag_17\n  jump\t// in\ntag_69:\n    /* \"#utility.yul\":2896:2904   */\n  dup2\n    /* \"#utility.yul\":2892:2936   */\n  add\n    /* \"#utility.yul\":3089:3091   */\n  0x20\n    /* \"#utility.yul\":3077:3087   */\n  dup6\n    /* \"#utility.yul\":3074:3092   */\n  lt\n    /* \"#utility.yul\":3071:3120   */\n  iszero\n  tag_70\n  jumpi\n    /* \"#utility.yul\":3110:3118   */\n  dup2\n    /* \"#utility.yul\":3095:3118   */\n  swap1\n  pop\n    /* \"#utility.yul\":3071:3120   */\ntag_70:\n    /* \"#utility.yul\":3133:3213   */\n  tag_71\n    /* \"#utility.yul\":3189:3211   */\n  tag_72\n    /* \"#utility.yul\":3207:3210   */\n  dup6\n    /* \"#utility.yul\":3189:3211   */\n  tag_17\n  jump\t// in\ntag_72:\n    /* \"#utility.yul\":3179:3187   */\n  dup4\n    /* \"#utility.yul\":3175:3212   */\n  add\n    /* \"#utility.yul\":3162:3173   */\n  dup3\n    /* \"#utility.yul\":3133:3213   */\n  tag_27\n  jump\t// in\ntag_71:\n    /* \"#utility.yul\":2792:3223   */\n  pop\n  pop\n    /* \"#utility.yul\":2777:3223   */\ntag_67:\n    /* \"#utility.yul\":2687:3230   */\n  pop\n  pop\n  pop\n  jump\t// out\n    /* \"#utility.yul\":3236:3353   */\ntag_29:\n    /* \"#utility.yul\":3290:3298   */\n  0x00\n    /* \"#utility.yul\":3340:3345   */\n  dup3\n    /* \"#utility.yul\":3334:3338   */\n  dup3\n    /* \"#utility.yul\":3330:3346   */\n  shr\n    /* \"#utility.yul\":3309:3346   */\n  swap1\n  pop\n    /* \"#utility.yul\":3236:3353   */\n  swap3\n  swap2\n  pop\n  pop\n  jump\t// out\n    /* \"#utility.yul\":3359:3528   */\ntag_30:\n    /* \"#utility.yul\":3403:3409   */\n  0x00\n    /* \"#utility.yul\":3436:3487   */\n  tag_75\n    /* \"#utility.yul\":3484:3485   */\n  0x00\n    /* \"#utility.yul\":3480:3486   */\n  not\n    /* \"#utility.yul\":3472:3477   */\n  dup5\n    /* \"#utility.yul\":3469:3470   */\n  0x08\n    /* \"#utility.yul\":3465:3478   */\n  mul\n    /* \"#utility.yul\":3436:3487   */\n  tag_29\n  jump\t// in\ntag_75:\n    /* \"#utility.yul\":3432:3488   */\n  not\n    /* \"#utility.yul\":3517:3521   */\n  dup1\n    /* \"#utility.yul\":3511:3515   */\n  dup4\n    /* \"#utility.yul\":3507:3522   */\n  and\n    /* \"#utility.yul\":3497:3522   */\n  swap2\n  pop\n    /* \"#utility.yul\":3410:3528   */\n  pop\n    /* \"#utility.yul\":3359:3528   */\n  swap3\n  swap2\n  pop\n  pop\n  jump\t// out\n    /* \"#utility.yul\":3533:3828   */\ntag_31:\n    /* \"#utility.yul\":3609:3613   */\n  0x00\n    /* \"#utility.yul\":3755:3784   */\n  tag_77\n    /* \"#utility.yul\":3780:3783   */\n  dup4\n    /* \"#utility.yul\":3774:3778   */\n  dup4\n    /* \"#utility.yul\":3755:3784   */\n  tag_30\n  jump\t// in\ntag_77:\n    /* \"#utility.yul\":3747:3784   */\n  swap2\n  pop\n    /* \"#utility.yul\":3817:3820   */\n  dup3\n    /* \"#utility.yul\":3814:3815   */\n  0x02\n    /* \"#utility.yul\":3810:3821   */\n  mul\n    /* \"#utility.yul\":3804:3808   */\n  dup3\n    /* \"#utility.yul\":3801:3822   */\n  or\n    /* \"#utility.yul\":3793:3822   */\n  swap1\n  pop\n    /* \"#utility.yul\":3533:3828   */\n  swap3\n  swap2\n  pop\n  pop\n  jump\t// out\n    /* \"#utility.yul\":3833:5228   */\ntag_5:\n    /* \"#utility.yul\":3950:3987   */\n  tag_79\n    /* \"#utility.yul\":3983:3986   */\n  dup3\n    /* \"#utility.yul\":3950:3987   */\n  tag_12\n  jump\t// in\ntag_79:\n    /* \"#utility.yul\":4052:4070   */\n  0xffffffffffffffff\n    /* \"#utility.yul\":4044:4050   */\n  dup2\n    /* \"#utility.yul\":4041:4071   */\n  gt\n    /* \"#utility.yul\":4038:4094   */\n  iszero\n  tag_80\n  jumpi\n    /* \"#utility.yul\":4074:4092   */\n  tag_81\n  tag_13\n  jump\t// in\ntag_81:\n    /* \"#utility.yul\":4038:4094   */\ntag_80:\n    /* \"#utility.yul\":4118:4156   */\n  tag_82\n    /* \"#utility.yul\":4150:4154   */\n  dup3\n    /* \"#utility.yul\":4144:4155   */\n  sload\n    /* \"#utility.yul\":4118:4156   */\n  tag_15\n  jump\t// in\ntag_82:\n    /* \"#utility.yul\":4203:4270   */\n  tag_83\n    /* \"#utility.yul\":4263:4269   */\n  dup3\n    /* \"#utility.yul\":4255:4261   */\n  dup3\n    /* \"#utility.yul\":4249:4253   */\n  dup6\n    /* \"#utility.yul\":4203:4270   */\n  tag_28\n  jump\t// in\ntag_83:\n    /* \"#utility.yul\":4297:4298   */\n  0x00\n    /* \"#utility.yul\":4321:4325   */\n  0x20\n    /* \"#utility.yul\":4308:4325   */\n  swap1\n  pop\n    /* \"#utility.yul\":4353:4355   */\n  0x1f\n    /* \"#utility.yul\":4345:4351   */\n  dup4\n    /* \"#utility.yul\":4342:4356   */\n  gt\n    /* \"#utility.yul\":4370:4371   */\n  0x01\n    /* \"#utility.yul\":4365:4983   */\n  dup2\n  eq\n  tag_85\n  jumpi\n    /* \"#utility.yul\":5027:5028   */\n  0x00\n    /* \"#utility.yul\":5044:5050   */\n  dup5\n    /* \"#utility.yul\":5041:5118   */\n  iszero\n  tag_86\n  jumpi\n    /* \"#utility.yul\":5093:5102   */\n  dup3\n    /* \"#utility.yul\":5088:5091   */\n  dup8\n    /* \"#utility.yul\":5084:5103   */\n  add\n    /* \"#utility.yul\":5078:5104   */\n  mload\n    /* \"#utility.yul\":5069:5104   */\n  swap1\n  pop\n    /* \"#utility.yul\":5041:5118   */\ntag_86:\n    /* \"#utility.yul\":5144:5211   */\n  tag_87\n    /* \"#utility.yul\":5204:5210   */\n  dup6\n    /* \"#utility.yul\":5197:5202   */\n  dup3\n    /* \"#utility.yul\":5144:5211   */\n  tag_31\n  jump\t// in\ntag_87:\n    /* \"#utility.yul\":5138:5142   */\n  dup7\n    /* \"#utility.yul\":5131:5212   */\n  sstore\n    /* \"#utility.yul\":5000:5222   */\n  pop\n    /* \"#utility.yul\":4335:5222   */\n  jump(tag_84)\n    /* \"#utility.yul\":4365:4983   */\ntag_85:\n    /* \"#utility.yul\":4417:4421   */\n  0x1f\n    /* \"#utility.yul\":4413:4422   */\n  not\n    /* \"#utility.yul\":4405:4411   */\n  dup5\n    /* \"#utility.yul\":4401:4423   */\n  and\n    /* \"#utility.yul\":4451:4488   */\n  tag_88\n    /* \"#utility.yul\":4483:4487   */\n  dup7\n    /* \"#utility.yul\":4451:4488   */\n  tag_16\n  jump\t// in\ntag_88:\n    /* \"#utility.yul\":4510:4511   */\n  0x00\n    /* \"#utility.yul\":4524:4732   */\ntag_89:\n    /* \"#utility.yul\":4538:4545   */\n  dup3\n    /* \"#utility.yul\":4535:4536   */\n  dup2\n    /* \"#utility.yul\":4532:4546   */\n  lt\n    /* \"#utility.yul\":4524:4732   */\n  iszero\n  tag_91\n  jumpi\n    /* \"#utility.yul\":4617:4626   */\n  dup5\n    /* \"#utility.yul\":4612:4615   */\n  dup10\n    /* \"#utility.yul\":4608:4627   */\n  add\n    /* \"#utility.yul\":4602:4628   */\n  mload\n    /* \"#utility.yul\":4594:4600   */\n  dup3\n    /* \"#utility.yul\":4587:4629   */\n  sstore\n    /* \"#utility.yul\":4668:4669   */\n  0x01\n    /* \"#utility.yul\":4660:4666   */\n  dup3\n    /* \"#utility.yul\":4656:4670   */\n  add\n    /* \"#utility.yul\":4646:4670   */\n  swap2\n  pop\n    /* \"#utility.yul\":4715:4717   */\n  0x20\n    /* \"#utility.yul\":4704:4713   */\n  dup6\n    /* \"#utility.yul\":4700:4718   */\n  add\n    /* \"#utility.yul\":4687:4718   */\n  swap5\n  pop\n    /* \"#utility.yul\":4561:4565   */\n  0x20\n    /* \"#utility.yul\":4558:4559   */\n  dup2\n    /* \"#utility.yul\":4554:4566   */\n  add\n    /* \"#utility.yul\":4549:4566   */\n  swap1\n  pop\n    /* \"#utility.yul\":4524:4732   */\n  jump(tag_89)\ntag_91:\n    /* \"#utility.yul\":4760:4766   */\n  dup7\n    /* \"#utility.yul\":4751:4758   */\n  dup4\n    /* \"#utility.yul\":4748:4767   */\n  lt\n    /* \"#utility.yul\":4745:4924   */\n  iszero\n  tag_92\n  jumpi\n    /* \"#utility.yul\":4818:4827   */\n  dup5\n    /* \"#utility.yul\":4813:4816   */\n  dup10\n    /* \"#utility.yul\":4809:4828   */\n  add\n    /* \"#utility.yul\":4803:4829   */\n  mload\n    /* \"#utility.yul\":4861:4909   */\n  tag_93\n    /* \"#utility.yul\":4903:4907   */\n  0x1f\n    /* \"#utility.yul\":4895:4901   */\n  dup10\n    /* \"#utility.yul\":4891:4908   */\n  and\n    /* \"#utility.yul\":4880:4889   */\n  dup3\n    /* \"#utility.yul\":4861:4909   */\n  tag_30\n  jump\t// in\ntag_93:\n    /* \"#utility.yul\":4853:4859   */\n  dup4\n    /* \"#utility.yul\":4846:4910   */\n  sstore\n    /* \"#utility.yul\":4768:4924   */\n  pop\n    /* \"#utility.yul\":4745:4924   */\ntag_92:\n    /* \"#utility.yul\":4970:4971   */\n  0x01\n    /* \"#utility.yul\":4966:4967   */\n  0x02\n    /* \"#utility.yul\":4958:4964   */\n  dup9\n    /* \"#utility.yul\":4954:4968   */\n  mul\n    /* \"#utility.yul\":4950:4972   */\n  add\n    /* \"#utility.yul\":4944:4948   */\n  dup9\n    /* \"#utility.yul\":4937:4973   */\n  sstore\n    /* \"#utility.yul\":4372:4983   */\n  pop\n  pop\n  pop\n    /* \"#utility.yul\":4335:5222   */\ntag_84:\n  pop\n    /* \"#utility.yul\":3925:5228   */\n  pop\n  pop\n  pop\n    /* \"#utility.yul\":3833:5228   */\n  pop\n  pop\n  jump\t// out\n    /* \"IntegerToRoman.sol\":1039:3937  contract IngeterToRoman {... */\ntag_11:\n  dataSize(sub_0)\n  dup1\n  dataOffset(sub_0)\n  0x00\n  codecopy\n  0x00\n  return\nstop\n\nsub_0: assembly {\n        /* \"IntegerToRoman.sol\":1039:3937  contract IngeterToRoman {... */\n      mstore(0x40, 0x80)\n      callvalue\n      dup1\n      iszero\n      tag_1\n      jumpi\n      revert(0x00, 0x00)\n    tag_1:\n      pop\n      jumpi(tag_2, lt(calldatasize, 0x04))\n      shr(0xe0, calldataload(0x00))\n      dup1\n      0x65e9e297\n      eq\n      tag_3\n      jumpi\n    tag_2:\n      revert(0x00, 0x00)\n        /* \"IntegerToRoman.sol\":1651:3934  function Ingeter2Roman(uint16 i) public view returns (string memory) {... */\n    tag_3:\n      tag_4\n      0x04\n      dup1\n      calldatasize\n      sub\n      dup2\n      add\n      swap1\n      tag_5\n      swap2\n      swap1\n      tag_6\n      jump\t// in\n    tag_5:\n      tag_7\n      jump\t// in\n    tag_4:\n      mload(0x40)\n      tag_8\n      swap2\n      swap1\n      tag_9\n      jump\t// in\n    tag_8:\n      mload(0x40)\n      dup1\n      swap2\n      sub\n      swap1\n      return\n    tag_7:\n        /* \"IntegerToRoman.sol\":1705:1718  string memory */\n      0x60\n        /* \"IntegerToRoman.sol\":1731:1742  uint16 temp */\n      0x00\n        /* \"IntegerToRoman.sol\":1745:1746  i */\n      dup3\n        /* \"IntegerToRoman.sol\":1731:1746  uint16 temp = i */\n      swap1\n      pop\n        /* \"IntegerToRoman.sol\":1757:1774  string memory res */\n      0x00\n        /* \"IntegerToRoman.sol\":1757:1779  string memory res = \"\" */\n      mload(0x40)\n      dup1\n      0x20\n      add\n      0x40\n      mstore\n      dup1\n      0x00\n      dup2\n      mstore\n      pop\n      swap1\n      pop\n        /* \"IntegerToRoman.sol\":1797:1801  4000 */\n      0x0fa0\n        /* \"IntegerToRoman.sol\":1793:1794  i */\n      dup5\n        /* \"IntegerToRoman.sol\":1793:1801  i > 4000 */\n      0xffff\n      and\n      gt\n        /* \"IntegerToRoman.sol\":1790:1838  if(i > 4000){... */\n      iszero\n      tag_11\n      jumpi\n        /* \"IntegerToRoman.sol\":1817:1826  return \"\" */\n      mload(0x40)\n      dup1\n      0x20\n      add\n      0x40\n      mstore\n      dup1\n      0x00\n      dup2\n      mstore\n      pop\n      swap3\n      pop\n      pop\n      pop\n      jump(tag_10)\n        /* \"IntegerToRoman.sol\":1790:1838  if(i > 4000){... */\n    tag_11:\n        /* \"IntegerToRoman.sol\":1874:1883  uint mQty */\n      0x00\n        /* \"IntegerToRoman.sol\":1891:1895  1000 */\n      0x03e8\n        /* \"IntegerToRoman.sol\":1886:1890  temp */\n      dup4\n        /* \"IntegerToRoman.sol\":1886:1895  temp/1000 */\n      tag_12\n      swap2\n      swap1\n      tag_13\n      jump\t// in\n    tag_12:\n        /* \"IntegerToRoman.sol\":1874:1895  uint mQty = temp/1000 */\n      0xffff\n      and\n      swap1\n      pop\n        /* \"IntegerToRoman.sol\":1909:2000  while ( mQty>0) {... */\n    tag_14:\n        /* \"IntegerToRoman.sol\":1922:1923  0 */\n      0x00\n        /* \"IntegerToRoman.sol\":1917:1921  mQty */\n      dup2\n        /* \"IntegerToRoman.sol\":1917:1923  mQty>0 */\n      gt\n        /* \"IntegerToRoman.sol\":1909:2000  while ( mQty>0) {... */\n      iszero\n      tag_15\n      jumpi\n        /* \"IntegerToRoman.sol\":1960:1963  res */\n      dup2\n        /* \"IntegerToRoman.sol\":1965:1966  M */\n      mload(0x40)\n      dup1\n      0x40\n      add\n      0x40\n      mstore\n      dup1\n      0x01\n      dup2\n      mstore\n      0x20\n      add\n      0x4d00000000000000000000000000000000000000000000000000000000000000\n      dup2\n      mstore\n      pop\n        /* \"IntegerToRoman.sol\":1946:1967  string.concat(res, M) */\n      add(0x20, mload(0x40))\n      tag_16\n      swap3\n      swap2\n      swap1\n      tag_17\n      jump\t// in\n    tag_16:\n      mload(0x40)\n      0x20\n      dup2\n      dup4\n      sub\n      sub\n      dup2\n      mstore\n      swap1\n      0x40\n      mstore\n        /* \"IntegerToRoman.sol\":1940:1967  res = string.concat(res, M) */\n      swap2\n      pop\n        /* \"IntegerToRoman.sol\":1982:1988  mQty-- */\n      dup1\n      dup1\n      tag_18\n      swap1\n      tag_19\n      jump\t// in\n    tag_18:\n      swap2\n      pop\n      pop\n        /* \"IntegerToRoman.sol\":1909:2000  while ( mQty>0) {... */\n      jump(tag_14)\n    tag_15:\n        /* \"IntegerToRoman.sol\":2048:2052  1000 */\n      0x03e8\n        /* \"IntegerToRoman.sol\":2043:2047  temp */\n      dup4\n        /* \"IntegerToRoman.sol\":2043:2052  temp%1000 */\n      tag_20\n      swap2\n      swap1\n      tag_21\n      jump\t// in\n    tag_20:\n        /* \"IntegerToRoman.sol\":2036:2052  temp = temp%1000 */\n      swap3\n      pop\n        /* \"IntegerToRoman.sol\":2079:2082  900 */\n      0x0384\n        /* \"IntegerToRoman.sol\":2071:2075  temp */\n      dup4\n        /* \"IntegerToRoman.sol\":2071:2082  temp >= 900 */\n      0xffff\n      and\n      lt\n        /* \"IntegerToRoman.sol\":2068:2292  if(temp >= 900){... */\n      tag_22\n      jumpi\n        /* \"IntegerToRoman.sol\":2118:2121  res */\n      dup2\n        /* \"IntegerToRoman.sol\":2123:2133  specialMap */\n      0x00\n        /* \"IntegerToRoman.sol\":2123:2138  specialMap[900] */\n      0x00\n        /* \"IntegerToRoman.sol\":2134:2137  900 */\n      0x0384\n        /* \"IntegerToRoman.sol\":2123:2138  specialMap[900] */\n      dup2\n      mstore\n      0x20\n      add\n      swap1\n      dup2\n      mstore\n      0x20\n      add\n      0x00\n      keccak256\n        /* \"IntegerToRoman.sol\":2104:2139  string.concat(res, specialMap[900]) */\n      add(0x20, mload(0x40))\n      tag_23\n      swap3\n      swap2\n      swap1\n      tag_24\n      jump\t// in\n    tag_23:\n      mload(0x40)\n      0x20\n      dup2\n      dup4\n      sub\n      sub\n      dup2\n      mstore\n      swap1\n      0x40\n      mstore\n        /* \"IntegerToRoman.sol\":2098:2139  res = string.concat(res, specialMap[900]) */\n      swap2\n      pop\n        /* \"IntegerToRoman.sol\":2168:2171  900 */\n      0x0384\n        /* \"IntegerToRoman.sol\":2161:2165  temp */\n      dup4\n        /* \"IntegerToRoman.sol\":2161:2171  temp - 900 */\n      tag_25\n      swap2\n      swap1\n      tag_26\n      jump\t// in\n    tag_25:\n        /* \"IntegerToRoman.sol\":2154:2171  temp = temp - 900 */\n      swap3\n      pop\n        /* \"IntegerToRoman.sol\":2068:2292  if(temp >= 900){... */\n      jump(tag_27)\n    tag_22:\n        /* \"IntegerToRoman.sol\":2201:2204  500 */\n      0x01f4\n        /* \"IntegerToRoman.sol\":2193:2197  temp */\n      dup4\n        /* \"IntegerToRoman.sol\":2193:2204  temp >= 500 */\n      0xffff\n      and\n      lt\n        /* \"IntegerToRoman.sol\":2189:2292  if (temp >= 500) {... */\n      tag_28\n      jumpi\n        /* \"IntegerToRoman.sol\":2241:2244  res */\n      dup2\n        /* \"IntegerToRoman.sol\":2246:2247  D */\n      mload(0x40)\n      dup1\n      0x40\n      add\n      0x40\n      mstore\n      dup1\n      0x01\n      dup2\n      mstore\n      0x20\n      add\n      0x4400000000000000000000000000000000000000000000000000000000000000\n      dup2\n      mstore\n      pop\n        /* \"IntegerToRoman.sol\":2227:2248  string.concat(res, D) */\n      add(0x20, mload(0x40))\n      tag_29\n      swap3\n      swap2\n      swap1\n      tag_17\n      jump\t// in\n    tag_29:\n      mload(0x40)\n      0x20\n      dup2\n      dup4\n      sub\n      sub\n      dup2\n      mstore\n      swap1\n      0x40\n      mstore\n        /* \"IntegerToRoman.sol\":2221:2248  res = string.concat(res, D) */\n      swap2\n      pop\n        /* \"IntegerToRoman.sol\":2277:2280  500 */\n      0x01f4\n        /* \"IntegerToRoman.sol\":2270:2274  temp */\n      dup4\n        /* \"IntegerToRoman.sol\":2270:2280  temp - 500 */\n      tag_30\n      swap2\n      swap1\n      tag_26\n      jump\t// in\n    tag_30:\n        /* \"IntegerToRoman.sol\":2263:2280  temp = temp - 500 */\n      swap3\n      pop\n        /* \"IntegerToRoman.sol\":2189:2292  if (temp >= 500) {... */\n    tag_28:\n        /* \"IntegerToRoman.sol\":2068:2292  if(temp >= 900){... */\n    tag_27:\n        /* \"IntegerToRoman.sol\":2328:2331  400 */\n      0x0190\n        /* \"IntegerToRoman.sol\":2320:2324  temp */\n      dup4\n        /* \"IntegerToRoman.sol\":2320:2331  temp >= 400 */\n      0xffff\n      and\n      lt\n        /* \"IntegerToRoman.sol\":2317:2637  if(temp >= 400){... */\n      tag_31\n      jumpi\n        /* \"IntegerToRoman.sol\":2371:2374  res */\n      dup2\n        /* \"IntegerToRoman.sol\":2376:2386  specialMap */\n      0x00\n        /* \"IntegerToRoman.sol\":2376:2391  specialMap[400] */\n      0x00\n        /* \"IntegerToRoman.sol\":2387:2390  400 */\n      0x0190\n        /* \"IntegerToRoman.sol\":2376:2391  specialMap[400] */\n      dup2\n      mstore\n      0x20\n      add\n      swap1\n      dup2\n      mstore\n      0x20\n      add\n      0x00\n      keccak256\n        /* \"IntegerToRoman.sol\":2357:2392  string.concat(res, specialMap[400]) */\n      add(0x20, mload(0x40))\n      tag_32\n      swap3\n      swap2\n      swap1\n      tag_24\n      jump\t// in\n    tag_32:\n      mload(0x40)\n      0x20\n      dup2\n      dup4\n      sub\n      sub\n      dup2\n      mstore\n      swap1\n      0x40\n      mstore\n        /* \"IntegerToRoman.sol\":2351:2392  res = string.concat(res, specialMap[400]) */\n      swap2\n      pop\n        /* \"IntegerToRoman.sol\":2425:2428  400 */\n      0x0190\n        /* \"IntegerToRoman.sol\":2418:2422  temp */\n      dup4\n        /* \"IntegerToRoman.sol\":2418:2428  temp - 400 */\n      tag_33\n      swap2\n      swap1\n      tag_26\n      jump\t// in\n    tag_33:\n        /* \"IntegerToRoman.sol\":2411:2428  temp = temp - 400 */\n      swap3\n      pop\n        /* \"IntegerToRoman.sol\":2317:2637  if(temp >= 400){... */\n      jump(tag_34)\n    tag_31:\n        /* \"IntegerToRoman.sol\":2468:2477  uint cQty */\n      0x00\n        /* \"IntegerToRoman.sol\":2485:2488  100 */\n      0x64\n        /* \"IntegerToRoman.sol\":2480:2484  temp */\n      dup5\n        /* \"IntegerToRoman.sol\":2480:2488  temp/100 */\n      tag_35\n      swap2\n      swap1\n      tag_13\n      jump\t// in\n    tag_35:\n        /* \"IntegerToRoman.sol\":2468:2488  uint cQty = temp/100 */\n      0xffff\n      and\n      swap1\n      pop\n        /* \"IntegerToRoman.sol\":2507:2622  while ( cQty>0) {... */\n    tag_36:\n        /* \"IntegerToRoman.sol\":2520:2521  0 */\n      0x00\n        /* \"IntegerToRoman.sol\":2515:2519  cQty */\n      dup2\n        /* \"IntegerToRoman.sol\":2515:2521  cQty>0 */\n      gt\n        /* \"IntegerToRoman.sol\":2507:2622  while ( cQty>0) {... */\n      iszero\n      tag_37\n      jumpi\n        /* \"IntegerToRoman.sol\":2566:2569  res */\n      dup3\n        /* \"IntegerToRoman.sol\":2571:2572  C */\n      mload(0x40)\n      dup1\n      0x40\n      add\n      0x40\n      mstore\n      dup1\n      0x01\n      dup2\n      mstore\n      0x20\n      add\n      0x4300000000000000000000000000000000000000000000000000000000000000\n      dup2\n      mstore\n      pop\n        /* \"IntegerToRoman.sol\":2552:2573  string.concat(res, C) */\n      add(0x20, mload(0x40))\n      tag_38\n      swap3\n      swap2\n      swap1\n      tag_17\n      jump\t// in\n    tag_38:\n      mload(0x40)\n      0x20\n      dup2\n      dup4\n      sub\n      sub\n      dup2\n      mstore\n      swap1\n      0x40\n      mstore\n        /* \"IntegerToRoman.sol\":2546:2573  res = string.concat(res, C) */\n      swap3\n      pop\n        /* \"IntegerToRoman.sol\":2596:2602  cQty-- */\n      dup1\n      dup1\n      tag_39\n      swap1\n      tag_19\n      jump\t// in\n    tag_39:\n      swap2\n      pop\n      pop\n        /* \"IntegerToRoman.sol\":2507:2622  while ( cQty>0) {... */\n      jump(tag_36)\n    tag_37:\n        /* \"IntegerToRoman.sol\":2449:2637  {... */\n      pop\n        /* \"IntegerToRoman.sol\":2317:2637  if(temp >= 400){... */\n    tag_34:\n        /* \"IntegerToRoman.sol\":2696:2699  100 */\n      0x64\n        /* \"IntegerToRoman.sol\":2691:2695  temp */\n      dup4\n        /* \"IntegerToRoman.sol\":2691:2699  temp%100 */\n      tag_40\n      swap2\n      swap1\n      tag_21\n      jump\t// in\n    tag_40:\n        /* \"IntegerToRoman.sol\":2684:2699  temp = temp%100 */\n      swap3\n      pop\n        /* \"IntegerToRoman.sol\":2725:2727  90 */\n      0x5a\n        /* \"IntegerToRoman.sol\":2717:2721  temp */\n      dup4\n        /* \"IntegerToRoman.sol\":2717:2727  temp >= 90 */\n      0xffff\n      and\n      lt\n        /* \"IntegerToRoman.sol\":2714:2930  if(temp >= 90){... */\n      tag_41\n      jumpi\n        /* \"IntegerToRoman.sol\":2763:2766  res */\n      dup2\n        /* \"IntegerToRoman.sol\":2768:2778  specialMap */\n      0x00\n        /* \"IntegerToRoman.sol\":2768:2782  specialMap[90] */\n      0x00\n        /* \"IntegerToRoman.sol\":2779:2781  90 */\n      0x5a\n        /* \"IntegerToRoman.sol\":2768:2782  specialMap[90] */\n      dup2\n      mstore\n      0x20\n      add\n      swap1\n      dup2\n      mstore\n      0x20\n      add\n      0x00\n      keccak256\n        /* \"IntegerToRoman.sol\":2749:2783  string.concat(res, specialMap[90]) */\n      add(0x20, mload(0x40))\n      tag_42\n      swap3\n      swap2\n      swap1\n      tag_24\n      jump\t// in\n    tag_42:\n      mload(0x40)\n      0x20\n      dup2\n      dup4\n      sub\n      sub\n      dup2\n      mstore\n      swap1\n      0x40\n      mstore\n        /* \"IntegerToRoman.sol\":2743:2783  res = string.concat(res, specialMap[90]) */\n      swap2\n      pop\n        /* \"IntegerToRoman.sol\":2812:2814  90 */\n      0x5a\n        /* \"IntegerToRoman.sol\":2805:2809  temp */\n      dup4\n        /* \"IntegerToRoman.sol\":2805:2814  temp - 90 */\n      tag_43\n      swap2\n      swap1\n      tag_26\n      jump\t// in\n    tag_43:\n        /* \"IntegerToRoman.sol\":2798:2814  temp = temp - 90 */\n      swap3\n      pop\n        /* \"IntegerToRoman.sol\":2714:2930  if(temp >= 90){... */\n      jump(tag_44)\n    tag_41:\n        /* \"IntegerToRoman.sol\":2842:2844  50 */\n      0x32\n        /* \"IntegerToRoman.sol\":2834:2838  temp */\n      dup4\n        /* \"IntegerToRoman.sol\":2834:2844  temp >= 50 */\n      0xffff\n      and\n      lt\n        /* \"IntegerToRoman.sol\":2831:2930  if(temp >= 50){... */\n      tag_45\n      jumpi\n        /* \"IntegerToRoman.sol\":2880:2883  res */\n      dup2\n        /* \"IntegerToRoman.sol\":2885:2886  L */\n      mload(0x40)\n      dup1\n      0x40\n      add\n      0x40\n      mstore\n      dup1\n      0x01\n      dup2\n      mstore\n      0x20\n      add\n      0x4c00000000000000000000000000000000000000000000000000000000000000\n      dup2\n      mstore\n      pop\n        /* \"IntegerToRoman.sol\":2866:2887  string.concat(res, L) */\n      add(0x20, mload(0x40))\n      tag_46\n      swap3\n      swap2\n      swap1\n      tag_17\n      jump\t// in\n    tag_46:\n      mload(0x40)\n      0x20\n      dup2\n      dup4\n      sub\n      sub\n      dup2\n      mstore\n      swap1\n      0x40\n      mstore\n        /* \"IntegerToRoman.sol\":2860:2887  res = string.concat(res, L) */\n      swap2\n      pop\n        /* \"IntegerToRoman.sol\":2916:2918  50 */\n      0x32\n        /* \"IntegerToRoman.sol\":2909:2913  temp */\n      dup4\n        /* \"IntegerToRoman.sol\":2909:2918  temp - 50 */\n      tag_47\n      swap2\n      swap1\n      tag_26\n      jump\t// in\n    tag_47:\n        /* \"IntegerToRoman.sol\":2902:2918  temp = temp - 50 */\n      swap3\n      pop\n        /* \"IntegerToRoman.sol\":2831:2930  if(temp >= 50){... */\n    tag_45:\n        /* \"IntegerToRoman.sol\":2714:2930  if(temp >= 90){... */\n    tag_44:\n        /* \"IntegerToRoman.sol\":2966:2968  40 */\n      0x28\n        /* \"IntegerToRoman.sol\":2958:2962  temp */\n      dup4\n        /* \"IntegerToRoman.sol\":2958:2968  temp >= 40 */\n      0xffff\n      and\n      lt\n        /* \"IntegerToRoman.sol\":2955:3271  if(temp >= 40){... */\n      tag_48\n      jumpi\n        /* \"IntegerToRoman.sol\":3008:3011  res */\n      dup2\n        /* \"IntegerToRoman.sol\":3013:3023  specialMap */\n      0x00\n        /* \"IntegerToRoman.sol\":3013:3027  specialMap[40] */\n      0x00\n        /* \"IntegerToRoman.sol\":3024:3026  40 */\n      0x28\n        /* \"IntegerToRoman.sol\":3013:3027  specialMap[40] */\n      dup2\n      mstore\n      0x20\n      add\n      swap1\n      dup2\n      mstore\n      0x20\n      add\n      0x00\n      keccak256\n        /* \"IntegerToRoman.sol\":2994:3028  string.concat(res, specialMap[40]) */\n      add(0x20, mload(0x40))\n      tag_49\n      swap3\n      swap2\n      swap1\n      tag_24\n      jump\t// in\n    tag_49:\n      mload(0x40)\n      0x20\n      dup2\n      dup4\n      sub\n      sub\n      dup2\n      mstore\n      swap1\n      0x40\n      mstore\n        /* \"IntegerToRoman.sol\":2988:3028  res = string.concat(res, specialMap[40]) */\n      swap2\n      pop\n        /* \"IntegerToRoman.sol\":3061:3063  40 */\n      0x28\n        /* \"IntegerToRoman.sol\":3054:3058  temp */\n      dup4\n        /* \"IntegerToRoman.sol\":3054:3063  temp - 40 */\n      tag_50\n      swap2\n      swap1\n      tag_26\n      jump\t// in\n    tag_50:\n        /* \"IntegerToRoman.sol\":3047:3063  temp = temp - 40 */\n      swap3\n      pop\n        /* \"IntegerToRoman.sol\":2955:3271  if(temp >= 40){... */\n      jump(tag_51)\n    tag_48:\n        /* \"IntegerToRoman.sol\":3103:3112  uint xQty */\n      0x00\n        /* \"IntegerToRoman.sol\":3120:3122  10 */\n      0x0a\n        /* \"IntegerToRoman.sol\":3115:3119  temp */\n      dup5\n        /* \"IntegerToRoman.sol\":3115:3122  temp/10 */\n      tag_52\n      swap2\n      swap1\n      tag_13\n      jump\t// in\n    tag_52:\n        /* \"IntegerToRoman.sol\":3103:3122  uint xQty = temp/10 */\n      0xffff\n      and\n      swap1\n      pop\n        /* \"IntegerToRoman.sol\":3141:3256  while ( xQty>0) {... */\n    tag_53:\n        /* \"IntegerToRoman.sol\":3154:3155  0 */\n      0x00\n        /* \"IntegerToRoman.sol\":3149:3153  xQty */\n      dup2\n        /* \"IntegerToRoman.sol\":3149:3155  xQty>0 */\n      gt\n        /* \"IntegerToRoman.sol\":3141:3256  while ( xQty>0) {... */\n      iszero\n      tag_54\n      jumpi\n        /* \"IntegerToRoman.sol\":3200:3203  res */\n      dup3\n        /* \"IntegerToRoman.sol\":3205:3206  X */\n      mload(0x40)\n      dup1\n      0x40\n      add\n      0x40\n      mstore\n      dup1\n      0x01\n      dup2\n      mstore\n      0x20\n      add\n      0x5800000000000000000000000000000000000000000000000000000000000000\n      dup2\n      mstore\n      pop\n        /* \"IntegerToRoman.sol\":3186:3207  string.concat(res, X) */\n      add(0x20, mload(0x40))\n      tag_55\n      swap3\n      swap2\n      swap1\n      tag_17\n      jump\t// in\n    tag_55:\n      mload(0x40)\n      0x20\n      dup2\n      dup4\n      sub\n      sub\n      dup2\n      mstore\n      swap1\n      0x40\n      mstore\n        /* \"IntegerToRoman.sol\":3180:3207  res = string.concat(res, X) */\n      swap3\n      pop\n        /* \"IntegerToRoman.sol\":3230:3236  xQty-- */\n      dup1\n      dup1\n      tag_56\n      swap1\n      tag_19\n      jump\t// in\n    tag_56:\n      swap2\n      pop\n      pop\n        /* \"IntegerToRoman.sol\":3141:3256  while ( xQty>0) {... */\n      jump(tag_53)\n    tag_54:\n        /* \"IntegerToRoman.sol\":3084:3271  {... */\n      pop\n        /* \"IntegerToRoman.sol\":2955:3271  if(temp >= 40){... */\n    tag_51:\n        /* \"IntegerToRoman.sol\":3332:3334  10 */\n      0x0a\n        /* \"IntegerToRoman.sol\":3327:3331  temp */\n      dup4\n        /* \"IntegerToRoman.sol\":3327:3334  temp%10 */\n      tag_57\n      swap2\n      swap1\n      tag_21\n      jump\t// in\n    tag_57:\n        /* \"IntegerToRoman.sol\":3320:3334  temp = temp%10 */\n      swap3\n      pop\n        /* \"IntegerToRoman.sol\":3356:3357  9 */\n      0x09\n        /* \"IntegerToRoman.sol\":3348:3352  temp */\n      dup4\n        /* \"IntegerToRoman.sol\":3348:3357  temp >= 9 */\n      0xffff\n      and\n      lt\n        /* \"IntegerToRoman.sol\":3345:3556  if(temp >= 9){... */\n      tag_58\n      jumpi\n        /* \"IntegerToRoman.sol\":3393:3396  res */\n      dup2\n        /* \"IntegerToRoman.sol\":3398:3408  specialMap */\n      0x00\n        /* \"IntegerToRoman.sol\":3398:3411  specialMap[9] */\n      0x00\n        /* \"IntegerToRoman.sol\":3409:3410  9 */\n      0x09\n        /* \"IntegerToRoman.sol\":3398:3411  specialMap[9] */\n      dup2\n      mstore\n      0x20\n      add\n      swap1\n      dup2\n      mstore\n      0x20\n      add\n      0x00\n      keccak256\n        /* \"IntegerToRoman.sol\":3379:3412  string.concat(res, specialMap[9]) */\n      add(0x20, mload(0x40))\n      tag_59\n      swap3\n      swap2\n      swap1\n      tag_24\n      jump\t// in\n    tag_59:\n      mload(0x40)\n      0x20\n      dup2\n      dup4\n      sub\n      sub\n      dup2\n      mstore\n      swap1\n      0x40\n      mstore\n        /* \"IntegerToRoman.sol\":3373:3412  res = string.concat(res, specialMap[9]) */\n      swap2\n      pop\n        /* \"IntegerToRoman.sol\":3441:3442  9 */\n      0x09\n        /* \"IntegerToRoman.sol\":3434:3438  temp */\n      dup4\n        /* \"IntegerToRoman.sol\":3434:3442  temp - 9 */\n      tag_60\n      swap2\n      swap1\n      tag_26\n      jump\t// in\n    tag_60:\n        /* \"IntegerToRoman.sol\":3427:3442  temp = temp - 9 */\n      swap3\n      pop\n        /* \"IntegerToRoman.sol\":3345:3556  if(temp >= 9){... */\n      jump(tag_61)\n    tag_58:\n        /* \"IntegerToRoman.sol\":3470:3471  5 */\n      0x05\n        /* \"IntegerToRoman.sol\":3462:3466  temp */\n      dup4\n        /* \"IntegerToRoman.sol\":3462:3471  temp >= 5 */\n      0xffff\n      and\n      lt\n        /* \"IntegerToRoman.sol\":3459:3556  if(temp >= 5){... */\n      tag_62\n      jumpi\n        /* \"IntegerToRoman.sol\":3507:3510  res */\n      dup2\n        /* \"IntegerToRoman.sol\":3512:3513  V */\n      mload(0x40)\n      dup1\n      0x40\n      add\n      0x40\n      mstore\n      dup1\n      0x01\n      dup2\n      mstore\n      0x20\n      add\n      0x5600000000000000000000000000000000000000000000000000000000000000\n      dup2\n      mstore\n      pop\n        /* \"IntegerToRoman.sol\":3493:3514  string.concat(res, V) */\n      add(0x20, mload(0x40))\n      tag_63\n      swap3\n      swap2\n      swap1\n      tag_17\n      jump\t// in\n    tag_63:\n      mload(0x40)\n      0x20\n      dup2\n      dup4\n      sub\n      sub\n      dup2\n      mstore\n      swap1\n      0x40\n      mstore\n        /* \"IntegerToRoman.sol\":3487:3514  res = string.concat(res, V) */\n      swap2\n      pop\n        /* \"IntegerToRoman.sol\":3543:3544  5 */\n      0x05\n        /* \"IntegerToRoman.sol\":3536:3540  temp */\n      dup4\n        /* \"IntegerToRoman.sol\":3536:3544  temp - 5 */\n      tag_64\n      swap2\n      swap1\n      tag_26\n      jump\t// in\n    tag_64:\n        /* \"IntegerToRoman.sol\":3529:3544  temp = temp - 5 */\n      swap3\n      pop\n        /* \"IntegerToRoman.sol\":3459:3556  if(temp >= 5){... */\n    tag_62:\n        /* \"IntegerToRoman.sol\":3345:3556  if(temp >= 9){... */\n    tag_61:\n        /* \"IntegerToRoman.sol\":3592:3593  4 */\n      0x04\n        /* \"IntegerToRoman.sol\":3584:3588  temp */\n      dup4\n        /* \"IntegerToRoman.sol\":3584:3593  temp >= 4 */\n      0xffff\n      and\n      lt\n        /* \"IntegerToRoman.sol\":3581:3893  if(temp >= 4){... */\n      tag_65\n      jumpi\n        /* \"IntegerToRoman.sol\":3633:3636  res */\n      dup2\n        /* \"IntegerToRoman.sol\":3638:3648  specialMap */\n      0x00\n        /* \"IntegerToRoman.sol\":3638:3651  specialMap[4] */\n      0x00\n        /* \"IntegerToRoman.sol\":3649:3650  4 */\n      0x04\n        /* \"IntegerToRoman.sol\":3638:3651  specialMap[4] */\n      dup2\n      mstore\n      0x20\n      add\n      swap1\n      dup2\n      mstore\n      0x20\n      add\n      0x00\n      keccak256\n        /* \"IntegerToRoman.sol\":3619:3652  string.concat(res, specialMap[4]) */\n      add(0x20, mload(0x40))\n      tag_66\n      swap3\n      swap2\n      swap1\n      tag_24\n      jump\t// in\n    tag_66:\n      mload(0x40)\n      0x20\n      dup2\n      dup4\n      sub\n      sub\n      dup2\n      mstore\n      swap1\n      0x40\n      mstore\n        /* \"IntegerToRoman.sol\":3613:3652  res = string.concat(res, specialMap[4]) */\n      swap2\n      pop\n        /* \"IntegerToRoman.sol\":3685:3686  4 */\n      0x04\n        /* \"IntegerToRoman.sol\":3678:3682  temp */\n      dup4\n        /* \"IntegerToRoman.sol\":3678:3686  temp - 4 */\n      tag_67\n      swap2\n      swap1\n      tag_26\n      jump\t// in\n    tag_67:\n        /* \"IntegerToRoman.sol\":3671:3686  temp = temp - 4 */\n      swap3\n      pop\n        /* \"IntegerToRoman.sol\":3581:3893  if(temp >= 4){... */\n      jump(tag_68)\n    tag_65:\n        /* \"IntegerToRoman.sol\":3726:3735  uint iQty */\n      0x00\n        /* \"IntegerToRoman.sol\":3743:3744  1 */\n      0x01\n        /* \"IntegerToRoman.sol\":3738:3742  temp */\n      dup5\n        /* \"IntegerToRoman.sol\":3738:3744  temp/1 */\n      tag_69\n      swap2\n      swap1\n      tag_13\n      jump\t// in\n    tag_69:\n        /* \"IntegerToRoman.sol\":3726:3744  uint iQty = temp/1 */\n      0xffff\n      and\n      swap1\n      pop\n        /* \"IntegerToRoman.sol\":3763:3878  while ( iQty>0) {... */\n    tag_70:\n        /* \"IntegerToRoman.sol\":3776:3777  0 */\n      0x00\n        /* \"IntegerToRoman.sol\":3771:3775  iQty */\n      dup2\n        /* \"IntegerToRoman.sol\":3771:3777  iQty>0 */\n      gt\n        /* \"IntegerToRoman.sol\":3763:3878  while ( iQty>0) {... */\n      iszero\n      tag_71\n      jumpi\n        /* \"IntegerToRoman.sol\":3822:3825  res */\n      dup3\n        /* \"IntegerToRoman.sol\":3827:3828  I */\n      mload(0x40)\n      dup1\n      0x40\n      add\n      0x40\n      mstore\n      dup1\n      0x01\n      dup2\n      mstore\n      0x20\n      add\n      0x4900000000000000000000000000000000000000000000000000000000000000\n      dup2\n      mstore\n      pop\n        /* \"IntegerToRoman.sol\":3808:3829  string.concat(res, I) */\n      add(0x20, mload(0x40))\n      tag_72\n      swap3\n      swap2\n      swap1\n      tag_17\n      jump\t// in\n    tag_72:\n      mload(0x40)\n      0x20\n      dup2\n      dup4\n      sub\n      sub\n      dup2\n      mstore\n      swap1\n      0x40\n      mstore\n        /* \"IntegerToRoman.sol\":3802:3829  res = string.concat(res, I) */\n      swap3\n      pop\n        /* \"IntegerToRoman.sol\":3852:3858  iQty-- */\n      dup1\n      dup1\n      tag_73\n      swap1\n      tag_19\n      jump\t// in\n    tag_73:\n      swap2\n      pop\n      pop\n        /* \"IntegerToRoman.sol\":3763:3878  while ( iQty>0) {... */\n      jump(tag_70)\n    tag_71:\n        /* \"IntegerToRoman.sol\":3707:3893  {... */\n      pop\n        /* \"IntegerToRoman.sol\":3581:3893  if(temp >= 4){... */\n    tag_68:\n        /* \"IntegerToRoman.sol\":3921:3924  res */\n      dup2\n        /* \"IntegerToRoman.sol\":3914:3924  return res */\n      swap4\n      pop\n      pop\n      pop\n      pop\n        /* \"IntegerToRoman.sol\":1651:3934  function Ingeter2Roman(uint16 i) public view returns (string memory) {... */\n    tag_10:\n      swap2\n      swap1\n      pop\n      jump\t// out\n        /* \"#utility.yul\":88:205   */\n    tag_75:\n        /* \"#utility.yul\":197:198   */\n      0x00\n        /* \"#utility.yul\":194:195   */\n      0x00\n        /* \"#utility.yul\":187:199   */\n      revert\n        /* \"#utility.yul\":334:423   */\n    tag_77:\n        /* \"#utility.yul\":370:377   */\n      0x00\n        /* \"#utility.yul\":410:416   */\n      0xffff\n        /* \"#utility.yul\":403:408   */\n      dup3\n        /* \"#utility.yul\":399:417   */\n      and\n        /* \"#utility.yul\":388:417   */\n      swap1\n      pop\n        /* \"#utility.yul\":334:423   */\n      swap2\n      swap1\n      pop\n      jump\t// out\n        /* \"#utility.yul\":429:549   */\n    tag_78:\n        /* \"#utility.yul\":501:524   */\n      tag_100\n        /* \"#utility.yul\":518:523   */\n      dup2\n        /* \"#utility.yul\":501:524   */\n      tag_77\n      jump\t// in\n    tag_100:\n        /* \"#utility.yul\":494:499   */\n      dup2\n        /* \"#utility.yul\":491:525   */\n      eq\n        /* \"#utility.yul\":481:543   */\n      tag_101\n      jumpi\n        /* \"#utility.yul\":539:540   */\n      0x00\n        /* \"#utility.yul\":536:537   */\n      0x00\n        /* \"#utility.yul\":529:541   */\n      revert\n        /* \"#utility.yul\":481:543   */\n    tag_101:\n        /* \"#utility.yul\":429:549   */\n      pop\n      jump\t// out\n        /* \"#utility.yul\":555:692   */\n    tag_79:\n        /* \"#utility.yul\":600:605   */\n      0x00\n        /* \"#utility.yul\":638:644   */\n      dup2\n        /* \"#utility.yul\":625:645   */\n      calldataload\n        /* \"#utility.yul\":616:645   */\n      swap1\n      pop\n        /* \"#utility.yul\":654:686   */\n      tag_103\n        /* \"#utility.yul\":680:685   */\n      dup2\n        /* \"#utility.yul\":654:686   */\n      tag_78\n      jump\t// in\n    tag_103:\n        /* \"#utility.yul\":555:692   */\n      swap3\n      swap2\n      pop\n      pop\n      jump\t// out\n        /* \"#utility.yul\":698:1025   */\n    tag_6:\n        /* \"#utility.yul\":756:762   */\n      0x00\n        /* \"#utility.yul\":805:807   */\n      0x20\n        /* \"#utility.yul\":793:802   */\n      dup3\n        /* \"#utility.yul\":784:791   */\n      dup5\n        /* \"#utility.yul\":780:803   */\n      sub\n        /* \"#utility.yul\":776:808   */\n      slt\n        /* \"#utility.yul\":773:892   */\n      iszero\n      tag_105\n      jumpi\n        /* \"#utility.yul\":811:890   */\n      tag_106\n      tag_75\n      jump\t// in\n    tag_106:\n        /* \"#utility.yul\":773:892   */\n    tag_105:\n        /* \"#utility.yul\":931:932   */\n      0x00\n        /* \"#utility.yul\":956:1008   */\n      tag_107\n        /* \"#utility.yul\":1000:1007   */\n      dup5\n        /* \"#utility.yul\":991:997   */\n      dup3\n        /* \"#utility.yul\":980:989   */\n      dup6\n        /* \"#utility.yul\":976:998   */\n      add\n        /* \"#utility.yul\":956:1008   */\n      tag_79\n      jump\t// in\n    tag_107:\n        /* \"#utility.yul\":946:1008   */\n      swap2\n      pop\n        /* \"#utility.yul\":902:1018   */\n      pop\n        /* \"#utility.yul\":698:1025   */\n      swap3\n      swap2\n      pop\n      pop\n      jump\t// out\n        /* \"#utility.yul\":1031:1130   */\n    tag_80:\n        /* \"#utility.yul\":1083:1089   */\n      0x00\n        /* \"#utility.yul\":1117:1122   */\n      dup2\n        /* \"#utility.yul\":1111:1123   */\n      mload\n        /* \"#utility.yul\":1101:1123   */\n      swap1\n      pop\n        /* \"#utility.yul\":1031:1130   */\n      swap2\n      swap1\n      pop\n      jump\t// out\n        /* \"#utility.yul\":1136:1305   */\n    tag_81:\n        /* \"#utility.yul\":1220:1231   */\n      0x00\n        /* \"#utility.yul\":1254:1260   */\n      dup3\n        /* \"#utility.yul\":1249:1252   */\n      dup3\n        /* \"#utility.yul\":1242:1261   */\n      mstore\n        /* \"#utility.yul\":1294:1298   */\n      0x20\n        /* \"#utility.yul\":1289:1292   */\n      dup3\n        /* \"#utility.yul\":1285:1299   */\n      add\n        /* \"#utility.yul\":1270:1299   */\n      swap1\n      pop\n        /* \"#utility.yul\":1136:1305   */\n      swap3\n      swap2\n      pop\n      pop\n      jump\t// out\n        /* \"#utility.yul\":1311:1450   */\n    tag_82:\n        /* \"#utility.yul\":1400:1406   */\n      dup3\n        /* \"#utility.yul\":1395:1398   */\n      dup2\n        /* \"#utility.yul\":1390:1393   */\n      dup4\n        /* \"#utility.yul\":1384:1407   */\n      mcopy\n        /* \"#utility.yul\":1441:1442   */\n      0x00\n        /* \"#utility.yul\":1432:1438   */\n      dup4\n        /* \"#utility.yul\":1427:1430   */\n      dup4\n        /* \"#utility.yul\":1423:1439   */\n      add\n        /* \"#utility.yul\":1416:1443   */\n      mstore\n        /* \"#utility.yul\":1311:1450   */\n      pop\n      pop\n      pop\n      jump\t// out\n        /* \"#utility.yul\":1456:1558   */\n    tag_83:\n        /* \"#utility.yul\":1497:1503   */\n      0x00\n        /* \"#utility.yul\":1548:1550   */\n      0x1f\n        /* \"#utility.yul\":1544:1551   */\n      not\n        /* \"#utility.yul\":1539:1541   */\n      0x1f\n        /* \"#utility.yul\":1532:1537   */\n      dup4\n        /* \"#utility.yul\":1528:1542   */\n      add\n        /* \"#utility.yul\":1524:1552   */\n      and\n        /* \"#utility.yul\":1514:1552   */\n      swap1\n      pop\n        /* \"#utility.yul\":1456:1558   */\n      swap2\n      swap1\n      pop\n      jump\t// out\n        /* \"#utility.yul\":1564:1941   */\n    tag_84:\n        /* \"#utility.yul\":1652:1655   */\n      0x00\n        /* \"#utility.yul\":1680:1719   */\n      tag_113\n        /* \"#utility.yul\":1713:1718   */\n      dup3\n        /* \"#utility.yul\":1680:1719   */\n      tag_80\n      jump\t// in\n    tag_113:\n        /* \"#utility.yul\":1735:1806   */\n      tag_114\n        /* \"#utility.yul\":1799:1805   */\n      dup2\n        /* \"#utility.yul\":1794:1797   */\n      dup6\n        /* \"#utility.yul\":1735:1806   */\n      tag_81\n      jump\t// in\n    tag_114:\n        /* \"#utility.yul\":1728:1806   */\n      swap4\n      pop\n        /* \"#utility.yul\":1815:1880   */\n      tag_115\n        /* \"#utility.yul\":1873:1879   */\n      dup2\n        /* \"#utility.yul\":1868:1871   */\n      dup6\n        /* \"#utility.yul\":1861:1865   */\n      0x20\n        /* \"#utility.yul\":1854:1859   */\n      dup7\n        /* \"#utility.yul\":1850:1866   */\n      add\n        /* \"#utility.yul\":1815:1880   */\n      tag_82\n      jump\t// in\n    tag_115:\n        /* \"#utility.yul\":1905:1934   */\n      tag_116\n        /* \"#utility.yul\":1927:1933   */\n      dup2\n        /* \"#utility.yul\":1905:1934   */\n      tag_83\n      jump\t// in\n    tag_116:\n        /* \"#utility.yul\":1900:1903   */\n      dup5\n        /* \"#utility.yul\":1896:1935   */\n      add\n        /* \"#utility.yul\":1889:1935   */\n      swap2\n      pop\n        /* \"#utility.yul\":1656:1941   */\n      pop\n        /* \"#utility.yul\":1564:1941   */\n      swap3\n      swap2\n      pop\n      pop\n      jump\t// out\n        /* \"#utility.yul\":1947:2260   */\n    tag_9:\n        /* \"#utility.yul\":2060:2064   */\n      0x00\n        /* \"#utility.yul\":2098:2100   */\n      0x20\n        /* \"#utility.yul\":2087:2096   */\n      dup3\n        /* \"#utility.yul\":2083:2101   */\n      add\n        /* \"#utility.yul\":2075:2101   */\n      swap1\n      pop\n        /* \"#utility.yul\":2147:2156   */\n      dup2\n        /* \"#utility.yul\":2141:2145   */\n      dup2\n        /* \"#utility.yul\":2137:2157   */\n      sub\n        /* \"#utility.yul\":2133:2134   */\n      0x00\n        /* \"#utility.yul\":2122:2131   */\n      dup4\n        /* \"#utility.yul\":2118:2135   */\n      add\n        /* \"#utility.yul\":2111:2158   */\n      mstore\n        /* \"#utility.yul\":2175:2253   */\n      tag_118\n        /* \"#utility.yul\":2248:2252   */\n      dup2\n        /* \"#utility.yul\":2239:2245   */\n      dup5\n        /* \"#utility.yul\":2175:2253   */\n      tag_84\n      jump\t// in\n    tag_118:\n        /* \"#utility.yul\":2167:2253   */\n      swap1\n      pop\n        /* \"#utility.yul\":1947:2260   */\n      swap3\n      swap2\n      pop\n      pop\n      jump\t// out\n        /* \"#utility.yul\":2266:2446   */\n    tag_85:\n        /* \"#utility.yul\":2314:2391   */\n      0x4e487b7100000000000000000000000000000000000000000000000000000000\n        /* \"#utility.yul\":2311:2312   */\n      0x00\n        /* \"#utility.yul\":2304:2392   */\n      mstore\n        /* \"#utility.yul\":2411:2415   */\n      0x12\n        /* \"#utility.yul\":2408:2409   */\n      0x04\n        /* \"#utility.yul\":2401:2416   */\n      mstore\n        /* \"#utility.yul\":2435:2439   */\n      0x24\n        /* \"#utility.yul\":2432:2433   */\n      0x00\n        /* \"#utility.yul\":2425:2440   */\n      revert\n        /* \"#utility.yul\":2452:2632   */\n    tag_86:\n        /* \"#utility.yul\":2500:2577   */\n      0x4e487b7100000000000000000000000000000000000000000000000000000000\n        /* \"#utility.yul\":2497:2498   */\n      0x00\n        /* \"#utility.yul\":2490:2578   */\n      mstore\n        /* \"#utility.yul\":2597:2601   */\n      0x11\n        /* \"#utility.yul\":2594:2595   */\n      0x04\n        /* \"#utility.yul\":2587:2602   */\n      mstore\n        /* \"#utility.yul\":2621:2625   */\n      0x24\n        /* \"#utility.yul\":2618:2619   */\n      0x00\n        /* \"#utility.yul\":2611:2626   */\n      revert\n        /* \"#utility.yul\":2638:2820   */\n    tag_13:\n        /* \"#utility.yul\":2677:2678   */\n      0x00\n        /* \"#utility.yul\":2694:2713   */\n      tag_122\n        /* \"#utility.yul\":2711:2712   */\n      dup3\n        /* \"#utility.yul\":2694:2713   */\n      tag_77\n      jump\t// in\n    tag_122:\n        /* \"#utility.yul\":2689:2713   */\n      swap2\n      pop\n        /* \"#utility.yul\":2727:2746   */\n      tag_123\n        /* \"#utility.yul\":2744:2745   */\n      dup4\n        /* \"#utility.yul\":2727:2746   */\n      tag_77\n      jump\t// in\n    tag_123:\n        /* \"#utility.yul\":2722:2746   */\n      swap3\n      pop\n        /* \"#utility.yul\":2765:2766   */\n      dup3\n        /* \"#utility.yul\":2755:2790   */\n      tag_124\n      jumpi\n        /* \"#utility.yul\":2770:2788   */\n      tag_125\n      tag_85\n      jump\t// in\n    tag_125:\n        /* \"#utility.yul\":2755:2790   */\n    tag_124:\n        /* \"#utility.yul\":2812:2813   */\n      dup3\n        /* \"#utility.yul\":2809:2810   */\n      dup3\n        /* \"#utility.yul\":2805:2814   */\n      div\n        /* \"#utility.yul\":2800:2814   */\n      swap1\n      pop\n        /* \"#utility.yul\":2638:2820   */\n      swap3\n      swap2\n      pop\n      pop\n      jump\t// out\n        /* \"#utility.yul\":2826:2974   */\n    tag_87:\n        /* \"#utility.yul\":2928:2939   */\n      0x00\n        /* \"#utility.yul\":2965:2968   */\n      dup2\n        /* \"#utility.yul\":2950:2968   */\n      swap1\n      pop\n        /* \"#utility.yul\":2826:2974   */\n      swap3\n      swap2\n      pop\n      pop\n      jump\t// out\n        /* \"#utility.yul\":2980:3370   */\n    tag_88:\n        /* \"#utility.yul\":3086:3089   */\n      0x00\n        /* \"#utility.yul\":3114:3153   */\n      tag_128\n        /* \"#utility.yul\":3147:3152   */\n      dup3\n        /* \"#utility.yul\":3114:3153   */\n      tag_80\n      jump\t// in\n    tag_128:\n        /* \"#utility.yul\":3169:3258   */\n      tag_129\n        /* \"#utility.yul\":3251:3257   */\n      dup2\n        /* \"#utility.yul\":3246:3249   */\n      dup6\n        /* \"#utility.yul\":3169:3258   */\n      tag_87\n      jump\t// in\n    tag_129:\n        /* \"#utility.yul\":3162:3258   */\n      swap4\n      pop\n        /* \"#utility.yul\":3267:3332   */\n      tag_130\n        /* \"#utility.yul\":3325:3331   */\n      dup2\n        /* \"#utility.yul\":3320:3323   */\n      dup6\n        /* \"#utility.yul\":3313:3317   */\n      0x20\n        /* \"#utility.yul\":3306:3311   */\n      dup7\n        /* \"#utility.yul\":3302:3318   */\n      add\n        /* \"#utility.yul\":3267:3332   */\n      tag_82\n      jump\t// in\n    tag_130:\n        /* \"#utility.yul\":3357:3363   */\n      dup1\n        /* \"#utility.yul\":3352:3355   */\n      dup5\n        /* \"#utility.yul\":3348:3364   */\n      add\n        /* \"#utility.yul\":3341:3364   */\n      swap2\n      pop\n        /* \"#utility.yul\":3090:3370   */\n      pop\n        /* \"#utility.yul\":2980:3370   */\n      swap3\n      swap2\n      pop\n      pop\n      jump\t// out\n        /* \"#utility.yul\":3376:3811   */\n    tag_17:\n        /* \"#utility.yul\":3556:3559   */\n      0x00\n        /* \"#utility.yul\":3578:3673   */\n      tag_132\n        /* \"#utility.yul\":3669:3672   */\n      dup3\n        /* \"#utility.yul\":3660:3666   */\n      dup6\n        /* \"#utility.yul\":3578:3673   */\n      tag_88\n      jump\t// in\n    tag_132:\n        /* \"#utility.yul\":3571:3673   */\n      swap2\n      pop\n        /* \"#utility.yul\":3690:3785   */\n      tag_133\n        /* \"#utility.yul\":3781:3784   */\n      dup3\n        /* \"#utility.yul\":3772:3778   */\n      dup5\n        /* \"#utility.yul\":3690:3785   */\n      tag_88\n      jump\t// in\n    tag_133:\n        /* \"#utility.yul\":3683:3785   */\n      swap2\n      pop\n        /* \"#utility.yul\":3802:3805   */\n      dup2\n        /* \"#utility.yul\":3795:3805   */\n      swap1\n      pop\n        /* \"#utility.yul\":3376:3811   */\n      swap4\n      swap3\n      pop\n      pop\n      pop\n      jump\t// out\n        /* \"#utility.yul\":3817:3894   */\n    tag_89:\n        /* \"#utility.yul\":3854:3861   */\n      0x00\n        /* \"#utility.yul\":3883:3888   */\n      dup2\n        /* \"#utility.yul\":3872:3888   */\n      swap1\n      pop\n        /* \"#utility.yul\":3817:3894   */\n      swap2\n      swap1\n      pop\n      jump\t// out\n        /* \"#utility.yul\":3900:4071   */\n    tag_19:\n        /* \"#utility.yul\":3939:3942   */\n      0x00\n        /* \"#utility.yul\":3962:3986   */\n      tag_136\n        /* \"#utility.yul\":3980:3985   */\n      dup3\n        /* \"#utility.yul\":3962:3986   */\n      tag_89\n      jump\t// in\n    tag_136:\n        /* \"#utility.yul\":3953:3986   */\n      swap2\n      pop\n        /* \"#utility.yul\":4008:4012   */\n      0x00\n        /* \"#utility.yul\":4001:4006   */\n      dup3\n        /* \"#utility.yul\":3998:4013   */\n      sub\n        /* \"#utility.yul\":3995:4036   */\n      tag_137\n      jumpi\n        /* \"#utility.yul\":4016:4034   */\n      tag_138\n      tag_86\n      jump\t// in\n    tag_138:\n        /* \"#utility.yul\":3995:4036   */\n    tag_137:\n        /* \"#utility.yul\":4063:4064   */\n      0x01\n        /* \"#utility.yul\":4056:4061   */\n      dup3\n        /* \"#utility.yul\":4052:4065   */\n      sub\n        /* \"#utility.yul\":4045:4065   */\n      swap1\n      pop\n        /* \"#utility.yul\":3900:4071   */\n      swap2\n      swap1\n      pop\n      jump\t// out\n        /* \"#utility.yul\":4077:4250   */\n    tag_21:\n        /* \"#utility.yul\":4108:4109   */\n      0x00\n        /* \"#utility.yul\":4125:4144   */\n      tag_140\n        /* \"#utility.yul\":4142:4143   */\n      dup3\n        /* \"#utility.yul\":4125:4144   */\n      tag_77\n      jump\t// in\n    tag_140:\n        /* \"#utility.yul\":4120:4144   */\n      swap2\n      pop\n        /* \"#utility.yul\":4158:4177   */\n      tag_141\n        /* \"#utility.yul\":4175:4176   */\n      dup4\n        /* \"#utility.yul\":4158:4177   */\n      tag_77\n      jump\t// in\n    tag_141:\n        /* \"#utility.yul\":4153:4177   */\n      swap3\n      pop\n        /* \"#utility.yul\":4196:4197   */\n      dup3\n        /* \"#utility.yul\":4186:4221   */\n      tag_142\n      jumpi\n        /* \"#utility.yul\":4201:4219   */\n      tag_143\n      tag_85\n      jump\t// in\n    tag_143:\n        /* \"#utility.yul\":4186:4221   */\n    tag_142:\n        /* \"#utility.yul\":4242:4243   */\n      dup3\n        /* \"#utility.yul\":4239:4240   */\n      dup3\n        /* \"#utility.yul\":4235:4244   */\n      mod\n        /* \"#utility.yul\":4230:4244   */\n      swap1\n      pop\n        /* \"#utility.yul\":4077:4250   */\n      swap3\n      swap2\n      pop\n      pop\n      jump\t// out\n        /* \"#utility.yul\":4256:4436   */\n    tag_90:\n        /* \"#utility.yul\":4304:4381   */\n      0x4e487b7100000000000000000000000000000000000000000000000000000000\n        /* \"#utility.yul\":4301:4302   */\n      0x00\n        /* \"#utility.yul\":4294:4382   */\n      mstore\n        /* \"#utility.yul\":4401:4405   */\n      0x22\n        /* \"#utility.yul\":4398:4399   */\n      0x04\n        /* \"#utility.yul\":4391:4406   */\n      mstore\n        /* \"#utility.yul\":4425:4429   */\n      0x24\n        /* \"#utility.yul\":4422:4423   */\n      0x00\n        /* \"#utility.yul\":4415:4430   */\n      revert\n        /* \"#utility.yul\":4442:4762   */\n    tag_91:\n        /* \"#utility.yul\":4486:4492   */\n      0x00\n        /* \"#utility.yul\":4523:4524   */\n      0x02\n        /* \"#utility.yul\":4517:4521   */\n      dup3\n        /* \"#utility.yul\":4513:4525   */\n      div\n        /* \"#utility.yul\":4503:4525   */\n      swap1\n      pop\n        /* \"#utility.yul\":4570:4571   */\n      0x01\n        /* \"#utility.yul\":4564:4568   */\n      dup3\n        /* \"#utility.yul\":4560:4572   */\n      and\n        /* \"#utility.yul\":4591:4609   */\n      dup1\n        /* \"#utility.yul\":4581:4662   */\n      tag_146\n      jumpi\n        /* \"#utility.yul\":4647:4651   */\n      0x7f\n        /* \"#utility.yul\":4639:4645   */\n      dup3\n        /* \"#utility.yul\":4635:4652   */\n      and\n        /* \"#utility.yul\":4625:4652   */\n      swap2\n      pop\n        /* \"#utility.yul\":4581:4662   */\n    tag_146:\n        /* \"#utility.yul\":4709:4711   */\n      0x20\n        /* \"#utility.yul\":4701:4707   */\n      dup3\n        /* \"#utility.yul\":4698:4712   */\n      lt\n        /* \"#utility.yul\":4678:4696   */\n      dup2\n        /* \"#utility.yul\":4675:4713   */\n      sub\n        /* \"#utility.yul\":4672:4756   */\n      tag_147\n      jumpi\n        /* \"#utility.yul\":4728:4746   */\n      tag_148\n      tag_90\n      jump\t// in\n    tag_148:\n        /* \"#utility.yul\":4672:4756   */\n    tag_147:\n        /* \"#utility.yul\":4493:4762   */\n      pop\n        /* \"#utility.yul\":4442:4762   */\n      swap2\n      swap1\n      pop\n      jump\t// out\n        /* \"#utility.yul\":4768:4909   */\n    tag_92:\n        /* \"#utility.yul\":4817:4821   */\n      0x00\n        /* \"#utility.yul\":4840:4843   */\n      dup2\n        /* \"#utility.yul\":4832:4843   */\n      swap1\n      pop\n        /* \"#utility.yul\":4863:4866   */\n      dup2\n        /* \"#utility.yul\":4860:4861   */\n      0x00\n        /* \"#utility.yul\":4853:4867   */\n      mstore\n        /* \"#utility.yul\":4897:4901   */\n      0x20\n        /* \"#utility.yul\":4894:4895   */\n      0x00\n        /* \"#utility.yul\":4884:4902   */\n      keccak256\n        /* \"#utility.yul\":4876:4902   */\n      swap1\n      pop\n        /* \"#utility.yul\":4768:4909   */\n      swap2\n      swap1\n      pop\n      jump\t// out\n        /* \"#utility.yul\":4939:5813   */\n    tag_93:\n        /* \"#utility.yul\":5042:5045   */\n      0x00\n        /* \"#utility.yul\":5079:5084   */\n      dup2\n        /* \"#utility.yul\":5073:5085   */\n      sload\n        /* \"#utility.yul\":5108:5144   */\n      tag_151\n        /* \"#utility.yul\":5134:5143   */\n      dup2\n        /* \"#utility.yul\":5108:5144   */\n      tag_91\n      jump\t// in\n    tag_151:\n        /* \"#utility.yul\":5160:5249   */\n      tag_152\n        /* \"#utility.yul\":5242:5248   */\n      dup2\n        /* \"#utility.yul\":5237:5240   */\n      dup7\n        /* \"#utility.yul\":5160:5249   */\n      tag_87\n      jump\t// in\n    tag_152:\n        /* \"#utility.yul\":5153:5249   */\n      swap5\n      pop\n        /* \"#utility.yul\":5280:5281   */\n      0x01\n        /* \"#utility.yul\":5269:5278   */\n      dup3\n        /* \"#utility.yul\":5265:5282   */\n      and\n        /* \"#utility.yul\":5296:5297   */\n      0x00\n        /* \"#utility.yul\":5291:5457   */\n      dup2\n      eq\n      tag_154\n      jumpi\n        /* \"#utility.yul\":5471:5472   */\n      0x01\n        /* \"#utility.yul\":5466:5807   */\n      dup2\n      eq\n      tag_155\n      jumpi\n        /* \"#utility.yul\":5258:5807   */\n      jump(tag_153)\n        /* \"#utility.yul\":5291:5457   */\n    tag_154:\n        /* \"#utility.yul\":5375:5379   */\n      0xff\n        /* \"#utility.yul\":5371:5380   */\n      not\n        /* \"#utility.yul\":5360:5369   */\n      dup4\n        /* \"#utility.yul\":5356:5381   */\n      and\n        /* \"#utility.yul\":5351:5354   */\n      dup7\n        /* \"#utility.yul\":5344:5382   */\n      mstore\n        /* \"#utility.yul\":5437:5443   */\n      dup2\n        /* \"#utility.yul\":5430:5444   */\n      iszero\n        /* \"#utility.yul\":5423:5445   */\n      iszero\n        /* \"#utility.yul\":5415:5421   */\n      dup3\n        /* \"#utility.yul\":5411:5446   */\n      mul\n        /* \"#utility.yul\":5406:5409   */\n      dup7\n        /* \"#utility.yul\":5402:5447   */\n      add\n        /* \"#utility.yul\":5395:5447   */\n      swap4\n      pop\n        /* \"#utility.yul\":5291:5457   */\n      jump(tag_153)\n        /* \"#utility.yul\":5466:5807   */\n    tag_155:\n        /* \"#utility.yul\":5533:5571   */\n      tag_156\n        /* \"#utility.yul\":5565:5570   */\n      dup6\n        /* \"#utility.yul\":5533:5571   */\n      tag_92\n      jump\t// in\n    tag_156:\n        /* \"#utility.yul\":5593:5594   */\n      0x00\n        /* \"#utility.yul\":5607:5761   */\n    tag_157:\n        /* \"#utility.yul\":5621:5627   */\n      dup4\n        /* \"#utility.yul\":5618:5619   */\n      dup2\n        /* \"#utility.yul\":5615:5628   */\n      lt\n        /* \"#utility.yul\":5607:5761   */\n      iszero\n      tag_159\n      jumpi\n        /* \"#utility.yul\":5695:5702   */\n      dup2\n        /* \"#utility.yul\":5689:5703   */\n      sload\n        /* \"#utility.yul\":5685:5686   */\n      dup2\n        /* \"#utility.yul\":5680:5683   */\n      dup10\n        /* \"#utility.yul\":5676:5687   */\n      add\n        /* \"#utility.yul\":5669:5704   */\n      mstore\n        /* \"#utility.yul\":5745:5746   */\n      0x01\n        /* \"#utility.yul\":5736:5743   */\n      dup3\n        /* \"#utility.yul\":5732:5747   */\n      add\n        /* \"#utility.yul\":5721:5747   */\n      swap2\n      pop\n        /* \"#utility.yul\":5643:5647   */\n      0x20\n        /* \"#utility.yul\":5640:5641   */\n      dup2\n        /* \"#utility.yul\":5636:5648   */\n      add\n        /* \"#utility.yul\":5631:5648   */\n      swap1\n      pop\n        /* \"#utility.yul\":5607:5761   */\n      jump(tag_157)\n    tag_159:\n        /* \"#utility.yul\":5790:5796   */\n      dup4\n        /* \"#utility.yul\":5785:5788   */\n      dup9\n        /* \"#utility.yul\":5781:5797   */\n      add\n        /* \"#utility.yul\":5774:5797   */\n      swap6\n      pop\n        /* \"#utility.yul\":5473:5807   */\n      pop\n      pop\n        /* \"#utility.yul\":5258:5807   */\n    tag_153:\n      pop\n        /* \"#utility.yul\":5046:5813   */\n      pop\n      pop\n        /* \"#utility.yul\":4939:5813   */\n      swap3\n      swap2\n      pop\n      pop\n      jump\t// out\n        /* \"#utility.yul\":5819:6248   */\n    tag_24:\n        /* \"#utility.yul\":5996:5999   */\n      0x00\n        /* \"#utility.yul\":6018:6113   */\n      tag_161\n        /* \"#utility.yul\":6109:6112   */\n      dup3\n        /* \"#utility.yul\":6100:6106   */\n      dup6\n        /* \"#utility.yul\":6018:6113   */\n      tag_88\n      jump\t// in\n    tag_161:\n        /* \"#utility.yul\":6011:6113   */\n      swap2\n      pop\n        /* \"#utility.yul\":6130:6222   */\n      tag_162\n        /* \"#utility.yul\":6218:6221   */\n      dup3\n        /* \"#utility.yul\":6209:6215   */\n      dup5\n        /* \"#utility.yul\":6130:6222   */\n      tag_93\n      jump\t// in\n    tag_162:\n        /* \"#utility.yul\":6123:6222   */\n      swap2\n      pop\n        /* \"#utility.yul\":6239:6242   */\n      dup2\n        /* \"#utility.yul\":6232:6242   */\n      swap1\n      pop\n        /* \"#utility.yul\":5819:6248   */\n      swap4\n      swap3\n      pop\n      pop\n      pop\n      jump\t// out\n        /* \"#utility.yul\":6254:6450   */\n    tag_26:\n        /* \"#utility.yul\":6293:6297   */\n      0x00\n        /* \"#utility.yul\":6313:6332   */\n      tag_164\n        /* \"#utility.yul\":6330:6331   */\n      dup3\n        /* \"#utility.yul\":6313:6332   */\n      tag_77\n      jump\t// in\n    tag_164:\n        /* \"#utility.yul\":6308:6332   */\n      swap2\n      pop\n        /* \"#utility.yul\":6346:6365   */\n      tag_165\n        /* \"#utility.yul\":6363:6364   */\n      dup4\n        /* \"#utility.yul\":6346:6365   */\n      tag_77\n      jump\t// in\n    tag_165:\n        /* \"#utility.yul\":6341:6365   */\n      swap3\n      pop\n        /* \"#utility.yul\":6389:6390   */\n      dup3\n        /* \"#utility.yul\":6386:6387   */\n      dup3\n        /* \"#utility.yul\":6382:6391   */\n      sub\n        /* \"#utility.yul\":6374:6391   */\n      swap1\n      pop\n        /* \"#utility.yul\":6413:6419   */\n      0xffff\n        /* \"#utility.yul\":6407:6411   */\n      dup2\n        /* \"#utility.yul\":6404:6420   */\n      gt\n        /* \"#utility.yul\":6401:6443   */\n      iszero\n      tag_166\n      jumpi\n        /* \"#utility.yul\":6423:6441   */\n      tag_167\n      tag_86\n      jump\t// in\n    tag_167:\n        /* \"#utility.yul\":6401:6443   */\n    tag_166:\n        /* \"#utility.yul\":6254:6450   */\n      swap3\n      swap2\n      pop\n      pop\n      jump\t// out\n\n    auxdata: 0xa2646970667358221220a5211a5a243febe19c488341a626dde7c568a9562a520c82b3ef39f6fe6f8c7564736f6c634300081e0033\n}\n",
				"bytecode": {
					"linkReferences": {},
					"object": "608060405234801561000f575f5ffd5b506040518060400160405280600281526020017f49560000000000000000000000000000000000000000000000000000000000008152505f5f600481526020019081526020015f209081610063919061044c565b506040518060400160405280600281526020017f49580000000000000000000000000000000000000000000000000000000000008152505f5f600981526020019081526020015f2090816100b7919061044c565b506040518060400160405280600281526020017f584c0000000000000000000000000000000000000000000000000000000000008152505f5f602881526020019081526020015f20908161010b919061044c565b506040518060400160405280600281526020017f58430000000000000000000000000000000000000000000000000000000000008152505f5f605a81526020019081526020015f20908161015f919061044c565b506040518060400160405280600281526020017f43440000000000000000000000000000000000000000000000000000000000008152505f5f61019081526020019081526020015f2090816101b4919061044c565b506040518060400160405280600281526020017f434d0000000000000000000000000000000000000000000000000000000000008152505f5f61038481526020019081526020015f209081610209919061044c565b5061051b565b5f81519050919050565b7f4e487b71000000000000000000000000000000000000000000000000000000005f52604160045260245ffd5b7f4e487b71000000000000000000000000000000000000000000000000000000005f52602260045260245ffd5b5f600282049050600182168061028a57607f821691505b60208210810361029d5761029c610246565b5b50919050565b5f819050815f5260205f209050919050565b5f6020601f8301049050919050565b5f82821b905092915050565b5f600883026102ff7fffffffffffffffffffffffffffffffffffffffffffffffffffffffffffffffff826102c4565b61030986836102c4565b95508019841693508086168417925050509392505050565b5f819050919050565b5f819050919050565b5f61034d61034861034384610321565b61032a565b610321565b9050919050565b5f819050919050565b61036683610333565b61037a61037282610354565b8484546102d0565b825550505050565b5f5f905090565b610391610382565b61039c81848461035d565b505050565b5b818110156103bf576103b45f82610389565b6001810190506103a2565b5050565b601f821115610404576103d5816102a3565b6103de846102b5565b810160208510156103ed578190505b6104016103f9856102b5565b8301826103a1565b50505b505050565b5f82821c905092915050565b5f6104245f1984600802610409565b1980831691505092915050565b5f61043c8383610415565b9150826002028217905092915050565b6104558261020f565b67ffffffffffffffff81111561046e5761046d610219565b5b6104788254610273565b6104838282856103c3565b5f60209050601f8311600181146104b4575f84156104a2578287015190505b6104ac8582610431565b865550610513565b601f1984166104c2866102a3565b5f5b828110156104e9578489015182556001820191506020850194506020810190506104c4565b868310156105065784890151610502601f891682610415565b8355505b6001600288020188555050505b505050505050565b610a1c806105285f395ff3fe608060405234801561000f575f5ffd5b5060043610610029575f3560e01c806365e9e2971461002d575b5f5ffd5b6100476004803603810190610042919061069d565b61005d565b6040516100549190610738565b60405180910390f35b60605f8290505f60405180602001604052805f8152509050610fa08461ffff16111561009b5760405180602001604052805f8152509250505061065d565b5f6103e8836100aa91906107b2565b61ffff1690505b5f81111561012557816040518060400160405280600181526020017f4d0000000000000000000000000000000000000000000000000000000000000081525060405160200161010192919061081c565b6040516020818303038152906040529150808061011d90610848565b9150506100b1565b6103e883610133919061086f565b92506103848361ffff161061018c57815f5f61038481526020019081526020015f2060405160200161016692919061098e565b60405160208183030381529060405291506103848361018591906109b1565b9250610204565b6101f48361ffff161061020357816040518060400160405280600181526020017f44000000000000000000000000000000000000000000000000000000000000008152506040516020016101e192919061081c565b60405160208183030381529060405291506101f48361020091906109b1565b92505b5b6101908361ffff161061025b57815f5f61019081526020019081526020015f2060405160200161023592919061098e565b60405160208183030381529060405291506101908361025491906109b1565b92506102e6565b5f60648461026991906107b2565b61ffff1690505b5f8111156102e457826040518060400160405280600181526020017f43000000000000000000000000000000000000000000000000000000000000008152506040516020016102c092919061081c565b604051602081830303815290604052925080806102dc90610848565b915050610270565b505b6064836102f3919061086f565b9250605a8361ffff161061034957815f5f605a81526020019081526020015f2060405160200161032492919061098e565b6040516020818303038152906040529150605a8361034291906109b1565b92506103bf565b60328361ffff16106103be57816040518060400160405280600181526020017f4c0000000000000000000000000000000000000000000000000000000000000081525060405160200161039d92919061081c565b60405160208183030381529060405291506032836103bb91906109b1565b92505b5b60288361ffff161061041357815f5f602881526020019081526020015f206040516020016103ee92919061098e565b604051602081830303815290604052915060288361040c91906109b1565b925061049e565b5f600a8461042191906107b2565b61ffff1690505b5f81111561049c57826040518060400160405280600181526020017f580000000000000000000000000000000000000000000000000000000000000081525060405160200161047892919061081c565b6040516020818303038152906040529250808061049490610848565b915050610428565b505b600a836104ab919061086f565b925060098361ffff161061050157815f5f600981526020019081526020015f206040516020016104dc92919061098e565b60405160208183030381529060405291506009836104fa91906109b1565b9250610577565b60058361ffff161061057657816040518060400160405280600181526020017f560000000000000000000000000000000000000000000000000000000000000081525060405160200161055592919061081c565b604051602081830303815290604052915060058361057391906109b1565b92505b5b60048361ffff16106105cb57815f5f600481526020019081526020015f206040516020016105a692919061098e565b60405160208183030381529060405291506004836105c491906109b1565b9250610656565b5f6001846105d991906107b2565b61ffff1690505b5f81111561065457826040518060400160405280600181526020017f490000000000000000000000000000000000000000000000000000000000000081525060405160200161063092919061081c565b6040516020818303038152906040529250808061064c90610848565b9150506105e0565b505b8193505050505b919050565b5f5ffd5b5f61ffff82169050919050565b61067c81610666565b8114610686575f5ffd5b50565b5f8135905061069781610673565b92915050565b5f602082840312156106b2576106b1610662565b5b5f6106bf84828501610689565b91505092915050565b5f81519050919050565b5f82825260208201905092915050565b8281835e5f83830152505050565b5f601f19601f8301169050919050565b5f61070a826106c8565b61071481856106d2565b93506107248185602086016106e2565b61072d816106f0565b840191505092915050565b5f6020820190508181035f8301526107508184610700565b905092915050565b7f4e487b71000000000000000000000000000000000000000000000000000000005f52601260045260245ffd5b7f4e487b71000000000000000000000000000000000000000000000000000000005f52601160045260245ffd5b5f6107bc82610666565b91506107c783610666565b9250826107d7576107d6610758565b5b828204905092915050565b5f81905092915050565b5f6107f6826106c8565b61080081856107e2565b93506108108185602086016106e2565b80840191505092915050565b5f61082782856107ec565b915061083382846107ec565b91508190509392505050565b5f819050919050565b5f6108528261083f565b91505f820361086457610863610785565b5b600182039050919050565b5f61087982610666565b915061088483610666565b92508261089457610893610758565b5b828206905092915050565b7f4e487b71000000000000000000000000000000000000000000000000000000005f52602260045260245ffd5b5f60028204905060018216806108e357607f821691505b6020821081036108f6576108f561089f565b5b50919050565b5f819050815f5260205f209050919050565b5f815461091a816108cc565b61092481866107e2565b9450600182165f811461093e576001811461095357610985565b60ff1983168652811515820286019350610985565b61095c856108fc565b5f5b8381101561097d5781548189015260018201915060208101905061095e565b838801955050505b50505092915050565b5f61099982856107ec565b91506109a5828461090e565b91508190509392505050565b5f6109bb82610666565b91506109c683610666565b9250828203905061ffff8111156109e0576109df610785565b5b9291505056fea2646970667358221220a5211a5a243febe19c488341a626dde7c568a9562a520c82b3ef39f6fe6f8c7564736f6c634300081e0033",
					"opcodes": "PUSH1 0x80 PUSH1 0x40 MSTORE CALLVALUE DUP1 ISZERO PUSH2 0xF JUMPI PUSH0 PUSH0 REVERT JUMPDEST POP PUSH1 0x40 MLOAD DUP1 PUSH1 0x40 ADD PUSH1 0x40 MSTORE DUP1 PUSH1 0x2 DUP2 MSTORE PUSH1 0x20 ADD PUSH32 0x4956000000000000000000000000000000000000000000000000000000000000 DUP2 MSTORE POP PUSH0 PUSH0 PUSH1 0x4 DUP2 MSTORE PUSH1 0x20 ADD SWAP1 DUP2 MSTORE PUSH1 0x20 ADD PUSH0 KECCAK256 SWAP1 DUP2 PUSH2 0x63 SWAP2 SWAP1 PUSH2 0x44C JUMP JUMPDEST POP PUSH1 0x40 MLOAD DUP1 PUSH1 0x40 ADD PUSH1 0x40 MSTORE DUP1 PUSH1 0x2 DUP2 MSTORE PUSH1 0x20 ADD PUSH32 0x4958000000000000000000000000000000000000000000000000000000000000 DUP2 MSTORE POP PUSH0 PUSH0 PUSH1 0x9 DUP2 MSTORE PUSH1 0x20 ADD SWAP1 DUP2 MSTORE PUSH1 0x20 ADD PUSH0 KECCAK256 SWAP1 DUP2 PUSH2 0xB7 SWAP2 SWAP1 PUSH2 0x44C JUMP JUMPDEST POP PUSH1 0x40 MLOAD DUP1 PUSH1 0x40 ADD PUSH1 0x40 MSTORE DUP1 PUSH1 0x2 DUP2 MSTORE PUSH1 0x20 ADD PUSH32 0x584C000000000000000000000000000000000000000000000000000000000000 DUP2 MSTORE POP PUSH0 PUSH0 PUSH1 0x28 DUP2 MSTORE PUSH1 0x20 ADD SWAP1 DUP2 MSTORE PUSH1 0x20 ADD PUSH0 KECCAK256 SWAP1 DUP2 PUSH2 0x10B SWAP2 SWAP1 PUSH2 0x44C JUMP JUMPDEST POP PUSH1 0x40 MLOAD DUP1 PUSH1 0x40 ADD PUSH1 0x40 MSTORE DUP1 PUSH1 0x2 DUP2 MSTORE PUSH1 0x20 ADD PUSH32 0x5843000000000000000000000000000000000000000000000000000000000000 DUP2 MSTORE POP PUSH0 PUSH0 PUSH1 0x5A DUP2 MSTORE PUSH1 0x20 ADD SWAP1 DUP2 MSTORE PUSH1 0x20 ADD PUSH0 KECCAK256 SWAP1 DUP2 PUSH2 0x15F SWAP2 SWAP1 PUSH2 0x44C JUMP JUMPDEST POP PUSH1 0x40 MLOAD DUP1 PUSH1 0x40 ADD PUSH1 0x40 MSTORE DUP1 PUSH1 0x2 DUP2 MSTORE PUSH1 0x20 ADD PUSH32 0x4344000000000000000000000000000000000000000000000000000000000000 DUP2 MSTORE POP PUSH0 PUSH0 PUSH2 0x190 DUP2 MSTORE PUSH1 0x20 ADD SWAP1 DUP2 MSTORE PUSH1 0x20 ADD PUSH0 KECCAK256 SWAP1 DUP2 PUSH2 0x1B4 SWAP2 SWAP1 PUSH2 0x44C JUMP JUMPDEST POP PUSH1 0x40 MLOAD DUP1 PUSH1 0x40 ADD PUSH1 0x40 MSTORE DUP1 PUSH1 0x2 DUP2 MSTORE PUSH1 0x20 ADD PUSH32 0x434D000000000000000000000000000000000000000000000000000000000000 DUP2 MSTORE POP PUSH0 PUSH0 PUSH2 0x384 DUP2 MSTORE PUSH1 0x20 ADD SWAP1 DUP2 MSTORE PUSH1 0x20 ADD PUSH0 KECCAK256 SWAP1 DUP2 PUSH2 0x209 SWAP2 SWAP1 PUSH2 0x44C JUMP JUMPDEST POP PUSH2 0x51B JUMP JUMPDEST PUSH0 DUP2 MLOAD SWAP1 POP SWAP2 SWAP1 POP JUMP JUMPDEST PUSH32 0x4E487B7100000000000000000000000000000000000000000000000000000000 PUSH0 MSTORE PUSH1 0x41 PUSH1 0x4 MSTORE PUSH1 0x24 PUSH0 REVERT JUMPDEST PUSH32 0x4E487B7100000000000000000000000000000000000000000000000000000000 PUSH0 MSTORE PUSH1 0x22 PUSH1 0x4 MSTORE PUSH1 0x24 PUSH0 REVERT JUMPDEST PUSH0 PUSH1 0x2 DUP3 DIV SWAP1 POP PUSH1 0x1 DUP3 AND DUP1 PUSH2 0x28A JUMPI PUSH1 0x7F DUP3 AND SWAP2 POP JUMPDEST PUSH1 0x20 DUP3 LT DUP2 SUB PUSH2 0x29D JUMPI PUSH2 0x29C PUSH2 0x246 JUMP JUMPDEST JUMPDEST POP SWAP2 SWAP1 POP JUMP JUMPDEST PUSH0 DUP2 SWAP1 POP DUP2 PUSH0 MSTORE PUSH1 0x20 PUSH0 KECCAK256 SWAP1 POP SWAP2 SWAP1 POP JUMP JUMPDEST PUSH0 PUSH1 0x20 PUSH1 0x1F DUP4 ADD DIV SWAP1 POP SWAP2 SWAP1 POP JUMP JUMPDEST PUSH0 DUP3 DUP3 SHL SWAP1 POP SWAP3 SWAP2 POP POP JUMP JUMPDEST PUSH0 PUSH1 0x8 DUP4 MUL PUSH2 0x2FF PUSH32 0xFFFFFFFFFFFFFFFFFFFFFFFFFFFFFFFFFFFFFFFFFFFFFFFFFFFFFFFFFFFFFFFF DUP3 PUSH2 0x2C4 JUMP JUMPDEST PUSH2 0x309 DUP7 DUP4 PUSH2 0x2C4 JUMP JUMPDEST SWAP6 POP DUP1 NOT DUP5 AND SWAP4 POP DUP1 DUP7 AND DUP5 OR SWAP3 POP POP POP SWAP4 SWAP3 POP POP POP JUMP JUMPDEST PUSH0 DUP2 SWAP1 POP SWAP2 SWAP1 POP JUMP JUMPDEST PUSH0 DUP2 SWAP1 POP SWAP2 SWAP1 POP JUMP JUMPDEST PUSH0 PUSH2 0x34D PUSH2 0x348 PUSH2 0x343 DUP5 PUSH2 0x321 JUMP JUMPDEST PUSH2 0x32A JUMP JUMPDEST PUSH2 0x321 JUMP JUMPDEST SWAP1 POP SWAP2 SWAP1 POP JUMP JUMPDEST PUSH0 DUP2 SWAP1 POP SWAP2 SWAP1 POP JUMP JUMPDEST PUSH2 0x366 DUP4 PUSH2 0x333 JUMP JUMPDEST PUSH2 0x37A PUSH2 0x372 DUP3 PUSH2 0x354 JUMP JUMPDEST DUP5 DUP5 SLOAD PUSH2 0x2D0 JUMP JUMPDEST DUP3 SSTORE POP POP POP POP JUMP JUMPDEST PUSH0 PUSH0 SWAP1 POP SWAP1 JUMP JUMPDEST PUSH2 0x391 PUSH2 0x382 JUMP JUMPDEST PUSH2 0x39C DUP2 DUP5 DUP5 PUSH2 0x35D JUMP JUMPDEST POP POP POP JUMP JUMPDEST JUMPDEST DUP2 DUP2 LT ISZERO PUSH2 0x3BF JUMPI PUSH2 0x3B4 PUSH0 DUP3 PUSH2 0x389 JUMP JUMPDEST PUSH1 0x1 DUP2 ADD SWAP1 POP PUSH2 0x3A2 JUMP JUMPDEST POP POP JUMP JUMPDEST PUSH1 0x1F DUP3 GT ISZERO PUSH2 0x404 JUMPI PUSH2 0x3D5 DUP2 PUSH2 0x2A3 JUMP JUMPDEST PUSH2 0x3DE DUP5 PUSH2 0x2B5 JUMP JUMPDEST DUP2 ADD PUSH1 0x20 DUP6 LT ISZERO PUSH2 0x3ED JUMPI DUP2 SWAP1 POP JUMPDEST PUSH2 0x401 PUSH2 0x3F9 DUP6 PUSH2 0x2B5 JUMP JUMPDEST DUP4 ADD DUP3 PUSH2 0x3A1 JUMP JUMPDEST POP POP JUMPDEST POP POP POP JUMP JUMPDEST PUSH0 DUP3 DUP3 SHR SWAP1 POP SWAP3 SWAP2 POP POP JUMP JUMPDEST PUSH0 PUSH2 0x424 PUSH0 NOT DUP5 PUSH1 0x8 MUL PUSH2 0x409 JUMP JUMPDEST NOT DUP1 DUP4 AND SWAP2 POP POP SWAP3 SWAP2 POP POP JUMP JUMPDEST PUSH0 PUSH2 0x43C DUP4 DUP4 PUSH2 0x415 JUMP JUMPDEST SWAP2 POP DUP3 PUSH1 0x2 MUL DUP3 OR SWAP1 POP SWAP3 SWAP2 POP POP JUMP JUMPDEST PUSH2 0x455 DUP3 PUSH2 0x20F JUMP JUMPDEST PUSH8 0xFFFFFFFFFFFFFFFF DUP2 GT ISZERO PUSH2 0x46E JUMPI PUSH2 0x46D PUSH2 0x219 JUMP JUMPDEST JUMPDEST PUSH2 0x478 DUP3 SLOAD PUSH2 0x273 JUMP JUMPDEST PUSH2 0x483 DUP3 DUP3 DUP6 PUSH2 0x3C3 JUMP JUMPDEST PUSH0 PUSH1 0x20 SWAP1 POP PUSH1 0x1F DUP4 GT PUSH1 0x1 DUP2 EQ PUSH2 0x4B4 JUMPI PUSH0 DUP5 ISZERO PUSH2 0x4A2 JUMPI DUP3 DUP8 ADD MLOAD SWAP1 POP JUMPDEST PUSH2 0x4AC DUP6 DUP3 PUSH2 0x431 JUMP JUMPDEST DUP7 SSTORE POP PUSH2 0x513 JUMP JUMPDEST PUSH1 0x1F NOT DUP5 AND PUSH2 0x4C2 DUP7 PUSH2 0x2A3 JUMP JUMPDEST PUSH0 JUMPDEST DUP3 DUP2 LT ISZERO PUSH2 0x4E9 JUMPI DUP5 DUP10 ADD MLOAD DUP3 SSTORE PUSH1 0x1 DUP3 ADD SWAP2 POP PUSH1 0x20 DUP6 ADD SWAP5 POP PUSH1 0x20 DUP2 ADD SWAP1 POP PUSH2 0x4C4 JUMP JUMPDEST DUP7 DUP4 LT ISZERO PUSH2 0x506 JUMPI DUP5 DUP10 ADD MLOAD PUSH2 0x502 PUSH1 0x1F DUP10 AND DUP3 PUSH2 0x415 JUMP JUMPDEST DUP4 SSTORE POP JUMPDEST PUSH1 0x1 PUSH1 0x2 DUP9 MUL ADD DUP9 SSTORE POP POP POP JUMPDEST POP POP POP POP POP POP JUMP JUMPDEST PUSH2 0xA1C DUP1 PUSH2 0x528 PUSH0 CODECOPY PUSH0 RETURN INVALID PUSH1 0x80 PUSH1 0x40 MSTORE CALLVALUE DUP1 ISZERO PUSH2 0xF JUMPI PUSH0 PUSH0 REVERT JUMPDEST POP PUSH1 0x4 CALLDATASIZE LT PUSH2 0x29 JUMPI PUSH0 CALLDATALOAD PUSH1 0xE0 SHR DUP1 PUSH4 0x65E9E297 EQ PUSH2 0x2D JUMPI JUMPDEST PUSH0 PUSH0 REVERT JUMPDEST PUSH2 0x47 PUSH1 0x4 DUP1 CALLDATASIZE SUB DUP2 ADD SWAP1 PUSH2 0x42 SWAP2 SWAP1 PUSH2 0x69D JUMP JUMPDEST PUSH2 0x5D JUMP JUMPDEST PUSH1 0x40 MLOAD PUSH2 0x54 SWAP2 SWAP1 PUSH2 0x738 JUMP JUMPDEST PUSH1 0x40 MLOAD DUP1 SWAP2 SUB SWAP1 RETURN JUMPDEST PUSH1 0x60 PUSH0 DUP3 SWAP1 POP PUSH0 PUSH1 0x40 MLOAD DUP1 PUSH1 0x20 ADD PUSH1 0x40 MSTORE DUP1 PUSH0 DUP2 MSTORE POP SWAP1 POP PUSH2 0xFA0 DUP5 PUSH2 0xFFFF AND GT ISZERO PUSH2 0x9B JUMPI PUSH1 0x40 MLOAD DUP1 PUSH1 0x20 ADD PUSH1 0x40 MSTORE DUP1 PUSH0 DUP2 MSTORE POP SWAP3 POP POP POP PUSH2 0x65D JUMP JUMPDEST PUSH0 PUSH2 0x3E8 DUP4 PUSH2 0xAA SWAP2 SWAP1 PUSH2 0x7B2 JUMP JUMPDEST PUSH2 0xFFFF AND SWAP1 POP JUMPDEST PUSH0 DUP2 GT ISZERO PUSH2 0x125 JUMPI DUP2 PUSH1 0x40 MLOAD DUP1 PUSH1 0x40 ADD PUSH1 0x40 MSTORE DUP1 PUSH1 0x1 DUP2 MSTORE PUSH1 0x20 ADD PUSH32 0x4D00000000000000000000000000000000000000000000000000000000000000 DUP2 MSTORE POP PUSH1 0x40 MLOAD PUSH1 0x20 ADD PUSH2 0x101 SWAP3 SWAP2 SWAP1 PUSH2 0x81C JUMP JUMPDEST PUSH1 0x40 MLOAD PUSH1 0x20 DUP2 DUP4 SUB SUB DUP2 MSTORE SWAP1 PUSH1 0x40 MSTORE SWAP2 POP DUP1 DUP1 PUSH2 0x11D SWAP1 PUSH2 0x848 JUMP JUMPDEST SWAP2 POP POP PUSH2 0xB1 JUMP JUMPDEST PUSH2 0x3E8 DUP4 PUSH2 0x133 SWAP2 SWAP1 PUSH2 0x86F JUMP JUMPDEST SWAP3 POP PUSH2 0x384 DUP4 PUSH2 0xFFFF AND LT PUSH2 0x18C JUMPI DUP2 PUSH0 PUSH0 PUSH2 0x384 DUP2 MSTORE PUSH1 0x20 ADD SWAP1 DUP2 MSTORE PUSH1 0x20 ADD PUSH0 KECCAK256 PUSH1 0x40 MLOAD PUSH1 0x20 ADD PUSH2 0x166 SWAP3 SWAP2 SWAP1 PUSH2 0x98E JUMP JUMPDEST PUSH1 0x40 MLOAD PUSH1 0x20 DUP2 DUP4 SUB SUB DUP2 MSTORE SWAP1 PUSH1 0x40 MSTORE SWAP2 POP PUSH2 0x384 DUP4 PUSH2 0x185 SWAP2 SWAP1 PUSH2 0x9B1 JUMP JUMPDEST SWAP3 POP PUSH2 0x204 JUMP JUMPDEST PUSH2 0x1F4 DUP4 PUSH2 0xFFFF AND LT PUSH2 0x203 JUMPI DUP2 PUSH1 0x40 MLOAD DUP1 PUSH1 0x40 ADD PUSH1 0x40 MSTORE DUP1 PUSH1 0x1 DUP2 MSTORE PUSH1 0x20 ADD PUSH32 0x4400000000000000000000000000000000000000000000000000000000000000 DUP2 MSTORE POP PUSH1 0x40 MLOAD PUSH1 0x20 ADD PUSH2 0x1E1 SWAP3 SWAP2 SWAP1 PUSH2 0x81C JUMP JUMPDEST PUSH1 0x40 MLOAD PUSH1 0x20 DUP2 DUP4 SUB SUB DUP2 MSTORE SWAP1 PUSH1 0x40 MSTORE SWAP2 POP PUSH2 0x1F4 DUP4 PUSH2 0x200 SWAP2 SWAP1 PUSH2 0x9B1 JUMP JUMPDEST SWAP3 POP JUMPDEST JUMPDEST PUSH2 0x190 DUP4 PUSH2 0xFFFF AND LT PUSH2 0x25B JUMPI DUP2 PUSH0 PUSH0 PUSH2 0x190 DUP2 MSTORE PUSH1 0x20 ADD SWAP1 DUP2 MSTORE PUSH1 0x20 ADD PUSH0 KECCAK256 PUSH1 0x40 MLOAD PUSH1 0x20 ADD PUSH2 0x235 SWAP3 SWAP2 SWAP1 PUSH2 0x98E JUMP JUMPDEST PUSH1 0x40 MLOAD PUSH1 0x20 DUP2 DUP4 SUB SUB DUP2 MSTORE SWAP1 PUSH1 0x40 MSTORE SWAP2 POP PUSH2 0x190 DUP4 PUSH2 0x254 SWAP2 SWAP1 PUSH2 0x9B1 JUMP JUMPDEST SWAP3 POP PUSH2 0x2E6 JUMP JUMPDEST PUSH0 PUSH1 0x64 DUP5 PUSH2 0x269 SWAP2 SWAP1 PUSH2 0x7B2 JUMP JUMPDEST PUSH2 0xFFFF AND SWAP1 POP JUMPDEST PUSH0 DUP2 GT ISZERO PUSH2 0x2E4 JUMPI DUP3 PUSH1 0x40 MLOAD DUP1 PUSH1 0x40 ADD PUSH1 0x40 MSTORE DUP1 PUSH1 0x1 DUP2 MSTORE PUSH1 0x20 ADD PUSH32 0x4300000000000000000000000000000000000000000000000000000000000000 DUP2 MSTORE POP PUSH1 0x40 MLOAD PUSH1 0x20 ADD PUSH2 0x2C0 SWAP3 SWAP2 SWAP1 PUSH2 0x81C JUMP JUMPDEST PUSH1 0x40 MLOAD PUSH1 0x20 DUP2 DUP4 SUB SUB DUP2 MSTORE SWAP1 PUSH1 0x40 MSTORE SWAP3 POP DUP1 DUP1 PUSH2 0x2DC SWAP1 PUSH2 0x848 JUMP JUMPDEST SWAP2 POP POP PUSH2 0x270 JUMP JUMPDEST POP JUMPDEST PUSH1 0x64 DUP4 PUSH2 0x2F3 SWAP2 SWAP1 PUSH2 0x86F JUMP JUMPDEST SWAP3 POP PUSH1 0x5A DUP4 PUSH2 0xFFFF AND LT PUSH2 0x349 JUMPI DUP2 PUSH0 PUSH0 PUSH1 0x5A DUP2 MSTORE PUSH1 0x20 ADD SWAP1 DUP2 MSTORE PUSH1 0x20 ADD PUSH0 KECCAK256 PUSH1 0x40 MLOAD PUSH1 0x20 ADD PUSH2 0x324 SWAP3 SWAP2 SWAP1 PUSH2 0x98E JUMP JUMPDEST PUSH1 0x40 MLOAD PUSH1 0x20 DUP2 DUP4 SUB SUB DUP2 MSTORE SWAP1 PUSH1 0x40 MSTORE SWAP2 POP PUSH1 0x5A DUP4 PUSH2 0x342 SWAP2 SWAP1 PUSH2 0x9B1 JUMP JUMPDEST SWAP3 POP PUSH2 0x3BF JUMP JUMPDEST PUSH1 0x32 DUP4 PUSH2 0xFFFF AND LT PUSH2 0x3BE JUMPI DUP2 PUSH1 0x40 MLOAD DUP1 PUSH1 0x40 ADD PUSH1 0x40 MSTORE DUP1 PUSH1 0x1 DUP2 MSTORE PUSH1 0x20 ADD PUSH32 0x4C00000000000000000000000000000000000000000000000000000000000000 DUP2 MSTORE POP PUSH1 0x40 MLOAD PUSH1 0x20 ADD PUSH2 0x39D SWAP3 SWAP2 SWAP1 PUSH2 0x81C JUMP JUMPDEST PUSH1 0x40 MLOAD PUSH1 0x20 DUP2 DUP4 SUB SUB DUP2 MSTORE SWAP1 PUSH1 0x40 MSTORE SWAP2 POP PUSH1 0x32 DUP4 PUSH2 0x3BB SWAP2 SWAP1 PUSH2 0x9B1 JUMP JUMPDEST SWAP3 POP JUMPDEST JUMPDEST PUSH1 0x28 DUP4 PUSH2 0xFFFF AND LT PUSH2 0x413 JUMPI DUP2 PUSH0 PUSH0 PUSH1 0x28 DUP2 MSTORE PUSH1 0x20 ADD SWAP1 DUP2 MSTORE PUSH1 0x20 ADD PUSH0 KECCAK256 PUSH1 0x40 MLOAD PUSH1 0x20 ADD PUSH2 0x3EE SWAP3 SWAP2 SWAP1 PUSH2 0x98E JUMP JUMPDEST PUSH1 0x40 MLOAD PUSH1 0x20 DUP2 DUP4 SUB SUB DUP2 MSTORE SWAP1 PUSH1 0x40 MSTORE SWAP2 POP PUSH1 0x28 DUP4 PUSH2 0x40C SWAP2 SWAP1 PUSH2 0x9B1 JUMP JUMPDEST SWAP3 POP PUSH2 0x49E JUMP JUMPDEST PUSH0 PUSH1 0xA DUP5 PUSH2 0x421 SWAP2 SWAP1 PUSH2 0x7B2 JUMP JUMPDEST PUSH2 0xFFFF AND SWAP1 POP JUMPDEST PUSH0 DUP2 GT ISZERO PUSH2 0x49C JUMPI DUP3 PUSH1 0x40 MLOAD DUP1 PUSH1 0x40 ADD PUSH1 0x40 MSTORE DUP1 PUSH1 0x1 DUP2 MSTORE PUSH1 0x20 ADD PUSH32 0x5800000000000000000000000000000000000000000000000000000000000000 DUP2 MSTORE POP PUSH1 0x40 MLOAD PUSH1 0x20 ADD PUSH2 0x478 SWAP3 SWAP2 SWAP1 PUSH2 0x81C JUMP JUMPDEST PUSH1 0x40 MLOAD PUSH1 0x20 DUP2 DUP4 SUB SUB DUP2 MSTORE SWAP1 PUSH1 0x40 MSTORE SWAP3 POP DUP1 DUP1 PUSH2 0x494 SWAP1 PUSH2 0x848 JUMP JUMPDEST SWAP2 POP POP PUSH2 0x428 JUMP JUMPDEST POP JUMPDEST PUSH1 0xA DUP4 PUSH2 0x4AB SWAP2 SWAP1 PUSH2 0x86F JUMP JUMPDEST SWAP3 POP PUSH1 0x9 DUP4 PUSH2 0xFFFF AND LT PUSH2 0x501 JUMPI DUP2 PUSH0 PUSH0 PUSH1 0x9 DUP2 MSTORE PUSH1 0x20 ADD SWAP1 DUP2 MSTORE PUSH1 0x20 ADD PUSH0 KECCAK256 PUSH1 0x40 MLOAD PUSH1 0x20 ADD PUSH2 0x4DC SWAP3 SWAP2 SWAP1 PUSH2 0x98E JUMP JUMPDEST PUSH1 0x40 MLOAD PUSH1 0x20 DUP2 DUP4 SUB SUB DUP2 MSTORE SWAP1 PUSH1 0x40 MSTORE SWAP2 POP PUSH1 0x9 DUP4 PUSH2 0x4FA SWAP2 SWAP1 PUSH2 0x9B1 JUMP JUMPDEST SWAP3 POP PUSH2 0x577 JUMP JUMPDEST PUSH1 0x5 DUP4 PUSH2 0xFFFF AND LT PUSH2 0x576 JUMPI DUP2 PUSH1 0x40 MLOAD DUP1 PUSH1 0x40 ADD PUSH1 0x40 MSTORE DUP1 PUSH1 0x1 DUP2 MSTORE PUSH1 0x20 ADD PUSH32 0x5600000000000000000000000000000000000000000000000000000000000000 DUP2 MSTORE POP PUSH1 0x40 MLOAD PUSH1 0x20 ADD PUSH2 0x555 SWAP3 SWAP2 SWAP1 PUSH2 0x81C JUMP JUMPDEST PUSH1 0x40 MLOAD PUSH1 0x20 DUP2 DUP4 SUB SUB DUP2 MSTORE SWAP1 PUSH1 0x40 MSTORE SWAP2 POP PUSH1 0x5 DUP4 PUSH2 0x573 SWAP2 SWAP1 PUSH2 0x9B1 JUMP JUMPDEST SWAP3 POP JUMPDEST JUMPDEST PUSH1 0x4 DUP4 PUSH2 0xFFFF AND LT PUSH2 0x5CB JUMPI DUP2 PUSH0 PUSH0 PUSH1 0x4 DUP2 MSTORE PUSH1 0x20 ADD SWAP1 DUP2 MSTORE PUSH1 0x20 ADD PUSH0 KECCAK256 PUSH1 0x40 MLOAD PUSH1 0x20 ADD PUSH2 0x5A6 SWAP3 SWAP2 SWAP1 PUSH2 0x98E JUMP JUMPDEST PUSH1 0x40 MLOAD PUSH1 0x20 DUP2 DUP4 SUB SUB DUP2 MSTORE SWAP1 PUSH1 0x40 MSTORE SWAP2 POP PUSH1 0x4 DUP4 PUSH2 0x5C4 SWAP2 SWAP1 PUSH2 0x9B1 JUMP JUMPDEST SWAP3 POP PUSH2 0x656 JUMP JUMPDEST PUSH0 PUSH1 0x1 DUP5 PUSH2 0x5D9 SWAP2 SWAP1 PUSH2 0x7B2 JUMP JUMPDEST PUSH2 0xFFFF AND SWAP1 POP JUMPDEST PUSH0 DUP2 GT ISZERO PUSH2 0x654 JUMPI DUP3 PUSH1 0x40 MLOAD DUP1 PUSH1 0x40 ADD PUSH1 0x40 MSTORE DUP1 PUSH1 0x1 DUP2 MSTORE PUSH1 0x20 ADD PUSH32 0x4900000000000000000000000000000000000000000000000000000000000000 DUP2 MSTORE POP PUSH1 0x40 MLOAD PUSH1 0x20 ADD PUSH2 0x630 SWAP3 SWAP2 SWAP1 PUSH2 0x81C JUMP JUMPDEST PUSH1 0x40 MLOAD PUSH1 0x20 DUP2 DUP4 SUB SUB DUP2 MSTORE SWAP1 PUSH1 0x40 MSTORE SWAP3 POP DUP1 DUP1 PUSH2 0x64C SWAP1 PUSH2 0x848 JUMP JUMPDEST SWAP2 POP POP PUSH2 0x5E0 JUMP JUMPDEST POP JUMPDEST DUP2 SWAP4 POP POP POP POP JUMPDEST SWAP2 SWAP1 POP JUMP JUMPDEST PUSH0 PUSH0 REVERT JUMPDEST PUSH0 PUSH2 0xFFFF DUP3 AND SWAP1 POP SWAP2 SWAP1 POP JUMP JUMPDEST PUSH2 0x67C DUP2 PUSH2 0x666 JUMP JUMPDEST DUP2 EQ PUSH2 0x686 JUMPI PUSH0 PUSH0 REVERT JUMPDEST POP JUMP JUMPDEST PUSH0 DUP2 CALLDATALOAD SWAP1 POP PUSH2 0x697 DUP2 PUSH2 0x673 JUMP JUMPDEST SWAP3 SWAP2 POP POP JUMP JUMPDEST PUSH0 PUSH1 0x20 DUP3 DUP5 SUB SLT ISZERO PUSH2 0x6B2 JUMPI PUSH2 0x6B1 PUSH2 0x662 JUMP JUMPDEST JUMPDEST PUSH0 PUSH2 0x6BF DUP5 DUP3 DUP6 ADD PUSH2 0x689 JUMP JUMPDEST SWAP2 POP POP SWAP3 SWAP2 POP POP JUMP JUMPDEST PUSH0 DUP2 MLOAD SWAP1 POP SWAP2 SWAP1 POP JUMP JUMPDEST PUSH0 DUP3 DUP3 MSTORE PUSH1 0x20 DUP3 ADD SWAP1 POP SWAP3 SWAP2 POP POP JUMP JUMPDEST DUP3 DUP2 DUP4 MCOPY PUSH0 DUP4 DUP4 ADD MSTORE POP POP POP JUMP JUMPDEST PUSH0 PUSH1 0x1F NOT PUSH1 0x1F DUP4 ADD AND SWAP1 POP SWAP2 SWAP1 POP JUMP JUMPDEST PUSH0 PUSH2 0x70A DUP3 PUSH2 0x6C8 JUMP JUMPDEST PUSH2 0x714 DUP2 DUP6 PUSH2 0x6D2 JUMP JUMPDEST SWAP4 POP PUSH2 0x724 DUP2 DUP6 PUSH1 0x20 DUP7 ADD PUSH2 0x6E2 JUMP JUMPDEST PUSH2 0x72D DUP2 PUSH2 0x6F0 JUMP JUMPDEST DUP5 ADD SWAP2 POP POP SWAP3 SWAP2 POP POP JUMP JUMPDEST PUSH0 PUSH1 0x20 DUP3 ADD SWAP1 POP DUP2 DUP2 SUB PUSH0 DUP4 ADD MSTORE PUSH2 0x750 DUP2 DUP5 PUSH2 0x700 JUMP JUMPDEST SWAP1 POP SWAP3 SWAP2 POP POP JUMP JUMPDEST PUSH32 0x4E487B7100000000000000000000000000000000000000000000000000000000 PUSH0 MSTORE PUSH1 0x12 PUSH1 0x4 MSTORE PUSH1 0x24 PUSH0 REVERT JUMPDEST PUSH32 0x4E487B7100000000000000000000000000000000000000000000000000000000 PUSH0 MSTORE PUSH1 0x11 PUSH1 0x4 MSTORE PUSH1 0x24 PUSH0 REVERT JUMPDEST PUSH0 PUSH2 0x7BC DUP3 PUSH2 0x666 JUMP JUMPDEST SWAP2 POP PUSH2 0x7C7 DUP4 PUSH2 0x666 JUMP JUMPDEST SWAP3 POP DUP3 PUSH2 0x7D7 JUMPI PUSH2 0x7D6 PUSH2 0x758 JUMP JUMPDEST JUMPDEST DUP3 DUP3 DIV SWAP1 POP SWAP3 SWAP2 POP POP JUMP JUMPDEST PUSH0 DUP2 SWAP1 POP SWAP3 SWAP2 POP POP JUMP JUMPDEST PUSH0 PUSH2 0x7F6 DUP3 PUSH2 0x6C8 JUMP JUMPDEST PUSH2 0x800 DUP2 DUP6 PUSH2 0x7E2 JUMP JUMPDEST SWAP4 POP PUSH2 0x810 DUP2 DUP6 PUSH1 0x20 DUP7 ADD PUSH2 0x6E2 JUMP JUMPDEST DUP1 DUP5 ADD SWAP2 POP POP SWAP3 SWAP2 POP POP JUMP JUMPDEST PUSH0 PUSH2 0x827 DUP3 DUP6 PUSH2 0x7EC JUMP JUMPDEST SWAP2 POP PUSH2 0x833 DUP3 DUP5 PUSH2 0x7EC JUMP JUMPDEST SWAP2 POP DUP2 SWAP1 POP SWAP4 SWAP3 POP POP POP JUMP JUMPDEST PUSH0 DUP2 SWAP1 POP SWAP2 SWAP1 POP JUMP JUMPDEST PUSH0 PUSH2 0x852 DUP3 PUSH2 0x83F JUMP JUMPDEST SWAP2 POP PUSH0 DUP3 SUB PUSH2 0x864 JUMPI PUSH2 0x863 PUSH2 0x785 JUMP JUMPDEST JUMPDEST PUSH1 0x1 DUP3 SUB SWAP1 POP SWAP2 SWAP1 POP JUMP JUMPDEST PUSH0 PUSH2 0x879 DUP3 PUSH2 0x666 JUMP JUMPDEST SWAP2 POP PUSH2 0x884 DUP4 PUSH2 0x666 JUMP JUMPDEST SWAP3 POP DUP3 PUSH2 0x894 JUMPI PUSH2 0x893 PUSH2 0x758 JUMP JUMPDEST JUMPDEST DUP3 DUP3 MOD SWAP1 POP SWAP3 SWAP2 POP POP JUMP JUMPDEST PUSH32 0x4E487B7100000000000000000000000000000000000000000000000000000000 PUSH0 MSTORE PUSH1 0x22 PUSH1 0x4 MSTORE PUSH1 0x24 PUSH0 REVERT JUMPDEST PUSH0 PUSH1 0x2 DUP3 DIV SWAP1 POP PUSH1 0x1 DUP3 AND DUP1 PUSH2 0x8E3 JUMPI PUSH1 0x7F DUP3 AND SWAP2 POP JUMPDEST PUSH1 0x20 DUP3 LT DUP2 SUB PUSH2 0x8F6 JUMPI PUSH2 0x8F5 PUSH2 0x89F JUMP JUMPDEST JUMPDEST POP SWAP2 SWAP1 POP JUMP JUMPDEST PUSH0 DUP2 SWAP1 POP DUP2 PUSH0 MSTORE PUSH1 0x20 PUSH0 KECCAK256 SWAP1 POP SWAP2 SWAP1 POP JUMP JUMPDEST PUSH0 DUP2 SLOAD PUSH2 0x91A DUP2 PUSH2 0x8CC JUMP JUMPDEST PUSH2 0x924 DUP2 DUP7 PUSH2 0x7E2 JUMP JUMPDEST SWAP5 POP PUSH1 0x1 DUP3 AND PUSH0 DUP2 EQ PUSH2 0x93E JUMPI PUSH1 0x1 DUP2 EQ PUSH2 0x953 JUMPI PUSH2 0x985 JUMP JUMPDEST PUSH1 0xFF NOT DUP4 AND DUP7 MSTORE DUP2 ISZERO ISZERO DUP3 MUL DUP7 ADD SWAP4 POP PUSH2 0x985 JUMP JUMPDEST PUSH2 0x95C DUP6 PUSH2 0x8FC JUMP JUMPDEST PUSH0 JUMPDEST DUP4 DUP2 LT ISZERO PUSH2 0x97D JUMPI DUP2 SLOAD DUP2 DUP10 ADD MSTORE PUSH1 0x1 DUP3 ADD SWAP2 POP PUSH1 0x20 DUP2 ADD SWAP1 POP PUSH2 0x95E JUMP JUMPDEST DUP4 DUP9 ADD SWAP6 POP POP POP JUMPDEST POP POP POP SWAP3 SWAP2 POP POP JUMP JUMPDEST PUSH0 PUSH2 0x999 DUP3 DUP6 PUSH2 0x7EC JUMP JUMPDEST SWAP2 POP PUSH2 0x9A5 DUP3 DUP5 PUSH2 0x90E JUMP JUMPDEST SWAP2 POP DUP2 SWAP1 POP SWAP4 SWAP3 POP POP POP JUMP JUMPDEST PUSH0 PUSH2 0x9BB DUP3 PUSH2 0x666 JUMP JUMPDEST SWAP2 POP PUSH2 0x9C6 DUP4 PUSH2 0x666 JUMP JUMPDEST SWAP3 POP DUP3 DUP3 SUB SWAP1 POP PUSH2 0xFFFF DUP2 GT ISZERO PUSH2 0x9E0 JUMPI PUSH2 0x9DF PUSH2 0x785 JUMP JUMPDEST JUMPDEST SWAP3 SWAP2 POP POP JUMP INVALID LOG2 PUSH5 0x6970667358 0x22 SLT KECCAK256 0xA5 0x21 BYTE GAS 0x24 EXTCODEHASH 0xEB RJUMPI 0x9C48 DUP4 COINBASE 0xA6 0x26 0xDD SWAPN 0xC5 PUSH9 0xA9562A520C82B3EF39 0xF6 INVALID PUSH16 0x8C7564736F6C634300081E0033000000 "
				},
				"gasEstimates": {
					"creation": {
						"codeDepositCost": "517600",
						"executionCost": "infinite",
						"totalCost": "infinite"
					},
					"external": {
						"Ingeter2Roman(uint16)": "infinite"
					}
				},
				"methodIdentifiers": {
					"Ingeter2Roman(uint16)": "65e9e297"
				}
			},
			"storageLayout": {
				"storage": [
					{
						"astId": 27,
						"contract": "IntegerToRoman.sol:IngeterToRoman",
						"label": "specialMap",
						"offset": 0,
						"slot": "0",
						"type": "t_mapping(t_uint256,t_string_storage)"
					}
				],
				"types": {
					"t_mapping(t_uint256,t_string_storage)": {
						"encoding": "mapping",
						"key": "t_uint256",
						"label": "mapping(uint256 => string)",
						"numberOfBytes": "32",
						"value": "t_string_storage"
					},
					"t_string_storage": {
						"encoding": "bytes",
						"label": "string",
						"numberOfBytes": "32"
					},
					"t_uint256": {
						"encoding": "inplace",
						"label": "uint256",
						"numberOfBytes": "32"
					}
				}
			},
			"userdoc": {
				"kind": "user",
				"methods": {},
				"notice": "罗马数字包含以下七种字符: I， V， X， L，C，D 和 M。 字符          数值 I             1 V             5 X             10 L             50 C             100 D             500 M             1000 例如， 罗马数字 2 写做 II ，即为两个并列的 1 。12 写做 XII ，即为 X + II 。 27 写做  XXVII, 即为 XX + V + II 。 通常情况下，罗马数字中小的数字在大的数字的右边。但也存在特例，例如 4 不写做 IIII，而是 IV。数字 1 在数字 5 的左边， 所表示的数等于大数 5 减小数 1 得到的数值 4 。同样地，数字 9 表示为 IX。这个特殊的规则只适用于以下六种情况： I 可以放在 V (5) 和 X (10) 的左边，来表示 4 和 9。  IV=4  IX=9 X 可以放在 L (50) 和 C (100) 的左边，来表示 40 和 90。 XL=40 XC=90 C 可以放在 D (500) 和 M (1000) 的左边，来表示 400 和 900。  CD=400   CM=900 给定一个罗马数字，将其转换成整数。*",
				"version": 1
			}
		}
	}
}