{
	"Yeye.sol": {
		"Yeye": {
			"abi": [
				{
					"anonymous": false,
					"inputs": [
						{
							"indexed": false,
							"internalType": "string",
							"name": "msg",
							"type": "string"
						}
					],
					"name": "Log",
					"type": "event"
				},
				{
					"inputs": [],
					"name": "hip",
					"outputs": [],
					"stateMutability": "nonpayable",
					"type": "function"
				},
				{
					"inputs": [],
					"name": "pop",
					"outputs": [],
					"stateMutability": "nonpayable",
					"type": "function"
				},
				{
					"inputs": [],
					"name": "yeye",
					"outputs": [],
					"stateMutability": "nonpayable",
					"type": "function"
				}
			],
			"devdoc": {
				"kind": "dev",
				"methods": {},
				"version": 1
			},
			"evm": {
				"assembly": "    /* \"Yeye.sol\":28:333  contract Yeye {... */\n  mstore(0x40, 0x80)\n  callvalue\n  dup1\n  iszero\n  tag_1\n  jumpi\n  revert(0x00, 0x00)\ntag_1:\n  pop\n  dataSize(sub_0)\n  dup1\n  dataOffset(sub_0)\n  0x00\n  codecopy\n  0x00\n  return\nstop\n\nsub_0: assembly {\n        /* \"Yeye.sol\":28:333  contract Yeye {... */\n      mstore(0x40, 0x80)\n      callvalue\n      dup1\n      iszero\n      tag_1\n      jumpi\n      revert(0x00, 0x00)\n    tag_1:\n      pop\n      jumpi(tag_2, lt(calldatasize, 0x04))\n      shr(0xe0, calldataload(0x00))\n      dup1\n      0x0ca21e9c\n      eq\n      tag_3\n      jumpi\n      dup1\n      0x370ea142\n      eq\n      tag_4\n      jumpi\n      dup1\n      0xa4ece52c\n      eq\n      tag_5\n      jumpi\n    tag_2:\n      revert(0x00, 0x00)\n        /* \"Yeye.sol\":259:330  function yeye() public virtual {... */\n    tag_3:\n      tag_6\n      tag_7\n      jump\t// in\n    tag_6:\n      stop\n        /* \"Yeye.sol\":105:174  function hip() public virtual {... */\n    tag_4:\n      tag_8\n      tag_9\n      jump\t// in\n    tag_8:\n      stop\n        /* \"Yeye.sol\":182:251  function pop() public virtual {... */\n    tag_5:\n      tag_10\n      tag_11\n      jump\t// in\n    tag_10:\n      stop\n        /* \"Yeye.sol\":259:330  function yeye() public virtual {... */\n    tag_7:\n        /* \"Yeye.sol\":306:322  Log(\"Yeye yeye\") */\n      0xcf34ef537ac33ee1ac626ca1587a0a7e8e51561e5514f8cb36afa1c5102b3bab\n      mload(0x40)\n      tag_13\n      swap1\n      tag_14\n      jump\t// in\n    tag_13:\n      mload(0x40)\n      dup1\n      swap2\n      sub\n      swap1\n      log1\n        /* \"Yeye.sol\":259:330  function yeye() public virtual {... */\n      jump\t// out\n        /* \"Yeye.sol\":105:174  function hip() public virtual {... */\n    tag_9:\n        /* \"Yeye.sol\":151:166  Log(\"Yeye hip\") */\n      0xcf34ef537ac33ee1ac626ca1587a0a7e8e51561e5514f8cb36afa1c5102b3bab\n      mload(0x40)\n      tag_16\n      swap1\n      tag_17\n      jump\t// in\n    tag_16:\n      mload(0x40)\n      dup1\n      swap2\n      sub\n      swap1\n      log1\n        /* \"Yeye.sol\":105:174  function hip() public virtual {... */\n      jump\t// out\n        /* \"Yeye.sol\":182:251  function pop() public virtual {... */\n    tag_11:\n        /* \"Yeye.sol\":228:243  Log(\"Yeye pop\") */\n      0xcf34ef537ac33ee1ac626ca1587a0a7e8e51561e5514f8cb36afa1c5102b3bab\n      mload(0x40)\n      tag_19\n      swap1\n      tag_20\n      jump\t// in\n    tag_19:\n      mload(0x40)\n      dup1\n      swap2\n      sub\n      swap1\n      log1\n        /* \"Yeye.sol\":182:251  function pop() public virtual {... */\n      jump\t// out\n        /* \"#utility.yul\":7:176   */\n    tag_21:\n        /* \"#utility.yul\":91:102   */\n      0x00\n        /* \"#utility.yul\":125:131   */\n      dup3\n        /* \"#utility.yul\":120:123   */\n      dup3\n        /* \"#utility.yul\":113:132   */\n      mstore\n        /* \"#utility.yul\":165:169   */\n      0x20\n        /* \"#utility.yul\":160:163   */\n      dup3\n        /* \"#utility.yul\":156:170   */\n      add\n        /* \"#utility.yul\":141:170   */\n      swap1\n      pop\n        /* \"#utility.yul\":7:176   */\n      swap3\n      swap2\n      pop\n      pop\n      jump\t// out\n        /* \"#utility.yul\":182:341   */\n    tag_22:\n        /* \"#utility.yul\":322:333   */\n      0x5965796520796579650000000000000000000000000000000000000000000000\n        /* \"#utility.yul\":318:319   */\n      0x00\n        /* \"#utility.yul\":310:316   */\n      dup3\n        /* \"#utility.yul\":306:320   */\n      add\n        /* \"#utility.yul\":299:334   */\n      mstore\n        /* \"#utility.yul\":182:341   */\n      pop\n      jump\t// out\n        /* \"#utility.yul\":347:712   */\n    tag_23:\n        /* \"#utility.yul\":489:492   */\n      0x00\n        /* \"#utility.yul\":510:576   */\n      tag_32\n        /* \"#utility.yul\":574:575   */\n      0x09\n        /* \"#utility.yul\":569:572   */\n      dup4\n        /* \"#utility.yul\":510:576   */\n      tag_21\n      jump\t// in\n    tag_32:\n        /* \"#utility.yul\":503:576   */\n      swap2\n      pop\n        /* \"#utility.yul\":585:678   */\n      tag_33\n        /* \"#utility.yul\":674:677   */\n      dup3\n        /* \"#utility.yul\":585:678   */\n      tag_22\n      jump\t// in\n    tag_33:\n        /* \"#utility.yul\":703:705   */\n      0x20\n        /* \"#utility.yul\":698:701   */\n      dup3\n        /* \"#utility.yul\":694:706   */\n      add\n        /* \"#utility.yul\":687:706   */\n      swap1\n      pop\n        /* \"#utility.yul\":347:712   */\n      swap2\n      swap1\n      pop\n      jump\t// out\n        /* \"#utility.yul\":718:1137   */\n    tag_14:\n        /* \"#utility.yul\":884:888   */\n      0x00\n        /* \"#utility.yul\":922:924   */\n      0x20\n        /* \"#utility.yul\":911:920   */\n      dup3\n        /* \"#utility.yul\":907:925   */\n      add\n        /* \"#utility.yul\":899:925   */\n      swap1\n      pop\n        /* \"#utility.yul\":971:980   */\n      dup2\n        /* \"#utility.yul\":965:969   */\n      dup2\n        /* \"#utility.yul\":961:981   */\n      sub\n        /* \"#utility.yul\":957:958   */\n      0x00\n        /* \"#utility.yul\":946:955   */\n      dup4\n        /* \"#utility.yul\":942:959   */\n      add\n        /* \"#utility.yul\":935:982   */\n      mstore\n        /* \"#utility.yul\":999:1130   */\n      tag_35\n        /* \"#utility.yul\":1125:1129   */\n      dup2\n        /* \"#utility.yul\":999:1130   */\n      tag_23\n      jump\t// in\n    tag_35:\n        /* \"#utility.yul\":991:1130   */\n      swap1\n      pop\n        /* \"#utility.yul\":718:1137   */\n      swap2\n      swap1\n      pop\n      jump\t// out\n        /* \"#utility.yul\":1143:1301   */\n    tag_24:\n        /* \"#utility.yul\":1283:1293   */\n      0x5965796520686970000000000000000000000000000000000000000000000000\n        /* \"#utility.yul\":1279:1280   */\n      0x00\n        /* \"#utility.yul\":1271:1277   */\n      dup3\n        /* \"#utility.yul\":1267:1281   */\n      add\n        /* \"#utility.yul\":1260:1294   */\n      mstore\n        /* \"#utility.yul\":1143:1301   */\n      pop\n      jump\t// out\n        /* \"#utility.yul\":1307:1672   */\n    tag_25:\n        /* \"#utility.yul\":1449:1452   */\n      0x00\n        /* \"#utility.yul\":1470:1536   */\n      tag_38\n        /* \"#utility.yul\":1534:1535   */\n      0x08\n        /* \"#utility.yul\":1529:1532   */\n      dup4\n        /* \"#utility.yul\":1470:1536   */\n      tag_21\n      jump\t// in\n    tag_38:\n        /* \"#utility.yul\":1463:1536   */\n      swap2\n      pop\n        /* \"#utility.yul\":1545:1638   */\n      tag_39\n        /* \"#utility.yul\":1634:1637   */\n      dup3\n        /* \"#utility.yul\":1545:1638   */\n      tag_24\n      jump\t// in\n    tag_39:\n        /* \"#utility.yul\":1663:1665   */\n      0x20\n        /* \"#utility.yul\":1658:1661   */\n      dup3\n        /* \"#utility.yul\":1654:1666   */\n      add\n        /* \"#utility.yul\":1647:1666   */\n      swap1\n      pop\n        /* \"#utility.yul\":1307:1672   */\n      swap2\n      swap1\n      pop\n      jump\t// out\n        /* \"#utility.yul\":1678:2097   */\n    tag_17:\n        /* \"#utility.yul\":1844:1848   */\n      0x00\n        /* \"#utility.yul\":1882:1884   */\n      0x20\n        /* \"#utility.yul\":1871:1880   */\n      dup3\n        /* \"#utility.yul\":1867:1885   */\n      add\n        /* \"#utility.yul\":1859:1885   */\n      swap1\n      pop\n        /* \"#utility.yul\":1931:1940   */\n      dup2\n        /* \"#utility.yul\":1925:1929   */\n      dup2\n        /* \"#utility.yul\":1921:1941   */\n      sub\n        /* \"#utility.yul\":1917:1918   */\n      0x00\n        /* \"#utility.yul\":1906:1915   */\n      dup4\n        /* \"#utility.yul\":1902:1919   */\n      add\n        /* \"#utility.yul\":1895:1942   */\n      mstore\n        /* \"#utility.yul\":1959:2090   */\n      tag_41\n        /* \"#utility.yul\":2085:2089   */\n      dup2\n        /* \"#utility.yul\":1959:2090   */\n      tag_25\n      jump\t// in\n    tag_41:\n        /* \"#utility.yul\":1951:2090   */\n      swap1\n      pop\n        /* \"#utility.yul\":1678:2097   */\n      swap2\n      swap1\n      pop\n      jump\t// out\n        /* \"#utility.yul\":2103:2261   */\n    tag_26:\n        /* \"#utility.yul\":2243:2253   */\n      0x5965796520706f70000000000000000000000000000000000000000000000000\n        /* \"#utility.yul\":2239:2240   */\n      0x00\n        /* \"#utility.yul\":2231:2237   */\n      dup3\n        /* \"#utility.yul\":2227:2241   */\n      add\n        /* \"#utility.yul\":2220:2254   */\n      mstore\n        /* \"#utility.yul\":2103:2261   */\n      pop\n      jump\t// out\n        /* \"#utility.yul\":2267:2632   */\n    tag_27:\n        /* \"#utility.yul\":2409:2412   */\n      0x00\n        /* \"#utility.yul\":2430:2496   */\n      tag_44\n        /* \"#utility.yul\":2494:2495   */\n      0x08\n        /* \"#utility.yul\":2489:2492   */\n      dup4\n        /* \"#utility.yul\":2430:2496   */\n      tag_21\n      jump\t// in\n    tag_44:\n        /* \"#utility.yul\":2423:2496   */\n      swap2\n      pop\n        /* \"#utility.yul\":2505:2598   */\n      tag_45\n        /* \"#utility.yul\":2594:2597   */\n      dup3\n        /* \"#utility.yul\":2505:2598   */\n      tag_26\n      jump\t// in\n    tag_45:\n        /* \"#utility.yul\":2623:2625   */\n      0x20\n        /* \"#utility.yul\":2618:2621   */\n      dup3\n        /* \"#utility.yul\":2614:2626   */\n      add\n        /* \"#utility.yul\":2607:2626   */\n      swap1\n      pop\n        /* \"#utility.yul\":2267:2632   */\n      swap2\n      swap1\n      pop\n      jump\t// out\n        /* \"#utility.yul\":2638:3057   */\n    tag_20:\n        /* \"#utility.yul\":2804:2808   */\n      0x00\n        /* \"#utility.yul\":2842:2844   */\n      0x20\n        /* \"#utility.yul\":2831:2840   */\n      dup3\n        /* \"#utility.yul\":2827:2845   */\n      add\n        /* \"#utility.yul\":2819:2845   */\n      swap1\n      pop\n        /* \"#utility.yul\":2891:2900   */\n      dup2\n        /* \"#utility.yul\":2885:2889   */\n      dup2\n        /* \"#utility.yul\":2881:2901   */\n      sub\n        /* \"#utility.yul\":2877:2878   */\n      0x00\n        /* \"#utility.yul\":2866:2875   */\n      dup4\n        /* \"#utility.yul\":2862:2879   */\n      add\n        /* \"#utility.yul\":2855:2902   */\n      mstore\n        /* \"#utility.yul\":2919:3050   */\n      tag_47\n        /* \"#utility.yul\":3045:3049   */\n      dup2\n        /* \"#utility.yul\":2919:3050   */\n      tag_27\n      jump\t// in\n    tag_47:\n        /* \"#utility.yul\":2911:3050   */\n      swap1\n      pop\n        /* \"#utility.yul\":2638:3057   */\n      swap2\n      swap1\n      pop\n      jump\t// out\n\n    auxdata: 0xa2646970667358221220fd609912eaa9e4d4c38bed770657a67d57e13d015a1260f03700496d6630303c64736f6c634300081e0033\n}\n",
				"bytecode": {
					"linkReferences": {},
					"object": "6080604052348015600e575f5ffd5b506102848061001c5f395ff3fe608060405234801561000f575f5ffd5b506004361061003f575f3560e01c80630ca21e9c14610043578063370ea1421461004d578063a4ece52c14610057575b5f5ffd5b61004b610061565b005b610055610098565b005b61005f6100cf565b005b7fcf34ef537ac33ee1ac626ca1587a0a7e8e51561e5514f8cb36afa1c5102b3bab60405161008e90610160565b60405180910390a1565b7fcf34ef537ac33ee1ac626ca1587a0a7e8e51561e5514f8cb36afa1c5102b3bab6040516100c5906101c8565b60405180910390a1565b7fcf34ef537ac33ee1ac626ca1587a0a7e8e51561e5514f8cb36afa1c5102b3bab6040516100fc90610230565b60405180910390a1565b5f82825260208201905092915050565b7f59657965207965796500000000000000000000000000000000000000000000005f82015250565b5f61014a600983610106565b915061015582610116565b602082019050919050565b5f6020820190508181035f8301526101778161013e565b9050919050565b7f59657965206869700000000000000000000000000000000000000000000000005f82015250565b5f6101b2600883610106565b91506101bd8261017e565b602082019050919050565b5f6020820190508181035f8301526101df816101a6565b9050919050565b7f5965796520706f700000000000000000000000000000000000000000000000005f82015250565b5f61021a600883610106565b9150610225826101e6565b602082019050919050565b5f6020820190508181035f8301526102478161020e565b905091905056fea2646970667358221220fd609912eaa9e4d4c38bed770657a67d57e13d015a1260f03700496d6630303c64736f6c634300081e0033",
					"opcodes": "PUSH1 0x80 PUSH1 0x40 MSTORE CALLVALUE DUP1 ISZERO PUSH1 0xE JUMPI PUSH0 PUSH0 REVERT JUMPDEST POP PUSH2 0x284 DUP1 PUSH2 0x1C PUSH0 CODECOPY PUSH0 RETURN INVALID PUSH1 0x80 PUSH1 0x40 MSTORE CALLVALUE DUP1 ISZERO PUSH2 0xF JUMPI PUSH0 PUSH0 REVERT JUMPDEST POP PUSH1 0x4 CALLDATASIZE LT PUSH2 0x3F JUMPI PUSH0 CALLDATALOAD PUSH1 0xE0 SHR DUP1 PUSH4 0xCA21E9C EQ PUSH2 0x43 JUMPI DUP1 PUSH4 0x370EA142 EQ PUSH2 0x4D JUMPI DUP1 PUSH4 0xA4ECE52C EQ PUSH2 0x57 JUMPI JUMPDEST PUSH0 PUSH0 REVERT JUMPDEST PUSH2 0x4B PUSH2 0x61 JUMP JUMPDEST STOP JUMPDEST PUSH2 0x55 PUSH2 0x98 JUMP JUMPDEST STOP JUMPDEST PUSH2 0x5F PUSH2 0xCF JUMP JUMPDEST STOP JUMPDEST PUSH32 0xCF34EF537AC33EE1AC626CA1587A0A7E8E51561E5514F8CB36AFA1C5102B3BAB PUSH1 0x40 MLOAD PUSH2 0x8E SWAP1 PUSH2 0x160 JUMP JUMPDEST PUSH1 0x40 MLOAD DUP1 SWAP2 SUB SWAP1 LOG1 JUMP JUMPDEST PUSH32 0xCF34EF537AC33EE1AC626CA1587A0A7E8E51561E5514F8CB36AFA1C5102B3BAB PUSH1 0x40 MLOAD PUSH2 0xC5 SWAP1 PUSH2 0x1C8 JUMP JUMPDEST PUSH1 0x40 MLOAD DUP1 SWAP2 SUB SWAP1 LOG1 JUMP JUMPDEST PUSH32 0xCF34EF537AC33EE1AC626CA1587A0A7E8E51561E5514F8CB36AFA1C5102B3BAB PUSH1 0x40 MLOAD PUSH2 0xFC SWAP1 PUSH2 0x230 JUMP JUMPDEST PUSH1 0x40 MLOAD DUP1 SWAP2 SUB SWAP1 LOG1 JUMP JUMPDEST PUSH0 DUP3 DUP3 MSTORE PUSH1 0x20 DUP3 ADD SWAP1 POP SWAP3 SWAP2 POP POP JUMP JUMPDEST PUSH32 0x5965796520796579650000000000000000000000000000000000000000000000 PUSH0 DUP3 ADD MSTORE POP JUMP JUMPDEST PUSH0 PUSH2 0x14A PUSH1 0x9 DUP4 PUSH2 0x106 JUMP JUMPDEST SWAP2 POP PUSH2 0x155 DUP3 PUSH2 0x116 JUMP JUMPDEST PUSH1 0x20 DUP3 ADD SWAP1 POP SWAP2 SWAP1 POP JUMP JUMPDEST PUSH0 PUSH1 0x20 DUP3 ADD SWAP1 POP DUP2 DUP2 SUB PUSH0 DUP4 ADD MSTORE PUSH2 0x177 DUP2 PUSH2 0x13E JUMP JUMPDEST SWAP1 POP SWAP2 SWAP1 POP JUMP JUMPDEST PUSH32 0x5965796520686970000000000000000000000000000000000000000000000000 PUSH0 DUP3 ADD MSTORE POP JUMP JUMPDEST PUSH0 PUSH2 0x1B2 PUSH1 0x8 DUP4 PUSH2 0x106 JUMP JUMPDEST SWAP2 POP PUSH2 0x1BD DUP3 PUSH2 0x17E JUMP JUMPDEST PUSH1 0x20 DUP3 ADD SWAP1 POP SWAP2 SWAP1 POP JUMP JUMPDEST PUSH0 PUSH1 0x20 DUP3 ADD SWAP1 POP DUP2 DUP2 SUB PUSH0 DUP4 ADD MSTORE PUSH2 0x1DF DUP2 PUSH2 0x1A6 JUMP JUMPDEST SWAP1 POP SWAP2 SWAP1 POP JUMP JUMPDEST PUSH32 0x5965796520706F70000000000000000000000000000000000000000000000000 PUSH0 DUP3 ADD MSTORE POP JUMP JUMPDEST PUSH0 PUSH2 0x21A PUSH1 0x8 DUP4 PUSH2 0x106 JUMP JUMPDEST SWAP2 POP PUSH2 0x225 DUP3 PUSH2 0x1E6 JUMP JUMPDEST PUSH1 0x20 DUP3 ADD SWAP1 POP SWAP2 SWAP1 POP JUMP JUMPDEST PUSH0 PUSH1 0x20 DUP3 ADD SWAP1 POP DUP2 DUP2 SUB PUSH0 DUP4 ADD MSTORE PUSH2 0x247 DUP2 PUSH2 0x20E JUMP JUMPDEST SWAP1 POP SWAP2 SWAP1 POP JUMP INVALID LOG2 PUSH5 0x6970667358 0x22 SLT KECCAK256 REVERT PUSH1 0x99 SLT 0xEA 0xA9 RETF 0xD4 0xC3 DUP12 0xED PUSH24 0x657A67D57E13D015A1260F03700496D6630303C64736F6C PUSH4 0x4300081E STOP CALLER "
				},
				"gasEstimates": {
					"creation": {
						"codeDepositCost": "128800",
						"executionCost": "175",
						"totalCost": "128975"
					},
					"external": {
						"hip()": "1940",
						"pop()": "1962",
						"yeye()": "1918"
					}
				},
				"methodIdentifiers": {
					"hip()": "370ea142",
					"pop()": "a4ece52c",
					"yeye()": "0ca21e9c"
				}
			},
			"storageLayout": {
				"storage": [],
				"types": null
			},
			"userdoc": {
				"kind": "user",
				"methods": {},
				"version": 1
			}
		}
	}
}