{
	"Create2.sol": {
		"PaieFactory2": {
			"abi": [
				{
					"inputs": [
						{
							"internalType": "uint256",
							"name": "",
							"type": "uint256"
						}
					],
					"name": "allPairs",
					"outputs": [
						{
							"internalType": "address",
							"name": "",
							"type": "address"
						}
					],
					"stateMutability": "view",
					"type": "function"
				},
				{
					"inputs": [
						{
							"internalType": "address",
							"name": "tokenA",
							"type": "address"
						},
						{
							"internalType": "address",
							"name": "tokenB",
							"type": "address"
						}
					],
					"name": "calculateAddr",
					"outputs": [
						{
							"internalType": "address",
							"name": "predictedAddr",
							"type": "address"
						}
					],
					"stateMutability": "view",
					"type": "function"
				},
				{
					"inputs": [
						{
							"internalType": "address",
							"name": "tokenA",
							"type": "address"
						},
						{
							"internalType": "address",
							"name": "tokenB",
							"type": "address"
						}
					],
					"name": "createPair2",
					"outputs": [
						{
							"internalType": "address",
							"name": "pairAddr",
							"type": "address"
						}
					],
					"stateMutability": "nonpayable",
					"type": "function"
				},
				{
					"inputs": [
						{
							"internalType": "address",
							"name": "",
							"type": "address"
						},
						{
							"internalType": "address",
							"name": "",
							"type": "address"
						}
					],
					"name": "getPair",
					"outputs": [
						{
							"internalType": "address",
							"name": "",
							"type": "address"
						}
					],
					"stateMutability": "view",
					"type": "function"
				}
			],
			"devdoc": {
				"kind": "dev",
				"methods": {},
				"version": 1
			},
			"evm": {
				"assembly": "    /* \"Create2.sol\":341:1757  contract PaieFactory2 {... */\n  mstore(0x40, 0x80)\n  callvalue\n  dup1\n  iszero\n  tag_1\n  jumpi\n  revert(0x00, 0x00)\ntag_1:\n  pop\n  dataSize(sub_0)\n  dup1\n  dataOffset(sub_0)\n  0x00\n  codecopy\n  0x00\n  return\nstop\n\nsub_0: assembly {\n        /* \"Create2.sol\":341:1757  contract PaieFactory2 {... */\n      mstore(0x40, 0x80)\n      callvalue\n      dup1\n      iszero\n      tag_1\n      jumpi\n      revert(0x00, 0x00)\n    tag_1:\n      pop\n      jumpi(tag_2, lt(calldatasize, 0x04))\n      shr(0xe0, calldataload(0x00))\n      dup1\n      0x1e3dd18b\n      eq\n      tag_3\n      jumpi\n      dup1\n      0x93850187\n      eq\n      tag_4\n      jumpi\n      dup1\n      0xdf06b188\n      eq\n      tag_5\n      jumpi\n      dup1\n      0xe6a43905\n      eq\n      tag_6\n      jumpi\n    tag_2:\n      revert(0x00, 0x00)\n        /* \"Create2.sol\":440:465  address[] public allPairs */\n    tag_3:\n      tag_7\n      0x04\n      dup1\n      calldatasize\n      sub\n      dup2\n      add\n      swap1\n      tag_8\n      swap2\n      swap1\n      tag_9\n      jump\t// in\n    tag_8:\n      tag_10\n      jump\t// in\n    tag_7:\n      mload(0x40)\n      tag_11\n      swap2\n      swap1\n      tag_12\n      jump\t// in\n    tag_11:\n      mload(0x40)\n      dup1\n      swap2\n      sub\n      swap1\n      return\n        /* \"Create2.sol\":626:1197  function createPair2(address tokenA, address tokenB) external returns (address pairAddr) {... */\n    tag_4:\n      tag_13\n      0x04\n      dup1\n      calldatasize\n      sub\n      dup2\n      add\n      swap1\n      tag_14\n      swap2\n      swap1\n      tag_15\n      jump\t// in\n    tag_14:\n      tag_16\n      jump\t// in\n    tag_13:\n      mload(0x40)\n      tag_17\n      swap2\n      swap1\n      tag_12\n      jump\t// in\n    tag_17:\n      mload(0x40)\n      dup1\n      swap2\n      sub\n      swap1\n      return\n        /* \"Create2.sol\":1205:1754  function calculateAddr(address tokenA, address tokenB) external view returns (address predictedAddr) {... */\n    tag_5:\n      tag_18\n      0x04\n      dup1\n      calldatasize\n      sub\n      dup2\n      add\n      swap1\n      tag_19\n      swap2\n      swap1\n      tag_15\n      jump\t// in\n    tag_19:\n      tag_20\n      jump\t// in\n    tag_18:\n      mload(0x40)\n      tag_21\n      swap2\n      swap1\n      tag_12\n      jump\t// in\n    tag_21:\n      mload(0x40)\n      dup1\n      swap2\n      sub\n      swap1\n      return\n        /* \"Create2.sol\":370:433  mapping( address => mapping(address =>address )) public getPair */\n    tag_6:\n      tag_22\n      0x04\n      dup1\n      calldatasize\n      sub\n      dup2\n      add\n      swap1\n      tag_23\n      swap2\n      swap1\n      tag_15\n      jump\t// in\n    tag_23:\n      tag_24\n      jump\t// in\n    tag_22:\n      mload(0x40)\n      tag_25\n      swap2\n      swap1\n      tag_12\n      jump\t// in\n    tag_25:\n      mload(0x40)\n      dup1\n      swap2\n      sub\n      swap1\n      return\n        /* \"Create2.sol\":440:465  address[] public allPairs */\n    tag_10:\n      0x01\n      dup2\n      dup2\n      sload\n      dup2\n      lt\n      tag_26\n      jumpi\n      0x00\n      dup1\n      revert\n    tag_26:\n      swap1\n      0x00\n      mstore\n      keccak256(0x00, 0x20)\n      add\n      0x00\n      swap2\n      pop\n      sload\n      swap1\n      0x0100\n      exp\n      swap1\n      div\n      0xffffffffffffffffffffffffffffffffffffffff\n      and\n      dup2\n      jump\t// out\n        /* \"Create2.sol\":626:1197  function createPair2(address tokenA, address tokenB) external returns (address pairAddr) {... */\n    tag_16:\n        /* \"Create2.sol\":697:713  address pairAddr */\n      0x00\n        /* \"Create2.sol\":745:751  tokenB */\n      dup2\n        /* \"Create2.sol\":735:751  tokenA != tokenB */\n      0xffffffffffffffffffffffffffffffffffffffff\n      and\n        /* \"Create2.sol\":735:741  tokenA */\n      dup4\n        /* \"Create2.sol\":735:751  tokenA != tokenB */\n      0xffffffffffffffffffffffffffffffffffffffff\n      and\n      sub\n        /* \"Create2.sol\":726:775  require (tokenA != tokenB, \"IDENTICAL_ADDRESSES\") */\n      tag_29\n      jumpi\n      mload(0x40)\n      0x08c379a000000000000000000000000000000000000000000000000000000000\n      dup2\n      mstore\n      0x04\n      add\n      tag_30\n      swap1\n      tag_31\n      jump\t// in\n    tag_30:\n      mload(0x40)\n      dup1\n      swap2\n      sub\n      swap1\n      revert\n    tag_29:\n        /* \"Create2.sol\":787:801  address token0 */\n      0x00\n        /* \"Create2.sol\":803:817  address token1 */\n      0x00\n        /* \"Create2.sol\":830:836  tokenB */\n      dup4\n        /* \"Create2.sol\":821:836  tokenA < tokenB */\n      0xffffffffffffffffffffffffffffffffffffffff\n      and\n        /* \"Create2.sol\":821:827  tokenA */\n      dup6\n        /* \"Create2.sol\":821:836  tokenA < tokenB */\n      0xffffffffffffffffffffffffffffffffffffffff\n      and\n      lt\n        /* \"Create2.sol\":821:873  tokenA < tokenB ? (tokenA, tokenB) :(tokenB, tokenA) */\n      tag_32\n      jumpi\n        /* \"Create2.sol\":858:864  tokenB */\n      dup4\n        /* \"Create2.sol\":866:872  tokenA */\n      dup6\n        /* \"Create2.sol\":821:873  tokenA < tokenB ? (tokenA, tokenB) :(tokenB, tokenA) */\n      jump(tag_33)\n    tag_32:\n        /* \"Create2.sol\":840:846  tokenA */\n      dup5\n        /* \"Create2.sol\":848:854  tokenB */\n      dup5\n        /* \"Create2.sol\":821:873  tokenA < tokenB ? (tokenA, tokenB) :(tokenB, tokenA) */\n    tag_33:\n        /* \"Create2.sol\":786:873  (address token0, address token1) = tokenA < tokenB ? (tokenA, tokenB) :(tokenB, tokenA) */\n      swap2\n      pop\n      swap2\n      pop\n        /* \"Create2.sol\":884:896  bytes32 salt */\n      0x00\n        /* \"Create2.sol\":926:932  token0 */\n      dup3\n        /* \"Create2.sol\":934:940  token1 */\n      dup3\n        /* \"Create2.sol\":909:941  abi.encodePacked(token0, token1) */\n      add(0x20, mload(0x40))\n      tag_34\n      swap3\n      swap2\n      swap1\n      tag_35\n      jump\t// in\n    tag_34:\n      mload(0x40)\n      0x20\n      dup2\n      dup4\n      sub\n      sub\n      dup2\n      mstore\n      swap1\n      0x40\n      mstore\n        /* \"Create2.sol\":899:942  keccak256(abi.encodePacked(token0, token1)) */\n      dup1\n      mload\n      swap1\n      0x20\n      add\n      keccak256\n        /* \"Create2.sol\":884:942  bytes32 salt = keccak256(abi.encodePacked(token0, token1)) */\n      swap1\n      pop\n        /* \"Create2.sol\":953:963  Pair2 pair */\n      0x00\n        /* \"Create2.sol\":981:985  salt */\n      dup2\n        /* \"Create2.sol\":966:988  new Pair2{salt:salt}() */\n      mload(0x40)\n      tag_36\n      swap1\n      tag_37\n      jump\t// in\n    tag_36:\n      dup2\n      swap1\n      mload(0x40)\n      dup1\n      swap2\n      sub\n      swap1\n      0x00\n      create2\n      swap1\n      pop\n      dup1\n      iszero\n      dup1\n      iszero\n      tag_38\n      jumpi\n      returndatacopy(0x00, 0x00, returndatasize)\n      revert(0x00, returndatasize)\n    tag_38:\n      pop\n        /* \"Create2.sol\":953:988  Pair2 pair = new Pair2{salt:salt}() */\n      swap1\n      pop\n        /* \"Create2.sol\":999:1003  pair */\n      dup1\n        /* \"Create2.sol\":999:1014  pair.initialize */\n      0xffffffffffffffffffffffffffffffffffffffff\n      and\n      0x485cc955\n        /* \"Create2.sol\":1015:1021  tokenA */\n      dup9\n        /* \"Create2.sol\":1023:1029  tokenB */\n      dup9\n        /* \"Create2.sol\":999:1030  pair.initialize(tokenA, tokenB) */\n      mload(0x40)\n      dup4\n      0xffffffff\n      and\n      0xe0\n      shl\n      dup2\n      mstore\n      0x04\n      add\n      tag_39\n      swap3\n      swap2\n      swap1\n      tag_40\n      jump\t// in\n    tag_39:\n      0x00\n      mload(0x40)\n      dup1\n      dup4\n      sub\n      dup2\n      0x00\n      dup8\n      dup1\n      extcodesize\n      iszero\n      dup1\n      iszero\n      tag_41\n      jumpi\n      revert(0x00, 0x00)\n    tag_41:\n      pop\n      gas\n      call\n      iszero\n      dup1\n      iszero\n      tag_43\n      jumpi\n      returndatacopy(0x00, 0x00, returndatasize)\n      revert(0x00, returndatasize)\n    tag_43:\n      pop\n      pop\n      pop\n      pop\n        /* \"Create2.sol\":1060:1064  pair */\n      dup1\n        /* \"Create2.sol\":1041:1065  pairAddr = address(pair) */\n      swap5\n      pop\n        /* \"Create2.sol\":1076:1084  allPairs */\n      0x01\n        /* \"Create2.sol\":1090:1098  pairAddr */\n      dup6\n        /* \"Create2.sol\":1076:1099  allPairs.push(pairAddr) */\n      swap1\n      dup1\n      0x01\n      dup2\n      sload\n      add\n      dup1\n      dup3\n      sstore\n      dup1\n      swap2\n      pop\n      pop\n      0x01\n      swap1\n      sub\n      swap1\n      0x00\n      mstore\n      keccak256(0x00, 0x20)\n      add\n      0x00\n      swap1\n      swap2\n      swap1\n      swap2\n      swap1\n      swap2\n      0x0100\n      exp\n      dup2\n      sload\n      dup2\n      0xffffffffffffffffffffffffffffffffffffffff\n      mul\n      not\n      and\n      swap1\n      dup4\n      0xffffffffffffffffffffffffffffffffffffffff\n      and\n      mul\n      or\n      swap1\n      sstore\n      pop\n        /* \"Create2.sol\":1136:1144  pairAddr */\n      dup5\n        /* \"Create2.sol\":1110:1117  getPair */\n      0x00\n        /* \"Create2.sol\":1110:1125  getPair[tokenA] */\n      0x00\n        /* \"Create2.sol\":1118:1124  tokenA */\n      dup10\n        /* \"Create2.sol\":1110:1125  getPair[tokenA] */\n      0xffffffffffffffffffffffffffffffffffffffff\n      and\n      0xffffffffffffffffffffffffffffffffffffffff\n      and\n      dup2\n      mstore\n      0x20\n      add\n      swap1\n      dup2\n      mstore\n      0x20\n      add\n      0x00\n      keccak256\n        /* \"Create2.sol\":1110:1133  getPair[tokenA][tokenB] */\n      0x00\n        /* \"Create2.sol\":1126:1132  tokenB */\n      dup9\n        /* \"Create2.sol\":1110:1133  getPair[tokenA][tokenB] */\n      0xffffffffffffffffffffffffffffffffffffffff\n      and\n      0xffffffffffffffffffffffffffffffffffffffff\n      and\n      dup2\n      mstore\n      0x20\n      add\n      swap1\n      dup2\n      mstore\n      0x20\n      add\n      0x00\n      keccak256\n      0x00\n        /* \"Create2.sol\":1110:1144  getPair[tokenA][tokenB] = pairAddr */\n      0x0100\n      exp\n      dup2\n      sload\n      dup2\n      0xffffffffffffffffffffffffffffffffffffffff\n      mul\n      not\n      and\n      swap1\n      dup4\n      0xffffffffffffffffffffffffffffffffffffffff\n      and\n      mul\n      or\n      swap1\n      sstore\n      pop\n        /* \"Create2.sol\":1181:1189  pairAddr */\n      dup5\n        /* \"Create2.sol\":1155:1162  getPair */\n      0x00\n        /* \"Create2.sol\":1155:1170  getPair[tokenB] */\n      0x00\n        /* \"Create2.sol\":1163:1169  tokenB */\n      dup9\n        /* \"Create2.sol\":1155:1170  getPair[tokenB] */\n      0xffffffffffffffffffffffffffffffffffffffff\n      and\n      0xffffffffffffffffffffffffffffffffffffffff\n      and\n      dup2\n      mstore\n      0x20\n      add\n      swap1\n      dup2\n      mstore\n      0x20\n      add\n      0x00\n      keccak256\n        /* \"Create2.sol\":1155:1178  getPair[tokenB][tokenA] */\n      0x00\n        /* \"Create2.sol\":1171:1177  tokenA */\n      dup10\n        /* \"Create2.sol\":1155:1178  getPair[tokenB][tokenA] */\n      0xffffffffffffffffffffffffffffffffffffffff\n      and\n      0xffffffffffffffffffffffffffffffffffffffff\n      and\n      dup2\n      mstore\n      0x20\n      add\n      swap1\n      dup2\n      mstore\n      0x20\n      add\n      0x00\n      keccak256\n      0x00\n        /* \"Create2.sol\":1155:1189  getPair[tokenB][tokenA] = pairAddr */\n      0x0100\n      exp\n      dup2\n      sload\n      dup2\n      0xffffffffffffffffffffffffffffffffffffffff\n      mul\n      not\n      and\n      swap1\n      dup4\n      0xffffffffffffffffffffffffffffffffffffffff\n      and\n      mul\n      or\n      swap1\n      sstore\n      pop\n        /* \"Create2.sol\":715:1197  {... */\n      pop\n      pop\n      pop\n      pop\n        /* \"Create2.sol\":626:1197  function createPair2(address tokenA, address tokenB) external returns (address pairAddr) {... */\n      swap3\n      swap2\n      pop\n      pop\n      jump\t// out\n        /* \"Create2.sol\":1205:1754  function calculateAddr(address tokenA, address tokenB) external view returns (address predictedAddr) {... */\n    tag_20:\n        /* \"Create2.sol\":1283:1304  address predictedAddr */\n      0x00\n        /* \"Create2.sol\":1336:1342  tokenB */\n      dup2\n        /* \"Create2.sol\":1326:1342  tokenA != tokenB */\n      0xffffffffffffffffffffffffffffffffffffffff\n      and\n        /* \"Create2.sol\":1326:1332  tokenA */\n      dup4\n        /* \"Create2.sol\":1326:1342  tokenA != tokenB */\n      0xffffffffffffffffffffffffffffffffffffffff\n      and\n      sub\n        /* \"Create2.sol\":1317:1366  require (tokenA != tokenB, \"IDENTICAL_ADDRESSES\") */\n      tag_46\n      jumpi\n      mload(0x40)\n      0x08c379a000000000000000000000000000000000000000000000000000000000\n      dup2\n      mstore\n      0x04\n      add\n      tag_47\n      swap1\n      tag_31\n      jump\t// in\n    tag_47:\n      mload(0x40)\n      dup1\n      swap2\n      sub\n      swap1\n      revert\n    tag_46:\n        /* \"Create2.sol\":1378:1392  address token0 */\n      0x00\n        /* \"Create2.sol\":1394:1408  address token1 */\n      0x00\n        /* \"Create2.sol\":1421:1427  tokenB */\n      dup4\n        /* \"Create2.sol\":1412:1427  tokenA < tokenB */\n      0xffffffffffffffffffffffffffffffffffffffff\n      and\n        /* \"Create2.sol\":1412:1418  tokenA */\n      dup6\n        /* \"Create2.sol\":1412:1427  tokenA < tokenB */\n      0xffffffffffffffffffffffffffffffffffffffff\n      and\n      lt\n        /* \"Create2.sol\":1412:1464  tokenA < tokenB ? (tokenA, tokenB) :(tokenB, tokenA) */\n      tag_48\n      jumpi\n        /* \"Create2.sol\":1449:1455  tokenB */\n      dup4\n        /* \"Create2.sol\":1457:1463  tokenA */\n      dup6\n        /* \"Create2.sol\":1412:1464  tokenA < tokenB ? (tokenA, tokenB) :(tokenB, tokenA) */\n      jump(tag_49)\n    tag_48:\n        /* \"Create2.sol\":1431:1437  tokenA */\n      dup5\n        /* \"Create2.sol\":1439:1445  tokenB */\n      dup5\n        /* \"Create2.sol\":1412:1464  tokenA < tokenB ? (tokenA, tokenB) :(tokenB, tokenA) */\n    tag_49:\n        /* \"Create2.sol\":1377:1464  (address token0, address token1) = tokenA < tokenB ? (tokenA, tokenB) :(tokenB, tokenA) */\n      swap2\n      pop\n      swap2\n      pop\n        /* \"Create2.sol\":1475:1487  bytes32 salt */\n      0x00\n        /* \"Create2.sol\":1517:1523  token0 */\n      dup3\n        /* \"Create2.sol\":1525:1531  token1 */\n      dup3\n        /* \"Create2.sol\":1500:1532  abi.encodePacked(token0, token1) */\n      add(0x20, mload(0x40))\n      tag_50\n      swap3\n      swap2\n      swap1\n      tag_35\n      jump\t// in\n    tag_50:\n      mload(0x40)\n      0x20\n      dup2\n      dup4\n      sub\n      sub\n      dup2\n      mstore\n      swap1\n      0x40\n      mstore\n        /* \"Create2.sol\":1490:1533  keccak256(abi.encodePacked(token0, token1)) */\n      dup1\n      mload\n      swap1\n      0x20\n      add\n      keccak256\n        /* \"Create2.sol\":1475:1533  bytes32 salt = keccak256(abi.encodePacked(token0, token1)) */\n      swap1\n      pop\n        /* \"Create2.sol\":1629:1633  0xff */\n      0xff\n        /* \"Create2.sol\":1622:1634  bytes1(0xff) */\n      0xf8\n      shl\n        /* \"Create2.sol\":1657:1661  this */\n      address\n        /* \"Create2.sol\":1677:1681  salt */\n      dup3\n        /* \"Create2.sol\":1706:1730  type(Pair2).creationCode */\n      mload(0x40)\n      dup1\n      0x20\n      add\n      tag_51\n      swap1\n      tag_37\n      jump\t// in\n    tag_51:\n      0x20\n      dup3\n      add\n      dup2\n      sub\n      dup3\n      mstore\n      not(0x1f)\n      0x1f\n      dup3\n      add\n      and\n      0x40\n      mstore\n      pop\n        /* \"Create2.sol\":1696:1731  keccak256(type(Pair2).creationCode) */\n      dup1\n      mload\n      swap1\n      0x20\n      add\n      keccak256\n        /* \"Create2.sol\":1591:1742  abi.encodePacked(... */\n      add(0x20, mload(0x40))\n      tag_52\n      swap5\n      swap4\n      swap3\n      swap2\n      swap1\n      tag_53\n      jump\t// in\n    tag_52:\n      mload(0x40)\n      0x20\n      dup2\n      dup4\n      sub\n      sub\n      dup2\n      mstore\n      swap1\n      0x40\n      mstore\n        /* \"Create2.sol\":1581:1743  keccak256(abi.encodePacked(... */\n      dup1\n      mload\n      swap1\n      0x20\n      add\n      keccak256\n        /* \"Create2.sol\":1576:1744  uint(keccak256(abi.encodePacked(... */\n      0x00\n      shr\n        /* \"Create2.sol\":1544:1746  predictedAddr = address(uint160(uint(keccak256(abi.encodePacked(... */\n      swap4\n      pop\n        /* \"Create2.sol\":1306:1754  {... */\n      pop\n      pop\n      pop\n        /* \"Create2.sol\":1205:1754  function calculateAddr(address tokenA, address tokenB) external view returns (address predictedAddr) {... */\n      swap3\n      swap2\n      pop\n      pop\n      jump\t// out\n        /* \"Create2.sol\":370:433  mapping( address => mapping(address =>address )) public getPair */\n    tag_24:\n      mstore(0x20, 0x00)\n      dup2\n      0x00\n      mstore\n      mstore(0x20, keccak256(0x00, 0x40))\n      dup1\n      0x00\n      mstore\n      keccak256(0x00, 0x40)\n      0x00\n      swap2\n      pop\n      swap2\n      pop\n      swap1\n      sload\n      swap1\n      0x0100\n      exp\n      swap1\n      div\n      0xffffffffffffffffffffffffffffffffffffffff\n      and\n      dup2\n      jump\t// out\n    tag_37:\n      dataSize(sub_0)\n      dup1\n      dataOffset(sub_0)\n      dup4\n      codecopy\n      add\n      swap1\n      jump\t// out\n        /* \"#utility.yul\":88:205   */\n    tag_55:\n        /* \"#utility.yul\":197:198   */\n      0x00\n        /* \"#utility.yul\":194:195   */\n      0x00\n        /* \"#utility.yul\":187:199   */\n      revert\n        /* \"#utility.yul\":334:411   */\n    tag_57:\n        /* \"#utility.yul\":371:378   */\n      0x00\n        /* \"#utility.yul\":400:405   */\n      dup2\n        /* \"#utility.yul\":389:405   */\n      swap1\n      pop\n        /* \"#utility.yul\":334:411   */\n      swap2\n      swap1\n      pop\n      jump\t// out\n        /* \"#utility.yul\":417:539   */\n    tag_58:\n        /* \"#utility.yul\":490:514   */\n      tag_84\n        /* \"#utility.yul\":508:513   */\n      dup2\n        /* \"#utility.yul\":490:514   */\n      tag_57\n      jump\t// in\n    tag_84:\n        /* \"#utility.yul\":483:488   */\n      dup2\n        /* \"#utility.yul\":480:515   */\n      eq\n        /* \"#utility.yul\":470:533   */\n      tag_85\n      jumpi\n        /* \"#utility.yul\":529:530   */\n      0x00\n        /* \"#utility.yul\":526:527   */\n      0x00\n        /* \"#utility.yul\":519:531   */\n      revert\n        /* \"#utility.yul\":470:533   */\n    tag_85:\n        /* \"#utility.yul\":417:539   */\n      pop\n      jump\t// out\n        /* \"#utility.yul\":545:684   */\n    tag_59:\n        /* \"#utility.yul\":591:596   */\n      0x00\n        /* \"#utility.yul\":629:635   */\n      dup2\n        /* \"#utility.yul\":616:636   */\n      calldataload\n        /* \"#utility.yul\":607:636   */\n      swap1\n      pop\n        /* \"#utility.yul\":645:678   */\n      tag_87\n        /* \"#utility.yul\":672:677   */\n      dup2\n        /* \"#utility.yul\":645:678   */\n      tag_58\n      jump\t// in\n    tag_87:\n        /* \"#utility.yul\":545:684   */\n      swap3\n      swap2\n      pop\n      pop\n      jump\t// out\n        /* \"#utility.yul\":690:1019   */\n    tag_9:\n        /* \"#utility.yul\":749:755   */\n      0x00\n        /* \"#utility.yul\":798:800   */\n      0x20\n        /* \"#utility.yul\":786:795   */\n      dup3\n        /* \"#utility.yul\":777:784   */\n      dup5\n        /* \"#utility.yul\":773:796   */\n      sub\n        /* \"#utility.yul\":769:801   */\n      slt\n        /* \"#utility.yul\":766:885   */\n      iszero\n      tag_89\n      jumpi\n        /* \"#utility.yul\":804:883   */\n      tag_90\n      tag_55\n      jump\t// in\n    tag_90:\n        /* \"#utility.yul\":766:885   */\n    tag_89:\n        /* \"#utility.yul\":924:925   */\n      0x00\n        /* \"#utility.yul\":949:1002   */\n      tag_91\n        /* \"#utility.yul\":994:1001   */\n      dup5\n        /* \"#utility.yul\":985:991   */\n      dup3\n        /* \"#utility.yul\":974:983   */\n      dup6\n        /* \"#utility.yul\":970:992   */\n      add\n        /* \"#utility.yul\":949:1002   */\n      tag_59\n      jump\t// in\n    tag_91:\n        /* \"#utility.yul\":939:1002   */\n      swap2\n      pop\n        /* \"#utility.yul\":895:1012   */\n      pop\n        /* \"#utility.yul\":690:1019   */\n      swap3\n      swap2\n      pop\n      pop\n      jump\t// out\n        /* \"#utility.yul\":1025:1151   */\n    tag_60:\n        /* \"#utility.yul\":1062:1069   */\n      0x00\n        /* \"#utility.yul\":1102:1144   */\n      0xffffffffffffffffffffffffffffffffffffffff\n        /* \"#utility.yul\":1095:1100   */\n      dup3\n        /* \"#utility.yul\":1091:1145   */\n      and\n        /* \"#utility.yul\":1080:1145   */\n      swap1\n      pop\n        /* \"#utility.yul\":1025:1151   */\n      swap2\n      swap1\n      pop\n      jump\t// out\n        /* \"#utility.yul\":1157:1253   */\n    tag_61:\n        /* \"#utility.yul\":1194:1201   */\n      0x00\n        /* \"#utility.yul\":1223:1247   */\n      tag_94\n        /* \"#utility.yul\":1241:1246   */\n      dup3\n        /* \"#utility.yul\":1223:1247   */\n      tag_60\n      jump\t// in\n    tag_94:\n        /* \"#utility.yul\":1212:1247   */\n      swap1\n      pop\n        /* \"#utility.yul\":1157:1253   */\n      swap2\n      swap1\n      pop\n      jump\t// out\n        /* \"#utility.yul\":1259:1377   */\n    tag_62:\n        /* \"#utility.yul\":1346:1370   */\n      tag_96\n        /* \"#utility.yul\":1364:1369   */\n      dup2\n        /* \"#utility.yul\":1346:1370   */\n      tag_61\n      jump\t// in\n    tag_96:\n        /* \"#utility.yul\":1341:1344   */\n      dup3\n        /* \"#utility.yul\":1334:1371   */\n      mstore\n        /* \"#utility.yul\":1259:1377   */\n      pop\n      pop\n      jump\t// out\n        /* \"#utility.yul\":1383:1605   */\n    tag_12:\n        /* \"#utility.yul\":1476:1480   */\n      0x00\n        /* \"#utility.yul\":1514:1516   */\n      0x20\n        /* \"#utility.yul\":1503:1512   */\n      dup3\n        /* \"#utility.yul\":1499:1517   */\n      add\n        /* \"#utility.yul\":1491:1517   */\n      swap1\n      pop\n        /* \"#utility.yul\":1527:1598   */\n      tag_98\n        /* \"#utility.yul\":1595:1596   */\n      0x00\n        /* \"#utility.yul\":1584:1593   */\n      dup4\n        /* \"#utility.yul\":1580:1597   */\n      add\n        /* \"#utility.yul\":1571:1577   */\n      dup5\n        /* \"#utility.yul\":1527:1598   */\n      tag_62\n      jump\t// in\n    tag_98:\n        /* \"#utility.yul\":1383:1605   */\n      swap3\n      swap2\n      pop\n      pop\n      jump\t// out\n        /* \"#utility.yul\":1611:1733   */\n    tag_63:\n        /* \"#utility.yul\":1684:1708   */\n      tag_100\n        /* \"#utility.yul\":1702:1707   */\n      dup2\n        /* \"#utility.yul\":1684:1708   */\n      tag_61\n      jump\t// in\n    tag_100:\n        /* \"#utility.yul\":1677:1682   */\n      dup2\n        /* \"#utility.yul\":1674:1709   */\n      eq\n        /* \"#utility.yul\":1664:1727   */\n      tag_101\n      jumpi\n        /* \"#utility.yul\":1723:1724   */\n      0x00\n        /* \"#utility.yul\":1720:1721   */\n      0x00\n        /* \"#utility.yul\":1713:1725   */\n      revert\n        /* \"#utility.yul\":1664:1727   */\n    tag_101:\n        /* \"#utility.yul\":1611:1733   */\n      pop\n      jump\t// out\n        /* \"#utility.yul\":1739:1878   */\n    tag_64:\n        /* \"#utility.yul\":1785:1790   */\n      0x00\n        /* \"#utility.yul\":1823:1829   */\n      dup2\n        /* \"#utility.yul\":1810:1830   */\n      calldataload\n        /* \"#utility.yul\":1801:1830   */\n      swap1\n      pop\n        /* \"#utility.yul\":1839:1872   */\n      tag_103\n        /* \"#utility.yul\":1866:1871   */\n      dup2\n        /* \"#utility.yul\":1839:1872   */\n      tag_63\n      jump\t// in\n    tag_103:\n        /* \"#utility.yul\":1739:1878   */\n      swap3\n      swap2\n      pop\n      pop\n      jump\t// out\n        /* \"#utility.yul\":1884:2358   */\n    tag_15:\n        /* \"#utility.yul\":1952:1958   */\n      0x00\n        /* \"#utility.yul\":1960:1966   */\n      0x00\n        /* \"#utility.yul\":2009:2011   */\n      0x40\n        /* \"#utility.yul\":1997:2006   */\n      dup4\n        /* \"#utility.yul\":1988:1995   */\n      dup6\n        /* \"#utility.yul\":1984:2007   */\n      sub\n        /* \"#utility.yul\":1980:2012   */\n      slt\n        /* \"#utility.yul\":1977:2096   */\n      iszero\n      tag_105\n      jumpi\n        /* \"#utility.yul\":2015:2094   */\n      tag_106\n      tag_55\n      jump\t// in\n    tag_106:\n        /* \"#utility.yul\":1977:2096   */\n    tag_105:\n        /* \"#utility.yul\":2135:2136   */\n      0x00\n        /* \"#utility.yul\":2160:2213   */\n      tag_107\n        /* \"#utility.yul\":2205:2212   */\n      dup6\n        /* \"#utility.yul\":2196:2202   */\n      dup3\n        /* \"#utility.yul\":2185:2194   */\n      dup7\n        /* \"#utility.yul\":2181:2203   */\n      add\n        /* \"#utility.yul\":2160:2213   */\n      tag_64\n      jump\t// in\n    tag_107:\n        /* \"#utility.yul\":2150:2213   */\n      swap3\n      pop\n        /* \"#utility.yul\":2106:2223   */\n      pop\n        /* \"#utility.yul\":2262:2264   */\n      0x20\n        /* \"#utility.yul\":2288:2341   */\n      tag_108\n        /* \"#utility.yul\":2333:2340   */\n      dup6\n        /* \"#utility.yul\":2324:2330   */\n      dup3\n        /* \"#utility.yul\":2313:2322   */\n      dup7\n        /* \"#utility.yul\":2309:2331   */\n      add\n        /* \"#utility.yul\":2288:2341   */\n      tag_64\n      jump\t// in\n    tag_108:\n        /* \"#utility.yul\":2278:2341   */\n      swap2\n      pop\n        /* \"#utility.yul\":2233:2351   */\n      pop\n        /* \"#utility.yul\":1884:2358   */\n      swap3\n      pop\n      swap3\n      swap1\n      pop\n      jump\t// out\n        /* \"#utility.yul\":2364:2533   */\n    tag_65:\n        /* \"#utility.yul\":2448:2459   */\n      0x00\n        /* \"#utility.yul\":2482:2488   */\n      dup3\n        /* \"#utility.yul\":2477:2480   */\n      dup3\n        /* \"#utility.yul\":2470:2489   */\n      mstore\n        /* \"#utility.yul\":2522:2526   */\n      0x20\n        /* \"#utility.yul\":2517:2520   */\n      dup3\n        /* \"#utility.yul\":2513:2527   */\n      add\n        /* \"#utility.yul\":2498:2527   */\n      swap1\n      pop\n        /* \"#utility.yul\":2364:2533   */\n      swap3\n      swap2\n      pop\n      pop\n      jump\t// out\n        /* \"#utility.yul\":2539:2708   */\n    tag_66:\n        /* \"#utility.yul\":2679:2700   */\n      0x4944454e544943414c5f41444452455353455300000000000000000000000000\n        /* \"#utility.yul\":2675:2676   */\n      0x00\n        /* \"#utility.yul\":2667:2673   */\n      dup3\n        /* \"#utility.yul\":2663:2677   */\n      add\n        /* \"#utility.yul\":2656:2701   */\n      mstore\n        /* \"#utility.yul\":2539:2708   */\n      pop\n      jump\t// out\n        /* \"#utility.yul\":2714:3080   */\n    tag_67:\n        /* \"#utility.yul\":2856:2859   */\n      0x00\n        /* \"#utility.yul\":2877:2944   */\n      tag_112\n        /* \"#utility.yul\":2941:2943   */\n      0x13\n        /* \"#utility.yul\":2936:2939   */\n      dup4\n        /* \"#utility.yul\":2877:2944   */\n      tag_65\n      jump\t// in\n    tag_112:\n        /* \"#utility.yul\":2870:2944   */\n      swap2\n      pop\n        /* \"#utility.yul\":2953:3046   */\n      tag_113\n        /* \"#utility.yul\":3042:3045   */\n      dup3\n        /* \"#utility.yul\":2953:3046   */\n      tag_66\n      jump\t// in\n    tag_113:\n        /* \"#utility.yul\":3071:3073   */\n      0x20\n        /* \"#utility.yul\":3066:3069   */\n      dup3\n        /* \"#utility.yul\":3062:3074   */\n      add\n        /* \"#utility.yul\":3055:3074   */\n      swap1\n      pop\n        /* \"#utility.yul\":2714:3080   */\n      swap2\n      swap1\n      pop\n      jump\t// out\n        /* \"#utility.yul\":3086:3505   */\n    tag_31:\n        /* \"#utility.yul\":3252:3256   */\n      0x00\n        /* \"#utility.yul\":3290:3292   */\n      0x20\n        /* \"#utility.yul\":3279:3288   */\n      dup3\n        /* \"#utility.yul\":3275:3293   */\n      add\n        /* \"#utility.yul\":3267:3293   */\n      swap1\n      pop\n        /* \"#utility.yul\":3339:3348   */\n      dup2\n        /* \"#utility.yul\":3333:3337   */\n      dup2\n        /* \"#utility.yul\":3329:3349   */\n      sub\n        /* \"#utility.yul\":3325:3326   */\n      0x00\n        /* \"#utility.yul\":3314:3323   */\n      dup4\n        /* \"#utility.yul\":3310:3327   */\n      add\n        /* \"#utility.yul\":3303:3350   */\n      mstore\n        /* \"#utility.yul\":3367:3498   */\n      tag_115\n        /* \"#utility.yul\":3493:3497   */\n      dup2\n        /* \"#utility.yul\":3367:3498   */\n      tag_67\n      jump\t// in\n    tag_115:\n        /* \"#utility.yul\":3359:3498   */\n      swap1\n      pop\n        /* \"#utility.yul\":3086:3505   */\n      swap2\n      swap1\n      pop\n      jump\t// out\n        /* \"#utility.yul\":3511:3605   */\n    tag_68:\n        /* \"#utility.yul\":3544:3552   */\n      0x00\n        /* \"#utility.yul\":3592:3597   */\n      dup2\n        /* \"#utility.yul\":3588:3590   */\n      0x60\n        /* \"#utility.yul\":3584:3598   */\n      shl\n        /* \"#utility.yul\":3563:3598   */\n      swap1\n      pop\n        /* \"#utility.yul\":3511:3605   */\n      swap2\n      swap1\n      pop\n      jump\t// out\n        /* \"#utility.yul\":3611:3705   */\n    tag_69:\n        /* \"#utility.yul\":3650:3657   */\n      0x00\n        /* \"#utility.yul\":3679:3699   */\n      tag_118\n        /* \"#utility.yul\":3693:3698   */\n      dup3\n        /* \"#utility.yul\":3679:3699   */\n      tag_68\n      jump\t// in\n    tag_118:\n        /* \"#utility.yul\":3668:3699   */\n      swap1\n      pop\n        /* \"#utility.yul\":3611:3705   */\n      swap2\n      swap1\n      pop\n      jump\t// out\n        /* \"#utility.yul\":3711:3811   */\n    tag_70:\n        /* \"#utility.yul\":3750:3757   */\n      0x00\n        /* \"#utility.yul\":3779:3805   */\n      tag_120\n        /* \"#utility.yul\":3799:3804   */\n      dup3\n        /* \"#utility.yul\":3779:3805   */\n      tag_69\n      jump\t// in\n    tag_120:\n        /* \"#utility.yul\":3768:3805   */\n      swap1\n      pop\n        /* \"#utility.yul\":3711:3811   */\n      swap2\n      swap1\n      pop\n      jump\t// out\n        /* \"#utility.yul\":3817:3974   */\n    tag_71:\n        /* \"#utility.yul\":3922:3967   */\n      tag_122\n        /* \"#utility.yul\":3942:3966   */\n      tag_123\n        /* \"#utility.yul\":3960:3965   */\n      dup3\n        /* \"#utility.yul\":3942:3966   */\n      tag_61\n      jump\t// in\n    tag_123:\n        /* \"#utility.yul\":3922:3967   */\n      tag_70\n      jump\t// in\n    tag_122:\n        /* \"#utility.yul\":3917:3920   */\n      dup3\n        /* \"#utility.yul\":3910:3968   */\n      mstore\n        /* \"#utility.yul\":3817:3974   */\n      pop\n      pop\n      jump\t// out\n        /* \"#utility.yul\":3980:4377   */\n    tag_35:\n        /* \"#utility.yul\":4120:4123   */\n      0x00\n        /* \"#utility.yul\":4135:4210   */\n      tag_125\n        /* \"#utility.yul\":4206:4209   */\n      dup3\n        /* \"#utility.yul\":4197:4203   */\n      dup6\n        /* \"#utility.yul\":4135:4210   */\n      tag_71\n      jump\t// in\n    tag_125:\n        /* \"#utility.yul\":4235:4237   */\n      0x14\n        /* \"#utility.yul\":4230:4233   */\n      dup3\n        /* \"#utility.yul\":4226:4238   */\n      add\n        /* \"#utility.yul\":4219:4238   */\n      swap2\n      pop\n        /* \"#utility.yul\":4248:4323   */\n      tag_126\n        /* \"#utility.yul\":4319:4322   */\n      dup3\n        /* \"#utility.yul\":4310:4316   */\n      dup5\n        /* \"#utility.yul\":4248:4323   */\n      tag_71\n      jump\t// in\n    tag_126:\n        /* \"#utility.yul\":4348:4350   */\n      0x14\n        /* \"#utility.yul\":4343:4346   */\n      dup3\n        /* \"#utility.yul\":4339:4351   */\n      add\n        /* \"#utility.yul\":4332:4351   */\n      swap2\n      pop\n        /* \"#utility.yul\":4368:4371   */\n      dup2\n        /* \"#utility.yul\":4361:4371   */\n      swap1\n      pop\n        /* \"#utility.yul\":3980:4377   */\n      swap4\n      swap3\n      pop\n      pop\n      pop\n      jump\t// out\n        /* \"#utility.yul\":4383:4715   */\n    tag_40:\n        /* \"#utility.yul\":4504:4508   */\n      0x00\n        /* \"#utility.yul\":4542:4544   */\n      0x40\n        /* \"#utility.yul\":4531:4540   */\n      dup3\n        /* \"#utility.yul\":4527:4545   */\n      add\n        /* \"#utility.yul\":4519:4545   */\n      swap1\n      pop\n        /* \"#utility.yul\":4555:4626   */\n      tag_128\n        /* \"#utility.yul\":4623:4624   */\n      0x00\n        /* \"#utility.yul\":4612:4621   */\n      dup4\n        /* \"#utility.yul\":4608:4625   */\n      add\n        /* \"#utility.yul\":4599:4605   */\n      dup6\n        /* \"#utility.yul\":4555:4626   */\n      tag_62\n      jump\t// in\n    tag_128:\n        /* \"#utility.yul\":4636:4708   */\n      tag_129\n        /* \"#utility.yul\":4704:4706   */\n      0x20\n        /* \"#utility.yul\":4693:4702   */\n      dup4\n        /* \"#utility.yul\":4689:4707   */\n      add\n        /* \"#utility.yul\":4680:4686   */\n      dup5\n        /* \"#utility.yul\":4636:4708   */\n      tag_62\n      jump\t// in\n    tag_129:\n        /* \"#utility.yul\":4383:4715   */\n      swap4\n      swap3\n      pop\n      pop\n      pop\n      jump\t// out\n        /* \"#utility.yul\":4721:4870   */\n    tag_72:\n        /* \"#utility.yul\":4757:4764   */\n      0x00\n        /* \"#utility.yul\":4797:4863   */\n      0xff00000000000000000000000000000000000000000000000000000000000000\n        /* \"#utility.yul\":4790:4795   */\n      dup3\n        /* \"#utility.yul\":4786:4864   */\n      and\n        /* \"#utility.yul\":4775:4864   */\n      swap1\n      pop\n        /* \"#utility.yul\":4721:4870   */\n      swap2\n      swap1\n      pop\n      jump\t// out\n        /* \"#utility.yul\":4876:4954   */\n    tag_73:\n        /* \"#utility.yul\":4914:4921   */\n      0x00\n        /* \"#utility.yul\":4943:4948   */\n      dup2\n        /* \"#utility.yul\":4932:4948   */\n      swap1\n      pop\n        /* \"#utility.yul\":4876:4954   */\n      swap2\n      swap1\n      pop\n      jump\t// out\n        /* \"#utility.yul\":4960:5113   */\n    tag_74:\n        /* \"#utility.yul\":5063:5106   */\n      tag_133\n        /* \"#utility.yul\":5082:5105   */\n      tag_134\n        /* \"#utility.yul\":5099:5104   */\n      dup3\n        /* \"#utility.yul\":5082:5105   */\n      tag_72\n      jump\t// in\n    tag_134:\n        /* \"#utility.yul\":5063:5106   */\n      tag_73\n      jump\t// in\n    tag_133:\n        /* \"#utility.yul\":5058:5061   */\n      dup3\n        /* \"#utility.yul\":5051:5107   */\n      mstore\n        /* \"#utility.yul\":4960:5113   */\n      pop\n      pop\n      jump\t// out\n        /* \"#utility.yul\":5119:5196   */\n    tag_75:\n        /* \"#utility.yul\":5156:5163   */\n      0x00\n        /* \"#utility.yul\":5185:5190   */\n      dup2\n        /* \"#utility.yul\":5174:5190   */\n      swap1\n      pop\n        /* \"#utility.yul\":5119:5196   */\n      swap2\n      swap1\n      pop\n      jump\t// out\n        /* \"#utility.yul\":5202:5281   */\n    tag_76:\n        /* \"#utility.yul\":5241:5248   */\n      0x00\n        /* \"#utility.yul\":5270:5275   */\n      dup2\n        /* \"#utility.yul\":5259:5275   */\n      swap1\n      pop\n        /* \"#utility.yul\":5202:5281   */\n      swap2\n      swap1\n      pop\n      jump\t// out\n        /* \"#utility.yul\":5287:5444   */\n    tag_77:\n        /* \"#utility.yul\":5392:5437   */\n      tag_138\n        /* \"#utility.yul\":5412:5436   */\n      tag_139\n        /* \"#utility.yul\":5430:5435   */\n      dup3\n        /* \"#utility.yul\":5412:5436   */\n      tag_75\n      jump\t// in\n    tag_139:\n        /* \"#utility.yul\":5392:5437   */\n      tag_76\n      jump\t// in\n    tag_138:\n        /* \"#utility.yul\":5387:5390   */\n      dup3\n        /* \"#utility.yul\":5380:5438   */\n      mstore\n        /* \"#utility.yul\":5287:5444   */\n      pop\n      pop\n      jump\t// out\n        /* \"#utility.yul\":5450:6124   */\n    tag_53:\n        /* \"#utility.yul\":5644:5647   */\n      0x00\n        /* \"#utility.yul\":5659:5732   */\n      tag_141\n        /* \"#utility.yul\":5728:5731   */\n      dup3\n        /* \"#utility.yul\":5719:5725   */\n      dup8\n        /* \"#utility.yul\":5659:5732   */\n      tag_74\n      jump\t// in\n    tag_141:\n        /* \"#utility.yul\":5757:5758   */\n      0x01\n        /* \"#utility.yul\":5752:5755   */\n      dup3\n        /* \"#utility.yul\":5748:5759   */\n      add\n        /* \"#utility.yul\":5741:5759   */\n      swap2\n      pop\n        /* \"#utility.yul\":5769:5844   */\n      tag_142\n        /* \"#utility.yul\":5840:5843   */\n      dup3\n        /* \"#utility.yul\":5831:5837   */\n      dup7\n        /* \"#utility.yul\":5769:5844   */\n      tag_71\n      jump\t// in\n    tag_142:\n        /* \"#utility.yul\":5869:5871   */\n      0x14\n        /* \"#utility.yul\":5864:5867   */\n      dup3\n        /* \"#utility.yul\":5860:5872   */\n      add\n        /* \"#utility.yul\":5853:5872   */\n      swap2\n      pop\n        /* \"#utility.yul\":5882:5957   */\n      tag_143\n        /* \"#utility.yul\":5953:5956   */\n      dup3\n        /* \"#utility.yul\":5944:5950   */\n      dup6\n        /* \"#utility.yul\":5882:5957   */\n      tag_77\n      jump\t// in\n    tag_143:\n        /* \"#utility.yul\":5982:5984   */\n      0x20\n        /* \"#utility.yul\":5977:5980   */\n      dup3\n        /* \"#utility.yul\":5973:5985   */\n      add\n        /* \"#utility.yul\":5966:5985   */\n      swap2\n      pop\n        /* \"#utility.yul\":5995:6070   */\n      tag_144\n        /* \"#utility.yul\":6066:6069   */\n      dup3\n        /* \"#utility.yul\":6057:6063   */\n      dup5\n        /* \"#utility.yul\":5995:6070   */\n      tag_77\n      jump\t// in\n    tag_144:\n        /* \"#utility.yul\":6095:6097   */\n      0x20\n        /* \"#utility.yul\":6090:6093   */\n      dup3\n        /* \"#utility.yul\":6086:6098   */\n      add\n        /* \"#utility.yul\":6079:6098   */\n      swap2\n      pop\n        /* \"#utility.yul\":6115:6118   */\n      dup2\n        /* \"#utility.yul\":6108:6118   */\n      swap1\n      pop\n        /* \"#utility.yul\":5450:6124   */\n      swap6\n      swap5\n      pop\n      pop\n      pop\n      pop\n      pop\n      jump\t// out\n    stop\n\n    sub_0: assembly {\n            /* \"Create2.sol\":30:337  contract Pair2 {... */\n          mstore(0x40, 0x80)\n            /* \"Create2.sol\":183:193  msg.sender */\n          caller\n            /* \"Create2.sol\":173:180  factory */\n          0x00\n          0x00\n            /* \"Create2.sol\":173:193  factory = msg.sender */\n          0x0100\n          exp\n          dup2\n          sload\n          dup2\n          0xffffffffffffffffffffffffffffffffffffffff\n          mul\n          not\n          and\n          swap1\n          dup4\n          0xffffffffffffffffffffffffffffffffffffffff\n          and\n          mul\n          or\n          swap1\n          sstore\n          pop\n            /* \"Create2.sol\":30:337  contract Pair2 {... */\n          dataSize(sub_0)\n          dup1\n          dataOffset(sub_0)\n          0x00\n          codecopy\n          0x00\n          return\n        stop\n\n        sub_0: assembly {\n                /* \"Create2.sol\":30:337  contract Pair2 {... */\n              mstore(0x40, 0x80)\n              callvalue\n              dup1\n              iszero\n              tag_1\n              jumpi\n              revert(0x00, 0x00)\n            tag_1:\n              pop\n              jumpi(tag_2, lt(calldatasize, 0x04))\n              shr(0xe0, calldataload(0x00))\n              dup1\n              0x0dfe1681\n              eq\n              tag_3\n              jumpi\n              dup1\n              0x485cc955\n              eq\n              tag_4\n              jumpi\n              dup1\n              0xc45a0155\n              eq\n              tag_5\n              jumpi\n              dup1\n              0xd21220a7\n              eq\n              tag_6\n              jumpi\n            tag_2:\n              revert(0x00, 0x00)\n                /* \"Create2.sol\":81:102  address public token0 */\n            tag_3:\n              tag_7\n              tag_8\n              jump\t// in\n            tag_7:\n              mload(0x40)\n              tag_9\n              swap2\n              swap1\n              tag_10\n              jump\t// in\n            tag_9:\n              mload(0x40)\n              dup1\n              swap2\n              sub\n              swap1\n              return\n                /* \"Create2.sol\":209:334  function initialize(address _token0, address _token1) external {... */\n            tag_4:\n              tag_11\n              0x04\n              dup1\n              calldatasize\n              sub\n              dup2\n              add\n              swap1\n              tag_12\n              swap2\n              swap1\n              tag_13\n              jump\t// in\n            tag_12:\n              tag_14\n              jump\t// in\n            tag_11:\n              stop\n                /* \"Create2.sol\":52:74  address public factory */\n            tag_5:\n              tag_15\n              tag_16\n              jump\t// in\n            tag_15:\n              mload(0x40)\n              tag_17\n              swap2\n              swap1\n              tag_10\n              jump\t// in\n            tag_17:\n              mload(0x40)\n              dup1\n              swap2\n              sub\n              swap1\n              return\n                /* \"Create2.sol\":109:130  address public token1 */\n            tag_6:\n              tag_18\n              tag_19\n              jump\t// in\n            tag_18:\n              mload(0x40)\n              tag_20\n              swap2\n              swap1\n              tag_10\n              jump\t// in\n            tag_20:\n              mload(0x40)\n              dup1\n              swap2\n              sub\n              swap1\n              return\n                /* \"Create2.sol\":81:102  address public token0 */\n            tag_8:\n              0x01\n              0x00\n              swap1\n              sload\n              swap1\n              0x0100\n              exp\n              swap1\n              div\n              0xffffffffffffffffffffffffffffffffffffffff\n              and\n              dup2\n              jump\t// out\n                /* \"Create2.sol\":209:334  function initialize(address _token0, address _token1) external {... */\n            tag_14:\n                /* \"Create2.sol\":292:299  _token0 */\n              dup2\n                /* \"Create2.sol\":283:289  token0 */\n              0x01\n              0x00\n                /* \"Create2.sol\":283:299  token0 = _token0 */\n              0x0100\n              exp\n              dup2\n              sload\n              dup2\n              0xffffffffffffffffffffffffffffffffffffffff\n              mul\n              not\n              and\n              swap1\n              dup4\n              0xffffffffffffffffffffffffffffffffffffffff\n              and\n              mul\n              or\n              swap1\n              sstore\n              pop\n                /* \"Create2.sol\":319:326  _token1 */\n              dup1\n                /* \"Create2.sol\":310:316  token1 */\n              0x02\n              0x00\n                /* \"Create2.sol\":310:326  token1 = _token1 */\n              0x0100\n              exp\n              dup2\n              sload\n              dup2\n              0xffffffffffffffffffffffffffffffffffffffff\n              mul\n              not\n              and\n              swap1\n              dup4\n              0xffffffffffffffffffffffffffffffffffffffff\n              and\n              mul\n              or\n              swap1\n              sstore\n              pop\n                /* \"Create2.sol\":209:334  function initialize(address _token0, address _token1) external {... */\n              pop\n              pop\n              jump\t// out\n                /* \"Create2.sol\":52:74  address public factory */\n            tag_16:\n              0x00\n              0x00\n              swap1\n              sload\n              swap1\n              0x0100\n              exp\n              swap1\n              div\n              0xffffffffffffffffffffffffffffffffffffffff\n              and\n              dup2\n              jump\t// out\n                /* \"Create2.sol\":109:130  address public token1 */\n            tag_19:\n              0x02\n              0x00\n              swap1\n              sload\n              swap1\n              0x0100\n              exp\n              swap1\n              div\n              0xffffffffffffffffffffffffffffffffffffffff\n              and\n              dup2\n              jump\t// out\n                /* \"#utility.yul\":7:133   */\n            tag_22:\n                /* \"#utility.yul\":44:51   */\n              0x00\n                /* \"#utility.yul\":84:126   */\n              0xffffffffffffffffffffffffffffffffffffffff\n                /* \"#utility.yul\":77:82   */\n              dup3\n                /* \"#utility.yul\":73:127   */\n              and\n                /* \"#utility.yul\":62:127   */\n              swap1\n              pop\n                /* \"#utility.yul\":7:133   */\n              swap2\n              swap1\n              pop\n              jump\t// out\n                /* \"#utility.yul\":139:235   */\n            tag_23:\n                /* \"#utility.yul\":176:183   */\n              0x00\n                /* \"#utility.yul\":205:229   */\n              tag_33\n                /* \"#utility.yul\":223:228   */\n              dup3\n                /* \"#utility.yul\":205:229   */\n              tag_22\n              jump\t// in\n            tag_33:\n                /* \"#utility.yul\":194:229   */\n              swap1\n              pop\n                /* \"#utility.yul\":139:235   */\n              swap2\n              swap1\n              pop\n              jump\t// out\n                /* \"#utility.yul\":241:359   */\n            tag_24:\n                /* \"#utility.yul\":328:352   */\n              tag_35\n                /* \"#utility.yul\":346:351   */\n              dup2\n                /* \"#utility.yul\":328:352   */\n              tag_23\n              jump\t// in\n            tag_35:\n                /* \"#utility.yul\":323:326   */\n              dup3\n                /* \"#utility.yul\":316:353   */\n              mstore\n                /* \"#utility.yul\":241:359   */\n              pop\n              pop\n              jump\t// out\n                /* \"#utility.yul\":365:587   */\n            tag_10:\n                /* \"#utility.yul\":458:462   */\n              0x00\n                /* \"#utility.yul\":496:498   */\n              0x20\n                /* \"#utility.yul\":485:494   */\n              dup3\n                /* \"#utility.yul\":481:499   */\n              add\n                /* \"#utility.yul\":473:499   */\n              swap1\n              pop\n                /* \"#utility.yul\":509:580   */\n              tag_37\n                /* \"#utility.yul\":577:578   */\n              0x00\n                /* \"#utility.yul\":566:575   */\n              dup4\n                /* \"#utility.yul\":562:579   */\n              add\n                /* \"#utility.yul\":553:559   */\n              dup5\n                /* \"#utility.yul\":509:580   */\n              tag_24\n              jump\t// in\n            tag_37:\n                /* \"#utility.yul\":365:587   */\n              swap3\n              swap2\n              pop\n              pop\n              jump\t// out\n                /* \"#utility.yul\":674:791   */\n            tag_26:\n                /* \"#utility.yul\":783:784   */\n              0x00\n                /* \"#utility.yul\":780:781   */\n              0x00\n                /* \"#utility.yul\":773:785   */\n              revert\n                /* \"#utility.yul\":920:1042   */\n            tag_28:\n                /* \"#utility.yul\":993:1017   */\n              tag_42\n                /* \"#utility.yul\":1011:1016   */\n              dup2\n                /* \"#utility.yul\":993:1017   */\n              tag_23\n              jump\t// in\n            tag_42:\n                /* \"#utility.yul\":986:991   */\n              dup2\n                /* \"#utility.yul\":983:1018   */\n              eq\n                /* \"#utility.yul\":973:1036   */\n              tag_43\n              jumpi\n                /* \"#utility.yul\":1032:1033   */\n              0x00\n                /* \"#utility.yul\":1029:1030   */\n              0x00\n                /* \"#utility.yul\":1022:1034   */\n              revert\n                /* \"#utility.yul\":973:1036   */\n            tag_43:\n                /* \"#utility.yul\":920:1042   */\n              pop\n              jump\t// out\n                /* \"#utility.yul\":1048:1187   */\n            tag_29:\n                /* \"#utility.yul\":1094:1099   */\n              0x00\n                /* \"#utility.yul\":1132:1138   */\n              dup2\n                /* \"#utility.yul\":1119:1139   */\n              calldataload\n                /* \"#utility.yul\":1110:1139   */\n              swap1\n              pop\n                /* \"#utility.yul\":1148:1181   */\n              tag_45\n                /* \"#utility.yul\":1175:1180   */\n              dup2\n                /* \"#utility.yul\":1148:1181   */\n              tag_28\n              jump\t// in\n            tag_45:\n                /* \"#utility.yul\":1048:1187   */\n              swap3\n              swap2\n              pop\n              pop\n              jump\t// out\n                /* \"#utility.yul\":1193:1667   */\n            tag_13:\n                /* \"#utility.yul\":1261:1267   */\n              0x00\n                /* \"#utility.yul\":1269:1275   */\n              0x00\n                /* \"#utility.yul\":1318:1320   */\n              0x40\n                /* \"#utility.yul\":1306:1315   */\n              dup4\n                /* \"#utility.yul\":1297:1304   */\n              dup6\n                /* \"#utility.yul\":1293:1316   */\n              sub\n                /* \"#utility.yul\":1289:1321   */\n              slt\n                /* \"#utility.yul\":1286:1405   */\n              iszero\n              tag_47\n              jumpi\n                /* \"#utility.yul\":1324:1403   */\n              tag_48\n              tag_26\n              jump\t// in\n            tag_48:\n                /* \"#utility.yul\":1286:1405   */\n            tag_47:\n                /* \"#utility.yul\":1444:1445   */\n              0x00\n                /* \"#utility.yul\":1469:1522   */\n              tag_49\n                /* \"#utility.yul\":1514:1521   */\n              dup6\n                /* \"#utility.yul\":1505:1511   */\n              dup3\n                /* \"#utility.yul\":1494:1503   */\n              dup7\n                /* \"#utility.yul\":1490:1512   */\n              add\n                /* \"#utility.yul\":1469:1522   */\n              tag_29\n              jump\t// in\n            tag_49:\n                /* \"#utility.yul\":1459:1522   */\n              swap3\n              pop\n                /* \"#utility.yul\":1415:1532   */\n              pop\n                /* \"#utility.yul\":1571:1573   */\n              0x20\n                /* \"#utility.yul\":1597:1650   */\n              tag_50\n                /* \"#utility.yul\":1642:1649   */\n              dup6\n                /* \"#utility.yul\":1633:1639   */\n              dup3\n                /* \"#utility.yul\":1622:1631   */\n              dup7\n                /* \"#utility.yul\":1618:1640   */\n              add\n                /* \"#utility.yul\":1597:1650   */\n              tag_29\n              jump\t// in\n            tag_50:\n                /* \"#utility.yul\":1587:1650   */\n              swap2\n              pop\n                /* \"#utility.yul\":1542:1660   */\n              pop\n                /* \"#utility.yul\":1193:1667   */\n              swap3\n              pop\n              swap3\n              swap1\n              pop\n              jump\t// out\n\n            auxdata: 0xa26469706673582212205e406f6c485a213d5877470d8fd95755e5fa2220356ae79c5bb813d6d832686864736f6c634300081e0033\n        }\n    }\n\n    auxdata: 0xa26469706673582212209b1173b39985803a81d3b7c3d8471a25795c688f9d2f73135d5573b758e085dc64736f6c634300081e0033\n}\n",
				"bytecode": {
					"linkReferences": {},
					"object": "6080604052348015600e575f5ffd5b50610c4b8061001c5f395ff3fe608060405234801561000f575f5ffd5b506004361061004a575f3560e01c80631e3dd18b1461004e578063938501871461007e578063df06b188146100ae578063e6a43905146100de575b5f5ffd5b6100686004803603810190610063919061065a565b61010e565b60405161007591906106c4565b60405180910390f35b61009860048036038101906100939190610707565b610149565b6040516100a591906106c4565b60405180910390f35b6100c860048036038101906100c39190610707565b610494565b6040516100d591906106c4565b60405180910390f35b6100f860048036038101906100f39190610707565b6105da565b60405161010591906106c4565b60405180910390f35b6001818154811061011d575f80fd5b905f5260205f20015f915054906101000a900473ffffffffffffffffffffffffffffffffffffffff1681565b5f8173ffffffffffffffffffffffffffffffffffffffff168373ffffffffffffffffffffffffffffffffffffffff16036101b8576040517f08c379a00000000000000000000000000000000000000000000000000000000081526004016101af9061079f565b60405180910390fd5b5f5f8373ffffffffffffffffffffffffffffffffffffffff168573ffffffffffffffffffffffffffffffffffffffff16106101f45783856101f7565b84845b915091505f828260405160200161020f929190610802565b6040516020818303038152906040528051906020012090505f8160405161023590610616565b8190604051809103905ff5905080158015610252573d5f5f3e3d5ffd5b5090508073ffffffffffffffffffffffffffffffffffffffff1663485cc95588886040518363ffffffff1660e01b815260040161029092919061082d565b5f604051808303815f87803b1580156102a7575f5ffd5b505af11580156102b9573d5f5f3e3d5ffd5b50505050809450600185908060018154018082558091505060019003905f5260205f20015f9091909190916101000a81548173ffffffffffffffffffffffffffffffffffffffff021916908373ffffffffffffffffffffffffffffffffffffffff160217905550845f5f8973ffffffffffffffffffffffffffffffffffffffff1673ffffffffffffffffffffffffffffffffffffffff1681526020019081526020015f205f8873ffffffffffffffffffffffffffffffffffffffff1673ffffffffffffffffffffffffffffffffffffffff1681526020019081526020015f205f6101000a81548173ffffffffffffffffffffffffffffffffffffffff021916908373ffffffffffffffffffffffffffffffffffffffff160217905550845f5f8873ffffffffffffffffffffffffffffffffffffffff1673ffffffffffffffffffffffffffffffffffffffff1681526020019081526020015f205f8973ffffffffffffffffffffffffffffffffffffffff1673ffffffffffffffffffffffffffffffffffffffff1681526020019081526020015f205f6101000a81548173ffffffffffffffffffffffffffffffffffffffff021916908373ffffffffffffffffffffffffffffffffffffffff1602179055505050505092915050565b5f8173ffffffffffffffffffffffffffffffffffffffff168373ffffffffffffffffffffffffffffffffffffffff1603610503576040517f08c379a00000000000000000000000000000000000000000000000000000000081526004016104fa9061079f565b60405180910390fd5b5f5f8373ffffffffffffffffffffffffffffffffffffffff168573ffffffffffffffffffffffffffffffffffffffff161061053f578385610542565b84845b915091505f828260405160200161055a929190610802565b60405160208183030381529060405280519060200120905060ff60f81b30826040518060200161058990610616565b6020820181038252601f19601f82011660405250805190602001206040516020016105b794939291906108c8565b604051602081830303815290604052805190602001205f1c935050505092915050565b5f602052815f5260405f20602052805f5260405f205f915091509054906101000a900473ffffffffffffffffffffffffffffffffffffffff1681565b6103008061091683390190565b5f5ffd5b5f819050919050565b61063981610627565b8114610643575f5ffd5b50565b5f8135905061065481610630565b92915050565b5f6020828403121561066f5761066e610623565b5b5f61067c84828501610646565b91505092915050565b5f73ffffffffffffffffffffffffffffffffffffffff82169050919050565b5f6106ae82610685565b9050919050565b6106be816106a4565b82525050565b5f6020820190506106d75f8301846106b5565b92915050565b6106e6816106a4565b81146106f0575f5ffd5b50565b5f81359050610701816106dd565b92915050565b5f5f6040838503121561071d5761071c610623565b5b5f61072a858286016106f3565b925050602061073b858286016106f3565b9150509250929050565b5f82825260208201905092915050565b7f4944454e544943414c5f414444524553534553000000000000000000000000005f82015250565b5f610789601383610745565b915061079482610755565b602082019050919050565b5f6020820190508181035f8301526107b68161077d565b9050919050565b5f8160601b9050919050565b5f6107d3826107bd565b9050919050565b5f6107e4826107c9565b9050919050565b6107fc6107f7826106a4565b6107da565b82525050565b5f61080d82856107eb565b60148201915061081d82846107eb565b6014820191508190509392505050565b5f6040820190506108405f8301856106b5565b61084d60208301846106b5565b9392505050565b5f7fff0000000000000000000000000000000000000000000000000000000000000082169050919050565b5f819050919050565b61089961089482610854565b61087f565b82525050565b5f819050919050565b5f819050919050565b6108c26108bd8261089f565b6108a8565b82525050565b5f6108d38287610888565b6001820191506108e382866107eb565b6014820191506108f382856108b1565b60208201915061090382846108b1565b6020820191508190509594505050505056fe6080604052335f5f6101000a81548173ffffffffffffffffffffffffffffffffffffffff021916908373ffffffffffffffffffffffffffffffffffffffff1602179055506102b0806100505f395ff3fe608060405234801561000f575f5ffd5b506004361061004a575f3560e01c80630dfe16811461004e578063485cc9551461006c578063c45a015514610088578063d21220a7146100a6575b5f5ffd5b6100566100c4565b60405161006391906101f5565b60405180910390f35b6100866004803603810190610081919061023c565b6100e9565b005b61009061016d565b60405161009d91906101f5565b60405180910390f35b6100ae610191565b6040516100bb91906101f5565b60405180910390f35b60015f9054906101000a900473ffffffffffffffffffffffffffffffffffffffff1681565b8160015f6101000a81548173ffffffffffffffffffffffffffffffffffffffff021916908373ffffffffffffffffffffffffffffffffffffffff1602179055508060025f6101000a81548173ffffffffffffffffffffffffffffffffffffffff021916908373ffffffffffffffffffffffffffffffffffffffff1602179055505050565b5f5f9054906101000a900473ffffffffffffffffffffffffffffffffffffffff1681565b60025f9054906101000a900473ffffffffffffffffffffffffffffffffffffffff1681565b5f73ffffffffffffffffffffffffffffffffffffffff82169050919050565b5f6101df826101b6565b9050919050565b6101ef816101d5565b82525050565b5f6020820190506102085f8301846101e6565b92915050565b5f5ffd5b61021b816101d5565b8114610225575f5ffd5b50565b5f8135905061023681610212565b92915050565b5f5f604083850312156102525761025161020e565b5b5f61025f85828601610228565b925050602061027085828601610228565b915050925092905056fea26469706673582212205e406f6c485a213d5877470d8fd95755e5fa2220356ae79c5bb813d6d832686864736f6c634300081e0033a26469706673582212209b1173b39985803a81d3b7c3d8471a25795c688f9d2f73135d5573b758e085dc64736f6c634300081e0033",
					"opcodes": "PUSH1 0x80 PUSH1 0x40 MSTORE CALLVALUE DUP1 ISZERO PUSH1 0xE JUMPI PUSH0 PUSH0 REVERT JUMPDEST POP PUSH2 0xC4B DUP1 PUSH2 0x1C PUSH0 CODECOPY PUSH0 RETURN INVALID PUSH1 0x80 PUSH1 0x40 MSTORE CALLVALUE DUP1 ISZERO PUSH2 0xF JUMPI PUSH0 PUSH0 REVERT JUMPDEST POP PUSH1 0x4 CALLDATASIZE LT PUSH2 0x4A JUMPI PUSH0 CALLDATALOAD PUSH1 0xE0 SHR DUP1 PUSH4 0x1E3DD18B EQ PUSH2 0x4E JUMPI DUP1 PUSH4 0x93850187 EQ PUSH2 0x7E JUMPI DUP1 PUSH4 0xDF06B188 EQ PUSH2 0xAE JUMPI DUP1 PUSH4 0xE6A43905 EQ PUSH2 0xDE JUMPI JUMPDEST PUSH0 PUSH0 REVERT JUMPDEST PUSH2 0x68 PUSH1 0x4 DUP1 CALLDATASIZE SUB DUP2 ADD SWAP1 PUSH2 0x63 SWAP2 SWAP1 PUSH2 0x65A JUMP JUMPDEST PUSH2 0x10E JUMP JUMPDEST PUSH1 0x40 MLOAD PUSH2 0x75 SWAP2 SWAP1 PUSH2 0x6C4 JUMP JUMPDEST PUSH1 0x40 MLOAD DUP1 SWAP2 SUB SWAP1 RETURN JUMPDEST PUSH2 0x98 PUSH1 0x4 DUP1 CALLDATASIZE SUB DUP2 ADD SWAP1 PUSH2 0x93 SWAP2 SWAP1 PUSH2 0x707 JUMP JUMPDEST PUSH2 0x149 JUMP JUMPDEST PUSH1 0x40 MLOAD PUSH2 0xA5 SWAP2 SWAP1 PUSH2 0x6C4 JUMP JUMPDEST PUSH1 0x40 MLOAD DUP1 SWAP2 SUB SWAP1 RETURN JUMPDEST PUSH2 0xC8 PUSH1 0x4 DUP1 CALLDATASIZE SUB DUP2 ADD SWAP1 PUSH2 0xC3 SWAP2 SWAP1 PUSH2 0x707 JUMP JUMPDEST PUSH2 0x494 JUMP JUMPDEST PUSH1 0x40 MLOAD PUSH2 0xD5 SWAP2 SWAP1 PUSH2 0x6C4 JUMP JUMPDEST PUSH1 0x40 MLOAD DUP1 SWAP2 SUB SWAP1 RETURN JUMPDEST PUSH2 0xF8 PUSH1 0x4 DUP1 CALLDATASIZE SUB DUP2 ADD SWAP1 PUSH2 0xF3 SWAP2 SWAP1 PUSH2 0x707 JUMP JUMPDEST PUSH2 0x5DA JUMP JUMPDEST PUSH1 0x40 MLOAD PUSH2 0x105 SWAP2 SWAP1 PUSH2 0x6C4 JUMP JUMPDEST PUSH1 0x40 MLOAD DUP1 SWAP2 SUB SWAP1 RETURN JUMPDEST PUSH1 0x1 DUP2 DUP2 SLOAD DUP2 LT PUSH2 0x11D JUMPI PUSH0 DUP1 REVERT JUMPDEST SWAP1 PUSH0 MSTORE PUSH1 0x20 PUSH0 KECCAK256 ADD PUSH0 SWAP2 POP SLOAD SWAP1 PUSH2 0x100 EXP SWAP1 DIV PUSH20 0xFFFFFFFFFFFFFFFFFFFFFFFFFFFFFFFFFFFFFFFF AND DUP2 JUMP JUMPDEST PUSH0 DUP2 PUSH20 0xFFFFFFFFFFFFFFFFFFFFFFFFFFFFFFFFFFFFFFFF AND DUP4 PUSH20 0xFFFFFFFFFFFFFFFFFFFFFFFFFFFFFFFFFFFFFFFF AND SUB PUSH2 0x1B8 JUMPI PUSH1 0x40 MLOAD PUSH32 0x8C379A000000000000000000000000000000000000000000000000000000000 DUP2 MSTORE PUSH1 0x4 ADD PUSH2 0x1AF SWAP1 PUSH2 0x79F JUMP JUMPDEST PUSH1 0x40 MLOAD DUP1 SWAP2 SUB SWAP1 REVERT JUMPDEST PUSH0 PUSH0 DUP4 PUSH20 0xFFFFFFFFFFFFFFFFFFFFFFFFFFFFFFFFFFFFFFFF AND DUP6 PUSH20 0xFFFFFFFFFFFFFFFFFFFFFFFFFFFFFFFFFFFFFFFF AND LT PUSH2 0x1F4 JUMPI DUP4 DUP6 PUSH2 0x1F7 JUMP JUMPDEST DUP5 DUP5 JUMPDEST SWAP2 POP SWAP2 POP PUSH0 DUP3 DUP3 PUSH1 0x40 MLOAD PUSH1 0x20 ADD PUSH2 0x20F SWAP3 SWAP2 SWAP1 PUSH2 0x802 JUMP JUMPDEST PUSH1 0x40 MLOAD PUSH1 0x20 DUP2 DUP4 SUB SUB DUP2 MSTORE SWAP1 PUSH1 0x40 MSTORE DUP1 MLOAD SWAP1 PUSH1 0x20 ADD KECCAK256 SWAP1 POP PUSH0 DUP2 PUSH1 0x40 MLOAD PUSH2 0x235 SWAP1 PUSH2 0x616 JUMP JUMPDEST DUP2 SWAP1 PUSH1 0x40 MLOAD DUP1 SWAP2 SUB SWAP1 PUSH0 CREATE2 SWAP1 POP DUP1 ISZERO DUP1 ISZERO PUSH2 0x252 JUMPI RETURNDATASIZE PUSH0 PUSH0 RETURNDATACOPY RETURNDATASIZE PUSH0 REVERT JUMPDEST POP SWAP1 POP DUP1 PUSH20 0xFFFFFFFFFFFFFFFFFFFFFFFFFFFFFFFFFFFFFFFF AND PUSH4 0x485CC955 DUP9 DUP9 PUSH1 0x40 MLOAD DUP4 PUSH4 0xFFFFFFFF AND PUSH1 0xE0 SHL DUP2 MSTORE PUSH1 0x4 ADD PUSH2 0x290 SWAP3 SWAP2 SWAP1 PUSH2 0x82D JUMP JUMPDEST PUSH0 PUSH1 0x40 MLOAD DUP1 DUP4 SUB DUP2 PUSH0 DUP8 DUP1 EXTCODESIZE ISZERO DUP1 ISZERO PUSH2 0x2A7 JUMPI PUSH0 PUSH0 REVERT JUMPDEST POP GAS CALL ISZERO DUP1 ISZERO PUSH2 0x2B9 JUMPI RETURNDATASIZE PUSH0 PUSH0 RETURNDATACOPY RETURNDATASIZE PUSH0 REVERT JUMPDEST POP POP POP POP DUP1 SWAP5 POP PUSH1 0x1 DUP6 SWAP1 DUP1 PUSH1 0x1 DUP2 SLOAD ADD DUP1 DUP3 SSTORE DUP1 SWAP2 POP POP PUSH1 0x1 SWAP1 SUB SWAP1 PUSH0 MSTORE PUSH1 0x20 PUSH0 KECCAK256 ADD PUSH0 SWAP1 SWAP2 SWAP1 SWAP2 SWAP1 SWAP2 PUSH2 0x100 EXP DUP2 SLOAD DUP2 PUSH20 0xFFFFFFFFFFFFFFFFFFFFFFFFFFFFFFFFFFFFFFFF MUL NOT AND SWAP1 DUP4 PUSH20 0xFFFFFFFFFFFFFFFFFFFFFFFFFFFFFFFFFFFFFFFF AND MUL OR SWAP1 SSTORE POP DUP5 PUSH0 PUSH0 DUP10 PUSH20 0xFFFFFFFFFFFFFFFFFFFFFFFFFFFFFFFFFFFFFFFF AND PUSH20 0xFFFFFFFFFFFFFFFFFFFFFFFFFFFFFFFFFFFFFFFF AND DUP2 MSTORE PUSH1 0x20 ADD SWAP1 DUP2 MSTORE PUSH1 0x20 ADD PUSH0 KECCAK256 PUSH0 DUP9 PUSH20 0xFFFFFFFFFFFFFFFFFFFFFFFFFFFFFFFFFFFFFFFF AND PUSH20 0xFFFFFFFFFFFFFFFFFFFFFFFFFFFFFFFFFFFFFFFF AND DUP2 MSTORE PUSH1 0x20 ADD SWAP1 DUP2 MSTORE PUSH1 0x20 ADD PUSH0 KECCAK256 PUSH0 PUSH2 0x100 EXP DUP2 SLOAD DUP2 PUSH20 0xFFFFFFFFFFFFFFFFFFFFFFFFFFFFFFFFFFFFFFFF MUL NOT AND SWAP1 DUP4 PUSH20 0xFFFFFFFFFFFFFFFFFFFFFFFFFFFFFFFFFFFFFFFF AND MUL OR SWAP1 SSTORE POP DUP5 PUSH0 PUSH0 DUP9 PUSH20 0xFFFFFFFFFFFFFFFFFFFFFFFFFFFFFFFFFFFFFFFF AND PUSH20 0xFFFFFFFFFFFFFFFFFFFFFFFFFFFFFFFFFFFFFFFF AND DUP2 MSTORE PUSH1 0x20 ADD SWAP1 DUP2 MSTORE PUSH1 0x20 ADD PUSH0 KECCAK256 PUSH0 DUP10 PUSH20 0xFFFFFFFFFFFFFFFFFFFFFFFFFFFFFFFFFFFFFFFF AND PUSH20 0xFFFFFFFFFFFFFFFFFFFFFFFFFFFFFFFFFFFFFFFF AND DUP2 MSTORE PUSH1 0x20 ADD SWAP1 DUP2 MSTORE PUSH1 0x20 ADD PUSH0 KECCAK256 PUSH0 PUSH2 0x100 EXP DUP2 SLOAD DUP2 PUSH20 0xFFFFFFFFFFFFFFFFFFFFFFFFFFFFFFFFFFFFFFFF MUL NOT AND SWAP1 DUP4 PUSH20 0xFFFFFFFFFFFFFFFFFFFFFFFFFFFFFFFFFFFFFFFF AND MUL OR SWAP1 SSTORE POP POP POP POP POP SWAP3 SWAP2 POP POP JUMP JUMPDEST PUSH0 DUP2 PUSH20 0xFFFFFFFFFFFFFFFFFFFFFFFFFFFFFFFFFFFFFFFF AND DUP4 PUSH20 0xFFFFFFFFFFFFFFFFFFFFFFFFFFFFFFFFFFFFFFFF AND SUB PUSH2 0x503 JUMPI PUSH1 0x40 MLOAD PUSH32 0x8C379A000000000000000000000000000000000000000000000000000000000 DUP2 MSTORE PUSH1 0x4 ADD PUSH2 0x4FA SWAP1 PUSH2 0x79F JUMP JUMPDEST PUSH1 0x40 MLOAD DUP1 SWAP2 SUB SWAP1 REVERT JUMPDEST PUSH0 PUSH0 DUP4 PUSH20 0xFFFFFFFFFFFFFFFFFFFFFFFFFFFFFFFFFFFFFFFF AND DUP6 PUSH20 0xFFFFFFFFFFFFFFFFFFFFFFFFFFFFFFFFFFFFFFFF AND LT PUSH2 0x53F JUMPI DUP4 DUP6 PUSH2 0x542 JUMP JUMPDEST DUP5 DUP5 JUMPDEST SWAP2 POP SWAP2 POP PUSH0 DUP3 DUP3 PUSH1 0x40 MLOAD PUSH1 0x20 ADD PUSH2 0x55A SWAP3 SWAP2 SWAP1 PUSH2 0x802 JUMP JUMPDEST PUSH1 0x40 MLOAD PUSH1 0x20 DUP2 DUP4 SUB SUB DUP2 MSTORE SWAP1 PUSH1 0x40 MSTORE DUP1 MLOAD SWAP1 PUSH1 0x20 ADD KECCAK256 SWAP1 POP PUSH1 0xFF PUSH1 0xF8 SHL ADDRESS DUP3 PUSH1 0x40 MLOAD DUP1 PUSH1 0x20 ADD PUSH2 0x589 SWAP1 PUSH2 0x616 JUMP JUMPDEST PUSH1 0x20 DUP3 ADD DUP2 SUB DUP3 MSTORE PUSH1 0x1F NOT PUSH1 0x1F DUP3 ADD AND PUSH1 0x40 MSTORE POP DUP1 MLOAD SWAP1 PUSH1 0x20 ADD KECCAK256 PUSH1 0x40 MLOAD PUSH1 0x20 ADD PUSH2 0x5B7 SWAP5 SWAP4 SWAP3 SWAP2 SWAP1 PUSH2 0x8C8 JUMP JUMPDEST PUSH1 0x40 MLOAD PUSH1 0x20 DUP2 DUP4 SUB SUB DUP2 MSTORE SWAP1 PUSH1 0x40 MSTORE DUP1 MLOAD SWAP1 PUSH1 0x20 ADD KECCAK256 PUSH0 SHR SWAP4 POP POP POP POP SWAP3 SWAP2 POP POP JUMP JUMPDEST PUSH0 PUSH1 0x20 MSTORE DUP2 PUSH0 MSTORE PUSH1 0x40 PUSH0 KECCAK256 PUSH1 0x20 MSTORE DUP1 PUSH0 MSTORE PUSH1 0x40 PUSH0 KECCAK256 PUSH0 SWAP2 POP SWAP2 POP SWAP1 SLOAD SWAP1 PUSH2 0x100 EXP SWAP1 DIV PUSH20 0xFFFFFFFFFFFFFFFFFFFFFFFFFFFFFFFFFFFFFFFF AND DUP2 JUMP JUMPDEST PUSH2 0x300 DUP1 PUSH2 0x916 DUP4 CODECOPY ADD SWAP1 JUMP JUMPDEST PUSH0 PUSH0 REVERT JUMPDEST PUSH0 DUP2 SWAP1 POP SWAP2 SWAP1 POP JUMP JUMPDEST PUSH2 0x639 DUP2 PUSH2 0x627 JUMP JUMPDEST DUP2 EQ PUSH2 0x643 JUMPI PUSH0 PUSH0 REVERT JUMPDEST POP JUMP JUMPDEST PUSH0 DUP2 CALLDATALOAD SWAP1 POP PUSH2 0x654 DUP2 PUSH2 0x630 JUMP JUMPDEST SWAP3 SWAP2 POP POP JUMP JUMPDEST PUSH0 PUSH1 0x20 DUP3 DUP5 SUB SLT ISZERO PUSH2 0x66F JUMPI PUSH2 0x66E PUSH2 0x623 JUMP JUMPDEST JUMPDEST PUSH0 PUSH2 0x67C DUP5 DUP3 DUP6 ADD PUSH2 0x646 JUMP JUMPDEST SWAP2 POP POP SWAP3 SWAP2 POP POP JUMP JUMPDEST PUSH0 PUSH20 0xFFFFFFFFFFFFFFFFFFFFFFFFFFFFFFFFFFFFFFFF DUP3 AND SWAP1 POP SWAP2 SWAP1 POP JUMP JUMPDEST PUSH0 PUSH2 0x6AE DUP3 PUSH2 0x685 JUMP JUMPDEST SWAP1 POP SWAP2 SWAP1 POP JUMP JUMPDEST PUSH2 0x6BE DUP2 PUSH2 0x6A4 JUMP JUMPDEST DUP3 MSTORE POP POP JUMP JUMPDEST PUSH0 PUSH1 0x20 DUP3 ADD SWAP1 POP PUSH2 0x6D7 PUSH0 DUP4 ADD DUP5 PUSH2 0x6B5 JUMP JUMPDEST SWAP3 SWAP2 POP POP JUMP JUMPDEST PUSH2 0x6E6 DUP2 PUSH2 0x6A4 JUMP JUMPDEST DUP2 EQ PUSH2 0x6F0 JUMPI PUSH0 PUSH0 REVERT JUMPDEST POP JUMP JUMPDEST PUSH0 DUP2 CALLDATALOAD SWAP1 POP PUSH2 0x701 DUP2 PUSH2 0x6DD JUMP JUMPDEST SWAP3 SWAP2 POP POP JUMP JUMPDEST PUSH0 PUSH0 PUSH1 0x40 DUP4 DUP6 SUB SLT ISZERO PUSH2 0x71D JUMPI PUSH2 0x71C PUSH2 0x623 JUMP JUMPDEST JUMPDEST PUSH0 PUSH2 0x72A DUP6 DUP3 DUP7 ADD PUSH2 0x6F3 JUMP JUMPDEST SWAP3 POP POP PUSH1 0x20 PUSH2 0x73B DUP6 DUP3 DUP7 ADD PUSH2 0x6F3 JUMP JUMPDEST SWAP2 POP POP SWAP3 POP SWAP3 SWAP1 POP JUMP JUMPDEST PUSH0 DUP3 DUP3 MSTORE PUSH1 0x20 DUP3 ADD SWAP1 POP SWAP3 SWAP2 POP POP JUMP JUMPDEST PUSH32 0x4944454E544943414C5F41444452455353455300000000000000000000000000 PUSH0 DUP3 ADD MSTORE POP JUMP JUMPDEST PUSH0 PUSH2 0x789 PUSH1 0x13 DUP4 PUSH2 0x745 JUMP JUMPDEST SWAP2 POP PUSH2 0x794 DUP3 PUSH2 0x755 JUMP JUMPDEST PUSH1 0x20 DUP3 ADD SWAP1 POP SWAP2 SWAP1 POP JUMP JUMPDEST PUSH0 PUSH1 0x20 DUP3 ADD SWAP1 POP DUP2 DUP2 SUB PUSH0 DUP4 ADD MSTORE PUSH2 0x7B6 DUP2 PUSH2 0x77D JUMP JUMPDEST SWAP1 POP SWAP2 SWAP1 POP JUMP JUMPDEST PUSH0 DUP2 PUSH1 0x60 SHL SWAP1 POP SWAP2 SWAP1 POP JUMP JUMPDEST PUSH0 PUSH2 0x7D3 DUP3 PUSH2 0x7BD JUMP JUMPDEST SWAP1 POP SWAP2 SWAP1 POP JUMP JUMPDEST PUSH0 PUSH2 0x7E4 DUP3 PUSH2 0x7C9 JUMP JUMPDEST SWAP1 POP SWAP2 SWAP1 POP JUMP JUMPDEST PUSH2 0x7FC PUSH2 0x7F7 DUP3 PUSH2 0x6A4 JUMP JUMPDEST PUSH2 0x7DA JUMP JUMPDEST DUP3 MSTORE POP POP JUMP JUMPDEST PUSH0 PUSH2 0x80D DUP3 DUP6 PUSH2 0x7EB JUMP JUMPDEST PUSH1 0x14 DUP3 ADD SWAP2 POP PUSH2 0x81D DUP3 DUP5 PUSH2 0x7EB JUMP JUMPDEST PUSH1 0x14 DUP3 ADD SWAP2 POP DUP2 SWAP1 POP SWAP4 SWAP3 POP POP POP JUMP JUMPDEST PUSH0 PUSH1 0x40 DUP3 ADD SWAP1 POP PUSH2 0x840 PUSH0 DUP4 ADD DUP6 PUSH2 0x6B5 JUMP JUMPDEST PUSH2 0x84D PUSH1 0x20 DUP4 ADD DUP5 PUSH2 0x6B5 JUMP JUMPDEST SWAP4 SWAP3 POP POP POP JUMP JUMPDEST PUSH0 PUSH32 0xFF00000000000000000000000000000000000000000000000000000000000000 DUP3 AND SWAP1 POP SWAP2 SWAP1 POP JUMP JUMPDEST PUSH0 DUP2 SWAP1 POP SWAP2 SWAP1 POP JUMP JUMPDEST PUSH2 0x899 PUSH2 0x894 DUP3 PUSH2 0x854 JUMP JUMPDEST PUSH2 0x87F JUMP JUMPDEST DUP3 MSTORE POP POP JUMP JUMPDEST PUSH0 DUP2 SWAP1 POP SWAP2 SWAP1 POP JUMP JUMPDEST PUSH0 DUP2 SWAP1 POP SWAP2 SWAP1 POP JUMP JUMPDEST PUSH2 0x8C2 PUSH2 0x8BD DUP3 PUSH2 0x89F JUMP JUMPDEST PUSH2 0x8A8 JUMP JUMPDEST DUP3 MSTORE POP POP JUMP JUMPDEST PUSH0 PUSH2 0x8D3 DUP3 DUP8 PUSH2 0x888 JUMP JUMPDEST PUSH1 0x1 DUP3 ADD SWAP2 POP PUSH2 0x8E3 DUP3 DUP7 PUSH2 0x7EB JUMP JUMPDEST PUSH1 0x14 DUP3 ADD SWAP2 POP PUSH2 0x8F3 DUP3 DUP6 PUSH2 0x8B1 JUMP JUMPDEST PUSH1 0x20 DUP3 ADD SWAP2 POP PUSH2 0x903 DUP3 DUP5 PUSH2 0x8B1 JUMP JUMPDEST PUSH1 0x20 DUP3 ADD SWAP2 POP DUP2 SWAP1 POP SWAP6 SWAP5 POP POP POP POP POP JUMP INVALID PUSH1 0x80 PUSH1 0x40 MSTORE CALLER PUSH0 PUSH0 PUSH2 0x100 EXP DUP2 SLOAD DUP2 PUSH20 0xFFFFFFFFFFFFFFFFFFFFFFFFFFFFFFFFFFFFFFFF MUL NOT AND SWAP1 DUP4 PUSH20 0xFFFFFFFFFFFFFFFFFFFFFFFFFFFFFFFFFFFFFFFF AND MUL OR SWAP1 SSTORE POP PUSH2 0x2B0 DUP1 PUSH2 0x50 PUSH0 CODECOPY PUSH0 RETURN INVALID PUSH1 0x80 PUSH1 0x40 MSTORE CALLVALUE DUP1 ISZERO PUSH2 0xF JUMPI PUSH0 PUSH0 REVERT JUMPDEST POP PUSH1 0x4 CALLDATASIZE LT PUSH2 0x4A JUMPI PUSH0 CALLDATALOAD PUSH1 0xE0 SHR DUP1 PUSH4 0xDFE1681 EQ PUSH2 0x4E JUMPI DUP1 PUSH4 0x485CC955 EQ PUSH2 0x6C JUMPI DUP1 PUSH4 0xC45A0155 EQ PUSH2 0x88 JUMPI DUP1 PUSH4 0xD21220A7 EQ PUSH2 0xA6 JUMPI JUMPDEST PUSH0 PUSH0 REVERT JUMPDEST PUSH2 0x56 PUSH2 0xC4 JUMP JUMPDEST PUSH1 0x40 MLOAD PUSH2 0x63 SWAP2 SWAP1 PUSH2 0x1F5 JUMP JUMPDEST PUSH1 0x40 MLOAD DUP1 SWAP2 SUB SWAP1 RETURN JUMPDEST PUSH2 0x86 PUSH1 0x4 DUP1 CALLDATASIZE SUB DUP2 ADD SWAP1 PUSH2 0x81 SWAP2 SWAP1 PUSH2 0x23C JUMP JUMPDEST PUSH2 0xE9 JUMP JUMPDEST STOP JUMPDEST PUSH2 0x90 PUSH2 0x16D JUMP JUMPDEST PUSH1 0x40 MLOAD PUSH2 0x9D SWAP2 SWAP1 PUSH2 0x1F5 JUMP JUMPDEST PUSH1 0x40 MLOAD DUP1 SWAP2 SUB SWAP1 RETURN JUMPDEST PUSH2 0xAE PUSH2 0x191 JUMP JUMPDEST PUSH1 0x40 MLOAD PUSH2 0xBB SWAP2 SWAP1 PUSH2 0x1F5 JUMP JUMPDEST PUSH1 0x40 MLOAD DUP1 SWAP2 SUB SWAP1 RETURN JUMPDEST PUSH1 0x1 PUSH0 SWAP1 SLOAD SWAP1 PUSH2 0x100 EXP SWAP1 DIV PUSH20 0xFFFFFFFFFFFFFFFFFFFFFFFFFFFFFFFFFFFFFFFF AND DUP2 JUMP JUMPDEST DUP2 PUSH1 0x1 PUSH0 PUSH2 0x100 EXP DUP2 SLOAD DUP2 PUSH20 0xFFFFFFFFFFFFFFFFFFFFFFFFFFFFFFFFFFFFFFFF MUL NOT AND SWAP1 DUP4 PUSH20 0xFFFFFFFFFFFFFFFFFFFFFFFFFFFFFFFFFFFFFFFF AND MUL OR SWAP1 SSTORE POP DUP1 PUSH1 0x2 PUSH0 PUSH2 0x100 EXP DUP2 SLOAD DUP2 PUSH20 0xFFFFFFFFFFFFFFFFFFFFFFFFFFFFFFFFFFFFFFFF MUL NOT AND SWAP1 DUP4 PUSH20 0xFFFFFFFFFFFFFFFFFFFFFFFFFFFFFFFFFFFFFFFF AND MUL OR SWAP1 SSTORE POP POP POP JUMP JUMPDEST PUSH0 PUSH0 SWAP1 SLOAD SWAP1 PUSH2 0x100 EXP SWAP1 DIV PUSH20 0xFFFFFFFFFFFFFFFFFFFFFFFFFFFFFFFFFFFFFFFF AND DUP2 JUMP JUMPDEST PUSH1 0x2 PUSH0 SWAP1 SLOAD SWAP1 PUSH2 0x100 EXP SWAP1 DIV PUSH20 0xFFFFFFFFFFFFFFFFFFFFFFFFFFFFFFFFFFFFFFFF AND DUP2 JUMP JUMPDEST PUSH0 PUSH20 0xFFFFFFFFFFFFFFFFFFFFFFFFFFFFFFFFFFFFFFFF DUP3 AND SWAP1 POP SWAP2 SWAP1 POP JUMP JUMPDEST PUSH0 PUSH2 0x1DF DUP3 PUSH2 0x1B6 JUMP JUMPDEST SWAP1 POP SWAP2 SWAP1 POP JUMP JUMPDEST PUSH2 0x1EF DUP2 PUSH2 0x1D5 JUMP JUMPDEST DUP3 MSTORE POP POP JUMP JUMPDEST PUSH0 PUSH1 0x20 DUP3 ADD SWAP1 POP PUSH2 0x208 PUSH0 DUP4 ADD DUP5 PUSH2 0x1E6 JUMP JUMPDEST SWAP3 SWAP2 POP POP JUMP JUMPDEST PUSH0 PUSH0 REVERT JUMPDEST PUSH2 0x21B DUP2 PUSH2 0x1D5 JUMP JUMPDEST DUP2 EQ PUSH2 0x225 JUMPI PUSH0 PUSH0 REVERT JUMPDEST POP JUMP JUMPDEST PUSH0 DUP2 CALLDATALOAD SWAP1 POP PUSH2 0x236 DUP2 PUSH2 0x212 JUMP JUMPDEST SWAP3 SWAP2 POP POP JUMP JUMPDEST PUSH0 PUSH0 PUSH1 0x40 DUP4 DUP6 SUB SLT ISZERO PUSH2 0x252 JUMPI PUSH2 0x251 PUSH2 0x20E JUMP JUMPDEST JUMPDEST PUSH0 PUSH2 0x25F DUP6 DUP3 DUP7 ADD PUSH2 0x228 JUMP JUMPDEST SWAP3 POP POP PUSH1 0x20 PUSH2 0x270 DUP6 DUP3 DUP7 ADD PUSH2 0x228 JUMP JUMPDEST SWAP2 POP POP SWAP3 POP SWAP3 SWAP1 POP JUMP INVALID LOG2 PUSH5 0x6970667358 0x22 SLT KECCAK256 MCOPY BLOCKHASH PUSH16 0x6C485A213D5877470D8FD95755E5FA22 KECCAK256 CALLDATALOAD PUSH11 0xE79C5BB813D6D832686864 PUSH20 0x6F6C634300081E0033A26469706673582212209B GT PUSH20 0xB39985803A81D3B7C3D8471A25795C688F9D2F73 SGT TSTORE SSTORE PUSH20 0xB758E085DC64736F6C634300081E003300000000 "
				},
				"gasEstimates": {
					"creation": {
						"codeDepositCost": "629400",
						"executionCost": "662",
						"totalCost": "630062"
					},
					"external": {
						"allPairs(uint256)": "4922",
						"calculateAddr(address,address)": "infinite",
						"createPair2(address,address)": "infinite",
						"getPair(address,address)": "infinite"
					}
				},
				"methodIdentifiers": {
					"allPairs(uint256)": "1e3dd18b",
					"calculateAddr(address,address)": "df06b188",
					"createPair2(address,address)": "93850187",
					"getPair(address,address)": "e6a43905"
				}
			},
			"storageLayout": {
				"storage": [
					{
						"astId": 39,
						"contract": "Create2.sol:PaieFactory2",
						"label": "getPair",
						"offset": 0,
						"slot": "0",
						"type": "t_mapping(t_address,t_mapping(t_address,t_address))"
					},
					{
						"astId": 42,
						"contract": "Create2.sol:PaieFactory2",
						"label": "allPairs",
						"offset": 0,
						"slot": "1",
						"type": "t_array(t_address)dyn_storage"
					}
				],
				"types": {
					"t_address": {
						"encoding": "inplace",
						"label": "address",
						"numberOfBytes": "20"
					},
					"t_array(t_address)dyn_storage": {
						"base": "t_address",
						"encoding": "dynamic_array",
						"label": "address[]",
						"numberOfBytes": "32"
					},
					"t_mapping(t_address,t_address)": {
						"encoding": "mapping",
						"key": "t_address",
						"label": "mapping(address => address)",
						"numberOfBytes": "32",
						"value": "t_address"
					},
					"t_mapping(t_address,t_mapping(t_address,t_address))": {
						"encoding": "mapping",
						"key": "t_address",
						"label": "mapping(address => mapping(address => address))",
						"numberOfBytes": "32",
						"value": "t_mapping(t_address,t_address)"
					}
				}
			},
			"userdoc": {
				"kind": "user",
				"methods": {
					"createPair2(address,address)": {
						"notice": "WBNB地址: 0x2c44b726ADF1963cA47Af88B284C06f30380fC78 BSC链上的PEOPLE地址: 0xbb4CdB9CBd36B01bD1cBaEBF2De08d9173bc095c"
					}
				},
				"version": 1
			}
		}
	}
}