{
	"43_TokenVesting/TokenVesting.sol": {
		"TokenVesting": {
			"abi": [
				{
					"inputs": [
						{
							"internalType": "address",
							"name": "beneficiaryAddress",
							"type": "address"
						},
						{
							"internalType": "uint256",
							"name": "durationSeconds",
							"type": "uint256"
						}
					],
					"stateMutability": "nonpayable",
					"type": "constructor"
				},
				{
					"anonymous": false,
					"inputs": [
						{
							"indexed": true,
							"internalType": "address",
							"name": "token",
							"type": "address"
						},
						{
							"indexed": false,
							"internalType": "uint256",
							"name": "amount",
							"type": "uint256"
						}
					],
					"name": "ERC20Released",
					"type": "event"
				},
				{
					"inputs": [],
					"name": "beneficiary",
					"outputs": [
						{
							"internalType": "address",
							"name": "",
							"type": "address"
						}
					],
					"stateMutability": "view",
					"type": "function"
				},
				{
					"inputs": [],
					"name": "duration",
					"outputs": [
						{
							"internalType": "uint256",
							"name": "",
							"type": "uint256"
						}
					],
					"stateMutability": "view",
					"type": "function"
				},
				{
					"inputs": [
						{
							"internalType": "address",
							"name": "",
							"type": "address"
						}
					],
					"name": "erc20Released",
					"outputs": [
						{
							"internalType": "uint256",
							"name": "",
							"type": "uint256"
						}
					],
					"stateMutability": "view",
					"type": "function"
				},
				{
					"inputs": [
						{
							"internalType": "address",
							"name": "token",
							"type": "address"
						}
					],
					"name": "release",
					"outputs": [],
					"stateMutability": "nonpayable",
					"type": "function"
				},
				{
					"inputs": [],
					"name": "start",
					"outputs": [
						{
							"internalType": "uint256",
							"name": "",
							"type": "uint256"
						}
					],
					"stateMutability": "view",
					"type": "function"
				},
				{
					"inputs": [
						{
							"internalType": "address",
							"name": "token",
							"type": "address"
						},
						{
							"internalType": "uint256",
							"name": "timestamp",
							"type": "uint256"
						}
					],
					"name": "vestedAmount",
					"outputs": [
						{
							"internalType": "uint256",
							"name": "",
							"type": "uint256"
						}
					],
					"stateMutability": "view",
					"type": "function"
				}
			],
			"devdoc": {
				"details": "这个合约会将ERC20代币线性释放给给受益人`_beneficiary`。 释放的代币可以是一种，也可以是多种。释放周期由起始时间`_start`和时长`_duration`定义。 所有转到这个合约上的代币都会遵循同样的线性释放周期，并且需要受益人调用`release()`函数提取。 合约是从OpenZeppelin的VestingWallet简化而来。",
				"kind": "dev",
				"methods": {
					"constructor": {
						"details": "初始化受益人地址，释放周期(秒), 起始时间戳(当前区块链时间戳)"
					},
					"release(address)": {
						"details": "受益人提取已释放的代币。 调用vestedAmount()函数计算可提取的代币数量，然后transfer给受益人。 释放 {ERC20Released} 事件."
					},
					"vestedAmount(address,uint256)": {
						"details": "根据线性释放公式，计算已经释放的数量。开发者可以通过修改这个函数，自定义释放方式。",
						"params": {
							"timestamp": ": 查询的时间戳",
							"token": ": 代币地址"
						}
					}
				},
				"title": "ERC20代币线性释放",
				"version": 1
			},
			"evm": {
				"assembly": "    /* \"43_TokenVesting/TokenVesting.sol\":558:2950  contract TokenVesting {... */\n  mstore(0x40, 0xe0)\n    /* \"43_TokenVesting/TokenVesting.sol\":1149:1459  constructor(... */\n  callvalue\n  dup1\n  iszero\n  tag_1\n  jumpi\n  revert(0x00, 0x00)\ntag_1:\n  pop\n  mload(0x40)\n  sub(codesize, bytecodeSize)\n  dup1\n  bytecodeSize\n  dup4\n  codecopy\n  dup2\n  dup2\n  add\n  0x40\n  mstore\n  dup2\n  add\n  swap1\n  tag_2\n  swap2\n  swap1\n  tag_3\n  jump\t// in\ntag_2:\n    /* \"43_TokenVesting/TokenVesting.sol\":1288:1289  0 */\n  0x00\n    /* \"43_TokenVesting/TokenVesting.sol\":1258:1290  beneficiaryAddress != address(0) */\n  0xffffffffffffffffffffffffffffffffffffffff\n  and\n    /* \"43_TokenVesting/TokenVesting.sol\":1258:1276  beneficiaryAddress */\n  dup3\n    /* \"43_TokenVesting/TokenVesting.sol\":1258:1290  beneficiaryAddress != address(0) */\n  0xffffffffffffffffffffffffffffffffffffffff\n  and\n  sub\n    /* \"43_TokenVesting/TokenVesting.sol\":1250:1337  require(beneficiaryAddress != address(0), \"VestingWallet: beneficiary is zero address\") */\n  tag_6\n  jumpi\n  mload(0x40)\n  0x08c379a000000000000000000000000000000000000000000000000000000000\n  dup2\n  mstore\n  0x04\n  add\n  tag_7\n  swap1\n  tag_8\n  jump\t// in\ntag_7:\n  mload(0x40)\n  dup1\n  swap2\n  sub\n  swap1\n  revert\ntag_6:\n    /* \"43_TokenVesting/TokenVesting.sol\":1362:1380  beneficiaryAddress */\n  dup2\n    /* \"43_TokenVesting/TokenVesting.sol\":1348:1380  beneficiary = beneficiaryAddress */\n  0xffffffffffffffffffffffffffffffffffffffff\n  and\n  0x80\n  dup2\n  0xffffffffffffffffffffffffffffffffffffffff\n  and\n  dup2\n  mstore\n  pop\n  pop\n    /* \"43_TokenVesting/TokenVesting.sol\":1399:1414  block.timestamp */\n  timestamp\n    /* \"43_TokenVesting/TokenVesting.sol\":1391:1414  start = block.timestamp */\n  0xa0\n  dup2\n  dup2\n  mstore\n  pop\n  pop\n    /* \"43_TokenVesting/TokenVesting.sol\":1436:1451  durationSeconds */\n  dup1\n    /* \"43_TokenVesting/TokenVesting.sol\":1425:1451  duration = durationSeconds */\n  0xc0\n  dup2\n  dup2\n  mstore\n  pop\n  pop\n    /* \"43_TokenVesting/TokenVesting.sol\":1149:1459  constructor(... */\n  pop\n  pop\n    /* \"43_TokenVesting/TokenVesting.sol\":558:2950  contract TokenVesting {... */\n  jump(tag_9)\n    /* \"#utility.yul\":88:205   */\ntag_11:\n    /* \"#utility.yul\":197:198   */\n  0x00\n    /* \"#utility.yul\":194:195   */\n  0x00\n    /* \"#utility.yul\":187:199   */\n  revert\n    /* \"#utility.yul\":334:460   */\ntag_13:\n    /* \"#utility.yul\":371:378   */\n  0x00\n    /* \"#utility.yul\":411:453   */\n  0xffffffffffffffffffffffffffffffffffffffff\n    /* \"#utility.yul\":404:409   */\n  dup3\n    /* \"#utility.yul\":400:454   */\n  and\n    /* \"#utility.yul\":389:454   */\n  swap1\n  pop\n    /* \"#utility.yul\":334:460   */\n  swap2\n  swap1\n  pop\n  jump\t// out\n    /* \"#utility.yul\":466:562   */\ntag_14:\n    /* \"#utility.yul\":503:510   */\n  0x00\n    /* \"#utility.yul\":532:556   */\n  tag_29\n    /* \"#utility.yul\":550:555   */\n  dup3\n    /* \"#utility.yul\":532:556   */\n  tag_13\n  jump\t// in\ntag_29:\n    /* \"#utility.yul\":521:556   */\n  swap1\n  pop\n    /* \"#utility.yul\":466:562   */\n  swap2\n  swap1\n  pop\n  jump\t// out\n    /* \"#utility.yul\":568:690   */\ntag_15:\n    /* \"#utility.yul\":641:665   */\n  tag_31\n    /* \"#utility.yul\":659:664   */\n  dup2\n    /* \"#utility.yul\":641:665   */\n  tag_14\n  jump\t// in\ntag_31:\n    /* \"#utility.yul\":634:639   */\n  dup2\n    /* \"#utility.yul\":631:666   */\n  eq\n    /* \"#utility.yul\":621:684   */\n  tag_32\n  jumpi\n    /* \"#utility.yul\":680:681   */\n  0x00\n    /* \"#utility.yul\":677:678   */\n  0x00\n    /* \"#utility.yul\":670:682   */\n  revert\n    /* \"#utility.yul\":621:684   */\ntag_32:\n    /* \"#utility.yul\":568:690   */\n  pop\n  jump\t// out\n    /* \"#utility.yul\":696:839   */\ntag_16:\n    /* \"#utility.yul\":753:758   */\n  0x00\n    /* \"#utility.yul\":784:790   */\n  dup2\n    /* \"#utility.yul\":778:791   */\n  mload\n    /* \"#utility.yul\":769:791   */\n  swap1\n  pop\n    /* \"#utility.yul\":800:833   */\n  tag_34\n    /* \"#utility.yul\":827:832   */\n  dup2\n    /* \"#utility.yul\":800:833   */\n  tag_15\n  jump\t// in\ntag_34:\n    /* \"#utility.yul\":696:839   */\n  swap3\n  swap2\n  pop\n  pop\n  jump\t// out\n    /* \"#utility.yul\":845:922   */\ntag_17:\n    /* \"#utility.yul\":882:889   */\n  0x00\n    /* \"#utility.yul\":911:916   */\n  dup2\n    /* \"#utility.yul\":900:916   */\n  swap1\n  pop\n    /* \"#utility.yul\":845:922   */\n  swap2\n  swap1\n  pop\n  jump\t// out\n    /* \"#utility.yul\":928:1050   */\ntag_18:\n    /* \"#utility.yul\":1001:1025   */\n  tag_37\n    /* \"#utility.yul\":1019:1024   */\n  dup2\n    /* \"#utility.yul\":1001:1025   */\n  tag_17\n  jump\t// in\ntag_37:\n    /* \"#utility.yul\":994:999   */\n  dup2\n    /* \"#utility.yul\":991:1026   */\n  eq\n    /* \"#utility.yul\":981:1044   */\n  tag_38\n  jumpi\n    /* \"#utility.yul\":1040:1041   */\n  0x00\n    /* \"#utility.yul\":1037:1038   */\n  0x00\n    /* \"#utility.yul\":1030:1042   */\n  revert\n    /* \"#utility.yul\":981:1044   */\ntag_38:\n    /* \"#utility.yul\":928:1050   */\n  pop\n  jump\t// out\n    /* \"#utility.yul\":1056:1199   */\ntag_19:\n    /* \"#utility.yul\":1113:1118   */\n  0x00\n    /* \"#utility.yul\":1144:1150   */\n  dup2\n    /* \"#utility.yul\":1138:1151   */\n  mload\n    /* \"#utility.yul\":1129:1151   */\n  swap1\n  pop\n    /* \"#utility.yul\":1160:1193   */\n  tag_40\n    /* \"#utility.yul\":1187:1192   */\n  dup2\n    /* \"#utility.yul\":1160:1193   */\n  tag_18\n  jump\t// in\ntag_40:\n    /* \"#utility.yul\":1056:1199   */\n  swap3\n  swap2\n  pop\n  pop\n  jump\t// out\n    /* \"#utility.yul\":1205:1712   */\ntag_3:\n    /* \"#utility.yul\":1284:1290   */\n  0x00\n    /* \"#utility.yul\":1292:1298   */\n  0x00\n    /* \"#utility.yul\":1341:1343   */\n  0x40\n    /* \"#utility.yul\":1329:1338   */\n  dup4\n    /* \"#utility.yul\":1320:1327   */\n  dup6\n    /* \"#utility.yul\":1316:1339   */\n  sub\n    /* \"#utility.yul\":1312:1344   */\n  slt\n    /* \"#utility.yul\":1309:1428   */\n  iszero\n  tag_42\n  jumpi\n    /* \"#utility.yul\":1347:1426   */\n  tag_43\n  tag_11\n  jump\t// in\ntag_43:\n    /* \"#utility.yul\":1309:1428   */\ntag_42:\n    /* \"#utility.yul\":1467:1468   */\n  0x00\n    /* \"#utility.yul\":1492:1556   */\n  tag_44\n    /* \"#utility.yul\":1548:1555   */\n  dup6\n    /* \"#utility.yul\":1539:1545   */\n  dup3\n    /* \"#utility.yul\":1528:1537   */\n  dup7\n    /* \"#utility.yul\":1524:1546   */\n  add\n    /* \"#utility.yul\":1492:1556   */\n  tag_16\n  jump\t// in\ntag_44:\n    /* \"#utility.yul\":1482:1556   */\n  swap3\n  pop\n    /* \"#utility.yul\":1438:1566   */\n  pop\n    /* \"#utility.yul\":1605:1607   */\n  0x20\n    /* \"#utility.yul\":1631:1695   */\n  tag_45\n    /* \"#utility.yul\":1687:1694   */\n  dup6\n    /* \"#utility.yul\":1678:1684   */\n  dup3\n    /* \"#utility.yul\":1667:1676   */\n  dup7\n    /* \"#utility.yul\":1663:1685   */\n  add\n    /* \"#utility.yul\":1631:1695   */\n  tag_19\n  jump\t// in\ntag_45:\n    /* \"#utility.yul\":1621:1695   */\n  swap2\n  pop\n    /* \"#utility.yul\":1576:1705   */\n  pop\n    /* \"#utility.yul\":1205:1712   */\n  swap3\n  pop\n  swap3\n  swap1\n  pop\n  jump\t// out\n    /* \"#utility.yul\":1718:1887   */\ntag_20:\n    /* \"#utility.yul\":1802:1813   */\n  0x00\n    /* \"#utility.yul\":1836:1842   */\n  dup3\n    /* \"#utility.yul\":1831:1834   */\n  dup3\n    /* \"#utility.yul\":1824:1843   */\n  mstore\n    /* \"#utility.yul\":1876:1880   */\n  0x20\n    /* \"#utility.yul\":1871:1874   */\n  dup3\n    /* \"#utility.yul\":1867:1881   */\n  add\n    /* \"#utility.yul\":1852:1881   */\n  swap1\n  pop\n    /* \"#utility.yul\":1718:1887   */\n  swap3\n  swap2\n  pop\n  pop\n  jump\t// out\n    /* \"#utility.yul\":1893:2122   */\ntag_21:\n    /* \"#utility.yul\":2033:2067   */\n  0x56657374696e6757616c6c65743a2062656e6566696369617279206973207a65\n    /* \"#utility.yul\":2029:2030   */\n  0x00\n    /* \"#utility.yul\":2021:2027   */\n  dup3\n    /* \"#utility.yul\":2017:2031   */\n  add\n    /* \"#utility.yul\":2010:2068   */\n  mstore\n    /* \"#utility.yul\":2102:2114   */\n  0x726f206164647265737300000000000000000000000000000000000000000000\n    /* \"#utility.yul\":2097:2099   */\n  0x20\n    /* \"#utility.yul\":2089:2095   */\n  dup3\n    /* \"#utility.yul\":2085:2100   */\n  add\n    /* \"#utility.yul\":2078:2115   */\n  mstore\n    /* \"#utility.yul\":1893:2122   */\n  pop\n  jump\t// out\n    /* \"#utility.yul\":2128:2494   */\ntag_22:\n    /* \"#utility.yul\":2270:2273   */\n  0x00\n    /* \"#utility.yul\":2291:2358   */\n  tag_49\n    /* \"#utility.yul\":2355:2357   */\n  0x2a\n    /* \"#utility.yul\":2350:2353   */\n  dup4\n    /* \"#utility.yul\":2291:2358   */\n  tag_20\n  jump\t// in\ntag_49:\n    /* \"#utility.yul\":2284:2358   */\n  swap2\n  pop\n    /* \"#utility.yul\":2367:2460   */\n  tag_50\n    /* \"#utility.yul\":2456:2459   */\n  dup3\n    /* \"#utility.yul\":2367:2460   */\n  tag_21\n  jump\t// in\ntag_50:\n    /* \"#utility.yul\":2485:2487   */\n  0x40\n    /* \"#utility.yul\":2480:2483   */\n  dup3\n    /* \"#utility.yul\":2476:2488   */\n  add\n    /* \"#utility.yul\":2469:2488   */\n  swap1\n  pop\n    /* \"#utility.yul\":2128:2494   */\n  swap2\n  swap1\n  pop\n  jump\t// out\n    /* \"#utility.yul\":2500:2919   */\ntag_8:\n    /* \"#utility.yul\":2666:2670   */\n  0x00\n    /* \"#utility.yul\":2704:2706   */\n  0x20\n    /* \"#utility.yul\":2693:2702   */\n  dup3\n    /* \"#utility.yul\":2689:2707   */\n  add\n    /* \"#utility.yul\":2681:2707   */\n  swap1\n  pop\n    /* \"#utility.yul\":2753:2762   */\n  dup2\n    /* \"#utility.yul\":2747:2751   */\n  dup2\n    /* \"#utility.yul\":2743:2763   */\n  sub\n    /* \"#utility.yul\":2739:2740   */\n  0x00\n    /* \"#utility.yul\":2728:2737   */\n  dup4\n    /* \"#utility.yul\":2724:2741   */\n  add\n    /* \"#utility.yul\":2717:2764   */\n  mstore\n    /* \"#utility.yul\":2781:2912   */\n  tag_52\n    /* \"#utility.yul\":2907:2911   */\n  dup2\n    /* \"#utility.yul\":2781:2912   */\n  tag_22\n  jump\t// in\ntag_52:\n    /* \"#utility.yul\":2773:2912   */\n  swap1\n  pop\n    /* \"#utility.yul\":2500:2919   */\n  swap2\n  swap1\n  pop\n  jump\t// out\n    /* \"43_TokenVesting/TokenVesting.sol\":558:2950  contract TokenVesting {... */\ntag_9:\n  mload(0x80)\n  mload(0xa0)\n  mload(0xc0)\n  codecopy(0x00, dataOffset(sub_0), dataSize(sub_0))\n  0x00\n  assignImmutable(\"0x6386010079fe6c0a61983a014039529dafea55b2497abdb4d89ddfb4c1197408\")\n  0x00\n  assignImmutable(\"0xce47c6a6203c86acfd7865975167278728484259db8b8a7290f4c95a7e90b8b5\")\n  0x00\n  assignImmutable(\"0x02a376f5b86b2a0b74ef8a37fb97e833964982679603a95fa2ae2b100dd27bab\")\n  return(0x00, dataSize(sub_0))\nstop\n\nsub_0: assembly {\n        /* \"43_TokenVesting/TokenVesting.sol\":558:2950  contract TokenVesting {... */\n      mstore(0x40, 0x80)\n      callvalue\n      dup1\n      iszero\n      tag_1\n      jumpi\n      revert(0x00, 0x00)\n    tag_1:\n      pop\n      jumpi(tag_2, lt(calldatasize, 0x04))\n      shr(0xe0, calldataload(0x00))\n      dup1\n      0x0fb5a6b4\n      eq\n      tag_3\n      jumpi\n      dup1\n      0x17cf5391\n      eq\n      tag_4\n      jumpi\n      dup1\n      0x19165587\n      eq\n      tag_5\n      jumpi\n      dup1\n      0x38af3eed\n      eq\n      tag_6\n      jumpi\n      dup1\n      0xbbc702c6\n      eq\n      tag_7\n      jumpi\n      dup1\n      0xbe9a6555\n      eq\n      tag_8\n      jumpi\n    tag_2:\n      revert(0x00, 0x00)\n        /* \"43_TokenVesting/TokenVesting.sol\":969:1002  uint256 public immutable duration */\n    tag_3:\n      tag_9\n      tag_10\n      jump\t// in\n    tag_9:\n      mload(0x40)\n      tag_11\n      swap2\n      swap1\n      tag_12\n      jump\t// in\n    tag_11:\n      mload(0x40)\n      dup1\n      swap2\n      sub\n      swap1\n      return\n        /* \"43_TokenVesting/TokenVesting.sol\":2359:2947  function vestedAmount(address token, uint256 timestamp) public view returns (uint256) {... */\n    tag_4:\n      tag_13\n      0x04\n      dup1\n      calldatasize\n      sub\n      dup2\n      add\n      swap1\n      tag_14\n      swap2\n      swap1\n      tag_15\n      jump\t// in\n    tag_14:\n      tag_16\n      jump\t// in\n    tag_13:\n      mload(0x40)\n      tag_17\n      swap2\n      swap1\n      tag_12\n      jump\t// in\n    tag_17:\n      mload(0x40)\n      dup1\n      swap2\n      sub\n      swap1\n      return\n        /* \"43_TokenVesting/TokenVesting.sol\":1671:2116  function release(address token) public {... */\n    tag_5:\n      tag_18\n      0x04\n      dup1\n      calldatasize\n      sub\n      dup2\n      add\n      swap1\n      tag_19\n      swap2\n      swap1\n      tag_20\n      jump\t// in\n    tag_19:\n      tag_21\n      jump\t// in\n    tag_18:\n      stop\n        /* \"43_TokenVesting/TokenVesting.sol\":842:878  address public immutable beneficiary */\n    tag_6:\n      tag_22\n      tag_23\n      jump\t// in\n    tag_22:\n      mload(0x40)\n      tag_24\n      swap2\n      swap1\n      tag_25\n      jump\t// in\n    tag_24:\n      mload(0x40)\n      dup1\n      swap2\n      sub\n      swap1\n      return\n        /* \"43_TokenVesting/TokenVesting.sol\":706:754  mapping(address => uint256) public erc20Released */\n    tag_7:\n      tag_26\n      0x04\n      dup1\n      calldatasize\n      sub\n      dup2\n      add\n      swap1\n      tag_27\n      swap2\n      swap1\n      tag_20\n      jump\t// in\n    tag_27:\n      tag_28\n      jump\t// in\n    tag_26:\n      mload(0x40)\n      tag_29\n      swap2\n      swap1\n      tag_12\n      jump\t// in\n    tag_29:\n      mload(0x40)\n      dup1\n      swap2\n      sub\n      swap1\n      return\n        /* \"43_TokenVesting/TokenVesting.sol\":904:934  uint256 public immutable start */\n    tag_8:\n      tag_30\n      tag_31\n      jump\t// in\n    tag_30:\n      mload(0x40)\n      tag_32\n      swap2\n      swap1\n      tag_12\n      jump\t// in\n    tag_32:\n      mload(0x40)\n      dup1\n      swap2\n      sub\n      swap1\n      return\n        /* \"43_TokenVesting/TokenVesting.sol\":969:1002  uint256 public immutable duration */\n    tag_10:\n      immutable(\"0x6386010079fe6c0a61983a014039529dafea55b2497abdb4d89ddfb4c1197408\")\n      dup2\n      jump\t// out\n        /* \"43_TokenVesting/TokenVesting.sol\":2359:2947  function vestedAmount(address token, uint256 timestamp) public view returns (uint256) {... */\n    tag_16:\n        /* \"43_TokenVesting/TokenVesting.sol\":2436:2443  uint256 */\n      0x00\n        /* \"43_TokenVesting/TokenVesting.sol\":2538:2561  uint256 totalAllocation */\n      0x00\n        /* \"43_TokenVesting/TokenVesting.sol\":2605:2618  erc20Released */\n      0x00\n        /* \"43_TokenVesting/TokenVesting.sol\":2605:2625  erc20Released[token] */\n      0x00\n        /* \"43_TokenVesting/TokenVesting.sol\":2619:2624  token */\n      dup6\n        /* \"43_TokenVesting/TokenVesting.sol\":2605:2625  erc20Released[token] */\n      0xffffffffffffffffffffffffffffffffffffffff\n      and\n      0xffffffffffffffffffffffffffffffffffffffff\n      and\n      dup2\n      mstore\n      0x20\n      add\n      swap1\n      dup2\n      mstore\n      0x20\n      add\n      0x00\n      keccak256\n      sload\n        /* \"43_TokenVesting/TokenVesting.sol\":2571:2576  token */\n      dup5\n        /* \"43_TokenVesting/TokenVesting.sol\":2564:2587  IERC20(token).balanceOf */\n      0xffffffffffffffffffffffffffffffffffffffff\n      and\n      0x70a08231\n        /* \"43_TokenVesting/TokenVesting.sol\":2596:2600  this */\n      address\n        /* \"43_TokenVesting/TokenVesting.sol\":2564:2602  IERC20(token).balanceOf(address(this)) */\n      mload(0x40)\n      dup3\n      0xffffffff\n      and\n      0xe0\n      shl\n      dup2\n      mstore\n      0x04\n      add\n      tag_34\n      swap2\n      swap1\n      tag_25\n      jump\t// in\n    tag_34:\n      0x20\n      mload(0x40)\n      dup1\n      dup4\n      sub\n      dup2\n      dup7\n      gas\n      staticcall\n      iszero\n      dup1\n      iszero\n      tag_36\n      jumpi\n      returndatacopy(0x00, 0x00, returndatasize)\n      revert(0x00, returndatasize)\n    tag_36:\n      pop\n      pop\n      pop\n      pop\n      mload(0x40)\n      returndatasize\n      not(0x1f)\n      0x1f\n      dup3\n      add\n      and\n      dup3\n      add\n      dup1\n      0x40\n      mstore\n      pop\n      dup2\n      add\n      swap1\n      tag_37\n      swap2\n      swap1\n      tag_38\n      jump\t// in\n    tag_37:\n        /* \"43_TokenVesting/TokenVesting.sol\":2564:2625  IERC20(token).balanceOf(address(this)) + erc20Released[token] */\n      tag_39\n      swap2\n      swap1\n      tag_40\n      jump\t// in\n    tag_39:\n        /* \"43_TokenVesting/TokenVesting.sol\":2538:2625  uint256 totalAllocation = IERC20(token).balanceOf(address(this)) + erc20Released[token] */\n      swap1\n      pop\n        /* \"43_TokenVesting/TokenVesting.sol\":2719:2724  start */\n      immutable(\"0xce47c6a6203c86acfd7865975167278728484259db8b8a7290f4c95a7e90b8b5\")\n        /* \"43_TokenVesting/TokenVesting.sol\":2707:2716  timestamp */\n      dup4\n        /* \"43_TokenVesting/TokenVesting.sol\":2707:2724  timestamp < start */\n      lt\n        /* \"43_TokenVesting/TokenVesting.sol\":2703:2940  if (timestamp < start) {... */\n      iszero\n      tag_41\n      jumpi\n        /* \"43_TokenVesting/TokenVesting.sol\":2748:2749  0 */\n      0x00\n        /* \"43_TokenVesting/TokenVesting.sol\":2741:2749  return 0 */\n      swap2\n      pop\n      pop\n      jump(tag_33)\n        /* \"43_TokenVesting/TokenVesting.sol\":2703:2940  if (timestamp < start) {... */\n    tag_41:\n        /* \"43_TokenVesting/TokenVesting.sol\":2791:2799  duration */\n      immutable(\"0x6386010079fe6c0a61983a014039529dafea55b2497abdb4d89ddfb4c1197408\")\n        /* \"43_TokenVesting/TokenVesting.sol\":2783:2788  start */\n      immutable(\"0xce47c6a6203c86acfd7865975167278728484259db8b8a7290f4c95a7e90b8b5\")\n        /* \"43_TokenVesting/TokenVesting.sol\":2783:2799  start + duration */\n      tag_43\n      swap2\n      swap1\n      tag_40\n      jump\t// in\n    tag_43:\n        /* \"43_TokenVesting/TokenVesting.sol\":2771:2780  timestamp */\n      dup4\n        /* \"43_TokenVesting/TokenVesting.sol\":2771:2799  timestamp > start + duration */\n      gt\n        /* \"43_TokenVesting/TokenVesting.sol\":2767:2940  if (timestamp > start + duration) {... */\n      iszero\n      tag_44\n      jumpi\n        /* \"43_TokenVesting/TokenVesting.sol\":2823:2838  totalAllocation */\n      dup1\n        /* \"43_TokenVesting/TokenVesting.sol\":2816:2838  return totalAllocation */\n      swap2\n      pop\n      pop\n      jump(tag_33)\n        /* \"43_TokenVesting/TokenVesting.sol\":2767:2940  if (timestamp > start + duration) {... */\n    tag_44:\n        /* \"43_TokenVesting/TokenVesting.sol\":2920:2928  duration */\n      immutable(\"0x6386010079fe6c0a61983a014039529dafea55b2497abdb4d89ddfb4c1197408\")\n        /* \"43_TokenVesting/TokenVesting.sol\":2910:2915  start */\n      immutable(\"0xce47c6a6203c86acfd7865975167278728484259db8b8a7290f4c95a7e90b8b5\")\n        /* \"43_TokenVesting/TokenVesting.sol\":2898:2907  timestamp */\n      dup5\n        /* \"43_TokenVesting/TokenVesting.sol\":2898:2915  timestamp - start */\n      tag_46\n      swap2\n      swap1\n      tag_47\n      jump\t// in\n    tag_46:\n        /* \"43_TokenVesting/TokenVesting.sol\":2879:2894  totalAllocation */\n      dup3\n        /* \"43_TokenVesting/TokenVesting.sol\":2879:2916  totalAllocation * (timestamp - start) */\n      tag_48\n      swap2\n      swap1\n      tag_49\n      jump\t// in\n    tag_48:\n        /* \"43_TokenVesting/TokenVesting.sol\":2878:2928  (totalAllocation * (timestamp - start)) / duration */\n      tag_50\n      swap2\n      swap1\n      tag_51\n      jump\t// in\n    tag_50:\n        /* \"43_TokenVesting/TokenVesting.sol\":2871:2928  return (totalAllocation * (timestamp - start)) / duration */\n      swap2\n      pop\n      pop\n        /* \"43_TokenVesting/TokenVesting.sol\":2359:2947  function vestedAmount(address token, uint256 timestamp) public view returns (uint256) {... */\n    tag_33:\n      swap3\n      swap2\n      pop\n      pop\n      jump\t// out\n        /* \"43_TokenVesting/TokenVesting.sol\":1671:2116  function release(address token) public {... */\n    tag_21:\n        /* \"43_TokenVesting/TokenVesting.sol\":1790:1808  uint256 releasable */\n      0x00\n        /* \"43_TokenVesting/TokenVesting.sol\":1859:1872  erc20Released */\n      0x00\n        /* \"43_TokenVesting/TokenVesting.sol\":1859:1879  erc20Released[token] */\n      0x00\n        /* \"43_TokenVesting/TokenVesting.sol\":1873:1878  token */\n      dup4\n        /* \"43_TokenVesting/TokenVesting.sol\":1859:1879  erc20Released[token] */\n      0xffffffffffffffffffffffffffffffffffffffff\n      and\n      0xffffffffffffffffffffffffffffffffffffffff\n      and\n      dup2\n      mstore\n      0x20\n      add\n      swap1\n      dup2\n      mstore\n      0x20\n      add\n      0x00\n      keccak256\n      sload\n        /* \"43_TokenVesting/TokenVesting.sol\":1811:1856  vestedAmount(token, uint256(block.timestamp)) */\n      tag_53\n        /* \"43_TokenVesting/TokenVesting.sol\":1824:1829  token */\n      dup4\n        /* \"43_TokenVesting/TokenVesting.sol\":1839:1854  block.timestamp */\n      timestamp\n        /* \"43_TokenVesting/TokenVesting.sol\":1811:1823  vestedAmount */\n      tag_16\n        /* \"43_TokenVesting/TokenVesting.sol\":1811:1856  vestedAmount(token, uint256(block.timestamp)) */\n      jump\t// in\n    tag_53:\n        /* \"43_TokenVesting/TokenVesting.sol\":1811:1879  vestedAmount(token, uint256(block.timestamp)) - erc20Released[token] */\n      tag_54\n      swap2\n      swap1\n      tag_47\n      jump\t// in\n    tag_54:\n        /* \"43_TokenVesting/TokenVesting.sol\":1790:1879  uint256 releasable = vestedAmount(token, uint256(block.timestamp)) - erc20Released[token] */\n      swap1\n      pop\n        /* \"43_TokenVesting/TokenVesting.sol\":1957:1967  releasable */\n      dup1\n        /* \"43_TokenVesting/TokenVesting.sol\":1933:1946  erc20Released */\n      0x00\n        /* \"43_TokenVesting/TokenVesting.sol\":1933:1953  erc20Released[token] */\n      0x00\n        /* \"43_TokenVesting/TokenVesting.sol\":1947:1952  token */\n      dup5\n        /* \"43_TokenVesting/TokenVesting.sol\":1933:1953  erc20Released[token] */\n      0xffffffffffffffffffffffffffffffffffffffff\n      and\n      0xffffffffffffffffffffffffffffffffffffffff\n      and\n      dup2\n      mstore\n      0x20\n      add\n      swap1\n      dup2\n      mstore\n      0x20\n      add\n      0x00\n      keccak256\n      0x00\n        /* \"43_TokenVesting/TokenVesting.sol\":1933:1967  erc20Released[token] += releasable */\n      dup3\n      dup3\n      sload\n      tag_55\n      swap2\n      swap1\n      tag_40\n      jump\t// in\n    tag_55:\n      swap3\n      pop\n      pop\n      dup2\n      swap1\n      sstore\n      pop\n        /* \"43_TokenVesting/TokenVesting.sol\":2032:2037  token */\n      dup2\n        /* \"43_TokenVesting/TokenVesting.sol\":2018:2050  ERC20Released(token, releasable) */\n      0xffffffffffffffffffffffffffffffffffffffff\n      and\n      0xc0e523490dd523c33b1878c9eb14ff46991e3f5b2cd33710918618f2a39cba1b\n        /* \"43_TokenVesting/TokenVesting.sol\":2039:2049  releasable */\n      dup3\n        /* \"43_TokenVesting/TokenVesting.sol\":2018:2050  ERC20Released(token, releasable) */\n      mload(0x40)\n      tag_56\n      swap2\n      swap1\n      tag_12\n      jump\t// in\n    tag_56:\n      mload(0x40)\n      dup1\n      swap2\n      sub\n      swap1\n      log2\n        /* \"43_TokenVesting/TokenVesting.sol\":2068:2073  token */\n      dup2\n        /* \"43_TokenVesting/TokenVesting.sol\":2061:2083  IERC20(token).transfer */\n      0xffffffffffffffffffffffffffffffffffffffff\n      and\n      0xa9059cbb\n        /* \"43_TokenVesting/TokenVesting.sol\":2084:2095  beneficiary */\n      immutable(\"0x02a376f5b86b2a0b74ef8a37fb97e833964982679603a95fa2ae2b100dd27bab\")\n        /* \"43_TokenVesting/TokenVesting.sol\":2097:2107  releasable */\n      dup4\n        /* \"43_TokenVesting/TokenVesting.sol\":2061:2108  IERC20(token).transfer(beneficiary, releasable) */\n      mload(0x40)\n      dup4\n      0xffffffff\n      and\n      0xe0\n      shl\n      dup2\n      mstore\n      0x04\n      add\n      tag_57\n      swap3\n      swap2\n      swap1\n      tag_58\n      jump\t// in\n    tag_57:\n      0x20\n      mload(0x40)\n      dup1\n      dup4\n      sub\n      dup2\n      0x00\n      dup8\n      gas\n      call\n      iszero\n      dup1\n      iszero\n      tag_60\n      jumpi\n      returndatacopy(0x00, 0x00, returndatasize)\n      revert(0x00, returndatasize)\n    tag_60:\n      pop\n      pop\n      pop\n      pop\n      mload(0x40)\n      returndatasize\n      not(0x1f)\n      0x1f\n      dup3\n      add\n      and\n      dup3\n      add\n      dup1\n      0x40\n      mstore\n      pop\n      dup2\n      add\n      swap1\n      tag_61\n      swap2\n      swap1\n      tag_62\n      jump\t// in\n    tag_61:\n      pop\n        /* \"43_TokenVesting/TokenVesting.sol\":1710:2116  {... */\n      pop\n        /* \"43_TokenVesting/TokenVesting.sol\":1671:2116  function release(address token) public {... */\n      pop\n      jump\t// out\n        /* \"43_TokenVesting/TokenVesting.sol\":842:878  address public immutable beneficiary */\n    tag_23:\n      immutable(\"0x02a376f5b86b2a0b74ef8a37fb97e833964982679603a95fa2ae2b100dd27bab\")\n      dup2\n      jump\t// out\n        /* \"43_TokenVesting/TokenVesting.sol\":706:754  mapping(address => uint256) public erc20Released */\n    tag_28:\n      mstore(0x20, 0x00)\n      dup1\n      0x00\n      mstore\n      keccak256(0x00, 0x40)\n      0x00\n      swap2\n      pop\n      swap1\n      pop\n      sload\n      dup2\n      jump\t// out\n        /* \"43_TokenVesting/TokenVesting.sol\":904:934  uint256 public immutable start */\n    tag_31:\n      immutable(\"0xce47c6a6203c86acfd7865975167278728484259db8b8a7290f4c95a7e90b8b5\")\n      dup2\n      jump\t// out\n        /* \"#utility.yul\":7:84   */\n    tag_63:\n        /* \"#utility.yul\":44:51   */\n      0x00\n        /* \"#utility.yul\":73:78   */\n      dup2\n        /* \"#utility.yul\":62:78   */\n      swap1\n      pop\n        /* \"#utility.yul\":7:84   */\n      swap2\n      swap1\n      pop\n      jump\t// out\n        /* \"#utility.yul\":90:208   */\n    tag_64:\n        /* \"#utility.yul\":177:201   */\n      tag_84\n        /* \"#utility.yul\":195:200   */\n      dup2\n        /* \"#utility.yul\":177:201   */\n      tag_63\n      jump\t// in\n    tag_84:\n        /* \"#utility.yul\":172:175   */\n      dup3\n        /* \"#utility.yul\":165:202   */\n      mstore\n        /* \"#utility.yul\":90:208   */\n      pop\n      pop\n      jump\t// out\n        /* \"#utility.yul\":214:436   */\n    tag_12:\n        /* \"#utility.yul\":307:311   */\n      0x00\n        /* \"#utility.yul\":345:347   */\n      0x20\n        /* \"#utility.yul\":334:343   */\n      dup3\n        /* \"#utility.yul\":330:348   */\n      add\n        /* \"#utility.yul\":322:348   */\n      swap1\n      pop\n        /* \"#utility.yul\":358:429   */\n      tag_86\n        /* \"#utility.yul\":426:427   */\n      0x00\n        /* \"#utility.yul\":415:424   */\n      dup4\n        /* \"#utility.yul\":411:428   */\n      add\n        /* \"#utility.yul\":402:408   */\n      dup5\n        /* \"#utility.yul\":358:429   */\n      tag_64\n      jump\t// in\n    tag_86:\n        /* \"#utility.yul\":214:436   */\n      swap3\n      swap2\n      pop\n      pop\n      jump\t// out\n        /* \"#utility.yul\":523:640   */\n    tag_66:\n        /* \"#utility.yul\":632:633   */\n      0x00\n        /* \"#utility.yul\":629:630   */\n      0x00\n        /* \"#utility.yul\":622:634   */\n      revert\n        /* \"#utility.yul\":769:895   */\n    tag_68:\n        /* \"#utility.yul\":806:813   */\n      0x00\n        /* \"#utility.yul\":846:888   */\n      0xffffffffffffffffffffffffffffffffffffffff\n        /* \"#utility.yul\":839:844   */\n      dup3\n        /* \"#utility.yul\":835:889   */\n      and\n        /* \"#utility.yul\":824:889   */\n      swap1\n      pop\n        /* \"#utility.yul\":769:895   */\n      swap2\n      swap1\n      pop\n      jump\t// out\n        /* \"#utility.yul\":901:997   */\n    tag_69:\n        /* \"#utility.yul\":938:945   */\n      0x00\n        /* \"#utility.yul\":967:991   */\n      tag_92\n        /* \"#utility.yul\":985:990   */\n      dup3\n        /* \"#utility.yul\":967:991   */\n      tag_68\n      jump\t// in\n    tag_92:\n        /* \"#utility.yul\":956:991   */\n      swap1\n      pop\n        /* \"#utility.yul\":901:997   */\n      swap2\n      swap1\n      pop\n      jump\t// out\n        /* \"#utility.yul\":1003:1125   */\n    tag_70:\n        /* \"#utility.yul\":1076:1100   */\n      tag_94\n        /* \"#utility.yul\":1094:1099   */\n      dup2\n        /* \"#utility.yul\":1076:1100   */\n      tag_69\n      jump\t// in\n    tag_94:\n        /* \"#utility.yul\":1069:1074   */\n      dup2\n        /* \"#utility.yul\":1066:1101   */\n      eq\n        /* \"#utility.yul\":1056:1119   */\n      tag_95\n      jumpi\n        /* \"#utility.yul\":1115:1116   */\n      0x00\n        /* \"#utility.yul\":1112:1113   */\n      0x00\n        /* \"#utility.yul\":1105:1117   */\n      revert\n        /* \"#utility.yul\":1056:1119   */\n    tag_95:\n        /* \"#utility.yul\":1003:1125   */\n      pop\n      jump\t// out\n        /* \"#utility.yul\":1131:1270   */\n    tag_71:\n        /* \"#utility.yul\":1177:1182   */\n      0x00\n        /* \"#utility.yul\":1215:1221   */\n      dup2\n        /* \"#utility.yul\":1202:1222   */\n      calldataload\n        /* \"#utility.yul\":1193:1222   */\n      swap1\n      pop\n        /* \"#utility.yul\":1231:1264   */\n      tag_97\n        /* \"#utility.yul\":1258:1263   */\n      dup2\n        /* \"#utility.yul\":1231:1264   */\n      tag_70\n      jump\t// in\n    tag_97:\n        /* \"#utility.yul\":1131:1270   */\n      swap3\n      swap2\n      pop\n      pop\n      jump\t// out\n        /* \"#utility.yul\":1276:1398   */\n    tag_72:\n        /* \"#utility.yul\":1349:1373   */\n      tag_99\n        /* \"#utility.yul\":1367:1372   */\n      dup2\n        /* \"#utility.yul\":1349:1373   */\n      tag_63\n      jump\t// in\n    tag_99:\n        /* \"#utility.yul\":1342:1347   */\n      dup2\n        /* \"#utility.yul\":1339:1374   */\n      eq\n        /* \"#utility.yul\":1329:1392   */\n      tag_100\n      jumpi\n        /* \"#utility.yul\":1388:1389   */\n      0x00\n        /* \"#utility.yul\":1385:1386   */\n      0x00\n        /* \"#utility.yul\":1378:1390   */\n      revert\n        /* \"#utility.yul\":1329:1392   */\n    tag_100:\n        /* \"#utility.yul\":1276:1398   */\n      pop\n      jump\t// out\n        /* \"#utility.yul\":1404:1543   */\n    tag_73:\n        /* \"#utility.yul\":1450:1455   */\n      0x00\n        /* \"#utility.yul\":1488:1494   */\n      dup2\n        /* \"#utility.yul\":1475:1495   */\n      calldataload\n        /* \"#utility.yul\":1466:1495   */\n      swap1\n      pop\n        /* \"#utility.yul\":1504:1537   */\n      tag_102\n        /* \"#utility.yul\":1531:1536   */\n      dup2\n        /* \"#utility.yul\":1504:1537   */\n      tag_72\n      jump\t// in\n    tag_102:\n        /* \"#utility.yul\":1404:1543   */\n      swap3\n      swap2\n      pop\n      pop\n      jump\t// out\n        /* \"#utility.yul\":1549:2023   */\n    tag_15:\n        /* \"#utility.yul\":1617:1623   */\n      0x00\n        /* \"#utility.yul\":1625:1631   */\n      0x00\n        /* \"#utility.yul\":1674:1676   */\n      0x40\n        /* \"#utility.yul\":1662:1671   */\n      dup4\n        /* \"#utility.yul\":1653:1660   */\n      dup6\n        /* \"#utility.yul\":1649:1672   */\n      sub\n        /* \"#utility.yul\":1645:1677   */\n      slt\n        /* \"#utility.yul\":1642:1761   */\n      iszero\n      tag_104\n      jumpi\n        /* \"#utility.yul\":1680:1759   */\n      tag_105\n      tag_66\n      jump\t// in\n    tag_105:\n        /* \"#utility.yul\":1642:1761   */\n    tag_104:\n        /* \"#utility.yul\":1800:1801   */\n      0x00\n        /* \"#utility.yul\":1825:1878   */\n      tag_106\n        /* \"#utility.yul\":1870:1877   */\n      dup6\n        /* \"#utility.yul\":1861:1867   */\n      dup3\n        /* \"#utility.yul\":1850:1859   */\n      dup7\n        /* \"#utility.yul\":1846:1868   */\n      add\n        /* \"#utility.yul\":1825:1878   */\n      tag_71\n      jump\t// in\n    tag_106:\n        /* \"#utility.yul\":1815:1878   */\n      swap3\n      pop\n        /* \"#utility.yul\":1771:1888   */\n      pop\n        /* \"#utility.yul\":1927:1929   */\n      0x20\n        /* \"#utility.yul\":1953:2006   */\n      tag_107\n        /* \"#utility.yul\":1998:2005   */\n      dup6\n        /* \"#utility.yul\":1989:1995   */\n      dup3\n        /* \"#utility.yul\":1978:1987   */\n      dup7\n        /* \"#utility.yul\":1974:1996   */\n      add\n        /* \"#utility.yul\":1953:2006   */\n      tag_73\n      jump\t// in\n    tag_107:\n        /* \"#utility.yul\":1943:2006   */\n      swap2\n      pop\n        /* \"#utility.yul\":1898:2016   */\n      pop\n        /* \"#utility.yul\":1549:2023   */\n      swap3\n      pop\n      swap3\n      swap1\n      pop\n      jump\t// out\n        /* \"#utility.yul\":2029:2358   */\n    tag_20:\n        /* \"#utility.yul\":2088:2094   */\n      0x00\n        /* \"#utility.yul\":2137:2139   */\n      0x20\n        /* \"#utility.yul\":2125:2134   */\n      dup3\n        /* \"#utility.yul\":2116:2123   */\n      dup5\n        /* \"#utility.yul\":2112:2135   */\n      sub\n        /* \"#utility.yul\":2108:2140   */\n      slt\n        /* \"#utility.yul\":2105:2224   */\n      iszero\n      tag_109\n      jumpi\n        /* \"#utility.yul\":2143:2222   */\n      tag_110\n      tag_66\n      jump\t// in\n    tag_110:\n        /* \"#utility.yul\":2105:2224   */\n    tag_109:\n        /* \"#utility.yul\":2263:2264   */\n      0x00\n        /* \"#utility.yul\":2288:2341   */\n      tag_111\n        /* \"#utility.yul\":2333:2340   */\n      dup5\n        /* \"#utility.yul\":2324:2330   */\n      dup3\n        /* \"#utility.yul\":2313:2322   */\n      dup6\n        /* \"#utility.yul\":2309:2331   */\n      add\n        /* \"#utility.yul\":2288:2341   */\n      tag_71\n      jump\t// in\n    tag_111:\n        /* \"#utility.yul\":2278:2341   */\n      swap2\n      pop\n        /* \"#utility.yul\":2234:2351   */\n      pop\n        /* \"#utility.yul\":2029:2358   */\n      swap3\n      swap2\n      pop\n      pop\n      jump\t// out\n        /* \"#utility.yul\":2364:2482   */\n    tag_74:\n        /* \"#utility.yul\":2451:2475   */\n      tag_113\n        /* \"#utility.yul\":2469:2474   */\n      dup2\n        /* \"#utility.yul\":2451:2475   */\n      tag_69\n      jump\t// in\n    tag_113:\n        /* \"#utility.yul\":2446:2449   */\n      dup3\n        /* \"#utility.yul\":2439:2476   */\n      mstore\n        /* \"#utility.yul\":2364:2482   */\n      pop\n      pop\n      jump\t// out\n        /* \"#utility.yul\":2488:2710   */\n    tag_25:\n        /* \"#utility.yul\":2581:2585   */\n      0x00\n        /* \"#utility.yul\":2619:2621   */\n      0x20\n        /* \"#utility.yul\":2608:2617   */\n      dup3\n        /* \"#utility.yul\":2604:2622   */\n      add\n        /* \"#utility.yul\":2596:2622   */\n      swap1\n      pop\n        /* \"#utility.yul\":2632:2703   */\n      tag_115\n        /* \"#utility.yul\":2700:2701   */\n      0x00\n        /* \"#utility.yul\":2689:2698   */\n      dup4\n        /* \"#utility.yul\":2685:2702   */\n      add\n        /* \"#utility.yul\":2676:2682   */\n      dup5\n        /* \"#utility.yul\":2632:2703   */\n      tag_74\n      jump\t// in\n    tag_115:\n        /* \"#utility.yul\":2488:2710   */\n      swap3\n      swap2\n      pop\n      pop\n      jump\t// out\n        /* \"#utility.yul\":2716:2859   */\n    tag_75:\n        /* \"#utility.yul\":2773:2778   */\n      0x00\n        /* \"#utility.yul\":2804:2810   */\n      dup2\n        /* \"#utility.yul\":2798:2811   */\n      mload\n        /* \"#utility.yul\":2789:2811   */\n      swap1\n      pop\n        /* \"#utility.yul\":2820:2853   */\n      tag_117\n        /* \"#utility.yul\":2847:2852   */\n      dup2\n        /* \"#utility.yul\":2820:2853   */\n      tag_72\n      jump\t// in\n    tag_117:\n        /* \"#utility.yul\":2716:2859   */\n      swap3\n      swap2\n      pop\n      pop\n      jump\t// out\n        /* \"#utility.yul\":2865:3216   */\n    tag_38:\n        /* \"#utility.yul\":2935:2941   */\n      0x00\n        /* \"#utility.yul\":2984:2986   */\n      0x20\n        /* \"#utility.yul\":2972:2981   */\n      dup3\n        /* \"#utility.yul\":2963:2970   */\n      dup5\n        /* \"#utility.yul\":2959:2982   */\n      sub\n        /* \"#utility.yul\":2955:2987   */\n      slt\n        /* \"#utility.yul\":2952:3071   */\n      iszero\n      tag_119\n      jumpi\n        /* \"#utility.yul\":2990:3069   */\n      tag_120\n      tag_66\n      jump\t// in\n    tag_120:\n        /* \"#utility.yul\":2952:3071   */\n    tag_119:\n        /* \"#utility.yul\":3110:3111   */\n      0x00\n        /* \"#utility.yul\":3135:3199   */\n      tag_121\n        /* \"#utility.yul\":3191:3198   */\n      dup5\n        /* \"#utility.yul\":3182:3188   */\n      dup3\n        /* \"#utility.yul\":3171:3180   */\n      dup6\n        /* \"#utility.yul\":3167:3189   */\n      add\n        /* \"#utility.yul\":3135:3199   */\n      tag_75\n      jump\t// in\n    tag_121:\n        /* \"#utility.yul\":3125:3199   */\n      swap2\n      pop\n        /* \"#utility.yul\":3081:3209   */\n      pop\n        /* \"#utility.yul\":2865:3216   */\n      swap3\n      swap2\n      pop\n      pop\n      jump\t// out\n        /* \"#utility.yul\":3222:3402   */\n    tag_76:\n        /* \"#utility.yul\":3270:3347   */\n      0x4e487b7100000000000000000000000000000000000000000000000000000000\n        /* \"#utility.yul\":3267:3268   */\n      0x00\n        /* \"#utility.yul\":3260:3348   */\n      mstore\n        /* \"#utility.yul\":3367:3371   */\n      0x11\n        /* \"#utility.yul\":3364:3365   */\n      0x04\n        /* \"#utility.yul\":3357:3372   */\n      mstore\n        /* \"#utility.yul\":3391:3395   */\n      0x24\n        /* \"#utility.yul\":3388:3389   */\n      0x00\n        /* \"#utility.yul\":3381:3396   */\n      revert\n        /* \"#utility.yul\":3408:3599   */\n    tag_40:\n        /* \"#utility.yul\":3448:3451   */\n      0x00\n        /* \"#utility.yul\":3467:3487   */\n      tag_124\n        /* \"#utility.yul\":3485:3486   */\n      dup3\n        /* \"#utility.yul\":3467:3487   */\n      tag_63\n      jump\t// in\n    tag_124:\n        /* \"#utility.yul\":3462:3487   */\n      swap2\n      pop\n        /* \"#utility.yul\":3501:3521   */\n      tag_125\n        /* \"#utility.yul\":3519:3520   */\n      dup4\n        /* \"#utility.yul\":3501:3521   */\n      tag_63\n      jump\t// in\n    tag_125:\n        /* \"#utility.yul\":3496:3521   */\n      swap3\n      pop\n        /* \"#utility.yul\":3544:3545   */\n      dup3\n        /* \"#utility.yul\":3541:3542   */\n      dup3\n        /* \"#utility.yul\":3537:3546   */\n      add\n        /* \"#utility.yul\":3530:3546   */\n      swap1\n      pop\n        /* \"#utility.yul\":3565:3568   */\n      dup1\n        /* \"#utility.yul\":3562:3563   */\n      dup3\n        /* \"#utility.yul\":3559:3569   */\n      gt\n        /* \"#utility.yul\":3556:3592   */\n      iszero\n      tag_126\n      jumpi\n        /* \"#utility.yul\":3572:3590   */\n      tag_127\n      tag_76\n      jump\t// in\n    tag_127:\n        /* \"#utility.yul\":3556:3592   */\n    tag_126:\n        /* \"#utility.yul\":3408:3599   */\n      swap3\n      swap2\n      pop\n      pop\n      jump\t// out\n        /* \"#utility.yul\":3605:3799   */\n    tag_47:\n        /* \"#utility.yul\":3645:3649   */\n      0x00\n        /* \"#utility.yul\":3665:3685   */\n      tag_129\n        /* \"#utility.yul\":3683:3684   */\n      dup3\n        /* \"#utility.yul\":3665:3685   */\n      tag_63\n      jump\t// in\n    tag_129:\n        /* \"#utility.yul\":3660:3685   */\n      swap2\n      pop\n        /* \"#utility.yul\":3699:3719   */\n      tag_130\n        /* \"#utility.yul\":3717:3718   */\n      dup4\n        /* \"#utility.yul\":3699:3719   */\n      tag_63\n      jump\t// in\n    tag_130:\n        /* \"#utility.yul\":3694:3719   */\n      swap3\n      pop\n        /* \"#utility.yul\":3743:3744   */\n      dup3\n        /* \"#utility.yul\":3740:3741   */\n      dup3\n        /* \"#utility.yul\":3736:3745   */\n      sub\n        /* \"#utility.yul\":3728:3745   */\n      swap1\n      pop\n        /* \"#utility.yul\":3767:3768   */\n      dup2\n        /* \"#utility.yul\":3761:3765   */\n      dup2\n        /* \"#utility.yul\":3758:3769   */\n      gt\n        /* \"#utility.yul\":3755:3792   */\n      iszero\n      tag_131\n      jumpi\n        /* \"#utility.yul\":3772:3790   */\n      tag_132\n      tag_76\n      jump\t// in\n    tag_132:\n        /* \"#utility.yul\":3755:3792   */\n    tag_131:\n        /* \"#utility.yul\":3605:3799   */\n      swap3\n      swap2\n      pop\n      pop\n      jump\t// out\n        /* \"#utility.yul\":3805:4215   */\n    tag_49:\n        /* \"#utility.yul\":3845:3852   */\n      0x00\n        /* \"#utility.yul\":3868:3888   */\n      tag_134\n        /* \"#utility.yul\":3886:3887   */\n      dup3\n        /* \"#utility.yul\":3868:3888   */\n      tag_63\n      jump\t// in\n    tag_134:\n        /* \"#utility.yul\":3863:3888   */\n      swap2\n      pop\n        /* \"#utility.yul\":3902:3922   */\n      tag_135\n        /* \"#utility.yul\":3920:3921   */\n      dup4\n        /* \"#utility.yul\":3902:3922   */\n      tag_63\n      jump\t// in\n    tag_135:\n        /* \"#utility.yul\":3897:3922   */\n      swap3\n      pop\n        /* \"#utility.yul\":3957:3958   */\n      dup3\n        /* \"#utility.yul\":3954:3955   */\n      dup3\n        /* \"#utility.yul\":3950:3959   */\n      mul\n        /* \"#utility.yul\":3979:4009   */\n      tag_136\n        /* \"#utility.yul\":3997:4008   */\n      dup2\n        /* \"#utility.yul\":3979:4009   */\n      tag_63\n      jump\t// in\n    tag_136:\n        /* \"#utility.yul\":3968:4009   */\n      swap2\n      pop\n        /* \"#utility.yul\":4158:4159   */\n      dup3\n        /* \"#utility.yul\":4149:4156   */\n      dup3\n        /* \"#utility.yul\":4145:4160   */\n      div\n        /* \"#utility.yul\":4142:4143   */\n      dup5\n        /* \"#utility.yul\":4139:4161   */\n      eq\n        /* \"#utility.yul\":4119:4120   */\n      dup4\n        /* \"#utility.yul\":4112:4121   */\n      iszero\n        /* \"#utility.yul\":4092:4175   */\n      or\n        /* \"#utility.yul\":4069:4208   */\n      tag_137\n      jumpi\n        /* \"#utility.yul\":4188:4206   */\n      tag_138\n      tag_76\n      jump\t// in\n    tag_138:\n        /* \"#utility.yul\":4069:4208   */\n    tag_137:\n        /* \"#utility.yul\":3853:4215   */\n      pop\n        /* \"#utility.yul\":3805:4215   */\n      swap3\n      swap2\n      pop\n      pop\n      jump\t// out\n        /* \"#utility.yul\":4221:4401   */\n    tag_77:\n        /* \"#utility.yul\":4269:4346   */\n      0x4e487b7100000000000000000000000000000000000000000000000000000000\n        /* \"#utility.yul\":4266:4267   */\n      0x00\n        /* \"#utility.yul\":4259:4347   */\n      mstore\n        /* \"#utility.yul\":4366:4370   */\n      0x12\n        /* \"#utility.yul\":4363:4364   */\n      0x04\n        /* \"#utility.yul\":4356:4371   */\n      mstore\n        /* \"#utility.yul\":4390:4394   */\n      0x24\n        /* \"#utility.yul\":4387:4388   */\n      0x00\n        /* \"#utility.yul\":4380:4395   */\n      revert\n        /* \"#utility.yul\":4407:4592   */\n    tag_51:\n        /* \"#utility.yul\":4447:4448   */\n      0x00\n        /* \"#utility.yul\":4464:4484   */\n      tag_141\n        /* \"#utility.yul\":4482:4483   */\n      dup3\n        /* \"#utility.yul\":4464:4484   */\n      tag_63\n      jump\t// in\n    tag_141:\n        /* \"#utility.yul\":4459:4484   */\n      swap2\n      pop\n        /* \"#utility.yul\":4498:4518   */\n      tag_142\n        /* \"#utility.yul\":4516:4517   */\n      dup4\n        /* \"#utility.yul\":4498:4518   */\n      tag_63\n      jump\t// in\n    tag_142:\n        /* \"#utility.yul\":4493:4518   */\n      swap3\n      pop\n        /* \"#utility.yul\":4537:4538   */\n      dup3\n        /* \"#utility.yul\":4527:4562   */\n      tag_143\n      jumpi\n        /* \"#utility.yul\":4542:4560   */\n      tag_144\n      tag_77\n      jump\t// in\n    tag_144:\n        /* \"#utility.yul\":4527:4562   */\n    tag_143:\n        /* \"#utility.yul\":4584:4585   */\n      dup3\n        /* \"#utility.yul\":4581:4582   */\n      dup3\n        /* \"#utility.yul\":4577:4586   */\n      div\n        /* \"#utility.yul\":4572:4586   */\n      swap1\n      pop\n        /* \"#utility.yul\":4407:4592   */\n      swap3\n      swap2\n      pop\n      pop\n      jump\t// out\n        /* \"#utility.yul\":4598:4930   */\n    tag_58:\n        /* \"#utility.yul\":4719:4723   */\n      0x00\n        /* \"#utility.yul\":4757:4759   */\n      0x40\n        /* \"#utility.yul\":4746:4755   */\n      dup3\n        /* \"#utility.yul\":4742:4760   */\n      add\n        /* \"#utility.yul\":4734:4760   */\n      swap1\n      pop\n        /* \"#utility.yul\":4770:4841   */\n      tag_146\n        /* \"#utility.yul\":4838:4839   */\n      0x00\n        /* \"#utility.yul\":4827:4836   */\n      dup4\n        /* \"#utility.yul\":4823:4840   */\n      add\n        /* \"#utility.yul\":4814:4820   */\n      dup6\n        /* \"#utility.yul\":4770:4841   */\n      tag_74\n      jump\t// in\n    tag_146:\n        /* \"#utility.yul\":4851:4923   */\n      tag_147\n        /* \"#utility.yul\":4919:4921   */\n      0x20\n        /* \"#utility.yul\":4908:4917   */\n      dup4\n        /* \"#utility.yul\":4904:4922   */\n      add\n        /* \"#utility.yul\":4895:4901   */\n      dup5\n        /* \"#utility.yul\":4851:4923   */\n      tag_64\n      jump\t// in\n    tag_147:\n        /* \"#utility.yul\":4598:4930   */\n      swap4\n      swap3\n      pop\n      pop\n      pop\n      jump\t// out\n        /* \"#utility.yul\":4936:5026   */\n    tag_78:\n        /* \"#utility.yul\":4970:4977   */\n      0x00\n        /* \"#utility.yul\":5013:5018   */\n      dup2\n        /* \"#utility.yul\":5006:5019   */\n      iszero\n        /* \"#utility.yul\":4999:5020   */\n      iszero\n        /* \"#utility.yul\":4988:5020   */\n      swap1\n      pop\n        /* \"#utility.yul\":4936:5026   */\n      swap2\n      swap1\n      pop\n      jump\t// out\n        /* \"#utility.yul\":5032:5148   */\n    tag_79:\n        /* \"#utility.yul\":5102:5123   */\n      tag_150\n        /* \"#utility.yul\":5117:5122   */\n      dup2\n        /* \"#utility.yul\":5102:5123   */\n      tag_78\n      jump\t// in\n    tag_150:\n        /* \"#utility.yul\":5095:5100   */\n      dup2\n        /* \"#utility.yul\":5092:5124   */\n      eq\n        /* \"#utility.yul\":5082:5142   */\n      tag_151\n      jumpi\n        /* \"#utility.yul\":5138:5139   */\n      0x00\n        /* \"#utility.yul\":5135:5136   */\n      0x00\n        /* \"#utility.yul\":5128:5140   */\n      revert\n        /* \"#utility.yul\":5082:5142   */\n    tag_151:\n        /* \"#utility.yul\":5032:5148   */\n      pop\n      jump\t// out\n        /* \"#utility.yul\":5154:5291   */\n    tag_80:\n        /* \"#utility.yul\":5208:5213   */\n      0x00\n        /* \"#utility.yul\":5239:5245   */\n      dup2\n        /* \"#utility.yul\":5233:5246   */\n      mload\n        /* \"#utility.yul\":5224:5246   */\n      swap1\n      pop\n        /* \"#utility.yul\":5255:5285   */\n      tag_153\n        /* \"#utility.yul\":5279:5284   */\n      dup2\n        /* \"#utility.yul\":5255:5285   */\n      tag_79\n      jump\t// in\n    tag_153:\n        /* \"#utility.yul\":5154:5291   */\n      swap3\n      swap2\n      pop\n      pop\n      jump\t// out\n        /* \"#utility.yul\":5297:5642   */\n    tag_62:\n        /* \"#utility.yul\":5364:5370   */\n      0x00\n        /* \"#utility.yul\":5413:5415   */\n      0x20\n        /* \"#utility.yul\":5401:5410   */\n      dup3\n        /* \"#utility.yul\":5392:5399   */\n      dup5\n        /* \"#utility.yul\":5388:5411   */\n      sub\n        /* \"#utility.yul\":5384:5416   */\n      slt\n        /* \"#utility.yul\":5381:5500   */\n      iszero\n      tag_155\n      jumpi\n        /* \"#utility.yul\":5419:5498   */\n      tag_156\n      tag_66\n      jump\t// in\n    tag_156:\n        /* \"#utility.yul\":5381:5500   */\n    tag_155:\n        /* \"#utility.yul\":5539:5540   */\n      0x00\n        /* \"#utility.yul\":5564:5625   */\n      tag_157\n        /* \"#utility.yul\":5617:5624   */\n      dup5\n        /* \"#utility.yul\":5608:5614   */\n      dup3\n        /* \"#utility.yul\":5597:5606   */\n      dup6\n        /* \"#utility.yul\":5593:5615   */\n      add\n        /* \"#utility.yul\":5564:5625   */\n      tag_80\n      jump\t// in\n    tag_157:\n        /* \"#utility.yul\":5554:5625   */\n      swap2\n      pop\n        /* \"#utility.yul\":5510:5635   */\n      pop\n        /* \"#utility.yul\":5297:5642   */\n      swap3\n      swap2\n      pop\n      pop\n      jump\t// out\n\n    auxdata: 0xa2646970667358221220cad0dbbc8678b4a33ac033d200a3ecedf09b299e36b4a7ff9856cbac87153de064736f6c634300081e0033\n}\n",
				"bytecode": {
					"linkReferences": {},
					"object": "60e060405234801561000f575f5ffd5b50604051610b2c380380610b2c8339818101604052810190610031919061017b565b5f73ffffffffffffffffffffffffffffffffffffffff168273ffffffffffffffffffffffffffffffffffffffff160361009f576040517f08c379a000000000000000000000000000000000000000000000000000000000815260040161009690610239565b60405180910390fd5b8173ffffffffffffffffffffffffffffffffffffffff1660808173ffffffffffffffffffffffffffffffffffffffff16815250504260a081815250508060c081815250505050610257565b5f5ffd5b5f73ffffffffffffffffffffffffffffffffffffffff82169050919050565b5f610117826100ee565b9050919050565b6101278161010d565b8114610131575f5ffd5b50565b5f815190506101428161011e565b92915050565b5f819050919050565b61015a81610148565b8114610164575f5ffd5b50565b5f8151905061017581610151565b92915050565b5f5f60408385031215610191576101906100ea565b5b5f61019e85828601610134565b92505060206101af85828601610167565b9150509250929050565b5f82825260208201905092915050565b7f56657374696e6757616c6c65743a2062656e6566696369617279206973207a655f8201527f726f206164647265737300000000000000000000000000000000000000000000602082015250565b5f610223602a836101b9565b915061022e826101c9565b604082019050919050565b5f6020820190508181035f83015261025081610217565b9050919050565b60805160a05160c0516108816102ab5f395f818161013c0152818161025401526102b001525f818161022301528181610275015281816102d101526104e801525f818161042c01526104b001526108815ff3fe608060405234801561000f575f5ffd5b5060043610610060575f3560e01c80630fb5a6b41461006457806317cf53911461008257806319165587146100b257806338af3eed146100ce578063bbc702c6146100ec578063be9a65551461011c575b5f5ffd5b61006c61013a565b6040516100799190610522565b60405180910390f35b61009c600480360381019061009791906105c3565b61015e565b6040516100a99190610522565b60405180910390f35b6100cc60048036038101906100c79190610601565b61031a565b005b6100d66104ae565b6040516100e3919061063b565b60405180910390f35b61010660048036038101906101019190610601565b6104d2565b6040516101139190610522565b60405180910390f35b6101246104e6565b6040516101319190610522565b60405180910390f35b7f000000000000000000000000000000000000000000000000000000000000000081565b5f5f5f5f8573ffffffffffffffffffffffffffffffffffffffff1673ffffffffffffffffffffffffffffffffffffffff1681526020019081526020015f20548473ffffffffffffffffffffffffffffffffffffffff166370a08231306040518263ffffffff1660e01b81526004016101d6919061063b565b602060405180830381865afa1580156101f1573d5f5f3e3d5ffd5b505050506040513d601f19601f820116820180604052508101906102159190610668565b61021f91906106c0565b90507f0000000000000000000000000000000000000000000000000000000000000000831015610252575f915050610314565b7f00000000000000000000000000000000000000000000000000000000000000007f000000000000000000000000000000000000000000000000000000000000000061029e91906106c0565b8311156102ae5780915050610314565b7f00000000000000000000000000000000000000000000000000000000000000007f0000000000000000000000000000000000000000000000000000000000000000846102fb91906106f3565b826103069190610726565b6103109190610794565b9150505b92915050565b5f5f5f8373ffffffffffffffffffffffffffffffffffffffff1673ffffffffffffffffffffffffffffffffffffffff1681526020019081526020015f2054610362834261015e565b61036c91906106f3565b9050805f5f8473ffffffffffffffffffffffffffffffffffffffff1673ffffffffffffffffffffffffffffffffffffffff1681526020019081526020015f205f8282546103b991906106c0565b925050819055508173ffffffffffffffffffffffffffffffffffffffff167fc0e523490dd523c33b1878c9eb14ff46991e3f5b2cd33710918618f2a39cba1b826040516104069190610522565b60405180910390a28173ffffffffffffffffffffffffffffffffffffffff1663a9059cbb7f0000000000000000000000000000000000000000000000000000000000000000836040518363ffffffff1660e01b81526004016104699291906107c4565b6020604051808303815f875af1158015610485573d5f5f3e3d5ffd5b505050506040513d601f19601f820116820180604052508101906104a99190610820565b505050565b7f000000000000000000000000000000000000000000000000000000000000000081565b5f602052805f5260405f205f915090505481565b7f000000000000000000000000000000000000000000000000000000000000000081565b5f819050919050565b61051c8161050a565b82525050565b5f6020820190506105355f830184610513565b92915050565b5f5ffd5b5f73ffffffffffffffffffffffffffffffffffffffff82169050919050565b5f6105688261053f565b9050919050565b6105788161055e565b8114610582575f5ffd5b50565b5f813590506105938161056f565b92915050565b6105a28161050a565b81146105ac575f5ffd5b50565b5f813590506105bd81610599565b92915050565b5f5f604083850312156105d9576105d861053b565b5b5f6105e685828601610585565b92505060206105f7858286016105af565b9150509250929050565b5f602082840312156106165761061561053b565b5b5f61062384828501610585565b91505092915050565b6106358161055e565b82525050565b5f60208201905061064e5f83018461062c565b92915050565b5f8151905061066281610599565b92915050565b5f6020828403121561067d5761067c61053b565b5b5f61068a84828501610654565b91505092915050565b7f4e487b71000000000000000000000000000000000000000000000000000000005f52601160045260245ffd5b5f6106ca8261050a565b91506106d58361050a565b92508282019050808211156106ed576106ec610693565b5b92915050565b5f6106fd8261050a565b91506107088361050a565b92508282039050818111156107205761071f610693565b5b92915050565b5f6107308261050a565b915061073b8361050a565b92508282026107498161050a565b915082820484148315176107605761075f610693565b5b5092915050565b7f4e487b71000000000000000000000000000000000000000000000000000000005f52601260045260245ffd5b5f61079e8261050a565b91506107a98361050a565b9250826107b9576107b8610767565b5b828204905092915050565b5f6040820190506107d75f83018561062c565b6107e46020830184610513565b9392505050565b5f8115159050919050565b6107ff816107eb565b8114610809575f5ffd5b50565b5f8151905061081a816107f6565b92915050565b5f602082840312156108355761083461053b565b5b5f6108428482850161080c565b9150509291505056fea2646970667358221220cad0dbbc8678b4a33ac033d200a3ecedf09b299e36b4a7ff9856cbac87153de064736f6c634300081e0033",
					"opcodes": "PUSH1 0xE0 PUSH1 0x40 MSTORE CALLVALUE DUP1 ISZERO PUSH2 0xF JUMPI PUSH0 PUSH0 REVERT JUMPDEST POP PUSH1 0x40 MLOAD PUSH2 0xB2C CODESIZE SUB DUP1 PUSH2 0xB2C DUP4 CODECOPY DUP2 DUP2 ADD PUSH1 0x40 MSTORE DUP2 ADD SWAP1 PUSH2 0x31 SWAP2 SWAP1 PUSH2 0x17B JUMP JUMPDEST PUSH0 PUSH20 0xFFFFFFFFFFFFFFFFFFFFFFFFFFFFFFFFFFFFFFFF AND DUP3 PUSH20 0xFFFFFFFFFFFFFFFFFFFFFFFFFFFFFFFFFFFFFFFF AND SUB PUSH2 0x9F JUMPI PUSH1 0x40 MLOAD PUSH32 0x8C379A000000000000000000000000000000000000000000000000000000000 DUP2 MSTORE PUSH1 0x4 ADD PUSH2 0x96 SWAP1 PUSH2 0x239 JUMP JUMPDEST PUSH1 0x40 MLOAD DUP1 SWAP2 SUB SWAP1 REVERT JUMPDEST DUP2 PUSH20 0xFFFFFFFFFFFFFFFFFFFFFFFFFFFFFFFFFFFFFFFF AND PUSH1 0x80 DUP2 PUSH20 0xFFFFFFFFFFFFFFFFFFFFFFFFFFFFFFFFFFFFFFFF AND DUP2 MSTORE POP POP TIMESTAMP PUSH1 0xA0 DUP2 DUP2 MSTORE POP POP DUP1 PUSH1 0xC0 DUP2 DUP2 MSTORE POP POP POP POP PUSH2 0x257 JUMP JUMPDEST PUSH0 PUSH0 REVERT JUMPDEST PUSH0 PUSH20 0xFFFFFFFFFFFFFFFFFFFFFFFFFFFFFFFFFFFFFFFF DUP3 AND SWAP1 POP SWAP2 SWAP1 POP JUMP JUMPDEST PUSH0 PUSH2 0x117 DUP3 PUSH2 0xEE JUMP JUMPDEST SWAP1 POP SWAP2 SWAP1 POP JUMP JUMPDEST PUSH2 0x127 DUP2 PUSH2 0x10D JUMP JUMPDEST DUP2 EQ PUSH2 0x131 JUMPI PUSH0 PUSH0 REVERT JUMPDEST POP JUMP JUMPDEST PUSH0 DUP2 MLOAD SWAP1 POP PUSH2 0x142 DUP2 PUSH2 0x11E JUMP JUMPDEST SWAP3 SWAP2 POP POP JUMP JUMPDEST PUSH0 DUP2 SWAP1 POP SWAP2 SWAP1 POP JUMP JUMPDEST PUSH2 0x15A DUP2 PUSH2 0x148 JUMP JUMPDEST DUP2 EQ PUSH2 0x164 JUMPI PUSH0 PUSH0 REVERT JUMPDEST POP JUMP JUMPDEST PUSH0 DUP2 MLOAD SWAP1 POP PUSH2 0x175 DUP2 PUSH2 0x151 JUMP JUMPDEST SWAP3 SWAP2 POP POP JUMP JUMPDEST PUSH0 PUSH0 PUSH1 0x40 DUP4 DUP6 SUB SLT ISZERO PUSH2 0x191 JUMPI PUSH2 0x190 PUSH2 0xEA JUMP JUMPDEST JUMPDEST PUSH0 PUSH2 0x19E DUP6 DUP3 DUP7 ADD PUSH2 0x134 JUMP JUMPDEST SWAP3 POP POP PUSH1 0x20 PUSH2 0x1AF DUP6 DUP3 DUP7 ADD PUSH2 0x167 JUMP JUMPDEST SWAP2 POP POP SWAP3 POP SWAP3 SWAP1 POP JUMP JUMPDEST PUSH0 DUP3 DUP3 MSTORE PUSH1 0x20 DUP3 ADD SWAP1 POP SWAP3 SWAP2 POP POP JUMP JUMPDEST PUSH32 0x56657374696E6757616C6C65743A2062656E6566696369617279206973207A65 PUSH0 DUP3 ADD MSTORE PUSH32 0x726F206164647265737300000000000000000000000000000000000000000000 PUSH1 0x20 DUP3 ADD MSTORE POP JUMP JUMPDEST PUSH0 PUSH2 0x223 PUSH1 0x2A DUP4 PUSH2 0x1B9 JUMP JUMPDEST SWAP2 POP PUSH2 0x22E DUP3 PUSH2 0x1C9 JUMP JUMPDEST PUSH1 0x40 DUP3 ADD SWAP1 POP SWAP2 SWAP1 POP JUMP JUMPDEST PUSH0 PUSH1 0x20 DUP3 ADD SWAP1 POP DUP2 DUP2 SUB PUSH0 DUP4 ADD MSTORE PUSH2 0x250 DUP2 PUSH2 0x217 JUMP JUMPDEST SWAP1 POP SWAP2 SWAP1 POP JUMP JUMPDEST PUSH1 0x80 MLOAD PUSH1 0xA0 MLOAD PUSH1 0xC0 MLOAD PUSH2 0x881 PUSH2 0x2AB PUSH0 CODECOPY PUSH0 DUP2 DUP2 PUSH2 0x13C ADD MSTORE DUP2 DUP2 PUSH2 0x254 ADD MSTORE PUSH2 0x2B0 ADD MSTORE PUSH0 DUP2 DUP2 PUSH2 0x223 ADD MSTORE DUP2 DUP2 PUSH2 0x275 ADD MSTORE DUP2 DUP2 PUSH2 0x2D1 ADD MSTORE PUSH2 0x4E8 ADD MSTORE PUSH0 DUP2 DUP2 PUSH2 0x42C ADD MSTORE PUSH2 0x4B0 ADD MSTORE PUSH2 0x881 PUSH0 RETURN INVALID PUSH1 0x80 PUSH1 0x40 MSTORE CALLVALUE DUP1 ISZERO PUSH2 0xF JUMPI PUSH0 PUSH0 REVERT JUMPDEST POP PUSH1 0x4 CALLDATASIZE LT PUSH2 0x60 JUMPI PUSH0 CALLDATALOAD PUSH1 0xE0 SHR DUP1 PUSH4 0xFB5A6B4 EQ PUSH2 0x64 JUMPI DUP1 PUSH4 0x17CF5391 EQ PUSH2 0x82 JUMPI DUP1 PUSH4 0x19165587 EQ PUSH2 0xB2 JUMPI DUP1 PUSH4 0x38AF3EED EQ PUSH2 0xCE JUMPI DUP1 PUSH4 0xBBC702C6 EQ PUSH2 0xEC JUMPI DUP1 PUSH4 0xBE9A6555 EQ PUSH2 0x11C JUMPI JUMPDEST PUSH0 PUSH0 REVERT JUMPDEST PUSH2 0x6C PUSH2 0x13A JUMP JUMPDEST PUSH1 0x40 MLOAD PUSH2 0x79 SWAP2 SWAP1 PUSH2 0x522 JUMP JUMPDEST PUSH1 0x40 MLOAD DUP1 SWAP2 SUB SWAP1 RETURN JUMPDEST PUSH2 0x9C PUSH1 0x4 DUP1 CALLDATASIZE SUB DUP2 ADD SWAP1 PUSH2 0x97 SWAP2 SWAP1 PUSH2 0x5C3 JUMP JUMPDEST PUSH2 0x15E JUMP JUMPDEST PUSH1 0x40 MLOAD PUSH2 0xA9 SWAP2 SWAP1 PUSH2 0x522 JUMP JUMPDEST PUSH1 0x40 MLOAD DUP1 SWAP2 SUB SWAP1 RETURN JUMPDEST PUSH2 0xCC PUSH1 0x4 DUP1 CALLDATASIZE SUB DUP2 ADD SWAP1 PUSH2 0xC7 SWAP2 SWAP1 PUSH2 0x601 JUMP JUMPDEST PUSH2 0x31A JUMP JUMPDEST STOP JUMPDEST PUSH2 0xD6 PUSH2 0x4AE JUMP JUMPDEST PUSH1 0x40 MLOAD PUSH2 0xE3 SWAP2 SWAP1 PUSH2 0x63B JUMP JUMPDEST PUSH1 0x40 MLOAD DUP1 SWAP2 SUB SWAP1 RETURN JUMPDEST PUSH2 0x106 PUSH1 0x4 DUP1 CALLDATASIZE SUB DUP2 ADD SWAP1 PUSH2 0x101 SWAP2 SWAP1 PUSH2 0x601 JUMP JUMPDEST PUSH2 0x4D2 JUMP JUMPDEST PUSH1 0x40 MLOAD PUSH2 0x113 SWAP2 SWAP1 PUSH2 0x522 JUMP JUMPDEST PUSH1 0x40 MLOAD DUP1 SWAP2 SUB SWAP1 RETURN JUMPDEST PUSH2 0x124 PUSH2 0x4E6 JUMP JUMPDEST PUSH1 0x40 MLOAD PUSH2 0x131 SWAP2 SWAP1 PUSH2 0x522 JUMP JUMPDEST PUSH1 0x40 MLOAD DUP1 SWAP2 SUB SWAP1 RETURN JUMPDEST PUSH32 0x0 DUP2 JUMP JUMPDEST PUSH0 PUSH0 PUSH0 PUSH0 DUP6 PUSH20 0xFFFFFFFFFFFFFFFFFFFFFFFFFFFFFFFFFFFFFFFF AND PUSH20 0xFFFFFFFFFFFFFFFFFFFFFFFFFFFFFFFFFFFFFFFF AND DUP2 MSTORE PUSH1 0x20 ADD SWAP1 DUP2 MSTORE PUSH1 0x20 ADD PUSH0 KECCAK256 SLOAD DUP5 PUSH20 0xFFFFFFFFFFFFFFFFFFFFFFFFFFFFFFFFFFFFFFFF AND PUSH4 0x70A08231 ADDRESS PUSH1 0x40 MLOAD DUP3 PUSH4 0xFFFFFFFF AND PUSH1 0xE0 SHL DUP2 MSTORE PUSH1 0x4 ADD PUSH2 0x1D6 SWAP2 SWAP1 PUSH2 0x63B JUMP JUMPDEST PUSH1 0x20 PUSH1 0x40 MLOAD DUP1 DUP4 SUB DUP2 DUP7 GAS STATICCALL ISZERO DUP1 ISZERO PUSH2 0x1F1 JUMPI RETURNDATASIZE PUSH0 PUSH0 RETURNDATACOPY RETURNDATASIZE PUSH0 REVERT JUMPDEST POP POP POP POP PUSH1 0x40 MLOAD RETURNDATASIZE PUSH1 0x1F NOT PUSH1 0x1F DUP3 ADD AND DUP3 ADD DUP1 PUSH1 0x40 MSTORE POP DUP2 ADD SWAP1 PUSH2 0x215 SWAP2 SWAP1 PUSH2 0x668 JUMP JUMPDEST PUSH2 0x21F SWAP2 SWAP1 PUSH2 0x6C0 JUMP JUMPDEST SWAP1 POP PUSH32 0x0 DUP4 LT ISZERO PUSH2 0x252 JUMPI PUSH0 SWAP2 POP POP PUSH2 0x314 JUMP JUMPDEST PUSH32 0x0 PUSH32 0x0 PUSH2 0x29E SWAP2 SWAP1 PUSH2 0x6C0 JUMP JUMPDEST DUP4 GT ISZERO PUSH2 0x2AE JUMPI DUP1 SWAP2 POP POP PUSH2 0x314 JUMP JUMPDEST PUSH32 0x0 PUSH32 0x0 DUP5 PUSH2 0x2FB SWAP2 SWAP1 PUSH2 0x6F3 JUMP JUMPDEST DUP3 PUSH2 0x306 SWAP2 SWAP1 PUSH2 0x726 JUMP JUMPDEST PUSH2 0x310 SWAP2 SWAP1 PUSH2 0x794 JUMP JUMPDEST SWAP2 POP POP JUMPDEST SWAP3 SWAP2 POP POP JUMP JUMPDEST PUSH0 PUSH0 PUSH0 DUP4 PUSH20 0xFFFFFFFFFFFFFFFFFFFFFFFFFFFFFFFFFFFFFFFF AND PUSH20 0xFFFFFFFFFFFFFFFFFFFFFFFFFFFFFFFFFFFFFFFF AND DUP2 MSTORE PUSH1 0x20 ADD SWAP1 DUP2 MSTORE PUSH1 0x20 ADD PUSH0 KECCAK256 SLOAD PUSH2 0x362 DUP4 TIMESTAMP PUSH2 0x15E JUMP JUMPDEST PUSH2 0x36C SWAP2 SWAP1 PUSH2 0x6F3 JUMP JUMPDEST SWAP1 POP DUP1 PUSH0 PUSH0 DUP5 PUSH20 0xFFFFFFFFFFFFFFFFFFFFFFFFFFFFFFFFFFFFFFFF AND PUSH20 0xFFFFFFFFFFFFFFFFFFFFFFFFFFFFFFFFFFFFFFFF AND DUP2 MSTORE PUSH1 0x20 ADD SWAP1 DUP2 MSTORE PUSH1 0x20 ADD PUSH0 KECCAK256 PUSH0 DUP3 DUP3 SLOAD PUSH2 0x3B9 SWAP2 SWAP1 PUSH2 0x6C0 JUMP JUMPDEST SWAP3 POP POP DUP2 SWAP1 SSTORE POP DUP2 PUSH20 0xFFFFFFFFFFFFFFFFFFFFFFFFFFFFFFFFFFFFFFFF AND PUSH32 0xC0E523490DD523C33B1878C9EB14FF46991E3F5B2CD33710918618F2A39CBA1B DUP3 PUSH1 0x40 MLOAD PUSH2 0x406 SWAP2 SWAP1 PUSH2 0x522 JUMP JUMPDEST PUSH1 0x40 MLOAD DUP1 SWAP2 SUB SWAP1 LOG2 DUP2 PUSH20 0xFFFFFFFFFFFFFFFFFFFFFFFFFFFFFFFFFFFFFFFF AND PUSH4 0xA9059CBB PUSH32 0x0 DUP4 PUSH1 0x40 MLOAD DUP4 PUSH4 0xFFFFFFFF AND PUSH1 0xE0 SHL DUP2 MSTORE PUSH1 0x4 ADD PUSH2 0x469 SWAP3 SWAP2 SWAP1 PUSH2 0x7C4 JUMP JUMPDEST PUSH1 0x20 PUSH1 0x40 MLOAD DUP1 DUP4 SUB DUP2 PUSH0 DUP8 GAS CALL ISZERO DUP1 ISZERO PUSH2 0x485 JUMPI RETURNDATASIZE PUSH0 PUSH0 RETURNDATACOPY RETURNDATASIZE PUSH0 REVERT JUMPDEST POP POP POP POP PUSH1 0x40 MLOAD RETURNDATASIZE PUSH1 0x1F NOT PUSH1 0x1F DUP3 ADD AND DUP3 ADD DUP1 PUSH1 0x40 MSTORE POP DUP2 ADD SWAP1 PUSH2 0x4A9 SWAP2 SWAP1 PUSH2 0x820 JUMP JUMPDEST POP POP POP JUMP JUMPDEST PUSH32 0x0 DUP2 JUMP JUMPDEST PUSH0 PUSH1 0x20 MSTORE DUP1 PUSH0 MSTORE PUSH1 0x40 PUSH0 KECCAK256 PUSH0 SWAP2 POP SWAP1 POP SLOAD DUP2 JUMP JUMPDEST PUSH32 0x0 DUP2 JUMP JUMPDEST PUSH0 DUP2 SWAP1 POP SWAP2 SWAP1 POP JUMP JUMPDEST PUSH2 0x51C DUP2 PUSH2 0x50A JUMP JUMPDEST DUP3 MSTORE POP POP JUMP JUMPDEST PUSH0 PUSH1 0x20 DUP3 ADD SWAP1 POP PUSH2 0x535 PUSH0 DUP4 ADD DUP5 PUSH2 0x513 JUMP JUMPDEST SWAP3 SWAP2 POP POP JUMP JUMPDEST PUSH0 PUSH0 REVERT JUMPDEST PUSH0 PUSH20 0xFFFFFFFFFFFFFFFFFFFFFFFFFFFFFFFFFFFFFFFF DUP3 AND SWAP1 POP SWAP2 SWAP1 POP JUMP JUMPDEST PUSH0 PUSH2 0x568 DUP3 PUSH2 0x53F JUMP JUMPDEST SWAP1 POP SWAP2 SWAP1 POP JUMP JUMPDEST PUSH2 0x578 DUP2 PUSH2 0x55E JUMP JUMPDEST DUP2 EQ PUSH2 0x582 JUMPI PUSH0 PUSH0 REVERT JUMPDEST POP JUMP JUMPDEST PUSH0 DUP2 CALLDATALOAD SWAP1 POP PUSH2 0x593 DUP2 PUSH2 0x56F JUMP JUMPDEST SWAP3 SWAP2 POP POP JUMP JUMPDEST PUSH2 0x5A2 DUP2 PUSH2 0x50A JUMP JUMPDEST DUP2 EQ PUSH2 0x5AC JUMPI PUSH0 PUSH0 REVERT JUMPDEST POP JUMP JUMPDEST PUSH0 DUP2 CALLDATALOAD SWAP1 POP PUSH2 0x5BD DUP2 PUSH2 0x599 JUMP JUMPDEST SWAP3 SWAP2 POP POP JUMP JUMPDEST PUSH0 PUSH0 PUSH1 0x40 DUP4 DUP6 SUB SLT ISZERO PUSH2 0x5D9 JUMPI PUSH2 0x5D8 PUSH2 0x53B JUMP JUMPDEST JUMPDEST PUSH0 PUSH2 0x5E6 DUP6 DUP3 DUP7 ADD PUSH2 0x585 JUMP JUMPDEST SWAP3 POP POP PUSH1 0x20 PUSH2 0x5F7 DUP6 DUP3 DUP7 ADD PUSH2 0x5AF JUMP JUMPDEST SWAP2 POP POP SWAP3 POP SWAP3 SWAP1 POP JUMP JUMPDEST PUSH0 PUSH1 0x20 DUP3 DUP5 SUB SLT ISZERO PUSH2 0x616 JUMPI PUSH2 0x615 PUSH2 0x53B JUMP JUMPDEST JUMPDEST PUSH0 PUSH2 0x623 DUP5 DUP3 DUP6 ADD PUSH2 0x585 JUMP JUMPDEST SWAP2 POP POP SWAP3 SWAP2 POP POP JUMP JUMPDEST PUSH2 0x635 DUP2 PUSH2 0x55E JUMP JUMPDEST DUP3 MSTORE POP POP JUMP JUMPDEST PUSH0 PUSH1 0x20 DUP3 ADD SWAP1 POP PUSH2 0x64E PUSH0 DUP4 ADD DUP5 PUSH2 0x62C JUMP JUMPDEST SWAP3 SWAP2 POP POP JUMP JUMPDEST PUSH0 DUP2 MLOAD SWAP1 POP PUSH2 0x662 DUP2 PUSH2 0x599 JUMP JUMPDEST SWAP3 SWAP2 POP POP JUMP JUMPDEST PUSH0 PUSH1 0x20 DUP3 DUP5 SUB SLT ISZERO PUSH2 0x67D JUMPI PUSH2 0x67C PUSH2 0x53B JUMP JUMPDEST JUMPDEST PUSH0 PUSH2 0x68A DUP5 DUP3 DUP6 ADD PUSH2 0x654 JUMP JUMPDEST SWAP2 POP POP SWAP3 SWAP2 POP POP JUMP JUMPDEST PUSH32 0x4E487B7100000000000000000000000000000000000000000000000000000000 PUSH0 MSTORE PUSH1 0x11 PUSH1 0x4 MSTORE PUSH1 0x24 PUSH0 REVERT JUMPDEST PUSH0 PUSH2 0x6CA DUP3 PUSH2 0x50A JUMP JUMPDEST SWAP2 POP PUSH2 0x6D5 DUP4 PUSH2 0x50A JUMP JUMPDEST SWAP3 POP DUP3 DUP3 ADD SWAP1 POP DUP1 DUP3 GT ISZERO PUSH2 0x6ED JUMPI PUSH2 0x6EC PUSH2 0x693 JUMP JUMPDEST JUMPDEST SWAP3 SWAP2 POP POP JUMP JUMPDEST PUSH0 PUSH2 0x6FD DUP3 PUSH2 0x50A JUMP JUMPDEST SWAP2 POP PUSH2 0x708 DUP4 PUSH2 0x50A JUMP JUMPDEST SWAP3 POP DUP3 DUP3 SUB SWAP1 POP DUP2 DUP2 GT ISZERO PUSH2 0x720 JUMPI PUSH2 0x71F PUSH2 0x693 JUMP JUMPDEST JUMPDEST SWAP3 SWAP2 POP POP JUMP JUMPDEST PUSH0 PUSH2 0x730 DUP3 PUSH2 0x50A JUMP JUMPDEST SWAP2 POP PUSH2 0x73B DUP4 PUSH2 0x50A JUMP JUMPDEST SWAP3 POP DUP3 DUP3 MUL PUSH2 0x749 DUP2 PUSH2 0x50A JUMP JUMPDEST SWAP2 POP DUP3 DUP3 DIV DUP5 EQ DUP4 ISZERO OR PUSH2 0x760 JUMPI PUSH2 0x75F PUSH2 0x693 JUMP JUMPDEST JUMPDEST POP SWAP3 SWAP2 POP POP JUMP JUMPDEST PUSH32 0x4E487B7100000000000000000000000000000000000000000000000000000000 PUSH0 MSTORE PUSH1 0x12 PUSH1 0x4 MSTORE PUSH1 0x24 PUSH0 REVERT JUMPDEST PUSH0 PUSH2 0x79E DUP3 PUSH2 0x50A JUMP JUMPDEST SWAP2 POP PUSH2 0x7A9 DUP4 PUSH2 0x50A JUMP JUMPDEST SWAP3 POP DUP3 PUSH2 0x7B9 JUMPI PUSH2 0x7B8 PUSH2 0x767 JUMP JUMPDEST JUMPDEST DUP3 DUP3 DIV SWAP1 POP SWAP3 SWAP2 POP POP JUMP JUMPDEST PUSH0 PUSH1 0x40 DUP3 ADD SWAP1 POP PUSH2 0x7D7 PUSH0 DUP4 ADD DUP6 PUSH2 0x62C JUMP JUMPDEST PUSH2 0x7E4 PUSH1 0x20 DUP4 ADD DUP5 PUSH2 0x513 JUMP JUMPDEST SWAP4 SWAP3 POP POP POP JUMP JUMPDEST PUSH0 DUP2 ISZERO ISZERO SWAP1 POP SWAP2 SWAP1 POP JUMP JUMPDEST PUSH2 0x7FF DUP2 PUSH2 0x7EB JUMP JUMPDEST DUP2 EQ PUSH2 0x809 JUMPI PUSH0 PUSH0 REVERT JUMPDEST POP JUMP JUMPDEST PUSH0 DUP2 MLOAD SWAP1 POP PUSH2 0x81A DUP2 PUSH2 0x7F6 JUMP JUMPDEST SWAP3 SWAP2 POP POP JUMP JUMPDEST PUSH0 PUSH1 0x20 DUP3 DUP5 SUB SLT ISZERO PUSH2 0x835 JUMPI PUSH2 0x834 PUSH2 0x53B JUMP JUMPDEST JUMPDEST PUSH0 PUSH2 0x842 DUP5 DUP3 DUP6 ADD PUSH2 0x80C JUMP JUMPDEST SWAP2 POP POP SWAP3 SWAP2 POP POP JUMP INVALID LOG2 PUSH5 0x6970667358 0x22 SLT KECCAK256 0xCA 0xD0 0xDB 0xBC DUP7 PUSH25 0xB4A33AC033D200A3ECEDF09B299E36B4A7FF9856CBAC87153D RJUMP 0x6473 PUSH16 0x6C634300081E00330000000000000000 "
				},
				"gasEstimates": {
					"creation": {
						"codeDepositCost": "435400",
						"executionCost": "infinite",
						"totalCost": "infinite"
					},
					"external": {
						"beneficiary()": "infinite",
						"duration()": "infinite",
						"erc20Released(address)": "2867",
						"release(address)": "infinite",
						"start()": "infinite",
						"vestedAmount(address,uint256)": "infinite"
					}
				},
				"methodIdentifiers": {
					"beneficiary()": "38af3eed",
					"duration()": "0fb5a6b4",
					"erc20Released(address)": "bbc702c6",
					"release(address)": "19165587",
					"start()": "be9a6555",
					"vestedAmount(address,uint256)": "17cf5391"
				}
			},
			"storageLayout": {
				"storage": [
					{
						"astId": 293,
						"contract": "43_TokenVesting/TokenVesting.sol:TokenVesting",
						"label": "erc20Released",
						"offset": 0,
						"slot": "0",
						"type": "t_mapping(t_address,t_uint256)"
					}
				],
				"types": {
					"t_address": {
						"encoding": "inplace",
						"label": "address",
						"numberOfBytes": "20"
					},
					"t_mapping(t_address,t_uint256)": {
						"encoding": "mapping",
						"key": "t_address",
						"label": "mapping(address => uint256)",
						"numberOfBytes": "32",
						"value": "t_uint256"
					},
					"t_uint256": {
						"encoding": "inplace",
						"label": "uint256",
						"numberOfBytes": "32"
					}
				}
			},
			"userdoc": {
				"kind": "user",
				"methods": {},
				"version": 1
			}
		}
	}
}