{
	"34_ERC721/ERC721.sol": {
		"ERC721": {
			"abi": [
				{
					"inputs": [
						{
							"internalType": "string",
							"name": "_name",
							"type": "string"
						},
						{
							"internalType": "string",
							"name": "_symbol",
							"type": "string"
						}
					],
					"stateMutability": "nonpayable",
					"type": "constructor"
				},
				{
					"inputs": [
						{
							"internalType": "address",
							"name": "receiver",
							"type": "address"
						}
					],
					"name": "InvaildERC721Receiver",
					"type": "error"
				},
				{
					"anonymous": false,
					"inputs": [
						{
							"indexed": true,
							"internalType": "address",
							"name": "owner",
							"type": "address"
						},
						{
							"indexed": true,
							"internalType": "address",
							"name": "operator",
							"type": "address"
						},
						{
							"indexed": true,
							"internalType": "uint256",
							"name": "tokenId",
							"type": "uint256"
						}
					],
					"name": "Approval",
					"type": "event"
				},
				{
					"anonymous": false,
					"inputs": [
						{
							"indexed": true,
							"internalType": "address",
							"name": "owner",
							"type": "address"
						},
						{
							"indexed": true,
							"internalType": "address",
							"name": "operator",
							"type": "address"
						},
						{
							"indexed": true,
							"internalType": "bool",
							"name": "approved",
							"type": "bool"
						}
					],
					"name": "ApprovalForAll",
					"type": "event"
				},
				{
					"anonymous": false,
					"inputs": [
						{
							"indexed": true,
							"internalType": "address",
							"name": "from",
							"type": "address"
						},
						{
							"indexed": true,
							"internalType": "address",
							"name": "to",
							"type": "address"
						},
						{
							"indexed": true,
							"internalType": "uint256",
							"name": "tokenId",
							"type": "uint256"
						}
					],
					"name": "Transfer",
					"type": "event"
				},
				{
					"inputs": [
						{
							"internalType": "address",
							"name": "",
							"type": "address"
						}
					],
					"name": "_balances",
					"outputs": [
						{
							"internalType": "uint256",
							"name": "",
							"type": "uint256"
						}
					],
					"stateMutability": "view",
					"type": "function"
				},
				{
					"inputs": [
						{
							"internalType": "address",
							"name": "",
							"type": "address"
						},
						{
							"internalType": "address",
							"name": "",
							"type": "address"
						}
					],
					"name": "_operatorApprovals",
					"outputs": [
						{
							"internalType": "bool",
							"name": "",
							"type": "bool"
						}
					],
					"stateMutability": "view",
					"type": "function"
				},
				{
					"inputs": [
						{
							"internalType": "uint256",
							"name": "",
							"type": "uint256"
						}
					],
					"name": "_owners",
					"outputs": [
						{
							"internalType": "address",
							"name": "",
							"type": "address"
						}
					],
					"stateMutability": "view",
					"type": "function"
				},
				{
					"inputs": [
						{
							"internalType": "uint256",
							"name": "",
							"type": "uint256"
						}
					],
					"name": "_tokenApprovals",
					"outputs": [
						{
							"internalType": "address",
							"name": "",
							"type": "address"
						}
					],
					"stateMutability": "view",
					"type": "function"
				},
				{
					"inputs": [
						{
							"internalType": "uint256",
							"name": "tokenId",
							"type": "uint256"
						},
						{
							"internalType": "address",
							"name": "operator",
							"type": "address"
						}
					],
					"name": "approve",
					"outputs": [],
					"stateMutability": "nonpayable",
					"type": "function"
				},
				{
					"inputs": [
						{
							"internalType": "address",
							"name": "owner",
							"type": "address"
						}
					],
					"name": "balanceOf",
					"outputs": [
						{
							"internalType": "uint256",
							"name": "balance",
							"type": "uint256"
						}
					],
					"stateMutability": "view",
					"type": "function"
				},
				{
					"inputs": [
						{
							"internalType": "uint256",
							"name": "tokenId",
							"type": "uint256"
						}
					],
					"name": "getApproved",
					"outputs": [
						{
							"internalType": "address",
							"name": "operator",
							"type": "address"
						}
					],
					"stateMutability": "view",
					"type": "function"
				},
				{
					"inputs": [
						{
							"internalType": "address",
							"name": "operator",
							"type": "address"
						}
					],
					"name": "isApprovedAll",
					"outputs": [
						{
							"internalType": "bool",
							"name": "",
							"type": "bool"
						}
					],
					"stateMutability": "view",
					"type": "function"
				},
				{
					"inputs": [],
					"name": "name",
					"outputs": [
						{
							"internalType": "string",
							"name": "",
							"type": "string"
						}
					],
					"stateMutability": "view",
					"type": "function"
				},
				{
					"inputs": [
						{
							"internalType": "uint256",
							"name": "tokenId",
							"type": "uint256"
						}
					],
					"name": "ownerOf",
					"outputs": [
						{
							"internalType": "address",
							"name": "owner",
							"type": "address"
						}
					],
					"stateMutability": "view",
					"type": "function"
				},
				{
					"inputs": [
						{
							"internalType": "address",
							"name": "from",
							"type": "address"
						},
						{
							"internalType": "address",
							"name": "to",
							"type": "address"
						},
						{
							"internalType": "uint256",
							"name": "tokenId",
							"type": "uint256"
						}
					],
					"name": "safeTransferFrom",
					"outputs": [],
					"stateMutability": "nonpayable",
					"type": "function"
				},
				{
					"inputs": [
						{
							"internalType": "address",
							"name": "from",
							"type": "address"
						},
						{
							"internalType": "address",
							"name": "to",
							"type": "address"
						},
						{
							"internalType": "uint256",
							"name": "tokenId",
							"type": "uint256"
						},
						{
							"internalType": "bytes",
							"name": "data",
							"type": "bytes"
						}
					],
					"name": "safeTransferFrom",
					"outputs": [],
					"stateMutability": "nonpayable",
					"type": "function"
				},
				{
					"inputs": [
						{
							"internalType": "address",
							"name": "operator",
							"type": "address"
						},
						{
							"internalType": "bool",
							"name": "approved",
							"type": "bool"
						}
					],
					"name": "setApproveAll",
					"outputs": [],
					"stateMutability": "nonpayable",
					"type": "function"
				},
				{
					"inputs": [
						{
							"internalType": "bytes4",
							"name": "interfaceId",
							"type": "bytes4"
						}
					],
					"name": "supportsInterface",
					"outputs": [
						{
							"internalType": "bool",
							"name": "",
							"type": "bool"
						}
					],
					"stateMutability": "pure",
					"type": "function"
				},
				{
					"inputs": [],
					"name": "symbol",
					"outputs": [
						{
							"internalType": "string",
							"name": "",
							"type": "string"
						}
					],
					"stateMutability": "view",
					"type": "function"
				},
				{
					"inputs": [
						{
							"internalType": "uint256",
							"name": "tokenId",
							"type": "uint256"
						}
					],
					"name": "tokenURI",
					"outputs": [
						{
							"internalType": "string",
							"name": "",
							"type": "string"
						}
					],
					"stateMutability": "view",
					"type": "function"
				},
				{
					"inputs": [
						{
							"internalType": "address",
							"name": "from",
							"type": "address"
						},
						{
							"internalType": "address",
							"name": "to",
							"type": "address"
						},
						{
							"internalType": "uint256",
							"name": "tokenId",
							"type": "uint256"
						}
					],
					"name": "transferFrom",
					"outputs": [],
					"stateMutability": "nonpayable",
					"type": "function"
				}
			],
			"devdoc": {
				"kind": "dev",
				"methods": {},
				"version": 1
			},
			"evm": {
				"assembly": "    /* \"34_ERC721/ERC721.sol\":262:7877  contract ERC721 is IERC721, IERC721Metadata {... */\n  mstore(0x40, 0x80)\n    /* \"34_ERC721/ERC721.sol\":712:826  constructor(string memory _name, string memory _symbol) {... */\n  callvalue\n  dup1\n  iszero\n  tag_1\n  jumpi\n  revert(0x00, 0x00)\ntag_1:\n  pop\n  mload(0x40)\n  sub(codesize, bytecodeSize)\n  dup1\n  bytecodeSize\n  dup4\n  codecopy\n  dup2\n  dup2\n  add\n  0x40\n  mstore\n  dup2\n  add\n  swap1\n  tag_2\n  swap2\n  swap1\n  tag_3\n  jump\t// in\ntag_2:\n    /* \"34_ERC721/ERC721.sol\":786:791  _name */\n  dup2\n    /* \"34_ERC721/ERC721.sol\":779:783  name */\n  0x00\n    /* \"34_ERC721/ERC721.sol\":779:791  name = _name */\n  swap1\n  dup2\n  tag_6\n  swap2\n  swap1\n  tag_7\n  jump\t// in\ntag_6:\n  pop\n    /* \"34_ERC721/ERC721.sol\":811:818  _symbol */\n  dup1\n    /* \"34_ERC721/ERC721.sol\":802:808  symbol */\n  0x01\n    /* \"34_ERC721/ERC721.sol\":802:818  symbol = _symbol */\n  swap1\n  dup2\n  tag_8\n  swap2\n  swap1\n  tag_7\n  jump\t// in\ntag_8:\n  pop\n    /* \"34_ERC721/ERC721.sol\":712:826  constructor(string memory _name, string memory _symbol) {... */\n  pop\n  pop\n    /* \"34_ERC721/ERC721.sol\":262:7877  contract ERC721 is IERC721, IERC721Metadata {... */\n  jump(tag_9)\n    /* \"#utility.yul\":7:82   */\ntag_10:\n    /* \"#utility.yul\":40:46   */\n  0x00\n    /* \"#utility.yul\":73:75   */\n  0x40\n    /* \"#utility.yul\":67:76   */\n  mload\n    /* \"#utility.yul\":57:76   */\n  swap1\n  pop\n    /* \"#utility.yul\":7:82   */\n  swap1\n  jump\t// out\n    /* \"#utility.yul\":88:205   */\ntag_11:\n    /* \"#utility.yul\":197:198   */\n  0x00\n    /* \"#utility.yul\":194:195   */\n  0x00\n    /* \"#utility.yul\":187:199   */\n  revert\n    /* \"#utility.yul\":211:328   */\ntag_12:\n    /* \"#utility.yul\":320:321   */\n  0x00\n    /* \"#utility.yul\":317:318   */\n  0x00\n    /* \"#utility.yul\":310:322   */\n  revert\n    /* \"#utility.yul\":334:451   */\ntag_13:\n    /* \"#utility.yul\":443:444   */\n  0x00\n    /* \"#utility.yul\":440:441   */\n  0x00\n    /* \"#utility.yul\":433:445   */\n  revert\n    /* \"#utility.yul\":457:574   */\ntag_14:\n    /* \"#utility.yul\":566:567   */\n  0x00\n    /* \"#utility.yul\":563:564   */\n  0x00\n    /* \"#utility.yul\":556:568   */\n  revert\n    /* \"#utility.yul\":580:682   */\ntag_15:\n    /* \"#utility.yul\":621:627   */\n  0x00\n    /* \"#utility.yul\":672:674   */\n  0x1f\n    /* \"#utility.yul\":668:675   */\n  not\n    /* \"#utility.yul\":663:665   */\n  0x1f\n    /* \"#utility.yul\":656:661   */\n  dup4\n    /* \"#utility.yul\":652:666   */\n  add\n    /* \"#utility.yul\":648:676   */\n  and\n    /* \"#utility.yul\":638:676   */\n  swap1\n  pop\n    /* \"#utility.yul\":580:682   */\n  swap2\n  swap1\n  pop\n  jump\t// out\n    /* \"#utility.yul\":688:868   */\ntag_16:\n    /* \"#utility.yul\":736:813   */\n  0x4e487b7100000000000000000000000000000000000000000000000000000000\n    /* \"#utility.yul\":733:734   */\n  0x00\n    /* \"#utility.yul\":726:814   */\n  mstore\n    /* \"#utility.yul\":833:837   */\n  0x41\n    /* \"#utility.yul\":830:831   */\n  0x04\n    /* \"#utility.yul\":823:838   */\n  mstore\n    /* \"#utility.yul\":857:861   */\n  0x24\n    /* \"#utility.yul\":854:855   */\n  0x00\n    /* \"#utility.yul\":847:862   */\n  revert\n    /* \"#utility.yul\":874:1155   */\ntag_17:\n    /* \"#utility.yul\":957:984   */\n  tag_51\n    /* \"#utility.yul\":979:983   */\n  dup3\n    /* \"#utility.yul\":957:984   */\n  tag_15\n  jump\t// in\ntag_51:\n    /* \"#utility.yul\":949:955   */\n  dup2\n    /* \"#utility.yul\":945:985   */\n  add\n    /* \"#utility.yul\":1087:1093   */\n  dup2\n    /* \"#utility.yul\":1075:1085   */\n  dup2\n    /* \"#utility.yul\":1072:1094   */\n  lt\n    /* \"#utility.yul\":1051:1069   */\n  0xffffffffffffffff\n    /* \"#utility.yul\":1039:1049   */\n  dup3\n    /* \"#utility.yul\":1036:1070   */\n  gt\n    /* \"#utility.yul\":1033:1095   */\n  or\n    /* \"#utility.yul\":1030:1118   */\n  iszero\n  tag_52\n  jumpi\n    /* \"#utility.yul\":1098:1116   */\n  tag_53\n  tag_16\n  jump\t// in\ntag_53:\n    /* \"#utility.yul\":1030:1118   */\ntag_52:\n    /* \"#utility.yul\":1138:1148   */\n  dup1\n    /* \"#utility.yul\":1134:1136   */\n  0x40\n    /* \"#utility.yul\":1127:1149   */\n  mstore\n    /* \"#utility.yul\":917:1155   */\n  pop\n    /* \"#utility.yul\":874:1155   */\n  pop\n  pop\n  jump\t// out\n    /* \"#utility.yul\":1161:1290   */\ntag_18:\n    /* \"#utility.yul\":1195:1201   */\n  0x00\n    /* \"#utility.yul\":1222:1242   */\n  tag_55\n  tag_10\n  jump\t// in\ntag_55:\n    /* \"#utility.yul\":1212:1242   */\n  swap1\n  pop\n    /* \"#utility.yul\":1251:1284   */\n  tag_56\n    /* \"#utility.yul\":1279:1283   */\n  dup3\n    /* \"#utility.yul\":1271:1277   */\n  dup3\n    /* \"#utility.yul\":1251:1284   */\n  tag_17\n  jump\t// in\ntag_56:\n    /* \"#utility.yul\":1161:1290   */\n  swap2\n  swap1\n  pop\n  jump\t// out\n    /* \"#utility.yul\":1296:1604   */\ntag_19:\n    /* \"#utility.yul\":1358:1362   */\n  0x00\n    /* \"#utility.yul\":1448:1466   */\n  0xffffffffffffffff\n    /* \"#utility.yul\":1440:1446   */\n  dup3\n    /* \"#utility.yul\":1437:1467   */\n  gt\n    /* \"#utility.yul\":1434:1490   */\n  iszero\n  tag_58\n  jumpi\n    /* \"#utility.yul\":1470:1488   */\n  tag_59\n  tag_16\n  jump\t// in\ntag_59:\n    /* \"#utility.yul\":1434:1490   */\ntag_58:\n    /* \"#utility.yul\":1508:1537   */\n  tag_60\n    /* \"#utility.yul\":1530:1536   */\n  dup3\n    /* \"#utility.yul\":1508:1537   */\n  tag_15\n  jump\t// in\ntag_60:\n    /* \"#utility.yul\":1500:1537   */\n  swap1\n  pop\n    /* \"#utility.yul\":1592:1596   */\n  0x20\n    /* \"#utility.yul\":1586:1590   */\n  dup2\n    /* \"#utility.yul\":1582:1597   */\n  add\n    /* \"#utility.yul\":1574:1597   */\n  swap1\n  pop\n    /* \"#utility.yul\":1296:1604   */\n  swap2\n  swap1\n  pop\n  jump\t// out\n    /* \"#utility.yul\":1610:1749   */\ntag_20:\n    /* \"#utility.yul\":1699:1705   */\n  dup3\n    /* \"#utility.yul\":1694:1697   */\n  dup2\n    /* \"#utility.yul\":1689:1692   */\n  dup4\n    /* \"#utility.yul\":1683:1706   */\n  mcopy\n    /* \"#utility.yul\":1740:1741   */\n  0x00\n    /* \"#utility.yul\":1731:1737   */\n  dup4\n    /* \"#utility.yul\":1726:1729   */\n  dup4\n    /* \"#utility.yul\":1722:1738   */\n  add\n    /* \"#utility.yul\":1715:1742   */\n  mstore\n    /* \"#utility.yul\":1610:1749   */\n  pop\n  pop\n  pop\n  jump\t// out\n    /* \"#utility.yul\":1755:2189   */\ntag_21:\n    /* \"#utility.yul\":1844:1849   */\n  0x00\n    /* \"#utility.yul\":1869:1935   */\n  tag_63\n    /* \"#utility.yul\":1885:1934   */\n  tag_64\n    /* \"#utility.yul\":1927:1933   */\n  dup5\n    /* \"#utility.yul\":1885:1934   */\n  tag_19\n  jump\t// in\ntag_64:\n    /* \"#utility.yul\":1869:1935   */\n  tag_18\n  jump\t// in\ntag_63:\n    /* \"#utility.yul\":1860:1935   */\n  swap1\n  pop\n    /* \"#utility.yul\":1958:1964   */\n  dup3\n    /* \"#utility.yul\":1951:1956   */\n  dup2\n    /* \"#utility.yul\":1944:1965   */\n  mstore\n    /* \"#utility.yul\":1996:2000   */\n  0x20\n    /* \"#utility.yul\":1989:1994   */\n  dup2\n    /* \"#utility.yul\":1985:2001   */\n  add\n    /* \"#utility.yul\":2034:2037   */\n  dup5\n    /* \"#utility.yul\":2025:2031   */\n  dup5\n    /* \"#utility.yul\":2020:2023   */\n  dup5\n    /* \"#utility.yul\":2016:2032   */\n  add\n    /* \"#utility.yul\":2013:2038   */\n  gt\n    /* \"#utility.yul\":2010:2122   */\n  iszero\n  tag_65\n  jumpi\n    /* \"#utility.yul\":2041:2120   */\n  tag_66\n  tag_14\n  jump\t// in\ntag_66:\n    /* \"#utility.yul\":2010:2122   */\ntag_65:\n    /* \"#utility.yul\":2131:2183   */\n  tag_67\n    /* \"#utility.yul\":2176:2182   */\n  dup5\n    /* \"#utility.yul\":2171:2174   */\n  dup3\n    /* \"#utility.yul\":2166:2169   */\n  dup6\n    /* \"#utility.yul\":2131:2183   */\n  tag_20\n  jump\t// in\ntag_67:\n    /* \"#utility.yul\":1850:2189   */\n  pop\n    /* \"#utility.yul\":1755:2189   */\n  swap4\n  swap3\n  pop\n  pop\n  pop\n  jump\t// out\n    /* \"#utility.yul\":2209:2564   */\ntag_22:\n    /* \"#utility.yul\":2276:2281   */\n  0x00\n    /* \"#utility.yul\":2325:2328   */\n  dup3\n    /* \"#utility.yul\":2318:2322   */\n  0x1f\n    /* \"#utility.yul\":2310:2316   */\n  dup4\n    /* \"#utility.yul\":2306:2323   */\n  add\n    /* \"#utility.yul\":2302:2329   */\n  slt\n    /* \"#utility.yul\":2292:2414   */\n  tag_69\n  jumpi\n    /* \"#utility.yul\":2333:2412   */\n  tag_70\n  tag_13\n  jump\t// in\ntag_70:\n    /* \"#utility.yul\":2292:2414   */\ntag_69:\n    /* \"#utility.yul\":2443:2449   */\n  dup2\n    /* \"#utility.yul\":2437:2450   */\n  mload\n    /* \"#utility.yul\":2468:2558   */\n  tag_71\n    /* \"#utility.yul\":2554:2557   */\n  dup5\n    /* \"#utility.yul\":2546:2552   */\n  dup3\n    /* \"#utility.yul\":2539:2543   */\n  0x20\n    /* \"#utility.yul\":2531:2537   */\n  dup7\n    /* \"#utility.yul\":2527:2544   */\n  add\n    /* \"#utility.yul\":2468:2558   */\n  tag_21\n  jump\t// in\ntag_71:\n    /* \"#utility.yul\":2459:2558   */\n  swap2\n  pop\n    /* \"#utility.yul\":2282:2564   */\n  pop\n    /* \"#utility.yul\":2209:2564   */\n  swap3\n  swap2\n  pop\n  pop\n  jump\t// out\n    /* \"#utility.yul\":2570:3423   */\ntag_3:\n    /* \"#utility.yul\":2669:2675   */\n  0x00\n    /* \"#utility.yul\":2677:2683   */\n  0x00\n    /* \"#utility.yul\":2726:2728   */\n  0x40\n    /* \"#utility.yul\":2714:2723   */\n  dup4\n    /* \"#utility.yul\":2705:2712   */\n  dup6\n    /* \"#utility.yul\":2701:2724   */\n  sub\n    /* \"#utility.yul\":2697:2729   */\n  slt\n    /* \"#utility.yul\":2694:2813   */\n  iszero\n  tag_73\n  jumpi\n    /* \"#utility.yul\":2732:2811   */\n  tag_74\n  tag_11\n  jump\t// in\ntag_74:\n    /* \"#utility.yul\":2694:2813   */\ntag_73:\n    /* \"#utility.yul\":2873:2874   */\n  0x00\n    /* \"#utility.yul\":2862:2871   */\n  dup4\n    /* \"#utility.yul\":2858:2875   */\n  add\n    /* \"#utility.yul\":2852:2876   */\n  mload\n    /* \"#utility.yul\":2903:2921   */\n  0xffffffffffffffff\n    /* \"#utility.yul\":2895:2901   */\n  dup2\n    /* \"#utility.yul\":2892:2922   */\n  gt\n    /* \"#utility.yul\":2889:3006   */\n  iszero\n  tag_75\n  jumpi\n    /* \"#utility.yul\":2925:3004   */\n  tag_76\n  tag_12\n  jump\t// in\ntag_76:\n    /* \"#utility.yul\":2889:3006   */\ntag_75:\n    /* \"#utility.yul\":3030:3104   */\n  tag_77\n    /* \"#utility.yul\":3096:3103   */\n  dup6\n    /* \"#utility.yul\":3087:3093   */\n  dup3\n    /* \"#utility.yul\":3076:3085   */\n  dup7\n    /* \"#utility.yul\":3072:3094   */\n  add\n    /* \"#utility.yul\":3030:3104   */\n  tag_22\n  jump\t// in\ntag_77:\n    /* \"#utility.yul\":3020:3104   */\n  swap3\n  pop\n    /* \"#utility.yul\":2823:3114   */\n  pop\n    /* \"#utility.yul\":3174:3176   */\n  0x20\n    /* \"#utility.yul\":3163:3172   */\n  dup4\n    /* \"#utility.yul\":3159:3177   */\n  add\n    /* \"#utility.yul\":3153:3178   */\n  mload\n    /* \"#utility.yul\":3205:3223   */\n  0xffffffffffffffff\n    /* \"#utility.yul\":3197:3203   */\n  dup2\n    /* \"#utility.yul\":3194:3224   */\n  gt\n    /* \"#utility.yul\":3191:3308   */\n  iszero\n  tag_78\n  jumpi\n    /* \"#utility.yul\":3227:3306   */\n  tag_79\n  tag_12\n  jump\t// in\ntag_79:\n    /* \"#utility.yul\":3191:3308   */\ntag_78:\n    /* \"#utility.yul\":3332:3406   */\n  tag_80\n    /* \"#utility.yul\":3398:3405   */\n  dup6\n    /* \"#utility.yul\":3389:3395   */\n  dup3\n    /* \"#utility.yul\":3378:3387   */\n  dup7\n    /* \"#utility.yul\":3374:3396   */\n  add\n    /* \"#utility.yul\":3332:3406   */\n  tag_22\n  jump\t// in\ntag_80:\n    /* \"#utility.yul\":3322:3406   */\n  swap2\n  pop\n    /* \"#utility.yul\":3124:3416   */\n  pop\n    /* \"#utility.yul\":2570:3423   */\n  swap3\n  pop\n  swap3\n  swap1\n  pop\n  jump\t// out\n    /* \"#utility.yul\":3429:3528   */\ntag_23:\n    /* \"#utility.yul\":3481:3487   */\n  0x00\n    /* \"#utility.yul\":3515:3520   */\n  dup2\n    /* \"#utility.yul\":3509:3521   */\n  mload\n    /* \"#utility.yul\":3499:3521   */\n  swap1\n  pop\n    /* \"#utility.yul\":3429:3528   */\n  swap2\n  swap1\n  pop\n  jump\t// out\n    /* \"#utility.yul\":3534:3714   */\ntag_24:\n    /* \"#utility.yul\":3582:3659   */\n  0x4e487b7100000000000000000000000000000000000000000000000000000000\n    /* \"#utility.yul\":3579:3580   */\n  0x00\n    /* \"#utility.yul\":3572:3660   */\n  mstore\n    /* \"#utility.yul\":3679:3683   */\n  0x22\n    /* \"#utility.yul\":3676:3677   */\n  0x04\n    /* \"#utility.yul\":3669:3684   */\n  mstore\n    /* \"#utility.yul\":3703:3707   */\n  0x24\n    /* \"#utility.yul\":3700:3701   */\n  0x00\n    /* \"#utility.yul\":3693:3708   */\n  revert\n    /* \"#utility.yul\":3720:4040   */\ntag_25:\n    /* \"#utility.yul\":3764:3770   */\n  0x00\n    /* \"#utility.yul\":3801:3802   */\n  0x02\n    /* \"#utility.yul\":3795:3799   */\n  dup3\n    /* \"#utility.yul\":3791:3803   */\n  div\n    /* \"#utility.yul\":3781:3803   */\n  swap1\n  pop\n    /* \"#utility.yul\":3848:3849   */\n  0x01\n    /* \"#utility.yul\":3842:3846   */\n  dup3\n    /* \"#utility.yul\":3838:3850   */\n  and\n    /* \"#utility.yul\":3869:3887   */\n  dup1\n    /* \"#utility.yul\":3859:3940   */\n  tag_84\n  jumpi\n    /* \"#utility.yul\":3925:3929   */\n  0x7f\n    /* \"#utility.yul\":3917:3923   */\n  dup3\n    /* \"#utility.yul\":3913:3930   */\n  and\n    /* \"#utility.yul\":3903:3930   */\n  swap2\n  pop\n    /* \"#utility.yul\":3859:3940   */\ntag_84:\n    /* \"#utility.yul\":3987:3989   */\n  0x20\n    /* \"#utility.yul\":3979:3985   */\n  dup3\n    /* \"#utility.yul\":3976:3990   */\n  lt\n    /* \"#utility.yul\":3956:3974   */\n  dup2\n    /* \"#utility.yul\":3953:3991   */\n  sub\n    /* \"#utility.yul\":3950:4034   */\n  tag_85\n  jumpi\n    /* \"#utility.yul\":4006:4024   */\n  tag_86\n  tag_24\n  jump\t// in\ntag_86:\n    /* \"#utility.yul\":3950:4034   */\ntag_85:\n    /* \"#utility.yul\":3771:4040   */\n  pop\n    /* \"#utility.yul\":3720:4040   */\n  swap2\n  swap1\n  pop\n  jump\t// out\n    /* \"#utility.yul\":4046:4187   */\ntag_26:\n    /* \"#utility.yul\":4095:4099   */\n  0x00\n    /* \"#utility.yul\":4118:4121   */\n  dup2\n    /* \"#utility.yul\":4110:4121   */\n  swap1\n  pop\n    /* \"#utility.yul\":4141:4144   */\n  dup2\n    /* \"#utility.yul\":4138:4139   */\n  0x00\n    /* \"#utility.yul\":4131:4145   */\n  mstore\n    /* \"#utility.yul\":4175:4179   */\n  0x20\n    /* \"#utility.yul\":4172:4173   */\n  0x00\n    /* \"#utility.yul\":4162:4180   */\n  keccak256\n    /* \"#utility.yul\":4154:4180   */\n  swap1\n  pop\n    /* \"#utility.yul\":4046:4187   */\n  swap2\n  swap1\n  pop\n  jump\t// out\n    /* \"#utility.yul\":4193:4286   */\ntag_27:\n    /* \"#utility.yul\":4230:4236   */\n  0x00\n    /* \"#utility.yul\":4277:4279   */\n  0x20\n    /* \"#utility.yul\":4272:4274   */\n  0x1f\n    /* \"#utility.yul\":4265:4270   */\n  dup4\n    /* \"#utility.yul\":4261:4275   */\n  add\n    /* \"#utility.yul\":4257:4280   */\n  div\n    /* \"#utility.yul\":4247:4280   */\n  swap1\n  pop\n    /* \"#utility.yul\":4193:4286   */\n  swap2\n  swap1\n  pop\n  jump\t// out\n    /* \"#utility.yul\":4292:4399   */\ntag_28:\n    /* \"#utility.yul\":4336:4344   */\n  0x00\n    /* \"#utility.yul\":4386:4391   */\n  dup3\n    /* \"#utility.yul\":4380:4384   */\n  dup3\n    /* \"#utility.yul\":4376:4392   */\n  shl\n    /* \"#utility.yul\":4355:4392   */\n  swap1\n  pop\n    /* \"#utility.yul\":4292:4399   */\n  swap3\n  swap2\n  pop\n  pop\n  jump\t// out\n    /* \"#utility.yul\":4405:4798   */\ntag_29:\n    /* \"#utility.yul\":4474:4480   */\n  0x00\n    /* \"#utility.yul\":4524:4525   */\n  0x08\n    /* \"#utility.yul\":4512:4522   */\n  dup4\n    /* \"#utility.yul\":4508:4526   */\n  mul\n    /* \"#utility.yul\":4547:4644   */\n  tag_91\n    /* \"#utility.yul\":4577:4643   */\n  0xffffffffffffffffffffffffffffffffffffffffffffffffffffffffffffffff\n    /* \"#utility.yul\":4566:4575   */\n  dup3\n    /* \"#utility.yul\":4547:4644   */\n  tag_28\n  jump\t// in\ntag_91:\n    /* \"#utility.yul\":4665:4704   */\n  tag_92\n    /* \"#utility.yul\":4695:4703   */\n  dup7\n    /* \"#utility.yul\":4684:4693   */\n  dup4\n    /* \"#utility.yul\":4665:4704   */\n  tag_28\n  jump\t// in\ntag_92:\n    /* \"#utility.yul\":4653:4704   */\n  swap6\n  pop\n    /* \"#utility.yul\":4737:4741   */\n  dup1\n    /* \"#utility.yul\":4733:4742   */\n  not\n    /* \"#utility.yul\":4726:4731   */\n  dup5\n    /* \"#utility.yul\":4722:4743   */\n  and\n    /* \"#utility.yul\":4713:4743   */\n  swap4\n  pop\n    /* \"#utility.yul\":4786:4790   */\n  dup1\n    /* \"#utility.yul\":4776:4784   */\n  dup7\n    /* \"#utility.yul\":4772:4791   */\n  and\n    /* \"#utility.yul\":4765:4770   */\n  dup5\n    /* \"#utility.yul\":4762:4792   */\n  or\n    /* \"#utility.yul\":4752:4792   */\n  swap3\n  pop\n    /* \"#utility.yul\":4481:4798   */\n  pop\n  pop\n    /* \"#utility.yul\":4405:4798   */\n  swap4\n  swap3\n  pop\n  pop\n  pop\n  jump\t// out\n    /* \"#utility.yul\":4804:4881   */\ntag_30:\n    /* \"#utility.yul\":4841:4848   */\n  0x00\n    /* \"#utility.yul\":4870:4875   */\n  dup2\n    /* \"#utility.yul\":4859:4875   */\n  swap1\n  pop\n    /* \"#utility.yul\":4804:4881   */\n  swap2\n  swap1\n  pop\n  jump\t// out\n    /* \"#utility.yul\":4887:4947   */\ntag_31:\n    /* \"#utility.yul\":4915:4918   */\n  0x00\n    /* \"#utility.yul\":4936:4941   */\n  dup2\n    /* \"#utility.yul\":4929:4941   */\n  swap1\n  pop\n    /* \"#utility.yul\":4887:4947   */\n  swap2\n  swap1\n  pop\n  jump\t// out\n    /* \"#utility.yul\":4953:5095   */\ntag_32:\n    /* \"#utility.yul\":5003:5012   */\n  0x00\n    /* \"#utility.yul\":5036:5089   */\n  tag_96\n    /* \"#utility.yul\":5054:5088   */\n  tag_97\n    /* \"#utility.yul\":5063:5087   */\n  tag_98\n    /* \"#utility.yul\":5081:5086   */\n  dup5\n    /* \"#utility.yul\":5063:5087   */\n  tag_30\n  jump\t// in\ntag_98:\n    /* \"#utility.yul\":5054:5088   */\n  tag_31\n  jump\t// in\ntag_97:\n    /* \"#utility.yul\":5036:5089   */\n  tag_30\n  jump\t// in\ntag_96:\n    /* \"#utility.yul\":5023:5089   */\n  swap1\n  pop\n    /* \"#utility.yul\":4953:5095   */\n  swap2\n  swap1\n  pop\n  jump\t// out\n    /* \"#utility.yul\":5101:5176   */\ntag_33:\n    /* \"#utility.yul\":5144:5147   */\n  0x00\n    /* \"#utility.yul\":5165:5170   */\n  dup2\n    /* \"#utility.yul\":5158:5170   */\n  swap1\n  pop\n    /* \"#utility.yul\":5101:5176   */\n  swap2\n  swap1\n  pop\n  jump\t// out\n    /* \"#utility.yul\":5182:5451   */\ntag_34:\n    /* \"#utility.yul\":5292:5331   */\n  tag_101\n    /* \"#utility.yul\":5323:5330   */\n  dup4\n    /* \"#utility.yul\":5292:5331   */\n  tag_32\n  jump\t// in\ntag_101:\n    /* \"#utility.yul\":5353:5444   */\n  tag_102\n    /* \"#utility.yul\":5402:5443   */\n  tag_103\n    /* \"#utility.yul\":5426:5442   */\n  dup3\n    /* \"#utility.yul\":5402:5443   */\n  tag_33\n  jump\t// in\ntag_103:\n    /* \"#utility.yul\":5394:5400   */\n  dup5\n    /* \"#utility.yul\":5387:5391   */\n  dup5\n    /* \"#utility.yul\":5381:5392   */\n  sload\n    /* \"#utility.yul\":5353:5444   */\n  tag_29\n  jump\t// in\ntag_102:\n    /* \"#utility.yul\":5347:5351   */\n  dup3\n    /* \"#utility.yul\":5340:5445   */\n  sstore\n    /* \"#utility.yul\":5258:5451   */\n  pop\n    /* \"#utility.yul\":5182:5451   */\n  pop\n  pop\n  pop\n  jump\t// out\n    /* \"#utility.yul\":5457:5530   */\ntag_35:\n    /* \"#utility.yul\":5502:5505   */\n  0x00\n    /* \"#utility.yul\":5523:5524   */\n  0x00\n    /* \"#utility.yul\":5516:5524   */\n  swap1\n  pop\n    /* \"#utility.yul\":5457:5530   */\n  swap1\n  jump\t// out\n    /* \"#utility.yul\":5536:5725   */\ntag_36:\n    /* \"#utility.yul\":5613:5645   */\n  tag_106\n  tag_35\n  jump\t// in\ntag_106:\n    /* \"#utility.yul\":5654:5719   */\n  tag_107\n    /* \"#utility.yul\":5712:5718   */\n  dup2\n    /* \"#utility.yul\":5704:5710   */\n  dup5\n    /* \"#utility.yul\":5698:5702   */\n  dup5\n    /* \"#utility.yul\":5654:5719   */\n  tag_34\n  jump\t// in\ntag_107:\n    /* \"#utility.yul\":5589:5725   */\n  pop\n    /* \"#utility.yul\":5536:5725   */\n  pop\n  pop\n  jump\t// out\n    /* \"#utility.yul\":5731:5917   */\ntag_37:\n    /* \"#utility.yul\":5791:5911   */\ntag_109:\n    /* \"#utility.yul\":5808:5811   */\n  dup2\n    /* \"#utility.yul\":5801:5806   */\n  dup2\n    /* \"#utility.yul\":5798:5812   */\n  lt\n    /* \"#utility.yul\":5791:5911   */\n  iszero\n  tag_111\n  jumpi\n    /* \"#utility.yul\":5862:5901   */\n  tag_112\n    /* \"#utility.yul\":5899:5900   */\n  0x00\n    /* \"#utility.yul\":5892:5897   */\n  dup3\n    /* \"#utility.yul\":5862:5901   */\n  tag_36\n  jump\t// in\ntag_112:\n    /* \"#utility.yul\":5835:5836   */\n  0x01\n    /* \"#utility.yul\":5828:5833   */\n  dup2\n    /* \"#utility.yul\":5824:5837   */\n  add\n    /* \"#utility.yul\":5815:5837   */\n  swap1\n  pop\n    /* \"#utility.yul\":5791:5911   */\n  jump(tag_109)\ntag_111:\n    /* \"#utility.yul\":5731:5917   */\n  pop\n  pop\n  jump\t// out\n    /* \"#utility.yul\":5923:6466   */\ntag_38:\n    /* \"#utility.yul\":6024:6026   */\n  0x1f\n    /* \"#utility.yul\":6019:6022   */\n  dup3\n    /* \"#utility.yul\":6016:6027   */\n  gt\n    /* \"#utility.yul\":6013:6459   */\n  iszero\n  tag_114\n  jumpi\n    /* \"#utility.yul\":6058:6096   */\n  tag_115\n    /* \"#utility.yul\":6090:6095   */\n  dup2\n    /* \"#utility.yul\":6058:6096   */\n  tag_26\n  jump\t// in\ntag_115:\n    /* \"#utility.yul\":6142:6171   */\n  tag_116\n    /* \"#utility.yul\":6160:6170   */\n  dup5\n    /* \"#utility.yul\":6142:6171   */\n  tag_27\n  jump\t// in\ntag_116:\n    /* \"#utility.yul\":6132:6140   */\n  dup2\n    /* \"#utility.yul\":6128:6172   */\n  add\n    /* \"#utility.yul\":6325:6327   */\n  0x20\n    /* \"#utility.yul\":6313:6323   */\n  dup6\n    /* \"#utility.yul\":6310:6328   */\n  lt\n    /* \"#utility.yul\":6307:6356   */\n  iszero\n  tag_117\n  jumpi\n    /* \"#utility.yul\":6346:6354   */\n  dup2\n    /* \"#utility.yul\":6331:6354   */\n  swap1\n  pop\n    /* \"#utility.yul\":6307:6356   */\ntag_117:\n    /* \"#utility.yul\":6369:6449   */\n  tag_118\n    /* \"#utility.yul\":6425:6447   */\n  tag_119\n    /* \"#utility.yul\":6443:6446   */\n  dup6\n    /* \"#utility.yul\":6425:6447   */\n  tag_27\n  jump\t// in\ntag_119:\n    /* \"#utility.yul\":6415:6423   */\n  dup4\n    /* \"#utility.yul\":6411:6448   */\n  add\n    /* \"#utility.yul\":6398:6409   */\n  dup3\n    /* \"#utility.yul\":6369:6449   */\n  tag_37\n  jump\t// in\ntag_118:\n    /* \"#utility.yul\":6028:6459   */\n  pop\n  pop\n    /* \"#utility.yul\":6013:6459   */\ntag_114:\n    /* \"#utility.yul\":5923:6466   */\n  pop\n  pop\n  pop\n  jump\t// out\n    /* \"#utility.yul\":6472:6589   */\ntag_39:\n    /* \"#utility.yul\":6526:6534   */\n  0x00\n    /* \"#utility.yul\":6576:6581   */\n  dup3\n    /* \"#utility.yul\":6570:6574   */\n  dup3\n    /* \"#utility.yul\":6566:6582   */\n  shr\n    /* \"#utility.yul\":6545:6582   */\n  swap1\n  pop\n    /* \"#utility.yul\":6472:6589   */\n  swap3\n  swap2\n  pop\n  pop\n  jump\t// out\n    /* \"#utility.yul\":6595:6764   */\ntag_40:\n    /* \"#utility.yul\":6639:6645   */\n  0x00\n    /* \"#utility.yul\":6672:6723   */\n  tag_122\n    /* \"#utility.yul\":6720:6721   */\n  0x00\n    /* \"#utility.yul\":6716:6722   */\n  not\n    /* \"#utility.yul\":6708:6713   */\n  dup5\n    /* \"#utility.yul\":6705:6706   */\n  0x08\n    /* \"#utility.yul\":6701:6714   */\n  mul\n    /* \"#utility.yul\":6672:6723   */\n  tag_39\n  jump\t// in\ntag_122:\n    /* \"#utility.yul\":6668:6724   */\n  not\n    /* \"#utility.yul\":6753:6757   */\n  dup1\n    /* \"#utility.yul\":6747:6751   */\n  dup4\n    /* \"#utility.yul\":6743:6758   */\n  and\n    /* \"#utility.yul\":6733:6758   */\n  swap2\n  pop\n    /* \"#utility.yul\":6646:6764   */\n  pop\n    /* \"#utility.yul\":6595:6764   */\n  swap3\n  swap2\n  pop\n  pop\n  jump\t// out\n    /* \"#utility.yul\":6769:7064   */\ntag_41:\n    /* \"#utility.yul\":6845:6849   */\n  0x00\n    /* \"#utility.yul\":6991:7020   */\n  tag_124\n    /* \"#utility.yul\":7016:7019   */\n  dup4\n    /* \"#utility.yul\":7010:7014   */\n  dup4\n    /* \"#utility.yul\":6991:7020   */\n  tag_40\n  jump\t// in\ntag_124:\n    /* \"#utility.yul\":6983:7020   */\n  swap2\n  pop\n    /* \"#utility.yul\":7053:7056   */\n  dup3\n    /* \"#utility.yul\":7050:7051   */\n  0x02\n    /* \"#utility.yul\":7046:7057   */\n  mul\n    /* \"#utility.yul\":7040:7044   */\n  dup3\n    /* \"#utility.yul\":7037:7058   */\n  or\n    /* \"#utility.yul\":7029:7058   */\n  swap1\n  pop\n    /* \"#utility.yul\":6769:7064   */\n  swap3\n  swap2\n  pop\n  pop\n  jump\t// out\n    /* \"#utility.yul\":7069:8464   */\ntag_7:\n    /* \"#utility.yul\":7186:7223   */\n  tag_126\n    /* \"#utility.yul\":7219:7222   */\n  dup3\n    /* \"#utility.yul\":7186:7223   */\n  tag_23\n  jump\t// in\ntag_126:\n    /* \"#utility.yul\":7288:7306   */\n  0xffffffffffffffff\n    /* \"#utility.yul\":7280:7286   */\n  dup2\n    /* \"#utility.yul\":7277:7307   */\n  gt\n    /* \"#utility.yul\":7274:7330   */\n  iszero\n  tag_127\n  jumpi\n    /* \"#utility.yul\":7310:7328   */\n  tag_128\n  tag_16\n  jump\t// in\ntag_128:\n    /* \"#utility.yul\":7274:7330   */\ntag_127:\n    /* \"#utility.yul\":7354:7392   */\n  tag_129\n    /* \"#utility.yul\":7386:7390   */\n  dup3\n    /* \"#utility.yul\":7380:7391   */\n  sload\n    /* \"#utility.yul\":7354:7392   */\n  tag_25\n  jump\t// in\ntag_129:\n    /* \"#utility.yul\":7439:7506   */\n  tag_130\n    /* \"#utility.yul\":7499:7505   */\n  dup3\n    /* \"#utility.yul\":7491:7497   */\n  dup3\n    /* \"#utility.yul\":7485:7489   */\n  dup6\n    /* \"#utility.yul\":7439:7506   */\n  tag_38\n  jump\t// in\ntag_130:\n    /* \"#utility.yul\":7533:7534   */\n  0x00\n    /* \"#utility.yul\":7557:7561   */\n  0x20\n    /* \"#utility.yul\":7544:7561   */\n  swap1\n  pop\n    /* \"#utility.yul\":7589:7591   */\n  0x1f\n    /* \"#utility.yul\":7581:7587   */\n  dup4\n    /* \"#utility.yul\":7578:7592   */\n  gt\n    /* \"#utility.yul\":7606:7607   */\n  0x01\n    /* \"#utility.yul\":7601:8219   */\n  dup2\n  eq\n  tag_132\n  jumpi\n    /* \"#utility.yul\":8263:8264   */\n  0x00\n    /* \"#utility.yul\":8280:8286   */\n  dup5\n    /* \"#utility.yul\":8277:8354   */\n  iszero\n  tag_133\n  jumpi\n    /* \"#utility.yul\":8329:8338   */\n  dup3\n    /* \"#utility.yul\":8324:8327   */\n  dup8\n    /* \"#utility.yul\":8320:8339   */\n  add\n    /* \"#utility.yul\":8314:8340   */\n  mload\n    /* \"#utility.yul\":8305:8340   */\n  swap1\n  pop\n    /* \"#utility.yul\":8277:8354   */\ntag_133:\n    /* \"#utility.yul\":8380:8447   */\n  tag_134\n    /* \"#utility.yul\":8440:8446   */\n  dup6\n    /* \"#utility.yul\":8433:8438   */\n  dup3\n    /* \"#utility.yul\":8380:8447   */\n  tag_41\n  jump\t// in\ntag_134:\n    /* \"#utility.yul\":8374:8378   */\n  dup7\n    /* \"#utility.yul\":8367:8448   */\n  sstore\n    /* \"#utility.yul\":8236:8458   */\n  pop\n    /* \"#utility.yul\":7571:8458   */\n  jump(tag_131)\n    /* \"#utility.yul\":7601:8219   */\ntag_132:\n    /* \"#utility.yul\":7653:7657   */\n  0x1f\n    /* \"#utility.yul\":7649:7658   */\n  not\n    /* \"#utility.yul\":7641:7647   */\n  dup5\n    /* \"#utility.yul\":7637:7659   */\n  and\n    /* \"#utility.yul\":7687:7724   */\n  tag_135\n    /* \"#utility.yul\":7719:7723   */\n  dup7\n    /* \"#utility.yul\":7687:7724   */\n  tag_26\n  jump\t// in\ntag_135:\n    /* \"#utility.yul\":7746:7747   */\n  0x00\n    /* \"#utility.yul\":7760:7968   */\ntag_136:\n    /* \"#utility.yul\":7774:7781   */\n  dup3\n    /* \"#utility.yul\":7771:7772   */\n  dup2\n    /* \"#utility.yul\":7768:7782   */\n  lt\n    /* \"#utility.yul\":7760:7968   */\n  iszero\n  tag_138\n  jumpi\n    /* \"#utility.yul\":7853:7862   */\n  dup5\n    /* \"#utility.yul\":7848:7851   */\n  dup10\n    /* \"#utility.yul\":7844:7863   */\n  add\n    /* \"#utility.yul\":7838:7864   */\n  mload\n    /* \"#utility.yul\":7830:7836   */\n  dup3\n    /* \"#utility.yul\":7823:7865   */\n  sstore\n    /* \"#utility.yul\":7904:7905   */\n  0x01\n    /* \"#utility.yul\":7896:7902   */\n  dup3\n    /* \"#utility.yul\":7892:7906   */\n  add\n    /* \"#utility.yul\":7882:7906   */\n  swap2\n  pop\n    /* \"#utility.yul\":7951:7953   */\n  0x20\n    /* \"#utility.yul\":7940:7949   */\n  dup6\n    /* \"#utility.yul\":7936:7954   */\n  add\n    /* \"#utility.yul\":7923:7954   */\n  swap5\n  pop\n    /* \"#utility.yul\":7797:7801   */\n  0x20\n    /* \"#utility.yul\":7794:7795   */\n  dup2\n    /* \"#utility.yul\":7790:7802   */\n  add\n    /* \"#utility.yul\":7785:7802   */\n  swap1\n  pop\n    /* \"#utility.yul\":7760:7968   */\n  jump(tag_136)\ntag_138:\n    /* \"#utility.yul\":7996:8002   */\n  dup7\n    /* \"#utility.yul\":7987:7994   */\n  dup4\n    /* \"#utility.yul\":7984:8003   */\n  lt\n    /* \"#utility.yul\":7981:8160   */\n  iszero\n  tag_139\n  jumpi\n    /* \"#utility.yul\":8054:8063   */\n  dup5\n    /* \"#utility.yul\":8049:8052   */\n  dup10\n    /* \"#utility.yul\":8045:8064   */\n  add\n    /* \"#utility.yul\":8039:8065   */\n  mload\n    /* \"#utility.yul\":8097:8145   */\n  tag_140\n    /* \"#utility.yul\":8139:8143   */\n  0x1f\n    /* \"#utility.yul\":8131:8137   */\n  dup10\n    /* \"#utility.yul\":8127:8144   */\n  and\n    /* \"#utility.yul\":8116:8125   */\n  dup3\n    /* \"#utility.yul\":8097:8145   */\n  tag_40\n  jump\t// in\ntag_140:\n    /* \"#utility.yul\":8089:8095   */\n  dup4\n    /* \"#utility.yul\":8082:8146   */\n  sstore\n    /* \"#utility.yul\":8004:8160   */\n  pop\n    /* \"#utility.yul\":7981:8160   */\ntag_139:\n    /* \"#utility.yul\":8206:8207   */\n  0x01\n    /* \"#utility.yul\":8202:8203   */\n  0x02\n    /* \"#utility.yul\":8194:8200   */\n  dup9\n    /* \"#utility.yul\":8190:8204   */\n  mul\n    /* \"#utility.yul\":8186:8208   */\n  add\n    /* \"#utility.yul\":8180:8184   */\n  dup9\n    /* \"#utility.yul\":8173:8209   */\n  sstore\n    /* \"#utility.yul\":7608:8219   */\n  pop\n  pop\n  pop\n    /* \"#utility.yul\":7571:8458   */\ntag_131:\n  pop\n    /* \"#utility.yul\":7161:8464   */\n  pop\n  pop\n  pop\n    /* \"#utility.yul\":7069:8464   */\n  pop\n  pop\n  jump\t// out\n    /* \"34_ERC721/ERC721.sol\":262:7877  contract ERC721 is IERC721, IERC721Metadata {... */\ntag_9:\n  dataSize(sub_0)\n  dup1\n  dataOffset(sub_0)\n  0x00\n  codecopy\n  0x00\n  return\nstop\n\nsub_0: assembly {\n        /* \"34_ERC721/ERC721.sol\":262:7877  contract ERC721 is IERC721, IERC721Metadata {... */\n      mstore(0x40, 0x80)\n      callvalue\n      dup1\n      iszero\n      tag_1\n      jumpi\n      revert(0x00, 0x00)\n    tag_1:\n      pop\n      jumpi(tag_2, lt(calldatasize, 0x04))\n      shr(0xe0, calldataload(0x00))\n      dup1\n      0x95d89b41\n      gt\n      tag_20\n      jumpi\n      dup1\n      0xc3354402\n      gt\n      tag_21\n      jumpi\n      dup1\n      0xc3354402\n      eq\n      tag_15\n      jumpi\n      dup1\n      0xc87b56dd\n      eq\n      tag_16\n      jumpi\n      dup1\n      0xedc3bc3f\n      eq\n      tag_17\n      jumpi\n      dup1\n      0xfebe4909\n      eq\n      tag_18\n      jumpi\n      dup1\n      0xffb74e64\n      eq\n      tag_19\n      jumpi\n      jump(tag_2)\n    tag_21:\n      dup1\n      0x95d89b41\n      eq\n      tag_11\n      jumpi\n      dup1\n      0x992924a6\n      eq\n      tag_12\n      jumpi\n      dup1\n      0xa7cc0136\n      eq\n      tag_13\n      jumpi\n      dup1\n      0xb88d4fde\n      eq\n      tag_14\n      jumpi\n      jump(tag_2)\n    tag_20:\n      dup1\n      0x42842e0e\n      gt\n      tag_22\n      jumpi\n      dup1\n      0x42842e0e\n      eq\n      tag_7\n      jumpi\n      dup1\n      0x6352211e\n      eq\n      tag_8\n      jumpi\n      dup1\n      0x6ebcf607\n      eq\n      tag_9\n      jumpi\n      dup1\n      0x70a08231\n      eq\n      tag_10\n      jumpi\n      jump(tag_2)\n    tag_22:\n      dup1\n      0x01ffc9a7\n      eq\n      tag_3\n      jumpi\n      dup1\n      0x06fdde03\n      eq\n      tag_4\n      jumpi\n      dup1\n      0x081812fc\n      eq\n      tag_5\n      jumpi\n      dup1\n      0x23b872dd\n      eq\n      tag_6\n      jumpi\n    tag_2:\n      revert(0x00, 0x00)\n        /* \"34_ERC721/ERC721.sol\":1128:1425  function supportsInterface(bytes4 interfaceId) external pure override returns (bool){... */\n    tag_3:\n      tag_23\n      0x04\n      dup1\n      calldatasize\n      sub\n      dup2\n      add\n      swap1\n      tag_24\n      swap2\n      swap1\n      tag_25\n      jump\t// in\n    tag_24:\n      tag_26\n      jump\t// in\n    tag_23:\n      mload(0x40)\n      tag_27\n      swap2\n      swap1\n      tag_28\n      jump\t// in\n    tag_27:\n      mload(0x40)\n      dup1\n      swap2\n      sub\n      swap1\n      return\n        /* \"34_ERC721/ERC721.sol\":347:374  string public override name */\n    tag_4:\n      tag_29\n      tag_30\n      jump\t// in\n    tag_29:\n      mload(0x40)\n      tag_31\n      swap2\n      swap1\n      tag_32\n      jump\t// in\n    tag_31:\n      mload(0x40)\n      dup1\n      swap2\n      sub\n      swap1\n      return\n        /* \"34_ERC721/ERC721.sol\":3604:3912  function getApproved(uint256 tokenId) external view override returns (address operator) {... */\n    tag_5:\n      tag_33\n      0x04\n      dup1\n      calldatasize\n      sub\n      dup2\n      add\n      swap1\n      tag_34\n      swap2\n      swap1\n      tag_35\n      jump\t// in\n    tag_34:\n      tag_36\n      jump\t// in\n    tag_33:\n      mload(0x40)\n      tag_37\n      swap2\n      swap1\n      tag_38\n      jump\t// in\n    tag_37:\n      mload(0x40)\n      dup1\n      swap2\n      sub\n      swap1\n      return\n        /* \"34_ERC721/ERC721.sol\":2689:3018  function transferFrom (address from, address to, uint256 tokenId) external override {... */\n    tag_6:\n      tag_39\n      0x04\n      dup1\n      calldatasize\n      sub\n      dup2\n      add\n      swap1\n      tag_40\n      swap2\n      swap1\n      tag_41\n      jump\t// in\n    tag_40:\n      tag_42\n      jump\t// in\n    tag_39:\n      stop\n        /* \"34_ERC721/ERC721.sol\":2287:2681  function safeTransferFrom(address from, address to, uint256 tokenId) external override {... */\n    tag_7:\n      tag_43\n      0x04\n      dup1\n      calldatasize\n      sub\n      dup2\n      add\n      swap1\n      tag_44\n      swap2\n      swap1\n      tag_41\n      jump\t// in\n    tag_44:\n      tag_45\n      jump\t// in\n    tag_43:\n      stop\n        /* \"34_ERC721/ERC721.sol\":1651:1854  function ownerOf(uint tokenId) public view override returns (address owner){... */\n    tag_8:\n      tag_46\n      0x04\n      dup1\n      calldatasize\n      sub\n      dup2\n      add\n      swap1\n      tag_47\n      swap2\n      swap1\n      tag_35\n      jump\t// in\n    tag_47:\n      tag_48\n      jump\t// in\n    tag_46:\n      mload(0x40)\n      tag_49\n      swap2\n      swap1\n      tag_38\n      jump\t// in\n    tag_49:\n      mload(0x40)\n      dup1\n      swap2\n      sub\n      swap1\n      return\n        /* \"34_ERC721/ERC721.sol\":469:514  mapping(address => uint256 ) public _balances */\n    tag_9:\n      tag_50\n      0x04\n      dup1\n      calldatasize\n      sub\n      dup2\n      add\n      swap1\n      tag_51\n      swap2\n      swap1\n      tag_52\n      jump\t// in\n    tag_51:\n      tag_53\n      jump\t// in\n    tag_50:\n      mload(0x40)\n      tag_54\n      swap2\n      swap1\n      tag_55\n      jump\t// in\n    tag_54:\n      mload(0x40)\n      dup1\n      swap2\n      sub\n      swap1\n      return\n        /* \"34_ERC721/ERC721.sol\":1433:1643  function balanceOf (address owner) external view override returns (uint256 balance) {... */\n    tag_10:\n      tag_56\n      0x04\n      dup1\n      calldatasize\n      sub\n      dup2\n      add\n      swap1\n      tag_57\n      swap2\n      swap1\n      tag_52\n      jump\t// in\n    tag_57:\n      tag_58\n      jump\t// in\n    tag_56:\n      mload(0x40)\n      tag_59\n      swap2\n      swap1\n      tag_55\n      jump\t// in\n    tag_59:\n      mload(0x40)\n      dup1\n      swap2\n      sub\n      swap1\n      return\n        /* \"34_ERC721/ERC721.sol\":381:410  string public override symbol */\n    tag_11:\n      tag_60\n      tag_61\n      jump\t// in\n    tag_60:\n      mload(0x40)\n      tag_62\n      swap2\n      swap1\n      tag_32\n      jump\t// in\n    tag_62:\n      mload(0x40)\n      dup1\n      swap2\n      sub\n      swap1\n      return\n        /* \"34_ERC721/ERC721.sol\":419:462  mapping(uint256 => address ) public _owners */\n    tag_12:\n      tag_63\n      0x04\n      dup1\n      calldatasize\n      sub\n      dup2\n      add\n      swap1\n      tag_64\n      swap2\n      swap1\n      tag_35\n      jump\t// in\n    tag_64:\n      tag_65\n      jump\t// in\n    tag_63:\n      mload(0x40)\n      tag_66\n      swap2\n      swap1\n      tag_38\n      jump\t// in\n    tag_66:\n      mload(0x40)\n      dup1\n      swap2\n      sub\n      swap1\n      return\n        /* \"34_ERC721/ERC721.sol\":521:572  mapping(uint256 => address ) public _tokenApprovals */\n    tag_13:\n      tag_67\n      0x04\n      dup1\n      calldatasize\n      sub\n      dup2\n      add\n      swap1\n      tag_68\n      swap2\n      swap1\n      tag_35\n      jump\t// in\n    tag_68:\n      tag_69\n      jump\t// in\n    tag_67:\n      mload(0x40)\n      tag_70\n      swap2\n      swap1\n      tag_38\n      jump\t// in\n    tag_70:\n      mload(0x40)\n      dup1\n      swap2\n      sub\n      swap1\n      return\n        /* \"34_ERC721/ERC721.sol\":1862:2279  function safeTransferFrom(address from, address to, uint256 tokenId, bytes calldata data) external override {... */\n    tag_14:\n      tag_71\n      0x04\n      dup1\n      calldatasize\n      sub\n      dup2\n      add\n      swap1\n      tag_72\n      swap2\n      swap1\n      tag_73\n      jump\t// in\n    tag_72:\n      tag_74\n      jump\t// in\n    tag_71:\n      stop\n        /* \"34_ERC721/ERC721.sol\":3390:3596  function setApproveAll(address operator, bool approved) external override {... */\n    tag_15:\n      tag_75\n      0x04\n      dup1\n      calldatasize\n      sub\n      dup2\n      add\n      swap1\n      tag_76\n      swap2\n      swap1\n      tag_77\n      jump\t// in\n    tag_76:\n      tag_78\n      jump\t// in\n    tag_75:\n      stop\n        /* \"34_ERC721/ERC721.sol\":6004:6320  function tokenURI(uint256 tokenId) public view virtual override returns (string memory) {... */\n    tag_16:\n      tag_79\n      0x04\n      dup1\n      calldatasize\n      sub\n      dup2\n      add\n      swap1\n      tag_80\n      swap2\n      swap1\n      tag_35\n      jump\t// in\n    tag_80:\n      tag_81\n      jump\t// in\n    tag_79:\n      mload(0x40)\n      tag_82\n      swap2\n      swap1\n      tag_32\n      jump\t// in\n    tag_82:\n      mload(0x40)\n      dup1\n      swap2\n      sub\n      swap1\n      return\n        /* \"34_ERC721/ERC721.sol\":579:649  mapping(address => mapping(address => bool)) public _operatorApprovals */\n    tag_17:\n      tag_83\n      0x04\n      dup1\n      calldatasize\n      sub\n      dup2\n      add\n      swap1\n      tag_84\n      swap2\n      swap1\n      tag_85\n      jump\t// in\n    tag_84:\n      tag_86\n      jump\t// in\n    tag_83:\n      mload(0x40)\n      tag_87\n      swap2\n      swap1\n      tag_28\n      jump\t// in\n    tag_87:\n      mload(0x40)\n      dup1\n      swap2\n      sub\n      swap1\n      return\n        /* \"34_ERC721/ERC721.sol\":3026:3382  function approve(uint256 tokenId, address operator) external override{... */\n    tag_18:\n      tag_88\n      0x04\n      dup1\n      calldatasize\n      sub\n      dup2\n      add\n      swap1\n      tag_89\n      swap2\n      swap1\n      tag_90\n      jump\t// in\n    tag_89:\n      tag_91\n      jump\t// in\n    tag_88:\n      stop\n        /* \"34_ERC721/ERC721.sol\":3920:4065  function isApprovedAll(address operator) external view override returns (bool) {... */\n    tag_19:\n      tag_92\n      0x04\n      dup1\n      calldatasize\n      sub\n      dup2\n      add\n      swap1\n      tag_93\n      swap2\n      swap1\n      tag_52\n      jump\t// in\n    tag_93:\n      tag_94\n      jump\t// in\n    tag_92:\n      mload(0x40)\n      tag_95\n      swap2\n      swap1\n      tag_28\n      jump\t// in\n    tag_95:\n      mload(0x40)\n      dup1\n      swap2\n      sub\n      swap1\n      return\n        /* \"34_ERC721/ERC721.sol\":1128:1425  function supportsInterface(bytes4 interfaceId) external pure override returns (bool){... */\n    tag_26:\n        /* \"34_ERC721/ERC721.sol\":1207:1211  bool */\n      0x00\n        /* \"34_ERC721/ERC721.sol\":1262:1287  type(IERC721).interfaceId */\n      0x67e1b100000000000000000000000000000000000000000000000000000000\n        /* \"34_ERC721/ERC721.sol\":1247:1287  interfaceId == type(IERC721).interfaceId */\n      not(0xffffffffffffffffffffffffffffffffffffffffffffffffffffffff)\n      and\n        /* \"34_ERC721/ERC721.sol\":1247:1258  interfaceId */\n      dup3\n        /* \"34_ERC721/ERC721.sol\":1247:1287  interfaceId == type(IERC721).interfaceId */\n      not(0xffffffffffffffffffffffffffffffffffffffffffffffffffffffff)\n      and\n      eq\n        /* \"34_ERC721/ERC721.sol\":1247:1348  interfaceId == type(IERC721).interfaceId ||... */\n      dup1\n      tag_97\n      jumpi\n      pop\n        /* \"34_ERC721/ERC721.sol\":1323:1348  type(IERC165).interfaceId */\n      0x01ffc9a700000000000000000000000000000000000000000000000000000000\n        /* \"34_ERC721/ERC721.sol\":1308:1348  interfaceId == type(IERC165).interfaceId */\n      not(0xffffffffffffffffffffffffffffffffffffffffffffffffffffffff)\n      and\n        /* \"34_ERC721/ERC721.sol\":1308:1319  interfaceId */\n      dup3\n        /* \"34_ERC721/ERC721.sol\":1308:1348  interfaceId == type(IERC165).interfaceId */\n      not(0xffffffffffffffffffffffffffffffffffffffffffffffffffffffff)\n      and\n      eq\n        /* \"34_ERC721/ERC721.sol\":1247:1348  interfaceId == type(IERC721).interfaceId ||... */\n    tag_97:\n        /* \"34_ERC721/ERC721.sol\":1247:1417  interfaceId == type(IERC721).interfaceId ||... */\n      dup1\n      tag_98\n      jumpi\n      pop\n        /* \"34_ERC721/ERC721.sol\":1384:1417  type(IERC721Metadata).interfaceId */\n      0x5b5e139f00000000000000000000000000000000000000000000000000000000\n        /* \"34_ERC721/ERC721.sol\":1369:1417  interfaceId == type(IERC721Metadata).interfaceId */\n      not(0xffffffffffffffffffffffffffffffffffffffffffffffffffffffff)\n      and\n        /* \"34_ERC721/ERC721.sol\":1369:1380  interfaceId */\n      dup3\n        /* \"34_ERC721/ERC721.sol\":1369:1417  interfaceId == type(IERC721Metadata).interfaceId */\n      not(0xffffffffffffffffffffffffffffffffffffffffffffffffffffffff)\n      and\n      eq\n        /* \"34_ERC721/ERC721.sol\":1247:1417  interfaceId == type(IERC721).interfaceId ||... */\n    tag_98:\n        /* \"34_ERC721/ERC721.sol\":1223:1417  return... */\n      swap1\n      pop\n        /* \"34_ERC721/ERC721.sol\":1128:1425  function supportsInterface(bytes4 interfaceId) external pure override returns (bool){... */\n      swap2\n      swap1\n      pop\n      jump\t// out\n        /* \"34_ERC721/ERC721.sol\":347:374  string public override name */\n    tag_30:\n      0x00\n      dup1\n      sload\n      tag_99\n      swap1\n      tag_100\n      jump\t// in\n    tag_99:\n      dup1\n      0x1f\n      add\n      0x20\n      dup1\n      swap2\n      div\n      mul\n      0x20\n      add\n      mload(0x40)\n      swap1\n      dup2\n      add\n      0x40\n      mstore\n      dup1\n      swap3\n      swap2\n      swap1\n      dup2\n      dup2\n      mstore\n      0x20\n      add\n      dup3\n      dup1\n      sload\n      tag_101\n      swap1\n      tag_100\n      jump\t// in\n    tag_101:\n      dup1\n      iszero\n      tag_102\n      jumpi\n      dup1\n      0x1f\n      lt\n      tag_103\n      jumpi\n      0x0100\n      dup1\n      dup4\n      sload\n      div\n      mul\n      dup4\n      mstore\n      swap2\n      0x20\n      add\n      swap2\n      jump(tag_102)\n    tag_103:\n      dup3\n      add\n      swap2\n      swap1\n      0x00\n      mstore\n      keccak256(0x00, 0x20)\n      swap1\n    tag_104:\n      dup2\n      sload\n      dup2\n      mstore\n      swap1\n      0x01\n      add\n      swap1\n      0x20\n      add\n      dup1\n      dup4\n      gt\n      tag_104\n      jumpi\n      dup3\n      swap1\n      sub\n      0x1f\n      and\n      dup3\n      add\n      swap2\n    tag_102:\n      pop\n      pop\n      pop\n      pop\n      pop\n      dup2\n      jump\t// out\n        /* \"34_ERC721/ERC721.sol\":3604:3912  function getApproved(uint256 tokenId) external view override returns (address operator) {... */\n    tag_36:\n        /* \"34_ERC721/ERC721.sol\":3674:3690  address operator */\n      0x00\n        /* \"34_ERC721/ERC721.sol\":3740:3741  0 */\n      0x00\n        /* \"34_ERC721/ERC721.sol\":3712:3742  ownerOf(tokenId) != address(0) */\n      0xffffffffffffffffffffffffffffffffffffffff\n      and\n        /* \"34_ERC721/ERC721.sol\":3712:3728  ownerOf(tokenId) */\n      tag_106\n        /* \"34_ERC721/ERC721.sol\":3720:3727  tokenId */\n      dup4\n        /* \"34_ERC721/ERC721.sol\":3712:3719  ownerOf */\n      tag_48\n        /* \"34_ERC721/ERC721.sol\":3712:3728  ownerOf(tokenId) */\n      jump\t// in\n    tag_106:\n        /* \"34_ERC721/ERC721.sol\":3712:3742  ownerOf(tokenId) != address(0) */\n      0xffffffffffffffffffffffffffffffffffffffff\n      and\n      sub\n        /* \"34_ERC721/ERC721.sol\":3703:3766  require (ownerOf(tokenId) != address(0), \"token doesn't exist\") */\n      tag_107\n      jumpi\n      mload(0x40)\n      0x08c379a000000000000000000000000000000000000000000000000000000000\n      dup2\n      mstore\n      0x04\n      add\n      tag_108\n      swap1\n      tag_109\n      jump\t// in\n    tag_108:\n      mload(0x40)\n      dup1\n      swap2\n      sub\n      swap1\n      revert\n    tag_107:\n        /* \"34_ERC721/ERC721.sol\":3809:3824  _tokenApprovals */\n      0x04\n        /* \"34_ERC721/ERC721.sol\":3809:3833  _tokenApprovals[tokenId] */\n      0x00\n        /* \"34_ERC721/ERC721.sol\":3825:3832  tokenId */\n      dup4\n        /* \"34_ERC721/ERC721.sol\":3809:3833  _tokenApprovals[tokenId] */\n      dup2\n      mstore\n      0x20\n      add\n      swap1\n      dup2\n      mstore\n      0x20\n      add\n      0x00\n      keccak256\n      0x00\n      swap1\n      sload\n      swap1\n      0x0100\n      exp\n      swap1\n      div\n      0xffffffffffffffffffffffffffffffffffffffff\n      and\n        /* \"34_ERC721/ERC721.sol\":3798:3833  operator = _tokenApprovals[tokenId] */\n      swap1\n      pop\n        /* \"34_ERC721/ERC721.sol\":3604:3912  function getApproved(uint256 tokenId) external view override returns (address operator) {... */\n      swap2\n      swap1\n      pop\n      jump\t// out\n        /* \"34_ERC721/ERC721.sol\":2689:3018  function transferFrom (address from, address to, uint256 tokenId) external override {... */\n    tag_42:\n        /* \"34_ERC721/ERC721.sol\":2784:2797  address owner */\n      0x00\n        /* \"34_ERC721/ERC721.sol\":2800:2816  ownerOf(tokenId) */\n      tag_111\n        /* \"34_ERC721/ERC721.sol\":2808:2815  tokenId */\n      dup3\n        /* \"34_ERC721/ERC721.sol\":2800:2807  ownerOf */\n      tag_48\n        /* \"34_ERC721/ERC721.sol\":2800:2816  ownerOf(tokenId) */\n      jump\t// in\n    tag_111:\n        /* \"34_ERC721/ERC721.sol\":2784:2816  address owner = ownerOf(tokenId) */\n      swap1\n      pop\n        /* \"34_ERC721/ERC721.sol\":2836:2881  _isApprovedOrOwner(owner, msg.sender,tokenId) */\n      tag_112\n        /* \"34_ERC721/ERC721.sol\":2855:2860  owner */\n      dup2\n        /* \"34_ERC721/ERC721.sol\":2862:2872  msg.sender */\n      caller\n        /* \"34_ERC721/ERC721.sol\":2873:2880  tokenId */\n      dup5\n        /* \"34_ERC721/ERC721.sol\":2836:2854  _isApprovedOrOwner */\n      tag_113\n        /* \"34_ERC721/ERC721.sol\":2836:2881  _isApprovedOrOwner(owner, msg.sender,tokenId) */\n      jump\t// in\n    tag_112:\n        /* \"34_ERC721/ERC721.sol\":2827:2909  require (_isApprovedOrOwner(owner, msg.sender,tokenId) , \"not owner nor approved\") */\n      tag_114\n      jumpi\n      mload(0x40)\n      0x08c379a000000000000000000000000000000000000000000000000000000000\n      dup2\n      mstore\n      0x04\n      add\n      tag_115\n      swap1\n      tag_116\n      jump\t// in\n    tag_115:\n      mload(0x40)\n      dup1\n      swap2\n      sub\n      swap1\n      revert\n    tag_114:\n        /* \"34_ERC721/ERC721.sol\":2982:3010  _transfer(from, to, tokenId) */\n      tag_117\n        /* \"34_ERC721/ERC721.sol\":2992:2996  from */\n      dup5\n        /* \"34_ERC721/ERC721.sol\":2998:3000  to */\n      dup5\n        /* \"34_ERC721/ERC721.sol\":3002:3009  tokenId */\n      dup5\n        /* \"34_ERC721/ERC721.sol\":2982:2991  _transfer */\n      tag_118\n        /* \"34_ERC721/ERC721.sol\":2982:3010  _transfer(from, to, tokenId) */\n      jump\t// in\n    tag_117:\n        /* \"34_ERC721/ERC721.sol\":2773:3018  {... */\n      pop\n        /* \"34_ERC721/ERC721.sol\":2689:3018  function transferFrom (address from, address to, uint256 tokenId) external override {... */\n      pop\n      pop\n      pop\n      jump\t// out\n        /* \"34_ERC721/ERC721.sol\":2287:2681  function safeTransferFrom(address from, address to, uint256 tokenId) external override {... */\n    tag_45:\n        /* \"34_ERC721/ERC721.sol\":2385:2398  address owner */\n      0x00\n        /* \"34_ERC721/ERC721.sol\":2401:2417  ownerOf(tokenId) */\n      tag_120\n        /* \"34_ERC721/ERC721.sol\":2409:2416  tokenId */\n      dup3\n        /* \"34_ERC721/ERC721.sol\":2401:2408  ownerOf */\n      tag_48\n        /* \"34_ERC721/ERC721.sol\":2401:2417  ownerOf(tokenId) */\n      jump\t// in\n    tag_120:\n        /* \"34_ERC721/ERC721.sol\":2385:2417  address owner = ownerOf(tokenId) */\n      swap1\n      pop\n        /* \"34_ERC721/ERC721.sol\":2437:2483  _isApprovedOrOwner(owner, msg.sender, tokenId) */\n      tag_121\n        /* \"34_ERC721/ERC721.sol\":2456:2461  owner */\n      dup2\n        /* \"34_ERC721/ERC721.sol\":2463:2473  msg.sender */\n      caller\n        /* \"34_ERC721/ERC721.sol\":2475:2482  tokenId */\n      dup5\n        /* \"34_ERC721/ERC721.sol\":2437:2455  _isApprovedOrOwner */\n      tag_113\n        /* \"34_ERC721/ERC721.sol\":2437:2483  _isApprovedOrOwner(owner, msg.sender, tokenId) */\n      jump\t// in\n    tag_121:\n        /* \"34_ERC721/ERC721.sol\":2428:2511  require (_isApprovedOrOwner(owner, msg.sender, tokenId) , \"not owner nor approved\") */\n      tag_122\n      jumpi\n      mload(0x40)\n      0x08c379a000000000000000000000000000000000000000000000000000000000\n      dup2\n      mstore\n      0x04\n      add\n      tag_123\n      swap1\n      tag_116\n      jump\t// in\n    tag_123:\n      mload(0x40)\n      dup1\n      swap2\n      sub\n      swap1\n      revert\n    tag_122:\n        /* \"34_ERC721/ERC721.sol\":2584:2612  _transfer(from, to, tokenId) */\n      tag_124\n        /* \"34_ERC721/ERC721.sol\":2594:2598  from */\n      dup5\n        /* \"34_ERC721/ERC721.sol\":2600:2602  to */\n      dup5\n        /* \"34_ERC721/ERC721.sol\":2604:2611  tokenId */\n      dup5\n        /* \"34_ERC721/ERC721.sol\":2584:2593  _transfer */\n      tag_118\n        /* \"34_ERC721/ERC721.sol\":2584:2612  _transfer(from, to, tokenId) */\n      jump\t// in\n    tag_124:\n        /* \"34_ERC721/ERC721.sol\":2623:2673  _checkERC721Received(from, to, tokenId, bytes(\"\")) */\n      tag_125\n        /* \"34_ERC721/ERC721.sol\":2644:2648  from */\n      dup5\n        /* \"34_ERC721/ERC721.sol\":2650:2652  to */\n      dup5\n        /* \"34_ERC721/ERC721.sol\":2654:2661  tokenId */\n      dup5\n        /* \"34_ERC721/ERC721.sol\":2663:2672  bytes(\"\") */\n      mload(0x40)\n      dup1\n      0x20\n      add\n      0x40\n      mstore\n      dup1\n      0x00\n      dup2\n      mstore\n      pop\n        /* \"34_ERC721/ERC721.sol\":2623:2643  _checkERC721Received */\n      tag_126\n        /* \"34_ERC721/ERC721.sol\":2623:2673  _checkERC721Received(from, to, tokenId, bytes(\"\")) */\n      jump\t// in\n    tag_125:\n        /* \"34_ERC721/ERC721.sol\":2374:2681  {... */\n      pop\n        /* \"34_ERC721/ERC721.sol\":2287:2681  function safeTransferFrom(address from, address to, uint256 tokenId) external override {... */\n      pop\n      pop\n      pop\n      jump\t// out\n        /* \"34_ERC721/ERC721.sol\":1651:1854  function ownerOf(uint tokenId) public view override returns (address owner){... */\n    tag_48:\n        /* \"34_ERC721/ERC721.sol\":1712:1725  address owner */\n      0x00\n        /* \"34_ERC721/ERC721.sol\":1745:1752  _owners */\n      0x02\n        /* \"34_ERC721/ERC721.sol\":1745:1761  _owners[tokenId] */\n      0x00\n        /* \"34_ERC721/ERC721.sol\":1753:1760  tokenId */\n      dup4\n        /* \"34_ERC721/ERC721.sol\":1745:1761  _owners[tokenId] */\n      dup2\n      mstore\n      0x20\n      add\n      swap1\n      dup2\n      mstore\n      0x20\n      add\n      0x00\n      keccak256\n      0x00\n      swap1\n      sload\n      swap1\n      0x0100\n      exp\n      swap1\n      div\n      0xffffffffffffffffffffffffffffffffffffffff\n      and\n        /* \"34_ERC721/ERC721.sol\":1737:1761  owner = _owners[tokenId] */\n      swap1\n      pop\n        /* \"34_ERC721/ERC721.sol\":1798:1799  0 */\n      0x00\n        /* \"34_ERC721/ERC721.sol\":1781:1800  owner != address(0) */\n      0xffffffffffffffffffffffffffffffffffffffff\n      and\n        /* \"34_ERC721/ERC721.sol\":1781:1786  owner */\n      dup2\n        /* \"34_ERC721/ERC721.sol\":1781:1800  owner != address(0) */\n      0xffffffffffffffffffffffffffffffffffffffff\n      and\n      sub\n        /* \"34_ERC721/ERC721.sol\":1772:1823  require (owner != address(0), \"token does't exist\") */\n      tag_128\n      jumpi\n      mload(0x40)\n      0x08c379a000000000000000000000000000000000000000000000000000000000\n      dup2\n      mstore\n      0x04\n      add\n      tag_129\n      swap1\n      tag_130\n      jump\t// in\n    tag_129:\n      mload(0x40)\n      dup1\n      swap2\n      sub\n      swap1\n      revert\n    tag_128:\n        /* \"34_ERC721/ERC721.sol\":1651:1854  function ownerOf(uint tokenId) public view override returns (address owner){... */\n      swap2\n      swap1\n      pop\n      jump\t// out\n        /* \"34_ERC721/ERC721.sol\":469:514  mapping(address => uint256 ) public _balances */\n    tag_53:\n      mstore(0x20, 0x03)\n      dup1\n      0x00\n      mstore\n      keccak256(0x00, 0x40)\n      0x00\n      swap2\n      pop\n      swap1\n      pop\n      sload\n      dup2\n      jump\t// out\n        /* \"34_ERC721/ERC721.sol\":1433:1643  function balanceOf (address owner) external view override returns (uint256 balance) {... */\n    tag_58:\n        /* \"34_ERC721/ERC721.sol\":1500:1515  uint256 balance */\n      0x00\n        /* \"34_ERC721/ERC721.sol\":1553:1554  0 */\n      0x00\n        /* \"34_ERC721/ERC721.sol\":1536:1555  owner != address(0) */\n      0xffffffffffffffffffffffffffffffffffffffff\n      and\n        /* \"34_ERC721/ERC721.sol\":1536:1541  owner */\n      dup3\n        /* \"34_ERC721/ERC721.sol\":1536:1555  owner != address(0) */\n      0xffffffffffffffffffffffffffffffffffffffff\n      and\n      sub\n        /* \"34_ERC721/ERC721.sol\":1528:1581  require(owner != address(0), \"owner is zero address\") */\n      tag_132\n      jumpi\n      mload(0x40)\n      0x08c379a000000000000000000000000000000000000000000000000000000000\n      dup2\n      mstore\n      0x04\n      add\n      tag_133\n      swap1\n      tag_134\n      jump\t// in\n    tag_133:\n      mload(0x40)\n      dup1\n      swap2\n      sub\n      swap1\n      revert\n    tag_132:\n        /* \"34_ERC721/ERC721.sol\":1619:1628  _balances */\n      0x03\n        /* \"34_ERC721/ERC721.sol\":1619:1635  _balances[owner] */\n      0x00\n        /* \"34_ERC721/ERC721.sol\":1629:1634  owner */\n      dup4\n        /* \"34_ERC721/ERC721.sol\":1619:1635  _balances[owner] */\n      0xffffffffffffffffffffffffffffffffffffffff\n      and\n      0xffffffffffffffffffffffffffffffffffffffff\n      and\n      dup2\n      mstore\n      0x20\n      add\n      swap1\n      dup2\n      mstore\n      0x20\n      add\n      0x00\n      keccak256\n      sload\n        /* \"34_ERC721/ERC721.sol\":1612:1635  return _balances[owner] */\n      swap1\n      pop\n        /* \"34_ERC721/ERC721.sol\":1433:1643  function balanceOf (address owner) external view override returns (uint256 balance) {... */\n      swap2\n      swap1\n      pop\n      jump\t// out\n        /* \"34_ERC721/ERC721.sol\":381:410  string public override symbol */\n    tag_61:\n      0x01\n      dup1\n      sload\n      tag_135\n      swap1\n      tag_100\n      jump\t// in\n    tag_135:\n      dup1\n      0x1f\n      add\n      0x20\n      dup1\n      swap2\n      div\n      mul\n      0x20\n      add\n      mload(0x40)\n      swap1\n      dup2\n      add\n      0x40\n      mstore\n      dup1\n      swap3\n      swap2\n      swap1\n      dup2\n      dup2\n      mstore\n      0x20\n      add\n      dup3\n      dup1\n      sload\n      tag_136\n      swap1\n      tag_100\n      jump\t// in\n    tag_136:\n      dup1\n      iszero\n      tag_137\n      jumpi\n      dup1\n      0x1f\n      lt\n      tag_138\n      jumpi\n      0x0100\n      dup1\n      dup4\n      sload\n      div\n      mul\n      dup4\n      mstore\n      swap2\n      0x20\n      add\n      swap2\n      jump(tag_137)\n    tag_138:\n      dup3\n      add\n      swap2\n      swap1\n      0x00\n      mstore\n      keccak256(0x00, 0x20)\n      swap1\n    tag_139:\n      dup2\n      sload\n      dup2\n      mstore\n      swap1\n      0x01\n      add\n      swap1\n      0x20\n      add\n      dup1\n      dup4\n      gt\n      tag_139\n      jumpi\n      dup3\n      swap1\n      sub\n      0x1f\n      and\n      dup3\n      add\n      swap2\n    tag_137:\n      pop\n      pop\n      pop\n      pop\n      pop\n      dup2\n      jump\t// out\n        /* \"34_ERC721/ERC721.sol\":419:462  mapping(uint256 => address ) public _owners */\n    tag_65:\n      mstore(0x20, 0x02)\n      dup1\n      0x00\n      mstore\n      keccak256(0x00, 0x40)\n      0x00\n      swap2\n      pop\n      sload\n      swap1\n      0x0100\n      exp\n      swap1\n      div\n      0xffffffffffffffffffffffffffffffffffffffff\n      and\n      dup2\n      jump\t// out\n        /* \"34_ERC721/ERC721.sol\":521:572  mapping(uint256 => address ) public _tokenApprovals */\n    tag_69:\n      mstore(0x20, 0x04)\n      dup1\n      0x00\n      mstore\n      keccak256(0x00, 0x40)\n      0x00\n      swap2\n      pop\n      sload\n      swap1\n      0x0100\n      exp\n      swap1\n      div\n      0xffffffffffffffffffffffffffffffffffffffff\n      and\n      dup2\n      jump\t// out\n        /* \"34_ERC721/ERC721.sol\":1862:2279  function safeTransferFrom(address from, address to, uint256 tokenId, bytes calldata data) external override {... */\n    tag_74:\n        /* \"34_ERC721/ERC721.sol\":1981:1994  address owner */\n      0x00\n        /* \"34_ERC721/ERC721.sol\":1997:2013  ownerOf(tokenId) */\n      tag_141\n        /* \"34_ERC721/ERC721.sol\":2005:2012  tokenId */\n      dup5\n        /* \"34_ERC721/ERC721.sol\":1997:2004  ownerOf */\n      tag_48\n        /* \"34_ERC721/ERC721.sol\":1997:2013  ownerOf(tokenId) */\n      jump\t// in\n    tag_141:\n        /* \"34_ERC721/ERC721.sol\":1981:2013  address owner = ownerOf(tokenId) */\n      swap1\n      pop\n        /* \"34_ERC721/ERC721.sol\":2033:2078  _isApprovedOrOwner(owner, msg.sender,tokenId) */\n      tag_142\n        /* \"34_ERC721/ERC721.sol\":2052:2057  owner */\n      dup2\n        /* \"34_ERC721/ERC721.sol\":2059:2069  msg.sender */\n      caller\n        /* \"34_ERC721/ERC721.sol\":2070:2077  tokenId */\n      dup7\n        /* \"34_ERC721/ERC721.sol\":2033:2051  _isApprovedOrOwner */\n      tag_113\n        /* \"34_ERC721/ERC721.sol\":2033:2078  _isApprovedOrOwner(owner, msg.sender,tokenId) */\n      jump\t// in\n    tag_142:\n        /* \"34_ERC721/ERC721.sol\":2024:2114  require (_isApprovedOrOwner(owner, msg.sender,tokenId) , \"not owner nor approved for all\") */\n      tag_143\n      jumpi\n      mload(0x40)\n      0x08c379a000000000000000000000000000000000000000000000000000000000\n      dup2\n      mstore\n      0x04\n      add\n      tag_144\n      swap1\n      tag_145\n      jump\t// in\n    tag_144:\n      mload(0x40)\n      dup1\n      swap2\n      sub\n      swap1\n      revert\n    tag_143:\n        /* \"34_ERC721/ERC721.sol\":2187:2215  _transfer(from, to, tokenId) */\n      tag_146\n        /* \"34_ERC721/ERC721.sol\":2197:2201  from */\n      dup7\n        /* \"34_ERC721/ERC721.sol\":2203:2205  to */\n      dup7\n        /* \"34_ERC721/ERC721.sol\":2207:2214  tokenId */\n      dup7\n        /* \"34_ERC721/ERC721.sol\":2187:2196  _transfer */\n      tag_118\n        /* \"34_ERC721/ERC721.sol\":2187:2215  _transfer(from, to, tokenId) */\n      jump\t// in\n    tag_146:\n        /* \"34_ERC721/ERC721.sol\":2226:2271  _checkERC721Received(from, to, tokenId, data) */\n      tag_147\n        /* \"34_ERC721/ERC721.sol\":2247:2251  from */\n      dup7\n        /* \"34_ERC721/ERC721.sol\":2253:2255  to */\n      dup7\n        /* \"34_ERC721/ERC721.sol\":2257:2264  tokenId */\n      dup7\n        /* \"34_ERC721/ERC721.sol\":2266:2270  data */\n      dup7\n      dup7\n        /* \"34_ERC721/ERC721.sol\":2226:2271  _checkERC721Received(from, to, tokenId, data) */\n      dup1\n      dup1\n      0x1f\n      add\n      0x20\n      dup1\n      swap2\n      div\n      mul\n      0x20\n      add\n      mload(0x40)\n      swap1\n      dup2\n      add\n      0x40\n      mstore\n      dup1\n      swap4\n      swap3\n      swap2\n      swap1\n      dup2\n      dup2\n      mstore\n      0x20\n      add\n      dup4\n      dup4\n      dup1\n      dup3\n      dup5\n      calldatacopy\n      0x00\n      dup2\n      dup5\n      add\n      mstore\n      not(0x1f)\n      0x1f\n      dup3\n      add\n      and\n      swap1\n      pop\n      dup1\n      dup4\n      add\n      swap3\n      pop\n      pop\n      pop\n      pop\n      pop\n      pop\n      pop\n        /* \"34_ERC721/ERC721.sol\":2226:2246  _checkERC721Received */\n      tag_126\n        /* \"34_ERC721/ERC721.sol\":2226:2271  _checkERC721Received(from, to, tokenId, data) */\n      jump\t// in\n    tag_147:\n        /* \"34_ERC721/ERC721.sol\":1970:2279  {... */\n      pop\n        /* \"34_ERC721/ERC721.sol\":1862:2279  function safeTransferFrom(address from, address to, uint256 tokenId, bytes calldata data) external override {... */\n      pop\n      pop\n      pop\n      pop\n      pop\n      jump\t// out\n        /* \"34_ERC721/ERC721.sol\":3390:3596  function setApproveAll(address operator, bool approved) external override {... */\n    tag_78:\n        /* \"34_ERC721/ERC721.sol\":3518:3526  approved */\n      dup1\n        /* \"34_ERC721/ERC721.sol\":3475:3493  _operatorApprovals */\n      0x05\n        /* \"34_ERC721/ERC721.sol\":3475:3505  _operatorApprovals[msg.sender] */\n      0x00\n        /* \"34_ERC721/ERC721.sol\":3494:3504  msg.sender */\n      caller\n        /* \"34_ERC721/ERC721.sol\":3475:3505  _operatorApprovals[msg.sender] */\n      0xffffffffffffffffffffffffffffffffffffffff\n      and\n      0xffffffffffffffffffffffffffffffffffffffff\n      and\n      dup2\n      mstore\n      0x20\n      add\n      swap1\n      dup2\n      mstore\n      0x20\n      add\n      0x00\n      keccak256\n        /* \"34_ERC721/ERC721.sol\":3475:3515  _operatorApprovals[msg.sender][operator] */\n      0x00\n        /* \"34_ERC721/ERC721.sol\":3506:3514  operator */\n      dup5\n        /* \"34_ERC721/ERC721.sol\":3475:3515  _operatorApprovals[msg.sender][operator] */\n      0xffffffffffffffffffffffffffffffffffffffff\n      and\n      0xffffffffffffffffffffffffffffffffffffffff\n      and\n      dup2\n      mstore\n      0x20\n      add\n      swap1\n      dup2\n      mstore\n      0x20\n      add\n      0x00\n      keccak256\n      0x00\n        /* \"34_ERC721/ERC721.sol\":3475:3526  _operatorApprovals[msg.sender][operator] = approved */\n      0x0100\n      exp\n      dup2\n      sload\n      dup2\n      0xff\n      mul\n      not\n      and\n      swap1\n      dup4\n      iszero\n      iszero\n      mul\n      or\n      swap1\n      sstore\n      pop\n        /* \"34_ERC721/ERC721.sol\":3579:3587  approved */\n      dup1\n        /* \"34_ERC721/ERC721.sol\":3542:3588  ApprovalForAll(msg.sender, operator, approved) */\n      iszero\n      iszero\n        /* \"34_ERC721/ERC721.sol\":3569:3577  operator */\n      dup3\n        /* \"34_ERC721/ERC721.sol\":3542:3588  ApprovalForAll(msg.sender, operator, approved) */\n      0xffffffffffffffffffffffffffffffffffffffff\n      and\n        /* \"34_ERC721/ERC721.sol\":3557:3567  msg.sender */\n      caller\n        /* \"34_ERC721/ERC721.sol\":3542:3588  ApprovalForAll(msg.sender, operator, approved) */\n      0xffffffffffffffffffffffffffffffffffffffff\n      and\n      0x17307eab39ab6107e8899845ad3d59bd9653f200f220920489ca2b5937696c31\n      mload(0x40)\n      mload(0x40)\n      dup1\n      swap2\n      sub\n      swap1\n      log4\n        /* \"34_ERC721/ERC721.sol\":3390:3596  function setApproveAll(address operator, bool approved) external override {... */\n      pop\n      pop\n      jump\t// out\n        /* \"34_ERC721/ERC721.sol\":6004:6320  function tokenURI(uint256 tokenId) public view virtual override returns (string memory) {... */\n    tag_81:\n        /* \"34_ERC721/ERC721.sol\":6077:6090  string memory */\n      0x60\n        /* \"34_ERC721/ERC721.sol\":6139:6140  0 */\n      0x00\n        /* \"34_ERC721/ERC721.sol\":6111:6141  _owners[tokenId] != address(0) */\n      0xffffffffffffffffffffffffffffffffffffffff\n      and\n        /* \"34_ERC721/ERC721.sol\":6111:6118  _owners */\n      0x02\n        /* \"34_ERC721/ERC721.sol\":6111:6127  _owners[tokenId] */\n      0x00\n        /* \"34_ERC721/ERC721.sol\":6119:6126  tokenId */\n      dup5\n        /* \"34_ERC721/ERC721.sol\":6111:6127  _owners[tokenId] */\n      dup2\n      mstore\n      0x20\n      add\n      swap1\n      dup2\n      mstore\n      0x20\n      add\n      0x00\n      keccak256\n      0x00\n      swap1\n      sload\n      swap1\n      0x0100\n      exp\n      swap1\n      div\n      0xffffffffffffffffffffffffffffffffffffffff\n      and\n        /* \"34_ERC721/ERC721.sol\":6111:6141  _owners[tokenId] != address(0) */\n      0xffffffffffffffffffffffffffffffffffffffff\n      and\n      sub\n        /* \"34_ERC721/ERC721.sol\":6103:6161  require(_owners[tokenId] != address(0), \"Token Not Exist\") */\n      tag_150\n      jumpi\n      mload(0x40)\n      0x08c379a000000000000000000000000000000000000000000000000000000000\n      dup2\n      mstore\n      0x04\n      add\n      tag_151\n      swap1\n      tag_152\n      jump\t// in\n    tag_151:\n      mload(0x40)\n      dup1\n      swap2\n      sub\n      swap1\n      revert\n    tag_150:\n        /* \"34_ERC721/ERC721.sol\":6174:6195  string memory baseURI */\n      0x00\n        /* \"34_ERC721/ERC721.sol\":6198:6208  _baseURI() */\n      tag_153\n        /* \"34_ERC721/ERC721.sol\":6198:6206  _baseURI */\n      tag_154\n        /* \"34_ERC721/ERC721.sol\":6198:6208  _baseURI() */\n      jump\t// in\n    tag_153:\n        /* \"34_ERC721/ERC721.sol\":6174:6208  string memory baseURI = _baseURI() */\n      swap1\n      pop\n        /* \"34_ERC721/ERC721.sol\":6250:6251  0 */\n      0x00\n        /* \"34_ERC721/ERC721.sol\":6232:6239  baseURI */\n      dup2\n        /* \"34_ERC721/ERC721.sol\":6226:6247  bytes(baseURI).length */\n      mload\n        /* \"34_ERC721/ERC721.sol\":6226:6251  bytes(baseURI).length > 0 */\n      gt\n        /* \"34_ERC721/ERC721.sol\":6226:6312  bytes(baseURI).length > 0 ? string(abi.encodePacked(baseURI, tokenId.toString())) : \"\" */\n      tag_155\n      jumpi\n      mload(0x40)\n      dup1\n      0x20\n      add\n      0x40\n      mstore\n      dup1\n      0x00\n      dup2\n      mstore\n      pop\n      jump(tag_156)\n    tag_155:\n        /* \"34_ERC721/ERC721.sol\":6278:6285  baseURI */\n      dup1\n        /* \"34_ERC721/ERC721.sol\":6287:6305  tokenId.toString() */\n      tag_157\n        /* \"34_ERC721/ERC721.sol\":6287:6294  tokenId */\n      dup5\n        /* \"34_ERC721/ERC721.sol\":6287:6303  tokenId.toString */\n      tag_158\n        /* \"34_ERC721/ERC721.sol\":6287:6305  tokenId.toString() */\n      jump\t// in\n    tag_157:\n        /* \"34_ERC721/ERC721.sol\":6261:6306  abi.encodePacked(baseURI, tokenId.toString()) */\n      add(0x20, mload(0x40))\n      tag_159\n      swap3\n      swap2\n      swap1\n      tag_160\n      jump\t// in\n    tag_159:\n      mload(0x40)\n      0x20\n      dup2\n      dup4\n      sub\n      sub\n      dup2\n      mstore\n      swap1\n      0x40\n      mstore\n        /* \"34_ERC721/ERC721.sol\":6226:6312  bytes(baseURI).length > 0 ? string(abi.encodePacked(baseURI, tokenId.toString())) : \"\" */\n    tag_156:\n        /* \"34_ERC721/ERC721.sol\":6219:6312  return bytes(baseURI).length > 0 ? string(abi.encodePacked(baseURI, tokenId.toString())) : \"\" */\n      swap2\n      pop\n      pop\n        /* \"34_ERC721/ERC721.sol\":6004:6320  function tokenURI(uint256 tokenId) public view virtual override returns (string memory) {... */\n      swap2\n      swap1\n      pop\n      jump\t// out\n        /* \"34_ERC721/ERC721.sol\":579:649  mapping(address => mapping(address => bool)) public _operatorApprovals */\n    tag_86:\n      mstore(0x20, 0x05)\n      dup2\n      0x00\n      mstore\n      mstore(0x20, keccak256(0x00, 0x40))\n      dup1\n      0x00\n      mstore\n      keccak256(0x00, 0x40)\n      0x00\n      swap2\n      pop\n      swap2\n      pop\n      swap1\n      sload\n      swap1\n      0x0100\n      exp\n      swap1\n      div\n      0xff\n      and\n      dup2\n      jump\t// out\n        /* \"34_ERC721/ERC721.sol\":3026:3382  function approve(uint256 tokenId, address operator) external override{... */\n    tag_91:\n        /* \"34_ERC721/ERC721.sol\":3106:3119  address owner */\n      0x00\n        /* \"34_ERC721/ERC721.sol\":3122:3129  _owners */\n      0x02\n        /* \"34_ERC721/ERC721.sol\":3122:3138  _owners[tokenId] */\n      0x00\n        /* \"34_ERC721/ERC721.sol\":3130:3137  tokenId */\n      dup5\n        /* \"34_ERC721/ERC721.sol\":3122:3138  _owners[tokenId] */\n      dup2\n      mstore\n      0x20\n      add\n      swap1\n      dup2\n      mstore\n      0x20\n      add\n      0x00\n      keccak256\n      0x00\n      swap1\n      sload\n      swap1\n      0x0100\n      exp\n      swap1\n      div\n      0xffffffffffffffffffffffffffffffffffffffff\n      and\n        /* \"34_ERC721/ERC721.sol\":3106:3138  address owner = _owners[tokenId] */\n      swap1\n      pop\n        /* \"34_ERC721/ERC721.sol\":3167:3177  msg.sender */\n      caller\n        /* \"34_ERC721/ERC721.sol\":3158:3177  owner == msg.sender */\n      0xffffffffffffffffffffffffffffffffffffffff\n      and\n        /* \"34_ERC721/ERC721.sol\":3158:3163  owner */\n      dup2\n        /* \"34_ERC721/ERC721.sol\":3158:3177  owner == msg.sender */\n      0xffffffffffffffffffffffffffffffffffffffff\n      and\n      eq\n        /* \"34_ERC721/ERC721.sol\":3158:3216  owner == msg.sender || _operatorApprovals[owner][operator] */\n      dup1\n      tag_162\n      jumpi\n      pop\n        /* \"34_ERC721/ERC721.sol\":3181:3199  _operatorApprovals */\n      0x05\n        /* \"34_ERC721/ERC721.sol\":3181:3206  _operatorApprovals[owner] */\n      0x00\n        /* \"34_ERC721/ERC721.sol\":3200:3205  owner */\n      dup3\n        /* \"34_ERC721/ERC721.sol\":3181:3206  _operatorApprovals[owner] */\n      0xffffffffffffffffffffffffffffffffffffffff\n      and\n      0xffffffffffffffffffffffffffffffffffffffff\n      and\n      dup2\n      mstore\n      0x20\n      add\n      swap1\n      dup2\n      mstore\n      0x20\n      add\n      0x00\n      keccak256\n        /* \"34_ERC721/ERC721.sol\":3181:3216  _operatorApprovals[owner][operator] */\n      0x00\n        /* \"34_ERC721/ERC721.sol\":3207:3215  operator */\n      dup4\n        /* \"34_ERC721/ERC721.sol\":3181:3216  _operatorApprovals[owner][operator] */\n      0xffffffffffffffffffffffffffffffffffffffff\n      and\n      0xffffffffffffffffffffffffffffffffffffffff\n      and\n      dup2\n      mstore\n      0x20\n      add\n      swap1\n      dup2\n      mstore\n      0x20\n      add\n      0x00\n      keccak256\n      0x00\n      swap1\n      sload\n      swap1\n      0x0100\n      exp\n      swap1\n      div\n      0xff\n      and\n        /* \"34_ERC721/ERC721.sol\":3158:3216  owner == msg.sender || _operatorApprovals[owner][operator] */\n    tag_162:\n        /* \"34_ERC721/ERC721.sol\":3149:3251  require (owner == msg.sender || _operatorApprovals[owner][operator], \"not owner nor approved for all\") */\n      tag_163\n      jumpi\n      mload(0x40)\n      0x08c379a000000000000000000000000000000000000000000000000000000000\n      dup2\n      mstore\n      0x04\n      add\n      tag_164\n      swap1\n      tag_145\n      jump\t// in\n    tag_164:\n      mload(0x40)\n      dup1\n      swap2\n      sub\n      swap1\n      revert\n    tag_163:\n        /* \"34_ERC721/ERC721.sol\":3321:3329  operator */\n      dup2\n        /* \"34_ERC721/ERC721.sol\":3294:3309  _tokenApprovals */\n      0x04\n        /* \"34_ERC721/ERC721.sol\":3294:3318  _tokenApprovals[tokenId] */\n      0x00\n        /* \"34_ERC721/ERC721.sol\":3310:3317  tokenId */\n      dup6\n        /* \"34_ERC721/ERC721.sol\":3294:3318  _tokenApprovals[tokenId] */\n      dup2\n      mstore\n      0x20\n      add\n      swap1\n      dup2\n      mstore\n      0x20\n      add\n      0x00\n      keccak256\n      0x00\n        /* \"34_ERC721/ERC721.sol\":3294:3329  _tokenApprovals[tokenId] = operator */\n      0x0100\n      exp\n      dup2\n      sload\n      dup2\n      0xffffffffffffffffffffffffffffffffffffffff\n      mul\n      not\n      and\n      swap1\n      dup4\n      0xffffffffffffffffffffffffffffffffffffffff\n      and\n      mul\n      or\n      swap1\n      sstore\n      pop\n        /* \"34_ERC721/ERC721.sol\":3340:3374  _approve(owner, operator, tokenId) */\n      tag_165\n        /* \"34_ERC721/ERC721.sol\":3349:3354  owner */\n      dup2\n        /* \"34_ERC721/ERC721.sol\":3356:3364  operator */\n      dup4\n        /* \"34_ERC721/ERC721.sol\":3366:3373  tokenId */\n      dup6\n        /* \"34_ERC721/ERC721.sol\":3340:3348  _approve */\n      tag_166\n        /* \"34_ERC721/ERC721.sol\":3340:3374  _approve(owner, operator, tokenId) */\n      jump\t// in\n    tag_165:\n        /* \"34_ERC721/ERC721.sol\":3095:3382  {... */\n      pop\n        /* \"34_ERC721/ERC721.sol\":3026:3382  function approve(uint256 tokenId, address operator) external override{... */\n      pop\n      pop\n      jump\t// out\n        /* \"34_ERC721/ERC721.sol\":3920:4065  function isApprovedAll(address operator) external view override returns (bool) {... */\n    tag_94:\n        /* \"34_ERC721/ERC721.sol\":3993:3997  bool */\n      0x00\n        /* \"34_ERC721/ERC721.sol\":4017:4035  _operatorApprovals */\n      0x05\n        /* \"34_ERC721/ERC721.sol\":4017:4047  _operatorApprovals[msg.sender] */\n      0x00\n        /* \"34_ERC721/ERC721.sol\":4036:4046  msg.sender */\n      caller\n        /* \"34_ERC721/ERC721.sol\":4017:4047  _operatorApprovals[msg.sender] */\n      0xffffffffffffffffffffffffffffffffffffffff\n      and\n      0xffffffffffffffffffffffffffffffffffffffff\n      and\n      dup2\n      mstore\n      0x20\n      add\n      swap1\n      dup2\n      mstore\n      0x20\n      add\n      0x00\n      keccak256\n        /* \"34_ERC721/ERC721.sol\":4017:4057  _operatorApprovals[msg.sender][operator] */\n      0x00\n        /* \"34_ERC721/ERC721.sol\":4048:4056  operator */\n      dup4\n        /* \"34_ERC721/ERC721.sol\":4017:4057  _operatorApprovals[msg.sender][operator] */\n      0xffffffffffffffffffffffffffffffffffffffff\n      and\n      0xffffffffffffffffffffffffffffffffffffffff\n      and\n      dup2\n      mstore\n      0x20\n      add\n      swap1\n      dup2\n      mstore\n      0x20\n      add\n      0x00\n      keccak256\n      0x00\n      swap1\n      sload\n      swap1\n      0x0100\n      exp\n      swap1\n      div\n      0xff\n      and\n        /* \"34_ERC721/ERC721.sol\":4010:4057  return _operatorApprovals[msg.sender][operator] */\n      swap1\n      pop\n        /* \"34_ERC721/ERC721.sol\":3920:4065  function isApprovedAll(address operator) external view override returns (bool) {... */\n      swap2\n      swap1\n      pop\n      jump\t// out\n        /* \"34_ERC721/ERC721.sol\":4073:4345  function _isApprovedOrOwner(address owner, address operator, uint256 tokenId) private view returns (bool) {... */\n    tag_113:\n        /* \"34_ERC721/ERC721.sol\":4173:4177  bool */\n      0x00\n        /* \"34_ERC721/ERC721.sol\":4209:4214  owner */\n      dup4\n        /* \"34_ERC721/ERC721.sol\":4197:4214  operator == owner */\n      0xffffffffffffffffffffffffffffffffffffffff\n      and\n        /* \"34_ERC721/ERC721.sol\":4197:4205  operator */\n      dup4\n        /* \"34_ERC721/ERC721.sol\":4197:4214  operator == owner */\n      0xffffffffffffffffffffffffffffffffffffffff\n      and\n      eq\n        /* \"34_ERC721/ERC721.sol\":4197:4267  operator == owner ||... */\n      dup1\n      tag_169\n      jumpi\n      pop\n        /* \"34_ERC721/ERC721.sol\":4259:4267  operator */\n      dup3\n        /* \"34_ERC721/ERC721.sol\":4231:4267  _tokenApprovals[tokenId] == operator */\n      0xffffffffffffffffffffffffffffffffffffffff\n      and\n        /* \"34_ERC721/ERC721.sol\":4231:4246  _tokenApprovals */\n      0x04\n        /* \"34_ERC721/ERC721.sol\":4231:4255  _tokenApprovals[tokenId] */\n      0x00\n        /* \"34_ERC721/ERC721.sol\":4247:4254  tokenId */\n      dup5\n        /* \"34_ERC721/ERC721.sol\":4231:4255  _tokenApprovals[tokenId] */\n      dup2\n      mstore\n      0x20\n      add\n      swap1\n      dup2\n      mstore\n      0x20\n      add\n      0x00\n      keccak256\n      0x00\n      swap1\n      sload\n      swap1\n      0x0100\n      exp\n      swap1\n      div\n      0xffffffffffffffffffffffffffffffffffffffff\n      and\n        /* \"34_ERC721/ERC721.sol\":4231:4267  _tokenApprovals[tokenId] == operator */\n      0xffffffffffffffffffffffffffffffffffffffff\n      and\n      eq\n        /* \"34_ERC721/ERC721.sol\":4197:4267  operator == owner ||... */\n    tag_169:\n        /* \"34_ERC721/ERC721.sol\":4197:4335  operator == owner ||... */\n      dup1\n      tag_170\n      jumpi\n      pop\n        /* \"34_ERC721/ERC721.sol\":4300:4318  _operatorApprovals */\n      0x05\n        /* \"34_ERC721/ERC721.sol\":4300:4325  _operatorApprovals[owner] */\n      0x00\n        /* \"34_ERC721/ERC721.sol\":4319:4324  owner */\n      dup6\n        /* \"34_ERC721/ERC721.sol\":4300:4325  _operatorApprovals[owner] */\n      0xffffffffffffffffffffffffffffffffffffffff\n      and\n      0xffffffffffffffffffffffffffffffffffffffff\n      and\n      dup2\n      mstore\n      0x20\n      add\n      swap1\n      dup2\n      mstore\n      0x20\n      add\n      0x00\n      keccak256\n        /* \"34_ERC721/ERC721.sol\":4300:4335  _operatorApprovals[owner][operator] */\n      0x00\n        /* \"34_ERC721/ERC721.sol\":4326:4334  operator */\n      dup5\n        /* \"34_ERC721/ERC721.sol\":4300:4335  _operatorApprovals[owner][operator] */\n      0xffffffffffffffffffffffffffffffffffffffff\n      and\n      0xffffffffffffffffffffffffffffffffffffffff\n      and\n      dup2\n      mstore\n      0x20\n      add\n      swap1\n      dup2\n      mstore\n      0x20\n      add\n      0x00\n      keccak256\n      0x00\n      swap1\n      sload\n      swap1\n      0x0100\n      exp\n      swap1\n      div\n      0xff\n      and\n        /* \"34_ERC721/ERC721.sol\":4197:4335  operator == owner ||... */\n    tag_170:\n        /* \"34_ERC721/ERC721.sol\":4190:4335  return operator == owner ||... */\n      swap1\n      pop\n        /* \"34_ERC721/ERC721.sol\":4073:4345  function _isApprovedOrOwner(address owner, address operator, uint256 tokenId) private view returns (bool) {... */\n      swap4\n      swap3\n      pop\n      pop\n      pop\n      jump\t// out\n        /* \"34_ERC721/ERC721.sol\":4556:4910  function _transfer (address from, address to, uint256 tokenId) private {... */\n    tag_118:\n        /* \"34_ERC721/ERC721.sol\":4661:4662  0 */\n      0x00\n        /* \"34_ERC721/ERC721.sol\":4647:4663  to != address(0) */\n      0xffffffffffffffffffffffffffffffffffffffff\n      and\n        /* \"34_ERC721/ERC721.sol\":4647:4649  to */\n      dup3\n        /* \"34_ERC721/ERC721.sol\":4647:4663  to != address(0) */\n      0xffffffffffffffffffffffffffffffffffffffff\n      and\n      sub\n        /* \"34_ERC721/ERC721.sol\":4638:4696  require (to != address(0), \"transfer to the zero address\") */\n      tag_172\n      jumpi\n      mload(0x40)\n      0x08c379a000000000000000000000000000000000000000000000000000000000\n      dup2\n      mstore\n      0x04\n      add\n      tag_173\n      swap1\n      tag_174\n      jump\t// in\n    tag_173:\n      mload(0x40)\n      dup1\n      swap2\n      sub\n      swap1\n      revert\n    tag_172:\n        /* \"34_ERC721/ERC721.sol\":4732:4767  _approve(from, address(0), tokenId) */\n      tag_175\n        /* \"34_ERC721/ERC721.sol\":4741:4745  from */\n      dup4\n        /* \"34_ERC721/ERC721.sol\":4755:4756  0 */\n      0x00\n        /* \"34_ERC721/ERC721.sol\":4759:4766  tokenId */\n      dup4\n        /* \"34_ERC721/ERC721.sol\":4732:4740  _approve */\n      tag_166\n        /* \"34_ERC721/ERC721.sol\":4732:4767  _approve(from, address(0), tokenId) */\n      jump\t// in\n    tag_175:\n        /* \"34_ERC721/ERC721.sol\":4799:4801  to */\n      dup2\n        /* \"34_ERC721/ERC721.sol\":4780:4787  _owners */\n      0x02\n        /* \"34_ERC721/ERC721.sol\":4780:4796  _owners[tokenId] */\n      0x00\n        /* \"34_ERC721/ERC721.sol\":4788:4795  tokenId */\n      dup4\n        /* \"34_ERC721/ERC721.sol\":4780:4796  _owners[tokenId] */\n      dup2\n      mstore\n      0x20\n      add\n      swap1\n      dup2\n      mstore\n      0x20\n      add\n      0x00\n      keccak256\n      0x00\n        /* \"34_ERC721/ERC721.sol\":4780:4801  _owners[tokenId] = to */\n      0x0100\n      exp\n      dup2\n      sload\n      dup2\n      0xffffffffffffffffffffffffffffffffffffffff\n      mul\n      not\n      and\n      swap1\n      dup4\n      0xffffffffffffffffffffffffffffffffffffffff\n      and\n      mul\n      or\n      swap1\n      sstore\n      pop\n        /* \"34_ERC721/ERC721.sol\":4830:4831  1 */\n      0x01\n        /* \"34_ERC721/ERC721.sol\":4812:4821  _balances */\n      0x03\n        /* \"34_ERC721/ERC721.sol\":4812:4827  _balances[from] */\n      0x00\n        /* \"34_ERC721/ERC721.sol\":4822:4826  from */\n      dup6\n        /* \"34_ERC721/ERC721.sol\":4812:4827  _balances[from] */\n      0xffffffffffffffffffffffffffffffffffffffff\n      and\n      0xffffffffffffffffffffffffffffffffffffffff\n      and\n      dup2\n      mstore\n      0x20\n      add\n      swap1\n      dup2\n      mstore\n      0x20\n      add\n      0x00\n      keccak256\n      0x00\n        /* \"34_ERC721/ERC721.sol\":4812:4831  _balances[from] -=1 */\n      dup3\n      dup3\n      sload\n      tag_176\n      swap2\n      swap1\n      tag_177\n      jump\t// in\n    tag_176:\n      swap3\n      pop\n      pop\n      dup2\n      swap1\n      sstore\n      pop\n        /* \"34_ERC721/ERC721.sol\":4858:4859  1 */\n      0x01\n        /* \"34_ERC721/ERC721.sol\":4842:4851  _balances */\n      0x03\n        /* \"34_ERC721/ERC721.sol\":4842:4855  _balances[to] */\n      0x00\n        /* \"34_ERC721/ERC721.sol\":4852:4854  to */\n      dup5\n        /* \"34_ERC721/ERC721.sol\":4842:4855  _balances[to] */\n      0xffffffffffffffffffffffffffffffffffffffff\n      and\n      0xffffffffffffffffffffffffffffffffffffffff\n      and\n      dup2\n      mstore\n      0x20\n      add\n      swap1\n      dup2\n      mstore\n      0x20\n      add\n      0x00\n      keccak256\n      0x00\n        /* \"34_ERC721/ERC721.sol\":4842:4859  _balances[to] +=1 */\n      dup3\n      dup3\n      sload\n      tag_178\n      swap2\n      swap1\n      tag_179\n      jump\t// in\n    tag_178:\n      swap3\n      pop\n      pop\n      dup2\n      swap1\n      sstore\n      pop\n        /* \"34_ERC721/ERC721.sol\":4894:4901  tokenId */\n      dup1\n        /* \"34_ERC721/ERC721.sol\":4890:4892  to */\n      dup3\n        /* \"34_ERC721/ERC721.sol\":4875:4902  Transfer(from, to, tokenId) */\n      0xffffffffffffffffffffffffffffffffffffffff\n      and\n        /* \"34_ERC721/ERC721.sol\":4884:4888  from */\n      dup5\n        /* \"34_ERC721/ERC721.sol\":4875:4902  Transfer(from, to, tokenId) */\n      0xffffffffffffffffffffffffffffffffffffffff\n      and\n      0xddf252ad1be2c89b69c2b068fc378daa952ba7f163c4a11628f55a4df523b3ef\n      mload(0x40)\n      mload(0x40)\n      dup1\n      swap2\n      sub\n      swap1\n      log4\n        /* \"34_ERC721/ERC721.sol\":4556:4910  function _transfer (address from, address to, uint256 tokenId) private {... */\n      pop\n      pop\n      pop\n      jump\t// out\n        /* \"34_ERC721/ERC721.sol\":5106:5911  function _checkERC721Received(address from, address to, uint256 tokenId, bytes memory data) private {... */\n    tag_126:\n        /* \"34_ERC721/ERC721.sol\":5235:5236  0 */\n      0x00\n        /* \"34_ERC721/ERC721.sol\":5220:5222  to */\n      dup4\n        /* \"34_ERC721/ERC721.sol\":5220:5234  to.code.length */\n      0xffffffffffffffffffffffffffffffffffffffff\n      and\n      extcodesize\n        /* \"34_ERC721/ERC721.sol\":5220:5236  to.code.length>0 */\n      gt\n        /* \"34_ERC721/ERC721.sol\":5217:5904  if(to.code.length>0){... */\n      iszero\n      tag_181\n      jumpi\n        /* \"34_ERC721/ERC721.sol\":5272:5274  to */\n      dup3\n        /* \"34_ERC721/ERC721.sol\":5256:5292  IERC721Receiver(to).onERC721Received */\n      0xffffffffffffffffffffffffffffffffffffffff\n      and\n      0x150b7a02\n        /* \"34_ERC721/ERC721.sol\":5293:5303  msg.sender */\n      caller\n        /* \"34_ERC721/ERC721.sol\":5305:5309  from */\n      dup7\n        /* \"34_ERC721/ERC721.sol\":5311:5318  tokenId */\n      dup6\n        /* \"34_ERC721/ERC721.sol\":5320:5324  data */\n      dup6\n        /* \"34_ERC721/ERC721.sol\":5256:5325  IERC721Receiver(to).onERC721Received(msg.sender, from, tokenId, data) */\n      mload(0x40)\n      dup6\n      0xffffffff\n      and\n      0xe0\n      shl\n      dup2\n      mstore\n      0x04\n      add\n      tag_182\n      swap5\n      swap4\n      swap3\n      swap2\n      swap1\n      tag_183\n      jump\t// in\n    tag_182:\n      0x20\n      mload(0x40)\n      dup1\n      dup4\n      sub\n      dup2\n      0x00\n      dup8\n      gas\n      call\n      swap3\n      pop\n      pop\n      pop\n      dup1\n      iszero\n      tag_184\n      jumpi\n      pop\n      mload(0x40)\n      returndatasize\n      not(0x1f)\n      0x1f\n      dup3\n      add\n      and\n      dup3\n      add\n      dup1\n      0x40\n      mstore\n      pop\n      dup2\n      add\n      swap1\n      tag_185\n      swap2\n      swap1\n      tag_186\n      jump\t// in\n    tag_185:\n      0x01\n    tag_184:\n        /* \"34_ERC721/ERC721.sol\":5252:5893  try IERC721Receiver(to).onERC721Received(msg.sender, from, tokenId, data) returns (bytes4 retval) {... */\n      tag_187\n      jumpi\n      returndatasize\n      dup1\n      0x00\n      dup2\n      eq\n      tag_192\n      jumpi\n      mload(0x40)\n      swap2\n      pop\n      and(add(returndatasize, 0x3f), not(0x1f))\n      dup3\n      add\n      0x40\n      mstore\n      returndatasize\n      dup3\n      mstore\n      returndatasize\n      0x00\n      0x20\n      dup5\n      add\n      returndatacopy\n      jump(tag_191)\n    tag_192:\n      0x60\n      swap2\n      pop\n    tag_191:\n      pop\n        /* \"34_ERC721/ERC721.sol\":5585:5586  0 */\n      0x00\n        /* \"34_ERC721/ERC721.sol\":5568:5574  reason */\n      dup2\n        /* \"34_ERC721/ERC721.sol\":5568:5581  reason.length */\n      mload\n        /* \"34_ERC721/ERC721.sol\":5568:5586  reason.length == 0 */\n      sub\n        /* \"34_ERC721/ERC721.sol\":5564:5876  if (reason.length == 0) {... */\n      tag_193\n      jumpi\n        /* \"34_ERC721/ERC721.sol\":5640:5642  to */\n      dup4\n        /* \"34_ERC721/ERC721.sol\":5618:5643  InvaildERC721Receiver(to) */\n      mload(0x40)\n      0xf9ecab6200000000000000000000000000000000000000000000000000000000\n      dup2\n      mstore\n      0x04\n      add\n      tag_194\n      swap2\n      swap1\n      tag_38\n      jump\t// in\n    tag_194:\n      mload(0x40)\n      dup1\n      swap2\n      sub\n      swap1\n      revert\n        /* \"34_ERC721/ERC721.sol\":5564:5876  if (reason.length == 0) {... */\n    tag_193:\n        /* \"34_ERC721/ERC721.sol\":5826:5832  reason */\n      dup1\n        /* \"34_ERC721/ERC721.sol\":5820:5833  mload(reason) */\n      mload\n        /* \"34_ERC721/ERC721.sol\":5811:5817  reason */\n      dup2\n        /* \"34_ERC721/ERC721.sol\":5807:5809  32 */\n      0x20\n        /* \"34_ERC721/ERC721.sol\":5803:5818  add(32, reason) */\n      add\n        /* \"34_ERC721/ERC721.sol\":5796:5834  revert(add(32, reason), mload(reason)) */\n      revert\n        /* \"34_ERC721/ERC721.sol\":5252:5893  try IERC721Receiver(to).onERC721Received(msg.sender, from, tokenId, data) returns (bytes4 retval) {... */\n    tag_187:\n        /* \"34_ERC721/ERC721.sol\":5383:5424  IERC721Receiver.onERC721Received.selector */\n      shl(0xe0, 0x150b7a02)\n        /* \"34_ERC721/ERC721.sol\":5373:5424  retval != IERC721Receiver.onERC721Received.selector */\n      not(0xffffffffffffffffffffffffffffffffffffffffffffffffffffffff)\n      and\n        /* \"34_ERC721/ERC721.sol\":5373:5379  retval */\n      dup2\n        /* \"34_ERC721/ERC721.sol\":5373:5424  retval != IERC721Receiver.onERC721Received.selector */\n      not(0xffffffffffffffffffffffffffffffffffffffffffffffffffffffff)\n      and\n      eq\n        /* \"34_ERC721/ERC721.sol\":5369:5501  if (retval != IERC721Receiver.onERC721Received.selector) {... */\n      tag_197\n      jumpi\n        /* \"34_ERC721/ERC721.sol\":5478:5480  to */\n      dup4\n        /* \"34_ERC721/ERC721.sol\":5456:5481  InvaildERC721Receiver(to) */\n      mload(0x40)\n      0xf9ecab6200000000000000000000000000000000000000000000000000000000\n      dup2\n      mstore\n      0x04\n      add\n      tag_198\n      swap2\n      swap1\n      tag_38\n      jump\t// in\n    tag_198:\n      mload(0x40)\n      dup1\n      swap2\n      sub\n      swap1\n      revert\n        /* \"34_ERC721/ERC721.sol\":5369:5501  if (retval != IERC721Receiver.onERC721Received.selector) {... */\n    tag_197:\n        /* \"34_ERC721/ERC721.sol\":5326:5516  returns (bytes4 retval) {... */\n      pop\n        /* \"34_ERC721/ERC721.sol\":5217:5904  if(to.code.length>0){... */\n    tag_181:\n        /* \"34_ERC721/ERC721.sol\":5106:5911  function _checkERC721Received(address from, address to, uint256 tokenId, bytes memory data) private {... */\n      pop\n      pop\n      pop\n      pop\n      jump\t// out\n        /* \"34_ERC721/ERC721.sol\":6537:6631  function _baseURI() internal view virtual returns (string memory) {... */\n    tag_154:\n        /* \"34_ERC721/ERC721.sol\":6588:6601  string memory */\n      0x60\n        /* \"34_ERC721/ERC721.sol\":6614:6623  return \"\" */\n      mload(0x40)\n      dup1\n      0x20\n      add\n      0x40\n      mstore\n      dup1\n      0x00\n      dup2\n      mstore\n      pop\n      swap1\n      pop\n        /* \"34_ERC721/ERC721.sol\":6537:6631  function _baseURI() internal view virtual returns (string memory) {... */\n      swap1\n      jump\t// out\n        /* \"34_ERC721/Strings.sol\":412:1135  function toString(uint256 value) internal pure returns (string memory) {... */\n    tag_158:\n        /* \"34_ERC721/Strings.sol\":468:481  string memory */\n      0x60\n        /* \"34_ERC721/Strings.sol\":698:699  0 */\n      0x00\n        /* \"34_ERC721/Strings.sol\":689:694  value */\n      dup3\n        /* \"34_ERC721/Strings.sol\":689:699  value == 0 */\n      sub\n        /* \"34_ERC721/Strings.sol\":685:738  if (value == 0) {... */\n      tag_201\n      jumpi\n        /* \"34_ERC721/Strings.sol\":716:726  return \"0\" */\n      mload(0x40)\n      dup1\n      0x40\n      add\n      0x40\n      mstore\n      dup1\n      0x01\n      dup2\n      mstore\n      0x20\n      add\n      0x3000000000000000000000000000000000000000000000000000000000000000\n      dup2\n      mstore\n      pop\n      swap1\n      pop\n      jump(tag_200)\n        /* \"34_ERC721/Strings.sol\":685:738  if (value == 0) {... */\n    tag_201:\n        /* \"34_ERC721/Strings.sol\":748:760  uint256 temp */\n      0x00\n        /* \"34_ERC721/Strings.sol\":763:768  value */\n      dup3\n        /* \"34_ERC721/Strings.sol\":748:768  uint256 temp = value */\n      swap1\n      pop\n        /* \"34_ERC721/Strings.sol\":779:793  uint256 digits */\n      0x00\n        /* \"34_ERC721/Strings.sol\":804:882  while (temp != 0) {... */\n    tag_202:\n        /* \"34_ERC721/Strings.sol\":819:820  0 */\n      0x00\n        /* \"34_ERC721/Strings.sol\":811:815  temp */\n      dup3\n        /* \"34_ERC721/Strings.sol\":811:820  temp != 0 */\n      eq\n        /* \"34_ERC721/Strings.sol\":804:882  while (temp != 0) {... */\n      tag_203\n      jumpi\n        /* \"34_ERC721/Strings.sol\":837:845  digits++ */\n      dup1\n      dup1\n      tag_204\n      swap1\n      tag_205\n      jump\t// in\n    tag_204:\n      swap2\n      pop\n      pop\n        /* \"34_ERC721/Strings.sol\":868:870  10 */\n      0x0a\n        /* \"34_ERC721/Strings.sol\":860:870  temp /= 10 */\n      dup3\n      tag_206\n      swap2\n      swap1\n      tag_207\n      jump\t// in\n    tag_206:\n      swap2\n      pop\n        /* \"34_ERC721/Strings.sol\":804:882  while (temp != 0) {... */\n      jump(tag_202)\n    tag_203:\n        /* \"34_ERC721/Strings.sol\":892:911  bytes memory buffer */\n      0x00\n        /* \"34_ERC721/Strings.sol\":924:930  digits */\n      dup2\n        /* \"34_ERC721/Strings.sol\":914:931  new bytes(digits) */\n      0xffffffffffffffff\n      dup2\n      gt\n      iszero\n      tag_208\n      jumpi\n      tag_209\n      tag_210\n      jump\t// in\n    tag_209:\n    tag_208:\n      mload(0x40)\n      swap1\n      dup1\n      dup3\n      mstore\n      dup1\n      0x1f\n      add\n      not(0x1f)\n      and\n      0x20\n      add\n      dup3\n      add\n      0x40\n      mstore\n      dup1\n      iszero\n      tag_211\n      jumpi\n      dup2\n      0x20\n      add\n      0x01\n      dup3\n      mul\n      dup1\n      calldatasize\n      dup4\n      calldatacopy\n      dup1\n      dup3\n      add\n      swap2\n      pop\n      pop\n      swap1\n      pop\n    tag_211:\n      pop\n        /* \"34_ERC721/Strings.sol\":892:931  bytes memory buffer = new bytes(digits) */\n      swap1\n      pop\n        /* \"34_ERC721/Strings.sol\":942:1096  while (value != 0) {... */\n    tag_212:\n        /* \"34_ERC721/Strings.sol\":958:959  0 */\n      0x00\n        /* \"34_ERC721/Strings.sol\":949:954  value */\n      dup6\n        /* \"34_ERC721/Strings.sol\":949:959  value != 0 */\n      eq\n        /* \"34_ERC721/Strings.sol\":942:1096  while (value != 0) {... */\n      tag_213\n      jumpi\n        /* \"34_ERC721/Strings.sol\":986:987  1 */\n      0x01\n        /* \"34_ERC721/Strings.sol\":976:987  digits -= 1 */\n      dup3\n      tag_214\n      swap2\n      swap1\n      tag_177\n      jump\t// in\n    tag_214:\n      swap2\n      pop\n        /* \"34_ERC721/Strings.sol\":1053:1055  10 */\n      0x0a\n        /* \"34_ERC721/Strings.sol\":1045:1050  value */\n      dup6\n        /* \"34_ERC721/Strings.sol\":1045:1055  value % 10 */\n      tag_215\n      swap2\n      swap1\n      tag_216\n      jump\t// in\n    tag_215:\n        /* \"34_ERC721/Strings.sol\":1032:1034  48 */\n      0x30\n        /* \"34_ERC721/Strings.sol\":1032:1056  48 + uint256(value % 10) */\n      tag_217\n      swap2\n      swap1\n      tag_179\n      jump\t// in\n    tag_217:\n        /* \"34_ERC721/Strings.sol\":1019:1058  bytes1(uint8(48 + uint256(value % 10))) */\n      0xf8\n      shl\n        /* \"34_ERC721/Strings.sol\":1002:1008  buffer */\n      dup2\n        /* \"34_ERC721/Strings.sol\":1009:1015  digits */\n      dup4\n        /* \"34_ERC721/Strings.sol\":1002:1016  buffer[digits] */\n      dup2\n      mload\n      dup2\n      lt\n      tag_218\n      jumpi\n      tag_219\n      tag_220\n      jump\t// in\n    tag_219:\n    tag_218:\n      0x20\n      add\n      add\n        /* \"34_ERC721/Strings.sol\":1002:1058  buffer[digits] = bytes1(uint8(48 + uint256(value % 10))) */\n      swap1\n      not(0xffffffffffffffffffffffffffffffffffffffffffffffffffffffffffffff)\n      and\n      swap1\n      dup2\n      0x00\n      byte\n      swap1\n      mstore8\n      pop\n        /* \"34_ERC721/Strings.sol\":1082:1084  10 */\n      0x0a\n        /* \"34_ERC721/Strings.sol\":1073:1084  value /= 10 */\n      dup6\n      tag_221\n      swap2\n      swap1\n      tag_207\n      jump\t// in\n    tag_221:\n      swap5\n      pop\n        /* \"34_ERC721/Strings.sol\":942:1096  while (value != 0) {... */\n      jump(tag_212)\n    tag_213:\n        /* \"34_ERC721/Strings.sol\":1120:1126  buffer */\n      dup1\n        /* \"34_ERC721/Strings.sol\":1106:1127  return string(buffer) */\n      swap4\n      pop\n      pop\n      pop\n      pop\n        /* \"34_ERC721/Strings.sol\":412:1135  function toString(uint256 value) internal pure returns (string memory) {... */\n    tag_200:\n      swap2\n      swap1\n      pop\n      jump\t// out\n        /* \"34_ERC721/ERC721.sol\":4918:5098  function _approve(address owner, address operator, uint256 tokenId) private {... */\n    tag_166:\n        /* \"34_ERC721/ERC721.sol\":5032:5040  operator */\n      dup2\n        /* \"34_ERC721/ERC721.sol\":5005:5020  _tokenApprovals */\n      0x04\n        /* \"34_ERC721/ERC721.sol\":5005:5029  _tokenApprovals[tokenId] */\n      0x00\n        /* \"34_ERC721/ERC721.sol\":5021:5028  tokenId */\n      dup4\n        /* \"34_ERC721/ERC721.sol\":5005:5029  _tokenApprovals[tokenId] */\n      dup2\n      mstore\n      0x20\n      add\n      swap1\n      dup2\n      mstore\n      0x20\n      add\n      0x00\n      keccak256\n      0x00\n        /* \"34_ERC721/ERC721.sol\":5005:5040  _tokenApprovals[tokenId] = operator */\n      0x0100\n      exp\n      dup2\n      sload\n      dup2\n      0xffffffffffffffffffffffffffffffffffffffff\n      mul\n      not\n      and\n      swap1\n      dup4\n      0xffffffffffffffffffffffffffffffffffffffff\n      and\n      mul\n      or\n      swap1\n      sstore\n      pop\n        /* \"34_ERC721/ERC721.sol\":5082:5089  tokenId */\n      dup1\n        /* \"34_ERC721/ERC721.sol\":5072:5080  operator */\n      dup3\n        /* \"34_ERC721/ERC721.sol\":5056:5090  Approval(owner, operator, tokenId) */\n      0xffffffffffffffffffffffffffffffffffffffff\n      and\n        /* \"34_ERC721/ERC721.sol\":5065:5070  owner */\n      dup5\n        /* \"34_ERC721/ERC721.sol\":5056:5090  Approval(owner, operator, tokenId) */\n      0xffffffffffffffffffffffffffffffffffffffff\n      and\n      0x8c5be1e5ebec7d5bd14f71427d1e84f3dd0314c0f7b2291e5b200ac8c7c3b925\n      mload(0x40)\n      mload(0x40)\n      dup1\n      swap2\n      sub\n      swap1\n      log4\n        /* \"34_ERC721/ERC721.sol\":4918:5098  function _approve(address owner, address operator, uint256 tokenId) private {... */\n      pop\n      pop\n      pop\n      jump\t// out\n        /* \"#utility.yul\":88:205   */\n    tag_224:\n        /* \"#utility.yul\":197:198   */\n      0x00\n        /* \"#utility.yul\":194:195   */\n      0x00\n        /* \"#utility.yul\":187:199   */\n      revert\n        /* \"#utility.yul\":211:328   */\n    tag_225:\n        /* \"#utility.yul\":320:321   */\n      0x00\n        /* \"#utility.yul\":317:318   */\n      0x00\n        /* \"#utility.yul\":310:322   */\n      revert\n        /* \"#utility.yul\":334:483   */\n    tag_226:\n        /* \"#utility.yul\":370:377   */\n      0x00\n        /* \"#utility.yul\":410:476   */\n      0xffffffff00000000000000000000000000000000000000000000000000000000\n        /* \"#utility.yul\":403:408   */\n      dup3\n        /* \"#utility.yul\":399:477   */\n      and\n        /* \"#utility.yul\":388:477   */\n      swap1\n      pop\n        /* \"#utility.yul\":334:483   */\n      swap2\n      swap1\n      pop\n      jump\t// out\n        /* \"#utility.yul\":489:609   */\n    tag_227:\n        /* \"#utility.yul\":561:584   */\n      tag_280\n        /* \"#utility.yul\":578:583   */\n      dup2\n        /* \"#utility.yul\":561:584   */\n      tag_226\n      jump\t// in\n    tag_280:\n        /* \"#utility.yul\":554:559   */\n      dup2\n        /* \"#utility.yul\":551:585   */\n      eq\n        /* \"#utility.yul\":541:603   */\n      tag_281\n      jumpi\n        /* \"#utility.yul\":599:600   */\n      0x00\n        /* \"#utility.yul\":596:597   */\n      0x00\n        /* \"#utility.yul\":589:601   */\n      revert\n        /* \"#utility.yul\":541:603   */\n    tag_281:\n        /* \"#utility.yul\":489:609   */\n      pop\n      jump\t// out\n        /* \"#utility.yul\":615:752   */\n    tag_228:\n        /* \"#utility.yul\":660:665   */\n      0x00\n        /* \"#utility.yul\":698:704   */\n      dup2\n        /* \"#utility.yul\":685:705   */\n      calldataload\n        /* \"#utility.yul\":676:705   */\n      swap1\n      pop\n        /* \"#utility.yul\":714:746   */\n      tag_283\n        /* \"#utility.yul\":740:745   */\n      dup2\n        /* \"#utility.yul\":714:746   */\n      tag_227\n      jump\t// in\n    tag_283:\n        /* \"#utility.yul\":615:752   */\n      swap3\n      swap2\n      pop\n      pop\n      jump\t// out\n        /* \"#utility.yul\":758:1085   */\n    tag_25:\n        /* \"#utility.yul\":816:822   */\n      0x00\n        /* \"#utility.yul\":865:867   */\n      0x20\n        /* \"#utility.yul\":853:862   */\n      dup3\n        /* \"#utility.yul\":844:851   */\n      dup5\n        /* \"#utility.yul\":840:863   */\n      sub\n        /* \"#utility.yul\":836:868   */\n      slt\n        /* \"#utility.yul\":833:952   */\n      iszero\n      tag_285\n      jumpi\n        /* \"#utility.yul\":871:950   */\n      tag_286\n      tag_224\n      jump\t// in\n    tag_286:\n        /* \"#utility.yul\":833:952   */\n    tag_285:\n        /* \"#utility.yul\":991:992   */\n      0x00\n        /* \"#utility.yul\":1016:1068   */\n      tag_287\n        /* \"#utility.yul\":1060:1067   */\n      dup5\n        /* \"#utility.yul\":1051:1057   */\n      dup3\n        /* \"#utility.yul\":1040:1049   */\n      dup6\n        /* \"#utility.yul\":1036:1058   */\n      add\n        /* \"#utility.yul\":1016:1068   */\n      tag_228\n      jump\t// in\n    tag_287:\n        /* \"#utility.yul\":1006:1068   */\n      swap2\n      pop\n        /* \"#utility.yul\":962:1078   */\n      pop\n        /* \"#utility.yul\":758:1085   */\n      swap3\n      swap2\n      pop\n      pop\n      jump\t// out\n        /* \"#utility.yul\":1091:1181   */\n    tag_229:\n        /* \"#utility.yul\":1125:1132   */\n      0x00\n        /* \"#utility.yul\":1168:1173   */\n      dup2\n        /* \"#utility.yul\":1161:1174   */\n      iszero\n        /* \"#utility.yul\":1154:1175   */\n      iszero\n        /* \"#utility.yul\":1143:1175   */\n      swap1\n      pop\n        /* \"#utility.yul\":1091:1181   */\n      swap2\n      swap1\n      pop\n      jump\t// out\n        /* \"#utility.yul\":1187:1296   */\n    tag_230:\n        /* \"#utility.yul\":1268:1289   */\n      tag_290\n        /* \"#utility.yul\":1283:1288   */\n      dup2\n        /* \"#utility.yul\":1268:1289   */\n      tag_229\n      jump\t// in\n    tag_290:\n        /* \"#utility.yul\":1263:1266   */\n      dup3\n        /* \"#utility.yul\":1256:1290   */\n      mstore\n        /* \"#utility.yul\":1187:1296   */\n      pop\n      pop\n      jump\t// out\n        /* \"#utility.yul\":1302:1512   */\n    tag_28:\n        /* \"#utility.yul\":1389:1393   */\n      0x00\n        /* \"#utility.yul\":1427:1429   */\n      0x20\n        /* \"#utility.yul\":1416:1425   */\n      dup3\n        /* \"#utility.yul\":1412:1430   */\n      add\n        /* \"#utility.yul\":1404:1430   */\n      swap1\n      pop\n        /* \"#utility.yul\":1440:1505   */\n      tag_292\n        /* \"#utility.yul\":1502:1503   */\n      0x00\n        /* \"#utility.yul\":1491:1500   */\n      dup4\n        /* \"#utility.yul\":1487:1504   */\n      add\n        /* \"#utility.yul\":1478:1484   */\n      dup5\n        /* \"#utility.yul\":1440:1505   */\n      tag_230\n      jump\t// in\n    tag_292:\n        /* \"#utility.yul\":1302:1512   */\n      swap3\n      swap2\n      pop\n      pop\n      jump\t// out\n        /* \"#utility.yul\":1518:1617   */\n    tag_231:\n        /* \"#utility.yul\":1570:1576   */\n      0x00\n        /* \"#utility.yul\":1604:1609   */\n      dup2\n        /* \"#utility.yul\":1598:1610   */\n      mload\n        /* \"#utility.yul\":1588:1610   */\n      swap1\n      pop\n        /* \"#utility.yul\":1518:1617   */\n      swap2\n      swap1\n      pop\n      jump\t// out\n        /* \"#utility.yul\":1623:1792   */\n    tag_232:\n        /* \"#utility.yul\":1707:1718   */\n      0x00\n        /* \"#utility.yul\":1741:1747   */\n      dup3\n        /* \"#utility.yul\":1736:1739   */\n      dup3\n        /* \"#utility.yul\":1729:1748   */\n      mstore\n        /* \"#utility.yul\":1781:1785   */\n      0x20\n        /* \"#utility.yul\":1776:1779   */\n      dup3\n        /* \"#utility.yul\":1772:1786   */\n      add\n        /* \"#utility.yul\":1757:1786   */\n      swap1\n      pop\n        /* \"#utility.yul\":1623:1792   */\n      swap3\n      swap2\n      pop\n      pop\n      jump\t// out\n        /* \"#utility.yul\":1798:1937   */\n    tag_233:\n        /* \"#utility.yul\":1887:1893   */\n      dup3\n        /* \"#utility.yul\":1882:1885   */\n      dup2\n        /* \"#utility.yul\":1877:1880   */\n      dup4\n        /* \"#utility.yul\":1871:1894   */\n      mcopy\n        /* \"#utility.yul\":1928:1929   */\n      0x00\n        /* \"#utility.yul\":1919:1925   */\n      dup4\n        /* \"#utility.yul\":1914:1917   */\n      dup4\n        /* \"#utility.yul\":1910:1926   */\n      add\n        /* \"#utility.yul\":1903:1930   */\n      mstore\n        /* \"#utility.yul\":1798:1937   */\n      pop\n      pop\n      pop\n      jump\t// out\n        /* \"#utility.yul\":1943:2045   */\n    tag_234:\n        /* \"#utility.yul\":1984:1990   */\n      0x00\n        /* \"#utility.yul\":2035:2037   */\n      0x1f\n        /* \"#utility.yul\":2031:2038   */\n      not\n        /* \"#utility.yul\":2026:2028   */\n      0x1f\n        /* \"#utility.yul\":2019:2024   */\n      dup4\n        /* \"#utility.yul\":2015:2029   */\n      add\n        /* \"#utility.yul\":2011:2039   */\n      and\n        /* \"#utility.yul\":2001:2039   */\n      swap1\n      pop\n        /* \"#utility.yul\":1943:2045   */\n      swap2\n      swap1\n      pop\n      jump\t// out\n        /* \"#utility.yul\":2051:2428   */\n    tag_235:\n        /* \"#utility.yul\":2139:2142   */\n      0x00\n        /* \"#utility.yul\":2167:2206   */\n      tag_298\n        /* \"#utility.yul\":2200:2205   */\n      dup3\n        /* \"#utility.yul\":2167:2206   */\n      tag_231\n      jump\t// in\n    tag_298:\n        /* \"#utility.yul\":2222:2293   */\n      tag_299\n        /* \"#utility.yul\":2286:2292   */\n      dup2\n        /* \"#utility.yul\":2281:2284   */\n      dup6\n        /* \"#utility.yul\":2222:2293   */\n      tag_232\n      jump\t// in\n    tag_299:\n        /* \"#utility.yul\":2215:2293   */\n      swap4\n      pop\n        /* \"#utility.yul\":2302:2367   */\n      tag_300\n        /* \"#utility.yul\":2360:2366   */\n      dup2\n        /* \"#utility.yul\":2355:2358   */\n      dup6\n        /* \"#utility.yul\":2348:2352   */\n      0x20\n        /* \"#utility.yul\":2341:2346   */\n      dup7\n        /* \"#utility.yul\":2337:2353   */\n      add\n        /* \"#utility.yul\":2302:2367   */\n      tag_233\n      jump\t// in\n    tag_300:\n        /* \"#utility.yul\":2392:2421   */\n      tag_301\n        /* \"#utility.yul\":2414:2420   */\n      dup2\n        /* \"#utility.yul\":2392:2421   */\n      tag_234\n      jump\t// in\n    tag_301:\n        /* \"#utility.yul\":2387:2390   */\n      dup5\n        /* \"#utility.yul\":2383:2422   */\n      add\n        /* \"#utility.yul\":2376:2422   */\n      swap2\n      pop\n        /* \"#utility.yul\":2143:2428   */\n      pop\n        /* \"#utility.yul\":2051:2428   */\n      swap3\n      swap2\n      pop\n      pop\n      jump\t// out\n        /* \"#utility.yul\":2434:2747   */\n    tag_32:\n        /* \"#utility.yul\":2547:2551   */\n      0x00\n        /* \"#utility.yul\":2585:2587   */\n      0x20\n        /* \"#utility.yul\":2574:2583   */\n      dup3\n        /* \"#utility.yul\":2570:2588   */\n      add\n        /* \"#utility.yul\":2562:2588   */\n      swap1\n      pop\n        /* \"#utility.yul\":2634:2643   */\n      dup2\n        /* \"#utility.yul\":2628:2632   */\n      dup2\n        /* \"#utility.yul\":2624:2644   */\n      sub\n        /* \"#utility.yul\":2620:2621   */\n      0x00\n        /* \"#utility.yul\":2609:2618   */\n      dup4\n        /* \"#utility.yul\":2605:2622   */\n      add\n        /* \"#utility.yul\":2598:2645   */\n      mstore\n        /* \"#utility.yul\":2662:2740   */\n      tag_303\n        /* \"#utility.yul\":2735:2739   */\n      dup2\n        /* \"#utility.yul\":2726:2732   */\n      dup5\n        /* \"#utility.yul\":2662:2740   */\n      tag_235\n      jump\t// in\n    tag_303:\n        /* \"#utility.yul\":2654:2740   */\n      swap1\n      pop\n        /* \"#utility.yul\":2434:2747   */\n      swap3\n      swap2\n      pop\n      pop\n      jump\t// out\n        /* \"#utility.yul\":2753:2830   */\n    tag_236:\n        /* \"#utility.yul\":2790:2797   */\n      0x00\n        /* \"#utility.yul\":2819:2824   */\n      dup2\n        /* \"#utility.yul\":2808:2824   */\n      swap1\n      pop\n        /* \"#utility.yul\":2753:2830   */\n      swap2\n      swap1\n      pop\n      jump\t// out\n        /* \"#utility.yul\":2836:2958   */\n    tag_237:\n        /* \"#utility.yul\":2909:2933   */\n      tag_306\n        /* \"#utility.yul\":2927:2932   */\n      dup2\n        /* \"#utility.yul\":2909:2933   */\n      tag_236\n      jump\t// in\n    tag_306:\n        /* \"#utility.yul\":2902:2907   */\n      dup2\n        /* \"#utility.yul\":2899:2934   */\n      eq\n        /* \"#utility.yul\":2889:2952   */\n      tag_307\n      jumpi\n        /* \"#utility.yul\":2948:2949   */\n      0x00\n        /* \"#utility.yul\":2945:2946   */\n      0x00\n        /* \"#utility.yul\":2938:2950   */\n      revert\n        /* \"#utility.yul\":2889:2952   */\n    tag_307:\n        /* \"#utility.yul\":2836:2958   */\n      pop\n      jump\t// out\n        /* \"#utility.yul\":2964:3103   */\n    tag_238:\n        /* \"#utility.yul\":3010:3015   */\n      0x00\n        /* \"#utility.yul\":3048:3054   */\n      dup2\n        /* \"#utility.yul\":3035:3055   */\n      calldataload\n        /* \"#utility.yul\":3026:3055   */\n      swap1\n      pop\n        /* \"#utility.yul\":3064:3097   */\n      tag_309\n        /* \"#utility.yul\":3091:3096   */\n      dup2\n        /* \"#utility.yul\":3064:3097   */\n      tag_237\n      jump\t// in\n    tag_309:\n        /* \"#utility.yul\":2964:3103   */\n      swap3\n      swap2\n      pop\n      pop\n      jump\t// out\n        /* \"#utility.yul\":3109:3438   */\n    tag_35:\n        /* \"#utility.yul\":3168:3174   */\n      0x00\n        /* \"#utility.yul\":3217:3219   */\n      0x20\n        /* \"#utility.yul\":3205:3214   */\n      dup3\n        /* \"#utility.yul\":3196:3203   */\n      dup5\n        /* \"#utility.yul\":3192:3215   */\n      sub\n        /* \"#utility.yul\":3188:3220   */\n      slt\n        /* \"#utility.yul\":3185:3304   */\n      iszero\n      tag_311\n      jumpi\n        /* \"#utility.yul\":3223:3302   */\n      tag_312\n      tag_224\n      jump\t// in\n    tag_312:\n        /* \"#utility.yul\":3185:3304   */\n    tag_311:\n        /* \"#utility.yul\":3343:3344   */\n      0x00\n        /* \"#utility.yul\":3368:3421   */\n      tag_313\n        /* \"#utility.yul\":3413:3420   */\n      dup5\n        /* \"#utility.yul\":3404:3410   */\n      dup3\n        /* \"#utility.yul\":3393:3402   */\n      dup6\n        /* \"#utility.yul\":3389:3411   */\n      add\n        /* \"#utility.yul\":3368:3421   */\n      tag_238\n      jump\t// in\n    tag_313:\n        /* \"#utility.yul\":3358:3421   */\n      swap2\n      pop\n        /* \"#utility.yul\":3314:3431   */\n      pop\n        /* \"#utility.yul\":3109:3438   */\n      swap3\n      swap2\n      pop\n      pop\n      jump\t// out\n        /* \"#utility.yul\":3444:3570   */\n    tag_239:\n        /* \"#utility.yul\":3481:3488   */\n      0x00\n        /* \"#utility.yul\":3521:3563   */\n      0xffffffffffffffffffffffffffffffffffffffff\n        /* \"#utility.yul\":3514:3519   */\n      dup3\n        /* \"#utility.yul\":3510:3564   */\n      and\n        /* \"#utility.yul\":3499:3564   */\n      swap1\n      pop\n        /* \"#utility.yul\":3444:3570   */\n      swap2\n      swap1\n      pop\n      jump\t// out\n        /* \"#utility.yul\":3576:3672   */\n    tag_240:\n        /* \"#utility.yul\":3613:3620   */\n      0x00\n        /* \"#utility.yul\":3642:3666   */\n      tag_316\n        /* \"#utility.yul\":3660:3665   */\n      dup3\n        /* \"#utility.yul\":3642:3666   */\n      tag_239\n      jump\t// in\n    tag_316:\n        /* \"#utility.yul\":3631:3666   */\n      swap1\n      pop\n        /* \"#utility.yul\":3576:3672   */\n      swap2\n      swap1\n      pop\n      jump\t// out\n        /* \"#utility.yul\":3678:3796   */\n    tag_241:\n        /* \"#utility.yul\":3765:3789   */\n      tag_318\n        /* \"#utility.yul\":3783:3788   */\n      dup2\n        /* \"#utility.yul\":3765:3789   */\n      tag_240\n      jump\t// in\n    tag_318:\n        /* \"#utility.yul\":3760:3763   */\n      dup3\n        /* \"#utility.yul\":3753:3790   */\n      mstore\n        /* \"#utility.yul\":3678:3796   */\n      pop\n      pop\n      jump\t// out\n        /* \"#utility.yul\":3802:4024   */\n    tag_38:\n        /* \"#utility.yul\":3895:3899   */\n      0x00\n        /* \"#utility.yul\":3933:3935   */\n      0x20\n        /* \"#utility.yul\":3922:3931   */\n      dup3\n        /* \"#utility.yul\":3918:3936   */\n      add\n        /* \"#utility.yul\":3910:3936   */\n      swap1\n      pop\n        /* \"#utility.yul\":3946:4017   */\n      tag_320\n        /* \"#utility.yul\":4014:4015   */\n      0x00\n        /* \"#utility.yul\":4003:4012   */\n      dup4\n        /* \"#utility.yul\":3999:4016   */\n      add\n        /* \"#utility.yul\":3990:3996   */\n      dup5\n        /* \"#utility.yul\":3946:4017   */\n      tag_241\n      jump\t// in\n    tag_320:\n        /* \"#utility.yul\":3802:4024   */\n      swap3\n      swap2\n      pop\n      pop\n      jump\t// out\n        /* \"#utility.yul\":4030:4152   */\n    tag_242:\n        /* \"#utility.yul\":4103:4127   */\n      tag_322\n        /* \"#utility.yul\":4121:4126   */\n      dup2\n        /* \"#utility.yul\":4103:4127   */\n      tag_240\n      jump\t// in\n    tag_322:\n        /* \"#utility.yul\":4096:4101   */\n      dup2\n        /* \"#utility.yul\":4093:4128   */\n      eq\n        /* \"#utility.yul\":4083:4146   */\n      tag_323\n      jumpi\n        /* \"#utility.yul\":4142:4143   */\n      0x00\n        /* \"#utility.yul\":4139:4140   */\n      0x00\n        /* \"#utility.yul\":4132:4144   */\n      revert\n        /* \"#utility.yul\":4083:4146   */\n    tag_323:\n        /* \"#utility.yul\":4030:4152   */\n      pop\n      jump\t// out\n        /* \"#utility.yul\":4158:4297   */\n    tag_243:\n        /* \"#utility.yul\":4204:4209   */\n      0x00\n        /* \"#utility.yul\":4242:4248   */\n      dup2\n        /* \"#utility.yul\":4229:4249   */\n      calldataload\n        /* \"#utility.yul\":4220:4249   */\n      swap1\n      pop\n        /* \"#utility.yul\":4258:4291   */\n      tag_325\n        /* \"#utility.yul\":4285:4290   */\n      dup2\n        /* \"#utility.yul\":4258:4291   */\n      tag_242\n      jump\t// in\n    tag_325:\n        /* \"#utility.yul\":4158:4297   */\n      swap3\n      swap2\n      pop\n      pop\n      jump\t// out\n        /* \"#utility.yul\":4303:4922   */\n    tag_41:\n        /* \"#utility.yul\":4380:4386   */\n      0x00\n        /* \"#utility.yul\":4388:4394   */\n      0x00\n        /* \"#utility.yul\":4396:4402   */\n      0x00\n        /* \"#utility.yul\":4445:4447   */\n      0x60\n        /* \"#utility.yul\":4433:4442   */\n      dup5\n        /* \"#utility.yul\":4424:4431   */\n      dup7\n        /* \"#utility.yul\":4420:4443   */\n      sub\n        /* \"#utility.yul\":4416:4448   */\n      slt\n        /* \"#utility.yul\":4413:4532   */\n      iszero\n      tag_327\n      jumpi\n        /* \"#utility.yul\":4451:4530   */\n      tag_328\n      tag_224\n      jump\t// in\n    tag_328:\n        /* \"#utility.yul\":4413:4532   */\n    tag_327:\n        /* \"#utility.yul\":4571:4572   */\n      0x00\n        /* \"#utility.yul\":4596:4649   */\n      tag_329\n        /* \"#utility.yul\":4641:4648   */\n      dup7\n        /* \"#utility.yul\":4632:4638   */\n      dup3\n        /* \"#utility.yul\":4621:4630   */\n      dup8\n        /* \"#utility.yul\":4617:4639   */\n      add\n        /* \"#utility.yul\":4596:4649   */\n      tag_243\n      jump\t// in\n    tag_329:\n        /* \"#utility.yul\":4586:4649   */\n      swap4\n      pop\n        /* \"#utility.yul\":4542:4659   */\n      pop\n        /* \"#utility.yul\":4698:4700   */\n      0x20\n        /* \"#utility.yul\":4724:4777   */\n      tag_330\n        /* \"#utility.yul\":4769:4776   */\n      dup7\n        /* \"#utility.yul\":4760:4766   */\n      dup3\n        /* \"#utility.yul\":4749:4758   */\n      dup8\n        /* \"#utility.yul\":4745:4767   */\n      add\n        /* \"#utility.yul\":4724:4777   */\n      tag_243\n      jump\t// in\n    tag_330:\n        /* \"#utility.yul\":4714:4777   */\n      swap3\n      pop\n        /* \"#utility.yul\":4669:4787   */\n      pop\n        /* \"#utility.yul\":4826:4828   */\n      0x40\n        /* \"#utility.yul\":4852:4905   */\n      tag_331\n        /* \"#utility.yul\":4897:4904   */\n      dup7\n        /* \"#utility.yul\":4888:4894   */\n      dup3\n        /* \"#utility.yul\":4877:4886   */\n      dup8\n        /* \"#utility.yul\":4873:4895   */\n      add\n        /* \"#utility.yul\":4852:4905   */\n      tag_238\n      jump\t// in\n    tag_331:\n        /* \"#utility.yul\":4842:4905   */\n      swap2\n      pop\n        /* \"#utility.yul\":4797:4915   */\n      pop\n        /* \"#utility.yul\":4303:4922   */\n      swap3\n      pop\n      swap3\n      pop\n      swap3\n      jump\t// out\n        /* \"#utility.yul\":4928:5257   */\n    tag_52:\n        /* \"#utility.yul\":4987:4993   */\n      0x00\n        /* \"#utility.yul\":5036:5038   */\n      0x20\n        /* \"#utility.yul\":5024:5033   */\n      dup3\n        /* \"#utility.yul\":5015:5022   */\n      dup5\n        /* \"#utility.yul\":5011:5034   */\n      sub\n        /* \"#utility.yul\":5007:5039   */\n      slt\n        /* \"#utility.yul\":5004:5123   */\n      iszero\n      tag_333\n      jumpi\n        /* \"#utility.yul\":5042:5121   */\n      tag_334\n      tag_224\n      jump\t// in\n    tag_334:\n        /* \"#utility.yul\":5004:5123   */\n    tag_333:\n        /* \"#utility.yul\":5162:5163   */\n      0x00\n        /* \"#utility.yul\":5187:5240   */\n      tag_335\n        /* \"#utility.yul\":5232:5239   */\n      dup5\n        /* \"#utility.yul\":5223:5229   */\n      dup3\n        /* \"#utility.yul\":5212:5221   */\n      dup6\n        /* \"#utility.yul\":5208:5230   */\n      add\n        /* \"#utility.yul\":5187:5240   */\n      tag_243\n      jump\t// in\n    tag_335:\n        /* \"#utility.yul\":5177:5240   */\n      swap2\n      pop\n        /* \"#utility.yul\":5133:5250   */\n      pop\n        /* \"#utility.yul\":4928:5257   */\n      swap3\n      swap2\n      pop\n      pop\n      jump\t// out\n        /* \"#utility.yul\":5263:5381   */\n    tag_244:\n        /* \"#utility.yul\":5350:5374   */\n      tag_337\n        /* \"#utility.yul\":5368:5373   */\n      dup2\n        /* \"#utility.yul\":5350:5374   */\n      tag_236\n      jump\t// in\n    tag_337:\n        /* \"#utility.yul\":5345:5348   */\n      dup3\n        /* \"#utility.yul\":5338:5375   */\n      mstore\n        /* \"#utility.yul\":5263:5381   */\n      pop\n      pop\n      jump\t// out\n        /* \"#utility.yul\":5387:5609   */\n    tag_55:\n        /* \"#utility.yul\":5480:5484   */\n      0x00\n        /* \"#utility.yul\":5518:5520   */\n      0x20\n        /* \"#utility.yul\":5507:5516   */\n      dup3\n        /* \"#utility.yul\":5503:5521   */\n      add\n        /* \"#utility.yul\":5495:5521   */\n      swap1\n      pop\n        /* \"#utility.yul\":5531:5602   */\n      tag_339\n        /* \"#utility.yul\":5599:5600   */\n      0x00\n        /* \"#utility.yul\":5588:5597   */\n      dup4\n        /* \"#utility.yul\":5584:5601   */\n      add\n        /* \"#utility.yul\":5575:5581   */\n      dup5\n        /* \"#utility.yul\":5531:5602   */\n      tag_244\n      jump\t// in\n    tag_339:\n        /* \"#utility.yul\":5387:5609   */\n      swap3\n      swap2\n      pop\n      pop\n      jump\t// out\n        /* \"#utility.yul\":5615:5732   */\n    tag_245:\n        /* \"#utility.yul\":5724:5725   */\n      0x00\n        /* \"#utility.yul\":5721:5722   */\n      0x00\n        /* \"#utility.yul\":5714:5726   */\n      revert\n        /* \"#utility.yul\":5738:5855   */\n    tag_246:\n        /* \"#utility.yul\":5847:5848   */\n      0x00\n        /* \"#utility.yul\":5844:5845   */\n      0x00\n        /* \"#utility.yul\":5837:5849   */\n      revert\n        /* \"#utility.yul\":5861:5978   */\n    tag_247:\n        /* \"#utility.yul\":5970:5971   */\n      0x00\n        /* \"#utility.yul\":5967:5968   */\n      0x00\n        /* \"#utility.yul\":5960:5972   */\n      revert\n        /* \"#utility.yul\":5997:6549   */\n    tag_248:\n        /* \"#utility.yul\":6054:6062   */\n      0x00\n        /* \"#utility.yul\":6064:6070   */\n      0x00\n        /* \"#utility.yul\":6114:6117   */\n      dup4\n        /* \"#utility.yul\":6107:6111   */\n      0x1f\n        /* \"#utility.yul\":6099:6105   */\n      dup5\n        /* \"#utility.yul\":6095:6112   */\n      add\n        /* \"#utility.yul\":6091:6118   */\n      slt\n        /* \"#utility.yul\":6081:6203   */\n      tag_344\n      jumpi\n        /* \"#utility.yul\":6122:6201   */\n      tag_345\n      tag_245\n      jump\t// in\n    tag_345:\n        /* \"#utility.yul\":6081:6203   */\n    tag_344:\n        /* \"#utility.yul\":6235:6241   */\n      dup3\n        /* \"#utility.yul\":6222:6242   */\n      calldataload\n        /* \"#utility.yul\":6212:6242   */\n      swap1\n      pop\n        /* \"#utility.yul\":6265:6283   */\n      0xffffffffffffffff\n        /* \"#utility.yul\":6257:6263   */\n      dup2\n        /* \"#utility.yul\":6254:6284   */\n      gt\n        /* \"#utility.yul\":6251:6368   */\n      iszero\n      tag_346\n      jumpi\n        /* \"#utility.yul\":6287:6366   */\n      tag_347\n      tag_246\n      jump\t// in\n    tag_347:\n        /* \"#utility.yul\":6251:6368   */\n    tag_346:\n        /* \"#utility.yul\":6401:6405   */\n      0x20\n        /* \"#utility.yul\":6393:6399   */\n      dup4\n        /* \"#utility.yul\":6389:6406   */\n      add\n        /* \"#utility.yul\":6377:6406   */\n      swap2\n      pop\n        /* \"#utility.yul\":6455:6458   */\n      dup4\n        /* \"#utility.yul\":6447:6451   */\n      0x01\n        /* \"#utility.yul\":6439:6445   */\n      dup3\n        /* \"#utility.yul\":6435:6452   */\n      mul\n        /* \"#utility.yul\":6425:6433   */\n      dup4\n        /* \"#utility.yul\":6421:6453   */\n      add\n        /* \"#utility.yul\":6418:6459   */\n      gt\n        /* \"#utility.yul\":6415:6543   */\n      iszero\n      tag_348\n      jumpi\n        /* \"#utility.yul\":6462:6541   */\n      tag_349\n      tag_247\n      jump\t// in\n    tag_349:\n        /* \"#utility.yul\":6415:6543   */\n    tag_348:\n        /* \"#utility.yul\":5997:6549   */\n      swap3\n      pop\n      swap3\n      swap1\n      pop\n      jump\t// out\n        /* \"#utility.yul\":6555:7518   */\n    tag_73:\n        /* \"#utility.yul\":6652:6658   */\n      0x00\n        /* \"#utility.yul\":6660:6666   */\n      0x00\n        /* \"#utility.yul\":6668:6674   */\n      0x00\n        /* \"#utility.yul\":6676:6682   */\n      0x00\n        /* \"#utility.yul\":6684:6690   */\n      0x00\n        /* \"#utility.yul\":6733:6736   */\n      0x80\n        /* \"#utility.yul\":6721:6730   */\n      dup7\n        /* \"#utility.yul\":6712:6719   */\n      dup9\n        /* \"#utility.yul\":6708:6731   */\n      sub\n        /* \"#utility.yul\":6704:6737   */\n      slt\n        /* \"#utility.yul\":6701:6821   */\n      iszero\n      tag_351\n      jumpi\n        /* \"#utility.yul\":6740:6819   */\n      tag_352\n      tag_224\n      jump\t// in\n    tag_352:\n        /* \"#utility.yul\":6701:6821   */\n    tag_351:\n        /* \"#utility.yul\":6860:6861   */\n      0x00\n        /* \"#utility.yul\":6885:6938   */\n      tag_353\n        /* \"#utility.yul\":6930:6937   */\n      dup9\n        /* \"#utility.yul\":6921:6927   */\n      dup3\n        /* \"#utility.yul\":6910:6919   */\n      dup10\n        /* \"#utility.yul\":6906:6928   */\n      add\n        /* \"#utility.yul\":6885:6938   */\n      tag_243\n      jump\t// in\n    tag_353:\n        /* \"#utility.yul\":6875:6938   */\n      swap6\n      pop\n        /* \"#utility.yul\":6831:6948   */\n      pop\n        /* \"#utility.yul\":6987:6989   */\n      0x20\n        /* \"#utility.yul\":7013:7066   */\n      tag_354\n        /* \"#utility.yul\":7058:7065   */\n      dup9\n        /* \"#utility.yul\":7049:7055   */\n      dup3\n        /* \"#utility.yul\":7038:7047   */\n      dup10\n        /* \"#utility.yul\":7034:7056   */\n      add\n        /* \"#utility.yul\":7013:7066   */\n      tag_243\n      jump\t// in\n    tag_354:\n        /* \"#utility.yul\":7003:7066   */\n      swap5\n      pop\n        /* \"#utility.yul\":6958:7076   */\n      pop\n        /* \"#utility.yul\":7115:7117   */\n      0x40\n        /* \"#utility.yul\":7141:7194   */\n      tag_355\n        /* \"#utility.yul\":7186:7193   */\n      dup9\n        /* \"#utility.yul\":7177:7183   */\n      dup3\n        /* \"#utility.yul\":7166:7175   */\n      dup10\n        /* \"#utility.yul\":7162:7184   */\n      add\n        /* \"#utility.yul\":7141:7194   */\n      tag_238\n      jump\t// in\n    tag_355:\n        /* \"#utility.yul\":7131:7194   */\n      swap4\n      pop\n        /* \"#utility.yul\":7086:7204   */\n      pop\n        /* \"#utility.yul\":7271:7273   */\n      0x60\n        /* \"#utility.yul\":7260:7269   */\n      dup7\n        /* \"#utility.yul\":7256:7274   */\n      add\n        /* \"#utility.yul\":7243:7275   */\n      calldataload\n        /* \"#utility.yul\":7302:7320   */\n      0xffffffffffffffff\n        /* \"#utility.yul\":7294:7300   */\n      dup2\n        /* \"#utility.yul\":7291:7321   */\n      gt\n        /* \"#utility.yul\":7288:7405   */\n      iszero\n      tag_356\n      jumpi\n        /* \"#utility.yul\":7324:7403   */\n      tag_357\n      tag_225\n      jump\t// in\n    tag_357:\n        /* \"#utility.yul\":7288:7405   */\n    tag_356:\n        /* \"#utility.yul\":7437:7501   */\n      tag_358\n        /* \"#utility.yul\":7493:7500   */\n      dup9\n        /* \"#utility.yul\":7484:7490   */\n      dup3\n        /* \"#utility.yul\":7473:7482   */\n      dup10\n        /* \"#utility.yul\":7469:7491   */\n      add\n        /* \"#utility.yul\":7437:7501   */\n      tag_248\n      jump\t// in\n    tag_358:\n        /* \"#utility.yul\":7419:7501   */\n      swap3\n      pop\n      swap3\n      pop\n        /* \"#utility.yul\":7214:7511   */\n      pop\n        /* \"#utility.yul\":6555:7518   */\n      swap3\n      swap6\n      pop\n      swap3\n      swap6\n      swap1\n      swap4\n      pop\n      jump\t// out\n        /* \"#utility.yul\":7524:7640   */\n    tag_249:\n        /* \"#utility.yul\":7594:7615   */\n      tag_360\n        /* \"#utility.yul\":7609:7614   */\n      dup2\n        /* \"#utility.yul\":7594:7615   */\n      tag_229\n      jump\t// in\n    tag_360:\n        /* \"#utility.yul\":7587:7592   */\n      dup2\n        /* \"#utility.yul\":7584:7616   */\n      eq\n        /* \"#utility.yul\":7574:7634   */\n      tag_361\n      jumpi\n        /* \"#utility.yul\":7630:7631   */\n      0x00\n        /* \"#utility.yul\":7627:7628   */\n      0x00\n        /* \"#utility.yul\":7620:7632   */\n      revert\n        /* \"#utility.yul\":7574:7634   */\n    tag_361:\n        /* \"#utility.yul\":7524:7640   */\n      pop\n      jump\t// out\n        /* \"#utility.yul\":7646:7779   */\n    tag_250:\n        /* \"#utility.yul\":7689:7694   */\n      0x00\n        /* \"#utility.yul\":7727:7733   */\n      dup2\n        /* \"#utility.yul\":7714:7734   */\n      calldataload\n        /* \"#utility.yul\":7705:7734   */\n      swap1\n      pop\n        /* \"#utility.yul\":7743:7773   */\n      tag_363\n        /* \"#utility.yul\":7767:7772   */\n      dup2\n        /* \"#utility.yul\":7743:7773   */\n      tag_249\n      jump\t// in\n    tag_363:\n        /* \"#utility.yul\":7646:7779   */\n      swap3\n      swap2\n      pop\n      pop\n      jump\t// out\n        /* \"#utility.yul\":7785:8253   */\n    tag_77:\n        /* \"#utility.yul\":7850:7856   */\n      0x00\n        /* \"#utility.yul\":7858:7864   */\n      0x00\n        /* \"#utility.yul\":7907:7909   */\n      0x40\n        /* \"#utility.yul\":7895:7904   */\n      dup4\n        /* \"#utility.yul\":7886:7893   */\n      dup6\n        /* \"#utility.yul\":7882:7905   */\n      sub\n        /* \"#utility.yul\":7878:7910   */\n      slt\n        /* \"#utility.yul\":7875:7994   */\n      iszero\n      tag_365\n      jumpi\n        /* \"#utility.yul\":7913:7992   */\n      tag_366\n      tag_224\n      jump\t// in\n    tag_366:\n        /* \"#utility.yul\":7875:7994   */\n    tag_365:\n        /* \"#utility.yul\":8033:8034   */\n      0x00\n        /* \"#utility.yul\":8058:8111   */\n      tag_367\n        /* \"#utility.yul\":8103:8110   */\n      dup6\n        /* \"#utility.yul\":8094:8100   */\n      dup3\n        /* \"#utility.yul\":8083:8092   */\n      dup7\n        /* \"#utility.yul\":8079:8101   */\n      add\n        /* \"#utility.yul\":8058:8111   */\n      tag_243\n      jump\t// in\n    tag_367:\n        /* \"#utility.yul\":8048:8111   */\n      swap3\n      pop\n        /* \"#utility.yul\":8004:8121   */\n      pop\n        /* \"#utility.yul\":8160:8162   */\n      0x20\n        /* \"#utility.yul\":8186:8236   */\n      tag_368\n        /* \"#utility.yul\":8228:8235   */\n      dup6\n        /* \"#utility.yul\":8219:8225   */\n      dup3\n        /* \"#utility.yul\":8208:8217   */\n      dup7\n        /* \"#utility.yul\":8204:8226   */\n      add\n        /* \"#utility.yul\":8186:8236   */\n      tag_250\n      jump\t// in\n    tag_368:\n        /* \"#utility.yul\":8176:8236   */\n      swap2\n      pop\n        /* \"#utility.yul\":8131:8246   */\n      pop\n        /* \"#utility.yul\":7785:8253   */\n      swap3\n      pop\n      swap3\n      swap1\n      pop\n      jump\t// out\n        /* \"#utility.yul\":8259:8733   */\n    tag_85:\n        /* \"#utility.yul\":8327:8333   */\n      0x00\n        /* \"#utility.yul\":8335:8341   */\n      0x00\n        /* \"#utility.yul\":8384:8386   */\n      0x40\n        /* \"#utility.yul\":8372:8381   */\n      dup4\n        /* \"#utility.yul\":8363:8370   */\n      dup6\n        /* \"#utility.yul\":8359:8382   */\n      sub\n        /* \"#utility.yul\":8355:8387   */\n      slt\n        /* \"#utility.yul\":8352:8471   */\n      iszero\n      tag_370\n      jumpi\n        /* \"#utility.yul\":8390:8469   */\n      tag_371\n      tag_224\n      jump\t// in\n    tag_371:\n        /* \"#utility.yul\":8352:8471   */\n    tag_370:\n        /* \"#utility.yul\":8510:8511   */\n      0x00\n        /* \"#utility.yul\":8535:8588   */\n      tag_372\n        /* \"#utility.yul\":8580:8587   */\n      dup6\n        /* \"#utility.yul\":8571:8577   */\n      dup3\n        /* \"#utility.yul\":8560:8569   */\n      dup7\n        /* \"#utility.yul\":8556:8578   */\n      add\n        /* \"#utility.yul\":8535:8588   */\n      tag_243\n      jump\t// in\n    tag_372:\n        /* \"#utility.yul\":8525:8588   */\n      swap3\n      pop\n        /* \"#utility.yul\":8481:8598   */\n      pop\n        /* \"#utility.yul\":8637:8639   */\n      0x20\n        /* \"#utility.yul\":8663:8716   */\n      tag_373\n        /* \"#utility.yul\":8708:8715   */\n      dup6\n        /* \"#utility.yul\":8699:8705   */\n      dup3\n        /* \"#utility.yul\":8688:8697   */\n      dup7\n        /* \"#utility.yul\":8684:8706   */\n      add\n        /* \"#utility.yul\":8663:8716   */\n      tag_243\n      jump\t// in\n    tag_373:\n        /* \"#utility.yul\":8653:8716   */\n      swap2\n      pop\n        /* \"#utility.yul\":8608:8726   */\n      pop\n        /* \"#utility.yul\":8259:8733   */\n      swap3\n      pop\n      swap3\n      swap1\n      pop\n      jump\t// out\n        /* \"#utility.yul\":8739:9213   */\n    tag_90:\n        /* \"#utility.yul\":8807:8813   */\n      0x00\n        /* \"#utility.yul\":8815:8821   */\n      0x00\n        /* \"#utility.yul\":8864:8866   */\n      0x40\n        /* \"#utility.yul\":8852:8861   */\n      dup4\n        /* \"#utility.yul\":8843:8850   */\n      dup6\n        /* \"#utility.yul\":8839:8862   */\n      sub\n        /* \"#utility.yul\":8835:8867   */\n      slt\n        /* \"#utility.yul\":8832:8951   */\n      iszero\n      tag_375\n      jumpi\n        /* \"#utility.yul\":8870:8949   */\n      tag_376\n      tag_224\n      jump\t// in\n    tag_376:\n        /* \"#utility.yul\":8832:8951   */\n    tag_375:\n        /* \"#utility.yul\":8990:8991   */\n      0x00\n        /* \"#utility.yul\":9015:9068   */\n      tag_377\n        /* \"#utility.yul\":9060:9067   */\n      dup6\n        /* \"#utility.yul\":9051:9057   */\n      dup3\n        /* \"#utility.yul\":9040:9049   */\n      dup7\n        /* \"#utility.yul\":9036:9058   */\n      add\n        /* \"#utility.yul\":9015:9068   */\n      tag_238\n      jump\t// in\n    tag_377:\n        /* \"#utility.yul\":9005:9068   */\n      swap3\n      pop\n        /* \"#utility.yul\":8961:9078   */\n      pop\n        /* \"#utility.yul\":9117:9119   */\n      0x20\n        /* \"#utility.yul\":9143:9196   */\n      tag_378\n        /* \"#utility.yul\":9188:9195   */\n      dup6\n        /* \"#utility.yul\":9179:9185   */\n      dup3\n        /* \"#utility.yul\":9168:9177   */\n      dup7\n        /* \"#utility.yul\":9164:9186   */\n      add\n        /* \"#utility.yul\":9143:9196   */\n      tag_243\n      jump\t// in\n    tag_378:\n        /* \"#utility.yul\":9133:9196   */\n      swap2\n      pop\n        /* \"#utility.yul\":9088:9206   */\n      pop\n        /* \"#utility.yul\":8739:9213   */\n      swap3\n      pop\n      swap3\n      swap1\n      pop\n      jump\t// out\n        /* \"#utility.yul\":9219:9399   */\n    tag_251:\n        /* \"#utility.yul\":9267:9344   */\n      0x4e487b7100000000000000000000000000000000000000000000000000000000\n        /* \"#utility.yul\":9264:9265   */\n      0x00\n        /* \"#utility.yul\":9257:9345   */\n      mstore\n        /* \"#utility.yul\":9364:9368   */\n      0x22\n        /* \"#utility.yul\":9361:9362   */\n      0x04\n        /* \"#utility.yul\":9354:9369   */\n      mstore\n        /* \"#utility.yul\":9388:9392   */\n      0x24\n        /* \"#utility.yul\":9385:9386   */\n      0x00\n        /* \"#utility.yul\":9378:9393   */\n      revert\n        /* \"#utility.yul\":9405:9725   */\n    tag_100:\n        /* \"#utility.yul\":9449:9455   */\n      0x00\n        /* \"#utility.yul\":9486:9487   */\n      0x02\n        /* \"#utility.yul\":9480:9484   */\n      dup3\n        /* \"#utility.yul\":9476:9488   */\n      div\n        /* \"#utility.yul\":9466:9488   */\n      swap1\n      pop\n        /* \"#utility.yul\":9533:9534   */\n      0x01\n        /* \"#utility.yul\":9527:9531   */\n      dup3\n        /* \"#utility.yul\":9523:9535   */\n      and\n        /* \"#utility.yul\":9554:9572   */\n      dup1\n        /* \"#utility.yul\":9544:9625   */\n      tag_381\n      jumpi\n        /* \"#utility.yul\":9610:9614   */\n      0x7f\n        /* \"#utility.yul\":9602:9608   */\n      dup3\n        /* \"#utility.yul\":9598:9615   */\n      and\n        /* \"#utility.yul\":9588:9615   */\n      swap2\n      pop\n        /* \"#utility.yul\":9544:9625   */\n    tag_381:\n        /* \"#utility.yul\":9672:9674   */\n      0x20\n        /* \"#utility.yul\":9664:9670   */\n      dup3\n        /* \"#utility.yul\":9661:9675   */\n      lt\n        /* \"#utility.yul\":9641:9659   */\n      dup2\n        /* \"#utility.yul\":9638:9676   */\n      sub\n        /* \"#utility.yul\":9635:9719   */\n      tag_382\n      jumpi\n        /* \"#utility.yul\":9691:9709   */\n      tag_383\n      tag_251\n      jump\t// in\n    tag_383:\n        /* \"#utility.yul\":9635:9719   */\n    tag_382:\n        /* \"#utility.yul\":9456:9725   */\n      pop\n        /* \"#utility.yul\":9405:9725   */\n      swap2\n      swap1\n      pop\n      jump\t// out\n        /* \"#utility.yul\":9731:9900   */\n    tag_252:\n        /* \"#utility.yul\":9871:9892   */\n      0x746f6b656e20646f65736e277420657869737400000000000000000000000000\n        /* \"#utility.yul\":9867:9868   */\n      0x00\n        /* \"#utility.yul\":9859:9865   */\n      dup3\n        /* \"#utility.yul\":9855:9869   */\n      add\n        /* \"#utility.yul\":9848:9893   */\n      mstore\n        /* \"#utility.yul\":9731:9900   */\n      pop\n      jump\t// out\n        /* \"#utility.yul\":9906:10272   */\n    tag_253:\n        /* \"#utility.yul\":10048:10051   */\n      0x00\n        /* \"#utility.yul\":10069:10136   */\n      tag_386\n        /* \"#utility.yul\":10133:10135   */\n      0x13\n        /* \"#utility.yul\":10128:10131   */\n      dup4\n        /* \"#utility.yul\":10069:10136   */\n      tag_232\n      jump\t// in\n    tag_386:\n        /* \"#utility.yul\":10062:10136   */\n      swap2\n      pop\n        /* \"#utility.yul\":10145:10238   */\n      tag_387\n        /* \"#utility.yul\":10234:10237   */\n      dup3\n        /* \"#utility.yul\":10145:10238   */\n      tag_252\n      jump\t// in\n    tag_387:\n        /* \"#utility.yul\":10263:10265   */\n      0x20\n        /* \"#utility.yul\":10258:10261   */\n      dup3\n        /* \"#utility.yul\":10254:10266   */\n      add\n        /* \"#utility.yul\":10247:10266   */\n      swap1\n      pop\n        /* \"#utility.yul\":9906:10272   */\n      swap2\n      swap1\n      pop\n      jump\t// out\n        /* \"#utility.yul\":10278:10697   */\n    tag_109:\n        /* \"#utility.yul\":10444:10448   */\n      0x00\n        /* \"#utility.yul\":10482:10484   */\n      0x20\n        /* \"#utility.yul\":10471:10480   */\n      dup3\n        /* \"#utility.yul\":10467:10485   */\n      add\n        /* \"#utility.yul\":10459:10485   */\n      swap1\n      pop\n        /* \"#utility.yul\":10531:10540   */\n      dup2\n        /* \"#utility.yul\":10525:10529   */\n      dup2\n        /* \"#utility.yul\":10521:10541   */\n      sub\n        /* \"#utility.yul\":10517:10518   */\n      0x00\n        /* \"#utility.yul\":10506:10515   */\n      dup4\n        /* \"#utility.yul\":10502:10519   */\n      add\n        /* \"#utility.yul\":10495:10542   */\n      mstore\n        /* \"#utility.yul\":10559:10690   */\n      tag_389\n        /* \"#utility.yul\":10685:10689   */\n      dup2\n        /* \"#utility.yul\":10559:10690   */\n      tag_253\n      jump\t// in\n    tag_389:\n        /* \"#utility.yul\":10551:10690   */\n      swap1\n      pop\n        /* \"#utility.yul\":10278:10697   */\n      swap2\n      swap1\n      pop\n      jump\t// out\n        /* \"#utility.yul\":10703:10875   */\n    tag_254:\n        /* \"#utility.yul\":10843:10867   */\n      0x6e6f74206f776e6572206e6f7220617070726f76656400000000000000000000\n        /* \"#utility.yul\":10839:10840   */\n      0x00\n        /* \"#utility.yul\":10831:10837   */\n      dup3\n        /* \"#utility.yul\":10827:10841   */\n      add\n        /* \"#utility.yul\":10820:10868   */\n      mstore\n        /* \"#utility.yul\":10703:10875   */\n      pop\n      jump\t// out\n        /* \"#utility.yul\":10881:11247   */\n    tag_255:\n        /* \"#utility.yul\":11023:11026   */\n      0x00\n        /* \"#utility.yul\":11044:11111   */\n      tag_392\n        /* \"#utility.yul\":11108:11110   */\n      0x16\n        /* \"#utility.yul\":11103:11106   */\n      dup4\n        /* \"#utility.yul\":11044:11111   */\n      tag_232\n      jump\t// in\n    tag_392:\n        /* \"#utility.yul\":11037:11111   */\n      swap2\n      pop\n        /* \"#utility.yul\":11120:11213   */\n      tag_393\n        /* \"#utility.yul\":11209:11212   */\n      dup3\n        /* \"#utility.yul\":11120:11213   */\n      tag_254\n      jump\t// in\n    tag_393:\n        /* \"#utility.yul\":11238:11240   */\n      0x20\n        /* \"#utility.yul\":11233:11236   */\n      dup3\n        /* \"#utility.yul\":11229:11241   */\n      add\n        /* \"#utility.yul\":11222:11241   */\n      swap1\n      pop\n        /* \"#utility.yul\":10881:11247   */\n      swap2\n      swap1\n      pop\n      jump\t// out\n        /* \"#utility.yul\":11253:11672   */\n    tag_116:\n        /* \"#utility.yul\":11419:11423   */\n      0x00\n        /* \"#utility.yul\":11457:11459   */\n      0x20\n        /* \"#utility.yul\":11446:11455   */\n      dup3\n        /* \"#utility.yul\":11442:11460   */\n      add\n        /* \"#utility.yul\":11434:11460   */\n      swap1\n      pop\n        /* \"#utility.yul\":11506:11515   */\n      dup2\n        /* \"#utility.yul\":11500:11504   */\n      dup2\n        /* \"#utility.yul\":11496:11516   */\n      sub\n        /* \"#utility.yul\":11492:11493   */\n      0x00\n        /* \"#utility.yul\":11481:11490   */\n      dup4\n        /* \"#utility.yul\":11477:11494   */\n      add\n        /* \"#utility.yul\":11470:11517   */\n      mstore\n        /* \"#utility.yul\":11534:11665   */\n      tag_395\n        /* \"#utility.yul\":11660:11664   */\n      dup2\n        /* \"#utility.yul\":11534:11665   */\n      tag_255\n      jump\t// in\n    tag_395:\n        /* \"#utility.yul\":11526:11665   */\n      swap1\n      pop\n        /* \"#utility.yul\":11253:11672   */\n      swap2\n      swap1\n      pop\n      jump\t// out\n        /* \"#utility.yul\":11678:11846   */\n    tag_256:\n        /* \"#utility.yul\":11818:11838   */\n      0x746f6b656e20646f657327742065786973740000000000000000000000000000\n        /* \"#utility.yul\":11814:11815   */\n      0x00\n        /* \"#utility.yul\":11806:11812   */\n      dup3\n        /* \"#utility.yul\":11802:11816   */\n      add\n        /* \"#utility.yul\":11795:11839   */\n      mstore\n        /* \"#utility.yul\":11678:11846   */\n      pop\n      jump\t// out\n        /* \"#utility.yul\":11852:12218   */\n    tag_257:\n        /* \"#utility.yul\":11994:11997   */\n      0x00\n        /* \"#utility.yul\":12015:12082   */\n      tag_398\n        /* \"#utility.yul\":12079:12081   */\n      0x12\n        /* \"#utility.yul\":12074:12077   */\n      dup4\n        /* \"#utility.yul\":12015:12082   */\n      tag_232\n      jump\t// in\n    tag_398:\n        /* \"#utility.yul\":12008:12082   */\n      swap2\n      pop\n        /* \"#utility.yul\":12091:12184   */\n      tag_399\n        /* \"#utility.yul\":12180:12183   */\n      dup3\n        /* \"#utility.yul\":12091:12184   */\n      tag_256\n      jump\t// in\n    tag_399:\n        /* \"#utility.yul\":12209:12211   */\n      0x20\n        /* \"#utility.yul\":12204:12207   */\n      dup3\n        /* \"#utility.yul\":12200:12212   */\n      add\n        /* \"#utility.yul\":12193:12212   */\n      swap1\n      pop\n        /* \"#utility.yul\":11852:12218   */\n      swap2\n      swap1\n      pop\n      jump\t// out\n        /* \"#utility.yul\":12224:12643   */\n    tag_130:\n        /* \"#utility.yul\":12390:12394   */\n      0x00\n        /* \"#utility.yul\":12428:12430   */\n      0x20\n        /* \"#utility.yul\":12417:12426   */\n      dup3\n        /* \"#utility.yul\":12413:12431   */\n      add\n        /* \"#utility.yul\":12405:12431   */\n      swap1\n      pop\n        /* \"#utility.yul\":12477:12486   */\n      dup2\n        /* \"#utility.yul\":12471:12475   */\n      dup2\n        /* \"#utility.yul\":12467:12487   */\n      sub\n        /* \"#utility.yul\":12463:12464   */\n      0x00\n        /* \"#utility.yul\":12452:12461   */\n      dup4\n        /* \"#utility.yul\":12448:12465   */\n      add\n        /* \"#utility.yul\":12441:12488   */\n      mstore\n        /* \"#utility.yul\":12505:12636   */\n      tag_401\n        /* \"#utility.yul\":12631:12635   */\n      dup2\n        /* \"#utility.yul\":12505:12636   */\n      tag_257\n      jump\t// in\n    tag_401:\n        /* \"#utility.yul\":12497:12636   */\n      swap1\n      pop\n        /* \"#utility.yul\":12224:12643   */\n      swap2\n      swap1\n      pop\n      jump\t// out\n        /* \"#utility.yul\":12649:12820   */\n    tag_258:\n        /* \"#utility.yul\":12789:12812   */\n      0x6f776e6572206973207a65726f20616464726573730000000000000000000000\n        /* \"#utility.yul\":12785:12786   */\n      0x00\n        /* \"#utility.yul\":12777:12783   */\n      dup3\n        /* \"#utility.yul\":12773:12787   */\n      add\n        /* \"#utility.yul\":12766:12813   */\n      mstore\n        /* \"#utility.yul\":12649:12820   */\n      pop\n      jump\t// out\n        /* \"#utility.yul\":12826:13192   */\n    tag_259:\n        /* \"#utility.yul\":12968:12971   */\n      0x00\n        /* \"#utility.yul\":12989:13056   */\n      tag_404\n        /* \"#utility.yul\":13053:13055   */\n      0x15\n        /* \"#utility.yul\":13048:13051   */\n      dup4\n        /* \"#utility.yul\":12989:13056   */\n      tag_232\n      jump\t// in\n    tag_404:\n        /* \"#utility.yul\":12982:13056   */\n      swap2\n      pop\n        /* \"#utility.yul\":13065:13158   */\n      tag_405\n        /* \"#utility.yul\":13154:13157   */\n      dup3\n        /* \"#utility.yul\":13065:13158   */\n      tag_258\n      jump\t// in\n    tag_405:\n        /* \"#utility.yul\":13183:13185   */\n      0x20\n        /* \"#utility.yul\":13178:13181   */\n      dup3\n        /* \"#utility.yul\":13174:13186   */\n      add\n        /* \"#utility.yul\":13167:13186   */\n      swap1\n      pop\n        /* \"#utility.yul\":12826:13192   */\n      swap2\n      swap1\n      pop\n      jump\t// out\n        /* \"#utility.yul\":13198:13617   */\n    tag_134:\n        /* \"#utility.yul\":13364:13368   */\n      0x00\n        /* \"#utility.yul\":13402:13404   */\n      0x20\n        /* \"#utility.yul\":13391:13400   */\n      dup3\n        /* \"#utility.yul\":13387:13405   */\n      add\n        /* \"#utility.yul\":13379:13405   */\n      swap1\n      pop\n        /* \"#utility.yul\":13451:13460   */\n      dup2\n        /* \"#utility.yul\":13445:13449   */\n      dup2\n        /* \"#utility.yul\":13441:13461   */\n      sub\n        /* \"#utility.yul\":13437:13438   */\n      0x00\n        /* \"#utility.yul\":13426:13435   */\n      dup4\n        /* \"#utility.yul\":13422:13439   */\n      add\n        /* \"#utility.yul\":13415:13462   */\n      mstore\n        /* \"#utility.yul\":13479:13610   */\n      tag_407\n        /* \"#utility.yul\":13605:13609   */\n      dup2\n        /* \"#utility.yul\":13479:13610   */\n      tag_259\n      jump\t// in\n    tag_407:\n        /* \"#utility.yul\":13471:13610   */\n      swap1\n      pop\n        /* \"#utility.yul\":13198:13617   */\n      swap2\n      swap1\n      pop\n      jump\t// out\n        /* \"#utility.yul\":13623:13803   */\n    tag_260:\n        /* \"#utility.yul\":13763:13795   */\n      0x6e6f74206f776e6572206e6f7220617070726f76656420666f7220616c6c0000\n        /* \"#utility.yul\":13759:13760   */\n      0x00\n        /* \"#utility.yul\":13751:13757   */\n      dup3\n        /* \"#utility.yul\":13747:13761   */\n      add\n        /* \"#utility.yul\":13740:13796   */\n      mstore\n        /* \"#utility.yul\":13623:13803   */\n      pop\n      jump\t// out\n        /* \"#utility.yul\":13809:14175   */\n    tag_261:\n        /* \"#utility.yul\":13951:13954   */\n      0x00\n        /* \"#utility.yul\":13972:14039   */\n      tag_410\n        /* \"#utility.yul\":14036:14038   */\n      0x1e\n        /* \"#utility.yul\":14031:14034   */\n      dup4\n        /* \"#utility.yul\":13972:14039   */\n      tag_232\n      jump\t// in\n    tag_410:\n        /* \"#utility.yul\":13965:14039   */\n      swap2\n      pop\n        /* \"#utility.yul\":14048:14141   */\n      tag_411\n        /* \"#utility.yul\":14137:14140   */\n      dup3\n        /* \"#utility.yul\":14048:14141   */\n      tag_260\n      jump\t// in\n    tag_411:\n        /* \"#utility.yul\":14166:14168   */\n      0x20\n        /* \"#utility.yul\":14161:14164   */\n      dup3\n        /* \"#utility.yul\":14157:14169   */\n      add\n        /* \"#utility.yul\":14150:14169   */\n      swap1\n      pop\n        /* \"#utility.yul\":13809:14175   */\n      swap2\n      swap1\n      pop\n      jump\t// out\n        /* \"#utility.yul\":14181:14600   */\n    tag_145:\n        /* \"#utility.yul\":14347:14351   */\n      0x00\n        /* \"#utility.yul\":14385:14387   */\n      0x20\n        /* \"#utility.yul\":14374:14383   */\n      dup3\n        /* \"#utility.yul\":14370:14388   */\n      add\n        /* \"#utility.yul\":14362:14388   */\n      swap1\n      pop\n        /* \"#utility.yul\":14434:14443   */\n      dup2\n        /* \"#utility.yul\":14428:14432   */\n      dup2\n        /* \"#utility.yul\":14424:14444   */\n      sub\n        /* \"#utility.yul\":14420:14421   */\n      0x00\n        /* \"#utility.yul\":14409:14418   */\n      dup4\n        /* \"#utility.yul\":14405:14422   */\n      add\n        /* \"#utility.yul\":14398:14445   */\n      mstore\n        /* \"#utility.yul\":14462:14593   */\n      tag_413\n        /* \"#utility.yul\":14588:14592   */\n      dup2\n        /* \"#utility.yul\":14462:14593   */\n      tag_261\n      jump\t// in\n    tag_413:\n        /* \"#utility.yul\":14454:14593   */\n      swap1\n      pop\n        /* \"#utility.yul\":14181:14600   */\n      swap2\n      swap1\n      pop\n      jump\t// out\n        /* \"#utility.yul\":14606:14771   */\n    tag_262:\n        /* \"#utility.yul\":14746:14763   */\n      0x546f6b656e204e6f742045786973740000000000000000000000000000000000\n        /* \"#utility.yul\":14742:14743   */\n      0x00\n        /* \"#utility.yul\":14734:14740   */\n      dup3\n        /* \"#utility.yul\":14730:14744   */\n      add\n        /* \"#utility.yul\":14723:14764   */\n      mstore\n        /* \"#utility.yul\":14606:14771   */\n      pop\n      jump\t// out\n        /* \"#utility.yul\":14777:15143   */\n    tag_263:\n        /* \"#utility.yul\":14919:14922   */\n      0x00\n        /* \"#utility.yul\":14940:15007   */\n      tag_416\n        /* \"#utility.yul\":15004:15006   */\n      0x0f\n        /* \"#utility.yul\":14999:15002   */\n      dup4\n        /* \"#utility.yul\":14940:15007   */\n      tag_232\n      jump\t// in\n    tag_416:\n        /* \"#utility.yul\":14933:15007   */\n      swap2\n      pop\n        /* \"#utility.yul\":15016:15109   */\n      tag_417\n        /* \"#utility.yul\":15105:15108   */\n      dup3\n        /* \"#utility.yul\":15016:15109   */\n      tag_262\n      jump\t// in\n    tag_417:\n        /* \"#utility.yul\":15134:15136   */\n      0x20\n        /* \"#utility.yul\":15129:15132   */\n      dup3\n        /* \"#utility.yul\":15125:15137   */\n      add\n        /* \"#utility.yul\":15118:15137   */\n      swap1\n      pop\n        /* \"#utility.yul\":14777:15143   */\n      swap2\n      swap1\n      pop\n      jump\t// out\n        /* \"#utility.yul\":15149:15568   */\n    tag_152:\n        /* \"#utility.yul\":15315:15319   */\n      0x00\n        /* \"#utility.yul\":15353:15355   */\n      0x20\n        /* \"#utility.yul\":15342:15351   */\n      dup3\n        /* \"#utility.yul\":15338:15356   */\n      add\n        /* \"#utility.yul\":15330:15356   */\n      swap1\n      pop\n        /* \"#utility.yul\":15402:15411   */\n      dup2\n        /* \"#utility.yul\":15396:15400   */\n      dup2\n        /* \"#utility.yul\":15392:15412   */\n      sub\n        /* \"#utility.yul\":15388:15389   */\n      0x00\n        /* \"#utility.yul\":15377:15386   */\n      dup4\n        /* \"#utility.yul\":15373:15390   */\n      add\n        /* \"#utility.yul\":15366:15413   */\n      mstore\n        /* \"#utility.yul\":15430:15561   */\n      tag_419\n        /* \"#utility.yul\":15556:15560   */\n      dup2\n        /* \"#utility.yul\":15430:15561   */\n      tag_263\n      jump\t// in\n    tag_419:\n        /* \"#utility.yul\":15422:15561   */\n      swap1\n      pop\n        /* \"#utility.yul\":15149:15568   */\n      swap2\n      swap1\n      pop\n      jump\t// out\n        /* \"#utility.yul\":15574:15722   */\n    tag_264:\n        /* \"#utility.yul\":15676:15687   */\n      0x00\n        /* \"#utility.yul\":15713:15716   */\n      dup2\n        /* \"#utility.yul\":15698:15716   */\n      swap1\n      pop\n        /* \"#utility.yul\":15574:15722   */\n      swap3\n      swap2\n      pop\n      pop\n      jump\t// out\n        /* \"#utility.yul\":15728:16118   */\n    tag_265:\n        /* \"#utility.yul\":15834:15837   */\n      0x00\n        /* \"#utility.yul\":15862:15901   */\n      tag_422\n        /* \"#utility.yul\":15895:15900   */\n      dup3\n        /* \"#utility.yul\":15862:15901   */\n      tag_231\n      jump\t// in\n    tag_422:\n        /* \"#utility.yul\":15917:16006   */\n      tag_423\n        /* \"#utility.yul\":15999:16005   */\n      dup2\n        /* \"#utility.yul\":15994:15997   */\n      dup6\n        /* \"#utility.yul\":15917:16006   */\n      tag_264\n      jump\t// in\n    tag_423:\n        /* \"#utility.yul\":15910:16006   */\n      swap4\n      pop\n        /* \"#utility.yul\":16015:16080   */\n      tag_424\n        /* \"#utility.yul\":16073:16079   */\n      dup2\n        /* \"#utility.yul\":16068:16071   */\n      dup6\n        /* \"#utility.yul\":16061:16065   */\n      0x20\n        /* \"#utility.yul\":16054:16059   */\n      dup7\n        /* \"#utility.yul\":16050:16066   */\n      add\n        /* \"#utility.yul\":16015:16080   */\n      tag_233\n      jump\t// in\n    tag_424:\n        /* \"#utility.yul\":16105:16111   */\n      dup1\n        /* \"#utility.yul\":16100:16103   */\n      dup5\n        /* \"#utility.yul\":16096:16112   */\n      add\n        /* \"#utility.yul\":16089:16112   */\n      swap2\n      pop\n        /* \"#utility.yul\":15838:16118   */\n      pop\n        /* \"#utility.yul\":15728:16118   */\n      swap3\n      swap2\n      pop\n      pop\n      jump\t// out\n        /* \"#utility.yul\":16124:16559   */\n    tag_160:\n        /* \"#utility.yul\":16304:16307   */\n      0x00\n        /* \"#utility.yul\":16326:16421   */\n      tag_426\n        /* \"#utility.yul\":16417:16420   */\n      dup3\n        /* \"#utility.yul\":16408:16414   */\n      dup6\n        /* \"#utility.yul\":16326:16421   */\n      tag_265\n      jump\t// in\n    tag_426:\n        /* \"#utility.yul\":16319:16421   */\n      swap2\n      pop\n        /* \"#utility.yul\":16438:16533   */\n      tag_427\n        /* \"#utility.yul\":16529:16532   */\n      dup3\n        /* \"#utility.yul\":16520:16526   */\n      dup5\n        /* \"#utility.yul\":16438:16533   */\n      tag_265\n      jump\t// in\n    tag_427:\n        /* \"#utility.yul\":16431:16533   */\n      swap2\n      pop\n        /* \"#utility.yul\":16550:16553   */\n      dup2\n        /* \"#utility.yul\":16543:16553   */\n      swap1\n      pop\n        /* \"#utility.yul\":16124:16559   */\n      swap4\n      swap3\n      pop\n      pop\n      pop\n      jump\t// out\n        /* \"#utility.yul\":16565:16743   */\n    tag_266:\n        /* \"#utility.yul\":16705:16735   */\n      0x7472616e7366657220746f20746865207a65726f206164647265737300000000\n        /* \"#utility.yul\":16701:16702   */\n      0x00\n        /* \"#utility.yul\":16693:16699   */\n      dup3\n        /* \"#utility.yul\":16689:16703   */\n      add\n        /* \"#utility.yul\":16682:16736   */\n      mstore\n        /* \"#utility.yul\":16565:16743   */\n      pop\n      jump\t// out\n        /* \"#utility.yul\":16749:17115   */\n    tag_267:\n        /* \"#utility.yul\":16891:16894   */\n      0x00\n        /* \"#utility.yul\":16912:16979   */\n      tag_430\n        /* \"#utility.yul\":16976:16978   */\n      0x1c\n        /* \"#utility.yul\":16971:16974   */\n      dup4\n        /* \"#utility.yul\":16912:16979   */\n      tag_232\n      jump\t// in\n    tag_430:\n        /* \"#utility.yul\":16905:16979   */\n      swap2\n      pop\n        /* \"#utility.yul\":16988:17081   */\n      tag_431\n        /* \"#utility.yul\":17077:17080   */\n      dup3\n        /* \"#utility.yul\":16988:17081   */\n      tag_266\n      jump\t// in\n    tag_431:\n        /* \"#utility.yul\":17106:17108   */\n      0x20\n        /* \"#utility.yul\":17101:17104   */\n      dup3\n        /* \"#utility.yul\":17097:17109   */\n      add\n        /* \"#utility.yul\":17090:17109   */\n      swap1\n      pop\n        /* \"#utility.yul\":16749:17115   */\n      swap2\n      swap1\n      pop\n      jump\t// out\n        /* \"#utility.yul\":17121:17540   */\n    tag_174:\n        /* \"#utility.yul\":17287:17291   */\n      0x00\n        /* \"#utility.yul\":17325:17327   */\n      0x20\n        /* \"#utility.yul\":17314:17323   */\n      dup3\n        /* \"#utility.yul\":17310:17328   */\n      add\n        /* \"#utility.yul\":17302:17328   */\n      swap1\n      pop\n        /* \"#utility.yul\":17374:17383   */\n      dup2\n        /* \"#utility.yul\":17368:17372   */\n      dup2\n        /* \"#utility.yul\":17364:17384   */\n      sub\n        /* \"#utility.yul\":17360:17361   */\n      0x00\n        /* \"#utility.yul\":17349:17358   */\n      dup4\n        /* \"#utility.yul\":17345:17362   */\n      add\n        /* \"#utility.yul\":17338:17385   */\n      mstore\n        /* \"#utility.yul\":17402:17533   */\n      tag_433\n        /* \"#utility.yul\":17528:17532   */\n      dup2\n        /* \"#utility.yul\":17402:17533   */\n      tag_267\n      jump\t// in\n    tag_433:\n        /* \"#utility.yul\":17394:17533   */\n      swap1\n      pop\n        /* \"#utility.yul\":17121:17540   */\n      swap2\n      swap1\n      pop\n      jump\t// out\n        /* \"#utility.yul\":17546:17726   */\n    tag_268:\n        /* \"#utility.yul\":17594:17671   */\n      0x4e487b7100000000000000000000000000000000000000000000000000000000\n        /* \"#utility.yul\":17591:17592   */\n      0x00\n        /* \"#utility.yul\":17584:17672   */\n      mstore\n        /* \"#utility.yul\":17691:17695   */\n      0x11\n        /* \"#utility.yul\":17688:17689   */\n      0x04\n        /* \"#utility.yul\":17681:17696   */\n      mstore\n        /* \"#utility.yul\":17715:17719   */\n      0x24\n        /* \"#utility.yul\":17712:17713   */\n      0x00\n        /* \"#utility.yul\":17705:17720   */\n      revert\n        /* \"#utility.yul\":17732:17926   */\n    tag_177:\n        /* \"#utility.yul\":17772:17776   */\n      0x00\n        /* \"#utility.yul\":17792:17812   */\n      tag_436\n        /* \"#utility.yul\":17810:17811   */\n      dup3\n        /* \"#utility.yul\":17792:17812   */\n      tag_236\n      jump\t// in\n    tag_436:\n        /* \"#utility.yul\":17787:17812   */\n      swap2\n      pop\n        /* \"#utility.yul\":17826:17846   */\n      tag_437\n        /* \"#utility.yul\":17844:17845   */\n      dup4\n        /* \"#utility.yul\":17826:17846   */\n      tag_236\n      jump\t// in\n    tag_437:\n        /* \"#utility.yul\":17821:17846   */\n      swap3\n      pop\n        /* \"#utility.yul\":17870:17871   */\n      dup3\n        /* \"#utility.yul\":17867:17868   */\n      dup3\n        /* \"#utility.yul\":17863:17872   */\n      sub\n        /* \"#utility.yul\":17855:17872   */\n      swap1\n      pop\n        /* \"#utility.yul\":17894:17895   */\n      dup2\n        /* \"#utility.yul\":17888:17892   */\n      dup2\n        /* \"#utility.yul\":17885:17896   */\n      gt\n        /* \"#utility.yul\":17882:17919   */\n      iszero\n      tag_438\n      jumpi\n        /* \"#utility.yul\":17899:17917   */\n      tag_439\n      tag_268\n      jump\t// in\n    tag_439:\n        /* \"#utility.yul\":17882:17919   */\n    tag_438:\n        /* \"#utility.yul\":17732:17926   */\n      swap3\n      swap2\n      pop\n      pop\n      jump\t// out\n        /* \"#utility.yul\":17932:18123   */\n    tag_179:\n        /* \"#utility.yul\":17972:17975   */\n      0x00\n        /* \"#utility.yul\":17991:18011   */\n      tag_441\n        /* \"#utility.yul\":18009:18010   */\n      dup3\n        /* \"#utility.yul\":17991:18011   */\n      tag_236\n      jump\t// in\n    tag_441:\n        /* \"#utility.yul\":17986:18011   */\n      swap2\n      pop\n        /* \"#utility.yul\":18025:18045   */\n      tag_442\n        /* \"#utility.yul\":18043:18044   */\n      dup4\n        /* \"#utility.yul\":18025:18045   */\n      tag_236\n      jump\t// in\n    tag_442:\n        /* \"#utility.yul\":18020:18045   */\n      swap3\n      pop\n        /* \"#utility.yul\":18068:18069   */\n      dup3\n        /* \"#utility.yul\":18065:18066   */\n      dup3\n        /* \"#utility.yul\":18061:18070   */\n      add\n        /* \"#utility.yul\":18054:18070   */\n      swap1\n      pop\n        /* \"#utility.yul\":18089:18092   */\n      dup1\n        /* \"#utility.yul\":18086:18087   */\n      dup3\n        /* \"#utility.yul\":18083:18093   */\n      gt\n        /* \"#utility.yul\":18080:18116   */\n      iszero\n      tag_443\n      jumpi\n        /* \"#utility.yul\":18096:18114   */\n      tag_444\n      tag_268\n      jump\t// in\n    tag_444:\n        /* \"#utility.yul\":18080:18116   */\n    tag_443:\n        /* \"#utility.yul\":17932:18123   */\n      swap3\n      swap2\n      pop\n      pop\n      jump\t// out\n        /* \"#utility.yul\":18129:18227   */\n    tag_269:\n        /* \"#utility.yul\":18180:18186   */\n      0x00\n        /* \"#utility.yul\":18214:18219   */\n      dup2\n        /* \"#utility.yul\":18208:18220   */\n      mload\n        /* \"#utility.yul\":18198:18220   */\n      swap1\n      pop\n        /* \"#utility.yul\":18129:18227   */\n      swap2\n      swap1\n      pop\n      jump\t// out\n        /* \"#utility.yul\":18233:18401   */\n    tag_270:\n        /* \"#utility.yul\":18316:18327   */\n      0x00\n        /* \"#utility.yul\":18350:18356   */\n      dup3\n        /* \"#utility.yul\":18345:18348   */\n      dup3\n        /* \"#utility.yul\":18338:18357   */\n      mstore\n        /* \"#utility.yul\":18390:18394   */\n      0x20\n        /* \"#utility.yul\":18385:18388   */\n      dup3\n        /* \"#utility.yul\":18381:18395   */\n      add\n        /* \"#utility.yul\":18366:18395   */\n      swap1\n      pop\n        /* \"#utility.yul\":18233:18401   */\n      swap3\n      swap2\n      pop\n      pop\n      jump\t// out\n        /* \"#utility.yul\":18407:18780   */\n    tag_271:\n        /* \"#utility.yul\":18493:18496   */\n      0x00\n        /* \"#utility.yul\":18521:18559   */\n      tag_448\n        /* \"#utility.yul\":18553:18558   */\n      dup3\n        /* \"#utility.yul\":18521:18559   */\n      tag_269\n      jump\t// in\n    tag_448:\n        /* \"#utility.yul\":18575:18645   */\n      tag_449\n        /* \"#utility.yul\":18638:18644   */\n      dup2\n        /* \"#utility.yul\":18633:18636   */\n      dup6\n        /* \"#utility.yul\":18575:18645   */\n      tag_270\n      jump\t// in\n    tag_449:\n        /* \"#utility.yul\":18568:18645   */\n      swap4\n      pop\n        /* \"#utility.yul\":18654:18719   */\n      tag_450\n        /* \"#utility.yul\":18712:18718   */\n      dup2\n        /* \"#utility.yul\":18707:18710   */\n      dup6\n        /* \"#utility.yul\":18700:18704   */\n      0x20\n        /* \"#utility.yul\":18693:18698   */\n      dup7\n        /* \"#utility.yul\":18689:18705   */\n      add\n        /* \"#utility.yul\":18654:18719   */\n      tag_233\n      jump\t// in\n    tag_450:\n        /* \"#utility.yul\":18744:18773   */\n      tag_451\n        /* \"#utility.yul\":18766:18772   */\n      dup2\n        /* \"#utility.yul\":18744:18773   */\n      tag_234\n      jump\t// in\n    tag_451:\n        /* \"#utility.yul\":18739:18742   */\n      dup5\n        /* \"#utility.yul\":18735:18774   */\n      add\n        /* \"#utility.yul\":18728:18774   */\n      swap2\n      pop\n        /* \"#utility.yul\":18497:18780   */\n      pop\n        /* \"#utility.yul\":18407:18780   */\n      swap3\n      swap2\n      pop\n      pop\n      jump\t// out\n        /* \"#utility.yul\":18786:19426   */\n    tag_183:\n        /* \"#utility.yul\":18981:18985   */\n      0x00\n        /* \"#utility.yul\":19019:19022   */\n      0x80\n        /* \"#utility.yul\":19008:19017   */\n      dup3\n        /* \"#utility.yul\":19004:19023   */\n      add\n        /* \"#utility.yul\":18996:19023   */\n      swap1\n      pop\n        /* \"#utility.yul\":19033:19104   */\n      tag_453\n        /* \"#utility.yul\":19101:19102   */\n      0x00\n        /* \"#utility.yul\":19090:19099   */\n      dup4\n        /* \"#utility.yul\":19086:19103   */\n      add\n        /* \"#utility.yul\":19077:19083   */\n      dup8\n        /* \"#utility.yul\":19033:19104   */\n      tag_241\n      jump\t// in\n    tag_453:\n        /* \"#utility.yul\":19114:19186   */\n      tag_454\n        /* \"#utility.yul\":19182:19184   */\n      0x20\n        /* \"#utility.yul\":19171:19180   */\n      dup4\n        /* \"#utility.yul\":19167:19185   */\n      add\n        /* \"#utility.yul\":19158:19164   */\n      dup7\n        /* \"#utility.yul\":19114:19186   */\n      tag_241\n      jump\t// in\n    tag_454:\n        /* \"#utility.yul\":19196:19268   */\n      tag_455\n        /* \"#utility.yul\":19264:19266   */\n      0x40\n        /* \"#utility.yul\":19253:19262   */\n      dup4\n        /* \"#utility.yul\":19249:19267   */\n      add\n        /* \"#utility.yul\":19240:19246   */\n      dup6\n        /* \"#utility.yul\":19196:19268   */\n      tag_244\n      jump\t// in\n    tag_455:\n        /* \"#utility.yul\":19315:19324   */\n      dup2\n        /* \"#utility.yul\":19309:19313   */\n      dup2\n        /* \"#utility.yul\":19305:19325   */\n      sub\n        /* \"#utility.yul\":19300:19302   */\n      0x60\n        /* \"#utility.yul\":19289:19298   */\n      dup4\n        /* \"#utility.yul\":19285:19303   */\n      add\n        /* \"#utility.yul\":19278:19326   */\n      mstore\n        /* \"#utility.yul\":19343:19419   */\n      tag_456\n        /* \"#utility.yul\":19414:19418   */\n      dup2\n        /* \"#utility.yul\":19405:19411   */\n      dup5\n        /* \"#utility.yul\":19343:19419   */\n      tag_271\n      jump\t// in\n    tag_456:\n        /* \"#utility.yul\":19335:19419   */\n      swap1\n      pop\n        /* \"#utility.yul\":18786:19426   */\n      swap6\n      swap5\n      pop\n      pop\n      pop\n      pop\n      pop\n      jump\t// out\n        /* \"#utility.yul\":19432:19573   */\n    tag_272:\n        /* \"#utility.yul\":19488:19493   */\n      0x00\n        /* \"#utility.yul\":19519:19525   */\n      dup2\n        /* \"#utility.yul\":19513:19526   */\n      mload\n        /* \"#utility.yul\":19504:19526   */\n      swap1\n      pop\n        /* \"#utility.yul\":19535:19567   */\n      tag_458\n        /* \"#utility.yul\":19561:19566   */\n      dup2\n        /* \"#utility.yul\":19535:19567   */\n      tag_227\n      jump\t// in\n    tag_458:\n        /* \"#utility.yul\":19432:19573   */\n      swap3\n      swap2\n      pop\n      pop\n      jump\t// out\n        /* \"#utility.yul\":19579:19928   */\n    tag_186:\n        /* \"#utility.yul\":19648:19654   */\n      0x00\n        /* \"#utility.yul\":19697:19699   */\n      0x20\n        /* \"#utility.yul\":19685:19694   */\n      dup3\n        /* \"#utility.yul\":19676:19683   */\n      dup5\n        /* \"#utility.yul\":19672:19695   */\n      sub\n        /* \"#utility.yul\":19668:19700   */\n      slt\n        /* \"#utility.yul\":19665:19784   */\n      iszero\n      tag_460\n      jumpi\n        /* \"#utility.yul\":19703:19782   */\n      tag_461\n      tag_224\n      jump\t// in\n    tag_461:\n        /* \"#utility.yul\":19665:19784   */\n    tag_460:\n        /* \"#utility.yul\":19823:19824   */\n      0x00\n        /* \"#utility.yul\":19848:19911   */\n      tag_462\n        /* \"#utility.yul\":19903:19910   */\n      dup5\n        /* \"#utility.yul\":19894:19900   */\n      dup3\n        /* \"#utility.yul\":19883:19892   */\n      dup6\n        /* \"#utility.yul\":19879:19901   */\n      add\n        /* \"#utility.yul\":19848:19911   */\n      tag_272\n      jump\t// in\n    tag_462:\n        /* \"#utility.yul\":19838:19911   */\n      swap2\n      pop\n        /* \"#utility.yul\":19794:19921   */\n      pop\n        /* \"#utility.yul\":19579:19928   */\n      swap3\n      swap2\n      pop\n      pop\n      jump\t// out\n        /* \"#utility.yul\":19934:20167   */\n    tag_205:\n        /* \"#utility.yul\":19973:19976   */\n      0x00\n        /* \"#utility.yul\":19996:20020   */\n      tag_464\n        /* \"#utility.yul\":20014:20019   */\n      dup3\n        /* \"#utility.yul\":19996:20020   */\n      tag_236\n      jump\t// in\n    tag_464:\n        /* \"#utility.yul\":19987:20020   */\n      swap2\n      pop\n        /* \"#utility.yul\":20042:20108   */\n      0xffffffffffffffffffffffffffffffffffffffffffffffffffffffffffffffff\n        /* \"#utility.yul\":20035:20040   */\n      dup3\n        /* \"#utility.yul\":20032:20109   */\n      sub\n        /* \"#utility.yul\":20029:20132   */\n      tag_465\n      jumpi\n        /* \"#utility.yul\":20112:20130   */\n      tag_466\n      tag_268\n      jump\t// in\n    tag_466:\n        /* \"#utility.yul\":20029:20132   */\n    tag_465:\n        /* \"#utility.yul\":20159:20160   */\n      0x01\n        /* \"#utility.yul\":20152:20157   */\n      dup3\n        /* \"#utility.yul\":20148:20161   */\n      add\n        /* \"#utility.yul\":20141:20161   */\n      swap1\n      pop\n        /* \"#utility.yul\":19934:20167   */\n      swap2\n      swap1\n      pop\n      jump\t// out\n        /* \"#utility.yul\":20173:20353   */\n    tag_273:\n        /* \"#utility.yul\":20221:20298   */\n      0x4e487b7100000000000000000000000000000000000000000000000000000000\n        /* \"#utility.yul\":20218:20219   */\n      0x00\n        /* \"#utility.yul\":20211:20299   */\n      mstore\n        /* \"#utility.yul\":20318:20322   */\n      0x12\n        /* \"#utility.yul\":20315:20316   */\n      0x04\n        /* \"#utility.yul\":20308:20323   */\n      mstore\n        /* \"#utility.yul\":20342:20346   */\n      0x24\n        /* \"#utility.yul\":20339:20340   */\n      0x00\n        /* \"#utility.yul\":20332:20347   */\n      revert\n        /* \"#utility.yul\":20359:20544   */\n    tag_207:\n        /* \"#utility.yul\":20399:20400   */\n      0x00\n        /* \"#utility.yul\":20416:20436   */\n      tag_469\n        /* \"#utility.yul\":20434:20435   */\n      dup3\n        /* \"#utility.yul\":20416:20436   */\n      tag_236\n      jump\t// in\n    tag_469:\n        /* \"#utility.yul\":20411:20436   */\n      swap2\n      pop\n        /* \"#utility.yul\":20450:20470   */\n      tag_470\n        /* \"#utility.yul\":20468:20469   */\n      dup4\n        /* \"#utility.yul\":20450:20470   */\n      tag_236\n      jump\t// in\n    tag_470:\n        /* \"#utility.yul\":20445:20470   */\n      swap3\n      pop\n        /* \"#utility.yul\":20489:20490   */\n      dup3\n        /* \"#utility.yul\":20479:20514   */\n      tag_471\n      jumpi\n        /* \"#utility.yul\":20494:20512   */\n      tag_472\n      tag_273\n      jump\t// in\n    tag_472:\n        /* \"#utility.yul\":20479:20514   */\n    tag_471:\n        /* \"#utility.yul\":20536:20537   */\n      dup3\n        /* \"#utility.yul\":20533:20534   */\n      dup3\n        /* \"#utility.yul\":20529:20538   */\n      div\n        /* \"#utility.yul\":20524:20538   */\n      swap1\n      pop\n        /* \"#utility.yul\":20359:20544   */\n      swap3\n      swap2\n      pop\n      pop\n      jump\t// out\n        /* \"#utility.yul\":20550:20730   */\n    tag_210:\n        /* \"#utility.yul\":20598:20675   */\n      0x4e487b7100000000000000000000000000000000000000000000000000000000\n        /* \"#utility.yul\":20595:20596   */\n      0x00\n        /* \"#utility.yul\":20588:20676   */\n      mstore\n        /* \"#utility.yul\":20695:20699   */\n      0x41\n        /* \"#utility.yul\":20692:20693   */\n      0x04\n        /* \"#utility.yul\":20685:20700   */\n      mstore\n        /* \"#utility.yul\":20719:20723   */\n      0x24\n        /* \"#utility.yul\":20716:20717   */\n      0x00\n        /* \"#utility.yul\":20709:20724   */\n      revert\n        /* \"#utility.yul\":20736:20912   */\n    tag_216:\n        /* \"#utility.yul\":20768:20769   */\n      0x00\n        /* \"#utility.yul\":20785:20805   */\n      tag_475\n        /* \"#utility.yul\":20803:20804   */\n      dup3\n        /* \"#utility.yul\":20785:20805   */\n      tag_236\n      jump\t// in\n    tag_475:\n        /* \"#utility.yul\":20780:20805   */\n      swap2\n      pop\n        /* \"#utility.yul\":20819:20839   */\n      tag_476\n        /* \"#utility.yul\":20837:20838   */\n      dup4\n        /* \"#utility.yul\":20819:20839   */\n      tag_236\n      jump\t// in\n    tag_476:\n        /* \"#utility.yul\":20814:20839   */\n      swap3\n      pop\n        /* \"#utility.yul\":20858:20859   */\n      dup3\n        /* \"#utility.yul\":20848:20883   */\n      tag_477\n      jumpi\n        /* \"#utility.yul\":20863:20881   */\n      tag_478\n      tag_273\n      jump\t// in\n    tag_478:\n        /* \"#utility.yul\":20848:20883   */\n    tag_477:\n        /* \"#utility.yul\":20904:20905   */\n      dup3\n        /* \"#utility.yul\":20901:20902   */\n      dup3\n        /* \"#utility.yul\":20897:20906   */\n      mod\n        /* \"#utility.yul\":20892:20906   */\n      swap1\n      pop\n        /* \"#utility.yul\":20736:20912   */\n      swap3\n      swap2\n      pop\n      pop\n      jump\t// out\n        /* \"#utility.yul\":20918:21098   */\n    tag_220:\n        /* \"#utility.yul\":20966:21043   */\n      0x4e487b7100000000000000000000000000000000000000000000000000000000\n        /* \"#utility.yul\":20963:20964   */\n      0x00\n        /* \"#utility.yul\":20956:21044   */\n      mstore\n        /* \"#utility.yul\":21063:21067   */\n      0x32\n        /* \"#utility.yul\":21060:21061   */\n      0x04\n        /* \"#utility.yul\":21053:21068   */\n      mstore\n        /* \"#utility.yul\":21087:21091   */\n      0x24\n        /* \"#utility.yul\":21084:21085   */\n      0x00\n        /* \"#utility.yul\":21077:21092   */\n      revert\n\n    auxdata: 0xa2646970667358221220ab19fe55815c490013c75b2c34cd1b8ac7d1b270cad5e7d25e0c57137551da7964736f6c634300081e0033\n}\n",
				"bytecode": {
					"linkReferences": {},
					"object": "608060405234801561000f575f5ffd5b50604051612516380380612516833981810160405281019061003191906101a4565b815f908161003f919061042a565b50806001908161004f919061042a565b5050506104f9565b5f604051905090565b5f5ffd5b5f5ffd5b5f5ffd5b5f5ffd5b5f601f19601f8301169050919050565b7f4e487b71000000000000000000000000000000000000000000000000000000005f52604160045260245ffd5b6100b682610070565b810181811067ffffffffffffffff821117156100d5576100d4610080565b5b80604052505050565b5f6100e7610057565b90506100f382826100ad565b919050565b5f67ffffffffffffffff82111561011257610111610080565b5b61011b82610070565b9050602081019050919050565b8281835e5f83830152505050565b5f610148610143846100f8565b6100de565b9050828152602081018484840111156101645761016361006c565b5b61016f848285610128565b509392505050565b5f82601f83011261018b5761018a610068565b5b815161019b848260208601610136565b91505092915050565b5f5f604083850312156101ba576101b9610060565b5b5f83015167ffffffffffffffff8111156101d7576101d6610064565b5b6101e385828601610177565b925050602083015167ffffffffffffffff81111561020457610203610064565b5b61021085828601610177565b9150509250929050565b5f81519050919050565b7f4e487b71000000000000000000000000000000000000000000000000000000005f52602260045260245ffd5b5f600282049050600182168061026857607f821691505b60208210810361027b5761027a610224565b5b50919050565b5f819050815f5260205f209050919050565b5f6020601f8301049050919050565b5f82821b905092915050565b5f600883026102dd7fffffffffffffffffffffffffffffffffffffffffffffffffffffffffffffffff826102a2565b6102e786836102a2565b95508019841693508086168417925050509392505050565b5f819050919050565b5f819050919050565b5f61032b610326610321846102ff565b610308565b6102ff565b9050919050565b5f819050919050565b61034483610311565b61035861035082610332565b8484546102ae565b825550505050565b5f5f905090565b61036f610360565b61037a81848461033b565b505050565b5b8181101561039d576103925f82610367565b600181019050610380565b5050565b601f8211156103e2576103b381610281565b6103bc84610293565b810160208510156103cb578190505b6103df6103d785610293565b83018261037f565b50505b505050565b5f82821c905092915050565b5f6104025f19846008026103e7565b1980831691505092915050565b5f61041a83836103f3565b9150826002028217905092915050565b6104338261021a565b67ffffffffffffffff81111561044c5761044b610080565b5b6104568254610251565b6104618282856103a1565b5f60209050601f831160018114610492575f8415610480578287015190505b61048a858261040f565b8655506104f1565b601f1984166104a086610281565b5f5b828110156104c7578489015182556001820191506020850194506020810190506104a2565b868310156104e457848901516104e0601f8916826103f3565b8355505b6001600288020188555050505b505050505050565b612010806105065f395ff3fe608060405234801561000f575f5ffd5b5060043610610109575f3560e01c806395d89b41116100a0578063c33544021161006f578063c3354402146102ed578063c87b56dd14610309578063edc3bc3f14610339578063febe490914610369578063ffb74e641461038557610109565b806395d89b4114610253578063992924a614610271578063a7cc0136146102a1578063b88d4fde146102d157610109565b806342842e0e116100dc57806342842e0e146101a75780636352211e146101c35780636ebcf607146101f357806370a082311461022357610109565b806301ffc9a71461010d57806306fdde031461013d578063081812fc1461015b57806323b872dd1461018b575b5f5ffd5b61012760048036038101906101229190611572565b6103b5565b60405161013491906115b7565b60405180910390f35b6101456104ed565b6040516101529190611640565b60405180910390f35b61017560048036038101906101709190611693565b610578565b60405161018291906116fd565b60405180910390f35b6101a560048036038101906101a09190611740565b610627565b005b6101c160048036038101906101bc9190611740565b61068e565b005b6101dd60048036038101906101d89190611693565b61070f565b6040516101ea91906116fd565b60405180910390f35b61020d60048036038101906102089190611790565b6107b6565b60405161021a91906117ca565b60405180910390f35b61023d60048036038101906102389190611790565b6107cb565b60405161024a91906117ca565b60405180910390f35b61025b61087f565b6040516102689190611640565b60405180910390f35b61028b60048036038101906102869190611693565b61090b565b60405161029891906116fd565b60405180910390f35b6102bb60048036038101906102b69190611693565b61093b565b6040516102c891906116fd565b60405180910390f35b6102eb60048036038101906102e69190611844565b61096b565b005b610307600480360381019061030291906118f2565b610a23565b005b610323600480360381019061031e9190611693565b610b13565b6040516103309190611640565b60405180910390f35b610353600480360381019061034e9190611930565b610c0d565b60405161036091906115b7565b60405180910390f35b610383600480360381019061037e919061196e565b610c37565b005b61039f600480360381019061039a9190611790565b610dc4565b6040516103ac91906115b7565b60405180910390f35b5f7e67e1b1000000000000000000000000000000000000000000000000000000007bffffffffffffffffffffffffffffffffffffffffffffffffffffffff1916827bffffffffffffffffffffffffffffffffffffffffffffffffffffffff1916148061047e57507f01ffc9a7000000000000000000000000000000000000000000000000000000007bffffffffffffffffffffffffffffffffffffffffffffffffffffffff1916827bffffffffffffffffffffffffffffffffffffffffffffffffffffffff1916145b806104e657507f5b5e139f000000000000000000000000000000000000000000000000000000007bffffffffffffffffffffffffffffffffffffffffffffffffffffffff1916827bffffffffffffffffffffffffffffffffffffffffffffffffffffffff1916145b9050919050565b5f80546104f9906119d9565b80601f0160208091040260200160405190810160405280929190818152602001828054610525906119d9565b80156105705780601f1061054757610100808354040283529160200191610570565b820191905f5260205f20905b81548152906001019060200180831161055357829003601f168201915b505050505081565b5f5f73ffffffffffffffffffffffffffffffffffffffff166105998361070f565b73ffffffffffffffffffffffffffffffffffffffff16036105ef576040517f08c379a00000000000000000000000000000000000000000000000000000000081526004016105e690611a53565b60405180910390fd5b60045f8381526020019081526020015f205f9054906101000a900473ffffffffffffffffffffffffffffffffffffffff169050919050565b5f6106318261070f565b905061063e813384610e51565b61067d576040517f08c379a000000000000000000000000000000000000000000000000000000000815260040161067490611abb565b60405180910390fd5b610688848484610f7c565b50505050565b5f6106988261070f565b90506106a5813384610e51565b6106e4576040517f08c379a00000000000000000000000000000000000000000000000000000000081526004016106db90611abb565b60405180910390fd5b6106ef848484610f7c565b61070984848460405180602001604052805f81525061114c565b50505050565b5f60025f8381526020019081526020015f205f9054906101000a900473ffffffffffffffffffffffffffffffffffffffff1690505f73ffffffffffffffffffffffffffffffffffffffff168173ffffffffffffffffffffffffffffffffffffffff16036107b1576040517f08c379a00000000000000000000000000000000000000000000000000000000081526004016107a890611b23565b60405180910390fd5b919050565b6003602052805f5260405f205f915090505481565b5f5f73ffffffffffffffffffffffffffffffffffffffff168273ffffffffffffffffffffffffffffffffffffffff160361083a576040517f08c379a000000000000000000000000000000000000000000000000000000000815260040161083190611b8b565b60405180910390fd5b60035f8373ffffffffffffffffffffffffffffffffffffffff1673ffffffffffffffffffffffffffffffffffffffff1681526020019081526020015f20549050919050565b6001805461088c906119d9565b80601f01602080910402602001604051908101604052809291908181526020018280546108b8906119d9565b80156109035780601f106108da57610100808354040283529160200191610903565b820191905f5260205f20905b8154815290600101906020018083116108e657829003601f168201915b505050505081565b6002602052805f5260405f205f915054906101000a900473ffffffffffffffffffffffffffffffffffffffff1681565b6004602052805f5260405f205f915054906101000a900473ffffffffffffffffffffffffffffffffffffffff1681565b5f6109758461070f565b9050610982813386610e51565b6109c1576040517f08c379a00000000000000000000000000000000000000000000000000000000081526004016109b890611bf3565b60405180910390fd5b6109cc868686610f7c565b610a1b86868686868080601f0160208091040260200160405190810160405280939291908181526020018383808284375f81840152601f19601f8201169050808301925050505050505061114c565b505050505050565b8060055f3373ffffffffffffffffffffffffffffffffffffffff1673ffffffffffffffffffffffffffffffffffffffff1681526020019081526020015f205f8473ffffffffffffffffffffffffffffffffffffffff1673ffffffffffffffffffffffffffffffffffffffff1681526020019081526020015f205f6101000a81548160ff0219169083151502179055508015158273ffffffffffffffffffffffffffffffffffffffff163373ffffffffffffffffffffffffffffffffffffffff167f17307eab39ab6107e8899845ad3d59bd9653f200f220920489ca2b5937696c3160405160405180910390a45050565b60605f73ffffffffffffffffffffffffffffffffffffffff1660025f8481526020019081526020015f205f9054906101000a900473ffffffffffffffffffffffffffffffffffffffff1673ffffffffffffffffffffffffffffffffffffffff1603610bb3576040517f08c379a0000000000000000000000000000000000000000000000000000000008152600401610baa90611c5b565b60405180910390fd5b5f610bbc6112f7565b90505f815111610bda5760405180602001604052805f815250610c05565b80610be48461130d565b604051602001610bf5929190611cb3565b6040516020818303038152906040525b915050919050565b6005602052815f5260405f20602052805f5260405f205f915091509054906101000a900460ff1681565b5f60025f8481526020019081526020015f205f9054906101000a900473ffffffffffffffffffffffffffffffffffffffff1690503373ffffffffffffffffffffffffffffffffffffffff168173ffffffffffffffffffffffffffffffffffffffff161480610d26575060055f8273ffffffffffffffffffffffffffffffffffffffff1673ffffffffffffffffffffffffffffffffffffffff1681526020019081526020015f205f8373ffffffffffffffffffffffffffffffffffffffff1673ffffffffffffffffffffffffffffffffffffffff1681526020019081526020015f205f9054906101000a900460ff165b610d65576040517f08c379a0000000000000000000000000000000000000000000000000000000008152600401610d5c90611bf3565b60405180910390fd5b8160045f8581526020019081526020015f205f6101000a81548173ffffffffffffffffffffffffffffffffffffffff021916908373ffffffffffffffffffffffffffffffffffffffff160217905550610dbf818385611466565b505050565b5f60055f3373ffffffffffffffffffffffffffffffffffffffff1673ffffffffffffffffffffffffffffffffffffffff1681526020019081526020015f205f8373ffffffffffffffffffffffffffffffffffffffff1673ffffffffffffffffffffffffffffffffffffffff1681526020019081526020015f205f9054906101000a900460ff169050919050565b5f8373ffffffffffffffffffffffffffffffffffffffff168373ffffffffffffffffffffffffffffffffffffffff161480610ee757508273ffffffffffffffffffffffffffffffffffffffff1660045f8481526020019081526020015f205f9054906101000a900473ffffffffffffffffffffffffffffffffffffffff1673ffffffffffffffffffffffffffffffffffffffff16145b80610f73575060055f8573ffffffffffffffffffffffffffffffffffffffff1673ffffffffffffffffffffffffffffffffffffffff1681526020019081526020015f205f8473ffffffffffffffffffffffffffffffffffffffff1673ffffffffffffffffffffffffffffffffffffffff1681526020019081526020015f205f9054906101000a900460ff165b90509392505050565b5f73ffffffffffffffffffffffffffffffffffffffff168273ffffffffffffffffffffffffffffffffffffffff1603610fea576040517f08c379a0000000000000000000000000000000000000000000000000000000008152600401610fe190611d20565b60405180910390fd5b610ff5835f83611466565b8160025f8381526020019081526020015f205f6101000a81548173ffffffffffffffffffffffffffffffffffffffff021916908373ffffffffffffffffffffffffffffffffffffffff160217905550600160035f8573ffffffffffffffffffffffffffffffffffffffff1673ffffffffffffffffffffffffffffffffffffffff1681526020019081526020015f205f8282546110919190611d6b565b92505081905550600160035f8473ffffffffffffffffffffffffffffffffffffffff1673ffffffffffffffffffffffffffffffffffffffff1681526020019081526020015f205f8282546110e59190611d9e565b92505081905550808273ffffffffffffffffffffffffffffffffffffffff168473ffffffffffffffffffffffffffffffffffffffff167fddf252ad1be2c89b69c2b068fc378daa952ba7f163c4a11628f55a4df523b3ef60405160405180910390a4505050565b5f8373ffffffffffffffffffffffffffffffffffffffff163b11156112f1578273ffffffffffffffffffffffffffffffffffffffff1663150b7a02338685856040518563ffffffff1660e01b81526004016111aa9493929190611e23565b6020604051808303815f875af19250505080156111e557506040513d601f19601f820116820180604052508101906111e29190611e81565b60015b611266573d805f8114611213576040519150601f19603f3d011682016040523d82523d5f602084013e611218565b606091505b505f81510361125e57836040517ff9ecab6200000000000000000000000000000000000000000000000000000000815260040161125591906116fd565b60405180910390fd5b805181602001fd5b63150b7a0260e01b7bffffffffffffffffffffffffffffffffffffffffffffffffffffffff1916817bffffffffffffffffffffffffffffffffffffffffffffffffffffffff1916146112ef57836040517ff9ecab620000000000000000000000000000000000000000000000000000000081526004016112e691906116fd565b60405180910390fd5b505b50505050565b606060405180602001604052805f815250905090565b60605f8203611353576040518060400160405280600181526020017f30000000000000000000000000000000000000000000000000000000000000008152509050611461565b5f8290505f5b5f821461138257808061136b90611eac565b915050600a8261137b9190611f20565b9150611359565b5f8167ffffffffffffffff81111561139d5761139c611f50565b5b6040519080825280601f01601f1916602001820160405280156113cf5781602001600182028036833780820191505090505b5090505b5f851461145a576001826113e79190611d6b565b9150600a856113f69190611f7d565b60306114029190611d9e565b60f81b81838151811061141857611417611fad565b5b60200101907effffffffffffffffffffffffffffffffffffffffffffffffffffffffffffff191690815f1a905350600a856114539190611f20565b94506113d3565b8093505050505b919050565b8160045f8381526020019081526020015f205f6101000a81548173ffffffffffffffffffffffffffffffffffffffff021916908373ffffffffffffffffffffffffffffffffffffffff160217905550808273ffffffffffffffffffffffffffffffffffffffff168473ffffffffffffffffffffffffffffffffffffffff167f8c5be1e5ebec7d5bd14f71427d1e84f3dd0314c0f7b2291e5b200ac8c7c3b92560405160405180910390a4505050565b5f5ffd5b5f5ffd5b5f7fffffffff0000000000000000000000000000000000000000000000000000000082169050919050565b6115518161151d565b811461155b575f5ffd5b50565b5f8135905061156c81611548565b92915050565b5f6020828403121561158757611586611515565b5b5f6115948482850161155e565b91505092915050565b5f8115159050919050565b6115b18161159d565b82525050565b5f6020820190506115ca5f8301846115a8565b92915050565b5f81519050919050565b5f82825260208201905092915050565b8281835e5f83830152505050565b5f601f19601f8301169050919050565b5f611612826115d0565b61161c81856115da565b935061162c8185602086016115ea565b611635816115f8565b840191505092915050565b5f6020820190508181035f8301526116588184611608565b905092915050565b5f819050919050565b61167281611660565b811461167c575f5ffd5b50565b5f8135905061168d81611669565b92915050565b5f602082840312156116a8576116a7611515565b5b5f6116b58482850161167f565b91505092915050565b5f73ffffffffffffffffffffffffffffffffffffffff82169050919050565b5f6116e7826116be565b9050919050565b6116f7816116dd565b82525050565b5f6020820190506117105f8301846116ee565b92915050565b61171f816116dd565b8114611729575f5ffd5b50565b5f8135905061173a81611716565b92915050565b5f5f5f6060848603121561175757611756611515565b5b5f6117648682870161172c565b93505060206117758682870161172c565b92505060406117868682870161167f565b9150509250925092565b5f602082840312156117a5576117a4611515565b5b5f6117b28482850161172c565b91505092915050565b6117c481611660565b82525050565b5f6020820190506117dd5f8301846117bb565b92915050565b5f5ffd5b5f5ffd5b5f5ffd5b5f5f83601f840112611804576118036117e3565b5b8235905067ffffffffffffffff811115611821576118206117e7565b5b60208301915083600182028301111561183d5761183c6117eb565b5b9250929050565b5f5f5f5f5f6080868803121561185d5761185c611515565b5b5f61186a8882890161172c565b955050602061187b8882890161172c565b945050604061188c8882890161167f565b935050606086013567ffffffffffffffff8111156118ad576118ac611519565b5b6118b9888289016117ef565b92509250509295509295909350565b6118d18161159d565b81146118db575f5ffd5b50565b5f813590506118ec816118c8565b92915050565b5f5f6040838503121561190857611907611515565b5b5f6119158582860161172c565b9250506020611926858286016118de565b9150509250929050565b5f5f6040838503121561194657611945611515565b5b5f6119538582860161172c565b92505060206119648582860161172c565b9150509250929050565b5f5f6040838503121561198457611983611515565b5b5f6119918582860161167f565b92505060206119a28582860161172c565b9150509250929050565b7f4e487b71000000000000000000000000000000000000000000000000000000005f52602260045260245ffd5b5f60028204905060018216806119f057607f821691505b602082108103611a0357611a026119ac565b5b50919050565b7f746f6b656e20646f65736e2774206578697374000000000000000000000000005f82015250565b5f611a3d6013836115da565b9150611a4882611a09565b602082019050919050565b5f6020820190508181035f830152611a6a81611a31565b9050919050565b7f6e6f74206f776e6572206e6f7220617070726f766564000000000000000000005f82015250565b5f611aa56016836115da565b9150611ab082611a71565b602082019050919050565b5f6020820190508181035f830152611ad281611a99565b9050919050565b7f746f6b656e20646f6573277420657869737400000000000000000000000000005f82015250565b5f611b0d6012836115da565b9150611b1882611ad9565b602082019050919050565b5f6020820190508181035f830152611b3a81611b01565b9050919050565b7f6f776e6572206973207a65726f206164647265737300000000000000000000005f82015250565b5f611b756015836115da565b9150611b8082611b41565b602082019050919050565b5f6020820190508181035f830152611ba281611b69565b9050919050565b7f6e6f74206f776e6572206e6f7220617070726f76656420666f7220616c6c00005f82015250565b5f611bdd601e836115da565b9150611be882611ba9565b602082019050919050565b5f6020820190508181035f830152611c0a81611bd1565b9050919050565b7f546f6b656e204e6f7420457869737400000000000000000000000000000000005f82015250565b5f611c45600f836115da565b9150611c5082611c11565b602082019050919050565b5f6020820190508181035f830152611c7281611c39565b9050919050565b5f81905092915050565b5f611c8d826115d0565b611c978185611c79565b9350611ca78185602086016115ea565b80840191505092915050565b5f611cbe8285611c83565b9150611cca8284611c83565b91508190509392505050565b7f7472616e7366657220746f20746865207a65726f2061646472657373000000005f82015250565b5f611d0a601c836115da565b9150611d1582611cd6565b602082019050919050565b5f6020820190508181035f830152611d3781611cfe565b9050919050565b7f4e487b71000000000000000000000000000000000000000000000000000000005f52601160045260245ffd5b5f611d7582611660565b9150611d8083611660565b9250828203905081811115611d9857611d97611d3e565b5b92915050565b5f611da882611660565b9150611db383611660565b9250828201905080821115611dcb57611dca611d3e565b5b92915050565b5f81519050919050565b5f82825260208201905092915050565b5f611df582611dd1565b611dff8185611ddb565b9350611e0f8185602086016115ea565b611e18816115f8565b840191505092915050565b5f608082019050611e365f8301876116ee565b611e4360208301866116ee565b611e5060408301856117bb565b8181036060830152611e628184611deb565b905095945050505050565b5f81519050611e7b81611548565b92915050565b5f60208284031215611e9657611e95611515565b5b5f611ea384828501611e6d565b91505092915050565b5f611eb682611660565b91507fffffffffffffffffffffffffffffffffffffffffffffffffffffffffffffffff8203611ee857611ee7611d3e565b5b600182019050919050565b7f4e487b71000000000000000000000000000000000000000000000000000000005f52601260045260245ffd5b5f611f2a82611660565b9150611f3583611660565b925082611f4557611f44611ef3565b5b828204905092915050565b7f4e487b71000000000000000000000000000000000000000000000000000000005f52604160045260245ffd5b5f611f8782611660565b9150611f9283611660565b925082611fa257611fa1611ef3565b5b828206905092915050565b7f4e487b71000000000000000000000000000000000000000000000000000000005f52603260045260245ffdfea2646970667358221220ab19fe55815c490013c75b2c34cd1b8ac7d1b270cad5e7d25e0c57137551da7964736f6c634300081e0033",
					"opcodes": "PUSH1 0x80 PUSH1 0x40 MSTORE CALLVALUE DUP1 ISZERO PUSH2 0xF JUMPI PUSH0 PUSH0 REVERT JUMPDEST POP PUSH1 0x40 MLOAD PUSH2 0x2516 CODESIZE SUB DUP1 PUSH2 0x2516 DUP4 CODECOPY DUP2 DUP2 ADD PUSH1 0x40 MSTORE DUP2 ADD SWAP1 PUSH2 0x31 SWAP2 SWAP1 PUSH2 0x1A4 JUMP JUMPDEST DUP2 PUSH0 SWAP1 DUP2 PUSH2 0x3F SWAP2 SWAP1 PUSH2 0x42A JUMP JUMPDEST POP DUP1 PUSH1 0x1 SWAP1 DUP2 PUSH2 0x4F SWAP2 SWAP1 PUSH2 0x42A JUMP JUMPDEST POP POP POP PUSH2 0x4F9 JUMP JUMPDEST PUSH0 PUSH1 0x40 MLOAD SWAP1 POP SWAP1 JUMP JUMPDEST PUSH0 PUSH0 REVERT JUMPDEST PUSH0 PUSH0 REVERT JUMPDEST PUSH0 PUSH0 REVERT JUMPDEST PUSH0 PUSH0 REVERT JUMPDEST PUSH0 PUSH1 0x1F NOT PUSH1 0x1F DUP4 ADD AND SWAP1 POP SWAP2 SWAP1 POP JUMP JUMPDEST PUSH32 0x4E487B7100000000000000000000000000000000000000000000000000000000 PUSH0 MSTORE PUSH1 0x41 PUSH1 0x4 MSTORE PUSH1 0x24 PUSH0 REVERT JUMPDEST PUSH2 0xB6 DUP3 PUSH2 0x70 JUMP JUMPDEST DUP2 ADD DUP2 DUP2 LT PUSH8 0xFFFFFFFFFFFFFFFF DUP3 GT OR ISZERO PUSH2 0xD5 JUMPI PUSH2 0xD4 PUSH2 0x80 JUMP JUMPDEST JUMPDEST DUP1 PUSH1 0x40 MSTORE POP POP POP JUMP JUMPDEST PUSH0 PUSH2 0xE7 PUSH2 0x57 JUMP JUMPDEST SWAP1 POP PUSH2 0xF3 DUP3 DUP3 PUSH2 0xAD JUMP JUMPDEST SWAP2 SWAP1 POP JUMP JUMPDEST PUSH0 PUSH8 0xFFFFFFFFFFFFFFFF DUP3 GT ISZERO PUSH2 0x112 JUMPI PUSH2 0x111 PUSH2 0x80 JUMP JUMPDEST JUMPDEST PUSH2 0x11B DUP3 PUSH2 0x70 JUMP JUMPDEST SWAP1 POP PUSH1 0x20 DUP2 ADD SWAP1 POP SWAP2 SWAP1 POP JUMP JUMPDEST DUP3 DUP2 DUP4 MCOPY PUSH0 DUP4 DUP4 ADD MSTORE POP POP POP JUMP JUMPDEST PUSH0 PUSH2 0x148 PUSH2 0x143 DUP5 PUSH2 0xF8 JUMP JUMPDEST PUSH2 0xDE JUMP JUMPDEST SWAP1 POP DUP3 DUP2 MSTORE PUSH1 0x20 DUP2 ADD DUP5 DUP5 DUP5 ADD GT ISZERO PUSH2 0x164 JUMPI PUSH2 0x163 PUSH2 0x6C JUMP JUMPDEST JUMPDEST PUSH2 0x16F DUP5 DUP3 DUP6 PUSH2 0x128 JUMP JUMPDEST POP SWAP4 SWAP3 POP POP POP JUMP JUMPDEST PUSH0 DUP3 PUSH1 0x1F DUP4 ADD SLT PUSH2 0x18B JUMPI PUSH2 0x18A PUSH2 0x68 JUMP JUMPDEST JUMPDEST DUP2 MLOAD PUSH2 0x19B DUP5 DUP3 PUSH1 0x20 DUP7 ADD PUSH2 0x136 JUMP JUMPDEST SWAP2 POP POP SWAP3 SWAP2 POP POP JUMP JUMPDEST PUSH0 PUSH0 PUSH1 0x40 DUP4 DUP6 SUB SLT ISZERO PUSH2 0x1BA JUMPI PUSH2 0x1B9 PUSH2 0x60 JUMP JUMPDEST JUMPDEST PUSH0 DUP4 ADD MLOAD PUSH8 0xFFFFFFFFFFFFFFFF DUP2 GT ISZERO PUSH2 0x1D7 JUMPI PUSH2 0x1D6 PUSH2 0x64 JUMP JUMPDEST JUMPDEST PUSH2 0x1E3 DUP6 DUP3 DUP7 ADD PUSH2 0x177 JUMP JUMPDEST SWAP3 POP POP PUSH1 0x20 DUP4 ADD MLOAD PUSH8 0xFFFFFFFFFFFFFFFF DUP2 GT ISZERO PUSH2 0x204 JUMPI PUSH2 0x203 PUSH2 0x64 JUMP JUMPDEST JUMPDEST PUSH2 0x210 DUP6 DUP3 DUP7 ADD PUSH2 0x177 JUMP JUMPDEST SWAP2 POP POP SWAP3 POP SWAP3 SWAP1 POP JUMP JUMPDEST PUSH0 DUP2 MLOAD SWAP1 POP SWAP2 SWAP1 POP JUMP JUMPDEST PUSH32 0x4E487B7100000000000000000000000000000000000000000000000000000000 PUSH0 MSTORE PUSH1 0x22 PUSH1 0x4 MSTORE PUSH1 0x24 PUSH0 REVERT JUMPDEST PUSH0 PUSH1 0x2 DUP3 DIV SWAP1 POP PUSH1 0x1 DUP3 AND DUP1 PUSH2 0x268 JUMPI PUSH1 0x7F DUP3 AND SWAP2 POP JUMPDEST PUSH1 0x20 DUP3 LT DUP2 SUB PUSH2 0x27B JUMPI PUSH2 0x27A PUSH2 0x224 JUMP JUMPDEST JUMPDEST POP SWAP2 SWAP1 POP JUMP JUMPDEST PUSH0 DUP2 SWAP1 POP DUP2 PUSH0 MSTORE PUSH1 0x20 PUSH0 KECCAK256 SWAP1 POP SWAP2 SWAP1 POP JUMP JUMPDEST PUSH0 PUSH1 0x20 PUSH1 0x1F DUP4 ADD DIV SWAP1 POP SWAP2 SWAP1 POP JUMP JUMPDEST PUSH0 DUP3 DUP3 SHL SWAP1 POP SWAP3 SWAP2 POP POP JUMP JUMPDEST PUSH0 PUSH1 0x8 DUP4 MUL PUSH2 0x2DD PUSH32 0xFFFFFFFFFFFFFFFFFFFFFFFFFFFFFFFFFFFFFFFFFFFFFFFFFFFFFFFFFFFFFFFF DUP3 PUSH2 0x2A2 JUMP JUMPDEST PUSH2 0x2E7 DUP7 DUP4 PUSH2 0x2A2 JUMP JUMPDEST SWAP6 POP DUP1 NOT DUP5 AND SWAP4 POP DUP1 DUP7 AND DUP5 OR SWAP3 POP POP POP SWAP4 SWAP3 POP POP POP JUMP JUMPDEST PUSH0 DUP2 SWAP1 POP SWAP2 SWAP1 POP JUMP JUMPDEST PUSH0 DUP2 SWAP1 POP SWAP2 SWAP1 POP JUMP JUMPDEST PUSH0 PUSH2 0x32B PUSH2 0x326 PUSH2 0x321 DUP5 PUSH2 0x2FF JUMP JUMPDEST PUSH2 0x308 JUMP JUMPDEST PUSH2 0x2FF JUMP JUMPDEST SWAP1 POP SWAP2 SWAP1 POP JUMP JUMPDEST PUSH0 DUP2 SWAP1 POP SWAP2 SWAP1 POP JUMP JUMPDEST PUSH2 0x344 DUP4 PUSH2 0x311 JUMP JUMPDEST PUSH2 0x358 PUSH2 0x350 DUP3 PUSH2 0x332 JUMP JUMPDEST DUP5 DUP5 SLOAD PUSH2 0x2AE JUMP JUMPDEST DUP3 SSTORE POP POP POP POP JUMP JUMPDEST PUSH0 PUSH0 SWAP1 POP SWAP1 JUMP JUMPDEST PUSH2 0x36F PUSH2 0x360 JUMP JUMPDEST PUSH2 0x37A DUP2 DUP5 DUP5 PUSH2 0x33B JUMP JUMPDEST POP POP POP JUMP JUMPDEST JUMPDEST DUP2 DUP2 LT ISZERO PUSH2 0x39D JUMPI PUSH2 0x392 PUSH0 DUP3 PUSH2 0x367 JUMP JUMPDEST PUSH1 0x1 DUP2 ADD SWAP1 POP PUSH2 0x380 JUMP JUMPDEST POP POP JUMP JUMPDEST PUSH1 0x1F DUP3 GT ISZERO PUSH2 0x3E2 JUMPI PUSH2 0x3B3 DUP2 PUSH2 0x281 JUMP JUMPDEST PUSH2 0x3BC DUP5 PUSH2 0x293 JUMP JUMPDEST DUP2 ADD PUSH1 0x20 DUP6 LT ISZERO PUSH2 0x3CB JUMPI DUP2 SWAP1 POP JUMPDEST PUSH2 0x3DF PUSH2 0x3D7 DUP6 PUSH2 0x293 JUMP JUMPDEST DUP4 ADD DUP3 PUSH2 0x37F JUMP JUMPDEST POP POP JUMPDEST POP POP POP JUMP JUMPDEST PUSH0 DUP3 DUP3 SHR SWAP1 POP SWAP3 SWAP2 POP POP JUMP JUMPDEST PUSH0 PUSH2 0x402 PUSH0 NOT DUP5 PUSH1 0x8 MUL PUSH2 0x3E7 JUMP JUMPDEST NOT DUP1 DUP4 AND SWAP2 POP POP SWAP3 SWAP2 POP POP JUMP JUMPDEST PUSH0 PUSH2 0x41A DUP4 DUP4 PUSH2 0x3F3 JUMP JUMPDEST SWAP2 POP DUP3 PUSH1 0x2 MUL DUP3 OR SWAP1 POP SWAP3 SWAP2 POP POP JUMP JUMPDEST PUSH2 0x433 DUP3 PUSH2 0x21A JUMP JUMPDEST PUSH8 0xFFFFFFFFFFFFFFFF DUP2 GT ISZERO PUSH2 0x44C JUMPI PUSH2 0x44B PUSH2 0x80 JUMP JUMPDEST JUMPDEST PUSH2 0x456 DUP3 SLOAD PUSH2 0x251 JUMP JUMPDEST PUSH2 0x461 DUP3 DUP3 DUP6 PUSH2 0x3A1 JUMP JUMPDEST PUSH0 PUSH1 0x20 SWAP1 POP PUSH1 0x1F DUP4 GT PUSH1 0x1 DUP2 EQ PUSH2 0x492 JUMPI PUSH0 DUP5 ISZERO PUSH2 0x480 JUMPI DUP3 DUP8 ADD MLOAD SWAP1 POP JUMPDEST PUSH2 0x48A DUP6 DUP3 PUSH2 0x40F JUMP JUMPDEST DUP7 SSTORE POP PUSH2 0x4F1 JUMP JUMPDEST PUSH1 0x1F NOT DUP5 AND PUSH2 0x4A0 DUP7 PUSH2 0x281 JUMP JUMPDEST PUSH0 JUMPDEST DUP3 DUP2 LT ISZERO PUSH2 0x4C7 JUMPI DUP5 DUP10 ADD MLOAD DUP3 SSTORE PUSH1 0x1 DUP3 ADD SWAP2 POP PUSH1 0x20 DUP6 ADD SWAP5 POP PUSH1 0x20 DUP2 ADD SWAP1 POP PUSH2 0x4A2 JUMP JUMPDEST DUP7 DUP4 LT ISZERO PUSH2 0x4E4 JUMPI DUP5 DUP10 ADD MLOAD PUSH2 0x4E0 PUSH1 0x1F DUP10 AND DUP3 PUSH2 0x3F3 JUMP JUMPDEST DUP4 SSTORE POP JUMPDEST PUSH1 0x1 PUSH1 0x2 DUP9 MUL ADD DUP9 SSTORE POP POP POP JUMPDEST POP POP POP POP POP POP JUMP JUMPDEST PUSH2 0x2010 DUP1 PUSH2 0x506 PUSH0 CODECOPY PUSH0 RETURN INVALID PUSH1 0x80 PUSH1 0x40 MSTORE CALLVALUE DUP1 ISZERO PUSH2 0xF JUMPI PUSH0 PUSH0 REVERT JUMPDEST POP PUSH1 0x4 CALLDATASIZE LT PUSH2 0x109 JUMPI PUSH0 CALLDATALOAD PUSH1 0xE0 SHR DUP1 PUSH4 0x95D89B41 GT PUSH2 0xA0 JUMPI DUP1 PUSH4 0xC3354402 GT PUSH2 0x6F JUMPI DUP1 PUSH4 0xC3354402 EQ PUSH2 0x2ED JUMPI DUP1 PUSH4 0xC87B56DD EQ PUSH2 0x309 JUMPI DUP1 PUSH4 0xEDC3BC3F EQ PUSH2 0x339 JUMPI DUP1 PUSH4 0xFEBE4909 EQ PUSH2 0x369 JUMPI DUP1 PUSH4 0xFFB74E64 EQ PUSH2 0x385 JUMPI PUSH2 0x109 JUMP JUMPDEST DUP1 PUSH4 0x95D89B41 EQ PUSH2 0x253 JUMPI DUP1 PUSH4 0x992924A6 EQ PUSH2 0x271 JUMPI DUP1 PUSH4 0xA7CC0136 EQ PUSH2 0x2A1 JUMPI DUP1 PUSH4 0xB88D4FDE EQ PUSH2 0x2D1 JUMPI PUSH2 0x109 JUMP JUMPDEST DUP1 PUSH4 0x42842E0E GT PUSH2 0xDC JUMPI DUP1 PUSH4 0x42842E0E EQ PUSH2 0x1A7 JUMPI DUP1 PUSH4 0x6352211E EQ PUSH2 0x1C3 JUMPI DUP1 PUSH4 0x6EBCF607 EQ PUSH2 0x1F3 JUMPI DUP1 PUSH4 0x70A08231 EQ PUSH2 0x223 JUMPI PUSH2 0x109 JUMP JUMPDEST DUP1 PUSH4 0x1FFC9A7 EQ PUSH2 0x10D JUMPI DUP1 PUSH4 0x6FDDE03 EQ PUSH2 0x13D JUMPI DUP1 PUSH4 0x81812FC EQ PUSH2 0x15B JUMPI DUP1 PUSH4 0x23B872DD EQ PUSH2 0x18B JUMPI JUMPDEST PUSH0 PUSH0 REVERT JUMPDEST PUSH2 0x127 PUSH1 0x4 DUP1 CALLDATASIZE SUB DUP2 ADD SWAP1 PUSH2 0x122 SWAP2 SWAP1 PUSH2 0x1572 JUMP JUMPDEST PUSH2 0x3B5 JUMP JUMPDEST PUSH1 0x40 MLOAD PUSH2 0x134 SWAP2 SWAP1 PUSH2 0x15B7 JUMP JUMPDEST PUSH1 0x40 MLOAD DUP1 SWAP2 SUB SWAP1 RETURN JUMPDEST PUSH2 0x145 PUSH2 0x4ED JUMP JUMPDEST PUSH1 0x40 MLOAD PUSH2 0x152 SWAP2 SWAP1 PUSH2 0x1640 JUMP JUMPDEST PUSH1 0x40 MLOAD DUP1 SWAP2 SUB SWAP1 RETURN JUMPDEST PUSH2 0x175 PUSH1 0x4 DUP1 CALLDATASIZE SUB DUP2 ADD SWAP1 PUSH2 0x170 SWAP2 SWAP1 PUSH2 0x1693 JUMP JUMPDEST PUSH2 0x578 JUMP JUMPDEST PUSH1 0x40 MLOAD PUSH2 0x182 SWAP2 SWAP1 PUSH2 0x16FD JUMP JUMPDEST PUSH1 0x40 MLOAD DUP1 SWAP2 SUB SWAP1 RETURN JUMPDEST PUSH2 0x1A5 PUSH1 0x4 DUP1 CALLDATASIZE SUB DUP2 ADD SWAP1 PUSH2 0x1A0 SWAP2 SWAP1 PUSH2 0x1740 JUMP JUMPDEST PUSH2 0x627 JUMP JUMPDEST STOP JUMPDEST PUSH2 0x1C1 PUSH1 0x4 DUP1 CALLDATASIZE SUB DUP2 ADD SWAP1 PUSH2 0x1BC SWAP2 SWAP1 PUSH2 0x1740 JUMP JUMPDEST PUSH2 0x68E JUMP JUMPDEST STOP JUMPDEST PUSH2 0x1DD PUSH1 0x4 DUP1 CALLDATASIZE SUB DUP2 ADD SWAP1 PUSH2 0x1D8 SWAP2 SWAP1 PUSH2 0x1693 JUMP JUMPDEST PUSH2 0x70F JUMP JUMPDEST PUSH1 0x40 MLOAD PUSH2 0x1EA SWAP2 SWAP1 PUSH2 0x16FD JUMP JUMPDEST PUSH1 0x40 MLOAD DUP1 SWAP2 SUB SWAP1 RETURN JUMPDEST PUSH2 0x20D PUSH1 0x4 DUP1 CALLDATASIZE SUB DUP2 ADD SWAP1 PUSH2 0x208 SWAP2 SWAP1 PUSH2 0x1790 JUMP JUMPDEST PUSH2 0x7B6 JUMP JUMPDEST PUSH1 0x40 MLOAD PUSH2 0x21A SWAP2 SWAP1 PUSH2 0x17CA JUMP JUMPDEST PUSH1 0x40 MLOAD DUP1 SWAP2 SUB SWAP1 RETURN JUMPDEST PUSH2 0x23D PUSH1 0x4 DUP1 CALLDATASIZE SUB DUP2 ADD SWAP1 PUSH2 0x238 SWAP2 SWAP1 PUSH2 0x1790 JUMP JUMPDEST PUSH2 0x7CB JUMP JUMPDEST PUSH1 0x40 MLOAD PUSH2 0x24A SWAP2 SWAP1 PUSH2 0x17CA JUMP JUMPDEST PUSH1 0x40 MLOAD DUP1 SWAP2 SUB SWAP1 RETURN JUMPDEST PUSH2 0x25B PUSH2 0x87F JUMP JUMPDEST PUSH1 0x40 MLOAD PUSH2 0x268 SWAP2 SWAP1 PUSH2 0x1640 JUMP JUMPDEST PUSH1 0x40 MLOAD DUP1 SWAP2 SUB SWAP1 RETURN JUMPDEST PUSH2 0x28B PUSH1 0x4 DUP1 CALLDATASIZE SUB DUP2 ADD SWAP1 PUSH2 0x286 SWAP2 SWAP1 PUSH2 0x1693 JUMP JUMPDEST PUSH2 0x90B JUMP JUMPDEST PUSH1 0x40 MLOAD PUSH2 0x298 SWAP2 SWAP1 PUSH2 0x16FD JUMP JUMPDEST PUSH1 0x40 MLOAD DUP1 SWAP2 SUB SWAP1 RETURN JUMPDEST PUSH2 0x2BB PUSH1 0x4 DUP1 CALLDATASIZE SUB DUP2 ADD SWAP1 PUSH2 0x2B6 SWAP2 SWAP1 PUSH2 0x1693 JUMP JUMPDEST PUSH2 0x93B JUMP JUMPDEST PUSH1 0x40 MLOAD PUSH2 0x2C8 SWAP2 SWAP1 PUSH2 0x16FD JUMP JUMPDEST PUSH1 0x40 MLOAD DUP1 SWAP2 SUB SWAP1 RETURN JUMPDEST PUSH2 0x2EB PUSH1 0x4 DUP1 CALLDATASIZE SUB DUP2 ADD SWAP1 PUSH2 0x2E6 SWAP2 SWAP1 PUSH2 0x1844 JUMP JUMPDEST PUSH2 0x96B JUMP JUMPDEST STOP JUMPDEST PUSH2 0x307 PUSH1 0x4 DUP1 CALLDATASIZE SUB DUP2 ADD SWAP1 PUSH2 0x302 SWAP2 SWAP1 PUSH2 0x18F2 JUMP JUMPDEST PUSH2 0xA23 JUMP JUMPDEST STOP JUMPDEST PUSH2 0x323 PUSH1 0x4 DUP1 CALLDATASIZE SUB DUP2 ADD SWAP1 PUSH2 0x31E SWAP2 SWAP1 PUSH2 0x1693 JUMP JUMPDEST PUSH2 0xB13 JUMP JUMPDEST PUSH1 0x40 MLOAD PUSH2 0x330 SWAP2 SWAP1 PUSH2 0x1640 JUMP JUMPDEST PUSH1 0x40 MLOAD DUP1 SWAP2 SUB SWAP1 RETURN JUMPDEST PUSH2 0x353 PUSH1 0x4 DUP1 CALLDATASIZE SUB DUP2 ADD SWAP1 PUSH2 0x34E SWAP2 SWAP1 PUSH2 0x1930 JUMP JUMPDEST PUSH2 0xC0D JUMP JUMPDEST PUSH1 0x40 MLOAD PUSH2 0x360 SWAP2 SWAP1 PUSH2 0x15B7 JUMP JUMPDEST PUSH1 0x40 MLOAD DUP1 SWAP2 SUB SWAP1 RETURN JUMPDEST PUSH2 0x383 PUSH1 0x4 DUP1 CALLDATASIZE SUB DUP2 ADD SWAP1 PUSH2 0x37E SWAP2 SWAP1 PUSH2 0x196E JUMP JUMPDEST PUSH2 0xC37 JUMP JUMPDEST STOP JUMPDEST PUSH2 0x39F PUSH1 0x4 DUP1 CALLDATASIZE SUB DUP2 ADD SWAP1 PUSH2 0x39A SWAP2 SWAP1 PUSH2 0x1790 JUMP JUMPDEST PUSH2 0xDC4 JUMP JUMPDEST PUSH1 0x40 MLOAD PUSH2 0x3AC SWAP2 SWAP1 PUSH2 0x15B7 JUMP JUMPDEST PUSH1 0x40 MLOAD DUP1 SWAP2 SUB SWAP1 RETURN JUMPDEST PUSH0 PUSH31 0x67E1B100000000000000000000000000000000000000000000000000000000 PUSH28 0xFFFFFFFFFFFFFFFFFFFFFFFFFFFFFFFFFFFFFFFFFFFFFFFFFFFFFFFF NOT AND DUP3 PUSH28 0xFFFFFFFFFFFFFFFFFFFFFFFFFFFFFFFFFFFFFFFFFFFFFFFFFFFFFFFF NOT AND EQ DUP1 PUSH2 0x47E JUMPI POP PUSH32 0x1FFC9A700000000000000000000000000000000000000000000000000000000 PUSH28 0xFFFFFFFFFFFFFFFFFFFFFFFFFFFFFFFFFFFFFFFFFFFFFFFFFFFFFFFF NOT AND DUP3 PUSH28 0xFFFFFFFFFFFFFFFFFFFFFFFFFFFFFFFFFFFFFFFFFFFFFFFFFFFFFFFF NOT AND EQ JUMPDEST DUP1 PUSH2 0x4E6 JUMPI POP PUSH32 0x5B5E139F00000000000000000000000000000000000000000000000000000000 PUSH28 0xFFFFFFFFFFFFFFFFFFFFFFFFFFFFFFFFFFFFFFFFFFFFFFFFFFFFFFFF NOT AND DUP3 PUSH28 0xFFFFFFFFFFFFFFFFFFFFFFFFFFFFFFFFFFFFFFFFFFFFFFFFFFFFFFFF NOT AND EQ JUMPDEST SWAP1 POP SWAP2 SWAP1 POP JUMP JUMPDEST PUSH0 DUP1 SLOAD PUSH2 0x4F9 SWAP1 PUSH2 0x19D9 JUMP JUMPDEST DUP1 PUSH1 0x1F ADD PUSH1 0x20 DUP1 SWAP2 DIV MUL PUSH1 0x20 ADD PUSH1 0x40 MLOAD SWAP1 DUP2 ADD PUSH1 0x40 MSTORE DUP1 SWAP3 SWAP2 SWAP1 DUP2 DUP2 MSTORE PUSH1 0x20 ADD DUP3 DUP1 SLOAD PUSH2 0x525 SWAP1 PUSH2 0x19D9 JUMP JUMPDEST DUP1 ISZERO PUSH2 0x570 JUMPI DUP1 PUSH1 0x1F LT PUSH2 0x547 JUMPI PUSH2 0x100 DUP1 DUP4 SLOAD DIV MUL DUP4 MSTORE SWAP2 PUSH1 0x20 ADD SWAP2 PUSH2 0x570 JUMP JUMPDEST DUP3 ADD SWAP2 SWAP1 PUSH0 MSTORE PUSH1 0x20 PUSH0 KECCAK256 SWAP1 JUMPDEST DUP2 SLOAD DUP2 MSTORE SWAP1 PUSH1 0x1 ADD SWAP1 PUSH1 0x20 ADD DUP1 DUP4 GT PUSH2 0x553 JUMPI DUP3 SWAP1 SUB PUSH1 0x1F AND DUP3 ADD SWAP2 JUMPDEST POP POP POP POP POP DUP2 JUMP JUMPDEST PUSH0 PUSH0 PUSH20 0xFFFFFFFFFFFFFFFFFFFFFFFFFFFFFFFFFFFFFFFF AND PUSH2 0x599 DUP4 PUSH2 0x70F JUMP JUMPDEST PUSH20 0xFFFFFFFFFFFFFFFFFFFFFFFFFFFFFFFFFFFFFFFF AND SUB PUSH2 0x5EF JUMPI PUSH1 0x40 MLOAD PUSH32 0x8C379A000000000000000000000000000000000000000000000000000000000 DUP2 MSTORE PUSH1 0x4 ADD PUSH2 0x5E6 SWAP1 PUSH2 0x1A53 JUMP JUMPDEST PUSH1 0x40 MLOAD DUP1 SWAP2 SUB SWAP1 REVERT JUMPDEST PUSH1 0x4 PUSH0 DUP4 DUP2 MSTORE PUSH1 0x20 ADD SWAP1 DUP2 MSTORE PUSH1 0x20 ADD PUSH0 KECCAK256 PUSH0 SWAP1 SLOAD SWAP1 PUSH2 0x100 EXP SWAP1 DIV PUSH20 0xFFFFFFFFFFFFFFFFFFFFFFFFFFFFFFFFFFFFFFFF AND SWAP1 POP SWAP2 SWAP1 POP JUMP JUMPDEST PUSH0 PUSH2 0x631 DUP3 PUSH2 0x70F JUMP JUMPDEST SWAP1 POP PUSH2 0x63E DUP2 CALLER DUP5 PUSH2 0xE51 JUMP JUMPDEST PUSH2 0x67D JUMPI PUSH1 0x40 MLOAD PUSH32 0x8C379A000000000000000000000000000000000000000000000000000000000 DUP2 MSTORE PUSH1 0x4 ADD PUSH2 0x674 SWAP1 PUSH2 0x1ABB JUMP JUMPDEST PUSH1 0x40 MLOAD DUP1 SWAP2 SUB SWAP1 REVERT JUMPDEST PUSH2 0x688 DUP5 DUP5 DUP5 PUSH2 0xF7C JUMP JUMPDEST POP POP POP POP JUMP JUMPDEST PUSH0 PUSH2 0x698 DUP3 PUSH2 0x70F JUMP JUMPDEST SWAP1 POP PUSH2 0x6A5 DUP2 CALLER DUP5 PUSH2 0xE51 JUMP JUMPDEST PUSH2 0x6E4 JUMPI PUSH1 0x40 MLOAD PUSH32 0x8C379A000000000000000000000000000000000000000000000000000000000 DUP2 MSTORE PUSH1 0x4 ADD PUSH2 0x6DB SWAP1 PUSH2 0x1ABB JUMP JUMPDEST PUSH1 0x40 MLOAD DUP1 SWAP2 SUB SWAP1 REVERT JUMPDEST PUSH2 0x6EF DUP5 DUP5 DUP5 PUSH2 0xF7C JUMP JUMPDEST PUSH2 0x709 DUP5 DUP5 DUP5 PUSH1 0x40 MLOAD DUP1 PUSH1 0x20 ADD PUSH1 0x40 MSTORE DUP1 PUSH0 DUP2 MSTORE POP PUSH2 0x114C JUMP JUMPDEST POP POP POP POP JUMP JUMPDEST PUSH0 PUSH1 0x2 PUSH0 DUP4 DUP2 MSTORE PUSH1 0x20 ADD SWAP1 DUP2 MSTORE PUSH1 0x20 ADD PUSH0 KECCAK256 PUSH0 SWAP1 SLOAD SWAP1 PUSH2 0x100 EXP SWAP1 DIV PUSH20 0xFFFFFFFFFFFFFFFFFFFFFFFFFFFFFFFFFFFFFFFF AND SWAP1 POP PUSH0 PUSH20 0xFFFFFFFFFFFFFFFFFFFFFFFFFFFFFFFFFFFFFFFF AND DUP2 PUSH20 0xFFFFFFFFFFFFFFFFFFFFFFFFFFFFFFFFFFFFFFFF AND SUB PUSH2 0x7B1 JUMPI PUSH1 0x40 MLOAD PUSH32 0x8C379A000000000000000000000000000000000000000000000000000000000 DUP2 MSTORE PUSH1 0x4 ADD PUSH2 0x7A8 SWAP1 PUSH2 0x1B23 JUMP JUMPDEST PUSH1 0x40 MLOAD DUP1 SWAP2 SUB SWAP1 REVERT JUMPDEST SWAP2 SWAP1 POP JUMP JUMPDEST PUSH1 0x3 PUSH1 0x20 MSTORE DUP1 PUSH0 MSTORE PUSH1 0x40 PUSH0 KECCAK256 PUSH0 SWAP2 POP SWAP1 POP SLOAD DUP2 JUMP JUMPDEST PUSH0 PUSH0 PUSH20 0xFFFFFFFFFFFFFFFFFFFFFFFFFFFFFFFFFFFFFFFF AND DUP3 PUSH20 0xFFFFFFFFFFFFFFFFFFFFFFFFFFFFFFFFFFFFFFFF AND SUB PUSH2 0x83A JUMPI PUSH1 0x40 MLOAD PUSH32 0x8C379A000000000000000000000000000000000000000000000000000000000 DUP2 MSTORE PUSH1 0x4 ADD PUSH2 0x831 SWAP1 PUSH2 0x1B8B JUMP JUMPDEST PUSH1 0x40 MLOAD DUP1 SWAP2 SUB SWAP1 REVERT JUMPDEST PUSH1 0x3 PUSH0 DUP4 PUSH20 0xFFFFFFFFFFFFFFFFFFFFFFFFFFFFFFFFFFFFFFFF AND PUSH20 0xFFFFFFFFFFFFFFFFFFFFFFFFFFFFFFFFFFFFFFFF AND DUP2 MSTORE PUSH1 0x20 ADD SWAP1 DUP2 MSTORE PUSH1 0x20 ADD PUSH0 KECCAK256 SLOAD SWAP1 POP SWAP2 SWAP1 POP JUMP JUMPDEST PUSH1 0x1 DUP1 SLOAD PUSH2 0x88C SWAP1 PUSH2 0x19D9 JUMP JUMPDEST DUP1 PUSH1 0x1F ADD PUSH1 0x20 DUP1 SWAP2 DIV MUL PUSH1 0x20 ADD PUSH1 0x40 MLOAD SWAP1 DUP2 ADD PUSH1 0x40 MSTORE DUP1 SWAP3 SWAP2 SWAP1 DUP2 DUP2 MSTORE PUSH1 0x20 ADD DUP3 DUP1 SLOAD PUSH2 0x8B8 SWAP1 PUSH2 0x19D9 JUMP JUMPDEST DUP1 ISZERO PUSH2 0x903 JUMPI DUP1 PUSH1 0x1F LT PUSH2 0x8DA JUMPI PUSH2 0x100 DUP1 DUP4 SLOAD DIV MUL DUP4 MSTORE SWAP2 PUSH1 0x20 ADD SWAP2 PUSH2 0x903 JUMP JUMPDEST DUP3 ADD SWAP2 SWAP1 PUSH0 MSTORE PUSH1 0x20 PUSH0 KECCAK256 SWAP1 JUMPDEST DUP2 SLOAD DUP2 MSTORE SWAP1 PUSH1 0x1 ADD SWAP1 PUSH1 0x20 ADD DUP1 DUP4 GT PUSH2 0x8E6 JUMPI DUP3 SWAP1 SUB PUSH1 0x1F AND DUP3 ADD SWAP2 JUMPDEST POP POP POP POP POP DUP2 JUMP JUMPDEST PUSH1 0x2 PUSH1 0x20 MSTORE DUP1 PUSH0 MSTORE PUSH1 0x40 PUSH0 KECCAK256 PUSH0 SWAP2 POP SLOAD SWAP1 PUSH2 0x100 EXP SWAP1 DIV PUSH20 0xFFFFFFFFFFFFFFFFFFFFFFFFFFFFFFFFFFFFFFFF AND DUP2 JUMP JUMPDEST PUSH1 0x4 PUSH1 0x20 MSTORE DUP1 PUSH0 MSTORE PUSH1 0x40 PUSH0 KECCAK256 PUSH0 SWAP2 POP SLOAD SWAP1 PUSH2 0x100 EXP SWAP1 DIV PUSH20 0xFFFFFFFFFFFFFFFFFFFFFFFFFFFFFFFFFFFFFFFF AND DUP2 JUMP JUMPDEST PUSH0 PUSH2 0x975 DUP5 PUSH2 0x70F JUMP JUMPDEST SWAP1 POP PUSH2 0x982 DUP2 CALLER DUP7 PUSH2 0xE51 JUMP JUMPDEST PUSH2 0x9C1 JUMPI PUSH1 0x40 MLOAD PUSH32 0x8C379A000000000000000000000000000000000000000000000000000000000 DUP2 MSTORE PUSH1 0x4 ADD PUSH2 0x9B8 SWAP1 PUSH2 0x1BF3 JUMP JUMPDEST PUSH1 0x40 MLOAD DUP1 SWAP2 SUB SWAP1 REVERT JUMPDEST PUSH2 0x9CC DUP7 DUP7 DUP7 PUSH2 0xF7C JUMP JUMPDEST PUSH2 0xA1B DUP7 DUP7 DUP7 DUP7 DUP7 DUP1 DUP1 PUSH1 0x1F ADD PUSH1 0x20 DUP1 SWAP2 DIV MUL PUSH1 0x20 ADD PUSH1 0x40 MLOAD SWAP1 DUP2 ADD PUSH1 0x40 MSTORE DUP1 SWAP4 SWAP3 SWAP2 SWAP1 DUP2 DUP2 MSTORE PUSH1 0x20 ADD DUP4 DUP4 DUP1 DUP3 DUP5 CALLDATACOPY PUSH0 DUP2 DUP5 ADD MSTORE PUSH1 0x1F NOT PUSH1 0x1F DUP3 ADD AND SWAP1 POP DUP1 DUP4 ADD SWAP3 POP POP POP POP POP POP POP PUSH2 0x114C JUMP JUMPDEST POP POP POP POP POP POP JUMP JUMPDEST DUP1 PUSH1 0x5 PUSH0 CALLER PUSH20 0xFFFFFFFFFFFFFFFFFFFFFFFFFFFFFFFFFFFFFFFF AND PUSH20 0xFFFFFFFFFFFFFFFFFFFFFFFFFFFFFFFFFFFFFFFF AND DUP2 MSTORE PUSH1 0x20 ADD SWAP1 DUP2 MSTORE PUSH1 0x20 ADD PUSH0 KECCAK256 PUSH0 DUP5 PUSH20 0xFFFFFFFFFFFFFFFFFFFFFFFFFFFFFFFFFFFFFFFF AND PUSH20 0xFFFFFFFFFFFFFFFFFFFFFFFFFFFFFFFFFFFFFFFF AND DUP2 MSTORE PUSH1 0x20 ADD SWAP1 DUP2 MSTORE PUSH1 0x20 ADD PUSH0 KECCAK256 PUSH0 PUSH2 0x100 EXP DUP2 SLOAD DUP2 PUSH1 0xFF MUL NOT AND SWAP1 DUP4 ISZERO ISZERO MUL OR SWAP1 SSTORE POP DUP1 ISZERO ISZERO DUP3 PUSH20 0xFFFFFFFFFFFFFFFFFFFFFFFFFFFFFFFFFFFFFFFF AND CALLER PUSH20 0xFFFFFFFFFFFFFFFFFFFFFFFFFFFFFFFFFFFFFFFF AND PUSH32 0x17307EAB39AB6107E8899845AD3D59BD9653F200F220920489CA2B5937696C31 PUSH1 0x40 MLOAD PUSH1 0x40 MLOAD DUP1 SWAP2 SUB SWAP1 LOG4 POP POP JUMP JUMPDEST PUSH1 0x60 PUSH0 PUSH20 0xFFFFFFFFFFFFFFFFFFFFFFFFFFFFFFFFFFFFFFFF AND PUSH1 0x2 PUSH0 DUP5 DUP2 MSTORE PUSH1 0x20 ADD SWAP1 DUP2 MSTORE PUSH1 0x20 ADD PUSH0 KECCAK256 PUSH0 SWAP1 SLOAD SWAP1 PUSH2 0x100 EXP SWAP1 DIV PUSH20 0xFFFFFFFFFFFFFFFFFFFFFFFFFFFFFFFFFFFFFFFF AND PUSH20 0xFFFFFFFFFFFFFFFFFFFFFFFFFFFFFFFFFFFFFFFF AND SUB PUSH2 0xBB3 JUMPI PUSH1 0x40 MLOAD PUSH32 0x8C379A000000000000000000000000000000000000000000000000000000000 DUP2 MSTORE PUSH1 0x4 ADD PUSH2 0xBAA SWAP1 PUSH2 0x1C5B JUMP JUMPDEST PUSH1 0x40 MLOAD DUP1 SWAP2 SUB SWAP1 REVERT JUMPDEST PUSH0 PUSH2 0xBBC PUSH2 0x12F7 JUMP JUMPDEST SWAP1 POP PUSH0 DUP2 MLOAD GT PUSH2 0xBDA JUMPI PUSH1 0x40 MLOAD DUP1 PUSH1 0x20 ADD PUSH1 0x40 MSTORE DUP1 PUSH0 DUP2 MSTORE POP PUSH2 0xC05 JUMP JUMPDEST DUP1 PUSH2 0xBE4 DUP5 PUSH2 0x130D JUMP JUMPDEST PUSH1 0x40 MLOAD PUSH1 0x20 ADD PUSH2 0xBF5 SWAP3 SWAP2 SWAP1 PUSH2 0x1CB3 JUMP JUMPDEST PUSH1 0x40 MLOAD PUSH1 0x20 DUP2 DUP4 SUB SUB DUP2 MSTORE SWAP1 PUSH1 0x40 MSTORE JUMPDEST SWAP2 POP POP SWAP2 SWAP1 POP JUMP JUMPDEST PUSH1 0x5 PUSH1 0x20 MSTORE DUP2 PUSH0 MSTORE PUSH1 0x40 PUSH0 KECCAK256 PUSH1 0x20 MSTORE DUP1 PUSH0 MSTORE PUSH1 0x40 PUSH0 KECCAK256 PUSH0 SWAP2 POP SWAP2 POP SWAP1 SLOAD SWAP1 PUSH2 0x100 EXP SWAP1 DIV PUSH1 0xFF AND DUP2 JUMP JUMPDEST PUSH0 PUSH1 0x2 PUSH0 DUP5 DUP2 MSTORE PUSH1 0x20 ADD SWAP1 DUP2 MSTORE PUSH1 0x20 ADD PUSH0 KECCAK256 PUSH0 SWAP1 SLOAD SWAP1 PUSH2 0x100 EXP SWAP1 DIV PUSH20 0xFFFFFFFFFFFFFFFFFFFFFFFFFFFFFFFFFFFFFFFF AND SWAP1 POP CALLER PUSH20 0xFFFFFFFFFFFFFFFFFFFFFFFFFFFFFFFFFFFFFFFF AND DUP2 PUSH20 0xFFFFFFFFFFFFFFFFFFFFFFFFFFFFFFFFFFFFFFFF AND EQ DUP1 PUSH2 0xD26 JUMPI POP PUSH1 0x5 PUSH0 DUP3 PUSH20 0xFFFFFFFFFFFFFFFFFFFFFFFFFFFFFFFFFFFFFFFF AND PUSH20 0xFFFFFFFFFFFFFFFFFFFFFFFFFFFFFFFFFFFFFFFF AND DUP2 MSTORE PUSH1 0x20 ADD SWAP1 DUP2 MSTORE PUSH1 0x20 ADD PUSH0 KECCAK256 PUSH0 DUP4 PUSH20 0xFFFFFFFFFFFFFFFFFFFFFFFFFFFFFFFFFFFFFFFF AND PUSH20 0xFFFFFFFFFFFFFFFFFFFFFFFFFFFFFFFFFFFFFFFF AND DUP2 MSTORE PUSH1 0x20 ADD SWAP1 DUP2 MSTORE PUSH1 0x20 ADD PUSH0 KECCAK256 PUSH0 SWAP1 SLOAD SWAP1 PUSH2 0x100 EXP SWAP1 DIV PUSH1 0xFF AND JUMPDEST PUSH2 0xD65 JUMPI PUSH1 0x40 MLOAD PUSH32 0x8C379A000000000000000000000000000000000000000000000000000000000 DUP2 MSTORE PUSH1 0x4 ADD PUSH2 0xD5C SWAP1 PUSH2 0x1BF3 JUMP JUMPDEST PUSH1 0x40 MLOAD DUP1 SWAP2 SUB SWAP1 REVERT JUMPDEST DUP2 PUSH1 0x4 PUSH0 DUP6 DUP2 MSTORE PUSH1 0x20 ADD SWAP1 DUP2 MSTORE PUSH1 0x20 ADD PUSH0 KECCAK256 PUSH0 PUSH2 0x100 EXP DUP2 SLOAD DUP2 PUSH20 0xFFFFFFFFFFFFFFFFFFFFFFFFFFFFFFFFFFFFFFFF MUL NOT AND SWAP1 DUP4 PUSH20 0xFFFFFFFFFFFFFFFFFFFFFFFFFFFFFFFFFFFFFFFF AND MUL OR SWAP1 SSTORE POP PUSH2 0xDBF DUP2 DUP4 DUP6 PUSH2 0x1466 JUMP JUMPDEST POP POP POP JUMP JUMPDEST PUSH0 PUSH1 0x5 PUSH0 CALLER PUSH20 0xFFFFFFFFFFFFFFFFFFFFFFFFFFFFFFFFFFFFFFFF AND PUSH20 0xFFFFFFFFFFFFFFFFFFFFFFFFFFFFFFFFFFFFFFFF AND DUP2 MSTORE PUSH1 0x20 ADD SWAP1 DUP2 MSTORE PUSH1 0x20 ADD PUSH0 KECCAK256 PUSH0 DUP4 PUSH20 0xFFFFFFFFFFFFFFFFFFFFFFFFFFFFFFFFFFFFFFFF AND PUSH20 0xFFFFFFFFFFFFFFFFFFFFFFFFFFFFFFFFFFFFFFFF AND DUP2 MSTORE PUSH1 0x20 ADD SWAP1 DUP2 MSTORE PUSH1 0x20 ADD PUSH0 KECCAK256 PUSH0 SWAP1 SLOAD SWAP1 PUSH2 0x100 EXP SWAP1 DIV PUSH1 0xFF AND SWAP1 POP SWAP2 SWAP1 POP JUMP JUMPDEST PUSH0 DUP4 PUSH20 0xFFFFFFFFFFFFFFFFFFFFFFFFFFFFFFFFFFFFFFFF AND DUP4 PUSH20 0xFFFFFFFFFFFFFFFFFFFFFFFFFFFFFFFFFFFFFFFF AND EQ DUP1 PUSH2 0xEE7 JUMPI POP DUP3 PUSH20 0xFFFFFFFFFFFFFFFFFFFFFFFFFFFFFFFFFFFFFFFF AND PUSH1 0x4 PUSH0 DUP5 DUP2 MSTORE PUSH1 0x20 ADD SWAP1 DUP2 MSTORE PUSH1 0x20 ADD PUSH0 KECCAK256 PUSH0 SWAP1 SLOAD SWAP1 PUSH2 0x100 EXP SWAP1 DIV PUSH20 0xFFFFFFFFFFFFFFFFFFFFFFFFFFFFFFFFFFFFFFFF AND PUSH20 0xFFFFFFFFFFFFFFFFFFFFFFFFFFFFFFFFFFFFFFFF AND EQ JUMPDEST DUP1 PUSH2 0xF73 JUMPI POP PUSH1 0x5 PUSH0 DUP6 PUSH20 0xFFFFFFFFFFFFFFFFFFFFFFFFFFFFFFFFFFFFFFFF AND PUSH20 0xFFFFFFFFFFFFFFFFFFFFFFFFFFFFFFFFFFFFFFFF AND DUP2 MSTORE PUSH1 0x20 ADD SWAP1 DUP2 MSTORE PUSH1 0x20 ADD PUSH0 KECCAK256 PUSH0 DUP5 PUSH20 0xFFFFFFFFFFFFFFFFFFFFFFFFFFFFFFFFFFFFFFFF AND PUSH20 0xFFFFFFFFFFFFFFFFFFFFFFFFFFFFFFFFFFFFFFFF AND DUP2 MSTORE PUSH1 0x20 ADD SWAP1 DUP2 MSTORE PUSH1 0x20 ADD PUSH0 KECCAK256 PUSH0 SWAP1 SLOAD SWAP1 PUSH2 0x100 EXP SWAP1 DIV PUSH1 0xFF AND JUMPDEST SWAP1 POP SWAP4 SWAP3 POP POP POP JUMP JUMPDEST PUSH0 PUSH20 0xFFFFFFFFFFFFFFFFFFFFFFFFFFFFFFFFFFFFFFFF AND DUP3 PUSH20 0xFFFFFFFFFFFFFFFFFFFFFFFFFFFFFFFFFFFFFFFF AND SUB PUSH2 0xFEA JUMPI PUSH1 0x40 MLOAD PUSH32 0x8C379A000000000000000000000000000000000000000000000000000000000 DUP2 MSTORE PUSH1 0x4 ADD PUSH2 0xFE1 SWAP1 PUSH2 0x1D20 JUMP JUMPDEST PUSH1 0x40 MLOAD DUP1 SWAP2 SUB SWAP1 REVERT JUMPDEST PUSH2 0xFF5 DUP4 PUSH0 DUP4 PUSH2 0x1466 JUMP JUMPDEST DUP2 PUSH1 0x2 PUSH0 DUP4 DUP2 MSTORE PUSH1 0x20 ADD SWAP1 DUP2 MSTORE PUSH1 0x20 ADD PUSH0 KECCAK256 PUSH0 PUSH2 0x100 EXP DUP2 SLOAD DUP2 PUSH20 0xFFFFFFFFFFFFFFFFFFFFFFFFFFFFFFFFFFFFFFFF MUL NOT AND SWAP1 DUP4 PUSH20 0xFFFFFFFFFFFFFFFFFFFFFFFFFFFFFFFFFFFFFFFF AND MUL OR SWAP1 SSTORE POP PUSH1 0x1 PUSH1 0x3 PUSH0 DUP6 PUSH20 0xFFFFFFFFFFFFFFFFFFFFFFFFFFFFFFFFFFFFFFFF AND PUSH20 0xFFFFFFFFFFFFFFFFFFFFFFFFFFFFFFFFFFFFFFFF AND DUP2 MSTORE PUSH1 0x20 ADD SWAP1 DUP2 MSTORE PUSH1 0x20 ADD PUSH0 KECCAK256 PUSH0 DUP3 DUP3 SLOAD PUSH2 0x1091 SWAP2 SWAP1 PUSH2 0x1D6B JUMP JUMPDEST SWAP3 POP POP DUP2 SWAP1 SSTORE POP PUSH1 0x1 PUSH1 0x3 PUSH0 DUP5 PUSH20 0xFFFFFFFFFFFFFFFFFFFFFFFFFFFFFFFFFFFFFFFF AND PUSH20 0xFFFFFFFFFFFFFFFFFFFFFFFFFFFFFFFFFFFFFFFF AND DUP2 MSTORE PUSH1 0x20 ADD SWAP1 DUP2 MSTORE PUSH1 0x20 ADD PUSH0 KECCAK256 PUSH0 DUP3 DUP3 SLOAD PUSH2 0x10E5 SWAP2 SWAP1 PUSH2 0x1D9E JUMP JUMPDEST SWAP3 POP POP DUP2 SWAP1 SSTORE POP DUP1 DUP3 PUSH20 0xFFFFFFFFFFFFFFFFFFFFFFFFFFFFFFFFFFFFFFFF AND DUP5 PUSH20 0xFFFFFFFFFFFFFFFFFFFFFFFFFFFFFFFFFFFFFFFF AND PUSH32 0xDDF252AD1BE2C89B69C2B068FC378DAA952BA7F163C4A11628F55A4DF523B3EF PUSH1 0x40 MLOAD PUSH1 0x40 MLOAD DUP1 SWAP2 SUB SWAP1 LOG4 POP POP POP JUMP JUMPDEST PUSH0 DUP4 PUSH20 0xFFFFFFFFFFFFFFFFFFFFFFFFFFFFFFFFFFFFFFFF AND EXTCODESIZE GT ISZERO PUSH2 0x12F1 JUMPI DUP3 PUSH20 0xFFFFFFFFFFFFFFFFFFFFFFFFFFFFFFFFFFFFFFFF AND PUSH4 0x150B7A02 CALLER DUP7 DUP6 DUP6 PUSH1 0x40 MLOAD DUP6 PUSH4 0xFFFFFFFF AND PUSH1 0xE0 SHL DUP2 MSTORE PUSH1 0x4 ADD PUSH2 0x11AA SWAP5 SWAP4 SWAP3 SWAP2 SWAP1 PUSH2 0x1E23 JUMP JUMPDEST PUSH1 0x20 PUSH1 0x40 MLOAD DUP1 DUP4 SUB DUP2 PUSH0 DUP8 GAS CALL SWAP3 POP POP POP DUP1 ISZERO PUSH2 0x11E5 JUMPI POP PUSH1 0x40 MLOAD RETURNDATASIZE PUSH1 0x1F NOT PUSH1 0x1F DUP3 ADD AND DUP3 ADD DUP1 PUSH1 0x40 MSTORE POP DUP2 ADD SWAP1 PUSH2 0x11E2 SWAP2 SWAP1 PUSH2 0x1E81 JUMP JUMPDEST PUSH1 0x1 JUMPDEST PUSH2 0x1266 JUMPI RETURNDATASIZE DUP1 PUSH0 DUP2 EQ PUSH2 0x1213 JUMPI PUSH1 0x40 MLOAD SWAP2 POP PUSH1 0x1F NOT PUSH1 0x3F RETURNDATASIZE ADD AND DUP3 ADD PUSH1 0x40 MSTORE RETURNDATASIZE DUP3 MSTORE RETURNDATASIZE PUSH0 PUSH1 0x20 DUP5 ADD RETURNDATACOPY PUSH2 0x1218 JUMP JUMPDEST PUSH1 0x60 SWAP2 POP JUMPDEST POP PUSH0 DUP2 MLOAD SUB PUSH2 0x125E JUMPI DUP4 PUSH1 0x40 MLOAD PUSH32 0xF9ECAB6200000000000000000000000000000000000000000000000000000000 DUP2 MSTORE PUSH1 0x4 ADD PUSH2 0x1255 SWAP2 SWAP1 PUSH2 0x16FD JUMP JUMPDEST PUSH1 0x40 MLOAD DUP1 SWAP2 SUB SWAP1 REVERT JUMPDEST DUP1 MLOAD DUP2 PUSH1 0x20 ADD REVERT JUMPDEST PUSH4 0x150B7A02 PUSH1 0xE0 SHL PUSH28 0xFFFFFFFFFFFFFFFFFFFFFFFFFFFFFFFFFFFFFFFFFFFFFFFFFFFFFFFF NOT AND DUP2 PUSH28 0xFFFFFFFFFFFFFFFFFFFFFFFFFFFFFFFFFFFFFFFFFFFFFFFFFFFFFFFF NOT AND EQ PUSH2 0x12EF JUMPI DUP4 PUSH1 0x40 MLOAD PUSH32 0xF9ECAB6200000000000000000000000000000000000000000000000000000000 DUP2 MSTORE PUSH1 0x4 ADD PUSH2 0x12E6 SWAP2 SWAP1 PUSH2 0x16FD JUMP JUMPDEST PUSH1 0x40 MLOAD DUP1 SWAP2 SUB SWAP1 REVERT JUMPDEST POP JUMPDEST POP POP POP POP JUMP JUMPDEST PUSH1 0x60 PUSH1 0x40 MLOAD DUP1 PUSH1 0x20 ADD PUSH1 0x40 MSTORE DUP1 PUSH0 DUP2 MSTORE POP SWAP1 POP SWAP1 JUMP JUMPDEST PUSH1 0x60 PUSH0 DUP3 SUB PUSH2 0x1353 JUMPI PUSH1 0x40 MLOAD DUP1 PUSH1 0x40 ADD PUSH1 0x40 MSTORE DUP1 PUSH1 0x1 DUP2 MSTORE PUSH1 0x20 ADD PUSH32 0x3000000000000000000000000000000000000000000000000000000000000000 DUP2 MSTORE POP SWAP1 POP PUSH2 0x1461 JUMP JUMPDEST PUSH0 DUP3 SWAP1 POP PUSH0 JUMPDEST PUSH0 DUP3 EQ PUSH2 0x1382 JUMPI DUP1 DUP1 PUSH2 0x136B SWAP1 PUSH2 0x1EAC JUMP JUMPDEST SWAP2 POP POP PUSH1 0xA DUP3 PUSH2 0x137B SWAP2 SWAP1 PUSH2 0x1F20 JUMP JUMPDEST SWAP2 POP PUSH2 0x1359 JUMP JUMPDEST PUSH0 DUP2 PUSH8 0xFFFFFFFFFFFFFFFF DUP2 GT ISZERO PUSH2 0x139D JUMPI PUSH2 0x139C PUSH2 0x1F50 JUMP JUMPDEST JUMPDEST PUSH1 0x40 MLOAD SWAP1 DUP1 DUP3 MSTORE DUP1 PUSH1 0x1F ADD PUSH1 0x1F NOT AND PUSH1 0x20 ADD DUP3 ADD PUSH1 0x40 MSTORE DUP1 ISZERO PUSH2 0x13CF JUMPI DUP2 PUSH1 0x20 ADD PUSH1 0x1 DUP3 MUL DUP1 CALLDATASIZE DUP4 CALLDATACOPY DUP1 DUP3 ADD SWAP2 POP POP SWAP1 POP JUMPDEST POP SWAP1 POP JUMPDEST PUSH0 DUP6 EQ PUSH2 0x145A JUMPI PUSH1 0x1 DUP3 PUSH2 0x13E7 SWAP2 SWAP1 PUSH2 0x1D6B JUMP JUMPDEST SWAP2 POP PUSH1 0xA DUP6 PUSH2 0x13F6 SWAP2 SWAP1 PUSH2 0x1F7D JUMP JUMPDEST PUSH1 0x30 PUSH2 0x1402 SWAP2 SWAP1 PUSH2 0x1D9E JUMP JUMPDEST PUSH1 0xF8 SHL DUP2 DUP4 DUP2 MLOAD DUP2 LT PUSH2 0x1418 JUMPI PUSH2 0x1417 PUSH2 0x1FAD JUMP JUMPDEST JUMPDEST PUSH1 0x20 ADD ADD SWAP1 PUSH31 0xFFFFFFFFFFFFFFFFFFFFFFFFFFFFFFFFFFFFFFFFFFFFFFFFFFFFFFFFFFFFFF NOT AND SWAP1 DUP2 PUSH0 BYTE SWAP1 MSTORE8 POP PUSH1 0xA DUP6 PUSH2 0x1453 SWAP2 SWAP1 PUSH2 0x1F20 JUMP JUMPDEST SWAP5 POP PUSH2 0x13D3 JUMP JUMPDEST DUP1 SWAP4 POP POP POP POP JUMPDEST SWAP2 SWAP1 POP JUMP JUMPDEST DUP2 PUSH1 0x4 PUSH0 DUP4 DUP2 MSTORE PUSH1 0x20 ADD SWAP1 DUP2 MSTORE PUSH1 0x20 ADD PUSH0 KECCAK256 PUSH0 PUSH2 0x100 EXP DUP2 SLOAD DUP2 PUSH20 0xFFFFFFFFFFFFFFFFFFFFFFFFFFFFFFFFFFFFFFFF MUL NOT AND SWAP1 DUP4 PUSH20 0xFFFFFFFFFFFFFFFFFFFFFFFFFFFFFFFFFFFFFFFF AND MUL OR SWAP1 SSTORE POP DUP1 DUP3 PUSH20 0xFFFFFFFFFFFFFFFFFFFFFFFFFFFFFFFFFFFFFFFF AND DUP5 PUSH20 0xFFFFFFFFFFFFFFFFFFFFFFFFFFFFFFFFFFFFFFFF AND PUSH32 0x8C5BE1E5EBEC7D5BD14F71427D1E84F3DD0314C0F7B2291E5B200AC8C7C3B925 PUSH1 0x40 MLOAD PUSH1 0x40 MLOAD DUP1 SWAP2 SUB SWAP1 LOG4 POP POP POP JUMP JUMPDEST PUSH0 PUSH0 REVERT JUMPDEST PUSH0 PUSH0 REVERT JUMPDEST PUSH0 PUSH32 0xFFFFFFFF00000000000000000000000000000000000000000000000000000000 DUP3 AND SWAP1 POP SWAP2 SWAP1 POP JUMP JUMPDEST PUSH2 0x1551 DUP2 PUSH2 0x151D JUMP JUMPDEST DUP2 EQ PUSH2 0x155B JUMPI PUSH0 PUSH0 REVERT JUMPDEST POP JUMP JUMPDEST PUSH0 DUP2 CALLDATALOAD SWAP1 POP PUSH2 0x156C DUP2 PUSH2 0x1548 JUMP JUMPDEST SWAP3 SWAP2 POP POP JUMP JUMPDEST PUSH0 PUSH1 0x20 DUP3 DUP5 SUB SLT ISZERO PUSH2 0x1587 JUMPI PUSH2 0x1586 PUSH2 0x1515 JUMP JUMPDEST JUMPDEST PUSH0 PUSH2 0x1594 DUP5 DUP3 DUP6 ADD PUSH2 0x155E JUMP JUMPDEST SWAP2 POP POP SWAP3 SWAP2 POP POP JUMP JUMPDEST PUSH0 DUP2 ISZERO ISZERO SWAP1 POP SWAP2 SWAP1 POP JUMP JUMPDEST PUSH2 0x15B1 DUP2 PUSH2 0x159D JUMP JUMPDEST DUP3 MSTORE POP POP JUMP JUMPDEST PUSH0 PUSH1 0x20 DUP3 ADD SWAP1 POP PUSH2 0x15CA PUSH0 DUP4 ADD DUP5 PUSH2 0x15A8 JUMP JUMPDEST SWAP3 SWAP2 POP POP JUMP JUMPDEST PUSH0 DUP2 MLOAD SWAP1 POP SWAP2 SWAP1 POP JUMP JUMPDEST PUSH0 DUP3 DUP3 MSTORE PUSH1 0x20 DUP3 ADD SWAP1 POP SWAP3 SWAP2 POP POP JUMP JUMPDEST DUP3 DUP2 DUP4 MCOPY PUSH0 DUP4 DUP4 ADD MSTORE POP POP POP JUMP JUMPDEST PUSH0 PUSH1 0x1F NOT PUSH1 0x1F DUP4 ADD AND SWAP1 POP SWAP2 SWAP1 POP JUMP JUMPDEST PUSH0 PUSH2 0x1612 DUP3 PUSH2 0x15D0 JUMP JUMPDEST PUSH2 0x161C DUP2 DUP6 PUSH2 0x15DA JUMP JUMPDEST SWAP4 POP PUSH2 0x162C DUP2 DUP6 PUSH1 0x20 DUP7 ADD PUSH2 0x15EA JUMP JUMPDEST PUSH2 0x1635 DUP2 PUSH2 0x15F8 JUMP JUMPDEST DUP5 ADD SWAP2 POP POP SWAP3 SWAP2 POP POP JUMP JUMPDEST PUSH0 PUSH1 0x20 DUP3 ADD SWAP1 POP DUP2 DUP2 SUB PUSH0 DUP4 ADD MSTORE PUSH2 0x1658 DUP2 DUP5 PUSH2 0x1608 JUMP JUMPDEST SWAP1 POP SWAP3 SWAP2 POP POP JUMP JUMPDEST PUSH0 DUP2 SWAP1 POP SWAP2 SWAP1 POP JUMP JUMPDEST PUSH2 0x1672 DUP2 PUSH2 0x1660 JUMP JUMPDEST DUP2 EQ PUSH2 0x167C JUMPI PUSH0 PUSH0 REVERT JUMPDEST POP JUMP JUMPDEST PUSH0 DUP2 CALLDATALOAD SWAP1 POP PUSH2 0x168D DUP2 PUSH2 0x1669 JUMP JUMPDEST SWAP3 SWAP2 POP POP JUMP JUMPDEST PUSH0 PUSH1 0x20 DUP3 DUP5 SUB SLT ISZERO PUSH2 0x16A8 JUMPI PUSH2 0x16A7 PUSH2 0x1515 JUMP JUMPDEST JUMPDEST PUSH0 PUSH2 0x16B5 DUP5 DUP3 DUP6 ADD PUSH2 0x167F JUMP JUMPDEST SWAP2 POP POP SWAP3 SWAP2 POP POP JUMP JUMPDEST PUSH0 PUSH20 0xFFFFFFFFFFFFFFFFFFFFFFFFFFFFFFFFFFFFFFFF DUP3 AND SWAP1 POP SWAP2 SWAP1 POP JUMP JUMPDEST PUSH0 PUSH2 0x16E7 DUP3 PUSH2 0x16BE JUMP JUMPDEST SWAP1 POP SWAP2 SWAP1 POP JUMP JUMPDEST PUSH2 0x16F7 DUP2 PUSH2 0x16DD JUMP JUMPDEST DUP3 MSTORE POP POP JUMP JUMPDEST PUSH0 PUSH1 0x20 DUP3 ADD SWAP1 POP PUSH2 0x1710 PUSH0 DUP4 ADD DUP5 PUSH2 0x16EE JUMP JUMPDEST SWAP3 SWAP2 POP POP JUMP JUMPDEST PUSH2 0x171F DUP2 PUSH2 0x16DD JUMP JUMPDEST DUP2 EQ PUSH2 0x1729 JUMPI PUSH0 PUSH0 REVERT JUMPDEST POP JUMP JUMPDEST PUSH0 DUP2 CALLDATALOAD SWAP1 POP PUSH2 0x173A DUP2 PUSH2 0x1716 JUMP JUMPDEST SWAP3 SWAP2 POP POP JUMP JUMPDEST PUSH0 PUSH0 PUSH0 PUSH1 0x60 DUP5 DUP7 SUB SLT ISZERO PUSH2 0x1757 JUMPI PUSH2 0x1756 PUSH2 0x1515 JUMP JUMPDEST JUMPDEST PUSH0 PUSH2 0x1764 DUP7 DUP3 DUP8 ADD PUSH2 0x172C JUMP JUMPDEST SWAP4 POP POP PUSH1 0x20 PUSH2 0x1775 DUP7 DUP3 DUP8 ADD PUSH2 0x172C JUMP JUMPDEST SWAP3 POP POP PUSH1 0x40 PUSH2 0x1786 DUP7 DUP3 DUP8 ADD PUSH2 0x167F JUMP JUMPDEST SWAP2 POP POP SWAP3 POP SWAP3 POP SWAP3 JUMP JUMPDEST PUSH0 PUSH1 0x20 DUP3 DUP5 SUB SLT ISZERO PUSH2 0x17A5 JUMPI PUSH2 0x17A4 PUSH2 0x1515 JUMP JUMPDEST JUMPDEST PUSH0 PUSH2 0x17B2 DUP5 DUP3 DUP6 ADD PUSH2 0x172C JUMP JUMPDEST SWAP2 POP POP SWAP3 SWAP2 POP POP JUMP JUMPDEST PUSH2 0x17C4 DUP2 PUSH2 0x1660 JUMP JUMPDEST DUP3 MSTORE POP POP JUMP JUMPDEST PUSH0 PUSH1 0x20 DUP3 ADD SWAP1 POP PUSH2 0x17DD PUSH0 DUP4 ADD DUP5 PUSH2 0x17BB JUMP JUMPDEST SWAP3 SWAP2 POP POP JUMP JUMPDEST PUSH0 PUSH0 REVERT JUMPDEST PUSH0 PUSH0 REVERT JUMPDEST PUSH0 PUSH0 REVERT JUMPDEST PUSH0 PUSH0 DUP4 PUSH1 0x1F DUP5 ADD SLT PUSH2 0x1804 JUMPI PUSH2 0x1803 PUSH2 0x17E3 JUMP JUMPDEST JUMPDEST DUP3 CALLDATALOAD SWAP1 POP PUSH8 0xFFFFFFFFFFFFFFFF DUP2 GT ISZERO PUSH2 0x1821 JUMPI PUSH2 0x1820 PUSH2 0x17E7 JUMP JUMPDEST JUMPDEST PUSH1 0x20 DUP4 ADD SWAP2 POP DUP4 PUSH1 0x1 DUP3 MUL DUP4 ADD GT ISZERO PUSH2 0x183D JUMPI PUSH2 0x183C PUSH2 0x17EB JUMP JUMPDEST JUMPDEST SWAP3 POP SWAP3 SWAP1 POP JUMP JUMPDEST PUSH0 PUSH0 PUSH0 PUSH0 PUSH0 PUSH1 0x80 DUP7 DUP9 SUB SLT ISZERO PUSH2 0x185D JUMPI PUSH2 0x185C PUSH2 0x1515 JUMP JUMPDEST JUMPDEST PUSH0 PUSH2 0x186A DUP9 DUP3 DUP10 ADD PUSH2 0x172C JUMP JUMPDEST SWAP6 POP POP PUSH1 0x20 PUSH2 0x187B DUP9 DUP3 DUP10 ADD PUSH2 0x172C JUMP JUMPDEST SWAP5 POP POP PUSH1 0x40 PUSH2 0x188C DUP9 DUP3 DUP10 ADD PUSH2 0x167F JUMP JUMPDEST SWAP4 POP POP PUSH1 0x60 DUP7 ADD CALLDATALOAD PUSH8 0xFFFFFFFFFFFFFFFF DUP2 GT ISZERO PUSH2 0x18AD JUMPI PUSH2 0x18AC PUSH2 0x1519 JUMP JUMPDEST JUMPDEST PUSH2 0x18B9 DUP9 DUP3 DUP10 ADD PUSH2 0x17EF JUMP JUMPDEST SWAP3 POP SWAP3 POP POP SWAP3 SWAP6 POP SWAP3 SWAP6 SWAP1 SWAP4 POP JUMP JUMPDEST PUSH2 0x18D1 DUP2 PUSH2 0x159D JUMP JUMPDEST DUP2 EQ PUSH2 0x18DB JUMPI PUSH0 PUSH0 REVERT JUMPDEST POP JUMP JUMPDEST PUSH0 DUP2 CALLDATALOAD SWAP1 POP PUSH2 0x18EC DUP2 PUSH2 0x18C8 JUMP JUMPDEST SWAP3 SWAP2 POP POP JUMP JUMPDEST PUSH0 PUSH0 PUSH1 0x40 DUP4 DUP6 SUB SLT ISZERO PUSH2 0x1908 JUMPI PUSH2 0x1907 PUSH2 0x1515 JUMP JUMPDEST JUMPDEST PUSH0 PUSH2 0x1915 DUP6 DUP3 DUP7 ADD PUSH2 0x172C JUMP JUMPDEST SWAP3 POP POP PUSH1 0x20 PUSH2 0x1926 DUP6 DUP3 DUP7 ADD PUSH2 0x18DE JUMP JUMPDEST SWAP2 POP POP SWAP3 POP SWAP3 SWAP1 POP JUMP JUMPDEST PUSH0 PUSH0 PUSH1 0x40 DUP4 DUP6 SUB SLT ISZERO PUSH2 0x1946 JUMPI PUSH2 0x1945 PUSH2 0x1515 JUMP JUMPDEST JUMPDEST PUSH0 PUSH2 0x1953 DUP6 DUP3 DUP7 ADD PUSH2 0x172C JUMP JUMPDEST SWAP3 POP POP PUSH1 0x20 PUSH2 0x1964 DUP6 DUP3 DUP7 ADD PUSH2 0x172C JUMP JUMPDEST SWAP2 POP POP SWAP3 POP SWAP3 SWAP1 POP JUMP JUMPDEST PUSH0 PUSH0 PUSH1 0x40 DUP4 DUP6 SUB SLT ISZERO PUSH2 0x1984 JUMPI PUSH2 0x1983 PUSH2 0x1515 JUMP JUMPDEST JUMPDEST PUSH0 PUSH2 0x1991 DUP6 DUP3 DUP7 ADD PUSH2 0x167F JUMP JUMPDEST SWAP3 POP POP PUSH1 0x20 PUSH2 0x19A2 DUP6 DUP3 DUP7 ADD PUSH2 0x172C JUMP JUMPDEST SWAP2 POP POP SWAP3 POP SWAP3 SWAP1 POP JUMP JUMPDEST PUSH32 0x4E487B7100000000000000000000000000000000000000000000000000000000 PUSH0 MSTORE PUSH1 0x22 PUSH1 0x4 MSTORE PUSH1 0x24 PUSH0 REVERT JUMPDEST PUSH0 PUSH1 0x2 DUP3 DIV SWAP1 POP PUSH1 0x1 DUP3 AND DUP1 PUSH2 0x19F0 JUMPI PUSH1 0x7F DUP3 AND SWAP2 POP JUMPDEST PUSH1 0x20 DUP3 LT DUP2 SUB PUSH2 0x1A03 JUMPI PUSH2 0x1A02 PUSH2 0x19AC JUMP JUMPDEST JUMPDEST POP SWAP2 SWAP1 POP JUMP JUMPDEST PUSH32 0x746F6B656E20646F65736E277420657869737400000000000000000000000000 PUSH0 DUP3 ADD MSTORE POP JUMP JUMPDEST PUSH0 PUSH2 0x1A3D PUSH1 0x13 DUP4 PUSH2 0x15DA JUMP JUMPDEST SWAP2 POP PUSH2 0x1A48 DUP3 PUSH2 0x1A09 JUMP JUMPDEST PUSH1 0x20 DUP3 ADD SWAP1 POP SWAP2 SWAP1 POP JUMP JUMPDEST PUSH0 PUSH1 0x20 DUP3 ADD SWAP1 POP DUP2 DUP2 SUB PUSH0 DUP4 ADD MSTORE PUSH2 0x1A6A DUP2 PUSH2 0x1A31 JUMP JUMPDEST SWAP1 POP SWAP2 SWAP1 POP JUMP JUMPDEST PUSH32 0x6E6F74206F776E6572206E6F7220617070726F76656400000000000000000000 PUSH0 DUP3 ADD MSTORE POP JUMP JUMPDEST PUSH0 PUSH2 0x1AA5 PUSH1 0x16 DUP4 PUSH2 0x15DA JUMP JUMPDEST SWAP2 POP PUSH2 0x1AB0 DUP3 PUSH2 0x1A71 JUMP JUMPDEST PUSH1 0x20 DUP3 ADD SWAP1 POP SWAP2 SWAP1 POP JUMP JUMPDEST PUSH0 PUSH1 0x20 DUP3 ADD SWAP1 POP DUP2 DUP2 SUB PUSH0 DUP4 ADD MSTORE PUSH2 0x1AD2 DUP2 PUSH2 0x1A99 JUMP JUMPDEST SWAP1 POP SWAP2 SWAP1 POP JUMP JUMPDEST PUSH32 0x746F6B656E20646F657327742065786973740000000000000000000000000000 PUSH0 DUP3 ADD MSTORE POP JUMP JUMPDEST PUSH0 PUSH2 0x1B0D PUSH1 0x12 DUP4 PUSH2 0x15DA JUMP JUMPDEST SWAP2 POP PUSH2 0x1B18 DUP3 PUSH2 0x1AD9 JUMP JUMPDEST PUSH1 0x20 DUP3 ADD SWAP1 POP SWAP2 SWAP1 POP JUMP JUMPDEST PUSH0 PUSH1 0x20 DUP3 ADD SWAP1 POP DUP2 DUP2 SUB PUSH0 DUP4 ADD MSTORE PUSH2 0x1B3A DUP2 PUSH2 0x1B01 JUMP JUMPDEST SWAP1 POP SWAP2 SWAP1 POP JUMP JUMPDEST PUSH32 0x6F776E6572206973207A65726F20616464726573730000000000000000000000 PUSH0 DUP3 ADD MSTORE POP JUMP JUMPDEST PUSH0 PUSH2 0x1B75 PUSH1 0x15 DUP4 PUSH2 0x15DA JUMP JUMPDEST SWAP2 POP PUSH2 0x1B80 DUP3 PUSH2 0x1B41 JUMP JUMPDEST PUSH1 0x20 DUP3 ADD SWAP1 POP SWAP2 SWAP1 POP JUMP JUMPDEST PUSH0 PUSH1 0x20 DUP3 ADD SWAP1 POP DUP2 DUP2 SUB PUSH0 DUP4 ADD MSTORE PUSH2 0x1BA2 DUP2 PUSH2 0x1B69 JUMP JUMPDEST SWAP1 POP SWAP2 SWAP1 POP JUMP JUMPDEST PUSH32 0x6E6F74206F776E6572206E6F7220617070726F76656420666F7220616C6C0000 PUSH0 DUP3 ADD MSTORE POP JUMP JUMPDEST PUSH0 PUSH2 0x1BDD PUSH1 0x1E DUP4 PUSH2 0x15DA JUMP JUMPDEST SWAP2 POP PUSH2 0x1BE8 DUP3 PUSH2 0x1BA9 JUMP JUMPDEST PUSH1 0x20 DUP3 ADD SWAP1 POP SWAP2 SWAP1 POP JUMP JUMPDEST PUSH0 PUSH1 0x20 DUP3 ADD SWAP1 POP DUP2 DUP2 SUB PUSH0 DUP4 ADD MSTORE PUSH2 0x1C0A DUP2 PUSH2 0x1BD1 JUMP JUMPDEST SWAP1 POP SWAP2 SWAP1 POP JUMP JUMPDEST PUSH32 0x546F6B656E204E6F742045786973740000000000000000000000000000000000 PUSH0 DUP3 ADD MSTORE POP JUMP JUMPDEST PUSH0 PUSH2 0x1C45 PUSH1 0xF DUP4 PUSH2 0x15DA JUMP JUMPDEST SWAP2 POP PUSH2 0x1C50 DUP3 PUSH2 0x1C11 JUMP JUMPDEST PUSH1 0x20 DUP3 ADD SWAP1 POP SWAP2 SWAP1 POP JUMP JUMPDEST PUSH0 PUSH1 0x20 DUP3 ADD SWAP1 POP DUP2 DUP2 SUB PUSH0 DUP4 ADD MSTORE PUSH2 0x1C72 DUP2 PUSH2 0x1C39 JUMP JUMPDEST SWAP1 POP SWAP2 SWAP1 POP JUMP JUMPDEST PUSH0 DUP2 SWAP1 POP SWAP3 SWAP2 POP POP JUMP JUMPDEST PUSH0 PUSH2 0x1C8D DUP3 PUSH2 0x15D0 JUMP JUMPDEST PUSH2 0x1C97 DUP2 DUP6 PUSH2 0x1C79 JUMP JUMPDEST SWAP4 POP PUSH2 0x1CA7 DUP2 DUP6 PUSH1 0x20 DUP7 ADD PUSH2 0x15EA JUMP JUMPDEST DUP1 DUP5 ADD SWAP2 POP POP SWAP3 SWAP2 POP POP JUMP JUMPDEST PUSH0 PUSH2 0x1CBE DUP3 DUP6 PUSH2 0x1C83 JUMP JUMPDEST SWAP2 POP PUSH2 0x1CCA DUP3 DUP5 PUSH2 0x1C83 JUMP JUMPDEST SWAP2 POP DUP2 SWAP1 POP SWAP4 SWAP3 POP POP POP JUMP JUMPDEST PUSH32 0x7472616E7366657220746F20746865207A65726F206164647265737300000000 PUSH0 DUP3 ADD MSTORE POP JUMP JUMPDEST PUSH0 PUSH2 0x1D0A PUSH1 0x1C DUP4 PUSH2 0x15DA JUMP JUMPDEST SWAP2 POP PUSH2 0x1D15 DUP3 PUSH2 0x1CD6 JUMP JUMPDEST PUSH1 0x20 DUP3 ADD SWAP1 POP SWAP2 SWAP1 POP JUMP JUMPDEST PUSH0 PUSH1 0x20 DUP3 ADD SWAP1 POP DUP2 DUP2 SUB PUSH0 DUP4 ADD MSTORE PUSH2 0x1D37 DUP2 PUSH2 0x1CFE JUMP JUMPDEST SWAP1 POP SWAP2 SWAP1 POP JUMP JUMPDEST PUSH32 0x4E487B7100000000000000000000000000000000000000000000000000000000 PUSH0 MSTORE PUSH1 0x11 PUSH1 0x4 MSTORE PUSH1 0x24 PUSH0 REVERT JUMPDEST PUSH0 PUSH2 0x1D75 DUP3 PUSH2 0x1660 JUMP JUMPDEST SWAP2 POP PUSH2 0x1D80 DUP4 PUSH2 0x1660 JUMP JUMPDEST SWAP3 POP DUP3 DUP3 SUB SWAP1 POP DUP2 DUP2 GT ISZERO PUSH2 0x1D98 JUMPI PUSH2 0x1D97 PUSH2 0x1D3E JUMP JUMPDEST JUMPDEST SWAP3 SWAP2 POP POP JUMP JUMPDEST PUSH0 PUSH2 0x1DA8 DUP3 PUSH2 0x1660 JUMP JUMPDEST SWAP2 POP PUSH2 0x1DB3 DUP4 PUSH2 0x1660 JUMP JUMPDEST SWAP3 POP DUP3 DUP3 ADD SWAP1 POP DUP1 DUP3 GT ISZERO PUSH2 0x1DCB JUMPI PUSH2 0x1DCA PUSH2 0x1D3E JUMP JUMPDEST JUMPDEST SWAP3 SWAP2 POP POP JUMP JUMPDEST PUSH0 DUP2 MLOAD SWAP1 POP SWAP2 SWAP1 POP JUMP JUMPDEST PUSH0 DUP3 DUP3 MSTORE PUSH1 0x20 DUP3 ADD SWAP1 POP SWAP3 SWAP2 POP POP JUMP JUMPDEST PUSH0 PUSH2 0x1DF5 DUP3 PUSH2 0x1DD1 JUMP JUMPDEST PUSH2 0x1DFF DUP2 DUP6 PUSH2 0x1DDB JUMP JUMPDEST SWAP4 POP PUSH2 0x1E0F DUP2 DUP6 PUSH1 0x20 DUP7 ADD PUSH2 0x15EA JUMP JUMPDEST PUSH2 0x1E18 DUP2 PUSH2 0x15F8 JUMP JUMPDEST DUP5 ADD SWAP2 POP POP SWAP3 SWAP2 POP POP JUMP JUMPDEST PUSH0 PUSH1 0x80 DUP3 ADD SWAP1 POP PUSH2 0x1E36 PUSH0 DUP4 ADD DUP8 PUSH2 0x16EE JUMP JUMPDEST PUSH2 0x1E43 PUSH1 0x20 DUP4 ADD DUP7 PUSH2 0x16EE JUMP JUMPDEST PUSH2 0x1E50 PUSH1 0x40 DUP4 ADD DUP6 PUSH2 0x17BB JUMP JUMPDEST DUP2 DUP2 SUB PUSH1 0x60 DUP4 ADD MSTORE PUSH2 0x1E62 DUP2 DUP5 PUSH2 0x1DEB JUMP JUMPDEST SWAP1 POP SWAP6 SWAP5 POP POP POP POP POP JUMP JUMPDEST PUSH0 DUP2 MLOAD SWAP1 POP PUSH2 0x1E7B DUP2 PUSH2 0x1548 JUMP JUMPDEST SWAP3 SWAP2 POP POP JUMP JUMPDEST PUSH0 PUSH1 0x20 DUP3 DUP5 SUB SLT ISZERO PUSH2 0x1E96 JUMPI PUSH2 0x1E95 PUSH2 0x1515 JUMP JUMPDEST JUMPDEST PUSH0 PUSH2 0x1EA3 DUP5 DUP3 DUP6 ADD PUSH2 0x1E6D JUMP JUMPDEST SWAP2 POP POP SWAP3 SWAP2 POP POP JUMP JUMPDEST PUSH0 PUSH2 0x1EB6 DUP3 PUSH2 0x1660 JUMP JUMPDEST SWAP2 POP PUSH32 0xFFFFFFFFFFFFFFFFFFFFFFFFFFFFFFFFFFFFFFFFFFFFFFFFFFFFFFFFFFFFFFFF DUP3 SUB PUSH2 0x1EE8 JUMPI PUSH2 0x1EE7 PUSH2 0x1D3E JUMP JUMPDEST JUMPDEST PUSH1 0x1 DUP3 ADD SWAP1 POP SWAP2 SWAP1 POP JUMP JUMPDEST PUSH32 0x4E487B7100000000000000000000000000000000000000000000000000000000 PUSH0 MSTORE PUSH1 0x12 PUSH1 0x4 MSTORE PUSH1 0x24 PUSH0 REVERT JUMPDEST PUSH0 PUSH2 0x1F2A DUP3 PUSH2 0x1660 JUMP JUMPDEST SWAP2 POP PUSH2 0x1F35 DUP4 PUSH2 0x1660 JUMP JUMPDEST SWAP3 POP DUP3 PUSH2 0x1F45 JUMPI PUSH2 0x1F44 PUSH2 0x1EF3 JUMP JUMPDEST JUMPDEST DUP3 DUP3 DIV SWAP1 POP SWAP3 SWAP2 POP POP JUMP JUMPDEST PUSH32 0x4E487B7100000000000000000000000000000000000000000000000000000000 PUSH0 MSTORE PUSH1 0x41 PUSH1 0x4 MSTORE PUSH1 0x24 PUSH0 REVERT JUMPDEST PUSH0 PUSH2 0x1F87 DUP3 PUSH2 0x1660 JUMP JUMPDEST SWAP2 POP PUSH2 0x1F92 DUP4 PUSH2 0x1660 JUMP JUMPDEST SWAP3 POP DUP3 PUSH2 0x1FA2 JUMPI PUSH2 0x1FA1 PUSH2 0x1EF3 JUMP JUMPDEST JUMPDEST DUP3 DUP3 MOD SWAP1 POP SWAP3 SWAP2 POP POP JUMP JUMPDEST PUSH32 0x4E487B7100000000000000000000000000000000000000000000000000000000 PUSH0 MSTORE PUSH1 0x32 PUSH1 0x4 MSTORE PUSH1 0x24 PUSH0 REVERT INVALID LOG2 PUSH5 0x6970667358 0x22 SLT KECCAK256 0xAB NOT INVALID SSTORE DUP2 TLOAD BLOBHASH STOP SGT 0xC7 JUMPDEST 0x2C CALLVALUE 0xCD SHL DUP11 0xC7 DATALOADN 0xB270 0xCA 0xD5 SWAPN 0xD2 MCOPY 0xC JUMPI SGT PUSH22 0x51DA7964736F6C634300081E00330000000000000000 "
				},
				"gasEstimates": {
					"creation": {
						"codeDepositCost": "1641600",
						"executionCost": "infinite",
						"totalCost": "infinite"
					},
					"external": {
						"_balances(address)": "2869",
						"_operatorApprovals(address,address)": "infinite",
						"_owners(uint256)": "2872",
						"_tokenApprovals(uint256)": "2894",
						"approve(uint256,address)": "55943",
						"balanceOf(address)": "2952",
						"getApproved(uint256)": "5241",
						"isApprovedAll(address)": "3067",
						"name()": "infinite",
						"ownerOf(uint256)": "2983",
						"safeTransferFrom(address,address,uint256)": "infinite",
						"safeTransferFrom(address,address,uint256,bytes)": "infinite",
						"setApproveAll(address,bool)": "27016",
						"supportsInterface(bytes4)": "745",
						"symbol()": "infinite",
						"tokenURI(uint256)": "infinite",
						"transferFrom(address,address,uint256)": "infinite"
					},
					"internal": {
						"_approve(address,address,uint256)": "26289",
						"_baseURI()": "infinite",
						"_burn(uint256)": "infinite",
						"_checkERC721Received(address,address,uint256,bytes memory)": "infinite",
						"_isApprovedOrOwner(address,address,uint256)": "4639",
						"_mint(address,uint256)": "infinite",
						"_safeTransfer(address,address,uint256,bytes memory)": "infinite",
						"_transfer(address,address,uint256)": "infinite"
					}
				},
				"methodIdentifiers": {
					"_balances(address)": "6ebcf607",
					"_operatorApprovals(address,address)": "edc3bc3f",
					"_owners(uint256)": "992924a6",
					"_tokenApprovals(uint256)": "a7cc0136",
					"approve(uint256,address)": "febe4909",
					"balanceOf(address)": "70a08231",
					"getApproved(uint256)": "081812fc",
					"isApprovedAll(address)": "ffb74e64",
					"name()": "06fdde03",
					"ownerOf(uint256)": "6352211e",
					"safeTransferFrom(address,address,uint256)": "42842e0e",
					"safeTransferFrom(address,address,uint256,bytes)": "b88d4fde",
					"setApproveAll(address,bool)": "c3354402",
					"supportsInterface(bytes4)": "01ffc9a7",
					"symbol()": "95d89b41",
					"tokenURI(uint256)": "c87b56dd",
					"transferFrom(address,address,uint256)": "23b872dd"
				}
			},
			"storageLayout": {
				"storage": [
					{
						"astId": 21,
						"contract": "34_ERC721/ERC721.sol:ERC721",
						"label": "name",
						"offset": 0,
						"slot": "0",
						"type": "t_string_storage"
					},
					{
						"astId": 24,
						"contract": "34_ERC721/ERC721.sol:ERC721",
						"label": "symbol",
						"offset": 0,
						"slot": "1",
						"type": "t_string_storage"
					},
					{
						"astId": 28,
						"contract": "34_ERC721/ERC721.sol:ERC721",
						"label": "_owners",
						"offset": 0,
						"slot": "2",
						"type": "t_mapping(t_uint256,t_address)"
					},
					{
						"astId": 32,
						"contract": "34_ERC721/ERC721.sol:ERC721",
						"label": "_balances",
						"offset": 0,
						"slot": "3",
						"type": "t_mapping(t_address,t_uint256)"
					},
					{
						"astId": 36,
						"contract": "34_ERC721/ERC721.sol:ERC721",
						"label": "_tokenApprovals",
						"offset": 0,
						"slot": "4",
						"type": "t_mapping(t_uint256,t_address)"
					},
					{
						"astId": 42,
						"contract": "34_ERC721/ERC721.sol:ERC721",
						"label": "_operatorApprovals",
						"offset": 0,
						"slot": "5",
						"type": "t_mapping(t_address,t_mapping(t_address,t_bool))"
					}
				],
				"types": {
					"t_address": {
						"encoding": "inplace",
						"label": "address",
						"numberOfBytes": "20"
					},
					"t_bool": {
						"encoding": "inplace",
						"label": "bool",
						"numberOfBytes": "1"
					},
					"t_mapping(t_address,t_bool)": {
						"encoding": "mapping",
						"key": "t_address",
						"label": "mapping(address => bool)",
						"numberOfBytes": "32",
						"value": "t_bool"
					},
					"t_mapping(t_address,t_mapping(t_address,t_bool))": {
						"encoding": "mapping",
						"key": "t_address",
						"label": "mapping(address => mapping(address => bool))",
						"numberOfBytes": "32",
						"value": "t_mapping(t_address,t_bool)"
					},
					"t_mapping(t_address,t_uint256)": {
						"encoding": "mapping",
						"key": "t_address",
						"label": "mapping(address => uint256)",
						"numberOfBytes": "32",
						"value": "t_uint256"
					},
					"t_mapping(t_uint256,t_address)": {
						"encoding": "mapping",
						"key": "t_uint256",
						"label": "mapping(uint256 => address)",
						"numberOfBytes": "32",
						"value": "t_address"
					},
					"t_string_storage": {
						"encoding": "bytes",
						"label": "string",
						"numberOfBytes": "32"
					},
					"t_uint256": {
						"encoding": "inplace",
						"label": "uint256",
						"numberOfBytes": "32"
					}
				}
			},
			"userdoc": {
				"kind": "user",
				"methods": {
					"supportsInterface(bytes4)": {
						"notice": "bytes4(keccak256(ERC721.Transfer.selector) ^ keccak256(ERC721.Approval.selector) ^ ··· ^keccak256(ERC721.isApprovedForAll.selector)) bytes4(keccak256(IERC721Metadata.name.selector ^ IERC721Metadata.symbol.selector ^ IERC721Metadata.tokenURI.selector))*"
					},
					"tokenURI(uint256)": {
						"notice": "实现IERC721Metadata的tokenURI函数，查询metadata。"
					}
				},
				"version": 1
			}
		}
	}
}