{
	"Library.sol": {
		"Library": {
			"abi": [
				{
					"inputs": [
						{
							"internalType": "uint256",
							"name": "_in",
							"type": "uint256"
						}
					],
					"name": "getString1",
					"outputs": [
						{
							"internalType": "string",
							"name": "",
							"type": "string"
						}
					],
					"stateMutability": "pure",
					"type": "function"
				},
				{
					"inputs": [
						{
							"internalType": "uint256",
							"name": "_in",
							"type": "uint256"
						}
					],
					"name": "getString2",
					"outputs": [
						{
							"internalType": "string",
							"name": "",
							"type": "string"
						}
					],
					"stateMutability": "pure",
					"type": "function"
				},
				{
					"inputs": [
						{
							"internalType": "uint256",
							"name": "_in",
							"type": "uint256"
						}
					],
					"name": "getString3",
					"outputs": [
						{
							"internalType": "string",
							"name": "",
							"type": "string"
						}
					],
					"stateMutability": "pure",
					"type": "function"
				},
				{
					"inputs": [
						{
							"internalType": "uint256",
							"name": "_in",
							"type": "uint256"
						}
					],
					"name": "getString4",
					"outputs": [
						{
							"internalType": "string",
							"name": "",
							"type": "string"
						}
					],
					"stateMutability": "pure",
					"type": "function"
				}
			],
			"devdoc": {
				"kind": "dev",
				"methods": {},
				"version": 1
			},
			"evm": {
				"assembly": "    /* \"Library.sol\":2013:2550  contract Library {... */\n  mstore(0x40, 0x80)\n  callvalue\n  dup1\n  iszero\n  tag_1\n  jumpi\n  revert(0x00, 0x00)\ntag_1:\n  pop\n  dataSize(sub_0)\n  dup1\n  dataOffset(sub_0)\n  0x00\n  codecopy\n  0x00\n  return\nstop\n\nsub_0: assembly {\n        /* \"Library.sol\":2013:2550  contract Library {... */\n      mstore(0x40, 0x80)\n      callvalue\n      dup1\n      iszero\n      tag_1\n      jumpi\n      revert(0x00, 0x00)\n    tag_1:\n      pop\n      jumpi(tag_2, lt(calldatasize, 0x04))\n      shr(0xe0, calldataload(0x00))\n      dup1\n      0x4d6d8ae9\n      eq\n      tag_3\n      jumpi\n      dup1\n      0xd6ee0f32\n      eq\n      tag_4\n      jumpi\n      dup1\n      0xe65eac98\n      eq\n      tag_5\n      jumpi\n      dup1\n      0xf4169a0a\n      eq\n      tag_6\n      jumpi\n    tag_2:\n      revert(0x00, 0x00)\n        /* \"Library.sol\":2308:2423  function getString3(uint256 _in) public pure returns (string memory) {... */\n    tag_3:\n      tag_7\n      0x04\n      dup1\n      calldatasize\n      sub\n      dup2\n      add\n      swap1\n      tag_8\n      swap2\n      swap1\n      tag_9\n      jump\t// in\n    tag_8:\n      tag_10\n      jump\t// in\n    tag_7:\n      mload(0x40)\n      tag_11\n      swap2\n      swap1\n      tag_12\n      jump\t// in\n    tag_11:\n      mload(0x40)\n      dup1\n      swap2\n      sub\n      swap1\n      return\n        /* \"Library.sol\":2071:2180  function getString1(uint256 _in) public pure returns (string memory) {... */\n    tag_4:\n      tag_13\n      0x04\n      dup1\n      calldatasize\n      sub\n      dup2\n      add\n      swap1\n      tag_14\n      swap2\n      swap1\n      tag_9\n      jump\t// in\n    tag_14:\n      tag_15\n      jump\t// in\n    tag_13:\n      mload(0x40)\n      tag_16\n      swap2\n      swap1\n      tag_12\n      jump\t// in\n    tag_16:\n      mload(0x40)\n      dup1\n      swap2\n      sub\n      swap1\n      return\n        /* \"Library.sol\":2188:2300  function getString2(uint256 _in) public pure returns (string memory) {... */\n    tag_5:\n      tag_17\n      0x04\n      dup1\n      calldatasize\n      sub\n      dup2\n      add\n      swap1\n      tag_18\n      swap2\n      swap1\n      tag_9\n      jump\t// in\n    tag_18:\n      tag_19\n      jump\t// in\n    tag_17:\n      mload(0x40)\n      tag_20\n      swap2\n      swap1\n      tag_12\n      jump\t// in\n    tag_20:\n      mload(0x40)\n      dup1\n      swap2\n      sub\n      swap1\n      return\n        /* \"Library.sol\":2431:2547  function getString4(uint256 _in) public pure returns (string memory) {... */\n    tag_6:\n      tag_21\n      0x04\n      dup1\n      calldatasize\n      sub\n      dup2\n      add\n      swap1\n      tag_22\n      swap2\n      swap1\n      tag_9\n      jump\t// in\n    tag_22:\n      tag_23\n      jump\t// in\n    tag_21:\n      mload(0x40)\n      tag_24\n      swap2\n      swap1\n      tag_12\n      jump\t// in\n    tag_24:\n      mload(0x40)\n      dup1\n      swap2\n      sub\n      swap1\n      return\n        /* \"Library.sol\":2308:2423  function getString3(uint256 _in) public pure returns (string memory) {... */\n    tag_10:\n        /* \"Library.sol\":2362:2375  string memory */\n      0x60\n        /* \"Library.sol\":2395:2415  _in.toHexString(_in) */\n      tag_26\n        /* \"Library.sol\":2411:2414  _in */\n      dup3\n        /* \"Library.sol\":2395:2398  _in */\n      dup4\n        /* \"Library.sol\":2395:2410  _in.toHexString */\n      tag_27\n      swap1\n        /* \"Library.sol\":2395:2415  _in.toHexString(_in) */\n      swap2\n      swap1\n      0xffffffff\n      and\n      jump\t// in\n    tag_26:\n        /* \"Library.sol\":2388:2415  return _in.toHexString(_in) */\n      swap1\n      pop\n        /* \"Library.sol\":2308:2423  function getString3(uint256 _in) public pure returns (string memory) {... */\n      swap2\n      swap1\n      pop\n      jump\t// out\n        /* \"Library.sol\":2071:2180  function getString1(uint256 _in) public pure returns (string memory) {... */\n    tag_15:\n        /* \"Library.sol\":2125:2138  string memory */\n      0x60\n        /* \"Library.sol\":2158:2172  _in.toString() */\n      tag_29\n        /* \"Library.sol\":2158:2161  _in */\n      dup3\n        /* \"Library.sol\":2158:2170  _in.toString */\n      tag_30\n        /* \"Library.sol\":2158:2172  _in.toString() */\n      jump\t// in\n    tag_29:\n        /* \"Library.sol\":2151:2172  return _in.toString() */\n      swap1\n      pop\n        /* \"Library.sol\":2071:2180  function getString1(uint256 _in) public pure returns (string memory) {... */\n      swap2\n      swap1\n      pop\n      jump\t// out\n        /* \"Library.sol\":2188:2300  function getString2(uint256 _in) public pure returns (string memory) {... */\n    tag_19:\n        /* \"Library.sol\":2242:2255  string memory */\n      0x60\n        /* \"Library.sol\":2275:2292  _in.toHexString() */\n      tag_32\n        /* \"Library.sol\":2275:2278  _in */\n      dup3\n        /* \"Library.sol\":2275:2290  _in.toHexString */\n      tag_33\n        /* \"Library.sol\":2275:2292  _in.toHexString() */\n      jump\t// in\n    tag_32:\n        /* \"Library.sol\":2268:2292  return _in.toHexString() */\n      swap1\n      pop\n        /* \"Library.sol\":2188:2300  function getString2(uint256 _in) public pure returns (string memory) {... */\n      swap2\n      swap1\n      pop\n      jump\t// out\n        /* \"Library.sol\":2431:2547  function getString4(uint256 _in) public pure returns (string memory) {... */\n    tag_23:\n        /* \"Library.sol\":2485:2498  string memory */\n      0x60\n        /* \"Library.sol\":2518:2539  Strings.toString(_in) */\n      tag_35\n        /* \"Library.sol\":2535:2538  _in */\n      dup3\n        /* \"Library.sol\":2518:2534  Strings.toString */\n      tag_30\n        /* \"Library.sol\":2518:2539  Strings.toString(_in) */\n      jump\t// in\n    tag_35:\n        /* \"Library.sol\":2511:2539  return Strings.toString(_in) */\n      swap1\n      pop\n        /* \"Library.sol\":2431:2547  function getString4(uint256 _in) public pure returns (string memory) {... */\n      swap2\n      swap1\n      pop\n      jump\t// out\n        /* \"Library.sol\":1555:2006  function toHexString(uint256 value, uint256 length) internal pure returns (string memory) {... */\n    tag_27:\n        /* \"Library.sol\":1630:1643  string memory */\n      0x60\n        /* \"Library.sol\":1656:1675  bytes memory buffer */\n      0x00\n        /* \"Library.sol\":1701:1702  2 */\n      0x02\n        /* \"Library.sol\":1692:1698  length */\n      dup4\n        /* \"Library.sol\":1688:1689  2 */\n      0x02\n        /* \"Library.sol\":1688:1698  2 * length */\n      tag_37\n      swap2\n      swap1\n      tag_38\n      jump\t// in\n    tag_37:\n        /* \"Library.sol\":1688:1702  2 * length + 2 */\n      tag_39\n      swap2\n      swap1\n      tag_40\n      jump\t// in\n    tag_39:\n        /* \"Library.sol\":1678:1703  new bytes(2 * length + 2) */\n      0xffffffffffffffff\n      dup2\n      gt\n      iszero\n      tag_41\n      jumpi\n      tag_42\n      tag_43\n      jump\t// in\n    tag_42:\n    tag_41:\n      mload(0x40)\n      swap1\n      dup1\n      dup3\n      mstore\n      dup1\n      0x1f\n      add\n      not(0x1f)\n      and\n      0x20\n      add\n      dup3\n      add\n      0x40\n      mstore\n      dup1\n      iszero\n      tag_44\n      jumpi\n      dup2\n      0x20\n      add\n      0x01\n      dup3\n      mul\n      dup1\n      calldatasize\n      dup4\n      calldatacopy\n      dup1\n      dup3\n      add\n      swap2\n      pop\n      pop\n      swap1\n      pop\n    tag_44:\n      pop\n        /* \"Library.sol\":1656:1703  bytes memory buffer = new bytes(2 * length + 2) */\n      swap1\n      pop\n        /* \"Library.sol\":1714:1729  buffer[0] = \"0\" */\n      0x3000000000000000000000000000000000000000000000000000000000000000\n        /* \"Library.sol\":1714:1720  buffer */\n      dup2\n        /* \"Library.sol\":1721:1722  0 */\n      0x00\n        /* \"Library.sol\":1714:1723  buffer[0] */\n      dup2\n      mload\n      dup2\n      lt\n      tag_45\n      jumpi\n      tag_46\n      tag_47\n      jump\t// in\n    tag_46:\n    tag_45:\n      0x20\n      add\n      add\n        /* \"Library.sol\":1714:1729  buffer[0] = \"0\" */\n      swap1\n      not(0xffffffffffffffffffffffffffffffffffffffffffffffffffffffffffffff)\n      and\n      swap1\n      dup2\n      0x00\n      byte\n      swap1\n      mstore8\n      pop\n        /* \"Library.sol\":1740:1755  buffer[1] = \"x\" */\n      0x7800000000000000000000000000000000000000000000000000000000000000\n        /* \"Library.sol\":1740:1746  buffer */\n      dup2\n        /* \"Library.sol\":1747:1748  1 */\n      0x01\n        /* \"Library.sol\":1740:1749  buffer[1] */\n      dup2\n      mload\n      dup2\n      lt\n      tag_48\n      jumpi\n      tag_49\n      tag_47\n      jump\t// in\n    tag_49:\n    tag_48:\n      0x20\n      add\n      add\n        /* \"Library.sol\":1740:1755  buffer[1] = \"x\" */\n      swap1\n      not(0xffffffffffffffffffffffffffffffffffffffffffffffffffffffffffffff)\n      and\n      swap1\n      dup2\n      0x00\n      byte\n      swap1\n      mstore8\n      pop\n        /* \"Library.sol\":1771:1780  uint256 i */\n      0x00\n        /* \"Library.sol\":1796:1797  1 */\n      0x01\n        /* \"Library.sol\":1787:1793  length */\n      dup5\n        /* \"Library.sol\":1783:1784  2 */\n      0x02\n        /* \"Library.sol\":1783:1793  2 * length */\n      tag_53\n      swap2\n      swap1\n      tag_38\n      jump\t// in\n    tag_53:\n        /* \"Library.sol\":1783:1797  2 * length + 1 */\n      tag_54\n      swap2\n      swap1\n      tag_40\n      jump\t// in\n    tag_54:\n        /* \"Library.sol\":1771:1797  uint256 i = 2 * length + 1 */\n      swap1\n      pop\n        /* \"Library.sol\":1766:1901  for (uint256 i = 2 * length + 1; i > 1; --i) {... */\n    tag_50:\n        /* \"Library.sol\":1803:1804  1 */\n      0x01\n        /* \"Library.sol\":1799:1800  i */\n      dup2\n        /* \"Library.sol\":1799:1804  i > 1 */\n      gt\n        /* \"Library.sol\":1766:1901  for (uint256 i = 2 * length + 1; i > 1; --i) {... */\n      iszero\n      tag_51\n      jumpi\n        /* \"Library.sol\":1838:1850  _HEX_SYMBOLS */\n      0x3031323334353637383961626364656600000000000000000000000000000000\n        /* \"Library.sol\":1859:1862  0xf */\n      0x0f\n        /* \"Library.sol\":1851:1856  value */\n      dup7\n        /* \"Library.sol\":1851:1862  value & 0xf */\n      and\n        /* \"Library.sol\":1838:1863  _HEX_SYMBOLS[value & 0xf] */\n      0x10\n      dup2\n      lt\n      tag_55\n      jumpi\n      tag_56\n      tag_47\n      jump\t// in\n    tag_56:\n    tag_55:\n      byte\n      0xf8\n      shl\n        /* \"Library.sol\":1826:1832  buffer */\n      dup3\n        /* \"Library.sol\":1833:1834  i */\n      dup3\n        /* \"Library.sol\":1826:1835  buffer[i] */\n      dup2\n      mload\n      dup2\n      lt\n      tag_57\n      jumpi\n      tag_58\n      tag_47\n      jump\t// in\n    tag_58:\n    tag_57:\n      0x20\n      add\n      add\n        /* \"Library.sol\":1826:1863  buffer[i] = _HEX_SYMBOLS[value & 0xf] */\n      swap1\n      not(0xffffffffffffffffffffffffffffffffffffffffffffffffffffffffffffff)\n      and\n      swap1\n      dup2\n      0x00\n      byte\n      swap1\n      mstore8\n      pop\n        /* \"Library.sol\":1888:1889  4 */\n      0x04\n        /* \"Library.sol\":1878:1889  value >>= 4 */\n      dup6\n      swap1\n      shr\n      swap5\n      pop\n        /* \"Library.sol\":1806:1809  --i */\n      dup1\n      tag_59\n      swap1\n      tag_60\n      jump\t// in\n    tag_59:\n      swap1\n      pop\n        /* \"Library.sol\":1766:1901  for (uint256 i = 2 * length + 1; i > 1; --i) {... */\n      jump(tag_50)\n    tag_51:\n      pop\n        /* \"Library.sol\":1928:1929  0 */\n      0x00\n        /* \"Library.sol\":1919:1924  value */\n      dup5\n        /* \"Library.sol\":1919:1929  value == 0 */\n      eq\n        /* \"Library.sol\":1911:1966  require(value == 0, \"Strings: hex length insufficient\") */\n      tag_61\n      jumpi\n      mload(0x40)\n      0x08c379a000000000000000000000000000000000000000000000000000000000\n      dup2\n      mstore\n      0x04\n      add\n      tag_62\n      swap1\n      tag_63\n      jump\t// in\n    tag_62:\n      mload(0x40)\n      dup1\n      swap2\n      sub\n      swap1\n      revert\n    tag_61:\n        /* \"Library.sol\":1991:1997  buffer */\n      dup1\n        /* \"Library.sol\":1977:1998  return string(buffer) */\n      swap2\n      pop\n      pop\n        /* \"Library.sol\":1555:2006  function toHexString(uint256 value, uint256 length) internal pure returns (string memory) {... */\n      swap3\n      swap2\n      pop\n      pop\n      jump\t// out\n        /* \"Library.sol\":254:977  function toString(uint256 value) internal pure returns (string memory) {... */\n    tag_30:\n        /* \"Library.sol\":310:323  string memory */\n      0x60\n        /* \"Library.sol\":540:541  0 */\n      0x00\n        /* \"Library.sol\":531:536  value */\n      dup3\n        /* \"Library.sol\":531:541  value == 0 */\n      sub\n        /* \"Library.sol\":527:580  if (value == 0) {... */\n      tag_65\n      jumpi\n        /* \"Library.sol\":558:568  return \"0\" */\n      mload(0x40)\n      dup1\n      0x40\n      add\n      0x40\n      mstore\n      dup1\n      0x01\n      dup2\n      mstore\n      0x20\n      add\n      0x3000000000000000000000000000000000000000000000000000000000000000\n      dup2\n      mstore\n      pop\n      swap1\n      pop\n      jump(tag_64)\n        /* \"Library.sol\":527:580  if (value == 0) {... */\n    tag_65:\n        /* \"Library.sol\":590:602  uint256 temp */\n      0x00\n        /* \"Library.sol\":605:610  value */\n      dup3\n        /* \"Library.sol\":590:610  uint256 temp = value */\n      swap1\n      pop\n        /* \"Library.sol\":621:635  uint256 digits */\n      0x00\n        /* \"Library.sol\":646:724  while (temp != 0) {... */\n    tag_66:\n        /* \"Library.sol\":661:662  0 */\n      0x00\n        /* \"Library.sol\":653:657  temp */\n      dup3\n        /* \"Library.sol\":653:662  temp != 0 */\n      eq\n        /* \"Library.sol\":646:724  while (temp != 0) {... */\n      tag_67\n      jumpi\n        /* \"Library.sol\":679:687  digits++ */\n      dup1\n      dup1\n      tag_68\n      swap1\n      tag_69\n      jump\t// in\n    tag_68:\n      swap2\n      pop\n      pop\n        /* \"Library.sol\":710:712  10 */\n      0x0a\n        /* \"Library.sol\":702:712  temp /= 10 */\n      dup3\n      tag_70\n      swap2\n      swap1\n      tag_71\n      jump\t// in\n    tag_70:\n      swap2\n      pop\n        /* \"Library.sol\":646:724  while (temp != 0) {... */\n      jump(tag_66)\n    tag_67:\n        /* \"Library.sol\":734:753  bytes memory buffer */\n      0x00\n        /* \"Library.sol\":766:772  digits */\n      dup2\n        /* \"Library.sol\":756:773  new bytes(digits) */\n      0xffffffffffffffff\n      dup2\n      gt\n      iszero\n      tag_72\n      jumpi\n      tag_73\n      tag_43\n      jump\t// in\n    tag_73:\n    tag_72:\n      mload(0x40)\n      swap1\n      dup1\n      dup3\n      mstore\n      dup1\n      0x1f\n      add\n      not(0x1f)\n      and\n      0x20\n      add\n      dup3\n      add\n      0x40\n      mstore\n      dup1\n      iszero\n      tag_74\n      jumpi\n      dup2\n      0x20\n      add\n      0x01\n      dup3\n      mul\n      dup1\n      calldatasize\n      dup4\n      calldatacopy\n      dup1\n      dup3\n      add\n      swap2\n      pop\n      pop\n      swap1\n      pop\n    tag_74:\n      pop\n        /* \"Library.sol\":734:773  bytes memory buffer = new bytes(digits) */\n      swap1\n      pop\n        /* \"Library.sol\":784:938  while (value != 0) {... */\n    tag_75:\n        /* \"Library.sol\":800:801  0 */\n      0x00\n        /* \"Library.sol\":791:796  value */\n      dup6\n        /* \"Library.sol\":791:801  value != 0 */\n      eq\n        /* \"Library.sol\":784:938  while (value != 0) {... */\n      tag_76\n      jumpi\n        /* \"Library.sol\":828:829  1 */\n      0x01\n        /* \"Library.sol\":818:829  digits -= 1 */\n      dup3\n      tag_77\n      swap2\n      swap1\n      tag_78\n      jump\t// in\n    tag_77:\n      swap2\n      pop\n        /* \"Library.sol\":895:897  10 */\n      0x0a\n        /* \"Library.sol\":887:892  value */\n      dup6\n        /* \"Library.sol\":887:897  value % 10 */\n      tag_79\n      swap2\n      swap1\n      tag_80\n      jump\t// in\n    tag_79:\n        /* \"Library.sol\":874:876  48 */\n      0x30\n        /* \"Library.sol\":874:898  48 + uint256(value % 10) */\n      tag_81\n      swap2\n      swap1\n      tag_40\n      jump\t// in\n    tag_81:\n        /* \"Library.sol\":861:900  bytes1(uint8(48 + uint256(value % 10))) */\n      0xf8\n      shl\n        /* \"Library.sol\":844:850  buffer */\n      dup2\n        /* \"Library.sol\":851:857  digits */\n      dup4\n        /* \"Library.sol\":844:858  buffer[digits] */\n      dup2\n      mload\n      dup2\n      lt\n      tag_82\n      jumpi\n      tag_83\n      tag_47\n      jump\t// in\n    tag_83:\n    tag_82:\n      0x20\n      add\n      add\n        /* \"Library.sol\":844:900  buffer[digits] = bytes1(uint8(48 + uint256(value % 10))) */\n      swap1\n      not(0xffffffffffffffffffffffffffffffffffffffffffffffffffffffffffffff)\n      and\n      swap1\n      dup2\n      0x00\n      byte\n      swap1\n      mstore8\n      pop\n        /* \"Library.sol\":924:926  10 */\n      0x0a\n        /* \"Library.sol\":915:926  value /= 10 */\n      dup6\n      tag_84\n      swap2\n      swap1\n      tag_71\n      jump\t// in\n    tag_84:\n      swap5\n      pop\n        /* \"Library.sol\":784:938  while (value != 0) {... */\n      jump(tag_75)\n    tag_76:\n        /* \"Library.sol\":962:968  buffer */\n      dup1\n        /* \"Library.sol\":948:969  return string(buffer) */\n      swap4\n      pop\n      pop\n      pop\n      pop\n        /* \"Library.sol\":254:977  function toString(uint256 value) internal pure returns (string memory) {... */\n    tag_64:\n      swap2\n      swap1\n      pop\n      jump\t// out\n        /* \"Library.sol\":1087:1427  function toHexString(uint256 value) internal pure returns (string memory) {... */\n    tag_33:\n        /* \"Library.sol\":1146:1159  string memory */\n      0x60\n        /* \"Library.sol\":1185:1186  0 */\n      0x00\n        /* \"Library.sol\":1176:1181  value */\n      dup3\n        /* \"Library.sol\":1176:1186  value == 0 */\n      sub\n        /* \"Library.sol\":1172:1228  if (value == 0) {... */\n      tag_86\n      jumpi\n        /* \"Library.sol\":1203:1216  return \"0x00\" */\n      mload(0x40)\n      dup1\n      0x40\n      add\n      0x40\n      mstore\n      dup1\n      0x04\n      dup2\n      mstore\n      0x20\n      add\n      0x3078303000000000000000000000000000000000000000000000000000000000\n      dup2\n      mstore\n      pop\n      swap1\n      pop\n      jump(tag_85)\n        /* \"Library.sol\":1172:1228  if (value == 0) {... */\n    tag_86:\n        /* \"Library.sol\":1238:1250  uint256 temp */\n      0x00\n        /* \"Library.sol\":1253:1258  value */\n      dup3\n        /* \"Library.sol\":1238:1258  uint256 temp = value */\n      swap1\n      pop\n        /* \"Library.sol\":1269:1283  uint256 length */\n      0x00\n        /* \"Library.sol\":1286:1287  0 */\n      0x00\n        /* \"Library.sol\":1269:1287  uint256 length = 0 */\n      swap1\n      pop\n        /* \"Library.sol\":1298:1376  while (temp != 0) {... */\n    tag_87:\n        /* \"Library.sol\":1313:1314  0 */\n      0x00\n        /* \"Library.sol\":1305:1309  temp */\n      dup3\n        /* \"Library.sol\":1305:1314  temp != 0 */\n      eq\n        /* \"Library.sol\":1298:1376  while (temp != 0) {... */\n      tag_88\n      jumpi\n        /* \"Library.sol\":1331:1339  length++ */\n      dup1\n      dup1\n      tag_89\n      swap1\n      tag_69\n      jump\t// in\n    tag_89:\n      swap2\n      pop\n      pop\n        /* \"Library.sol\":1363:1364  8 */\n      0x08\n        /* \"Library.sol\":1354:1364  temp >>= 8 */\n      dup3\n      swap1\n      shr\n      swap2\n      pop\n        /* \"Library.sol\":1298:1376  while (temp != 0) {... */\n      jump(tag_87)\n    tag_88:\n        /* \"Library.sol\":1393:1419  toHexString(value, length) */\n      tag_90\n        /* \"Library.sol\":1405:1410  value */\n      dup5\n        /* \"Library.sol\":1412:1418  length */\n      dup3\n        /* \"Library.sol\":1393:1404  toHexString */\n      tag_27\n        /* \"Library.sol\":1393:1419  toHexString(value, length) */\n      jump\t// in\n    tag_90:\n        /* \"Library.sol\":1386:1419  return toHexString(value, length) */\n      swap3\n      pop\n      pop\n      pop\n        /* \"Library.sol\":1087:1427  function toHexString(uint256 value) internal pure returns (string memory) {... */\n    tag_85:\n      swap2\n      swap1\n      pop\n      jump\t// out\n        /* \"#utility.yul\":88:205   */\n    tag_92:\n        /* \"#utility.yul\":197:198   */\n      0x00\n        /* \"#utility.yul\":194:195   */\n      0x00\n        /* \"#utility.yul\":187:199   */\n      revert\n        /* \"#utility.yul\":334:411   */\n    tag_94:\n        /* \"#utility.yul\":371:378   */\n      0x00\n        /* \"#utility.yul\":400:405   */\n      dup2\n        /* \"#utility.yul\":389:405   */\n      swap1\n      pop\n        /* \"#utility.yul\":334:411   */\n      swap2\n      swap1\n      pop\n      jump\t// out\n        /* \"#utility.yul\":417:539   */\n    tag_95:\n        /* \"#utility.yul\":490:514   */\n      tag_112\n        /* \"#utility.yul\":508:513   */\n      dup2\n        /* \"#utility.yul\":490:514   */\n      tag_94\n      jump\t// in\n    tag_112:\n        /* \"#utility.yul\":483:488   */\n      dup2\n        /* \"#utility.yul\":480:515   */\n      eq\n        /* \"#utility.yul\":470:533   */\n      tag_113\n      jumpi\n        /* \"#utility.yul\":529:530   */\n      0x00\n        /* \"#utility.yul\":526:527   */\n      0x00\n        /* \"#utility.yul\":519:531   */\n      revert\n        /* \"#utility.yul\":470:533   */\n    tag_113:\n        /* \"#utility.yul\":417:539   */\n      pop\n      jump\t// out\n        /* \"#utility.yul\":545:684   */\n    tag_96:\n        /* \"#utility.yul\":591:596   */\n      0x00\n        /* \"#utility.yul\":629:635   */\n      dup2\n        /* \"#utility.yul\":616:636   */\n      calldataload\n        /* \"#utility.yul\":607:636   */\n      swap1\n      pop\n        /* \"#utility.yul\":645:678   */\n      tag_115\n        /* \"#utility.yul\":672:677   */\n      dup2\n        /* \"#utility.yul\":645:678   */\n      tag_95\n      jump\t// in\n    tag_115:\n        /* \"#utility.yul\":545:684   */\n      swap3\n      swap2\n      pop\n      pop\n      jump\t// out\n        /* \"#utility.yul\":690:1019   */\n    tag_9:\n        /* \"#utility.yul\":749:755   */\n      0x00\n        /* \"#utility.yul\":798:800   */\n      0x20\n        /* \"#utility.yul\":786:795   */\n      dup3\n        /* \"#utility.yul\":777:784   */\n      dup5\n        /* \"#utility.yul\":773:796   */\n      sub\n        /* \"#utility.yul\":769:801   */\n      slt\n        /* \"#utility.yul\":766:885   */\n      iszero\n      tag_117\n      jumpi\n        /* \"#utility.yul\":804:883   */\n      tag_118\n      tag_92\n      jump\t// in\n    tag_118:\n        /* \"#utility.yul\":766:885   */\n    tag_117:\n        /* \"#utility.yul\":924:925   */\n      0x00\n        /* \"#utility.yul\":949:1002   */\n      tag_119\n        /* \"#utility.yul\":994:1001   */\n      dup5\n        /* \"#utility.yul\":985:991   */\n      dup3\n        /* \"#utility.yul\":974:983   */\n      dup6\n        /* \"#utility.yul\":970:992   */\n      add\n        /* \"#utility.yul\":949:1002   */\n      tag_96\n      jump\t// in\n    tag_119:\n        /* \"#utility.yul\":939:1002   */\n      swap2\n      pop\n        /* \"#utility.yul\":895:1012   */\n      pop\n        /* \"#utility.yul\":690:1019   */\n      swap3\n      swap2\n      pop\n      pop\n      jump\t// out\n        /* \"#utility.yul\":1025:1124   */\n    tag_97:\n        /* \"#utility.yul\":1077:1083   */\n      0x00\n        /* \"#utility.yul\":1111:1116   */\n      dup2\n        /* \"#utility.yul\":1105:1117   */\n      mload\n        /* \"#utility.yul\":1095:1117   */\n      swap1\n      pop\n        /* \"#utility.yul\":1025:1124   */\n      swap2\n      swap1\n      pop\n      jump\t// out\n        /* \"#utility.yul\":1130:1299   */\n    tag_98:\n        /* \"#utility.yul\":1214:1225   */\n      0x00\n        /* \"#utility.yul\":1248:1254   */\n      dup3\n        /* \"#utility.yul\":1243:1246   */\n      dup3\n        /* \"#utility.yul\":1236:1255   */\n      mstore\n        /* \"#utility.yul\":1288:1292   */\n      0x20\n        /* \"#utility.yul\":1283:1286   */\n      dup3\n        /* \"#utility.yul\":1279:1293   */\n      add\n        /* \"#utility.yul\":1264:1293   */\n      swap1\n      pop\n        /* \"#utility.yul\":1130:1299   */\n      swap3\n      swap2\n      pop\n      pop\n      jump\t// out\n        /* \"#utility.yul\":1305:1444   */\n    tag_99:\n        /* \"#utility.yul\":1394:1400   */\n      dup3\n        /* \"#utility.yul\":1389:1392   */\n      dup2\n        /* \"#utility.yul\":1384:1387   */\n      dup4\n        /* \"#utility.yul\":1378:1401   */\n      mcopy\n        /* \"#utility.yul\":1435:1436   */\n      0x00\n        /* \"#utility.yul\":1426:1432   */\n      dup4\n        /* \"#utility.yul\":1421:1424   */\n      dup4\n        /* \"#utility.yul\":1417:1433   */\n      add\n        /* \"#utility.yul\":1410:1437   */\n      mstore\n        /* \"#utility.yul\":1305:1444   */\n      pop\n      pop\n      pop\n      jump\t// out\n        /* \"#utility.yul\":1450:1552   */\n    tag_100:\n        /* \"#utility.yul\":1491:1497   */\n      0x00\n        /* \"#utility.yul\":1542:1544   */\n      0x1f\n        /* \"#utility.yul\":1538:1545   */\n      not\n        /* \"#utility.yul\":1533:1535   */\n      0x1f\n        /* \"#utility.yul\":1526:1531   */\n      dup4\n        /* \"#utility.yul\":1522:1536   */\n      add\n        /* \"#utility.yul\":1518:1546   */\n      and\n        /* \"#utility.yul\":1508:1546   */\n      swap1\n      pop\n        /* \"#utility.yul\":1450:1552   */\n      swap2\n      swap1\n      pop\n      jump\t// out\n        /* \"#utility.yul\":1558:1935   */\n    tag_101:\n        /* \"#utility.yul\":1646:1649   */\n      0x00\n        /* \"#utility.yul\":1674:1713   */\n      tag_125\n        /* \"#utility.yul\":1707:1712   */\n      dup3\n        /* \"#utility.yul\":1674:1713   */\n      tag_97\n      jump\t// in\n    tag_125:\n        /* \"#utility.yul\":1729:1800   */\n      tag_126\n        /* \"#utility.yul\":1793:1799   */\n      dup2\n        /* \"#utility.yul\":1788:1791   */\n      dup6\n        /* \"#utility.yul\":1729:1800   */\n      tag_98\n      jump\t// in\n    tag_126:\n        /* \"#utility.yul\":1722:1800   */\n      swap4\n      pop\n        /* \"#utility.yul\":1809:1874   */\n      tag_127\n        /* \"#utility.yul\":1867:1873   */\n      dup2\n        /* \"#utility.yul\":1862:1865   */\n      dup6\n        /* \"#utility.yul\":1855:1859   */\n      0x20\n        /* \"#utility.yul\":1848:1853   */\n      dup7\n        /* \"#utility.yul\":1844:1860   */\n      add\n        /* \"#utility.yul\":1809:1874   */\n      tag_99\n      jump\t// in\n    tag_127:\n        /* \"#utility.yul\":1899:1928   */\n      tag_128\n        /* \"#utility.yul\":1921:1927   */\n      dup2\n        /* \"#utility.yul\":1899:1928   */\n      tag_100\n      jump\t// in\n    tag_128:\n        /* \"#utility.yul\":1894:1897   */\n      dup5\n        /* \"#utility.yul\":1890:1929   */\n      add\n        /* \"#utility.yul\":1883:1929   */\n      swap2\n      pop\n        /* \"#utility.yul\":1650:1935   */\n      pop\n        /* \"#utility.yul\":1558:1935   */\n      swap3\n      swap2\n      pop\n      pop\n      jump\t// out\n        /* \"#utility.yul\":1941:2254   */\n    tag_12:\n        /* \"#utility.yul\":2054:2058   */\n      0x00\n        /* \"#utility.yul\":2092:2094   */\n      0x20\n        /* \"#utility.yul\":2081:2090   */\n      dup3\n        /* \"#utility.yul\":2077:2095   */\n      add\n        /* \"#utility.yul\":2069:2095   */\n      swap1\n      pop\n        /* \"#utility.yul\":2141:2150   */\n      dup2\n        /* \"#utility.yul\":2135:2139   */\n      dup2\n        /* \"#utility.yul\":2131:2151   */\n      sub\n        /* \"#utility.yul\":2127:2128   */\n      0x00\n        /* \"#utility.yul\":2116:2125   */\n      dup4\n        /* \"#utility.yul\":2112:2129   */\n      add\n        /* \"#utility.yul\":2105:2152   */\n      mstore\n        /* \"#utility.yul\":2169:2247   */\n      tag_130\n        /* \"#utility.yul\":2242:2246   */\n      dup2\n        /* \"#utility.yul\":2233:2239   */\n      dup5\n        /* \"#utility.yul\":2169:2247   */\n      tag_101\n      jump\t// in\n    tag_130:\n        /* \"#utility.yul\":2161:2247   */\n      swap1\n      pop\n        /* \"#utility.yul\":1941:2254   */\n      swap3\n      swap2\n      pop\n      pop\n      jump\t// out\n        /* \"#utility.yul\":2260:2440   */\n    tag_102:\n        /* \"#utility.yul\":2308:2385   */\n      0x4e487b7100000000000000000000000000000000000000000000000000000000\n        /* \"#utility.yul\":2305:2306   */\n      0x00\n        /* \"#utility.yul\":2298:2386   */\n      mstore\n        /* \"#utility.yul\":2405:2409   */\n      0x11\n        /* \"#utility.yul\":2402:2403   */\n      0x04\n        /* \"#utility.yul\":2395:2410   */\n      mstore\n        /* \"#utility.yul\":2429:2433   */\n      0x24\n        /* \"#utility.yul\":2426:2427   */\n      0x00\n        /* \"#utility.yul\":2419:2434   */\n      revert\n        /* \"#utility.yul\":2446:2856   */\n    tag_38:\n        /* \"#utility.yul\":2486:2493   */\n      0x00\n        /* \"#utility.yul\":2509:2529   */\n      tag_133\n        /* \"#utility.yul\":2527:2528   */\n      dup3\n        /* \"#utility.yul\":2509:2529   */\n      tag_94\n      jump\t// in\n    tag_133:\n        /* \"#utility.yul\":2504:2529   */\n      swap2\n      pop\n        /* \"#utility.yul\":2543:2563   */\n      tag_134\n        /* \"#utility.yul\":2561:2562   */\n      dup4\n        /* \"#utility.yul\":2543:2563   */\n      tag_94\n      jump\t// in\n    tag_134:\n        /* \"#utility.yul\":2538:2563   */\n      swap3\n      pop\n        /* \"#utility.yul\":2598:2599   */\n      dup3\n        /* \"#utility.yul\":2595:2596   */\n      dup3\n        /* \"#utility.yul\":2591:2600   */\n      mul\n        /* \"#utility.yul\":2620:2650   */\n      tag_135\n        /* \"#utility.yul\":2638:2649   */\n      dup2\n        /* \"#utility.yul\":2620:2650   */\n      tag_94\n      jump\t// in\n    tag_135:\n        /* \"#utility.yul\":2609:2650   */\n      swap2\n      pop\n        /* \"#utility.yul\":2799:2800   */\n      dup3\n        /* \"#utility.yul\":2790:2797   */\n      dup3\n        /* \"#utility.yul\":2786:2801   */\n      div\n        /* \"#utility.yul\":2783:2784   */\n      dup5\n        /* \"#utility.yul\":2780:2802   */\n      eq\n        /* \"#utility.yul\":2760:2761   */\n      dup4\n        /* \"#utility.yul\":2753:2762   */\n      iszero\n        /* \"#utility.yul\":2733:2816   */\n      or\n        /* \"#utility.yul\":2710:2849   */\n      tag_136\n      jumpi\n        /* \"#utility.yul\":2829:2847   */\n      tag_137\n      tag_102\n      jump\t// in\n    tag_137:\n        /* \"#utility.yul\":2710:2849   */\n    tag_136:\n        /* \"#utility.yul\":2494:2856   */\n      pop\n        /* \"#utility.yul\":2446:2856   */\n      swap3\n      swap2\n      pop\n      pop\n      jump\t// out\n        /* \"#utility.yul\":2862:3053   */\n    tag_40:\n        /* \"#utility.yul\":2902:2905   */\n      0x00\n        /* \"#utility.yul\":2921:2941   */\n      tag_139\n        /* \"#utility.yul\":2939:2940   */\n      dup3\n        /* \"#utility.yul\":2921:2941   */\n      tag_94\n      jump\t// in\n    tag_139:\n        /* \"#utility.yul\":2916:2941   */\n      swap2\n      pop\n        /* \"#utility.yul\":2955:2975   */\n      tag_140\n        /* \"#utility.yul\":2973:2974   */\n      dup4\n        /* \"#utility.yul\":2955:2975   */\n      tag_94\n      jump\t// in\n    tag_140:\n        /* \"#utility.yul\":2950:2975   */\n      swap3\n      pop\n        /* \"#utility.yul\":2998:2999   */\n      dup3\n        /* \"#utility.yul\":2995:2996   */\n      dup3\n        /* \"#utility.yul\":2991:3000   */\n      add\n        /* \"#utility.yul\":2984:3000   */\n      swap1\n      pop\n        /* \"#utility.yul\":3019:3022   */\n      dup1\n        /* \"#utility.yul\":3016:3017   */\n      dup3\n        /* \"#utility.yul\":3013:3023   */\n      gt\n        /* \"#utility.yul\":3010:3046   */\n      iszero\n      tag_141\n      jumpi\n        /* \"#utility.yul\":3026:3044   */\n      tag_142\n      tag_102\n      jump\t// in\n    tag_142:\n        /* \"#utility.yul\":3010:3046   */\n    tag_141:\n        /* \"#utility.yul\":2862:3053   */\n      swap3\n      swap2\n      pop\n      pop\n      jump\t// out\n        /* \"#utility.yul\":3059:3239   */\n    tag_43:\n        /* \"#utility.yul\":3107:3184   */\n      0x4e487b7100000000000000000000000000000000000000000000000000000000\n        /* \"#utility.yul\":3104:3105   */\n      0x00\n        /* \"#utility.yul\":3097:3185   */\n      mstore\n        /* \"#utility.yul\":3204:3208   */\n      0x41\n        /* \"#utility.yul\":3201:3202   */\n      0x04\n        /* \"#utility.yul\":3194:3209   */\n      mstore\n        /* \"#utility.yul\":3228:3232   */\n      0x24\n        /* \"#utility.yul\":3225:3226   */\n      0x00\n        /* \"#utility.yul\":3218:3233   */\n      revert\n        /* \"#utility.yul\":3245:3425   */\n    tag_47:\n        /* \"#utility.yul\":3293:3370   */\n      0x4e487b7100000000000000000000000000000000000000000000000000000000\n        /* \"#utility.yul\":3290:3291   */\n      0x00\n        /* \"#utility.yul\":3283:3371   */\n      mstore\n        /* \"#utility.yul\":3390:3394   */\n      0x32\n        /* \"#utility.yul\":3387:3388   */\n      0x04\n        /* \"#utility.yul\":3380:3395   */\n      mstore\n        /* \"#utility.yul\":3414:3418   */\n      0x24\n        /* \"#utility.yul\":3411:3412   */\n      0x00\n        /* \"#utility.yul\":3404:3419   */\n      revert\n        /* \"#utility.yul\":3431:3602   */\n    tag_60:\n        /* \"#utility.yul\":3470:3473   */\n      0x00\n        /* \"#utility.yul\":3493:3517   */\n      tag_146\n        /* \"#utility.yul\":3511:3516   */\n      dup3\n        /* \"#utility.yul\":3493:3517   */\n      tag_94\n      jump\t// in\n    tag_146:\n        /* \"#utility.yul\":3484:3517   */\n      swap2\n      pop\n        /* \"#utility.yul\":3539:3543   */\n      0x00\n        /* \"#utility.yul\":3532:3537   */\n      dup3\n        /* \"#utility.yul\":3529:3544   */\n      sub\n        /* \"#utility.yul\":3526:3567   */\n      tag_147\n      jumpi\n        /* \"#utility.yul\":3547:3565   */\n      tag_148\n      tag_102\n      jump\t// in\n    tag_148:\n        /* \"#utility.yul\":3526:3567   */\n    tag_147:\n        /* \"#utility.yul\":3594:3595   */\n      0x01\n        /* \"#utility.yul\":3587:3592   */\n      dup3\n        /* \"#utility.yul\":3583:3596   */\n      sub\n        /* \"#utility.yul\":3576:3596   */\n      swap1\n      pop\n        /* \"#utility.yul\":3431:3602   */\n      swap2\n      swap1\n      pop\n      jump\t// out\n        /* \"#utility.yul\":3608:3790   */\n    tag_103:\n        /* \"#utility.yul\":3748:3782   */\n      0x537472696e67733a20686578206c656e67746820696e73756666696369656e74\n        /* \"#utility.yul\":3744:3745   */\n      0x00\n        /* \"#utility.yul\":3736:3742   */\n      dup3\n        /* \"#utility.yul\":3732:3746   */\n      add\n        /* \"#utility.yul\":3725:3783   */\n      mstore\n        /* \"#utility.yul\":3608:3790   */\n      pop\n      jump\t// out\n        /* \"#utility.yul\":3796:4162   */\n    tag_104:\n        /* \"#utility.yul\":3938:3941   */\n      0x00\n        /* \"#utility.yul\":3959:4026   */\n      tag_151\n        /* \"#utility.yul\":4023:4025   */\n      0x20\n        /* \"#utility.yul\":4018:4021   */\n      dup4\n        /* \"#utility.yul\":3959:4026   */\n      tag_98\n      jump\t// in\n    tag_151:\n        /* \"#utility.yul\":3952:4026   */\n      swap2\n      pop\n        /* \"#utility.yul\":4035:4128   */\n      tag_152\n        /* \"#utility.yul\":4124:4127   */\n      dup3\n        /* \"#utility.yul\":4035:4128   */\n      tag_103\n      jump\t// in\n    tag_152:\n        /* \"#utility.yul\":4153:4155   */\n      0x20\n        /* \"#utility.yul\":4148:4151   */\n      dup3\n        /* \"#utility.yul\":4144:4156   */\n      add\n        /* \"#utility.yul\":4137:4156   */\n      swap1\n      pop\n        /* \"#utility.yul\":3796:4162   */\n      swap2\n      swap1\n      pop\n      jump\t// out\n        /* \"#utility.yul\":4168:4587   */\n    tag_63:\n        /* \"#utility.yul\":4334:4338   */\n      0x00\n        /* \"#utility.yul\":4372:4374   */\n      0x20\n        /* \"#utility.yul\":4361:4370   */\n      dup3\n        /* \"#utility.yul\":4357:4375   */\n      add\n        /* \"#utility.yul\":4349:4375   */\n      swap1\n      pop\n        /* \"#utility.yul\":4421:4430   */\n      dup2\n        /* \"#utility.yul\":4415:4419   */\n      dup2\n        /* \"#utility.yul\":4411:4431   */\n      sub\n        /* \"#utility.yul\":4407:4408   */\n      0x00\n        /* \"#utility.yul\":4396:4405   */\n      dup4\n        /* \"#utility.yul\":4392:4409   */\n      add\n        /* \"#utility.yul\":4385:4432   */\n      mstore\n        /* \"#utility.yul\":4449:4580   */\n      tag_154\n        /* \"#utility.yul\":4575:4579   */\n      dup2\n        /* \"#utility.yul\":4449:4580   */\n      tag_104\n      jump\t// in\n    tag_154:\n        /* \"#utility.yul\":4441:4580   */\n      swap1\n      pop\n        /* \"#utility.yul\":4168:4587   */\n      swap2\n      swap1\n      pop\n      jump\t// out\n        /* \"#utility.yul\":4593:4826   */\n    tag_69:\n        /* \"#utility.yul\":4632:4635   */\n      0x00\n        /* \"#utility.yul\":4655:4679   */\n      tag_156\n        /* \"#utility.yul\":4673:4678   */\n      dup3\n        /* \"#utility.yul\":4655:4679   */\n      tag_94\n      jump\t// in\n    tag_156:\n        /* \"#utility.yul\":4646:4679   */\n      swap2\n      pop\n        /* \"#utility.yul\":4701:4767   */\n      0xffffffffffffffffffffffffffffffffffffffffffffffffffffffffffffffff\n        /* \"#utility.yul\":4694:4699   */\n      dup3\n        /* \"#utility.yul\":4691:4768   */\n      sub\n        /* \"#utility.yul\":4688:4791   */\n      tag_157\n      jumpi\n        /* \"#utility.yul\":4771:4789   */\n      tag_158\n      tag_102\n      jump\t// in\n    tag_158:\n        /* \"#utility.yul\":4688:4791   */\n    tag_157:\n        /* \"#utility.yul\":4818:4819   */\n      0x01\n        /* \"#utility.yul\":4811:4816   */\n      dup3\n        /* \"#utility.yul\":4807:4820   */\n      add\n        /* \"#utility.yul\":4800:4820   */\n      swap1\n      pop\n        /* \"#utility.yul\":4593:4826   */\n      swap2\n      swap1\n      pop\n      jump\t// out\n        /* \"#utility.yul\":4832:5012   */\n    tag_105:\n        /* \"#utility.yul\":4880:4957   */\n      0x4e487b7100000000000000000000000000000000000000000000000000000000\n        /* \"#utility.yul\":4877:4878   */\n      0x00\n        /* \"#utility.yul\":4870:4958   */\n      mstore\n        /* \"#utility.yul\":4977:4981   */\n      0x12\n        /* \"#utility.yul\":4974:4975   */\n      0x04\n        /* \"#utility.yul\":4967:4982   */\n      mstore\n        /* \"#utility.yul\":5001:5005   */\n      0x24\n        /* \"#utility.yul\":4998:4999   */\n      0x00\n        /* \"#utility.yul\":4991:5006   */\n      revert\n        /* \"#utility.yul\":5018:5203   */\n    tag_71:\n        /* \"#utility.yul\":5058:5059   */\n      0x00\n        /* \"#utility.yul\":5075:5095   */\n      tag_161\n        /* \"#utility.yul\":5093:5094   */\n      dup3\n        /* \"#utility.yul\":5075:5095   */\n      tag_94\n      jump\t// in\n    tag_161:\n        /* \"#utility.yul\":5070:5095   */\n      swap2\n      pop\n        /* \"#utility.yul\":5109:5129   */\n      tag_162\n        /* \"#utility.yul\":5127:5128   */\n      dup4\n        /* \"#utility.yul\":5109:5129   */\n      tag_94\n      jump\t// in\n    tag_162:\n        /* \"#utility.yul\":5104:5129   */\n      swap3\n      pop\n        /* \"#utility.yul\":5148:5149   */\n      dup3\n        /* \"#utility.yul\":5138:5173   */\n      tag_163\n      jumpi\n        /* \"#utility.yul\":5153:5171   */\n      tag_164\n      tag_105\n      jump\t// in\n    tag_164:\n        /* \"#utility.yul\":5138:5173   */\n    tag_163:\n        /* \"#utility.yul\":5195:5196   */\n      dup3\n        /* \"#utility.yul\":5192:5193   */\n      dup3\n        /* \"#utility.yul\":5188:5197   */\n      div\n        /* \"#utility.yul\":5183:5197   */\n      swap1\n      pop\n        /* \"#utility.yul\":5018:5203   */\n      swap3\n      swap2\n      pop\n      pop\n      jump\t// out\n        /* \"#utility.yul\":5209:5403   */\n    tag_78:\n        /* \"#utility.yul\":5249:5253   */\n      0x00\n        /* \"#utility.yul\":5269:5289   */\n      tag_166\n        /* \"#utility.yul\":5287:5288   */\n      dup3\n        /* \"#utility.yul\":5269:5289   */\n      tag_94\n      jump\t// in\n    tag_166:\n        /* \"#utility.yul\":5264:5289   */\n      swap2\n      pop\n        /* \"#utility.yul\":5303:5323   */\n      tag_167\n        /* \"#utility.yul\":5321:5322   */\n      dup4\n        /* \"#utility.yul\":5303:5323   */\n      tag_94\n      jump\t// in\n    tag_167:\n        /* \"#utility.yul\":5298:5323   */\n      swap3\n      pop\n        /* \"#utility.yul\":5347:5348   */\n      dup3\n        /* \"#utility.yul\":5344:5345   */\n      dup3\n        /* \"#utility.yul\":5340:5349   */\n      sub\n        /* \"#utility.yul\":5332:5349   */\n      swap1\n      pop\n        /* \"#utility.yul\":5371:5372   */\n      dup2\n        /* \"#utility.yul\":5365:5369   */\n      dup2\n        /* \"#utility.yul\":5362:5373   */\n      gt\n        /* \"#utility.yul\":5359:5396   */\n      iszero\n      tag_168\n      jumpi\n        /* \"#utility.yul\":5376:5394   */\n      tag_169\n      tag_102\n      jump\t// in\n    tag_169:\n        /* \"#utility.yul\":5359:5396   */\n    tag_168:\n        /* \"#utility.yul\":5209:5403   */\n      swap3\n      swap2\n      pop\n      pop\n      jump\t// out\n        /* \"#utility.yul\":5409:5585   */\n    tag_80:\n        /* \"#utility.yul\":5441:5442   */\n      0x00\n        /* \"#utility.yul\":5458:5478   */\n      tag_171\n        /* \"#utility.yul\":5476:5477   */\n      dup3\n        /* \"#utility.yul\":5458:5478   */\n      tag_94\n      jump\t// in\n    tag_171:\n        /* \"#utility.yul\":5453:5478   */\n      swap2\n      pop\n        /* \"#utility.yul\":5492:5512   */\n      tag_172\n        /* \"#utility.yul\":5510:5511   */\n      dup4\n        /* \"#utility.yul\":5492:5512   */\n      tag_94\n      jump\t// in\n    tag_172:\n        /* \"#utility.yul\":5487:5512   */\n      swap3\n      pop\n        /* \"#utility.yul\":5531:5532   */\n      dup3\n        /* \"#utility.yul\":5521:5556   */\n      tag_173\n      jumpi\n        /* \"#utility.yul\":5536:5554   */\n      tag_174\n      tag_105\n      jump\t// in\n    tag_174:\n        /* \"#utility.yul\":5521:5556   */\n    tag_173:\n        /* \"#utility.yul\":5577:5578   */\n      dup3\n        /* \"#utility.yul\":5574:5575   */\n      dup3\n        /* \"#utility.yul\":5570:5579   */\n      mod\n        /* \"#utility.yul\":5565:5579   */\n      swap1\n      pop\n        /* \"#utility.yul\":5409:5585   */\n      swap3\n      swap2\n      pop\n      pop\n      jump\t// out\n\n    auxdata: 0xa2646970667358221220e0631c1824be33232c8b94313ab55638c9cccd7a62c9c4c7cbb022e542530cff64736f6c634300081e0033\n}\n",
				"bytecode": {
					"linkReferences": {},
					"object": "6080604052348015600e575f5ffd5b5061092b8061001c5f395ff3fe608060405234801561000f575f5ffd5b506004361061004a575f3560e01c80634d6d8ae91461004e578063d6ee0f321461007e578063e65eac98146100ae578063f4169a0a146100de575b5f5ffd5b610068600480360381019061006391906105a9565b61010e565b6040516100759190610644565b60405180910390f35b610098600480360381019061009391906105a9565b61012a565b6040516100a59190610644565b60405180910390f35b6100c860048036038101906100c391906105a9565b61013c565b6040516100d59190610644565b60405180910390f35b6100f860048036038101906100f391906105a9565b61014e565b6040516101059190610644565b60405180910390f35b6060610123828361016090919063ffffffff16565b9050919050565b606061013582610395565b9050919050565b6060610147826104ee565b9050919050565b606061015982610395565b9050919050565b60605f60028360026101729190610691565b61017c91906106d2565b67ffffffffffffffff81111561019557610194610705565b5b6040519080825280601f01601f1916602001820160405280156101c75781602001600182028036833780820191505090505b5090507f3000000000000000000000000000000000000000000000000000000000000000815f815181106101fe576101fd610732565b5b60200101907effffffffffffffffffffffffffffffffffffffffffffffffffffffffffffff191690815f1a9053507f78000000000000000000000000000000000000000000000000000000000000008160018151811061026157610260610732565b5b60200101907effffffffffffffffffffffffffffffffffffffffffffffffffffffffffffff191690815f1a9053505f600184600261029f9190610691565b6102a991906106d2565b90505b6001811115610348577f3031323334353637383961626364656600000000000000000000000000000000600f8616601081106102eb576102ea610732565b5b1a60f81b82828151811061030257610301610732565b5b60200101907effffffffffffffffffffffffffffffffffffffffffffffffffffffffffffff191690815f1a905350600485901c9450806103419061075f565b90506102ac565b505f841461038b576040517f08c379a0000000000000000000000000000000000000000000000000000000008152600401610382906107d0565b60405180910390fd5b8091505092915050565b60605f82036103db576040518060400160405280600181526020017f300000000000000000000000000000000000000000000000000000000000000081525090506104e9565b5f8290505f5b5f821461040a5780806103f3906107ee565b915050600a826104039190610862565b91506103e1565b5f8167ffffffffffffffff81111561042557610424610705565b5b6040519080825280601f01601f1916602001820160405280156104575781602001600182028036833780820191505090505b5090505b5f85146104e25760018261046f9190610892565b9150600a8561047e91906108c5565b603061048a91906106d2565b60f81b8183815181106104a05761049f610732565b5b60200101907effffffffffffffffffffffffffffffffffffffffffffffffffffffffffffff191690815f1a905350600a856104db9190610862565b945061045b565b8093505050505b919050565b60605f8203610534576040518060400160405280600481526020017f3078303000000000000000000000000000000000000000000000000000000000815250905061056d565b5f8290505f5f90505b5f821461055e57808061054f906107ee565b915050600882901c915061053d565b6105688482610160565b925050505b919050565b5f5ffd5b5f819050919050565b61058881610576565b8114610592575f5ffd5b50565b5f813590506105a38161057f565b92915050565b5f602082840312156105be576105bd610572565b5b5f6105cb84828501610595565b91505092915050565b5f81519050919050565b5f82825260208201905092915050565b8281835e5f83830152505050565b5f601f19601f8301169050919050565b5f610616826105d4565b61062081856105de565b93506106308185602086016105ee565b610639816105fc565b840191505092915050565b5f6020820190508181035f83015261065c818461060c565b905092915050565b7f4e487b71000000000000000000000000000000000000000000000000000000005f52601160045260245ffd5b5f61069b82610576565b91506106a683610576565b92508282026106b481610576565b915082820484148315176106cb576106ca610664565b5b5092915050565b5f6106dc82610576565b91506106e783610576565b92508282019050808211156106ff576106fe610664565b5b92915050565b7f4e487b71000000000000000000000000000000000000000000000000000000005f52604160045260245ffd5b7f4e487b71000000000000000000000000000000000000000000000000000000005f52603260045260245ffd5b5f61076982610576565b91505f820361077b5761077a610664565b5b600182039050919050565b7f537472696e67733a20686578206c656e67746820696e73756666696369656e745f82015250565b5f6107ba6020836105de565b91506107c582610786565b602082019050919050565b5f6020820190508181035f8301526107e7816107ae565b9050919050565b5f6107f882610576565b91507fffffffffffffffffffffffffffffffffffffffffffffffffffffffffffffffff820361082a57610829610664565b5b600182019050919050565b7f4e487b71000000000000000000000000000000000000000000000000000000005f52601260045260245ffd5b5f61086c82610576565b915061087783610576565b92508261088757610886610835565b5b828204905092915050565b5f61089c82610576565b91506108a783610576565b92508282039050818111156108bf576108be610664565b5b92915050565b5f6108cf82610576565b91506108da83610576565b9250826108ea576108e9610835565b5b82820690509291505056fea2646970667358221220e0631c1824be33232c8b94313ab55638c9cccd7a62c9c4c7cbb022e542530cff64736f6c634300081e0033",
					"opcodes": "PUSH1 0x80 PUSH1 0x40 MSTORE CALLVALUE DUP1 ISZERO PUSH1 0xE JUMPI PUSH0 PUSH0 REVERT JUMPDEST POP PUSH2 0x92B DUP1 PUSH2 0x1C PUSH0 CODECOPY PUSH0 RETURN INVALID PUSH1 0x80 PUSH1 0x40 MSTORE CALLVALUE DUP1 ISZERO PUSH2 0xF JUMPI PUSH0 PUSH0 REVERT JUMPDEST POP PUSH1 0x4 CALLDATASIZE LT PUSH2 0x4A JUMPI PUSH0 CALLDATALOAD PUSH1 0xE0 SHR DUP1 PUSH4 0x4D6D8AE9 EQ PUSH2 0x4E JUMPI DUP1 PUSH4 0xD6EE0F32 EQ PUSH2 0x7E JUMPI DUP1 PUSH4 0xE65EAC98 EQ PUSH2 0xAE JUMPI DUP1 PUSH4 0xF4169A0A EQ PUSH2 0xDE JUMPI JUMPDEST PUSH0 PUSH0 REVERT JUMPDEST PUSH2 0x68 PUSH1 0x4 DUP1 CALLDATASIZE SUB DUP2 ADD SWAP1 PUSH2 0x63 SWAP2 SWAP1 PUSH2 0x5A9 JUMP JUMPDEST PUSH2 0x10E JUMP JUMPDEST PUSH1 0x40 MLOAD PUSH2 0x75 SWAP2 SWAP1 PUSH2 0x644 JUMP JUMPDEST PUSH1 0x40 MLOAD DUP1 SWAP2 SUB SWAP1 RETURN JUMPDEST PUSH2 0x98 PUSH1 0x4 DUP1 CALLDATASIZE SUB DUP2 ADD SWAP1 PUSH2 0x93 SWAP2 SWAP1 PUSH2 0x5A9 JUMP JUMPDEST PUSH2 0x12A JUMP JUMPDEST PUSH1 0x40 MLOAD PUSH2 0xA5 SWAP2 SWAP1 PUSH2 0x644 JUMP JUMPDEST PUSH1 0x40 MLOAD DUP1 SWAP2 SUB SWAP1 RETURN JUMPDEST PUSH2 0xC8 PUSH1 0x4 DUP1 CALLDATASIZE SUB DUP2 ADD SWAP1 PUSH2 0xC3 SWAP2 SWAP1 PUSH2 0x5A9 JUMP JUMPDEST PUSH2 0x13C JUMP JUMPDEST PUSH1 0x40 MLOAD PUSH2 0xD5 SWAP2 SWAP1 PUSH2 0x644 JUMP JUMPDEST PUSH1 0x40 MLOAD DUP1 SWAP2 SUB SWAP1 RETURN JUMPDEST PUSH2 0xF8 PUSH1 0x4 DUP1 CALLDATASIZE SUB DUP2 ADD SWAP1 PUSH2 0xF3 SWAP2 SWAP1 PUSH2 0x5A9 JUMP JUMPDEST PUSH2 0x14E JUMP JUMPDEST PUSH1 0x40 MLOAD PUSH2 0x105 SWAP2 SWAP1 PUSH2 0x644 JUMP JUMPDEST PUSH1 0x40 MLOAD DUP1 SWAP2 SUB SWAP1 RETURN JUMPDEST PUSH1 0x60 PUSH2 0x123 DUP3 DUP4 PUSH2 0x160 SWAP1 SWAP2 SWAP1 PUSH4 0xFFFFFFFF AND JUMP JUMPDEST SWAP1 POP SWAP2 SWAP1 POP JUMP JUMPDEST PUSH1 0x60 PUSH2 0x135 DUP3 PUSH2 0x395 JUMP JUMPDEST SWAP1 POP SWAP2 SWAP1 POP JUMP JUMPDEST PUSH1 0x60 PUSH2 0x147 DUP3 PUSH2 0x4EE JUMP JUMPDEST SWAP1 POP SWAP2 SWAP1 POP JUMP JUMPDEST PUSH1 0x60 PUSH2 0x159 DUP3 PUSH2 0x395 JUMP JUMPDEST SWAP1 POP SWAP2 SWAP1 POP JUMP JUMPDEST PUSH1 0x60 PUSH0 PUSH1 0x2 DUP4 PUSH1 0x2 PUSH2 0x172 SWAP2 SWAP1 PUSH2 0x691 JUMP JUMPDEST PUSH2 0x17C SWAP2 SWAP1 PUSH2 0x6D2 JUMP JUMPDEST PUSH8 0xFFFFFFFFFFFFFFFF DUP2 GT ISZERO PUSH2 0x195 JUMPI PUSH2 0x194 PUSH2 0x705 JUMP JUMPDEST JUMPDEST PUSH1 0x40 MLOAD SWAP1 DUP1 DUP3 MSTORE DUP1 PUSH1 0x1F ADD PUSH1 0x1F NOT AND PUSH1 0x20 ADD DUP3 ADD PUSH1 0x40 MSTORE DUP1 ISZERO PUSH2 0x1C7 JUMPI DUP2 PUSH1 0x20 ADD PUSH1 0x1 DUP3 MUL DUP1 CALLDATASIZE DUP4 CALLDATACOPY DUP1 DUP3 ADD SWAP2 POP POP SWAP1 POP JUMPDEST POP SWAP1 POP PUSH32 0x3000000000000000000000000000000000000000000000000000000000000000 DUP2 PUSH0 DUP2 MLOAD DUP2 LT PUSH2 0x1FE JUMPI PUSH2 0x1FD PUSH2 0x732 JUMP JUMPDEST JUMPDEST PUSH1 0x20 ADD ADD SWAP1 PUSH31 0xFFFFFFFFFFFFFFFFFFFFFFFFFFFFFFFFFFFFFFFFFFFFFFFFFFFFFFFFFFFFFF NOT AND SWAP1 DUP2 PUSH0 BYTE SWAP1 MSTORE8 POP PUSH32 0x7800000000000000000000000000000000000000000000000000000000000000 DUP2 PUSH1 0x1 DUP2 MLOAD DUP2 LT PUSH2 0x261 JUMPI PUSH2 0x260 PUSH2 0x732 JUMP JUMPDEST JUMPDEST PUSH1 0x20 ADD ADD SWAP1 PUSH31 0xFFFFFFFFFFFFFFFFFFFFFFFFFFFFFFFFFFFFFFFFFFFFFFFFFFFFFFFFFFFFFF NOT AND SWAP1 DUP2 PUSH0 BYTE SWAP1 MSTORE8 POP PUSH0 PUSH1 0x1 DUP5 PUSH1 0x2 PUSH2 0x29F SWAP2 SWAP1 PUSH2 0x691 JUMP JUMPDEST PUSH2 0x2A9 SWAP2 SWAP1 PUSH2 0x6D2 JUMP JUMPDEST SWAP1 POP JUMPDEST PUSH1 0x1 DUP2 GT ISZERO PUSH2 0x348 JUMPI PUSH32 0x3031323334353637383961626364656600000000000000000000000000000000 PUSH1 0xF DUP7 AND PUSH1 0x10 DUP2 LT PUSH2 0x2EB JUMPI PUSH2 0x2EA PUSH2 0x732 JUMP JUMPDEST JUMPDEST BYTE PUSH1 0xF8 SHL DUP3 DUP3 DUP2 MLOAD DUP2 LT PUSH2 0x302 JUMPI PUSH2 0x301 PUSH2 0x732 JUMP JUMPDEST JUMPDEST PUSH1 0x20 ADD ADD SWAP1 PUSH31 0xFFFFFFFFFFFFFFFFFFFFFFFFFFFFFFFFFFFFFFFFFFFFFFFFFFFFFFFFFFFFFF NOT AND SWAP1 DUP2 PUSH0 BYTE SWAP1 MSTORE8 POP PUSH1 0x4 DUP6 SWAP1 SHR SWAP5 POP DUP1 PUSH2 0x341 SWAP1 PUSH2 0x75F JUMP JUMPDEST SWAP1 POP PUSH2 0x2AC JUMP JUMPDEST POP PUSH0 DUP5 EQ PUSH2 0x38B JUMPI PUSH1 0x40 MLOAD PUSH32 0x8C379A000000000000000000000000000000000000000000000000000000000 DUP2 MSTORE PUSH1 0x4 ADD PUSH2 0x382 SWAP1 PUSH2 0x7D0 JUMP JUMPDEST PUSH1 0x40 MLOAD DUP1 SWAP2 SUB SWAP1 REVERT JUMPDEST DUP1 SWAP2 POP POP SWAP3 SWAP2 POP POP JUMP JUMPDEST PUSH1 0x60 PUSH0 DUP3 SUB PUSH2 0x3DB JUMPI PUSH1 0x40 MLOAD DUP1 PUSH1 0x40 ADD PUSH1 0x40 MSTORE DUP1 PUSH1 0x1 DUP2 MSTORE PUSH1 0x20 ADD PUSH32 0x3000000000000000000000000000000000000000000000000000000000000000 DUP2 MSTORE POP SWAP1 POP PUSH2 0x4E9 JUMP JUMPDEST PUSH0 DUP3 SWAP1 POP PUSH0 JUMPDEST PUSH0 DUP3 EQ PUSH2 0x40A JUMPI DUP1 DUP1 PUSH2 0x3F3 SWAP1 PUSH2 0x7EE JUMP JUMPDEST SWAP2 POP POP PUSH1 0xA DUP3 PUSH2 0x403 SWAP2 SWAP1 PUSH2 0x862 JUMP JUMPDEST SWAP2 POP PUSH2 0x3E1 JUMP JUMPDEST PUSH0 DUP2 PUSH8 0xFFFFFFFFFFFFFFFF DUP2 GT ISZERO PUSH2 0x425 JUMPI PUSH2 0x424 PUSH2 0x705 JUMP JUMPDEST JUMPDEST PUSH1 0x40 MLOAD SWAP1 DUP1 DUP3 MSTORE DUP1 PUSH1 0x1F ADD PUSH1 0x1F NOT AND PUSH1 0x20 ADD DUP3 ADD PUSH1 0x40 MSTORE DUP1 ISZERO PUSH2 0x457 JUMPI DUP2 PUSH1 0x20 ADD PUSH1 0x1 DUP3 MUL DUP1 CALLDATASIZE DUP4 CALLDATACOPY DUP1 DUP3 ADD SWAP2 POP POP SWAP1 POP JUMPDEST POP SWAP1 POP JUMPDEST PUSH0 DUP6 EQ PUSH2 0x4E2 JUMPI PUSH1 0x1 DUP3 PUSH2 0x46F SWAP2 SWAP1 PUSH2 0x892 JUMP JUMPDEST SWAP2 POP PUSH1 0xA DUP6 PUSH2 0x47E SWAP2 SWAP1 PUSH2 0x8C5 JUMP JUMPDEST PUSH1 0x30 PUSH2 0x48A SWAP2 SWAP1 PUSH2 0x6D2 JUMP JUMPDEST PUSH1 0xF8 SHL DUP2 DUP4 DUP2 MLOAD DUP2 LT PUSH2 0x4A0 JUMPI PUSH2 0x49F PUSH2 0x732 JUMP JUMPDEST JUMPDEST PUSH1 0x20 ADD ADD SWAP1 PUSH31 0xFFFFFFFFFFFFFFFFFFFFFFFFFFFFFFFFFFFFFFFFFFFFFFFFFFFFFFFFFFFFFF NOT AND SWAP1 DUP2 PUSH0 BYTE SWAP1 MSTORE8 POP PUSH1 0xA DUP6 PUSH2 0x4DB SWAP2 SWAP1 PUSH2 0x862 JUMP JUMPDEST SWAP5 POP PUSH2 0x45B JUMP JUMPDEST DUP1 SWAP4 POP POP POP POP JUMPDEST SWAP2 SWAP1 POP JUMP JUMPDEST PUSH1 0x60 PUSH0 DUP3 SUB PUSH2 0x534 JUMPI PUSH1 0x40 MLOAD DUP1 PUSH1 0x40 ADD PUSH1 0x40 MSTORE DUP1 PUSH1 0x4 DUP2 MSTORE PUSH1 0x20 ADD PUSH32 0x3078303000000000000000000000000000000000000000000000000000000000 DUP2 MSTORE POP SWAP1 POP PUSH2 0x56D JUMP JUMPDEST PUSH0 DUP3 SWAP1 POP PUSH0 PUSH0 SWAP1 POP JUMPDEST PUSH0 DUP3 EQ PUSH2 0x55E JUMPI DUP1 DUP1 PUSH2 0x54F SWAP1 PUSH2 0x7EE JUMP JUMPDEST SWAP2 POP POP PUSH1 0x8 DUP3 SWAP1 SHR SWAP2 POP PUSH2 0x53D JUMP JUMPDEST PUSH2 0x568 DUP5 DUP3 PUSH2 0x160 JUMP JUMPDEST SWAP3 POP POP POP JUMPDEST SWAP2 SWAP1 POP JUMP JUMPDEST PUSH0 PUSH0 REVERT JUMPDEST PUSH0 DUP2 SWAP1 POP SWAP2 SWAP1 POP JUMP JUMPDEST PUSH2 0x588 DUP2 PUSH2 0x576 JUMP JUMPDEST DUP2 EQ PUSH2 0x592 JUMPI PUSH0 PUSH0 REVERT JUMPDEST POP JUMP JUMPDEST PUSH0 DUP2 CALLDATALOAD SWAP1 POP PUSH2 0x5A3 DUP2 PUSH2 0x57F JUMP JUMPDEST SWAP3 SWAP2 POP POP JUMP JUMPDEST PUSH0 PUSH1 0x20 DUP3 DUP5 SUB SLT ISZERO PUSH2 0x5BE JUMPI PUSH2 0x5BD PUSH2 0x572 JUMP JUMPDEST JUMPDEST PUSH0 PUSH2 0x5CB DUP5 DUP3 DUP6 ADD PUSH2 0x595 JUMP JUMPDEST SWAP2 POP POP SWAP3 SWAP2 POP POP JUMP JUMPDEST PUSH0 DUP2 MLOAD SWAP1 POP SWAP2 SWAP1 POP JUMP JUMPDEST PUSH0 DUP3 DUP3 MSTORE PUSH1 0x20 DUP3 ADD SWAP1 POP SWAP3 SWAP2 POP POP JUMP JUMPDEST DUP3 DUP2 DUP4 MCOPY PUSH0 DUP4 DUP4 ADD MSTORE POP POP POP JUMP JUMPDEST PUSH0 PUSH1 0x1F NOT PUSH1 0x1F DUP4 ADD AND SWAP1 POP SWAP2 SWAP1 POP JUMP JUMPDEST PUSH0 PUSH2 0x616 DUP3 PUSH2 0x5D4 JUMP JUMPDEST PUSH2 0x620 DUP2 DUP6 PUSH2 0x5DE JUMP JUMPDEST SWAP4 POP PUSH2 0x630 DUP2 DUP6 PUSH1 0x20 DUP7 ADD PUSH2 0x5EE JUMP JUMPDEST PUSH2 0x639 DUP2 PUSH2 0x5FC JUMP JUMPDEST DUP5 ADD SWAP2 POP POP SWAP3 SWAP2 POP POP JUMP JUMPDEST PUSH0 PUSH1 0x20 DUP3 ADD SWAP1 POP DUP2 DUP2 SUB PUSH0 DUP4 ADD MSTORE PUSH2 0x65C DUP2 DUP5 PUSH2 0x60C JUMP JUMPDEST SWAP1 POP SWAP3 SWAP2 POP POP JUMP JUMPDEST PUSH32 0x4E487B7100000000000000000000000000000000000000000000000000000000 PUSH0 MSTORE PUSH1 0x11 PUSH1 0x4 MSTORE PUSH1 0x24 PUSH0 REVERT JUMPDEST PUSH0 PUSH2 0x69B DUP3 PUSH2 0x576 JUMP JUMPDEST SWAP2 POP PUSH2 0x6A6 DUP4 PUSH2 0x576 JUMP JUMPDEST SWAP3 POP DUP3 DUP3 MUL PUSH2 0x6B4 DUP2 PUSH2 0x576 JUMP JUMPDEST SWAP2 POP DUP3 DUP3 DIV DUP5 EQ DUP4 ISZERO OR PUSH2 0x6CB JUMPI PUSH2 0x6CA PUSH2 0x664 JUMP JUMPDEST JUMPDEST POP SWAP3 SWAP2 POP POP JUMP JUMPDEST PUSH0 PUSH2 0x6DC DUP3 PUSH2 0x576 JUMP JUMPDEST SWAP2 POP PUSH2 0x6E7 DUP4 PUSH2 0x576 JUMP JUMPDEST SWAP3 POP DUP3 DUP3 ADD SWAP1 POP DUP1 DUP3 GT ISZERO PUSH2 0x6FF JUMPI PUSH2 0x6FE PUSH2 0x664 JUMP JUMPDEST JUMPDEST SWAP3 SWAP2 POP POP JUMP JUMPDEST PUSH32 0x4E487B7100000000000000000000000000000000000000000000000000000000 PUSH0 MSTORE PUSH1 0x41 PUSH1 0x4 MSTORE PUSH1 0x24 PUSH0 REVERT JUMPDEST PUSH32 0x4E487B7100000000000000000000000000000000000000000000000000000000 PUSH0 MSTORE PUSH1 0x32 PUSH1 0x4 MSTORE PUSH1 0x24 PUSH0 REVERT JUMPDEST PUSH0 PUSH2 0x769 DUP3 PUSH2 0x576 JUMP JUMPDEST SWAP2 POP PUSH0 DUP3 SUB PUSH2 0x77B JUMPI PUSH2 0x77A PUSH2 0x664 JUMP JUMPDEST JUMPDEST PUSH1 0x1 DUP3 SUB SWAP1 POP SWAP2 SWAP1 POP JUMP JUMPDEST PUSH32 0x537472696E67733A20686578206C656E67746820696E73756666696369656E74 PUSH0 DUP3 ADD MSTORE POP JUMP JUMPDEST PUSH0 PUSH2 0x7BA PUSH1 0x20 DUP4 PUSH2 0x5DE JUMP JUMPDEST SWAP2 POP PUSH2 0x7C5 DUP3 PUSH2 0x786 JUMP JUMPDEST PUSH1 0x20 DUP3 ADD SWAP1 POP SWAP2 SWAP1 POP JUMP JUMPDEST PUSH0 PUSH1 0x20 DUP3 ADD SWAP1 POP DUP2 DUP2 SUB PUSH0 DUP4 ADD MSTORE PUSH2 0x7E7 DUP2 PUSH2 0x7AE JUMP JUMPDEST SWAP1 POP SWAP2 SWAP1 POP JUMP JUMPDEST PUSH0 PUSH2 0x7F8 DUP3 PUSH2 0x576 JUMP JUMPDEST SWAP2 POP PUSH32 0xFFFFFFFFFFFFFFFFFFFFFFFFFFFFFFFFFFFFFFFFFFFFFFFFFFFFFFFFFFFFFFFF DUP3 SUB PUSH2 0x82A JUMPI PUSH2 0x829 PUSH2 0x664 JUMP JUMPDEST JUMPDEST PUSH1 0x1 DUP3 ADD SWAP1 POP SWAP2 SWAP1 POP JUMP JUMPDEST PUSH32 0x4E487B7100000000000000000000000000000000000000000000000000000000 PUSH0 MSTORE PUSH1 0x12 PUSH1 0x4 MSTORE PUSH1 0x24 PUSH0 REVERT JUMPDEST PUSH0 PUSH2 0x86C DUP3 PUSH2 0x576 JUMP JUMPDEST SWAP2 POP PUSH2 0x877 DUP4 PUSH2 0x576 JUMP JUMPDEST SWAP3 POP DUP3 PUSH2 0x887 JUMPI PUSH2 0x886 PUSH2 0x835 JUMP JUMPDEST JUMPDEST DUP3 DUP3 DIV SWAP1 POP SWAP3 SWAP2 POP POP JUMP JUMPDEST PUSH0 PUSH2 0x89C DUP3 PUSH2 0x576 JUMP JUMPDEST SWAP2 POP PUSH2 0x8A7 DUP4 PUSH2 0x576 JUMP JUMPDEST SWAP3 POP DUP3 DUP3 SUB SWAP1 POP DUP2 DUP2 GT ISZERO PUSH2 0x8BF JUMPI PUSH2 0x8BE PUSH2 0x664 JUMP JUMPDEST JUMPDEST SWAP3 SWAP2 POP POP JUMP JUMPDEST PUSH0 PUSH2 0x8CF DUP3 PUSH2 0x576 JUMP JUMPDEST SWAP2 POP PUSH2 0x8DA DUP4 PUSH2 0x576 JUMP JUMPDEST SWAP3 POP DUP3 PUSH2 0x8EA JUMPI PUSH2 0x8E9 PUSH2 0x835 JUMP JUMPDEST JUMPDEST DUP3 DUP3 MOD SWAP1 POP SWAP3 SWAP2 POP POP JUMP INVALID LOG2 PUSH5 0x6970667358 0x22 SLT KECCAK256 RJUMP 0x631C XOR 0x24 0xBE CALLER 0x23 0x2C DUP12 SWAP5 BALANCE GASPRICE 0xB5 JUMP CODESIZE 0xC9 0xCC 0xCD PUSH27 0x62C9C4C7CBB022E542530CFF64736F6C634300081E003300000000 "
				},
				"gasEstimates": {
					"creation": {
						"codeDepositCost": "469400",
						"executionCost": "503",
						"totalCost": "469903"
					},
					"external": {
						"getString1(uint256)": "infinite",
						"getString2(uint256)": "infinite",
						"getString3(uint256)": "infinite",
						"getString4(uint256)": "infinite"
					}
				},
				"methodIdentifiers": {
					"getString1(uint256)": "d6ee0f32",
					"getString2(uint256)": "e65eac98",
					"getString3(uint256)": "4d6d8ae9",
					"getString4(uint256)": "f4169a0a"
				}
			},
			"storageLayout": {
				"storage": [],
				"types": null
			},
			"userdoc": {
				"kind": "user",
				"methods": {},
				"version": 1
			}
		}
	}
}