{
	"Selector.sol": {
		"Selector": {
			"abi": [
				{
					"anonymous": false,
					"inputs": [
						{
							"indexed": false,
							"internalType": "bytes",
							"name": "data",
							"type": "bytes"
						}
					],
					"name": "Log",
					"type": "event"
				},
				{
					"anonymous": false,
					"inputs": [
						{
							"indexed": false,
							"internalType": "bytes4",
							"name": "",
							"type": "bytes4"
						}
					],
					"name": "SelectorEvent",
					"type": "event"
				},
				{
					"inputs": [
						{
							"internalType": "uint256",
							"name": "param1",
							"type": "uint256"
						},
						{
							"internalType": "bool",
							"name": "param2",
							"type": "bool"
						}
					],
					"name": "elementaryParamSelector",
					"outputs": [
						{
							"internalType": "bytes4",
							"name": "selectWithElementaryParam",
							"type": "bytes4"
						}
					],
					"stateMutability": "nonpayable",
					"type": "function"
				},
				{
					"inputs": [
						{
							"internalType": "address",
							"name": "",
							"type": "address"
						}
					],
					"name": "mint",
					"outputs": [],
					"stateMutability": "nonpayable",
					"type": "function"
				},
				{
					"inputs": [],
					"name": "mintSelector",
					"outputs": [
						{
							"internalType": "bytes4",
							"name": "mSelector",
							"type": "bytes4"
						}
					],
					"stateMutability": "pure",
					"type": "function"
				},
				{
					"inputs": [],
					"name": "nonParamSelector",
					"outputs": [
						{
							"internalType": "bytes4",
							"name": "selectorWithNonParam",
							"type": "bytes4"
						}
					],
					"stateMutability": "nonpayable",
					"type": "function"
				}
			],
			"devdoc": {
				"kind": "dev",
				"methods": {},
				"version": 1
			},
			"evm": {
				"assembly": "    /* \"Selector.sol\":60:1113  contract Selector {... */\n  mstore(0x40, 0x80)\n  callvalue\n  dup1\n  iszero\n  tag_1\n  jumpi\n  revert(0x00, 0x00)\ntag_1:\n  pop\n  dataSize(sub_0)\n  dup1\n  dataOffset(sub_0)\n  0x00\n  codecopy\n  0x00\n  return\nstop\n\nsub_0: assembly {\n        /* \"Selector.sol\":60:1113  contract Selector {... */\n      mstore(0x40, 0x80)\n      callvalue\n      dup1\n      iszero\n      tag_1\n      jumpi\n      revert(0x00, 0x00)\n    tag_1:\n      pop\n      jumpi(tag_2, lt(calldatasize, 0x04))\n      shr(0xe0, calldataload(0x00))\n      dup1\n      0x03817936\n      eq\n      tag_3\n      jumpi\n      dup1\n      0x046dab16\n      eq\n      tag_4\n      jumpi\n      dup1\n      0x3ec37834\n      eq\n      tag_5\n      jumpi\n      dup1\n      0x6a627842\n      eq\n      tag_6\n      jumpi\n    tag_2:\n      revert(0x00, 0x00)\n        /* \"Selector.sol\":510:710  function nonParamSelector() external returns (bytes4 selectorWithNonParam) {... */\n    tag_3:\n      tag_7\n      tag_8\n      jump\t// in\n    tag_7:\n      mload(0x40)\n      tag_9\n      swap2\n      swap1\n      tag_10\n      jump\t// in\n    tag_9:\n      mload(0x40)\n      dup1\n      swap2\n      sub\n      swap1\n      return\n        /* \"Selector.sol\":377:502  function mintSelector() external  pure returns(bytes4 mSelector) {... */\n    tag_4:\n      tag_11\n      tag_12\n      jump\t// in\n    tag_11:\n      mload(0x40)\n      tag_13\n      swap2\n      swap1\n      tag_10\n      jump\t// in\n    tag_13:\n      mload(0x40)\n      dup1\n      swap2\n      sub\n      swap1\n      return\n        /* \"Selector.sol\":718:986  function elementaryParamSelector (uint256 param1, bool param2) external  returns (bytes4 selectWithElementaryParam) {... */\n    tag_5:\n      tag_14\n      0x04\n      dup1\n      calldatasize\n      sub\n      dup2\n      add\n      swap1\n      tag_15\n      swap2\n      swap1\n      tag_16\n      jump\t// in\n    tag_15:\n      tag_17\n      jump\t// in\n    tag_14:\n      mload(0x40)\n      tag_18\n      swap2\n      swap1\n      tag_10\n      jump\t// in\n    tag_18:\n      mload(0x40)\n      dup1\n      swap2\n      sub\n      swap1\n      return\n        /* \"Selector.sol\":300:369  function mint(address ) external{... */\n    tag_6:\n      tag_19\n      0x04\n      dup1\n      calldatasize\n      sub\n      dup2\n      add\n      swap1\n      tag_20\n      swap2\n      swap1\n      tag_21\n      jump\t// in\n    tag_20:\n      tag_22\n      jump\t// in\n    tag_19:\n      stop\n        /* \"Selector.sol\":510:710  function nonParamSelector() external returns (bytes4 selectorWithNonParam) {... */\n    tag_8:\n        /* \"Selector.sol\":556:583  bytes4 selectorWithNonParam */\n      0x00\n        /* \"Selector.sol\":601:646  SelectorEvent(this.nonParamSelector.selector) */\n      0x87c76683e354abe8640b03c72d02c9175d9a00a6c0101d5bc4be081b9b8199eb\n        /* \"Selector.sol\":615:645  this.nonParamSelector.selector */\n      shl(0xe0, 0x03817936)\n        /* \"Selector.sol\":601:646  SelectorEvent(this.nonParamSelector.selector) */\n      mload(0x40)\n      tag_24\n      swap2\n      swap1\n      tag_10\n      jump\t// in\n    tag_24:\n      mload(0x40)\n      dup1\n      swap2\n      sub\n      swap1\n      log1\n        /* \"Selector.sol\":671:701  keccak256(\"nonPramSelector()\") */\n      0xf139b5f01d361f831b45bd63a92167c1c718c08631ccb8428fc880ac754acda7\n        /* \"Selector.sol\":657:702  return bytes4(keccak256(\"nonPramSelector()\")) */\n      swap1\n      pop\n        /* \"Selector.sol\":510:710  function nonParamSelector() external returns (bytes4 selectorWithNonParam) {... */\n      swap1\n      jump\t// out\n        /* \"Selector.sol\":377:502  function mintSelector() external  pure returns(bytes4 mSelector) {... */\n    tag_12:\n        /* \"Selector.sol\":424:440  bytes4 mSelector */\n      0x00\n        /* \"Selector.sol\":467:493  keccak256(\"mint(address)\") */\n      0x6a627842f752de95745ef8f3ca67858982b5f585d752f8163e5855050041cb3c\n        /* \"Selector.sol\":453:494  return bytes4(keccak256(\"mint(address)\")) */\n      swap1\n      pop\n        /* \"Selector.sol\":377:502  function mintSelector() external  pure returns(bytes4 mSelector) {... */\n      swap1\n      jump\t// out\n        /* \"Selector.sol\":718:986  function elementaryParamSelector (uint256 param1, bool param2) external  returns (bytes4 selectWithElementaryParam) {... */\n    tag_17:\n        /* \"Selector.sol\":800:832  bytes4 selectWithElementaryParam */\n      0x00\n        /* \"Selector.sol\":850:902  SelectorEvent(this.elementaryParamSelector.selector) */\n      0x87c76683e354abe8640b03c72d02c9175d9a00a6c0101d5bc4be081b9b8199eb\n        /* \"Selector.sol\":864:901  this.elementaryParamSelector.selector */\n      shl(0xe0, 0x3ec37834)\n        /* \"Selector.sol\":850:902  SelectorEvent(this.elementaryParamSelector.selector) */\n      mload(0x40)\n      tag_27\n      swap2\n      swap1\n      tag_10\n      jump\t// in\n    tag_27:\n      mload(0x40)\n      dup1\n      swap2\n      sub\n      swap1\n      log1\n        /* \"Selector.sol\":927:977  keccak256(\"elementaryParamSelector(uint256,bool)\") */\n      0x3ec3783488bfc90ed98dc398cd67f30f42b252c8ce7d59a4dce63a149c452548\n        /* \"Selector.sol\":913:978  return bytes4(keccak256(\"elementaryParamSelector(uint256,bool)\")) */\n      swap1\n      pop\n        /* \"Selector.sol\":718:986  function elementaryParamSelector (uint256 param1, bool param2) external  returns (bytes4 selectWithElementaryParam) {... */\n      swap3\n      swap2\n      pop\n      pop\n      jump\t// out\n        /* \"Selector.sol\":300:369  function mint(address ) external{... */\n    tag_22:\n        /* \"Selector.sol\":348:361  Log(msg.data) */\n      0xafabcf2dd47e06a477a89e49c03f8ebe8e0a7e94f775b25bbb24227c9d0110b2\n        /* \"Selector.sol\":352:360  msg.data */\n      0x00\n      calldatasize\n        /* \"Selector.sol\":348:361  Log(msg.data) */\n      mload(0x40)\n      tag_29\n      swap3\n      swap2\n      swap1\n      tag_30\n      jump\t// in\n    tag_29:\n      mload(0x40)\n      dup1\n      swap2\n      sub\n      swap1\n      log1\n        /* \"Selector.sol\":300:369  function mint(address ) external{... */\n      pop\n      jump\t// out\n        /* \"#utility.yul\":7:156   */\n    tag_31:\n        /* \"#utility.yul\":43:50   */\n      0x00\n        /* \"#utility.yul\":83:149   */\n      0xffffffff00000000000000000000000000000000000000000000000000000000\n        /* \"#utility.yul\":76:81   */\n      dup3\n        /* \"#utility.yul\":72:150   */\n      and\n        /* \"#utility.yul\":61:150   */\n      swap1\n      pop\n        /* \"#utility.yul\":7:156   */\n      swap2\n      swap1\n      pop\n      jump\t// out\n        /* \"#utility.yul\":162:277   */\n    tag_32:\n        /* \"#utility.yul\":247:270   */\n      tag_53\n        /* \"#utility.yul\":264:269   */\n      dup2\n        /* \"#utility.yul\":247:270   */\n      tag_31\n      jump\t// in\n    tag_53:\n        /* \"#utility.yul\":242:245   */\n      dup3\n        /* \"#utility.yul\":235:271   */\n      mstore\n        /* \"#utility.yul\":162:277   */\n      pop\n      pop\n      jump\t// out\n        /* \"#utility.yul\":283:501   */\n    tag_10:\n        /* \"#utility.yul\":374:378   */\n      0x00\n        /* \"#utility.yul\":412:414   */\n      0x20\n        /* \"#utility.yul\":401:410   */\n      dup3\n        /* \"#utility.yul\":397:415   */\n      add\n        /* \"#utility.yul\":389:415   */\n      swap1\n      pop\n        /* \"#utility.yul\":425:494   */\n      tag_55\n        /* \"#utility.yul\":491:492   */\n      0x00\n        /* \"#utility.yul\":480:489   */\n      dup4\n        /* \"#utility.yul\":476:493   */\n      add\n        /* \"#utility.yul\":467:473   */\n      dup5\n        /* \"#utility.yul\":425:494   */\n      tag_32\n      jump\t// in\n    tag_55:\n        /* \"#utility.yul\":283:501   */\n      swap3\n      swap2\n      pop\n      pop\n      jump\t// out\n        /* \"#utility.yul\":588:705   */\n    tag_34:\n        /* \"#utility.yul\":697:698   */\n      0x00\n        /* \"#utility.yul\":694:695   */\n      0x00\n        /* \"#utility.yul\":687:699   */\n      revert\n        /* \"#utility.yul\":834:911   */\n    tag_36:\n        /* \"#utility.yul\":871:878   */\n      0x00\n        /* \"#utility.yul\":900:905   */\n      dup2\n        /* \"#utility.yul\":889:905   */\n      swap1\n      pop\n        /* \"#utility.yul\":834:911   */\n      swap2\n      swap1\n      pop\n      jump\t// out\n        /* \"#utility.yul\":917:1039   */\n    tag_37:\n        /* \"#utility.yul\":990:1014   */\n      tag_61\n        /* \"#utility.yul\":1008:1013   */\n      dup2\n        /* \"#utility.yul\":990:1014   */\n      tag_36\n      jump\t// in\n    tag_61:\n        /* \"#utility.yul\":983:988   */\n      dup2\n        /* \"#utility.yul\":980:1015   */\n      eq\n        /* \"#utility.yul\":970:1033   */\n      tag_62\n      jumpi\n        /* \"#utility.yul\":1029:1030   */\n      0x00\n        /* \"#utility.yul\":1026:1027   */\n      0x00\n        /* \"#utility.yul\":1019:1031   */\n      revert\n        /* \"#utility.yul\":970:1033   */\n    tag_62:\n        /* \"#utility.yul\":917:1039   */\n      pop\n      jump\t// out\n        /* \"#utility.yul\":1045:1184   */\n    tag_38:\n        /* \"#utility.yul\":1091:1096   */\n      0x00\n        /* \"#utility.yul\":1129:1135   */\n      dup2\n        /* \"#utility.yul\":1116:1136   */\n      calldataload\n        /* \"#utility.yul\":1107:1136   */\n      swap1\n      pop\n        /* \"#utility.yul\":1145:1178   */\n      tag_64\n        /* \"#utility.yul\":1172:1177   */\n      dup2\n        /* \"#utility.yul\":1145:1178   */\n      tag_37\n      jump\t// in\n    tag_64:\n        /* \"#utility.yul\":1045:1184   */\n      swap3\n      swap2\n      pop\n      pop\n      jump\t// out\n        /* \"#utility.yul\":1190:1280   */\n    tag_39:\n        /* \"#utility.yul\":1224:1231   */\n      0x00\n        /* \"#utility.yul\":1267:1272   */\n      dup2\n        /* \"#utility.yul\":1260:1273   */\n      iszero\n        /* \"#utility.yul\":1253:1274   */\n      iszero\n        /* \"#utility.yul\":1242:1274   */\n      swap1\n      pop\n        /* \"#utility.yul\":1190:1280   */\n      swap2\n      swap1\n      pop\n      jump\t// out\n        /* \"#utility.yul\":1286:1402   */\n    tag_40:\n        /* \"#utility.yul\":1356:1377   */\n      tag_67\n        /* \"#utility.yul\":1371:1376   */\n      dup2\n        /* \"#utility.yul\":1356:1377   */\n      tag_39\n      jump\t// in\n    tag_67:\n        /* \"#utility.yul\":1349:1354   */\n      dup2\n        /* \"#utility.yul\":1346:1378   */\n      eq\n        /* \"#utility.yul\":1336:1396   */\n      tag_68\n      jumpi\n        /* \"#utility.yul\":1392:1393   */\n      0x00\n        /* \"#utility.yul\":1389:1390   */\n      0x00\n        /* \"#utility.yul\":1382:1394   */\n      revert\n        /* \"#utility.yul\":1336:1396   */\n    tag_68:\n        /* \"#utility.yul\":1286:1402   */\n      pop\n      jump\t// out\n        /* \"#utility.yul\":1408:1541   */\n    tag_41:\n        /* \"#utility.yul\":1451:1456   */\n      0x00\n        /* \"#utility.yul\":1489:1495   */\n      dup2\n        /* \"#utility.yul\":1476:1496   */\n      calldataload\n        /* \"#utility.yul\":1467:1496   */\n      swap1\n      pop\n        /* \"#utility.yul\":1505:1535   */\n      tag_70\n        /* \"#utility.yul\":1529:1534   */\n      dup2\n        /* \"#utility.yul\":1505:1535   */\n      tag_40\n      jump\t// in\n    tag_70:\n        /* \"#utility.yul\":1408:1541   */\n      swap3\n      swap2\n      pop\n      pop\n      jump\t// out\n        /* \"#utility.yul\":1547:2015   */\n    tag_16:\n        /* \"#utility.yul\":1612:1618   */\n      0x00\n        /* \"#utility.yul\":1620:1626   */\n      0x00\n        /* \"#utility.yul\":1669:1671   */\n      0x40\n        /* \"#utility.yul\":1657:1666   */\n      dup4\n        /* \"#utility.yul\":1648:1655   */\n      dup6\n        /* \"#utility.yul\":1644:1667   */\n      sub\n        /* \"#utility.yul\":1640:1672   */\n      slt\n        /* \"#utility.yul\":1637:1756   */\n      iszero\n      tag_72\n      jumpi\n        /* \"#utility.yul\":1675:1754   */\n      tag_73\n      tag_34\n      jump\t// in\n    tag_73:\n        /* \"#utility.yul\":1637:1756   */\n    tag_72:\n        /* \"#utility.yul\":1795:1796   */\n      0x00\n        /* \"#utility.yul\":1820:1873   */\n      tag_74\n        /* \"#utility.yul\":1865:1872   */\n      dup6\n        /* \"#utility.yul\":1856:1862   */\n      dup3\n        /* \"#utility.yul\":1845:1854   */\n      dup7\n        /* \"#utility.yul\":1841:1863   */\n      add\n        /* \"#utility.yul\":1820:1873   */\n      tag_38\n      jump\t// in\n    tag_74:\n        /* \"#utility.yul\":1810:1873   */\n      swap3\n      pop\n        /* \"#utility.yul\":1766:1883   */\n      pop\n        /* \"#utility.yul\":1922:1924   */\n      0x20\n        /* \"#utility.yul\":1948:1998   */\n      tag_75\n        /* \"#utility.yul\":1990:1997   */\n      dup6\n        /* \"#utility.yul\":1981:1987   */\n      dup3\n        /* \"#utility.yul\":1970:1979   */\n      dup7\n        /* \"#utility.yul\":1966:1988   */\n      add\n        /* \"#utility.yul\":1948:1998   */\n      tag_41\n      jump\t// in\n    tag_75:\n        /* \"#utility.yul\":1938:1998   */\n      swap2\n      pop\n        /* \"#utility.yul\":1893:2008   */\n      pop\n        /* \"#utility.yul\":1547:2015   */\n      swap3\n      pop\n      swap3\n      swap1\n      pop\n      jump\t// out\n        /* \"#utility.yul\":2021:2147   */\n    tag_42:\n        /* \"#utility.yul\":2058:2065   */\n      0x00\n        /* \"#utility.yul\":2098:2140   */\n      0xffffffffffffffffffffffffffffffffffffffff\n        /* \"#utility.yul\":2091:2096   */\n      dup3\n        /* \"#utility.yul\":2087:2141   */\n      and\n        /* \"#utility.yul\":2076:2141   */\n      swap1\n      pop\n        /* \"#utility.yul\":2021:2147   */\n      swap2\n      swap1\n      pop\n      jump\t// out\n        /* \"#utility.yul\":2153:2249   */\n    tag_43:\n        /* \"#utility.yul\":2190:2197   */\n      0x00\n        /* \"#utility.yul\":2219:2243   */\n      tag_78\n        /* \"#utility.yul\":2237:2242   */\n      dup3\n        /* \"#utility.yul\":2219:2243   */\n      tag_42\n      jump\t// in\n    tag_78:\n        /* \"#utility.yul\":2208:2243   */\n      swap1\n      pop\n        /* \"#utility.yul\":2153:2249   */\n      swap2\n      swap1\n      pop\n      jump\t// out\n        /* \"#utility.yul\":2255:2377   */\n    tag_44:\n        /* \"#utility.yul\":2328:2352   */\n      tag_80\n        /* \"#utility.yul\":2346:2351   */\n      dup2\n        /* \"#utility.yul\":2328:2352   */\n      tag_43\n      jump\t// in\n    tag_80:\n        /* \"#utility.yul\":2321:2326   */\n      dup2\n        /* \"#utility.yul\":2318:2353   */\n      eq\n        /* \"#utility.yul\":2308:2371   */\n      tag_81\n      jumpi\n        /* \"#utility.yul\":2367:2368   */\n      0x00\n        /* \"#utility.yul\":2364:2365   */\n      0x00\n        /* \"#utility.yul\":2357:2369   */\n      revert\n        /* \"#utility.yul\":2308:2371   */\n    tag_81:\n        /* \"#utility.yul\":2255:2377   */\n      pop\n      jump\t// out\n        /* \"#utility.yul\":2383:2522   */\n    tag_45:\n        /* \"#utility.yul\":2429:2434   */\n      0x00\n        /* \"#utility.yul\":2467:2473   */\n      dup2\n        /* \"#utility.yul\":2454:2474   */\n      calldataload\n        /* \"#utility.yul\":2445:2474   */\n      swap1\n      pop\n        /* \"#utility.yul\":2483:2516   */\n      tag_83\n        /* \"#utility.yul\":2510:2515   */\n      dup2\n        /* \"#utility.yul\":2483:2516   */\n      tag_44\n      jump\t// in\n    tag_83:\n        /* \"#utility.yul\":2383:2522   */\n      swap3\n      swap2\n      pop\n      pop\n      jump\t// out\n        /* \"#utility.yul\":2528:2857   */\n    tag_21:\n        /* \"#utility.yul\":2587:2593   */\n      0x00\n        /* \"#utility.yul\":2636:2638   */\n      0x20\n        /* \"#utility.yul\":2624:2633   */\n      dup3\n        /* \"#utility.yul\":2615:2622   */\n      dup5\n        /* \"#utility.yul\":2611:2634   */\n      sub\n        /* \"#utility.yul\":2607:2639   */\n      slt\n        /* \"#utility.yul\":2604:2723   */\n      iszero\n      tag_85\n      jumpi\n        /* \"#utility.yul\":2642:2721   */\n      tag_86\n      tag_34\n      jump\t// in\n    tag_86:\n        /* \"#utility.yul\":2604:2723   */\n    tag_85:\n        /* \"#utility.yul\":2762:2763   */\n      0x00\n        /* \"#utility.yul\":2787:2840   */\n      tag_87\n        /* \"#utility.yul\":2832:2839   */\n      dup5\n        /* \"#utility.yul\":2823:2829   */\n      dup3\n        /* \"#utility.yul\":2812:2821   */\n      dup6\n        /* \"#utility.yul\":2808:2830   */\n      add\n        /* \"#utility.yul\":2787:2840   */\n      tag_45\n      jump\t// in\n    tag_87:\n        /* \"#utility.yul\":2777:2840   */\n      swap2\n      pop\n        /* \"#utility.yul\":2733:2850   */\n      pop\n        /* \"#utility.yul\":2528:2857   */\n      swap3\n      swap2\n      pop\n      pop\n      jump\t// out\n        /* \"#utility.yul\":2863:3031   */\n    tag_46:\n        /* \"#utility.yul\":2946:2957   */\n      0x00\n        /* \"#utility.yul\":2980:2986   */\n      dup3\n        /* \"#utility.yul\":2975:2978   */\n      dup3\n        /* \"#utility.yul\":2968:2987   */\n      mstore\n        /* \"#utility.yul\":3020:3024   */\n      0x20\n        /* \"#utility.yul\":3015:3018   */\n      dup3\n        /* \"#utility.yul\":3011:3025   */\n      add\n        /* \"#utility.yul\":2996:3025   */\n      swap1\n      pop\n        /* \"#utility.yul\":2863:3031   */\n      swap3\n      swap2\n      pop\n      pop\n      jump\t// out\n        /* \"#utility.yul\":3037:3185   */\n    tag_47:\n        /* \"#utility.yul\":3135:3141   */\n      dup3\n        /* \"#utility.yul\":3130:3133   */\n      dup2\n        /* \"#utility.yul\":3125:3128   */\n      dup4\n        /* \"#utility.yul\":3112:3142   */\n      calldatacopy\n        /* \"#utility.yul\":3176:3177   */\n      0x00\n        /* \"#utility.yul\":3167:3173   */\n      dup4\n        /* \"#utility.yul\":3162:3165   */\n      dup4\n        /* \"#utility.yul\":3158:3174   */\n      add\n        /* \"#utility.yul\":3151:3178   */\n      mstore\n        /* \"#utility.yul\":3037:3185   */\n      pop\n      pop\n      pop\n      jump\t// out\n        /* \"#utility.yul\":3191:3293   */\n    tag_48:\n        /* \"#utility.yul\":3232:3238   */\n      0x00\n        /* \"#utility.yul\":3283:3285   */\n      0x1f\n        /* \"#utility.yul\":3279:3286   */\n      not\n        /* \"#utility.yul\":3274:3276   */\n      0x1f\n        /* \"#utility.yul\":3267:3272   */\n      dup4\n        /* \"#utility.yul\":3263:3277   */\n      add\n        /* \"#utility.yul\":3259:3287   */\n      and\n        /* \"#utility.yul\":3249:3287   */\n      swap1\n      pop\n        /* \"#utility.yul\":3191:3293   */\n      swap2\n      swap1\n      pop\n      jump\t// out\n        /* \"#utility.yul\":3321:3635   */\n    tag_49:\n        /* \"#utility.yul\":3417:3420   */\n      0x00\n        /* \"#utility.yul\":3438:3508   */\n      tag_92\n        /* \"#utility.yul\":3501:3507   */\n      dup4\n        /* \"#utility.yul\":3496:3499   */\n      dup6\n        /* \"#utility.yul\":3438:3508   */\n      tag_46\n      jump\t// in\n    tag_92:\n        /* \"#utility.yul\":3431:3508   */\n      swap4\n      pop\n        /* \"#utility.yul\":3518:3574   */\n      tag_93\n        /* \"#utility.yul\":3567:3573   */\n      dup4\n        /* \"#utility.yul\":3562:3565   */\n      dup6\n        /* \"#utility.yul\":3555:3560   */\n      dup5\n        /* \"#utility.yul\":3518:3574   */\n      tag_47\n      jump\t// in\n    tag_93:\n        /* \"#utility.yul\":3599:3628   */\n      tag_94\n        /* \"#utility.yul\":3621:3627   */\n      dup4\n        /* \"#utility.yul\":3599:3628   */\n      tag_48\n      jump\t// in\n    tag_94:\n        /* \"#utility.yul\":3594:3597   */\n      dup5\n        /* \"#utility.yul\":3590:3629   */\n      add\n        /* \"#utility.yul\":3583:3629   */\n      swap1\n      pop\n        /* \"#utility.yul\":3321:3635   */\n      swap4\n      swap3\n      pop\n      pop\n      pop\n      jump\t// out\n        /* \"#utility.yul\":3641:3970   */\n    tag_30:\n        /* \"#utility.yul\":3762:3766   */\n      0x00\n        /* \"#utility.yul\":3800:3802   */\n      0x20\n        /* \"#utility.yul\":3789:3798   */\n      dup3\n        /* \"#utility.yul\":3785:3803   */\n      add\n        /* \"#utility.yul\":3777:3803   */\n      swap1\n      pop\n        /* \"#utility.yul\":3849:3858   */\n      dup2\n        /* \"#utility.yul\":3843:3847   */\n      dup2\n        /* \"#utility.yul\":3839:3859   */\n      sub\n        /* \"#utility.yul\":3835:3836   */\n      0x00\n        /* \"#utility.yul\":3824:3833   */\n      dup4\n        /* \"#utility.yul\":3820:3837   */\n      add\n        /* \"#utility.yul\":3813:3860   */\n      mstore\n        /* \"#utility.yul\":3877:3963   */\n      tag_96\n        /* \"#utility.yul\":3958:3962   */\n      dup2\n        /* \"#utility.yul\":3949:3955   */\n      dup5\n        /* \"#utility.yul\":3941:3947   */\n      dup7\n        /* \"#utility.yul\":3877:3963   */\n      tag_49\n      jump\t// in\n    tag_96:\n        /* \"#utility.yul\":3869:3963   */\n      swap1\n      pop\n        /* \"#utility.yul\":3641:3970   */\n      swap4\n      swap3\n      pop\n      pop\n      pop\n      jump\t// out\n\n    auxdata: 0xa264697066735822122042ad235b0397a30fdb56b15ed965fca78d3cdd59c64135be0f7f61ed12b67d2e64736f6c634300081e0033\n}\n",
				"bytecode": {
					"linkReferences": {},
					"object": "6080604052348015600e575f5ffd5b5061043a8061001c5f395ff3fe608060405234801561000f575f5ffd5b506004361061004a575f3560e01c8063038179361461004e578063046dab161461006c5780633ec378341461008a5780636a627842146100ba575b5f5ffd5b6100566100d6565b6040516100639190610240565b60405180910390f35b61007461013b565b6040516100819190610240565b60405180910390f35b6100a4600480360381019061009f91906102c5565b610162565b6040516100b19190610240565b60405180910390f35b6100d460048036038101906100cf919061035d565b6101ca565b005b5f7f87c76683e354abe8640b03c72d02c9175d9a00a6c0101d5bc4be081b9b8199eb630381793660e01b60405161010d9190610240565b60405180910390a17ff139b5f01d361f831b45bd63a92167c1c718c08631ccb8428fc880ac754acda7905090565b5f7f6a627842f752de95745ef8f3ca67858982b5f585d752f8163e5855050041cb3c905090565b5f7f87c76683e354abe8640b03c72d02c9175d9a00a6c0101d5bc4be081b9b8199eb633ec3783460e01b6040516101999190610240565b60405180910390a17f3ec3783488bfc90ed98dc398cd67f30f42b252c8ce7d59a4dce63a149c452548905092915050565b7fafabcf2dd47e06a477a89e49c03f8ebe8e0a7e94f775b25bbb24227c9d0110b25f366040516101fb9291906103e2565b60405180910390a150565b5f7fffffffff0000000000000000000000000000000000000000000000000000000082169050919050565b61023a81610206565b82525050565b5f6020820190506102535f830184610231565b92915050565b5f5ffd5b5f819050919050565b61026f8161025d565b8114610279575f5ffd5b50565b5f8135905061028a81610266565b92915050565b5f8115159050919050565b6102a481610290565b81146102ae575f5ffd5b50565b5f813590506102bf8161029b565b92915050565b5f5f604083850312156102db576102da610259565b5b5f6102e88582860161027c565b92505060206102f9858286016102b1565b9150509250929050565b5f73ffffffffffffffffffffffffffffffffffffffff82169050919050565b5f61032c82610303565b9050919050565b61033c81610322565b8114610346575f5ffd5b50565b5f8135905061035781610333565b92915050565b5f6020828403121561037257610371610259565b5b5f61037f84828501610349565b91505092915050565b5f82825260208201905092915050565b828183375f83830152505050565b5f601f19601f8301169050919050565b5f6103c18385610388565b93506103ce838584610398565b6103d7836103a6565b840190509392505050565b5f6020820190508181035f8301526103fb8184866103b6565b9050939250505056fea264697066735822122042ad235b0397a30fdb56b15ed965fca78d3cdd59c64135be0f7f61ed12b67d2e64736f6c634300081e0033",
					"opcodes": "PUSH1 0x80 PUSH1 0x40 MSTORE CALLVALUE DUP1 ISZERO PUSH1 0xE JUMPI PUSH0 PUSH0 REVERT JUMPDEST POP PUSH2 0x43A DUP1 PUSH2 0x1C PUSH0 CODECOPY PUSH0 RETURN INVALID PUSH1 0x80 PUSH1 0x40 MSTORE CALLVALUE DUP1 ISZERO PUSH2 0xF JUMPI PUSH0 PUSH0 REVERT JUMPDEST POP PUSH1 0x4 CALLDATASIZE LT PUSH2 0x4A JUMPI PUSH0 CALLDATALOAD PUSH1 0xE0 SHR DUP1 PUSH4 0x3817936 EQ PUSH2 0x4E JUMPI DUP1 PUSH4 0x46DAB16 EQ PUSH2 0x6C JUMPI DUP1 PUSH4 0x3EC37834 EQ PUSH2 0x8A JUMPI DUP1 PUSH4 0x6A627842 EQ PUSH2 0xBA JUMPI JUMPDEST PUSH0 PUSH0 REVERT JUMPDEST PUSH2 0x56 PUSH2 0xD6 JUMP JUMPDEST PUSH1 0x40 MLOAD PUSH2 0x63 SWAP2 SWAP1 PUSH2 0x240 JUMP JUMPDEST PUSH1 0x40 MLOAD DUP1 SWAP2 SUB SWAP1 RETURN JUMPDEST PUSH2 0x74 PUSH2 0x13B JUMP JUMPDEST PUSH1 0x40 MLOAD PUSH2 0x81 SWAP2 SWAP1 PUSH2 0x240 JUMP JUMPDEST PUSH1 0x40 MLOAD DUP1 SWAP2 SUB SWAP1 RETURN JUMPDEST PUSH2 0xA4 PUSH1 0x4 DUP1 CALLDATASIZE SUB DUP2 ADD SWAP1 PUSH2 0x9F SWAP2 SWAP1 PUSH2 0x2C5 JUMP JUMPDEST PUSH2 0x162 JUMP JUMPDEST PUSH1 0x40 MLOAD PUSH2 0xB1 SWAP2 SWAP1 PUSH2 0x240 JUMP JUMPDEST PUSH1 0x40 MLOAD DUP1 SWAP2 SUB SWAP1 RETURN JUMPDEST PUSH2 0xD4 PUSH1 0x4 DUP1 CALLDATASIZE SUB DUP2 ADD SWAP1 PUSH2 0xCF SWAP2 SWAP1 PUSH2 0x35D JUMP JUMPDEST PUSH2 0x1CA JUMP JUMPDEST STOP JUMPDEST PUSH0 PUSH32 0x87C76683E354ABE8640B03C72D02C9175D9A00A6C0101D5BC4BE081B9B8199EB PUSH4 0x3817936 PUSH1 0xE0 SHL PUSH1 0x40 MLOAD PUSH2 0x10D SWAP2 SWAP1 PUSH2 0x240 JUMP JUMPDEST PUSH1 0x40 MLOAD DUP1 SWAP2 SUB SWAP1 LOG1 PUSH32 0xF139B5F01D361F831B45BD63A92167C1C718C08631CCB8428FC880AC754ACDA7 SWAP1 POP SWAP1 JUMP JUMPDEST PUSH0 PUSH32 0x6A627842F752DE95745EF8F3CA67858982B5F585D752F8163E5855050041CB3C SWAP1 POP SWAP1 JUMP JUMPDEST PUSH0 PUSH32 0x87C76683E354ABE8640B03C72D02C9175D9A00A6C0101D5BC4BE081B9B8199EB PUSH4 0x3EC37834 PUSH1 0xE0 SHL PUSH1 0x40 MLOAD PUSH2 0x199 SWAP2 SWAP1 PUSH2 0x240 JUMP JUMPDEST PUSH1 0x40 MLOAD DUP1 SWAP2 SUB SWAP1 LOG1 PUSH32 0x3EC3783488BFC90ED98DC398CD67F30F42B252C8CE7D59A4DCE63A149C452548 SWAP1 POP SWAP3 SWAP2 POP POP JUMP JUMPDEST PUSH32 0xAFABCF2DD47E06A477A89E49C03F8EBE8E0A7E94F775B25BBB24227C9D0110B2 PUSH0 CALLDATASIZE PUSH1 0x40 MLOAD PUSH2 0x1FB SWAP3 SWAP2 SWAP1 PUSH2 0x3E2 JUMP JUMPDEST PUSH1 0x40 MLOAD DUP1 SWAP2 SUB SWAP1 LOG1 POP JUMP JUMPDEST PUSH0 PUSH32 0xFFFFFFFF00000000000000000000000000000000000000000000000000000000 DUP3 AND SWAP1 POP SWAP2 SWAP1 POP JUMP JUMPDEST PUSH2 0x23A DUP2 PUSH2 0x206 JUMP JUMPDEST DUP3 MSTORE POP POP JUMP JUMPDEST PUSH0 PUSH1 0x20 DUP3 ADD SWAP1 POP PUSH2 0x253 PUSH0 DUP4 ADD DUP5 PUSH2 0x231 JUMP JUMPDEST SWAP3 SWAP2 POP POP JUMP JUMPDEST PUSH0 PUSH0 REVERT JUMPDEST PUSH0 DUP2 SWAP1 POP SWAP2 SWAP1 POP JUMP JUMPDEST PUSH2 0x26F DUP2 PUSH2 0x25D JUMP JUMPDEST DUP2 EQ PUSH2 0x279 JUMPI PUSH0 PUSH0 REVERT JUMPDEST POP JUMP JUMPDEST PUSH0 DUP2 CALLDATALOAD SWAP1 POP PUSH2 0x28A DUP2 PUSH2 0x266 JUMP JUMPDEST SWAP3 SWAP2 POP POP JUMP JUMPDEST PUSH0 DUP2 ISZERO ISZERO SWAP1 POP SWAP2 SWAP1 POP JUMP JUMPDEST PUSH2 0x2A4 DUP2 PUSH2 0x290 JUMP JUMPDEST DUP2 EQ PUSH2 0x2AE JUMPI PUSH0 PUSH0 REVERT JUMPDEST POP JUMP JUMPDEST PUSH0 DUP2 CALLDATALOAD SWAP1 POP PUSH2 0x2BF DUP2 PUSH2 0x29B JUMP JUMPDEST SWAP3 SWAP2 POP POP JUMP JUMPDEST PUSH0 PUSH0 PUSH1 0x40 DUP4 DUP6 SUB SLT ISZERO PUSH2 0x2DB JUMPI PUSH2 0x2DA PUSH2 0x259 JUMP JUMPDEST JUMPDEST PUSH0 PUSH2 0x2E8 DUP6 DUP3 DUP7 ADD PUSH2 0x27C JUMP JUMPDEST SWAP3 POP POP PUSH1 0x20 PUSH2 0x2F9 DUP6 DUP3 DUP7 ADD PUSH2 0x2B1 JUMP JUMPDEST SWAP2 POP POP SWAP3 POP SWAP3 SWAP1 POP JUMP JUMPDEST PUSH0 PUSH20 0xFFFFFFFFFFFFFFFFFFFFFFFFFFFFFFFFFFFFFFFF DUP3 AND SWAP1 POP SWAP2 SWAP1 POP JUMP JUMPDEST PUSH0 PUSH2 0x32C DUP3 PUSH2 0x303 JUMP JUMPDEST SWAP1 POP SWAP2 SWAP1 POP JUMP JUMPDEST PUSH2 0x33C DUP2 PUSH2 0x322 JUMP JUMPDEST DUP2 EQ PUSH2 0x346 JUMPI PUSH0 PUSH0 REVERT JUMPDEST POP JUMP JUMPDEST PUSH0 DUP2 CALLDATALOAD SWAP1 POP PUSH2 0x357 DUP2 PUSH2 0x333 JUMP JUMPDEST SWAP3 SWAP2 POP POP JUMP JUMPDEST PUSH0 PUSH1 0x20 DUP3 DUP5 SUB SLT ISZERO PUSH2 0x372 JUMPI PUSH2 0x371 PUSH2 0x259 JUMP JUMPDEST JUMPDEST PUSH0 PUSH2 0x37F DUP5 DUP3 DUP6 ADD PUSH2 0x349 JUMP JUMPDEST SWAP2 POP POP SWAP3 SWAP2 POP POP JUMP JUMPDEST PUSH0 DUP3 DUP3 MSTORE PUSH1 0x20 DUP3 ADD SWAP1 POP SWAP3 SWAP2 POP POP JUMP JUMPDEST DUP3 DUP2 DUP4 CALLDATACOPY PUSH0 DUP4 DUP4 ADD MSTORE POP POP POP JUMP JUMPDEST PUSH0 PUSH1 0x1F NOT PUSH1 0x1F DUP4 ADD AND SWAP1 POP SWAP2 SWAP1 POP JUMP JUMPDEST PUSH0 PUSH2 0x3C1 DUP4 DUP6 PUSH2 0x388 JUMP JUMPDEST SWAP4 POP PUSH2 0x3CE DUP4 DUP6 DUP5 PUSH2 0x398 JUMP JUMPDEST PUSH2 0x3D7 DUP4 PUSH2 0x3A6 JUMP JUMPDEST DUP5 ADD SWAP1 POP SWAP4 SWAP3 POP POP POP JUMP JUMPDEST PUSH0 PUSH1 0x20 DUP3 ADD SWAP1 POP DUP2 DUP2 SUB PUSH0 DUP4 ADD MSTORE PUSH2 0x3FB DUP2 DUP5 DUP7 PUSH2 0x3B6 JUMP JUMPDEST SWAP1 POP SWAP4 SWAP3 POP POP POP JUMP INVALID LOG2 PUSH5 0x6970667358 0x22 SLT KECCAK256 TIMESTAMP 0xAD 0x23 JUMPDEST SUB SWAP8 LOG3 0xF 0xDB JUMP 0xB1 MCOPY 0xD9 PUSH6 0xFCA78D3CDD59 0xC6 COINBASE CALLDATALOAD 0xBE 0xF PUSH32 0x61ED12B67D2E64736F6C634300081E0033000000000000000000000000000000 "
				},
				"gasEstimates": {
					"creation": {
						"codeDepositCost": "216400",
						"executionCost": "255",
						"totalCost": "216655"
					},
					"external": {
						"elementaryParamSelector(uint256,bool)": "infinite",
						"mint(address)": "infinite",
						"mintSelector()": "338",
						"nonParamSelector()": "infinite"
					}
				},
				"methodIdentifiers": {
					"elementaryParamSelector(uint256,bool)": "3ec37834",
					"mint(address)": "6a627842",
					"mintSelector()": "046dab16",
					"nonParamSelector()": "03817936"
				}
			},
			"storageLayout": {
				"storage": [],
				"types": null
			},
			"userdoc": {
				"kind": "user",
				"methods": {},
				"version": 1
			}
		}
	}
}