{
	"TryCatch.sol": {
		"OnlyEven2": {
			"abi": [
				{
					"inputs": [
						{
							"internalType": "uint256",
							"name": "a",
							"type": "uint256"
						}
					],
					"stateMutability": "nonpayable",
					"type": "constructor"
				},
				{
					"inputs": [
						{
							"internalType": "uint256",
							"name": "b",
							"type": "uint256"
						}
					],
					"name": "onlyEven",
					"outputs": [
						{
							"internalType": "uint256",
							"name": "success",
							"type": "uint256"
						}
					],
					"stateMutability": "pure",
					"type": "function"
				}
			],
			"devdoc": {
				"kind": "dev",
				"methods": {},
				"version": 1
			},
			"evm": {
				"assembly": "    /* \"TryCatch.sol\":339:611  contract OnlyEven2 {... */\n  mstore(0x40, 0x80)\n    /* \"TryCatch.sol\":365:460  constructor(uint a){... */\n  callvalue\n  dup1\n  iszero\n  tag_1\n  jumpi\n  revert(0x00, 0x00)\ntag_1:\n  pop\n  mload(0x40)\n  sub(codesize, bytecodeSize)\n  dup1\n  bytecodeSize\n  dup4\n  codecopy\n  dup2\n  dup2\n  add\n  0x40\n  mstore\n  dup2\n  add\n  swap1\n  tag_2\n  swap2\n  swap1\n  tag_3\n  jump\t// in\ntag_2:\n    /* \"TryCatch.sol\":406:407  0 */\n  0x00\n    /* \"TryCatch.sol\":403:404  a */\n  dup2\n    /* \"TryCatch.sol\":403:407  a!=0 */\n  sub\n    /* \"TryCatch.sol\":395:429  require(a!=0, \"invalid number...\") */\n  tag_6\n  jumpi\n  mload(0x40)\n  0x08c379a000000000000000000000000000000000000000000000000000000000\n  dup2\n  mstore\n  0x04\n  add\n  tag_7\n  swap1\n  tag_8\n  jump\t// in\ntag_7:\n  mload(0x40)\n  dup1\n  swap2\n  sub\n  swap1\n  revert\ntag_6:\n    /* \"TryCatch.sol\":450:451  1 */\n  0x01\n    /* \"TryCatch.sol\":447:448  a */\n  dup2\n    /* \"TryCatch.sol\":447:451  a!=1 */\n  sub\n    /* \"TryCatch.sol\":440:452  assert(a!=1) */\n  tag_9\n  jumpi\n  tag_10\n  tag_11\n  jump\t// in\ntag_10:\ntag_9:\n    /* \"TryCatch.sol\":365:460  constructor(uint a){... */\n  pop\n    /* \"TryCatch.sol\":339:611  contract OnlyEven2 {... */\n  jump(tag_12)\n    /* \"#utility.yul\":88:205   */\ntag_14:\n    /* \"#utility.yul\":197:198   */\n  0x00\n    /* \"#utility.yul\":194:195   */\n  0x00\n    /* \"#utility.yul\":187:199   */\n  revert\n    /* \"#utility.yul\":334:411   */\ntag_16:\n    /* \"#utility.yul\":371:378   */\n  0x00\n    /* \"#utility.yul\":400:405   */\n  dup2\n    /* \"#utility.yul\":389:405   */\n  swap1\n  pop\n    /* \"#utility.yul\":334:411   */\n  swap2\n  swap1\n  pop\n  jump\t// out\n    /* \"#utility.yul\":417:539   */\ntag_17:\n    /* \"#utility.yul\":490:514   */\n  tag_28\n    /* \"#utility.yul\":508:513   */\n  dup2\n    /* \"#utility.yul\":490:514   */\n  tag_16\n  jump\t// in\ntag_28:\n    /* \"#utility.yul\":483:488   */\n  dup2\n    /* \"#utility.yul\":480:515   */\n  eq\n    /* \"#utility.yul\":470:533   */\n  tag_29\n  jumpi\n    /* \"#utility.yul\":529:530   */\n  0x00\n    /* \"#utility.yul\":526:527   */\n  0x00\n    /* \"#utility.yul\":519:531   */\n  revert\n    /* \"#utility.yul\":470:533   */\ntag_29:\n    /* \"#utility.yul\":417:539   */\n  pop\n  jump\t// out\n    /* \"#utility.yul\":545:688   */\ntag_18:\n    /* \"#utility.yul\":602:607   */\n  0x00\n    /* \"#utility.yul\":633:639   */\n  dup2\n    /* \"#utility.yul\":627:640   */\n  mload\n    /* \"#utility.yul\":618:640   */\n  swap1\n  pop\n    /* \"#utility.yul\":649:682   */\n  tag_31\n    /* \"#utility.yul\":676:681   */\n  dup2\n    /* \"#utility.yul\":649:682   */\n  tag_17\n  jump\t// in\ntag_31:\n    /* \"#utility.yul\":545:688   */\n  swap3\n  swap2\n  pop\n  pop\n  jump\t// out\n    /* \"#utility.yul\":694:1045   */\ntag_3:\n    /* \"#utility.yul\":764:770   */\n  0x00\n    /* \"#utility.yul\":813:815   */\n  0x20\n    /* \"#utility.yul\":801:810   */\n  dup3\n    /* \"#utility.yul\":792:799   */\n  dup5\n    /* \"#utility.yul\":788:811   */\n  sub\n    /* \"#utility.yul\":784:816   */\n  slt\n    /* \"#utility.yul\":781:900   */\n  iszero\n  tag_33\n  jumpi\n    /* \"#utility.yul\":819:898   */\n  tag_34\n  tag_14\n  jump\t// in\ntag_34:\n    /* \"#utility.yul\":781:900   */\ntag_33:\n    /* \"#utility.yul\":939:940   */\n  0x00\n    /* \"#utility.yul\":964:1028   */\n  tag_35\n    /* \"#utility.yul\":1020:1027   */\n  dup5\n    /* \"#utility.yul\":1011:1017   */\n  dup3\n    /* \"#utility.yul\":1000:1009   */\n  dup6\n    /* \"#utility.yul\":996:1018   */\n  add\n    /* \"#utility.yul\":964:1028   */\n  tag_18\n  jump\t// in\ntag_35:\n    /* \"#utility.yul\":954:1028   */\n  swap2\n  pop\n    /* \"#utility.yul\":910:1038   */\n  pop\n    /* \"#utility.yul\":694:1045   */\n  swap3\n  swap2\n  pop\n  pop\n  jump\t// out\n    /* \"#utility.yul\":1051:1220   */\ntag_19:\n    /* \"#utility.yul\":1135:1146   */\n  0x00\n    /* \"#utility.yul\":1169:1175   */\n  dup3\n    /* \"#utility.yul\":1164:1167   */\n  dup3\n    /* \"#utility.yul\":1157:1176   */\n  mstore\n    /* \"#utility.yul\":1209:1213   */\n  0x20\n    /* \"#utility.yul\":1204:1207   */\n  dup3\n    /* \"#utility.yul\":1200:1214   */\n  add\n    /* \"#utility.yul\":1185:1214   */\n  swap1\n  pop\n    /* \"#utility.yul\":1051:1220   */\n  swap3\n  swap2\n  pop\n  pop\n  jump\t// out\n    /* \"#utility.yul\":1226:1393   */\ntag_20:\n    /* \"#utility.yul\":1366:1385   */\n  0x696e76616c6964206e756d6265722e2e2e000000000000000000000000000000\n    /* \"#utility.yul\":1362:1363   */\n  0x00\n    /* \"#utility.yul\":1354:1360   */\n  dup3\n    /* \"#utility.yul\":1350:1364   */\n  add\n    /* \"#utility.yul\":1343:1386   */\n  mstore\n    /* \"#utility.yul\":1226:1393   */\n  pop\n  jump\t// out\n    /* \"#utility.yul\":1399:1765   */\ntag_21:\n    /* \"#utility.yul\":1541:1544   */\n  0x00\n    /* \"#utility.yul\":1562:1629   */\n  tag_39\n    /* \"#utility.yul\":1626:1628   */\n  0x11\n    /* \"#utility.yul\":1621:1624   */\n  dup4\n    /* \"#utility.yul\":1562:1629   */\n  tag_19\n  jump\t// in\ntag_39:\n    /* \"#utility.yul\":1555:1629   */\n  swap2\n  pop\n    /* \"#utility.yul\":1638:1731   */\n  tag_40\n    /* \"#utility.yul\":1727:1730   */\n  dup3\n    /* \"#utility.yul\":1638:1731   */\n  tag_20\n  jump\t// in\ntag_40:\n    /* \"#utility.yul\":1756:1758   */\n  0x20\n    /* \"#utility.yul\":1751:1754   */\n  dup3\n    /* \"#utility.yul\":1747:1759   */\n  add\n    /* \"#utility.yul\":1740:1759   */\n  swap1\n  pop\n    /* \"#utility.yul\":1399:1765   */\n  swap2\n  swap1\n  pop\n  jump\t// out\n    /* \"#utility.yul\":1771:2190   */\ntag_8:\n    /* \"#utility.yul\":1937:1941   */\n  0x00\n    /* \"#utility.yul\":1975:1977   */\n  0x20\n    /* \"#utility.yul\":1964:1973   */\n  dup3\n    /* \"#utility.yul\":1960:1978   */\n  add\n    /* \"#utility.yul\":1952:1978   */\n  swap1\n  pop\n    /* \"#utility.yul\":2024:2033   */\n  dup2\n    /* \"#utility.yul\":2018:2022   */\n  dup2\n    /* \"#utility.yul\":2014:2034   */\n  sub\n    /* \"#utility.yul\":2010:2011   */\n  0x00\n    /* \"#utility.yul\":1999:2008   */\n  dup4\n    /* \"#utility.yul\":1995:2012   */\n  add\n    /* \"#utility.yul\":1988:2035   */\n  mstore\n    /* \"#utility.yul\":2052:2183   */\n  tag_42\n    /* \"#utility.yul\":2178:2182   */\n  dup2\n    /* \"#utility.yul\":2052:2183   */\n  tag_21\n  jump\t// in\ntag_42:\n    /* \"#utility.yul\":2044:2183   */\n  swap1\n  pop\n    /* \"#utility.yul\":1771:2190   */\n  swap2\n  swap1\n  pop\n  jump\t// out\n    /* \"#utility.yul\":2196:2376   */\ntag_11:\n    /* \"#utility.yul\":2244:2321   */\n  0x4e487b7100000000000000000000000000000000000000000000000000000000\n    /* \"#utility.yul\":2241:2242   */\n  0x00\n    /* \"#utility.yul\":2234:2322   */\n  mstore\n    /* \"#utility.yul\":2341:2345   */\n  0x01\n    /* \"#utility.yul\":2338:2339   */\n  0x04\n    /* \"#utility.yul\":2331:2346   */\n  mstore\n    /* \"#utility.yul\":2365:2369   */\n  0x24\n    /* \"#utility.yul\":2362:2363   */\n  0x00\n    /* \"#utility.yul\":2355:2370   */\n  revert\n    /* \"TryCatch.sol\":339:611  contract OnlyEven2 {... */\ntag_12:\n  dataSize(sub_0)\n  dup1\n  dataOffset(sub_0)\n  0x00\n  codecopy\n  0x00\n  return\nstop\n\nsub_0: assembly {\n        /* \"TryCatch.sol\":339:611  contract OnlyEven2 {... */\n      mstore(0x40, 0x80)\n      callvalue\n      dup1\n      iszero\n      tag_1\n      jumpi\n      revert(0x00, 0x00)\n    tag_1:\n      pop\n      jumpi(tag_2, lt(calldatasize, 0x04))\n      shr(0xe0, calldataload(0x00))\n      dup1\n      0xce0b4213\n      eq\n      tag_3\n      jumpi\n    tag_2:\n      revert(0x00, 0x00)\n        /* \"TryCatch.sol\":468:608  function onlyEven(uint256 b) external pure returns (uint success) {... */\n    tag_3:\n      tag_4\n      0x04\n      dup1\n      calldatasize\n      sub\n      dup2\n      add\n      swap1\n      tag_5\n      swap2\n      swap1\n      tag_6\n      jump\t// in\n    tag_5:\n      tag_7\n      jump\t// in\n    tag_4:\n      mload(0x40)\n      tag_8\n      swap2\n      swap1\n      tag_9\n      jump\t// in\n    tag_8:\n      mload(0x40)\n      dup1\n      swap2\n      sub\n      swap1\n      return\n    tag_7:\n        /* \"TryCatch.sol\":520:532  uint success */\n      0x00\n        /* \"TryCatch.sol\":558:559  0 */\n      0x00\n        /* \"TryCatch.sol\":555:556  2 */\n      0x02\n        /* \"TryCatch.sol\":553:554  b */\n      dup4\n        /* \"TryCatch.sol\":553:556  b%2 */\n      tag_11\n      swap2\n      swap1\n      tag_12\n      jump\t// in\n    tag_11:\n        /* \"TryCatch.sol\":553:559  b%2==0 */\n      eq\n        /* \"TryCatch.sol\":545:578  require(b%2==0 ,\"Ups! Reverting\") */\n      tag_13\n      jumpi\n      mload(0x40)\n      0x08c379a000000000000000000000000000000000000000000000000000000000\n      dup2\n      mstore\n      0x04\n      add\n      tag_14\n      swap1\n      tag_15\n      jump\t// in\n    tag_14:\n      mload(0x40)\n      dup1\n      swap2\n      sub\n      swap1\n      revert\n    tag_13:\n        /* \"TryCatch.sol\":599:600  b */\n      dup2\n        /* \"TryCatch.sol\":589:600  success = b */\n      swap1\n      pop\n        /* \"TryCatch.sol\":468:608  function onlyEven(uint256 b) external pure returns (uint success) {... */\n      swap2\n      swap1\n      pop\n      jump\t// out\n        /* \"#utility.yul\":88:205   */\n    tag_17:\n        /* \"#utility.yul\":197:198   */\n      0x00\n        /* \"#utility.yul\":194:195   */\n      0x00\n        /* \"#utility.yul\":187:199   */\n      revert\n        /* \"#utility.yul\":334:411   */\n    tag_19:\n        /* \"#utility.yul\":371:378   */\n      0x00\n        /* \"#utility.yul\":400:405   */\n      dup2\n        /* \"#utility.yul\":389:405   */\n      swap1\n      pop\n        /* \"#utility.yul\":334:411   */\n      swap2\n      swap1\n      pop\n      jump\t// out\n        /* \"#utility.yul\":417:539   */\n    tag_20:\n        /* \"#utility.yul\":490:514   */\n      tag_33\n        /* \"#utility.yul\":508:513   */\n      dup2\n        /* \"#utility.yul\":490:514   */\n      tag_19\n      jump\t// in\n    tag_33:\n        /* \"#utility.yul\":483:488   */\n      dup2\n        /* \"#utility.yul\":480:515   */\n      eq\n        /* \"#utility.yul\":470:533   */\n      tag_34\n      jumpi\n        /* \"#utility.yul\":529:530   */\n      0x00\n        /* \"#utility.yul\":526:527   */\n      0x00\n        /* \"#utility.yul\":519:531   */\n      revert\n        /* \"#utility.yul\":470:533   */\n    tag_34:\n        /* \"#utility.yul\":417:539   */\n      pop\n      jump\t// out\n        /* \"#utility.yul\":545:684   */\n    tag_21:\n        /* \"#utility.yul\":591:596   */\n      0x00\n        /* \"#utility.yul\":629:635   */\n      dup2\n        /* \"#utility.yul\":616:636   */\n      calldataload\n        /* \"#utility.yul\":607:636   */\n      swap1\n      pop\n        /* \"#utility.yul\":645:678   */\n      tag_36\n        /* \"#utility.yul\":672:677   */\n      dup2\n        /* \"#utility.yul\":645:678   */\n      tag_20\n      jump\t// in\n    tag_36:\n        /* \"#utility.yul\":545:684   */\n      swap3\n      swap2\n      pop\n      pop\n      jump\t// out\n        /* \"#utility.yul\":690:1019   */\n    tag_6:\n        /* \"#utility.yul\":749:755   */\n      0x00\n        /* \"#utility.yul\":798:800   */\n      0x20\n        /* \"#utility.yul\":786:795   */\n      dup3\n        /* \"#utility.yul\":777:784   */\n      dup5\n        /* \"#utility.yul\":773:796   */\n      sub\n        /* \"#utility.yul\":769:801   */\n      slt\n        /* \"#utility.yul\":766:885   */\n      iszero\n      tag_38\n      jumpi\n        /* \"#utility.yul\":804:883   */\n      tag_39\n      tag_17\n      jump\t// in\n    tag_39:\n        /* \"#utility.yul\":766:885   */\n    tag_38:\n        /* \"#utility.yul\":924:925   */\n      0x00\n        /* \"#utility.yul\":949:1002   */\n      tag_40\n        /* \"#utility.yul\":994:1001   */\n      dup5\n        /* \"#utility.yul\":985:991   */\n      dup3\n        /* \"#utility.yul\":974:983   */\n      dup6\n        /* \"#utility.yul\":970:992   */\n      add\n        /* \"#utility.yul\":949:1002   */\n      tag_21\n      jump\t// in\n    tag_40:\n        /* \"#utility.yul\":939:1002   */\n      swap2\n      pop\n        /* \"#utility.yul\":895:1012   */\n      pop\n        /* \"#utility.yul\":690:1019   */\n      swap3\n      swap2\n      pop\n      pop\n      jump\t// out\n        /* \"#utility.yul\":1025:1143   */\n    tag_22:\n        /* \"#utility.yul\":1112:1136   */\n      tag_42\n        /* \"#utility.yul\":1130:1135   */\n      dup2\n        /* \"#utility.yul\":1112:1136   */\n      tag_19\n      jump\t// in\n    tag_42:\n        /* \"#utility.yul\":1107:1110   */\n      dup3\n        /* \"#utility.yul\":1100:1137   */\n      mstore\n        /* \"#utility.yul\":1025:1143   */\n      pop\n      pop\n      jump\t// out\n        /* \"#utility.yul\":1149:1371   */\n    tag_9:\n        /* \"#utility.yul\":1242:1246   */\n      0x00\n        /* \"#utility.yul\":1280:1282   */\n      0x20\n        /* \"#utility.yul\":1269:1278   */\n      dup3\n        /* \"#utility.yul\":1265:1283   */\n      add\n        /* \"#utility.yul\":1257:1283   */\n      swap1\n      pop\n        /* \"#utility.yul\":1293:1364   */\n      tag_44\n        /* \"#utility.yul\":1361:1362   */\n      0x00\n        /* \"#utility.yul\":1350:1359   */\n      dup4\n        /* \"#utility.yul\":1346:1363   */\n      add\n        /* \"#utility.yul\":1337:1343   */\n      dup5\n        /* \"#utility.yul\":1293:1364   */\n      tag_22\n      jump\t// in\n    tag_44:\n        /* \"#utility.yul\":1149:1371   */\n      swap3\n      swap2\n      pop\n      pop\n      jump\t// out\n        /* \"#utility.yul\":1377:1557   */\n    tag_23:\n        /* \"#utility.yul\":1425:1502   */\n      0x4e487b7100000000000000000000000000000000000000000000000000000000\n        /* \"#utility.yul\":1422:1423   */\n      0x00\n        /* \"#utility.yul\":1415:1503   */\n      mstore\n        /* \"#utility.yul\":1522:1526   */\n      0x12\n        /* \"#utility.yul\":1519:1520   */\n      0x04\n        /* \"#utility.yul\":1512:1527   */\n      mstore\n        /* \"#utility.yul\":1546:1550   */\n      0x24\n        /* \"#utility.yul\":1543:1544   */\n      0x00\n        /* \"#utility.yul\":1536:1551   */\n      revert\n        /* \"#utility.yul\":1563:1739   */\n    tag_12:\n        /* \"#utility.yul\":1595:1596   */\n      0x00\n        /* \"#utility.yul\":1612:1632   */\n      tag_47\n        /* \"#utility.yul\":1630:1631   */\n      dup3\n        /* \"#utility.yul\":1612:1632   */\n      tag_19\n      jump\t// in\n    tag_47:\n        /* \"#utility.yul\":1607:1632   */\n      swap2\n      pop\n        /* \"#utility.yul\":1646:1666   */\n      tag_48\n        /* \"#utility.yul\":1664:1665   */\n      dup4\n        /* \"#utility.yul\":1646:1666   */\n      tag_19\n      jump\t// in\n    tag_48:\n        /* \"#utility.yul\":1641:1666   */\n      swap3\n      pop\n        /* \"#utility.yul\":1685:1686   */\n      dup3\n        /* \"#utility.yul\":1675:1710   */\n      tag_49\n      jumpi\n        /* \"#utility.yul\":1690:1708   */\n      tag_50\n      tag_23\n      jump\t// in\n    tag_50:\n        /* \"#utility.yul\":1675:1710   */\n    tag_49:\n        /* \"#utility.yul\":1731:1732   */\n      dup3\n        /* \"#utility.yul\":1728:1729   */\n      dup3\n        /* \"#utility.yul\":1724:1733   */\n      mod\n        /* \"#utility.yul\":1719:1733   */\n      swap1\n      pop\n        /* \"#utility.yul\":1563:1739   */\n      swap3\n      swap2\n      pop\n      pop\n      jump\t// out\n        /* \"#utility.yul\":1745:1914   */\n    tag_24:\n        /* \"#utility.yul\":1829:1840   */\n      0x00\n        /* \"#utility.yul\":1863:1869   */\n      dup3\n        /* \"#utility.yul\":1858:1861   */\n      dup3\n        /* \"#utility.yul\":1851:1870   */\n      mstore\n        /* \"#utility.yul\":1903:1907   */\n      0x20\n        /* \"#utility.yul\":1898:1901   */\n      dup3\n        /* \"#utility.yul\":1894:1908   */\n      add\n        /* \"#utility.yul\":1879:1908   */\n      swap1\n      pop\n        /* \"#utility.yul\":1745:1914   */\n      swap3\n      swap2\n      pop\n      pop\n      jump\t// out\n        /* \"#utility.yul\":1920:2084   */\n    tag_25:\n        /* \"#utility.yul\":2060:2076   */\n      0x5570732120526576657274696e67000000000000000000000000000000000000\n        /* \"#utility.yul\":2056:2057   */\n      0x00\n        /* \"#utility.yul\":2048:2054   */\n      dup3\n        /* \"#utility.yul\":2044:2058   */\n      add\n        /* \"#utility.yul\":2037:2077   */\n      mstore\n        /* \"#utility.yul\":1920:2084   */\n      pop\n      jump\t// out\n        /* \"#utility.yul\":2090:2456   */\n    tag_26:\n        /* \"#utility.yul\":2232:2235   */\n      0x00\n        /* \"#utility.yul\":2253:2320   */\n      tag_54\n        /* \"#utility.yul\":2317:2319   */\n      0x0e\n        /* \"#utility.yul\":2312:2315   */\n      dup4\n        /* \"#utility.yul\":2253:2320   */\n      tag_24\n      jump\t// in\n    tag_54:\n        /* \"#utility.yul\":2246:2320   */\n      swap2\n      pop\n        /* \"#utility.yul\":2329:2422   */\n      tag_55\n        /* \"#utility.yul\":2418:2421   */\n      dup3\n        /* \"#utility.yul\":2329:2422   */\n      tag_25\n      jump\t// in\n    tag_55:\n        /* \"#utility.yul\":2447:2449   */\n      0x20\n        /* \"#utility.yul\":2442:2445   */\n      dup3\n        /* \"#utility.yul\":2438:2450   */\n      add\n        /* \"#utility.yul\":2431:2450   */\n      swap1\n      pop\n        /* \"#utility.yul\":2090:2456   */\n      swap2\n      swap1\n      pop\n      jump\t// out\n        /* \"#utility.yul\":2462:2881   */\n    tag_15:\n        /* \"#utility.yul\":2628:2632   */\n      0x00\n        /* \"#utility.yul\":2666:2668   */\n      0x20\n        /* \"#utility.yul\":2655:2664   */\n      dup3\n        /* \"#utility.yul\":2651:2669   */\n      add\n        /* \"#utility.yul\":2643:2669   */\n      swap1\n      pop\n        /* \"#utility.yul\":2715:2724   */\n      dup2\n        /* \"#utility.yul\":2709:2713   */\n      dup2\n        /* \"#utility.yul\":2705:2725   */\n      sub\n        /* \"#utility.yul\":2701:2702   */\n      0x00\n        /* \"#utility.yul\":2690:2699   */\n      dup4\n        /* \"#utility.yul\":2686:2703   */\n      add\n        /* \"#utility.yul\":2679:2726   */\n      mstore\n        /* \"#utility.yul\":2743:2874   */\n      tag_57\n        /* \"#utility.yul\":2869:2873   */\n      dup2\n        /* \"#utility.yul\":2743:2874   */\n      tag_26\n      jump\t// in\n    tag_57:\n        /* \"#utility.yul\":2735:2874   */\n      swap1\n      pop\n        /* \"#utility.yul\":2462:2881   */\n      swap2\n      swap1\n      pop\n      jump\t// out\n\n    auxdata: 0xa264697066735822122092b108d582b5015f29cfbb3c3ec24858dc3582afdbd7f31d4cf78c3cd150ef3264736f6c634300081e0033\n}\n",
				"bytecode": {
					"linkReferences": {},
					"object": "608060405234801561000f575f5ffd5b506040516103e73803806103e7833981810160405281019061003191906100c1565b5f8103610073576040517f08c379a000000000000000000000000000000000000000000000000000000000815260040161006a90610146565b60405180910390fd5b6001810361008457610083610164565b5b50610191565b5f5ffd5b5f819050919050565b6100a08161008e565b81146100aa575f5ffd5b50565b5f815190506100bb81610097565b92915050565b5f602082840312156100d6576100d561008a565b5b5f6100e3848285016100ad565b91505092915050565b5f82825260208201905092915050565b7f696e76616c6964206e756d6265722e2e2e0000000000000000000000000000005f82015250565b5f6101306011836100ec565b915061013b826100fc565b602082019050919050565b5f6020820190508181035f83015261015d81610124565b9050919050565b7f4e487b71000000000000000000000000000000000000000000000000000000005f52600160045260245ffd5b6102498061019e5f395ff3fe608060405234801561000f575f5ffd5b5060043610610029575f3560e01c8063ce0b42131461002d575b5f5ffd5b610047600480360381019061004291906100eb565b61005d565b6040516100549190610125565b60405180910390f35b5f5f60028361006c919061016b565b146100ac576040517f08c379a00000000000000000000000000000000000000000000000000000000081526004016100a3906101f5565b60405180910390fd5b819050919050565b5f5ffd5b5f819050919050565b6100ca816100b8565b81146100d4575f5ffd5b50565b5f813590506100e5816100c1565b92915050565b5f60208284031215610100576100ff6100b4565b5b5f61010d848285016100d7565b91505092915050565b61011f816100b8565b82525050565b5f6020820190506101385f830184610116565b92915050565b7f4e487b71000000000000000000000000000000000000000000000000000000005f52601260045260245ffd5b5f610175826100b8565b9150610180836100b8565b9250826101905761018f61013e565b5b828206905092915050565b5f82825260208201905092915050565b7f5570732120526576657274696e670000000000000000000000000000000000005f82015250565b5f6101df600e8361019b565b91506101ea826101ab565b602082019050919050565b5f6020820190508181035f83015261020c816101d3565b905091905056fea264697066735822122092b108d582b5015f29cfbb3c3ec24858dc3582afdbd7f31d4cf78c3cd150ef3264736f6c634300081e0033",
					"opcodes": "PUSH1 0x80 PUSH1 0x40 MSTORE CALLVALUE DUP1 ISZERO PUSH2 0xF JUMPI PUSH0 PUSH0 REVERT JUMPDEST POP PUSH1 0x40 MLOAD PUSH2 0x3E7 CODESIZE SUB DUP1 PUSH2 0x3E7 DUP4 CODECOPY DUP2 DUP2 ADD PUSH1 0x40 MSTORE DUP2 ADD SWAP1 PUSH2 0x31 SWAP2 SWAP1 PUSH2 0xC1 JUMP JUMPDEST PUSH0 DUP2 SUB PUSH2 0x73 JUMPI PUSH1 0x40 MLOAD PUSH32 0x8C379A000000000000000000000000000000000000000000000000000000000 DUP2 MSTORE PUSH1 0x4 ADD PUSH2 0x6A SWAP1 PUSH2 0x146 JUMP JUMPDEST PUSH1 0x40 MLOAD DUP1 SWAP2 SUB SWAP1 REVERT JUMPDEST PUSH1 0x1 DUP2 SUB PUSH2 0x84 JUMPI PUSH2 0x83 PUSH2 0x164 JUMP JUMPDEST JUMPDEST POP PUSH2 0x191 JUMP JUMPDEST PUSH0 PUSH0 REVERT JUMPDEST PUSH0 DUP2 SWAP1 POP SWAP2 SWAP1 POP JUMP JUMPDEST PUSH2 0xA0 DUP2 PUSH2 0x8E JUMP JUMPDEST DUP2 EQ PUSH2 0xAA JUMPI PUSH0 PUSH0 REVERT JUMPDEST POP JUMP JUMPDEST PUSH0 DUP2 MLOAD SWAP1 POP PUSH2 0xBB DUP2 PUSH2 0x97 JUMP JUMPDEST SWAP3 SWAP2 POP POP JUMP JUMPDEST PUSH0 PUSH1 0x20 DUP3 DUP5 SUB SLT ISZERO PUSH2 0xD6 JUMPI PUSH2 0xD5 PUSH2 0x8A JUMP JUMPDEST JUMPDEST PUSH0 PUSH2 0xE3 DUP5 DUP3 DUP6 ADD PUSH2 0xAD JUMP JUMPDEST SWAP2 POP POP SWAP3 SWAP2 POP POP JUMP JUMPDEST PUSH0 DUP3 DUP3 MSTORE PUSH1 0x20 DUP3 ADD SWAP1 POP SWAP3 SWAP2 POP POP JUMP JUMPDEST PUSH32 0x696E76616C6964206E756D6265722E2E2E000000000000000000000000000000 PUSH0 DUP3 ADD MSTORE POP JUMP JUMPDEST PUSH0 PUSH2 0x130 PUSH1 0x11 DUP4 PUSH2 0xEC JUMP JUMPDEST SWAP2 POP PUSH2 0x13B DUP3 PUSH2 0xFC JUMP JUMPDEST PUSH1 0x20 DUP3 ADD SWAP1 POP SWAP2 SWAP1 POP JUMP JUMPDEST PUSH0 PUSH1 0x20 DUP3 ADD SWAP1 POP DUP2 DUP2 SUB PUSH0 DUP4 ADD MSTORE PUSH2 0x15D DUP2 PUSH2 0x124 JUMP JUMPDEST SWAP1 POP SWAP2 SWAP1 POP JUMP JUMPDEST PUSH32 0x4E487B7100000000000000000000000000000000000000000000000000000000 PUSH0 MSTORE PUSH1 0x1 PUSH1 0x4 MSTORE PUSH1 0x24 PUSH0 REVERT JUMPDEST PUSH2 0x249 DUP1 PUSH2 0x19E PUSH0 CODECOPY PUSH0 RETURN INVALID PUSH1 0x80 PUSH1 0x40 MSTORE CALLVALUE DUP1 ISZERO PUSH2 0xF JUMPI PUSH0 PUSH0 REVERT JUMPDEST POP PUSH1 0x4 CALLDATASIZE LT PUSH2 0x29 JUMPI PUSH0 CALLDATALOAD PUSH1 0xE0 SHR DUP1 PUSH4 0xCE0B4213 EQ PUSH2 0x2D JUMPI JUMPDEST PUSH0 PUSH0 REVERT JUMPDEST PUSH2 0x47 PUSH1 0x4 DUP1 CALLDATASIZE SUB DUP2 ADD SWAP1 PUSH2 0x42 SWAP2 SWAP1 PUSH2 0xEB JUMP JUMPDEST PUSH2 0x5D JUMP JUMPDEST PUSH1 0x40 MLOAD PUSH2 0x54 SWAP2 SWAP1 PUSH2 0x125 JUMP JUMPDEST PUSH1 0x40 MLOAD DUP1 SWAP2 SUB SWAP1 RETURN JUMPDEST PUSH0 PUSH0 PUSH1 0x2 DUP4 PUSH2 0x6C SWAP2 SWAP1 PUSH2 0x16B JUMP JUMPDEST EQ PUSH2 0xAC JUMPI PUSH1 0x40 MLOAD PUSH32 0x8C379A000000000000000000000000000000000000000000000000000000000 DUP2 MSTORE PUSH1 0x4 ADD PUSH2 0xA3 SWAP1 PUSH2 0x1F5 JUMP JUMPDEST PUSH1 0x40 MLOAD DUP1 SWAP2 SUB SWAP1 REVERT JUMPDEST DUP2 SWAP1 POP SWAP2 SWAP1 POP JUMP JUMPDEST PUSH0 PUSH0 REVERT JUMPDEST PUSH0 DUP2 SWAP1 POP SWAP2 SWAP1 POP JUMP JUMPDEST PUSH2 0xCA DUP2 PUSH2 0xB8 JUMP JUMPDEST DUP2 EQ PUSH2 0xD4 JUMPI PUSH0 PUSH0 REVERT JUMPDEST POP JUMP JUMPDEST PUSH0 DUP2 CALLDATALOAD SWAP1 POP PUSH2 0xE5 DUP2 PUSH2 0xC1 JUMP JUMPDEST SWAP3 SWAP2 POP POP JUMP JUMPDEST PUSH0 PUSH1 0x20 DUP3 DUP5 SUB SLT ISZERO PUSH2 0x100 JUMPI PUSH2 0xFF PUSH2 0xB4 JUMP JUMPDEST JUMPDEST PUSH0 PUSH2 0x10D DUP5 DUP3 DUP6 ADD PUSH2 0xD7 JUMP JUMPDEST SWAP2 POP POP SWAP3 SWAP2 POP POP JUMP JUMPDEST PUSH2 0x11F DUP2 PUSH2 0xB8 JUMP JUMPDEST DUP3 MSTORE POP POP JUMP JUMPDEST PUSH0 PUSH1 0x20 DUP3 ADD SWAP1 POP PUSH2 0x138 PUSH0 DUP4 ADD DUP5 PUSH2 0x116 JUMP JUMPDEST SWAP3 SWAP2 POP POP JUMP JUMPDEST PUSH32 0x4E487B7100000000000000000000000000000000000000000000000000000000 PUSH0 MSTORE PUSH1 0x12 PUSH1 0x4 MSTORE PUSH1 0x24 PUSH0 REVERT JUMPDEST PUSH0 PUSH2 0x175 DUP3 PUSH2 0xB8 JUMP JUMPDEST SWAP2 POP PUSH2 0x180 DUP4 PUSH2 0xB8 JUMP JUMPDEST SWAP3 POP DUP3 PUSH2 0x190 JUMPI PUSH2 0x18F PUSH2 0x13E JUMP JUMPDEST JUMPDEST DUP3 DUP3 MOD SWAP1 POP SWAP3 SWAP2 POP POP JUMP JUMPDEST PUSH0 DUP3 DUP3 MSTORE PUSH1 0x20 DUP3 ADD SWAP1 POP SWAP3 SWAP2 POP POP JUMP JUMPDEST PUSH32 0x5570732120526576657274696E67000000000000000000000000000000000000 PUSH0 DUP3 ADD MSTORE POP JUMP JUMPDEST PUSH0 PUSH2 0x1DF PUSH1 0xE DUP4 PUSH2 0x19B JUMP JUMPDEST SWAP2 POP PUSH2 0x1EA DUP3 PUSH2 0x1AB JUMP JUMPDEST PUSH1 0x20 DUP3 ADD SWAP1 POP SWAP2 SWAP1 POP JUMP JUMPDEST PUSH0 PUSH1 0x20 DUP3 ADD SWAP1 POP DUP2 DUP2 SUB PUSH0 DUP4 ADD MSTORE PUSH2 0x20C DUP2 PUSH2 0x1D3 JUMP JUMPDEST SWAP1 POP SWAP2 SWAP1 POP JUMP INVALID LOG2 PUSH5 0x6970667358 0x22 SLT KECCAK256 SWAP3 0xB1 ADDMOD 0xD5 DUP3 0xB5 ADD PUSH0 0x29 0xCF 0xBB EXTCODECOPY RETURNDATACOPY 0xC2 BASEFEE PC 0xDC CALLDATALOAD DUP3 0xAF 0xDB 0xD7 RETURN SAR 0x4C 0xF7 DUP13 EXTCODECOPY DATALOADN 0x50EF ORIGIN PUSH5 0x736F6C6343 STOP ADDMOD 0x1E STOP CALLER "
				},
				"gasEstimates": {
					"creation": {
						"codeDepositCost": "117000",
						"executionCost": "infinite",
						"totalCost": "infinite"
					},
					"external": {
						"onlyEven(uint256)": "infinite"
					}
				},
				"methodIdentifiers": {
					"onlyEven(uint256)": "ce0b4213"
				}
			},
			"storageLayout": {
				"storage": [],
				"types": null
			},
			"userdoc": {
				"kind": "user",
				"methods": {},
				"version": 1
			}
		}
	}
}