{
	"TryCatch.sol": {
		"TryCatch": {
			"abi": [
				{
					"inputs": [],
					"stateMutability": "nonpayable",
					"type": "constructor"
				},
				{
					"anonymous": false,
					"inputs": [
						{
							"indexed": false,
							"internalType": "bytes",
							"name": "data",
							"type": "bytes"
						}
					],
					"name": "CatchByte",
					"type": "event"
				},
				{
					"anonymous": false,
					"inputs": [
						{
							"indexed": false,
							"internalType": "string",
							"name": "msg",
							"type": "string"
						}
					],
					"name": "CatchEvent",
					"type": "event"
				},
				{
					"anonymous": false,
					"inputs": [],
					"name": "SuccessEvent",
					"type": "event"
				},
				{
					"inputs": [
						{
							"internalType": "uint256",
							"name": "amount",
							"type": "uint256"
						}
					],
					"name": "execute",
					"outputs": [
						{
							"internalType": "bool",
							"name": "success",
							"type": "bool"
						}
					],
					"stateMutability": "nonpayable",
					"type": "function"
				},
				{
					"inputs": [
						{
							"internalType": "uint256",
							"name": "amount",
							"type": "uint256"
						}
					],
					"name": "executeNew",
					"outputs": [
						{
							"internalType": "bool",
							"name": "success",
							"type": "bool"
						}
					],
					"stateMutability": "nonpayable",
					"type": "function"
				},
				{
					"inputs": [],
					"name": "executeRevert",
					"outputs": [],
					"stateMutability": "nonpayable",
					"type": "function"
				},
				{
					"inputs": [],
					"name": "executeRevert2",
					"outputs": [
						{
							"internalType": "bool",
							"name": "success",
							"type": "bool"
						}
					],
					"stateMutability": "nonpayable",
					"type": "function"
				},
				{
					"inputs": [],
					"name": "executeRevertTest",
					"outputs": [
						{
							"internalType": "bool",
							"name": "success",
							"type": "bool"
						}
					],
					"stateMutability": "nonpayable",
					"type": "function"
				}
			],
			"devdoc": {
				"kind": "dev",
				"methods": {},
				"version": 1
			},
			"evm": {
				"assembly": "    /* \"TryCatch.sol\":615:2849  contract TryCatch {... */\n  mstore(0x40, 0x80)\n    /* \"TryCatch.sol\":762:816  constructor(){... */\n  callvalue\n  dup1\n  iszero\n  tag_1\n  jumpi\n  revert(0x00, 0x00)\ntag_1:\n  pop\n    /* \"TryCatch.sol\":806:807  2 */\n  0x02\n    /* \"TryCatch.sol\":793:808  new OnlyEven(2) */\n  mload(0x40)\n  tag_4\n  swap1\n  tag_5\n  jump\t// in\ntag_4:\n  tag_6\n  swap2\n  swap1\n  tag_7\n  jump\t// in\ntag_6:\n  mload(0x40)\n  dup1\n  swap2\n  sub\n  swap1\n  0x00\n  create\n  dup1\n  iszero\n  dup1\n  iszero\n  tag_8\n  jumpi\n  returndatacopy(0x00, 0x00, returndatasize)\n  revert(0x00, returndatasize)\ntag_8:\n  pop\n    /* \"TryCatch.sol\":786:790  even */\n  0x00\n  0x00\n    /* \"TryCatch.sol\":786:808  even = new OnlyEven(2) */\n  0x0100\n  exp\n  dup2\n  sload\n  dup2\n  0xffffffffffffffffffffffffffffffffffffffff\n  mul\n  not\n  and\n  swap1\n  dup4\n  0xffffffffffffffffffffffffffffffffffffffff\n  and\n  mul\n  or\n  swap1\n  sstore\n  pop\n    /* \"TryCatch.sol\":615:2849  contract TryCatch {... */\n  jump(tag_9)\ntag_5:\n  dataSize(sub_1)\n  dup1\n  dataOffset(sub_1)\n  dup4\n  codecopy\n  add\n  swap1\n  jump\t// out\n    /* \"#utility.yul\":7:92   */\ntag_10:\n    /* \"#utility.yul\":52:59   */\n  0x00\n    /* \"#utility.yul\":81:86   */\n  dup2\n    /* \"#utility.yul\":70:86   */\n  swap1\n  pop\n    /* \"#utility.yul\":7:92   */\n  swap2\n  swap1\n  pop\n  jump\t// out\n    /* \"#utility.yul\":98:175   */\ntag_11:\n    /* \"#utility.yul\":135:142   */\n  0x00\n    /* \"#utility.yul\":164:169   */\n  dup2\n    /* \"#utility.yul\":153:169   */\n  swap1\n  pop\n    /* \"#utility.yul\":98:175   */\n  swap2\n  swap1\n  pop\n  jump\t// out\n    /* \"#utility.yul\":181:241   */\ntag_12:\n    /* \"#utility.yul\":209:212   */\n  0x00\n    /* \"#utility.yul\":230:235   */\n  dup2\n    /* \"#utility.yul\":223:235   */\n  swap1\n  pop\n    /* \"#utility.yul\":181:241   */\n  swap2\n  swap1\n  pop\n  jump\t// out\n    /* \"#utility.yul\":247:405   */\ntag_13:\n    /* \"#utility.yul\":305:314   */\n  0x00\n    /* \"#utility.yul\":338:399   */\n  tag_20\n    /* \"#utility.yul\":356:398   */\n  tag_21\n    /* \"#utility.yul\":365:397   */\n  tag_22\n    /* \"#utility.yul\":391:396   */\n  dup5\n    /* \"#utility.yul\":365:397   */\n  tag_10\n  jump\t// in\ntag_22:\n    /* \"#utility.yul\":356:398   */\n  tag_12\n  jump\t// in\ntag_21:\n    /* \"#utility.yul\":338:399   */\n  tag_11\n  jump\t// in\ntag_20:\n    /* \"#utility.yul\":325:399   */\n  swap1\n  pop\n    /* \"#utility.yul\":247:405   */\n  swap2\n  swap1\n  pop\n  jump\t// out\n    /* \"#utility.yul\":411:558   */\ntag_14:\n    /* \"#utility.yul\":506:551   */\n  tag_24\n    /* \"#utility.yul\":545:550   */\n  dup2\n    /* \"#utility.yul\":506:551   */\n  tag_13\n  jump\t// in\ntag_24:\n    /* \"#utility.yul\":501:504   */\n  dup3\n    /* \"#utility.yul\":494:552   */\n  mstore\n    /* \"#utility.yul\":411:558   */\n  pop\n  pop\n  jump\t// out\n    /* \"#utility.yul\":564:802   */\ntag_7:\n    /* \"#utility.yul\":665:669   */\n  0x00\n    /* \"#utility.yul\":703:705   */\n  0x20\n    /* \"#utility.yul\":692:701   */\n  dup3\n    /* \"#utility.yul\":688:706   */\n  add\n    /* \"#utility.yul\":680:706   */\n  swap1\n  pop\n    /* \"#utility.yul\":716:795   */\n  tag_26\n    /* \"#utility.yul\":792:793   */\n  0x00\n    /* \"#utility.yul\":781:790   */\n  dup4\n    /* \"#utility.yul\":777:794   */\n  add\n    /* \"#utility.yul\":768:774   */\n  dup5\n    /* \"#utility.yul\":716:795   */\n  tag_14\n  jump\t// in\ntag_26:\n    /* \"#utility.yul\":564:802   */\n  swap3\n  swap2\n  pop\n  pop\n  jump\t// out\n    /* \"TryCatch.sol\":615:2849  contract TryCatch {... */\ntag_9:\n  dataSize(sub_0)\n  dup1\n  dataOffset(sub_0)\n  0x00\n  codecopy\n  0x00\n  return\nstop\n\nsub_0: assembly {\n        /* \"TryCatch.sol\":615:2849  contract TryCatch {... */\n      mstore(0x40, 0x80)\n      callvalue\n      dup1\n      iszero\n      tag_1\n      jumpi\n      revert(0x00, 0x00)\n    tag_1:\n      pop\n      jumpi(tag_2, lt(calldatasize, 0x04))\n      shr(0xe0, calldataload(0x00))\n      dup1\n      0x60ebc172\n      eq\n      tag_3\n      jumpi\n      dup1\n      0x617a691c\n      eq\n      tag_4\n      jumpi\n      dup1\n      0x7e3b0c57\n      eq\n      tag_5\n      jumpi\n      dup1\n      0xf873724f\n      eq\n      tag_6\n      jumpi\n      dup1\n      0xfe0d94c1\n      eq\n      tag_7\n      jumpi\n    tag_2:\n      revert(0x00, 0x00)\n        /* \"TryCatch.sol\":1290:1653  function executeNew(uint amount) external returns (bool success) {... */\n    tag_3:\n      tag_8\n      0x04\n      dup1\n      calldatasize\n      sub\n      dup2\n      add\n      swap1\n      tag_9\n      swap2\n      swap1\n      tag_10\n      jump\t// in\n    tag_9:\n      tag_11\n      jump\t// in\n    tag_8:\n      mload(0x40)\n      tag_12\n      swap2\n      swap1\n      tag_13\n      jump\t// in\n    tag_12:\n      mload(0x40)\n      dup1\n      swap2\n      sub\n      swap1\n      return\n        /* \"TryCatch.sol\":2412:2846  function executeRevert2() external returns (bool success) {... */\n    tag_4:\n      tag_14\n      tag_15\n      jump\t// in\n    tag_14:\n      mload(0x40)\n      tag_16\n      swap2\n      swap1\n      tag_13\n      jump\t// in\n    tag_16:\n      mload(0x40)\n      dup1\n      swap2\n      sub\n      swap1\n      return\n        /* \"TryCatch.sol\":1661:1960  function executeRevert() external {... */\n    tag_5:\n      tag_17\n      tag_18\n      jump\t// in\n    tag_17:\n      stop\n        /* \"TryCatch.sol\":1968:2404  function executeRevertTest() external returns (bool success) {... */\n    tag_6:\n      tag_19\n      tag_20\n      jump\t// in\n    tag_19:\n      mload(0x40)\n      tag_21\n      swap2\n      swap1\n      tag_13\n      jump\t// in\n    tag_21:\n      mload(0x40)\n      dup1\n      swap2\n      sub\n      swap1\n      return\n        /* \"TryCatch.sol\":904:1164  function execute(uint amount) external returns (bool success) {... */\n    tag_7:\n      tag_22\n      0x04\n      dup1\n      calldatasize\n      sub\n      dup2\n      add\n      swap1\n      tag_23\n      swap2\n      swap1\n      tag_10\n      jump\t// in\n    tag_23:\n      tag_24\n      jump\t// in\n    tag_22:\n      mload(0x40)\n      tag_25\n      swap2\n      swap1\n      tag_13\n      jump\t// in\n    tag_25:\n      mload(0x40)\n      dup1\n      swap2\n      sub\n      swap1\n      return\n        /* \"TryCatch.sol\":1290:1653  function executeNew(uint amount) external returns (bool success) {... */\n    tag_11:\n        /* \"TryCatch.sol\":1341:1353  bool success */\n      0x00\n        /* \"TryCatch.sol\":1383:1389  amount */\n      dup2\n        /* \"TryCatch.sol\":1370:1390  new OnlyEven(amount) */\n      mload(0x40)\n      tag_27\n      swap1\n      tag_28\n      jump\t// in\n    tag_27:\n      tag_29\n      swap2\n      swap1\n      tag_30\n      jump\t// in\n    tag_29:\n      mload(0x40)\n      dup1\n      swap2\n      sub\n      swap1\n      0x00\n      create\n      dup1\n      iszero\n      tag_31\n      jumpi\n      0x01\n    tag_31:\n        /* \"TryCatch.sol\":1366:1646  try new OnlyEven(amount) returns (OnlyEven onlyEven) {... */\n      tag_32\n      jumpi\n      tag_36\n      tag_37\n      jump\t// in\n    tag_36:\n      dup1\n      0x08c379a0\n      sub\n      tag_35\n      jumpi\n      pop\n      tag_38\n      tag_39\n      jump\t// in\n    tag_38:\n      dup1\n      tag_40\n      jumpi\n      pop\n      jump(tag_34)\n    tag_40:\n        /* \"TryCatch.sol\":1530:1548  CatchEvent(reason) */\n      0xb761112ad379c509744de8d585702b0d2694d4ceaef85ad50d452ff06821a6a6\n        /* \"TryCatch.sol\":1541:1547  reason */\n      dup2\n        /* \"TryCatch.sol\":1530:1548  CatchEvent(reason) */\n      mload(0x40)\n      tag_41\n      swap2\n      swap1\n      tag_42\n      jump\t// in\n    tag_41:\n      mload(0x40)\n      dup1\n      swap2\n      sub\n      swap1\n      log1\n        /* \"TryCatch.sol\":1466:1560  catch Error (string memory reason) {//require... */\n      pop\n        /* \"TryCatch.sol\":1366:1646  try new OnlyEven(amount) returns (OnlyEven onlyEven) {... */\n      jump(tag_33)\n    tag_35:\n      pop\n    tag_34:\n      returndatasize\n      dup1\n      0x00\n      dup2\n      eq\n      tag_44\n      jumpi\n      mload(0x40)\n      swap2\n      pop\n      and(add(returndatasize, 0x3f), not(0x1f))\n      dup3\n      add\n      0x40\n      mstore\n      returndatasize\n      dup3\n      mstore\n      returndatasize\n      0x00\n      0x20\n      dup5\n      add\n      returndatacopy\n      jump(tag_43)\n    tag_44:\n      0x60\n      swap2\n      pop\n    tag_43:\n      pop\n        /* \"TryCatch.sol\":1617:1634  CatchByte(reason) */\n      0xb6f66868478aebcea8c7a15c8c7dd37a513a4127424642ee3573117b52fa3e39\n        /* \"TryCatch.sol\":1627:1633  reason */\n      dup2\n        /* \"TryCatch.sol\":1617:1634  CatchByte(reason) */\n      mload(0x40)\n      tag_45\n      swap2\n      swap1\n      tag_46\n      jump\t// in\n    tag_45:\n      mload(0x40)\n      dup1\n      swap2\n      sub\n      swap1\n      log1\n        /* \"TryCatch.sol\":1561:1646  catch (bytes memory reason) {//assert... */\n      pop\n        /* \"TryCatch.sol\":1366:1646  try new OnlyEven(amount) returns (OnlyEven onlyEven) {... */\n    tag_33:\n      jump(tag_47)\n    tag_32:\n        /* \"TryCatch.sol\":1439:1453  SuccessEvent() */\n      0xfd76336752e93f2cc77cf13a41be8b6c156731030376354d634d28a9a87b9162\n      mload(0x40)\n      mload(0x40)\n      dup1\n      swap2\n      sub\n      swap1\n      log1\n        /* \"TryCatch.sol\":1391:1465  returns (OnlyEven onlyEven) {... */\n      pop\n        /* \"TryCatch.sol\":1366:1646  try new OnlyEven(amount) returns (OnlyEven onlyEven) {... */\n    tag_47:\n        /* \"TryCatch.sol\":1290:1653  function executeNew(uint amount) external returns (bool success) {... */\n      swap2\n      swap1\n      pop\n      jump\t// out\n        /* \"TryCatch.sol\":2412:2846  function executeRevert2() external returns (bool success) {... */\n    tag_15:\n        /* \"TryCatch.sol\":2456:2468  bool success */\n      0x00\n        /* \"TryCatch.sol\":2481:2498  address onlyEven2 */\n      0x00\n        /* \"TryCatch.sol\":2523:2524  2 */\n      0x02\n        /* \"TryCatch.sol\":2509:2525  new OnlyEven2(2) */\n      mload(0x40)\n      tag_49\n      swap1\n      tag_50\n      jump\t// in\n    tag_49:\n      tag_51\n      swap2\n      swap1\n      tag_52\n      jump\t// in\n    tag_51:\n      mload(0x40)\n      dup1\n      swap2\n      sub\n      swap1\n      0x00\n      create\n      dup1\n      iszero\n      dup1\n      iszero\n      tag_53\n      jumpi\n      returndatacopy(0x00, 0x00, returndatasize)\n      revert(0x00, returndatasize)\n    tag_53:\n      pop\n        /* \"TryCatch.sol\":2481:2526  address onlyEven2 = address(new OnlyEven2(2)) */\n      swap1\n      pop\n        /* \"TryCatch.sol\":2537:2551  uint256 amount */\n      0x00\n        /* \"TryCatch.sol\":2552:2553  2 */\n      0x02\n        /* \"TryCatch.sol\":2537:2553  uint256 amount=2 */\n      swap1\n      pop\n        /* \"TryCatch.sol\":2577:2586  onlyEven2 */\n      dup2\n        /* \"TryCatch.sol\":2568:2596  OnlyEven(onlyEven2).onlyEven */\n      0xffffffffffffffffffffffffffffffffffffffff\n      and\n      0xce0b4213\n        /* \"TryCatch.sol\":2597:2603  amount */\n      dup3\n        /* \"TryCatch.sol\":2568:2604  OnlyEven(onlyEven2).onlyEven(amount) */\n      mload(0x40)\n      dup3\n      0xffffffff\n      and\n      0xe0\n      shl\n      dup2\n      mstore\n      0x04\n      add\n      tag_54\n      swap2\n      swap1\n      tag_30\n      jump\t// in\n    tag_54:\n      0x20\n      mload(0x40)\n      dup1\n      dup4\n      sub\n      dup2\n      dup7\n      gas\n      staticcall\n      swap3\n      pop\n      pop\n      pop\n      dup1\n      iszero\n      tag_55\n      jumpi\n      pop\n      mload(0x40)\n      returndatasize\n      not(0x1f)\n      0x1f\n      dup3\n      add\n      and\n      dup3\n      add\n      dup1\n      0x40\n      mstore\n      pop\n      dup2\n      add\n      swap1\n      tag_56\n      swap2\n      swap1\n      tag_57\n      jump\t// in\n    tag_56:\n      0x01\n    tag_55:\n        /* \"TryCatch.sol\":2564:2839  try OnlyEven(onlyEven2).onlyEven(amount) returns (bool _success) {... */\n      tag_58\n      jumpi\n      tag_62\n      tag_37\n      jump\t// in\n    tag_62:\n      dup1\n      0x08c379a0\n      sub\n      tag_61\n      jumpi\n      pop\n      tag_63\n      tag_39\n      jump\t// in\n    tag_63:\n      dup1\n      tag_64\n      jumpi\n      pop\n      jump(tag_60)\n    tag_64:\n        /* \"TryCatch.sol\":2731:2749  CatchEvent(reason) */\n      0xb761112ad379c509744de8d585702b0d2694d4ceaef85ad50d452ff06821a6a6\n        /* \"TryCatch.sol\":2742:2748  reason */\n      dup2\n        /* \"TryCatch.sol\":2731:2749  CatchEvent(reason) */\n      mload(0x40)\n      tag_65\n      swap2\n      swap1\n      tag_42\n      jump\t// in\n    tag_65:\n      mload(0x40)\n      dup1\n      swap2\n      sub\n      swap1\n      log1\n        /* \"TryCatch.sol\":2676:2761  catch Error (string memory reason) {... */\n      pop\n        /* \"TryCatch.sol\":2564:2839  try OnlyEven(onlyEven2).onlyEven(amount) returns (bool _success) {... */\n      jump(tag_59)\n    tag_61:\n      pop\n    tag_60:\n      returndatasize\n      dup1\n      0x00\n      dup2\n      eq\n      tag_67\n      jumpi\n      mload(0x40)\n      swap2\n      pop\n      and(add(returndatasize, 0x3f), not(0x1f))\n      dup3\n      add\n      0x40\n      mstore\n      returndatasize\n      dup3\n      mstore\n      returndatasize\n      0x00\n      0x20\n      dup5\n      add\n      returndatacopy\n      jump(tag_66)\n    tag_67:\n      0x60\n      swap2\n      pop\n    tag_66:\n      pop\n        /* \"TryCatch.sol\":2810:2827  CatchByte(reason) */\n      0xb6f66868478aebcea8c7a15c8c7dd37a513a4127424642ee3573117b52fa3e39\n        /* \"TryCatch.sol\":2820:2826  reason */\n      dup2\n        /* \"TryCatch.sol\":2810:2827  CatchByte(reason) */\n      mload(0x40)\n      tag_68\n      swap2\n      swap1\n      tag_46\n      jump\t// in\n    tag_68:\n      mload(0x40)\n      dup1\n      swap2\n      sub\n      swap1\n      log1\n        /* \"TryCatch.sol\":2762:2839  catch (bytes memory reason) {... */\n      pop\n        /* \"TryCatch.sol\":2564:2839  try OnlyEven(onlyEven2).onlyEven(amount) returns (bool _success) {... */\n    tag_59:\n      jump(tag_69)\n    tag_58:\n        /* \"TryCatch.sol\":2649:2663  SuccessEvent() */\n      0xfd76336752e93f2cc77cf13a41be8b6c156731030376354d634d28a9a87b9162\n      mload(0x40)\n      mload(0x40)\n      dup1\n      swap2\n      sub\n      swap1\n      log1\n        /* \"TryCatch.sol\":2605:2675  returns (bool _success) {... */\n      pop\n        /* \"TryCatch.sol\":2564:2839  try OnlyEven(onlyEven2).onlyEven(amount) returns (bool _success) {... */\n    tag_69:\n        /* \"TryCatch.sol\":2470:2846  {... */\n      pop\n      pop\n        /* \"TryCatch.sol\":2412:2846  function executeRevert2() external returns (bool success) {... */\n      swap1\n      jump\t// out\n        /* \"TryCatch.sol\":1661:1960  function executeRevert() external {... */\n    tag_18:\n        /* \"TryCatch.sol\":1727:1728  0 */\n      0x00\n        /* \"TryCatch.sol\":1710:1739  OnlyEven(address(0)).onlyEven */\n      0xffffffffffffffffffffffffffffffffffffffff\n      and\n      0xce0b4213\n        /* \"TryCatch.sol\":1740:1741  1 */\n      0x01\n        /* \"TryCatch.sol\":1710:1742  OnlyEven(address(0)).onlyEven(1) */\n      mload(0x40)\n      dup3\n      0xffffffff\n      and\n      0xe0\n      shl\n      dup2\n      mstore\n      0x04\n      add\n      tag_71\n      swap2\n      swap1\n      tag_72\n      jump\t// in\n    tag_71:\n      0x20\n      mload(0x40)\n      dup1\n      dup4\n      sub\n      dup2\n      dup7\n      gas\n      staticcall\n      swap3\n      pop\n      pop\n      pop\n      dup1\n      iszero\n      tag_73\n      jumpi\n      pop\n      mload(0x40)\n      returndatasize\n      not(0x1f)\n      0x1f\n      dup3\n      add\n      and\n      dup3\n      add\n      dup1\n      0x40\n      mstore\n      pop\n      dup2\n      add\n      swap1\n      tag_74\n      swap2\n      swap1\n      tag_57\n      jump\t// in\n    tag_74:\n      0x01\n    tag_73:\n        /* \"TryCatch.sol\":1706:1953  try OnlyEven(address(0)).onlyEven(1) {... */\n      tag_75\n      jumpi\n      tag_79\n      tag_37\n      jump\t// in\n    tag_79:\n      dup1\n      0x08c379a0\n      sub\n      tag_78\n      jumpi\n      pop\n      tag_80\n      tag_39\n      jump\t// in\n    tag_80:\n      dup1\n      tag_81\n      jumpi\n      pop\n      jump(tag_77)\n    tag_81:\n        /* \"TryCatch.sol\":1845:1863  CatchEvent(reason) */\n      0xb761112ad379c509744de8d585702b0d2694d4ceaef85ad50d452ff06821a6a6\n        /* \"TryCatch.sol\":1856:1862  reason */\n      dup2\n        /* \"TryCatch.sol\":1845:1863  CatchEvent(reason) */\n      mload(0x40)\n      tag_82\n      swap2\n      swap1\n      tag_42\n      jump\t// in\n    tag_82:\n      mload(0x40)\n      dup1\n      swap2\n      sub\n      swap1\n      log1\n        /* \"TryCatch.sol\":1790:1875  catch Error (string memory reason) {... */\n      pop\n        /* \"TryCatch.sol\":1706:1953  try OnlyEven(address(0)).onlyEven(1) {... */\n      jump(tag_76)\n    tag_78:\n      pop\n    tag_77:\n      returndatasize\n      dup1\n      0x00\n      dup2\n      eq\n      tag_84\n      jumpi\n      mload(0x40)\n      swap2\n      pop\n      and(add(returndatasize, 0x3f), not(0x1f))\n      dup3\n      add\n      0x40\n      mstore\n      returndatasize\n      dup3\n      mstore\n      returndatasize\n      0x00\n      0x20\n      dup5\n      add\n      returndatacopy\n      jump(tag_83)\n    tag_84:\n      0x60\n      swap2\n      pop\n    tag_83:\n      pop\n        /* \"TryCatch.sol\":1924:1941  CatchByte(reason) */\n      0xb6f66868478aebcea8c7a15c8c7dd37a513a4127424642ee3573117b52fa3e39\n        /* \"TryCatch.sol\":1934:1940  reason */\n      dup2\n        /* \"TryCatch.sol\":1924:1941  CatchByte(reason) */\n      mload(0x40)\n      tag_85\n      swap2\n      swap1\n      tag_46\n      jump\t// in\n    tag_85:\n      mload(0x40)\n      dup1\n      swap2\n      sub\n      swap1\n      log1\n        /* \"TryCatch.sol\":1876:1953  catch (bytes memory reason) {... */\n      pop\n        /* \"TryCatch.sol\":1706:1953  try OnlyEven(address(0)).onlyEven(1) {... */\n    tag_76:\n      jump(tag_86)\n    tag_75:\n      pop\n        /* \"TryCatch.sol\":1763:1777  SuccessEvent() */\n      0xfd76336752e93f2cc77cf13a41be8b6c156731030376354d634d28a9a87b9162\n      mload(0x40)\n      mload(0x40)\n      dup1\n      swap2\n      sub\n      swap1\n      log1\n        /* \"TryCatch.sol\":1706:1953  try OnlyEven(address(0)).onlyEven(1) {... */\n    tag_86:\n        /* \"TryCatch.sol\":1661:1960  function executeRevert() external {... */\n      jump\t// out\n        /* \"TryCatch.sol\":1968:2404  function executeRevertTest() external returns (bool success) {... */\n    tag_20:\n        /* \"TryCatch.sol\":2015:2027  bool success */\n      0x00\n        /* \"TryCatch.sol\":2040:2057  address onlyEven2 */\n      0x00\n        /* \"TryCatch.sol\":2081:2082  2 */\n      0x02\n        /* \"TryCatch.sol\":2068:2083  new OnlyEven(2) */\n      mload(0x40)\n      tag_88\n      swap1\n      tag_28\n      jump\t// in\n    tag_88:\n      tag_89\n      swap2\n      swap1\n      tag_52\n      jump\t// in\n    tag_89:\n      mload(0x40)\n      dup1\n      swap2\n      sub\n      swap1\n      0x00\n      create\n      dup1\n      iszero\n      dup1\n      iszero\n      tag_90\n      jumpi\n      returndatacopy(0x00, 0x00, returndatasize)\n      revert(0x00, returndatasize)\n    tag_90:\n      pop\n        /* \"TryCatch.sol\":2040:2084  address onlyEven2 = address(new OnlyEven(2)) */\n      swap1\n      pop\n        /* \"TryCatch.sol\":2095:2109  uint256 amount */\n      0x00\n        /* \"TryCatch.sol\":2110:2111  2 */\n      0x02\n        /* \"TryCatch.sol\":2095:2111  uint256 amount=2 */\n      swap1\n      pop\n        /* \"TryCatch.sol\":2135:2144  onlyEven2 */\n      dup2\n        /* \"TryCatch.sol\":2126:2154  OnlyEven(onlyEven2).onlyEven */\n      0xffffffffffffffffffffffffffffffffffffffff\n      and\n      0xce0b4213\n        /* \"TryCatch.sol\":2155:2161  amount */\n      dup3\n        /* \"TryCatch.sol\":2126:2162  OnlyEven(onlyEven2).onlyEven(amount) */\n      mload(0x40)\n      dup3\n      0xffffffff\n      and\n      0xe0\n      shl\n      dup2\n      mstore\n      0x04\n      add\n      tag_91\n      swap2\n      swap1\n      tag_30\n      jump\t// in\n    tag_91:\n      0x20\n      mload(0x40)\n      dup1\n      dup4\n      sub\n      dup2\n      dup7\n      gas\n      staticcall\n      swap3\n      pop\n      pop\n      pop\n      dup1\n      iszero\n      tag_92\n      jumpi\n      pop\n      mload(0x40)\n      returndatasize\n      not(0x1f)\n      0x1f\n      dup3\n      add\n      and\n      dup3\n      add\n      dup1\n      0x40\n      mstore\n      pop\n      dup2\n      add\n      swap1\n      tag_93\n      swap2\n      swap1\n      tag_57\n      jump\t// in\n    tag_93:\n      0x01\n    tag_92:\n        /* \"TryCatch.sol\":2122:2397  try OnlyEven(onlyEven2).onlyEven(amount) returns (bool _success) {... */\n      tag_94\n      jumpi\n      tag_98\n      tag_37\n      jump\t// in\n    tag_98:\n      dup1\n      0x08c379a0\n      sub\n      tag_97\n      jumpi\n      pop\n      tag_99\n      tag_39\n      jump\t// in\n    tag_99:\n      dup1\n      tag_100\n      jumpi\n      pop\n      jump(tag_96)\n    tag_100:\n        /* \"TryCatch.sol\":2289:2307  CatchEvent(reason) */\n      0xb761112ad379c509744de8d585702b0d2694d4ceaef85ad50d452ff06821a6a6\n        /* \"TryCatch.sol\":2300:2306  reason */\n      dup2\n        /* \"TryCatch.sol\":2289:2307  CatchEvent(reason) */\n      mload(0x40)\n      tag_101\n      swap2\n      swap1\n      tag_42\n      jump\t// in\n    tag_101:\n      mload(0x40)\n      dup1\n      swap2\n      sub\n      swap1\n      log1\n        /* \"TryCatch.sol\":2234:2319  catch Error (string memory reason) {... */\n      pop\n        /* \"TryCatch.sol\":2122:2397  try OnlyEven(onlyEven2).onlyEven(amount) returns (bool _success) {... */\n      jump(tag_95)\n    tag_97:\n      pop\n    tag_96:\n      returndatasize\n      dup1\n      0x00\n      dup2\n      eq\n      tag_103\n      jumpi\n      mload(0x40)\n      swap2\n      pop\n      and(add(returndatasize, 0x3f), not(0x1f))\n      dup3\n      add\n      0x40\n      mstore\n      returndatasize\n      dup3\n      mstore\n      returndatasize\n      0x00\n      0x20\n      dup5\n      add\n      returndatacopy\n      jump(tag_102)\n    tag_103:\n      0x60\n      swap2\n      pop\n    tag_102:\n      pop\n        /* \"TryCatch.sol\":2368:2385  CatchByte(reason) */\n      0xb6f66868478aebcea8c7a15c8c7dd37a513a4127424642ee3573117b52fa3e39\n        /* \"TryCatch.sol\":2378:2384  reason */\n      dup2\n        /* \"TryCatch.sol\":2368:2385  CatchByte(reason) */\n      mload(0x40)\n      tag_104\n      swap2\n      swap1\n      tag_46\n      jump\t// in\n    tag_104:\n      mload(0x40)\n      dup1\n      swap2\n      sub\n      swap1\n      log1\n        /* \"TryCatch.sol\":2320:2397  catch (bytes memory reason) {... */\n      pop\n        /* \"TryCatch.sol\":2122:2397  try OnlyEven(onlyEven2).onlyEven(amount) returns (bool _success) {... */\n    tag_95:\n      jump(tag_105)\n    tag_94:\n        /* \"TryCatch.sol\":2207:2221  SuccessEvent() */\n      0xfd76336752e93f2cc77cf13a41be8b6c156731030376354d634d28a9a87b9162\n      mload(0x40)\n      mload(0x40)\n      dup1\n      swap2\n      sub\n      swap1\n      log1\n        /* \"TryCatch.sol\":2163:2233  returns (bool _success) {... */\n      pop\n        /* \"TryCatch.sol\":2122:2397  try OnlyEven(onlyEven2).onlyEven(amount) returns (bool _success) {... */\n    tag_105:\n        /* \"TryCatch.sol\":2029:2404  {... */\n      pop\n      pop\n        /* \"TryCatch.sol\":1968:2404  function executeRevertTest() external returns (bool success) {... */\n      swap1\n      jump\t// out\n        /* \"TryCatch.sol\":904:1164  function execute(uint amount) external returns (bool success) {... */\n    tag_24:\n        /* \"TryCatch.sol\":952:964  bool success */\n      0x00\n        /* \"TryCatch.sol\":981:985  even */\n      0x00\n      0x00\n      swap1\n      sload\n      swap1\n      0x0100\n      exp\n      swap1\n      div\n      0xffffffffffffffffffffffffffffffffffffffff\n      and\n        /* \"TryCatch.sol\":981:994  even.onlyEven */\n      0xffffffffffffffffffffffffffffffffffffffff\n      and\n      0xce0b4213\n        /* \"TryCatch.sol\":995:1001  amount */\n      dup4\n        /* \"TryCatch.sol\":981:1002  even.onlyEven(amount) */\n      mload(0x40)\n      dup3\n      0xffffffff\n      and\n      0xe0\n      shl\n      dup2\n      mstore\n      0x04\n      add\n      tag_107\n      swap2\n      swap1\n      tag_30\n      jump\t// in\n    tag_107:\n      0x20\n      mload(0x40)\n      dup1\n      dup4\n      sub\n      dup2\n      dup7\n      gas\n      staticcall\n      swap3\n      pop\n      pop\n      pop\n      dup1\n      iszero\n      tag_108\n      jumpi\n      pop\n      mload(0x40)\n      returndatasize\n      not(0x1f)\n      0x1f\n      dup3\n      add\n      and\n      dup3\n      add\n      dup1\n      0x40\n      mstore\n      pop\n      dup2\n      add\n      swap1\n      tag_109\n      swap2\n      swap1\n      tag_57\n      jump\t// in\n    tag_109:\n      0x01\n    tag_108:\n        /* \"TryCatch.sol\":977:1157  try even.onlyEven(amount) returns (bool success) {... */\n      tag_110\n      jumpi\n      tag_114\n      tag_37\n      jump\t// in\n    tag_114:\n      dup1\n      0x08c379a0\n      sub\n      tag_113\n      jumpi\n      pop\n      tag_115\n      tag_39\n      jump\t// in\n    tag_115:\n      dup1\n      tag_116\n      jumpi\n      pop\n      jump(tag_112)\n    tag_116:\n        /* \"TryCatch.sol\":1127:1145  CatchEvent(reason) */\n      0xb761112ad379c509744de8d585702b0d2694d4ceaef85ad50d452ff06821a6a6\n        /* \"TryCatch.sol\":1138:1144  reason */\n      dup2\n        /* \"TryCatch.sol\":1127:1145  CatchEvent(reason) */\n      mload(0x40)\n      tag_117\n      swap2\n      swap1\n      tag_42\n      jump\t// in\n    tag_117:\n      mload(0x40)\n      dup1\n      swap2\n      sub\n      swap1\n      log1\n        /* \"TryCatch.sol\":1073:1157  catch Error(string memory reason) {... */\n      pop\n        /* \"TryCatch.sol\":977:1157  try even.onlyEven(amount) returns (bool success) {... */\n      jump(tag_111)\n    tag_113:\n      pop\n    tag_112:\n      returndatacopy(0x00, 0x00, returndatasize)\n      revert(0x00, returndatasize)\n    tag_111:\n      jump(tag_118)\n    tag_110:\n        /* \"TryCatch.sol\":1046:1060  SuccessEvent() */\n      0xfd76336752e93f2cc77cf13a41be8b6c156731030376354d634d28a9a87b9162\n      mload(0x40)\n      mload(0x40)\n      dup1\n      swap2\n      sub\n      swap1\n      log1\n        /* \"TryCatch.sol\":1003:1072  returns (bool success) {... */\n      pop\n        /* \"TryCatch.sol\":977:1157  try even.onlyEven(amount) returns (bool success) {... */\n    tag_118:\n        /* \"TryCatch.sol\":904:1164  function execute(uint amount) external returns (bool success) {... */\n      swap2\n      swap1\n      pop\n      jump\t// out\n    tag_28:\n      dataSize(sub_0)\n      dup1\n      dataOffset(sub_0)\n      dup4\n      codecopy\n      add\n      swap1\n      jump\t// out\n    tag_50:\n      dataSize(sub_1)\n      dup1\n      dataOffset(sub_1)\n      dup4\n      codecopy\n      add\n      swap1\n      jump\t// out\n        /* \"#utility.yul\":7:82   */\n    tag_119:\n        /* \"#utility.yul\":40:46   */\n      0x00\n        /* \"#utility.yul\":73:75   */\n      0x40\n        /* \"#utility.yul\":67:76   */\n      mload\n        /* \"#utility.yul\":57:76   */\n      swap1\n      pop\n        /* \"#utility.yul\":7:82   */\n      swap1\n      jump\t// out\n        /* \"#utility.yul\":88:205   */\n    tag_120:\n        /* \"#utility.yul\":197:198   */\n      0x00\n        /* \"#utility.yul\":194:195   */\n      0x00\n        /* \"#utility.yul\":187:199   */\n      revert\n        /* \"#utility.yul\":334:411   */\n    tag_122:\n        /* \"#utility.yul\":371:378   */\n      0x00\n        /* \"#utility.yul\":400:405   */\n      dup2\n        /* \"#utility.yul\":389:405   */\n      swap1\n      pop\n        /* \"#utility.yul\":334:411   */\n      swap2\n      swap1\n      pop\n      jump\t// out\n        /* \"#utility.yul\":417:539   */\n    tag_123:\n        /* \"#utility.yul\":490:514   */\n      tag_154\n        /* \"#utility.yul\":508:513   */\n      dup2\n        /* \"#utility.yul\":490:514   */\n      tag_122\n      jump\t// in\n    tag_154:\n        /* \"#utility.yul\":483:488   */\n      dup2\n        /* \"#utility.yul\":480:515   */\n      eq\n        /* \"#utility.yul\":470:533   */\n      tag_155\n      jumpi\n        /* \"#utility.yul\":529:530   */\n      0x00\n        /* \"#utility.yul\":526:527   */\n      0x00\n        /* \"#utility.yul\":519:531   */\n      revert\n        /* \"#utility.yul\":470:533   */\n    tag_155:\n        /* \"#utility.yul\":417:539   */\n      pop\n      jump\t// out\n        /* \"#utility.yul\":545:684   */\n    tag_124:\n        /* \"#utility.yul\":591:596   */\n      0x00\n        /* \"#utility.yul\":629:635   */\n      dup2\n        /* \"#utility.yul\":616:636   */\n      calldataload\n        /* \"#utility.yul\":607:636   */\n      swap1\n      pop\n        /* \"#utility.yul\":645:678   */\n      tag_157\n        /* \"#utility.yul\":672:677   */\n      dup2\n        /* \"#utility.yul\":645:678   */\n      tag_123\n      jump\t// in\n    tag_157:\n        /* \"#utility.yul\":545:684   */\n      swap3\n      swap2\n      pop\n      pop\n      jump\t// out\n        /* \"#utility.yul\":690:1019   */\n    tag_10:\n        /* \"#utility.yul\":749:755   */\n      0x00\n        /* \"#utility.yul\":798:800   */\n      0x20\n        /* \"#utility.yul\":786:795   */\n      dup3\n        /* \"#utility.yul\":777:784   */\n      dup5\n        /* \"#utility.yul\":773:796   */\n      sub\n        /* \"#utility.yul\":769:801   */\n      slt\n        /* \"#utility.yul\":766:885   */\n      iszero\n      tag_159\n      jumpi\n        /* \"#utility.yul\":804:883   */\n      tag_160\n      tag_120\n      jump\t// in\n    tag_160:\n        /* \"#utility.yul\":766:885   */\n    tag_159:\n        /* \"#utility.yul\":924:925   */\n      0x00\n        /* \"#utility.yul\":949:1002   */\n      tag_161\n        /* \"#utility.yul\":994:1001   */\n      dup5\n        /* \"#utility.yul\":985:991   */\n      dup3\n        /* \"#utility.yul\":974:983   */\n      dup6\n        /* \"#utility.yul\":970:992   */\n      add\n        /* \"#utility.yul\":949:1002   */\n      tag_124\n      jump\t// in\n    tag_161:\n        /* \"#utility.yul\":939:1002   */\n      swap2\n      pop\n        /* \"#utility.yul\":895:1012   */\n      pop\n        /* \"#utility.yul\":690:1019   */\n      swap3\n      swap2\n      pop\n      pop\n      jump\t// out\n        /* \"#utility.yul\":1025:1115   */\n    tag_125:\n        /* \"#utility.yul\":1059:1066   */\n      0x00\n        /* \"#utility.yul\":1102:1107   */\n      dup2\n        /* \"#utility.yul\":1095:1108   */\n      iszero\n        /* \"#utility.yul\":1088:1109   */\n      iszero\n        /* \"#utility.yul\":1077:1109   */\n      swap1\n      pop\n        /* \"#utility.yul\":1025:1115   */\n      swap2\n      swap1\n      pop\n      jump\t// out\n        /* \"#utility.yul\":1121:1230   */\n    tag_126:\n        /* \"#utility.yul\":1202:1223   */\n      tag_164\n        /* \"#utility.yul\":1217:1222   */\n      dup2\n        /* \"#utility.yul\":1202:1223   */\n      tag_125\n      jump\t// in\n    tag_164:\n        /* \"#utility.yul\":1197:1200   */\n      dup3\n        /* \"#utility.yul\":1190:1224   */\n      mstore\n        /* \"#utility.yul\":1121:1230   */\n      pop\n      pop\n      jump\t// out\n        /* \"#utility.yul\":1236:1446   */\n    tag_13:\n        /* \"#utility.yul\":1323:1327   */\n      0x00\n        /* \"#utility.yul\":1361:1363   */\n      0x20\n        /* \"#utility.yul\":1350:1359   */\n      dup3\n        /* \"#utility.yul\":1346:1364   */\n      add\n        /* \"#utility.yul\":1338:1364   */\n      swap1\n      pop\n        /* \"#utility.yul\":1374:1439   */\n      tag_166\n        /* \"#utility.yul\":1436:1437   */\n      0x00\n        /* \"#utility.yul\":1425:1434   */\n      dup4\n        /* \"#utility.yul\":1421:1438   */\n      add\n        /* \"#utility.yul\":1412:1418   */\n      dup5\n        /* \"#utility.yul\":1374:1439   */\n      tag_126\n      jump\t// in\n    tag_166:\n        /* \"#utility.yul\":1236:1446   */\n      swap3\n      swap2\n      pop\n      pop\n      jump\t// out\n        /* \"#utility.yul\":1452:1570   */\n    tag_127:\n        /* \"#utility.yul\":1539:1563   */\n      tag_168\n        /* \"#utility.yul\":1557:1562   */\n      dup2\n        /* \"#utility.yul\":1539:1563   */\n      tag_122\n      jump\t// in\n    tag_168:\n        /* \"#utility.yul\":1534:1537   */\n      dup3\n        /* \"#utility.yul\":1527:1564   */\n      mstore\n        /* \"#utility.yul\":1452:1570   */\n      pop\n      pop\n      jump\t// out\n        /* \"#utility.yul\":1576:1798   */\n    tag_30:\n        /* \"#utility.yul\":1669:1673   */\n      0x00\n        /* \"#utility.yul\":1707:1709   */\n      0x20\n        /* \"#utility.yul\":1696:1705   */\n      dup3\n        /* \"#utility.yul\":1692:1710   */\n      add\n        /* \"#utility.yul\":1684:1710   */\n      swap1\n      pop\n        /* \"#utility.yul\":1720:1791   */\n      tag_170\n        /* \"#utility.yul\":1788:1789   */\n      0x00\n        /* \"#utility.yul\":1777:1786   */\n      dup4\n        /* \"#utility.yul\":1773:1790   */\n      add\n        /* \"#utility.yul\":1764:1770   */\n      dup5\n        /* \"#utility.yul\":1720:1791   */\n      tag_127\n      jump\t// in\n    tag_170:\n        /* \"#utility.yul\":1576:1798   */\n      swap3\n      swap2\n      pop\n      pop\n      jump\t// out\n        /* \"#utility.yul\":1804:1910   */\n    tag_128:\n        /* \"#utility.yul\":1848:1856   */\n      0x00\n        /* \"#utility.yul\":1897:1902   */\n      dup2\n        /* \"#utility.yul\":1892:1895   */\n      0xe0\n        /* \"#utility.yul\":1888:1903   */\n      shr\n        /* \"#utility.yul\":1867:1903   */\n      swap1\n      pop\n        /* \"#utility.yul\":1804:1910   */\n      swap2\n      swap1\n      pop\n      jump\t// out\n        /* \"#utility.yul\":1916:2099   */\n    tag_37:\n        /* \"#utility.yul\":1951:1954   */\n      0x00\n        /* \"#utility.yul\":1989:1990   */\n      0x03\n        /* \"#utility.yul\":1971:1987   */\n      returndatasize\n        /* \"#utility.yul\":1968:1991   */\n      gt\n        /* \"#utility.yul\":1965:2093   */\n      iszero\n      tag_173\n      jumpi\n        /* \"#utility.yul\":2027:2028   */\n      0x04\n        /* \"#utility.yul\":2024:2025   */\n      0x00\n        /* \"#utility.yul\":2021:2022   */\n      0x00\n        /* \"#utility.yul\":2006:2029   */\n      returndatacopy\n        /* \"#utility.yul\":2049:2083   */\n      tag_174\n        /* \"#utility.yul\":2080:2081   */\n      0x00\n        /* \"#utility.yul\":2074:2082   */\n      mload\n        /* \"#utility.yul\":2049:2083   */\n      tag_128\n      jump\t// in\n    tag_174:\n        /* \"#utility.yul\":2042:2083   */\n      swap1\n      pop\n        /* \"#utility.yul\":1965:2093   */\n    tag_173:\n        /* \"#utility.yul\":1916:2099   */\n      swap1\n      jump\t// out\n        /* \"#utility.yul\":2105:2207   */\n    tag_129:\n        /* \"#utility.yul\":2146:2152   */\n      0x00\n        /* \"#utility.yul\":2197:2199   */\n      0x1f\n        /* \"#utility.yul\":2193:2200   */\n      not\n        /* \"#utility.yul\":2188:2190   */\n      0x1f\n        /* \"#utility.yul\":2181:2186   */\n      dup4\n        /* \"#utility.yul\":2177:2191   */\n      add\n        /* \"#utility.yul\":2173:2201   */\n      and\n        /* \"#utility.yul\":2163:2201   */\n      swap1\n      pop\n        /* \"#utility.yul\":2105:2207   */\n      swap2\n      swap1\n      pop\n      jump\t// out\n        /* \"#utility.yul\":2213:2393   */\n    tag_130:\n        /* \"#utility.yul\":2261:2338   */\n      0x4e487b7100000000000000000000000000000000000000000000000000000000\n        /* \"#utility.yul\":2258:2259   */\n      0x00\n        /* \"#utility.yul\":2251:2339   */\n      mstore\n        /* \"#utility.yul\":2358:2362   */\n      0x41\n        /* \"#utility.yul\":2355:2356   */\n      0x04\n        /* \"#utility.yul\":2348:2363   */\n      mstore\n        /* \"#utility.yul\":2382:2386   */\n      0x24\n        /* \"#utility.yul\":2379:2380   */\n      0x00\n        /* \"#utility.yul\":2372:2387   */\n      revert\n        /* \"#utility.yul\":2399:2680   */\n    tag_131:\n        /* \"#utility.yul\":2482:2509   */\n      tag_178\n        /* \"#utility.yul\":2504:2508   */\n      dup3\n        /* \"#utility.yul\":2482:2509   */\n      tag_129\n      jump\t// in\n    tag_178:\n        /* \"#utility.yul\":2474:2480   */\n      dup2\n        /* \"#utility.yul\":2470:2510   */\n      add\n        /* \"#utility.yul\":2612:2618   */\n      dup2\n        /* \"#utility.yul\":2600:2610   */\n      dup2\n        /* \"#utility.yul\":2597:2619   */\n      lt\n        /* \"#utility.yul\":2576:2594   */\n      0xffffffffffffffff\n        /* \"#utility.yul\":2564:2574   */\n      dup3\n        /* \"#utility.yul\":2561:2595   */\n      gt\n        /* \"#utility.yul\":2558:2620   */\n      or\n        /* \"#utility.yul\":2555:2643   */\n      iszero\n      tag_179\n      jumpi\n        /* \"#utility.yul\":2623:2641   */\n      tag_180\n      tag_130\n      jump\t// in\n    tag_180:\n        /* \"#utility.yul\":2555:2643   */\n    tag_179:\n        /* \"#utility.yul\":2663:2673   */\n      dup1\n        /* \"#utility.yul\":2659:2661   */\n      0x40\n        /* \"#utility.yul\":2652:2674   */\n      mstore\n        /* \"#utility.yul\":2442:2680   */\n      pop\n        /* \"#utility.yul\":2399:2680   */\n      pop\n      pop\n      jump\t// out\n        /* \"#utility.yul\":2686:3397   */\n    tag_39:\n        /* \"#utility.yul\":2725:2728   */\n      0x00\n        /* \"#utility.yul\":2763:2767   */\n      0x44\n        /* \"#utility.yul\":2745:2761   */\n      returndatasize\n        /* \"#utility.yul\":2742:2768   */\n      lt\n        /* \"#utility.yul\":2771:2776   */\n      tag_181\n        /* \"#utility.yul\":2739:2778   */\n      jumpi\n        /* \"#utility.yul\":2800:2820   */\n      tag_183\n      tag_119\n      jump\t// in\n    tag_183:\n        /* \"#utility.yul\":2875:2876   */\n      0x04\n        /* \"#utility.yul\":2857:2873   */\n      returndatasize\n        /* \"#utility.yul\":2853:2877   */\n      sub\n        /* \"#utility.yul\":2850:2851   */\n      0x04\n        /* \"#utility.yul\":2844:2848   */\n      dup3\n        /* \"#utility.yul\":2829:2878   */\n      returndatacopy\n        /* \"#utility.yul\":2908:2912   */\n      dup1\n        /* \"#utility.yul\":2902:2913   */\n      mload\n        /* \"#utility.yul\":3007:3023   */\n      returndatasize\n        /* \"#utility.yul\":3000:3004   */\n      0x24\n        /* \"#utility.yul\":2992:2998   */\n      dup3\n        /* \"#utility.yul\":2988:3005   */\n      add\n        /* \"#utility.yul\":2985:3024   */\n      gt\n        /* \"#utility.yul\":2952:2970   */\n      0xffffffffffffffff\n        /* \"#utility.yul\":2944:2950   */\n      dup3\n        /* \"#utility.yul\":2941:2971   */\n      gt\n        /* \"#utility.yul\":2925:3038   */\n      or\n        /* \"#utility.yul\":2922:3068   */\n      iszero\n      tag_184\n      jumpi\n        /* \"#utility.yul\":3053:3058   */\n      pop\n      pop\n      jump(tag_181)\n        /* \"#utility.yul\":2922:3068   */\n    tag_184:\n        /* \"#utility.yul\":3099:3105   */\n      dup1\n        /* \"#utility.yul\":3093:3097   */\n      dup3\n        /* \"#utility.yul\":3089:3106   */\n      add\n        /* \"#utility.yul\":3135:3138   */\n      dup1\n        /* \"#utility.yul\":3129:3139   */\n      mload\n        /* \"#utility.yul\":3162:3180   */\n      0xffffffffffffffff\n        /* \"#utility.yul\":3154:3160   */\n      dup2\n        /* \"#utility.yul\":3151:3181   */\n      gt\n        /* \"#utility.yul\":3148:3191   */\n      iszero\n      tag_185\n      jumpi\n        /* \"#utility.yul\":3184:3189   */\n      pop\n      pop\n      pop\n      pop\n      jump(tag_181)\n        /* \"#utility.yul\":3148:3191   */\n    tag_185:\n        /* \"#utility.yul\":3232:3238   */\n      dup1\n        /* \"#utility.yul\":3225:3229   */\n      0x20\n        /* \"#utility.yul\":3220:3223   */\n      dup4\n        /* \"#utility.yul\":3216:3230   */\n      add\n        /* \"#utility.yul\":3212:3239   */\n      add\n        /* \"#utility.yul\":3291:3292   */\n      0x04\n        /* \"#utility.yul\":3273:3289   */\n      returndatasize\n        /* \"#utility.yul\":3269:3293   */\n      sub\n        /* \"#utility.yul\":3263:3267   */\n      dup6\n        /* \"#utility.yul\":3259:3294   */\n      add\n        /* \"#utility.yul\":3254:3257   */\n      dup2\n        /* \"#utility.yul\":3251:3295   */\n      gt\n        /* \"#utility.yul\":3248:3305   */\n      iszero\n      tag_186\n      jumpi\n        /* \"#utility.yul\":3298:3303   */\n      pop\n      pop\n      pop\n      pop\n      pop\n      jump(tag_181)\n        /* \"#utility.yul\":3248:3305   */\n    tag_186:\n        /* \"#utility.yul\":3315:3372   */\n      tag_187\n        /* \"#utility.yul\":3363:3369   */\n      dup3\n        /* \"#utility.yul\":3357:3361   */\n      0x20\n        /* \"#utility.yul\":3353:3370   */\n      add\n        /* \"#utility.yul\":3345:3351   */\n      dup6\n        /* \"#utility.yul\":3341:3371   */\n      add\n        /* \"#utility.yul\":3335:3339   */\n      dup7\n        /* \"#utility.yul\":3315:3372   */\n      tag_131\n      jump\t// in\n    tag_187:\n        /* \"#utility.yul\":3388:3391   */\n      dup3\n        /* \"#utility.yul\":3381:3391   */\n      swap6\n      pop\n        /* \"#utility.yul\":2729:3397   */\n      pop\n      pop\n      pop\n      pop\n      pop\n        /* \"#utility.yul\":2686:3397   */\n    tag_181:\n      swap1\n      jump\t// out\n        /* \"#utility.yul\":3403:3502   */\n    tag_132:\n        /* \"#utility.yul\":3455:3461   */\n      0x00\n        /* \"#utility.yul\":3489:3494   */\n      dup2\n        /* \"#utility.yul\":3483:3495   */\n      mload\n        /* \"#utility.yul\":3473:3495   */\n      swap1\n      pop\n        /* \"#utility.yul\":3403:3502   */\n      swap2\n      swap1\n      pop\n      jump\t// out\n        /* \"#utility.yul\":3508:3677   */\n    tag_133:\n        /* \"#utility.yul\":3592:3603   */\n      0x00\n        /* \"#utility.yul\":3626:3632   */\n      dup3\n        /* \"#utility.yul\":3621:3624   */\n      dup3\n        /* \"#utility.yul\":3614:3633   */\n      mstore\n        /* \"#utility.yul\":3666:3670   */\n      0x20\n        /* \"#utility.yul\":3661:3664   */\n      dup3\n        /* \"#utility.yul\":3657:3671   */\n      add\n        /* \"#utility.yul\":3642:3671   */\n      swap1\n      pop\n        /* \"#utility.yul\":3508:3677   */\n      swap3\n      swap2\n      pop\n      pop\n      jump\t// out\n        /* \"#utility.yul\":3683:3822   */\n    tag_134:\n        /* \"#utility.yul\":3772:3778   */\n      dup3\n        /* \"#utility.yul\":3767:3770   */\n      dup2\n        /* \"#utility.yul\":3762:3765   */\n      dup4\n        /* \"#utility.yul\":3756:3779   */\n      mcopy\n        /* \"#utility.yul\":3813:3814   */\n      0x00\n        /* \"#utility.yul\":3804:3810   */\n      dup4\n        /* \"#utility.yul\":3799:3802   */\n      dup4\n        /* \"#utility.yul\":3795:3811   */\n      add\n        /* \"#utility.yul\":3788:3815   */\n      mstore\n        /* \"#utility.yul\":3683:3822   */\n      pop\n      pop\n      pop\n      jump\t// out\n        /* \"#utility.yul\":3828:4205   */\n    tag_135:\n        /* \"#utility.yul\":3916:3919   */\n      0x00\n        /* \"#utility.yul\":3944:3983   */\n      tag_192\n        /* \"#utility.yul\":3977:3982   */\n      dup3\n        /* \"#utility.yul\":3944:3983   */\n      tag_132\n      jump\t// in\n    tag_192:\n        /* \"#utility.yul\":3999:4070   */\n      tag_193\n        /* \"#utility.yul\":4063:4069   */\n      dup2\n        /* \"#utility.yul\":4058:4061   */\n      dup6\n        /* \"#utility.yul\":3999:4070   */\n      tag_133\n      jump\t// in\n    tag_193:\n        /* \"#utility.yul\":3992:4070   */\n      swap4\n      pop\n        /* \"#utility.yul\":4079:4144   */\n      tag_194\n        /* \"#utility.yul\":4137:4143   */\n      dup2\n        /* \"#utility.yul\":4132:4135   */\n      dup6\n        /* \"#utility.yul\":4125:4129   */\n      0x20\n        /* \"#utility.yul\":4118:4123   */\n      dup7\n        /* \"#utility.yul\":4114:4130   */\n      add\n        /* \"#utility.yul\":4079:4144   */\n      tag_134\n      jump\t// in\n    tag_194:\n        /* \"#utility.yul\":4169:4198   */\n      tag_195\n        /* \"#utility.yul\":4191:4197   */\n      dup2\n        /* \"#utility.yul\":4169:4198   */\n      tag_129\n      jump\t// in\n    tag_195:\n        /* \"#utility.yul\":4164:4167   */\n      dup5\n        /* \"#utility.yul\":4160:4199   */\n      add\n        /* \"#utility.yul\":4153:4199   */\n      swap2\n      pop\n        /* \"#utility.yul\":3920:4205   */\n      pop\n        /* \"#utility.yul\":3828:4205   */\n      swap3\n      swap2\n      pop\n      pop\n      jump\t// out\n        /* \"#utility.yul\":4211:4524   */\n    tag_42:\n        /* \"#utility.yul\":4324:4328   */\n      0x00\n        /* \"#utility.yul\":4362:4364   */\n      0x20\n        /* \"#utility.yul\":4351:4360   */\n      dup3\n        /* \"#utility.yul\":4347:4365   */\n      add\n        /* \"#utility.yul\":4339:4365   */\n      swap1\n      pop\n        /* \"#utility.yul\":4411:4420   */\n      dup2\n        /* \"#utility.yul\":4405:4409   */\n      dup2\n        /* \"#utility.yul\":4401:4421   */\n      sub\n        /* \"#utility.yul\":4397:4398   */\n      0x00\n        /* \"#utility.yul\":4386:4395   */\n      dup4\n        /* \"#utility.yul\":4382:4399   */\n      add\n        /* \"#utility.yul\":4375:4422   */\n      mstore\n        /* \"#utility.yul\":4439:4517   */\n      tag_197\n        /* \"#utility.yul\":4512:4516   */\n      dup2\n        /* \"#utility.yul\":4503:4509   */\n      dup5\n        /* \"#utility.yul\":4439:4517   */\n      tag_135\n      jump\t// in\n    tag_197:\n        /* \"#utility.yul\":4431:4517   */\n      swap1\n      pop\n        /* \"#utility.yul\":4211:4524   */\n      swap3\n      swap2\n      pop\n      pop\n      jump\t// out\n        /* \"#utility.yul\":4530:4628   */\n    tag_136:\n        /* \"#utility.yul\":4581:4587   */\n      0x00\n        /* \"#utility.yul\":4615:4620   */\n      dup2\n        /* \"#utility.yul\":4609:4621   */\n      mload\n        /* \"#utility.yul\":4599:4621   */\n      swap1\n      pop\n        /* \"#utility.yul\":4530:4628   */\n      swap2\n      swap1\n      pop\n      jump\t// out\n        /* \"#utility.yul\":4634:4802   */\n    tag_137:\n        /* \"#utility.yul\":4717:4728   */\n      0x00\n        /* \"#utility.yul\":4751:4757   */\n      dup3\n        /* \"#utility.yul\":4746:4749   */\n      dup3\n        /* \"#utility.yul\":4739:4758   */\n      mstore\n        /* \"#utility.yul\":4791:4795   */\n      0x20\n        /* \"#utility.yul\":4786:4789   */\n      dup3\n        /* \"#utility.yul\":4782:4796   */\n      add\n        /* \"#utility.yul\":4767:4796   */\n      swap1\n      pop\n        /* \"#utility.yul\":4634:4802   */\n      swap3\n      swap2\n      pop\n      pop\n      jump\t// out\n        /* \"#utility.yul\":4808:5181   */\n    tag_138:\n        /* \"#utility.yul\":4894:4897   */\n      0x00\n        /* \"#utility.yul\":4922:4960   */\n      tag_201\n        /* \"#utility.yul\":4954:4959   */\n      dup3\n        /* \"#utility.yul\":4922:4960   */\n      tag_136\n      jump\t// in\n    tag_201:\n        /* \"#utility.yul\":4976:5046   */\n      tag_202\n        /* \"#utility.yul\":5039:5045   */\n      dup2\n        /* \"#utility.yul\":5034:5037   */\n      dup6\n        /* \"#utility.yul\":4976:5046   */\n      tag_137\n      jump\t// in\n    tag_202:\n        /* \"#utility.yul\":4969:5046   */\n      swap4\n      pop\n        /* \"#utility.yul\":5055:5120   */\n      tag_203\n        /* \"#utility.yul\":5113:5119   */\n      dup2\n        /* \"#utility.yul\":5108:5111   */\n      dup6\n        /* \"#utility.yul\":5101:5105   */\n      0x20\n        /* \"#utility.yul\":5094:5099   */\n      dup7\n        /* \"#utility.yul\":5090:5106   */\n      add\n        /* \"#utility.yul\":5055:5120   */\n      tag_134\n      jump\t// in\n    tag_203:\n        /* \"#utility.yul\":5145:5174   */\n      tag_204\n        /* \"#utility.yul\":5167:5173   */\n      dup2\n        /* \"#utility.yul\":5145:5174   */\n      tag_129\n      jump\t// in\n    tag_204:\n        /* \"#utility.yul\":5140:5143   */\n      dup5\n        /* \"#utility.yul\":5136:5175   */\n      add\n        /* \"#utility.yul\":5129:5175   */\n      swap2\n      pop\n        /* \"#utility.yul\":4898:5181   */\n      pop\n        /* \"#utility.yul\":4808:5181   */\n      swap3\n      swap2\n      pop\n      pop\n      jump\t// out\n        /* \"#utility.yul\":5187:5496   */\n    tag_46:\n        /* \"#utility.yul\":5298:5302   */\n      0x00\n        /* \"#utility.yul\":5336:5338   */\n      0x20\n        /* \"#utility.yul\":5325:5334   */\n      dup3\n        /* \"#utility.yul\":5321:5339   */\n      add\n        /* \"#utility.yul\":5313:5339   */\n      swap1\n      pop\n        /* \"#utility.yul\":5385:5394   */\n      dup2\n        /* \"#utility.yul\":5379:5383   */\n      dup2\n        /* \"#utility.yul\":5375:5395   */\n      sub\n        /* \"#utility.yul\":5371:5372   */\n      0x00\n        /* \"#utility.yul\":5360:5369   */\n      dup4\n        /* \"#utility.yul\":5356:5373   */\n      add\n        /* \"#utility.yul\":5349:5396   */\n      mstore\n        /* \"#utility.yul\":5413:5489   */\n      tag_206\n        /* \"#utility.yul\":5484:5488   */\n      dup2\n        /* \"#utility.yul\":5475:5481   */\n      dup5\n        /* \"#utility.yul\":5413:5489   */\n      tag_138\n      jump\t// in\n    tag_206:\n        /* \"#utility.yul\":5405:5489   */\n      swap1\n      pop\n        /* \"#utility.yul\":5187:5496   */\n      swap3\n      swap2\n      pop\n      pop\n      jump\t// out\n        /* \"#utility.yul\":5502:5587   */\n    tag_139:\n        /* \"#utility.yul\":5547:5554   */\n      0x00\n        /* \"#utility.yul\":5576:5581   */\n      dup2\n        /* \"#utility.yul\":5565:5581   */\n      swap1\n      pop\n        /* \"#utility.yul\":5502:5587   */\n      swap2\n      swap1\n      pop\n      jump\t// out\n        /* \"#utility.yul\":5593:5653   */\n    tag_140:\n        /* \"#utility.yul\":5621:5624   */\n      0x00\n        /* \"#utility.yul\":5642:5647   */\n      dup2\n        /* \"#utility.yul\":5635:5647   */\n      swap1\n      pop\n        /* \"#utility.yul\":5593:5653   */\n      swap2\n      swap1\n      pop\n      jump\t// out\n        /* \"#utility.yul\":5659:5817   */\n    tag_141:\n        /* \"#utility.yul\":5717:5726   */\n      0x00\n        /* \"#utility.yul\":5750:5811   */\n      tag_210\n        /* \"#utility.yul\":5768:5810   */\n      tag_211\n        /* \"#utility.yul\":5777:5809   */\n      tag_212\n        /* \"#utility.yul\":5803:5808   */\n      dup5\n        /* \"#utility.yul\":5777:5809   */\n      tag_139\n      jump\t// in\n    tag_212:\n        /* \"#utility.yul\":5768:5810   */\n      tag_140\n      jump\t// in\n    tag_211:\n        /* \"#utility.yul\":5750:5811   */\n      tag_122\n      jump\t// in\n    tag_210:\n        /* \"#utility.yul\":5737:5811   */\n      swap1\n      pop\n        /* \"#utility.yul\":5659:5817   */\n      swap2\n      swap1\n      pop\n      jump\t// out\n        /* \"#utility.yul\":5823:5970   */\n    tag_142:\n        /* \"#utility.yul\":5918:5963   */\n      tag_214\n        /* \"#utility.yul\":5957:5962   */\n      dup2\n        /* \"#utility.yul\":5918:5963   */\n      tag_141\n      jump\t// in\n    tag_214:\n        /* \"#utility.yul\":5913:5916   */\n      dup3\n        /* \"#utility.yul\":5906:5964   */\n      mstore\n        /* \"#utility.yul\":5823:5970   */\n      pop\n      pop\n      jump\t// out\n        /* \"#utility.yul\":5976:6214   */\n    tag_52:\n        /* \"#utility.yul\":6077:6081   */\n      0x00\n        /* \"#utility.yul\":6115:6117   */\n      0x20\n        /* \"#utility.yul\":6104:6113   */\n      dup3\n        /* \"#utility.yul\":6100:6118   */\n      add\n        /* \"#utility.yul\":6092:6118   */\n      swap1\n      pop\n        /* \"#utility.yul\":6128:6207   */\n      tag_216\n        /* \"#utility.yul\":6204:6205   */\n      0x00\n        /* \"#utility.yul\":6193:6202   */\n      dup4\n        /* \"#utility.yul\":6189:6206   */\n      add\n        /* \"#utility.yul\":6180:6186   */\n      dup5\n        /* \"#utility.yul\":6128:6207   */\n      tag_142\n      jump\t// in\n    tag_216:\n        /* \"#utility.yul\":5976:6214   */\n      swap3\n      swap2\n      pop\n      pop\n      jump\t// out\n        /* \"#utility.yul\":6220:6336   */\n    tag_143:\n        /* \"#utility.yul\":6290:6311   */\n      tag_218\n        /* \"#utility.yul\":6305:6310   */\n      dup2\n        /* \"#utility.yul\":6290:6311   */\n      tag_125\n      jump\t// in\n    tag_218:\n        /* \"#utility.yul\":6283:6288   */\n      dup2\n        /* \"#utility.yul\":6280:6312   */\n      eq\n        /* \"#utility.yul\":6270:6330   */\n      tag_219\n      jumpi\n        /* \"#utility.yul\":6326:6327   */\n      0x00\n        /* \"#utility.yul\":6323:6324   */\n      0x00\n        /* \"#utility.yul\":6316:6328   */\n      revert\n        /* \"#utility.yul\":6270:6330   */\n    tag_219:\n        /* \"#utility.yul\":6220:6336   */\n      pop\n      jump\t// out\n        /* \"#utility.yul\":6342:6479   */\n    tag_144:\n        /* \"#utility.yul\":6396:6401   */\n      0x00\n        /* \"#utility.yul\":6427:6433   */\n      dup2\n        /* \"#utility.yul\":6421:6434   */\n      mload\n        /* \"#utility.yul\":6412:6434   */\n      swap1\n      pop\n        /* \"#utility.yul\":6443:6473   */\n      tag_221\n        /* \"#utility.yul\":6467:6472   */\n      dup2\n        /* \"#utility.yul\":6443:6473   */\n      tag_143\n      jump\t// in\n    tag_221:\n        /* \"#utility.yul\":6342:6479   */\n      swap3\n      swap2\n      pop\n      pop\n      jump\t// out\n        /* \"#utility.yul\":6485:6830   */\n    tag_57:\n        /* \"#utility.yul\":6552:6558   */\n      0x00\n        /* \"#utility.yul\":6601:6603   */\n      0x20\n        /* \"#utility.yul\":6589:6598   */\n      dup3\n        /* \"#utility.yul\":6580:6587   */\n      dup5\n        /* \"#utility.yul\":6576:6599   */\n      sub\n        /* \"#utility.yul\":6572:6604   */\n      slt\n        /* \"#utility.yul\":6569:6688   */\n      iszero\n      tag_223\n      jumpi\n        /* \"#utility.yul\":6607:6686   */\n      tag_224\n      tag_120\n      jump\t// in\n    tag_224:\n        /* \"#utility.yul\":6569:6688   */\n    tag_223:\n        /* \"#utility.yul\":6727:6728   */\n      0x00\n        /* \"#utility.yul\":6752:6813   */\n      tag_225\n        /* \"#utility.yul\":6805:6812   */\n      dup5\n        /* \"#utility.yul\":6796:6802   */\n      dup3\n        /* \"#utility.yul\":6785:6794   */\n      dup6\n        /* \"#utility.yul\":6781:6803   */\n      add\n        /* \"#utility.yul\":6752:6813   */\n      tag_144\n      jump\t// in\n    tag_225:\n        /* \"#utility.yul\":6742:6813   */\n      swap2\n      pop\n        /* \"#utility.yul\":6698:6823   */\n      pop\n        /* \"#utility.yul\":6485:6830   */\n      swap3\n      swap2\n      pop\n      pop\n      jump\t// out\n        /* \"#utility.yul\":6836:6921   */\n    tag_145:\n        /* \"#utility.yul\":6881:6888   */\n      0x00\n        /* \"#utility.yul\":6910:6915   */\n      dup2\n        /* \"#utility.yul\":6899:6915   */\n      swap1\n      pop\n        /* \"#utility.yul\":6836:6921   */\n      swap2\n      swap1\n      pop\n      jump\t// out\n        /* \"#utility.yul\":6927:7085   */\n    tag_146:\n        /* \"#utility.yul\":6985:6994   */\n      0x00\n        /* \"#utility.yul\":7018:7079   */\n      tag_228\n        /* \"#utility.yul\":7036:7078   */\n      tag_229\n        /* \"#utility.yul\":7045:7077   */\n      tag_230\n        /* \"#utility.yul\":7071:7076   */\n      dup5\n        /* \"#utility.yul\":7045:7077   */\n      tag_145\n      jump\t// in\n    tag_230:\n        /* \"#utility.yul\":7036:7078   */\n      tag_140\n      jump\t// in\n    tag_229:\n        /* \"#utility.yul\":7018:7079   */\n      tag_122\n      jump\t// in\n    tag_228:\n        /* \"#utility.yul\":7005:7079   */\n      swap1\n      pop\n        /* \"#utility.yul\":6927:7085   */\n      swap2\n      swap1\n      pop\n      jump\t// out\n        /* \"#utility.yul\":7091:7238   */\n    tag_147:\n        /* \"#utility.yul\":7186:7231   */\n      tag_232\n        /* \"#utility.yul\":7225:7230   */\n      dup2\n        /* \"#utility.yul\":7186:7231   */\n      tag_146\n      jump\t// in\n    tag_232:\n        /* \"#utility.yul\":7181:7184   */\n      dup3\n        /* \"#utility.yul\":7174:7232   */\n      mstore\n        /* \"#utility.yul\":7091:7238   */\n      pop\n      pop\n      jump\t// out\n        /* \"#utility.yul\":7244:7482   */\n    tag_72:\n        /* \"#utility.yul\":7345:7349   */\n      0x00\n        /* \"#utility.yul\":7383:7385   */\n      0x20\n        /* \"#utility.yul\":7372:7381   */\n      dup3\n        /* \"#utility.yul\":7368:7386   */\n      add\n        /* \"#utility.yul\":7360:7386   */\n      swap1\n      pop\n        /* \"#utility.yul\":7396:7475   */\n      tag_234\n        /* \"#utility.yul\":7472:7473   */\n      0x00\n        /* \"#utility.yul\":7461:7470   */\n      dup4\n        /* \"#utility.yul\":7457:7474   */\n      add\n        /* \"#utility.yul\":7448:7454   */\n      dup5\n        /* \"#utility.yul\":7396:7475   */\n      tag_147\n      jump\t// in\n    tag_234:\n        /* \"#utility.yul\":7244:7482   */\n      swap3\n      swap2\n      pop\n      pop\n      jump\t// out\n    stop\n\n    sub_0: assembly {\n            /* \"TryCatch.sol\":61:335  contract OnlyEven {... */\n          mstore(0x40, 0x80)\n            /* \"TryCatch.sol\":86:181  constructor(uint a){... */\n          callvalue\n          dup1\n          iszero\n          tag_1\n          jumpi\n          revert(0x00, 0x00)\n        tag_1:\n          pop\n          mload(0x40)\n          sub(codesize, bytecodeSize)\n          dup1\n          bytecodeSize\n          dup4\n          codecopy\n          dup2\n          dup2\n          add\n          0x40\n          mstore\n          dup2\n          add\n          swap1\n          tag_2\n          swap2\n          swap1\n          tag_3\n          jump\t// in\n        tag_2:\n            /* \"TryCatch.sol\":127:128  0 */\n          0x00\n            /* \"TryCatch.sol\":124:125  a */\n          dup2\n            /* \"TryCatch.sol\":124:128  a!=0 */\n          sub\n            /* \"TryCatch.sol\":116:150  require(a!=0, \"invalid number...\") */\n          tag_6\n          jumpi\n          mload(0x40)\n          0x08c379a000000000000000000000000000000000000000000000000000000000\n          dup2\n          mstore\n          0x04\n          add\n          tag_7\n          swap1\n          tag_8\n          jump\t// in\n        tag_7:\n          mload(0x40)\n          dup1\n          swap2\n          sub\n          swap1\n          revert\n        tag_6:\n            /* \"TryCatch.sol\":171:172  1 */\n          0x01\n            /* \"TryCatch.sol\":168:169  a */\n          dup2\n            /* \"TryCatch.sol\":168:172  a!=1 */\n          sub\n            /* \"TryCatch.sol\":161:173  assert(a!=1) */\n          tag_9\n          jumpi\n          tag_10\n          tag_11\n          jump\t// in\n        tag_10:\n        tag_9:\n            /* \"TryCatch.sol\":86:181  constructor(uint a){... */\n          pop\n            /* \"TryCatch.sol\":61:335  contract OnlyEven {... */\n          jump(tag_12)\n            /* \"#utility.yul\":88:205   */\n        tag_14:\n            /* \"#utility.yul\":197:198   */\n          0x00\n            /* \"#utility.yul\":194:195   */\n          0x00\n            /* \"#utility.yul\":187:199   */\n          revert\n            /* \"#utility.yul\":334:411   */\n        tag_16:\n            /* \"#utility.yul\":371:378   */\n          0x00\n            /* \"#utility.yul\":400:405   */\n          dup2\n            /* \"#utility.yul\":389:405   */\n          swap1\n          pop\n            /* \"#utility.yul\":334:411   */\n          swap2\n          swap1\n          pop\n          jump\t// out\n            /* \"#utility.yul\":417:539   */\n        tag_17:\n            /* \"#utility.yul\":490:514   */\n          tag_28\n            /* \"#utility.yul\":508:513   */\n          dup2\n            /* \"#utility.yul\":490:514   */\n          tag_16\n          jump\t// in\n        tag_28:\n            /* \"#utility.yul\":483:488   */\n          dup2\n            /* \"#utility.yul\":480:515   */\n          eq\n            /* \"#utility.yul\":470:533   */\n          tag_29\n          jumpi\n            /* \"#utility.yul\":529:530   */\n          0x00\n            /* \"#utility.yul\":526:527   */\n          0x00\n            /* \"#utility.yul\":519:531   */\n          revert\n            /* \"#utility.yul\":470:533   */\n        tag_29:\n            /* \"#utility.yul\":417:539   */\n          pop\n          jump\t// out\n            /* \"#utility.yul\":545:688   */\n        tag_18:\n            /* \"#utility.yul\":602:607   */\n          0x00\n            /* \"#utility.yul\":633:639   */\n          dup2\n            /* \"#utility.yul\":627:640   */\n          mload\n            /* \"#utility.yul\":618:640   */\n          swap1\n          pop\n            /* \"#utility.yul\":649:682   */\n          tag_31\n            /* \"#utility.yul\":676:681   */\n          dup2\n            /* \"#utility.yul\":649:682   */\n          tag_17\n          jump\t// in\n        tag_31:\n            /* \"#utility.yul\":545:688   */\n          swap3\n          swap2\n          pop\n          pop\n          jump\t// out\n            /* \"#utility.yul\":694:1045   */\n        tag_3:\n            /* \"#utility.yul\":764:770   */\n          0x00\n            /* \"#utility.yul\":813:815   */\n          0x20\n            /* \"#utility.yul\":801:810   */\n          dup3\n            /* \"#utility.yul\":792:799   */\n          dup5\n            /* \"#utility.yul\":788:811   */\n          sub\n            /* \"#utility.yul\":784:816   */\n          slt\n            /* \"#utility.yul\":781:900   */\n          iszero\n          tag_33\n          jumpi\n            /* \"#utility.yul\":819:898   */\n          tag_34\n          tag_14\n          jump\t// in\n        tag_34:\n            /* \"#utility.yul\":781:900   */\n        tag_33:\n            /* \"#utility.yul\":939:940   */\n          0x00\n            /* \"#utility.yul\":964:1028   */\n          tag_35\n            /* \"#utility.yul\":1020:1027   */\n          dup5\n            /* \"#utility.yul\":1011:1017   */\n          dup3\n            /* \"#utility.yul\":1000:1009   */\n          dup6\n            /* \"#utility.yul\":996:1018   */\n          add\n            /* \"#utility.yul\":964:1028   */\n          tag_18\n          jump\t// in\n        tag_35:\n            /* \"#utility.yul\":954:1028   */\n          swap2\n          pop\n            /* \"#utility.yul\":910:1038   */\n          pop\n            /* \"#utility.yul\":694:1045   */\n          swap3\n          swap2\n          pop\n          pop\n          jump\t// out\n            /* \"#utility.yul\":1051:1220   */\n        tag_19:\n            /* \"#utility.yul\":1135:1146   */\n          0x00\n            /* \"#utility.yul\":1169:1175   */\n          dup3\n            /* \"#utility.yul\":1164:1167   */\n          dup3\n            /* \"#utility.yul\":1157:1176   */\n          mstore\n            /* \"#utility.yul\":1209:1213   */\n          0x20\n            /* \"#utility.yul\":1204:1207   */\n          dup3\n            /* \"#utility.yul\":1200:1214   */\n          add\n            /* \"#utility.yul\":1185:1214   */\n          swap1\n          pop\n            /* \"#utility.yul\":1051:1220   */\n          swap3\n          swap2\n          pop\n          pop\n          jump\t// out\n            /* \"#utility.yul\":1226:1393   */\n        tag_20:\n            /* \"#utility.yul\":1366:1385   */\n          0x696e76616c6964206e756d6265722e2e2e000000000000000000000000000000\n            /* \"#utility.yul\":1362:1363   */\n          0x00\n            /* \"#utility.yul\":1354:1360   */\n          dup3\n            /* \"#utility.yul\":1350:1364   */\n          add\n            /* \"#utility.yul\":1343:1386   */\n          mstore\n            /* \"#utility.yul\":1226:1393   */\n          pop\n          jump\t// out\n            /* \"#utility.yul\":1399:1765   */\n        tag_21:\n            /* \"#utility.yul\":1541:1544   */\n          0x00\n            /* \"#utility.yul\":1562:1629   */\n          tag_39\n            /* \"#utility.yul\":1626:1628   */\n          0x11\n            /* \"#utility.yul\":1621:1624   */\n          dup4\n            /* \"#utility.yul\":1562:1629   */\n          tag_19\n          jump\t// in\n        tag_39:\n            /* \"#utility.yul\":1555:1629   */\n          swap2\n          pop\n            /* \"#utility.yul\":1638:1731   */\n          tag_40\n            /* \"#utility.yul\":1727:1730   */\n          dup3\n            /* \"#utility.yul\":1638:1731   */\n          tag_20\n          jump\t// in\n        tag_40:\n            /* \"#utility.yul\":1756:1758   */\n          0x20\n            /* \"#utility.yul\":1751:1754   */\n          dup3\n            /* \"#utility.yul\":1747:1759   */\n          add\n            /* \"#utility.yul\":1740:1759   */\n          swap1\n          pop\n            /* \"#utility.yul\":1399:1765   */\n          swap2\n          swap1\n          pop\n          jump\t// out\n            /* \"#utility.yul\":1771:2190   */\n        tag_8:\n            /* \"#utility.yul\":1937:1941   */\n          0x00\n            /* \"#utility.yul\":1975:1977   */\n          0x20\n            /* \"#utility.yul\":1964:1973   */\n          dup3\n            /* \"#utility.yul\":1960:1978   */\n          add\n            /* \"#utility.yul\":1952:1978   */\n          swap1\n          pop\n            /* \"#utility.yul\":2024:2033   */\n          dup2\n            /* \"#utility.yul\":2018:2022   */\n          dup2\n            /* \"#utility.yul\":2014:2034   */\n          sub\n            /* \"#utility.yul\":2010:2011   */\n          0x00\n            /* \"#utility.yul\":1999:2008   */\n          dup4\n            /* \"#utility.yul\":1995:2012   */\n          add\n            /* \"#utility.yul\":1988:2035   */\n          mstore\n            /* \"#utility.yul\":2052:2183   */\n          tag_42\n            /* \"#utility.yul\":2178:2182   */\n          dup2\n            /* \"#utility.yul\":2052:2183   */\n          tag_21\n          jump\t// in\n        tag_42:\n            /* \"#utility.yul\":2044:2183   */\n          swap1\n          pop\n            /* \"#utility.yul\":1771:2190   */\n          swap2\n          swap1\n          pop\n          jump\t// out\n            /* \"#utility.yul\":2196:2376   */\n        tag_11:\n            /* \"#utility.yul\":2244:2321   */\n          0x4e487b7100000000000000000000000000000000000000000000000000000000\n            /* \"#utility.yul\":2241:2242   */\n          0x00\n            /* \"#utility.yul\":2234:2322   */\n          mstore\n            /* \"#utility.yul\":2341:2345   */\n          0x01\n            /* \"#utility.yul\":2338:2339   */\n          0x04\n            /* \"#utility.yul\":2331:2346   */\n          mstore\n            /* \"#utility.yul\":2365:2369   */\n          0x24\n            /* \"#utility.yul\":2362:2363   */\n          0x00\n            /* \"#utility.yul\":2355:2370   */\n          revert\n            /* \"TryCatch.sol\":61:335  contract OnlyEven {... */\n        tag_12:\n          dataSize(sub_0)\n          dup1\n          dataOffset(sub_0)\n          0x00\n          codecopy\n          0x00\n          return\n        stop\n\n        sub_0: assembly {\n                /* \"TryCatch.sol\":61:335  contract OnlyEven {... */\n              mstore(0x40, 0x80)\n              callvalue\n              dup1\n              iszero\n              tag_1\n              jumpi\n              revert(0x00, 0x00)\n            tag_1:\n              pop\n              jumpi(tag_2, lt(calldatasize, 0x04))\n              shr(0xe0, calldataload(0x00))\n              dup1\n              0xce0b4213\n              eq\n              tag_3\n              jumpi\n            tag_2:\n              revert(0x00, 0x00)\n                /* \"TryCatch.sol\":189:332  function onlyEven(uint256 b) external pure returns (bool success) {... */\n            tag_3:\n              tag_4\n              0x04\n              dup1\n              calldatasize\n              sub\n              dup2\n              add\n              swap1\n              tag_5\n              swap2\n              swap1\n              tag_6\n              jump\t// in\n            tag_5:\n              tag_7\n              jump\t// in\n            tag_4:\n              mload(0x40)\n              tag_8\n              swap2\n              swap1\n              tag_9\n              jump\t// in\n            tag_8:\n              mload(0x40)\n              dup1\n              swap2\n              sub\n              swap1\n              return\n            tag_7:\n                /* \"TryCatch.sol\":241:253  bool success */\n              0x00\n                /* \"TryCatch.sol\":279:280  0 */\n              0x00\n                /* \"TryCatch.sol\":276:277  2 */\n              0x02\n                /* \"TryCatch.sol\":274:275  b */\n              dup4\n                /* \"TryCatch.sol\":274:277  b%2 */\n              tag_11\n              swap2\n              swap1\n              tag_12\n              jump\t// in\n            tag_11:\n                /* \"TryCatch.sol\":274:280  b%2==0 */\n              eq\n                /* \"TryCatch.sol\":266:299  require(b%2==0 ,\"Ups! Reverting\") */\n              tag_13\n              jumpi\n              mload(0x40)\n              0x08c379a000000000000000000000000000000000000000000000000000000000\n              dup2\n              mstore\n              0x04\n              add\n              tag_14\n              swap1\n              tag_15\n              jump\t// in\n            tag_14:\n              mload(0x40)\n              dup1\n              swap2\n              sub\n              swap1\n              revert\n            tag_13:\n                /* \"TryCatch.sol\":320:324  true */\n              0x01\n                /* \"TryCatch.sol\":310:324  success = true */\n              swap1\n              pop\n                /* \"TryCatch.sol\":189:332  function onlyEven(uint256 b) external pure returns (bool success) {... */\n              swap2\n              swap1\n              pop\n              jump\t// out\n                /* \"#utility.yul\":88:205   */\n            tag_17:\n                /* \"#utility.yul\":197:198   */\n              0x00\n                /* \"#utility.yul\":194:195   */\n              0x00\n                /* \"#utility.yul\":187:199   */\n              revert\n                /* \"#utility.yul\":334:411   */\n            tag_19:\n                /* \"#utility.yul\":371:378   */\n              0x00\n                /* \"#utility.yul\":400:405   */\n              dup2\n                /* \"#utility.yul\":389:405   */\n              swap1\n              pop\n                /* \"#utility.yul\":334:411   */\n              swap2\n              swap1\n              pop\n              jump\t// out\n                /* \"#utility.yul\":417:539   */\n            tag_20:\n                /* \"#utility.yul\":490:514   */\n              tag_34\n                /* \"#utility.yul\":508:513   */\n              dup2\n                /* \"#utility.yul\":490:514   */\n              tag_19\n              jump\t// in\n            tag_34:\n                /* \"#utility.yul\":483:488   */\n              dup2\n                /* \"#utility.yul\":480:515   */\n              eq\n                /* \"#utility.yul\":470:533   */\n              tag_35\n              jumpi\n                /* \"#utility.yul\":529:530   */\n              0x00\n                /* \"#utility.yul\":526:527   */\n              0x00\n                /* \"#utility.yul\":519:531   */\n              revert\n                /* \"#utility.yul\":470:533   */\n            tag_35:\n                /* \"#utility.yul\":417:539   */\n              pop\n              jump\t// out\n                /* \"#utility.yul\":545:684   */\n            tag_21:\n                /* \"#utility.yul\":591:596   */\n              0x00\n                /* \"#utility.yul\":629:635   */\n              dup2\n                /* \"#utility.yul\":616:636   */\n              calldataload\n                /* \"#utility.yul\":607:636   */\n              swap1\n              pop\n                /* \"#utility.yul\":645:678   */\n              tag_37\n                /* \"#utility.yul\":672:677   */\n              dup2\n                /* \"#utility.yul\":645:678   */\n              tag_20\n              jump\t// in\n            tag_37:\n                /* \"#utility.yul\":545:684   */\n              swap3\n              swap2\n              pop\n              pop\n              jump\t// out\n                /* \"#utility.yul\":690:1019   */\n            tag_6:\n                /* \"#utility.yul\":749:755   */\n              0x00\n                /* \"#utility.yul\":798:800   */\n              0x20\n                /* \"#utility.yul\":786:795   */\n              dup3\n                /* \"#utility.yul\":777:784   */\n              dup5\n                /* \"#utility.yul\":773:796   */\n              sub\n                /* \"#utility.yul\":769:801   */\n              slt\n                /* \"#utility.yul\":766:885   */\n              iszero\n              tag_39\n              jumpi\n                /* \"#utility.yul\":804:883   */\n              tag_40\n              tag_17\n              jump\t// in\n            tag_40:\n                /* \"#utility.yul\":766:885   */\n            tag_39:\n                /* \"#utility.yul\":924:925   */\n              0x00\n                /* \"#utility.yul\":949:1002   */\n              tag_41\n                /* \"#utility.yul\":994:1001   */\n              dup5\n                /* \"#utility.yul\":985:991   */\n              dup3\n                /* \"#utility.yul\":974:983   */\n              dup6\n                /* \"#utility.yul\":970:992   */\n              add\n                /* \"#utility.yul\":949:1002   */\n              tag_21\n              jump\t// in\n            tag_41:\n                /* \"#utility.yul\":939:1002   */\n              swap2\n              pop\n                /* \"#utility.yul\":895:1012   */\n              pop\n                /* \"#utility.yul\":690:1019   */\n              swap3\n              swap2\n              pop\n              pop\n              jump\t// out\n                /* \"#utility.yul\":1025:1115   */\n            tag_22:\n                /* \"#utility.yul\":1059:1066   */\n              0x00\n                /* \"#utility.yul\":1102:1107   */\n              dup2\n                /* \"#utility.yul\":1095:1108   */\n              iszero\n                /* \"#utility.yul\":1088:1109   */\n              iszero\n                /* \"#utility.yul\":1077:1109   */\n              swap1\n              pop\n                /* \"#utility.yul\":1025:1115   */\n              swap2\n              swap1\n              pop\n              jump\t// out\n                /* \"#utility.yul\":1121:1230   */\n            tag_23:\n                /* \"#utility.yul\":1202:1223   */\n              tag_44\n                /* \"#utility.yul\":1217:1222   */\n              dup2\n                /* \"#utility.yul\":1202:1223   */\n              tag_22\n              jump\t// in\n            tag_44:\n                /* \"#utility.yul\":1197:1200   */\n              dup3\n                /* \"#utility.yul\":1190:1224   */\n              mstore\n                /* \"#utility.yul\":1121:1230   */\n              pop\n              pop\n              jump\t// out\n                /* \"#utility.yul\":1236:1446   */\n            tag_9:\n                /* \"#utility.yul\":1323:1327   */\n              0x00\n                /* \"#utility.yul\":1361:1363   */\n              0x20\n                /* \"#utility.yul\":1350:1359   */\n              dup3\n                /* \"#utility.yul\":1346:1364   */\n              add\n                /* \"#utility.yul\":1338:1364   */\n              swap1\n              pop\n                /* \"#utility.yul\":1374:1439   */\n              tag_46\n                /* \"#utility.yul\":1436:1437   */\n              0x00\n                /* \"#utility.yul\":1425:1434   */\n              dup4\n                /* \"#utility.yul\":1421:1438   */\n              add\n                /* \"#utility.yul\":1412:1418   */\n              dup5\n                /* \"#utility.yul\":1374:1439   */\n              tag_23\n              jump\t// in\n            tag_46:\n                /* \"#utility.yul\":1236:1446   */\n              swap3\n              swap2\n              pop\n              pop\n              jump\t// out\n                /* \"#utility.yul\":1452:1632   */\n            tag_24:\n                /* \"#utility.yul\":1500:1577   */\n              0x4e487b7100000000000000000000000000000000000000000000000000000000\n                /* \"#utility.yul\":1497:1498   */\n              0x00\n                /* \"#utility.yul\":1490:1578   */\n              mstore\n                /* \"#utility.yul\":1597:1601   */\n              0x12\n                /* \"#utility.yul\":1594:1595   */\n              0x04\n                /* \"#utility.yul\":1587:1602   */\n              mstore\n                /* \"#utility.yul\":1621:1625   */\n              0x24\n                /* \"#utility.yul\":1618:1619   */\n              0x00\n                /* \"#utility.yul\":1611:1626   */\n              revert\n                /* \"#utility.yul\":1638:1814   */\n            tag_12:\n                /* \"#utility.yul\":1670:1671   */\n              0x00\n                /* \"#utility.yul\":1687:1707   */\n              tag_49\n                /* \"#utility.yul\":1705:1706   */\n              dup3\n                /* \"#utility.yul\":1687:1707   */\n              tag_19\n              jump\t// in\n            tag_49:\n                /* \"#utility.yul\":1682:1707   */\n              swap2\n              pop\n                /* \"#utility.yul\":1721:1741   */\n              tag_50\n                /* \"#utility.yul\":1739:1740   */\n              dup4\n                /* \"#utility.yul\":1721:1741   */\n              tag_19\n              jump\t// in\n            tag_50:\n                /* \"#utility.yul\":1716:1741   */\n              swap3\n              pop\n                /* \"#utility.yul\":1760:1761   */\n              dup3\n                /* \"#utility.yul\":1750:1785   */\n              tag_51\n              jumpi\n                /* \"#utility.yul\":1765:1783   */\n              tag_52\n              tag_24\n              jump\t// in\n            tag_52:\n                /* \"#utility.yul\":1750:1785   */\n            tag_51:\n                /* \"#utility.yul\":1806:1807   */\n              dup3\n                /* \"#utility.yul\":1803:1804   */\n              dup3\n                /* \"#utility.yul\":1799:1808   */\n              mod\n                /* \"#utility.yul\":1794:1808   */\n              swap1\n              pop\n                /* \"#utility.yul\":1638:1814   */\n              swap3\n              swap2\n              pop\n              pop\n              jump\t// out\n                /* \"#utility.yul\":1820:1989   */\n            tag_25:\n                /* \"#utility.yul\":1904:1915   */\n              0x00\n                /* \"#utility.yul\":1938:1944   */\n              dup3\n                /* \"#utility.yul\":1933:1936   */\n              dup3\n                /* \"#utility.yul\":1926:1945   */\n              mstore\n                /* \"#utility.yul\":1978:1982   */\n              0x20\n                /* \"#utility.yul\":1973:1976   */\n              dup3\n                /* \"#utility.yul\":1969:1983   */\n              add\n                /* \"#utility.yul\":1954:1983   */\n              swap1\n              pop\n                /* \"#utility.yul\":1820:1989   */\n              swap3\n              swap2\n              pop\n              pop\n              jump\t// out\n                /* \"#utility.yul\":1995:2159   */\n            tag_26:\n                /* \"#utility.yul\":2135:2151   */\n              0x5570732120526576657274696e67000000000000000000000000000000000000\n                /* \"#utility.yul\":2131:2132   */\n              0x00\n                /* \"#utility.yul\":2123:2129   */\n              dup3\n                /* \"#utility.yul\":2119:2133   */\n              add\n                /* \"#utility.yul\":2112:2152   */\n              mstore\n                /* \"#utility.yul\":1995:2159   */\n              pop\n              jump\t// out\n                /* \"#utility.yul\":2165:2531   */\n            tag_27:\n                /* \"#utility.yul\":2307:2310   */\n              0x00\n                /* \"#utility.yul\":2328:2395   */\n              tag_56\n                /* \"#utility.yul\":2392:2394   */\n              0x0e\n                /* \"#utility.yul\":2387:2390   */\n              dup4\n                /* \"#utility.yul\":2328:2395   */\n              tag_25\n              jump\t// in\n            tag_56:\n                /* \"#utility.yul\":2321:2395   */\n              swap2\n              pop\n                /* \"#utility.yul\":2404:2497   */\n              tag_57\n                /* \"#utility.yul\":2493:2496   */\n              dup3\n                /* \"#utility.yul\":2404:2497   */\n              tag_26\n              jump\t// in\n            tag_57:\n                /* \"#utility.yul\":2522:2524   */\n              0x20\n                /* \"#utility.yul\":2517:2520   */\n              dup3\n                /* \"#utility.yul\":2513:2525   */\n              add\n                /* \"#utility.yul\":2506:2525   */\n              swap1\n              pop\n                /* \"#utility.yul\":2165:2531   */\n              swap2\n              swap1\n              pop\n              jump\t// out\n                /* \"#utility.yul\":2537:2956   */\n            tag_15:\n                /* \"#utility.yul\":2703:2707   */\n              0x00\n                /* \"#utility.yul\":2741:2743   */\n              0x20\n                /* \"#utility.yul\":2730:2739   */\n              dup3\n                /* \"#utility.yul\":2726:2744   */\n              add\n                /* \"#utility.yul\":2718:2744   */\n              swap1\n              pop\n                /* \"#utility.yul\":2790:2799   */\n              dup2\n                /* \"#utility.yul\":2784:2788   */\n              dup2\n                /* \"#utility.yul\":2780:2800   */\n              sub\n                /* \"#utility.yul\":2776:2777   */\n              0x00\n                /* \"#utility.yul\":2765:2774   */\n              dup4\n                /* \"#utility.yul\":2761:2778   */\n              add\n                /* \"#utility.yul\":2754:2801   */\n              mstore\n                /* \"#utility.yul\":2818:2949   */\n              tag_59\n                /* \"#utility.yul\":2944:2948   */\n              dup2\n                /* \"#utility.yul\":2818:2949   */\n              tag_27\n              jump\t// in\n            tag_59:\n                /* \"#utility.yul\":2810:2949   */\n              swap1\n              pop\n                /* \"#utility.yul\":2537:2956   */\n              swap2\n              swap1\n              pop\n              jump\t// out\n\n            auxdata: 0xa26469706673582212204bae4190ea0be7d12e70947a159e355b99ddcdb6ba22b487cae488b38a32276964736f6c634300081e0033\n        }\n    }\n\n    sub_1: assembly {\n            /* \"TryCatch.sol\":339:611  contract OnlyEven2 {... */\n          mstore(0x40, 0x80)\n            /* \"TryCatch.sol\":365:460  constructor(uint a){... */\n          callvalue\n          dup1\n          iszero\n          tag_1\n          jumpi\n          revert(0x00, 0x00)\n        tag_1:\n          pop\n          mload(0x40)\n          sub(codesize, bytecodeSize)\n          dup1\n          bytecodeSize\n          dup4\n          codecopy\n          dup2\n          dup2\n          add\n          0x40\n          mstore\n          dup2\n          add\n          swap1\n          tag_2\n          swap2\n          swap1\n          tag_3\n          jump\t// in\n        tag_2:\n            /* \"TryCatch.sol\":406:407  0 */\n          0x00\n            /* \"TryCatch.sol\":403:404  a */\n          dup2\n            /* \"TryCatch.sol\":403:407  a!=0 */\n          sub\n            /* \"TryCatch.sol\":395:429  require(a!=0, \"invalid number...\") */\n          tag_6\n          jumpi\n          mload(0x40)\n          0x08c379a000000000000000000000000000000000000000000000000000000000\n          dup2\n          mstore\n          0x04\n          add\n          tag_7\n          swap1\n          tag_8\n          jump\t// in\n        tag_7:\n          mload(0x40)\n          dup1\n          swap2\n          sub\n          swap1\n          revert\n        tag_6:\n            /* \"TryCatch.sol\":450:451  1 */\n          0x01\n            /* \"TryCatch.sol\":447:448  a */\n          dup2\n            /* \"TryCatch.sol\":447:451  a!=1 */\n          sub\n            /* \"TryCatch.sol\":440:452  assert(a!=1) */\n          tag_9\n          jumpi\n          tag_10\n          tag_11\n          jump\t// in\n        tag_10:\n        tag_9:\n            /* \"TryCatch.sol\":365:460  constructor(uint a){... */\n          pop\n            /* \"TryCatch.sol\":339:611  contract OnlyEven2 {... */\n          jump(tag_12)\n            /* \"#utility.yul\":88:205   */\n        tag_14:\n            /* \"#utility.yul\":197:198   */\n          0x00\n            /* \"#utility.yul\":194:195   */\n          0x00\n            /* \"#utility.yul\":187:199   */\n          revert\n            /* \"#utility.yul\":334:411   */\n        tag_16:\n            /* \"#utility.yul\":371:378   */\n          0x00\n            /* \"#utility.yul\":400:405   */\n          dup2\n            /* \"#utility.yul\":389:405   */\n          swap1\n          pop\n            /* \"#utility.yul\":334:411   */\n          swap2\n          swap1\n          pop\n          jump\t// out\n            /* \"#utility.yul\":417:539   */\n        tag_17:\n            /* \"#utility.yul\":490:514   */\n          tag_28\n            /* \"#utility.yul\":508:513   */\n          dup2\n            /* \"#utility.yul\":490:514   */\n          tag_16\n          jump\t// in\n        tag_28:\n            /* \"#utility.yul\":483:488   */\n          dup2\n            /* \"#utility.yul\":480:515   */\n          eq\n            /* \"#utility.yul\":470:533   */\n          tag_29\n          jumpi\n            /* \"#utility.yul\":529:530   */\n          0x00\n            /* \"#utility.yul\":526:527   */\n          0x00\n            /* \"#utility.yul\":519:531   */\n          revert\n            /* \"#utility.yul\":470:533   */\n        tag_29:\n            /* \"#utility.yul\":417:539   */\n          pop\n          jump\t// out\n            /* \"#utility.yul\":545:688   */\n        tag_18:\n            /* \"#utility.yul\":602:607   */\n          0x00\n            /* \"#utility.yul\":633:639   */\n          dup2\n            /* \"#utility.yul\":627:640   */\n          mload\n            /* \"#utility.yul\":618:640   */\n          swap1\n          pop\n            /* \"#utility.yul\":649:682   */\n          tag_31\n            /* \"#utility.yul\":676:681   */\n          dup2\n            /* \"#utility.yul\":649:682   */\n          tag_17\n          jump\t// in\n        tag_31:\n            /* \"#utility.yul\":545:688   */\n          swap3\n          swap2\n          pop\n          pop\n          jump\t// out\n            /* \"#utility.yul\":694:1045   */\n        tag_3:\n            /* \"#utility.yul\":764:770   */\n          0x00\n            /* \"#utility.yul\":813:815   */\n          0x20\n            /* \"#utility.yul\":801:810   */\n          dup3\n            /* \"#utility.yul\":792:799   */\n          dup5\n            /* \"#utility.yul\":788:811   */\n          sub\n            /* \"#utility.yul\":784:816   */\n          slt\n            /* \"#utility.yul\":781:900   */\n          iszero\n          tag_33\n          jumpi\n            /* \"#utility.yul\":819:898   */\n          tag_34\n          tag_14\n          jump\t// in\n        tag_34:\n            /* \"#utility.yul\":781:900   */\n        tag_33:\n            /* \"#utility.yul\":939:940   */\n          0x00\n            /* \"#utility.yul\":964:1028   */\n          tag_35\n            /* \"#utility.yul\":1020:1027   */\n          dup5\n            /* \"#utility.yul\":1011:1017   */\n          dup3\n            /* \"#utility.yul\":1000:1009   */\n          dup6\n            /* \"#utility.yul\":996:1018   */\n          add\n            /* \"#utility.yul\":964:1028   */\n          tag_18\n          jump\t// in\n        tag_35:\n            /* \"#utility.yul\":954:1028   */\n          swap2\n          pop\n            /* \"#utility.yul\":910:1038   */\n          pop\n            /* \"#utility.yul\":694:1045   */\n          swap3\n          swap2\n          pop\n          pop\n          jump\t// out\n            /* \"#utility.yul\":1051:1220   */\n        tag_19:\n            /* \"#utility.yul\":1135:1146   */\n          0x00\n            /* \"#utility.yul\":1169:1175   */\n          dup3\n            /* \"#utility.yul\":1164:1167   */\n          dup3\n            /* \"#utility.yul\":1157:1176   */\n          mstore\n            /* \"#utility.yul\":1209:1213   */\n          0x20\n            /* \"#utility.yul\":1204:1207   */\n          dup3\n            /* \"#utility.yul\":1200:1214   */\n          add\n            /* \"#utility.yul\":1185:1214   */\n          swap1\n          pop\n            /* \"#utility.yul\":1051:1220   */\n          swap3\n          swap2\n          pop\n          pop\n          jump\t// out\n            /* \"#utility.yul\":1226:1393   */\n        tag_20:\n            /* \"#utility.yul\":1366:1385   */\n          0x696e76616c6964206e756d6265722e2e2e000000000000000000000000000000\n            /* \"#utility.yul\":1362:1363   */\n          0x00\n            /* \"#utility.yul\":1354:1360   */\n          dup3\n            /* \"#utility.yul\":1350:1364   */\n          add\n            /* \"#utility.yul\":1343:1386   */\n          mstore\n            /* \"#utility.yul\":1226:1393   */\n          pop\n          jump\t// out\n            /* \"#utility.yul\":1399:1765   */\n        tag_21:\n            /* \"#utility.yul\":1541:1544   */\n          0x00\n            /* \"#utility.yul\":1562:1629   */\n          tag_39\n            /* \"#utility.yul\":1626:1628   */\n          0x11\n            /* \"#utility.yul\":1621:1624   */\n          dup4\n            /* \"#utility.yul\":1562:1629   */\n          tag_19\n          jump\t// in\n        tag_39:\n            /* \"#utility.yul\":1555:1629   */\n          swap2\n          pop\n            /* \"#utility.yul\":1638:1731   */\n          tag_40\n            /* \"#utility.yul\":1727:1730   */\n          dup3\n            /* \"#utility.yul\":1638:1731   */\n          tag_20\n          jump\t// in\n        tag_40:\n            /* \"#utility.yul\":1756:1758   */\n          0x20\n            /* \"#utility.yul\":1751:1754   */\n          dup3\n            /* \"#utility.yul\":1747:1759   */\n          add\n            /* \"#utility.yul\":1740:1759   */\n          swap1\n          pop\n            /* \"#utility.yul\":1399:1765   */\n          swap2\n          swap1\n          pop\n          jump\t// out\n            /* \"#utility.yul\":1771:2190   */\n        tag_8:\n            /* \"#utility.yul\":1937:1941   */\n          0x00\n            /* \"#utility.yul\":1975:1977   */\n          0x20\n            /* \"#utility.yul\":1964:1973   */\n          dup3\n            /* \"#utility.yul\":1960:1978   */\n          add\n            /* \"#utility.yul\":1952:1978   */\n          swap1\n          pop\n            /* \"#utility.yul\":2024:2033   */\n          dup2\n            /* \"#utility.yul\":2018:2022   */\n          dup2\n            /* \"#utility.yul\":2014:2034   */\n          sub\n            /* \"#utility.yul\":2010:2011   */\n          0x00\n            /* \"#utility.yul\":1999:2008   */\n          dup4\n            /* \"#utility.yul\":1995:2012   */\n          add\n            /* \"#utility.yul\":1988:2035   */\n          mstore\n            /* \"#utility.yul\":2052:2183   */\n          tag_42\n            /* \"#utility.yul\":2178:2182   */\n          dup2\n            /* \"#utility.yul\":2052:2183   */\n          tag_21\n          jump\t// in\n        tag_42:\n            /* \"#utility.yul\":2044:2183   */\n          swap1\n          pop\n            /* \"#utility.yul\":1771:2190   */\n          swap2\n          swap1\n          pop\n          jump\t// out\n            /* \"#utility.yul\":2196:2376   */\n        tag_11:\n            /* \"#utility.yul\":2244:2321   */\n          0x4e487b7100000000000000000000000000000000000000000000000000000000\n            /* \"#utility.yul\":2241:2242   */\n          0x00\n            /* \"#utility.yul\":2234:2322   */\n          mstore\n            /* \"#utility.yul\":2341:2345   */\n          0x01\n            /* \"#utility.yul\":2338:2339   */\n          0x04\n            /* \"#utility.yul\":2331:2346   */\n          mstore\n            /* \"#utility.yul\":2365:2369   */\n          0x24\n            /* \"#utility.yul\":2362:2363   */\n          0x00\n            /* \"#utility.yul\":2355:2370   */\n          revert\n            /* \"TryCatch.sol\":339:611  contract OnlyEven2 {... */\n        tag_12:\n          dataSize(sub_0)\n          dup1\n          dataOffset(sub_0)\n          0x00\n          codecopy\n          0x00\n          return\n        stop\n\n        sub_0: assembly {\n                /* \"TryCatch.sol\":339:611  contract OnlyEven2 {... */\n              mstore(0x40, 0x80)\n              callvalue\n              dup1\n              iszero\n              tag_1\n              jumpi\n              revert(0x00, 0x00)\n            tag_1:\n              pop\n              jumpi(tag_2, lt(calldatasize, 0x04))\n              shr(0xe0, calldataload(0x00))\n              dup1\n              0xce0b4213\n              eq\n              tag_3\n              jumpi\n            tag_2:\n              revert(0x00, 0x00)\n                /* \"TryCatch.sol\":468:608  function onlyEven(uint256 b) external pure returns (uint success) {... */\n            tag_3:\n              tag_4\n              0x04\n              dup1\n              calldatasize\n              sub\n              dup2\n              add\n              swap1\n              tag_5\n              swap2\n              swap1\n              tag_6\n              jump\t// in\n            tag_5:\n              tag_7\n              jump\t// in\n            tag_4:\n              mload(0x40)\n              tag_8\n              swap2\n              swap1\n              tag_9\n              jump\t// in\n            tag_8:\n              mload(0x40)\n              dup1\n              swap2\n              sub\n              swap1\n              return\n            tag_7:\n                /* \"TryCatch.sol\":520:532  uint success */\n              0x00\n                /* \"TryCatch.sol\":558:559  0 */\n              0x00\n                /* \"TryCatch.sol\":555:556  2 */\n              0x02\n                /* \"TryCatch.sol\":553:554  b */\n              dup4\n                /* \"TryCatch.sol\":553:556  b%2 */\n              tag_11\n              swap2\n              swap1\n              tag_12\n              jump\t// in\n            tag_11:\n                /* \"TryCatch.sol\":553:559  b%2==0 */\n              eq\n                /* \"TryCatch.sol\":545:578  require(b%2==0 ,\"Ups! Reverting\") */\n              tag_13\n              jumpi\n              mload(0x40)\n              0x08c379a000000000000000000000000000000000000000000000000000000000\n              dup2\n              mstore\n              0x04\n              add\n              tag_14\n              swap1\n              tag_15\n              jump\t// in\n            tag_14:\n              mload(0x40)\n              dup1\n              swap2\n              sub\n              swap1\n              revert\n            tag_13:\n                /* \"TryCatch.sol\":599:600  b */\n              dup2\n                /* \"TryCatch.sol\":589:600  success = b */\n              swap1\n              pop\n                /* \"TryCatch.sol\":468:608  function onlyEven(uint256 b) external pure returns (uint success) {... */\n              swap2\n              swap1\n              pop\n              jump\t// out\n                /* \"#utility.yul\":88:205   */\n            tag_17:\n                /* \"#utility.yul\":197:198   */\n              0x00\n                /* \"#utility.yul\":194:195   */\n              0x00\n                /* \"#utility.yul\":187:199   */\n              revert\n                /* \"#utility.yul\":334:411   */\n            tag_19:\n                /* \"#utility.yul\":371:378   */\n              0x00\n                /* \"#utility.yul\":400:405   */\n              dup2\n                /* \"#utility.yul\":389:405   */\n              swap1\n              pop\n                /* \"#utility.yul\":334:411   */\n              swap2\n              swap1\n              pop\n              jump\t// out\n                /* \"#utility.yul\":417:539   */\n            tag_20:\n                /* \"#utility.yul\":490:514   */\n              tag_33\n                /* \"#utility.yul\":508:513   */\n              dup2\n                /* \"#utility.yul\":490:514   */\n              tag_19\n              jump\t// in\n            tag_33:\n                /* \"#utility.yul\":483:488   */\n              dup2\n                /* \"#utility.yul\":480:515   */\n              eq\n                /* \"#utility.yul\":470:533   */\n              tag_34\n              jumpi\n                /* \"#utility.yul\":529:530   */\n              0x00\n                /* \"#utility.yul\":526:527   */\n              0x00\n                /* \"#utility.yul\":519:531   */\n              revert\n                /* \"#utility.yul\":470:533   */\n            tag_34:\n                /* \"#utility.yul\":417:539   */\n              pop\n              jump\t// out\n                /* \"#utility.yul\":545:684   */\n            tag_21:\n                /* \"#utility.yul\":591:596   */\n              0x00\n                /* \"#utility.yul\":629:635   */\n              dup2\n                /* \"#utility.yul\":616:636   */\n              calldataload\n                /* \"#utility.yul\":607:636   */\n              swap1\n              pop\n                /* \"#utility.yul\":645:678   */\n              tag_36\n                /* \"#utility.yul\":672:677   */\n              dup2\n                /* \"#utility.yul\":645:678   */\n              tag_20\n              jump\t// in\n            tag_36:\n                /* \"#utility.yul\":545:684   */\n              swap3\n              swap2\n              pop\n              pop\n              jump\t// out\n                /* \"#utility.yul\":690:1019   */\n            tag_6:\n                /* \"#utility.yul\":749:755   */\n              0x00\n                /* \"#utility.yul\":798:800   */\n              0x20\n                /* \"#utility.yul\":786:795   */\n              dup3\n                /* \"#utility.yul\":777:784   */\n              dup5\n                /* \"#utility.yul\":773:796   */\n              sub\n                /* \"#utility.yul\":769:801   */\n              slt\n                /* \"#utility.yul\":766:885   */\n              iszero\n              tag_38\n              jumpi\n                /* \"#utility.yul\":804:883   */\n              tag_39\n              tag_17\n              jump\t// in\n            tag_39:\n                /* \"#utility.yul\":766:885   */\n            tag_38:\n                /* \"#utility.yul\":924:925   */\n              0x00\n                /* \"#utility.yul\":949:1002   */\n              tag_40\n                /* \"#utility.yul\":994:1001   */\n              dup5\n                /* \"#utility.yul\":985:991   */\n              dup3\n                /* \"#utility.yul\":974:983   */\n              dup6\n                /* \"#utility.yul\":970:992   */\n              add\n                /* \"#utility.yul\":949:1002   */\n              tag_21\n              jump\t// in\n            tag_40:\n                /* \"#utility.yul\":939:1002   */\n              swap2\n              pop\n                /* \"#utility.yul\":895:1012   */\n              pop\n                /* \"#utility.yul\":690:1019   */\n              swap3\n              swap2\n              pop\n              pop\n              jump\t// out\n                /* \"#utility.yul\":1025:1143   */\n            tag_22:\n                /* \"#utility.yul\":1112:1136   */\n              tag_42\n                /* \"#utility.yul\":1130:1135   */\n              dup2\n                /* \"#utility.yul\":1112:1136   */\n              tag_19\n              jump\t// in\n            tag_42:\n                /* \"#utility.yul\":1107:1110   */\n              dup3\n                /* \"#utility.yul\":1100:1137   */\n              mstore\n                /* \"#utility.yul\":1025:1143   */\n              pop\n              pop\n              jump\t// out\n                /* \"#utility.yul\":1149:1371   */\n            tag_9:\n                /* \"#utility.yul\":1242:1246   */\n              0x00\n                /* \"#utility.yul\":1280:1282   */\n              0x20\n                /* \"#utility.yul\":1269:1278   */\n              dup3\n                /* \"#utility.yul\":1265:1283   */\n              add\n                /* \"#utility.yul\":1257:1283   */\n              swap1\n              pop\n                /* \"#utility.yul\":1293:1364   */\n              tag_44\n                /* \"#utility.yul\":1361:1362   */\n              0x00\n                /* \"#utility.yul\":1350:1359   */\n              dup4\n                /* \"#utility.yul\":1346:1363   */\n              add\n                /* \"#utility.yul\":1337:1343   */\n              dup5\n                /* \"#utility.yul\":1293:1364   */\n              tag_22\n              jump\t// in\n            tag_44:\n                /* \"#utility.yul\":1149:1371   */\n              swap3\n              swap2\n              pop\n              pop\n              jump\t// out\n                /* \"#utility.yul\":1377:1557   */\n            tag_23:\n                /* \"#utility.yul\":1425:1502   */\n              0x4e487b7100000000000000000000000000000000000000000000000000000000\n                /* \"#utility.yul\":1422:1423   */\n              0x00\n                /* \"#utility.yul\":1415:1503   */\n              mstore\n                /* \"#utility.yul\":1522:1526   */\n              0x12\n                /* \"#utility.yul\":1519:1520   */\n              0x04\n                /* \"#utility.yul\":1512:1527   */\n              mstore\n                /* \"#utility.yul\":1546:1550   */\n              0x24\n                /* \"#utility.yul\":1543:1544   */\n              0x00\n                /* \"#utility.yul\":1536:1551   */\n              revert\n                /* \"#utility.yul\":1563:1739   */\n            tag_12:\n                /* \"#utility.yul\":1595:1596   */\n              0x00\n                /* \"#utility.yul\":1612:1632   */\n              tag_47\n                /* \"#utility.yul\":1630:1631   */\n              dup3\n                /* \"#utility.yul\":1612:1632   */\n              tag_19\n              jump\t// in\n            tag_47:\n                /* \"#utility.yul\":1607:1632   */\n              swap2\n              pop\n                /* \"#utility.yul\":1646:1666   */\n              tag_48\n                /* \"#utility.yul\":1664:1665   */\n              dup4\n                /* \"#utility.yul\":1646:1666   */\n              tag_19\n              jump\t// in\n            tag_48:\n                /* \"#utility.yul\":1641:1666   */\n              swap3\n              pop\n                /* \"#utility.yul\":1685:1686   */\n              dup3\n                /* \"#utility.yul\":1675:1710   */\n              tag_49\n              jumpi\n                /* \"#utility.yul\":1690:1708   */\n              tag_50\n              tag_23\n              jump\t// in\n            tag_50:\n                /* \"#utility.yul\":1675:1710   */\n            tag_49:\n                /* \"#utility.yul\":1731:1732   */\n              dup3\n                /* \"#utility.yul\":1728:1729   */\n              dup3\n                /* \"#utility.yul\":1724:1733   */\n              mod\n                /* \"#utility.yul\":1719:1733   */\n              swap1\n              pop\n                /* \"#utility.yul\":1563:1739   */\n              swap3\n              swap2\n              pop\n              pop\n              jump\t// out\n                /* \"#utility.yul\":1745:1914   */\n            tag_24:\n                /* \"#utility.yul\":1829:1840   */\n              0x00\n                /* \"#utility.yul\":1863:1869   */\n              dup3\n                /* \"#utility.yul\":1858:1861   */\n              dup3\n                /* \"#utility.yul\":1851:1870   */\n              mstore\n                /* \"#utility.yul\":1903:1907   */\n              0x20\n                /* \"#utility.yul\":1898:1901   */\n              dup3\n                /* \"#utility.yul\":1894:1908   */\n              add\n                /* \"#utility.yul\":1879:1908   */\n              swap1\n              pop\n                /* \"#utility.yul\":1745:1914   */\n              swap3\n              swap2\n              pop\n              pop\n              jump\t// out\n                /* \"#utility.yul\":1920:2084   */\n            tag_25:\n                /* \"#utility.yul\":2060:2076   */\n              0x5570732120526576657274696e67000000000000000000000000000000000000\n                /* \"#utility.yul\":2056:2057   */\n              0x00\n                /* \"#utility.yul\":2048:2054   */\n              dup3\n                /* \"#utility.yul\":2044:2058   */\n              add\n                /* \"#utility.yul\":2037:2077   */\n              mstore\n                /* \"#utility.yul\":1920:2084   */\n              pop\n              jump\t// out\n                /* \"#utility.yul\":2090:2456   */\n            tag_26:\n                /* \"#utility.yul\":2232:2235   */\n              0x00\n                /* \"#utility.yul\":2253:2320   */\n              tag_54\n                /* \"#utility.yul\":2317:2319   */\n              0x0e\n                /* \"#utility.yul\":2312:2315   */\n              dup4\n                /* \"#utility.yul\":2253:2320   */\n              tag_24\n              jump\t// in\n            tag_54:\n                /* \"#utility.yul\":2246:2320   */\n              swap2\n              pop\n                /* \"#utility.yul\":2329:2422   */\n              tag_55\n                /* \"#utility.yul\":2418:2421   */\n              dup3\n                /* \"#utility.yul\":2329:2422   */\n              tag_25\n              jump\t// in\n            tag_55:\n                /* \"#utility.yul\":2447:2449   */\n              0x20\n                /* \"#utility.yul\":2442:2445   */\n              dup3\n                /* \"#utility.yul\":2438:2450   */\n              add\n                /* \"#utility.yul\":2431:2450   */\n              swap1\n              pop\n                /* \"#utility.yul\":2090:2456   */\n              swap2\n              swap1\n              pop\n              jump\t// out\n                /* \"#utility.yul\":2462:2881   */\n            tag_15:\n                /* \"#utility.yul\":2628:2632   */\n              0x00\n                /* \"#utility.yul\":2666:2668   */\n              0x20\n                /* \"#utility.yul\":2655:2664   */\n              dup3\n                /* \"#utility.yul\":2651:2669   */\n              add\n                /* \"#utility.yul\":2643:2669   */\n              swap1\n              pop\n                /* \"#utility.yul\":2715:2724   */\n              dup2\n                /* \"#utility.yul\":2709:2713   */\n              dup2\n                /* \"#utility.yul\":2705:2725   */\n              sub\n                /* \"#utility.yul\":2701:2702   */\n              0x00\n                /* \"#utility.yul\":2690:2699   */\n              dup4\n                /* \"#utility.yul\":2686:2703   */\n              add\n                /* \"#utility.yul\":2679:2726   */\n              mstore\n                /* \"#utility.yul\":2743:2874   */\n              tag_57\n                /* \"#utility.yul\":2869:2873   */\n              dup2\n                /* \"#utility.yul\":2743:2874   */\n              tag_26\n              jump\t// in\n            tag_57:\n                /* \"#utility.yul\":2735:2874   */\n              swap1\n              pop\n                /* \"#utility.yul\":2462:2881   */\n              swap2\n              swap1\n              pop\n              jump\t// out\n\n            auxdata: 0xa264697066735822122092b108d582b5015f29cfbb3c3ec24858dc3582afdbd7f31d4cf78c3cd150ef3264736f6c634300081e0033\n        }\n    }\n\n    auxdata: 0xa2646970667358221220205ba877eabb73722f9225eeeeb1f5bd51bfe529bd10229254fcc815f6ff4dce64736f6c634300081e0033\n}\n\nsub_1: assembly {\n        /* \"TryCatch.sol\":61:335  contract OnlyEven {... */\n      mstore(0x40, 0x80)\n        /* \"TryCatch.sol\":86:181  constructor(uint a){... */\n      callvalue\n      dup1\n      iszero\n      tag_1\n      jumpi\n      revert(0x00, 0x00)\n    tag_1:\n      pop\n      mload(0x40)\n      sub(codesize, bytecodeSize)\n      dup1\n      bytecodeSize\n      dup4\n      codecopy\n      dup2\n      dup2\n      add\n      0x40\n      mstore\n      dup2\n      add\n      swap1\n      tag_2\n      swap2\n      swap1\n      tag_3\n      jump\t// in\n    tag_2:\n        /* \"TryCatch.sol\":127:128  0 */\n      0x00\n        /* \"TryCatch.sol\":124:125  a */\n      dup2\n        /* \"TryCatch.sol\":124:128  a!=0 */\n      sub\n        /* \"TryCatch.sol\":116:150  require(a!=0, \"invalid number...\") */\n      tag_6\n      jumpi\n      mload(0x40)\n      0x08c379a000000000000000000000000000000000000000000000000000000000\n      dup2\n      mstore\n      0x04\n      add\n      tag_7\n      swap1\n      tag_8\n      jump\t// in\n    tag_7:\n      mload(0x40)\n      dup1\n      swap2\n      sub\n      swap1\n      revert\n    tag_6:\n        /* \"TryCatch.sol\":171:172  1 */\n      0x01\n        /* \"TryCatch.sol\":168:169  a */\n      dup2\n        /* \"TryCatch.sol\":168:172  a!=1 */\n      sub\n        /* \"TryCatch.sol\":161:173  assert(a!=1) */\n      tag_9\n      jumpi\n      tag_10\n      tag_11\n      jump\t// in\n    tag_10:\n    tag_9:\n        /* \"TryCatch.sol\":86:181  constructor(uint a){... */\n      pop\n        /* \"TryCatch.sol\":61:335  contract OnlyEven {... */\n      jump(tag_12)\n        /* \"#utility.yul\":88:205   */\n    tag_14:\n        /* \"#utility.yul\":197:198   */\n      0x00\n        /* \"#utility.yul\":194:195   */\n      0x00\n        /* \"#utility.yul\":187:199   */\n      revert\n        /* \"#utility.yul\":334:411   */\n    tag_16:\n        /* \"#utility.yul\":371:378   */\n      0x00\n        /* \"#utility.yul\":400:405   */\n      dup2\n        /* \"#utility.yul\":389:405   */\n      swap1\n      pop\n        /* \"#utility.yul\":334:411   */\n      swap2\n      swap1\n      pop\n      jump\t// out\n        /* \"#utility.yul\":417:539   */\n    tag_17:\n        /* \"#utility.yul\":490:514   */\n      tag_28\n        /* \"#utility.yul\":508:513   */\n      dup2\n        /* \"#utility.yul\":490:514   */\n      tag_16\n      jump\t// in\n    tag_28:\n        /* \"#utility.yul\":483:488   */\n      dup2\n        /* \"#utility.yul\":480:515   */\n      eq\n        /* \"#utility.yul\":470:533   */\n      tag_29\n      jumpi\n        /* \"#utility.yul\":529:530   */\n      0x00\n        /* \"#utility.yul\":526:527   */\n      0x00\n        /* \"#utility.yul\":519:531   */\n      revert\n        /* \"#utility.yul\":470:533   */\n    tag_29:\n        /* \"#utility.yul\":417:539   */\n      pop\n      jump\t// out\n        /* \"#utility.yul\":545:688   */\n    tag_18:\n        /* \"#utility.yul\":602:607   */\n      0x00\n        /* \"#utility.yul\":633:639   */\n      dup2\n        /* \"#utility.yul\":627:640   */\n      mload\n        /* \"#utility.yul\":618:640   */\n      swap1\n      pop\n        /* \"#utility.yul\":649:682   */\n      tag_31\n        /* \"#utility.yul\":676:681   */\n      dup2\n        /* \"#utility.yul\":649:682   */\n      tag_17\n      jump\t// in\n    tag_31:\n        /* \"#utility.yul\":545:688   */\n      swap3\n      swap2\n      pop\n      pop\n      jump\t// out\n        /* \"#utility.yul\":694:1045   */\n    tag_3:\n        /* \"#utility.yul\":764:770   */\n      0x00\n        /* \"#utility.yul\":813:815   */\n      0x20\n        /* \"#utility.yul\":801:810   */\n      dup3\n        /* \"#utility.yul\":792:799   */\n      dup5\n        /* \"#utility.yul\":788:811   */\n      sub\n        /* \"#utility.yul\":784:816   */\n      slt\n        /* \"#utility.yul\":781:900   */\n      iszero\n      tag_33\n      jumpi\n        /* \"#utility.yul\":819:898   */\n      tag_34\n      tag_14\n      jump\t// in\n    tag_34:\n        /* \"#utility.yul\":781:900   */\n    tag_33:\n        /* \"#utility.yul\":939:940   */\n      0x00\n        /* \"#utility.yul\":964:1028   */\n      tag_35\n        /* \"#utility.yul\":1020:1027   */\n      dup5\n        /* \"#utility.yul\":1011:1017   */\n      dup3\n        /* \"#utility.yul\":1000:1009   */\n      dup6\n        /* \"#utility.yul\":996:1018   */\n      add\n        /* \"#utility.yul\":964:1028   */\n      tag_18\n      jump\t// in\n    tag_35:\n        /* \"#utility.yul\":954:1028   */\n      swap2\n      pop\n        /* \"#utility.yul\":910:1038   */\n      pop\n        /* \"#utility.yul\":694:1045   */\n      swap3\n      swap2\n      pop\n      pop\n      jump\t// out\n        /* \"#utility.yul\":1051:1220   */\n    tag_19:\n        /* \"#utility.yul\":1135:1146   */\n      0x00\n        /* \"#utility.yul\":1169:1175   */\n      dup3\n        /* \"#utility.yul\":1164:1167   */\n      dup3\n        /* \"#utility.yul\":1157:1176   */\n      mstore\n        /* \"#utility.yul\":1209:1213   */\n      0x20\n        /* \"#utility.yul\":1204:1207   */\n      dup3\n        /* \"#utility.yul\":1200:1214   */\n      add\n        /* \"#utility.yul\":1185:1214   */\n      swap1\n      pop\n        /* \"#utility.yul\":1051:1220   */\n      swap3\n      swap2\n      pop\n      pop\n      jump\t// out\n        /* \"#utility.yul\":1226:1393   */\n    tag_20:\n        /* \"#utility.yul\":1366:1385   */\n      0x696e76616c6964206e756d6265722e2e2e000000000000000000000000000000\n        /* \"#utility.yul\":1362:1363   */\n      0x00\n        /* \"#utility.yul\":1354:1360   */\n      dup3\n        /* \"#utility.yul\":1350:1364   */\n      add\n        /* \"#utility.yul\":1343:1386   */\n      mstore\n        /* \"#utility.yul\":1226:1393   */\n      pop\n      jump\t// out\n        /* \"#utility.yul\":1399:1765   */\n    tag_21:\n        /* \"#utility.yul\":1541:1544   */\n      0x00\n        /* \"#utility.yul\":1562:1629   */\n      tag_39\n        /* \"#utility.yul\":1626:1628   */\n      0x11\n        /* \"#utility.yul\":1621:1624   */\n      dup4\n        /* \"#utility.yul\":1562:1629   */\n      tag_19\n      jump\t// in\n    tag_39:\n        /* \"#utility.yul\":1555:1629   */\n      swap2\n      pop\n        /* \"#utility.yul\":1638:1731   */\n      tag_40\n        /* \"#utility.yul\":1727:1730   */\n      dup3\n        /* \"#utility.yul\":1638:1731   */\n      tag_20\n      jump\t// in\n    tag_40:\n        /* \"#utility.yul\":1756:1758   */\n      0x20\n        /* \"#utility.yul\":1751:1754   */\n      dup3\n        /* \"#utility.yul\":1747:1759   */\n      add\n        /* \"#utility.yul\":1740:1759   */\n      swap1\n      pop\n        /* \"#utility.yul\":1399:1765   */\n      swap2\n      swap1\n      pop\n      jump\t// out\n        /* \"#utility.yul\":1771:2190   */\n    tag_8:\n        /* \"#utility.yul\":1937:1941   */\n      0x00\n        /* \"#utility.yul\":1975:1977   */\n      0x20\n        /* \"#utility.yul\":1964:1973   */\n      dup3\n        /* \"#utility.yul\":1960:1978   */\n      add\n        /* \"#utility.yul\":1952:1978   */\n      swap1\n      pop\n        /* \"#utility.yul\":2024:2033   */\n      dup2\n        /* \"#utility.yul\":2018:2022   */\n      dup2\n        /* \"#utility.yul\":2014:2034   */\n      sub\n        /* \"#utility.yul\":2010:2011   */\n      0x00\n        /* \"#utility.yul\":1999:2008   */\n      dup4\n        /* \"#utility.yul\":1995:2012   */\n      add\n        /* \"#utility.yul\":1988:2035   */\n      mstore\n        /* \"#utility.yul\":2052:2183   */\n      tag_42\n        /* \"#utility.yul\":2178:2182   */\n      dup2\n        /* \"#utility.yul\":2052:2183   */\n      tag_21\n      jump\t// in\n    tag_42:\n        /* \"#utility.yul\":2044:2183   */\n      swap1\n      pop\n        /* \"#utility.yul\":1771:2190   */\n      swap2\n      swap1\n      pop\n      jump\t// out\n        /* \"#utility.yul\":2196:2376   */\n    tag_11:\n        /* \"#utility.yul\":2244:2321   */\n      0x4e487b7100000000000000000000000000000000000000000000000000000000\n        /* \"#utility.yul\":2241:2242   */\n      0x00\n        /* \"#utility.yul\":2234:2322   */\n      mstore\n        /* \"#utility.yul\":2341:2345   */\n      0x01\n        /* \"#utility.yul\":2338:2339   */\n      0x04\n        /* \"#utility.yul\":2331:2346   */\n      mstore\n        /* \"#utility.yul\":2365:2369   */\n      0x24\n        /* \"#utility.yul\":2362:2363   */\n      0x00\n        /* \"#utility.yul\":2355:2370   */\n      revert\n        /* \"TryCatch.sol\":61:335  contract OnlyEven {... */\n    tag_12:\n      dataSize(sub_0)\n      dup1\n      dataOffset(sub_0)\n      0x00\n      codecopy\n      0x00\n      return\n    stop\n\n    sub_0: assembly {\n            /* \"TryCatch.sol\":61:335  contract OnlyEven {... */\n          mstore(0x40, 0x80)\n          callvalue\n          dup1\n          iszero\n          tag_1\n          jumpi\n          revert(0x00, 0x00)\n        tag_1:\n          pop\n          jumpi(tag_2, lt(calldatasize, 0x04))\n          shr(0xe0, calldataload(0x00))\n          dup1\n          0xce0b4213\n          eq\n          tag_3\n          jumpi\n        tag_2:\n          revert(0x00, 0x00)\n            /* \"TryCatch.sol\":189:332  function onlyEven(uint256 b) external pure returns (bool success) {... */\n        tag_3:\n          tag_4\n          0x04\n          dup1\n          calldatasize\n          sub\n          dup2\n          add\n          swap1\n          tag_5\n          swap2\n          swap1\n          tag_6\n          jump\t// in\n        tag_5:\n          tag_7\n          jump\t// in\n        tag_4:\n          mload(0x40)\n          tag_8\n          swap2\n          swap1\n          tag_9\n          jump\t// in\n        tag_8:\n          mload(0x40)\n          dup1\n          swap2\n          sub\n          swap1\n          return\n        tag_7:\n            /* \"TryCatch.sol\":241:253  bool success */\n          0x00\n            /* \"TryCatch.sol\":279:280  0 */\n          0x00\n            /* \"TryCatch.sol\":276:277  2 */\n          0x02\n            /* \"TryCatch.sol\":274:275  b */\n          dup4\n            /* \"TryCatch.sol\":274:277  b%2 */\n          tag_11\n          swap2\n          swap1\n          tag_12\n          jump\t// in\n        tag_11:\n            /* \"TryCatch.sol\":274:280  b%2==0 */\n          eq\n            /* \"TryCatch.sol\":266:299  require(b%2==0 ,\"Ups! Reverting\") */\n          tag_13\n          jumpi\n          mload(0x40)\n          0x08c379a000000000000000000000000000000000000000000000000000000000\n          dup2\n          mstore\n          0x04\n          add\n          tag_14\n          swap1\n          tag_15\n          jump\t// in\n        tag_14:\n          mload(0x40)\n          dup1\n          swap2\n          sub\n          swap1\n          revert\n        tag_13:\n            /* \"TryCatch.sol\":320:324  true */\n          0x01\n            /* \"TryCatch.sol\":310:324  success = true */\n          swap1\n          pop\n            /* \"TryCatch.sol\":189:332  function onlyEven(uint256 b) external pure returns (bool success) {... */\n          swap2\n          swap1\n          pop\n          jump\t// out\n            /* \"#utility.yul\":88:205   */\n        tag_17:\n            /* \"#utility.yul\":197:198   */\n          0x00\n            /* \"#utility.yul\":194:195   */\n          0x00\n            /* \"#utility.yul\":187:199   */\n          revert\n            /* \"#utility.yul\":334:411   */\n        tag_19:\n            /* \"#utility.yul\":371:378   */\n          0x00\n            /* \"#utility.yul\":400:405   */\n          dup2\n            /* \"#utility.yul\":389:405   */\n          swap1\n          pop\n            /* \"#utility.yul\":334:411   */\n          swap2\n          swap1\n          pop\n          jump\t// out\n            /* \"#utility.yul\":417:539   */\n        tag_20:\n            /* \"#utility.yul\":490:514   */\n          tag_34\n            /* \"#utility.yul\":508:513   */\n          dup2\n            /* \"#utility.yul\":490:514   */\n          tag_19\n          jump\t// in\n        tag_34:\n            /* \"#utility.yul\":483:488   */\n          dup2\n            /* \"#utility.yul\":480:515   */\n          eq\n            /* \"#utility.yul\":470:533   */\n          tag_35\n          jumpi\n            /* \"#utility.yul\":529:530   */\n          0x00\n            /* \"#utility.yul\":526:527   */\n          0x00\n            /* \"#utility.yul\":519:531   */\n          revert\n            /* \"#utility.yul\":470:533   */\n        tag_35:\n            /* \"#utility.yul\":417:539   */\n          pop\n          jump\t// out\n            /* \"#utility.yul\":545:684   */\n        tag_21:\n            /* \"#utility.yul\":591:596   */\n          0x00\n            /* \"#utility.yul\":629:635   */\n          dup2\n            /* \"#utility.yul\":616:636   */\n          calldataload\n            /* \"#utility.yul\":607:636   */\n          swap1\n          pop\n            /* \"#utility.yul\":645:678   */\n          tag_37\n            /* \"#utility.yul\":672:677   */\n          dup2\n            /* \"#utility.yul\":645:678   */\n          tag_20\n          jump\t// in\n        tag_37:\n            /* \"#utility.yul\":545:684   */\n          swap3\n          swap2\n          pop\n          pop\n          jump\t// out\n            /* \"#utility.yul\":690:1019   */\n        tag_6:\n            /* \"#utility.yul\":749:755   */\n          0x00\n            /* \"#utility.yul\":798:800   */\n          0x20\n            /* \"#utility.yul\":786:795   */\n          dup3\n            /* \"#utility.yul\":777:784   */\n          dup5\n            /* \"#utility.yul\":773:796   */\n          sub\n            /* \"#utility.yul\":769:801   */\n          slt\n            /* \"#utility.yul\":766:885   */\n          iszero\n          tag_39\n          jumpi\n            /* \"#utility.yul\":804:883   */\n          tag_40\n          tag_17\n          jump\t// in\n        tag_40:\n            /* \"#utility.yul\":766:885   */\n        tag_39:\n            /* \"#utility.yul\":924:925   */\n          0x00\n            /* \"#utility.yul\":949:1002   */\n          tag_41\n            /* \"#utility.yul\":994:1001   */\n          dup5\n            /* \"#utility.yul\":985:991   */\n          dup3\n            /* \"#utility.yul\":974:983   */\n          dup6\n            /* \"#utility.yul\":970:992   */\n          add\n            /* \"#utility.yul\":949:1002   */\n          tag_21\n          jump\t// in\n        tag_41:\n            /* \"#utility.yul\":939:1002   */\n          swap2\n          pop\n            /* \"#utility.yul\":895:1012   */\n          pop\n            /* \"#utility.yul\":690:1019   */\n          swap3\n          swap2\n          pop\n          pop\n          jump\t// out\n            /* \"#utility.yul\":1025:1115   */\n        tag_22:\n            /* \"#utility.yul\":1059:1066   */\n          0x00\n            /* \"#utility.yul\":1102:1107   */\n          dup2\n            /* \"#utility.yul\":1095:1108   */\n          iszero\n            /* \"#utility.yul\":1088:1109   */\n          iszero\n            /* \"#utility.yul\":1077:1109   */\n          swap1\n          pop\n            /* \"#utility.yul\":1025:1115   */\n          swap2\n          swap1\n          pop\n          jump\t// out\n            /* \"#utility.yul\":1121:1230   */\n        tag_23:\n            /* \"#utility.yul\":1202:1223   */\n          tag_44\n            /* \"#utility.yul\":1217:1222   */\n          dup2\n            /* \"#utility.yul\":1202:1223   */\n          tag_22\n          jump\t// in\n        tag_44:\n            /* \"#utility.yul\":1197:1200   */\n          dup3\n            /* \"#utility.yul\":1190:1224   */\n          mstore\n            /* \"#utility.yul\":1121:1230   */\n          pop\n          pop\n          jump\t// out\n            /* \"#utility.yul\":1236:1446   */\n        tag_9:\n            /* \"#utility.yul\":1323:1327   */\n          0x00\n            /* \"#utility.yul\":1361:1363   */\n          0x20\n            /* \"#utility.yul\":1350:1359   */\n          dup3\n            /* \"#utility.yul\":1346:1364   */\n          add\n            /* \"#utility.yul\":1338:1364   */\n          swap1\n          pop\n            /* \"#utility.yul\":1374:1439   */\n          tag_46\n            /* \"#utility.yul\":1436:1437   */\n          0x00\n            /* \"#utility.yul\":1425:1434   */\n          dup4\n            /* \"#utility.yul\":1421:1438   */\n          add\n            /* \"#utility.yul\":1412:1418   */\n          dup5\n            /* \"#utility.yul\":1374:1439   */\n          tag_23\n          jump\t// in\n        tag_46:\n            /* \"#utility.yul\":1236:1446   */\n          swap3\n          swap2\n          pop\n          pop\n          jump\t// out\n            /* \"#utility.yul\":1452:1632   */\n        tag_24:\n            /* \"#utility.yul\":1500:1577   */\n          0x4e487b7100000000000000000000000000000000000000000000000000000000\n            /* \"#utility.yul\":1497:1498   */\n          0x00\n            /* \"#utility.yul\":1490:1578   */\n          mstore\n            /* \"#utility.yul\":1597:1601   */\n          0x12\n            /* \"#utility.yul\":1594:1595   */\n          0x04\n            /* \"#utility.yul\":1587:1602   */\n          mstore\n            /* \"#utility.yul\":1621:1625   */\n          0x24\n            /* \"#utility.yul\":1618:1619   */\n          0x00\n            /* \"#utility.yul\":1611:1626   */\n          revert\n            /* \"#utility.yul\":1638:1814   */\n        tag_12:\n            /* \"#utility.yul\":1670:1671   */\n          0x00\n            /* \"#utility.yul\":1687:1707   */\n          tag_49\n            /* \"#utility.yul\":1705:1706   */\n          dup3\n            /* \"#utility.yul\":1687:1707   */\n          tag_19\n          jump\t// in\n        tag_49:\n            /* \"#utility.yul\":1682:1707   */\n          swap2\n          pop\n            /* \"#utility.yul\":1721:1741   */\n          tag_50\n            /* \"#utility.yul\":1739:1740   */\n          dup4\n            /* \"#utility.yul\":1721:1741   */\n          tag_19\n          jump\t// in\n        tag_50:\n            /* \"#utility.yul\":1716:1741   */\n          swap3\n          pop\n            /* \"#utility.yul\":1760:1761   */\n          dup3\n            /* \"#utility.yul\":1750:1785   */\n          tag_51\n          jumpi\n            /* \"#utility.yul\":1765:1783   */\n          tag_52\n          tag_24\n          jump\t// in\n        tag_52:\n            /* \"#utility.yul\":1750:1785   */\n        tag_51:\n            /* \"#utility.yul\":1806:1807   */\n          dup3\n            /* \"#utility.yul\":1803:1804   */\n          dup3\n            /* \"#utility.yul\":1799:1808   */\n          mod\n            /* \"#utility.yul\":1794:1808   */\n          swap1\n          pop\n            /* \"#utility.yul\":1638:1814   */\n          swap3\n          swap2\n          pop\n          pop\n          jump\t// out\n            /* \"#utility.yul\":1820:1989   */\n        tag_25:\n            /* \"#utility.yul\":1904:1915   */\n          0x00\n            /* \"#utility.yul\":1938:1944   */\n          dup3\n            /* \"#utility.yul\":1933:1936   */\n          dup3\n            /* \"#utility.yul\":1926:1945   */\n          mstore\n            /* \"#utility.yul\":1978:1982   */\n          0x20\n            /* \"#utility.yul\":1973:1976   */\n          dup3\n            /* \"#utility.yul\":1969:1983   */\n          add\n            /* \"#utility.yul\":1954:1983   */\n          swap1\n          pop\n            /* \"#utility.yul\":1820:1989   */\n          swap3\n          swap2\n          pop\n          pop\n          jump\t// out\n            /* \"#utility.yul\":1995:2159   */\n        tag_26:\n            /* \"#utility.yul\":2135:2151   */\n          0x5570732120526576657274696e67000000000000000000000000000000000000\n            /* \"#utility.yul\":2131:2132   */\n          0x00\n            /* \"#utility.yul\":2123:2129   */\n          dup3\n            /* \"#utility.yul\":2119:2133   */\n          add\n            /* \"#utility.yul\":2112:2152   */\n          mstore\n            /* \"#utility.yul\":1995:2159   */\n          pop\n          jump\t// out\n            /* \"#utility.yul\":2165:2531   */\n        tag_27:\n            /* \"#utility.yul\":2307:2310   */\n          0x00\n            /* \"#utility.yul\":2328:2395   */\n          tag_56\n            /* \"#utility.yul\":2392:2394   */\n          0x0e\n            /* \"#utility.yul\":2387:2390   */\n          dup4\n            /* \"#utility.yul\":2328:2395   */\n          tag_25\n          jump\t// in\n        tag_56:\n            /* \"#utility.yul\":2321:2395   */\n          swap2\n          pop\n            /* \"#utility.yul\":2404:2497   */\n          tag_57\n            /* \"#utility.yul\":2493:2496   */\n          dup3\n            /* \"#utility.yul\":2404:2497   */\n          tag_26\n          jump\t// in\n        tag_57:\n            /* \"#utility.yul\":2522:2524   */\n          0x20\n            /* \"#utility.yul\":2517:2520   */\n          dup3\n            /* \"#utility.yul\":2513:2525   */\n          add\n            /* \"#utility.yul\":2506:2525   */\n          swap1\n          pop\n            /* \"#utility.yul\":2165:2531   */\n          swap2\n          swap1\n          pop\n          jump\t// out\n            /* \"#utility.yul\":2537:2956   */\n        tag_15:\n            /* \"#utility.yul\":2703:2707   */\n          0x00\n            /* \"#utility.yul\":2741:2743   */\n          0x20\n            /* \"#utility.yul\":2730:2739   */\n          dup3\n            /* \"#utility.yul\":2726:2744   */\n          add\n            /* \"#utility.yul\":2718:2744   */\n          swap1\n          pop\n            /* \"#utility.yul\":2790:2799   */\n          dup2\n            /* \"#utility.yul\":2784:2788   */\n          dup2\n            /* \"#utility.yul\":2780:2800   */\n          sub\n            /* \"#utility.yul\":2776:2777   */\n          0x00\n            /* \"#utility.yul\":2765:2774   */\n          dup4\n            /* \"#utility.yul\":2761:2778   */\n          add\n            /* \"#utility.yul\":2754:2801   */\n          mstore\n            /* \"#utility.yul\":2818:2949   */\n          tag_59\n            /* \"#utility.yul\":2944:2948   */\n          dup2\n            /* \"#utility.yul\":2818:2949   */\n          tag_27\n          jump\t// in\n        tag_59:\n            /* \"#utility.yul\":2810:2949   */\n          swap1\n          pop\n            /* \"#utility.yul\":2537:2956   */\n          swap2\n          swap1\n          pop\n          jump\t// out\n\n        auxdata: 0xa26469706673582212204bae4190ea0be7d12e70947a159e355b99ddcdb6ba22b487cae488b38a32276964736f6c634300081e0033\n    }\n}\n",
				"bytecode": {
					"linkReferences": {},
					"object": "608060405234801561000f575f5ffd5b50600260405161001e90610085565b61002891906100dd565b604051809103905ff080158015610041573d5f5f3e3d5ffd5b505f5f6101000a81548173ffffffffffffffffffffffffffffffffffffffff021916908373ffffffffffffffffffffffffffffffffffffffff1602179055506100f6565b6103f38061156f83390190565b5f819050919050565b5f819050919050565b5f819050919050565b5f6100c76100c26100bd84610092565b6100a4565b61009b565b9050919050565b6100d7816100ad565b82525050565b5f6020820190506100f05f8301846100ce565b92915050565b61146c806101035f395ff3fe608060405234801561000f575f5ffd5b5060043610610055575f3560e01c806360ebc17214610059578063617a691c146100895780637e3b0c57146100a7578063f873724f146100b1578063fe0d94c1146100cf575b5f5ffd5b610073600480360381019061006e91906108ba565b6100ff565b60405161008091906108ff565b60405180910390f35b610091610234565b60405161009e91906108ff565b60405180910390f35b6100af6103ed565b005b6100b9610569565b6040516100c691906108ff565b60405180910390f35b6100e960048036038101906100e491906108ba565b610722565b6040516100f691906108ff565b60405180910390f35b5f8160405161010d90610860565b6101179190610927565b604051809103905ff080156101295760015b6102015761013561094c565b806308c379a00361019157506101496109d9565b806101545750610193565b7fb761112ad379c509744de8d585702b0d2694d4ceaef85ad50d452ff06821a6a6816040516101839190610ac8565b60405180910390a1506101fc565b505b3d805f81146101bd576040519150601f19603f3d011682016040523d82523d5f602084013e6101c2565b606091505b507fb6f66868478aebcea8c7a15c8c7dd37a513a4127424642ee3573117b52fa3e39816040516101f29190610b3a565b60405180910390a1505b61022f565b7ffd76336752e93f2cc77cf13a41be8b6c156731030376354d634d28a9a87b916260405160405180910390a1505b919050565b5f5f60026040516102449061086d565b61024e9190610b9c565b604051809103905ff080158015610267573d5f5f3e3d5ffd5b5090505f600290508173ffffffffffffffffffffffffffffffffffffffff1663ce0b4213826040518263ffffffff1660e01b81526004016102a89190610927565b602060405180830381865afa9250505080156102e257506040513d601f19601f820116820180604052508101906102df9190610bdf565b60015b6103ba576102ee61094c565b806308c379a00361034a57506103026109d9565b8061030d575061034c565b7fb761112ad379c509744de8d585702b0d2694d4ceaef85ad50d452ff06821a6a68160405161033c9190610ac8565b60405180910390a1506103b5565b505b3d805f8114610376576040519150601f19603f3d011682016040523d82523d5f602084013e61037b565b606091505b507fb6f66868478aebcea8c7a15c8c7dd37a513a4127424642ee3573117b52fa3e39816040516103ab9190610b3a565b60405180910390a1505b6103e8565b7ffd76336752e93f2cc77cf13a41be8b6c156731030376354d634d28a9a87b916260405160405180910390a1505b505090565b5f73ffffffffffffffffffffffffffffffffffffffff1663ce0b421360016040518263ffffffff1660e01b81526004016104279190610c43565b602060405180830381865afa92505050801561046157506040513d601f19601f8201168201806040525081019061045e9190610bdf565b60015b6105395761046d61094c565b806308c379a0036104c957506104816109d9565b8061048c57506104cb565b7fb761112ad379c509744de8d585702b0d2694d4ceaef85ad50d452ff06821a6a6816040516104bb9190610ac8565b60405180910390a150610534565b505b3d805f81146104f5576040519150601f19603f3d011682016040523d82523d5f602084013e6104fa565b606091505b507fb6f66868478aebcea8c7a15c8c7dd37a513a4127424642ee3573117b52fa3e398160405161052a9190610b3a565b60405180910390a1505b610567565b507ffd76336752e93f2cc77cf13a41be8b6c156731030376354d634d28a9a87b916260405160405180910390a15b565b5f5f600260405161057990610860565b6105839190610b9c565b604051809103905ff08015801561059c573d5f5f3e3d5ffd5b5090505f600290508173ffffffffffffffffffffffffffffffffffffffff1663ce0b4213826040518263ffffffff1660e01b81526004016105dd9190610927565b602060405180830381865afa92505050801561061757506040513d601f19601f820116820180604052508101906106149190610bdf565b60015b6106ef5761062361094c565b806308c379a00361067f57506106376109d9565b806106425750610681565b7fb761112ad379c509744de8d585702b0d2694d4ceaef85ad50d452ff06821a6a6816040516106719190610ac8565b60405180910390a1506106ea565b505b3d805f81146106ab576040519150601f19603f3d011682016040523d82523d5f602084013e6106b0565b606091505b507fb6f66868478aebcea8c7a15c8c7dd37a513a4127424642ee3573117b52fa3e39816040516106e09190610b3a565b60405180910390a1505b61071d565b7ffd76336752e93f2cc77cf13a41be8b6c156731030376354d634d28a9a87b916260405160405180910390a1505b505090565b5f5f5f9054906101000a900473ffffffffffffffffffffffffffffffffffffffff1673ffffffffffffffffffffffffffffffffffffffff1663ce0b4213836040518263ffffffff1660e01b815260040161077c9190610927565b602060405180830381865afa9250505080156107b657506040513d601f19601f820116820180604052508101906107b39190610bdf565b60015b61082d576107c261094c565b806308c379a00361081e57506107d66109d9565b806107e15750610820565b7fb761112ad379c509744de8d585702b0d2694d4ceaef85ad50d452ff06821a6a6816040516108109190610ac8565b60405180910390a150610828565b505b3d5f5f3e3d5ffd5b61085b565b7ffd76336752e93f2cc77cf13a41be8b6c156731030376354d634d28a9a87b916260405160405180910390a1505b919050565b6103f380610c5d83390190565b6103e78061105083390190565b5f604051905090565b5f5ffd5b5f819050919050565b61089981610887565b81146108a3575f5ffd5b50565b5f813590506108b481610890565b92915050565b5f602082840312156108cf576108ce610883565b5b5f6108dc848285016108a6565b91505092915050565b5f8115159050919050565b6108f9816108e5565b82525050565b5f6020820190506109125f8301846108f0565b92915050565b61092181610887565b82525050565b5f60208201905061093a5f830184610918565b92915050565b5f8160e01c9050919050565b5f60033d11156109685760045f5f3e6109655f51610940565b90505b90565b5f601f19601f8301169050919050565b7f4e487b71000000000000000000000000000000000000000000000000000000005f52604160045260245ffd5b6109b18261096b565b810181811067ffffffffffffffff821117156109d0576109cf61097b565b5b80604052505050565b5f60443d10610a65576109ea61087a565b60043d036004823e80513d602482011167ffffffffffffffff82111715610a12575050610a65565b808201805167ffffffffffffffff811115610a305750505050610a65565b80602083010160043d038501811115610a4d575050505050610a65565b610a5c826020018501866109a8565b82955050505050505b90565b5f81519050919050565b5f82825260208201905092915050565b8281835e5f83830152505050565b5f610a9a82610a68565b610aa48185610a72565b9350610ab4818560208601610a82565b610abd8161096b565b840191505092915050565b5f6020820190508181035f830152610ae08184610a90565b905092915050565b5f81519050919050565b5f82825260208201905092915050565b5f610b0c82610ae8565b610b168185610af2565b9350610b26818560208601610a82565b610b2f8161096b565b840191505092915050565b5f6020820190508181035f830152610b528184610b02565b905092915050565b5f819050919050565b5f819050919050565b5f610b86610b81610b7c84610b5a565b610b63565b610887565b9050919050565b610b9681610b6c565b82525050565b5f602082019050610baf5f830184610b8d565b92915050565b610bbe816108e5565b8114610bc8575f5ffd5b50565b5f81519050610bd981610bb5565b92915050565b5f60208284031215610bf457610bf3610883565b5b5f610c0184828501610bcb565b91505092915050565b5f819050919050565b5f610c2d610c28610c2384610c0a565b610b63565b610887565b9050919050565b610c3d81610c13565b82525050565b5f602082019050610c565f830184610c34565b9291505056fe608060405234801561000f575f5ffd5b506040516103f33803806103f3833981810160405281019061003191906100c1565b5f8103610073576040517f08c379a000000000000000000000000000000000000000000000000000000000815260040161006a90610146565b60405180910390fd5b6001810361008457610083610164565b5b50610191565b5f5ffd5b5f819050919050565b6100a08161008e565b81146100aa575f5ffd5b50565b5f815190506100bb81610097565b92915050565b5f602082840312156100d6576100d561008a565b5b5f6100e3848285016100ad565b91505092915050565b5f82825260208201905092915050565b7f696e76616c6964206e756d6265722e2e2e0000000000000000000000000000005f82015250565b5f6101306011836100ec565b915061013b826100fc565b602082019050919050565b5f6020820190508181035f83015261015d81610124565b9050919050565b7f4e487b71000000000000000000000000000000000000000000000000000000005f52600160045260245ffd5b6102558061019e5f395ff3fe608060405234801561000f575f5ffd5b5060043610610029575f3560e01c8063ce0b42131461002d575b5f5ffd5b610047600480360381019061004291906100ec565b61005d565b6040516100549190610131565b60405180910390f35b5f5f60028361006c9190610177565b146100ac576040517f08c379a00000000000000000000000000000000000000000000000000000000081526004016100a390610201565b60405180910390fd5b60019050919050565b5f5ffd5b5f819050919050565b6100cb816100b9565b81146100d5575f5ffd5b50565b5f813590506100e6816100c2565b92915050565b5f60208284031215610101576101006100b5565b5b5f61010e848285016100d8565b91505092915050565b5f8115159050919050565b61012b81610117565b82525050565b5f6020820190506101445f830184610122565b92915050565b7f4e487b71000000000000000000000000000000000000000000000000000000005f52601260045260245ffd5b5f610181826100b9565b915061018c836100b9565b92508261019c5761019b61014a565b5b828206905092915050565b5f82825260208201905092915050565b7f5570732120526576657274696e670000000000000000000000000000000000005f82015250565b5f6101eb600e836101a7565b91506101f6826101b7565b602082019050919050565b5f6020820190508181035f830152610218816101df565b905091905056fea26469706673582212204bae4190ea0be7d12e70947a159e355b99ddcdb6ba22b487cae488b38a32276964736f6c634300081e0033608060405234801561000f575f5ffd5b506040516103e73803806103e7833981810160405281019061003191906100c1565b5f8103610073576040517f08c379a000000000000000000000000000000000000000000000000000000000815260040161006a90610146565b60405180910390fd5b6001810361008457610083610164565b5b50610191565b5f5ffd5b5f819050919050565b6100a08161008e565b81146100aa575f5ffd5b50565b5f815190506100bb81610097565b92915050565b5f602082840312156100d6576100d561008a565b5b5f6100e3848285016100ad565b91505092915050565b5f82825260208201905092915050565b7f696e76616c6964206e756d6265722e2e2e0000000000000000000000000000005f82015250565b5f6101306011836100ec565b915061013b826100fc565b602082019050919050565b5f6020820190508181035f83015261015d81610124565b9050919050565b7f4e487b71000000000000000000000000000000000000000000000000000000005f52600160045260245ffd5b6102498061019e5f395ff3fe608060405234801561000f575f5ffd5b5060043610610029575f3560e01c8063ce0b42131461002d575b5f5ffd5b610047600480360381019061004291906100eb565b61005d565b6040516100549190610125565b60405180910390f35b5f5f60028361006c919061016b565b146100ac576040517f08c379a00000000000000000000000000000000000000000000000000000000081526004016100a3906101f5565b60405180910390fd5b819050919050565b5f5ffd5b5f819050919050565b6100ca816100b8565b81146100d4575f5ffd5b50565b5f813590506100e5816100c1565b92915050565b5f60208284031215610100576100ff6100b4565b5b5f61010d848285016100d7565b91505092915050565b61011f816100b8565b82525050565b5f6020820190506101385f830184610116565b92915050565b7f4e487b71000000000000000000000000000000000000000000000000000000005f52601260045260245ffd5b5f610175826100b8565b9150610180836100b8565b9250826101905761018f61013e565b5b828206905092915050565b5f82825260208201905092915050565b7f5570732120526576657274696e670000000000000000000000000000000000005f82015250565b5f6101df600e8361019b565b91506101ea826101ab565b602082019050919050565b5f6020820190508181035f83015261020c816101d3565b905091905056fea264697066735822122092b108d582b5015f29cfbb3c3ec24858dc3582afdbd7f31d4cf78c3cd150ef3264736f6c634300081e0033a2646970667358221220205ba877eabb73722f9225eeeeb1f5bd51bfe529bd10229254fcc815f6ff4dce64736f6c634300081e0033608060405234801561000f575f5ffd5b506040516103f33803806103f3833981810160405281019061003191906100c1565b5f8103610073576040517f08c379a000000000000000000000000000000000000000000000000000000000815260040161006a90610146565b60405180910390fd5b6001810361008457610083610164565b5b50610191565b5f5ffd5b5f819050919050565b6100a08161008e565b81146100aa575f5ffd5b50565b5f815190506100bb81610097565b92915050565b5f602082840312156100d6576100d561008a565b5b5f6100e3848285016100ad565b91505092915050565b5f82825260208201905092915050565b7f696e76616c6964206e756d6265722e2e2e0000000000000000000000000000005f82015250565b5f6101306011836100ec565b915061013b826100fc565b602082019050919050565b5f6020820190508181035f83015261015d81610124565b9050919050565b7f4e487b71000000000000000000000000000000000000000000000000000000005f52600160045260245ffd5b6102558061019e5f395ff3fe608060405234801561000f575f5ffd5b5060043610610029575f3560e01c8063ce0b42131461002d575b5f5ffd5b610047600480360381019061004291906100ec565b61005d565b6040516100549190610131565b60405180910390f35b5f5f60028361006c9190610177565b146100ac576040517f08c379a00000000000000000000000000000000000000000000000000000000081526004016100a390610201565b60405180910390fd5b60019050919050565b5f5ffd5b5f819050919050565b6100cb816100b9565b81146100d5575f5ffd5b50565b5f813590506100e6816100c2565b92915050565b5f60208284031215610101576101006100b5565b5b5f61010e848285016100d8565b91505092915050565b5f8115159050919050565b61012b81610117565b82525050565b5f6020820190506101445f830184610122565b92915050565b7f4e487b71000000000000000000000000000000000000000000000000000000005f52601260045260245ffd5b5f610181826100b9565b915061018c836100b9565b92508261019c5761019b61014a565b5b828206905092915050565b5f82825260208201905092915050565b7f5570732120526576657274696e670000000000000000000000000000000000005f82015250565b5f6101eb600e836101a7565b91506101f6826101b7565b602082019050919050565b5f6020820190508181035f830152610218816101df565b905091905056fea26469706673582212204bae4190ea0be7d12e70947a159e355b99ddcdb6ba22b487cae488b38a32276964736f6c634300081e0033",
					"opcodes": "PUSH1 0x80 PUSH1 0x40 MSTORE CALLVALUE DUP1 ISZERO PUSH2 0xF JUMPI PUSH0 PUSH0 REVERT JUMPDEST POP PUSH1 0x2 PUSH1 0x40 MLOAD PUSH2 0x1E SWAP1 PUSH2 0x85 JUMP JUMPDEST PUSH2 0x28 SWAP2 SWAP1 PUSH2 0xDD JUMP JUMPDEST PUSH1 0x40 MLOAD DUP1 SWAP2 SUB SWAP1 PUSH0 CREATE DUP1 ISZERO DUP1 ISZERO PUSH2 0x41 JUMPI RETURNDATASIZE PUSH0 PUSH0 RETURNDATACOPY RETURNDATASIZE PUSH0 REVERT JUMPDEST POP PUSH0 PUSH0 PUSH2 0x100 EXP DUP2 SLOAD DUP2 PUSH20 0xFFFFFFFFFFFFFFFFFFFFFFFFFFFFFFFFFFFFFFFF MUL NOT AND SWAP1 DUP4 PUSH20 0xFFFFFFFFFFFFFFFFFFFFFFFFFFFFFFFFFFFFFFFF AND MUL OR SWAP1 SSTORE POP PUSH2 0xF6 JUMP JUMPDEST PUSH2 0x3F3 DUP1 PUSH2 0x156F DUP4 CODECOPY ADD SWAP1 JUMP JUMPDEST PUSH0 DUP2 SWAP1 POP SWAP2 SWAP1 POP JUMP JUMPDEST PUSH0 DUP2 SWAP1 POP SWAP2 SWAP1 POP JUMP JUMPDEST PUSH0 DUP2 SWAP1 POP SWAP2 SWAP1 POP JUMP JUMPDEST PUSH0 PUSH2 0xC7 PUSH2 0xC2 PUSH2 0xBD DUP5 PUSH2 0x92 JUMP JUMPDEST PUSH2 0xA4 JUMP JUMPDEST PUSH2 0x9B JUMP JUMPDEST SWAP1 POP SWAP2 SWAP1 POP JUMP JUMPDEST PUSH2 0xD7 DUP2 PUSH2 0xAD JUMP JUMPDEST DUP3 MSTORE POP POP JUMP JUMPDEST PUSH0 PUSH1 0x20 DUP3 ADD SWAP1 POP PUSH2 0xF0 PUSH0 DUP4 ADD DUP5 PUSH2 0xCE JUMP JUMPDEST SWAP3 SWAP2 POP POP JUMP JUMPDEST PUSH2 0x146C DUP1 PUSH2 0x103 PUSH0 CODECOPY PUSH0 RETURN INVALID PUSH1 0x80 PUSH1 0x40 MSTORE CALLVALUE DUP1 ISZERO PUSH2 0xF JUMPI PUSH0 PUSH0 REVERT JUMPDEST POP PUSH1 0x4 CALLDATASIZE LT PUSH2 0x55 JUMPI PUSH0 CALLDATALOAD PUSH1 0xE0 SHR DUP1 PUSH4 0x60EBC172 EQ PUSH2 0x59 JUMPI DUP1 PUSH4 0x617A691C EQ PUSH2 0x89 JUMPI DUP1 PUSH4 0x7E3B0C57 EQ PUSH2 0xA7 JUMPI DUP1 PUSH4 0xF873724F EQ PUSH2 0xB1 JUMPI DUP1 PUSH4 0xFE0D94C1 EQ PUSH2 0xCF JUMPI JUMPDEST PUSH0 PUSH0 REVERT JUMPDEST PUSH2 0x73 PUSH1 0x4 DUP1 CALLDATASIZE SUB DUP2 ADD SWAP1 PUSH2 0x6E SWAP2 SWAP1 PUSH2 0x8BA JUMP JUMPDEST PUSH2 0xFF JUMP JUMPDEST PUSH1 0x40 MLOAD PUSH2 0x80 SWAP2 SWAP1 PUSH2 0x8FF JUMP JUMPDEST PUSH1 0x40 MLOAD DUP1 SWAP2 SUB SWAP1 RETURN JUMPDEST PUSH2 0x91 PUSH2 0x234 JUMP JUMPDEST PUSH1 0x40 MLOAD PUSH2 0x9E SWAP2 SWAP1 PUSH2 0x8FF JUMP JUMPDEST PUSH1 0x40 MLOAD DUP1 SWAP2 SUB SWAP1 RETURN JUMPDEST PUSH2 0xAF PUSH2 0x3ED JUMP JUMPDEST STOP JUMPDEST PUSH2 0xB9 PUSH2 0x569 JUMP JUMPDEST PUSH1 0x40 MLOAD PUSH2 0xC6 SWAP2 SWAP1 PUSH2 0x8FF JUMP JUMPDEST PUSH1 0x40 MLOAD DUP1 SWAP2 SUB SWAP1 RETURN JUMPDEST PUSH2 0xE9 PUSH1 0x4 DUP1 CALLDATASIZE SUB DUP2 ADD SWAP1 PUSH2 0xE4 SWAP2 SWAP1 PUSH2 0x8BA JUMP JUMPDEST PUSH2 0x722 JUMP JUMPDEST PUSH1 0x40 MLOAD PUSH2 0xF6 SWAP2 SWAP1 PUSH2 0x8FF JUMP JUMPDEST PUSH1 0x40 MLOAD DUP1 SWAP2 SUB SWAP1 RETURN JUMPDEST PUSH0 DUP2 PUSH1 0x40 MLOAD PUSH2 0x10D SWAP1 PUSH2 0x860 JUMP JUMPDEST PUSH2 0x117 SWAP2 SWAP1 PUSH2 0x927 JUMP JUMPDEST PUSH1 0x40 MLOAD DUP1 SWAP2 SUB SWAP1 PUSH0 CREATE DUP1 ISZERO PUSH2 0x129 JUMPI PUSH1 0x1 JUMPDEST PUSH2 0x201 JUMPI PUSH2 0x135 PUSH2 0x94C JUMP JUMPDEST DUP1 PUSH4 0x8C379A0 SUB PUSH2 0x191 JUMPI POP PUSH2 0x149 PUSH2 0x9D9 JUMP JUMPDEST DUP1 PUSH2 0x154 JUMPI POP PUSH2 0x193 JUMP JUMPDEST PUSH32 0xB761112AD379C509744DE8D585702B0D2694D4CEAEF85AD50D452FF06821A6A6 DUP2 PUSH1 0x40 MLOAD PUSH2 0x183 SWAP2 SWAP1 PUSH2 0xAC8 JUMP JUMPDEST PUSH1 0x40 MLOAD DUP1 SWAP2 SUB SWAP1 LOG1 POP PUSH2 0x1FC JUMP JUMPDEST POP JUMPDEST RETURNDATASIZE DUP1 PUSH0 DUP2 EQ PUSH2 0x1BD JUMPI PUSH1 0x40 MLOAD SWAP2 POP PUSH1 0x1F NOT PUSH1 0x3F RETURNDATASIZE ADD AND DUP3 ADD PUSH1 0x40 MSTORE RETURNDATASIZE DUP3 MSTORE RETURNDATASIZE PUSH0 PUSH1 0x20 DUP5 ADD RETURNDATACOPY PUSH2 0x1C2 JUMP JUMPDEST PUSH1 0x60 SWAP2 POP JUMPDEST POP PUSH32 0xB6F66868478AEBCEA8C7A15C8C7DD37A513A4127424642EE3573117B52FA3E39 DUP2 PUSH1 0x40 MLOAD PUSH2 0x1F2 SWAP2 SWAP1 PUSH2 0xB3A JUMP JUMPDEST PUSH1 0x40 MLOAD DUP1 SWAP2 SUB SWAP1 LOG1 POP JUMPDEST PUSH2 0x22F JUMP JUMPDEST PUSH32 0xFD76336752E93F2CC77CF13A41BE8B6C156731030376354D634D28A9A87B9162 PUSH1 0x40 MLOAD PUSH1 0x40 MLOAD DUP1 SWAP2 SUB SWAP1 LOG1 POP JUMPDEST SWAP2 SWAP1 POP JUMP JUMPDEST PUSH0 PUSH0 PUSH1 0x2 PUSH1 0x40 MLOAD PUSH2 0x244 SWAP1 PUSH2 0x86D JUMP JUMPDEST PUSH2 0x24E SWAP2 SWAP1 PUSH2 0xB9C JUMP JUMPDEST PUSH1 0x40 MLOAD DUP1 SWAP2 SUB SWAP1 PUSH0 CREATE DUP1 ISZERO DUP1 ISZERO PUSH2 0x267 JUMPI RETURNDATASIZE PUSH0 PUSH0 RETURNDATACOPY RETURNDATASIZE PUSH0 REVERT JUMPDEST POP SWAP1 POP PUSH0 PUSH1 0x2 SWAP1 POP DUP2 PUSH20 0xFFFFFFFFFFFFFFFFFFFFFFFFFFFFFFFFFFFFFFFF AND PUSH4 0xCE0B4213 DUP3 PUSH1 0x40 MLOAD DUP3 PUSH4 0xFFFFFFFF AND PUSH1 0xE0 SHL DUP2 MSTORE PUSH1 0x4 ADD PUSH2 0x2A8 SWAP2 SWAP1 PUSH2 0x927 JUMP JUMPDEST PUSH1 0x20 PUSH1 0x40 MLOAD DUP1 DUP4 SUB DUP2 DUP7 GAS STATICCALL SWAP3 POP POP POP DUP1 ISZERO PUSH2 0x2E2 JUMPI POP PUSH1 0x40 MLOAD RETURNDATASIZE PUSH1 0x1F NOT PUSH1 0x1F DUP3 ADD AND DUP3 ADD DUP1 PUSH1 0x40 MSTORE POP DUP2 ADD SWAP1 PUSH2 0x2DF SWAP2 SWAP1 PUSH2 0xBDF JUMP JUMPDEST PUSH1 0x1 JUMPDEST PUSH2 0x3BA JUMPI PUSH2 0x2EE PUSH2 0x94C JUMP JUMPDEST DUP1 PUSH4 0x8C379A0 SUB PUSH2 0x34A JUMPI POP PUSH2 0x302 PUSH2 0x9D9 JUMP JUMPDEST DUP1 PUSH2 0x30D JUMPI POP PUSH2 0x34C JUMP JUMPDEST PUSH32 0xB761112AD379C509744DE8D585702B0D2694D4CEAEF85AD50D452FF06821A6A6 DUP2 PUSH1 0x40 MLOAD PUSH2 0x33C SWAP2 SWAP1 PUSH2 0xAC8 JUMP JUMPDEST PUSH1 0x40 MLOAD DUP1 SWAP2 SUB SWAP1 LOG1 POP PUSH2 0x3B5 JUMP JUMPDEST POP JUMPDEST RETURNDATASIZE DUP1 PUSH0 DUP2 EQ PUSH2 0x376 JUMPI PUSH1 0x40 MLOAD SWAP2 POP PUSH1 0x1F NOT PUSH1 0x3F RETURNDATASIZE ADD AND DUP3 ADD PUSH1 0x40 MSTORE RETURNDATASIZE DUP3 MSTORE RETURNDATASIZE PUSH0 PUSH1 0x20 DUP5 ADD RETURNDATACOPY PUSH2 0x37B JUMP JUMPDEST PUSH1 0x60 SWAP2 POP JUMPDEST POP PUSH32 0xB6F66868478AEBCEA8C7A15C8C7DD37A513A4127424642EE3573117B52FA3E39 DUP2 PUSH1 0x40 MLOAD PUSH2 0x3AB SWAP2 SWAP1 PUSH2 0xB3A JUMP JUMPDEST PUSH1 0x40 MLOAD DUP1 SWAP2 SUB SWAP1 LOG1 POP JUMPDEST PUSH2 0x3E8 JUMP JUMPDEST PUSH32 0xFD76336752E93F2CC77CF13A41BE8B6C156731030376354D634D28A9A87B9162 PUSH1 0x40 MLOAD PUSH1 0x40 MLOAD DUP1 SWAP2 SUB SWAP1 LOG1 POP JUMPDEST POP POP SWAP1 JUMP JUMPDEST PUSH0 PUSH20 0xFFFFFFFFFFFFFFFFFFFFFFFFFFFFFFFFFFFFFFFF AND PUSH4 0xCE0B4213 PUSH1 0x1 PUSH1 0x40 MLOAD DUP3 PUSH4 0xFFFFFFFF AND PUSH1 0xE0 SHL DUP2 MSTORE PUSH1 0x4 ADD PUSH2 0x427 SWAP2 SWAP1 PUSH2 0xC43 JUMP JUMPDEST PUSH1 0x20 PUSH1 0x40 MLOAD DUP1 DUP4 SUB DUP2 DUP7 GAS STATICCALL SWAP3 POP POP POP DUP1 ISZERO PUSH2 0x461 JUMPI POP PUSH1 0x40 MLOAD RETURNDATASIZE PUSH1 0x1F NOT PUSH1 0x1F DUP3 ADD AND DUP3 ADD DUP1 PUSH1 0x40 MSTORE POP DUP2 ADD SWAP1 PUSH2 0x45E SWAP2 SWAP1 PUSH2 0xBDF JUMP JUMPDEST PUSH1 0x1 JUMPDEST PUSH2 0x539 JUMPI PUSH2 0x46D PUSH2 0x94C JUMP JUMPDEST DUP1 PUSH4 0x8C379A0 SUB PUSH2 0x4C9 JUMPI POP PUSH2 0x481 PUSH2 0x9D9 JUMP JUMPDEST DUP1 PUSH2 0x48C JUMPI POP PUSH2 0x4CB JUMP JUMPDEST PUSH32 0xB761112AD379C509744DE8D585702B0D2694D4CEAEF85AD50D452FF06821A6A6 DUP2 PUSH1 0x40 MLOAD PUSH2 0x4BB SWAP2 SWAP1 PUSH2 0xAC8 JUMP JUMPDEST PUSH1 0x40 MLOAD DUP1 SWAP2 SUB SWAP1 LOG1 POP PUSH2 0x534 JUMP JUMPDEST POP JUMPDEST RETURNDATASIZE DUP1 PUSH0 DUP2 EQ PUSH2 0x4F5 JUMPI PUSH1 0x40 MLOAD SWAP2 POP PUSH1 0x1F NOT PUSH1 0x3F RETURNDATASIZE ADD AND DUP3 ADD PUSH1 0x40 MSTORE RETURNDATASIZE DUP3 MSTORE RETURNDATASIZE PUSH0 PUSH1 0x20 DUP5 ADD RETURNDATACOPY PUSH2 0x4FA JUMP JUMPDEST PUSH1 0x60 SWAP2 POP JUMPDEST POP PUSH32 0xB6F66868478AEBCEA8C7A15C8C7DD37A513A4127424642EE3573117B52FA3E39 DUP2 PUSH1 0x40 MLOAD PUSH2 0x52A SWAP2 SWAP1 PUSH2 0xB3A JUMP JUMPDEST PUSH1 0x40 MLOAD DUP1 SWAP2 SUB SWAP1 LOG1 POP JUMPDEST PUSH2 0x567 JUMP JUMPDEST POP PUSH32 0xFD76336752E93F2CC77CF13A41BE8B6C156731030376354D634D28A9A87B9162 PUSH1 0x40 MLOAD PUSH1 0x40 MLOAD DUP1 SWAP2 SUB SWAP1 LOG1 JUMPDEST JUMP JUMPDEST PUSH0 PUSH0 PUSH1 0x2 PUSH1 0x40 MLOAD PUSH2 0x579 SWAP1 PUSH2 0x860 JUMP JUMPDEST PUSH2 0x583 SWAP2 SWAP1 PUSH2 0xB9C JUMP JUMPDEST PUSH1 0x40 MLOAD DUP1 SWAP2 SUB SWAP1 PUSH0 CREATE DUP1 ISZERO DUP1 ISZERO PUSH2 0x59C JUMPI RETURNDATASIZE PUSH0 PUSH0 RETURNDATACOPY RETURNDATASIZE PUSH0 REVERT JUMPDEST POP SWAP1 POP PUSH0 PUSH1 0x2 SWAP1 POP DUP2 PUSH20 0xFFFFFFFFFFFFFFFFFFFFFFFFFFFFFFFFFFFFFFFF AND PUSH4 0xCE0B4213 DUP3 PUSH1 0x40 MLOAD DUP3 PUSH4 0xFFFFFFFF AND PUSH1 0xE0 SHL DUP2 MSTORE PUSH1 0x4 ADD PUSH2 0x5DD SWAP2 SWAP1 PUSH2 0x927 JUMP JUMPDEST PUSH1 0x20 PUSH1 0x40 MLOAD DUP1 DUP4 SUB DUP2 DUP7 GAS STATICCALL SWAP3 POP POP POP DUP1 ISZERO PUSH2 0x617 JUMPI POP PUSH1 0x40 MLOAD RETURNDATASIZE PUSH1 0x1F NOT PUSH1 0x1F DUP3 ADD AND DUP3 ADD DUP1 PUSH1 0x40 MSTORE POP DUP2 ADD SWAP1 PUSH2 0x614 SWAP2 SWAP1 PUSH2 0xBDF JUMP JUMPDEST PUSH1 0x1 JUMPDEST PUSH2 0x6EF JUMPI PUSH2 0x623 PUSH2 0x94C JUMP JUMPDEST DUP1 PUSH4 0x8C379A0 SUB PUSH2 0x67F JUMPI POP PUSH2 0x637 PUSH2 0x9D9 JUMP JUMPDEST DUP1 PUSH2 0x642 JUMPI POP PUSH2 0x681 JUMP JUMPDEST PUSH32 0xB761112AD379C509744DE8D585702B0D2694D4CEAEF85AD50D452FF06821A6A6 DUP2 PUSH1 0x40 MLOAD PUSH2 0x671 SWAP2 SWAP1 PUSH2 0xAC8 JUMP JUMPDEST PUSH1 0x40 MLOAD DUP1 SWAP2 SUB SWAP1 LOG1 POP PUSH2 0x6EA JUMP JUMPDEST POP JUMPDEST RETURNDATASIZE DUP1 PUSH0 DUP2 EQ PUSH2 0x6AB JUMPI PUSH1 0x40 MLOAD SWAP2 POP PUSH1 0x1F NOT PUSH1 0x3F RETURNDATASIZE ADD AND DUP3 ADD PUSH1 0x40 MSTORE RETURNDATASIZE DUP3 MSTORE RETURNDATASIZE PUSH0 PUSH1 0x20 DUP5 ADD RETURNDATACOPY PUSH2 0x6B0 JUMP JUMPDEST PUSH1 0x60 SWAP2 POP JUMPDEST POP PUSH32 0xB6F66868478AEBCEA8C7A15C8C7DD37A513A4127424642EE3573117B52FA3E39 DUP2 PUSH1 0x40 MLOAD PUSH2 0x6E0 SWAP2 SWAP1 PUSH2 0xB3A JUMP JUMPDEST PUSH1 0x40 MLOAD DUP1 SWAP2 SUB SWAP1 LOG1 POP JUMPDEST PUSH2 0x71D JUMP JUMPDEST PUSH32 0xFD76336752E93F2CC77CF13A41BE8B6C156731030376354D634D28A9A87B9162 PUSH1 0x40 MLOAD PUSH1 0x40 MLOAD DUP1 SWAP2 SUB SWAP1 LOG1 POP JUMPDEST POP POP SWAP1 JUMP JUMPDEST PUSH0 PUSH0 PUSH0 SWAP1 SLOAD SWAP1 PUSH2 0x100 EXP SWAP1 DIV PUSH20 0xFFFFFFFFFFFFFFFFFFFFFFFFFFFFFFFFFFFFFFFF AND PUSH20 0xFFFFFFFFFFFFFFFFFFFFFFFFFFFFFFFFFFFFFFFF AND PUSH4 0xCE0B4213 DUP4 PUSH1 0x40 MLOAD DUP3 PUSH4 0xFFFFFFFF AND PUSH1 0xE0 SHL DUP2 MSTORE PUSH1 0x4 ADD PUSH2 0x77C SWAP2 SWAP1 PUSH2 0x927 JUMP JUMPDEST PUSH1 0x20 PUSH1 0x40 MLOAD DUP1 DUP4 SUB DUP2 DUP7 GAS STATICCALL SWAP3 POP POP POP DUP1 ISZERO PUSH2 0x7B6 JUMPI POP PUSH1 0x40 MLOAD RETURNDATASIZE PUSH1 0x1F NOT PUSH1 0x1F DUP3 ADD AND DUP3 ADD DUP1 PUSH1 0x40 MSTORE POP DUP2 ADD SWAP1 PUSH2 0x7B3 SWAP2 SWAP1 PUSH2 0xBDF JUMP JUMPDEST PUSH1 0x1 JUMPDEST PUSH2 0x82D JUMPI PUSH2 0x7C2 PUSH2 0x94C JUMP JUMPDEST DUP1 PUSH4 0x8C379A0 SUB PUSH2 0x81E JUMPI POP PUSH2 0x7D6 PUSH2 0x9D9 JUMP JUMPDEST DUP1 PUSH2 0x7E1 JUMPI POP PUSH2 0x820 JUMP JUMPDEST PUSH32 0xB761112AD379C509744DE8D585702B0D2694D4CEAEF85AD50D452FF06821A6A6 DUP2 PUSH1 0x40 MLOAD PUSH2 0x810 SWAP2 SWAP1 PUSH2 0xAC8 JUMP JUMPDEST PUSH1 0x40 MLOAD DUP1 SWAP2 SUB SWAP1 LOG1 POP PUSH2 0x828 JUMP JUMPDEST POP JUMPDEST RETURNDATASIZE PUSH0 PUSH0 RETURNDATACOPY RETURNDATASIZE PUSH0 REVERT JUMPDEST PUSH2 0x85B JUMP JUMPDEST PUSH32 0xFD76336752E93F2CC77CF13A41BE8B6C156731030376354D634D28A9A87B9162 PUSH1 0x40 MLOAD PUSH1 0x40 MLOAD DUP1 SWAP2 SUB SWAP1 LOG1 POP JUMPDEST SWAP2 SWAP1 POP JUMP JUMPDEST PUSH2 0x3F3 DUP1 PUSH2 0xC5D DUP4 CODECOPY ADD SWAP1 JUMP JUMPDEST PUSH2 0x3E7 DUP1 PUSH2 0x1050 DUP4 CODECOPY ADD SWAP1 JUMP JUMPDEST PUSH0 PUSH1 0x40 MLOAD SWAP1 POP SWAP1 JUMP JUMPDEST PUSH0 PUSH0 REVERT JUMPDEST PUSH0 DUP2 SWAP1 POP SWAP2 SWAP1 POP JUMP JUMPDEST PUSH2 0x899 DUP2 PUSH2 0x887 JUMP JUMPDEST DUP2 EQ PUSH2 0x8A3 JUMPI PUSH0 PUSH0 REVERT JUMPDEST POP JUMP JUMPDEST PUSH0 DUP2 CALLDATALOAD SWAP1 POP PUSH2 0x8B4 DUP2 PUSH2 0x890 JUMP JUMPDEST SWAP3 SWAP2 POP POP JUMP JUMPDEST PUSH0 PUSH1 0x20 DUP3 DUP5 SUB SLT ISZERO PUSH2 0x8CF JUMPI PUSH2 0x8CE PUSH2 0x883 JUMP JUMPDEST JUMPDEST PUSH0 PUSH2 0x8DC DUP5 DUP3 DUP6 ADD PUSH2 0x8A6 JUMP JUMPDEST SWAP2 POP POP SWAP3 SWAP2 POP POP JUMP JUMPDEST PUSH0 DUP2 ISZERO ISZERO SWAP1 POP SWAP2 SWAP1 POP JUMP JUMPDEST PUSH2 0x8F9 DUP2 PUSH2 0x8E5 JUMP JUMPDEST DUP3 MSTORE POP POP JUMP JUMPDEST PUSH0 PUSH1 0x20 DUP3 ADD SWAP1 POP PUSH2 0x912 PUSH0 DUP4 ADD DUP5 PUSH2 0x8F0 JUMP JUMPDEST SWAP3 SWAP2 POP POP JUMP JUMPDEST PUSH2 0x921 DUP2 PUSH2 0x887 JUMP JUMPDEST DUP3 MSTORE POP POP JUMP JUMPDEST PUSH0 PUSH1 0x20 DUP3 ADD SWAP1 POP PUSH2 0x93A PUSH0 DUP4 ADD DUP5 PUSH2 0x918 JUMP JUMPDEST SWAP3 SWAP2 POP POP JUMP JUMPDEST PUSH0 DUP2 PUSH1 0xE0 SHR SWAP1 POP SWAP2 SWAP1 POP JUMP JUMPDEST PUSH0 PUSH1 0x3 RETURNDATASIZE GT ISZERO PUSH2 0x968 JUMPI PUSH1 0x4 PUSH0 PUSH0 RETURNDATACOPY PUSH2 0x965 PUSH0 MLOAD PUSH2 0x940 JUMP JUMPDEST SWAP1 POP JUMPDEST SWAP1 JUMP JUMPDEST PUSH0 PUSH1 0x1F NOT PUSH1 0x1F DUP4 ADD AND SWAP1 POP SWAP2 SWAP1 POP JUMP JUMPDEST PUSH32 0x4E487B7100000000000000000000000000000000000000000000000000000000 PUSH0 MSTORE PUSH1 0x41 PUSH1 0x4 MSTORE PUSH1 0x24 PUSH0 REVERT JUMPDEST PUSH2 0x9B1 DUP3 PUSH2 0x96B JUMP JUMPDEST DUP2 ADD DUP2 DUP2 LT PUSH8 0xFFFFFFFFFFFFFFFF DUP3 GT OR ISZERO PUSH2 0x9D0 JUMPI PUSH2 0x9CF PUSH2 0x97B JUMP JUMPDEST JUMPDEST DUP1 PUSH1 0x40 MSTORE POP POP POP JUMP JUMPDEST PUSH0 PUSH1 0x44 RETURNDATASIZE LT PUSH2 0xA65 JUMPI PUSH2 0x9EA PUSH2 0x87A JUMP JUMPDEST PUSH1 0x4 RETURNDATASIZE SUB PUSH1 0x4 DUP3 RETURNDATACOPY DUP1 MLOAD RETURNDATASIZE PUSH1 0x24 DUP3 ADD GT PUSH8 0xFFFFFFFFFFFFFFFF DUP3 GT OR ISZERO PUSH2 0xA12 JUMPI POP POP PUSH2 0xA65 JUMP JUMPDEST DUP1 DUP3 ADD DUP1 MLOAD PUSH8 0xFFFFFFFFFFFFFFFF DUP2 GT ISZERO PUSH2 0xA30 JUMPI POP POP POP POP PUSH2 0xA65 JUMP JUMPDEST DUP1 PUSH1 0x20 DUP4 ADD ADD PUSH1 0x4 RETURNDATASIZE SUB DUP6 ADD DUP2 GT ISZERO PUSH2 0xA4D JUMPI POP POP POP POP POP PUSH2 0xA65 JUMP JUMPDEST PUSH2 0xA5C DUP3 PUSH1 0x20 ADD DUP6 ADD DUP7 PUSH2 0x9A8 JUMP JUMPDEST DUP3 SWAP6 POP POP POP POP POP POP JUMPDEST SWAP1 JUMP JUMPDEST PUSH0 DUP2 MLOAD SWAP1 POP SWAP2 SWAP1 POP JUMP JUMPDEST PUSH0 DUP3 DUP3 MSTORE PUSH1 0x20 DUP3 ADD SWAP1 POP SWAP3 SWAP2 POP POP JUMP JUMPDEST DUP3 DUP2 DUP4 MCOPY PUSH0 DUP4 DUP4 ADD MSTORE POP POP POP JUMP JUMPDEST PUSH0 PUSH2 0xA9A DUP3 PUSH2 0xA68 JUMP JUMPDEST PUSH2 0xAA4 DUP2 DUP6 PUSH2 0xA72 JUMP JUMPDEST SWAP4 POP PUSH2 0xAB4 DUP2 DUP6 PUSH1 0x20 DUP7 ADD PUSH2 0xA82 JUMP JUMPDEST PUSH2 0xABD DUP2 PUSH2 0x96B JUMP JUMPDEST DUP5 ADD SWAP2 POP POP SWAP3 SWAP2 POP POP JUMP JUMPDEST PUSH0 PUSH1 0x20 DUP3 ADD SWAP1 POP DUP2 DUP2 SUB PUSH0 DUP4 ADD MSTORE PUSH2 0xAE0 DUP2 DUP5 PUSH2 0xA90 JUMP JUMPDEST SWAP1 POP SWAP3 SWAP2 POP POP JUMP JUMPDEST PUSH0 DUP2 MLOAD SWAP1 POP SWAP2 SWAP1 POP JUMP JUMPDEST PUSH0 DUP3 DUP3 MSTORE PUSH1 0x20 DUP3 ADD SWAP1 POP SWAP3 SWAP2 POP POP JUMP JUMPDEST PUSH0 PUSH2 0xB0C DUP3 PUSH2 0xAE8 JUMP JUMPDEST PUSH2 0xB16 DUP2 DUP6 PUSH2 0xAF2 JUMP JUMPDEST SWAP4 POP PUSH2 0xB26 DUP2 DUP6 PUSH1 0x20 DUP7 ADD PUSH2 0xA82 JUMP JUMPDEST PUSH2 0xB2F DUP2 PUSH2 0x96B JUMP JUMPDEST DUP5 ADD SWAP2 POP POP SWAP3 SWAP2 POP POP JUMP JUMPDEST PUSH0 PUSH1 0x20 DUP3 ADD SWAP1 POP DUP2 DUP2 SUB PUSH0 DUP4 ADD MSTORE PUSH2 0xB52 DUP2 DUP5 PUSH2 0xB02 JUMP JUMPDEST SWAP1 POP SWAP3 SWAP2 POP POP JUMP JUMPDEST PUSH0 DUP2 SWAP1 POP SWAP2 SWAP1 POP JUMP JUMPDEST PUSH0 DUP2 SWAP1 POP SWAP2 SWAP1 POP JUMP JUMPDEST PUSH0 PUSH2 0xB86 PUSH2 0xB81 PUSH2 0xB7C DUP5 PUSH2 0xB5A JUMP JUMPDEST PUSH2 0xB63 JUMP JUMPDEST PUSH2 0x887 JUMP JUMPDEST SWAP1 POP SWAP2 SWAP1 POP JUMP JUMPDEST PUSH2 0xB96 DUP2 PUSH2 0xB6C JUMP JUMPDEST DUP3 MSTORE POP POP JUMP JUMPDEST PUSH0 PUSH1 0x20 DUP3 ADD SWAP1 POP PUSH2 0xBAF PUSH0 DUP4 ADD DUP5 PUSH2 0xB8D JUMP JUMPDEST SWAP3 SWAP2 POP POP JUMP JUMPDEST PUSH2 0xBBE DUP2 PUSH2 0x8E5 JUMP JUMPDEST DUP2 EQ PUSH2 0xBC8 JUMPI PUSH0 PUSH0 REVERT JUMPDEST POP JUMP JUMPDEST PUSH0 DUP2 MLOAD SWAP1 POP PUSH2 0xBD9 DUP2 PUSH2 0xBB5 JUMP JUMPDEST SWAP3 SWAP2 POP POP JUMP JUMPDEST PUSH0 PUSH1 0x20 DUP3 DUP5 SUB SLT ISZERO PUSH2 0xBF4 JUMPI PUSH2 0xBF3 PUSH2 0x883 JUMP JUMPDEST JUMPDEST PUSH0 PUSH2 0xC01 DUP5 DUP3 DUP6 ADD PUSH2 0xBCB JUMP JUMPDEST SWAP2 POP POP SWAP3 SWAP2 POP POP JUMP JUMPDEST PUSH0 DUP2 SWAP1 POP SWAP2 SWAP1 POP JUMP JUMPDEST PUSH0 PUSH2 0xC2D PUSH2 0xC28 PUSH2 0xC23 DUP5 PUSH2 0xC0A JUMP JUMPDEST PUSH2 0xB63 JUMP JUMPDEST PUSH2 0x887 JUMP JUMPDEST SWAP1 POP SWAP2 SWAP1 POP JUMP JUMPDEST PUSH2 0xC3D DUP2 PUSH2 0xC13 JUMP JUMPDEST DUP3 MSTORE POP POP JUMP JUMPDEST PUSH0 PUSH1 0x20 DUP3 ADD SWAP1 POP PUSH2 0xC56 PUSH0 DUP4 ADD DUP5 PUSH2 0xC34 JUMP JUMPDEST SWAP3 SWAP2 POP POP JUMP INVALID PUSH1 0x80 PUSH1 0x40 MSTORE CALLVALUE DUP1 ISZERO PUSH2 0xF JUMPI PUSH0 PUSH0 REVERT JUMPDEST POP PUSH1 0x40 MLOAD PUSH2 0x3F3 CODESIZE SUB DUP1 PUSH2 0x3F3 DUP4 CODECOPY DUP2 DUP2 ADD PUSH1 0x40 MSTORE DUP2 ADD SWAP1 PUSH2 0x31 SWAP2 SWAP1 PUSH2 0xC1 JUMP JUMPDEST PUSH0 DUP2 SUB PUSH2 0x73 JUMPI PUSH1 0x40 MLOAD PUSH32 0x8C379A000000000000000000000000000000000000000000000000000000000 DUP2 MSTORE PUSH1 0x4 ADD PUSH2 0x6A SWAP1 PUSH2 0x146 JUMP JUMPDEST PUSH1 0x40 MLOAD DUP1 SWAP2 SUB SWAP1 REVERT JUMPDEST PUSH1 0x1 DUP2 SUB PUSH2 0x84 JUMPI PUSH2 0x83 PUSH2 0x164 JUMP JUMPDEST JUMPDEST POP PUSH2 0x191 JUMP JUMPDEST PUSH0 PUSH0 REVERT JUMPDEST PUSH0 DUP2 SWAP1 POP SWAP2 SWAP1 POP JUMP JUMPDEST PUSH2 0xA0 DUP2 PUSH2 0x8E JUMP JUMPDEST DUP2 EQ PUSH2 0xAA JUMPI PUSH0 PUSH0 REVERT JUMPDEST POP JUMP JUMPDEST PUSH0 DUP2 MLOAD SWAP1 POP PUSH2 0xBB DUP2 PUSH2 0x97 JUMP JUMPDEST SWAP3 SWAP2 POP POP JUMP JUMPDEST PUSH0 PUSH1 0x20 DUP3 DUP5 SUB SLT ISZERO PUSH2 0xD6 JUMPI PUSH2 0xD5 PUSH2 0x8A JUMP JUMPDEST JUMPDEST PUSH0 PUSH2 0xE3 DUP5 DUP3 DUP6 ADD PUSH2 0xAD JUMP JUMPDEST SWAP2 POP POP SWAP3 SWAP2 POP POP JUMP JUMPDEST PUSH0 DUP3 DUP3 MSTORE PUSH1 0x20 DUP3 ADD SWAP1 POP SWAP3 SWAP2 POP POP JUMP JUMPDEST PUSH32 0x696E76616C6964206E756D6265722E2E2E000000000000000000000000000000 PUSH0 DUP3 ADD MSTORE POP JUMP JUMPDEST PUSH0 PUSH2 0x130 PUSH1 0x11 DUP4 PUSH2 0xEC JUMP JUMPDEST SWAP2 POP PUSH2 0x13B DUP3 PUSH2 0xFC JUMP JUMPDEST PUSH1 0x20 DUP3 ADD SWAP1 POP SWAP2 SWAP1 POP JUMP JUMPDEST PUSH0 PUSH1 0x20 DUP3 ADD SWAP1 POP DUP2 DUP2 SUB PUSH0 DUP4 ADD MSTORE PUSH2 0x15D DUP2 PUSH2 0x124 JUMP JUMPDEST SWAP1 POP SWAP2 SWAP1 POP JUMP JUMPDEST PUSH32 0x4E487B7100000000000000000000000000000000000000000000000000000000 PUSH0 MSTORE PUSH1 0x1 PUSH1 0x4 MSTORE PUSH1 0x24 PUSH0 REVERT JUMPDEST PUSH2 0x255 DUP1 PUSH2 0x19E PUSH0 CODECOPY PUSH0 RETURN INVALID PUSH1 0x80 PUSH1 0x40 MSTORE CALLVALUE DUP1 ISZERO PUSH2 0xF JUMPI PUSH0 PUSH0 REVERT JUMPDEST POP PUSH1 0x4 CALLDATASIZE LT PUSH2 0x29 JUMPI PUSH0 CALLDATALOAD PUSH1 0xE0 SHR DUP1 PUSH4 0xCE0B4213 EQ PUSH2 0x2D JUMPI JUMPDEST PUSH0 PUSH0 REVERT JUMPDEST PUSH2 0x47 PUSH1 0x4 DUP1 CALLDATASIZE SUB DUP2 ADD SWAP1 PUSH2 0x42 SWAP2 SWAP1 PUSH2 0xEC JUMP JUMPDEST PUSH2 0x5D JUMP JUMPDEST PUSH1 0x40 MLOAD PUSH2 0x54 SWAP2 SWAP1 PUSH2 0x131 JUMP JUMPDEST PUSH1 0x40 MLOAD DUP1 SWAP2 SUB SWAP1 RETURN JUMPDEST PUSH0 PUSH0 PUSH1 0x2 DUP4 PUSH2 0x6C SWAP2 SWAP1 PUSH2 0x177 JUMP JUMPDEST EQ PUSH2 0xAC JUMPI PUSH1 0x40 MLOAD PUSH32 0x8C379A000000000000000000000000000000000000000000000000000000000 DUP2 MSTORE PUSH1 0x4 ADD PUSH2 0xA3 SWAP1 PUSH2 0x201 JUMP JUMPDEST PUSH1 0x40 MLOAD DUP1 SWAP2 SUB SWAP1 REVERT JUMPDEST PUSH1 0x1 SWAP1 POP SWAP2 SWAP1 POP JUMP JUMPDEST PUSH0 PUSH0 REVERT JUMPDEST PUSH0 DUP2 SWAP1 POP SWAP2 SWAP1 POP JUMP JUMPDEST PUSH2 0xCB DUP2 PUSH2 0xB9 JUMP JUMPDEST DUP2 EQ PUSH2 0xD5 JUMPI PUSH0 PUSH0 REVERT JUMPDEST POP JUMP JUMPDEST PUSH0 DUP2 CALLDATALOAD SWAP1 POP PUSH2 0xE6 DUP2 PUSH2 0xC2 JUMP JUMPDEST SWAP3 SWAP2 POP POP JUMP JUMPDEST PUSH0 PUSH1 0x20 DUP3 DUP5 SUB SLT ISZERO PUSH2 0x101 JUMPI PUSH2 0x100 PUSH2 0xB5 JUMP JUMPDEST JUMPDEST PUSH0 PUSH2 0x10E DUP5 DUP3 DUP6 ADD PUSH2 0xD8 JUMP JUMPDEST SWAP2 POP POP SWAP3 SWAP2 POP POP JUMP JUMPDEST PUSH0 DUP2 ISZERO ISZERO SWAP1 POP SWAP2 SWAP1 POP JUMP JUMPDEST PUSH2 0x12B DUP2 PUSH2 0x117 JUMP JUMPDEST DUP3 MSTORE POP POP JUMP JUMPDEST PUSH0 PUSH1 0x20 DUP3 ADD SWAP1 POP PUSH2 0x144 PUSH0 DUP4 ADD DUP5 PUSH2 0x122 JUMP JUMPDEST SWAP3 SWAP2 POP POP JUMP JUMPDEST PUSH32 0x4E487B7100000000000000000000000000000000000000000000000000000000 PUSH0 MSTORE PUSH1 0x12 PUSH1 0x4 MSTORE PUSH1 0x24 PUSH0 REVERT JUMPDEST PUSH0 PUSH2 0x181 DUP3 PUSH2 0xB9 JUMP JUMPDEST SWAP2 POP PUSH2 0x18C DUP4 PUSH2 0xB9 JUMP JUMPDEST SWAP3 POP DUP3 PUSH2 0x19C JUMPI PUSH2 0x19B PUSH2 0x14A JUMP JUMPDEST JUMPDEST DUP3 DUP3 MOD SWAP1 POP SWAP3 SWAP2 POP POP JUMP JUMPDEST PUSH0 DUP3 DUP3 MSTORE PUSH1 0x20 DUP3 ADD SWAP1 POP SWAP3 SWAP2 POP POP JUMP JUMPDEST PUSH32 0x5570732120526576657274696E67000000000000000000000000000000000000 PUSH0 DUP3 ADD MSTORE POP JUMP JUMPDEST PUSH0 PUSH2 0x1EB PUSH1 0xE DUP4 PUSH2 0x1A7 JUMP JUMPDEST SWAP2 POP PUSH2 0x1F6 DUP3 PUSH2 0x1B7 JUMP JUMPDEST PUSH1 0x20 DUP3 ADD SWAP1 POP SWAP2 SWAP1 POP JUMP JUMPDEST PUSH0 PUSH1 0x20 DUP3 ADD SWAP1 POP DUP2 DUP2 SUB PUSH0 DUP4 ADD MSTORE PUSH2 0x218 DUP2 PUSH2 0x1DF JUMP JUMPDEST SWAP1 POP SWAP2 SWAP1 POP JUMP INVALID LOG2 PUSH5 0x6970667358 0x22 SLT KECCAK256 0x4B 0xAE COINBASE SWAP1 0xEA SIGNEXTEND SWAPN 0xD1 0x2E PUSH17 0x947A159E355B99DDCDB6BA22B487CAE488 0xB3 DUP11 ORIGIN 0x27 PUSH10 0x64736F6C634300081E00 CALLER PUSH1 0x80 PUSH1 0x40 MSTORE CALLVALUE DUP1 ISZERO PUSH2 0xF JUMPI PUSH0 PUSH0 REVERT JUMPDEST POP PUSH1 0x40 MLOAD PUSH2 0x3E7 CODESIZE SUB DUP1 PUSH2 0x3E7 DUP4 CODECOPY DUP2 DUP2 ADD PUSH1 0x40 MSTORE DUP2 ADD SWAP1 PUSH2 0x31 SWAP2 SWAP1 PUSH2 0xC1 JUMP JUMPDEST PUSH0 DUP2 SUB PUSH2 0x73 JUMPI PUSH1 0x40 MLOAD PUSH32 0x8C379A000000000000000000000000000000000000000000000000000000000 DUP2 MSTORE PUSH1 0x4 ADD PUSH2 0x6A SWAP1 PUSH2 0x146 JUMP JUMPDEST PUSH1 0x40 MLOAD DUP1 SWAP2 SUB SWAP1 REVERT JUMPDEST PUSH1 0x1 DUP2 SUB PUSH2 0x84 JUMPI PUSH2 0x83 PUSH2 0x164 JUMP JUMPDEST JUMPDEST POP PUSH2 0x191 JUMP JUMPDEST PUSH0 PUSH0 REVERT JUMPDEST PUSH0 DUP2 SWAP1 POP SWAP2 SWAP1 POP JUMP JUMPDEST PUSH2 0xA0 DUP2 PUSH2 0x8E JUMP JUMPDEST DUP2 EQ PUSH2 0xAA JUMPI PUSH0 PUSH0 REVERT JUMPDEST POP JUMP JUMPDEST PUSH0 DUP2 MLOAD SWAP1 POP PUSH2 0xBB DUP2 PUSH2 0x97 JUMP JUMPDEST SWAP3 SWAP2 POP POP JUMP JUMPDEST PUSH0 PUSH1 0x20 DUP3 DUP5 SUB SLT ISZERO PUSH2 0xD6 JUMPI PUSH2 0xD5 PUSH2 0x8A JUMP JUMPDEST JUMPDEST PUSH0 PUSH2 0xE3 DUP5 DUP3 DUP6 ADD PUSH2 0xAD JUMP JUMPDEST SWAP2 POP POP SWAP3 SWAP2 POP POP JUMP JUMPDEST PUSH0 DUP3 DUP3 MSTORE PUSH1 0x20 DUP3 ADD SWAP1 POP SWAP3 SWAP2 POP POP JUMP JUMPDEST PUSH32 0x696E76616C6964206E756D6265722E2E2E000000000000000000000000000000 PUSH0 DUP3 ADD MSTORE POP JUMP JUMPDEST PUSH0 PUSH2 0x130 PUSH1 0x11 DUP4 PUSH2 0xEC JUMP JUMPDEST SWAP2 POP PUSH2 0x13B DUP3 PUSH2 0xFC JUMP JUMPDEST PUSH1 0x20 DUP3 ADD SWAP1 POP SWAP2 SWAP1 POP JUMP JUMPDEST PUSH0 PUSH1 0x20 DUP3 ADD SWAP1 POP DUP2 DUP2 SUB PUSH0 DUP4 ADD MSTORE PUSH2 0x15D DUP2 PUSH2 0x124 JUMP JUMPDEST SWAP1 POP SWAP2 SWAP1 POP JUMP JUMPDEST PUSH32 0x4E487B7100000000000000000000000000000000000000000000000000000000 PUSH0 MSTORE PUSH1 0x1 PUSH1 0x4 MSTORE PUSH1 0x24 PUSH0 REVERT JUMPDEST PUSH2 0x249 DUP1 PUSH2 0x19E PUSH0 CODECOPY PUSH0 RETURN INVALID PUSH1 0x80 PUSH1 0x40 MSTORE CALLVALUE DUP1 ISZERO PUSH2 0xF JUMPI PUSH0 PUSH0 REVERT JUMPDEST POP PUSH1 0x4 CALLDATASIZE LT PUSH2 0x29 JUMPI PUSH0 CALLDATALOAD PUSH1 0xE0 SHR DUP1 PUSH4 0xCE0B4213 EQ PUSH2 0x2D JUMPI JUMPDEST PUSH0 PUSH0 REVERT JUMPDEST PUSH2 0x47 PUSH1 0x4 DUP1 CALLDATASIZE SUB DUP2 ADD SWAP1 PUSH2 0x42 SWAP2 SWAP1 PUSH2 0xEB JUMP JUMPDEST PUSH2 0x5D JUMP JUMPDEST PUSH1 0x40 MLOAD PUSH2 0x54 SWAP2 SWAP1 PUSH2 0x125 JUMP JUMPDEST PUSH1 0x40 MLOAD DUP1 SWAP2 SUB SWAP1 RETURN JUMPDEST PUSH0 PUSH0 PUSH1 0x2 DUP4 PUSH2 0x6C SWAP2 SWAP1 PUSH2 0x16B JUMP JUMPDEST EQ PUSH2 0xAC JUMPI PUSH1 0x40 MLOAD PUSH32 0x8C379A000000000000000000000000000000000000000000000000000000000 DUP2 MSTORE PUSH1 0x4 ADD PUSH2 0xA3 SWAP1 PUSH2 0x1F5 JUMP JUMPDEST PUSH1 0x40 MLOAD DUP1 SWAP2 SUB SWAP1 REVERT JUMPDEST DUP2 SWAP1 POP SWAP2 SWAP1 POP JUMP JUMPDEST PUSH0 PUSH0 REVERT JUMPDEST PUSH0 DUP2 SWAP1 POP SWAP2 SWAP1 POP JUMP JUMPDEST PUSH2 0xCA DUP2 PUSH2 0xB8 JUMP JUMPDEST DUP2 EQ PUSH2 0xD4 JUMPI PUSH0 PUSH0 REVERT JUMPDEST POP JUMP JUMPDEST PUSH0 DUP2 CALLDATALOAD SWAP1 POP PUSH2 0xE5 DUP2 PUSH2 0xC1 JUMP JUMPDEST SWAP3 SWAP2 POP POP JUMP JUMPDEST PUSH0 PUSH1 0x20 DUP3 DUP5 SUB SLT ISZERO PUSH2 0x100 JUMPI PUSH2 0xFF PUSH2 0xB4 JUMP JUMPDEST JUMPDEST PUSH0 PUSH2 0x10D DUP5 DUP3 DUP6 ADD PUSH2 0xD7 JUMP JUMPDEST SWAP2 POP POP SWAP3 SWAP2 POP POP JUMP JUMPDEST PUSH2 0x11F DUP2 PUSH2 0xB8 JUMP JUMPDEST DUP3 MSTORE POP POP JUMP JUMPDEST PUSH0 PUSH1 0x20 DUP3 ADD SWAP1 POP PUSH2 0x138 PUSH0 DUP4 ADD DUP5 PUSH2 0x116 JUMP JUMPDEST SWAP3 SWAP2 POP POP JUMP JUMPDEST PUSH32 0x4E487B7100000000000000000000000000000000000000000000000000000000 PUSH0 MSTORE PUSH1 0x12 PUSH1 0x4 MSTORE PUSH1 0x24 PUSH0 REVERT JUMPDEST PUSH0 PUSH2 0x175 DUP3 PUSH2 0xB8 JUMP JUMPDEST SWAP2 POP PUSH2 0x180 DUP4 PUSH2 0xB8 JUMP JUMPDEST SWAP3 POP DUP3 PUSH2 0x190 JUMPI PUSH2 0x18F PUSH2 0x13E JUMP JUMPDEST JUMPDEST DUP3 DUP3 MOD SWAP1 POP SWAP3 SWAP2 POP POP JUMP JUMPDEST PUSH0 DUP3 DUP3 MSTORE PUSH1 0x20 DUP3 ADD SWAP1 POP SWAP3 SWAP2 POP POP JUMP JUMPDEST PUSH32 0x5570732120526576657274696E67000000000000000000000000000000000000 PUSH0 DUP3 ADD MSTORE POP JUMP JUMPDEST PUSH0 PUSH2 0x1DF PUSH1 0xE DUP4 PUSH2 0x19B JUMP JUMPDEST SWAP2 POP PUSH2 0x1EA DUP3 PUSH2 0x1AB JUMP JUMPDEST PUSH1 0x20 DUP3 ADD SWAP1 POP SWAP2 SWAP1 POP JUMP JUMPDEST PUSH0 PUSH1 0x20 DUP3 ADD SWAP1 POP DUP2 DUP2 SUB PUSH0 DUP4 ADD MSTORE PUSH2 0x20C DUP2 PUSH2 0x1D3 JUMP JUMPDEST SWAP1 POP SWAP2 SWAP1 POP JUMP INVALID LOG2 PUSH5 0x6970667358 0x22 SLT KECCAK256 SWAP3 0xB1 ADDMOD 0xD5 DUP3 0xB5 ADD PUSH0 0x29 0xCF 0xBB EXTCODECOPY RETURNDATACOPY 0xC2 BASEFEE PC 0xDC CALLDATALOAD DUP3 0xAF 0xDB 0xD7 RETURN SAR 0x4C 0xF7 DUP13 EXTCODECOPY DATALOADN 0x50EF ORIGIN PUSH5 0x736F6C6343 STOP ADDMOD 0x1E STOP CALLER LOG2 PUSH5 0x6970667358 0x22 SLT KECCAK256 KECCAK256 JUMPDEST 0xA8 PUSH24 0xEABB73722F9225EEEEB1F5BD51BFE529BD10229254FCC815 0xF6 SELFDESTRUCT 0x4D 0xCE PUSH5 0x736F6C6343 STOP ADDMOD 0x1E STOP CALLER PUSH1 0x80 PUSH1 0x40 MSTORE CALLVALUE DUP1 ISZERO PUSH2 0xF JUMPI PUSH0 PUSH0 REVERT JUMPDEST POP PUSH1 0x40 MLOAD PUSH2 0x3F3 CODESIZE SUB DUP1 PUSH2 0x3F3 DUP4 CODECOPY DUP2 DUP2 ADD PUSH1 0x40 MSTORE DUP2 ADD SWAP1 PUSH2 0x31 SWAP2 SWAP1 PUSH2 0xC1 JUMP JUMPDEST PUSH0 DUP2 SUB PUSH2 0x73 JUMPI PUSH1 0x40 MLOAD PUSH32 0x8C379A000000000000000000000000000000000000000000000000000000000 DUP2 MSTORE PUSH1 0x4 ADD PUSH2 0x6A SWAP1 PUSH2 0x146 JUMP JUMPDEST PUSH1 0x40 MLOAD DUP1 SWAP2 SUB SWAP1 REVERT JUMPDEST PUSH1 0x1 DUP2 SUB PUSH2 0x84 JUMPI PUSH2 0x83 PUSH2 0x164 JUMP JUMPDEST JUMPDEST POP PUSH2 0x191 JUMP JUMPDEST PUSH0 PUSH0 REVERT JUMPDEST PUSH0 DUP2 SWAP1 POP SWAP2 SWAP1 POP JUMP JUMPDEST PUSH2 0xA0 DUP2 PUSH2 0x8E JUMP JUMPDEST DUP2 EQ PUSH2 0xAA JUMPI PUSH0 PUSH0 REVERT JUMPDEST POP JUMP JUMPDEST PUSH0 DUP2 MLOAD SWAP1 POP PUSH2 0xBB DUP2 PUSH2 0x97 JUMP JUMPDEST SWAP3 SWAP2 POP POP JUMP JUMPDEST PUSH0 PUSH1 0x20 DUP3 DUP5 SUB SLT ISZERO PUSH2 0xD6 JUMPI PUSH2 0xD5 PUSH2 0x8A JUMP JUMPDEST JUMPDEST PUSH0 PUSH2 0xE3 DUP5 DUP3 DUP6 ADD PUSH2 0xAD JUMP JUMPDEST SWAP2 POP POP SWAP3 SWAP2 POP POP JUMP JUMPDEST PUSH0 DUP3 DUP3 MSTORE PUSH1 0x20 DUP3 ADD SWAP1 POP SWAP3 SWAP2 POP POP JUMP JUMPDEST PUSH32 0x696E76616C6964206E756D6265722E2E2E000000000000000000000000000000 PUSH0 DUP3 ADD MSTORE POP JUMP JUMPDEST PUSH0 PUSH2 0x130 PUSH1 0x11 DUP4 PUSH2 0xEC JUMP JUMPDEST SWAP2 POP PUSH2 0x13B DUP3 PUSH2 0xFC JUMP JUMPDEST PUSH1 0x20 DUP3 ADD SWAP1 POP SWAP2 SWAP1 POP JUMP JUMPDEST PUSH0 PUSH1 0x20 DUP3 ADD SWAP1 POP DUP2 DUP2 SUB PUSH0 DUP4 ADD MSTORE PUSH2 0x15D DUP2 PUSH2 0x124 JUMP JUMPDEST SWAP1 POP SWAP2 SWAP1 POP JUMP JUMPDEST PUSH32 0x4E487B7100000000000000000000000000000000000000000000000000000000 PUSH0 MSTORE PUSH1 0x1 PUSH1 0x4 MSTORE PUSH1 0x24 PUSH0 REVERT JUMPDEST PUSH2 0x255 DUP1 PUSH2 0x19E PUSH0 CODECOPY PUSH0 RETURN INVALID PUSH1 0x80 PUSH1 0x40 MSTORE CALLVALUE DUP1 ISZERO PUSH2 0xF JUMPI PUSH0 PUSH0 REVERT JUMPDEST POP PUSH1 0x4 CALLDATASIZE LT PUSH2 0x29 JUMPI PUSH0 CALLDATALOAD PUSH1 0xE0 SHR DUP1 PUSH4 0xCE0B4213 EQ PUSH2 0x2D JUMPI JUMPDEST PUSH0 PUSH0 REVERT JUMPDEST PUSH2 0x47 PUSH1 0x4 DUP1 CALLDATASIZE SUB DUP2 ADD SWAP1 PUSH2 0x42 SWAP2 SWAP1 PUSH2 0xEC JUMP JUMPDEST PUSH2 0x5D JUMP JUMPDEST PUSH1 0x40 MLOAD PUSH2 0x54 SWAP2 SWAP1 PUSH2 0x131 JUMP JUMPDEST PUSH1 0x40 MLOAD DUP1 SWAP2 SUB SWAP1 RETURN JUMPDEST PUSH0 PUSH0 PUSH1 0x2 DUP4 PUSH2 0x6C SWAP2 SWAP1 PUSH2 0x177 JUMP JUMPDEST EQ PUSH2 0xAC JUMPI PUSH1 0x40 MLOAD PUSH32 0x8C379A000000000000000000000000000000000000000000000000000000000 DUP2 MSTORE PUSH1 0x4 ADD PUSH2 0xA3 SWAP1 PUSH2 0x201 JUMP JUMPDEST PUSH1 0x40 MLOAD DUP1 SWAP2 SUB SWAP1 REVERT JUMPDEST PUSH1 0x1 SWAP1 POP SWAP2 SWAP1 POP JUMP JUMPDEST PUSH0 PUSH0 REVERT JUMPDEST PUSH0 DUP2 SWAP1 POP SWAP2 SWAP1 POP JUMP JUMPDEST PUSH2 0xCB DUP2 PUSH2 0xB9 JUMP JUMPDEST DUP2 EQ PUSH2 0xD5 JUMPI PUSH0 PUSH0 REVERT JUMPDEST POP JUMP JUMPDEST PUSH0 DUP2 CALLDATALOAD SWAP1 POP PUSH2 0xE6 DUP2 PUSH2 0xC2 JUMP JUMPDEST SWAP3 SWAP2 POP POP JUMP JUMPDEST PUSH0 PUSH1 0x20 DUP3 DUP5 SUB SLT ISZERO PUSH2 0x101 JUMPI PUSH2 0x100 PUSH2 0xB5 JUMP JUMPDEST JUMPDEST PUSH0 PUSH2 0x10E DUP5 DUP3 DUP6 ADD PUSH2 0xD8 JUMP JUMPDEST SWAP2 POP POP SWAP3 SWAP2 POP POP JUMP JUMPDEST PUSH0 DUP2 ISZERO ISZERO SWAP1 POP SWAP2 SWAP1 POP JUMP JUMPDEST PUSH2 0x12B DUP2 PUSH2 0x117 JUMP JUMPDEST DUP3 MSTORE POP POP JUMP JUMPDEST PUSH0 PUSH1 0x20 DUP3 ADD SWAP1 POP PUSH2 0x144 PUSH0 DUP4 ADD DUP5 PUSH2 0x122 JUMP JUMPDEST SWAP3 SWAP2 POP POP JUMP JUMPDEST PUSH32 0x4E487B7100000000000000000000000000000000000000000000000000000000 PUSH0 MSTORE PUSH1 0x12 PUSH1 0x4 MSTORE PUSH1 0x24 PUSH0 REVERT JUMPDEST PUSH0 PUSH2 0x181 DUP3 PUSH2 0xB9 JUMP JUMPDEST SWAP2 POP PUSH2 0x18C DUP4 PUSH2 0xB9 JUMP JUMPDEST SWAP3 POP DUP3 PUSH2 0x19C JUMPI PUSH2 0x19B PUSH2 0x14A JUMP JUMPDEST JUMPDEST DUP3 DUP3 MOD SWAP1 POP SWAP3 SWAP2 POP POP JUMP JUMPDEST PUSH0 DUP3 DUP3 MSTORE PUSH1 0x20 DUP3 ADD SWAP1 POP SWAP3 SWAP2 POP POP JUMP JUMPDEST PUSH32 0x5570732120526576657274696E67000000000000000000000000000000000000 PUSH0 DUP3 ADD MSTORE POP JUMP JUMPDEST PUSH0 PUSH2 0x1EB PUSH1 0xE DUP4 PUSH2 0x1A7 JUMP JUMPDEST SWAP2 POP PUSH2 0x1F6 DUP3 PUSH2 0x1B7 JUMP JUMPDEST PUSH1 0x20 DUP3 ADD SWAP1 POP SWAP2 SWAP1 POP JUMP JUMPDEST PUSH0 PUSH1 0x20 DUP3 ADD SWAP1 POP DUP2 DUP2 SUB PUSH0 DUP4 ADD MSTORE PUSH2 0x218 DUP2 PUSH2 0x1DF JUMP JUMPDEST SWAP1 POP SWAP2 SWAP1 POP JUMP INVALID LOG2 PUSH5 0x6970667358 0x22 SLT KECCAK256 0x4B 0xAE COINBASE SWAP1 0xEA SIGNEXTEND SWAPN 0xD1 0x2E PUSH17 0x947A159E355B99DDCDB6BA22B487CAE488 0xB3 DUP11 ORIGIN 0x27 PUSH10 0x64736F6C634300081E00 CALLER "
				},
				"gasEstimates": {
					"creation": {
						"codeDepositCost": "1045600",
						"executionCost": "infinite",
						"totalCost": "infinite"
					},
					"external": {
						"execute(uint256)": "infinite",
						"executeNew(uint256)": "infinite",
						"executeRevert()": "infinite",
						"executeRevert2()": "infinite",
						"executeRevertTest()": "infinite"
					}
				},
				"methodIdentifiers": {
					"execute(uint256)": "fe0d94c1",
					"executeNew(uint256)": "60ebc172",
					"executeRevert()": "7e3b0c57",
					"executeRevert2()": "617a691c",
					"executeRevertTest()": "f873724f"
				}
			},
			"storageLayout": {
				"storage": [
					{
						"astId": 96,
						"contract": "TryCatch.sol:TryCatch",
						"label": "even",
						"offset": 0,
						"slot": "0",
						"type": "t_contract(OnlyEven)42"
					}
				],
				"types": {
					"t_contract(OnlyEven)42": {
						"encoding": "inplace",
						"label": "contract OnlyEven",
						"numberOfBytes": "20"
					}
				}
			},
			"userdoc": {
				"kind": "user",
				"methods": {},
				"version": 1
			}
		}
	}
}