{
	"TraCatch.sol": {
		"TryCatch": {
			"abi": [
				{
					"inputs": [],
					"stateMutability": "nonpayable",
					"type": "constructor"
				},
				{
					"anonymous": false,
					"inputs": [
						{
							"indexed": false,
							"internalType": "bytes",
							"name": "data",
							"type": "bytes"
						}
					],
					"name": "CatchByte",
					"type": "event"
				},
				{
					"anonymous": false,
					"inputs": [
						{
							"indexed": false,
							"internalType": "string",
							"name": "message",
							"type": "string"
						}
					],
					"name": "CatchEvent",
					"type": "event"
				},
				{
					"anonymous": false,
					"inputs": [],
					"name": "SuccessEvent",
					"type": "event"
				},
				{
					"inputs": [
						{
							"internalType": "uint256",
							"name": "amount",
							"type": "uint256"
						}
					],
					"name": "execute",
					"outputs": [
						{
							"internalType": "bool",
							"name": "success",
							"type": "bool"
						}
					],
					"stateMutability": "nonpayable",
					"type": "function"
				},
				{
					"inputs": [
						{
							"internalType": "uint256",
							"name": "a",
							"type": "uint256"
						}
					],
					"name": "executeNew",
					"outputs": [
						{
							"internalType": "bool",
							"name": "success",
							"type": "bool"
						}
					],
					"stateMutability": "nonpayable",
					"type": "function"
				},
				{
					"inputs": [],
					"name": "executeRevert",
					"outputs": [],
					"stateMutability": "nonpayable",
					"type": "function"
				},
				{
					"inputs": [],
					"name": "executeRevert2",
					"outputs": [
						{
							"internalType": "bool",
							"name": "success",
							"type": "bool"
						}
					],
					"stateMutability": "nonpayable",
					"type": "function"
				}
			],
			"devdoc": {
				"kind": "dev",
				"methods": {},
				"version": 1
			},
			"evm": {
				"assembly": "    /* \"TraCatch.sol\":694:3572  contract TryCatch {... */\n  mstore(0x40, 0x80)\n    /* \"TraCatch.sol\":918:973  constructor() {... */\n  callvalue\n  dup1\n  iszero\n  tag_1\n  jumpi\n  revert(0x00, 0x00)\ntag_1:\n  pop\n    /* \"TraCatch.sol\":963:964  2 */\n  0x02\n    /* \"TraCatch.sol\":950:965  new OnlyEven(2) */\n  mload(0x40)\n  tag_4\n  swap1\n  tag_5\n  jump\t// in\ntag_4:\n  tag_6\n  swap2\n  swap1\n  tag_7\n  jump\t// in\ntag_6:\n  mload(0x40)\n  dup1\n  swap2\n  sub\n  swap1\n  0x00\n  create\n  dup1\n  iszero\n  dup1\n  iszero\n  tag_8\n  jumpi\n  returndatacopy(0x00, 0x00, returndatasize)\n  revert(0x00, returndatasize)\ntag_8:\n  pop\n    /* \"TraCatch.sol\":943:947  even */\n  0x00\n  0x00\n    /* \"TraCatch.sol\":943:965  even = new OnlyEven(2) */\n  0x0100\n  exp\n  dup2\n  sload\n  dup2\n  0xffffffffffffffffffffffffffffffffffffffff\n  mul\n  not\n  and\n  swap1\n  dup4\n  0xffffffffffffffffffffffffffffffffffffffff\n  and\n  mul\n  or\n  swap1\n  sstore\n  pop\n    /* \"TraCatch.sol\":694:3572  contract TryCatch {... */\n  jump(tag_9)\ntag_5:\n  dataSize(sub_1)\n  dup1\n  dataOffset(sub_1)\n  dup4\n  codecopy\n  add\n  swap1\n  jump\t// out\n    /* \"#utility.yul\":7:92   */\ntag_10:\n    /* \"#utility.yul\":52:59   */\n  0x00\n    /* \"#utility.yul\":81:86   */\n  dup2\n    /* \"#utility.yul\":70:86   */\n  swap1\n  pop\n    /* \"#utility.yul\":7:92   */\n  swap2\n  swap1\n  pop\n  jump\t// out\n    /* \"#utility.yul\":98:175   */\ntag_11:\n    /* \"#utility.yul\":135:142   */\n  0x00\n    /* \"#utility.yul\":164:169   */\n  dup2\n    /* \"#utility.yul\":153:169   */\n  swap1\n  pop\n    /* \"#utility.yul\":98:175   */\n  swap2\n  swap1\n  pop\n  jump\t// out\n    /* \"#utility.yul\":181:241   */\ntag_12:\n    /* \"#utility.yul\":209:212   */\n  0x00\n    /* \"#utility.yul\":230:235   */\n  dup2\n    /* \"#utility.yul\":223:235   */\n  swap1\n  pop\n    /* \"#utility.yul\":181:241   */\n  swap2\n  swap1\n  pop\n  jump\t// out\n    /* \"#utility.yul\":247:405   */\ntag_13:\n    /* \"#utility.yul\":305:314   */\n  0x00\n    /* \"#utility.yul\":338:399   */\n  tag_20\n    /* \"#utility.yul\":356:398   */\n  tag_21\n    /* \"#utility.yul\":365:397   */\n  tag_22\n    /* \"#utility.yul\":391:396   */\n  dup5\n    /* \"#utility.yul\":365:397   */\n  tag_10\n  jump\t// in\ntag_22:\n    /* \"#utility.yul\":356:398   */\n  tag_12\n  jump\t// in\ntag_21:\n    /* \"#utility.yul\":338:399   */\n  tag_11\n  jump\t// in\ntag_20:\n    /* \"#utility.yul\":325:399   */\n  swap1\n  pop\n    /* \"#utility.yul\":247:405   */\n  swap2\n  swap1\n  pop\n  jump\t// out\n    /* \"#utility.yul\":411:558   */\ntag_14:\n    /* \"#utility.yul\":506:551   */\n  tag_24\n    /* \"#utility.yul\":545:550   */\n  dup2\n    /* \"#utility.yul\":506:551   */\n  tag_13\n  jump\t// in\ntag_24:\n    /* \"#utility.yul\":501:504   */\n  dup3\n    /* \"#utility.yul\":494:552   */\n  mstore\n    /* \"#utility.yul\":411:558   */\n  pop\n  pop\n  jump\t// out\n    /* \"#utility.yul\":564:802   */\ntag_7:\n    /* \"#utility.yul\":665:669   */\n  0x00\n    /* \"#utility.yul\":703:705   */\n  0x20\n    /* \"#utility.yul\":692:701   */\n  dup3\n    /* \"#utility.yul\":688:706   */\n  add\n    /* \"#utility.yul\":680:706   */\n  swap1\n  pop\n    /* \"#utility.yul\":716:795   */\n  tag_26\n    /* \"#utility.yul\":792:793   */\n  0x00\n    /* \"#utility.yul\":781:790   */\n  dup4\n    /* \"#utility.yul\":777:794   */\n  add\n    /* \"#utility.yul\":768:774   */\n  dup5\n    /* \"#utility.yul\":716:795   */\n  tag_14\n  jump\t// in\ntag_26:\n    /* \"#utility.yul\":564:802   */\n  swap3\n  swap2\n  pop\n  pop\n  jump\t// out\n    /* \"TraCatch.sol\":694:3572  contract TryCatch {... */\ntag_9:\n  dataSize(sub_0)\n  dup1\n  dataOffset(sub_0)\n  0x00\n  codecopy\n  0x00\n  return\nstop\n\nsub_0: assembly {\n        /* \"TraCatch.sol\":694:3572  contract TryCatch {... */\n      mstore(0x40, 0x80)\n      callvalue\n      dup1\n      iszero\n      tag_1\n      jumpi\n      revert(0x00, 0x00)\n    tag_1:\n      pop\n      jumpi(tag_2, lt(calldatasize, 0x04))\n      shr(0xe0, calldataload(0x00))\n      dup1\n      0x60ebc172\n      eq\n      tag_3\n      jumpi\n      dup1\n      0x617a691c\n      eq\n      tag_4\n      jumpi\n      dup1\n      0x7e3b0c57\n      eq\n      tag_5\n      jumpi\n      dup1\n      0xfe0d94c1\n      eq\n      tag_6\n      jumpi\n    tag_2:\n      revert(0x00, 0x00)\n        /* \"TraCatch.sol\":1745:2367  function executeNew(uint a) external returns (bool success) {... */\n    tag_3:\n      tag_7\n      0x04\n      dup1\n      calldatasize\n      sub\n      dup2\n      add\n      swap1\n      tag_8\n      swap2\n      swap1\n      tag_9\n      jump\t// in\n    tag_8:\n      tag_10\n      jump\t// in\n    tag_7:\n      mload(0x40)\n      tag_11\n      swap2\n      swap1\n      tag_12\n      jump\t// in\n    tag_11:\n      mload(0x40)\n      dup1\n      swap2\n      sub\n      swap1\n      return\n        /* \"TraCatch.sol\":3104:3569  function executeRevert2() external returns (bool success){... */\n    tag_4:\n      tag_13\n      tag_14\n      jump\t// in\n    tag_13:\n      mload(0x40)\n      tag_15\n      swap2\n      swap1\n      tag_12\n      jump\t// in\n    tag_15:\n      mload(0x40)\n      dup1\n      swap2\n      sub\n      swap1\n      return\n        /* \"TraCatch.sol\":2459:3003  function executeRevert() external {... */\n    tag_5:\n      tag_16\n      tag_17\n      jump\t// in\n    tag_16:\n      stop\n        /* \"TraCatch.sol\":1124:1494  function execute(uint amount) external returns (bool success) {... */\n    tag_6:\n      tag_18\n      0x04\n      dup1\n      calldatasize\n      sub\n      dup2\n      add\n      swap1\n      tag_19\n      swap2\n      swap1\n      tag_9\n      jump\t// in\n    tag_19:\n      tag_20\n      jump\t// in\n    tag_18:\n      mload(0x40)\n      tag_21\n      swap2\n      swap1\n      tag_12\n      jump\t// in\n    tag_21:\n      mload(0x40)\n      dup1\n      swap2\n      sub\n      swap1\n      return\n        /* \"TraCatch.sol\":1745:2367  function executeNew(uint a) external returns (bool success) {... */\n    tag_10:\n        /* \"TraCatch.sol\":1791:1803  bool success */\n      0x00\n        /* \"TraCatch.sol\":1833:1834  a */\n      dup2\n        /* \"TraCatch.sol\":1820:1835  new OnlyEven(a) */\n      mload(0x40)\n      tag_23\n      swap1\n      tag_24\n      jump\t// in\n    tag_23:\n      tag_25\n      swap2\n      swap1\n      tag_26\n      jump\t// in\n    tag_25:\n      mload(0x40)\n      dup1\n      swap2\n      sub\n      swap1\n      0x00\n      create\n      dup1\n      iszero\n      tag_27\n      jumpi\n      0x01\n    tag_27:\n        /* \"TraCatch.sol\":1816:2360  try new OnlyEven(a) returns (OnlyEven _even){... */\n      tag_28\n      jumpi\n      tag_32\n      tag_33\n      jump\t// in\n    tag_32:\n      dup1\n      0x08c379a0\n      sub\n      tag_31\n      jumpi\n      pop\n      tag_34\n      tag_35\n      jump\t// in\n    tag_34:\n      dup1\n      tag_36\n      jumpi\n      pop\n      jump(tag_30)\n    tag_36:\n        /* \"TraCatch.sol\":2122:2140  CatchEvent(reason) */\n      0xb761112ad379c509744de8d585702b0d2694d4ceaef85ad50d452ff06821a6a6\n        /* \"TraCatch.sol\":2133:2139  reason */\n      dup2\n        /* \"TraCatch.sol\":2122:2140  CatchEvent(reason) */\n      mload(0x40)\n      tag_37\n      swap2\n      swap1\n      tag_38\n      jump\t// in\n    tag_37:\n      mload(0x40)\n      dup1\n      swap2\n      sub\n      swap1\n      log1\n        /* \"TraCatch.sol\":1988:2152  catch Error(string memory reason) {... */\n      pop\n        /* \"TraCatch.sol\":1816:2360  try new OnlyEven(a) returns (OnlyEven _even){... */\n      jump(tag_29)\n    tag_31:\n      pop\n    tag_30:\n      returndatasize\n      dup1\n      0x00\n      dup2\n      eq\n      tag_40\n      jumpi\n      mload(0x40)\n      swap2\n      pop\n      and(add(returndatasize, 0x3f), not(0x1f))\n      dup3\n      add\n      0x40\n      mstore\n      returndatasize\n      dup3\n      mstore\n      returndatasize\n      0x00\n      0x20\n      dup5\n      add\n      returndatacopy\n      jump(tag_39)\n    tag_40:\n      0x60\n      swap2\n      pop\n    tag_39:\n      pop\n        /* \"TraCatch.sol\":2331:2348  CatchByte(reason) */\n      0xb6f66868478aebcea8c7a15c8c7dd37a513a4127424642ee3573117b52fa3e39\n        /* \"TraCatch.sol\":2341:2347  reason */\n      dup2\n        /* \"TraCatch.sol\":2331:2348  CatchByte(reason) */\n      mload(0x40)\n      tag_41\n      swap2\n      swap1\n      tag_42\n      jump\t// in\n    tag_41:\n      mload(0x40)\n      dup1\n      swap2\n      sub\n      swap1\n      log1\n        /* \"TraCatch.sol\":2153:2360  catch (bytes memory reason) {... */\n      pop\n        /* \"TraCatch.sol\":1816:2360  try new OnlyEven(a) returns (OnlyEven _even){... */\n    tag_29:\n      jump(tag_43)\n    tag_28:\n        /* \"TraCatch.sol\":1919:1933  SuccessEvent() */\n      0xfd76336752e93f2cc77cf13a41be8b6c156731030376354d634d28a9a87b9162\n      mload(0x40)\n      mload(0x40)\n      dup1\n      swap2\n      sub\n      swap1\n      log1\n        /* \"TraCatch.sol\":1958:1963  _even */\n      dup1\n        /* \"TraCatch.sol\":1958:1972  _even.onlyEven */\n      0xffffffffffffffffffffffffffffffffffffffff\n      and\n      0xce0b4213\n        /* \"TraCatch.sol\":1973:1974  a */\n      dup5\n        /* \"TraCatch.sol\":1958:1975  _even.onlyEven(a) */\n      mload(0x40)\n      dup3\n      0xffffffff\n      and\n      0xe0\n      shl\n      dup2\n      mstore\n      0x04\n      add\n      tag_44\n      swap2\n      swap1\n      tag_26\n      jump\t// in\n    tag_44:\n      0x20\n      mload(0x40)\n      dup1\n      dup4\n      sub\n      dup2\n      dup7\n      gas\n      staticcall\n      iszero\n      dup1\n      iszero\n      tag_46\n      jumpi\n      returndatacopy(0x00, 0x00, returndatasize)\n      revert(0x00, returndatasize)\n    tag_46:\n      pop\n      pop\n      pop\n      pop\n      mload(0x40)\n      returndatasize\n      not(0x1f)\n      0x1f\n      dup3\n      add\n      and\n      dup3\n      add\n      dup1\n      0x40\n      mstore\n      pop\n      dup2\n      add\n      swap1\n      tag_47\n      swap2\n      swap1\n      tag_48\n      jump\t// in\n    tag_47:\n        /* \"TraCatch.sol\":1948:1975  success = _even.onlyEven(a) */\n      swap2\n      pop\n        /* \"TraCatch.sol\":1836:1987  returns (OnlyEven _even){... */\n      pop\n        /* \"TraCatch.sol\":1816:2360  try new OnlyEven(a) returns (OnlyEven _even){... */\n    tag_43:\n        /* \"TraCatch.sol\":1745:2367  function executeNew(uint a) external returns (bool success) {... */\n      swap2\n      swap1\n      pop\n      jump\t// out\n        /* \"TraCatch.sol\":3104:3569  function executeRevert2() external returns (bool success){... */\n    tag_14:\n        /* \"TraCatch.sol\":3148:3160  bool success */\n      0x00\n        /* \"TraCatch.sol\":3172:3189  address onlyEven2 */\n      0x00\n        /* \"TraCatch.sol\":3214:3215  2 */\n      0x02\n        /* \"TraCatch.sol\":3200:3216  new OnlyEven2(2) */\n      mload(0x40)\n      tag_50\n      swap1\n      tag_51\n      jump\t// in\n    tag_50:\n      tag_52\n      swap2\n      swap1\n      tag_53\n      jump\t// in\n    tag_52:\n      mload(0x40)\n      dup1\n      swap2\n      sub\n      swap1\n      0x00\n      create\n      dup1\n      iszero\n      dup1\n      iszero\n      tag_54\n      jumpi\n      returndatacopy(0x00, 0x00, returndatasize)\n      revert(0x00, returndatasize)\n    tag_54:\n      pop\n        /* \"TraCatch.sol\":3172:3217  address onlyEven2 = address(new OnlyEven2(2)) */\n      swap1\n      pop\n        /* \"TraCatch.sol\":3228:3242  uint256 amount */\n      0x00\n        /* \"TraCatch.sol\":3245:3246  2 */\n      0x02\n        /* \"TraCatch.sol\":3228:3246  uint256 amount = 2 */\n      swap1\n      pop\n        /* \"TraCatch.sol\":3270:3279  onlyEven2 */\n      dup2\n        /* \"TraCatch.sol\":3261:3289  OnlyEven(onlyEven2).onlyEven */\n      0xffffffffffffffffffffffffffffffffffffffff\n      and\n      0xce0b4213\n        /* \"TraCatch.sol\":3290:3296  amount */\n      dup3\n        /* \"TraCatch.sol\":3261:3297  OnlyEven(onlyEven2).onlyEven(amount) */\n      mload(0x40)\n      dup3\n      0xffffffff\n      and\n      0xe0\n      shl\n      dup2\n      mstore\n      0x04\n      add\n      tag_55\n      swap2\n      swap1\n      tag_26\n      jump\t// in\n    tag_55:\n      0x20\n      mload(0x40)\n      dup1\n      dup4\n      sub\n      dup2\n      dup7\n      gas\n      staticcall\n      swap3\n      pop\n      pop\n      pop\n      dup1\n      iszero\n      tag_56\n      jumpi\n      pop\n      mload(0x40)\n      returndatasize\n      not(0x1f)\n      0x1f\n      dup3\n      add\n      and\n      dup3\n      add\n      dup1\n      0x40\n      mstore\n      pop\n      dup2\n      add\n      swap1\n      tag_57\n      swap2\n      swap1\n      tag_48\n      jump\t// in\n    tag_57:\n      0x01\n    tag_56:\n        /* \"TraCatch.sol\":3257:3562  try OnlyEven(onlyEven2).onlyEven(amount) returns (bool _success){... */\n      tag_58\n      jumpi\n      tag_62\n      tag_33\n      jump\t// in\n    tag_62:\n      dup1\n      0x08c379a0\n      sub\n      tag_61\n      jumpi\n      pop\n      tag_63\n      tag_35\n      jump\t// in\n    tag_63:\n      dup1\n      tag_64\n      jumpi\n      pop\n      jump(tag_60)\n    tag_64:\n        /* \"TraCatch.sol\":3532:3550  CatchEvent(reason) */\n      0xb761112ad379c509744de8d585702b0d2694d4ceaef85ad50d452ff06821a6a6\n        /* \"TraCatch.sol\":3543:3549  reason */\n      dup2\n        /* \"TraCatch.sol\":3532:3550  CatchEvent(reason) */\n      mload(0x40)\n      tag_65\n      swap2\n      swap1\n      tag_38\n      jump\t// in\n    tag_65:\n      mload(0x40)\n      dup1\n      swap2\n      sub\n      swap1\n      log1\n        /* \"TraCatch.sol\":3437:3562  catch Error(string memory reason){... */\n      pop\n        /* \"TraCatch.sol\":3257:3562  try OnlyEven(onlyEven2).onlyEven(amount) returns (bool _success){... */\n      jump(tag_59)\n    tag_61:\n      pop\n    tag_60:\n      returndatacopy(0x00, 0x00, returndatasize)\n      revert(0x00, returndatasize)\n    tag_59:\n      jump(tag_66)\n    tag_58:\n        /* \"TraCatch.sol\":3380:3394  SuccessEvent() */\n      0xfd76336752e93f2cc77cf13a41be8b6c156731030376354d634d28a9a87b9162\n      mload(0x40)\n      mload(0x40)\n      dup1\n      swap2\n      sub\n      swap1\n      log1\n        /* \"TraCatch.sol\":3416:3424  _success */\n      dup1\n        /* \"TraCatch.sol\":3409:3424  return _success */\n      swap4\n      pop\n      pop\n      pop\n      pop\n      jump(tag_49)\n        /* \"TraCatch.sol\":3257:3562  try OnlyEven(onlyEven2).onlyEven(amount) returns (bool _success){... */\n    tag_66:\n        /* \"TraCatch.sol\":3161:3569  {... */\n      pop\n      pop\n        /* \"TraCatch.sol\":3104:3569  function executeRevert2() external returns (bool success){... */\n    tag_49:\n      swap1\n      jump\t// out\n        /* \"TraCatch.sol\":2459:3003  function executeRevert() external {... */\n    tag_17:\n        /* \"TraCatch.sol\":2525:2526  0 */\n      0x00\n        /* \"TraCatch.sol\":2508:2537  OnlyEven(address(0)).onlyEven */\n      0xffffffffffffffffffffffffffffffffffffffff\n      and\n      0xce0b4213\n        /* \"TraCatch.sol\":2538:2539  1 */\n      0x01\n        /* \"TraCatch.sol\":2508:2540  OnlyEven(address(0)).onlyEven(1) */\n      mload(0x40)\n      dup3\n      0xffffffff\n      and\n      0xe0\n      shl\n      dup2\n      mstore\n      0x04\n      add\n      tag_68\n      swap2\n      swap1\n      tag_69\n      jump\t// in\n    tag_68:\n      0x20\n      mload(0x40)\n      dup1\n      dup4\n      sub\n      dup2\n      dup7\n      gas\n      staticcall\n      swap3\n      pop\n      pop\n      pop\n      dup1\n      iszero\n      tag_70\n      jumpi\n      pop\n      mload(0x40)\n      returndatasize\n      not(0x1f)\n      0x1f\n      dup3\n      add\n      and\n      dup3\n      add\n      dup1\n      0x40\n      mstore\n      pop\n      dup2\n      add\n      swap1\n      tag_71\n      swap2\n      swap1\n      tag_48\n      jump\t// in\n    tag_71:\n      0x01\n    tag_70:\n        /* \"TraCatch.sol\":2504:2996  try OnlyEven(address(0)).onlyEven(1){... */\n      tag_72\n      jumpi\n      tag_76\n      tag_33\n      jump\t// in\n    tag_76:\n      dup1\n      0x08c379a0\n      sub\n      tag_75\n      jumpi\n      pop\n      tag_77\n      tag_35\n      jump\t// in\n    tag_77:\n      dup1\n      tag_78\n      jumpi\n      pop\n      jump(tag_74)\n    tag_78:\n        /* \"TraCatch.sol\":2759:2777  CatchEvent(reason) */\n      0xb761112ad379c509744de8d585702b0d2694d4ceaef85ad50d452ff06821a6a6\n        /* \"TraCatch.sol\":2770:2776  reason */\n      dup2\n        /* \"TraCatch.sol\":2759:2777  CatchEvent(reason) */\n      mload(0x40)\n      tag_79\n      swap2\n      swap1\n      tag_38\n      jump\t// in\n    tag_79:\n      mload(0x40)\n      dup1\n      swap2\n      sub\n      swap1\n      log1\n        /* \"TraCatch.sol\":2626:2789  catch Error(string memory reason){... */\n      pop\n        /* \"TraCatch.sol\":2504:2996  try OnlyEven(address(0)).onlyEven(1){... */\n      jump(tag_73)\n    tag_75:\n      pop\n    tag_74:\n      returndatasize\n      dup1\n      0x00\n      dup2\n      eq\n      tag_81\n      jumpi\n      mload(0x40)\n      swap2\n      pop\n      and(add(returndatasize, 0x3f), not(0x1f))\n      dup3\n      add\n      0x40\n      mstore\n      returndatasize\n      dup3\n      mstore\n      returndatasize\n      0x00\n      0x20\n      dup5\n      add\n      returndatacopy\n      jump(tag_80)\n    tag_81:\n      0x60\n      swap2\n      pop\n    tag_80:\n      pop\n        /* \"TraCatch.sol\":2967:2984  CatchByte(reason) */\n      0xb6f66868478aebcea8c7a15c8c7dd37a513a4127424642ee3573117b52fa3e39\n        /* \"TraCatch.sol\":2977:2983  reason */\n      dup2\n        /* \"TraCatch.sol\":2967:2984  CatchByte(reason) */\n      mload(0x40)\n      tag_82\n      swap2\n      swap1\n      tag_42\n      jump\t// in\n    tag_82:\n      mload(0x40)\n      dup1\n      swap2\n      sub\n      swap1\n      log1\n        /* \"TraCatch.sol\":2790:2996  catch (bytes memory reason){... */\n      pop\n        /* \"TraCatch.sol\":2504:2996  try OnlyEven(address(0)).onlyEven(1){... */\n    tag_73:\n      jump(tag_83)\n    tag_72:\n      pop\n        /* \"TraCatch.sol\":2599:2613  SuccessEvent() */\n      0xfd76336752e93f2cc77cf13a41be8b6c156731030376354d634d28a9a87b9162\n      mload(0x40)\n      mload(0x40)\n      dup1\n      swap2\n      sub\n      swap1\n      log1\n        /* \"TraCatch.sol\":2504:2996  try OnlyEven(address(0)).onlyEven(1){... */\n    tag_83:\n        /* \"TraCatch.sol\":2459:3003  function executeRevert() external {... */\n      jump\t// out\n        /* \"TraCatch.sol\":1124:1494  function execute(uint amount) external returns (bool success) {... */\n    tag_20:\n        /* \"TraCatch.sol\":1172:1184  bool success */\n      0x00\n        /* \"TraCatch.sol\":1201:1205  even */\n      0x00\n      0x00\n      swap1\n      sload\n      swap1\n      0x0100\n      exp\n      swap1\n      div\n      0xffffffffffffffffffffffffffffffffffffffff\n      and\n        /* \"TraCatch.sol\":1201:1214  even.onlyEven */\n      0xffffffffffffffffffffffffffffffffffffffff\n      and\n      0xce0b4213\n        /* \"TraCatch.sol\":1215:1221  amount */\n      dup4\n        /* \"TraCatch.sol\":1201:1222  even.onlyEven(amount) */\n      mload(0x40)\n      dup3\n      0xffffffff\n      and\n      0xe0\n      shl\n      dup2\n      mstore\n      0x04\n      add\n      tag_85\n      swap2\n      swap1\n      tag_26\n      jump\t// in\n    tag_85:\n      0x20\n      mload(0x40)\n      dup1\n      dup4\n      sub\n      dup2\n      dup7\n      gas\n      staticcall\n      swap3\n      pop\n      pop\n      pop\n      dup1\n      iszero\n      tag_86\n      jumpi\n      pop\n      mload(0x40)\n      returndatasize\n      not(0x1f)\n      0x1f\n      dup3\n      add\n      and\n      dup3\n      add\n      dup1\n      0x40\n      mstore\n      pop\n      dup2\n      add\n      swap1\n      tag_87\n      swap2\n      swap1\n      tag_48\n      jump\t// in\n    tag_87:\n      0x01\n    tag_86:\n        /* \"TraCatch.sol\":1197:1487  try even.onlyEven(amount) returns (bool _success){... */\n      tag_88\n      jumpi\n      tag_92\n      tag_33\n      jump\t// in\n    tag_92:\n      dup1\n      0x08c379a0\n      sub\n      tag_91\n      jumpi\n      pop\n      tag_93\n      tag_35\n      jump\t// in\n    tag_93:\n      dup1\n      tag_94\n      jumpi\n      pop\n      jump(tag_90)\n    tag_94:\n        /* \"TraCatch.sol\":1457:1475  CatchEvent(reason) */\n      0xb761112ad379c509744de8d585702b0d2694d4ceaef85ad50d452ff06821a6a6\n        /* \"TraCatch.sol\":1468:1474  reason */\n      dup2\n        /* \"TraCatch.sol\":1457:1475  CatchEvent(reason) */\n      mload(0x40)\n      tag_95\n      swap2\n      swap1\n      tag_38\n      jump\t// in\n    tag_95:\n      mload(0x40)\n      dup1\n      swap2\n      sub\n      swap1\n      log1\n        /* \"TraCatch.sol\":1362:1487  catch Error(string memory reason){... */\n      pop\n        /* \"TraCatch.sol\":1197:1487  try even.onlyEven(amount) returns (bool _success){... */\n      jump(tag_89)\n    tag_91:\n      pop\n    tag_90:\n      returndatacopy(0x00, 0x00, returndatasize)\n      revert(0x00, returndatasize)\n    tag_89:\n      jump(tag_96)\n    tag_88:\n        /* \"TraCatch.sol\":1305:1319  SuccessEvent() */\n      0xfd76336752e93f2cc77cf13a41be8b6c156731030376354d634d28a9a87b9162\n      mload(0x40)\n      mload(0x40)\n      dup1\n      swap2\n      sub\n      swap1\n      log1\n        /* \"TraCatch.sol\":1341:1349  _success */\n      dup1\n        /* \"TraCatch.sol\":1334:1349  return _success */\n      swap2\n      pop\n      pop\n      jump(tag_84)\n        /* \"TraCatch.sol\":1197:1487  try even.onlyEven(amount) returns (bool _success){... */\n    tag_96:\n        /* \"TraCatch.sol\":1124:1494  function execute(uint amount) external returns (bool success) {... */\n    tag_84:\n      swap2\n      swap1\n      pop\n      jump\t// out\n    tag_24:\n      dataSize(sub_0)\n      dup1\n      dataOffset(sub_0)\n      dup4\n      codecopy\n      add\n      swap1\n      jump\t// out\n    tag_51:\n      dataSize(sub_1)\n      dup1\n      dataOffset(sub_1)\n      dup4\n      codecopy\n      add\n      swap1\n      jump\t// out\n        /* \"#utility.yul\":7:82   */\n    tag_97:\n        /* \"#utility.yul\":40:46   */\n      0x00\n        /* \"#utility.yul\":73:75   */\n      0x40\n        /* \"#utility.yul\":67:76   */\n      mload\n        /* \"#utility.yul\":57:76   */\n      swap1\n      pop\n        /* \"#utility.yul\":7:82   */\n      swap1\n      jump\t// out\n        /* \"#utility.yul\":88:205   */\n    tag_98:\n        /* \"#utility.yul\":197:198   */\n      0x00\n        /* \"#utility.yul\":194:195   */\n      0x00\n        /* \"#utility.yul\":187:199   */\n      revert\n        /* \"#utility.yul\":334:411   */\n    tag_100:\n        /* \"#utility.yul\":371:378   */\n      0x00\n        /* \"#utility.yul\":400:405   */\n      dup2\n        /* \"#utility.yul\":389:405   */\n      swap1\n      pop\n        /* \"#utility.yul\":334:411   */\n      swap2\n      swap1\n      pop\n      jump\t// out\n        /* \"#utility.yul\":417:539   */\n    tag_101:\n        /* \"#utility.yul\":490:514   */\n      tag_132\n        /* \"#utility.yul\":508:513   */\n      dup2\n        /* \"#utility.yul\":490:514   */\n      tag_100\n      jump\t// in\n    tag_132:\n        /* \"#utility.yul\":483:488   */\n      dup2\n        /* \"#utility.yul\":480:515   */\n      eq\n        /* \"#utility.yul\":470:533   */\n      tag_133\n      jumpi\n        /* \"#utility.yul\":529:530   */\n      0x00\n        /* \"#utility.yul\":526:527   */\n      0x00\n        /* \"#utility.yul\":519:531   */\n      revert\n        /* \"#utility.yul\":470:533   */\n    tag_133:\n        /* \"#utility.yul\":417:539   */\n      pop\n      jump\t// out\n        /* \"#utility.yul\":545:684   */\n    tag_102:\n        /* \"#utility.yul\":591:596   */\n      0x00\n        /* \"#utility.yul\":629:635   */\n      dup2\n        /* \"#utility.yul\":616:636   */\n      calldataload\n        /* \"#utility.yul\":607:636   */\n      swap1\n      pop\n        /* \"#utility.yul\":645:678   */\n      tag_135\n        /* \"#utility.yul\":672:677   */\n      dup2\n        /* \"#utility.yul\":645:678   */\n      tag_101\n      jump\t// in\n    tag_135:\n        /* \"#utility.yul\":545:684   */\n      swap3\n      swap2\n      pop\n      pop\n      jump\t// out\n        /* \"#utility.yul\":690:1019   */\n    tag_9:\n        /* \"#utility.yul\":749:755   */\n      0x00\n        /* \"#utility.yul\":798:800   */\n      0x20\n        /* \"#utility.yul\":786:795   */\n      dup3\n        /* \"#utility.yul\":777:784   */\n      dup5\n        /* \"#utility.yul\":773:796   */\n      sub\n        /* \"#utility.yul\":769:801   */\n      slt\n        /* \"#utility.yul\":766:885   */\n      iszero\n      tag_137\n      jumpi\n        /* \"#utility.yul\":804:883   */\n      tag_138\n      tag_98\n      jump\t// in\n    tag_138:\n        /* \"#utility.yul\":766:885   */\n    tag_137:\n        /* \"#utility.yul\":924:925   */\n      0x00\n        /* \"#utility.yul\":949:1002   */\n      tag_139\n        /* \"#utility.yul\":994:1001   */\n      dup5\n        /* \"#utility.yul\":985:991   */\n      dup3\n        /* \"#utility.yul\":974:983   */\n      dup6\n        /* \"#utility.yul\":970:992   */\n      add\n        /* \"#utility.yul\":949:1002   */\n      tag_102\n      jump\t// in\n    tag_139:\n        /* \"#utility.yul\":939:1002   */\n      swap2\n      pop\n        /* \"#utility.yul\":895:1012   */\n      pop\n        /* \"#utility.yul\":690:1019   */\n      swap3\n      swap2\n      pop\n      pop\n      jump\t// out\n        /* \"#utility.yul\":1025:1115   */\n    tag_103:\n        /* \"#utility.yul\":1059:1066   */\n      0x00\n        /* \"#utility.yul\":1102:1107   */\n      dup2\n        /* \"#utility.yul\":1095:1108   */\n      iszero\n        /* \"#utility.yul\":1088:1109   */\n      iszero\n        /* \"#utility.yul\":1077:1109   */\n      swap1\n      pop\n        /* \"#utility.yul\":1025:1115   */\n      swap2\n      swap1\n      pop\n      jump\t// out\n        /* \"#utility.yul\":1121:1230   */\n    tag_104:\n        /* \"#utility.yul\":1202:1223   */\n      tag_142\n        /* \"#utility.yul\":1217:1222   */\n      dup2\n        /* \"#utility.yul\":1202:1223   */\n      tag_103\n      jump\t// in\n    tag_142:\n        /* \"#utility.yul\":1197:1200   */\n      dup3\n        /* \"#utility.yul\":1190:1224   */\n      mstore\n        /* \"#utility.yul\":1121:1230   */\n      pop\n      pop\n      jump\t// out\n        /* \"#utility.yul\":1236:1446   */\n    tag_12:\n        /* \"#utility.yul\":1323:1327   */\n      0x00\n        /* \"#utility.yul\":1361:1363   */\n      0x20\n        /* \"#utility.yul\":1350:1359   */\n      dup3\n        /* \"#utility.yul\":1346:1364   */\n      add\n        /* \"#utility.yul\":1338:1364   */\n      swap1\n      pop\n        /* \"#utility.yul\":1374:1439   */\n      tag_144\n        /* \"#utility.yul\":1436:1437   */\n      0x00\n        /* \"#utility.yul\":1425:1434   */\n      dup4\n        /* \"#utility.yul\":1421:1438   */\n      add\n        /* \"#utility.yul\":1412:1418   */\n      dup5\n        /* \"#utility.yul\":1374:1439   */\n      tag_104\n      jump\t// in\n    tag_144:\n        /* \"#utility.yul\":1236:1446   */\n      swap3\n      swap2\n      pop\n      pop\n      jump\t// out\n        /* \"#utility.yul\":1452:1570   */\n    tag_105:\n        /* \"#utility.yul\":1539:1563   */\n      tag_146\n        /* \"#utility.yul\":1557:1562   */\n      dup2\n        /* \"#utility.yul\":1539:1563   */\n      tag_100\n      jump\t// in\n    tag_146:\n        /* \"#utility.yul\":1534:1537   */\n      dup3\n        /* \"#utility.yul\":1527:1564   */\n      mstore\n        /* \"#utility.yul\":1452:1570   */\n      pop\n      pop\n      jump\t// out\n        /* \"#utility.yul\":1576:1798   */\n    tag_26:\n        /* \"#utility.yul\":1669:1673   */\n      0x00\n        /* \"#utility.yul\":1707:1709   */\n      0x20\n        /* \"#utility.yul\":1696:1705   */\n      dup3\n        /* \"#utility.yul\":1692:1710   */\n      add\n        /* \"#utility.yul\":1684:1710   */\n      swap1\n      pop\n        /* \"#utility.yul\":1720:1791   */\n      tag_148\n        /* \"#utility.yul\":1788:1789   */\n      0x00\n        /* \"#utility.yul\":1777:1786   */\n      dup4\n        /* \"#utility.yul\":1773:1790   */\n      add\n        /* \"#utility.yul\":1764:1770   */\n      dup5\n        /* \"#utility.yul\":1720:1791   */\n      tag_105\n      jump\t// in\n    tag_148:\n        /* \"#utility.yul\":1576:1798   */\n      swap3\n      swap2\n      pop\n      pop\n      jump\t// out\n        /* \"#utility.yul\":1804:1910   */\n    tag_106:\n        /* \"#utility.yul\":1848:1856   */\n      0x00\n        /* \"#utility.yul\":1897:1902   */\n      dup2\n        /* \"#utility.yul\":1892:1895   */\n      0xe0\n        /* \"#utility.yul\":1888:1903   */\n      shr\n        /* \"#utility.yul\":1867:1903   */\n      swap1\n      pop\n        /* \"#utility.yul\":1804:1910   */\n      swap2\n      swap1\n      pop\n      jump\t// out\n        /* \"#utility.yul\":1916:2099   */\n    tag_33:\n        /* \"#utility.yul\":1951:1954   */\n      0x00\n        /* \"#utility.yul\":1989:1990   */\n      0x03\n        /* \"#utility.yul\":1971:1987   */\n      returndatasize\n        /* \"#utility.yul\":1968:1991   */\n      gt\n        /* \"#utility.yul\":1965:2093   */\n      iszero\n      tag_151\n      jumpi\n        /* \"#utility.yul\":2027:2028   */\n      0x04\n        /* \"#utility.yul\":2024:2025   */\n      0x00\n        /* \"#utility.yul\":2021:2022   */\n      0x00\n        /* \"#utility.yul\":2006:2029   */\n      returndatacopy\n        /* \"#utility.yul\":2049:2083   */\n      tag_152\n        /* \"#utility.yul\":2080:2081   */\n      0x00\n        /* \"#utility.yul\":2074:2082   */\n      mload\n        /* \"#utility.yul\":2049:2083   */\n      tag_106\n      jump\t// in\n    tag_152:\n        /* \"#utility.yul\":2042:2083   */\n      swap1\n      pop\n        /* \"#utility.yul\":1965:2093   */\n    tag_151:\n        /* \"#utility.yul\":1916:2099   */\n      swap1\n      jump\t// out\n        /* \"#utility.yul\":2105:2207   */\n    tag_107:\n        /* \"#utility.yul\":2146:2152   */\n      0x00\n        /* \"#utility.yul\":2197:2199   */\n      0x1f\n        /* \"#utility.yul\":2193:2200   */\n      not\n        /* \"#utility.yul\":2188:2190   */\n      0x1f\n        /* \"#utility.yul\":2181:2186   */\n      dup4\n        /* \"#utility.yul\":2177:2191   */\n      add\n        /* \"#utility.yul\":2173:2201   */\n      and\n        /* \"#utility.yul\":2163:2201   */\n      swap1\n      pop\n        /* \"#utility.yul\":2105:2207   */\n      swap2\n      swap1\n      pop\n      jump\t// out\n        /* \"#utility.yul\":2213:2393   */\n    tag_108:\n        /* \"#utility.yul\":2261:2338   */\n      0x4e487b7100000000000000000000000000000000000000000000000000000000\n        /* \"#utility.yul\":2258:2259   */\n      0x00\n        /* \"#utility.yul\":2251:2339   */\n      mstore\n        /* \"#utility.yul\":2358:2362   */\n      0x41\n        /* \"#utility.yul\":2355:2356   */\n      0x04\n        /* \"#utility.yul\":2348:2363   */\n      mstore\n        /* \"#utility.yul\":2382:2386   */\n      0x24\n        /* \"#utility.yul\":2379:2380   */\n      0x00\n        /* \"#utility.yul\":2372:2387   */\n      revert\n        /* \"#utility.yul\":2399:2680   */\n    tag_109:\n        /* \"#utility.yul\":2482:2509   */\n      tag_156\n        /* \"#utility.yul\":2504:2508   */\n      dup3\n        /* \"#utility.yul\":2482:2509   */\n      tag_107\n      jump\t// in\n    tag_156:\n        /* \"#utility.yul\":2474:2480   */\n      dup2\n        /* \"#utility.yul\":2470:2510   */\n      add\n        /* \"#utility.yul\":2612:2618   */\n      dup2\n        /* \"#utility.yul\":2600:2610   */\n      dup2\n        /* \"#utility.yul\":2597:2619   */\n      lt\n        /* \"#utility.yul\":2576:2594   */\n      0xffffffffffffffff\n        /* \"#utility.yul\":2564:2574   */\n      dup3\n        /* \"#utility.yul\":2561:2595   */\n      gt\n        /* \"#utility.yul\":2558:2620   */\n      or\n        /* \"#utility.yul\":2555:2643   */\n      iszero\n      tag_157\n      jumpi\n        /* \"#utility.yul\":2623:2641   */\n      tag_158\n      tag_108\n      jump\t// in\n    tag_158:\n        /* \"#utility.yul\":2555:2643   */\n    tag_157:\n        /* \"#utility.yul\":2663:2673   */\n      dup1\n        /* \"#utility.yul\":2659:2661   */\n      0x40\n        /* \"#utility.yul\":2652:2674   */\n      mstore\n        /* \"#utility.yul\":2442:2680   */\n      pop\n        /* \"#utility.yul\":2399:2680   */\n      pop\n      pop\n      jump\t// out\n        /* \"#utility.yul\":2686:3397   */\n    tag_35:\n        /* \"#utility.yul\":2725:2728   */\n      0x00\n        /* \"#utility.yul\":2763:2767   */\n      0x44\n        /* \"#utility.yul\":2745:2761   */\n      returndatasize\n        /* \"#utility.yul\":2742:2768   */\n      lt\n        /* \"#utility.yul\":2771:2776   */\n      tag_159\n        /* \"#utility.yul\":2739:2778   */\n      jumpi\n        /* \"#utility.yul\":2800:2820   */\n      tag_161\n      tag_97\n      jump\t// in\n    tag_161:\n        /* \"#utility.yul\":2875:2876   */\n      0x04\n        /* \"#utility.yul\":2857:2873   */\n      returndatasize\n        /* \"#utility.yul\":2853:2877   */\n      sub\n        /* \"#utility.yul\":2850:2851   */\n      0x04\n        /* \"#utility.yul\":2844:2848   */\n      dup3\n        /* \"#utility.yul\":2829:2878   */\n      returndatacopy\n        /* \"#utility.yul\":2908:2912   */\n      dup1\n        /* \"#utility.yul\":2902:2913   */\n      mload\n        /* \"#utility.yul\":3007:3023   */\n      returndatasize\n        /* \"#utility.yul\":3000:3004   */\n      0x24\n        /* \"#utility.yul\":2992:2998   */\n      dup3\n        /* \"#utility.yul\":2988:3005   */\n      add\n        /* \"#utility.yul\":2985:3024   */\n      gt\n        /* \"#utility.yul\":2952:2970   */\n      0xffffffffffffffff\n        /* \"#utility.yul\":2944:2950   */\n      dup3\n        /* \"#utility.yul\":2941:2971   */\n      gt\n        /* \"#utility.yul\":2925:3038   */\n      or\n        /* \"#utility.yul\":2922:3068   */\n      iszero\n      tag_162\n      jumpi\n        /* \"#utility.yul\":3053:3058   */\n      pop\n      pop\n      jump(tag_159)\n        /* \"#utility.yul\":2922:3068   */\n    tag_162:\n        /* \"#utility.yul\":3099:3105   */\n      dup1\n        /* \"#utility.yul\":3093:3097   */\n      dup3\n        /* \"#utility.yul\":3089:3106   */\n      add\n        /* \"#utility.yul\":3135:3138   */\n      dup1\n        /* \"#utility.yul\":3129:3139   */\n      mload\n        /* \"#utility.yul\":3162:3180   */\n      0xffffffffffffffff\n        /* \"#utility.yul\":3154:3160   */\n      dup2\n        /* \"#utility.yul\":3151:3181   */\n      gt\n        /* \"#utility.yul\":3148:3191   */\n      iszero\n      tag_163\n      jumpi\n        /* \"#utility.yul\":3184:3189   */\n      pop\n      pop\n      pop\n      pop\n      jump(tag_159)\n        /* \"#utility.yul\":3148:3191   */\n    tag_163:\n        /* \"#utility.yul\":3232:3238   */\n      dup1\n        /* \"#utility.yul\":3225:3229   */\n      0x20\n        /* \"#utility.yul\":3220:3223   */\n      dup4\n        /* \"#utility.yul\":3216:3230   */\n      add\n        /* \"#utility.yul\":3212:3239   */\n      add\n        /* \"#utility.yul\":3291:3292   */\n      0x04\n        /* \"#utility.yul\":3273:3289   */\n      returndatasize\n        /* \"#utility.yul\":3269:3293   */\n      sub\n        /* \"#utility.yul\":3263:3267   */\n      dup6\n        /* \"#utility.yul\":3259:3294   */\n      add\n        /* \"#utility.yul\":3254:3257   */\n      dup2\n        /* \"#utility.yul\":3251:3295   */\n      gt\n        /* \"#utility.yul\":3248:3305   */\n      iszero\n      tag_164\n      jumpi\n        /* \"#utility.yul\":3298:3303   */\n      pop\n      pop\n      pop\n      pop\n      pop\n      jump(tag_159)\n        /* \"#utility.yul\":3248:3305   */\n    tag_164:\n        /* \"#utility.yul\":3315:3372   */\n      tag_165\n        /* \"#utility.yul\":3363:3369   */\n      dup3\n        /* \"#utility.yul\":3357:3361   */\n      0x20\n        /* \"#utility.yul\":3353:3370   */\n      add\n        /* \"#utility.yul\":3345:3351   */\n      dup6\n        /* \"#utility.yul\":3341:3371   */\n      add\n        /* \"#utility.yul\":3335:3339   */\n      dup7\n        /* \"#utility.yul\":3315:3372   */\n      tag_109\n      jump\t// in\n    tag_165:\n        /* \"#utility.yul\":3388:3391   */\n      dup3\n        /* \"#utility.yul\":3381:3391   */\n      swap6\n      pop\n        /* \"#utility.yul\":2729:3397   */\n      pop\n      pop\n      pop\n      pop\n      pop\n        /* \"#utility.yul\":2686:3397   */\n    tag_159:\n      swap1\n      jump\t// out\n        /* \"#utility.yul\":3403:3502   */\n    tag_110:\n        /* \"#utility.yul\":3455:3461   */\n      0x00\n        /* \"#utility.yul\":3489:3494   */\n      dup2\n        /* \"#utility.yul\":3483:3495   */\n      mload\n        /* \"#utility.yul\":3473:3495   */\n      swap1\n      pop\n        /* \"#utility.yul\":3403:3502   */\n      swap2\n      swap1\n      pop\n      jump\t// out\n        /* \"#utility.yul\":3508:3677   */\n    tag_111:\n        /* \"#utility.yul\":3592:3603   */\n      0x00\n        /* \"#utility.yul\":3626:3632   */\n      dup3\n        /* \"#utility.yul\":3621:3624   */\n      dup3\n        /* \"#utility.yul\":3614:3633   */\n      mstore\n        /* \"#utility.yul\":3666:3670   */\n      0x20\n        /* \"#utility.yul\":3661:3664   */\n      dup3\n        /* \"#utility.yul\":3657:3671   */\n      add\n        /* \"#utility.yul\":3642:3671   */\n      swap1\n      pop\n        /* \"#utility.yul\":3508:3677   */\n      swap3\n      swap2\n      pop\n      pop\n      jump\t// out\n        /* \"#utility.yul\":3683:3822   */\n    tag_112:\n        /* \"#utility.yul\":3772:3778   */\n      dup3\n        /* \"#utility.yul\":3767:3770   */\n      dup2\n        /* \"#utility.yul\":3762:3765   */\n      dup4\n        /* \"#utility.yul\":3756:3779   */\n      mcopy\n        /* \"#utility.yul\":3813:3814   */\n      0x00\n        /* \"#utility.yul\":3804:3810   */\n      dup4\n        /* \"#utility.yul\":3799:3802   */\n      dup4\n        /* \"#utility.yul\":3795:3811   */\n      add\n        /* \"#utility.yul\":3788:3815   */\n      mstore\n        /* \"#utility.yul\":3683:3822   */\n      pop\n      pop\n      pop\n      jump\t// out\n        /* \"#utility.yul\":3828:4205   */\n    tag_113:\n        /* \"#utility.yul\":3916:3919   */\n      0x00\n        /* \"#utility.yul\":3944:3983   */\n      tag_170\n        /* \"#utility.yul\":3977:3982   */\n      dup3\n        /* \"#utility.yul\":3944:3983   */\n      tag_110\n      jump\t// in\n    tag_170:\n        /* \"#utility.yul\":3999:4070   */\n      tag_171\n        /* \"#utility.yul\":4063:4069   */\n      dup2\n        /* \"#utility.yul\":4058:4061   */\n      dup6\n        /* \"#utility.yul\":3999:4070   */\n      tag_111\n      jump\t// in\n    tag_171:\n        /* \"#utility.yul\":3992:4070   */\n      swap4\n      pop\n        /* \"#utility.yul\":4079:4144   */\n      tag_172\n        /* \"#utility.yul\":4137:4143   */\n      dup2\n        /* \"#utility.yul\":4132:4135   */\n      dup6\n        /* \"#utility.yul\":4125:4129   */\n      0x20\n        /* \"#utility.yul\":4118:4123   */\n      dup7\n        /* \"#utility.yul\":4114:4130   */\n      add\n        /* \"#utility.yul\":4079:4144   */\n      tag_112\n      jump\t// in\n    tag_172:\n        /* \"#utility.yul\":4169:4198   */\n      tag_173\n        /* \"#utility.yul\":4191:4197   */\n      dup2\n        /* \"#utility.yul\":4169:4198   */\n      tag_107\n      jump\t// in\n    tag_173:\n        /* \"#utility.yul\":4164:4167   */\n      dup5\n        /* \"#utility.yul\":4160:4199   */\n      add\n        /* \"#utility.yul\":4153:4199   */\n      swap2\n      pop\n        /* \"#utility.yul\":3920:4205   */\n      pop\n        /* \"#utility.yul\":3828:4205   */\n      swap3\n      swap2\n      pop\n      pop\n      jump\t// out\n        /* \"#utility.yul\":4211:4524   */\n    tag_38:\n        /* \"#utility.yul\":4324:4328   */\n      0x00\n        /* \"#utility.yul\":4362:4364   */\n      0x20\n        /* \"#utility.yul\":4351:4360   */\n      dup3\n        /* \"#utility.yul\":4347:4365   */\n      add\n        /* \"#utility.yul\":4339:4365   */\n      swap1\n      pop\n        /* \"#utility.yul\":4411:4420   */\n      dup2\n        /* \"#utility.yul\":4405:4409   */\n      dup2\n        /* \"#utility.yul\":4401:4421   */\n      sub\n        /* \"#utility.yul\":4397:4398   */\n      0x00\n        /* \"#utility.yul\":4386:4395   */\n      dup4\n        /* \"#utility.yul\":4382:4399   */\n      add\n        /* \"#utility.yul\":4375:4422   */\n      mstore\n        /* \"#utility.yul\":4439:4517   */\n      tag_175\n        /* \"#utility.yul\":4512:4516   */\n      dup2\n        /* \"#utility.yul\":4503:4509   */\n      dup5\n        /* \"#utility.yul\":4439:4517   */\n      tag_113\n      jump\t// in\n    tag_175:\n        /* \"#utility.yul\":4431:4517   */\n      swap1\n      pop\n        /* \"#utility.yul\":4211:4524   */\n      swap3\n      swap2\n      pop\n      pop\n      jump\t// out\n        /* \"#utility.yul\":4530:4628   */\n    tag_114:\n        /* \"#utility.yul\":4581:4587   */\n      0x00\n        /* \"#utility.yul\":4615:4620   */\n      dup2\n        /* \"#utility.yul\":4609:4621   */\n      mload\n        /* \"#utility.yul\":4599:4621   */\n      swap1\n      pop\n        /* \"#utility.yul\":4530:4628   */\n      swap2\n      swap1\n      pop\n      jump\t// out\n        /* \"#utility.yul\":4634:4802   */\n    tag_115:\n        /* \"#utility.yul\":4717:4728   */\n      0x00\n        /* \"#utility.yul\":4751:4757   */\n      dup3\n        /* \"#utility.yul\":4746:4749   */\n      dup3\n        /* \"#utility.yul\":4739:4758   */\n      mstore\n        /* \"#utility.yul\":4791:4795   */\n      0x20\n        /* \"#utility.yul\":4786:4789   */\n      dup3\n        /* \"#utility.yul\":4782:4796   */\n      add\n        /* \"#utility.yul\":4767:4796   */\n      swap1\n      pop\n        /* \"#utility.yul\":4634:4802   */\n      swap3\n      swap2\n      pop\n      pop\n      jump\t// out\n        /* \"#utility.yul\":4808:5181   */\n    tag_116:\n        /* \"#utility.yul\":4894:4897   */\n      0x00\n        /* \"#utility.yul\":4922:4960   */\n      tag_179\n        /* \"#utility.yul\":4954:4959   */\n      dup3\n        /* \"#utility.yul\":4922:4960   */\n      tag_114\n      jump\t// in\n    tag_179:\n        /* \"#utility.yul\":4976:5046   */\n      tag_180\n        /* \"#utility.yul\":5039:5045   */\n      dup2\n        /* \"#utility.yul\":5034:5037   */\n      dup6\n        /* \"#utility.yul\":4976:5046   */\n      tag_115\n      jump\t// in\n    tag_180:\n        /* \"#utility.yul\":4969:5046   */\n      swap4\n      pop\n        /* \"#utility.yul\":5055:5120   */\n      tag_181\n        /* \"#utility.yul\":5113:5119   */\n      dup2\n        /* \"#utility.yul\":5108:5111   */\n      dup6\n        /* \"#utility.yul\":5101:5105   */\n      0x20\n        /* \"#utility.yul\":5094:5099   */\n      dup7\n        /* \"#utility.yul\":5090:5106   */\n      add\n        /* \"#utility.yul\":5055:5120   */\n      tag_112\n      jump\t// in\n    tag_181:\n        /* \"#utility.yul\":5145:5174   */\n      tag_182\n        /* \"#utility.yul\":5167:5173   */\n      dup2\n        /* \"#utility.yul\":5145:5174   */\n      tag_107\n      jump\t// in\n    tag_182:\n        /* \"#utility.yul\":5140:5143   */\n      dup5\n        /* \"#utility.yul\":5136:5175   */\n      add\n        /* \"#utility.yul\":5129:5175   */\n      swap2\n      pop\n        /* \"#utility.yul\":4898:5181   */\n      pop\n        /* \"#utility.yul\":4808:5181   */\n      swap3\n      swap2\n      pop\n      pop\n      jump\t// out\n        /* \"#utility.yul\":5187:5496   */\n    tag_42:\n        /* \"#utility.yul\":5298:5302   */\n      0x00\n        /* \"#utility.yul\":5336:5338   */\n      0x20\n        /* \"#utility.yul\":5325:5334   */\n      dup3\n        /* \"#utility.yul\":5321:5339   */\n      add\n        /* \"#utility.yul\":5313:5339   */\n      swap1\n      pop\n        /* \"#utility.yul\":5385:5394   */\n      dup2\n        /* \"#utility.yul\":5379:5383   */\n      dup2\n        /* \"#utility.yul\":5375:5395   */\n      sub\n        /* \"#utility.yul\":5371:5372   */\n      0x00\n        /* \"#utility.yul\":5360:5369   */\n      dup4\n        /* \"#utility.yul\":5356:5373   */\n      add\n        /* \"#utility.yul\":5349:5396   */\n      mstore\n        /* \"#utility.yul\":5413:5489   */\n      tag_184\n        /* \"#utility.yul\":5484:5488   */\n      dup2\n        /* \"#utility.yul\":5475:5481   */\n      dup5\n        /* \"#utility.yul\":5413:5489   */\n      tag_116\n      jump\t// in\n    tag_184:\n        /* \"#utility.yul\":5405:5489   */\n      swap1\n      pop\n        /* \"#utility.yul\":5187:5496   */\n      swap3\n      swap2\n      pop\n      pop\n      jump\t// out\n        /* \"#utility.yul\":5502:5618   */\n    tag_117:\n        /* \"#utility.yul\":5572:5593   */\n      tag_186\n        /* \"#utility.yul\":5587:5592   */\n      dup2\n        /* \"#utility.yul\":5572:5593   */\n      tag_103\n      jump\t// in\n    tag_186:\n        /* \"#utility.yul\":5565:5570   */\n      dup2\n        /* \"#utility.yul\":5562:5594   */\n      eq\n        /* \"#utility.yul\":5552:5612   */\n      tag_187\n      jumpi\n        /* \"#utility.yul\":5608:5609   */\n      0x00\n        /* \"#utility.yul\":5605:5606   */\n      0x00\n        /* \"#utility.yul\":5598:5610   */\n      revert\n        /* \"#utility.yul\":5552:5612   */\n    tag_187:\n        /* \"#utility.yul\":5502:5618   */\n      pop\n      jump\t// out\n        /* \"#utility.yul\":5624:5761   */\n    tag_118:\n        /* \"#utility.yul\":5678:5683   */\n      0x00\n        /* \"#utility.yul\":5709:5715   */\n      dup2\n        /* \"#utility.yul\":5703:5716   */\n      mload\n        /* \"#utility.yul\":5694:5716   */\n      swap1\n      pop\n        /* \"#utility.yul\":5725:5755   */\n      tag_189\n        /* \"#utility.yul\":5749:5754   */\n      dup2\n        /* \"#utility.yul\":5725:5755   */\n      tag_117\n      jump\t// in\n    tag_189:\n        /* \"#utility.yul\":5624:5761   */\n      swap3\n      swap2\n      pop\n      pop\n      jump\t// out\n        /* \"#utility.yul\":5767:6112   */\n    tag_48:\n        /* \"#utility.yul\":5834:5840   */\n      0x00\n        /* \"#utility.yul\":5883:5885   */\n      0x20\n        /* \"#utility.yul\":5871:5880   */\n      dup3\n        /* \"#utility.yul\":5862:5869   */\n      dup5\n        /* \"#utility.yul\":5858:5881   */\n      sub\n        /* \"#utility.yul\":5854:5886   */\n      slt\n        /* \"#utility.yul\":5851:5970   */\n      iszero\n      tag_191\n      jumpi\n        /* \"#utility.yul\":5889:5968   */\n      tag_192\n      tag_98\n      jump\t// in\n    tag_192:\n        /* \"#utility.yul\":5851:5970   */\n    tag_191:\n        /* \"#utility.yul\":6009:6010   */\n      0x00\n        /* \"#utility.yul\":6034:6095   */\n      tag_193\n        /* \"#utility.yul\":6087:6094   */\n      dup5\n        /* \"#utility.yul\":6078:6084   */\n      dup3\n        /* \"#utility.yul\":6067:6076   */\n      dup6\n        /* \"#utility.yul\":6063:6085   */\n      add\n        /* \"#utility.yul\":6034:6095   */\n      tag_118\n      jump\t// in\n    tag_193:\n        /* \"#utility.yul\":6024:6095   */\n      swap2\n      pop\n        /* \"#utility.yul\":5980:6105   */\n      pop\n        /* \"#utility.yul\":5767:6112   */\n      swap3\n      swap2\n      pop\n      pop\n      jump\t// out\n        /* \"#utility.yul\":6118:6203   */\n    tag_119:\n        /* \"#utility.yul\":6163:6170   */\n      0x00\n        /* \"#utility.yul\":6192:6197   */\n      dup2\n        /* \"#utility.yul\":6181:6197   */\n      swap1\n      pop\n        /* \"#utility.yul\":6118:6203   */\n      swap2\n      swap1\n      pop\n      jump\t// out\n        /* \"#utility.yul\":6209:6269   */\n    tag_120:\n        /* \"#utility.yul\":6237:6240   */\n      0x00\n        /* \"#utility.yul\":6258:6263   */\n      dup2\n        /* \"#utility.yul\":6251:6263   */\n      swap1\n      pop\n        /* \"#utility.yul\":6209:6269   */\n      swap2\n      swap1\n      pop\n      jump\t// out\n        /* \"#utility.yul\":6275:6433   */\n    tag_121:\n        /* \"#utility.yul\":6333:6342   */\n      0x00\n        /* \"#utility.yul\":6366:6427   */\n      tag_197\n        /* \"#utility.yul\":6384:6426   */\n      tag_198\n        /* \"#utility.yul\":6393:6425   */\n      tag_199\n        /* \"#utility.yul\":6419:6424   */\n      dup5\n        /* \"#utility.yul\":6393:6425   */\n      tag_119\n      jump\t// in\n    tag_199:\n        /* \"#utility.yul\":6384:6426   */\n      tag_120\n      jump\t// in\n    tag_198:\n        /* \"#utility.yul\":6366:6427   */\n      tag_100\n      jump\t// in\n    tag_197:\n        /* \"#utility.yul\":6353:6427   */\n      swap1\n      pop\n        /* \"#utility.yul\":6275:6433   */\n      swap2\n      swap1\n      pop\n      jump\t// out\n        /* \"#utility.yul\":6439:6586   */\n    tag_122:\n        /* \"#utility.yul\":6534:6579   */\n      tag_201\n        /* \"#utility.yul\":6573:6578   */\n      dup2\n        /* \"#utility.yul\":6534:6579   */\n      tag_121\n      jump\t// in\n    tag_201:\n        /* \"#utility.yul\":6529:6532   */\n      dup3\n        /* \"#utility.yul\":6522:6580   */\n      mstore\n        /* \"#utility.yul\":6439:6586   */\n      pop\n      pop\n      jump\t// out\n        /* \"#utility.yul\":6592:6830   */\n    tag_53:\n        /* \"#utility.yul\":6693:6697   */\n      0x00\n        /* \"#utility.yul\":6731:6733   */\n      0x20\n        /* \"#utility.yul\":6720:6729   */\n      dup3\n        /* \"#utility.yul\":6716:6734   */\n      add\n        /* \"#utility.yul\":6708:6734   */\n      swap1\n      pop\n        /* \"#utility.yul\":6744:6823   */\n      tag_203\n        /* \"#utility.yul\":6820:6821   */\n      0x00\n        /* \"#utility.yul\":6809:6818   */\n      dup4\n        /* \"#utility.yul\":6805:6822   */\n      add\n        /* \"#utility.yul\":6796:6802   */\n      dup5\n        /* \"#utility.yul\":6744:6823   */\n      tag_122\n      jump\t// in\n    tag_203:\n        /* \"#utility.yul\":6592:6830   */\n      swap3\n      swap2\n      pop\n      pop\n      jump\t// out\n        /* \"#utility.yul\":6836:6921   */\n    tag_123:\n        /* \"#utility.yul\":6881:6888   */\n      0x00\n        /* \"#utility.yul\":6910:6915   */\n      dup2\n        /* \"#utility.yul\":6899:6915   */\n      swap1\n      pop\n        /* \"#utility.yul\":6836:6921   */\n      swap2\n      swap1\n      pop\n      jump\t// out\n        /* \"#utility.yul\":6927:7085   */\n    tag_124:\n        /* \"#utility.yul\":6985:6994   */\n      0x00\n        /* \"#utility.yul\":7018:7079   */\n      tag_206\n        /* \"#utility.yul\":7036:7078   */\n      tag_207\n        /* \"#utility.yul\":7045:7077   */\n      tag_208\n        /* \"#utility.yul\":7071:7076   */\n      dup5\n        /* \"#utility.yul\":7045:7077   */\n      tag_123\n      jump\t// in\n    tag_208:\n        /* \"#utility.yul\":7036:7078   */\n      tag_120\n      jump\t// in\n    tag_207:\n        /* \"#utility.yul\":7018:7079   */\n      tag_100\n      jump\t// in\n    tag_206:\n        /* \"#utility.yul\":7005:7079   */\n      swap1\n      pop\n        /* \"#utility.yul\":6927:7085   */\n      swap2\n      swap1\n      pop\n      jump\t// out\n        /* \"#utility.yul\":7091:7238   */\n    tag_125:\n        /* \"#utility.yul\":7186:7231   */\n      tag_210\n        /* \"#utility.yul\":7225:7230   */\n      dup2\n        /* \"#utility.yul\":7186:7231   */\n      tag_124\n      jump\t// in\n    tag_210:\n        /* \"#utility.yul\":7181:7184   */\n      dup3\n        /* \"#utility.yul\":7174:7232   */\n      mstore\n        /* \"#utility.yul\":7091:7238   */\n      pop\n      pop\n      jump\t// out\n        /* \"#utility.yul\":7244:7482   */\n    tag_69:\n        /* \"#utility.yul\":7345:7349   */\n      0x00\n        /* \"#utility.yul\":7383:7385   */\n      0x20\n        /* \"#utility.yul\":7372:7381   */\n      dup3\n        /* \"#utility.yul\":7368:7386   */\n      add\n        /* \"#utility.yul\":7360:7386   */\n      swap1\n      pop\n        /* \"#utility.yul\":7396:7475   */\n      tag_212\n        /* \"#utility.yul\":7472:7473   */\n      0x00\n        /* \"#utility.yul\":7461:7470   */\n      dup4\n        /* \"#utility.yul\":7457:7474   */\n      add\n        /* \"#utility.yul\":7448:7454   */\n      dup5\n        /* \"#utility.yul\":7396:7475   */\n      tag_125\n      jump\t// in\n    tag_212:\n        /* \"#utility.yul\":7244:7482   */\n      swap3\n      swap2\n      pop\n      pop\n      jump\t// out\n    stop\n\n    sub_0: assembly {\n            /* \"TraCatch.sol\":61:373  contract OnlyEven {... */\n          mstore(0x40, 0x80)\n            /* \"TraCatch.sol\":86:182  constructor(uint a){... */\n          callvalue\n          dup1\n          iszero\n          tag_1\n          jumpi\n          revert(0x00, 0x00)\n        tag_1:\n          pop\n          mload(0x40)\n          sub(codesize, bytecodeSize)\n          dup1\n          bytecodeSize\n          dup4\n          codecopy\n          dup2\n          dup2\n          add\n          0x40\n          mstore\n          dup2\n          add\n          swap1\n          tag_2\n          swap2\n          swap1\n          tag_3\n          jump\t// in\n        tag_2:\n            /* \"TraCatch.sol\":129:130  0 */\n          0x00\n            /* \"TraCatch.sol\":124:125  a */\n          dup2\n            /* \"TraCatch.sol\":124:130  a != 0 */\n          sub\n            /* \"TraCatch.sol\":116:149  require(a != 0, \"invalid number\") */\n          tag_6\n          jumpi\n          mload(0x40)\n          0x08c379a000000000000000000000000000000000000000000000000000000000\n          dup2\n          mstore\n          0x04\n          add\n          tag_7\n          swap1\n          tag_8\n          jump\t// in\n        tag_7:\n          mload(0x40)\n          dup1\n          swap2\n          sub\n          swap1\n          revert\n        tag_6:\n            /* \"TraCatch.sol\":172:173  1 */\n          0x01\n            /* \"TraCatch.sol\":167:168  a */\n          dup2\n            /* \"TraCatch.sol\":167:173  a != 1 */\n          sub\n            /* \"TraCatch.sol\":160:174  assert(a != 1) */\n          tag_9\n          jumpi\n          tag_10\n          tag_11\n          jump\t// in\n        tag_10:\n        tag_9:\n            /* \"TraCatch.sol\":86:182  constructor(uint a){... */\n          pop\n            /* \"TraCatch.sol\":61:373  contract OnlyEven {... */\n          jump(tag_12)\n            /* \"#utility.yul\":88:205   */\n        tag_14:\n            /* \"#utility.yul\":197:198   */\n          0x00\n            /* \"#utility.yul\":194:195   */\n          0x00\n            /* \"#utility.yul\":187:199   */\n          revert\n            /* \"#utility.yul\":334:411   */\n        tag_16:\n            /* \"#utility.yul\":371:378   */\n          0x00\n            /* \"#utility.yul\":400:405   */\n          dup2\n            /* \"#utility.yul\":389:405   */\n          swap1\n          pop\n            /* \"#utility.yul\":334:411   */\n          swap2\n          swap1\n          pop\n          jump\t// out\n            /* \"#utility.yul\":417:539   */\n        tag_17:\n            /* \"#utility.yul\":490:514   */\n          tag_28\n            /* \"#utility.yul\":508:513   */\n          dup2\n            /* \"#utility.yul\":490:514   */\n          tag_16\n          jump\t// in\n        tag_28:\n            /* \"#utility.yul\":483:488   */\n          dup2\n            /* \"#utility.yul\":480:515   */\n          eq\n            /* \"#utility.yul\":470:533   */\n          tag_29\n          jumpi\n            /* \"#utility.yul\":529:530   */\n          0x00\n            /* \"#utility.yul\":526:527   */\n          0x00\n            /* \"#utility.yul\":519:531   */\n          revert\n            /* \"#utility.yul\":470:533   */\n        tag_29:\n            /* \"#utility.yul\":417:539   */\n          pop\n          jump\t// out\n            /* \"#utility.yul\":545:688   */\n        tag_18:\n            /* \"#utility.yul\":602:607   */\n          0x00\n            /* \"#utility.yul\":633:639   */\n          dup2\n            /* \"#utility.yul\":627:640   */\n          mload\n            /* \"#utility.yul\":618:640   */\n          swap1\n          pop\n            /* \"#utility.yul\":649:682   */\n          tag_31\n            /* \"#utility.yul\":676:681   */\n          dup2\n            /* \"#utility.yul\":649:682   */\n          tag_17\n          jump\t// in\n        tag_31:\n            /* \"#utility.yul\":545:688   */\n          swap3\n          swap2\n          pop\n          pop\n          jump\t// out\n            /* \"#utility.yul\":694:1045   */\n        tag_3:\n            /* \"#utility.yul\":764:770   */\n          0x00\n            /* \"#utility.yul\":813:815   */\n          0x20\n            /* \"#utility.yul\":801:810   */\n          dup3\n            /* \"#utility.yul\":792:799   */\n          dup5\n            /* \"#utility.yul\":788:811   */\n          sub\n            /* \"#utility.yul\":784:816   */\n          slt\n            /* \"#utility.yul\":781:900   */\n          iszero\n          tag_33\n          jumpi\n            /* \"#utility.yul\":819:898   */\n          tag_34\n          tag_14\n          jump\t// in\n        tag_34:\n            /* \"#utility.yul\":781:900   */\n        tag_33:\n            /* \"#utility.yul\":939:940   */\n          0x00\n            /* \"#utility.yul\":964:1028   */\n          tag_35\n            /* \"#utility.yul\":1020:1027   */\n          dup5\n            /* \"#utility.yul\":1011:1017   */\n          dup3\n            /* \"#utility.yul\":1000:1009   */\n          dup6\n            /* \"#utility.yul\":996:1018   */\n          add\n            /* \"#utility.yul\":964:1028   */\n          tag_18\n          jump\t// in\n        tag_35:\n            /* \"#utility.yul\":954:1028   */\n          swap2\n          pop\n            /* \"#utility.yul\":910:1038   */\n          pop\n            /* \"#utility.yul\":694:1045   */\n          swap3\n          swap2\n          pop\n          pop\n          jump\t// out\n            /* \"#utility.yul\":1051:1220   */\n        tag_19:\n            /* \"#utility.yul\":1135:1146   */\n          0x00\n            /* \"#utility.yul\":1169:1175   */\n          dup3\n            /* \"#utility.yul\":1164:1167   */\n          dup3\n            /* \"#utility.yul\":1157:1176   */\n          mstore\n            /* \"#utility.yul\":1209:1213   */\n          0x20\n            /* \"#utility.yul\":1204:1207   */\n          dup3\n            /* \"#utility.yul\":1200:1214   */\n          add\n            /* \"#utility.yul\":1185:1214   */\n          swap1\n          pop\n            /* \"#utility.yul\":1051:1220   */\n          swap3\n          swap2\n          pop\n          pop\n          jump\t// out\n            /* \"#utility.yul\":1226:1390   */\n        tag_20:\n            /* \"#utility.yul\":1366:1382   */\n          0x696e76616c6964206e756d626572000000000000000000000000000000000000\n            /* \"#utility.yul\":1362:1363   */\n          0x00\n            /* \"#utility.yul\":1354:1360   */\n          dup3\n            /* \"#utility.yul\":1350:1364   */\n          add\n            /* \"#utility.yul\":1343:1383   */\n          mstore\n            /* \"#utility.yul\":1226:1390   */\n          pop\n          jump\t// out\n            /* \"#utility.yul\":1396:1762   */\n        tag_21:\n            /* \"#utility.yul\":1538:1541   */\n          0x00\n            /* \"#utility.yul\":1559:1626   */\n          tag_39\n            /* \"#utility.yul\":1623:1625   */\n          0x0e\n            /* \"#utility.yul\":1618:1621   */\n          dup4\n            /* \"#utility.yul\":1559:1626   */\n          tag_19\n          jump\t// in\n        tag_39:\n            /* \"#utility.yul\":1552:1626   */\n          swap2\n          pop\n            /* \"#utility.yul\":1635:1728   */\n          tag_40\n            /* \"#utility.yul\":1724:1727   */\n          dup3\n            /* \"#utility.yul\":1635:1728   */\n          tag_20\n          jump\t// in\n        tag_40:\n            /* \"#utility.yul\":1753:1755   */\n          0x20\n            /* \"#utility.yul\":1748:1751   */\n          dup3\n            /* \"#utility.yul\":1744:1756   */\n          add\n            /* \"#utility.yul\":1737:1756   */\n          swap1\n          pop\n            /* \"#utility.yul\":1396:1762   */\n          swap2\n          swap1\n          pop\n          jump\t// out\n            /* \"#utility.yul\":1768:2187   */\n        tag_8:\n            /* \"#utility.yul\":1934:1938   */\n          0x00\n            /* \"#utility.yul\":1972:1974   */\n          0x20\n            /* \"#utility.yul\":1961:1970   */\n          dup3\n            /* \"#utility.yul\":1957:1975   */\n          add\n            /* \"#utility.yul\":1949:1975   */\n          swap1\n          pop\n            /* \"#utility.yul\":2021:2030   */\n          dup2\n            /* \"#utility.yul\":2015:2019   */\n          dup2\n            /* \"#utility.yul\":2011:2031   */\n          sub\n            /* \"#utility.yul\":2007:2008   */\n          0x00\n            /* \"#utility.yul\":1996:2005   */\n          dup4\n            /* \"#utility.yul\":1992:2009   */\n          add\n            /* \"#utility.yul\":1985:2032   */\n          mstore\n            /* \"#utility.yul\":2049:2180   */\n          tag_42\n            /* \"#utility.yul\":2175:2179   */\n          dup2\n            /* \"#utility.yul\":2049:2180   */\n          tag_21\n          jump\t// in\n        tag_42:\n            /* \"#utility.yul\":2041:2180   */\n          swap1\n          pop\n            /* \"#utility.yul\":1768:2187   */\n          swap2\n          swap1\n          pop\n          jump\t// out\n            /* \"#utility.yul\":2193:2373   */\n        tag_11:\n            /* \"#utility.yul\":2241:2318   */\n          0x4e487b7100000000000000000000000000000000000000000000000000000000\n            /* \"#utility.yul\":2238:2239   */\n          0x00\n            /* \"#utility.yul\":2231:2319   */\n          mstore\n            /* \"#utility.yul\":2338:2342   */\n          0x01\n            /* \"#utility.yul\":2335:2336   */\n          0x04\n            /* \"#utility.yul\":2328:2343   */\n          mstore\n            /* \"#utility.yul\":2362:2366   */\n          0x24\n            /* \"#utility.yul\":2359:2360   */\n          0x00\n            /* \"#utility.yul\":2352:2367   */\n          revert\n            /* \"TraCatch.sol\":61:373  contract OnlyEven {... */\n        tag_12:\n          dataSize(sub_0)\n          dup1\n          dataOffset(sub_0)\n          0x00\n          codecopy\n          0x00\n          return\n        stop\n\n        sub_0: assembly {\n                /* \"TraCatch.sol\":61:373  contract OnlyEven {... */\n              mstore(0x40, 0x80)\n              callvalue\n              dup1\n              iszero\n              tag_1\n              jumpi\n              revert(0x00, 0x00)\n            tag_1:\n              pop\n              jumpi(tag_2, lt(calldatasize, 0x04))\n              shr(0xe0, calldataload(0x00))\n              dup1\n              0xce0b4213\n              eq\n              tag_3\n              jumpi\n            tag_2:\n              revert(0x00, 0x00)\n                /* \"TraCatch.sol\":190:370  function onlyEven(uint256 b) external pure returns (bool success){... */\n            tag_3:\n              tag_4\n              0x04\n              dup1\n              calldatasize\n              sub\n              dup2\n              add\n              swap1\n              tag_5\n              swap2\n              swap1\n              tag_6\n              jump\t// in\n            tag_5:\n              tag_7\n              jump\t// in\n            tag_4:\n              mload(0x40)\n              tag_8\n              swap2\n              swap1\n              tag_9\n              jump\t// in\n            tag_8:\n              mload(0x40)\n              dup1\n              swap2\n              sub\n              swap1\n              return\n            tag_7:\n                /* \"TraCatch.sol\":242:254  bool success */\n              0x00\n                /* \"TraCatch.sol\":317:318  0 */\n              0x00\n                /* \"TraCatch.sol\":312:313  2 */\n              0x02\n                /* \"TraCatch.sol\":308:309  b */\n              dup4\n                /* \"TraCatch.sol\":308:313  b % 2 */\n              tag_11\n              swap2\n              swap1\n              tag_12\n              jump\t// in\n            tag_11:\n                /* \"TraCatch.sol\":308:318  b % 2 == 0 */\n              eq\n                /* \"TraCatch.sol\":300:337  require(b % 2 == 0, \"Ups! Reverting\") */\n              tag_13\n              jumpi\n              mload(0x40)\n              0x08c379a000000000000000000000000000000000000000000000000000000000\n              dup2\n              mstore\n              0x04\n              add\n              tag_14\n              swap1\n              tag_15\n              jump\t// in\n            tag_14:\n              mload(0x40)\n              dup1\n              swap2\n              sub\n              swap1\n              revert\n            tag_13:\n                /* \"TraCatch.sol\":358:362  true */\n              0x01\n                /* \"TraCatch.sol\":348:362  success = true */\n              swap1\n              pop\n                /* \"TraCatch.sol\":190:370  function onlyEven(uint256 b) external pure returns (bool success){... */\n              swap2\n              swap1\n              pop\n              jump\t// out\n                /* \"#utility.yul\":88:205   */\n            tag_17:\n                /* \"#utility.yul\":197:198   */\n              0x00\n                /* \"#utility.yul\":194:195   */\n              0x00\n                /* \"#utility.yul\":187:199   */\n              revert\n                /* \"#utility.yul\":334:411   */\n            tag_19:\n                /* \"#utility.yul\":371:378   */\n              0x00\n                /* \"#utility.yul\":400:405   */\n              dup2\n                /* \"#utility.yul\":389:405   */\n              swap1\n              pop\n                /* \"#utility.yul\":334:411   */\n              swap2\n              swap1\n              pop\n              jump\t// out\n                /* \"#utility.yul\":417:539   */\n            tag_20:\n                /* \"#utility.yul\":490:514   */\n              tag_34\n                /* \"#utility.yul\":508:513   */\n              dup2\n                /* \"#utility.yul\":490:514   */\n              tag_19\n              jump\t// in\n            tag_34:\n                /* \"#utility.yul\":483:488   */\n              dup2\n                /* \"#utility.yul\":480:515   */\n              eq\n                /* \"#utility.yul\":470:533   */\n              tag_35\n              jumpi\n                /* \"#utility.yul\":529:530   */\n              0x00\n                /* \"#utility.yul\":526:527   */\n              0x00\n                /* \"#utility.yul\":519:531   */\n              revert\n                /* \"#utility.yul\":470:533   */\n            tag_35:\n                /* \"#utility.yul\":417:539   */\n              pop\n              jump\t// out\n                /* \"#utility.yul\":545:684   */\n            tag_21:\n                /* \"#utility.yul\":591:596   */\n              0x00\n                /* \"#utility.yul\":629:635   */\n              dup2\n                /* \"#utility.yul\":616:636   */\n              calldataload\n                /* \"#utility.yul\":607:636   */\n              swap1\n              pop\n                /* \"#utility.yul\":645:678   */\n              tag_37\n                /* \"#utility.yul\":672:677   */\n              dup2\n                /* \"#utility.yul\":645:678   */\n              tag_20\n              jump\t// in\n            tag_37:\n                /* \"#utility.yul\":545:684   */\n              swap3\n              swap2\n              pop\n              pop\n              jump\t// out\n                /* \"#utility.yul\":690:1019   */\n            tag_6:\n                /* \"#utility.yul\":749:755   */\n              0x00\n                /* \"#utility.yul\":798:800   */\n              0x20\n                /* \"#utility.yul\":786:795   */\n              dup3\n                /* \"#utility.yul\":777:784   */\n              dup5\n                /* \"#utility.yul\":773:796   */\n              sub\n                /* \"#utility.yul\":769:801   */\n              slt\n                /* \"#utility.yul\":766:885   */\n              iszero\n              tag_39\n              jumpi\n                /* \"#utility.yul\":804:883   */\n              tag_40\n              tag_17\n              jump\t// in\n            tag_40:\n                /* \"#utility.yul\":766:885   */\n            tag_39:\n                /* \"#utility.yul\":924:925   */\n              0x00\n                /* \"#utility.yul\":949:1002   */\n              tag_41\n                /* \"#utility.yul\":994:1001   */\n              dup5\n                /* \"#utility.yul\":985:991   */\n              dup3\n                /* \"#utility.yul\":974:983   */\n              dup6\n                /* \"#utility.yul\":970:992   */\n              add\n                /* \"#utility.yul\":949:1002   */\n              tag_21\n              jump\t// in\n            tag_41:\n                /* \"#utility.yul\":939:1002   */\n              swap2\n              pop\n                /* \"#utility.yul\":895:1012   */\n              pop\n                /* \"#utility.yul\":690:1019   */\n              swap3\n              swap2\n              pop\n              pop\n              jump\t// out\n                /* \"#utility.yul\":1025:1115   */\n            tag_22:\n                /* \"#utility.yul\":1059:1066   */\n              0x00\n                /* \"#utility.yul\":1102:1107   */\n              dup2\n                /* \"#utility.yul\":1095:1108   */\n              iszero\n                /* \"#utility.yul\":1088:1109   */\n              iszero\n                /* \"#utility.yul\":1077:1109   */\n              swap1\n              pop\n                /* \"#utility.yul\":1025:1115   */\n              swap2\n              swap1\n              pop\n              jump\t// out\n                /* \"#utility.yul\":1121:1230   */\n            tag_23:\n                /* \"#utility.yul\":1202:1223   */\n              tag_44\n                /* \"#utility.yul\":1217:1222   */\n              dup2\n                /* \"#utility.yul\":1202:1223   */\n              tag_22\n              jump\t// in\n            tag_44:\n                /* \"#utility.yul\":1197:1200   */\n              dup3\n                /* \"#utility.yul\":1190:1224   */\n              mstore\n                /* \"#utility.yul\":1121:1230   */\n              pop\n              pop\n              jump\t// out\n                /* \"#utility.yul\":1236:1446   */\n            tag_9:\n                /* \"#utility.yul\":1323:1327   */\n              0x00\n                /* \"#utility.yul\":1361:1363   */\n              0x20\n                /* \"#utility.yul\":1350:1359   */\n              dup3\n                /* \"#utility.yul\":1346:1364   */\n              add\n                /* \"#utility.yul\":1338:1364   */\n              swap1\n              pop\n                /* \"#utility.yul\":1374:1439   */\n              tag_46\n                /* \"#utility.yul\":1436:1437   */\n              0x00\n                /* \"#utility.yul\":1425:1434   */\n              dup4\n                /* \"#utility.yul\":1421:1438   */\n              add\n                /* \"#utility.yul\":1412:1418   */\n              dup5\n                /* \"#utility.yul\":1374:1439   */\n              tag_23\n              jump\t// in\n            tag_46:\n                /* \"#utility.yul\":1236:1446   */\n              swap3\n              swap2\n              pop\n              pop\n              jump\t// out\n                /* \"#utility.yul\":1452:1632   */\n            tag_24:\n                /* \"#utility.yul\":1500:1577   */\n              0x4e487b7100000000000000000000000000000000000000000000000000000000\n                /* \"#utility.yul\":1497:1498   */\n              0x00\n                /* \"#utility.yul\":1490:1578   */\n              mstore\n                /* \"#utility.yul\":1597:1601   */\n              0x12\n                /* \"#utility.yul\":1594:1595   */\n              0x04\n                /* \"#utility.yul\":1587:1602   */\n              mstore\n                /* \"#utility.yul\":1621:1625   */\n              0x24\n                /* \"#utility.yul\":1618:1619   */\n              0x00\n                /* \"#utility.yul\":1611:1626   */\n              revert\n                /* \"#utility.yul\":1638:1814   */\n            tag_12:\n                /* \"#utility.yul\":1670:1671   */\n              0x00\n                /* \"#utility.yul\":1687:1707   */\n              tag_49\n                /* \"#utility.yul\":1705:1706   */\n              dup3\n                /* \"#utility.yul\":1687:1707   */\n              tag_19\n              jump\t// in\n            tag_49:\n                /* \"#utility.yul\":1682:1707   */\n              swap2\n              pop\n                /* \"#utility.yul\":1721:1741   */\n              tag_50\n                /* \"#utility.yul\":1739:1740   */\n              dup4\n                /* \"#utility.yul\":1721:1741   */\n              tag_19\n              jump\t// in\n            tag_50:\n                /* \"#utility.yul\":1716:1741   */\n              swap3\n              pop\n                /* \"#utility.yul\":1760:1761   */\n              dup3\n                /* \"#utility.yul\":1750:1785   */\n              tag_51\n              jumpi\n                /* \"#utility.yul\":1765:1783   */\n              tag_52\n              tag_24\n              jump\t// in\n            tag_52:\n                /* \"#utility.yul\":1750:1785   */\n            tag_51:\n                /* \"#utility.yul\":1806:1807   */\n              dup3\n                /* \"#utility.yul\":1803:1804   */\n              dup3\n                /* \"#utility.yul\":1799:1808   */\n              mod\n                /* \"#utility.yul\":1794:1808   */\n              swap1\n              pop\n                /* \"#utility.yul\":1638:1814   */\n              swap3\n              swap2\n              pop\n              pop\n              jump\t// out\n                /* \"#utility.yul\":1820:1989   */\n            tag_25:\n                /* \"#utility.yul\":1904:1915   */\n              0x00\n                /* \"#utility.yul\":1938:1944   */\n              dup3\n                /* \"#utility.yul\":1933:1936   */\n              dup3\n                /* \"#utility.yul\":1926:1945   */\n              mstore\n                /* \"#utility.yul\":1978:1982   */\n              0x20\n                /* \"#utility.yul\":1973:1976   */\n              dup3\n                /* \"#utility.yul\":1969:1983   */\n              add\n                /* \"#utility.yul\":1954:1983   */\n              swap1\n              pop\n                /* \"#utility.yul\":1820:1989   */\n              swap3\n              swap2\n              pop\n              pop\n              jump\t// out\n                /* \"#utility.yul\":1995:2159   */\n            tag_26:\n                /* \"#utility.yul\":2135:2151   */\n              0x5570732120526576657274696e67000000000000000000000000000000000000\n                /* \"#utility.yul\":2131:2132   */\n              0x00\n                /* \"#utility.yul\":2123:2129   */\n              dup3\n                /* \"#utility.yul\":2119:2133   */\n              add\n                /* \"#utility.yul\":2112:2152   */\n              mstore\n                /* \"#utility.yul\":1995:2159   */\n              pop\n              jump\t// out\n                /* \"#utility.yul\":2165:2531   */\n            tag_27:\n                /* \"#utility.yul\":2307:2310   */\n              0x00\n                /* \"#utility.yul\":2328:2395   */\n              tag_56\n                /* \"#utility.yul\":2392:2394   */\n              0x0e\n                /* \"#utility.yul\":2387:2390   */\n              dup4\n                /* \"#utility.yul\":2328:2395   */\n              tag_25\n              jump\t// in\n            tag_56:\n                /* \"#utility.yul\":2321:2395   */\n              swap2\n              pop\n                /* \"#utility.yul\":2404:2497   */\n              tag_57\n                /* \"#utility.yul\":2493:2496   */\n              dup3\n                /* \"#utility.yul\":2404:2497   */\n              tag_26\n              jump\t// in\n            tag_57:\n                /* \"#utility.yul\":2522:2524   */\n              0x20\n                /* \"#utility.yul\":2517:2520   */\n              dup3\n                /* \"#utility.yul\":2513:2525   */\n              add\n                /* \"#utility.yul\":2506:2525   */\n              swap1\n              pop\n                /* \"#utility.yul\":2165:2531   */\n              swap2\n              swap1\n              pop\n              jump\t// out\n                /* \"#utility.yul\":2537:2956   */\n            tag_15:\n                /* \"#utility.yul\":2703:2707   */\n              0x00\n                /* \"#utility.yul\":2741:2743   */\n              0x20\n                /* \"#utility.yul\":2730:2739   */\n              dup3\n                /* \"#utility.yul\":2726:2744   */\n              add\n                /* \"#utility.yul\":2718:2744   */\n              swap1\n              pop\n                /* \"#utility.yul\":2790:2799   */\n              dup2\n                /* \"#utility.yul\":2784:2788   */\n              dup2\n                /* \"#utility.yul\":2780:2800   */\n              sub\n                /* \"#utility.yul\":2776:2777   */\n              0x00\n                /* \"#utility.yul\":2765:2774   */\n              dup4\n                /* \"#utility.yul\":2761:2778   */\n              add\n                /* \"#utility.yul\":2754:2801   */\n              mstore\n                /* \"#utility.yul\":2818:2949   */\n              tag_59\n                /* \"#utility.yul\":2944:2948   */\n              dup2\n                /* \"#utility.yul\":2818:2949   */\n              tag_27\n              jump\t// in\n            tag_59:\n                /* \"#utility.yul\":2810:2949   */\n              swap1\n              pop\n                /* \"#utility.yul\":2537:2956   */\n              swap2\n              swap1\n              pop\n              jump\t// out\n\n            auxdata: 0xa2646970667358221220a73477ef342644eff1494c3995d356fe2b07f3fd69222ac5e00880cc1da842bc64736f6c634300081e0033\n        }\n    }\n\n    sub_1: assembly {\n            /* \"TraCatch.sol\":377:690  contract OnlyEven2 {... */\n          mstore(0x40, 0x80)\n            /* \"TraCatch.sol\":403:499  constructor(uint a){... */\n          callvalue\n          dup1\n          iszero\n          tag_1\n          jumpi\n          revert(0x00, 0x00)\n        tag_1:\n          pop\n          mload(0x40)\n          sub(codesize, bytecodeSize)\n          dup1\n          bytecodeSize\n          dup4\n          codecopy\n          dup2\n          dup2\n          add\n          0x40\n          mstore\n          dup2\n          add\n          swap1\n          tag_2\n          swap2\n          swap1\n          tag_3\n          jump\t// in\n        tag_2:\n            /* \"TraCatch.sol\":446:447  0 */\n          0x00\n            /* \"TraCatch.sol\":441:442  a */\n          dup2\n            /* \"TraCatch.sol\":441:447  a != 0 */\n          sub\n            /* \"TraCatch.sol\":433:466  require(a != 0, \"invalid number\") */\n          tag_6\n          jumpi\n          mload(0x40)\n          0x08c379a000000000000000000000000000000000000000000000000000000000\n          dup2\n          mstore\n          0x04\n          add\n          tag_7\n          swap1\n          tag_8\n          jump\t// in\n        tag_7:\n          mload(0x40)\n          dup1\n          swap2\n          sub\n          swap1\n          revert\n        tag_6:\n            /* \"TraCatch.sol\":489:490  1 */\n          0x01\n            /* \"TraCatch.sol\":484:485  a */\n          dup2\n            /* \"TraCatch.sol\":484:490  a != 1 */\n          sub\n            /* \"TraCatch.sol\":477:491  assert(a != 1) */\n          tag_9\n          jumpi\n          tag_10\n          tag_11\n          jump\t// in\n        tag_10:\n        tag_9:\n            /* \"TraCatch.sol\":403:499  constructor(uint a){... */\n          pop\n            /* \"TraCatch.sol\":377:690  contract OnlyEven2 {... */\n          jump(tag_12)\n            /* \"#utility.yul\":88:205   */\n        tag_14:\n            /* \"#utility.yul\":197:198   */\n          0x00\n            /* \"#utility.yul\":194:195   */\n          0x00\n            /* \"#utility.yul\":187:199   */\n          revert\n            /* \"#utility.yul\":334:411   */\n        tag_16:\n            /* \"#utility.yul\":371:378   */\n          0x00\n            /* \"#utility.yul\":400:405   */\n          dup2\n            /* \"#utility.yul\":389:405   */\n          swap1\n          pop\n            /* \"#utility.yul\":334:411   */\n          swap2\n          swap1\n          pop\n          jump\t// out\n            /* \"#utility.yul\":417:539   */\n        tag_17:\n            /* \"#utility.yul\":490:514   */\n          tag_28\n            /* \"#utility.yul\":508:513   */\n          dup2\n            /* \"#utility.yul\":490:514   */\n          tag_16\n          jump\t// in\n        tag_28:\n            /* \"#utility.yul\":483:488   */\n          dup2\n            /* \"#utility.yul\":480:515   */\n          eq\n            /* \"#utility.yul\":470:533   */\n          tag_29\n          jumpi\n            /* \"#utility.yul\":529:530   */\n          0x00\n            /* \"#utility.yul\":526:527   */\n          0x00\n            /* \"#utility.yul\":519:531   */\n          revert\n            /* \"#utility.yul\":470:533   */\n        tag_29:\n            /* \"#utility.yul\":417:539   */\n          pop\n          jump\t// out\n            /* \"#utility.yul\":545:688   */\n        tag_18:\n            /* \"#utility.yul\":602:607   */\n          0x00\n            /* \"#utility.yul\":633:639   */\n          dup2\n            /* \"#utility.yul\":627:640   */\n          mload\n            /* \"#utility.yul\":618:640   */\n          swap1\n          pop\n            /* \"#utility.yul\":649:682   */\n          tag_31\n            /* \"#utility.yul\":676:681   */\n          dup2\n            /* \"#utility.yul\":649:682   */\n          tag_17\n          jump\t// in\n        tag_31:\n            /* \"#utility.yul\":545:688   */\n          swap3\n          swap2\n          pop\n          pop\n          jump\t// out\n            /* \"#utility.yul\":694:1045   */\n        tag_3:\n            /* \"#utility.yul\":764:770   */\n          0x00\n            /* \"#utility.yul\":813:815   */\n          0x20\n            /* \"#utility.yul\":801:810   */\n          dup3\n            /* \"#utility.yul\":792:799   */\n          dup5\n            /* \"#utility.yul\":788:811   */\n          sub\n            /* \"#utility.yul\":784:816   */\n          slt\n            /* \"#utility.yul\":781:900   */\n          iszero\n          tag_33\n          jumpi\n            /* \"#utility.yul\":819:898   */\n          tag_34\n          tag_14\n          jump\t// in\n        tag_34:\n            /* \"#utility.yul\":781:900   */\n        tag_33:\n            /* \"#utility.yul\":939:940   */\n          0x00\n            /* \"#utility.yul\":964:1028   */\n          tag_35\n            /* \"#utility.yul\":1020:1027   */\n          dup5\n            /* \"#utility.yul\":1011:1017   */\n          dup3\n            /* \"#utility.yul\":1000:1009   */\n          dup6\n            /* \"#utility.yul\":996:1018   */\n          add\n            /* \"#utility.yul\":964:1028   */\n          tag_18\n          jump\t// in\n        tag_35:\n            /* \"#utility.yul\":954:1028   */\n          swap2\n          pop\n            /* \"#utility.yul\":910:1038   */\n          pop\n            /* \"#utility.yul\":694:1045   */\n          swap3\n          swap2\n          pop\n          pop\n          jump\t// out\n            /* \"#utility.yul\":1051:1220   */\n        tag_19:\n            /* \"#utility.yul\":1135:1146   */\n          0x00\n            /* \"#utility.yul\":1169:1175   */\n          dup3\n            /* \"#utility.yul\":1164:1167   */\n          dup3\n            /* \"#utility.yul\":1157:1176   */\n          mstore\n            /* \"#utility.yul\":1209:1213   */\n          0x20\n            /* \"#utility.yul\":1204:1207   */\n          dup3\n            /* \"#utility.yul\":1200:1214   */\n          add\n            /* \"#utility.yul\":1185:1214   */\n          swap1\n          pop\n            /* \"#utility.yul\":1051:1220   */\n          swap3\n          swap2\n          pop\n          pop\n          jump\t// out\n            /* \"#utility.yul\":1226:1390   */\n        tag_20:\n            /* \"#utility.yul\":1366:1382   */\n          0x696e76616c6964206e756d626572000000000000000000000000000000000000\n            /* \"#utility.yul\":1362:1363   */\n          0x00\n            /* \"#utility.yul\":1354:1360   */\n          dup3\n            /* \"#utility.yul\":1350:1364   */\n          add\n            /* \"#utility.yul\":1343:1383   */\n          mstore\n            /* \"#utility.yul\":1226:1390   */\n          pop\n          jump\t// out\n            /* \"#utility.yul\":1396:1762   */\n        tag_21:\n            /* \"#utility.yul\":1538:1541   */\n          0x00\n            /* \"#utility.yul\":1559:1626   */\n          tag_39\n            /* \"#utility.yul\":1623:1625   */\n          0x0e\n            /* \"#utility.yul\":1618:1621   */\n          dup4\n            /* \"#utility.yul\":1559:1626   */\n          tag_19\n          jump\t// in\n        tag_39:\n            /* \"#utility.yul\":1552:1626   */\n          swap2\n          pop\n            /* \"#utility.yul\":1635:1728   */\n          tag_40\n            /* \"#utility.yul\":1724:1727   */\n          dup3\n            /* \"#utility.yul\":1635:1728   */\n          tag_20\n          jump\t// in\n        tag_40:\n            /* \"#utility.yul\":1753:1755   */\n          0x20\n            /* \"#utility.yul\":1748:1751   */\n          dup3\n            /* \"#utility.yul\":1744:1756   */\n          add\n            /* \"#utility.yul\":1737:1756   */\n          swap1\n          pop\n            /* \"#utility.yul\":1396:1762   */\n          swap2\n          swap1\n          pop\n          jump\t// out\n            /* \"#utility.yul\":1768:2187   */\n        tag_8:\n            /* \"#utility.yul\":1934:1938   */\n          0x00\n            /* \"#utility.yul\":1972:1974   */\n          0x20\n            /* \"#utility.yul\":1961:1970   */\n          dup3\n            /* \"#utility.yul\":1957:1975   */\n          add\n            /* \"#utility.yul\":1949:1975   */\n          swap1\n          pop\n            /* \"#utility.yul\":2021:2030   */\n          dup2\n            /* \"#utility.yul\":2015:2019   */\n          dup2\n            /* \"#utility.yul\":2011:2031   */\n          sub\n            /* \"#utility.yul\":2007:2008   */\n          0x00\n            /* \"#utility.yul\":1996:2005   */\n          dup4\n            /* \"#utility.yul\":1992:2009   */\n          add\n            /* \"#utility.yul\":1985:2032   */\n          mstore\n            /* \"#utility.yul\":2049:2180   */\n          tag_42\n            /* \"#utility.yul\":2175:2179   */\n          dup2\n            /* \"#utility.yul\":2049:2180   */\n          tag_21\n          jump\t// in\n        tag_42:\n            /* \"#utility.yul\":2041:2180   */\n          swap1\n          pop\n            /* \"#utility.yul\":1768:2187   */\n          swap2\n          swap1\n          pop\n          jump\t// out\n            /* \"#utility.yul\":2193:2373   */\n        tag_11:\n            /* \"#utility.yul\":2241:2318   */\n          0x4e487b7100000000000000000000000000000000000000000000000000000000\n            /* \"#utility.yul\":2238:2239   */\n          0x00\n            /* \"#utility.yul\":2231:2319   */\n          mstore\n            /* \"#utility.yul\":2338:2342   */\n          0x01\n            /* \"#utility.yul\":2335:2336   */\n          0x04\n            /* \"#utility.yul\":2328:2343   */\n          mstore\n            /* \"#utility.yul\":2362:2366   */\n          0x24\n            /* \"#utility.yul\":2359:2360   */\n          0x00\n            /* \"#utility.yul\":2352:2367   */\n          revert\n            /* \"TraCatch.sol\":377:690  contract OnlyEven2 {... */\n        tag_12:\n          dataSize(sub_0)\n          dup1\n          dataOffset(sub_0)\n          0x00\n          codecopy\n          0x00\n          return\n        stop\n\n        sub_0: assembly {\n                /* \"TraCatch.sol\":377:690  contract OnlyEven2 {... */\n              mstore(0x40, 0x80)\n              callvalue\n              dup1\n              iszero\n              tag_1\n              jumpi\n              revert(0x00, 0x00)\n            tag_1:\n              pop\n              jumpi(tag_2, lt(calldatasize, 0x04))\n              shr(0xe0, calldataload(0x00))\n              dup1\n              0xce0b4213\n              eq\n              tag_3\n              jumpi\n            tag_2:\n              revert(0x00, 0x00)\n                /* \"TraCatch.sol\":507:687  function onlyEven(uint256 b) external pure returns (uint256 success){... */\n            tag_3:\n              tag_4\n              0x04\n              dup1\n              calldatasize\n              sub\n              dup2\n              add\n              swap1\n              tag_5\n              swap2\n              swap1\n              tag_6\n              jump\t// in\n            tag_5:\n              tag_7\n              jump\t// in\n            tag_4:\n              mload(0x40)\n              tag_8\n              swap2\n              swap1\n              tag_9\n              jump\t// in\n            tag_8:\n              mload(0x40)\n              dup1\n              swap2\n              sub\n              swap1\n              return\n            tag_7:\n                /* \"TraCatch.sol\":559:574  uint256 success */\n              0x00\n                /* \"TraCatch.sol\":637:638  0 */\n              0x00\n                /* \"TraCatch.sol\":632:633  2 */\n              0x02\n                /* \"TraCatch.sol\":628:629  b */\n              dup4\n                /* \"TraCatch.sol\":628:633  b % 2 */\n              tag_11\n              swap2\n              swap1\n              tag_12\n              jump\t// in\n            tag_11:\n                /* \"TraCatch.sol\":628:638  b % 2 == 0 */\n              eq\n                /* \"TraCatch.sol\":620:657  require(b % 2 == 0, \"Ups! Reverting\") */\n              tag_13\n              jumpi\n              mload(0x40)\n              0x08c379a000000000000000000000000000000000000000000000000000000000\n              dup2\n              mstore\n              0x04\n              add\n              tag_14\n              swap1\n              tag_15\n              jump\t// in\n            tag_14:\n              mload(0x40)\n              dup1\n              swap2\n              sub\n              swap1\n              revert\n            tag_13:\n                /* \"TraCatch.sol\":678:679  b */\n              dup2\n                /* \"TraCatch.sol\":668:679  success = b */\n              swap1\n              pop\n                /* \"TraCatch.sol\":507:687  function onlyEven(uint256 b) external pure returns (uint256 success){... */\n              swap2\n              swap1\n              pop\n              jump\t// out\n                /* \"#utility.yul\":88:205   */\n            tag_17:\n                /* \"#utility.yul\":197:198   */\n              0x00\n                /* \"#utility.yul\":194:195   */\n              0x00\n                /* \"#utility.yul\":187:199   */\n              revert\n                /* \"#utility.yul\":334:411   */\n            tag_19:\n                /* \"#utility.yul\":371:378   */\n              0x00\n                /* \"#utility.yul\":400:405   */\n              dup2\n                /* \"#utility.yul\":389:405   */\n              swap1\n              pop\n                /* \"#utility.yul\":334:411   */\n              swap2\n              swap1\n              pop\n              jump\t// out\n                /* \"#utility.yul\":417:539   */\n            tag_20:\n                /* \"#utility.yul\":490:514   */\n              tag_33\n                /* \"#utility.yul\":508:513   */\n              dup2\n                /* \"#utility.yul\":490:514   */\n              tag_19\n              jump\t// in\n            tag_33:\n                /* \"#utility.yul\":483:488   */\n              dup2\n                /* \"#utility.yul\":480:515   */\n              eq\n                /* \"#utility.yul\":470:533   */\n              tag_34\n              jumpi\n                /* \"#utility.yul\":529:530   */\n              0x00\n                /* \"#utility.yul\":526:527   */\n              0x00\n                /* \"#utility.yul\":519:531   */\n              revert\n                /* \"#utility.yul\":470:533   */\n            tag_34:\n                /* \"#utility.yul\":417:539   */\n              pop\n              jump\t// out\n                /* \"#utility.yul\":545:684   */\n            tag_21:\n                /* \"#utility.yul\":591:596   */\n              0x00\n                /* \"#utility.yul\":629:635   */\n              dup2\n                /* \"#utility.yul\":616:636   */\n              calldataload\n                /* \"#utility.yul\":607:636   */\n              swap1\n              pop\n                /* \"#utility.yul\":645:678   */\n              tag_36\n                /* \"#utility.yul\":672:677   */\n              dup2\n                /* \"#utility.yul\":645:678   */\n              tag_20\n              jump\t// in\n            tag_36:\n                /* \"#utility.yul\":545:684   */\n              swap3\n              swap2\n              pop\n              pop\n              jump\t// out\n                /* \"#utility.yul\":690:1019   */\n            tag_6:\n                /* \"#utility.yul\":749:755   */\n              0x00\n                /* \"#utility.yul\":798:800   */\n              0x20\n                /* \"#utility.yul\":786:795   */\n              dup3\n                /* \"#utility.yul\":777:784   */\n              dup5\n                /* \"#utility.yul\":773:796   */\n              sub\n                /* \"#utility.yul\":769:801   */\n              slt\n                /* \"#utility.yul\":766:885   */\n              iszero\n              tag_38\n              jumpi\n                /* \"#utility.yul\":804:883   */\n              tag_39\n              tag_17\n              jump\t// in\n            tag_39:\n                /* \"#utility.yul\":766:885   */\n            tag_38:\n                /* \"#utility.yul\":924:925   */\n              0x00\n                /* \"#utility.yul\":949:1002   */\n              tag_40\n                /* \"#utility.yul\":994:1001   */\n              dup5\n                /* \"#utility.yul\":985:991   */\n              dup3\n                /* \"#utility.yul\":974:983   */\n              dup6\n                /* \"#utility.yul\":970:992   */\n              add\n                /* \"#utility.yul\":949:1002   */\n              tag_21\n              jump\t// in\n            tag_40:\n                /* \"#utility.yul\":939:1002   */\n              swap2\n              pop\n                /* \"#utility.yul\":895:1012   */\n              pop\n                /* \"#utility.yul\":690:1019   */\n              swap3\n              swap2\n              pop\n              pop\n              jump\t// out\n                /* \"#utility.yul\":1025:1143   */\n            tag_22:\n                /* \"#utility.yul\":1112:1136   */\n              tag_42\n                /* \"#utility.yul\":1130:1135   */\n              dup2\n                /* \"#utility.yul\":1112:1136   */\n              tag_19\n              jump\t// in\n            tag_42:\n                /* \"#utility.yul\":1107:1110   */\n              dup3\n                /* \"#utility.yul\":1100:1137   */\n              mstore\n                /* \"#utility.yul\":1025:1143   */\n              pop\n              pop\n              jump\t// out\n                /* \"#utility.yul\":1149:1371   */\n            tag_9:\n                /* \"#utility.yul\":1242:1246   */\n              0x00\n                /* \"#utility.yul\":1280:1282   */\n              0x20\n                /* \"#utility.yul\":1269:1278   */\n              dup3\n                /* \"#utility.yul\":1265:1283   */\n              add\n                /* \"#utility.yul\":1257:1283   */\n              swap1\n              pop\n                /* \"#utility.yul\":1293:1364   */\n              tag_44\n                /* \"#utility.yul\":1361:1362   */\n              0x00\n                /* \"#utility.yul\":1350:1359   */\n              dup4\n                /* \"#utility.yul\":1346:1363   */\n              add\n                /* \"#utility.yul\":1337:1343   */\n              dup5\n                /* \"#utility.yul\":1293:1364   */\n              tag_22\n              jump\t// in\n            tag_44:\n                /* \"#utility.yul\":1149:1371   */\n              swap3\n              swap2\n              pop\n              pop\n              jump\t// out\n                /* \"#utility.yul\":1377:1557   */\n            tag_23:\n                /* \"#utility.yul\":1425:1502   */\n              0x4e487b7100000000000000000000000000000000000000000000000000000000\n                /* \"#utility.yul\":1422:1423   */\n              0x00\n                /* \"#utility.yul\":1415:1503   */\n              mstore\n                /* \"#utility.yul\":1522:1526   */\n              0x12\n                /* \"#utility.yul\":1519:1520   */\n              0x04\n                /* \"#utility.yul\":1512:1527   */\n              mstore\n                /* \"#utility.yul\":1546:1550   */\n              0x24\n                /* \"#utility.yul\":1543:1544   */\n              0x00\n                /* \"#utility.yul\":1536:1551   */\n              revert\n                /* \"#utility.yul\":1563:1739   */\n            tag_12:\n                /* \"#utility.yul\":1595:1596   */\n              0x00\n                /* \"#utility.yul\":1612:1632   */\n              tag_47\n                /* \"#utility.yul\":1630:1631   */\n              dup3\n                /* \"#utility.yul\":1612:1632   */\n              tag_19\n              jump\t// in\n            tag_47:\n                /* \"#utility.yul\":1607:1632   */\n              swap2\n              pop\n                /* \"#utility.yul\":1646:1666   */\n              tag_48\n                /* \"#utility.yul\":1664:1665   */\n              dup4\n                /* \"#utility.yul\":1646:1666   */\n              tag_19\n              jump\t// in\n            tag_48:\n                /* \"#utility.yul\":1641:1666   */\n              swap3\n              pop\n                /* \"#utility.yul\":1685:1686   */\n              dup3\n                /* \"#utility.yul\":1675:1710   */\n              tag_49\n              jumpi\n                /* \"#utility.yul\":1690:1708   */\n              tag_50\n              tag_23\n              jump\t// in\n            tag_50:\n                /* \"#utility.yul\":1675:1710   */\n            tag_49:\n                /* \"#utility.yul\":1731:1732   */\n              dup3\n                /* \"#utility.yul\":1728:1729   */\n              dup3\n                /* \"#utility.yul\":1724:1733   */\n              mod\n                /* \"#utility.yul\":1719:1733   */\n              swap1\n              pop\n                /* \"#utility.yul\":1563:1739   */\n              swap3\n              swap2\n              pop\n              pop\n              jump\t// out\n                /* \"#utility.yul\":1745:1914   */\n            tag_24:\n                /* \"#utility.yul\":1829:1840   */\n              0x00\n                /* \"#utility.yul\":1863:1869   */\n              dup3\n                /* \"#utility.yul\":1858:1861   */\n              dup3\n                /* \"#utility.yul\":1851:1870   */\n              mstore\n                /* \"#utility.yul\":1903:1907   */\n              0x20\n                /* \"#utility.yul\":1898:1901   */\n              dup3\n                /* \"#utility.yul\":1894:1908   */\n              add\n                /* \"#utility.yul\":1879:1908   */\n              swap1\n              pop\n                /* \"#utility.yul\":1745:1914   */\n              swap3\n              swap2\n              pop\n              pop\n              jump\t// out\n                /* \"#utility.yul\":1920:2084   */\n            tag_25:\n                /* \"#utility.yul\":2060:2076   */\n              0x5570732120526576657274696e67000000000000000000000000000000000000\n                /* \"#utility.yul\":2056:2057   */\n              0x00\n                /* \"#utility.yul\":2048:2054   */\n              dup3\n                /* \"#utility.yul\":2044:2058   */\n              add\n                /* \"#utility.yul\":2037:2077   */\n              mstore\n                /* \"#utility.yul\":1920:2084   */\n              pop\n              jump\t// out\n                /* \"#utility.yul\":2090:2456   */\n            tag_26:\n                /* \"#utility.yul\":2232:2235   */\n              0x00\n                /* \"#utility.yul\":2253:2320   */\n              tag_54\n                /* \"#utility.yul\":2317:2319   */\n              0x0e\n                /* \"#utility.yul\":2312:2315   */\n              dup4\n                /* \"#utility.yul\":2253:2320   */\n              tag_24\n              jump\t// in\n            tag_54:\n                /* \"#utility.yul\":2246:2320   */\n              swap2\n              pop\n                /* \"#utility.yul\":2329:2422   */\n              tag_55\n                /* \"#utility.yul\":2418:2421   */\n              dup3\n                /* \"#utility.yul\":2329:2422   */\n              tag_25\n              jump\t// in\n            tag_55:\n                /* \"#utility.yul\":2447:2449   */\n              0x20\n                /* \"#utility.yul\":2442:2445   */\n              dup3\n                /* \"#utility.yul\":2438:2450   */\n              add\n                /* \"#utility.yul\":2431:2450   */\n              swap1\n              pop\n                /* \"#utility.yul\":2090:2456   */\n              swap2\n              swap1\n              pop\n              jump\t// out\n                /* \"#utility.yul\":2462:2881   */\n            tag_15:\n                /* \"#utility.yul\":2628:2632   */\n              0x00\n                /* \"#utility.yul\":2666:2668   */\n              0x20\n                /* \"#utility.yul\":2655:2664   */\n              dup3\n                /* \"#utility.yul\":2651:2669   */\n              add\n                /* \"#utility.yul\":2643:2669   */\n              swap1\n              pop\n                /* \"#utility.yul\":2715:2724   */\n              dup2\n                /* \"#utility.yul\":2709:2713   */\n              dup2\n                /* \"#utility.yul\":2705:2725   */\n              sub\n                /* \"#utility.yul\":2701:2702   */\n              0x00\n                /* \"#utility.yul\":2690:2699   */\n              dup4\n                /* \"#utility.yul\":2686:2703   */\n              add\n                /* \"#utility.yul\":2679:2726   */\n              mstore\n                /* \"#utility.yul\":2743:2874   */\n              tag_57\n                /* \"#utility.yul\":2869:2873   */\n              dup2\n                /* \"#utility.yul\":2743:2874   */\n              tag_26\n              jump\t// in\n            tag_57:\n                /* \"#utility.yul\":2735:2874   */\n              swap1\n              pop\n                /* \"#utility.yul\":2462:2881   */\n              swap2\n              swap1\n              pop\n              jump\t// out\n\n            auxdata: 0xa264697066735822122032633c3da88fffdf7f27837a2848faf95ce250b4e61b9fc49370e9b1cc72ecc764736f6c634300081e0033\n        }\n    }\n\n    auxdata: 0xa26469706673582212203c17b3212a79dcb259cc76792b77a2a340194708fc95f1c495ea3919213ca05564736f6c634300081e0033\n}\n\nsub_1: assembly {\n        /* \"TraCatch.sol\":61:373  contract OnlyEven {... */\n      mstore(0x40, 0x80)\n        /* \"TraCatch.sol\":86:182  constructor(uint a){... */\n      callvalue\n      dup1\n      iszero\n      tag_1\n      jumpi\n      revert(0x00, 0x00)\n    tag_1:\n      pop\n      mload(0x40)\n      sub(codesize, bytecodeSize)\n      dup1\n      bytecodeSize\n      dup4\n      codecopy\n      dup2\n      dup2\n      add\n      0x40\n      mstore\n      dup2\n      add\n      swap1\n      tag_2\n      swap2\n      swap1\n      tag_3\n      jump\t// in\n    tag_2:\n        /* \"TraCatch.sol\":129:130  0 */\n      0x00\n        /* \"TraCatch.sol\":124:125  a */\n      dup2\n        /* \"TraCatch.sol\":124:130  a != 0 */\n      sub\n        /* \"TraCatch.sol\":116:149  require(a != 0, \"invalid number\") */\n      tag_6\n      jumpi\n      mload(0x40)\n      0x08c379a000000000000000000000000000000000000000000000000000000000\n      dup2\n      mstore\n      0x04\n      add\n      tag_7\n      swap1\n      tag_8\n      jump\t// in\n    tag_7:\n      mload(0x40)\n      dup1\n      swap2\n      sub\n      swap1\n      revert\n    tag_6:\n        /* \"TraCatch.sol\":172:173  1 */\n      0x01\n        /* \"TraCatch.sol\":167:168  a */\n      dup2\n        /* \"TraCatch.sol\":167:173  a != 1 */\n      sub\n        /* \"TraCatch.sol\":160:174  assert(a != 1) */\n      tag_9\n      jumpi\n      tag_10\n      tag_11\n      jump\t// in\n    tag_10:\n    tag_9:\n        /* \"TraCatch.sol\":86:182  constructor(uint a){... */\n      pop\n        /* \"TraCatch.sol\":61:373  contract OnlyEven {... */\n      jump(tag_12)\n        /* \"#utility.yul\":88:205   */\n    tag_14:\n        /* \"#utility.yul\":197:198   */\n      0x00\n        /* \"#utility.yul\":194:195   */\n      0x00\n        /* \"#utility.yul\":187:199   */\n      revert\n        /* \"#utility.yul\":334:411   */\n    tag_16:\n        /* \"#utility.yul\":371:378   */\n      0x00\n        /* \"#utility.yul\":400:405   */\n      dup2\n        /* \"#utility.yul\":389:405   */\n      swap1\n      pop\n        /* \"#utility.yul\":334:411   */\n      swap2\n      swap1\n      pop\n      jump\t// out\n        /* \"#utility.yul\":417:539   */\n    tag_17:\n        /* \"#utility.yul\":490:514   */\n      tag_28\n        /* \"#utility.yul\":508:513   */\n      dup2\n        /* \"#utility.yul\":490:514   */\n      tag_16\n      jump\t// in\n    tag_28:\n        /* \"#utility.yul\":483:488   */\n      dup2\n        /* \"#utility.yul\":480:515   */\n      eq\n        /* \"#utility.yul\":470:533   */\n      tag_29\n      jumpi\n        /* \"#utility.yul\":529:530   */\n      0x00\n        /* \"#utility.yul\":526:527   */\n      0x00\n        /* \"#utility.yul\":519:531   */\n      revert\n        /* \"#utility.yul\":470:533   */\n    tag_29:\n        /* \"#utility.yul\":417:539   */\n      pop\n      jump\t// out\n        /* \"#utility.yul\":545:688   */\n    tag_18:\n        /* \"#utility.yul\":602:607   */\n      0x00\n        /* \"#utility.yul\":633:639   */\n      dup2\n        /* \"#utility.yul\":627:640   */\n      mload\n        /* \"#utility.yul\":618:640   */\n      swap1\n      pop\n        /* \"#utility.yul\":649:682   */\n      tag_31\n        /* \"#utility.yul\":676:681   */\n      dup2\n        /* \"#utility.yul\":649:682   */\n      tag_17\n      jump\t// in\n    tag_31:\n        /* \"#utility.yul\":545:688   */\n      swap3\n      swap2\n      pop\n      pop\n      jump\t// out\n        /* \"#utility.yul\":694:1045   */\n    tag_3:\n        /* \"#utility.yul\":764:770   */\n      0x00\n        /* \"#utility.yul\":813:815   */\n      0x20\n        /* \"#utility.yul\":801:810   */\n      dup3\n        /* \"#utility.yul\":792:799   */\n      dup5\n        /* \"#utility.yul\":788:811   */\n      sub\n        /* \"#utility.yul\":784:816   */\n      slt\n        /* \"#utility.yul\":781:900   */\n      iszero\n      tag_33\n      jumpi\n        /* \"#utility.yul\":819:898   */\n      tag_34\n      tag_14\n      jump\t// in\n    tag_34:\n        /* \"#utility.yul\":781:900   */\n    tag_33:\n        /* \"#utility.yul\":939:940   */\n      0x00\n        /* \"#utility.yul\":964:1028   */\n      tag_35\n        /* \"#utility.yul\":1020:1027   */\n      dup5\n        /* \"#utility.yul\":1011:1017   */\n      dup3\n        /* \"#utility.yul\":1000:1009   */\n      dup6\n        /* \"#utility.yul\":996:1018   */\n      add\n        /* \"#utility.yul\":964:1028   */\n      tag_18\n      jump\t// in\n    tag_35:\n        /* \"#utility.yul\":954:1028   */\n      swap2\n      pop\n        /* \"#utility.yul\":910:1038   */\n      pop\n        /* \"#utility.yul\":694:1045   */\n      swap3\n      swap2\n      pop\n      pop\n      jump\t// out\n        /* \"#utility.yul\":1051:1220   */\n    tag_19:\n        /* \"#utility.yul\":1135:1146   */\n      0x00\n        /* \"#utility.yul\":1169:1175   */\n      dup3\n        /* \"#utility.yul\":1164:1167   */\n      dup3\n        /* \"#utility.yul\":1157:1176   */\n      mstore\n        /* \"#utility.yul\":1209:1213   */\n      0x20\n        /* \"#utility.yul\":1204:1207   */\n      dup3\n        /* \"#utility.yul\":1200:1214   */\n      add\n        /* \"#utility.yul\":1185:1214   */\n      swap1\n      pop\n        /* \"#utility.yul\":1051:1220   */\n      swap3\n      swap2\n      pop\n      pop\n      jump\t// out\n        /* \"#utility.yul\":1226:1390   */\n    tag_20:\n        /* \"#utility.yul\":1366:1382   */\n      0x696e76616c6964206e756d626572000000000000000000000000000000000000\n        /* \"#utility.yul\":1362:1363   */\n      0x00\n        /* \"#utility.yul\":1354:1360   */\n      dup3\n        /* \"#utility.yul\":1350:1364   */\n      add\n        /* \"#utility.yul\":1343:1383   */\n      mstore\n        /* \"#utility.yul\":1226:1390   */\n      pop\n      jump\t// out\n        /* \"#utility.yul\":1396:1762   */\n    tag_21:\n        /* \"#utility.yul\":1538:1541   */\n      0x00\n        /* \"#utility.yul\":1559:1626   */\n      tag_39\n        /* \"#utility.yul\":1623:1625   */\n      0x0e\n        /* \"#utility.yul\":1618:1621   */\n      dup4\n        /* \"#utility.yul\":1559:1626   */\n      tag_19\n      jump\t// in\n    tag_39:\n        /* \"#utility.yul\":1552:1626   */\n      swap2\n      pop\n        /* \"#utility.yul\":1635:1728   */\n      tag_40\n        /* \"#utility.yul\":1724:1727   */\n      dup3\n        /* \"#utility.yul\":1635:1728   */\n      tag_20\n      jump\t// in\n    tag_40:\n        /* \"#utility.yul\":1753:1755   */\n      0x20\n        /* \"#utility.yul\":1748:1751   */\n      dup3\n        /* \"#utility.yul\":1744:1756   */\n      add\n        /* \"#utility.yul\":1737:1756   */\n      swap1\n      pop\n        /* \"#utility.yul\":1396:1762   */\n      swap2\n      swap1\n      pop\n      jump\t// out\n        /* \"#utility.yul\":1768:2187   */\n    tag_8:\n        /* \"#utility.yul\":1934:1938   */\n      0x00\n        /* \"#utility.yul\":1972:1974   */\n      0x20\n        /* \"#utility.yul\":1961:1970   */\n      dup3\n        /* \"#utility.yul\":1957:1975   */\n      add\n        /* \"#utility.yul\":1949:1975   */\n      swap1\n      pop\n        /* \"#utility.yul\":2021:2030   */\n      dup2\n        /* \"#utility.yul\":2015:2019   */\n      dup2\n        /* \"#utility.yul\":2011:2031   */\n      sub\n        /* \"#utility.yul\":2007:2008   */\n      0x00\n        /* \"#utility.yul\":1996:2005   */\n      dup4\n        /* \"#utility.yul\":1992:2009   */\n      add\n        /* \"#utility.yul\":1985:2032   */\n      mstore\n        /* \"#utility.yul\":2049:2180   */\n      tag_42\n        /* \"#utility.yul\":2175:2179   */\n      dup2\n        /* \"#utility.yul\":2049:2180   */\n      tag_21\n      jump\t// in\n    tag_42:\n        /* \"#utility.yul\":2041:2180   */\n      swap1\n      pop\n        /* \"#utility.yul\":1768:2187   */\n      swap2\n      swap1\n      pop\n      jump\t// out\n        /* \"#utility.yul\":2193:2373   */\n    tag_11:\n        /* \"#utility.yul\":2241:2318   */\n      0x4e487b7100000000000000000000000000000000000000000000000000000000\n        /* \"#utility.yul\":2238:2239   */\n      0x00\n        /* \"#utility.yul\":2231:2319   */\n      mstore\n        /* \"#utility.yul\":2338:2342   */\n      0x01\n        /* \"#utility.yul\":2335:2336   */\n      0x04\n        /* \"#utility.yul\":2328:2343   */\n      mstore\n        /* \"#utility.yul\":2362:2366   */\n      0x24\n        /* \"#utility.yul\":2359:2360   */\n      0x00\n        /* \"#utility.yul\":2352:2367   */\n      revert\n        /* \"TraCatch.sol\":61:373  contract OnlyEven {... */\n    tag_12:\n      dataSize(sub_0)\n      dup1\n      dataOffset(sub_0)\n      0x00\n      codecopy\n      0x00\n      return\n    stop\n\n    sub_0: assembly {\n            /* \"TraCatch.sol\":61:373  contract OnlyEven {... */\n          mstore(0x40, 0x80)\n          callvalue\n          dup1\n          iszero\n          tag_1\n          jumpi\n          revert(0x00, 0x00)\n        tag_1:\n          pop\n          jumpi(tag_2, lt(calldatasize, 0x04))\n          shr(0xe0, calldataload(0x00))\n          dup1\n          0xce0b4213\n          eq\n          tag_3\n          jumpi\n        tag_2:\n          revert(0x00, 0x00)\n            /* \"TraCatch.sol\":190:370  function onlyEven(uint256 b) external pure returns (bool success){... */\n        tag_3:\n          tag_4\n          0x04\n          dup1\n          calldatasize\n          sub\n          dup2\n          add\n          swap1\n          tag_5\n          swap2\n          swap1\n          tag_6\n          jump\t// in\n        tag_5:\n          tag_7\n          jump\t// in\n        tag_4:\n          mload(0x40)\n          tag_8\n          swap2\n          swap1\n          tag_9\n          jump\t// in\n        tag_8:\n          mload(0x40)\n          dup1\n          swap2\n          sub\n          swap1\n          return\n        tag_7:\n            /* \"TraCatch.sol\":242:254  bool success */\n          0x00\n            /* \"TraCatch.sol\":317:318  0 */\n          0x00\n            /* \"TraCatch.sol\":312:313  2 */\n          0x02\n            /* \"TraCatch.sol\":308:309  b */\n          dup4\n            /* \"TraCatch.sol\":308:313  b % 2 */\n          tag_11\n          swap2\n          swap1\n          tag_12\n          jump\t// in\n        tag_11:\n            /* \"TraCatch.sol\":308:318  b % 2 == 0 */\n          eq\n            /* \"TraCatch.sol\":300:337  require(b % 2 == 0, \"Ups! Reverting\") */\n          tag_13\n          jumpi\n          mload(0x40)\n          0x08c379a000000000000000000000000000000000000000000000000000000000\n          dup2\n          mstore\n          0x04\n          add\n          tag_14\n          swap1\n          tag_15\n          jump\t// in\n        tag_14:\n          mload(0x40)\n          dup1\n          swap2\n          sub\n          swap1\n          revert\n        tag_13:\n            /* \"TraCatch.sol\":358:362  true */\n          0x01\n            /* \"TraCatch.sol\":348:362  success = true */\n          swap1\n          pop\n            /* \"TraCatch.sol\":190:370  function onlyEven(uint256 b) external pure returns (bool success){... */\n          swap2\n          swap1\n          pop\n          jump\t// out\n            /* \"#utility.yul\":88:205   */\n        tag_17:\n            /* \"#utility.yul\":197:198   */\n          0x00\n            /* \"#utility.yul\":194:195   */\n          0x00\n            /* \"#utility.yul\":187:199   */\n          revert\n            /* \"#utility.yul\":334:411   */\n        tag_19:\n            /* \"#utility.yul\":371:378   */\n          0x00\n            /* \"#utility.yul\":400:405   */\n          dup2\n            /* \"#utility.yul\":389:405   */\n          swap1\n          pop\n            /* \"#utility.yul\":334:411   */\n          swap2\n          swap1\n          pop\n          jump\t// out\n            /* \"#utility.yul\":417:539   */\n        tag_20:\n            /* \"#utility.yul\":490:514   */\n          tag_34\n            /* \"#utility.yul\":508:513   */\n          dup2\n            /* \"#utility.yul\":490:514   */\n          tag_19\n          jump\t// in\n        tag_34:\n            /* \"#utility.yul\":483:488   */\n          dup2\n            /* \"#utility.yul\":480:515   */\n          eq\n            /* \"#utility.yul\":470:533   */\n          tag_35\n          jumpi\n            /* \"#utility.yul\":529:530   */\n          0x00\n            /* \"#utility.yul\":526:527   */\n          0x00\n            /* \"#utility.yul\":519:531   */\n          revert\n            /* \"#utility.yul\":470:533   */\n        tag_35:\n            /* \"#utility.yul\":417:539   */\n          pop\n          jump\t// out\n            /* \"#utility.yul\":545:684   */\n        tag_21:\n            /* \"#utility.yul\":591:596   */\n          0x00\n            /* \"#utility.yul\":629:635   */\n          dup2\n            /* \"#utility.yul\":616:636   */\n          calldataload\n            /* \"#utility.yul\":607:636   */\n          swap1\n          pop\n            /* \"#utility.yul\":645:678   */\n          tag_37\n            /* \"#utility.yul\":672:677   */\n          dup2\n            /* \"#utility.yul\":645:678   */\n          tag_20\n          jump\t// in\n        tag_37:\n            /* \"#utility.yul\":545:684   */\n          swap3\n          swap2\n          pop\n          pop\n          jump\t// out\n            /* \"#utility.yul\":690:1019   */\n        tag_6:\n            /* \"#utility.yul\":749:755   */\n          0x00\n            /* \"#utility.yul\":798:800   */\n          0x20\n            /* \"#utility.yul\":786:795   */\n          dup3\n            /* \"#utility.yul\":777:784   */\n          dup5\n            /* \"#utility.yul\":773:796   */\n          sub\n            /* \"#utility.yul\":769:801   */\n          slt\n            /* \"#utility.yul\":766:885   */\n          iszero\n          tag_39\n          jumpi\n            /* \"#utility.yul\":804:883   */\n          tag_40\n          tag_17\n          jump\t// in\n        tag_40:\n            /* \"#utility.yul\":766:885   */\n        tag_39:\n            /* \"#utility.yul\":924:925   */\n          0x00\n            /* \"#utility.yul\":949:1002   */\n          tag_41\n            /* \"#utility.yul\":994:1001   */\n          dup5\n            /* \"#utility.yul\":985:991   */\n          dup3\n            /* \"#utility.yul\":974:983   */\n          dup6\n            /* \"#utility.yul\":970:992   */\n          add\n            /* \"#utility.yul\":949:1002   */\n          tag_21\n          jump\t// in\n        tag_41:\n            /* \"#utility.yul\":939:1002   */\n          swap2\n          pop\n            /* \"#utility.yul\":895:1012   */\n          pop\n            /* \"#utility.yul\":690:1019   */\n          swap3\n          swap2\n          pop\n          pop\n          jump\t// out\n            /* \"#utility.yul\":1025:1115   */\n        tag_22:\n            /* \"#utility.yul\":1059:1066   */\n          0x00\n            /* \"#utility.yul\":1102:1107   */\n          dup2\n            /* \"#utility.yul\":1095:1108   */\n          iszero\n            /* \"#utility.yul\":1088:1109   */\n          iszero\n            /* \"#utility.yul\":1077:1109   */\n          swap1\n          pop\n            /* \"#utility.yul\":1025:1115   */\n          swap2\n          swap1\n          pop\n          jump\t// out\n            /* \"#utility.yul\":1121:1230   */\n        tag_23:\n            /* \"#utility.yul\":1202:1223   */\n          tag_44\n            /* \"#utility.yul\":1217:1222   */\n          dup2\n            /* \"#utility.yul\":1202:1223   */\n          tag_22\n          jump\t// in\n        tag_44:\n            /* \"#utility.yul\":1197:1200   */\n          dup3\n            /* \"#utility.yul\":1190:1224   */\n          mstore\n            /* \"#utility.yul\":1121:1230   */\n          pop\n          pop\n          jump\t// out\n            /* \"#utility.yul\":1236:1446   */\n        tag_9:\n            /* \"#utility.yul\":1323:1327   */\n          0x00\n            /* \"#utility.yul\":1361:1363   */\n          0x20\n            /* \"#utility.yul\":1350:1359   */\n          dup3\n            /* \"#utility.yul\":1346:1364   */\n          add\n            /* \"#utility.yul\":1338:1364   */\n          swap1\n          pop\n            /* \"#utility.yul\":1374:1439   */\n          tag_46\n            /* \"#utility.yul\":1436:1437   */\n          0x00\n            /* \"#utility.yul\":1425:1434   */\n          dup4\n            /* \"#utility.yul\":1421:1438   */\n          add\n            /* \"#utility.yul\":1412:1418   */\n          dup5\n            /* \"#utility.yul\":1374:1439   */\n          tag_23\n          jump\t// in\n        tag_46:\n            /* \"#utility.yul\":1236:1446   */\n          swap3\n          swap2\n          pop\n          pop\n          jump\t// out\n            /* \"#utility.yul\":1452:1632   */\n        tag_24:\n            /* \"#utility.yul\":1500:1577   */\n          0x4e487b7100000000000000000000000000000000000000000000000000000000\n            /* \"#utility.yul\":1497:1498   */\n          0x00\n            /* \"#utility.yul\":1490:1578   */\n          mstore\n            /* \"#utility.yul\":1597:1601   */\n          0x12\n            /* \"#utility.yul\":1594:1595   */\n          0x04\n            /* \"#utility.yul\":1587:1602   */\n          mstore\n            /* \"#utility.yul\":1621:1625   */\n          0x24\n            /* \"#utility.yul\":1618:1619   */\n          0x00\n            /* \"#utility.yul\":1611:1626   */\n          revert\n            /* \"#utility.yul\":1638:1814   */\n        tag_12:\n            /* \"#utility.yul\":1670:1671   */\n          0x00\n            /* \"#utility.yul\":1687:1707   */\n          tag_49\n            /* \"#utility.yul\":1705:1706   */\n          dup3\n            /* \"#utility.yul\":1687:1707   */\n          tag_19\n          jump\t// in\n        tag_49:\n            /* \"#utility.yul\":1682:1707   */\n          swap2\n          pop\n            /* \"#utility.yul\":1721:1741   */\n          tag_50\n            /* \"#utility.yul\":1739:1740   */\n          dup4\n            /* \"#utility.yul\":1721:1741   */\n          tag_19\n          jump\t// in\n        tag_50:\n            /* \"#utility.yul\":1716:1741   */\n          swap3\n          pop\n            /* \"#utility.yul\":1760:1761   */\n          dup3\n            /* \"#utility.yul\":1750:1785   */\n          tag_51\n          jumpi\n            /* \"#utility.yul\":1765:1783   */\n          tag_52\n          tag_24\n          jump\t// in\n        tag_52:\n            /* \"#utility.yul\":1750:1785   */\n        tag_51:\n            /* \"#utility.yul\":1806:1807   */\n          dup3\n            /* \"#utility.yul\":1803:1804   */\n          dup3\n            /* \"#utility.yul\":1799:1808   */\n          mod\n            /* \"#utility.yul\":1794:1808   */\n          swap1\n          pop\n            /* \"#utility.yul\":1638:1814   */\n          swap3\n          swap2\n          pop\n          pop\n          jump\t// out\n            /* \"#utility.yul\":1820:1989   */\n        tag_25:\n            /* \"#utility.yul\":1904:1915   */\n          0x00\n            /* \"#utility.yul\":1938:1944   */\n          dup3\n            /* \"#utility.yul\":1933:1936   */\n          dup3\n            /* \"#utility.yul\":1926:1945   */\n          mstore\n            /* \"#utility.yul\":1978:1982   */\n          0x20\n            /* \"#utility.yul\":1973:1976   */\n          dup3\n            /* \"#utility.yul\":1969:1983   */\n          add\n            /* \"#utility.yul\":1954:1983   */\n          swap1\n          pop\n            /* \"#utility.yul\":1820:1989   */\n          swap3\n          swap2\n          pop\n          pop\n          jump\t// out\n            /* \"#utility.yul\":1995:2159   */\n        tag_26:\n            /* \"#utility.yul\":2135:2151   */\n          0x5570732120526576657274696e67000000000000000000000000000000000000\n            /* \"#utility.yul\":2131:2132   */\n          0x00\n            /* \"#utility.yul\":2123:2129   */\n          dup3\n            /* \"#utility.yul\":2119:2133   */\n          add\n            /* \"#utility.yul\":2112:2152   */\n          mstore\n            /* \"#utility.yul\":1995:2159   */\n          pop\n          jump\t// out\n            /* \"#utility.yul\":2165:2531   */\n        tag_27:\n            /* \"#utility.yul\":2307:2310   */\n          0x00\n            /* \"#utility.yul\":2328:2395   */\n          tag_56\n            /* \"#utility.yul\":2392:2394   */\n          0x0e\n            /* \"#utility.yul\":2387:2390   */\n          dup4\n            /* \"#utility.yul\":2328:2395   */\n          tag_25\n          jump\t// in\n        tag_56:\n            /* \"#utility.yul\":2321:2395   */\n          swap2\n          pop\n            /* \"#utility.yul\":2404:2497   */\n          tag_57\n            /* \"#utility.yul\":2493:2496   */\n          dup3\n            /* \"#utility.yul\":2404:2497   */\n          tag_26\n          jump\t// in\n        tag_57:\n            /* \"#utility.yul\":2522:2524   */\n          0x20\n            /* \"#utility.yul\":2517:2520   */\n          dup3\n            /* \"#utility.yul\":2513:2525   */\n          add\n            /* \"#utility.yul\":2506:2525   */\n          swap1\n          pop\n            /* \"#utility.yul\":2165:2531   */\n          swap2\n          swap1\n          pop\n          jump\t// out\n            /* \"#utility.yul\":2537:2956   */\n        tag_15:\n            /* \"#utility.yul\":2703:2707   */\n          0x00\n            /* \"#utility.yul\":2741:2743   */\n          0x20\n            /* \"#utility.yul\":2730:2739   */\n          dup3\n            /* \"#utility.yul\":2726:2744   */\n          add\n            /* \"#utility.yul\":2718:2744   */\n          swap1\n          pop\n            /* \"#utility.yul\":2790:2799   */\n          dup2\n            /* \"#utility.yul\":2784:2788   */\n          dup2\n            /* \"#utility.yul\":2780:2800   */\n          sub\n            /* \"#utility.yul\":2776:2777   */\n          0x00\n            /* \"#utility.yul\":2765:2774   */\n          dup4\n            /* \"#utility.yul\":2761:2778   */\n          add\n            /* \"#utility.yul\":2754:2801   */\n          mstore\n            /* \"#utility.yul\":2818:2949   */\n          tag_59\n            /* \"#utility.yul\":2944:2948   */\n          dup2\n            /* \"#utility.yul\":2818:2949   */\n          tag_27\n          jump\t// in\n        tag_59:\n            /* \"#utility.yul\":2810:2949   */\n          swap1\n          pop\n            /* \"#utility.yul\":2537:2956   */\n          swap2\n          swap1\n          pop\n          jump\t// out\n\n        auxdata: 0xa2646970667358221220a73477ef342644eff1494c3995d356fe2b07f3fd69222ac5e00880cc1da842bc64736f6c634300081e0033\n    }\n}\n",
				"bytecode": {
					"linkReferences": {},
					"object": "608060405234801561000f575f5ffd5b50600260405161001e90610085565b61002891906100dd565b604051809103905ff080158015610041573d5f5f3e3d5ffd5b505f5f6101000a81548173ffffffffffffffffffffffffffffffffffffffff021916908373ffffffffffffffffffffffffffffffffffffffff1602179055506100f6565b6103f3806113b883390190565b5f819050919050565b5f819050919050565b5f819050919050565b5f6100c76100c26100bd84610092565b6100a4565b61009b565b9050919050565b6100d7816100ad565b82525050565b5f6020820190506100f05f8301846100ce565b92915050565b6112b5806101035f395ff3fe608060405234801561000f575f5ffd5b506004361061004a575f3560e01c806360ebc1721461004e578063617a691c1461007e5780637e3b0c571461009c578063fe0d94c1146100a6575b5f5ffd5b61006860048036038101906100639190610703565b6100d6565b6040516100759190610748565b60405180910390f35b610086610285565b6040516100939190610748565b60405180910390f35b6100a46103e7565b005b6100c060048036038101906100bb9190610703565b610563565b6040516100cd9190610748565b60405180910390f35b5f816040516100e4906106a9565b6100ee9190610770565b604051809103905ff080156101005760015b6101d85761010c610795565b806308c379a0036101685750610120610822565b8061012b575061016a565b7fb761112ad379c509744de8d585702b0d2694d4ceaef85ad50d452ff06821a6a68160405161015a9190610911565b60405180910390a1506101d3565b505b3d805f8114610194576040519150601f19603f3d011682016040523d82523d5f602084013e610199565b606091505b507fb6f66868478aebcea8c7a15c8c7dd37a513a4127424642ee3573117b52fa3e39816040516101c99190610983565b60405180910390a1505b610280565b7ffd76336752e93f2cc77cf13a41be8b6c156731030376354d634d28a9a87b916260405160405180910390a18073ffffffffffffffffffffffffffffffffffffffff1663ce0b4213846040518263ffffffff1660e01b815260040161023d9190610770565b602060405180830381865afa158015610258573d5f5f3e3d5ffd5b505050506040513d601f19601f8201168201806040525081019061027c91906109cd565b9150505b919050565b5f5f6002604051610295906106b6565b61029f9190610a3a565b604051809103905ff0801580156102b8573d5f5f3e3d5ffd5b5090505f600290508173ffffffffffffffffffffffffffffffffffffffff1663ce0b4213826040518263ffffffff1660e01b81526004016102f99190610770565b602060405180830381865afa92505050801561033357506040513d601f19601f8201168201806040525081019061033091906109cd565b60015b6103aa5761033f610795565b806308c379a00361039b5750610353610822565b8061035e575061039d565b7fb761112ad379c509744de8d585702b0d2694d4ceaef85ad50d452ff06821a6a68160405161038d9190610911565b60405180910390a1506103a5565b505b3d5f5f3e3d5ffd5b6103e1565b7ffd76336752e93f2cc77cf13a41be8b6c156731030376354d634d28a9a87b916260405160405180910390a18093505050506103e4565b50505b90565b5f73ffffffffffffffffffffffffffffffffffffffff1663ce0b421360016040518263ffffffff1660e01b81526004016104219190610a8c565b602060405180830381865afa92505050801561045b57506040513d601f19601f8201168201806040525081019061045891906109cd565b60015b61053357610467610795565b806308c379a0036104c3575061047b610822565b8061048657506104c5565b7fb761112ad379c509744de8d585702b0d2694d4ceaef85ad50d452ff06821a6a6816040516104b59190610911565b60405180910390a15061052e565b505b3d805f81146104ef576040519150601f19603f3d011682016040523d82523d5f602084013e6104f4565b606091505b507fb6f66868478aebcea8c7a15c8c7dd37a513a4127424642ee3573117b52fa3e39816040516105249190610983565b60405180910390a1505b610561565b507ffd76336752e93f2cc77cf13a41be8b6c156731030376354d634d28a9a87b916260405160405180910390a15b565b5f5f5f9054906101000a900473ffffffffffffffffffffffffffffffffffffffff1673ffffffffffffffffffffffffffffffffffffffff1663ce0b4213836040518263ffffffff1660e01b81526004016105bd9190610770565b602060405180830381865afa9250505080156105f757506040513d601f19601f820116820180604052508101906105f491906109cd565b60015b61066e57610603610795565b806308c379a00361065f5750610617610822565b806106225750610661565b7fb761112ad379c509744de8d585702b0d2694d4ceaef85ad50d452ff06821a6a6816040516106519190610911565b60405180910390a150610669565b505b3d5f5f3e3d5ffd5b6106a3565b7ffd76336752e93f2cc77cf13a41be8b6c156731030376354d634d28a9a87b916260405160405180910390a1809150506106a4565b5b919050565b6103f380610aa683390190565b6103e780610e9983390190565b5f604051905090565b5f5ffd5b5f819050919050565b6106e2816106d0565b81146106ec575f5ffd5b50565b5f813590506106fd816106d9565b92915050565b5f60208284031215610718576107176106cc565b5b5f610725848285016106ef565b91505092915050565b5f8115159050919050565b6107428161072e565b82525050565b5f60208201905061075b5f830184610739565b92915050565b61076a816106d0565b82525050565b5f6020820190506107835f830184610761565b92915050565b5f8160e01c9050919050565b5f60033d11156107b15760045f5f3e6107ae5f51610789565b90505b90565b5f601f19601f8301169050919050565b7f4e487b71000000000000000000000000000000000000000000000000000000005f52604160045260245ffd5b6107fa826107b4565b810181811067ffffffffffffffff82111715610819576108186107c4565b5b80604052505050565b5f60443d106108ae576108336106c3565b60043d036004823e80513d602482011167ffffffffffffffff8211171561085b5750506108ae565b808201805167ffffffffffffffff81111561087957505050506108ae565b80602083010160043d0385018111156108965750505050506108ae565b6108a5826020018501866107f1565b82955050505050505b90565b5f81519050919050565b5f82825260208201905092915050565b8281835e5f83830152505050565b5f6108e3826108b1565b6108ed81856108bb565b93506108fd8185602086016108cb565b610906816107b4565b840191505092915050565b5f6020820190508181035f83015261092981846108d9565b905092915050565b5f81519050919050565b5f82825260208201905092915050565b5f61095582610931565b61095f818561093b565b935061096f8185602086016108cb565b610978816107b4565b840191505092915050565b5f6020820190508181035f83015261099b818461094b565b905092915050565b6109ac8161072e565b81146109b6575f5ffd5b50565b5f815190506109c7816109a3565b92915050565b5f602082840312156109e2576109e16106cc565b5b5f6109ef848285016109b9565b91505092915050565b5f819050919050565b5f819050919050565b5f610a24610a1f610a1a846109f8565b610a01565b6106d0565b9050919050565b610a3481610a0a565b82525050565b5f602082019050610a4d5f830184610a2b565b92915050565b5f819050919050565b5f610a76610a71610a6c84610a53565b610a01565b6106d0565b9050919050565b610a8681610a5c565b82525050565b5f602082019050610a9f5f830184610a7d565b9291505056fe608060405234801561000f575f5ffd5b506040516103f33803806103f3833981810160405281019061003191906100c1565b5f8103610073576040517f08c379a000000000000000000000000000000000000000000000000000000000815260040161006a90610146565b60405180910390fd5b6001810361008457610083610164565b5b50610191565b5f5ffd5b5f819050919050565b6100a08161008e565b81146100aa575f5ffd5b50565b5f815190506100bb81610097565b92915050565b5f602082840312156100d6576100d561008a565b5b5f6100e3848285016100ad565b91505092915050565b5f82825260208201905092915050565b7f696e76616c6964206e756d6265720000000000000000000000000000000000005f82015250565b5f610130600e836100ec565b915061013b826100fc565b602082019050919050565b5f6020820190508181035f83015261015d81610124565b9050919050565b7f4e487b71000000000000000000000000000000000000000000000000000000005f52600160045260245ffd5b6102558061019e5f395ff3fe608060405234801561000f575f5ffd5b5060043610610029575f3560e01c8063ce0b42131461002d575b5f5ffd5b610047600480360381019061004291906100ec565b61005d565b6040516100549190610131565b60405180910390f35b5f5f60028361006c9190610177565b146100ac576040517f08c379a00000000000000000000000000000000000000000000000000000000081526004016100a390610201565b60405180910390fd5b60019050919050565b5f5ffd5b5f819050919050565b6100cb816100b9565b81146100d5575f5ffd5b50565b5f813590506100e6816100c2565b92915050565b5f60208284031215610101576101006100b5565b5b5f61010e848285016100d8565b91505092915050565b5f8115159050919050565b61012b81610117565b82525050565b5f6020820190506101445f830184610122565b92915050565b7f4e487b71000000000000000000000000000000000000000000000000000000005f52601260045260245ffd5b5f610181826100b9565b915061018c836100b9565b92508261019c5761019b61014a565b5b828206905092915050565b5f82825260208201905092915050565b7f5570732120526576657274696e670000000000000000000000000000000000005f82015250565b5f6101eb600e836101a7565b91506101f6826101b7565b602082019050919050565b5f6020820190508181035f830152610218816101df565b905091905056fea2646970667358221220a73477ef342644eff1494c3995d356fe2b07f3fd69222ac5e00880cc1da842bc64736f6c634300081e0033608060405234801561000f575f5ffd5b506040516103e73803806103e7833981810160405281019061003191906100c1565b5f8103610073576040517f08c379a000000000000000000000000000000000000000000000000000000000815260040161006a90610146565b60405180910390fd5b6001810361008457610083610164565b5b50610191565b5f5ffd5b5f819050919050565b6100a08161008e565b81146100aa575f5ffd5b50565b5f815190506100bb81610097565b92915050565b5f602082840312156100d6576100d561008a565b5b5f6100e3848285016100ad565b91505092915050565b5f82825260208201905092915050565b7f696e76616c6964206e756d6265720000000000000000000000000000000000005f82015250565b5f610130600e836100ec565b915061013b826100fc565b602082019050919050565b5f6020820190508181035f83015261015d81610124565b9050919050565b7f4e487b71000000000000000000000000000000000000000000000000000000005f52600160045260245ffd5b6102498061019e5f395ff3fe608060405234801561000f575f5ffd5b5060043610610029575f3560e01c8063ce0b42131461002d575b5f5ffd5b610047600480360381019061004291906100eb565b61005d565b6040516100549190610125565b60405180910390f35b5f5f60028361006c919061016b565b146100ac576040517f08c379a00000000000000000000000000000000000000000000000000000000081526004016100a3906101f5565b60405180910390fd5b819050919050565b5f5ffd5b5f819050919050565b6100ca816100b8565b81146100d4575f5ffd5b50565b5f813590506100e5816100c1565b92915050565b5f60208284031215610100576100ff6100b4565b5b5f61010d848285016100d7565b91505092915050565b61011f816100b8565b82525050565b5f6020820190506101385f830184610116565b92915050565b7f4e487b71000000000000000000000000000000000000000000000000000000005f52601260045260245ffd5b5f610175826100b8565b9150610180836100b8565b9250826101905761018f61013e565b5b828206905092915050565b5f82825260208201905092915050565b7f5570732120526576657274696e670000000000000000000000000000000000005f82015250565b5f6101df600e8361019b565b91506101ea826101ab565b602082019050919050565b5f6020820190508181035f83015261020c816101d3565b905091905056fea264697066735822122032633c3da88fffdf7f27837a2848faf95ce250b4e61b9fc49370e9b1cc72ecc764736f6c634300081e0033a26469706673582212203c17b3212a79dcb259cc76792b77a2a340194708fc95f1c495ea3919213ca05564736f6c634300081e0033608060405234801561000f575f5ffd5b506040516103f33803806103f3833981810160405281019061003191906100c1565b5f8103610073576040517f08c379a000000000000000000000000000000000000000000000000000000000815260040161006a90610146565b60405180910390fd5b6001810361008457610083610164565b5b50610191565b5f5ffd5b5f819050919050565b6100a08161008e565b81146100aa575f5ffd5b50565b5f815190506100bb81610097565b92915050565b5f602082840312156100d6576100d561008a565b5b5f6100e3848285016100ad565b91505092915050565b5f82825260208201905092915050565b7f696e76616c6964206e756d6265720000000000000000000000000000000000005f82015250565b5f610130600e836100ec565b915061013b826100fc565b602082019050919050565b5f6020820190508181035f83015261015d81610124565b9050919050565b7f4e487b71000000000000000000000000000000000000000000000000000000005f52600160045260245ffd5b6102558061019e5f395ff3fe608060405234801561000f575f5ffd5b5060043610610029575f3560e01c8063ce0b42131461002d575b5f5ffd5b610047600480360381019061004291906100ec565b61005d565b6040516100549190610131565b60405180910390f35b5f5f60028361006c9190610177565b146100ac576040517f08c379a00000000000000000000000000000000000000000000000000000000081526004016100a390610201565b60405180910390fd5b60019050919050565b5f5ffd5b5f819050919050565b6100cb816100b9565b81146100d5575f5ffd5b50565b5f813590506100e6816100c2565b92915050565b5f60208284031215610101576101006100b5565b5b5f61010e848285016100d8565b91505092915050565b5f8115159050919050565b61012b81610117565b82525050565b5f6020820190506101445f830184610122565b92915050565b7f4e487b71000000000000000000000000000000000000000000000000000000005f52601260045260245ffd5b5f610181826100b9565b915061018c836100b9565b92508261019c5761019b61014a565b5b828206905092915050565b5f82825260208201905092915050565b7f5570732120526576657274696e670000000000000000000000000000000000005f82015250565b5f6101eb600e836101a7565b91506101f6826101b7565b602082019050919050565b5f6020820190508181035f830152610218816101df565b905091905056fea2646970667358221220a73477ef342644eff1494c3995d356fe2b07f3fd69222ac5e00880cc1da842bc64736f6c634300081e0033",
					"opcodes": "PUSH1 0x80 PUSH1 0x40 MSTORE CALLVALUE DUP1 ISZERO PUSH2 0xF JUMPI PUSH0 PUSH0 REVERT JUMPDEST POP PUSH1 0x2 PUSH1 0x40 MLOAD PUSH2 0x1E SWAP1 PUSH2 0x85 JUMP JUMPDEST PUSH2 0x28 SWAP2 SWAP1 PUSH2 0xDD JUMP JUMPDEST PUSH1 0x40 MLOAD DUP1 SWAP2 SUB SWAP1 PUSH0 CREATE DUP1 ISZERO DUP1 ISZERO PUSH2 0x41 JUMPI RETURNDATASIZE PUSH0 PUSH0 RETURNDATACOPY RETURNDATASIZE PUSH0 REVERT JUMPDEST POP PUSH0 PUSH0 PUSH2 0x100 EXP DUP2 SLOAD DUP2 PUSH20 0xFFFFFFFFFFFFFFFFFFFFFFFFFFFFFFFFFFFFFFFF MUL NOT AND SWAP1 DUP4 PUSH20 0xFFFFFFFFFFFFFFFFFFFFFFFFFFFFFFFFFFFFFFFF AND MUL OR SWAP1 SSTORE POP PUSH2 0xF6 JUMP JUMPDEST PUSH2 0x3F3 DUP1 PUSH2 0x13B8 DUP4 CODECOPY ADD SWAP1 JUMP JUMPDEST PUSH0 DUP2 SWAP1 POP SWAP2 SWAP1 POP JUMP JUMPDEST PUSH0 DUP2 SWAP1 POP SWAP2 SWAP1 POP JUMP JUMPDEST PUSH0 DUP2 SWAP1 POP SWAP2 SWAP1 POP JUMP JUMPDEST PUSH0 PUSH2 0xC7 PUSH2 0xC2 PUSH2 0xBD DUP5 PUSH2 0x92 JUMP JUMPDEST PUSH2 0xA4 JUMP JUMPDEST PUSH2 0x9B JUMP JUMPDEST SWAP1 POP SWAP2 SWAP1 POP JUMP JUMPDEST PUSH2 0xD7 DUP2 PUSH2 0xAD JUMP JUMPDEST DUP3 MSTORE POP POP JUMP JUMPDEST PUSH0 PUSH1 0x20 DUP3 ADD SWAP1 POP PUSH2 0xF0 PUSH0 DUP4 ADD DUP5 PUSH2 0xCE JUMP JUMPDEST SWAP3 SWAP2 POP POP JUMP JUMPDEST PUSH2 0x12B5 DUP1 PUSH2 0x103 PUSH0 CODECOPY PUSH0 RETURN INVALID PUSH1 0x80 PUSH1 0x40 MSTORE CALLVALUE DUP1 ISZERO PUSH2 0xF JUMPI PUSH0 PUSH0 REVERT JUMPDEST POP PUSH1 0x4 CALLDATASIZE LT PUSH2 0x4A JUMPI PUSH0 CALLDATALOAD PUSH1 0xE0 SHR DUP1 PUSH4 0x60EBC172 EQ PUSH2 0x4E JUMPI DUP1 PUSH4 0x617A691C EQ PUSH2 0x7E JUMPI DUP1 PUSH4 0x7E3B0C57 EQ PUSH2 0x9C JUMPI DUP1 PUSH4 0xFE0D94C1 EQ PUSH2 0xA6 JUMPI JUMPDEST PUSH0 PUSH0 REVERT JUMPDEST PUSH2 0x68 PUSH1 0x4 DUP1 CALLDATASIZE SUB DUP2 ADD SWAP1 PUSH2 0x63 SWAP2 SWAP1 PUSH2 0x703 JUMP JUMPDEST PUSH2 0xD6 JUMP JUMPDEST PUSH1 0x40 MLOAD PUSH2 0x75 SWAP2 SWAP1 PUSH2 0x748 JUMP JUMPDEST PUSH1 0x40 MLOAD DUP1 SWAP2 SUB SWAP1 RETURN JUMPDEST PUSH2 0x86 PUSH2 0x285 JUMP JUMPDEST PUSH1 0x40 MLOAD PUSH2 0x93 SWAP2 SWAP1 PUSH2 0x748 JUMP JUMPDEST PUSH1 0x40 MLOAD DUP1 SWAP2 SUB SWAP1 RETURN JUMPDEST PUSH2 0xA4 PUSH2 0x3E7 JUMP JUMPDEST STOP JUMPDEST PUSH2 0xC0 PUSH1 0x4 DUP1 CALLDATASIZE SUB DUP2 ADD SWAP1 PUSH2 0xBB SWAP2 SWAP1 PUSH2 0x703 JUMP JUMPDEST PUSH2 0x563 JUMP JUMPDEST PUSH1 0x40 MLOAD PUSH2 0xCD SWAP2 SWAP1 PUSH2 0x748 JUMP JUMPDEST PUSH1 0x40 MLOAD DUP1 SWAP2 SUB SWAP1 RETURN JUMPDEST PUSH0 DUP2 PUSH1 0x40 MLOAD PUSH2 0xE4 SWAP1 PUSH2 0x6A9 JUMP JUMPDEST PUSH2 0xEE SWAP2 SWAP1 PUSH2 0x770 JUMP JUMPDEST PUSH1 0x40 MLOAD DUP1 SWAP2 SUB SWAP1 PUSH0 CREATE DUP1 ISZERO PUSH2 0x100 JUMPI PUSH1 0x1 JUMPDEST PUSH2 0x1D8 JUMPI PUSH2 0x10C PUSH2 0x795 JUMP JUMPDEST DUP1 PUSH4 0x8C379A0 SUB PUSH2 0x168 JUMPI POP PUSH2 0x120 PUSH2 0x822 JUMP JUMPDEST DUP1 PUSH2 0x12B JUMPI POP PUSH2 0x16A JUMP JUMPDEST PUSH32 0xB761112AD379C509744DE8D585702B0D2694D4CEAEF85AD50D452FF06821A6A6 DUP2 PUSH1 0x40 MLOAD PUSH2 0x15A SWAP2 SWAP1 PUSH2 0x911 JUMP JUMPDEST PUSH1 0x40 MLOAD DUP1 SWAP2 SUB SWAP1 LOG1 POP PUSH2 0x1D3 JUMP JUMPDEST POP JUMPDEST RETURNDATASIZE DUP1 PUSH0 DUP2 EQ PUSH2 0x194 JUMPI PUSH1 0x40 MLOAD SWAP2 POP PUSH1 0x1F NOT PUSH1 0x3F RETURNDATASIZE ADD AND DUP3 ADD PUSH1 0x40 MSTORE RETURNDATASIZE DUP3 MSTORE RETURNDATASIZE PUSH0 PUSH1 0x20 DUP5 ADD RETURNDATACOPY PUSH2 0x199 JUMP JUMPDEST PUSH1 0x60 SWAP2 POP JUMPDEST POP PUSH32 0xB6F66868478AEBCEA8C7A15C8C7DD37A513A4127424642EE3573117B52FA3E39 DUP2 PUSH1 0x40 MLOAD PUSH2 0x1C9 SWAP2 SWAP1 PUSH2 0x983 JUMP JUMPDEST PUSH1 0x40 MLOAD DUP1 SWAP2 SUB SWAP1 LOG1 POP JUMPDEST PUSH2 0x280 JUMP JUMPDEST PUSH32 0xFD76336752E93F2CC77CF13A41BE8B6C156731030376354D634D28A9A87B9162 PUSH1 0x40 MLOAD PUSH1 0x40 MLOAD DUP1 SWAP2 SUB SWAP1 LOG1 DUP1 PUSH20 0xFFFFFFFFFFFFFFFFFFFFFFFFFFFFFFFFFFFFFFFF AND PUSH4 0xCE0B4213 DUP5 PUSH1 0x40 MLOAD DUP3 PUSH4 0xFFFFFFFF AND PUSH1 0xE0 SHL DUP2 MSTORE PUSH1 0x4 ADD PUSH2 0x23D SWAP2 SWAP1 PUSH2 0x770 JUMP JUMPDEST PUSH1 0x20 PUSH1 0x40 MLOAD DUP1 DUP4 SUB DUP2 DUP7 GAS STATICCALL ISZERO DUP1 ISZERO PUSH2 0x258 JUMPI RETURNDATASIZE PUSH0 PUSH0 RETURNDATACOPY RETURNDATASIZE PUSH0 REVERT JUMPDEST POP POP POP POP PUSH1 0x40 MLOAD RETURNDATASIZE PUSH1 0x1F NOT PUSH1 0x1F DUP3 ADD AND DUP3 ADD DUP1 PUSH1 0x40 MSTORE POP DUP2 ADD SWAP1 PUSH2 0x27C SWAP2 SWAP1 PUSH2 0x9CD JUMP JUMPDEST SWAP2 POP POP JUMPDEST SWAP2 SWAP1 POP JUMP JUMPDEST PUSH0 PUSH0 PUSH1 0x2 PUSH1 0x40 MLOAD PUSH2 0x295 SWAP1 PUSH2 0x6B6 JUMP JUMPDEST PUSH2 0x29F SWAP2 SWAP1 PUSH2 0xA3A JUMP JUMPDEST PUSH1 0x40 MLOAD DUP1 SWAP2 SUB SWAP1 PUSH0 CREATE DUP1 ISZERO DUP1 ISZERO PUSH2 0x2B8 JUMPI RETURNDATASIZE PUSH0 PUSH0 RETURNDATACOPY RETURNDATASIZE PUSH0 REVERT JUMPDEST POP SWAP1 POP PUSH0 PUSH1 0x2 SWAP1 POP DUP2 PUSH20 0xFFFFFFFFFFFFFFFFFFFFFFFFFFFFFFFFFFFFFFFF AND PUSH4 0xCE0B4213 DUP3 PUSH1 0x40 MLOAD DUP3 PUSH4 0xFFFFFFFF AND PUSH1 0xE0 SHL DUP2 MSTORE PUSH1 0x4 ADD PUSH2 0x2F9 SWAP2 SWAP1 PUSH2 0x770 JUMP JUMPDEST PUSH1 0x20 PUSH1 0x40 MLOAD DUP1 DUP4 SUB DUP2 DUP7 GAS STATICCALL SWAP3 POP POP POP DUP1 ISZERO PUSH2 0x333 JUMPI POP PUSH1 0x40 MLOAD RETURNDATASIZE PUSH1 0x1F NOT PUSH1 0x1F DUP3 ADD AND DUP3 ADD DUP1 PUSH1 0x40 MSTORE POP DUP2 ADD SWAP1 PUSH2 0x330 SWAP2 SWAP1 PUSH2 0x9CD JUMP JUMPDEST PUSH1 0x1 JUMPDEST PUSH2 0x3AA JUMPI PUSH2 0x33F PUSH2 0x795 JUMP JUMPDEST DUP1 PUSH4 0x8C379A0 SUB PUSH2 0x39B JUMPI POP PUSH2 0x353 PUSH2 0x822 JUMP JUMPDEST DUP1 PUSH2 0x35E JUMPI POP PUSH2 0x39D JUMP JUMPDEST PUSH32 0xB761112AD379C509744DE8D585702B0D2694D4CEAEF85AD50D452FF06821A6A6 DUP2 PUSH1 0x40 MLOAD PUSH2 0x38D SWAP2 SWAP1 PUSH2 0x911 JUMP JUMPDEST PUSH1 0x40 MLOAD DUP1 SWAP2 SUB SWAP1 LOG1 POP PUSH2 0x3A5 JUMP JUMPDEST POP JUMPDEST RETURNDATASIZE PUSH0 PUSH0 RETURNDATACOPY RETURNDATASIZE PUSH0 REVERT JUMPDEST PUSH2 0x3E1 JUMP JUMPDEST PUSH32 0xFD76336752E93F2CC77CF13A41BE8B6C156731030376354D634D28A9A87B9162 PUSH1 0x40 MLOAD PUSH1 0x40 MLOAD DUP1 SWAP2 SUB SWAP1 LOG1 DUP1 SWAP4 POP POP POP POP PUSH2 0x3E4 JUMP JUMPDEST POP POP JUMPDEST SWAP1 JUMP JUMPDEST PUSH0 PUSH20 0xFFFFFFFFFFFFFFFFFFFFFFFFFFFFFFFFFFFFFFFF AND PUSH4 0xCE0B4213 PUSH1 0x1 PUSH1 0x40 MLOAD DUP3 PUSH4 0xFFFFFFFF AND PUSH1 0xE0 SHL DUP2 MSTORE PUSH1 0x4 ADD PUSH2 0x421 SWAP2 SWAP1 PUSH2 0xA8C JUMP JUMPDEST PUSH1 0x20 PUSH1 0x40 MLOAD DUP1 DUP4 SUB DUP2 DUP7 GAS STATICCALL SWAP3 POP POP POP DUP1 ISZERO PUSH2 0x45B JUMPI POP PUSH1 0x40 MLOAD RETURNDATASIZE PUSH1 0x1F NOT PUSH1 0x1F DUP3 ADD AND DUP3 ADD DUP1 PUSH1 0x40 MSTORE POP DUP2 ADD SWAP1 PUSH2 0x458 SWAP2 SWAP1 PUSH2 0x9CD JUMP JUMPDEST PUSH1 0x1 JUMPDEST PUSH2 0x533 JUMPI PUSH2 0x467 PUSH2 0x795 JUMP JUMPDEST DUP1 PUSH4 0x8C379A0 SUB PUSH2 0x4C3 JUMPI POP PUSH2 0x47B PUSH2 0x822 JUMP JUMPDEST DUP1 PUSH2 0x486 JUMPI POP PUSH2 0x4C5 JUMP JUMPDEST PUSH32 0xB761112AD379C509744DE8D585702B0D2694D4CEAEF85AD50D452FF06821A6A6 DUP2 PUSH1 0x40 MLOAD PUSH2 0x4B5 SWAP2 SWAP1 PUSH2 0x911 JUMP JUMPDEST PUSH1 0x40 MLOAD DUP1 SWAP2 SUB SWAP1 LOG1 POP PUSH2 0x52E JUMP JUMPDEST POP JUMPDEST RETURNDATASIZE DUP1 PUSH0 DUP2 EQ PUSH2 0x4EF JUMPI PUSH1 0x40 MLOAD SWAP2 POP PUSH1 0x1F NOT PUSH1 0x3F RETURNDATASIZE ADD AND DUP3 ADD PUSH1 0x40 MSTORE RETURNDATASIZE DUP3 MSTORE RETURNDATASIZE PUSH0 PUSH1 0x20 DUP5 ADD RETURNDATACOPY PUSH2 0x4F4 JUMP JUMPDEST PUSH1 0x60 SWAP2 POP JUMPDEST POP PUSH32 0xB6F66868478AEBCEA8C7A15C8C7DD37A513A4127424642EE3573117B52FA3E39 DUP2 PUSH1 0x40 MLOAD PUSH2 0x524 SWAP2 SWAP1 PUSH2 0x983 JUMP JUMPDEST PUSH1 0x40 MLOAD DUP1 SWAP2 SUB SWAP1 LOG1 POP JUMPDEST PUSH2 0x561 JUMP JUMPDEST POP PUSH32 0xFD76336752E93F2CC77CF13A41BE8B6C156731030376354D634D28A9A87B9162 PUSH1 0x40 MLOAD PUSH1 0x40 MLOAD DUP1 SWAP2 SUB SWAP1 LOG1 JUMPDEST JUMP JUMPDEST PUSH0 PUSH0 PUSH0 SWAP1 SLOAD SWAP1 PUSH2 0x100 EXP SWAP1 DIV PUSH20 0xFFFFFFFFFFFFFFFFFFFFFFFFFFFFFFFFFFFFFFFF AND PUSH20 0xFFFFFFFFFFFFFFFFFFFFFFFFFFFFFFFFFFFFFFFF AND PUSH4 0xCE0B4213 DUP4 PUSH1 0x40 MLOAD DUP3 PUSH4 0xFFFFFFFF AND PUSH1 0xE0 SHL DUP2 MSTORE PUSH1 0x4 ADD PUSH2 0x5BD SWAP2 SWAP1 PUSH2 0x770 JUMP JUMPDEST PUSH1 0x20 PUSH1 0x40 MLOAD DUP1 DUP4 SUB DUP2 DUP7 GAS STATICCALL SWAP3 POP POP POP DUP1 ISZERO PUSH2 0x5F7 JUMPI POP PUSH1 0x40 MLOAD RETURNDATASIZE PUSH1 0x1F NOT PUSH1 0x1F DUP3 ADD AND DUP3 ADD DUP1 PUSH1 0x40 MSTORE POP DUP2 ADD SWAP1 PUSH2 0x5F4 SWAP2 SWAP1 PUSH2 0x9CD JUMP JUMPDEST PUSH1 0x1 JUMPDEST PUSH2 0x66E JUMPI PUSH2 0x603 PUSH2 0x795 JUMP JUMPDEST DUP1 PUSH4 0x8C379A0 SUB PUSH2 0x65F JUMPI POP PUSH2 0x617 PUSH2 0x822 JUMP JUMPDEST DUP1 PUSH2 0x622 JUMPI POP PUSH2 0x661 JUMP JUMPDEST PUSH32 0xB761112AD379C509744DE8D585702B0D2694D4CEAEF85AD50D452FF06821A6A6 DUP2 PUSH1 0x40 MLOAD PUSH2 0x651 SWAP2 SWAP1 PUSH2 0x911 JUMP JUMPDEST PUSH1 0x40 MLOAD DUP1 SWAP2 SUB SWAP1 LOG1 POP PUSH2 0x669 JUMP JUMPDEST POP JUMPDEST RETURNDATASIZE PUSH0 PUSH0 RETURNDATACOPY RETURNDATASIZE PUSH0 REVERT JUMPDEST PUSH2 0x6A3 JUMP JUMPDEST PUSH32 0xFD76336752E93F2CC77CF13A41BE8B6C156731030376354D634D28A9A87B9162 PUSH1 0x40 MLOAD PUSH1 0x40 MLOAD DUP1 SWAP2 SUB SWAP1 LOG1 DUP1 SWAP2 POP POP PUSH2 0x6A4 JUMP JUMPDEST JUMPDEST SWAP2 SWAP1 POP JUMP JUMPDEST PUSH2 0x3F3 DUP1 PUSH2 0xAA6 DUP4 CODECOPY ADD SWAP1 JUMP JUMPDEST PUSH2 0x3E7 DUP1 PUSH2 0xE99 DUP4 CODECOPY ADD SWAP1 JUMP JUMPDEST PUSH0 PUSH1 0x40 MLOAD SWAP1 POP SWAP1 JUMP JUMPDEST PUSH0 PUSH0 REVERT JUMPDEST PUSH0 DUP2 SWAP1 POP SWAP2 SWAP1 POP JUMP JUMPDEST PUSH2 0x6E2 DUP2 PUSH2 0x6D0 JUMP JUMPDEST DUP2 EQ PUSH2 0x6EC JUMPI PUSH0 PUSH0 REVERT JUMPDEST POP JUMP JUMPDEST PUSH0 DUP2 CALLDATALOAD SWAP1 POP PUSH2 0x6FD DUP2 PUSH2 0x6D9 JUMP JUMPDEST SWAP3 SWAP2 POP POP JUMP JUMPDEST PUSH0 PUSH1 0x20 DUP3 DUP5 SUB SLT ISZERO PUSH2 0x718 JUMPI PUSH2 0x717 PUSH2 0x6CC JUMP JUMPDEST JUMPDEST PUSH0 PUSH2 0x725 DUP5 DUP3 DUP6 ADD PUSH2 0x6EF JUMP JUMPDEST SWAP2 POP POP SWAP3 SWAP2 POP POP JUMP JUMPDEST PUSH0 DUP2 ISZERO ISZERO SWAP1 POP SWAP2 SWAP1 POP JUMP JUMPDEST PUSH2 0x742 DUP2 PUSH2 0x72E JUMP JUMPDEST DUP3 MSTORE POP POP JUMP JUMPDEST PUSH0 PUSH1 0x20 DUP3 ADD SWAP1 POP PUSH2 0x75B PUSH0 DUP4 ADD DUP5 PUSH2 0x739 JUMP JUMPDEST SWAP3 SWAP2 POP POP JUMP JUMPDEST PUSH2 0x76A DUP2 PUSH2 0x6D0 JUMP JUMPDEST DUP3 MSTORE POP POP JUMP JUMPDEST PUSH0 PUSH1 0x20 DUP3 ADD SWAP1 POP PUSH2 0x783 PUSH0 DUP4 ADD DUP5 PUSH2 0x761 JUMP JUMPDEST SWAP3 SWAP2 POP POP JUMP JUMPDEST PUSH0 DUP2 PUSH1 0xE0 SHR SWAP1 POP SWAP2 SWAP1 POP JUMP JUMPDEST PUSH0 PUSH1 0x3 RETURNDATASIZE GT ISZERO PUSH2 0x7B1 JUMPI PUSH1 0x4 PUSH0 PUSH0 RETURNDATACOPY PUSH2 0x7AE PUSH0 MLOAD PUSH2 0x789 JUMP JUMPDEST SWAP1 POP JUMPDEST SWAP1 JUMP JUMPDEST PUSH0 PUSH1 0x1F NOT PUSH1 0x1F DUP4 ADD AND SWAP1 POP SWAP2 SWAP1 POP JUMP JUMPDEST PUSH32 0x4E487B7100000000000000000000000000000000000000000000000000000000 PUSH0 MSTORE PUSH1 0x41 PUSH1 0x4 MSTORE PUSH1 0x24 PUSH0 REVERT JUMPDEST PUSH2 0x7FA DUP3 PUSH2 0x7B4 JUMP JUMPDEST DUP2 ADD DUP2 DUP2 LT PUSH8 0xFFFFFFFFFFFFFFFF DUP3 GT OR ISZERO PUSH2 0x819 JUMPI PUSH2 0x818 PUSH2 0x7C4 JUMP JUMPDEST JUMPDEST DUP1 PUSH1 0x40 MSTORE POP POP POP JUMP JUMPDEST PUSH0 PUSH1 0x44 RETURNDATASIZE LT PUSH2 0x8AE JUMPI PUSH2 0x833 PUSH2 0x6C3 JUMP JUMPDEST PUSH1 0x4 RETURNDATASIZE SUB PUSH1 0x4 DUP3 RETURNDATACOPY DUP1 MLOAD RETURNDATASIZE PUSH1 0x24 DUP3 ADD GT PUSH8 0xFFFFFFFFFFFFFFFF DUP3 GT OR ISZERO PUSH2 0x85B JUMPI POP POP PUSH2 0x8AE JUMP JUMPDEST DUP1 DUP3 ADD DUP1 MLOAD PUSH8 0xFFFFFFFFFFFFFFFF DUP2 GT ISZERO PUSH2 0x879 JUMPI POP POP POP POP PUSH2 0x8AE JUMP JUMPDEST DUP1 PUSH1 0x20 DUP4 ADD ADD PUSH1 0x4 RETURNDATASIZE SUB DUP6 ADD DUP2 GT ISZERO PUSH2 0x896 JUMPI POP POP POP POP POP PUSH2 0x8AE JUMP JUMPDEST PUSH2 0x8A5 DUP3 PUSH1 0x20 ADD DUP6 ADD DUP7 PUSH2 0x7F1 JUMP JUMPDEST DUP3 SWAP6 POP POP POP POP POP POP JUMPDEST SWAP1 JUMP JUMPDEST PUSH0 DUP2 MLOAD SWAP1 POP SWAP2 SWAP1 POP JUMP JUMPDEST PUSH0 DUP3 DUP3 MSTORE PUSH1 0x20 DUP3 ADD SWAP1 POP SWAP3 SWAP2 POP POP JUMP JUMPDEST DUP3 DUP2 DUP4 MCOPY PUSH0 DUP4 DUP4 ADD MSTORE POP POP POP JUMP JUMPDEST PUSH0 PUSH2 0x8E3 DUP3 PUSH2 0x8B1 JUMP JUMPDEST PUSH2 0x8ED DUP2 DUP6 PUSH2 0x8BB JUMP JUMPDEST SWAP4 POP PUSH2 0x8FD DUP2 DUP6 PUSH1 0x20 DUP7 ADD PUSH2 0x8CB JUMP JUMPDEST PUSH2 0x906 DUP2 PUSH2 0x7B4 JUMP JUMPDEST DUP5 ADD SWAP2 POP POP SWAP3 SWAP2 POP POP JUMP JUMPDEST PUSH0 PUSH1 0x20 DUP3 ADD SWAP1 POP DUP2 DUP2 SUB PUSH0 DUP4 ADD MSTORE PUSH2 0x929 DUP2 DUP5 PUSH2 0x8D9 JUMP JUMPDEST SWAP1 POP SWAP3 SWAP2 POP POP JUMP JUMPDEST PUSH0 DUP2 MLOAD SWAP1 POP SWAP2 SWAP1 POP JUMP JUMPDEST PUSH0 DUP3 DUP3 MSTORE PUSH1 0x20 DUP3 ADD SWAP1 POP SWAP3 SWAP2 POP POP JUMP JUMPDEST PUSH0 PUSH2 0x955 DUP3 PUSH2 0x931 JUMP JUMPDEST PUSH2 0x95F DUP2 DUP6 PUSH2 0x93B JUMP JUMPDEST SWAP4 POP PUSH2 0x96F DUP2 DUP6 PUSH1 0x20 DUP7 ADD PUSH2 0x8CB JUMP JUMPDEST PUSH2 0x978 DUP2 PUSH2 0x7B4 JUMP JUMPDEST DUP5 ADD SWAP2 POP POP SWAP3 SWAP2 POP POP JUMP JUMPDEST PUSH0 PUSH1 0x20 DUP3 ADD SWAP1 POP DUP2 DUP2 SUB PUSH0 DUP4 ADD MSTORE PUSH2 0x99B DUP2 DUP5 PUSH2 0x94B JUMP JUMPDEST SWAP1 POP SWAP3 SWAP2 POP POP JUMP JUMPDEST PUSH2 0x9AC DUP2 PUSH2 0x72E JUMP JUMPDEST DUP2 EQ PUSH2 0x9B6 JUMPI PUSH0 PUSH0 REVERT JUMPDEST POP JUMP JUMPDEST PUSH0 DUP2 MLOAD SWAP1 POP PUSH2 0x9C7 DUP2 PUSH2 0x9A3 JUMP JUMPDEST SWAP3 SWAP2 POP POP JUMP JUMPDEST PUSH0 PUSH1 0x20 DUP3 DUP5 SUB SLT ISZERO PUSH2 0x9E2 JUMPI PUSH2 0x9E1 PUSH2 0x6CC JUMP JUMPDEST JUMPDEST PUSH0 PUSH2 0x9EF DUP5 DUP3 DUP6 ADD PUSH2 0x9B9 JUMP JUMPDEST SWAP2 POP POP SWAP3 SWAP2 POP POP JUMP JUMPDEST PUSH0 DUP2 SWAP1 POP SWAP2 SWAP1 POP JUMP JUMPDEST PUSH0 DUP2 SWAP1 POP SWAP2 SWAP1 POP JUMP JUMPDEST PUSH0 PUSH2 0xA24 PUSH2 0xA1F PUSH2 0xA1A DUP5 PUSH2 0x9F8 JUMP JUMPDEST PUSH2 0xA01 JUMP JUMPDEST PUSH2 0x6D0 JUMP JUMPDEST SWAP1 POP SWAP2 SWAP1 POP JUMP JUMPDEST PUSH2 0xA34 DUP2 PUSH2 0xA0A JUMP JUMPDEST DUP3 MSTORE POP POP JUMP JUMPDEST PUSH0 PUSH1 0x20 DUP3 ADD SWAP1 POP PUSH2 0xA4D PUSH0 DUP4 ADD DUP5 PUSH2 0xA2B JUMP JUMPDEST SWAP3 SWAP2 POP POP JUMP JUMPDEST PUSH0 DUP2 SWAP1 POP SWAP2 SWAP1 POP JUMP JUMPDEST PUSH0 PUSH2 0xA76 PUSH2 0xA71 PUSH2 0xA6C DUP5 PUSH2 0xA53 JUMP JUMPDEST PUSH2 0xA01 JUMP JUMPDEST PUSH2 0x6D0 JUMP JUMPDEST SWAP1 POP SWAP2 SWAP1 POP JUMP JUMPDEST PUSH2 0xA86 DUP2 PUSH2 0xA5C JUMP JUMPDEST DUP3 MSTORE POP POP JUMP JUMPDEST PUSH0 PUSH1 0x20 DUP3 ADD SWAP1 POP PUSH2 0xA9F PUSH0 DUP4 ADD DUP5 PUSH2 0xA7D JUMP JUMPDEST SWAP3 SWAP2 POP POP JUMP INVALID PUSH1 0x80 PUSH1 0x40 MSTORE CALLVALUE DUP1 ISZERO PUSH2 0xF JUMPI PUSH0 PUSH0 REVERT JUMPDEST POP PUSH1 0x40 MLOAD PUSH2 0x3F3 CODESIZE SUB DUP1 PUSH2 0x3F3 DUP4 CODECOPY DUP2 DUP2 ADD PUSH1 0x40 MSTORE DUP2 ADD SWAP1 PUSH2 0x31 SWAP2 SWAP1 PUSH2 0xC1 JUMP JUMPDEST PUSH0 DUP2 SUB PUSH2 0x73 JUMPI PUSH1 0x40 MLOAD PUSH32 0x8C379A000000000000000000000000000000000000000000000000000000000 DUP2 MSTORE PUSH1 0x4 ADD PUSH2 0x6A SWAP1 PUSH2 0x146 JUMP JUMPDEST PUSH1 0x40 MLOAD DUP1 SWAP2 SUB SWAP1 REVERT JUMPDEST PUSH1 0x1 DUP2 SUB PUSH2 0x84 JUMPI PUSH2 0x83 PUSH2 0x164 JUMP JUMPDEST JUMPDEST POP PUSH2 0x191 JUMP JUMPDEST PUSH0 PUSH0 REVERT JUMPDEST PUSH0 DUP2 SWAP1 POP SWAP2 SWAP1 POP JUMP JUMPDEST PUSH2 0xA0 DUP2 PUSH2 0x8E JUMP JUMPDEST DUP2 EQ PUSH2 0xAA JUMPI PUSH0 PUSH0 REVERT JUMPDEST POP JUMP JUMPDEST PUSH0 DUP2 MLOAD SWAP1 POP PUSH2 0xBB DUP2 PUSH2 0x97 JUMP JUMPDEST SWAP3 SWAP2 POP POP JUMP JUMPDEST PUSH0 PUSH1 0x20 DUP3 DUP5 SUB SLT ISZERO PUSH2 0xD6 JUMPI PUSH2 0xD5 PUSH2 0x8A JUMP JUMPDEST JUMPDEST PUSH0 PUSH2 0xE3 DUP5 DUP3 DUP6 ADD PUSH2 0xAD JUMP JUMPDEST SWAP2 POP POP SWAP3 SWAP2 POP POP JUMP JUMPDEST PUSH0 DUP3 DUP3 MSTORE PUSH1 0x20 DUP3 ADD SWAP1 POP SWAP3 SWAP2 POP POP JUMP JUMPDEST PUSH32 0x696E76616C6964206E756D626572000000000000000000000000000000000000 PUSH0 DUP3 ADD MSTORE POP JUMP JUMPDEST PUSH0 PUSH2 0x130 PUSH1 0xE DUP4 PUSH2 0xEC JUMP JUMPDEST SWAP2 POP PUSH2 0x13B DUP3 PUSH2 0xFC JUMP JUMPDEST PUSH1 0x20 DUP3 ADD SWAP1 POP SWAP2 SWAP1 POP JUMP JUMPDEST PUSH0 PUSH1 0x20 DUP3 ADD SWAP1 POP DUP2 DUP2 SUB PUSH0 DUP4 ADD MSTORE PUSH2 0x15D DUP2 PUSH2 0x124 JUMP JUMPDEST SWAP1 POP SWAP2 SWAP1 POP JUMP JUMPDEST PUSH32 0x4E487B7100000000000000000000000000000000000000000000000000000000 PUSH0 MSTORE PUSH1 0x1 PUSH1 0x4 MSTORE PUSH1 0x24 PUSH0 REVERT JUMPDEST PUSH2 0x255 DUP1 PUSH2 0x19E PUSH0 CODECOPY PUSH0 RETURN INVALID PUSH1 0x80 PUSH1 0x40 MSTORE CALLVALUE DUP1 ISZERO PUSH2 0xF JUMPI PUSH0 PUSH0 REVERT JUMPDEST POP PUSH1 0x4 CALLDATASIZE LT PUSH2 0x29 JUMPI PUSH0 CALLDATALOAD PUSH1 0xE0 SHR DUP1 PUSH4 0xCE0B4213 EQ PUSH2 0x2D JUMPI JUMPDEST PUSH0 PUSH0 REVERT JUMPDEST PUSH2 0x47 PUSH1 0x4 DUP1 CALLDATASIZE SUB DUP2 ADD SWAP1 PUSH2 0x42 SWAP2 SWAP1 PUSH2 0xEC JUMP JUMPDEST PUSH2 0x5D JUMP JUMPDEST PUSH1 0x40 MLOAD PUSH2 0x54 SWAP2 SWAP1 PUSH2 0x131 JUMP JUMPDEST PUSH1 0x40 MLOAD DUP1 SWAP2 SUB SWAP1 RETURN JUMPDEST PUSH0 PUSH0 PUSH1 0x2 DUP4 PUSH2 0x6C SWAP2 SWAP1 PUSH2 0x177 JUMP JUMPDEST EQ PUSH2 0xAC JUMPI PUSH1 0x40 MLOAD PUSH32 0x8C379A000000000000000000000000000000000000000000000000000000000 DUP2 MSTORE PUSH1 0x4 ADD PUSH2 0xA3 SWAP1 PUSH2 0x201 JUMP JUMPDEST PUSH1 0x40 MLOAD DUP1 SWAP2 SUB SWAP1 REVERT JUMPDEST PUSH1 0x1 SWAP1 POP SWAP2 SWAP1 POP JUMP JUMPDEST PUSH0 PUSH0 REVERT JUMPDEST PUSH0 DUP2 SWAP1 POP SWAP2 SWAP1 POP JUMP JUMPDEST PUSH2 0xCB DUP2 PUSH2 0xB9 JUMP JUMPDEST DUP2 EQ PUSH2 0xD5 JUMPI PUSH0 PUSH0 REVERT JUMPDEST POP JUMP JUMPDEST PUSH0 DUP2 CALLDATALOAD SWAP1 POP PUSH2 0xE6 DUP2 PUSH2 0xC2 JUMP JUMPDEST SWAP3 SWAP2 POP POP JUMP JUMPDEST PUSH0 PUSH1 0x20 DUP3 DUP5 SUB SLT ISZERO PUSH2 0x101 JUMPI PUSH2 0x100 PUSH2 0xB5 JUMP JUMPDEST JUMPDEST PUSH0 PUSH2 0x10E DUP5 DUP3 DUP6 ADD PUSH2 0xD8 JUMP JUMPDEST SWAP2 POP POP SWAP3 SWAP2 POP POP JUMP JUMPDEST PUSH0 DUP2 ISZERO ISZERO SWAP1 POP SWAP2 SWAP1 POP JUMP JUMPDEST PUSH2 0x12B DUP2 PUSH2 0x117 JUMP JUMPDEST DUP3 MSTORE POP POP JUMP JUMPDEST PUSH0 PUSH1 0x20 DUP3 ADD SWAP1 POP PUSH2 0x144 PUSH0 DUP4 ADD DUP5 PUSH2 0x122 JUMP JUMPDEST SWAP3 SWAP2 POP POP JUMP JUMPDEST PUSH32 0x4E487B7100000000000000000000000000000000000000000000000000000000 PUSH0 MSTORE PUSH1 0x12 PUSH1 0x4 MSTORE PUSH1 0x24 PUSH0 REVERT JUMPDEST PUSH0 PUSH2 0x181 DUP3 PUSH2 0xB9 JUMP JUMPDEST SWAP2 POP PUSH2 0x18C DUP4 PUSH2 0xB9 JUMP JUMPDEST SWAP3 POP DUP3 PUSH2 0x19C JUMPI PUSH2 0x19B PUSH2 0x14A JUMP JUMPDEST JUMPDEST DUP3 DUP3 MOD SWAP1 POP SWAP3 SWAP2 POP POP JUMP JUMPDEST PUSH0 DUP3 DUP3 MSTORE PUSH1 0x20 DUP3 ADD SWAP1 POP SWAP3 SWAP2 POP POP JUMP JUMPDEST PUSH32 0x5570732120526576657274696E67000000000000000000000000000000000000 PUSH0 DUP3 ADD MSTORE POP JUMP JUMPDEST PUSH0 PUSH2 0x1EB PUSH1 0xE DUP4 PUSH2 0x1A7 JUMP JUMPDEST SWAP2 POP PUSH2 0x1F6 DUP3 PUSH2 0x1B7 JUMP JUMPDEST PUSH1 0x20 DUP3 ADD SWAP1 POP SWAP2 SWAP1 POP JUMP JUMPDEST PUSH0 PUSH1 0x20 DUP3 ADD SWAP1 POP DUP2 DUP2 SUB PUSH0 DUP4 ADD MSTORE PUSH2 0x218 DUP2 PUSH2 0x1DF JUMP JUMPDEST SWAP1 POP SWAP2 SWAP1 POP JUMP INVALID LOG2 PUSH5 0x6970667358 0x22 SLT KECCAK256 0xA7 CALLVALUE PUSH24 0xEF342644EFF1494C3995D356FE2B07F3FD69222AC5E00880 0xCC SAR 0xA8 TIMESTAMP 0xBC PUSH5 0x736F6C6343 STOP ADDMOD 0x1E STOP CALLER PUSH1 0x80 PUSH1 0x40 MSTORE CALLVALUE DUP1 ISZERO PUSH2 0xF JUMPI PUSH0 PUSH0 REVERT JUMPDEST POP PUSH1 0x40 MLOAD PUSH2 0x3E7 CODESIZE SUB DUP1 PUSH2 0x3E7 DUP4 CODECOPY DUP2 DUP2 ADD PUSH1 0x40 MSTORE DUP2 ADD SWAP1 PUSH2 0x31 SWAP2 SWAP1 PUSH2 0xC1 JUMP JUMPDEST PUSH0 DUP2 SUB PUSH2 0x73 JUMPI PUSH1 0x40 MLOAD PUSH32 0x8C379A000000000000000000000000000000000000000000000000000000000 DUP2 MSTORE PUSH1 0x4 ADD PUSH2 0x6A SWAP1 PUSH2 0x146 JUMP JUMPDEST PUSH1 0x40 MLOAD DUP1 SWAP2 SUB SWAP1 REVERT JUMPDEST PUSH1 0x1 DUP2 SUB PUSH2 0x84 JUMPI PUSH2 0x83 PUSH2 0x164 JUMP JUMPDEST JUMPDEST POP PUSH2 0x191 JUMP JUMPDEST PUSH0 PUSH0 REVERT JUMPDEST PUSH0 DUP2 SWAP1 POP SWAP2 SWAP1 POP JUMP JUMPDEST PUSH2 0xA0 DUP2 PUSH2 0x8E JUMP JUMPDEST DUP2 EQ PUSH2 0xAA JUMPI PUSH0 PUSH0 REVERT JUMPDEST POP JUMP JUMPDEST PUSH0 DUP2 MLOAD SWAP1 POP PUSH2 0xBB DUP2 PUSH2 0x97 JUMP JUMPDEST SWAP3 SWAP2 POP POP JUMP JUMPDEST PUSH0 PUSH1 0x20 DUP3 DUP5 SUB SLT ISZERO PUSH2 0xD6 JUMPI PUSH2 0xD5 PUSH2 0x8A JUMP JUMPDEST JUMPDEST PUSH0 PUSH2 0xE3 DUP5 DUP3 DUP6 ADD PUSH2 0xAD JUMP JUMPDEST SWAP2 POP POP SWAP3 SWAP2 POP POP JUMP JUMPDEST PUSH0 DUP3 DUP3 MSTORE PUSH1 0x20 DUP3 ADD SWAP1 POP SWAP3 SWAP2 POP POP JUMP JUMPDEST PUSH32 0x696E76616C6964206E756D626572000000000000000000000000000000000000 PUSH0 DUP3 ADD MSTORE POP JUMP JUMPDEST PUSH0 PUSH2 0x130 PUSH1 0xE DUP4 PUSH2 0xEC JUMP JUMPDEST SWAP2 POP PUSH2 0x13B DUP3 PUSH2 0xFC JUMP JUMPDEST PUSH1 0x20 DUP3 ADD SWAP1 POP SWAP2 SWAP1 POP JUMP JUMPDEST PUSH0 PUSH1 0x20 DUP3 ADD SWAP1 POP DUP2 DUP2 SUB PUSH0 DUP4 ADD MSTORE PUSH2 0x15D DUP2 PUSH2 0x124 JUMP JUMPDEST SWAP1 POP SWAP2 SWAP1 POP JUMP JUMPDEST PUSH32 0x4E487B7100000000000000000000000000000000000000000000000000000000 PUSH0 MSTORE PUSH1 0x1 PUSH1 0x4 MSTORE PUSH1 0x24 PUSH0 REVERT JUMPDEST PUSH2 0x249 DUP1 PUSH2 0x19E PUSH0 CODECOPY PUSH0 RETURN INVALID PUSH1 0x80 PUSH1 0x40 MSTORE CALLVALUE DUP1 ISZERO PUSH2 0xF JUMPI PUSH0 PUSH0 REVERT JUMPDEST POP PUSH1 0x4 CALLDATASIZE LT PUSH2 0x29 JUMPI PUSH0 CALLDATALOAD PUSH1 0xE0 SHR DUP1 PUSH4 0xCE0B4213 EQ PUSH2 0x2D JUMPI JUMPDEST PUSH0 PUSH0 REVERT JUMPDEST PUSH2 0x47 PUSH1 0x4 DUP1 CALLDATASIZE SUB DUP2 ADD SWAP1 PUSH2 0x42 SWAP2 SWAP1 PUSH2 0xEB JUMP JUMPDEST PUSH2 0x5D JUMP JUMPDEST PUSH1 0x40 MLOAD PUSH2 0x54 SWAP2 SWAP1 PUSH2 0x125 JUMP JUMPDEST PUSH1 0x40 MLOAD DUP1 SWAP2 SUB SWAP1 RETURN JUMPDEST PUSH0 PUSH0 PUSH1 0x2 DUP4 PUSH2 0x6C SWAP2 SWAP1 PUSH2 0x16B JUMP JUMPDEST EQ PUSH2 0xAC JUMPI PUSH1 0x40 MLOAD PUSH32 0x8C379A000000000000000000000000000000000000000000000000000000000 DUP2 MSTORE PUSH1 0x4 ADD PUSH2 0xA3 SWAP1 PUSH2 0x1F5 JUMP JUMPDEST PUSH1 0x40 MLOAD DUP1 SWAP2 SUB SWAP1 REVERT JUMPDEST DUP2 SWAP1 POP SWAP2 SWAP1 POP JUMP JUMPDEST PUSH0 PUSH0 REVERT JUMPDEST PUSH0 DUP2 SWAP1 POP SWAP2 SWAP1 POP JUMP JUMPDEST PUSH2 0xCA DUP2 PUSH2 0xB8 JUMP JUMPDEST DUP2 EQ PUSH2 0xD4 JUMPI PUSH0 PUSH0 REVERT JUMPDEST POP JUMP JUMPDEST PUSH0 DUP2 CALLDATALOAD SWAP1 POP PUSH2 0xE5 DUP2 PUSH2 0xC1 JUMP JUMPDEST SWAP3 SWAP2 POP POP JUMP JUMPDEST PUSH0 PUSH1 0x20 DUP3 DUP5 SUB SLT ISZERO PUSH2 0x100 JUMPI PUSH2 0xFF PUSH2 0xB4 JUMP JUMPDEST JUMPDEST PUSH0 PUSH2 0x10D DUP5 DUP3 DUP6 ADD PUSH2 0xD7 JUMP JUMPDEST SWAP2 POP POP SWAP3 SWAP2 POP POP JUMP JUMPDEST PUSH2 0x11F DUP2 PUSH2 0xB8 JUMP JUMPDEST DUP3 MSTORE POP POP JUMP JUMPDEST PUSH0 PUSH1 0x20 DUP3 ADD SWAP1 POP PUSH2 0x138 PUSH0 DUP4 ADD DUP5 PUSH2 0x116 JUMP JUMPDEST SWAP3 SWAP2 POP POP JUMP JUMPDEST PUSH32 0x4E487B7100000000000000000000000000000000000000000000000000000000 PUSH0 MSTORE PUSH1 0x12 PUSH1 0x4 MSTORE PUSH1 0x24 PUSH0 REVERT JUMPDEST PUSH0 PUSH2 0x175 DUP3 PUSH2 0xB8 JUMP JUMPDEST SWAP2 POP PUSH2 0x180 DUP4 PUSH2 0xB8 JUMP JUMPDEST SWAP3 POP DUP3 PUSH2 0x190 JUMPI PUSH2 0x18F PUSH2 0x13E JUMP JUMPDEST JUMPDEST DUP3 DUP3 MOD SWAP1 POP SWAP3 SWAP2 POP POP JUMP JUMPDEST PUSH0 DUP3 DUP3 MSTORE PUSH1 0x20 DUP3 ADD SWAP1 POP SWAP3 SWAP2 POP POP JUMP JUMPDEST PUSH32 0x5570732120526576657274696E67000000000000000000000000000000000000 PUSH0 DUP3 ADD MSTORE POP JUMP JUMPDEST PUSH0 PUSH2 0x1DF PUSH1 0xE DUP4 PUSH2 0x19B JUMP JUMPDEST SWAP2 POP PUSH2 0x1EA DUP3 PUSH2 0x1AB JUMP JUMPDEST PUSH1 0x20 DUP3 ADD SWAP1 POP SWAP2 SWAP1 POP JUMP JUMPDEST PUSH0 PUSH1 0x20 DUP3 ADD SWAP1 POP DUP2 DUP2 SUB PUSH0 DUP4 ADD MSTORE PUSH2 0x20C DUP2 PUSH2 0x1D3 JUMP JUMPDEST SWAP1 POP SWAP2 SWAP1 POP JUMP INVALID LOG2 PUSH5 0x6970667358 0x22 SLT KECCAK256 ORIGIN PUSH4 0x3C3DA88F SELFDESTRUCT 0xDF PUSH32 0x27837A2848FAF95CE250B4E61B9FC49370E9B1CC72ECC764736F6C634300081E STOP CALLER LOG2 PUSH5 0x6970667358 0x22 SLT KECCAK256 EXTCODECOPY OR 0xB3 0x21 0x2A PUSH26 0xDCB259CC76792B77A2A340194708FC95F1C495EA3919213CA055 PUSH5 0x736F6C6343 STOP ADDMOD 0x1E STOP CALLER PUSH1 0x80 PUSH1 0x40 MSTORE CALLVALUE DUP1 ISZERO PUSH2 0xF JUMPI PUSH0 PUSH0 REVERT JUMPDEST POP PUSH1 0x40 MLOAD PUSH2 0x3F3 CODESIZE SUB DUP1 PUSH2 0x3F3 DUP4 CODECOPY DUP2 DUP2 ADD PUSH1 0x40 MSTORE DUP2 ADD SWAP1 PUSH2 0x31 SWAP2 SWAP1 PUSH2 0xC1 JUMP JUMPDEST PUSH0 DUP2 SUB PUSH2 0x73 JUMPI PUSH1 0x40 MLOAD PUSH32 0x8C379A000000000000000000000000000000000000000000000000000000000 DUP2 MSTORE PUSH1 0x4 ADD PUSH2 0x6A SWAP1 PUSH2 0x146 JUMP JUMPDEST PUSH1 0x40 MLOAD DUP1 SWAP2 SUB SWAP1 REVERT JUMPDEST PUSH1 0x1 DUP2 SUB PUSH2 0x84 JUMPI PUSH2 0x83 PUSH2 0x164 JUMP JUMPDEST JUMPDEST POP PUSH2 0x191 JUMP JUMPDEST PUSH0 PUSH0 REVERT JUMPDEST PUSH0 DUP2 SWAP1 POP SWAP2 SWAP1 POP JUMP JUMPDEST PUSH2 0xA0 DUP2 PUSH2 0x8E JUMP JUMPDEST DUP2 EQ PUSH2 0xAA JUMPI PUSH0 PUSH0 REVERT JUMPDEST POP JUMP JUMPDEST PUSH0 DUP2 MLOAD SWAP1 POP PUSH2 0xBB DUP2 PUSH2 0x97 JUMP JUMPDEST SWAP3 SWAP2 POP POP JUMP JUMPDEST PUSH0 PUSH1 0x20 DUP3 DUP5 SUB SLT ISZERO PUSH2 0xD6 JUMPI PUSH2 0xD5 PUSH2 0x8A JUMP JUMPDEST JUMPDEST PUSH0 PUSH2 0xE3 DUP5 DUP3 DUP6 ADD PUSH2 0xAD JUMP JUMPDEST SWAP2 POP POP SWAP3 SWAP2 POP POP JUMP JUMPDEST PUSH0 DUP3 DUP3 MSTORE PUSH1 0x20 DUP3 ADD SWAP1 POP SWAP3 SWAP2 POP POP JUMP JUMPDEST PUSH32 0x696E76616C6964206E756D626572000000000000000000000000000000000000 PUSH0 DUP3 ADD MSTORE POP JUMP JUMPDEST PUSH0 PUSH2 0x130 PUSH1 0xE DUP4 PUSH2 0xEC JUMP JUMPDEST SWAP2 POP PUSH2 0x13B DUP3 PUSH2 0xFC JUMP JUMPDEST PUSH1 0x20 DUP3 ADD SWAP1 POP SWAP2 SWAP1 POP JUMP JUMPDEST PUSH0 PUSH1 0x20 DUP3 ADD SWAP1 POP DUP2 DUP2 SUB PUSH0 DUP4 ADD MSTORE PUSH2 0x15D DUP2 PUSH2 0x124 JUMP JUMPDEST SWAP1 POP SWAP2 SWAP1 POP JUMP JUMPDEST PUSH32 0x4E487B7100000000000000000000000000000000000000000000000000000000 PUSH0 MSTORE PUSH1 0x1 PUSH1 0x4 MSTORE PUSH1 0x24 PUSH0 REVERT JUMPDEST PUSH2 0x255 DUP1 PUSH2 0x19E PUSH0 CODECOPY PUSH0 RETURN INVALID PUSH1 0x80 PUSH1 0x40 MSTORE CALLVALUE DUP1 ISZERO PUSH2 0xF JUMPI PUSH0 PUSH0 REVERT JUMPDEST POP PUSH1 0x4 CALLDATASIZE LT PUSH2 0x29 JUMPI PUSH0 CALLDATALOAD PUSH1 0xE0 SHR DUP1 PUSH4 0xCE0B4213 EQ PUSH2 0x2D JUMPI JUMPDEST PUSH0 PUSH0 REVERT JUMPDEST PUSH2 0x47 PUSH1 0x4 DUP1 CALLDATASIZE SUB DUP2 ADD SWAP1 PUSH2 0x42 SWAP2 SWAP1 PUSH2 0xEC JUMP JUMPDEST PUSH2 0x5D JUMP JUMPDEST PUSH1 0x40 MLOAD PUSH2 0x54 SWAP2 SWAP1 PUSH2 0x131 JUMP JUMPDEST PUSH1 0x40 MLOAD DUP1 SWAP2 SUB SWAP1 RETURN JUMPDEST PUSH0 PUSH0 PUSH1 0x2 DUP4 PUSH2 0x6C SWAP2 SWAP1 PUSH2 0x177 JUMP JUMPDEST EQ PUSH2 0xAC JUMPI PUSH1 0x40 MLOAD PUSH32 0x8C379A000000000000000000000000000000000000000000000000000000000 DUP2 MSTORE PUSH1 0x4 ADD PUSH2 0xA3 SWAP1 PUSH2 0x201 JUMP JUMPDEST PUSH1 0x40 MLOAD DUP1 SWAP2 SUB SWAP1 REVERT JUMPDEST PUSH1 0x1 SWAP1 POP SWAP2 SWAP1 POP JUMP JUMPDEST PUSH0 PUSH0 REVERT JUMPDEST PUSH0 DUP2 SWAP1 POP SWAP2 SWAP1 POP JUMP JUMPDEST PUSH2 0xCB DUP2 PUSH2 0xB9 JUMP JUMPDEST DUP2 EQ PUSH2 0xD5 JUMPI PUSH0 PUSH0 REVERT JUMPDEST POP JUMP JUMPDEST PUSH0 DUP2 CALLDATALOAD SWAP1 POP PUSH2 0xE6 DUP2 PUSH2 0xC2 JUMP JUMPDEST SWAP3 SWAP2 POP POP JUMP JUMPDEST PUSH0 PUSH1 0x20 DUP3 DUP5 SUB SLT ISZERO PUSH2 0x101 JUMPI PUSH2 0x100 PUSH2 0xB5 JUMP JUMPDEST JUMPDEST PUSH0 PUSH2 0x10E DUP5 DUP3 DUP6 ADD PUSH2 0xD8 JUMP JUMPDEST SWAP2 POP POP SWAP3 SWAP2 POP POP JUMP JUMPDEST PUSH0 DUP2 ISZERO ISZERO SWAP1 POP SWAP2 SWAP1 POP JUMP JUMPDEST PUSH2 0x12B DUP2 PUSH2 0x117 JUMP JUMPDEST DUP3 MSTORE POP POP JUMP JUMPDEST PUSH0 PUSH1 0x20 DUP3 ADD SWAP1 POP PUSH2 0x144 PUSH0 DUP4 ADD DUP5 PUSH2 0x122 JUMP JUMPDEST SWAP3 SWAP2 POP POP JUMP JUMPDEST PUSH32 0x4E487B7100000000000000000000000000000000000000000000000000000000 PUSH0 MSTORE PUSH1 0x12 PUSH1 0x4 MSTORE PUSH1 0x24 PUSH0 REVERT JUMPDEST PUSH0 PUSH2 0x181 DUP3 PUSH2 0xB9 JUMP JUMPDEST SWAP2 POP PUSH2 0x18C DUP4 PUSH2 0xB9 JUMP JUMPDEST SWAP3 POP DUP3 PUSH2 0x19C JUMPI PUSH2 0x19B PUSH2 0x14A JUMP JUMPDEST JUMPDEST DUP3 DUP3 MOD SWAP1 POP SWAP3 SWAP2 POP POP JUMP JUMPDEST PUSH0 DUP3 DUP3 MSTORE PUSH1 0x20 DUP3 ADD SWAP1 POP SWAP3 SWAP2 POP POP JUMP JUMPDEST PUSH32 0x5570732120526576657274696E67000000000000000000000000000000000000 PUSH0 DUP3 ADD MSTORE POP JUMP JUMPDEST PUSH0 PUSH2 0x1EB PUSH1 0xE DUP4 PUSH2 0x1A7 JUMP JUMPDEST SWAP2 POP PUSH2 0x1F6 DUP3 PUSH2 0x1B7 JUMP JUMPDEST PUSH1 0x20 DUP3 ADD SWAP1 POP SWAP2 SWAP1 POP JUMP JUMPDEST PUSH0 PUSH1 0x20 DUP3 ADD SWAP1 POP DUP2 DUP2 SUB PUSH0 DUP4 ADD MSTORE PUSH2 0x218 DUP2 PUSH2 0x1DF JUMP JUMPDEST SWAP1 POP SWAP2 SWAP1 POP JUMP INVALID LOG2 PUSH5 0x6970667358 0x22 SLT KECCAK256 0xA7 CALLVALUE PUSH24 0xEF342644EFF1494C3995D356FE2B07F3FD69222AC5E00880 0xCC SAR 0xA8 TIMESTAMP 0xBC PUSH5 0x736F6C6343 STOP ADDMOD 0x1E STOP CALLER "
				},
				"gasEstimates": {
					"creation": {
						"codeDepositCost": "957800",
						"executionCost": "infinite",
						"totalCost": "infinite"
					},
					"external": {
						"execute(uint256)": "infinite",
						"executeNew(uint256)": "infinite",
						"executeRevert()": "infinite",
						"executeRevert2()": "infinite"
					}
				},
				"methodIdentifiers": {
					"execute(uint256)": "fe0d94c1",
					"executeNew(uint256)": "60ebc172",
					"executeRevert()": "7e3b0c57",
					"executeRevert2()": "617a691c"
				}
			},
			"storageLayout": {
				"storage": [
					{
						"astId": 96,
						"contract": "TraCatch.sol:TryCatch",
						"label": "even",
						"offset": 0,
						"slot": "0",
						"type": "t_contract(OnlyEven)42"
					}
				],
				"types": {
					"t_contract(OnlyEven)42": {
						"encoding": "inplace",
						"label": "contract OnlyEven",
						"numberOfBytes": "20"
					}
				}
			},
			"userdoc": {
				"kind": "user",
				"methods": {},
				"version": 1
			}
		}
	}
}