{
	"Task2/work3/BeggingContract.sol": {
		"BeggingContract": {
			"abi": [
				{
					"inputs": [
						{
							"internalType": "uint256",
							"name": "startTime",
							"type": "uint256"
						},
						{
							"internalType": "uint256",
							"name": "duration",
							"type": "uint256"
						}
					],
					"stateMutability": "nonpayable",
					"type": "constructor"
				},
				{
					"inputs": [
						{
							"internalType": "address",
							"name": "owner",
							"type": "address"
						}
					],
					"name": "OwnableInvalidOwner",
					"type": "error"
				},
				{
					"inputs": [
						{
							"internalType": "address",
							"name": "account",
							"type": "address"
						}
					],
					"name": "OwnableUnauthorizedAccount",
					"type": "error"
				},
				{
					"anonymous": false,
					"inputs": [
						{
							"indexed": false,
							"internalType": "address",
							"name": "from",
							"type": "address"
						},
						{
							"indexed": false,
							"internalType": "uint256",
							"name": "amount",
							"type": "uint256"
						}
					],
					"name": "Donate",
					"type": "event"
				},
				{
					"anonymous": false,
					"inputs": [
						{
							"indexed": true,
							"internalType": "address",
							"name": "previousOwner",
							"type": "address"
						},
						{
							"indexed": true,
							"internalType": "address",
							"name": "newOwner",
							"type": "address"
						}
					],
					"name": "OwnershipTransferred",
					"type": "event"
				},
				{
					"anonymous": false,
					"inputs": [
						{
							"indexed": false,
							"internalType": "address",
							"name": "owner",
							"type": "address"
						},
						{
							"indexed": false,
							"internalType": "uint256",
							"name": "amount",
							"type": "uint256"
						}
					],
					"name": "Withdraw",
					"type": "event"
				},
				{
					"stateMutability": "payable",
					"type": "fallback"
				},
				{
					"inputs": [],
					"name": "_donateDurationTime",
					"outputs": [
						{
							"internalType": "uint256",
							"name": "",
							"type": "uint256"
						}
					],
					"stateMutability": "view",
					"type": "function"
				},
				{
					"inputs": [],
					"name": "_donateStartTime",
					"outputs": [
						{
							"internalType": "uint256",
							"name": "",
							"type": "uint256"
						}
					],
					"stateMutability": "view",
					"type": "function"
				},
				{
					"inputs": [],
					"name": "_donateSum",
					"outputs": [
						{
							"internalType": "uint256",
							"name": "",
							"type": "uint256"
						}
					],
					"stateMutability": "view",
					"type": "function"
				},
				{
					"inputs": [
						{
							"internalType": "uint256",
							"name": "",
							"type": "uint256"
						}
					],
					"name": "_donaterTop3",
					"outputs": [
						{
							"internalType": "address",
							"name": "",
							"type": "address"
						}
					],
					"stateMutability": "view",
					"type": "function"
				},
				{
					"inputs": [],
					"name": "_releaseSum",
					"outputs": [
						{
							"internalType": "uint256",
							"name": "",
							"type": "uint256"
						}
					],
					"stateMutability": "view",
					"type": "function"
				},
				{
					"inputs": [],
					"name": "donate",
					"outputs": [],
					"stateMutability": "payable",
					"type": "function"
				},
				{
					"inputs": [
						{
							"internalType": "address",
							"name": "donater",
							"type": "address"
						}
					],
					"name": "getDonate",
					"outputs": [
						{
							"internalType": "uint256",
							"name": "",
							"type": "uint256"
						}
					],
					"stateMutability": "view",
					"type": "function"
				},
				{
					"inputs": [],
					"name": "getTop3",
					"outputs": [
						{
							"internalType": "address[3]",
							"name": "",
							"type": "address[3]"
						}
					],
					"stateMutability": "view",
					"type": "function"
				},
				{
					"inputs": [],
					"name": "owner",
					"outputs": [
						{
							"internalType": "address",
							"name": "",
							"type": "address"
						}
					],
					"stateMutability": "view",
					"type": "function"
				},
				{
					"inputs": [],
					"name": "renounceOwnership",
					"outputs": [],
					"stateMutability": "nonpayable",
					"type": "function"
				},
				{
					"inputs": [
						{
							"internalType": "address",
							"name": "newOwner",
							"type": "address"
						}
					],
					"name": "transferOwnership",
					"outputs": [],
					"stateMutability": "nonpayable",
					"type": "function"
				},
				{
					"inputs": [
						{
							"internalType": "uint256",
							"name": "amt",
							"type": "uint256"
						}
					],
					"name": "withdraw",
					"outputs": [],
					"stateMutability": "payable",
					"type": "function"
				},
				{
					"stateMutability": "payable",
					"type": "receive"
				}
			],
			"devdoc": {
				"errors": {
					"OwnableInvalidOwner(address)": [
						{
							"details": "The owner is not a valid owner account. (eg. `address(0)`)"
						}
					],
					"OwnableUnauthorizedAccount(address)": [
						{
							"details": "The caller account is not authorized to perform an operation."
						}
					]
				},
				"kind": "dev",
				"methods": {
					"owner()": {
						"details": "Returns the address of the current owner."
					},
					"renounceOwnership()": {
						"details": "Leaves the contract without owner. It will not be possible to call `onlyOwner` functions. Can only be called by the current owner. NOTE: Renouncing ownership will leave the contract without an owner, thereby disabling any functionality that is only available to the owner."
					},
					"transferOwnership(address)": {
						"details": "Transfers ownership of the contract to a new account (`newOwner`). Can only be called by the current owner."
					}
				},
				"version": 1
			},
			"evm": {
				"assembly": "    /* \"Task2/work3/BeggingContract.sol\":117:3436  contract BeggingContract is Ownable {... */\n  mstore(0x40, 0x80)\n    /* \"Task2/work3/BeggingContract.sol\":746:903  constructor(uint256 startTime, uint256 duration) Ownable(msg.sender) {... */\n  callvalue\n  dup1\n  iszero\n  tag_1\n  jumpi\n  revert(0x00, 0x00)\ntag_1:\n  pop\n  mload(0x40)\n  sub(codesize, bytecodeSize)\n  dup1\n  bytecodeSize\n  dup4\n  codecopy\n  dup2\n  dup2\n  add\n  0x40\n  mstore\n  dup2\n  add\n  swap1\n  tag_2\n  swap2\n  swap1\n  tag_3\n  jump\t// in\ntag_2:\n    /* \"Task2/work3/BeggingContract.sol\":803:813  msg.sender */\n  caller\n    /* \"@openzeppelin/contracts/access/Ownable.sol\":1297:1298  0 */\n  0x00\n    /* \"@openzeppelin/contracts/access/Ownable.sol\":1273:1299  initialOwner == address(0) */\n  0xffffffffffffffffffffffffffffffffffffffff\n  and\n    /* \"@openzeppelin/contracts/access/Ownable.sol\":1273:1285  initialOwner */\n  dup2\n    /* \"@openzeppelin/contracts/access/Ownable.sol\":1273:1299  initialOwner == address(0) */\n  0xffffffffffffffffffffffffffffffffffffffff\n  and\n  sub\n    /* \"@openzeppelin/contracts/access/Ownable.sol\":1269:1364  if (initialOwner == address(0)) {... */\n  tag_7\n  jumpi\n    /* \"@openzeppelin/contracts/access/Ownable.sol\":1350:1351  0 */\n  0x00\n    /* \"@openzeppelin/contracts/access/Ownable.sol\":1322:1353  OwnableInvalidOwner(address(0)) */\n  mload(0x40)\n  0x1e4fbdf700000000000000000000000000000000000000000000000000000000\n  dup2\n  mstore\n  0x04\n  add\n  tag_8\n  swap2\n  swap1\n  tag_9\n  jump\t// in\ntag_8:\n  mload(0x40)\n  dup1\n  swap2\n  sub\n  swap1\n  revert\n    /* \"@openzeppelin/contracts/access/Ownable.sol\":1269:1364  if (initialOwner == address(0)) {... */\ntag_7:\n    /* \"@openzeppelin/contracts/access/Ownable.sol\":1373:1405  _transferOwnership(initialOwner) */\n  tag_10\n    /* \"@openzeppelin/contracts/access/Ownable.sol\":1392:1404  initialOwner */\n  dup2\n    /* \"@openzeppelin/contracts/access/Ownable.sol\":1373:1391  _transferOwnership */\n  shl(0x20, tag_11)\n    /* \"@openzeppelin/contracts/access/Ownable.sol\":1373:1405  _transferOwnership(initialOwner) */\n  0x20\n  shr\n  jump\t// in\ntag_10:\n    /* \"@openzeppelin/contracts/access/Ownable.sol\":1225:1412  constructor(address initialOwner) {... */\n  pop\n    /* \"Task2/work3/BeggingContract.sol\":845:854  startTime */\n  dup2\n    /* \"Task2/work3/BeggingContract.sol\":826:842  _donateStartTime */\n  0x03\n    /* \"Task2/work3/BeggingContract.sol\":826:854  _donateStartTime = startTime */\n  dup2\n  swap1\n  sstore\n  pop\n    /* \"Task2/work3/BeggingContract.sol\":887:895  duration */\n  dup1\n    /* \"Task2/work3/BeggingContract.sol\":865:884  _donateDurationTime */\n  0x04\n    /* \"Task2/work3/BeggingContract.sol\":865:895  _donateDurationTime = duration */\n  dup2\n  swap1\n  sstore\n  pop\n    /* \"Task2/work3/BeggingContract.sol\":746:903  constructor(uint256 startTime, uint256 duration) Ownable(msg.sender) {... */\n  pop\n  pop\n    /* \"Task2/work3/BeggingContract.sol\":117:3436  contract BeggingContract is Ownable {... */\n  jump(tag_13)\n    /* \"@openzeppelin/contracts/access/Ownable.sol\":2912:3099  function _transferOwnership(address newOwner) internal virtual {... */\ntag_11:\n    /* \"@openzeppelin/contracts/access/Ownable.sol\":2985:3001  address oldOwner */\n  0x00\n    /* \"@openzeppelin/contracts/access/Ownable.sol\":3004:3010  _owner */\n  0x00\n  0x00\n  swap1\n  sload\n  swap1\n  0x0100\n  exp\n  swap1\n  div\n  0xffffffffffffffffffffffffffffffffffffffff\n  and\n    /* \"@openzeppelin/contracts/access/Ownable.sol\":2985:3010  address oldOwner = _owner */\n  swap1\n  pop\n    /* \"@openzeppelin/contracts/access/Ownable.sol\":3029:3037  newOwner */\n  dup2\n    /* \"@openzeppelin/contracts/access/Ownable.sol\":3020:3026  _owner */\n  0x00\n  0x00\n    /* \"@openzeppelin/contracts/access/Ownable.sol\":3020:3037  _owner = newOwner */\n  0x0100\n  exp\n  dup2\n  sload\n  dup2\n  0xffffffffffffffffffffffffffffffffffffffff\n  mul\n  not\n  and\n  swap1\n  dup4\n  0xffffffffffffffffffffffffffffffffffffffff\n  and\n  mul\n  or\n  swap1\n  sstore\n  pop\n    /* \"@openzeppelin/contracts/access/Ownable.sol\":3083:3091  newOwner */\n  dup2\n    /* \"@openzeppelin/contracts/access/Ownable.sol\":3052:3092  OwnershipTransferred(oldOwner, newOwner) */\n  0xffffffffffffffffffffffffffffffffffffffff\n  and\n    /* \"@openzeppelin/contracts/access/Ownable.sol\":3073:3081  oldOwner */\n  dup2\n    /* \"@openzeppelin/contracts/access/Ownable.sol\":3052:3092  OwnershipTransferred(oldOwner, newOwner) */\n  0xffffffffffffffffffffffffffffffffffffffff\n  and\n  0x8be0079c531659141344cd1fd0a4f28419497f9722a3daafe3b4186f6b6457e0\n  mload(0x40)\n  mload(0x40)\n  dup1\n  swap2\n  sub\n  swap1\n  log3\n    /* \"@openzeppelin/contracts/access/Ownable.sol\":2975:3099  {... */\n  pop\n    /* \"@openzeppelin/contracts/access/Ownable.sol\":2912:3099  function _transferOwnership(address newOwner) internal virtual {... */\n  pop\n  jump\t// out\n    /* \"#utility.yul\":88:205   */\ntag_16:\n    /* \"#utility.yul\":197:198   */\n  0x00\n    /* \"#utility.yul\":194:195   */\n  0x00\n    /* \"#utility.yul\":187:199   */\n  revert\n    /* \"#utility.yul\":334:411   */\ntag_18:\n    /* \"#utility.yul\":371:378   */\n  0x00\n    /* \"#utility.yul\":400:405   */\n  dup2\n    /* \"#utility.yul\":389:405   */\n  swap1\n  pop\n    /* \"#utility.yul\":334:411   */\n  swap2\n  swap1\n  pop\n  jump\t// out\n    /* \"#utility.yul\":417:539   */\ntag_19:\n    /* \"#utility.yul\":490:514   */\n  tag_30\n    /* \"#utility.yul\":508:513   */\n  dup2\n    /* \"#utility.yul\":490:514   */\n  tag_18\n  jump\t// in\ntag_30:\n    /* \"#utility.yul\":483:488   */\n  dup2\n    /* \"#utility.yul\":480:515   */\n  eq\n    /* \"#utility.yul\":470:533   */\n  tag_31\n  jumpi\n    /* \"#utility.yul\":529:530   */\n  0x00\n    /* \"#utility.yul\":526:527   */\n  0x00\n    /* \"#utility.yul\":519:531   */\n  revert\n    /* \"#utility.yul\":470:533   */\ntag_31:\n    /* \"#utility.yul\":417:539   */\n  pop\n  jump\t// out\n    /* \"#utility.yul\":545:688   */\ntag_20:\n    /* \"#utility.yul\":602:607   */\n  0x00\n    /* \"#utility.yul\":633:639   */\n  dup2\n    /* \"#utility.yul\":627:640   */\n  mload\n    /* \"#utility.yul\":618:640   */\n  swap1\n  pop\n    /* \"#utility.yul\":649:682   */\n  tag_33\n    /* \"#utility.yul\":676:681   */\n  dup2\n    /* \"#utility.yul\":649:682   */\n  tag_19\n  jump\t// in\ntag_33:\n    /* \"#utility.yul\":545:688   */\n  swap3\n  swap2\n  pop\n  pop\n  jump\t// out\n    /* \"#utility.yul\":694:1201   */\ntag_3:\n    /* \"#utility.yul\":773:779   */\n  0x00\n    /* \"#utility.yul\":781:787   */\n  0x00\n    /* \"#utility.yul\":830:832   */\n  0x40\n    /* \"#utility.yul\":818:827   */\n  dup4\n    /* \"#utility.yul\":809:816   */\n  dup6\n    /* \"#utility.yul\":805:828   */\n  sub\n    /* \"#utility.yul\":801:833   */\n  slt\n    /* \"#utility.yul\":798:917   */\n  iszero\n  tag_35\n  jumpi\n    /* \"#utility.yul\":836:915   */\n  tag_36\n  tag_16\n  jump\t// in\ntag_36:\n    /* \"#utility.yul\":798:917   */\ntag_35:\n    /* \"#utility.yul\":956:957   */\n  0x00\n    /* \"#utility.yul\":981:1045   */\n  tag_37\n    /* \"#utility.yul\":1037:1044   */\n  dup6\n    /* \"#utility.yul\":1028:1034   */\n  dup3\n    /* \"#utility.yul\":1017:1026   */\n  dup7\n    /* \"#utility.yul\":1013:1035   */\n  add\n    /* \"#utility.yul\":981:1045   */\n  tag_20\n  jump\t// in\ntag_37:\n    /* \"#utility.yul\":971:1045   */\n  swap3\n  pop\n    /* \"#utility.yul\":927:1055   */\n  pop\n    /* \"#utility.yul\":1094:1096   */\n  0x20\n    /* \"#utility.yul\":1120:1184   */\n  tag_38\n    /* \"#utility.yul\":1176:1183   */\n  dup6\n    /* \"#utility.yul\":1167:1173   */\n  dup3\n    /* \"#utility.yul\":1156:1165   */\n  dup7\n    /* \"#utility.yul\":1152:1174   */\n  add\n    /* \"#utility.yul\":1120:1184   */\n  tag_20\n  jump\t// in\ntag_38:\n    /* \"#utility.yul\":1110:1184   */\n  swap2\n  pop\n    /* \"#utility.yul\":1065:1194   */\n  pop\n    /* \"#utility.yul\":694:1201   */\n  swap3\n  pop\n  swap3\n  swap1\n  pop\n  jump\t// out\n    /* \"#utility.yul\":1207:1333   */\ntag_21:\n    /* \"#utility.yul\":1244:1251   */\n  0x00\n    /* \"#utility.yul\":1284:1326   */\n  0xffffffffffffffffffffffffffffffffffffffff\n    /* \"#utility.yul\":1277:1282   */\n  dup3\n    /* \"#utility.yul\":1273:1327   */\n  and\n    /* \"#utility.yul\":1262:1327   */\n  swap1\n  pop\n    /* \"#utility.yul\":1207:1333   */\n  swap2\n  swap1\n  pop\n  jump\t// out\n    /* \"#utility.yul\":1339:1435   */\ntag_22:\n    /* \"#utility.yul\":1376:1383   */\n  0x00\n    /* \"#utility.yul\":1405:1429   */\n  tag_41\n    /* \"#utility.yul\":1423:1428   */\n  dup3\n    /* \"#utility.yul\":1405:1429   */\n  tag_21\n  jump\t// in\ntag_41:\n    /* \"#utility.yul\":1394:1429   */\n  swap1\n  pop\n    /* \"#utility.yul\":1339:1435   */\n  swap2\n  swap1\n  pop\n  jump\t// out\n    /* \"#utility.yul\":1441:1559   */\ntag_23:\n    /* \"#utility.yul\":1528:1552   */\n  tag_43\n    /* \"#utility.yul\":1546:1551   */\n  dup2\n    /* \"#utility.yul\":1528:1552   */\n  tag_22\n  jump\t// in\ntag_43:\n    /* \"#utility.yul\":1523:1526   */\n  dup3\n    /* \"#utility.yul\":1516:1553   */\n  mstore\n    /* \"#utility.yul\":1441:1559   */\n  pop\n  pop\n  jump\t// out\n    /* \"#utility.yul\":1565:1787   */\ntag_9:\n    /* \"#utility.yul\":1658:1662   */\n  0x00\n    /* \"#utility.yul\":1696:1698   */\n  0x20\n    /* \"#utility.yul\":1685:1694   */\n  dup3\n    /* \"#utility.yul\":1681:1699   */\n  add\n    /* \"#utility.yul\":1673:1699   */\n  swap1\n  pop\n    /* \"#utility.yul\":1709:1780   */\n  tag_45\n    /* \"#utility.yul\":1777:1778   */\n  0x00\n    /* \"#utility.yul\":1766:1775   */\n  dup4\n    /* \"#utility.yul\":1762:1779   */\n  add\n    /* \"#utility.yul\":1753:1759   */\n  dup5\n    /* \"#utility.yul\":1709:1780   */\n  tag_23\n  jump\t// in\ntag_45:\n    /* \"#utility.yul\":1565:1787   */\n  swap3\n  swap2\n  pop\n  pop\n  jump\t// out\n    /* \"Task2/work3/BeggingContract.sol\":117:3436  contract BeggingContract is Ownable {... */\ntag_13:\n  dataSize(sub_0)\n  dup1\n  dataOffset(sub_0)\n  0x00\n  codecopy\n  0x00\n  return\nstop\n\nsub_0: assembly {\n        /* \"Task2/work3/BeggingContract.sol\":117:3436  contract BeggingContract is Ownable {... */\n      mstore(0x40, 0x80)\n      jumpi(tag_1, lt(calldatasize, 0x04))\n      shr(0xe0, calldataload(0x00))\n      dup1\n      0x8da5cb5b\n      gt\n      tag_15\n      jumpi\n      dup1\n      0x8da5cb5b\n      eq\n      tag_9\n      jumpi\n      dup1\n      0x93420035\n      eq\n      tag_10\n      jumpi\n      dup1\n      0xb481f3b4\n      eq\n      tag_11\n      jumpi\n      dup1\n      0xbc4c33b4\n      eq\n      tag_12\n      jumpi\n      dup1\n      0xed88c68e\n      eq\n      tag_13\n      jumpi\n      dup1\n      0xf2fde38b\n      eq\n      tag_14\n      jumpi\n      jump(tag_2)\n    tag_15:\n      dup1\n      0x19b9ddf4\n      eq\n      tag_3\n      jumpi\n      dup1\n      0x2e1a7d4d\n      eq\n      tag_4\n      jumpi\n      dup1\n      0x4061a5bf\n      eq\n      tag_5\n      jumpi\n      dup1\n      0x5f48b8b3\n      eq\n      tag_6\n      jumpi\n      dup1\n      0x715018a6\n      eq\n      tag_7\n      jumpi\n      dup1\n      0x769b8d6e\n      eq\n      tag_8\n      jumpi\n      jump(tag_2)\n    tag_1:\n      jumpi(tag_2, calldatasize)\n        /* \"Task2/work3/BeggingContract.sol\":1565:1573  donate() */\n      tag_18\n        /* \"Task2/work3/BeggingContract.sol\":1565:1571  donate */\n      tag_19\n        /* \"Task2/work3/BeggingContract.sol\":1565:1573  donate() */\n      jump\t// in\n    tag_18:\n        /* \"Task2/work3/BeggingContract.sol\":117:3436  contract BeggingContract is Ownable {... */\n      stop\n    tag_2:\n        /* \"Task2/work3/BeggingContract.sol\":1628:1636  donate() */\n      tag_22\n        /* \"Task2/work3/BeggingContract.sol\":1628:1634  donate */\n      tag_19\n        /* \"Task2/work3/BeggingContract.sol\":1628:1636  donate() */\n      jump\t// in\n    tag_22:\n        /* \"Task2/work3/BeggingContract.sol\":117:3436  contract BeggingContract is Ownable {... */\n      stop\n        /* \"Task2/work3/BeggingContract.sol\":3172:3282  function getDonate(address donater) external view returns(uint256) {... */\n    tag_3:\n      callvalue\n      dup1\n      iszero\n      tag_23\n      jumpi\n      revert(0x00, 0x00)\n    tag_23:\n      pop\n      tag_24\n      0x04\n      dup1\n      calldatasize\n      sub\n      dup2\n      add\n      swap1\n      tag_25\n      swap2\n      swap1\n      tag_26\n      jump\t// in\n    tag_25:\n      tag_27\n      jump\t// in\n    tag_24:\n      mload(0x40)\n      tag_28\n      swap2\n      swap1\n      tag_29\n      jump\t// in\n    tag_28:\n      mload(0x40)\n      dup1\n      swap2\n      sub\n      swap1\n      return\n        /* \"Task2/work3/BeggingContract.sol\":1182:1519  function withdraw(uint256 amt) external payable onlyOwner {... */\n    tag_4:\n      tag_30\n      0x04\n      dup1\n      calldatasize\n      sub\n      dup2\n      add\n      swap1\n      tag_31\n      swap2\n      swap1\n      tag_32\n      jump\t// in\n    tag_31:\n      tag_33\n      jump\t// in\n    tag_30:\n      stop\n        /* \"Task2/work3/BeggingContract.sol\":3332:3431  function getTop3() external view returns (address[3] memory) {... */\n    tag_5:\n      callvalue\n      dup1\n      iszero\n      tag_34\n      jumpi\n      revert(0x00, 0x00)\n    tag_34:\n      pop\n      tag_35\n      tag_36\n      jump\t// in\n    tag_35:\n      mload(0x40)\n      tag_37\n      swap2\n      swap1\n      tag_38\n      jump\t// in\n    tag_37:\n      mload(0x40)\n      dup1\n      swap2\n      sub\n      swap1\n      return\n        /* \"Task2/work3/BeggingContract.sol\":314:340  uint256 public _releaseSum */\n    tag_6:\n      callvalue\n      dup1\n      iszero\n      tag_39\n      jumpi\n      revert(0x00, 0x00)\n    tag_39:\n      pop\n      tag_40\n      tag_41\n      jump\t// in\n    tag_40:\n      mload(0x40)\n      tag_42\n      swap2\n      swap1\n      tag_29\n      jump\t// in\n    tag_42:\n      mload(0x40)\n      dup1\n      swap2\n      sub\n      swap1\n      return\n        /* \"@openzeppelin/contracts/access/Ownable.sol\":2293:2394  function renounceOwnership() public virtual onlyOwner {... */\n    tag_7:\n      callvalue\n      dup1\n      iszero\n      tag_43\n      jumpi\n      revert(0x00, 0x00)\n    tag_43:\n      pop\n      tag_44\n      tag_45\n      jump\t// in\n    tag_44:\n      stop\n        /* \"Task2/work3/BeggingContract.sol\":282:307  uint256 public _donateSum */\n    tag_8:\n      callvalue\n      dup1\n      iszero\n      tag_46\n      jumpi\n      revert(0x00, 0x00)\n    tag_46:\n      pop\n      tag_47\n      tag_48\n      jump\t// in\n    tag_47:\n      mload(0x40)\n      tag_49\n      swap2\n      swap1\n      tag_29\n      jump\t// in\n    tag_49:\n      mload(0x40)\n      dup1\n      swap2\n      sub\n      swap1\n      return\n        /* \"@openzeppelin/contracts/access/Ownable.sol\":1638:1723  function owner() public view virtual returns (address) {... */\n    tag_9:\n      callvalue\n      dup1\n      iszero\n      tag_50\n      jumpi\n      revert(0x00, 0x00)\n    tag_50:\n      pop\n      tag_51\n      tag_52\n      jump\t// in\n    tag_51:\n      mload(0x40)\n      tag_53\n      swap2\n      swap1\n      tag_54\n      jump\t// in\n    tag_53:\n      mload(0x40)\n      dup1\n      swap2\n      sub\n      swap1\n      return\n        /* \"Task2/work3/BeggingContract.sol\":585:615  address[3] public _donaterTop3 */\n    tag_10:\n      callvalue\n      dup1\n      iszero\n      tag_55\n      jumpi\n      revert(0x00, 0x00)\n    tag_55:\n      pop\n      tag_56\n      0x04\n      dup1\n      calldatasize\n      sub\n      dup2\n      add\n      swap1\n      tag_57\n      swap2\n      swap1\n      tag_32\n      jump\t// in\n    tag_57:\n      tag_58\n      jump\t// in\n    tag_56:\n      mload(0x40)\n      tag_59\n      swap2\n      swap1\n      tag_54\n      jump\t// in\n    tag_59:\n      mload(0x40)\n      dup1\n      swap2\n      sub\n      swap1\n      return\n        /* \"Task2/work3/BeggingContract.sol\":375:406  uint256 public _donateStartTime */\n    tag_11:\n      callvalue\n      dup1\n      iszero\n      tag_60\n      jumpi\n      revert(0x00, 0x00)\n    tag_60:\n      pop\n      tag_61\n      tag_62\n      jump\t// in\n    tag_61:\n      mload(0x40)\n      tag_63\n      swap2\n      swap1\n      tag_29\n      jump\t// in\n    tag_63:\n      mload(0x40)\n      dup1\n      swap2\n      sub\n      swap1\n      return\n        /* \"Task2/work3/BeggingContract.sol\":433:467  uint256 public _donateDurationTime */\n    tag_12:\n      callvalue\n      dup1\n      iszero\n      tag_64\n      jumpi\n      revert(0x00, 0x00)\n    tag_64:\n      pop\n      tag_65\n      tag_66\n      jump\t// in\n    tag_65:\n      mload(0x40)\n      tag_67\n      swap2\n      swap1\n      tag_29\n      jump\t// in\n    tag_67:\n      mload(0x40)\n      dup1\n      swap2\n      sub\n      swap1\n      return\n        /* \"Task2/work3/BeggingContract.sol\":1844:3067  function donate() public payable {... */\n    tag_13:\n      tag_68\n      tag_19\n      jump\t// in\n    tag_68:\n      stop\n        /* \"@openzeppelin/contracts/access/Ownable.sol\":2543:2758  function transferOwnership(address newOwner) public virtual onlyOwner {... */\n    tag_14:\n      callvalue\n      dup1\n      iszero\n      tag_69\n      jumpi\n      revert(0x00, 0x00)\n    tag_69:\n      pop\n      tag_70\n      0x04\n      dup1\n      calldatasize\n      sub\n      dup2\n      add\n      swap1\n      tag_71\n      swap2\n      swap1\n      tag_26\n      jump\t// in\n    tag_71:\n      tag_72\n      jump\t// in\n    tag_70:\n      stop\n        /* \"Task2/work3/BeggingContract.sol\":1844:3067  function donate() public payable {... */\n    tag_19:\n        /* \"Task2/work3/BeggingContract.sol\":1908:1909  0 */\n      0x00\n        /* \"Task2/work3/BeggingContract.sol\":1896:1905  msg.value */\n      callvalue\n        /* \"Task2/work3/BeggingContract.sol\":1896:1909  msg.value > 0 */\n      gt\n        /* \"Task2/work3/BeggingContract.sol\":1888:1947  require(msg.value > 0, \"value should be greater than zero\") */\n      tag_74\n      jumpi\n      mload(0x40)\n      0x08c379a000000000000000000000000000000000000000000000000000000000\n      dup2\n      mstore\n      0x04\n      add\n      tag_75\n      swap1\n      tag_76\n      jump\t// in\n    tag_75:\n      mload(0x40)\n      dup1\n      swap2\n      sub\n      swap1\n      revert\n    tag_74:\n        /* \"Task2/work3/BeggingContract.sol\":1984:2000  _donateStartTime */\n      sload(0x03)\n        /* \"Task2/work3/BeggingContract.sol\":1966:1981  block.timestamp */\n      timestamp\n        /* \"Task2/work3/BeggingContract.sol\":1966:2000  block.timestamp > _donateStartTime */\n      gt\n        /* \"Task2/work3/BeggingContract.sol\":1958:2021  require(block.timestamp > _donateStartTime, \"donate not start\") */\n      tag_77\n      jumpi\n      mload(0x40)\n      0x08c379a000000000000000000000000000000000000000000000000000000000\n      dup2\n      mstore\n      0x04\n      add\n      tag_78\n      swap1\n      tag_79\n      jump\t// in\n    tag_78:\n      mload(0x40)\n      dup1\n      swap2\n      sub\n      swap1\n      revert\n    tag_77:\n        /* \"Task2/work3/BeggingContract.sol\":2077:2096  _donateDurationTime */\n      sload(0x04)\n        /* \"Task2/work3/BeggingContract.sol\":2058:2074  _donateStartTime */\n      sload(0x03)\n        /* \"Task2/work3/BeggingContract.sol\":2058:2096  _donateStartTime + _donateDurationTime */\n      tag_80\n      swap2\n      swap1\n      tag_81\n      jump\t// in\n    tag_80:\n        /* \"Task2/work3/BeggingContract.sol\":2040:2055  block.timestamp */\n      timestamp\n        /* \"Task2/work3/BeggingContract.sol\":2040:2096  block.timestamp < _donateStartTime + _donateDurationTime */\n      lt\n        /* \"Task2/work3/BeggingContract.sol\":2032:2122  require(block.timestamp < _donateStartTime + _donateDurationTime, \"donate has been ended\") */\n      tag_82\n      jumpi\n      mload(0x40)\n      0x08c379a000000000000000000000000000000000000000000000000000000000\n      dup2\n      mstore\n      0x04\n      add\n      tag_83\n      swap1\n      tag_84\n      jump\t// in\n    tag_83:\n      mload(0x40)\n      dup1\n      swap2\n      sub\n      swap1\n      revert\n    tag_82:\n        /* \"Task2/work3/BeggingContract.sol\":2159:2168  msg.value */\n      callvalue\n        /* \"Task2/work3/BeggingContract.sol\":2135:2143  _donates */\n      0x08\n        /* \"Task2/work3/BeggingContract.sol\":2135:2155  _donates[msg.sender] */\n      0x00\n        /* \"Task2/work3/BeggingContract.sol\":2144:2154  msg.sender */\n      caller\n        /* \"Task2/work3/BeggingContract.sol\":2135:2155  _donates[msg.sender] */\n      0xffffffffffffffffffffffffffffffffffffffff\n      and\n      0xffffffffffffffffffffffffffffffffffffffff\n      and\n      dup2\n      mstore\n      0x20\n      add\n      swap1\n      dup2\n      mstore\n      0x20\n      add\n      0x00\n      keccak256\n      0x00\n        /* \"Task2/work3/BeggingContract.sol\":2135:2168  _donates[msg.sender] += msg.value */\n      dup3\n      dup3\n      sload\n      tag_85\n      swap2\n      swap1\n      tag_81\n      jump\t// in\n    tag_85:\n      swap3\n      pop\n      pop\n      dup2\n      swap1\n      sstore\n      pop\n        /* \"Task2/work3/BeggingContract.sol\":2193:2202  msg.value */\n      callvalue\n        /* \"Task2/work3/BeggingContract.sol\":2179:2189  _donateSum */\n      0x01\n      0x00\n        /* \"Task2/work3/BeggingContract.sol\":2179:2202  _donateSum += msg.value */\n      dup3\n      dup3\n      sload\n      tag_86\n      swap2\n      swap1\n      tag_81\n      jump\t// in\n    tag_86:\n      swap3\n      pop\n      pop\n      dup2\n      swap1\n      sstore\n      pop\n        /* \"Task2/work3/BeggingContract.sol\":2215:2229  uint256 sumAmt */\n      0x00\n        /* \"Task2/work3/BeggingContract.sol\":2232:2240  _donates */\n      0x08\n        /* \"Task2/work3/BeggingContract.sol\":2232:2252  _donates[msg.sender] */\n      0x00\n        /* \"Task2/work3/BeggingContract.sol\":2241:2251  msg.sender */\n      caller\n        /* \"Task2/work3/BeggingContract.sol\":2232:2252  _donates[msg.sender] */\n      0xffffffffffffffffffffffffffffffffffffffff\n      and\n      0xffffffffffffffffffffffffffffffffffffffff\n      and\n      dup2\n      mstore\n      0x20\n      add\n      swap1\n      dup2\n      mstore\n      0x20\n      add\n      0x00\n      keccak256\n      sload\n        /* \"Task2/work3/BeggingContract.sol\":2215:2252  uint256 sumAmt = _donates[msg.sender] */\n      swap1\n      pop\n        /* \"Task2/work3/BeggingContract.sol\":2291:2298  uint8 i */\n      0x00\n        /* \"Task2/work3/BeggingContract.sol\":2301:2302  0 */\n      0x00\n        /* \"Task2/work3/BeggingContract.sol\":2291:2302  uint8 i = 0 */\n      swap1\n      pop\n        /* \"Task2/work3/BeggingContract.sol\":2287:3015  for(uint8 i = 0; i<3; i++){... */\n    tag_87:\n        /* \"Task2/work3/BeggingContract.sol\":2306:2307  3 */\n      0x03\n        /* \"Task2/work3/BeggingContract.sol\":2304:2305  i */\n      dup2\n        /* \"Task2/work3/BeggingContract.sol\":2304:2307  i<3 */\n      0xff\n      and\n      lt\n        /* \"Task2/work3/BeggingContract.sol\":2287:3015  for(uint8 i = 0; i<3; i++){... */\n      iszero\n      tag_88\n      jumpi\n        /* \"Task2/work3/BeggingContract.sol\":2328:2343  address donater */\n      0x00\n        /* \"Task2/work3/BeggingContract.sol\":2346:2358  _donaterTop3 */\n      0x05\n        /* \"Task2/work3/BeggingContract.sol\":2359:2360  i */\n      dup3\n        /* \"Task2/work3/BeggingContract.sol\":2346:2361  _donaterTop3[i] */\n      0xff\n      and\n      0x03\n      dup2\n      lt\n      tag_90\n      jumpi\n      tag_91\n      tag_92\n      jump\t// in\n    tag_91:\n    tag_90:\n      add\n      0x00\n      swap1\n      sload\n      swap1\n      0x0100\n      exp\n      swap1\n      div\n      0xffffffffffffffffffffffffffffffffffffffff\n      and\n        /* \"Task2/work3/BeggingContract.sol\":2328:2361  address donater = _donaterTop3[i] */\n      swap1\n      pop\n        /* \"Task2/work3/BeggingContract.sol\":2388:2396  _donates */\n      0x08\n        /* \"Task2/work3/BeggingContract.sol\":2388:2405  _donates[donater] */\n      0x00\n        /* \"Task2/work3/BeggingContract.sol\":2397:2404  donater */\n      dup3\n        /* \"Task2/work3/BeggingContract.sol\":2388:2405  _donates[donater] */\n      0xffffffffffffffffffffffffffffffffffffffff\n      and\n      0xffffffffffffffffffffffffffffffffffffffff\n      and\n      dup2\n      mstore\n      0x20\n      add\n      swap1\n      dup2\n      mstore\n      0x20\n      add\n      0x00\n      keccak256\n      sload\n        /* \"Task2/work3/BeggingContract.sol\":2379:2385  sumAmt */\n      dup4\n        /* \"Task2/work3/BeggingContract.sol\":2379:2405  sumAmt > _donates[donater] */\n      gt\n        /* \"Task2/work3/BeggingContract.sol\":2376:3004  if(sumAmt > _donates[donater]){... */\n      iszero\n      tag_94\n      jumpi\n        /* \"Task2/work3/BeggingContract.sol\":2430:2436  uint j */\n      0x00\n        /* \"Task2/work3/BeggingContract.sol\":2441:2442  i */\n      dup3\n        /* \"Task2/work3/BeggingContract.sol\":2439:2440  2 */\n      0x02\n        /* \"Task2/work3/BeggingContract.sol\":2439:2442  2-i */\n      tag_98\n      swap2\n      swap1\n      tag_99\n      jump\t// in\n    tag_98:\n        /* \"Task2/work3/BeggingContract.sol\":2430:2442  uint j = 2-i */\n      0xff\n      and\n      swap1\n      pop\n        /* \"Task2/work3/BeggingContract.sol\":2425:2918  for (uint j = 2-i; j>0; j--) {... */\n    tag_95:\n        /* \"Task2/work3/BeggingContract.sol\":2446:2447  0 */\n      0x00\n        /* \"Task2/work3/BeggingContract.sol\":2444:2445  j */\n      dup2\n        /* \"Task2/work3/BeggingContract.sol\":2444:2447  j>0 */\n      gt\n        /* \"Task2/work3/BeggingContract.sol\":2425:2918  for (uint j = 2-i; j>0; j--) {... */\n      iszero\n      tag_96\n      jumpi\n        /* \"Task2/work3/BeggingContract.sol\":2484:2485  0 */\n      0x00\n        /* \"Task2/work3/BeggingContract.sol\":2480:2481  j */\n      dup2\n        /* \"Task2/work3/BeggingContract.sol\":2480:2485  j > 0 */\n      gt\n        /* \"Task2/work3/BeggingContract.sol\":2477:2572  if(j > 0){... */\n      iszero\n      tag_100\n      jumpi\n        /* \"Task2/work3/BeggingContract.sol\":2531:2543  _donaterTop3 */\n      0x05\n        /* \"Task2/work3/BeggingContract.sol\":2546:2547  1 */\n      0x01\n        /* \"Task2/work3/BeggingContract.sol\":2544:2545  j */\n      dup3\n        /* \"Task2/work3/BeggingContract.sol\":2544:2547  j-1 */\n      tag_101\n      swap2\n      swap1\n      tag_102\n      jump\t// in\n    tag_101:\n        /* \"Task2/work3/BeggingContract.sol\":2531:2548  _donaterTop3[j-1] */\n      0x03\n      dup2\n      lt\n      tag_103\n      jumpi\n      tag_104\n      tag_92\n      jump\t// in\n    tag_104:\n    tag_103:\n      add\n      0x00\n      swap1\n      sload\n      swap1\n      0x0100\n      exp\n      swap1\n      div\n      0xffffffffffffffffffffffffffffffffffffffff\n      and\n        /* \"Task2/work3/BeggingContract.sol\":2513:2525  _donaterTop3 */\n      0x05\n        /* \"Task2/work3/BeggingContract.sol\":2526:2527  j */\n      dup3\n        /* \"Task2/work3/BeggingContract.sol\":2513:2528  _donaterTop3[j] */\n      0x03\n      dup2\n      lt\n      tag_106\n      jumpi\n      tag_107\n      tag_92\n      jump\t// in\n    tag_107:\n    tag_106:\n      add\n      0x00\n        /* \"Task2/work3/BeggingContract.sol\":2513:2548  _donaterTop3[j] = _donaterTop3[j-1] */\n      0x0100\n      exp\n      dup2\n      sload\n      dup2\n      0xffffffffffffffffffffffffffffffffffffffff\n      mul\n      not\n      and\n      swap1\n      dup4\n      0xffffffffffffffffffffffffffffffffffffffff\n      and\n      mul\n      or\n      swap1\n      sstore\n      pop\n        /* \"Task2/work3/BeggingContract.sol\":2477:2572  if(j > 0){... */\n    tag_100:\n        /* \"Task2/work3/BeggingContract.sol\":2449:2452  j-- */\n      dup1\n      dup1\n      tag_109\n      swap1\n      tag_110\n      jump\t// in\n    tag_109:\n      swap2\n      pop\n      pop\n        /* \"Task2/work3/BeggingContract.sol\":2425:2918  for (uint j = 2-i; j>0; j--) {... */\n      jump(tag_95)\n    tag_96:\n      pop\n        /* \"Task2/work3/BeggingContract.sol\":2954:2964  msg.sender */\n      caller\n        /* \"Task2/work3/BeggingContract.sol\":2936:2948  _donaterTop3 */\n      0x05\n        /* \"Task2/work3/BeggingContract.sol\":2949:2950  i */\n      dup4\n        /* \"Task2/work3/BeggingContract.sol\":2936:2951  _donaterTop3[i] */\n      0xff\n      and\n      0x03\n      dup2\n      lt\n      tag_111\n      jumpi\n      tag_112\n      tag_92\n      jump\t// in\n    tag_112:\n    tag_111:\n      add\n      0x00\n        /* \"Task2/work3/BeggingContract.sol\":2936:2964  _donaterTop3[i] = msg.sender */\n      0x0100\n      exp\n      dup2\n      sload\n      dup2\n      0xffffffffffffffffffffffffffffffffffffffff\n      mul\n      not\n      and\n      swap1\n      dup4\n      0xffffffffffffffffffffffffffffffffffffffff\n      and\n      mul\n      or\n      swap1\n      sstore\n      pop\n        /* \"Task2/work3/BeggingContract.sol\":2983:2988  break */\n      pop\n      jump(tag_88)\n        /* \"Task2/work3/BeggingContract.sol\":2376:3004  if(sumAmt > _donates[donater]){... */\n    tag_94:\n        /* \"Task2/work3/BeggingContract.sol\":2313:3015  {... */\n      pop\n        /* \"Task2/work3/BeggingContract.sol\":2309:2312  i++ */\n      dup1\n      dup1\n      0x01\n      add\n      swap2\n      pop\n      pop\n        /* \"Task2/work3/BeggingContract.sol\":2287:3015  for(uint8 i = 0; i<3; i++){... */\n      jump(tag_87)\n    tag_88:\n      pop\n        /* \"Task2/work3/BeggingContract.sol\":3030:3059  Donate(msg.sender, msg.value) */\n      0x0553260a2e46b0577270d8992db02d30856ca880144c72d6e9503760946aef13\n        /* \"Task2/work3/BeggingContract.sol\":3037:3047  msg.sender */\n      caller\n        /* \"Task2/work3/BeggingContract.sol\":3049:3058  msg.value */\n      callvalue\n        /* \"Task2/work3/BeggingContract.sol\":3030:3059  Donate(msg.sender, msg.value) */\n      mload(0x40)\n      tag_114\n      swap3\n      swap2\n      swap1\n      tag_115\n      jump\t// in\n    tag_114:\n      mload(0x40)\n      dup1\n      swap2\n      sub\n      swap1\n      log1\n        /* \"Task2/work3/BeggingContract.sol\":1877:3067  {... */\n      pop\n        /* \"Task2/work3/BeggingContract.sol\":1844:3067  function donate() public payable {... */\n      jump\t// out\n        /* \"Task2/work3/BeggingContract.sol\":3172:3282  function getDonate(address donater) external view returns(uint256) {... */\n    tag_27:\n        /* \"Task2/work3/BeggingContract.sol\":3230:3237  uint256 */\n      0x00\n        /* \"Task2/work3/BeggingContract.sol\":3257:3265  _donates */\n      0x08\n        /* \"Task2/work3/BeggingContract.sol\":3257:3274  _donates[donater] */\n      0x00\n        /* \"Task2/work3/BeggingContract.sol\":3266:3273  donater */\n      dup4\n        /* \"Task2/work3/BeggingContract.sol\":3257:3274  _donates[donater] */\n      0xffffffffffffffffffffffffffffffffffffffff\n      and\n      0xffffffffffffffffffffffffffffffffffffffff\n      and\n      dup2\n      mstore\n      0x20\n      add\n      swap1\n      dup2\n      mstore\n      0x20\n      add\n      0x00\n      keccak256\n      sload\n        /* \"Task2/work3/BeggingContract.sol\":3250:3274  return _donates[donater] */\n      swap1\n      pop\n        /* \"Task2/work3/BeggingContract.sol\":3172:3282  function getDonate(address donater) external view returns(uint256) {... */\n      swap2\n      swap1\n      pop\n      jump\t// out\n        /* \"Task2/work3/BeggingContract.sol\":1182:1519  function withdraw(uint256 amt) external payable onlyOwner {... */\n    tag_33:\n        /* \"@openzeppelin/contracts/access/Ownable.sol\":1531:1544  _checkOwner() */\n      tag_118\n        /* \"@openzeppelin/contracts/access/Ownable.sol\":1531:1542  _checkOwner */\n      tag_119\n        /* \"@openzeppelin/contracts/access/Ownable.sol\":1531:1544  _checkOwner() */\n      jump\t// in\n    tag_118:\n        /* \"Task2/work3/BeggingContract.sol\":1288:1291  amt */\n      dup1\n        /* \"Task2/work3/BeggingContract.sol\":1274:1285  _releaseSum */\n      sload(0x02)\n        /* \"Task2/work3/BeggingContract.sol\":1274:1291  _releaseSum + amt */\n      tag_121\n      swap2\n      swap1\n      tag_81\n      jump\t// in\n    tag_121:\n        /* \"Task2/work3/BeggingContract.sol\":1260:1270  _donateSum */\n      sload(0x01)\n        /* \"Task2/work3/BeggingContract.sol\":1260:1291  _donateSum >= _releaseSum + amt */\n      lt\n      iszero\n        /* \"Task2/work3/BeggingContract.sol\":1251:1313  require (_donateSum >= _releaseSum + amt, \"amt not available\") */\n      tag_122\n      jumpi\n      mload(0x40)\n      0x08c379a000000000000000000000000000000000000000000000000000000000\n      dup2\n      mstore\n      0x04\n      add\n      tag_123\n      swap1\n      tag_124\n      jump\t// in\n    tag_123:\n      mload(0x40)\n      dup1\n      swap2\n      sub\n      swap1\n      revert\n    tag_122:\n        /* \"Task2/work3/BeggingContract.sol\":1339:1342  amt */\n      dup1\n        /* \"Task2/work3/BeggingContract.sol\":1324:1335  _releaseSum */\n      0x02\n      0x00\n        /* \"Task2/work3/BeggingContract.sol\":1324:1342  _releaseSum += amt */\n      dup3\n      dup3\n      sload\n      tag_125\n      swap2\n      swap1\n      tag_81\n      jump\t// in\n    tag_125:\n      swap3\n      pop\n      pop\n      dup2\n      swap1\n      sstore\n      pop\n        /* \"Task2/work3/BeggingContract.sol\":1354:1366  bool success */\n      0x00\n        /* \"Task2/work3/BeggingContract.sol\":1371:1378  owner() */\n      tag_126\n        /* \"Task2/work3/BeggingContract.sol\":1371:1376  owner */\n      tag_52\n        /* \"Task2/work3/BeggingContract.sol\":1371:1378  owner() */\n      jump\t// in\n    tag_126:\n        /* \"Task2/work3/BeggingContract.sol\":1371:1383  owner().call */\n      0xffffffffffffffffffffffffffffffffffffffff\n      and\n        /* \"Task2/work3/BeggingContract.sol\":1391:1394  amt */\n      dup3\n        /* \"Task2/work3/BeggingContract.sol\":1371:1399  owner().call{value: amt}(\"\") */\n      mload(0x40)\n      tag_127\n      swap1\n      tag_128\n      jump\t// in\n    tag_127:\n      0x00\n      mload(0x40)\n      dup1\n      dup4\n      sub\n      dup2\n      dup6\n      dup8\n      gas\n      call\n      swap3\n      pop\n      pop\n      pop\n      returndatasize\n      dup1\n      0x00\n      dup2\n      eq\n      tag_131\n      jumpi\n      mload(0x40)\n      swap2\n      pop\n      and(add(returndatasize, 0x3f), not(0x1f))\n      dup3\n      add\n      0x40\n      mstore\n      returndatasize\n      dup3\n      mstore\n      returndatasize\n      0x00\n      0x20\n      dup5\n      add\n      returndatacopy\n      jump(tag_130)\n    tag_131:\n      0x60\n      swap2\n      pop\n    tag_130:\n      pop\n        /* \"Task2/work3/BeggingContract.sol\":1353:1399  (bool success,) = owner().call{value: amt}(\"\") */\n      pop\n      swap1\n      pop\n        /* \"Task2/work3/BeggingContract.sol\":1414:1421  success */\n      dup1\n        /* \"Task2/work3/BeggingContract.sol\":1410:1474  if(!success){... */\n      tag_132\n      jumpi\n        /* \"Task2/work3/BeggingContract.sol\":1437:1462  revert(\"withdraw failed\") */\n      mload(0x40)\n      0x08c379a000000000000000000000000000000000000000000000000000000000\n      dup2\n      mstore\n      0x04\n      add\n      tag_133\n      swap1\n      tag_134\n      jump\t// in\n    tag_133:\n      mload(0x40)\n      dup1\n      swap2\n      sub\n      swap1\n      revert\n        /* \"Task2/work3/BeggingContract.sol\":1410:1474  if(!success){... */\n    tag_132:\n        /* \"Task2/work3/BeggingContract.sol\":1489:1511  Withdraw(owner(), amt) */\n      0x884edad9ce6fa2440d8a54cc123490eb96d2768479d49ff9c7366125a9424364\n        /* \"Task2/work3/BeggingContract.sol\":1498:1505  owner() */\n      tag_135\n        /* \"Task2/work3/BeggingContract.sol\":1498:1503  owner */\n      tag_52\n        /* \"Task2/work3/BeggingContract.sol\":1498:1505  owner() */\n      jump\t// in\n    tag_135:\n        /* \"Task2/work3/BeggingContract.sol\":1507:1510  amt */\n      dup4\n        /* \"Task2/work3/BeggingContract.sol\":1489:1511  Withdraw(owner(), amt) */\n      mload(0x40)\n      tag_136\n      swap3\n      swap2\n      swap1\n      tag_115\n      jump\t// in\n    tag_136:\n      mload(0x40)\n      dup1\n      swap2\n      sub\n      swap1\n      log1\n        /* \"Task2/work3/BeggingContract.sol\":1240:1519  {... */\n      pop\n        /* \"Task2/work3/BeggingContract.sol\":1182:1519  function withdraw(uint256 amt) external payable onlyOwner {... */\n      pop\n      jump\t// out\n        /* \"Task2/work3/BeggingContract.sol\":3332:3431  function getTop3() external view returns (address[3] memory) {... */\n    tag_36:\n        /* \"Task2/work3/BeggingContract.sol\":3374:3391  address[3] memory */\n      tag_137\n      tag_138\n      jump\t// in\n    tag_137:\n        /* \"Task2/work3/BeggingContract.sol\":3411:3423  _donaterTop3 */\n      0x05\n        /* \"Task2/work3/BeggingContract.sol\":3404:3423  return _donaterTop3 */\n      0x03\n      dup1\n      0x20\n      mul\n      mload(0x40)\n      swap1\n      dup2\n      add\n      0x40\n      mstore\n      dup1\n      swap3\n      swap2\n      swap1\n      dup3\n      0x03\n      dup1\n      iszero\n      tag_140\n      jumpi\n      0x20\n      mul\n      dup3\n      add\n      swap2\n    tag_141:\n      dup2\n      0x00\n      swap1\n      sload\n      swap1\n      0x0100\n      exp\n      swap1\n      div\n      0xffffffffffffffffffffffffffffffffffffffff\n      and\n      0xffffffffffffffffffffffffffffffffffffffff\n      and\n      dup2\n      mstore\n      0x20\n      add\n      swap1\n      0x01\n      add\n      swap1\n      dup1\n      dup4\n      gt\n      tag_141\n      jumpi\n    tag_140:\n      pop\n      pop\n      pop\n      pop\n      pop\n      swap1\n      pop\n        /* \"Task2/work3/BeggingContract.sol\":3332:3431  function getTop3() external view returns (address[3] memory) {... */\n      swap1\n      jump\t// out\n        /* \"Task2/work3/BeggingContract.sol\":314:340  uint256 public _releaseSum */\n    tag_41:\n      sload(0x02)\n      dup2\n      jump\t// out\n        /* \"@openzeppelin/contracts/access/Ownable.sol\":2293:2394  function renounceOwnership() public virtual onlyOwner {... */\n    tag_45:\n        /* \"@openzeppelin/contracts/access/Ownable.sol\":1531:1544  _checkOwner() */\n      tag_143\n        /* \"@openzeppelin/contracts/access/Ownable.sol\":1531:1542  _checkOwner */\n      tag_119\n        /* \"@openzeppelin/contracts/access/Ownable.sol\":1531:1544  _checkOwner() */\n      jump\t// in\n    tag_143:\n        /* \"@openzeppelin/contracts/access/Ownable.sol\":2357:2387  _transferOwnership(address(0)) */\n      tag_145\n        /* \"@openzeppelin/contracts/access/Ownable.sol\":2384:2385  0 */\n      0x00\n        /* \"@openzeppelin/contracts/access/Ownable.sol\":2357:2375  _transferOwnership */\n      tag_146\n        /* \"@openzeppelin/contracts/access/Ownable.sol\":2357:2387  _transferOwnership(address(0)) */\n      jump\t// in\n    tag_145:\n        /* \"@openzeppelin/contracts/access/Ownable.sol\":2293:2394  function renounceOwnership() public virtual onlyOwner {... */\n      jump\t// out\n        /* \"Task2/work3/BeggingContract.sol\":282:307  uint256 public _donateSum */\n    tag_48:\n      sload(0x01)\n      dup2\n      jump\t// out\n        /* \"@openzeppelin/contracts/access/Ownable.sol\":1638:1723  function owner() public view virtual returns (address) {... */\n    tag_52:\n        /* \"@openzeppelin/contracts/access/Ownable.sol\":1684:1691  address */\n      0x00\n        /* \"@openzeppelin/contracts/access/Ownable.sol\":1710:1716  _owner */\n      0x00\n      0x00\n      swap1\n      sload\n      swap1\n      0x0100\n      exp\n      swap1\n      div\n      0xffffffffffffffffffffffffffffffffffffffff\n      and\n        /* \"@openzeppelin/contracts/access/Ownable.sol\":1703:1716  return _owner */\n      swap1\n      pop\n        /* \"@openzeppelin/contracts/access/Ownable.sol\":1638:1723  function owner() public view virtual returns (address) {... */\n      swap1\n      jump\t// out\n        /* \"Task2/work3/BeggingContract.sol\":585:615  address[3] public _donaterTop3 */\n    tag_58:\n      0x05\n      dup2\n      0x03\n      dup2\n      lt\n      tag_148\n      jumpi\n      0x00\n      dup1\n      revert\n    tag_148:\n      add\n      0x00\n      swap2\n      pop\n      sload\n      swap1\n      0x0100\n      exp\n      swap1\n      div\n      0xffffffffffffffffffffffffffffffffffffffff\n      and\n      dup2\n      jump\t// out\n        /* \"Task2/work3/BeggingContract.sol\":375:406  uint256 public _donateStartTime */\n    tag_62:\n      sload(0x03)\n      dup2\n      jump\t// out\n        /* \"Task2/work3/BeggingContract.sol\":433:467  uint256 public _donateDurationTime */\n    tag_66:\n      sload(0x04)\n      dup2\n      jump\t// out\n        /* \"@openzeppelin/contracts/access/Ownable.sol\":2543:2758  function transferOwnership(address newOwner) public virtual onlyOwner {... */\n    tag_72:\n        /* \"@openzeppelin/contracts/access/Ownable.sol\":1531:1544  _checkOwner() */\n      tag_151\n        /* \"@openzeppelin/contracts/access/Ownable.sol\":1531:1542  _checkOwner */\n      tag_119\n        /* \"@openzeppelin/contracts/access/Ownable.sol\":1531:1544  _checkOwner() */\n      jump\t// in\n    tag_151:\n        /* \"@openzeppelin/contracts/access/Ownable.sol\":2647:2648  0 */\n      0x00\n        /* \"@openzeppelin/contracts/access/Ownable.sol\":2627:2649  newOwner == address(0) */\n      0xffffffffffffffffffffffffffffffffffffffff\n      and\n        /* \"@openzeppelin/contracts/access/Ownable.sol\":2627:2635  newOwner */\n      dup2\n        /* \"@openzeppelin/contracts/access/Ownable.sol\":2627:2649  newOwner == address(0) */\n      0xffffffffffffffffffffffffffffffffffffffff\n      and\n      sub\n        /* \"@openzeppelin/contracts/access/Ownable.sol\":2623:2714  if (newOwner == address(0)) {... */\n      tag_153\n      jumpi\n        /* \"@openzeppelin/contracts/access/Ownable.sol\":2700:2701  0 */\n      0x00\n        /* \"@openzeppelin/contracts/access/Ownable.sol\":2672:2703  OwnableInvalidOwner(address(0)) */\n      mload(0x40)\n      0x1e4fbdf700000000000000000000000000000000000000000000000000000000\n      dup2\n      mstore\n      0x04\n      add\n      tag_154\n      swap2\n      swap1\n      tag_54\n      jump\t// in\n    tag_154:\n      mload(0x40)\n      dup1\n      swap2\n      sub\n      swap1\n      revert\n        /* \"@openzeppelin/contracts/access/Ownable.sol\":2623:2714  if (newOwner == address(0)) {... */\n    tag_153:\n        /* \"@openzeppelin/contracts/access/Ownable.sol\":2723:2751  _transferOwnership(newOwner) */\n      tag_155\n        /* \"@openzeppelin/contracts/access/Ownable.sol\":2742:2750  newOwner */\n      dup2\n        /* \"@openzeppelin/contracts/access/Ownable.sol\":2723:2741  _transferOwnership */\n      tag_146\n        /* \"@openzeppelin/contracts/access/Ownable.sol\":2723:2751  _transferOwnership(newOwner) */\n      jump\t// in\n    tag_155:\n        /* \"@openzeppelin/contracts/access/Ownable.sol\":2543:2758  function transferOwnership(address newOwner) public virtual onlyOwner {... */\n      pop\n      jump\t// out\n        /* \"@openzeppelin/contracts/access/Ownable.sol\":1796:1958  function _checkOwner() internal view virtual {... */\n    tag_119:\n        /* \"@openzeppelin/contracts/access/Ownable.sol\":1866:1878  _msgSender() */\n      tag_157\n        /* \"@openzeppelin/contracts/access/Ownable.sol\":1866:1876  _msgSender */\n      tag_158\n        /* \"@openzeppelin/contracts/access/Ownable.sol\":1866:1878  _msgSender() */\n      jump\t// in\n    tag_157:\n        /* \"@openzeppelin/contracts/access/Ownable.sol\":1855:1878  owner() != _msgSender() */\n      0xffffffffffffffffffffffffffffffffffffffff\n      and\n        /* \"@openzeppelin/contracts/access/Ownable.sol\":1855:1862  owner() */\n      tag_159\n        /* \"@openzeppelin/contracts/access/Ownable.sol\":1855:1860  owner */\n      tag_52\n        /* \"@openzeppelin/contracts/access/Ownable.sol\":1855:1862  owner() */\n      jump\t// in\n    tag_159:\n        /* \"@openzeppelin/contracts/access/Ownable.sol\":1855:1878  owner() != _msgSender() */\n      0xffffffffffffffffffffffffffffffffffffffff\n      and\n      eq\n        /* \"@openzeppelin/contracts/access/Ownable.sol\":1851:1952  if (owner() != _msgSender()) {... */\n      tag_160\n      jumpi\n        /* \"@openzeppelin/contracts/access/Ownable.sol\":1928:1940  _msgSender() */\n      tag_161\n        /* \"@openzeppelin/contracts/access/Ownable.sol\":1928:1938  _msgSender */\n      tag_158\n        /* \"@openzeppelin/contracts/access/Ownable.sol\":1928:1940  _msgSender() */\n      jump\t// in\n    tag_161:\n        /* \"@openzeppelin/contracts/access/Ownable.sol\":1901:1941  OwnableUnauthorizedAccount(_msgSender()) */\n      mload(0x40)\n      0x118cdaa700000000000000000000000000000000000000000000000000000000\n      dup2\n      mstore\n      0x04\n      add\n      tag_162\n      swap2\n      swap1\n      tag_54\n      jump\t// in\n    tag_162:\n      mload(0x40)\n      dup1\n      swap2\n      sub\n      swap1\n      revert\n        /* \"@openzeppelin/contracts/access/Ownable.sol\":1851:1952  if (owner() != _msgSender()) {... */\n    tag_160:\n        /* \"@openzeppelin/contracts/access/Ownable.sol\":1796:1958  function _checkOwner() internal view virtual {... */\n      jump\t// out\n        /* \"@openzeppelin/contracts/access/Ownable.sol\":2912:3099  function _transferOwnership(address newOwner) internal virtual {... */\n    tag_146:\n        /* \"@openzeppelin/contracts/access/Ownable.sol\":2985:3001  address oldOwner */\n      0x00\n        /* \"@openzeppelin/contracts/access/Ownable.sol\":3004:3010  _owner */\n      0x00\n      0x00\n      swap1\n      sload\n      swap1\n      0x0100\n      exp\n      swap1\n      div\n      0xffffffffffffffffffffffffffffffffffffffff\n      and\n        /* \"@openzeppelin/contracts/access/Ownable.sol\":2985:3010  address oldOwner = _owner */\n      swap1\n      pop\n        /* \"@openzeppelin/contracts/access/Ownable.sol\":3029:3037  newOwner */\n      dup2\n        /* \"@openzeppelin/contracts/access/Ownable.sol\":3020:3026  _owner */\n      0x00\n      0x00\n        /* \"@openzeppelin/contracts/access/Ownable.sol\":3020:3037  _owner = newOwner */\n      0x0100\n      exp\n      dup2\n      sload\n      dup2\n      0xffffffffffffffffffffffffffffffffffffffff\n      mul\n      not\n      and\n      swap1\n      dup4\n      0xffffffffffffffffffffffffffffffffffffffff\n      and\n      mul\n      or\n      swap1\n      sstore\n      pop\n        /* \"@openzeppelin/contracts/access/Ownable.sol\":3083:3091  newOwner */\n      dup2\n        /* \"@openzeppelin/contracts/access/Ownable.sol\":3052:3092  OwnershipTransferred(oldOwner, newOwner) */\n      0xffffffffffffffffffffffffffffffffffffffff\n      and\n        /* \"@openzeppelin/contracts/access/Ownable.sol\":3073:3081  oldOwner */\n      dup2\n        /* \"@openzeppelin/contracts/access/Ownable.sol\":3052:3092  OwnershipTransferred(oldOwner, newOwner) */\n      0xffffffffffffffffffffffffffffffffffffffff\n      and\n      0x8be0079c531659141344cd1fd0a4f28419497f9722a3daafe3b4186f6b6457e0\n      mload(0x40)\n      mload(0x40)\n      dup1\n      swap2\n      sub\n      swap1\n      log3\n        /* \"@openzeppelin/contracts/access/Ownable.sol\":2975:3099  {... */\n      pop\n        /* \"@openzeppelin/contracts/access/Ownable.sol\":2912:3099  function _transferOwnership(address newOwner) internal virtual {... */\n      pop\n      jump\t// out\n        /* \"@openzeppelin/contracts/utils/Context.sol\":656:752  function _msgSender() internal view virtual returns (address) {... */\n    tag_158:\n        /* \"@openzeppelin/contracts/utils/Context.sol\":709:716  address */\n      0x00\n        /* \"@openzeppelin/contracts/utils/Context.sol\":735:745  msg.sender */\n      caller\n        /* \"@openzeppelin/contracts/utils/Context.sol\":728:745  return msg.sender */\n      swap1\n      pop\n        /* \"@openzeppelin/contracts/utils/Context.sol\":656:752  function _msgSender() internal view virtual returns (address) {... */\n      swap1\n      jump\t// out\n    tag_138:\n      mload(0x40)\n      dup1\n      0x60\n      add\n      0x40\n      mstore\n      dup1\n      0x03\n      swap1\n      0x20\n      dup3\n      mul\n      dup1\n      calldatasize\n      dup4\n      calldatacopy\n      dup1\n      dup3\n      add\n      swap2\n      pop\n      pop\n      swap1\n      pop\n      pop\n      swap1\n      jump\t// out\n        /* \"#utility.yul\":88:205   */\n    tag_166:\n        /* \"#utility.yul\":197:198   */\n      0x00\n        /* \"#utility.yul\":194:195   */\n      0x00\n        /* \"#utility.yul\":187:199   */\n      revert\n        /* \"#utility.yul\":334:460   */\n    tag_168:\n        /* \"#utility.yul\":371:378   */\n      0x00\n        /* \"#utility.yul\":411:453   */\n      0xffffffffffffffffffffffffffffffffffffffff\n        /* \"#utility.yul\":404:409   */\n      dup3\n        /* \"#utility.yul\":400:454   */\n      and\n        /* \"#utility.yul\":389:454   */\n      swap1\n      pop\n        /* \"#utility.yul\":334:460   */\n      swap2\n      swap1\n      pop\n      jump\t// out\n        /* \"#utility.yul\":466:562   */\n    tag_169:\n        /* \"#utility.yul\":503:510   */\n      0x00\n        /* \"#utility.yul\":532:556   */\n      tag_206\n        /* \"#utility.yul\":550:555   */\n      dup3\n        /* \"#utility.yul\":532:556   */\n      tag_168\n      jump\t// in\n    tag_206:\n        /* \"#utility.yul\":521:556   */\n      swap1\n      pop\n        /* \"#utility.yul\":466:562   */\n      swap2\n      swap1\n      pop\n      jump\t// out\n        /* \"#utility.yul\":568:690   */\n    tag_170:\n        /* \"#utility.yul\":641:665   */\n      tag_208\n        /* \"#utility.yul\":659:664   */\n      dup2\n        /* \"#utility.yul\":641:665   */\n      tag_169\n      jump\t// in\n    tag_208:\n        /* \"#utility.yul\":634:639   */\n      dup2\n        /* \"#utility.yul\":631:666   */\n      eq\n        /* \"#utility.yul\":621:684   */\n      tag_209\n      jumpi\n        /* \"#utility.yul\":680:681   */\n      0x00\n        /* \"#utility.yul\":677:678   */\n      0x00\n        /* \"#utility.yul\":670:682   */\n      revert\n        /* \"#utility.yul\":621:684   */\n    tag_209:\n        /* \"#utility.yul\":568:690   */\n      pop\n      jump\t// out\n        /* \"#utility.yul\":696:835   */\n    tag_171:\n        /* \"#utility.yul\":742:747   */\n      0x00\n        /* \"#utility.yul\":780:786   */\n      dup2\n        /* \"#utility.yul\":767:787   */\n      calldataload\n        /* \"#utility.yul\":758:787   */\n      swap1\n      pop\n        /* \"#utility.yul\":796:829   */\n      tag_211\n        /* \"#utility.yul\":823:828   */\n      dup2\n        /* \"#utility.yul\":796:829   */\n      tag_170\n      jump\t// in\n    tag_211:\n        /* \"#utility.yul\":696:835   */\n      swap3\n      swap2\n      pop\n      pop\n      jump\t// out\n        /* \"#utility.yul\":841:1170   */\n    tag_26:\n        /* \"#utility.yul\":900:906   */\n      0x00\n        /* \"#utility.yul\":949:951   */\n      0x20\n        /* \"#utility.yul\":937:946   */\n      dup3\n        /* \"#utility.yul\":928:935   */\n      dup5\n        /* \"#utility.yul\":924:947   */\n      sub\n        /* \"#utility.yul\":920:952   */\n      slt\n        /* \"#utility.yul\":917:1036   */\n      iszero\n      tag_213\n      jumpi\n        /* \"#utility.yul\":955:1034   */\n      tag_214\n      tag_166\n      jump\t// in\n    tag_214:\n        /* \"#utility.yul\":917:1036   */\n    tag_213:\n        /* \"#utility.yul\":1075:1076   */\n      0x00\n        /* \"#utility.yul\":1100:1153   */\n      tag_215\n        /* \"#utility.yul\":1145:1152   */\n      dup5\n        /* \"#utility.yul\":1136:1142   */\n      dup3\n        /* \"#utility.yul\":1125:1134   */\n      dup6\n        /* \"#utility.yul\":1121:1143   */\n      add\n        /* \"#utility.yul\":1100:1153   */\n      tag_171\n      jump\t// in\n    tag_215:\n        /* \"#utility.yul\":1090:1153   */\n      swap2\n      pop\n        /* \"#utility.yul\":1046:1163   */\n      pop\n        /* \"#utility.yul\":841:1170   */\n      swap3\n      swap2\n      pop\n      pop\n      jump\t// out\n        /* \"#utility.yul\":1176:1253   */\n    tag_172:\n        /* \"#utility.yul\":1213:1220   */\n      0x00\n        /* \"#utility.yul\":1242:1247   */\n      dup2\n        /* \"#utility.yul\":1231:1247   */\n      swap1\n      pop\n        /* \"#utility.yul\":1176:1253   */\n      swap2\n      swap1\n      pop\n      jump\t// out\n        /* \"#utility.yul\":1259:1377   */\n    tag_173:\n        /* \"#utility.yul\":1346:1370   */\n      tag_218\n        /* \"#utility.yul\":1364:1369   */\n      dup2\n        /* \"#utility.yul\":1346:1370   */\n      tag_172\n      jump\t// in\n    tag_218:\n        /* \"#utility.yul\":1341:1344   */\n      dup3\n        /* \"#utility.yul\":1334:1371   */\n      mstore\n        /* \"#utility.yul\":1259:1377   */\n      pop\n      pop\n      jump\t// out\n        /* \"#utility.yul\":1383:1605   */\n    tag_29:\n        /* \"#utility.yul\":1476:1480   */\n      0x00\n        /* \"#utility.yul\":1514:1516   */\n      0x20\n        /* \"#utility.yul\":1503:1512   */\n      dup3\n        /* \"#utility.yul\":1499:1517   */\n      add\n        /* \"#utility.yul\":1491:1517   */\n      swap1\n      pop\n        /* \"#utility.yul\":1527:1598   */\n      tag_220\n        /* \"#utility.yul\":1595:1596   */\n      0x00\n        /* \"#utility.yul\":1584:1593   */\n      dup4\n        /* \"#utility.yul\":1580:1597   */\n      add\n        /* \"#utility.yul\":1571:1577   */\n      dup5\n        /* \"#utility.yul\":1527:1598   */\n      tag_173\n      jump\t// in\n    tag_220:\n        /* \"#utility.yul\":1383:1605   */\n      swap3\n      swap2\n      pop\n      pop\n      jump\t// out\n        /* \"#utility.yul\":1611:1733   */\n    tag_174:\n        /* \"#utility.yul\":1684:1708   */\n      tag_222\n        /* \"#utility.yul\":1702:1707   */\n      dup2\n        /* \"#utility.yul\":1684:1708   */\n      tag_172\n      jump\t// in\n    tag_222:\n        /* \"#utility.yul\":1677:1682   */\n      dup2\n        /* \"#utility.yul\":1674:1709   */\n      eq\n        /* \"#utility.yul\":1664:1727   */\n      tag_223\n      jumpi\n        /* \"#utility.yul\":1723:1724   */\n      0x00\n        /* \"#utility.yul\":1720:1721   */\n      0x00\n        /* \"#utility.yul\":1713:1725   */\n      revert\n        /* \"#utility.yul\":1664:1727   */\n    tag_223:\n        /* \"#utility.yul\":1611:1733   */\n      pop\n      jump\t// out\n        /* \"#utility.yul\":1739:1878   */\n    tag_175:\n        /* \"#utility.yul\":1785:1790   */\n      0x00\n        /* \"#utility.yul\":1823:1829   */\n      dup2\n        /* \"#utility.yul\":1810:1830   */\n      calldataload\n        /* \"#utility.yul\":1801:1830   */\n      swap1\n      pop\n        /* \"#utility.yul\":1839:1872   */\n      tag_225\n        /* \"#utility.yul\":1866:1871   */\n      dup2\n        /* \"#utility.yul\":1839:1872   */\n      tag_174\n      jump\t// in\n    tag_225:\n        /* \"#utility.yul\":1739:1878   */\n      swap3\n      swap2\n      pop\n      pop\n      jump\t// out\n        /* \"#utility.yul\":1884:2213   */\n    tag_32:\n        /* \"#utility.yul\":1943:1949   */\n      0x00\n        /* \"#utility.yul\":1992:1994   */\n      0x20\n        /* \"#utility.yul\":1980:1989   */\n      dup3\n        /* \"#utility.yul\":1971:1978   */\n      dup5\n        /* \"#utility.yul\":1967:1990   */\n      sub\n        /* \"#utility.yul\":1963:1995   */\n      slt\n        /* \"#utility.yul\":1960:2079   */\n      iszero\n      tag_227\n      jumpi\n        /* \"#utility.yul\":1998:2077   */\n      tag_228\n      tag_166\n      jump\t// in\n    tag_228:\n        /* \"#utility.yul\":1960:2079   */\n    tag_227:\n        /* \"#utility.yul\":2118:2119   */\n      0x00\n        /* \"#utility.yul\":2143:2196   */\n      tag_229\n        /* \"#utility.yul\":2188:2195   */\n      dup5\n        /* \"#utility.yul\":2179:2185   */\n      dup3\n        /* \"#utility.yul\":2168:2177   */\n      dup6\n        /* \"#utility.yul\":2164:2186   */\n      add\n        /* \"#utility.yul\":2143:2196   */\n      tag_175\n      jump\t// in\n    tag_229:\n        /* \"#utility.yul\":2133:2196   */\n      swap2\n      pop\n        /* \"#utility.yul\":2089:2206   */\n      pop\n        /* \"#utility.yul\":1884:2213   */\n      swap3\n      swap2\n      pop\n      pop\n      jump\t// out\n        /* \"#utility.yul\":2219:2323   */\n    tag_176:\n        /* \"#utility.yul\":2284:2290   */\n      0x00\n        /* \"#utility.yul\":2312:2316   */\n      0x03\n        /* \"#utility.yul\":2302:2316   */\n      swap1\n      pop\n        /* \"#utility.yul\":2219:2323   */\n      swap2\n      swap1\n      pop\n      jump\t// out\n        /* \"#utility.yul\":2329:2472   */\n    tag_177:\n        /* \"#utility.yul\":2426:2437   */\n      0x00\n        /* \"#utility.yul\":2463:2466   */\n      dup2\n        /* \"#utility.yul\":2448:2466   */\n      swap1\n      pop\n        /* \"#utility.yul\":2329:2472   */\n      swap3\n      swap2\n      pop\n      pop\n      jump\t// out\n        /* \"#utility.yul\":2478:2576   */\n    tag_178:\n        /* \"#utility.yul\":2543:2547   */\n      0x00\n        /* \"#utility.yul\":2566:2569   */\n      dup2\n        /* \"#utility.yul\":2558:2569   */\n      swap1\n      pop\n        /* \"#utility.yul\":2478:2576   */\n      swap2\n      swap1\n      pop\n      jump\t// out\n        /* \"#utility.yul\":2582:2690   */\n    tag_179:\n        /* \"#utility.yul\":2659:2683   */\n      tag_234\n        /* \"#utility.yul\":2677:2682   */\n      dup2\n        /* \"#utility.yul\":2659:2683   */\n      tag_169\n      jump\t// in\n    tag_234:\n        /* \"#utility.yul\":2654:2657   */\n      dup3\n        /* \"#utility.yul\":2647:2684   */\n      mstore\n        /* \"#utility.yul\":2582:2690   */\n      pop\n      pop\n      jump\t// out\n        /* \"#utility.yul\":2696:2875   */\n    tag_180:\n        /* \"#utility.yul\":2765:2775   */\n      0x00\n        /* \"#utility.yul\":2786:2832   */\n      tag_236\n        /* \"#utility.yul\":2828:2831   */\n      dup4\n        /* \"#utility.yul\":2820:2826   */\n      dup4\n        /* \"#utility.yul\":2786:2832   */\n      tag_179\n      jump\t// in\n    tag_236:\n        /* \"#utility.yul\":2864:2868   */\n      0x20\n        /* \"#utility.yul\":2859:2862   */\n      dup4\n        /* \"#utility.yul\":2855:2869   */\n      add\n        /* \"#utility.yul\":2841:2869   */\n      swap1\n      pop\n        /* \"#utility.yul\":2696:2875   */\n      swap3\n      swap2\n      pop\n      pop\n      jump\t// out\n        /* \"#utility.yul\":2881:2992   */\n    tag_181:\n        /* \"#utility.yul\":2949:2953   */\n      0x00\n        /* \"#utility.yul\":2981:2985   */\n      0x20\n        /* \"#utility.yul\":2976:2979   */\n      dup3\n        /* \"#utility.yul\":2972:2986   */\n      add\n        /* \"#utility.yul\":2964:2986   */\n      swap1\n      pop\n        /* \"#utility.yul\":2881:2992   */\n      swap2\n      swap1\n      pop\n      jump\t// out\n        /* \"#utility.yul\":3030:3724   */\n    tag_182:\n        /* \"#utility.yul\":3166:3218   */\n      tag_239\n        /* \"#utility.yul\":3212:3217   */\n      dup2\n        /* \"#utility.yul\":3166:3218   */\n      tag_176\n      jump\t// in\n    tag_239:\n        /* \"#utility.yul\":3234:3318   */\n      tag_240\n        /* \"#utility.yul\":3311:3317   */\n      dup2\n        /* \"#utility.yul\":3306:3309   */\n      dup5\n        /* \"#utility.yul\":3234:3318   */\n      tag_177\n      jump\t// in\n    tag_240:\n        /* \"#utility.yul\":3227:3318   */\n      swap3\n      pop\n        /* \"#utility.yul\":3342:3396   */\n      tag_241\n        /* \"#utility.yul\":3390:3395   */\n      dup3\n        /* \"#utility.yul\":3342:3396   */\n      tag_178\n      jump\t// in\n    tag_241:\n        /* \"#utility.yul\":3419:3426   */\n      dup1\n        /* \"#utility.yul\":3450:3451   */\n      0x00\n        /* \"#utility.yul\":3435:3717   */\n    tag_242:\n        /* \"#utility.yul\":3460:3466   */\n      dup4\n        /* \"#utility.yul\":3457:3458   */\n      dup2\n        /* \"#utility.yul\":3454:3467   */\n      lt\n        /* \"#utility.yul\":3435:3717   */\n      iszero\n      tag_244\n      jumpi\n        /* \"#utility.yul\":3536:3542   */\n      dup2\n        /* \"#utility.yul\":3530:3543   */\n      mload\n        /* \"#utility.yul\":3563:3626   */\n      tag_245\n        /* \"#utility.yul\":3622:3625   */\n      dup8\n        /* \"#utility.yul\":3607:3620   */\n      dup3\n        /* \"#utility.yul\":3563:3626   */\n      tag_180\n      jump\t// in\n    tag_245:\n        /* \"#utility.yul\":3556:3626   */\n      swap7\n      pop\n        /* \"#utility.yul\":3649:3707   */\n      tag_246\n        /* \"#utility.yul\":3700:3706   */\n      dup4\n        /* \"#utility.yul\":3649:3707   */\n      tag_181\n      jump\t// in\n    tag_246:\n        /* \"#utility.yul\":3639:3707   */\n      swap3\n      pop\n        /* \"#utility.yul\":3495:3717   */\n      pop\n        /* \"#utility.yul\":3482:3483   */\n      0x01\n        /* \"#utility.yul\":3479:3480   */\n      dup2\n        /* \"#utility.yul\":3475:3484   */\n      add\n        /* \"#utility.yul\":3470:3484   */\n      swap1\n      pop\n        /* \"#utility.yul\":3435:3717   */\n      jump(tag_242)\n    tag_244:\n        /* \"#utility.yul\":3439:3453   */\n      pop\n        /* \"#utility.yul\":3142:3724   */\n      pop\n      pop\n      pop\n        /* \"#utility.yul\":3030:3724   */\n      pop\n      pop\n      jump\t// out\n        /* \"#utility.yul\":3730:4044   */\n    tag_38:\n        /* \"#utility.yul\":3869:3873   */\n      0x00\n        /* \"#utility.yul\":3907:3909   */\n      0x60\n        /* \"#utility.yul\":3896:3905   */\n      dup3\n        /* \"#utility.yul\":3892:3910   */\n      add\n        /* \"#utility.yul\":3884:3910   */\n      swap1\n      pop\n        /* \"#utility.yul\":3920:4037   */\n      tag_248\n        /* \"#utility.yul\":4034:4035   */\n      0x00\n        /* \"#utility.yul\":4023:4032   */\n      dup4\n        /* \"#utility.yul\":4019:4036   */\n      add\n        /* \"#utility.yul\":4010:4016   */\n      dup5\n        /* \"#utility.yul\":3920:4037   */\n      tag_182\n      jump\t// in\n    tag_248:\n        /* \"#utility.yul\":3730:4044   */\n      swap3\n      swap2\n      pop\n      pop\n      jump\t// out\n        /* \"#utility.yul\":4050:4168   */\n    tag_183:\n        /* \"#utility.yul\":4137:4161   */\n      tag_250\n        /* \"#utility.yul\":4155:4160   */\n      dup2\n        /* \"#utility.yul\":4137:4161   */\n      tag_169\n      jump\t// in\n    tag_250:\n        /* \"#utility.yul\":4132:4135   */\n      dup3\n        /* \"#utility.yul\":4125:4162   */\n      mstore\n        /* \"#utility.yul\":4050:4168   */\n      pop\n      pop\n      jump\t// out\n        /* \"#utility.yul\":4174:4396   */\n    tag_54:\n        /* \"#utility.yul\":4267:4271   */\n      0x00\n        /* \"#utility.yul\":4305:4307   */\n      0x20\n        /* \"#utility.yul\":4294:4303   */\n      dup3\n        /* \"#utility.yul\":4290:4308   */\n      add\n        /* \"#utility.yul\":4282:4308   */\n      swap1\n      pop\n        /* \"#utility.yul\":4318:4389   */\n      tag_252\n        /* \"#utility.yul\":4386:4387   */\n      0x00\n        /* \"#utility.yul\":4375:4384   */\n      dup4\n        /* \"#utility.yul\":4371:4388   */\n      add\n        /* \"#utility.yul\":4362:4368   */\n      dup5\n        /* \"#utility.yul\":4318:4389   */\n      tag_183\n      jump\t// in\n    tag_252:\n        /* \"#utility.yul\":4174:4396   */\n      swap3\n      swap2\n      pop\n      pop\n      jump\t// out\n        /* \"#utility.yul\":4402:4571   */\n    tag_184:\n        /* \"#utility.yul\":4486:4497   */\n      0x00\n        /* \"#utility.yul\":4520:4526   */\n      dup3\n        /* \"#utility.yul\":4515:4518   */\n      dup3\n        /* \"#utility.yul\":4508:4527   */\n      mstore\n        /* \"#utility.yul\":4560:4564   */\n      0x20\n        /* \"#utility.yul\":4555:4558   */\n      dup3\n        /* \"#utility.yul\":4551:4565   */\n      add\n        /* \"#utility.yul\":4536:4565   */\n      swap1\n      pop\n        /* \"#utility.yul\":4402:4571   */\n      swap3\n      swap2\n      pop\n      pop\n      jump\t// out\n        /* \"#utility.yul\":4577:4797   */\n    tag_185:\n        /* \"#utility.yul\":4717:4751   */\n      0x76616c75652073686f756c642062652067726561746572207468616e207a6572\n        /* \"#utility.yul\":4713:4714   */\n      0x00\n        /* \"#utility.yul\":4705:4711   */\n      dup3\n        /* \"#utility.yul\":4701:4715   */\n      add\n        /* \"#utility.yul\":4694:4752   */\n      mstore\n        /* \"#utility.yul\":4786:4789   */\n      0x6f00000000000000000000000000000000000000000000000000000000000000\n        /* \"#utility.yul\":4781:4783   */\n      0x20\n        /* \"#utility.yul\":4773:4779   */\n      dup3\n        /* \"#utility.yul\":4769:4784   */\n      add\n        /* \"#utility.yul\":4762:4790   */\n      mstore\n        /* \"#utility.yul\":4577:4797   */\n      pop\n      jump\t// out\n        /* \"#utility.yul\":4803:5169   */\n    tag_186:\n        /* \"#utility.yul\":4945:4948   */\n      0x00\n        /* \"#utility.yul\":4966:5033   */\n      tag_256\n        /* \"#utility.yul\":5030:5032   */\n      0x21\n        /* \"#utility.yul\":5025:5028   */\n      dup4\n        /* \"#utility.yul\":4966:5033   */\n      tag_184\n      jump\t// in\n    tag_256:\n        /* \"#utility.yul\":4959:5033   */\n      swap2\n      pop\n        /* \"#utility.yul\":5042:5135   */\n      tag_257\n        /* \"#utility.yul\":5131:5134   */\n      dup3\n        /* \"#utility.yul\":5042:5135   */\n      tag_185\n      jump\t// in\n    tag_257:\n        /* \"#utility.yul\":5160:5162   */\n      0x40\n        /* \"#utility.yul\":5155:5158   */\n      dup3\n        /* \"#utility.yul\":5151:5163   */\n      add\n        /* \"#utility.yul\":5144:5163   */\n      swap1\n      pop\n        /* \"#utility.yul\":4803:5169   */\n      swap2\n      swap1\n      pop\n      jump\t// out\n        /* \"#utility.yul\":5175:5594   */\n    tag_76:\n        /* \"#utility.yul\":5341:5345   */\n      0x00\n        /* \"#utility.yul\":5379:5381   */\n      0x20\n        /* \"#utility.yul\":5368:5377   */\n      dup3\n        /* \"#utility.yul\":5364:5382   */\n      add\n        /* \"#utility.yul\":5356:5382   */\n      swap1\n      pop\n        /* \"#utility.yul\":5428:5437   */\n      dup2\n        /* \"#utility.yul\":5422:5426   */\n      dup2\n        /* \"#utility.yul\":5418:5438   */\n      sub\n        /* \"#utility.yul\":5414:5415   */\n      0x00\n        /* \"#utility.yul\":5403:5412   */\n      dup4\n        /* \"#utility.yul\":5399:5416   */\n      add\n        /* \"#utility.yul\":5392:5439   */\n      mstore\n        /* \"#utility.yul\":5456:5587   */\n      tag_259\n        /* \"#utility.yul\":5582:5586   */\n      dup2\n        /* \"#utility.yul\":5456:5587   */\n      tag_186\n      jump\t// in\n    tag_259:\n        /* \"#utility.yul\":5448:5587   */\n      swap1\n      pop\n        /* \"#utility.yul\":5175:5594   */\n      swap2\n      swap1\n      pop\n      jump\t// out\n        /* \"#utility.yul\":5600:5766   */\n    tag_187:\n        /* \"#utility.yul\":5740:5758   */\n      0x646f6e617465206e6f7420737461727400000000000000000000000000000000\n        /* \"#utility.yul\":5736:5737   */\n      0x00\n        /* \"#utility.yul\":5728:5734   */\n      dup3\n        /* \"#utility.yul\":5724:5738   */\n      add\n        /* \"#utility.yul\":5717:5759   */\n      mstore\n        /* \"#utility.yul\":5600:5766   */\n      pop\n      jump\t// out\n        /* \"#utility.yul\":5772:6138   */\n    tag_188:\n        /* \"#utility.yul\":5914:5917   */\n      0x00\n        /* \"#utility.yul\":5935:6002   */\n      tag_262\n        /* \"#utility.yul\":5999:6001   */\n      0x10\n        /* \"#utility.yul\":5994:5997   */\n      dup4\n        /* \"#utility.yul\":5935:6002   */\n      tag_184\n      jump\t// in\n    tag_262:\n        /* \"#utility.yul\":5928:6002   */\n      swap2\n      pop\n        /* \"#utility.yul\":6011:6104   */\n      tag_263\n        /* \"#utility.yul\":6100:6103   */\n      dup3\n        /* \"#utility.yul\":6011:6104   */\n      tag_187\n      jump\t// in\n    tag_263:\n        /* \"#utility.yul\":6129:6131   */\n      0x20\n        /* \"#utility.yul\":6124:6127   */\n      dup3\n        /* \"#utility.yul\":6120:6132   */\n      add\n        /* \"#utility.yul\":6113:6132   */\n      swap1\n      pop\n        /* \"#utility.yul\":5772:6138   */\n      swap2\n      swap1\n      pop\n      jump\t// out\n        /* \"#utility.yul\":6144:6563   */\n    tag_79:\n        /* \"#utility.yul\":6310:6314   */\n      0x00\n        /* \"#utility.yul\":6348:6350   */\n      0x20\n        /* \"#utility.yul\":6337:6346   */\n      dup3\n        /* \"#utility.yul\":6333:6351   */\n      add\n        /* \"#utility.yul\":6325:6351   */\n      swap1\n      pop\n        /* \"#utility.yul\":6397:6406   */\n      dup2\n        /* \"#utility.yul\":6391:6395   */\n      dup2\n        /* \"#utility.yul\":6387:6407   */\n      sub\n        /* \"#utility.yul\":6383:6384   */\n      0x00\n        /* \"#utility.yul\":6372:6381   */\n      dup4\n        /* \"#utility.yul\":6368:6385   */\n      add\n        /* \"#utility.yul\":6361:6408   */\n      mstore\n        /* \"#utility.yul\":6425:6556   */\n      tag_265\n        /* \"#utility.yul\":6551:6555   */\n      dup2\n        /* \"#utility.yul\":6425:6556   */\n      tag_188\n      jump\t// in\n    tag_265:\n        /* \"#utility.yul\":6417:6556   */\n      swap1\n      pop\n        /* \"#utility.yul\":6144:6563   */\n      swap2\n      swap1\n      pop\n      jump\t// out\n        /* \"#utility.yul\":6569:6749   */\n    tag_189:\n        /* \"#utility.yul\":6617:6694   */\n      0x4e487b7100000000000000000000000000000000000000000000000000000000\n        /* \"#utility.yul\":6614:6615   */\n      0x00\n        /* \"#utility.yul\":6607:6695   */\n      mstore\n        /* \"#utility.yul\":6714:6718   */\n      0x11\n        /* \"#utility.yul\":6711:6712   */\n      0x04\n        /* \"#utility.yul\":6704:6719   */\n      mstore\n        /* \"#utility.yul\":6738:6742   */\n      0x24\n        /* \"#utility.yul\":6735:6736   */\n      0x00\n        /* \"#utility.yul\":6728:6743   */\n      revert\n        /* \"#utility.yul\":6755:6946   */\n    tag_81:\n        /* \"#utility.yul\":6795:6798   */\n      0x00\n        /* \"#utility.yul\":6814:6834   */\n      tag_268\n        /* \"#utility.yul\":6832:6833   */\n      dup3\n        /* \"#utility.yul\":6814:6834   */\n      tag_172\n      jump\t// in\n    tag_268:\n        /* \"#utility.yul\":6809:6834   */\n      swap2\n      pop\n        /* \"#utility.yul\":6848:6868   */\n      tag_269\n        /* \"#utility.yul\":6866:6867   */\n      dup4\n        /* \"#utility.yul\":6848:6868   */\n      tag_172\n      jump\t// in\n    tag_269:\n        /* \"#utility.yul\":6843:6868   */\n      swap3\n      pop\n        /* \"#utility.yul\":6891:6892   */\n      dup3\n        /* \"#utility.yul\":6888:6889   */\n      dup3\n        /* \"#utility.yul\":6884:6893   */\n      add\n        /* \"#utility.yul\":6877:6893   */\n      swap1\n      pop\n        /* \"#utility.yul\":6912:6915   */\n      dup1\n        /* \"#utility.yul\":6909:6910   */\n      dup3\n        /* \"#utility.yul\":6906:6916   */\n      gt\n        /* \"#utility.yul\":6903:6939   */\n      iszero\n      tag_270\n      jumpi\n        /* \"#utility.yul\":6919:6937   */\n      tag_271\n      tag_189\n      jump\t// in\n    tag_271:\n        /* \"#utility.yul\":6903:6939   */\n    tag_270:\n        /* \"#utility.yul\":6755:6946   */\n      swap3\n      swap2\n      pop\n      pop\n      jump\t// out\n        /* \"#utility.yul\":6952:7123   */\n    tag_190:\n        /* \"#utility.yul\":7092:7115   */\n      0x646f6e61746520686173206265656e20656e6465640000000000000000000000\n        /* \"#utility.yul\":7088:7089   */\n      0x00\n        /* \"#utility.yul\":7080:7086   */\n      dup3\n        /* \"#utility.yul\":7076:7090   */\n      add\n        /* \"#utility.yul\":7069:7116   */\n      mstore\n        /* \"#utility.yul\":6952:7123   */\n      pop\n      jump\t// out\n        /* \"#utility.yul\":7129:7495   */\n    tag_191:\n        /* \"#utility.yul\":7271:7274   */\n      0x00\n        /* \"#utility.yul\":7292:7359   */\n      tag_274\n        /* \"#utility.yul\":7356:7358   */\n      0x15\n        /* \"#utility.yul\":7351:7354   */\n      dup4\n        /* \"#utility.yul\":7292:7359   */\n      tag_184\n      jump\t// in\n    tag_274:\n        /* \"#utility.yul\":7285:7359   */\n      swap2\n      pop\n        /* \"#utility.yul\":7368:7461   */\n      tag_275\n        /* \"#utility.yul\":7457:7460   */\n      dup3\n        /* \"#utility.yul\":7368:7461   */\n      tag_190\n      jump\t// in\n    tag_275:\n        /* \"#utility.yul\":7486:7488   */\n      0x20\n        /* \"#utility.yul\":7481:7484   */\n      dup3\n        /* \"#utility.yul\":7477:7489   */\n      add\n        /* \"#utility.yul\":7470:7489   */\n      swap1\n      pop\n        /* \"#utility.yul\":7129:7495   */\n      swap2\n      swap1\n      pop\n      jump\t// out\n        /* \"#utility.yul\":7501:7920   */\n    tag_84:\n        /* \"#utility.yul\":7667:7671   */\n      0x00\n        /* \"#utility.yul\":7705:7707   */\n      0x20\n        /* \"#utility.yul\":7694:7703   */\n      dup3\n        /* \"#utility.yul\":7690:7708   */\n      add\n        /* \"#utility.yul\":7682:7708   */\n      swap1\n      pop\n        /* \"#utility.yul\":7754:7763   */\n      dup2\n        /* \"#utility.yul\":7748:7752   */\n      dup2\n        /* \"#utility.yul\":7744:7764   */\n      sub\n        /* \"#utility.yul\":7740:7741   */\n      0x00\n        /* \"#utility.yul\":7729:7738   */\n      dup4\n        /* \"#utility.yul\":7725:7742   */\n      add\n        /* \"#utility.yul\":7718:7765   */\n      mstore\n        /* \"#utility.yul\":7782:7913   */\n      tag_277\n        /* \"#utility.yul\":7908:7912   */\n      dup2\n        /* \"#utility.yul\":7782:7913   */\n      tag_191\n      jump\t// in\n    tag_277:\n        /* \"#utility.yul\":7774:7913   */\n      swap1\n      pop\n        /* \"#utility.yul\":7501:7920   */\n      swap2\n      swap1\n      pop\n      jump\t// out\n        /* \"#utility.yul\":7926:8106   */\n    tag_92:\n        /* \"#utility.yul\":7974:8051   */\n      0x4e487b7100000000000000000000000000000000000000000000000000000000\n        /* \"#utility.yul\":7971:7972   */\n      0x00\n        /* \"#utility.yul\":7964:8052   */\n      mstore\n        /* \"#utility.yul\":8071:8075   */\n      0x32\n        /* \"#utility.yul\":8068:8069   */\n      0x04\n        /* \"#utility.yul\":8061:8076   */\n      mstore\n        /* \"#utility.yul\":8095:8099   */\n      0x24\n        /* \"#utility.yul\":8092:8093   */\n      0x00\n        /* \"#utility.yul\":8085:8100   */\n      revert\n        /* \"#utility.yul\":8112:8198   */\n    tag_192:\n        /* \"#utility.yul\":8147:8154   */\n      0x00\n        /* \"#utility.yul\":8187:8191   */\n      0xff\n        /* \"#utility.yul\":8180:8185   */\n      dup3\n        /* \"#utility.yul\":8176:8192   */\n      and\n        /* \"#utility.yul\":8165:8192   */\n      swap1\n      pop\n        /* \"#utility.yul\":8112:8198   */\n      swap2\n      swap1\n      pop\n      jump\t// out\n        /* \"#utility.yul\":8204:8395   */\n    tag_99:\n        /* \"#utility.yul\":8242:8246   */\n      0x00\n        /* \"#utility.yul\":8262:8280   */\n      tag_281\n        /* \"#utility.yul\":8278:8279   */\n      dup3\n        /* \"#utility.yul\":8262:8280   */\n      tag_192\n      jump\t// in\n    tag_281:\n        /* \"#utility.yul\":8257:8280   */\n      swap2\n      pop\n        /* \"#utility.yul\":8294:8312   */\n      tag_282\n        /* \"#utility.yul\":8310:8311   */\n      dup4\n        /* \"#utility.yul\":8294:8312   */\n      tag_192\n      jump\t// in\n    tag_282:\n        /* \"#utility.yul\":8289:8312   */\n      swap3\n      pop\n        /* \"#utility.yul\":8336:8337   */\n      dup3\n        /* \"#utility.yul\":8333:8334   */\n      dup3\n        /* \"#utility.yul\":8329:8338   */\n      sub\n        /* \"#utility.yul\":8321:8338   */\n      swap1\n      pop\n        /* \"#utility.yul\":8360:8364   */\n      0xff\n        /* \"#utility.yul\":8354:8358   */\n      dup2\n        /* \"#utility.yul\":8351:8365   */\n      gt\n        /* \"#utility.yul\":8348:8388   */\n      iszero\n      tag_283\n      jumpi\n        /* \"#utility.yul\":8368:8386   */\n      tag_284\n      tag_189\n      jump\t// in\n    tag_284:\n        /* \"#utility.yul\":8348:8388   */\n    tag_283:\n        /* \"#utility.yul\":8204:8395   */\n      swap3\n      swap2\n      pop\n      pop\n      jump\t// out\n        /* \"#utility.yul\":8401:8595   */\n    tag_102:\n        /* \"#utility.yul\":8441:8445   */\n      0x00\n        /* \"#utility.yul\":8461:8481   */\n      tag_286\n        /* \"#utility.yul\":8479:8480   */\n      dup3\n        /* \"#utility.yul\":8461:8481   */\n      tag_172\n      jump\t// in\n    tag_286:\n        /* \"#utility.yul\":8456:8481   */\n      swap2\n      pop\n        /* \"#utility.yul\":8495:8515   */\n      tag_287\n        /* \"#utility.yul\":8513:8514   */\n      dup4\n        /* \"#utility.yul\":8495:8515   */\n      tag_172\n      jump\t// in\n    tag_287:\n        /* \"#utility.yul\":8490:8515   */\n      swap3\n      pop\n        /* \"#utility.yul\":8539:8540   */\n      dup3\n        /* \"#utility.yul\":8536:8537   */\n      dup3\n        /* \"#utility.yul\":8532:8541   */\n      sub\n        /* \"#utility.yul\":8524:8541   */\n      swap1\n      pop\n        /* \"#utility.yul\":8563:8564   */\n      dup2\n        /* \"#utility.yul\":8557:8561   */\n      dup2\n        /* \"#utility.yul\":8554:8565   */\n      gt\n        /* \"#utility.yul\":8551:8588   */\n      iszero\n      tag_288\n      jumpi\n        /* \"#utility.yul\":8568:8586   */\n      tag_289\n      tag_189\n      jump\t// in\n    tag_289:\n        /* \"#utility.yul\":8551:8588   */\n    tag_288:\n        /* \"#utility.yul\":8401:8595   */\n      swap3\n      swap2\n      pop\n      pop\n      jump\t// out\n        /* \"#utility.yul\":8601:8772   */\n    tag_110:\n        /* \"#utility.yul\":8640:8643   */\n      0x00\n        /* \"#utility.yul\":8663:8687   */\n      tag_291\n        /* \"#utility.yul\":8681:8686   */\n      dup3\n        /* \"#utility.yul\":8663:8687   */\n      tag_172\n      jump\t// in\n    tag_291:\n        /* \"#utility.yul\":8654:8687   */\n      swap2\n      pop\n        /* \"#utility.yul\":8709:8713   */\n      0x00\n        /* \"#utility.yul\":8702:8707   */\n      dup3\n        /* \"#utility.yul\":8699:8714   */\n      sub\n        /* \"#utility.yul\":8696:8737   */\n      tag_292\n      jumpi\n        /* \"#utility.yul\":8717:8735   */\n      tag_293\n      tag_189\n      jump\t// in\n    tag_293:\n        /* \"#utility.yul\":8696:8737   */\n    tag_292:\n        /* \"#utility.yul\":8764:8765   */\n      0x01\n        /* \"#utility.yul\":8757:8762   */\n      dup3\n        /* \"#utility.yul\":8753:8766   */\n      sub\n        /* \"#utility.yul\":8746:8766   */\n      swap1\n      pop\n        /* \"#utility.yul\":8601:8772   */\n      swap2\n      swap1\n      pop\n      jump\t// out\n        /* \"#utility.yul\":8778:9110   */\n    tag_115:\n        /* \"#utility.yul\":8899:8903   */\n      0x00\n        /* \"#utility.yul\":8937:8939   */\n      0x40\n        /* \"#utility.yul\":8926:8935   */\n      dup3\n        /* \"#utility.yul\":8922:8940   */\n      add\n        /* \"#utility.yul\":8914:8940   */\n      swap1\n      pop\n        /* \"#utility.yul\":8950:9021   */\n      tag_295\n        /* \"#utility.yul\":9018:9019   */\n      0x00\n        /* \"#utility.yul\":9007:9016   */\n      dup4\n        /* \"#utility.yul\":9003:9020   */\n      add\n        /* \"#utility.yul\":8994:9000   */\n      dup6\n        /* \"#utility.yul\":8950:9021   */\n      tag_183\n      jump\t// in\n    tag_295:\n        /* \"#utility.yul\":9031:9103   */\n      tag_296\n        /* \"#utility.yul\":9099:9101   */\n      0x20\n        /* \"#utility.yul\":9088:9097   */\n      dup4\n        /* \"#utility.yul\":9084:9102   */\n      add\n        /* \"#utility.yul\":9075:9081   */\n      dup5\n        /* \"#utility.yul\":9031:9103   */\n      tag_173\n      jump\t// in\n    tag_296:\n        /* \"#utility.yul\":8778:9110   */\n      swap4\n      swap3\n      pop\n      pop\n      pop\n      jump\t// out\n        /* \"#utility.yul\":9116:9283   */\n    tag_193:\n        /* \"#utility.yul\":9256:9275   */\n      0x616d74206e6f7420617661696c61626c65000000000000000000000000000000\n        /* \"#utility.yul\":9252:9253   */\n      0x00\n        /* \"#utility.yul\":9244:9250   */\n      dup3\n        /* \"#utility.yul\":9240:9254   */\n      add\n        /* \"#utility.yul\":9233:9276   */\n      mstore\n        /* \"#utility.yul\":9116:9283   */\n      pop\n      jump\t// out\n        /* \"#utility.yul\":9289:9655   */\n    tag_194:\n        /* \"#utility.yul\":9431:9434   */\n      0x00\n        /* \"#utility.yul\":9452:9519   */\n      tag_299\n        /* \"#utility.yul\":9516:9518   */\n      0x11\n        /* \"#utility.yul\":9511:9514   */\n      dup4\n        /* \"#utility.yul\":9452:9519   */\n      tag_184\n      jump\t// in\n    tag_299:\n        /* \"#utility.yul\":9445:9519   */\n      swap2\n      pop\n        /* \"#utility.yul\":9528:9621   */\n      tag_300\n        /* \"#utility.yul\":9617:9620   */\n      dup3\n        /* \"#utility.yul\":9528:9621   */\n      tag_193\n      jump\t// in\n    tag_300:\n        /* \"#utility.yul\":9646:9648   */\n      0x20\n        /* \"#utility.yul\":9641:9644   */\n      dup3\n        /* \"#utility.yul\":9637:9649   */\n      add\n        /* \"#utility.yul\":9630:9649   */\n      swap1\n      pop\n        /* \"#utility.yul\":9289:9655   */\n      swap2\n      swap1\n      pop\n      jump\t// out\n        /* \"#utility.yul\":9661:10080   */\n    tag_124:\n        /* \"#utility.yul\":9827:9831   */\n      0x00\n        /* \"#utility.yul\":9865:9867   */\n      0x20\n        /* \"#utility.yul\":9854:9863   */\n      dup3\n        /* \"#utility.yul\":9850:9868   */\n      add\n        /* \"#utility.yul\":9842:9868   */\n      swap1\n      pop\n        /* \"#utility.yul\":9914:9923   */\n      dup2\n        /* \"#utility.yul\":9908:9912   */\n      dup2\n        /* \"#utility.yul\":9904:9924   */\n      sub\n        /* \"#utility.yul\":9900:9901   */\n      0x00\n        /* \"#utility.yul\":9889:9898   */\n      dup4\n        /* \"#utility.yul\":9885:9902   */\n      add\n        /* \"#utility.yul\":9878:9925   */\n      mstore\n        /* \"#utility.yul\":9942:10073   */\n      tag_302\n        /* \"#utility.yul\":10068:10072   */\n      dup2\n        /* \"#utility.yul\":9942:10073   */\n      tag_194\n      jump\t// in\n    tag_302:\n        /* \"#utility.yul\":9934:10073   */\n      swap1\n      pop\n        /* \"#utility.yul\":9661:10080   */\n      swap2\n      swap1\n      pop\n      jump\t// out\n        /* \"#utility.yul\":10086:10233   */\n    tag_195:\n        /* \"#utility.yul\":10187:10198   */\n      0x00\n        /* \"#utility.yul\":10224:10227   */\n      dup2\n        /* \"#utility.yul\":10209:10227   */\n      swap1\n      pop\n        /* \"#utility.yul\":10086:10233   */\n      swap3\n      swap2\n      pop\n      pop\n      jump\t// out\n        /* \"#utility.yul\":10239:10353   */\n    tag_196:\n      pop\n      jump\t// out\n        /* \"#utility.yul\":10359:10757   */\n    tag_197:\n        /* \"#utility.yul\":10518:10521   */\n      0x00\n        /* \"#utility.yul\":10539:10622   */\n      tag_306\n        /* \"#utility.yul\":10620:10621   */\n      0x00\n        /* \"#utility.yul\":10615:10618   */\n      dup4\n        /* \"#utility.yul\":10539:10622   */\n      tag_195\n      jump\t// in\n    tag_306:\n        /* \"#utility.yul\":10532:10622   */\n      swap2\n      pop\n        /* \"#utility.yul\":10631:10724   */\n      tag_307\n        /* \"#utility.yul\":10720:10723   */\n      dup3\n        /* \"#utility.yul\":10631:10724   */\n      tag_196\n      jump\t// in\n    tag_307:\n        /* \"#utility.yul\":10749:10750   */\n      0x00\n        /* \"#utility.yul\":10744:10747   */\n      dup3\n        /* \"#utility.yul\":10740:10751   */\n      add\n        /* \"#utility.yul\":10733:10751   */\n      swap1\n      pop\n        /* \"#utility.yul\":10359:10757   */\n      swap2\n      swap1\n      pop\n      jump\t// out\n        /* \"#utility.yul\":10763:11142   */\n    tag_128:\n        /* \"#utility.yul\":10947:10950   */\n      0x00\n        /* \"#utility.yul\":10969:11116   */\n      tag_309\n        /* \"#utility.yul\":11112:11115   */\n      dup3\n        /* \"#utility.yul\":10969:11116   */\n      tag_197\n      jump\t// in\n    tag_309:\n        /* \"#utility.yul\":10962:11116   */\n      swap2\n      pop\n        /* \"#utility.yul\":11133:11136   */\n      dup2\n        /* \"#utility.yul\":11126:11136   */\n      swap1\n      pop\n        /* \"#utility.yul\":10763:11142   */\n      swap2\n      swap1\n      pop\n      jump\t// out\n        /* \"#utility.yul\":11148:11313   */\n    tag_198:\n        /* \"#utility.yul\":11288:11305   */\n      0x7769746864726177206661696c65640000000000000000000000000000000000\n        /* \"#utility.yul\":11284:11285   */\n      0x00\n        /* \"#utility.yul\":11276:11282   */\n      dup3\n        /* \"#utility.yul\":11272:11286   */\n      add\n        /* \"#utility.yul\":11265:11306   */\n      mstore\n        /* \"#utility.yul\":11148:11313   */\n      pop\n      jump\t// out\n        /* \"#utility.yul\":11319:11685   */\n    tag_199:\n        /* \"#utility.yul\":11461:11464   */\n      0x00\n        /* \"#utility.yul\":11482:11549   */\n      tag_312\n        /* \"#utility.yul\":11546:11548   */\n      0x0f\n        /* \"#utility.yul\":11541:11544   */\n      dup4\n        /* \"#utility.yul\":11482:11549   */\n      tag_184\n      jump\t// in\n    tag_312:\n        /* \"#utility.yul\":11475:11549   */\n      swap2\n      pop\n        /* \"#utility.yul\":11558:11651   */\n      tag_313\n        /* \"#utility.yul\":11647:11650   */\n      dup3\n        /* \"#utility.yul\":11558:11651   */\n      tag_198\n      jump\t// in\n    tag_313:\n        /* \"#utility.yul\":11676:11678   */\n      0x20\n        /* \"#utility.yul\":11671:11674   */\n      dup3\n        /* \"#utility.yul\":11667:11679   */\n      add\n        /* \"#utility.yul\":11660:11679   */\n      swap1\n      pop\n        /* \"#utility.yul\":11319:11685   */\n      swap2\n      swap1\n      pop\n      jump\t// out\n        /* \"#utility.yul\":11691:12110   */\n    tag_134:\n        /* \"#utility.yul\":11857:11861   */\n      0x00\n        /* \"#utility.yul\":11895:11897   */\n      0x20\n        /* \"#utility.yul\":11884:11893   */\n      dup3\n        /* \"#utility.yul\":11880:11898   */\n      add\n        /* \"#utility.yul\":11872:11898   */\n      swap1\n      pop\n        /* \"#utility.yul\":11944:11953   */\n      dup2\n        /* \"#utility.yul\":11938:11942   */\n      dup2\n        /* \"#utility.yul\":11934:11954   */\n      sub\n        /* \"#utility.yul\":11930:11931   */\n      0x00\n        /* \"#utility.yul\":11919:11928   */\n      dup4\n        /* \"#utility.yul\":11915:11932   */\n      add\n        /* \"#utility.yul\":11908:11955   */\n      mstore\n        /* \"#utility.yul\":11972:12103   */\n      tag_315\n        /* \"#utility.yul\":12098:12102   */\n      dup2\n        /* \"#utility.yul\":11972:12103   */\n      tag_199\n      jump\t// in\n    tag_315:\n        /* \"#utility.yul\":11964:12103   */\n      swap1\n      pop\n        /* \"#utility.yul\":11691:12110   */\n      swap2\n      swap1\n      pop\n      jump\t// out\n\n    auxdata: 0xa26469706673582212208140676a8db12cce560c80c69b3e05012ad8c979fab6c9902b4b019e2a7073e464736f6c634300081e0033\n}\n",
				"bytecode": {
					"linkReferences": {},
					"object": "608060405234801561000f575f5ffd5b50604051611322380380611322833981810160405281019061003191906101bf565b335f73ffffffffffffffffffffffffffffffffffffffff168173ffffffffffffffffffffffffffffffffffffffff16036100a2575f6040517f1e4fbdf7000000000000000000000000000000000000000000000000000000008152600401610099919061023c565b60405180910390fd5b6100b1816100c760201b60201c565b5081600381905550806004819055505050610255565b5f5f5f9054906101000a900473ffffffffffffffffffffffffffffffffffffffff169050815f5f6101000a81548173ffffffffffffffffffffffffffffffffffffffff021916908373ffffffffffffffffffffffffffffffffffffffff1602179055508173ffffffffffffffffffffffffffffffffffffffff168173ffffffffffffffffffffffffffffffffffffffff167f8be0079c531659141344cd1fd0a4f28419497f9722a3daafe3b4186f6b6457e060405160405180910390a35050565b5f5ffd5b5f819050919050565b61019e8161018c565b81146101a8575f5ffd5b50565b5f815190506101b981610195565b92915050565b5f5f604083850312156101d5576101d4610188565b5b5f6101e2858286016101ab565b92505060206101f3858286016101ab565b9150509250929050565b5f73ffffffffffffffffffffffffffffffffffffffff82169050919050565b5f610226826101fd565b9050919050565b6102368161021c565b82525050565b5f60208201905061024f5f83018461022d565b92915050565b6110c0806102625f395ff3fe6080604052600436106100aa575f3560e01c80638da5cb5b116100635780638da5cb5b146101af57806393420035146101d9578063b481f3b414610215578063bc4c33b41461023f578063ed88c68e14610269578063f2fde38b14610273576100b9565b806319b9ddf4146100c35780632e1a7d4d146100ff5780634061a5bf1461011b5780635f48b8b314610145578063715018a61461016f578063769b8d6e14610185576100b9565b366100b9576100b761029b565b005b6100c161029b565b005b3480156100ce575f5ffd5b506100e960048036038101906100e49190610b26565b610622565b6040516100f69190610b69565b60405180910390f35b61011960048036038101906101149190610bac565b610668565b005b348015610126575f5ffd5b5061012f6107cd565b60405161013c9190610c7c565b60405180910390f35b348015610150575f5ffd5b5061015961084d565b6040516101669190610b69565b60405180910390f35b34801561017a575f5ffd5b50610183610853565b005b348015610190575f5ffd5b50610199610866565b6040516101a69190610b69565b60405180910390f35b3480156101ba575f5ffd5b506101c361086c565b6040516101d09190610ca4565b60405180910390f35b3480156101e4575f5ffd5b506101ff60048036038101906101fa9190610bac565b610893565b60405161020c9190610ca4565b60405180910390f35b348015610220575f5ffd5b506102296108c7565b6040516102369190610b69565b60405180910390f35b34801561024a575f5ffd5b506102536108cd565b6040516102609190610b69565b60405180910390f35b61027161029b565b005b34801561027e575f5ffd5b5061029960048036038101906102949190610b26565b6108d3565b005b5f34116102dd576040517f08c379a00000000000000000000000000000000000000000000000000000000081526004016102d490610d3d565b60405180910390fd5b6003544211610321576040517f08c379a000000000000000000000000000000000000000000000000000000000815260040161031890610da5565b60405180910390fd5b6004546003546103319190610df0565b4210610372576040517f08c379a000000000000000000000000000000000000000000000000000000000815260040161036990610e6d565b60405180910390fd5b3460085f3373ffffffffffffffffffffffffffffffffffffffff1673ffffffffffffffffffffffffffffffffffffffff1681526020019081526020015f205f8282546103be9190610df0565b925050819055503460015f8282546103d69190610df0565b925050819055505f60085f3373ffffffffffffffffffffffffffffffffffffffff1673ffffffffffffffffffffffffffffffffffffffff1681526020019081526020015f205490505f5f90505b60038160ff1610156105e5575f60058260ff166003811061044757610446610e8b565b5b015f9054906101000a900473ffffffffffffffffffffffffffffffffffffffff16905060085f8273ffffffffffffffffffffffffffffffffffffffff1673ffffffffffffffffffffffffffffffffffffffff1681526020019081526020015f20548311156105d7575f8260026104bd9190610ec4565b60ff1690505b5f81111561057a575f8111156105675760056001826104e29190610ef8565b600381106104f3576104f2610e8b565b5b015f9054906101000a900473ffffffffffffffffffffffffffffffffffffffff166005826003811061052857610527610e8b565b5b015f6101000a81548173ffffffffffffffffffffffffffffffffffffffff021916908373ffffffffffffffffffffffffffffffffffffffff1602179055505b808061057290610f2b565b9150506104c3565b503360058360ff166003811061059357610592610e8b565b5b015f6101000a81548173ffffffffffffffffffffffffffffffffffffffff021916908373ffffffffffffffffffffffffffffffffffffffff160217905550506105e5565b508080600101915050610423565b507f0553260a2e46b0577270d8992db02d30856ca880144c72d6e9503760946aef133334604051610617929190610f52565b60405180910390a150565b5f60085f8373ffffffffffffffffffffffffffffffffffffffff1673ffffffffffffffffffffffffffffffffffffffff1681526020019081526020015f20549050919050565b610670610957565b8060025461067e9190610df0565b60015410156106c2576040517f08c379a00000000000000000000000000000000000000000000000000000000081526004016106b990610fc3565b60405180910390fd5b8060025f8282546106d39190610df0565b925050819055505f6106e361086c565b73ffffffffffffffffffffffffffffffffffffffff16826040516107069061100e565b5f6040518083038185875af1925050503d805f8114610740576040519150601f19603f3d011682016040523d82523d5f602084013e610745565b606091505b5050905080610789576040517f08c379a00000000000000000000000000000000000000000000000000000000081526004016107809061106c565b60405180910390fd5b7f884edad9ce6fa2440d8a54cc123490eb96d2768479d49ff9c7366125a94243646107b261086c565b836040516107c1929190610f52565b60405180910390a15050565b6107d5610aa6565b6005600380602002604051908101604052809291908260038015610843576020028201915b815f9054906101000a900473ffffffffffffffffffffffffffffffffffffffff1673ffffffffffffffffffffffffffffffffffffffff16815260200190600101908083116107fa575b5050505050905090565b60025481565b61085b610957565b6108645f6109de565b565b60015481565b5f5f5f9054906101000a900473ffffffffffffffffffffffffffffffffffffffff16905090565b600581600381106108a2575f80fd5b015f915054906101000a900473ffffffffffffffffffffffffffffffffffffffff1681565b60035481565b60045481565b6108db610957565b5f73ffffffffffffffffffffffffffffffffffffffff168173ffffffffffffffffffffffffffffffffffffffff160361094b575f6040517f1e4fbdf70000000000000000000000000000000000000000000000000000000081526004016109429190610ca4565b60405180910390fd5b610954816109de565b50565b61095f610a9f565b73ffffffffffffffffffffffffffffffffffffffff1661097d61086c565b73ffffffffffffffffffffffffffffffffffffffff16146109dc576109a0610a9f565b6040517f118cdaa70000000000000000000000000000000000000000000000000000000081526004016109d39190610ca4565b60405180910390fd5b565b5f5f5f9054906101000a900473ffffffffffffffffffffffffffffffffffffffff169050815f5f6101000a81548173ffffffffffffffffffffffffffffffffffffffff021916908373ffffffffffffffffffffffffffffffffffffffff1602179055508173ffffffffffffffffffffffffffffffffffffffff168173ffffffffffffffffffffffffffffffffffffffff167f8be0079c531659141344cd1fd0a4f28419497f9722a3daafe3b4186f6b6457e060405160405180910390a35050565b5f33905090565b6040518060600160405280600390602082028036833780820191505090505090565b5f5ffd5b5f73ffffffffffffffffffffffffffffffffffffffff82169050919050565b5f610af582610acc565b9050919050565b610b0581610aeb565b8114610b0f575f5ffd5b50565b5f81359050610b2081610afc565b92915050565b5f60208284031215610b3b57610b3a610ac8565b5b5f610b4884828501610b12565b91505092915050565b5f819050919050565b610b6381610b51565b82525050565b5f602082019050610b7c5f830184610b5a565b92915050565b610b8b81610b51565b8114610b95575f5ffd5b50565b5f81359050610ba681610b82565b92915050565b5f60208284031215610bc157610bc0610ac8565b5b5f610bce84828501610b98565b91505092915050565b5f60039050919050565b5f81905092915050565b5f819050919050565b610bfd81610aeb565b82525050565b5f610c0e8383610bf4565b60208301905092915050565b5f602082019050919050565b610c2f81610bd7565b610c398184610be1565b9250610c4482610beb565b805f5b83811015610c74578151610c5b8782610c03565b9650610c6683610c1a565b925050600181019050610c47565b505050505050565b5f606082019050610c8f5f830184610c26565b92915050565b610c9e81610aeb565b82525050565b5f602082019050610cb75f830184610c95565b92915050565b5f82825260208201905092915050565b7f76616c75652073686f756c642062652067726561746572207468616e207a65725f8201527f6f00000000000000000000000000000000000000000000000000000000000000602082015250565b5f610d27602183610cbd565b9150610d3282610ccd565b604082019050919050565b5f6020820190508181035f830152610d5481610d1b565b9050919050565b7f646f6e617465206e6f74207374617274000000000000000000000000000000005f82015250565b5f610d8f601083610cbd565b9150610d9a82610d5b565b602082019050919050565b5f6020820190508181035f830152610dbc81610d83565b9050919050565b7f4e487b71000000000000000000000000000000000000000000000000000000005f52601160045260245ffd5b5f610dfa82610b51565b9150610e0583610b51565b9250828201905080821115610e1d57610e1c610dc3565b5b92915050565b7f646f6e61746520686173206265656e20656e64656400000000000000000000005f82015250565b5f610e57601583610cbd565b9150610e6282610e23565b602082019050919050565b5f6020820190508181035f830152610e8481610e4b565b9050919050565b7f4e487b71000000000000000000000000000000000000000000000000000000005f52603260045260245ffd5b5f60ff82169050919050565b5f610ece82610eb8565b9150610ed983610eb8565b9250828203905060ff811115610ef257610ef1610dc3565b5b92915050565b5f610f0282610b51565b9150610f0d83610b51565b9250828203905081811115610f2557610f24610dc3565b5b92915050565b5f610f3582610b51565b91505f8203610f4757610f46610dc3565b5b600182039050919050565b5f604082019050610f655f830185610c95565b610f726020830184610b5a565b9392505050565b7f616d74206e6f7420617661696c61626c650000000000000000000000000000005f82015250565b5f610fad601183610cbd565b9150610fb882610f79565b602082019050919050565b5f6020820190508181035f830152610fda81610fa1565b9050919050565b5f81905092915050565b50565b5f610ff95f83610fe1565b915061100482610feb565b5f82019050919050565b5f61101882610fee565b9150819050919050565b7f7769746864726177206661696c656400000000000000000000000000000000005f82015250565b5f611056600f83610cbd565b915061106182611022565b602082019050919050565b5f6020820190508181035f8301526110838161104a565b905091905056fea26469706673582212208140676a8db12cce560c80c69b3e05012ad8c979fab6c9902b4b019e2a7073e464736f6c634300081e0033",
					"opcodes": "PUSH1 0x80 PUSH1 0x40 MSTORE CALLVALUE DUP1 ISZERO PUSH2 0xF JUMPI PUSH0 PUSH0 REVERT JUMPDEST POP PUSH1 0x40 MLOAD PUSH2 0x1322 CODESIZE SUB DUP1 PUSH2 0x1322 DUP4 CODECOPY DUP2 DUP2 ADD PUSH1 0x40 MSTORE DUP2 ADD SWAP1 PUSH2 0x31 SWAP2 SWAP1 PUSH2 0x1BF JUMP JUMPDEST CALLER PUSH0 PUSH20 0xFFFFFFFFFFFFFFFFFFFFFFFFFFFFFFFFFFFFFFFF AND DUP2 PUSH20 0xFFFFFFFFFFFFFFFFFFFFFFFFFFFFFFFFFFFFFFFF AND SUB PUSH2 0xA2 JUMPI PUSH0 PUSH1 0x40 MLOAD PUSH32 0x1E4FBDF700000000000000000000000000000000000000000000000000000000 DUP2 MSTORE PUSH1 0x4 ADD PUSH2 0x99 SWAP2 SWAP1 PUSH2 0x23C JUMP JUMPDEST PUSH1 0x40 MLOAD DUP1 SWAP2 SUB SWAP1 REVERT JUMPDEST PUSH2 0xB1 DUP2 PUSH2 0xC7 PUSH1 0x20 SHL PUSH1 0x20 SHR JUMP JUMPDEST POP DUP2 PUSH1 0x3 DUP2 SWAP1 SSTORE POP DUP1 PUSH1 0x4 DUP2 SWAP1 SSTORE POP POP POP PUSH2 0x255 JUMP JUMPDEST PUSH0 PUSH0 PUSH0 SWAP1 SLOAD SWAP1 PUSH2 0x100 EXP SWAP1 DIV PUSH20 0xFFFFFFFFFFFFFFFFFFFFFFFFFFFFFFFFFFFFFFFF AND SWAP1 POP DUP2 PUSH0 PUSH0 PUSH2 0x100 EXP DUP2 SLOAD DUP2 PUSH20 0xFFFFFFFFFFFFFFFFFFFFFFFFFFFFFFFFFFFFFFFF MUL NOT AND SWAP1 DUP4 PUSH20 0xFFFFFFFFFFFFFFFFFFFFFFFFFFFFFFFFFFFFFFFF AND MUL OR SWAP1 SSTORE POP DUP2 PUSH20 0xFFFFFFFFFFFFFFFFFFFFFFFFFFFFFFFFFFFFFFFF AND DUP2 PUSH20 0xFFFFFFFFFFFFFFFFFFFFFFFFFFFFFFFFFFFFFFFF AND PUSH32 0x8BE0079C531659141344CD1FD0A4F28419497F9722A3DAAFE3B4186F6B6457E0 PUSH1 0x40 MLOAD PUSH1 0x40 MLOAD DUP1 SWAP2 SUB SWAP1 LOG3 POP POP JUMP JUMPDEST PUSH0 PUSH0 REVERT JUMPDEST PUSH0 DUP2 SWAP1 POP SWAP2 SWAP1 POP JUMP JUMPDEST PUSH2 0x19E DUP2 PUSH2 0x18C JUMP JUMPDEST DUP2 EQ PUSH2 0x1A8 JUMPI PUSH0 PUSH0 REVERT JUMPDEST POP JUMP JUMPDEST PUSH0 DUP2 MLOAD SWAP1 POP PUSH2 0x1B9 DUP2 PUSH2 0x195 JUMP JUMPDEST SWAP3 SWAP2 POP POP JUMP JUMPDEST PUSH0 PUSH0 PUSH1 0x40 DUP4 DUP6 SUB SLT ISZERO PUSH2 0x1D5 JUMPI PUSH2 0x1D4 PUSH2 0x188 JUMP JUMPDEST JUMPDEST PUSH0 PUSH2 0x1E2 DUP6 DUP3 DUP7 ADD PUSH2 0x1AB JUMP JUMPDEST SWAP3 POP POP PUSH1 0x20 PUSH2 0x1F3 DUP6 DUP3 DUP7 ADD PUSH2 0x1AB JUMP JUMPDEST SWAP2 POP POP SWAP3 POP SWAP3 SWAP1 POP JUMP JUMPDEST PUSH0 PUSH20 0xFFFFFFFFFFFFFFFFFFFFFFFFFFFFFFFFFFFFFFFF DUP3 AND SWAP1 POP SWAP2 SWAP1 POP JUMP JUMPDEST PUSH0 PUSH2 0x226 DUP3 PUSH2 0x1FD JUMP JUMPDEST SWAP1 POP SWAP2 SWAP1 POP JUMP JUMPDEST PUSH2 0x236 DUP2 PUSH2 0x21C JUMP JUMPDEST DUP3 MSTORE POP POP JUMP JUMPDEST PUSH0 PUSH1 0x20 DUP3 ADD SWAP1 POP PUSH2 0x24F PUSH0 DUP4 ADD DUP5 PUSH2 0x22D JUMP JUMPDEST SWAP3 SWAP2 POP POP JUMP JUMPDEST PUSH2 0x10C0 DUP1 PUSH2 0x262 PUSH0 CODECOPY PUSH0 RETURN INVALID PUSH1 0x80 PUSH1 0x40 MSTORE PUSH1 0x4 CALLDATASIZE LT PUSH2 0xAA JUMPI PUSH0 CALLDATALOAD PUSH1 0xE0 SHR DUP1 PUSH4 0x8DA5CB5B GT PUSH2 0x63 JUMPI DUP1 PUSH4 0x8DA5CB5B EQ PUSH2 0x1AF JUMPI DUP1 PUSH4 0x93420035 EQ PUSH2 0x1D9 JUMPI DUP1 PUSH4 0xB481F3B4 EQ PUSH2 0x215 JUMPI DUP1 PUSH4 0xBC4C33B4 EQ PUSH2 0x23F JUMPI DUP1 PUSH4 0xED88C68E EQ PUSH2 0x269 JUMPI DUP1 PUSH4 0xF2FDE38B EQ PUSH2 0x273 JUMPI PUSH2 0xB9 JUMP JUMPDEST DUP1 PUSH4 0x19B9DDF4 EQ PUSH2 0xC3 JUMPI DUP1 PUSH4 0x2E1A7D4D EQ PUSH2 0xFF JUMPI DUP1 PUSH4 0x4061A5BF EQ PUSH2 0x11B JUMPI DUP1 PUSH4 0x5F48B8B3 EQ PUSH2 0x145 JUMPI DUP1 PUSH4 0x715018A6 EQ PUSH2 0x16F JUMPI DUP1 PUSH4 0x769B8D6E EQ PUSH2 0x185 JUMPI PUSH2 0xB9 JUMP JUMPDEST CALLDATASIZE PUSH2 0xB9 JUMPI PUSH2 0xB7 PUSH2 0x29B JUMP JUMPDEST STOP JUMPDEST PUSH2 0xC1 PUSH2 0x29B JUMP JUMPDEST STOP JUMPDEST CALLVALUE DUP1 ISZERO PUSH2 0xCE JUMPI PUSH0 PUSH0 REVERT JUMPDEST POP PUSH2 0xE9 PUSH1 0x4 DUP1 CALLDATASIZE SUB DUP2 ADD SWAP1 PUSH2 0xE4 SWAP2 SWAP1 PUSH2 0xB26 JUMP JUMPDEST PUSH2 0x622 JUMP JUMPDEST PUSH1 0x40 MLOAD PUSH2 0xF6 SWAP2 SWAP1 PUSH2 0xB69 JUMP JUMPDEST PUSH1 0x40 MLOAD DUP1 SWAP2 SUB SWAP1 RETURN JUMPDEST PUSH2 0x119 PUSH1 0x4 DUP1 CALLDATASIZE SUB DUP2 ADD SWAP1 PUSH2 0x114 SWAP2 SWAP1 PUSH2 0xBAC JUMP JUMPDEST PUSH2 0x668 JUMP JUMPDEST STOP JUMPDEST CALLVALUE DUP1 ISZERO PUSH2 0x126 JUMPI PUSH0 PUSH0 REVERT JUMPDEST POP PUSH2 0x12F PUSH2 0x7CD JUMP JUMPDEST PUSH1 0x40 MLOAD PUSH2 0x13C SWAP2 SWAP1 PUSH2 0xC7C JUMP JUMPDEST PUSH1 0x40 MLOAD DUP1 SWAP2 SUB SWAP1 RETURN JUMPDEST CALLVALUE DUP1 ISZERO PUSH2 0x150 JUMPI PUSH0 PUSH0 REVERT JUMPDEST POP PUSH2 0x159 PUSH2 0x84D JUMP JUMPDEST PUSH1 0x40 MLOAD PUSH2 0x166 SWAP2 SWAP1 PUSH2 0xB69 JUMP JUMPDEST PUSH1 0x40 MLOAD DUP1 SWAP2 SUB SWAP1 RETURN JUMPDEST CALLVALUE DUP1 ISZERO PUSH2 0x17A JUMPI PUSH0 PUSH0 REVERT JUMPDEST POP PUSH2 0x183 PUSH2 0x853 JUMP JUMPDEST STOP JUMPDEST CALLVALUE DUP1 ISZERO PUSH2 0x190 JUMPI PUSH0 PUSH0 REVERT JUMPDEST POP PUSH2 0x199 PUSH2 0x866 JUMP JUMPDEST PUSH1 0x40 MLOAD PUSH2 0x1A6 SWAP2 SWAP1 PUSH2 0xB69 JUMP JUMPDEST PUSH1 0x40 MLOAD DUP1 SWAP2 SUB SWAP1 RETURN JUMPDEST CALLVALUE DUP1 ISZERO PUSH2 0x1BA JUMPI PUSH0 PUSH0 REVERT JUMPDEST POP PUSH2 0x1C3 PUSH2 0x86C JUMP JUMPDEST PUSH1 0x40 MLOAD PUSH2 0x1D0 SWAP2 SWAP1 PUSH2 0xCA4 JUMP JUMPDEST PUSH1 0x40 MLOAD DUP1 SWAP2 SUB SWAP1 RETURN JUMPDEST CALLVALUE DUP1 ISZERO PUSH2 0x1E4 JUMPI PUSH0 PUSH0 REVERT JUMPDEST POP PUSH2 0x1FF PUSH1 0x4 DUP1 CALLDATASIZE SUB DUP2 ADD SWAP1 PUSH2 0x1FA SWAP2 SWAP1 PUSH2 0xBAC JUMP JUMPDEST PUSH2 0x893 JUMP JUMPDEST PUSH1 0x40 MLOAD PUSH2 0x20C SWAP2 SWAP1 PUSH2 0xCA4 JUMP JUMPDEST PUSH1 0x40 MLOAD DUP1 SWAP2 SUB SWAP1 RETURN JUMPDEST CALLVALUE DUP1 ISZERO PUSH2 0x220 JUMPI PUSH0 PUSH0 REVERT JUMPDEST POP PUSH2 0x229 PUSH2 0x8C7 JUMP JUMPDEST PUSH1 0x40 MLOAD PUSH2 0x236 SWAP2 SWAP1 PUSH2 0xB69 JUMP JUMPDEST PUSH1 0x40 MLOAD DUP1 SWAP2 SUB SWAP1 RETURN JUMPDEST CALLVALUE DUP1 ISZERO PUSH2 0x24A JUMPI PUSH0 PUSH0 REVERT JUMPDEST POP PUSH2 0x253 PUSH2 0x8CD JUMP JUMPDEST PUSH1 0x40 MLOAD PUSH2 0x260 SWAP2 SWAP1 PUSH2 0xB69 JUMP JUMPDEST PUSH1 0x40 MLOAD DUP1 SWAP2 SUB SWAP1 RETURN JUMPDEST PUSH2 0x271 PUSH2 0x29B JUMP JUMPDEST STOP JUMPDEST CALLVALUE DUP1 ISZERO PUSH2 0x27E JUMPI PUSH0 PUSH0 REVERT JUMPDEST POP PUSH2 0x299 PUSH1 0x4 DUP1 CALLDATASIZE SUB DUP2 ADD SWAP1 PUSH2 0x294 SWAP2 SWAP1 PUSH2 0xB26 JUMP JUMPDEST PUSH2 0x8D3 JUMP JUMPDEST STOP JUMPDEST PUSH0 CALLVALUE GT PUSH2 0x2DD JUMPI PUSH1 0x40 MLOAD PUSH32 0x8C379A000000000000000000000000000000000000000000000000000000000 DUP2 MSTORE PUSH1 0x4 ADD PUSH2 0x2D4 SWAP1 PUSH2 0xD3D JUMP JUMPDEST PUSH1 0x40 MLOAD DUP1 SWAP2 SUB SWAP1 REVERT JUMPDEST PUSH1 0x3 SLOAD TIMESTAMP GT PUSH2 0x321 JUMPI PUSH1 0x40 MLOAD PUSH32 0x8C379A000000000000000000000000000000000000000000000000000000000 DUP2 MSTORE PUSH1 0x4 ADD PUSH2 0x318 SWAP1 PUSH2 0xDA5 JUMP JUMPDEST PUSH1 0x40 MLOAD DUP1 SWAP2 SUB SWAP1 REVERT JUMPDEST PUSH1 0x4 SLOAD PUSH1 0x3 SLOAD PUSH2 0x331 SWAP2 SWAP1 PUSH2 0xDF0 JUMP JUMPDEST TIMESTAMP LT PUSH2 0x372 JUMPI PUSH1 0x40 MLOAD PUSH32 0x8C379A000000000000000000000000000000000000000000000000000000000 DUP2 MSTORE PUSH1 0x4 ADD PUSH2 0x369 SWAP1 PUSH2 0xE6D JUMP JUMPDEST PUSH1 0x40 MLOAD DUP1 SWAP2 SUB SWAP1 REVERT JUMPDEST CALLVALUE PUSH1 0x8 PUSH0 CALLER PUSH20 0xFFFFFFFFFFFFFFFFFFFFFFFFFFFFFFFFFFFFFFFF AND PUSH20 0xFFFFFFFFFFFFFFFFFFFFFFFFFFFFFFFFFFFFFFFF AND DUP2 MSTORE PUSH1 0x20 ADD SWAP1 DUP2 MSTORE PUSH1 0x20 ADD PUSH0 KECCAK256 PUSH0 DUP3 DUP3 SLOAD PUSH2 0x3BE SWAP2 SWAP1 PUSH2 0xDF0 JUMP JUMPDEST SWAP3 POP POP DUP2 SWAP1 SSTORE POP CALLVALUE PUSH1 0x1 PUSH0 DUP3 DUP3 SLOAD PUSH2 0x3D6 SWAP2 SWAP1 PUSH2 0xDF0 JUMP JUMPDEST SWAP3 POP POP DUP2 SWAP1 SSTORE POP PUSH0 PUSH1 0x8 PUSH0 CALLER PUSH20 0xFFFFFFFFFFFFFFFFFFFFFFFFFFFFFFFFFFFFFFFF AND PUSH20 0xFFFFFFFFFFFFFFFFFFFFFFFFFFFFFFFFFFFFFFFF AND DUP2 MSTORE PUSH1 0x20 ADD SWAP1 DUP2 MSTORE PUSH1 0x20 ADD PUSH0 KECCAK256 SLOAD SWAP1 POP PUSH0 PUSH0 SWAP1 POP JUMPDEST PUSH1 0x3 DUP2 PUSH1 0xFF AND LT ISZERO PUSH2 0x5E5 JUMPI PUSH0 PUSH1 0x5 DUP3 PUSH1 0xFF AND PUSH1 0x3 DUP2 LT PUSH2 0x447 JUMPI PUSH2 0x446 PUSH2 0xE8B JUMP JUMPDEST JUMPDEST ADD PUSH0 SWAP1 SLOAD SWAP1 PUSH2 0x100 EXP SWAP1 DIV PUSH20 0xFFFFFFFFFFFFFFFFFFFFFFFFFFFFFFFFFFFFFFFF AND SWAP1 POP PUSH1 0x8 PUSH0 DUP3 PUSH20 0xFFFFFFFFFFFFFFFFFFFFFFFFFFFFFFFFFFFFFFFF AND PUSH20 0xFFFFFFFFFFFFFFFFFFFFFFFFFFFFFFFFFFFFFFFF AND DUP2 MSTORE PUSH1 0x20 ADD SWAP1 DUP2 MSTORE PUSH1 0x20 ADD PUSH0 KECCAK256 SLOAD DUP4 GT ISZERO PUSH2 0x5D7 JUMPI PUSH0 DUP3 PUSH1 0x2 PUSH2 0x4BD SWAP2 SWAP1 PUSH2 0xEC4 JUMP JUMPDEST PUSH1 0xFF AND SWAP1 POP JUMPDEST PUSH0 DUP2 GT ISZERO PUSH2 0x57A JUMPI PUSH0 DUP2 GT ISZERO PUSH2 0x567 JUMPI PUSH1 0x5 PUSH1 0x1 DUP3 PUSH2 0x4E2 SWAP2 SWAP1 PUSH2 0xEF8 JUMP JUMPDEST PUSH1 0x3 DUP2 LT PUSH2 0x4F3 JUMPI PUSH2 0x4F2 PUSH2 0xE8B JUMP JUMPDEST JUMPDEST ADD PUSH0 SWAP1 SLOAD SWAP1 PUSH2 0x100 EXP SWAP1 DIV PUSH20 0xFFFFFFFFFFFFFFFFFFFFFFFFFFFFFFFFFFFFFFFF AND PUSH1 0x5 DUP3 PUSH1 0x3 DUP2 LT PUSH2 0x528 JUMPI PUSH2 0x527 PUSH2 0xE8B JUMP JUMPDEST JUMPDEST ADD PUSH0 PUSH2 0x100 EXP DUP2 SLOAD DUP2 PUSH20 0xFFFFFFFFFFFFFFFFFFFFFFFFFFFFFFFFFFFFFFFF MUL NOT AND SWAP1 DUP4 PUSH20 0xFFFFFFFFFFFFFFFFFFFFFFFFFFFFFFFFFFFFFFFF AND MUL OR SWAP1 SSTORE POP JUMPDEST DUP1 DUP1 PUSH2 0x572 SWAP1 PUSH2 0xF2B JUMP JUMPDEST SWAP2 POP POP PUSH2 0x4C3 JUMP JUMPDEST POP CALLER PUSH1 0x5 DUP4 PUSH1 0xFF AND PUSH1 0x3 DUP2 LT PUSH2 0x593 JUMPI PUSH2 0x592 PUSH2 0xE8B JUMP JUMPDEST JUMPDEST ADD PUSH0 PUSH2 0x100 EXP DUP2 SLOAD DUP2 PUSH20 0xFFFFFFFFFFFFFFFFFFFFFFFFFFFFFFFFFFFFFFFF MUL NOT AND SWAP1 DUP4 PUSH20 0xFFFFFFFFFFFFFFFFFFFFFFFFFFFFFFFFFFFFFFFF AND MUL OR SWAP1 SSTORE POP POP PUSH2 0x5E5 JUMP JUMPDEST POP DUP1 DUP1 PUSH1 0x1 ADD SWAP2 POP POP PUSH2 0x423 JUMP JUMPDEST POP PUSH32 0x553260A2E46B0577270D8992DB02D30856CA880144C72D6E9503760946AEF13 CALLER CALLVALUE PUSH1 0x40 MLOAD PUSH2 0x617 SWAP3 SWAP2 SWAP1 PUSH2 0xF52 JUMP JUMPDEST PUSH1 0x40 MLOAD DUP1 SWAP2 SUB SWAP1 LOG1 POP JUMP JUMPDEST PUSH0 PUSH1 0x8 PUSH0 DUP4 PUSH20 0xFFFFFFFFFFFFFFFFFFFFFFFFFFFFFFFFFFFFFFFF AND PUSH20 0xFFFFFFFFFFFFFFFFFFFFFFFFFFFFFFFFFFFFFFFF AND DUP2 MSTORE PUSH1 0x20 ADD SWAP1 DUP2 MSTORE PUSH1 0x20 ADD PUSH0 KECCAK256 SLOAD SWAP1 POP SWAP2 SWAP1 POP JUMP JUMPDEST PUSH2 0x670 PUSH2 0x957 JUMP JUMPDEST DUP1 PUSH1 0x2 SLOAD PUSH2 0x67E SWAP2 SWAP1 PUSH2 0xDF0 JUMP JUMPDEST PUSH1 0x1 SLOAD LT ISZERO PUSH2 0x6C2 JUMPI PUSH1 0x40 MLOAD PUSH32 0x8C379A000000000000000000000000000000000000000000000000000000000 DUP2 MSTORE PUSH1 0x4 ADD PUSH2 0x6B9 SWAP1 PUSH2 0xFC3 JUMP JUMPDEST PUSH1 0x40 MLOAD DUP1 SWAP2 SUB SWAP1 REVERT JUMPDEST DUP1 PUSH1 0x2 PUSH0 DUP3 DUP3 SLOAD PUSH2 0x6D3 SWAP2 SWAP1 PUSH2 0xDF0 JUMP JUMPDEST SWAP3 POP POP DUP2 SWAP1 SSTORE POP PUSH0 PUSH2 0x6E3 PUSH2 0x86C JUMP JUMPDEST PUSH20 0xFFFFFFFFFFFFFFFFFFFFFFFFFFFFFFFFFFFFFFFF AND DUP3 PUSH1 0x40 MLOAD PUSH2 0x706 SWAP1 PUSH2 0x100E JUMP JUMPDEST PUSH0 PUSH1 0x40 MLOAD DUP1 DUP4 SUB DUP2 DUP6 DUP8 GAS CALL SWAP3 POP POP POP RETURNDATASIZE DUP1 PUSH0 DUP2 EQ PUSH2 0x740 JUMPI PUSH1 0x40 MLOAD SWAP2 POP PUSH1 0x1F NOT PUSH1 0x3F RETURNDATASIZE ADD AND DUP3 ADD PUSH1 0x40 MSTORE RETURNDATASIZE DUP3 MSTORE RETURNDATASIZE PUSH0 PUSH1 0x20 DUP5 ADD RETURNDATACOPY PUSH2 0x745 JUMP JUMPDEST PUSH1 0x60 SWAP2 POP JUMPDEST POP POP SWAP1 POP DUP1 PUSH2 0x789 JUMPI PUSH1 0x40 MLOAD PUSH32 0x8C379A000000000000000000000000000000000000000000000000000000000 DUP2 MSTORE PUSH1 0x4 ADD PUSH2 0x780 SWAP1 PUSH2 0x106C JUMP JUMPDEST PUSH1 0x40 MLOAD DUP1 SWAP2 SUB SWAP1 REVERT JUMPDEST PUSH32 0x884EDAD9CE6FA2440D8A54CC123490EB96D2768479D49FF9C7366125A9424364 PUSH2 0x7B2 PUSH2 0x86C JUMP JUMPDEST DUP4 PUSH1 0x40 MLOAD PUSH2 0x7C1 SWAP3 SWAP2 SWAP1 PUSH2 0xF52 JUMP JUMPDEST PUSH1 0x40 MLOAD DUP1 SWAP2 SUB SWAP1 LOG1 POP POP JUMP JUMPDEST PUSH2 0x7D5 PUSH2 0xAA6 JUMP JUMPDEST PUSH1 0x5 PUSH1 0x3 DUP1 PUSH1 0x20 MUL PUSH1 0x40 MLOAD SWAP1 DUP2 ADD PUSH1 0x40 MSTORE DUP1 SWAP3 SWAP2 SWAP1 DUP3 PUSH1 0x3 DUP1 ISZERO PUSH2 0x843 JUMPI PUSH1 0x20 MUL DUP3 ADD SWAP2 JUMPDEST DUP2 PUSH0 SWAP1 SLOAD SWAP1 PUSH2 0x100 EXP SWAP1 DIV PUSH20 0xFFFFFFFFFFFFFFFFFFFFFFFFFFFFFFFFFFFFFFFF AND PUSH20 0xFFFFFFFFFFFFFFFFFFFFFFFFFFFFFFFFFFFFFFFF AND DUP2 MSTORE PUSH1 0x20 ADD SWAP1 PUSH1 0x1 ADD SWAP1 DUP1 DUP4 GT PUSH2 0x7FA JUMPI JUMPDEST POP POP POP POP POP SWAP1 POP SWAP1 JUMP JUMPDEST PUSH1 0x2 SLOAD DUP2 JUMP JUMPDEST PUSH2 0x85B PUSH2 0x957 JUMP JUMPDEST PUSH2 0x864 PUSH0 PUSH2 0x9DE JUMP JUMPDEST JUMP JUMPDEST PUSH1 0x1 SLOAD DUP2 JUMP JUMPDEST PUSH0 PUSH0 PUSH0 SWAP1 SLOAD SWAP1 PUSH2 0x100 EXP SWAP1 DIV PUSH20 0xFFFFFFFFFFFFFFFFFFFFFFFFFFFFFFFFFFFFFFFF AND SWAP1 POP SWAP1 JUMP JUMPDEST PUSH1 0x5 DUP2 PUSH1 0x3 DUP2 LT PUSH2 0x8A2 JUMPI PUSH0 DUP1 REVERT JUMPDEST ADD PUSH0 SWAP2 POP SLOAD SWAP1 PUSH2 0x100 EXP SWAP1 DIV PUSH20 0xFFFFFFFFFFFFFFFFFFFFFFFFFFFFFFFFFFFFFFFF AND DUP2 JUMP JUMPDEST PUSH1 0x3 SLOAD DUP2 JUMP JUMPDEST PUSH1 0x4 SLOAD DUP2 JUMP JUMPDEST PUSH2 0x8DB PUSH2 0x957 JUMP JUMPDEST PUSH0 PUSH20 0xFFFFFFFFFFFFFFFFFFFFFFFFFFFFFFFFFFFFFFFF AND DUP2 PUSH20 0xFFFFFFFFFFFFFFFFFFFFFFFFFFFFFFFFFFFFFFFF AND SUB PUSH2 0x94B JUMPI PUSH0 PUSH1 0x40 MLOAD PUSH32 0x1E4FBDF700000000000000000000000000000000000000000000000000000000 DUP2 MSTORE PUSH1 0x4 ADD PUSH2 0x942 SWAP2 SWAP1 PUSH2 0xCA4 JUMP JUMPDEST PUSH1 0x40 MLOAD DUP1 SWAP2 SUB SWAP1 REVERT JUMPDEST PUSH2 0x954 DUP2 PUSH2 0x9DE JUMP JUMPDEST POP JUMP JUMPDEST PUSH2 0x95F PUSH2 0xA9F JUMP JUMPDEST PUSH20 0xFFFFFFFFFFFFFFFFFFFFFFFFFFFFFFFFFFFFFFFF AND PUSH2 0x97D PUSH2 0x86C JUMP JUMPDEST PUSH20 0xFFFFFFFFFFFFFFFFFFFFFFFFFFFFFFFFFFFFFFFF AND EQ PUSH2 0x9DC JUMPI PUSH2 0x9A0 PUSH2 0xA9F JUMP JUMPDEST PUSH1 0x40 MLOAD PUSH32 0x118CDAA700000000000000000000000000000000000000000000000000000000 DUP2 MSTORE PUSH1 0x4 ADD PUSH2 0x9D3 SWAP2 SWAP1 PUSH2 0xCA4 JUMP JUMPDEST PUSH1 0x40 MLOAD DUP1 SWAP2 SUB SWAP1 REVERT JUMPDEST JUMP JUMPDEST PUSH0 PUSH0 PUSH0 SWAP1 SLOAD SWAP1 PUSH2 0x100 EXP SWAP1 DIV PUSH20 0xFFFFFFFFFFFFFFFFFFFFFFFFFFFFFFFFFFFFFFFF AND SWAP1 POP DUP2 PUSH0 PUSH0 PUSH2 0x100 EXP DUP2 SLOAD DUP2 PUSH20 0xFFFFFFFFFFFFFFFFFFFFFFFFFFFFFFFFFFFFFFFF MUL NOT AND SWAP1 DUP4 PUSH20 0xFFFFFFFFFFFFFFFFFFFFFFFFFFFFFFFFFFFFFFFF AND MUL OR SWAP1 SSTORE POP DUP2 PUSH20 0xFFFFFFFFFFFFFFFFFFFFFFFFFFFFFFFFFFFFFFFF AND DUP2 PUSH20 0xFFFFFFFFFFFFFFFFFFFFFFFFFFFFFFFFFFFFFFFF AND PUSH32 0x8BE0079C531659141344CD1FD0A4F28419497F9722A3DAAFE3B4186F6B6457E0 PUSH1 0x40 MLOAD PUSH1 0x40 MLOAD DUP1 SWAP2 SUB SWAP1 LOG3 POP POP JUMP JUMPDEST PUSH0 CALLER SWAP1 POP SWAP1 JUMP JUMPDEST PUSH1 0x40 MLOAD DUP1 PUSH1 0x60 ADD PUSH1 0x40 MSTORE DUP1 PUSH1 0x3 SWAP1 PUSH1 0x20 DUP3 MUL DUP1 CALLDATASIZE DUP4 CALLDATACOPY DUP1 DUP3 ADD SWAP2 POP POP SWAP1 POP POP SWAP1 JUMP JUMPDEST PUSH0 PUSH0 REVERT JUMPDEST PUSH0 PUSH20 0xFFFFFFFFFFFFFFFFFFFFFFFFFFFFFFFFFFFFFFFF DUP3 AND SWAP1 POP SWAP2 SWAP1 POP JUMP JUMPDEST PUSH0 PUSH2 0xAF5 DUP3 PUSH2 0xACC JUMP JUMPDEST SWAP1 POP SWAP2 SWAP1 POP JUMP JUMPDEST PUSH2 0xB05 DUP2 PUSH2 0xAEB JUMP JUMPDEST DUP2 EQ PUSH2 0xB0F JUMPI PUSH0 PUSH0 REVERT JUMPDEST POP JUMP JUMPDEST PUSH0 DUP2 CALLDATALOAD SWAP1 POP PUSH2 0xB20 DUP2 PUSH2 0xAFC JUMP JUMPDEST SWAP3 SWAP2 POP POP JUMP JUMPDEST PUSH0 PUSH1 0x20 DUP3 DUP5 SUB SLT ISZERO PUSH2 0xB3B JUMPI PUSH2 0xB3A PUSH2 0xAC8 JUMP JUMPDEST JUMPDEST PUSH0 PUSH2 0xB48 DUP5 DUP3 DUP6 ADD PUSH2 0xB12 JUMP JUMPDEST SWAP2 POP POP SWAP3 SWAP2 POP POP JUMP JUMPDEST PUSH0 DUP2 SWAP1 POP SWAP2 SWAP1 POP JUMP JUMPDEST PUSH2 0xB63 DUP2 PUSH2 0xB51 JUMP JUMPDEST DUP3 MSTORE POP POP JUMP JUMPDEST PUSH0 PUSH1 0x20 DUP3 ADD SWAP1 POP PUSH2 0xB7C PUSH0 DUP4 ADD DUP5 PUSH2 0xB5A JUMP JUMPDEST SWAP3 SWAP2 POP POP JUMP JUMPDEST PUSH2 0xB8B DUP2 PUSH2 0xB51 JUMP JUMPDEST DUP2 EQ PUSH2 0xB95 JUMPI PUSH0 PUSH0 REVERT JUMPDEST POP JUMP JUMPDEST PUSH0 DUP2 CALLDATALOAD SWAP1 POP PUSH2 0xBA6 DUP2 PUSH2 0xB82 JUMP JUMPDEST SWAP3 SWAP2 POP POP JUMP JUMPDEST PUSH0 PUSH1 0x20 DUP3 DUP5 SUB SLT ISZERO PUSH2 0xBC1 JUMPI PUSH2 0xBC0 PUSH2 0xAC8 JUMP JUMPDEST JUMPDEST PUSH0 PUSH2 0xBCE DUP5 DUP3 DUP6 ADD PUSH2 0xB98 JUMP JUMPDEST SWAP2 POP POP SWAP3 SWAP2 POP POP JUMP JUMPDEST PUSH0 PUSH1 0x3 SWAP1 POP SWAP2 SWAP1 POP JUMP JUMPDEST PUSH0 DUP2 SWAP1 POP SWAP3 SWAP2 POP POP JUMP JUMPDEST PUSH0 DUP2 SWAP1 POP SWAP2 SWAP1 POP JUMP JUMPDEST PUSH2 0xBFD DUP2 PUSH2 0xAEB JUMP JUMPDEST DUP3 MSTORE POP POP JUMP JUMPDEST PUSH0 PUSH2 0xC0E DUP4 DUP4 PUSH2 0xBF4 JUMP JUMPDEST PUSH1 0x20 DUP4 ADD SWAP1 POP SWAP3 SWAP2 POP POP JUMP JUMPDEST PUSH0 PUSH1 0x20 DUP3 ADD SWAP1 POP SWAP2 SWAP1 POP JUMP JUMPDEST PUSH2 0xC2F DUP2 PUSH2 0xBD7 JUMP JUMPDEST PUSH2 0xC39 DUP2 DUP5 PUSH2 0xBE1 JUMP JUMPDEST SWAP3 POP PUSH2 0xC44 DUP3 PUSH2 0xBEB JUMP JUMPDEST DUP1 PUSH0 JUMPDEST DUP4 DUP2 LT ISZERO PUSH2 0xC74 JUMPI DUP2 MLOAD PUSH2 0xC5B DUP8 DUP3 PUSH2 0xC03 JUMP JUMPDEST SWAP7 POP PUSH2 0xC66 DUP4 PUSH2 0xC1A JUMP JUMPDEST SWAP3 POP POP PUSH1 0x1 DUP2 ADD SWAP1 POP PUSH2 0xC47 JUMP JUMPDEST POP POP POP POP POP POP JUMP JUMPDEST PUSH0 PUSH1 0x60 DUP3 ADD SWAP1 POP PUSH2 0xC8F PUSH0 DUP4 ADD DUP5 PUSH2 0xC26 JUMP JUMPDEST SWAP3 SWAP2 POP POP JUMP JUMPDEST PUSH2 0xC9E DUP2 PUSH2 0xAEB JUMP JUMPDEST DUP3 MSTORE POP POP JUMP JUMPDEST PUSH0 PUSH1 0x20 DUP3 ADD SWAP1 POP PUSH2 0xCB7 PUSH0 DUP4 ADD DUP5 PUSH2 0xC95 JUMP JUMPDEST SWAP3 SWAP2 POP POP JUMP JUMPDEST PUSH0 DUP3 DUP3 MSTORE PUSH1 0x20 DUP3 ADD SWAP1 POP SWAP3 SWAP2 POP POP JUMP JUMPDEST PUSH32 0x76616C75652073686F756C642062652067726561746572207468616E207A6572 PUSH0 DUP3 ADD MSTORE PUSH32 0x6F00000000000000000000000000000000000000000000000000000000000000 PUSH1 0x20 DUP3 ADD MSTORE POP JUMP JUMPDEST PUSH0 PUSH2 0xD27 PUSH1 0x21 DUP4 PUSH2 0xCBD JUMP JUMPDEST SWAP2 POP PUSH2 0xD32 DUP3 PUSH2 0xCCD JUMP JUMPDEST PUSH1 0x40 DUP3 ADD SWAP1 POP SWAP2 SWAP1 POP JUMP JUMPDEST PUSH0 PUSH1 0x20 DUP3 ADD SWAP1 POP DUP2 DUP2 SUB PUSH0 DUP4 ADD MSTORE PUSH2 0xD54 DUP2 PUSH2 0xD1B JUMP JUMPDEST SWAP1 POP SWAP2 SWAP1 POP JUMP JUMPDEST PUSH32 0x646F6E617465206E6F7420737461727400000000000000000000000000000000 PUSH0 DUP3 ADD MSTORE POP JUMP JUMPDEST PUSH0 PUSH2 0xD8F PUSH1 0x10 DUP4 PUSH2 0xCBD JUMP JUMPDEST SWAP2 POP PUSH2 0xD9A DUP3 PUSH2 0xD5B JUMP JUMPDEST PUSH1 0x20 DUP3 ADD SWAP1 POP SWAP2 SWAP1 POP JUMP JUMPDEST PUSH0 PUSH1 0x20 DUP3 ADD SWAP1 POP DUP2 DUP2 SUB PUSH0 DUP4 ADD MSTORE PUSH2 0xDBC DUP2 PUSH2 0xD83 JUMP JUMPDEST SWAP1 POP SWAP2 SWAP1 POP JUMP JUMPDEST PUSH32 0x4E487B7100000000000000000000000000000000000000000000000000000000 PUSH0 MSTORE PUSH1 0x11 PUSH1 0x4 MSTORE PUSH1 0x24 PUSH0 REVERT JUMPDEST PUSH0 PUSH2 0xDFA DUP3 PUSH2 0xB51 JUMP JUMPDEST SWAP2 POP PUSH2 0xE05 DUP4 PUSH2 0xB51 JUMP JUMPDEST SWAP3 POP DUP3 DUP3 ADD SWAP1 POP DUP1 DUP3 GT ISZERO PUSH2 0xE1D JUMPI PUSH2 0xE1C PUSH2 0xDC3 JUMP JUMPDEST JUMPDEST SWAP3 SWAP2 POP POP JUMP JUMPDEST PUSH32 0x646F6E61746520686173206265656E20656E6465640000000000000000000000 PUSH0 DUP3 ADD MSTORE POP JUMP JUMPDEST PUSH0 PUSH2 0xE57 PUSH1 0x15 DUP4 PUSH2 0xCBD JUMP JUMPDEST SWAP2 POP PUSH2 0xE62 DUP3 PUSH2 0xE23 JUMP JUMPDEST PUSH1 0x20 DUP3 ADD SWAP1 POP SWAP2 SWAP1 POP JUMP JUMPDEST PUSH0 PUSH1 0x20 DUP3 ADD SWAP1 POP DUP2 DUP2 SUB PUSH0 DUP4 ADD MSTORE PUSH2 0xE84 DUP2 PUSH2 0xE4B JUMP JUMPDEST SWAP1 POP SWAP2 SWAP1 POP JUMP JUMPDEST PUSH32 0x4E487B7100000000000000000000000000000000000000000000000000000000 PUSH0 MSTORE PUSH1 0x32 PUSH1 0x4 MSTORE PUSH1 0x24 PUSH0 REVERT JUMPDEST PUSH0 PUSH1 0xFF DUP3 AND SWAP1 POP SWAP2 SWAP1 POP JUMP JUMPDEST PUSH0 PUSH2 0xECE DUP3 PUSH2 0xEB8 JUMP JUMPDEST SWAP2 POP PUSH2 0xED9 DUP4 PUSH2 0xEB8 JUMP JUMPDEST SWAP3 POP DUP3 DUP3 SUB SWAP1 POP PUSH1 0xFF DUP2 GT ISZERO PUSH2 0xEF2 JUMPI PUSH2 0xEF1 PUSH2 0xDC3 JUMP JUMPDEST JUMPDEST SWAP3 SWAP2 POP POP JUMP JUMPDEST PUSH0 PUSH2 0xF02 DUP3 PUSH2 0xB51 JUMP JUMPDEST SWAP2 POP PUSH2 0xF0D DUP4 PUSH2 0xB51 JUMP JUMPDEST SWAP3 POP DUP3 DUP3 SUB SWAP1 POP DUP2 DUP2 GT ISZERO PUSH2 0xF25 JUMPI PUSH2 0xF24 PUSH2 0xDC3 JUMP JUMPDEST JUMPDEST SWAP3 SWAP2 POP POP JUMP JUMPDEST PUSH0 PUSH2 0xF35 DUP3 PUSH2 0xB51 JUMP JUMPDEST SWAP2 POP PUSH0 DUP3 SUB PUSH2 0xF47 JUMPI PUSH2 0xF46 PUSH2 0xDC3 JUMP JUMPDEST JUMPDEST PUSH1 0x1 DUP3 SUB SWAP1 POP SWAP2 SWAP1 POP JUMP JUMPDEST PUSH0 PUSH1 0x40 DUP3 ADD SWAP1 POP PUSH2 0xF65 PUSH0 DUP4 ADD DUP6 PUSH2 0xC95 JUMP JUMPDEST PUSH2 0xF72 PUSH1 0x20 DUP4 ADD DUP5 PUSH2 0xB5A JUMP JUMPDEST SWAP4 SWAP3 POP POP POP JUMP JUMPDEST PUSH32 0x616D74206E6F7420617661696C61626C65000000000000000000000000000000 PUSH0 DUP3 ADD MSTORE POP JUMP JUMPDEST PUSH0 PUSH2 0xFAD PUSH1 0x11 DUP4 PUSH2 0xCBD JUMP JUMPDEST SWAP2 POP PUSH2 0xFB8 DUP3 PUSH2 0xF79 JUMP JUMPDEST PUSH1 0x20 DUP3 ADD SWAP1 POP SWAP2 SWAP1 POP JUMP JUMPDEST PUSH0 PUSH1 0x20 DUP3 ADD SWAP1 POP DUP2 DUP2 SUB PUSH0 DUP4 ADD MSTORE PUSH2 0xFDA DUP2 PUSH2 0xFA1 JUMP JUMPDEST SWAP1 POP SWAP2 SWAP1 POP JUMP JUMPDEST PUSH0 DUP2 SWAP1 POP SWAP3 SWAP2 POP POP JUMP JUMPDEST POP JUMP JUMPDEST PUSH0 PUSH2 0xFF9 PUSH0 DUP4 PUSH2 0xFE1 JUMP JUMPDEST SWAP2 POP PUSH2 0x1004 DUP3 PUSH2 0xFEB JUMP JUMPDEST PUSH0 DUP3 ADD SWAP1 POP SWAP2 SWAP1 POP JUMP JUMPDEST PUSH0 PUSH2 0x1018 DUP3 PUSH2 0xFEE JUMP JUMPDEST SWAP2 POP DUP2 SWAP1 POP SWAP2 SWAP1 POP JUMP JUMPDEST PUSH32 0x7769746864726177206661696C65640000000000000000000000000000000000 PUSH0 DUP3 ADD MSTORE POP JUMP JUMPDEST PUSH0 PUSH2 0x1056 PUSH1 0xF DUP4 PUSH2 0xCBD JUMP JUMPDEST SWAP2 POP PUSH2 0x1061 DUP3 PUSH2 0x1022 JUMP JUMPDEST PUSH1 0x20 DUP3 ADD SWAP1 POP SWAP2 SWAP1 POP JUMP JUMPDEST PUSH0 PUSH1 0x20 DUP3 ADD SWAP1 POP DUP2 DUP2 SUB PUSH0 DUP4 ADD MSTORE PUSH2 0x1083 DUP2 PUSH2 0x104A JUMP JUMPDEST SWAP1 POP SWAP2 SWAP1 POP JUMP INVALID LOG2 PUSH5 0x6970667358 0x22 SLT KECCAK256 DUP2 BLOCKHASH PUSH8 0x6A8DB12CCE560C80 0xC6 SWAP12 RETURNDATACOPY SDIV ADD 0x2A 0xD8 0xC9 PUSH26 0xFAB6C9902B4B019E2A7073E464736F6C634300081E0033000000 "
				},
				"gasEstimates": {
					"creation": {
						"codeDepositCost": "857600",
						"executionCost": "infinite",
						"totalCost": "infinite"
					},
					"external": {
						"": "infinite",
						"_donateDurationTime()": "2491",
						"_donateStartTime()": "2469",
						"_donateSum()": "2536",
						"_donaterTop3(uint256)": "2817",
						"_releaseSum()": "2492",
						"donate()": "infinite",
						"getDonate(address)": "2830",
						"getTop3()": "infinite",
						"owner()": "2514",
						"renounceOwnership()": "infinite",
						"transferOwnership(address)": "infinite",
						"withdraw(uint256)": "infinite"
					}
				},
				"methodIdentifiers": {
					"_donateDurationTime()": "bc4c33b4",
					"_donateStartTime()": "b481f3b4",
					"_donateSum()": "769b8d6e",
					"_donaterTop3(uint256)": "93420035",
					"_releaseSum()": "5f48b8b3",
					"donate()": "ed88c68e",
					"getDonate(address)": "19b9ddf4",
					"getTop3()": "4061a5bf",
					"owner()": "8da5cb5b",
					"renounceOwnership()": "715018a6",
					"transferOwnership(address)": "f2fde38b",
					"withdraw(uint256)": "2e1a7d4d"
				}
			},
			"storageLayout": {
				"storage": [
					{
						"astId": 8,
						"contract": "Task2/work3/BeggingContract.sol:BeggingContract",
						"label": "_owner",
						"offset": 0,
						"slot": "0",
						"type": "t_address"
					},
					{
						"astId": 196,
						"contract": "Task2/work3/BeggingContract.sol:BeggingContract",
						"label": "_donateSum",
						"offset": 0,
						"slot": "1",
						"type": "t_uint256"
					},
					{
						"astId": 198,
						"contract": "Task2/work3/BeggingContract.sol:BeggingContract",
						"label": "_releaseSum",
						"offset": 0,
						"slot": "2",
						"type": "t_uint256"
					},
					{
						"astId": 200,
						"contract": "Task2/work3/BeggingContract.sol:BeggingContract",
						"label": "_donateStartTime",
						"offset": 0,
						"slot": "3",
						"type": "t_uint256"
					},
					{
						"astId": 202,
						"contract": "Task2/work3/BeggingContract.sol:BeggingContract",
						"label": "_donateDurationTime",
						"offset": 0,
						"slot": "4",
						"type": "t_uint256"
					},
					{
						"astId": 206,
						"contract": "Task2/work3/BeggingContract.sol:BeggingContract",
						"label": "_donaterTop3",
						"offset": 0,
						"slot": "5",
						"type": "t_array(t_address)3_storage"
					},
					{
						"astId": 210,
						"contract": "Task2/work3/BeggingContract.sol:BeggingContract",
						"label": "_donates",
						"offset": 0,
						"slot": "8",
						"type": "t_mapping(t_address,t_uint256)"
					}
				],
				"types": {
					"t_address": {
						"encoding": "inplace",
						"label": "address",
						"numberOfBytes": "20"
					},
					"t_array(t_address)3_storage": {
						"base": "t_address",
						"encoding": "inplace",
						"label": "address[3]",
						"numberOfBytes": "96"
					},
					"t_mapping(t_address,t_uint256)": {
						"encoding": "mapping",
						"key": "t_address",
						"label": "mapping(address => uint256)",
						"numberOfBytes": "32",
						"value": "t_uint256"
					},
					"t_uint256": {
						"encoding": "inplace",
						"label": "uint256",
						"numberOfBytes": "32"
					}
				}
			},
			"userdoc": {
				"kind": "user",
				"methods": {
					"donate()": {
						"notice": "一个 donate 函数，允许用户向合约发送以太币，并记录捐赠信息。 使用 payable 修饰符和 address.transfer 实现支付和提款。"
					},
					"getDonate(address)": {
						"notice": "一个 getDonation 函数，允许查询某个地址的捐赠金额。"
					},
					"getTop3()": {
						"notice": "获取排行榜"
					},
					"withdraw(uint256)": {
						"notice": "提现   一个 withdraw 函数，允许合约所有者提取所有资金。 使用 payable 修饰符和 address.transfer 实现支付和提款。 使用 onlyOwner 修饰符限制 withdraw 函数只能由合约所有者调用。"
					}
				},
				"version": 1
			}
		}
	}
}