{
	"BinarySearch.sol": {
		"ReverseString": {
			"abi": [
				{
					"inputs": [
						{
							"internalType": "string",
							"name": "str",
							"type": "string"
						}
					],
					"name": "reverseString",
					"outputs": [
						{
							"internalType": "string",
							"name": "",
							"type": "string"
						}
					],
					"stateMutability": "pure",
					"type": "function"
				}
			],
			"devdoc": {
				"kind": "dev",
				"methods": {},
				"version": 1
			},
			"evm": {
				"assembly": "    /* \"BinarySearch.sol\":147:694  contract ReverseString {... */\n  mstore(0x40, 0x80)\n  callvalue\n  dup1\n  iszero\n  tag_1\n  jumpi\n  revert(0x00, 0x00)\ntag_1:\n  pop\n  dataSize(sub_0)\n  dup1\n  dataOffset(sub_0)\n  0x00\n  codecopy\n  0x00\n  return\nstop\n\nsub_0: assembly {\n        /* \"BinarySearch.sol\":147:694  contract ReverseString {... */\n      mstore(0x40, 0x80)\n      callvalue\n      dup1\n      iszero\n      tag_1\n      jumpi\n      revert(0x00, 0x00)\n    tag_1:\n      pop\n      jumpi(tag_2, lt(calldatasize, 0x04))\n      shr(0xe0, calldataload(0x00))\n      dup1\n      0x5729c211\n      eq\n      tag_3\n      jumpi\n    tag_2:\n      revert(0x00, 0x00)\n        /* \"BinarySearch.sol\":179:691  function reverseString(string calldata str) public pure returns (string memory) {... */\n    tag_3:\n      tag_4\n      0x04\n      dup1\n      calldatasize\n      sub\n      dup2\n      add\n      swap1\n      tag_5\n      swap2\n      swap1\n      tag_6\n      jump\t// in\n    tag_5:\n      tag_7\n      jump\t// in\n    tag_4:\n      mload(0x40)\n      tag_8\n      swap2\n      swap1\n      tag_9\n      jump\t// in\n    tag_8:\n      mload(0x40)\n      dup1\n      swap2\n      sub\n      swap1\n      return\n    tag_7:\n        /* \"BinarySearch.sol\":244:257  string memory */\n      0x60\n        /* \"BinarySearch.sol\":270:291  bytes memory strbytes */\n      0x00\n        /* \"BinarySearch.sol\":300:303  str */\n      dup4\n      dup4\n        /* \"BinarySearch.sol\":270:304  bytes memory strbytes = bytes(str) */\n      dup1\n      dup1\n      0x1f\n      add\n      0x20\n      dup1\n      swap2\n      div\n      mul\n      0x20\n      add\n      mload(0x40)\n      swap1\n      dup2\n      add\n      0x40\n      mstore\n      dup1\n      swap4\n      swap3\n      swap2\n      swap1\n      dup2\n      dup2\n      mstore\n      0x20\n      add\n      dup4\n      dup4\n      dup1\n      dup3\n      dup5\n      calldatacopy\n      0x00\n      dup2\n      dup5\n      add\n      mstore\n      not(0x1f)\n      0x1f\n      dup3\n      add\n      and\n      swap1\n      pop\n      dup1\n      dup4\n      add\n      swap3\n      pop\n      pop\n      pop\n      pop\n      pop\n      pop\n      pop\n      swap1\n      pop\n        /* \"BinarySearch.sol\":315:336  bytes memory newBytes */\n      0x00\n        /* \"BinarySearch.sol\":349:357  strbytes */\n      dup2\n        /* \"BinarySearch.sol\":349:364  strbytes.length */\n      mload\n        /* \"BinarySearch.sol\":339:365  new bytes(strbytes.length) */\n      0xffffffffffffffff\n      dup2\n      gt\n      iszero\n      tag_11\n      jumpi\n      tag_12\n      tag_13\n      jump\t// in\n    tag_12:\n    tag_11:\n      mload(0x40)\n      swap1\n      dup1\n      dup3\n      mstore\n      dup1\n      0x1f\n      add\n      not(0x1f)\n      and\n      0x20\n      add\n      dup3\n      add\n      0x40\n      mstore\n      dup1\n      iszero\n      tag_14\n      jumpi\n      dup2\n      0x20\n      add\n      0x01\n      dup3\n      mul\n      dup1\n      calldatasize\n      dup4\n      calldatacopy\n      dup1\n      dup3\n      add\n      swap2\n      pop\n      pop\n      swap1\n      pop\n    tag_14:\n      pop\n        /* \"BinarySearch.sol\":315:365  bytes memory newBytes = new bytes(strbytes.length) */\n      swap1\n      pop\n        /* \"BinarySearch.sol\":381:387  uint i */\n      0x00\n        /* \"BinarySearch.sol\":388:389  0 */\n      0x00\n        /* \"BinarySearch.sol\":381:389  uint i=0 */\n      swap1\n      pop\n        /* \"BinarySearch.sol\":376:487  for (uint i=0; i<strbytes.length; i++) {... */\n    tag_15:\n        /* \"BinarySearch.sol\":393:401  strbytes */\n      dup3\n        /* \"BinarySearch.sol\":393:408  strbytes.length */\n      mload\n        /* \"BinarySearch.sol\":391:392  i */\n      dup2\n        /* \"BinarySearch.sol\":391:408  i<strbytes.length */\n      lt\n        /* \"BinarySearch.sol\":376:487  for (uint i=0; i<strbytes.length; i++) {... */\n      iszero\n      tag_16\n      jumpi\n        /* \"BinarySearch.sol\":444:452  strbytes */\n      dup3\n        /* \"BinarySearch.sol\":473:474  i */\n      dup2\n        /* \"BinarySearch.sol\":470:471  1 */\n      0x01\n        /* \"BinarySearch.sol\":453:461  strbytes */\n      dup6\n        /* \"BinarySearch.sol\":453:468  strbytes.length */\n      mload\n        /* \"BinarySearch.sol\":453:471  strbytes.length -1 */\n      tag_18\n      swap2\n      swap1\n      tag_19\n      jump\t// in\n    tag_18:\n        /* \"BinarySearch.sol\":453:474  strbytes.length -1 -i */\n      tag_20\n      swap2\n      swap1\n      tag_19\n      jump\t// in\n    tag_20:\n        /* \"BinarySearch.sol\":444:475  strbytes[strbytes.length -1 -i] */\n      dup2\n      mload\n      dup2\n      lt\n      tag_21\n      jumpi\n      tag_22\n      tag_23\n      jump\t// in\n    tag_22:\n    tag_21:\n      0x20\n      add\n      add\n      mload\n      0xf8\n      shr\n      0xf8\n      shl\n        /* \"BinarySearch.sol\":430:438  newBytes */\n      dup3\n        /* \"BinarySearch.sol\":439:440  i */\n      dup3\n        /* \"BinarySearch.sol\":430:441  newBytes[i] */\n      dup2\n      mload\n      dup2\n      lt\n      tag_24\n      jumpi\n      tag_25\n      tag_23\n      jump\t// in\n    tag_25:\n    tag_24:\n      0x20\n      add\n      add\n        /* \"BinarySearch.sol\":430:475  newBytes[i] = strbytes[strbytes.length -1 -i] */\n      swap1\n      not(0xffffffffffffffffffffffffffffffffffffffffffffffffffffffffffffff)\n      and\n      swap1\n      dup2\n      0x00\n      byte\n      swap1\n      mstore8\n      pop\n        /* \"BinarySearch.sol\":410:413  i++ */\n      dup1\n      dup1\n      0x01\n      add\n      swap2\n      pop\n      pop\n        /* \"BinarySearch.sol\":376:487  for (uint i=0; i<strbytes.length; i++) {... */\n      jump(tag_15)\n    tag_16:\n      pop\n        /* \"BinarySearch.sol\":672:680  newBytes */\n      dup1\n        /* \"BinarySearch.sol\":658:681  return string(newBytes) */\n      swap3\n      pop\n      pop\n      pop\n        /* \"BinarySearch.sol\":179:691  function reverseString(string calldata str) public pure returns (string memory) {... */\n      swap3\n      swap2\n      pop\n      pop\n      jump\t// out\n        /* \"#utility.yul\":88:205   */\n    tag_27:\n        /* \"#utility.yul\":197:198   */\n      0x00\n        /* \"#utility.yul\":194:195   */\n      0x00\n        /* \"#utility.yul\":187:199   */\n      revert\n        /* \"#utility.yul\":211:328   */\n    tag_28:\n        /* \"#utility.yul\":320:321   */\n      0x00\n        /* \"#utility.yul\":317:318   */\n      0x00\n        /* \"#utility.yul\":310:322   */\n      revert\n        /* \"#utility.yul\":334:451   */\n    tag_29:\n        /* \"#utility.yul\":443:444   */\n      0x00\n        /* \"#utility.yul\":440:441   */\n      0x00\n        /* \"#utility.yul\":433:445   */\n      revert\n        /* \"#utility.yul\":457:574   */\n    tag_30:\n        /* \"#utility.yul\":566:567   */\n      0x00\n        /* \"#utility.yul\":563:564   */\n      0x00\n        /* \"#utility.yul\":556:568   */\n      revert\n        /* \"#utility.yul\":580:697   */\n    tag_31:\n        /* \"#utility.yul\":689:690   */\n      0x00\n        /* \"#utility.yul\":686:687   */\n      0x00\n        /* \"#utility.yul\":679:691   */\n      revert\n        /* \"#utility.yul\":717:1270   */\n    tag_32:\n        /* \"#utility.yul\":775:783   */\n      0x00\n        /* \"#utility.yul\":785:791   */\n      0x00\n        /* \"#utility.yul\":835:838   */\n      dup4\n        /* \"#utility.yul\":828:832   */\n      0x1f\n        /* \"#utility.yul\":820:826   */\n      dup5\n        /* \"#utility.yul\":816:833   */\n      add\n        /* \"#utility.yul\":812:839   */\n      slt\n        /* \"#utility.yul\":802:924   */\n      tag_48\n      jumpi\n        /* \"#utility.yul\":843:922   */\n      tag_49\n      tag_29\n      jump\t// in\n    tag_49:\n        /* \"#utility.yul\":802:924   */\n    tag_48:\n        /* \"#utility.yul\":956:962   */\n      dup3\n        /* \"#utility.yul\":943:963   */\n      calldataload\n        /* \"#utility.yul\":933:963   */\n      swap1\n      pop\n        /* \"#utility.yul\":986:1004   */\n      0xffffffffffffffff\n        /* \"#utility.yul\":978:984   */\n      dup2\n        /* \"#utility.yul\":975:1005   */\n      gt\n        /* \"#utility.yul\":972:1089   */\n      iszero\n      tag_50\n      jumpi\n        /* \"#utility.yul\":1008:1087   */\n      tag_51\n      tag_30\n      jump\t// in\n    tag_51:\n        /* \"#utility.yul\":972:1089   */\n    tag_50:\n        /* \"#utility.yul\":1122:1126   */\n      0x20\n        /* \"#utility.yul\":1114:1120   */\n      dup4\n        /* \"#utility.yul\":1110:1127   */\n      add\n        /* \"#utility.yul\":1098:1127   */\n      swap2\n      pop\n        /* \"#utility.yul\":1176:1179   */\n      dup4\n        /* \"#utility.yul\":1168:1172   */\n      0x01\n        /* \"#utility.yul\":1160:1166   */\n      dup3\n        /* \"#utility.yul\":1156:1173   */\n      mul\n        /* \"#utility.yul\":1146:1154   */\n      dup4\n        /* \"#utility.yul\":1142:1174   */\n      add\n        /* \"#utility.yul\":1139:1180   */\n      gt\n        /* \"#utility.yul\":1136:1264   */\n      iszero\n      tag_52\n      jumpi\n        /* \"#utility.yul\":1183:1262   */\n      tag_53\n      tag_31\n      jump\t// in\n    tag_53:\n        /* \"#utility.yul\":1136:1264   */\n    tag_52:\n        /* \"#utility.yul\":717:1270   */\n      swap3\n      pop\n      swap3\n      swap1\n      pop\n      jump\t// out\n        /* \"#utility.yul\":1276:1805   */\n    tag_6:\n        /* \"#utility.yul\":1347:1353   */\n      0x00\n        /* \"#utility.yul\":1355:1361   */\n      0x00\n        /* \"#utility.yul\":1404:1406   */\n      0x20\n        /* \"#utility.yul\":1392:1401   */\n      dup4\n        /* \"#utility.yul\":1383:1390   */\n      dup6\n        /* \"#utility.yul\":1379:1402   */\n      sub\n        /* \"#utility.yul\":1375:1407   */\n      slt\n        /* \"#utility.yul\":1372:1491   */\n      iszero\n      tag_55\n      jumpi\n        /* \"#utility.yul\":1410:1489   */\n      tag_56\n      tag_27\n      jump\t// in\n    tag_56:\n        /* \"#utility.yul\":1372:1491   */\n    tag_55:\n        /* \"#utility.yul\":1558:1559   */\n      0x00\n        /* \"#utility.yul\":1547:1556   */\n      dup4\n        /* \"#utility.yul\":1543:1560   */\n      add\n        /* \"#utility.yul\":1530:1561   */\n      calldataload\n        /* \"#utility.yul\":1588:1606   */\n      0xffffffffffffffff\n        /* \"#utility.yul\":1580:1586   */\n      dup2\n        /* \"#utility.yul\":1577:1607   */\n      gt\n        /* \"#utility.yul\":1574:1691   */\n      iszero\n      tag_57\n      jumpi\n        /* \"#utility.yul\":1610:1689   */\n      tag_58\n      tag_28\n      jump\t// in\n    tag_58:\n        /* \"#utility.yul\":1574:1691   */\n    tag_57:\n        /* \"#utility.yul\":1723:1788   */\n      tag_59\n        /* \"#utility.yul\":1780:1787   */\n      dup6\n        /* \"#utility.yul\":1771:1777   */\n      dup3\n        /* \"#utility.yul\":1760:1769   */\n      dup7\n        /* \"#utility.yul\":1756:1778   */\n      add\n        /* \"#utility.yul\":1723:1788   */\n      tag_32\n      jump\t// in\n    tag_59:\n        /* \"#utility.yul\":1705:1788   */\n      swap3\n      pop\n      swap3\n      pop\n        /* \"#utility.yul\":1501:1798   */\n      pop\n        /* \"#utility.yul\":1276:1805   */\n      swap3\n      pop\n      swap3\n      swap1\n      pop\n      jump\t// out\n        /* \"#utility.yul\":1811:1910   */\n    tag_33:\n        /* \"#utility.yul\":1863:1869   */\n      0x00\n        /* \"#utility.yul\":1897:1902   */\n      dup2\n        /* \"#utility.yul\":1891:1903   */\n      mload\n        /* \"#utility.yul\":1881:1903   */\n      swap1\n      pop\n        /* \"#utility.yul\":1811:1910   */\n      swap2\n      swap1\n      pop\n      jump\t// out\n        /* \"#utility.yul\":1916:2085   */\n    tag_34:\n        /* \"#utility.yul\":2000:2011   */\n      0x00\n        /* \"#utility.yul\":2034:2040   */\n      dup3\n        /* \"#utility.yul\":2029:2032   */\n      dup3\n        /* \"#utility.yul\":2022:2041   */\n      mstore\n        /* \"#utility.yul\":2074:2078   */\n      0x20\n        /* \"#utility.yul\":2069:2072   */\n      dup3\n        /* \"#utility.yul\":2065:2079   */\n      add\n        /* \"#utility.yul\":2050:2079   */\n      swap1\n      pop\n        /* \"#utility.yul\":1916:2085   */\n      swap3\n      swap2\n      pop\n      pop\n      jump\t// out\n        /* \"#utility.yul\":2091:2230   */\n    tag_35:\n        /* \"#utility.yul\":2180:2186   */\n      dup3\n        /* \"#utility.yul\":2175:2178   */\n      dup2\n        /* \"#utility.yul\":2170:2173   */\n      dup4\n        /* \"#utility.yul\":2164:2187   */\n      mcopy\n        /* \"#utility.yul\":2221:2222   */\n      0x00\n        /* \"#utility.yul\":2212:2218   */\n      dup4\n        /* \"#utility.yul\":2207:2210   */\n      dup4\n        /* \"#utility.yul\":2203:2219   */\n      add\n        /* \"#utility.yul\":2196:2223   */\n      mstore\n        /* \"#utility.yul\":2091:2230   */\n      pop\n      pop\n      pop\n      jump\t// out\n        /* \"#utility.yul\":2236:2338   */\n    tag_36:\n        /* \"#utility.yul\":2277:2283   */\n      0x00\n        /* \"#utility.yul\":2328:2330   */\n      0x1f\n        /* \"#utility.yul\":2324:2331   */\n      not\n        /* \"#utility.yul\":2319:2321   */\n      0x1f\n        /* \"#utility.yul\":2312:2317   */\n      dup4\n        /* \"#utility.yul\":2308:2322   */\n      add\n        /* \"#utility.yul\":2304:2332   */\n      and\n        /* \"#utility.yul\":2294:2332   */\n      swap1\n      pop\n        /* \"#utility.yul\":2236:2338   */\n      swap2\n      swap1\n      pop\n      jump\t// out\n        /* \"#utility.yul\":2344:2721   */\n    tag_37:\n        /* \"#utility.yul\":2432:2435   */\n      0x00\n        /* \"#utility.yul\":2460:2499   */\n      tag_65\n        /* \"#utility.yul\":2493:2498   */\n      dup3\n        /* \"#utility.yul\":2460:2499   */\n      tag_33\n      jump\t// in\n    tag_65:\n        /* \"#utility.yul\":2515:2586   */\n      tag_66\n        /* \"#utility.yul\":2579:2585   */\n      dup2\n        /* \"#utility.yul\":2574:2577   */\n      dup6\n        /* \"#utility.yul\":2515:2586   */\n      tag_34\n      jump\t// in\n    tag_66:\n        /* \"#utility.yul\":2508:2586   */\n      swap4\n      pop\n        /* \"#utility.yul\":2595:2660   */\n      tag_67\n        /* \"#utility.yul\":2653:2659   */\n      dup2\n        /* \"#utility.yul\":2648:2651   */\n      dup6\n        /* \"#utility.yul\":2641:2645   */\n      0x20\n        /* \"#utility.yul\":2634:2639   */\n      dup7\n        /* \"#utility.yul\":2630:2646   */\n      add\n        /* \"#utility.yul\":2595:2660   */\n      tag_35\n      jump\t// in\n    tag_67:\n        /* \"#utility.yul\":2685:2714   */\n      tag_68\n        /* \"#utility.yul\":2707:2713   */\n      dup2\n        /* \"#utility.yul\":2685:2714   */\n      tag_36\n      jump\t// in\n    tag_68:\n        /* \"#utility.yul\":2680:2683   */\n      dup5\n        /* \"#utility.yul\":2676:2715   */\n      add\n        /* \"#utility.yul\":2669:2715   */\n      swap2\n      pop\n        /* \"#utility.yul\":2436:2721   */\n      pop\n        /* \"#utility.yul\":2344:2721   */\n      swap3\n      swap2\n      pop\n      pop\n      jump\t// out\n        /* \"#utility.yul\":2727:3040   */\n    tag_9:\n        /* \"#utility.yul\":2840:2844   */\n      0x00\n        /* \"#utility.yul\":2878:2880   */\n      0x20\n        /* \"#utility.yul\":2867:2876   */\n      dup3\n        /* \"#utility.yul\":2863:2881   */\n      add\n        /* \"#utility.yul\":2855:2881   */\n      swap1\n      pop\n        /* \"#utility.yul\":2927:2936   */\n      dup2\n        /* \"#utility.yul\":2921:2925   */\n      dup2\n        /* \"#utility.yul\":2917:2937   */\n      sub\n        /* \"#utility.yul\":2913:2914   */\n      0x00\n        /* \"#utility.yul\":2902:2911   */\n      dup4\n        /* \"#utility.yul\":2898:2915   */\n      add\n        /* \"#utility.yul\":2891:2938   */\n      mstore\n        /* \"#utility.yul\":2955:3033   */\n      tag_70\n        /* \"#utility.yul\":3028:3032   */\n      dup2\n        /* \"#utility.yul\":3019:3025   */\n      dup5\n        /* \"#utility.yul\":2955:3033   */\n      tag_37\n      jump\t// in\n    tag_70:\n        /* \"#utility.yul\":2947:3033   */\n      swap1\n      pop\n        /* \"#utility.yul\":2727:3040   */\n      swap3\n      swap2\n      pop\n      pop\n      jump\t// out\n        /* \"#utility.yul\":3046:3226   */\n    tag_13:\n        /* \"#utility.yul\":3094:3171   */\n      0x4e487b7100000000000000000000000000000000000000000000000000000000\n        /* \"#utility.yul\":3091:3092   */\n      0x00\n        /* \"#utility.yul\":3084:3172   */\n      mstore\n        /* \"#utility.yul\":3191:3195   */\n      0x41\n        /* \"#utility.yul\":3188:3189   */\n      0x04\n        /* \"#utility.yul\":3181:3196   */\n      mstore\n        /* \"#utility.yul\":3215:3219   */\n      0x24\n        /* \"#utility.yul\":3212:3213   */\n      0x00\n        /* \"#utility.yul\":3205:3220   */\n      revert\n        /* \"#utility.yul\":3232:3309   */\n    tag_38:\n        /* \"#utility.yul\":3269:3276   */\n      0x00\n        /* \"#utility.yul\":3298:3303   */\n      dup2\n        /* \"#utility.yul\":3287:3303   */\n      swap1\n      pop\n        /* \"#utility.yul\":3232:3309   */\n      swap2\n      swap1\n      pop\n      jump\t// out\n        /* \"#utility.yul\":3315:3495   */\n    tag_39:\n        /* \"#utility.yul\":3363:3440   */\n      0x4e487b7100000000000000000000000000000000000000000000000000000000\n        /* \"#utility.yul\":3360:3361   */\n      0x00\n        /* \"#utility.yul\":3353:3441   */\n      mstore\n        /* \"#utility.yul\":3460:3464   */\n      0x11\n        /* \"#utility.yul\":3457:3458   */\n      0x04\n        /* \"#utility.yul\":3450:3465   */\n      mstore\n        /* \"#utility.yul\":3484:3488   */\n      0x24\n        /* \"#utility.yul\":3481:3482   */\n      0x00\n        /* \"#utility.yul\":3474:3489   */\n      revert\n        /* \"#utility.yul\":3501:3695   */\n    tag_19:\n        /* \"#utility.yul\":3541:3545   */\n      0x00\n        /* \"#utility.yul\":3561:3581   */\n      tag_75\n        /* \"#utility.yul\":3579:3580   */\n      dup3\n        /* \"#utility.yul\":3561:3581   */\n      tag_38\n      jump\t// in\n    tag_75:\n        /* \"#utility.yul\":3556:3581   */\n      swap2\n      pop\n        /* \"#utility.yul\":3595:3615   */\n      tag_76\n        /* \"#utility.yul\":3613:3614   */\n      dup4\n        /* \"#utility.yul\":3595:3615   */\n      tag_38\n      jump\t// in\n    tag_76:\n        /* \"#utility.yul\":3590:3615   */\n      swap3\n      pop\n        /* \"#utility.yul\":3639:3640   */\n      dup3\n        /* \"#utility.yul\":3636:3637   */\n      dup3\n        /* \"#utility.yul\":3632:3641   */\n      sub\n        /* \"#utility.yul\":3624:3641   */\n      swap1\n      pop\n        /* \"#utility.yul\":3663:3664   */\n      dup2\n        /* \"#utility.yul\":3657:3661   */\n      dup2\n        /* \"#utility.yul\":3654:3665   */\n      gt\n        /* \"#utility.yul\":3651:3688   */\n      iszero\n      tag_77\n      jumpi\n        /* \"#utility.yul\":3668:3686   */\n      tag_78\n      tag_39\n      jump\t// in\n    tag_78:\n        /* \"#utility.yul\":3651:3688   */\n    tag_77:\n        /* \"#utility.yul\":3501:3695   */\n      swap3\n      swap2\n      pop\n      pop\n      jump\t// out\n        /* \"#utility.yul\":3701:3881   */\n    tag_23:\n        /* \"#utility.yul\":3749:3826   */\n      0x4e487b7100000000000000000000000000000000000000000000000000000000\n        /* \"#utility.yul\":3746:3747   */\n      0x00\n        /* \"#utility.yul\":3739:3827   */\n      mstore\n        /* \"#utility.yul\":3846:3850   */\n      0x32\n        /* \"#utility.yul\":3843:3844   */\n      0x04\n        /* \"#utility.yul\":3836:3851   */\n      mstore\n        /* \"#utility.yul\":3870:3874   */\n      0x24\n        /* \"#utility.yul\":3867:3868   */\n      0x00\n        /* \"#utility.yul\":3860:3875   */\n      revert\n\n    auxdata: 0xa2646970667358221220c61839b238badc48cf47d026e58e9b9d00f4bd8a2b56e4dae1217ac4b87aa8fa64736f6c634300081e0033\n}\n",
				"bytecode": {
					"linkReferences": {},
					"object": "6080604052348015600e575f5ffd5b506103d28061001c5f395ff3fe608060405234801561000f575f5ffd5b5060043610610029575f3560e01c80635729c2111461002d575b5f5ffd5b610047600480360381019061004291906101fe565b61005d565b60405161005491906102b9565b60405180910390f35b60605f83838080601f0160208091040260200160405190810160405280939291908181526020018383808284375f81840152601f19601f8201169050808301925050505050505090505f815167ffffffffffffffff8111156100c2576100c16102d9565b5b6040519080825280601f01601f1916602001820160405280156100f45781602001600182028036833780820191505090505b5090505f5f90505b825181101561018957828160018551610115919061033c565b61011f919061033c565b815181106101305761012f61036f565b5b602001015160f81c60f81b82828151811061014e5761014d61036f565b5b60200101907effffffffffffffffffffffffffffffffffffffffffffffffffffffffffffff191690815f1a90535080806001019150506100fc565b50809250505092915050565b5f5ffd5b5f5ffd5b5f5ffd5b5f5ffd5b5f5ffd5b5f5f83601f8401126101be576101bd61019d565b5b8235905067ffffffffffffffff8111156101db576101da6101a1565b5b6020830191508360018202830111156101f7576101f66101a5565b5b9250929050565b5f5f6020838503121561021457610213610195565b5b5f83013567ffffffffffffffff81111561023157610230610199565b5b61023d858286016101a9565b92509250509250929050565b5f81519050919050565b5f82825260208201905092915050565b8281835e5f83830152505050565b5f601f19601f8301169050919050565b5f61028b82610249565b6102958185610253565b93506102a5818560208601610263565b6102ae81610271565b840191505092915050565b5f6020820190508181035f8301526102d18184610281565b905092915050565b7f4e487b71000000000000000000000000000000000000000000000000000000005f52604160045260245ffd5b5f819050919050565b7f4e487b71000000000000000000000000000000000000000000000000000000005f52601160045260245ffd5b5f61034682610306565b915061035183610306565b92508282039050818111156103695761036861030f565b5b92915050565b7f4e487b71000000000000000000000000000000000000000000000000000000005f52603260045260245ffdfea2646970667358221220c61839b238badc48cf47d026e58e9b9d00f4bd8a2b56e4dae1217ac4b87aa8fa64736f6c634300081e0033",
					"opcodes": "PUSH1 0x80 PUSH1 0x40 MSTORE CALLVALUE DUP1 ISZERO PUSH1 0xE JUMPI PUSH0 PUSH0 REVERT JUMPDEST POP PUSH2 0x3D2 DUP1 PUSH2 0x1C PUSH0 CODECOPY PUSH0 RETURN INVALID PUSH1 0x80 PUSH1 0x40 MSTORE CALLVALUE DUP1 ISZERO PUSH2 0xF JUMPI PUSH0 PUSH0 REVERT JUMPDEST POP PUSH1 0x4 CALLDATASIZE LT PUSH2 0x29 JUMPI PUSH0 CALLDATALOAD PUSH1 0xE0 SHR DUP1 PUSH4 0x5729C211 EQ PUSH2 0x2D JUMPI JUMPDEST PUSH0 PUSH0 REVERT JUMPDEST PUSH2 0x47 PUSH1 0x4 DUP1 CALLDATASIZE SUB DUP2 ADD SWAP1 PUSH2 0x42 SWAP2 SWAP1 PUSH2 0x1FE JUMP JUMPDEST PUSH2 0x5D JUMP JUMPDEST PUSH1 0x40 MLOAD PUSH2 0x54 SWAP2 SWAP1 PUSH2 0x2B9 JUMP JUMPDEST PUSH1 0x40 MLOAD DUP1 SWAP2 SUB SWAP1 RETURN JUMPDEST PUSH1 0x60 PUSH0 DUP4 DUP4 DUP1 DUP1 PUSH1 0x1F ADD PUSH1 0x20 DUP1 SWAP2 DIV MUL PUSH1 0x20 ADD PUSH1 0x40 MLOAD SWAP1 DUP2 ADD PUSH1 0x40 MSTORE DUP1 SWAP4 SWAP3 SWAP2 SWAP1 DUP2 DUP2 MSTORE PUSH1 0x20 ADD DUP4 DUP4 DUP1 DUP3 DUP5 CALLDATACOPY PUSH0 DUP2 DUP5 ADD MSTORE PUSH1 0x1F NOT PUSH1 0x1F DUP3 ADD AND SWAP1 POP DUP1 DUP4 ADD SWAP3 POP POP POP POP POP POP POP SWAP1 POP PUSH0 DUP2 MLOAD PUSH8 0xFFFFFFFFFFFFFFFF DUP2 GT ISZERO PUSH2 0xC2 JUMPI PUSH2 0xC1 PUSH2 0x2D9 JUMP JUMPDEST JUMPDEST PUSH1 0x40 MLOAD SWAP1 DUP1 DUP3 MSTORE DUP1 PUSH1 0x1F ADD PUSH1 0x1F NOT AND PUSH1 0x20 ADD DUP3 ADD PUSH1 0x40 MSTORE DUP1 ISZERO PUSH2 0xF4 JUMPI DUP2 PUSH1 0x20 ADD PUSH1 0x1 DUP3 MUL DUP1 CALLDATASIZE DUP4 CALLDATACOPY DUP1 DUP3 ADD SWAP2 POP POP SWAP1 POP JUMPDEST POP SWAP1 POP PUSH0 PUSH0 SWAP1 POP JUMPDEST DUP3 MLOAD DUP2 LT ISZERO PUSH2 0x189 JUMPI DUP3 DUP2 PUSH1 0x1 DUP6 MLOAD PUSH2 0x115 SWAP2 SWAP1 PUSH2 0x33C JUMP JUMPDEST PUSH2 0x11F SWAP2 SWAP1 PUSH2 0x33C JUMP JUMPDEST DUP2 MLOAD DUP2 LT PUSH2 0x130 JUMPI PUSH2 0x12F PUSH2 0x36F JUMP JUMPDEST JUMPDEST PUSH1 0x20 ADD ADD MLOAD PUSH1 0xF8 SHR PUSH1 0xF8 SHL DUP3 DUP3 DUP2 MLOAD DUP2 LT PUSH2 0x14E JUMPI PUSH2 0x14D PUSH2 0x36F JUMP JUMPDEST JUMPDEST PUSH1 0x20 ADD ADD SWAP1 PUSH31 0xFFFFFFFFFFFFFFFFFFFFFFFFFFFFFFFFFFFFFFFFFFFFFFFFFFFFFFFFFFFFFF NOT AND SWAP1 DUP2 PUSH0 BYTE SWAP1 MSTORE8 POP DUP1 DUP1 PUSH1 0x1 ADD SWAP2 POP POP PUSH2 0xFC JUMP JUMPDEST POP DUP1 SWAP3 POP POP POP SWAP3 SWAP2 POP POP JUMP JUMPDEST PUSH0 PUSH0 REVERT JUMPDEST PUSH0 PUSH0 REVERT JUMPDEST PUSH0 PUSH0 REVERT JUMPDEST PUSH0 PUSH0 REVERT JUMPDEST PUSH0 PUSH0 REVERT JUMPDEST PUSH0 PUSH0 DUP4 PUSH1 0x1F DUP5 ADD SLT PUSH2 0x1BE JUMPI PUSH2 0x1BD PUSH2 0x19D JUMP JUMPDEST JUMPDEST DUP3 CALLDATALOAD SWAP1 POP PUSH8 0xFFFFFFFFFFFFFFFF DUP2 GT ISZERO PUSH2 0x1DB JUMPI PUSH2 0x1DA PUSH2 0x1A1 JUMP JUMPDEST JUMPDEST PUSH1 0x20 DUP4 ADD SWAP2 POP DUP4 PUSH1 0x1 DUP3 MUL DUP4 ADD GT ISZERO PUSH2 0x1F7 JUMPI PUSH2 0x1F6 PUSH2 0x1A5 JUMP JUMPDEST JUMPDEST SWAP3 POP SWAP3 SWAP1 POP JUMP JUMPDEST PUSH0 PUSH0 PUSH1 0x20 DUP4 DUP6 SUB SLT ISZERO PUSH2 0x214 JUMPI PUSH2 0x213 PUSH2 0x195 JUMP JUMPDEST JUMPDEST PUSH0 DUP4 ADD CALLDATALOAD PUSH8 0xFFFFFFFFFFFFFFFF DUP2 GT ISZERO PUSH2 0x231 JUMPI PUSH2 0x230 PUSH2 0x199 JUMP JUMPDEST JUMPDEST PUSH2 0x23D DUP6 DUP3 DUP7 ADD PUSH2 0x1A9 JUMP JUMPDEST SWAP3 POP SWAP3 POP POP SWAP3 POP SWAP3 SWAP1 POP JUMP JUMPDEST PUSH0 DUP2 MLOAD SWAP1 POP SWAP2 SWAP1 POP JUMP JUMPDEST PUSH0 DUP3 DUP3 MSTORE PUSH1 0x20 DUP3 ADD SWAP1 POP SWAP3 SWAP2 POP POP JUMP JUMPDEST DUP3 DUP2 DUP4 MCOPY PUSH0 DUP4 DUP4 ADD MSTORE POP POP POP JUMP JUMPDEST PUSH0 PUSH1 0x1F NOT PUSH1 0x1F DUP4 ADD AND SWAP1 POP SWAP2 SWAP1 POP JUMP JUMPDEST PUSH0 PUSH2 0x28B DUP3 PUSH2 0x249 JUMP JUMPDEST PUSH2 0x295 DUP2 DUP6 PUSH2 0x253 JUMP JUMPDEST SWAP4 POP PUSH2 0x2A5 DUP2 DUP6 PUSH1 0x20 DUP7 ADD PUSH2 0x263 JUMP JUMPDEST PUSH2 0x2AE DUP2 PUSH2 0x271 JUMP JUMPDEST DUP5 ADD SWAP2 POP POP SWAP3 SWAP2 POP POP JUMP JUMPDEST PUSH0 PUSH1 0x20 DUP3 ADD SWAP1 POP DUP2 DUP2 SUB PUSH0 DUP4 ADD MSTORE PUSH2 0x2D1 DUP2 DUP5 PUSH2 0x281 JUMP JUMPDEST SWAP1 POP SWAP3 SWAP2 POP POP JUMP JUMPDEST PUSH32 0x4E487B7100000000000000000000000000000000000000000000000000000000 PUSH0 MSTORE PUSH1 0x41 PUSH1 0x4 MSTORE PUSH1 0x24 PUSH0 REVERT JUMPDEST PUSH0 DUP2 SWAP1 POP SWAP2 SWAP1 POP JUMP JUMPDEST PUSH32 0x4E487B7100000000000000000000000000000000000000000000000000000000 PUSH0 MSTORE PUSH1 0x11 PUSH1 0x4 MSTORE PUSH1 0x24 PUSH0 REVERT JUMPDEST PUSH0 PUSH2 0x346 DUP3 PUSH2 0x306 JUMP JUMPDEST SWAP2 POP PUSH2 0x351 DUP4 PUSH2 0x306 JUMP JUMPDEST SWAP3 POP DUP3 DUP3 SUB SWAP1 POP DUP2 DUP2 GT ISZERO PUSH2 0x369 JUMPI PUSH2 0x368 PUSH2 0x30F JUMP JUMPDEST JUMPDEST SWAP3 SWAP2 POP POP JUMP JUMPDEST PUSH32 0x4E487B7100000000000000000000000000000000000000000000000000000000 PUSH0 MSTORE PUSH1 0x32 PUSH1 0x4 MSTORE PUSH1 0x24 PUSH0 REVERT INVALID LOG2 PUSH5 0x6970667358 0x22 SLT KECCAK256 0xC6 XOR CODECOPY 0xB2 CODESIZE 0xBA 0xDC BASEFEE 0xCF SELFBALANCE 0xD0 0x26 JUMPF 0x8E9B SWAP14 STOP DELEGATECALL 0xBD DUP11 0x2B JUMP RETF 0xDA RJUMPI 0x217A 0xC4 0xB8 PUSH27 0xA8FA64736F6C634300081E00330000000000000000000000000000 "
				},
				"gasEstimates": {
					"creation": {
						"codeDepositCost": "195600",
						"executionCost": "236",
						"totalCost": "195836"
					},
					"external": {
						"reverseString(string)": "infinite"
					}
				},
				"methodIdentifiers": {
					"reverseString(string)": "5729c211"
				}
			},
			"storageLayout": {
				"storage": [],
				"types": null
			},
			"userdoc": {
				"kind": "user",
				"methods": {},
				"notice": "反转字符串 (Reverse String) 题目描述：反转一个字符串。输入 \"abcde\"，输出 \"edcba\"",
				"version": 1
			}
		}
	}
}