{
	"Call.sol": {
		"CallContract": {
			"abi": [
				{
					"anonymous": false,
					"inputs": [
						{
							"indexed": false,
							"internalType": "bool",
							"name": "success",
							"type": "bool"
						},
						{
							"indexed": false,
							"internalType": "bytes",
							"name": "data",
							"type": "bytes"
						}
					],
					"name": "Response",
					"type": "event"
				},
				{
					"inputs": [
						{
							"internalType": "address",
							"name": "_addr",
							"type": "address"
						}
					],
					"name": "callGetX",
					"outputs": [
						{
							"internalType": "uint256",
							"name": "",
							"type": "uint256"
						}
					],
					"stateMutability": "nonpayable",
					"type": "function"
				},
				{
					"inputs": [
						{
							"internalType": "address",
							"name": "_addr",
							"type": "address"
						}
					],
					"name": "callNotExist",
					"outputs": [],
					"stateMutability": "nonpayable",
					"type": "function"
				},
				{
					"inputs": [
						{
							"internalType": "address payable",
							"name": "_addr",
							"type": "address"
						},
						{
							"internalType": "uint256",
							"name": "x",
							"type": "uint256"
						}
					],
					"name": "callSetX",
					"outputs": [],
					"stateMutability": "payable",
					"type": "function"
				}
			],
			"devdoc": {
				"kind": "dev",
				"methods": {},
				"version": 1
			},
			"evm": {
				"assembly": "    /* \"Call.sol\":649:1534  contract CallContract {... */\n  mstore(0x40, 0x80)\n  callvalue\n  dup1\n  iszero\n  tag_1\n  jumpi\n  revert(0x00, 0x00)\ntag_1:\n  pop\n  dataSize(sub_0)\n  dup1\n  dataOffset(sub_0)\n  0x00\n  codecopy\n  0x00\n  return\nstop\n\nsub_0: assembly {\n        /* \"Call.sol\":649:1534  contract CallContract {... */\n      mstore(0x40, 0x80)\n      jumpi(tag_1, lt(calldatasize, 0x04))\n      shr(0xe0, calldataload(0x00))\n      dup1\n      0x3ca065bb\n      eq\n      tag_2\n      jumpi\n      dup1\n      0x66563e69\n      eq\n      tag_3\n      jumpi\n      dup1\n      0x6bc19a22\n      eq\n      tag_4\n      jumpi\n    tag_1:\n      revert(0x00, 0x00)\n        /* \"Call.sol\":728:990  function callSetX(address payable  _addr, uint256 x) external payable  {... */\n    tag_2:\n      tag_5\n      0x04\n      dup1\n      calldatasize\n      sub\n      dup2\n      add\n      swap1\n      tag_6\n      swap2\n      swap1\n      tag_7\n      jump\t// in\n    tag_6:\n      tag_8\n      jump\t// in\n    tag_5:\n      stop\n        /* \"Call.sol\":998:1315  function callGetX(address _addr) external returns (uint256){... */\n    tag_3:\n      callvalue\n      dup1\n      iszero\n      tag_9\n      jumpi\n      revert(0x00, 0x00)\n    tag_9:\n      pop\n      tag_10\n      0x04\n      dup1\n      calldatasize\n      sub\n      dup2\n      add\n      swap1\n      tag_11\n      swap2\n      swap1\n      tag_12\n      jump\t// in\n    tag_11:\n      tag_13\n      jump\t// in\n    tag_10:\n      mload(0x40)\n      tag_14\n      swap2\n      swap1\n      tag_15\n      jump\t// in\n    tag_14:\n      mload(0x40)\n      dup1\n      swap2\n      sub\n      swap1\n      return\n        /* \"Call.sol\":1323:1531  function callNotExist(address _addr) external {... */\n    tag_4:\n      callvalue\n      dup1\n      iszero\n      tag_16\n      jumpi\n      revert(0x00, 0x00)\n    tag_16:\n      pop\n      tag_17\n      0x04\n      dup1\n      calldatasize\n      sub\n      dup2\n      add\n      swap1\n      tag_18\n      swap2\n      swap1\n      tag_12\n      jump\t// in\n    tag_18:\n      tag_19\n      jump\t// in\n    tag_17:\n      stop\n        /* \"Call.sol\":728:990  function callSetX(address payable  _addr, uint256 x) external payable  {... */\n    tag_8:\n        /* \"Call.sol\":811:823  bool success */\n      0x00\n        /* \"Call.sol\":825:842  bytes memory data */\n      0x00\n        /* \"Call.sol\":846:851  _addr */\n      dup4\n        /* \"Call.sol\":846:856  _addr.call */\n      0xffffffffffffffffffffffffffffffffffffffff\n      and\n        /* \"Call.sol\":864:873  msg.value */\n      callvalue\n        /* \"Call.sol\":930:931  x */\n      dup5\n        /* \"Call.sol\":889:932  abi.encodeWithSignature(\"setX(uint256)\", x) */\n      add(0x24, mload(0x40))\n      tag_21\n      swap2\n      swap1\n      tag_15\n      jump\t// in\n    tag_21:\n      mload(0x40)\n      0x20\n      dup2\n      dup4\n      sub\n      sub\n      dup2\n      mstore\n      swap1\n      0x40\n      mstore\n      and(not(0xffffffffffffffffffffffffffffffffffffffffffffffffffffffff), 0x4018d9aa00000000000000000000000000000000000000000000000000000000)\n      0x20\n      dup3\n      add\n      dup1\n      mload\n      0xffffffffffffffffffffffffffffffffffffffffffffffffffffffff\n      dup4\n      dup2\n      dup4\n      and\n      or\n      dup4\n      mstore\n      pop\n      pop\n      pop\n      pop\n        /* \"Call.sol\":846:943  _addr.call{value: msg.value}(... */\n      mload(0x40)\n      tag_22\n      swap2\n      swap1\n      tag_23\n      jump\t// in\n    tag_22:\n      0x00\n      mload(0x40)\n      dup1\n      dup4\n      sub\n      dup2\n      dup6\n      dup8\n      gas\n      call\n      swap3\n      pop\n      pop\n      pop\n      returndatasize\n      dup1\n      0x00\n      dup2\n      eq\n      tag_26\n      jumpi\n      mload(0x40)\n      swap2\n      pop\n      and(add(returndatasize, 0x3f), not(0x1f))\n      dup3\n      add\n      0x40\n      mstore\n      returndatasize\n      dup3\n      mstore\n      returndatasize\n      0x00\n      0x20\n      dup5\n      add\n      returndatacopy\n      jump(tag_25)\n    tag_26:\n      0x60\n      swap2\n      pop\n    tag_25:\n      pop\n        /* \"Call.sol\":810:943  (bool success, bytes memory data) = _addr.call{value: msg.value}(... */\n      swap2\n      pop\n      swap2\n      pop\n        /* \"Call.sol\":959:982  Response(success, data) */\n      0x13848c3e38f8886f3f5d2ad9dff80d8092c2bbb8efd5b887a99c2c6cfc09ac2a\n        /* \"Call.sol\":968:975  success */\n      dup3\n        /* \"Call.sol\":977:981  data */\n      dup3\n        /* \"Call.sol\":959:982  Response(success, data) */\n      mload(0x40)\n      tag_27\n      swap3\n      swap2\n      swap1\n      tag_28\n      jump\t// in\n    tag_27:\n      mload(0x40)\n      dup1\n      swap2\n      sub\n      swap1\n      log1\n        /* \"Call.sol\":799:990  {... */\n      pop\n      pop\n        /* \"Call.sol\":728:990  function callSetX(address payable  _addr, uint256 x) external payable  {... */\n      pop\n      pop\n      jump\t// out\n        /* \"Call.sol\":998:1315  function callGetX(address _addr) external returns (uint256){... */\n    tag_13:\n        /* \"Call.sol\":1049:1056  uint256 */\n      0x00\n        /* \"Call.sol\":1069:1081  bool success */\n      0x00\n        /* \"Call.sol\":1083:1100  bytes memory data */\n      0x00\n        /* \"Call.sol\":1104:1109  _addr */\n      dup4\n        /* \"Call.sol\":1104:1114  _addr.call */\n      0xffffffffffffffffffffffffffffffffffffffff\n      and\n        /* \"Call.sol\":1129:1162  abi.encodeWithSignature(\"getX()\") */\n      add(0x24, mload(0x40))\n      mload(0x40)\n      0x20\n      dup2\n      dup4\n      sub\n      sub\n      dup2\n      mstore\n      swap1\n      0x40\n      mstore\n      and(not(0xffffffffffffffffffffffffffffffffffffffffffffffffffffffff), 0x5197c7aa00000000000000000000000000000000000000000000000000000000)\n      0x20\n      dup3\n      add\n      dup1\n      mload\n      0xffffffffffffffffffffffffffffffffffffffffffffffffffffffff\n      dup4\n      dup2\n      dup4\n      and\n      or\n      dup4\n      mstore\n      pop\n      pop\n      pop\n      pop\n        /* \"Call.sol\":1104:1173  _addr.call(... */\n      mload(0x40)\n      tag_30\n      swap2\n      swap1\n      tag_23\n      jump\t// in\n    tag_30:\n      0x00\n      mload(0x40)\n      dup1\n      dup4\n      sub\n      dup2\n      0x00\n      dup7\n      gas\n      call\n      swap2\n      pop\n      pop\n      returndatasize\n      dup1\n      0x00\n      dup2\n      eq\n      tag_33\n      jumpi\n      mload(0x40)\n      swap2\n      pop\n      and(add(returndatasize, 0x3f), not(0x1f))\n      dup3\n      add\n      0x40\n      mstore\n      returndatasize\n      dup3\n      mstore\n      returndatasize\n      0x00\n      0x20\n      dup5\n      add\n      returndatacopy\n      jump(tag_32)\n    tag_33:\n      0x60\n      swap2\n      pop\n    tag_32:\n      pop\n        /* \"Call.sol\":1068:1173  (bool success, bytes memory data) = _addr.call(... */\n      swap2\n      pop\n      swap2\n      pop\n        /* \"Call.sol\":1189:1212  Response(success, data) */\n      0x13848c3e38f8886f3f5d2ad9dff80d8092c2bbb8efd5b887a99c2c6cfc09ac2a\n        /* \"Call.sol\":1198:1205  success */\n      dup3\n        /* \"Call.sol\":1207:1211  data */\n      dup3\n        /* \"Call.sol\":1189:1212  Response(success, data) */\n      mload(0x40)\n      tag_34\n      swap3\n      swap2\n      swap1\n      tag_28\n      jump\t// in\n    tag_34:\n      mload(0x40)\n      dup1\n      swap2\n      sub\n      swap1\n      log1\n        /* \"Call.sol\":1231:1238  success */\n      dup2\n        /* \"Call.sol\":1223:1262  require(success, \"Call to getX failed\") */\n      tag_35\n      jumpi\n      mload(0x40)\n      0x08c379a000000000000000000000000000000000000000000000000000000000\n      dup2\n      mstore\n      0x04\n      add\n      tag_36\n      swap1\n      tag_37\n      jump\t// in\n    tag_36:\n      mload(0x40)\n      dup1\n      swap2\n      sub\n      swap1\n      revert\n    tag_35:\n        /* \"Call.sol\":1291:1295  data */\n      dup1\n        /* \"Call.sol\":1280:1307  abi.decode(data, (uint256)) */\n      dup1\n      0x20\n      add\n      swap1\n      mload\n      dup2\n      add\n      swap1\n      tag_38\n      swap2\n      swap1\n      tag_39\n      jump\t// in\n    tag_38:\n        /* \"Call.sol\":1273:1307  return abi.decode(data, (uint256)) */\n      swap3\n      pop\n      pop\n      pop\n        /* \"Call.sol\":998:1315  function callGetX(address _addr) external returns (uint256){... */\n      swap2\n      swap1\n      pop\n      jump\t// out\n        /* \"Call.sol\":1323:1531  function callNotExist(address _addr) external {... */\n    tag_19:\n        /* \"Call.sol\":1381:1393  bool success */\n      0x00\n        /* \"Call.sol\":1395:1412  bytes memory data */\n      0x00\n        /* \"Call.sol\":1416:1421  _addr */\n      dup3\n        /* \"Call.sol\":1416:1426  _addr.call */\n      0xffffffffffffffffffffffffffffffffffffffff\n      and\n        /* \"Call.sol\":1441:1473  abi.encodeWithSignature(\"foo()\") */\n      add(0x24, mload(0x40))\n      mload(0x40)\n      0x20\n      dup2\n      dup4\n      sub\n      sub\n      dup2\n      mstore\n      swap1\n      0x40\n      mstore\n      and(not(0xffffffffffffffffffffffffffffffffffffffffffffffffffffffff), 0xc298557800000000000000000000000000000000000000000000000000000000)\n      0x20\n      dup3\n      add\n      dup1\n      mload\n      0xffffffffffffffffffffffffffffffffffffffffffffffffffffffff\n      dup4\n      dup2\n      dup4\n      and\n      or\n      dup4\n      mstore\n      pop\n      pop\n      pop\n      pop\n        /* \"Call.sol\":1416:1484  _addr.call(... */\n      mload(0x40)\n      tag_41\n      swap2\n      swap1\n      tag_23\n      jump\t// in\n    tag_41:\n      0x00\n      mload(0x40)\n      dup1\n      dup4\n      sub\n      dup2\n      0x00\n      dup7\n      gas\n      call\n      swap2\n      pop\n      pop\n      returndatasize\n      dup1\n      0x00\n      dup2\n      eq\n      tag_44\n      jumpi\n      mload(0x40)\n      swap2\n      pop\n      and(add(returndatasize, 0x3f), not(0x1f))\n      dup3\n      add\n      0x40\n      mstore\n      returndatasize\n      dup3\n      mstore\n      returndatasize\n      0x00\n      0x20\n      dup5\n      add\n      returndatacopy\n      jump(tag_43)\n    tag_44:\n      0x60\n      swap2\n      pop\n    tag_43:\n      pop\n        /* \"Call.sol\":1380:1484  (bool success, bytes memory data) = _addr.call(... */\n      swap2\n      pop\n      swap2\n      pop\n        /* \"Call.sol\":1500:1523  Response(success, data) */\n      0x13848c3e38f8886f3f5d2ad9dff80d8092c2bbb8efd5b887a99c2c6cfc09ac2a\n        /* \"Call.sol\":1509:1516  success */\n      dup3\n        /* \"Call.sol\":1518:1522  data */\n      dup3\n        /* \"Call.sol\":1500:1523  Response(success, data) */\n      mload(0x40)\n      tag_45\n      swap3\n      swap2\n      swap1\n      tag_28\n      jump\t// in\n    tag_45:\n      mload(0x40)\n      dup1\n      swap2\n      sub\n      swap1\n      log1\n        /* \"Call.sol\":1369:1531  {... */\n      pop\n      pop\n        /* \"Call.sol\":1323:1531  function callNotExist(address _addr) external {... */\n      pop\n      jump\t// out\n        /* \"#utility.yul\":88:205   */\n    tag_47:\n        /* \"#utility.yul\":197:198   */\n      0x00\n        /* \"#utility.yul\":194:195   */\n      0x00\n        /* \"#utility.yul\":187:199   */\n      revert\n        /* \"#utility.yul\":334:460   */\n    tag_49:\n        /* \"#utility.yul\":371:378   */\n      0x00\n        /* \"#utility.yul\":411:453   */\n      0xffffffffffffffffffffffffffffffffffffffff\n        /* \"#utility.yul\":404:409   */\n      dup3\n        /* \"#utility.yul\":400:454   */\n      and\n        /* \"#utility.yul\":389:454   */\n      swap1\n      pop\n        /* \"#utility.yul\":334:460   */\n      swap2\n      swap1\n      pop\n      jump\t// out\n        /* \"#utility.yul\":466:570   */\n    tag_50:\n        /* \"#utility.yul\":511:518   */\n      0x00\n        /* \"#utility.yul\":540:564   */\n      tag_79\n        /* \"#utility.yul\":558:563   */\n      dup3\n        /* \"#utility.yul\":540:564   */\n      tag_49\n      jump\t// in\n    tag_79:\n        /* \"#utility.yul\":529:564   */\n      swap1\n      pop\n        /* \"#utility.yul\":466:570   */\n      swap2\n      swap1\n      pop\n      jump\t// out\n        /* \"#utility.yul\":576:714   */\n    tag_51:\n        /* \"#utility.yul\":657:689   */\n      tag_81\n        /* \"#utility.yul\":683:688   */\n      dup2\n        /* \"#utility.yul\":657:689   */\n      tag_50\n      jump\t// in\n    tag_81:\n        /* \"#utility.yul\":650:655   */\n      dup2\n        /* \"#utility.yul\":647:690   */\n      eq\n        /* \"#utility.yul\":637:708   */\n      tag_82\n      jumpi\n        /* \"#utility.yul\":704:705   */\n      0x00\n        /* \"#utility.yul\":701:702   */\n      0x00\n        /* \"#utility.yul\":694:706   */\n      revert\n        /* \"#utility.yul\":637:708   */\n    tag_82:\n        /* \"#utility.yul\":576:714   */\n      pop\n      jump\t// out\n        /* \"#utility.yul\":720:875   */\n    tag_52:\n        /* \"#utility.yul\":774:779   */\n      0x00\n        /* \"#utility.yul\":812:818   */\n      dup2\n        /* \"#utility.yul\":799:819   */\n      calldataload\n        /* \"#utility.yul\":790:819   */\n      swap1\n      pop\n        /* \"#utility.yul\":828:869   */\n      tag_84\n        /* \"#utility.yul\":863:868   */\n      dup2\n        /* \"#utility.yul\":828:869   */\n      tag_51\n      jump\t// in\n    tag_84:\n        /* \"#utility.yul\":720:875   */\n      swap3\n      swap2\n      pop\n      pop\n      jump\t// out\n        /* \"#utility.yul\":881:958   */\n    tag_53:\n        /* \"#utility.yul\":918:925   */\n      0x00\n        /* \"#utility.yul\":947:952   */\n      dup2\n        /* \"#utility.yul\":936:952   */\n      swap1\n      pop\n        /* \"#utility.yul\":881:958   */\n      swap2\n      swap1\n      pop\n      jump\t// out\n        /* \"#utility.yul\":964:1086   */\n    tag_54:\n        /* \"#utility.yul\":1037:1061   */\n      tag_87\n        /* \"#utility.yul\":1055:1060   */\n      dup2\n        /* \"#utility.yul\":1037:1061   */\n      tag_53\n      jump\t// in\n    tag_87:\n        /* \"#utility.yul\":1030:1035   */\n      dup2\n        /* \"#utility.yul\":1027:1062   */\n      eq\n        /* \"#utility.yul\":1017:1080   */\n      tag_88\n      jumpi\n        /* \"#utility.yul\":1076:1077   */\n      0x00\n        /* \"#utility.yul\":1073:1074   */\n      0x00\n        /* \"#utility.yul\":1066:1078   */\n      revert\n        /* \"#utility.yul\":1017:1080   */\n    tag_88:\n        /* \"#utility.yul\":964:1086   */\n      pop\n      jump\t// out\n        /* \"#utility.yul\":1092:1231   */\n    tag_55:\n        /* \"#utility.yul\":1138:1143   */\n      0x00\n        /* \"#utility.yul\":1176:1182   */\n      dup2\n        /* \"#utility.yul\":1163:1183   */\n      calldataload\n        /* \"#utility.yul\":1154:1183   */\n      swap1\n      pop\n        /* \"#utility.yul\":1192:1225   */\n      tag_90\n        /* \"#utility.yul\":1219:1224   */\n      dup2\n        /* \"#utility.yul\":1192:1225   */\n      tag_54\n      jump\t// in\n    tag_90:\n        /* \"#utility.yul\":1092:1231   */\n      swap3\n      swap2\n      pop\n      pop\n      jump\t// out\n        /* \"#utility.yul\":1237:1727   */\n    tag_7:\n        /* \"#utility.yul\":1313:1319   */\n      0x00\n        /* \"#utility.yul\":1321:1327   */\n      0x00\n        /* \"#utility.yul\":1370:1372   */\n      0x40\n        /* \"#utility.yul\":1358:1367   */\n      dup4\n        /* \"#utility.yul\":1349:1356   */\n      dup6\n        /* \"#utility.yul\":1345:1368   */\n      sub\n        /* \"#utility.yul\":1341:1373   */\n      slt\n        /* \"#utility.yul\":1338:1457   */\n      iszero\n      tag_92\n      jumpi\n        /* \"#utility.yul\":1376:1455   */\n      tag_93\n      tag_47\n      jump\t// in\n    tag_93:\n        /* \"#utility.yul\":1338:1457   */\n    tag_92:\n        /* \"#utility.yul\":1496:1497   */\n      0x00\n        /* \"#utility.yul\":1521:1582   */\n      tag_94\n        /* \"#utility.yul\":1574:1581   */\n      dup6\n        /* \"#utility.yul\":1565:1571   */\n      dup3\n        /* \"#utility.yul\":1554:1563   */\n      dup7\n        /* \"#utility.yul\":1550:1572   */\n      add\n        /* \"#utility.yul\":1521:1582   */\n      tag_52\n      jump\t// in\n    tag_94:\n        /* \"#utility.yul\":1511:1582   */\n      swap3\n      pop\n        /* \"#utility.yul\":1467:1592   */\n      pop\n        /* \"#utility.yul\":1631:1633   */\n      0x20\n        /* \"#utility.yul\":1657:1710   */\n      tag_95\n        /* \"#utility.yul\":1702:1709   */\n      dup6\n        /* \"#utility.yul\":1693:1699   */\n      dup3\n        /* \"#utility.yul\":1682:1691   */\n      dup7\n        /* \"#utility.yul\":1678:1700   */\n      add\n        /* \"#utility.yul\":1657:1710   */\n      tag_55\n      jump\t// in\n    tag_95:\n        /* \"#utility.yul\":1647:1710   */\n      swap2\n      pop\n        /* \"#utility.yul\":1602:1720   */\n      pop\n        /* \"#utility.yul\":1237:1727   */\n      swap3\n      pop\n      swap3\n      swap1\n      pop\n      jump\t// out\n        /* \"#utility.yul\":1733:1829   */\n    tag_56:\n        /* \"#utility.yul\":1770:1777   */\n      0x00\n        /* \"#utility.yul\":1799:1823   */\n      tag_97\n        /* \"#utility.yul\":1817:1822   */\n      dup3\n        /* \"#utility.yul\":1799:1823   */\n      tag_49\n      jump\t// in\n    tag_97:\n        /* \"#utility.yul\":1788:1823   */\n      swap1\n      pop\n        /* \"#utility.yul\":1733:1829   */\n      swap2\n      swap1\n      pop\n      jump\t// out\n        /* \"#utility.yul\":1835:1957   */\n    tag_57:\n        /* \"#utility.yul\":1908:1932   */\n      tag_99\n        /* \"#utility.yul\":1926:1931   */\n      dup2\n        /* \"#utility.yul\":1908:1932   */\n      tag_56\n      jump\t// in\n    tag_99:\n        /* \"#utility.yul\":1901:1906   */\n      dup2\n        /* \"#utility.yul\":1898:1933   */\n      eq\n        /* \"#utility.yul\":1888:1951   */\n      tag_100\n      jumpi\n        /* \"#utility.yul\":1947:1948   */\n      0x00\n        /* \"#utility.yul\":1944:1945   */\n      0x00\n        /* \"#utility.yul\":1937:1949   */\n      revert\n        /* \"#utility.yul\":1888:1951   */\n    tag_100:\n        /* \"#utility.yul\":1835:1957   */\n      pop\n      jump\t// out\n        /* \"#utility.yul\":1963:2102   */\n    tag_58:\n        /* \"#utility.yul\":2009:2014   */\n      0x00\n        /* \"#utility.yul\":2047:2053   */\n      dup2\n        /* \"#utility.yul\":2034:2054   */\n      calldataload\n        /* \"#utility.yul\":2025:2054   */\n      swap1\n      pop\n        /* \"#utility.yul\":2063:2096   */\n      tag_102\n        /* \"#utility.yul\":2090:2095   */\n      dup2\n        /* \"#utility.yul\":2063:2096   */\n      tag_57\n      jump\t// in\n    tag_102:\n        /* \"#utility.yul\":1963:2102   */\n      swap3\n      swap2\n      pop\n      pop\n      jump\t// out\n        /* \"#utility.yul\":2108:2437   */\n    tag_12:\n        /* \"#utility.yul\":2167:2173   */\n      0x00\n        /* \"#utility.yul\":2216:2218   */\n      0x20\n        /* \"#utility.yul\":2204:2213   */\n      dup3\n        /* \"#utility.yul\":2195:2202   */\n      dup5\n        /* \"#utility.yul\":2191:2214   */\n      sub\n        /* \"#utility.yul\":2187:2219   */\n      slt\n        /* \"#utility.yul\":2184:2303   */\n      iszero\n      tag_104\n      jumpi\n        /* \"#utility.yul\":2222:2301   */\n      tag_105\n      tag_47\n      jump\t// in\n    tag_105:\n        /* \"#utility.yul\":2184:2303   */\n    tag_104:\n        /* \"#utility.yul\":2342:2343   */\n      0x00\n        /* \"#utility.yul\":2367:2420   */\n      tag_106\n        /* \"#utility.yul\":2412:2419   */\n      dup5\n        /* \"#utility.yul\":2403:2409   */\n      dup3\n        /* \"#utility.yul\":2392:2401   */\n      dup6\n        /* \"#utility.yul\":2388:2410   */\n      add\n        /* \"#utility.yul\":2367:2420   */\n      tag_58\n      jump\t// in\n    tag_106:\n        /* \"#utility.yul\":2357:2420   */\n      swap2\n      pop\n        /* \"#utility.yul\":2313:2430   */\n      pop\n        /* \"#utility.yul\":2108:2437   */\n      swap3\n      swap2\n      pop\n      pop\n      jump\t// out\n        /* \"#utility.yul\":2443:2561   */\n    tag_59:\n        /* \"#utility.yul\":2530:2554   */\n      tag_108\n        /* \"#utility.yul\":2548:2553   */\n      dup2\n        /* \"#utility.yul\":2530:2554   */\n      tag_53\n      jump\t// in\n    tag_108:\n        /* \"#utility.yul\":2525:2528   */\n      dup3\n        /* \"#utility.yul\":2518:2555   */\n      mstore\n        /* \"#utility.yul\":2443:2561   */\n      pop\n      pop\n      jump\t// out\n        /* \"#utility.yul\":2567:2789   */\n    tag_15:\n        /* \"#utility.yul\":2660:2664   */\n      0x00\n        /* \"#utility.yul\":2698:2700   */\n      0x20\n        /* \"#utility.yul\":2687:2696   */\n      dup3\n        /* \"#utility.yul\":2683:2701   */\n      add\n        /* \"#utility.yul\":2675:2701   */\n      swap1\n      pop\n        /* \"#utility.yul\":2711:2782   */\n      tag_110\n        /* \"#utility.yul\":2779:2780   */\n      0x00\n        /* \"#utility.yul\":2768:2777   */\n      dup4\n        /* \"#utility.yul\":2764:2781   */\n      add\n        /* \"#utility.yul\":2755:2761   */\n      dup5\n        /* \"#utility.yul\":2711:2782   */\n      tag_59\n      jump\t// in\n    tag_110:\n        /* \"#utility.yul\":2567:2789   */\n      swap3\n      swap2\n      pop\n      pop\n      jump\t// out\n        /* \"#utility.yul\":2795:2893   */\n    tag_60:\n        /* \"#utility.yul\":2846:2852   */\n      0x00\n        /* \"#utility.yul\":2880:2885   */\n      dup2\n        /* \"#utility.yul\":2874:2886   */\n      mload\n        /* \"#utility.yul\":2864:2886   */\n      swap1\n      pop\n        /* \"#utility.yul\":2795:2893   */\n      swap2\n      swap1\n      pop\n      jump\t// out\n        /* \"#utility.yul\":2899:3046   */\n    tag_61:\n        /* \"#utility.yul\":3000:3011   */\n      0x00\n        /* \"#utility.yul\":3037:3040   */\n      dup2\n        /* \"#utility.yul\":3022:3040   */\n      swap1\n      pop\n        /* \"#utility.yul\":2899:3046   */\n      swap3\n      swap2\n      pop\n      pop\n      jump\t// out\n        /* \"#utility.yul\":3052:3191   */\n    tag_62:\n        /* \"#utility.yul\":3141:3147   */\n      dup3\n        /* \"#utility.yul\":3136:3139   */\n      dup2\n        /* \"#utility.yul\":3131:3134   */\n      dup4\n        /* \"#utility.yul\":3125:3148   */\n      mcopy\n        /* \"#utility.yul\":3182:3183   */\n      0x00\n        /* \"#utility.yul\":3173:3179   */\n      dup4\n        /* \"#utility.yul\":3168:3171   */\n      dup4\n        /* \"#utility.yul\":3164:3180   */\n      add\n        /* \"#utility.yul\":3157:3184   */\n      mstore\n        /* \"#utility.yul\":3052:3191   */\n      pop\n      pop\n      pop\n      jump\t// out\n        /* \"#utility.yul\":3197:3583   */\n    tag_63:\n        /* \"#utility.yul\":3301:3304   */\n      0x00\n        /* \"#utility.yul\":3329:3367   */\n      tag_115\n        /* \"#utility.yul\":3361:3366   */\n      dup3\n        /* \"#utility.yul\":3329:3367   */\n      tag_60\n      jump\t// in\n    tag_115:\n        /* \"#utility.yul\":3383:3471   */\n      tag_116\n        /* \"#utility.yul\":3464:3470   */\n      dup2\n        /* \"#utility.yul\":3459:3462   */\n      dup6\n        /* \"#utility.yul\":3383:3471   */\n      tag_61\n      jump\t// in\n    tag_116:\n        /* \"#utility.yul\":3376:3471   */\n      swap4\n      pop\n        /* \"#utility.yul\":3480:3545   */\n      tag_117\n        /* \"#utility.yul\":3538:3544   */\n      dup2\n        /* \"#utility.yul\":3533:3536   */\n      dup6\n        /* \"#utility.yul\":3526:3530   */\n      0x20\n        /* \"#utility.yul\":3519:3524   */\n      dup7\n        /* \"#utility.yul\":3515:3531   */\n      add\n        /* \"#utility.yul\":3480:3545   */\n      tag_62\n      jump\t// in\n    tag_117:\n        /* \"#utility.yul\":3570:3576   */\n      dup1\n        /* \"#utility.yul\":3565:3568   */\n      dup5\n        /* \"#utility.yul\":3561:3577   */\n      add\n        /* \"#utility.yul\":3554:3577   */\n      swap2\n      pop\n        /* \"#utility.yul\":3305:3583   */\n      pop\n        /* \"#utility.yul\":3197:3583   */\n      swap3\n      swap2\n      pop\n      pop\n      jump\t// out\n        /* \"#utility.yul\":3589:3860   */\n    tag_23:\n        /* \"#utility.yul\":3719:3722   */\n      0x00\n        /* \"#utility.yul\":3741:3834   */\n      tag_119\n        /* \"#utility.yul\":3830:3833   */\n      dup3\n        /* \"#utility.yul\":3821:3827   */\n      dup5\n        /* \"#utility.yul\":3741:3834   */\n      tag_63\n      jump\t// in\n    tag_119:\n        /* \"#utility.yul\":3734:3834   */\n      swap2\n      pop\n        /* \"#utility.yul\":3851:3854   */\n      dup2\n        /* \"#utility.yul\":3844:3854   */\n      swap1\n      pop\n        /* \"#utility.yul\":3589:3860   */\n      swap3\n      swap2\n      pop\n      pop\n      jump\t// out\n        /* \"#utility.yul\":3866:3956   */\n    tag_64:\n        /* \"#utility.yul\":3900:3907   */\n      0x00\n        /* \"#utility.yul\":3943:3948   */\n      dup2\n        /* \"#utility.yul\":3936:3949   */\n      iszero\n        /* \"#utility.yul\":3929:3950   */\n      iszero\n        /* \"#utility.yul\":3918:3950   */\n      swap1\n      pop\n        /* \"#utility.yul\":3866:3956   */\n      swap2\n      swap1\n      pop\n      jump\t// out\n        /* \"#utility.yul\":3962:4071   */\n    tag_65:\n        /* \"#utility.yul\":4043:4064   */\n      tag_122\n        /* \"#utility.yul\":4058:4063   */\n      dup2\n        /* \"#utility.yul\":4043:4064   */\n      tag_64\n      jump\t// in\n    tag_122:\n        /* \"#utility.yul\":4038:4041   */\n      dup3\n        /* \"#utility.yul\":4031:4065   */\n      mstore\n        /* \"#utility.yul\":3962:4071   */\n      pop\n      pop\n      jump\t// out\n        /* \"#utility.yul\":4077:4245   */\n    tag_66:\n        /* \"#utility.yul\":4160:4171   */\n      0x00\n        /* \"#utility.yul\":4194:4200   */\n      dup3\n        /* \"#utility.yul\":4189:4192   */\n      dup3\n        /* \"#utility.yul\":4182:4201   */\n      mstore\n        /* \"#utility.yul\":4234:4238   */\n      0x20\n        /* \"#utility.yul\":4229:4232   */\n      dup3\n        /* \"#utility.yul\":4225:4239   */\n      add\n        /* \"#utility.yul\":4210:4239   */\n      swap1\n      pop\n        /* \"#utility.yul\":4077:4245   */\n      swap3\n      swap2\n      pop\n      pop\n      jump\t// out\n        /* \"#utility.yul\":4251:4353   */\n    tag_67:\n        /* \"#utility.yul\":4292:4298   */\n      0x00\n        /* \"#utility.yul\":4343:4345   */\n      0x1f\n        /* \"#utility.yul\":4339:4346   */\n      not\n        /* \"#utility.yul\":4334:4336   */\n      0x1f\n        /* \"#utility.yul\":4327:4332   */\n      dup4\n        /* \"#utility.yul\":4323:4337   */\n      add\n        /* \"#utility.yul\":4319:4347   */\n      and\n        /* \"#utility.yul\":4309:4347   */\n      swap1\n      pop\n        /* \"#utility.yul\":4251:4353   */\n      swap2\n      swap1\n      pop\n      jump\t// out\n        /* \"#utility.yul\":4359:4732   */\n    tag_68:\n        /* \"#utility.yul\":4445:4448   */\n      0x00\n        /* \"#utility.yul\":4473:4511   */\n      tag_126\n        /* \"#utility.yul\":4505:4510   */\n      dup3\n        /* \"#utility.yul\":4473:4511   */\n      tag_60\n      jump\t// in\n    tag_126:\n        /* \"#utility.yul\":4527:4597   */\n      tag_127\n        /* \"#utility.yul\":4590:4596   */\n      dup2\n        /* \"#utility.yul\":4585:4588   */\n      dup6\n        /* \"#utility.yul\":4527:4597   */\n      tag_66\n      jump\t// in\n    tag_127:\n        /* \"#utility.yul\":4520:4597   */\n      swap4\n      pop\n        /* \"#utility.yul\":4606:4671   */\n      tag_128\n        /* \"#utility.yul\":4664:4670   */\n      dup2\n        /* \"#utility.yul\":4659:4662   */\n      dup6\n        /* \"#utility.yul\":4652:4656   */\n      0x20\n        /* \"#utility.yul\":4645:4650   */\n      dup7\n        /* \"#utility.yul\":4641:4657   */\n      add\n        /* \"#utility.yul\":4606:4671   */\n      tag_62\n      jump\t// in\n    tag_128:\n        /* \"#utility.yul\":4696:4725   */\n      tag_129\n        /* \"#utility.yul\":4718:4724   */\n      dup2\n        /* \"#utility.yul\":4696:4725   */\n      tag_67\n      jump\t// in\n    tag_129:\n        /* \"#utility.yul\":4691:4694   */\n      dup5\n        /* \"#utility.yul\":4687:4726   */\n      add\n        /* \"#utility.yul\":4680:4726   */\n      swap2\n      pop\n        /* \"#utility.yul\":4449:4732   */\n      pop\n        /* \"#utility.yul\":4359:4732   */\n      swap3\n      swap2\n      pop\n      pop\n      jump\t// out\n        /* \"#utility.yul\":4738:5145   */\n    tag_28:\n        /* \"#utility.yul\":4871:4875   */\n      0x00\n        /* \"#utility.yul\":4909:4911   */\n      0x40\n        /* \"#utility.yul\":4898:4907   */\n      dup3\n        /* \"#utility.yul\":4894:4912   */\n      add\n        /* \"#utility.yul\":4886:4912   */\n      swap1\n      pop\n        /* \"#utility.yul\":4922:4987   */\n      tag_131\n        /* \"#utility.yul\":4984:4985   */\n      0x00\n        /* \"#utility.yul\":4973:4982   */\n      dup4\n        /* \"#utility.yul\":4969:4986   */\n      add\n        /* \"#utility.yul\":4960:4966   */\n      dup6\n        /* \"#utility.yul\":4922:4987   */\n      tag_65\n      jump\t// in\n    tag_131:\n        /* \"#utility.yul\":5034:5043   */\n      dup2\n        /* \"#utility.yul\":5028:5032   */\n      dup2\n        /* \"#utility.yul\":5024:5044   */\n      sub\n        /* \"#utility.yul\":5019:5021   */\n      0x20\n        /* \"#utility.yul\":5008:5017   */\n      dup4\n        /* \"#utility.yul\":5004:5022   */\n      add\n        /* \"#utility.yul\":4997:5045   */\n      mstore\n        /* \"#utility.yul\":5062:5138   */\n      tag_132\n        /* \"#utility.yul\":5133:5137   */\n      dup2\n        /* \"#utility.yul\":5124:5130   */\n      dup5\n        /* \"#utility.yul\":5062:5138   */\n      tag_68\n      jump\t// in\n    tag_132:\n        /* \"#utility.yul\":5054:5138   */\n      swap1\n      pop\n        /* \"#utility.yul\":4738:5145   */\n      swap4\n      swap3\n      pop\n      pop\n      pop\n      jump\t// out\n        /* \"#utility.yul\":5151:5320   */\n    tag_69:\n        /* \"#utility.yul\":5235:5246   */\n      0x00\n        /* \"#utility.yul\":5269:5275   */\n      dup3\n        /* \"#utility.yul\":5264:5267   */\n      dup3\n        /* \"#utility.yul\":5257:5276   */\n      mstore\n        /* \"#utility.yul\":5309:5313   */\n      0x20\n        /* \"#utility.yul\":5304:5307   */\n      dup3\n        /* \"#utility.yul\":5300:5314   */\n      add\n        /* \"#utility.yul\":5285:5314   */\n      swap1\n      pop\n        /* \"#utility.yul\":5151:5320   */\n      swap3\n      swap2\n      pop\n      pop\n      jump\t// out\n        /* \"#utility.yul\":5326:5495   */\n    tag_70:\n        /* \"#utility.yul\":5466:5487   */\n      0x43616c6c20746f2067657458206661696c656400000000000000000000000000\n        /* \"#utility.yul\":5462:5463   */\n      0x00\n        /* \"#utility.yul\":5454:5460   */\n      dup3\n        /* \"#utility.yul\":5450:5464   */\n      add\n        /* \"#utility.yul\":5443:5488   */\n      mstore\n        /* \"#utility.yul\":5326:5495   */\n      pop\n      jump\t// out\n        /* \"#utility.yul\":5501:5867   */\n    tag_71:\n        /* \"#utility.yul\":5643:5646   */\n      0x00\n        /* \"#utility.yul\":5664:5731   */\n      tag_136\n        /* \"#utility.yul\":5728:5730   */\n      0x13\n        /* \"#utility.yul\":5723:5726   */\n      dup4\n        /* \"#utility.yul\":5664:5731   */\n      tag_69\n      jump\t// in\n    tag_136:\n        /* \"#utility.yul\":5657:5731   */\n      swap2\n      pop\n        /* \"#utility.yul\":5740:5833   */\n      tag_137\n        /* \"#utility.yul\":5829:5832   */\n      dup3\n        /* \"#utility.yul\":5740:5833   */\n      tag_70\n      jump\t// in\n    tag_137:\n        /* \"#utility.yul\":5858:5860   */\n      0x20\n        /* \"#utility.yul\":5853:5856   */\n      dup3\n        /* \"#utility.yul\":5849:5861   */\n      add\n        /* \"#utility.yul\":5842:5861   */\n      swap1\n      pop\n        /* \"#utility.yul\":5501:5867   */\n      swap2\n      swap1\n      pop\n      jump\t// out\n        /* \"#utility.yul\":5873:6292   */\n    tag_37:\n        /* \"#utility.yul\":6039:6043   */\n      0x00\n        /* \"#utility.yul\":6077:6079   */\n      0x20\n        /* \"#utility.yul\":6066:6075   */\n      dup3\n        /* \"#utility.yul\":6062:6080   */\n      add\n        /* \"#utility.yul\":6054:6080   */\n      swap1\n      pop\n        /* \"#utility.yul\":6126:6135   */\n      dup2\n        /* \"#utility.yul\":6120:6124   */\n      dup2\n        /* \"#utility.yul\":6116:6136   */\n      sub\n        /* \"#utility.yul\":6112:6113   */\n      0x00\n        /* \"#utility.yul\":6101:6110   */\n      dup4\n        /* \"#utility.yul\":6097:6114   */\n      add\n        /* \"#utility.yul\":6090:6137   */\n      mstore\n        /* \"#utility.yul\":6154:6285   */\n      tag_139\n        /* \"#utility.yul\":6280:6284   */\n      dup2\n        /* \"#utility.yul\":6154:6285   */\n      tag_71\n      jump\t// in\n    tag_139:\n        /* \"#utility.yul\":6146:6285   */\n      swap1\n      pop\n        /* \"#utility.yul\":5873:6292   */\n      swap2\n      swap1\n      pop\n      jump\t// out\n        /* \"#utility.yul\":6298:6441   */\n    tag_72:\n        /* \"#utility.yul\":6355:6360   */\n      0x00\n        /* \"#utility.yul\":6386:6392   */\n      dup2\n        /* \"#utility.yul\":6380:6393   */\n      mload\n        /* \"#utility.yul\":6371:6393   */\n      swap1\n      pop\n        /* \"#utility.yul\":6402:6435   */\n      tag_141\n        /* \"#utility.yul\":6429:6434   */\n      dup2\n        /* \"#utility.yul\":6402:6435   */\n      tag_54\n      jump\t// in\n    tag_141:\n        /* \"#utility.yul\":6298:6441   */\n      swap3\n      swap2\n      pop\n      pop\n      jump\t// out\n        /* \"#utility.yul\":6447:6798   */\n    tag_39:\n        /* \"#utility.yul\":6517:6523   */\n      0x00\n        /* \"#utility.yul\":6566:6568   */\n      0x20\n        /* \"#utility.yul\":6554:6563   */\n      dup3\n        /* \"#utility.yul\":6545:6552   */\n      dup5\n        /* \"#utility.yul\":6541:6564   */\n      sub\n        /* \"#utility.yul\":6537:6569   */\n      slt\n        /* \"#utility.yul\":6534:6653   */\n      iszero\n      tag_143\n      jumpi\n        /* \"#utility.yul\":6572:6651   */\n      tag_144\n      tag_47\n      jump\t// in\n    tag_144:\n        /* \"#utility.yul\":6534:6653   */\n    tag_143:\n        /* \"#utility.yul\":6692:6693   */\n      0x00\n        /* \"#utility.yul\":6717:6781   */\n      tag_145\n        /* \"#utility.yul\":6773:6780   */\n      dup5\n        /* \"#utility.yul\":6764:6770   */\n      dup3\n        /* \"#utility.yul\":6753:6762   */\n      dup6\n        /* \"#utility.yul\":6749:6771   */\n      add\n        /* \"#utility.yul\":6717:6781   */\n      tag_72\n      jump\t// in\n    tag_145:\n        /* \"#utility.yul\":6707:6781   */\n      swap2\n      pop\n        /* \"#utility.yul\":6663:6791   */\n      pop\n        /* \"#utility.yul\":6447:6798   */\n      swap3\n      swap2\n      pop\n      pop\n      jump\t// out\n\n    auxdata: 0xa2646970667358221220e956a8c8d401f5fb56cf9ba57e1113a85888e62a02c9261041a9be86c47d18c264736f6c634300081e0033\n}\n",
				"bytecode": {
					"linkReferences": {},
					"object": "6080604052348015600e575f5ffd5b506107ee8061001c5f395ff3fe608060405260043610610033575f3560e01c80633ca065bb1461003757806366563e69146100535780636bc19a221461008f575b5f5ffd5b610051600480360381019061004c919061052d565b6100b7565b005b34801561005e575f5ffd5b50610079600480360381019061007491906105a6565b6101ef565b60405161008691906105e0565b60405180910390f35b34801561009a575f5ffd5b506100b560048036038101906100b091906105a6565b610372565b005b5f5f8373ffffffffffffffffffffffffffffffffffffffff1634846040516024016100e291906105e0565b6040516020818303038152906040527f4018d9aa000000000000000000000000000000000000000000000000000000007bffffffffffffffffffffffffffffffffffffffffffffffffffffffff19166020820180517bffffffffffffffffffffffffffffffffffffffffffffffffffffffff838183161783525050505060405161016c919061064b565b5f6040518083038185875af1925050503d805f81146101a6576040519150601f19603f3d011682016040523d82523d5f602084013e6101ab565b606091505b50915091507f13848c3e38f8886f3f5d2ad9dff80d8092c2bbb8efd5b887a99c2c6cfc09ac2a82826040516101e19291906106d3565b60405180910390a150505050565b5f5f5f8373ffffffffffffffffffffffffffffffffffffffff166040516024016040516020818303038152906040527f5197c7aa000000000000000000000000000000000000000000000000000000007bffffffffffffffffffffffffffffffffffffffffffffffffffffffff19166020820180517bffffffffffffffffffffffffffffffffffffffffffffffffffffffff8381831617835250505050604051610299919061064b565b5f604051808303815f865af19150503d805f81146102d2576040519150601f19603f3d011682016040523d82523d5f602084013e6102d7565b606091505b50915091507f13848c3e38f8886f3f5d2ad9dff80d8092c2bbb8efd5b887a99c2c6cfc09ac2a828260405161030d9291906106d3565b60405180910390a181610355576040517f08c379a000000000000000000000000000000000000000000000000000000000815260040161034c9061075b565b60405180910390fd5b80806020019051810190610369919061078d565b92505050919050565b5f5f8273ffffffffffffffffffffffffffffffffffffffff166040516024016040516020818303038152906040527fc2985578000000000000000000000000000000000000000000000000000000007bffffffffffffffffffffffffffffffffffffffffffffffffffffffff19166020820180517bffffffffffffffffffffffffffffffffffffffffffffffffffffffff838183161783525050505060405161041b919061064b565b5f604051808303815f865af19150503d805f8114610454576040519150601f19603f3d011682016040523d82523d5f602084013e610459565b606091505b50915091507f13848c3e38f8886f3f5d2ad9dff80d8092c2bbb8efd5b887a99c2c6cfc09ac2a828260405161048f9291906106d3565b60405180910390a1505050565b5f5ffd5b5f73ffffffffffffffffffffffffffffffffffffffff82169050919050565b5f6104c9826104a0565b9050919050565b6104d9816104bf565b81146104e3575f5ffd5b50565b5f813590506104f4816104d0565b92915050565b5f819050919050565b61050c816104fa565b8114610516575f5ffd5b50565b5f8135905061052781610503565b92915050565b5f5f604083850312156105435761054261049c565b5b5f610550858286016104e6565b925050602061056185828601610519565b9150509250929050565b5f610575826104a0565b9050919050565b6105858161056b565b811461058f575f5ffd5b50565b5f813590506105a08161057c565b92915050565b5f602082840312156105bb576105ba61049c565b5b5f6105c884828501610592565b91505092915050565b6105da816104fa565b82525050565b5f6020820190506105f35f8301846105d1565b92915050565b5f81519050919050565b5f81905092915050565b8281835e5f83830152505050565b5f610625826105f9565b61062f8185610603565b935061063f81856020860161060d565b80840191505092915050565b5f610656828461061b565b915081905092915050565b5f8115159050919050565b61067581610661565b82525050565b5f82825260208201905092915050565b5f601f19601f8301169050919050565b5f6106a5826105f9565b6106af818561067b565b93506106bf81856020860161060d565b6106c88161068b565b840191505092915050565b5f6040820190506106e65f83018561066c565b81810360208301526106f8818461069b565b90509392505050565b5f82825260208201905092915050565b7f43616c6c20746f2067657458206661696c6564000000000000000000000000005f82015250565b5f610745601383610701565b915061075082610711565b602082019050919050565b5f6020820190508181035f83015261077281610739565b9050919050565b5f8151905061078781610503565b92915050565b5f602082840312156107a2576107a161049c565b5b5f6107af84828501610779565b9150509291505056fea2646970667358221220e956a8c8d401f5fb56cf9ba57e1113a85888e62a02c9261041a9be86c47d18c264736f6c634300081e0033",
					"opcodes": "PUSH1 0x80 PUSH1 0x40 MSTORE CALLVALUE DUP1 ISZERO PUSH1 0xE JUMPI PUSH0 PUSH0 REVERT JUMPDEST POP PUSH2 0x7EE DUP1 PUSH2 0x1C PUSH0 CODECOPY PUSH0 RETURN INVALID PUSH1 0x80 PUSH1 0x40 MSTORE PUSH1 0x4 CALLDATASIZE LT PUSH2 0x33 JUMPI PUSH0 CALLDATALOAD PUSH1 0xE0 SHR DUP1 PUSH4 0x3CA065BB EQ PUSH2 0x37 JUMPI DUP1 PUSH4 0x66563E69 EQ PUSH2 0x53 JUMPI DUP1 PUSH4 0x6BC19A22 EQ PUSH2 0x8F JUMPI JUMPDEST PUSH0 PUSH0 REVERT JUMPDEST PUSH2 0x51 PUSH1 0x4 DUP1 CALLDATASIZE SUB DUP2 ADD SWAP1 PUSH2 0x4C SWAP2 SWAP1 PUSH2 0x52D JUMP JUMPDEST PUSH2 0xB7 JUMP JUMPDEST STOP JUMPDEST CALLVALUE DUP1 ISZERO PUSH2 0x5E JUMPI PUSH0 PUSH0 REVERT JUMPDEST POP PUSH2 0x79 PUSH1 0x4 DUP1 CALLDATASIZE SUB DUP2 ADD SWAP1 PUSH2 0x74 SWAP2 SWAP1 PUSH2 0x5A6 JUMP JUMPDEST PUSH2 0x1EF JUMP JUMPDEST PUSH1 0x40 MLOAD PUSH2 0x86 SWAP2 SWAP1 PUSH2 0x5E0 JUMP JUMPDEST PUSH1 0x40 MLOAD DUP1 SWAP2 SUB SWAP1 RETURN JUMPDEST CALLVALUE DUP1 ISZERO PUSH2 0x9A JUMPI PUSH0 PUSH0 REVERT JUMPDEST POP PUSH2 0xB5 PUSH1 0x4 DUP1 CALLDATASIZE SUB DUP2 ADD SWAP1 PUSH2 0xB0 SWAP2 SWAP1 PUSH2 0x5A6 JUMP JUMPDEST PUSH2 0x372 JUMP JUMPDEST STOP JUMPDEST PUSH0 PUSH0 DUP4 PUSH20 0xFFFFFFFFFFFFFFFFFFFFFFFFFFFFFFFFFFFFFFFF AND CALLVALUE DUP5 PUSH1 0x40 MLOAD PUSH1 0x24 ADD PUSH2 0xE2 SWAP2 SWAP1 PUSH2 0x5E0 JUMP JUMPDEST PUSH1 0x40 MLOAD PUSH1 0x20 DUP2 DUP4 SUB SUB DUP2 MSTORE SWAP1 PUSH1 0x40 MSTORE PUSH32 0x4018D9AA00000000000000000000000000000000000000000000000000000000 PUSH28 0xFFFFFFFFFFFFFFFFFFFFFFFFFFFFFFFFFFFFFFFFFFFFFFFFFFFFFFFF NOT AND PUSH1 0x20 DUP3 ADD DUP1 MLOAD PUSH28 0xFFFFFFFFFFFFFFFFFFFFFFFFFFFFFFFFFFFFFFFFFFFFFFFFFFFFFFFF DUP4 DUP2 DUP4 AND OR DUP4 MSTORE POP POP POP POP PUSH1 0x40 MLOAD PUSH2 0x16C SWAP2 SWAP1 PUSH2 0x64B JUMP JUMPDEST PUSH0 PUSH1 0x40 MLOAD DUP1 DUP4 SUB DUP2 DUP6 DUP8 GAS CALL SWAP3 POP POP POP RETURNDATASIZE DUP1 PUSH0 DUP2 EQ PUSH2 0x1A6 JUMPI PUSH1 0x40 MLOAD SWAP2 POP PUSH1 0x1F NOT PUSH1 0x3F RETURNDATASIZE ADD AND DUP3 ADD PUSH1 0x40 MSTORE RETURNDATASIZE DUP3 MSTORE RETURNDATASIZE PUSH0 PUSH1 0x20 DUP5 ADD RETURNDATACOPY PUSH2 0x1AB JUMP JUMPDEST PUSH1 0x60 SWAP2 POP JUMPDEST POP SWAP2 POP SWAP2 POP PUSH32 0x13848C3E38F8886F3F5D2AD9DFF80D8092C2BBB8EFD5B887A99C2C6CFC09AC2A DUP3 DUP3 PUSH1 0x40 MLOAD PUSH2 0x1E1 SWAP3 SWAP2 SWAP1 PUSH2 0x6D3 JUMP JUMPDEST PUSH1 0x40 MLOAD DUP1 SWAP2 SUB SWAP1 LOG1 POP POP POP POP JUMP JUMPDEST PUSH0 PUSH0 PUSH0 DUP4 PUSH20 0xFFFFFFFFFFFFFFFFFFFFFFFFFFFFFFFFFFFFFFFF AND PUSH1 0x40 MLOAD PUSH1 0x24 ADD PUSH1 0x40 MLOAD PUSH1 0x20 DUP2 DUP4 SUB SUB DUP2 MSTORE SWAP1 PUSH1 0x40 MSTORE PUSH32 0x5197C7AA00000000000000000000000000000000000000000000000000000000 PUSH28 0xFFFFFFFFFFFFFFFFFFFFFFFFFFFFFFFFFFFFFFFFFFFFFFFFFFFFFFFF NOT AND PUSH1 0x20 DUP3 ADD DUP1 MLOAD PUSH28 0xFFFFFFFFFFFFFFFFFFFFFFFFFFFFFFFFFFFFFFFFFFFFFFFFFFFFFFFF DUP4 DUP2 DUP4 AND OR DUP4 MSTORE POP POP POP POP PUSH1 0x40 MLOAD PUSH2 0x299 SWAP2 SWAP1 PUSH2 0x64B JUMP JUMPDEST PUSH0 PUSH1 0x40 MLOAD DUP1 DUP4 SUB DUP2 PUSH0 DUP7 GAS CALL SWAP2 POP POP RETURNDATASIZE DUP1 PUSH0 DUP2 EQ PUSH2 0x2D2 JUMPI PUSH1 0x40 MLOAD SWAP2 POP PUSH1 0x1F NOT PUSH1 0x3F RETURNDATASIZE ADD AND DUP3 ADD PUSH1 0x40 MSTORE RETURNDATASIZE DUP3 MSTORE RETURNDATASIZE PUSH0 PUSH1 0x20 DUP5 ADD RETURNDATACOPY PUSH2 0x2D7 JUMP JUMPDEST PUSH1 0x60 SWAP2 POP JUMPDEST POP SWAP2 POP SWAP2 POP PUSH32 0x13848C3E38F8886F3F5D2AD9DFF80D8092C2BBB8EFD5B887A99C2C6CFC09AC2A DUP3 DUP3 PUSH1 0x40 MLOAD PUSH2 0x30D SWAP3 SWAP2 SWAP1 PUSH2 0x6D3 JUMP JUMPDEST PUSH1 0x40 MLOAD DUP1 SWAP2 SUB SWAP1 LOG1 DUP2 PUSH2 0x355 JUMPI PUSH1 0x40 MLOAD PUSH32 0x8C379A000000000000000000000000000000000000000000000000000000000 DUP2 MSTORE PUSH1 0x4 ADD PUSH2 0x34C SWAP1 PUSH2 0x75B JUMP JUMPDEST PUSH1 0x40 MLOAD DUP1 SWAP2 SUB SWAP1 REVERT JUMPDEST DUP1 DUP1 PUSH1 0x20 ADD SWAP1 MLOAD DUP2 ADD SWAP1 PUSH2 0x369 SWAP2 SWAP1 PUSH2 0x78D JUMP JUMPDEST SWAP3 POP POP POP SWAP2 SWAP1 POP JUMP JUMPDEST PUSH0 PUSH0 DUP3 PUSH20 0xFFFFFFFFFFFFFFFFFFFFFFFFFFFFFFFFFFFFFFFF AND PUSH1 0x40 MLOAD PUSH1 0x24 ADD PUSH1 0x40 MLOAD PUSH1 0x20 DUP2 DUP4 SUB SUB DUP2 MSTORE SWAP1 PUSH1 0x40 MSTORE PUSH32 0xC298557800000000000000000000000000000000000000000000000000000000 PUSH28 0xFFFFFFFFFFFFFFFFFFFFFFFFFFFFFFFFFFFFFFFFFFFFFFFFFFFFFFFF NOT AND PUSH1 0x20 DUP3 ADD DUP1 MLOAD PUSH28 0xFFFFFFFFFFFFFFFFFFFFFFFFFFFFFFFFFFFFFFFFFFFFFFFFFFFFFFFF DUP4 DUP2 DUP4 AND OR DUP4 MSTORE POP POP POP POP PUSH1 0x40 MLOAD PUSH2 0x41B SWAP2 SWAP1 PUSH2 0x64B JUMP JUMPDEST PUSH0 PUSH1 0x40 MLOAD DUP1 DUP4 SUB DUP2 PUSH0 DUP7 GAS CALL SWAP2 POP POP RETURNDATASIZE DUP1 PUSH0 DUP2 EQ PUSH2 0x454 JUMPI PUSH1 0x40 MLOAD SWAP2 POP PUSH1 0x1F NOT PUSH1 0x3F RETURNDATASIZE ADD AND DUP3 ADD PUSH1 0x40 MSTORE RETURNDATASIZE DUP3 MSTORE RETURNDATASIZE PUSH0 PUSH1 0x20 DUP5 ADD RETURNDATACOPY PUSH2 0x459 JUMP JUMPDEST PUSH1 0x60 SWAP2 POP JUMPDEST POP SWAP2 POP SWAP2 POP PUSH32 0x13848C3E38F8886F3F5D2AD9DFF80D8092C2BBB8EFD5B887A99C2C6CFC09AC2A DUP3 DUP3 PUSH1 0x40 MLOAD PUSH2 0x48F SWAP3 SWAP2 SWAP1 PUSH2 0x6D3 JUMP JUMPDEST PUSH1 0x40 MLOAD DUP1 SWAP2 SUB SWAP1 LOG1 POP POP POP JUMP JUMPDEST PUSH0 PUSH0 REVERT JUMPDEST PUSH0 PUSH20 0xFFFFFFFFFFFFFFFFFFFFFFFFFFFFFFFFFFFFFFFF DUP3 AND SWAP1 POP SWAP2 SWAP1 POP JUMP JUMPDEST PUSH0 PUSH2 0x4C9 DUP3 PUSH2 0x4A0 JUMP JUMPDEST SWAP1 POP SWAP2 SWAP1 POP JUMP JUMPDEST PUSH2 0x4D9 DUP2 PUSH2 0x4BF JUMP JUMPDEST DUP2 EQ PUSH2 0x4E3 JUMPI PUSH0 PUSH0 REVERT JUMPDEST POP JUMP JUMPDEST PUSH0 DUP2 CALLDATALOAD SWAP1 POP PUSH2 0x4F4 DUP2 PUSH2 0x4D0 JUMP JUMPDEST SWAP3 SWAP2 POP POP JUMP JUMPDEST PUSH0 DUP2 SWAP1 POP SWAP2 SWAP1 POP JUMP JUMPDEST PUSH2 0x50C DUP2 PUSH2 0x4FA JUMP JUMPDEST DUP2 EQ PUSH2 0x516 JUMPI PUSH0 PUSH0 REVERT JUMPDEST POP JUMP JUMPDEST PUSH0 DUP2 CALLDATALOAD SWAP1 POP PUSH2 0x527 DUP2 PUSH2 0x503 JUMP JUMPDEST SWAP3 SWAP2 POP POP JUMP JUMPDEST PUSH0 PUSH0 PUSH1 0x40 DUP4 DUP6 SUB SLT ISZERO PUSH2 0x543 JUMPI PUSH2 0x542 PUSH2 0x49C JUMP JUMPDEST JUMPDEST PUSH0 PUSH2 0x550 DUP6 DUP3 DUP7 ADD PUSH2 0x4E6 JUMP JUMPDEST SWAP3 POP POP PUSH1 0x20 PUSH2 0x561 DUP6 DUP3 DUP7 ADD PUSH2 0x519 JUMP JUMPDEST SWAP2 POP POP SWAP3 POP SWAP3 SWAP1 POP JUMP JUMPDEST PUSH0 PUSH2 0x575 DUP3 PUSH2 0x4A0 JUMP JUMPDEST SWAP1 POP SWAP2 SWAP1 POP JUMP JUMPDEST PUSH2 0x585 DUP2 PUSH2 0x56B JUMP JUMPDEST DUP2 EQ PUSH2 0x58F JUMPI PUSH0 PUSH0 REVERT JUMPDEST POP JUMP JUMPDEST PUSH0 DUP2 CALLDATALOAD SWAP1 POP PUSH2 0x5A0 DUP2 PUSH2 0x57C JUMP JUMPDEST SWAP3 SWAP2 POP POP JUMP JUMPDEST PUSH0 PUSH1 0x20 DUP3 DUP5 SUB SLT ISZERO PUSH2 0x5BB JUMPI PUSH2 0x5BA PUSH2 0x49C JUMP JUMPDEST JUMPDEST PUSH0 PUSH2 0x5C8 DUP5 DUP3 DUP6 ADD PUSH2 0x592 JUMP JUMPDEST SWAP2 POP POP SWAP3 SWAP2 POP POP JUMP JUMPDEST PUSH2 0x5DA DUP2 PUSH2 0x4FA JUMP JUMPDEST DUP3 MSTORE POP POP JUMP JUMPDEST PUSH0 PUSH1 0x20 DUP3 ADD SWAP1 POP PUSH2 0x5F3 PUSH0 DUP4 ADD DUP5 PUSH2 0x5D1 JUMP JUMPDEST SWAP3 SWAP2 POP POP JUMP JUMPDEST PUSH0 DUP2 MLOAD SWAP1 POP SWAP2 SWAP1 POP JUMP JUMPDEST PUSH0 DUP2 SWAP1 POP SWAP3 SWAP2 POP POP JUMP JUMPDEST DUP3 DUP2 DUP4 MCOPY PUSH0 DUP4 DUP4 ADD MSTORE POP POP POP JUMP JUMPDEST PUSH0 PUSH2 0x625 DUP3 PUSH2 0x5F9 JUMP JUMPDEST PUSH2 0x62F DUP2 DUP6 PUSH2 0x603 JUMP JUMPDEST SWAP4 POP PUSH2 0x63F DUP2 DUP6 PUSH1 0x20 DUP7 ADD PUSH2 0x60D JUMP JUMPDEST DUP1 DUP5 ADD SWAP2 POP POP SWAP3 SWAP2 POP POP JUMP JUMPDEST PUSH0 PUSH2 0x656 DUP3 DUP5 PUSH2 0x61B JUMP JUMPDEST SWAP2 POP DUP2 SWAP1 POP SWAP3 SWAP2 POP POP JUMP JUMPDEST PUSH0 DUP2 ISZERO ISZERO SWAP1 POP SWAP2 SWAP1 POP JUMP JUMPDEST PUSH2 0x675 DUP2 PUSH2 0x661 JUMP JUMPDEST DUP3 MSTORE POP POP JUMP JUMPDEST PUSH0 DUP3 DUP3 MSTORE PUSH1 0x20 DUP3 ADD SWAP1 POP SWAP3 SWAP2 POP POP JUMP JUMPDEST PUSH0 PUSH1 0x1F NOT PUSH1 0x1F DUP4 ADD AND SWAP1 POP SWAP2 SWAP1 POP JUMP JUMPDEST PUSH0 PUSH2 0x6A5 DUP3 PUSH2 0x5F9 JUMP JUMPDEST PUSH2 0x6AF DUP2 DUP6 PUSH2 0x67B JUMP JUMPDEST SWAP4 POP PUSH2 0x6BF DUP2 DUP6 PUSH1 0x20 DUP7 ADD PUSH2 0x60D JUMP JUMPDEST PUSH2 0x6C8 DUP2 PUSH2 0x68B JUMP JUMPDEST DUP5 ADD SWAP2 POP POP SWAP3 SWAP2 POP POP JUMP JUMPDEST PUSH0 PUSH1 0x40 DUP3 ADD SWAP1 POP PUSH2 0x6E6 PUSH0 DUP4 ADD DUP6 PUSH2 0x66C JUMP JUMPDEST DUP2 DUP2 SUB PUSH1 0x20 DUP4 ADD MSTORE PUSH2 0x6F8 DUP2 DUP5 PUSH2 0x69B JUMP JUMPDEST SWAP1 POP SWAP4 SWAP3 POP POP POP JUMP JUMPDEST PUSH0 DUP3 DUP3 MSTORE PUSH1 0x20 DUP3 ADD SWAP1 POP SWAP3 SWAP2 POP POP JUMP JUMPDEST PUSH32 0x43616C6C20746F2067657458206661696C656400000000000000000000000000 PUSH0 DUP3 ADD MSTORE POP JUMP JUMPDEST PUSH0 PUSH2 0x745 PUSH1 0x13 DUP4 PUSH2 0x701 JUMP JUMPDEST SWAP2 POP PUSH2 0x750 DUP3 PUSH2 0x711 JUMP JUMPDEST PUSH1 0x20 DUP3 ADD SWAP1 POP SWAP2 SWAP1 POP JUMP JUMPDEST PUSH0 PUSH1 0x20 DUP3 ADD SWAP1 POP DUP2 DUP2 SUB PUSH0 DUP4 ADD MSTORE PUSH2 0x772 DUP2 PUSH2 0x739 JUMP JUMPDEST SWAP1 POP SWAP2 SWAP1 POP JUMP JUMPDEST PUSH0 DUP2 MLOAD SWAP1 POP PUSH2 0x787 DUP2 PUSH2 0x503 JUMP JUMPDEST SWAP3 SWAP2 POP POP JUMP JUMPDEST PUSH0 PUSH1 0x20 DUP3 DUP5 SUB SLT ISZERO PUSH2 0x7A2 JUMPI PUSH2 0x7A1 PUSH2 0x49C JUMP JUMPDEST JUMPDEST PUSH0 PUSH2 0x7AF DUP5 DUP3 DUP6 ADD PUSH2 0x779 JUMP JUMPDEST SWAP2 POP POP SWAP3 SWAP2 POP POP JUMP INVALID LOG2 PUSH5 0x6970667358 0x22 SLT KECCAK256 0xE9 JUMP 0xA8 0xC8 0xD4 ADD CREATE2 EXTSTATICCALL JUMP 0xCF SWAP12 0xA5 PUSH31 0x1113A85888E62A02C9261041A9BE86C47D18C264736F6C634300081E003300 "
				},
				"gasEstimates": {
					"creation": {
						"codeDepositCost": "406000",
						"executionCost": "441",
						"totalCost": "406441"
					},
					"external": {
						"callGetX(address)": "infinite",
						"callNotExist(address)": "infinite",
						"callSetX(address,uint256)": "infinite"
					}
				},
				"methodIdentifiers": {
					"callGetX(address)": "66563e69",
					"callNotExist(address)": "6bc19a22",
					"callSetX(address,uint256)": "3ca065bb"
				}
			},
			"storageLayout": {
				"storage": [],
				"types": null
			},
			"userdoc": {
				"kind": "user",
				"methods": {},
				"version": 1
			}
		}
	}
}