{
	"34_ERC721/WTFApe.sol": {
		"WTFApe": {
			"abi": [
				{
					"inputs": [
						{
							"internalType": "string",
							"name": "_name",
							"type": "string"
						},
						{
							"internalType": "string",
							"name": "_symbol",
							"type": "string"
						}
					],
					"stateMutability": "nonpayable",
					"type": "constructor"
				},
				{
					"inputs": [
						{
							"internalType": "address",
							"name": "receiver",
							"type": "address"
						}
					],
					"name": "InvaildERC721Receiver",
					"type": "error"
				},
				{
					"anonymous": false,
					"inputs": [
						{
							"indexed": true,
							"internalType": "address",
							"name": "owner",
							"type": "address"
						},
						{
							"indexed": true,
							"internalType": "address",
							"name": "operator",
							"type": "address"
						},
						{
							"indexed": true,
							"internalType": "uint256",
							"name": "tokenId",
							"type": "uint256"
						}
					],
					"name": "Approval",
					"type": "event"
				},
				{
					"anonymous": false,
					"inputs": [
						{
							"indexed": true,
							"internalType": "address",
							"name": "owner",
							"type": "address"
						},
						{
							"indexed": true,
							"internalType": "address",
							"name": "operator",
							"type": "address"
						},
						{
							"indexed": true,
							"internalType": "bool",
							"name": "approved",
							"type": "bool"
						}
					],
					"name": "ApprovalForAll",
					"type": "event"
				},
				{
					"anonymous": false,
					"inputs": [
						{
							"indexed": true,
							"internalType": "address",
							"name": "from",
							"type": "address"
						},
						{
							"indexed": true,
							"internalType": "address",
							"name": "to",
							"type": "address"
						},
						{
							"indexed": true,
							"internalType": "uint256",
							"name": "tokenId",
							"type": "uint256"
						}
					],
					"name": "Transfer",
					"type": "event"
				},
				{
					"inputs": [],
					"name": "MAX_APES",
					"outputs": [
						{
							"internalType": "uint256",
							"name": "",
							"type": "uint256"
						}
					],
					"stateMutability": "view",
					"type": "function"
				},
				{
					"inputs": [
						{
							"internalType": "address",
							"name": "",
							"type": "address"
						}
					],
					"name": "_balances",
					"outputs": [
						{
							"internalType": "uint256",
							"name": "",
							"type": "uint256"
						}
					],
					"stateMutability": "view",
					"type": "function"
				},
				{
					"inputs": [
						{
							"internalType": "address",
							"name": "",
							"type": "address"
						},
						{
							"internalType": "address",
							"name": "",
							"type": "address"
						}
					],
					"name": "_operatorApprovals",
					"outputs": [
						{
							"internalType": "bool",
							"name": "",
							"type": "bool"
						}
					],
					"stateMutability": "view",
					"type": "function"
				},
				{
					"inputs": [
						{
							"internalType": "uint256",
							"name": "",
							"type": "uint256"
						}
					],
					"name": "_owners",
					"outputs": [
						{
							"internalType": "address",
							"name": "",
							"type": "address"
						}
					],
					"stateMutability": "view",
					"type": "function"
				},
				{
					"inputs": [
						{
							"internalType": "uint256",
							"name": "",
							"type": "uint256"
						}
					],
					"name": "_tokenApprovals",
					"outputs": [
						{
							"internalType": "address",
							"name": "",
							"type": "address"
						}
					],
					"stateMutability": "view",
					"type": "function"
				},
				{
					"inputs": [
						{
							"internalType": "uint256",
							"name": "tokenId",
							"type": "uint256"
						},
						{
							"internalType": "address",
							"name": "operator",
							"type": "address"
						}
					],
					"name": "approve",
					"outputs": [],
					"stateMutability": "nonpayable",
					"type": "function"
				},
				{
					"inputs": [
						{
							"internalType": "address",
							"name": "owner",
							"type": "address"
						}
					],
					"name": "balanceOf",
					"outputs": [
						{
							"internalType": "uint256",
							"name": "balance",
							"type": "uint256"
						}
					],
					"stateMutability": "view",
					"type": "function"
				},
				{
					"inputs": [
						{
							"internalType": "uint256",
							"name": "tokenId",
							"type": "uint256"
						}
					],
					"name": "getApproved",
					"outputs": [
						{
							"internalType": "address",
							"name": "operator",
							"type": "address"
						}
					],
					"stateMutability": "view",
					"type": "function"
				},
				{
					"inputs": [
						{
							"internalType": "address",
							"name": "operator",
							"type": "address"
						}
					],
					"name": "isApprovedAll",
					"outputs": [
						{
							"internalType": "bool",
							"name": "",
							"type": "bool"
						}
					],
					"stateMutability": "view",
					"type": "function"
				},
				{
					"inputs": [
						{
							"internalType": "address",
							"name": "to",
							"type": "address"
						},
						{
							"internalType": "uint256",
							"name": "tokenId",
							"type": "uint256"
						}
					],
					"name": "mint",
					"outputs": [],
					"stateMutability": "nonpayable",
					"type": "function"
				},
				{
					"inputs": [],
					"name": "name",
					"outputs": [
						{
							"internalType": "string",
							"name": "",
							"type": "string"
						}
					],
					"stateMutability": "view",
					"type": "function"
				},
				{
					"inputs": [
						{
							"internalType": "uint256",
							"name": "tokenId",
							"type": "uint256"
						}
					],
					"name": "ownerOf",
					"outputs": [
						{
							"internalType": "address",
							"name": "owner",
							"type": "address"
						}
					],
					"stateMutability": "view",
					"type": "function"
				},
				{
					"inputs": [
						{
							"internalType": "address",
							"name": "from",
							"type": "address"
						},
						{
							"internalType": "address",
							"name": "to",
							"type": "address"
						},
						{
							"internalType": "uint256",
							"name": "tokenId",
							"type": "uint256"
						}
					],
					"name": "safeTransferFrom",
					"outputs": [],
					"stateMutability": "nonpayable",
					"type": "function"
				},
				{
					"inputs": [
						{
							"internalType": "address",
							"name": "from",
							"type": "address"
						},
						{
							"internalType": "address",
							"name": "to",
							"type": "address"
						},
						{
							"internalType": "uint256",
							"name": "tokenId",
							"type": "uint256"
						},
						{
							"internalType": "bytes",
							"name": "data",
							"type": "bytes"
						}
					],
					"name": "safeTransferFrom",
					"outputs": [],
					"stateMutability": "nonpayable",
					"type": "function"
				},
				{
					"inputs": [
						{
							"internalType": "address",
							"name": "operator",
							"type": "address"
						},
						{
							"internalType": "bool",
							"name": "approved",
							"type": "bool"
						}
					],
					"name": "setApproveAll",
					"outputs": [],
					"stateMutability": "nonpayable",
					"type": "function"
				},
				{
					"inputs": [
						{
							"internalType": "bytes4",
							"name": "interfaceId",
							"type": "bytes4"
						}
					],
					"name": "supportsInterface",
					"outputs": [
						{
							"internalType": "bool",
							"name": "",
							"type": "bool"
						}
					],
					"stateMutability": "pure",
					"type": "function"
				},
				{
					"inputs": [],
					"name": "symbol",
					"outputs": [
						{
							"internalType": "string",
							"name": "",
							"type": "string"
						}
					],
					"stateMutability": "view",
					"type": "function"
				},
				{
					"inputs": [
						{
							"internalType": "uint256",
							"name": "tokenId",
							"type": "uint256"
						}
					],
					"name": "tokenURI",
					"outputs": [
						{
							"internalType": "string",
							"name": "",
							"type": "string"
						}
					],
					"stateMutability": "view",
					"type": "function"
				},
				{
					"inputs": [
						{
							"internalType": "address",
							"name": "from",
							"type": "address"
						},
						{
							"internalType": "address",
							"name": "to",
							"type": "address"
						},
						{
							"internalType": "uint256",
							"name": "tokenId",
							"type": "uint256"
						}
					],
					"name": "transferFrom",
					"outputs": [],
					"stateMutability": "nonpayable",
					"type": "function"
				}
			],
			"devdoc": {
				"kind": "dev",
				"methods": {},
				"version": 1
			},
			"evm": {
				"assembly": "    /* \"34_ERC721/WTFApe.sol\":101:673  contract WTFApe is ERC721{... */\n  mstore(0x40, 0x80)\n    /* \"34_ERC721/WTFApe.sol\":156:161  10000 */\n  0x2710\n    /* \"34_ERC721/WTFApe.sol\":133:161  uint public MAX_APES = 10000 */\n  0x06\n  sstore\n    /* \"34_ERC721/WTFApe.sol\":180:260  constructor(string memory _name, string memory _symbol) ERC721(_name, _symbol){} */\n  callvalue\n  dup1\n  iszero\n  tag_1\n  jumpi\n  revert(0x00, 0x00)\ntag_1:\n  pop\n  mload(0x40)\n  sub(codesize, bytecodeSize)\n  dup1\n  bytecodeSize\n  dup4\n  codecopy\n  dup2\n  dup2\n  add\n  0x40\n  mstore\n  dup2\n  add\n  swap1\n  tag_2\n  swap2\n  swap1\n  tag_3\n  jump\t// in\ntag_2:\n    /* \"34_ERC721/WTFApe.sol\":243:248  _name */\n  dup2\n    /* \"34_ERC721/WTFApe.sol\":250:257  _symbol */\n  dup2\n    /* \"34_ERC721/ERC721.sol\":786:791  _name */\n  dup2\n    /* \"34_ERC721/ERC721.sol\":779:783  name */\n  0x00\n    /* \"34_ERC721/ERC721.sol\":779:791  name = _name */\n  swap1\n  dup2\n  tag_7\n  swap2\n  swap1\n  tag_8\n  jump\t// in\ntag_7:\n  pop\n    /* \"34_ERC721/ERC721.sol\":811:818  _symbol */\n  dup1\n    /* \"34_ERC721/ERC721.sol\":802:808  symbol */\n  0x01\n    /* \"34_ERC721/ERC721.sol\":802:818  symbol = _symbol */\n  swap1\n  dup2\n  tag_9\n  swap2\n  swap1\n  tag_8\n  jump\t// in\ntag_9:\n  pop\n    /* \"34_ERC721/ERC721.sol\":712:826  constructor(string memory _name, string memory _symbol) {... */\n  pop\n  pop\n    /* \"34_ERC721/WTFApe.sol\":180:260  constructor(string memory _name, string memory _symbol) ERC721(_name, _symbol){} */\n  pop\n  pop\n    /* \"34_ERC721/WTFApe.sol\":101:673  contract WTFApe is ERC721{... */\n  jump(tag_11)\n    /* \"#utility.yul\":7:82   */\ntag_12:\n    /* \"#utility.yul\":40:46   */\n  0x00\n    /* \"#utility.yul\":73:75   */\n  0x40\n    /* \"#utility.yul\":67:76   */\n  mload\n    /* \"#utility.yul\":57:76   */\n  swap1\n  pop\n    /* \"#utility.yul\":7:82   */\n  swap1\n  jump\t// out\n    /* \"#utility.yul\":88:205   */\ntag_13:\n    /* \"#utility.yul\":197:198   */\n  0x00\n    /* \"#utility.yul\":194:195   */\n  0x00\n    /* \"#utility.yul\":187:199   */\n  revert\n    /* \"#utility.yul\":211:328   */\ntag_14:\n    /* \"#utility.yul\":320:321   */\n  0x00\n    /* \"#utility.yul\":317:318   */\n  0x00\n    /* \"#utility.yul\":310:322   */\n  revert\n    /* \"#utility.yul\":334:451   */\ntag_15:\n    /* \"#utility.yul\":443:444   */\n  0x00\n    /* \"#utility.yul\":440:441   */\n  0x00\n    /* \"#utility.yul\":433:445   */\n  revert\n    /* \"#utility.yul\":457:574   */\ntag_16:\n    /* \"#utility.yul\":566:567   */\n  0x00\n    /* \"#utility.yul\":563:564   */\n  0x00\n    /* \"#utility.yul\":556:568   */\n  revert\n    /* \"#utility.yul\":580:682   */\ntag_17:\n    /* \"#utility.yul\":621:627   */\n  0x00\n    /* \"#utility.yul\":672:674   */\n  0x1f\n    /* \"#utility.yul\":668:675   */\n  not\n    /* \"#utility.yul\":663:665   */\n  0x1f\n    /* \"#utility.yul\":656:661   */\n  dup4\n    /* \"#utility.yul\":652:666   */\n  add\n    /* \"#utility.yul\":648:676   */\n  and\n    /* \"#utility.yul\":638:676   */\n  swap1\n  pop\n    /* \"#utility.yul\":580:682   */\n  swap2\n  swap1\n  pop\n  jump\t// out\n    /* \"#utility.yul\":688:868   */\ntag_18:\n    /* \"#utility.yul\":736:813   */\n  0x4e487b7100000000000000000000000000000000000000000000000000000000\n    /* \"#utility.yul\":733:734   */\n  0x00\n    /* \"#utility.yul\":726:814   */\n  mstore\n    /* \"#utility.yul\":833:837   */\n  0x41\n    /* \"#utility.yul\":830:831   */\n  0x04\n    /* \"#utility.yul\":823:838   */\n  mstore\n    /* \"#utility.yul\":857:861   */\n  0x24\n    /* \"#utility.yul\":854:855   */\n  0x00\n    /* \"#utility.yul\":847:862   */\n  revert\n    /* \"#utility.yul\":874:1155   */\ntag_19:\n    /* \"#utility.yul\":957:984   */\n  tag_53\n    /* \"#utility.yul\":979:983   */\n  dup3\n    /* \"#utility.yul\":957:984   */\n  tag_17\n  jump\t// in\ntag_53:\n    /* \"#utility.yul\":949:955   */\n  dup2\n    /* \"#utility.yul\":945:985   */\n  add\n    /* \"#utility.yul\":1087:1093   */\n  dup2\n    /* \"#utility.yul\":1075:1085   */\n  dup2\n    /* \"#utility.yul\":1072:1094   */\n  lt\n    /* \"#utility.yul\":1051:1069   */\n  0xffffffffffffffff\n    /* \"#utility.yul\":1039:1049   */\n  dup3\n    /* \"#utility.yul\":1036:1070   */\n  gt\n    /* \"#utility.yul\":1033:1095   */\n  or\n    /* \"#utility.yul\":1030:1118   */\n  iszero\n  tag_54\n  jumpi\n    /* \"#utility.yul\":1098:1116   */\n  tag_55\n  tag_18\n  jump\t// in\ntag_55:\n    /* \"#utility.yul\":1030:1118   */\ntag_54:\n    /* \"#utility.yul\":1138:1148   */\n  dup1\n    /* \"#utility.yul\":1134:1136   */\n  0x40\n    /* \"#utility.yul\":1127:1149   */\n  mstore\n    /* \"#utility.yul\":917:1155   */\n  pop\n    /* \"#utility.yul\":874:1155   */\n  pop\n  pop\n  jump\t// out\n    /* \"#utility.yul\":1161:1290   */\ntag_20:\n    /* \"#utility.yul\":1195:1201   */\n  0x00\n    /* \"#utility.yul\":1222:1242   */\n  tag_57\n  tag_12\n  jump\t// in\ntag_57:\n    /* \"#utility.yul\":1212:1242   */\n  swap1\n  pop\n    /* \"#utility.yul\":1251:1284   */\n  tag_58\n    /* \"#utility.yul\":1279:1283   */\n  dup3\n    /* \"#utility.yul\":1271:1277   */\n  dup3\n    /* \"#utility.yul\":1251:1284   */\n  tag_19\n  jump\t// in\ntag_58:\n    /* \"#utility.yul\":1161:1290   */\n  swap2\n  swap1\n  pop\n  jump\t// out\n    /* \"#utility.yul\":1296:1604   */\ntag_21:\n    /* \"#utility.yul\":1358:1362   */\n  0x00\n    /* \"#utility.yul\":1448:1466   */\n  0xffffffffffffffff\n    /* \"#utility.yul\":1440:1446   */\n  dup3\n    /* \"#utility.yul\":1437:1467   */\n  gt\n    /* \"#utility.yul\":1434:1490   */\n  iszero\n  tag_60\n  jumpi\n    /* \"#utility.yul\":1470:1488   */\n  tag_61\n  tag_18\n  jump\t// in\ntag_61:\n    /* \"#utility.yul\":1434:1490   */\ntag_60:\n    /* \"#utility.yul\":1508:1537   */\n  tag_62\n    /* \"#utility.yul\":1530:1536   */\n  dup3\n    /* \"#utility.yul\":1508:1537   */\n  tag_17\n  jump\t// in\ntag_62:\n    /* \"#utility.yul\":1500:1537   */\n  swap1\n  pop\n    /* \"#utility.yul\":1592:1596   */\n  0x20\n    /* \"#utility.yul\":1586:1590   */\n  dup2\n    /* \"#utility.yul\":1582:1597   */\n  add\n    /* \"#utility.yul\":1574:1597   */\n  swap1\n  pop\n    /* \"#utility.yul\":1296:1604   */\n  swap2\n  swap1\n  pop\n  jump\t// out\n    /* \"#utility.yul\":1610:1749   */\ntag_22:\n    /* \"#utility.yul\":1699:1705   */\n  dup3\n    /* \"#utility.yul\":1694:1697   */\n  dup2\n    /* \"#utility.yul\":1689:1692   */\n  dup4\n    /* \"#utility.yul\":1683:1706   */\n  mcopy\n    /* \"#utility.yul\":1740:1741   */\n  0x00\n    /* \"#utility.yul\":1731:1737   */\n  dup4\n    /* \"#utility.yul\":1726:1729   */\n  dup4\n    /* \"#utility.yul\":1722:1738   */\n  add\n    /* \"#utility.yul\":1715:1742   */\n  mstore\n    /* \"#utility.yul\":1610:1749   */\n  pop\n  pop\n  pop\n  jump\t// out\n    /* \"#utility.yul\":1755:2189   */\ntag_23:\n    /* \"#utility.yul\":1844:1849   */\n  0x00\n    /* \"#utility.yul\":1869:1935   */\n  tag_65\n    /* \"#utility.yul\":1885:1934   */\n  tag_66\n    /* \"#utility.yul\":1927:1933   */\n  dup5\n    /* \"#utility.yul\":1885:1934   */\n  tag_21\n  jump\t// in\ntag_66:\n    /* \"#utility.yul\":1869:1935   */\n  tag_20\n  jump\t// in\ntag_65:\n    /* \"#utility.yul\":1860:1935   */\n  swap1\n  pop\n    /* \"#utility.yul\":1958:1964   */\n  dup3\n    /* \"#utility.yul\":1951:1956   */\n  dup2\n    /* \"#utility.yul\":1944:1965   */\n  mstore\n    /* \"#utility.yul\":1996:2000   */\n  0x20\n    /* \"#utility.yul\":1989:1994   */\n  dup2\n    /* \"#utility.yul\":1985:2001   */\n  add\n    /* \"#utility.yul\":2034:2037   */\n  dup5\n    /* \"#utility.yul\":2025:2031   */\n  dup5\n    /* \"#utility.yul\":2020:2023   */\n  dup5\n    /* \"#utility.yul\":2016:2032   */\n  add\n    /* \"#utility.yul\":2013:2038   */\n  gt\n    /* \"#utility.yul\":2010:2122   */\n  iszero\n  tag_67\n  jumpi\n    /* \"#utility.yul\":2041:2120   */\n  tag_68\n  tag_16\n  jump\t// in\ntag_68:\n    /* \"#utility.yul\":2010:2122   */\ntag_67:\n    /* \"#utility.yul\":2131:2183   */\n  tag_69\n    /* \"#utility.yul\":2176:2182   */\n  dup5\n    /* \"#utility.yul\":2171:2174   */\n  dup3\n    /* \"#utility.yul\":2166:2169   */\n  dup6\n    /* \"#utility.yul\":2131:2183   */\n  tag_22\n  jump\t// in\ntag_69:\n    /* \"#utility.yul\":1850:2189   */\n  pop\n    /* \"#utility.yul\":1755:2189   */\n  swap4\n  swap3\n  pop\n  pop\n  pop\n  jump\t// out\n    /* \"#utility.yul\":2209:2564   */\ntag_24:\n    /* \"#utility.yul\":2276:2281   */\n  0x00\n    /* \"#utility.yul\":2325:2328   */\n  dup3\n    /* \"#utility.yul\":2318:2322   */\n  0x1f\n    /* \"#utility.yul\":2310:2316   */\n  dup4\n    /* \"#utility.yul\":2306:2323   */\n  add\n    /* \"#utility.yul\":2302:2329   */\n  slt\n    /* \"#utility.yul\":2292:2414   */\n  tag_71\n  jumpi\n    /* \"#utility.yul\":2333:2412   */\n  tag_72\n  tag_15\n  jump\t// in\ntag_72:\n    /* \"#utility.yul\":2292:2414   */\ntag_71:\n    /* \"#utility.yul\":2443:2449   */\n  dup2\n    /* \"#utility.yul\":2437:2450   */\n  mload\n    /* \"#utility.yul\":2468:2558   */\n  tag_73\n    /* \"#utility.yul\":2554:2557   */\n  dup5\n    /* \"#utility.yul\":2546:2552   */\n  dup3\n    /* \"#utility.yul\":2539:2543   */\n  0x20\n    /* \"#utility.yul\":2531:2537   */\n  dup7\n    /* \"#utility.yul\":2527:2544   */\n  add\n    /* \"#utility.yul\":2468:2558   */\n  tag_23\n  jump\t// in\ntag_73:\n    /* \"#utility.yul\":2459:2558   */\n  swap2\n  pop\n    /* \"#utility.yul\":2282:2564   */\n  pop\n    /* \"#utility.yul\":2209:2564   */\n  swap3\n  swap2\n  pop\n  pop\n  jump\t// out\n    /* \"#utility.yul\":2570:3423   */\ntag_3:\n    /* \"#utility.yul\":2669:2675   */\n  0x00\n    /* \"#utility.yul\":2677:2683   */\n  0x00\n    /* \"#utility.yul\":2726:2728   */\n  0x40\n    /* \"#utility.yul\":2714:2723   */\n  dup4\n    /* \"#utility.yul\":2705:2712   */\n  dup6\n    /* \"#utility.yul\":2701:2724   */\n  sub\n    /* \"#utility.yul\":2697:2729   */\n  slt\n    /* \"#utility.yul\":2694:2813   */\n  iszero\n  tag_75\n  jumpi\n    /* \"#utility.yul\":2732:2811   */\n  tag_76\n  tag_13\n  jump\t// in\ntag_76:\n    /* \"#utility.yul\":2694:2813   */\ntag_75:\n    /* \"#utility.yul\":2873:2874   */\n  0x00\n    /* \"#utility.yul\":2862:2871   */\n  dup4\n    /* \"#utility.yul\":2858:2875   */\n  add\n    /* \"#utility.yul\":2852:2876   */\n  mload\n    /* \"#utility.yul\":2903:2921   */\n  0xffffffffffffffff\n    /* \"#utility.yul\":2895:2901   */\n  dup2\n    /* \"#utility.yul\":2892:2922   */\n  gt\n    /* \"#utility.yul\":2889:3006   */\n  iszero\n  tag_77\n  jumpi\n    /* \"#utility.yul\":2925:3004   */\n  tag_78\n  tag_14\n  jump\t// in\ntag_78:\n    /* \"#utility.yul\":2889:3006   */\ntag_77:\n    /* \"#utility.yul\":3030:3104   */\n  tag_79\n    /* \"#utility.yul\":3096:3103   */\n  dup6\n    /* \"#utility.yul\":3087:3093   */\n  dup3\n    /* \"#utility.yul\":3076:3085   */\n  dup7\n    /* \"#utility.yul\":3072:3094   */\n  add\n    /* \"#utility.yul\":3030:3104   */\n  tag_24\n  jump\t// in\ntag_79:\n    /* \"#utility.yul\":3020:3104   */\n  swap3\n  pop\n    /* \"#utility.yul\":2823:3114   */\n  pop\n    /* \"#utility.yul\":3174:3176   */\n  0x20\n    /* \"#utility.yul\":3163:3172   */\n  dup4\n    /* \"#utility.yul\":3159:3177   */\n  add\n    /* \"#utility.yul\":3153:3178   */\n  mload\n    /* \"#utility.yul\":3205:3223   */\n  0xffffffffffffffff\n    /* \"#utility.yul\":3197:3203   */\n  dup2\n    /* \"#utility.yul\":3194:3224   */\n  gt\n    /* \"#utility.yul\":3191:3308   */\n  iszero\n  tag_80\n  jumpi\n    /* \"#utility.yul\":3227:3306   */\n  tag_81\n  tag_14\n  jump\t// in\ntag_81:\n    /* \"#utility.yul\":3191:3308   */\ntag_80:\n    /* \"#utility.yul\":3332:3406   */\n  tag_82\n    /* \"#utility.yul\":3398:3405   */\n  dup6\n    /* \"#utility.yul\":3389:3395   */\n  dup3\n    /* \"#utility.yul\":3378:3387   */\n  dup7\n    /* \"#utility.yul\":3374:3396   */\n  add\n    /* \"#utility.yul\":3332:3406   */\n  tag_24\n  jump\t// in\ntag_82:\n    /* \"#utility.yul\":3322:3406   */\n  swap2\n  pop\n    /* \"#utility.yul\":3124:3416   */\n  pop\n    /* \"#utility.yul\":2570:3423   */\n  swap3\n  pop\n  swap3\n  swap1\n  pop\n  jump\t// out\n    /* \"#utility.yul\":3429:3528   */\ntag_25:\n    /* \"#utility.yul\":3481:3487   */\n  0x00\n    /* \"#utility.yul\":3515:3520   */\n  dup2\n    /* \"#utility.yul\":3509:3521   */\n  mload\n    /* \"#utility.yul\":3499:3521   */\n  swap1\n  pop\n    /* \"#utility.yul\":3429:3528   */\n  swap2\n  swap1\n  pop\n  jump\t// out\n    /* \"#utility.yul\":3534:3714   */\ntag_26:\n    /* \"#utility.yul\":3582:3659   */\n  0x4e487b7100000000000000000000000000000000000000000000000000000000\n    /* \"#utility.yul\":3579:3580   */\n  0x00\n    /* \"#utility.yul\":3572:3660   */\n  mstore\n    /* \"#utility.yul\":3679:3683   */\n  0x22\n    /* \"#utility.yul\":3676:3677   */\n  0x04\n    /* \"#utility.yul\":3669:3684   */\n  mstore\n    /* \"#utility.yul\":3703:3707   */\n  0x24\n    /* \"#utility.yul\":3700:3701   */\n  0x00\n    /* \"#utility.yul\":3693:3708   */\n  revert\n    /* \"#utility.yul\":3720:4040   */\ntag_27:\n    /* \"#utility.yul\":3764:3770   */\n  0x00\n    /* \"#utility.yul\":3801:3802   */\n  0x02\n    /* \"#utility.yul\":3795:3799   */\n  dup3\n    /* \"#utility.yul\":3791:3803   */\n  div\n    /* \"#utility.yul\":3781:3803   */\n  swap1\n  pop\n    /* \"#utility.yul\":3848:3849   */\n  0x01\n    /* \"#utility.yul\":3842:3846   */\n  dup3\n    /* \"#utility.yul\":3838:3850   */\n  and\n    /* \"#utility.yul\":3869:3887   */\n  dup1\n    /* \"#utility.yul\":3859:3940   */\n  tag_86\n  jumpi\n    /* \"#utility.yul\":3925:3929   */\n  0x7f\n    /* \"#utility.yul\":3917:3923   */\n  dup3\n    /* \"#utility.yul\":3913:3930   */\n  and\n    /* \"#utility.yul\":3903:3930   */\n  swap2\n  pop\n    /* \"#utility.yul\":3859:3940   */\ntag_86:\n    /* \"#utility.yul\":3987:3989   */\n  0x20\n    /* \"#utility.yul\":3979:3985   */\n  dup3\n    /* \"#utility.yul\":3976:3990   */\n  lt\n    /* \"#utility.yul\":3956:3974   */\n  dup2\n    /* \"#utility.yul\":3953:3991   */\n  sub\n    /* \"#utility.yul\":3950:4034   */\n  tag_87\n  jumpi\n    /* \"#utility.yul\":4006:4024   */\n  tag_88\n  tag_26\n  jump\t// in\ntag_88:\n    /* \"#utility.yul\":3950:4034   */\ntag_87:\n    /* \"#utility.yul\":3771:4040   */\n  pop\n    /* \"#utility.yul\":3720:4040   */\n  swap2\n  swap1\n  pop\n  jump\t// out\n    /* \"#utility.yul\":4046:4187   */\ntag_28:\n    /* \"#utility.yul\":4095:4099   */\n  0x00\n    /* \"#utility.yul\":4118:4121   */\n  dup2\n    /* \"#utility.yul\":4110:4121   */\n  swap1\n  pop\n    /* \"#utility.yul\":4141:4144   */\n  dup2\n    /* \"#utility.yul\":4138:4139   */\n  0x00\n    /* \"#utility.yul\":4131:4145   */\n  mstore\n    /* \"#utility.yul\":4175:4179   */\n  0x20\n    /* \"#utility.yul\":4172:4173   */\n  0x00\n    /* \"#utility.yul\":4162:4180   */\n  keccak256\n    /* \"#utility.yul\":4154:4180   */\n  swap1\n  pop\n    /* \"#utility.yul\":4046:4187   */\n  swap2\n  swap1\n  pop\n  jump\t// out\n    /* \"#utility.yul\":4193:4286   */\ntag_29:\n    /* \"#utility.yul\":4230:4236   */\n  0x00\n    /* \"#utility.yul\":4277:4279   */\n  0x20\n    /* \"#utility.yul\":4272:4274   */\n  0x1f\n    /* \"#utility.yul\":4265:4270   */\n  dup4\n    /* \"#utility.yul\":4261:4275   */\n  add\n    /* \"#utility.yul\":4257:4280   */\n  div\n    /* \"#utility.yul\":4247:4280   */\n  swap1\n  pop\n    /* \"#utility.yul\":4193:4286   */\n  swap2\n  swap1\n  pop\n  jump\t// out\n    /* \"#utility.yul\":4292:4399   */\ntag_30:\n    /* \"#utility.yul\":4336:4344   */\n  0x00\n    /* \"#utility.yul\":4386:4391   */\n  dup3\n    /* \"#utility.yul\":4380:4384   */\n  dup3\n    /* \"#utility.yul\":4376:4392   */\n  shl\n    /* \"#utility.yul\":4355:4392   */\n  swap1\n  pop\n    /* \"#utility.yul\":4292:4399   */\n  swap3\n  swap2\n  pop\n  pop\n  jump\t// out\n    /* \"#utility.yul\":4405:4798   */\ntag_31:\n    /* \"#utility.yul\":4474:4480   */\n  0x00\n    /* \"#utility.yul\":4524:4525   */\n  0x08\n    /* \"#utility.yul\":4512:4522   */\n  dup4\n    /* \"#utility.yul\":4508:4526   */\n  mul\n    /* \"#utility.yul\":4547:4644   */\n  tag_93\n    /* \"#utility.yul\":4577:4643   */\n  0xffffffffffffffffffffffffffffffffffffffffffffffffffffffffffffffff\n    /* \"#utility.yul\":4566:4575   */\n  dup3\n    /* \"#utility.yul\":4547:4644   */\n  tag_30\n  jump\t// in\ntag_93:\n    /* \"#utility.yul\":4665:4704   */\n  tag_94\n    /* \"#utility.yul\":4695:4703   */\n  dup7\n    /* \"#utility.yul\":4684:4693   */\n  dup4\n    /* \"#utility.yul\":4665:4704   */\n  tag_30\n  jump\t// in\ntag_94:\n    /* \"#utility.yul\":4653:4704   */\n  swap6\n  pop\n    /* \"#utility.yul\":4737:4741   */\n  dup1\n    /* \"#utility.yul\":4733:4742   */\n  not\n    /* \"#utility.yul\":4726:4731   */\n  dup5\n    /* \"#utility.yul\":4722:4743   */\n  and\n    /* \"#utility.yul\":4713:4743   */\n  swap4\n  pop\n    /* \"#utility.yul\":4786:4790   */\n  dup1\n    /* \"#utility.yul\":4776:4784   */\n  dup7\n    /* \"#utility.yul\":4772:4791   */\n  and\n    /* \"#utility.yul\":4765:4770   */\n  dup5\n    /* \"#utility.yul\":4762:4792   */\n  or\n    /* \"#utility.yul\":4752:4792   */\n  swap3\n  pop\n    /* \"#utility.yul\":4481:4798   */\n  pop\n  pop\n    /* \"#utility.yul\":4405:4798   */\n  swap4\n  swap3\n  pop\n  pop\n  pop\n  jump\t// out\n    /* \"#utility.yul\":4804:4881   */\ntag_32:\n    /* \"#utility.yul\":4841:4848   */\n  0x00\n    /* \"#utility.yul\":4870:4875   */\n  dup2\n    /* \"#utility.yul\":4859:4875   */\n  swap1\n  pop\n    /* \"#utility.yul\":4804:4881   */\n  swap2\n  swap1\n  pop\n  jump\t// out\n    /* \"#utility.yul\":4887:4947   */\ntag_33:\n    /* \"#utility.yul\":4915:4918   */\n  0x00\n    /* \"#utility.yul\":4936:4941   */\n  dup2\n    /* \"#utility.yul\":4929:4941   */\n  swap1\n  pop\n    /* \"#utility.yul\":4887:4947   */\n  swap2\n  swap1\n  pop\n  jump\t// out\n    /* \"#utility.yul\":4953:5095   */\ntag_34:\n    /* \"#utility.yul\":5003:5012   */\n  0x00\n    /* \"#utility.yul\":5036:5089   */\n  tag_98\n    /* \"#utility.yul\":5054:5088   */\n  tag_99\n    /* \"#utility.yul\":5063:5087   */\n  tag_100\n    /* \"#utility.yul\":5081:5086   */\n  dup5\n    /* \"#utility.yul\":5063:5087   */\n  tag_32\n  jump\t// in\ntag_100:\n    /* \"#utility.yul\":5054:5088   */\n  tag_33\n  jump\t// in\ntag_99:\n    /* \"#utility.yul\":5036:5089   */\n  tag_32\n  jump\t// in\ntag_98:\n    /* \"#utility.yul\":5023:5089   */\n  swap1\n  pop\n    /* \"#utility.yul\":4953:5095   */\n  swap2\n  swap1\n  pop\n  jump\t// out\n    /* \"#utility.yul\":5101:5176   */\ntag_35:\n    /* \"#utility.yul\":5144:5147   */\n  0x00\n    /* \"#utility.yul\":5165:5170   */\n  dup2\n    /* \"#utility.yul\":5158:5170   */\n  swap1\n  pop\n    /* \"#utility.yul\":5101:5176   */\n  swap2\n  swap1\n  pop\n  jump\t// out\n    /* \"#utility.yul\":5182:5451   */\ntag_36:\n    /* \"#utility.yul\":5292:5331   */\n  tag_103\n    /* \"#utility.yul\":5323:5330   */\n  dup4\n    /* \"#utility.yul\":5292:5331   */\n  tag_34\n  jump\t// in\ntag_103:\n    /* \"#utility.yul\":5353:5444   */\n  tag_104\n    /* \"#utility.yul\":5402:5443   */\n  tag_105\n    /* \"#utility.yul\":5426:5442   */\n  dup3\n    /* \"#utility.yul\":5402:5443   */\n  tag_35\n  jump\t// in\ntag_105:\n    /* \"#utility.yul\":5394:5400   */\n  dup5\n    /* \"#utility.yul\":5387:5391   */\n  dup5\n    /* \"#utility.yul\":5381:5392   */\n  sload\n    /* \"#utility.yul\":5353:5444   */\n  tag_31\n  jump\t// in\ntag_104:\n    /* \"#utility.yul\":5347:5351   */\n  dup3\n    /* \"#utility.yul\":5340:5445   */\n  sstore\n    /* \"#utility.yul\":5258:5451   */\n  pop\n    /* \"#utility.yul\":5182:5451   */\n  pop\n  pop\n  pop\n  jump\t// out\n    /* \"#utility.yul\":5457:5530   */\ntag_37:\n    /* \"#utility.yul\":5502:5505   */\n  0x00\n    /* \"#utility.yul\":5523:5524   */\n  0x00\n    /* \"#utility.yul\":5516:5524   */\n  swap1\n  pop\n    /* \"#utility.yul\":5457:5530   */\n  swap1\n  jump\t// out\n    /* \"#utility.yul\":5536:5725   */\ntag_38:\n    /* \"#utility.yul\":5613:5645   */\n  tag_108\n  tag_37\n  jump\t// in\ntag_108:\n    /* \"#utility.yul\":5654:5719   */\n  tag_109\n    /* \"#utility.yul\":5712:5718   */\n  dup2\n    /* \"#utility.yul\":5704:5710   */\n  dup5\n    /* \"#utility.yul\":5698:5702   */\n  dup5\n    /* \"#utility.yul\":5654:5719   */\n  tag_36\n  jump\t// in\ntag_109:\n    /* \"#utility.yul\":5589:5725   */\n  pop\n    /* \"#utility.yul\":5536:5725   */\n  pop\n  pop\n  jump\t// out\n    /* \"#utility.yul\":5731:5917   */\ntag_39:\n    /* \"#utility.yul\":5791:5911   */\ntag_111:\n    /* \"#utility.yul\":5808:5811   */\n  dup2\n    /* \"#utility.yul\":5801:5806   */\n  dup2\n    /* \"#utility.yul\":5798:5812   */\n  lt\n    /* \"#utility.yul\":5791:5911   */\n  iszero\n  tag_113\n  jumpi\n    /* \"#utility.yul\":5862:5901   */\n  tag_114\n    /* \"#utility.yul\":5899:5900   */\n  0x00\n    /* \"#utility.yul\":5892:5897   */\n  dup3\n    /* \"#utility.yul\":5862:5901   */\n  tag_38\n  jump\t// in\ntag_114:\n    /* \"#utility.yul\":5835:5836   */\n  0x01\n    /* \"#utility.yul\":5828:5833   */\n  dup2\n    /* \"#utility.yul\":5824:5837   */\n  add\n    /* \"#utility.yul\":5815:5837   */\n  swap1\n  pop\n    /* \"#utility.yul\":5791:5911   */\n  jump(tag_111)\ntag_113:\n    /* \"#utility.yul\":5731:5917   */\n  pop\n  pop\n  jump\t// out\n    /* \"#utility.yul\":5923:6466   */\ntag_40:\n    /* \"#utility.yul\":6024:6026   */\n  0x1f\n    /* \"#utility.yul\":6019:6022   */\n  dup3\n    /* \"#utility.yul\":6016:6027   */\n  gt\n    /* \"#utility.yul\":6013:6459   */\n  iszero\n  tag_116\n  jumpi\n    /* \"#utility.yul\":6058:6096   */\n  tag_117\n    /* \"#utility.yul\":6090:6095   */\n  dup2\n    /* \"#utility.yul\":6058:6096   */\n  tag_28\n  jump\t// in\ntag_117:\n    /* \"#utility.yul\":6142:6171   */\n  tag_118\n    /* \"#utility.yul\":6160:6170   */\n  dup5\n    /* \"#utility.yul\":6142:6171   */\n  tag_29\n  jump\t// in\ntag_118:\n    /* \"#utility.yul\":6132:6140   */\n  dup2\n    /* \"#utility.yul\":6128:6172   */\n  add\n    /* \"#utility.yul\":6325:6327   */\n  0x20\n    /* \"#utility.yul\":6313:6323   */\n  dup6\n    /* \"#utility.yul\":6310:6328   */\n  lt\n    /* \"#utility.yul\":6307:6356   */\n  iszero\n  tag_119\n  jumpi\n    /* \"#utility.yul\":6346:6354   */\n  dup2\n    /* \"#utility.yul\":6331:6354   */\n  swap1\n  pop\n    /* \"#utility.yul\":6307:6356   */\ntag_119:\n    /* \"#utility.yul\":6369:6449   */\n  tag_120\n    /* \"#utility.yul\":6425:6447   */\n  tag_121\n    /* \"#utility.yul\":6443:6446   */\n  dup6\n    /* \"#utility.yul\":6425:6447   */\n  tag_29\n  jump\t// in\ntag_121:\n    /* \"#utility.yul\":6415:6423   */\n  dup4\n    /* \"#utility.yul\":6411:6448   */\n  add\n    /* \"#utility.yul\":6398:6409   */\n  dup3\n    /* \"#utility.yul\":6369:6449   */\n  tag_39\n  jump\t// in\ntag_120:\n    /* \"#utility.yul\":6028:6459   */\n  pop\n  pop\n    /* \"#utility.yul\":6013:6459   */\ntag_116:\n    /* \"#utility.yul\":5923:6466   */\n  pop\n  pop\n  pop\n  jump\t// out\n    /* \"#utility.yul\":6472:6589   */\ntag_41:\n    /* \"#utility.yul\":6526:6534   */\n  0x00\n    /* \"#utility.yul\":6576:6581   */\n  dup3\n    /* \"#utility.yul\":6570:6574   */\n  dup3\n    /* \"#utility.yul\":6566:6582   */\n  shr\n    /* \"#utility.yul\":6545:6582   */\n  swap1\n  pop\n    /* \"#utility.yul\":6472:6589   */\n  swap3\n  swap2\n  pop\n  pop\n  jump\t// out\n    /* \"#utility.yul\":6595:6764   */\ntag_42:\n    /* \"#utility.yul\":6639:6645   */\n  0x00\n    /* \"#utility.yul\":6672:6723   */\n  tag_124\n    /* \"#utility.yul\":6720:6721   */\n  0x00\n    /* \"#utility.yul\":6716:6722   */\n  not\n    /* \"#utility.yul\":6708:6713   */\n  dup5\n    /* \"#utility.yul\":6705:6706   */\n  0x08\n    /* \"#utility.yul\":6701:6714   */\n  mul\n    /* \"#utility.yul\":6672:6723   */\n  tag_41\n  jump\t// in\ntag_124:\n    /* \"#utility.yul\":6668:6724   */\n  not\n    /* \"#utility.yul\":6753:6757   */\n  dup1\n    /* \"#utility.yul\":6747:6751   */\n  dup4\n    /* \"#utility.yul\":6743:6758   */\n  and\n    /* \"#utility.yul\":6733:6758   */\n  swap2\n  pop\n    /* \"#utility.yul\":6646:6764   */\n  pop\n    /* \"#utility.yul\":6595:6764   */\n  swap3\n  swap2\n  pop\n  pop\n  jump\t// out\n    /* \"#utility.yul\":6769:7064   */\ntag_43:\n    /* \"#utility.yul\":6845:6849   */\n  0x00\n    /* \"#utility.yul\":6991:7020   */\n  tag_126\n    /* \"#utility.yul\":7016:7019   */\n  dup4\n    /* \"#utility.yul\":7010:7014   */\n  dup4\n    /* \"#utility.yul\":6991:7020   */\n  tag_42\n  jump\t// in\ntag_126:\n    /* \"#utility.yul\":6983:7020   */\n  swap2\n  pop\n    /* \"#utility.yul\":7053:7056   */\n  dup3\n    /* \"#utility.yul\":7050:7051   */\n  0x02\n    /* \"#utility.yul\":7046:7057   */\n  mul\n    /* \"#utility.yul\":7040:7044   */\n  dup3\n    /* \"#utility.yul\":7037:7058   */\n  or\n    /* \"#utility.yul\":7029:7058   */\n  swap1\n  pop\n    /* \"#utility.yul\":6769:7064   */\n  swap3\n  swap2\n  pop\n  pop\n  jump\t// out\n    /* \"#utility.yul\":7069:8464   */\ntag_8:\n    /* \"#utility.yul\":7186:7223   */\n  tag_128\n    /* \"#utility.yul\":7219:7222   */\n  dup3\n    /* \"#utility.yul\":7186:7223   */\n  tag_25\n  jump\t// in\ntag_128:\n    /* \"#utility.yul\":7288:7306   */\n  0xffffffffffffffff\n    /* \"#utility.yul\":7280:7286   */\n  dup2\n    /* \"#utility.yul\":7277:7307   */\n  gt\n    /* \"#utility.yul\":7274:7330   */\n  iszero\n  tag_129\n  jumpi\n    /* \"#utility.yul\":7310:7328   */\n  tag_130\n  tag_18\n  jump\t// in\ntag_130:\n    /* \"#utility.yul\":7274:7330   */\ntag_129:\n    /* \"#utility.yul\":7354:7392   */\n  tag_131\n    /* \"#utility.yul\":7386:7390   */\n  dup3\n    /* \"#utility.yul\":7380:7391   */\n  sload\n    /* \"#utility.yul\":7354:7392   */\n  tag_27\n  jump\t// in\ntag_131:\n    /* \"#utility.yul\":7439:7506   */\n  tag_132\n    /* \"#utility.yul\":7499:7505   */\n  dup3\n    /* \"#utility.yul\":7491:7497   */\n  dup3\n    /* \"#utility.yul\":7485:7489   */\n  dup6\n    /* \"#utility.yul\":7439:7506   */\n  tag_40\n  jump\t// in\ntag_132:\n    /* \"#utility.yul\":7533:7534   */\n  0x00\n    /* \"#utility.yul\":7557:7561   */\n  0x20\n    /* \"#utility.yul\":7544:7561   */\n  swap1\n  pop\n    /* \"#utility.yul\":7589:7591   */\n  0x1f\n    /* \"#utility.yul\":7581:7587   */\n  dup4\n    /* \"#utility.yul\":7578:7592   */\n  gt\n    /* \"#utility.yul\":7606:7607   */\n  0x01\n    /* \"#utility.yul\":7601:8219   */\n  dup2\n  eq\n  tag_134\n  jumpi\n    /* \"#utility.yul\":8263:8264   */\n  0x00\n    /* \"#utility.yul\":8280:8286   */\n  dup5\n    /* \"#utility.yul\":8277:8354   */\n  iszero\n  tag_135\n  jumpi\n    /* \"#utility.yul\":8329:8338   */\n  dup3\n    /* \"#utility.yul\":8324:8327   */\n  dup8\n    /* \"#utility.yul\":8320:8339   */\n  add\n    /* \"#utility.yul\":8314:8340   */\n  mload\n    /* \"#utility.yul\":8305:8340   */\n  swap1\n  pop\n    /* \"#utility.yul\":8277:8354   */\ntag_135:\n    /* \"#utility.yul\":8380:8447   */\n  tag_136\n    /* \"#utility.yul\":8440:8446   */\n  dup6\n    /* \"#utility.yul\":8433:8438   */\n  dup3\n    /* \"#utility.yul\":8380:8447   */\n  tag_43\n  jump\t// in\ntag_136:\n    /* \"#utility.yul\":8374:8378   */\n  dup7\n    /* \"#utility.yul\":8367:8448   */\n  sstore\n    /* \"#utility.yul\":8236:8458   */\n  pop\n    /* \"#utility.yul\":7571:8458   */\n  jump(tag_133)\n    /* \"#utility.yul\":7601:8219   */\ntag_134:\n    /* \"#utility.yul\":7653:7657   */\n  0x1f\n    /* \"#utility.yul\":7649:7658   */\n  not\n    /* \"#utility.yul\":7641:7647   */\n  dup5\n    /* \"#utility.yul\":7637:7659   */\n  and\n    /* \"#utility.yul\":7687:7724   */\n  tag_137\n    /* \"#utility.yul\":7719:7723   */\n  dup7\n    /* \"#utility.yul\":7687:7724   */\n  tag_28\n  jump\t// in\ntag_137:\n    /* \"#utility.yul\":7746:7747   */\n  0x00\n    /* \"#utility.yul\":7760:7968   */\ntag_138:\n    /* \"#utility.yul\":7774:7781   */\n  dup3\n    /* \"#utility.yul\":7771:7772   */\n  dup2\n    /* \"#utility.yul\":7768:7782   */\n  lt\n    /* \"#utility.yul\":7760:7968   */\n  iszero\n  tag_140\n  jumpi\n    /* \"#utility.yul\":7853:7862   */\n  dup5\n    /* \"#utility.yul\":7848:7851   */\n  dup10\n    /* \"#utility.yul\":7844:7863   */\n  add\n    /* \"#utility.yul\":7838:7864   */\n  mload\n    /* \"#utility.yul\":7830:7836   */\n  dup3\n    /* \"#utility.yul\":7823:7865   */\n  sstore\n    /* \"#utility.yul\":7904:7905   */\n  0x01\n    /* \"#utility.yul\":7896:7902   */\n  dup3\n    /* \"#utility.yul\":7892:7906   */\n  add\n    /* \"#utility.yul\":7882:7906   */\n  swap2\n  pop\n    /* \"#utility.yul\":7951:7953   */\n  0x20\n    /* \"#utility.yul\":7940:7949   */\n  dup6\n    /* \"#utility.yul\":7936:7954   */\n  add\n    /* \"#utility.yul\":7923:7954   */\n  swap5\n  pop\n    /* \"#utility.yul\":7797:7801   */\n  0x20\n    /* \"#utility.yul\":7794:7795   */\n  dup2\n    /* \"#utility.yul\":7790:7802   */\n  add\n    /* \"#utility.yul\":7785:7802   */\n  swap1\n  pop\n    /* \"#utility.yul\":7760:7968   */\n  jump(tag_138)\ntag_140:\n    /* \"#utility.yul\":7996:8002   */\n  dup7\n    /* \"#utility.yul\":7987:7994   */\n  dup4\n    /* \"#utility.yul\":7984:8003   */\n  lt\n    /* \"#utility.yul\":7981:8160   */\n  iszero\n  tag_141\n  jumpi\n    /* \"#utility.yul\":8054:8063   */\n  dup5\n    /* \"#utility.yul\":8049:8052   */\n  dup10\n    /* \"#utility.yul\":8045:8064   */\n  add\n    /* \"#utility.yul\":8039:8065   */\n  mload\n    /* \"#utility.yul\":8097:8145   */\n  tag_142\n    /* \"#utility.yul\":8139:8143   */\n  0x1f\n    /* \"#utility.yul\":8131:8137   */\n  dup10\n    /* \"#utility.yul\":8127:8144   */\n  and\n    /* \"#utility.yul\":8116:8125   */\n  dup3\n    /* \"#utility.yul\":8097:8145   */\n  tag_42\n  jump\t// in\ntag_142:\n    /* \"#utility.yul\":8089:8095   */\n  dup4\n    /* \"#utility.yul\":8082:8146   */\n  sstore\n    /* \"#utility.yul\":8004:8160   */\n  pop\n    /* \"#utility.yul\":7981:8160   */\ntag_141:\n    /* \"#utility.yul\":8206:8207   */\n  0x01\n    /* \"#utility.yul\":8202:8203   */\n  0x02\n    /* \"#utility.yul\":8194:8200   */\n  dup9\n    /* \"#utility.yul\":8190:8204   */\n  mul\n    /* \"#utility.yul\":8186:8208   */\n  add\n    /* \"#utility.yul\":8180:8184   */\n  dup9\n    /* \"#utility.yul\":8173:8209   */\n  sstore\n    /* \"#utility.yul\":7608:8219   */\n  pop\n  pop\n  pop\n    /* \"#utility.yul\":7571:8458   */\ntag_133:\n  pop\n    /* \"#utility.yul\":7161:8464   */\n  pop\n  pop\n  pop\n    /* \"#utility.yul\":7069:8464   */\n  pop\n  pop\n  jump\t// out\n    /* \"34_ERC721/WTFApe.sol\":101:673  contract WTFApe is ERC721{... */\ntag_11:\n  dataSize(sub_0)\n  dup1\n  dataOffset(sub_0)\n  0x00\n  codecopy\n  0x00\n  return\nstop\n\nsub_0: assembly {\n        /* \"34_ERC721/WTFApe.sol\":101:673  contract WTFApe is ERC721{... */\n      mstore(0x40, 0x80)\n      callvalue\n      dup1\n      iszero\n      tag_1\n      jumpi\n      revert(0x00, 0x00)\n    tag_1:\n      pop\n      jumpi(tag_2, lt(calldatasize, 0x04))\n      shr(0xe0, calldataload(0x00))\n      dup1\n      0x95d89b41\n      gt\n      tag_22\n      jumpi\n      dup1\n      0xc3354402\n      gt\n      tag_23\n      jumpi\n      dup1\n      0xc3354402\n      eq\n      tag_17\n      jumpi\n      dup1\n      0xc87b56dd\n      eq\n      tag_18\n      jumpi\n      dup1\n      0xedc3bc3f\n      eq\n      tag_19\n      jumpi\n      dup1\n      0xfebe4909\n      eq\n      tag_20\n      jumpi\n      dup1\n      0xffb74e64\n      eq\n      tag_21\n      jumpi\n      jump(tag_2)\n    tag_23:\n      dup1\n      0x95d89b41\n      eq\n      tag_12\n      jumpi\n      dup1\n      0x992924a6\n      eq\n      tag_13\n      jumpi\n      dup1\n      0xa7cc0136\n      eq\n      tag_14\n      jumpi\n      dup1\n      0xb88d4fde\n      eq\n      tag_15\n      jumpi\n      dup1\n      0xbb8a16bd\n      eq\n      tag_16\n      jumpi\n      jump(tag_2)\n    tag_22:\n      dup1\n      0x40c10f19\n      gt\n      tag_24\n      jumpi\n      dup1\n      0x40c10f19\n      eq\n      tag_7\n      jumpi\n      dup1\n      0x42842e0e\n      eq\n      tag_8\n      jumpi\n      dup1\n      0x6352211e\n      eq\n      tag_9\n      jumpi\n      dup1\n      0x6ebcf607\n      eq\n      tag_10\n      jumpi\n      dup1\n      0x70a08231\n      eq\n      tag_11\n      jumpi\n      jump(tag_2)\n    tag_24:\n      dup1\n      0x01ffc9a7\n      eq\n      tag_3\n      jumpi\n      dup1\n      0x06fdde03\n      eq\n      tag_4\n      jumpi\n      dup1\n      0x081812fc\n      eq\n      tag_5\n      jumpi\n      dup1\n      0x23b872dd\n      eq\n      tag_6\n      jumpi\n    tag_2:\n      revert(0x00, 0x00)\n        /* \"34_ERC721/ERC721.sol\":1128:1425  function supportsInterface(bytes4 interfaceId) external pure override returns (bool){... */\n    tag_3:\n      tag_25\n      0x04\n      dup1\n      calldatasize\n      sub\n      dup2\n      add\n      swap1\n      tag_26\n      swap2\n      swap1\n      tag_27\n      jump\t// in\n    tag_26:\n      tag_28\n      jump\t// in\n    tag_25:\n      mload(0x40)\n      tag_29\n      swap2\n      swap1\n      tag_30\n      jump\t// in\n    tag_29:\n      mload(0x40)\n      dup1\n      swap2\n      sub\n      swap1\n      return\n        /* \"34_ERC721/ERC721.sol\":347:374  string public override name */\n    tag_4:\n      tag_31\n      tag_32\n      jump\t// in\n    tag_31:\n      mload(0x40)\n      tag_33\n      swap2\n      swap1\n      tag_34\n      jump\t// in\n    tag_33:\n      mload(0x40)\n      dup1\n      swap2\n      sub\n      swap1\n      return\n        /* \"34_ERC721/ERC721.sol\":3461:3748  function getApproved(uint256 tokenId) external view override returns (address operator) {... */\n    tag_5:\n      tag_35\n      0x04\n      dup1\n      calldatasize\n      sub\n      dup2\n      add\n      swap1\n      tag_36\n      swap2\n      swap1\n      tag_37\n      jump\t// in\n    tag_36:\n      tag_38\n      jump\t// in\n    tag_35:\n      mload(0x40)\n      tag_39\n      swap2\n      swap1\n      tag_40\n      jump\t// in\n    tag_39:\n      mload(0x40)\n      dup1\n      swap2\n      sub\n      swap1\n      return\n        /* \"34_ERC721/ERC721.sol\":2598:2905  function transferFrom (address from, address to, uint256 tokenId) external override {... */\n    tag_6:\n      tag_41\n      0x04\n      dup1\n      calldatasize\n      sub\n      dup2\n      add\n      swap1\n      tag_42\n      swap2\n      swap1\n      tag_43\n      jump\t// in\n    tag_42:\n      tag_44\n      jump\t// in\n    tag_41:\n      stop\n        /* \"34_ERC721/WTFApe.sol\":504:668  function mint(address to, uint256 tokenId) external  {... */\n    tag_7:\n      tag_45\n      0x04\n      dup1\n      calldatasize\n      sub\n      dup2\n      add\n      swap1\n      tag_46\n      swap2\n      swap1\n      tag_47\n      jump\t// in\n    tag_46:\n      tag_48\n      jump\t// in\n    tag_45:\n      stop\n        /* \"34_ERC721/ERC721.sol\":2218:2590  function safeTransferFrom(address from, address to, uint256 tokenId) external override {... */\n    tag_8:\n      tag_49\n      0x04\n      dup1\n      calldatasize\n      sub\n      dup2\n      add\n      swap1\n      tag_50\n      swap2\n      swap1\n      tag_43\n      jump\t// in\n    tag_50:\n      tag_51\n      jump\t// in\n    tag_49:\n      stop\n        /* \"34_ERC721/ERC721.sol\":1630:1815  function ownerOf(uint tokenId) public view override returns (address owner){... */\n    tag_9:\n      tag_52\n      0x04\n      dup1\n      calldatasize\n      sub\n      dup2\n      add\n      swap1\n      tag_53\n      swap2\n      swap1\n      tag_37\n      jump\t// in\n    tag_53:\n      tag_54\n      jump\t// in\n    tag_52:\n      mload(0x40)\n      tag_55\n      swap2\n      swap1\n      tag_40\n      jump\t// in\n    tag_55:\n      mload(0x40)\n      dup1\n      swap2\n      sub\n      swap1\n      return\n        /* \"34_ERC721/ERC721.sol\":469:514  mapping(address => uint256 ) public _balances */\n    tag_10:\n      tag_56\n      0x04\n      dup1\n      calldatasize\n      sub\n      dup2\n      add\n      swap1\n      tag_57\n      swap2\n      swap1\n      tag_58\n      jump\t// in\n    tag_57:\n      tag_59\n      jump\t// in\n    tag_56:\n      mload(0x40)\n      tag_60\n      swap2\n      swap1\n      tag_61\n      jump\t// in\n    tag_60:\n      mload(0x40)\n      dup1\n      swap2\n      sub\n      swap1\n      return\n        /* \"34_ERC721/ERC721.sol\":1433:1622  function balanceOf (address owner) external view override returns (uint256 balance) {... */\n    tag_11:\n      tag_62\n      0x04\n      dup1\n      calldatasize\n      sub\n      dup2\n      add\n      swap1\n      tag_63\n      swap2\n      swap1\n      tag_58\n      jump\t// in\n    tag_63:\n      tag_64\n      jump\t// in\n    tag_62:\n      mload(0x40)\n      tag_65\n      swap2\n      swap1\n      tag_61\n      jump\t// in\n    tag_65:\n      mload(0x40)\n      dup1\n      swap2\n      sub\n      swap1\n      return\n        /* \"34_ERC721/ERC721.sol\":381:410  string public override symbol */\n    tag_12:\n      tag_66\n      tag_67\n      jump\t// in\n    tag_66:\n      mload(0x40)\n      tag_68\n      swap2\n      swap1\n      tag_34\n      jump\t// in\n    tag_68:\n      mload(0x40)\n      dup1\n      swap2\n      sub\n      swap1\n      return\n        /* \"34_ERC721/ERC721.sol\":419:462  mapping(uint256 => address ) public _owners */\n    tag_13:\n      tag_69\n      0x04\n      dup1\n      calldatasize\n      sub\n      dup2\n      add\n      swap1\n      tag_70\n      swap2\n      swap1\n      tag_37\n      jump\t// in\n    tag_70:\n      tag_71\n      jump\t// in\n    tag_69:\n      mload(0x40)\n      tag_72\n      swap2\n      swap1\n      tag_40\n      jump\t// in\n    tag_72:\n      mload(0x40)\n      dup1\n      swap2\n      sub\n      swap1\n      return\n        /* \"34_ERC721/ERC721.sol\":521:572  mapping(uint256 => address ) public _tokenApprovals */\n    tag_14:\n      tag_73\n      0x04\n      dup1\n      calldatasize\n      sub\n      dup2\n      add\n      swap1\n      tag_74\n      swap2\n      swap1\n      tag_37\n      jump\t// in\n    tag_74:\n      tag_75\n      jump\t// in\n    tag_73:\n      mload(0x40)\n      tag_76\n      swap2\n      swap1\n      tag_40\n      jump\t// in\n    tag_76:\n      mload(0x40)\n      dup1\n      swap2\n      sub\n      swap1\n      return\n        /* \"34_ERC721/ERC721.sol\":1823:2210  function safeTransferFrom(address from, address to, uint256 tokenId, bytes calldata data) external override {... */\n    tag_15:\n      tag_77\n      0x04\n      dup1\n      calldatasize\n      sub\n      dup2\n      add\n      swap1\n      tag_78\n      swap2\n      swap1\n      tag_79\n      jump\t// in\n    tag_78:\n      tag_80\n      jump\t// in\n    tag_77:\n      stop\n        /* \"34_ERC721/WTFApe.sol\":133:161  uint public MAX_APES = 10000 */\n    tag_16:\n      tag_81\n      tag_82\n      jump\t// in\n    tag_81:\n      mload(0x40)\n      tag_83\n      swap2\n      swap1\n      tag_61\n      jump\t// in\n    tag_83:\n      mload(0x40)\n      dup1\n      swap2\n      sub\n      swap1\n      return\n        /* \"34_ERC721/ERC721.sol\":3247:3453  function setApproveAll(address operator, bool approved) external override {... */\n    tag_17:\n      tag_84\n      0x04\n      dup1\n      calldatasize\n      sub\n      dup2\n      add\n      swap1\n      tag_85\n      swap2\n      swap1\n      tag_86\n      jump\t// in\n    tag_85:\n      tag_87\n      jump\t// in\n    tag_84:\n      stop\n        /* \"34_ERC721/ERC721.sol\":5811:6127  function tokenURI(uint256 tokenId) public view virtual override returns (string memory) {... */\n    tag_18:\n      tag_88\n      0x04\n      dup1\n      calldatasize\n      sub\n      dup2\n      add\n      swap1\n      tag_89\n      swap2\n      swap1\n      tag_37\n      jump\t// in\n    tag_89:\n      tag_90\n      jump\t// in\n    tag_88:\n      mload(0x40)\n      tag_91\n      swap2\n      swap1\n      tag_34\n      jump\t// in\n    tag_91:\n      mload(0x40)\n      dup1\n      swap2\n      sub\n      swap1\n      return\n        /* \"34_ERC721/ERC721.sol\":579:649  mapping(address => mapping(address => bool)) public _operatorApprovals */\n    tag_19:\n      tag_92\n      0x04\n      dup1\n      calldatasize\n      sub\n      dup2\n      add\n      swap1\n      tag_93\n      swap2\n      swap1\n      tag_94\n      jump\t// in\n    tag_93:\n      tag_95\n      jump\t// in\n    tag_92:\n      mload(0x40)\n      tag_96\n      swap2\n      swap1\n      tag_30\n      jump\t// in\n    tag_96:\n      mload(0x40)\n      dup1\n      swap2\n      sub\n      swap1\n      return\n        /* \"34_ERC721/ERC721.sol\":2913:3239  function approve(uint256 tokenId, address operator) external override{... */\n    tag_20:\n      tag_97\n      0x04\n      dup1\n      calldatasize\n      sub\n      dup2\n      add\n      swap1\n      tag_98\n      swap2\n      swap1\n      tag_99\n      jump\t// in\n    tag_98:\n      tag_100\n      jump\t// in\n    tag_97:\n      stop\n        /* \"34_ERC721/ERC721.sol\":3756:3901  function isApprovedAll(address operator) external view override returns (bool) {... */\n    tag_21:\n      tag_101\n      0x04\n      dup1\n      calldatasize\n      sub\n      dup2\n      add\n      swap1\n      tag_102\n      swap2\n      swap1\n      tag_58\n      jump\t// in\n    tag_102:\n      tag_103\n      jump\t// in\n    tag_101:\n      mload(0x40)\n      tag_104\n      swap2\n      swap1\n      tag_30\n      jump\t// in\n    tag_104:\n      mload(0x40)\n      dup1\n      swap2\n      sub\n      swap1\n      return\n        /* \"34_ERC721/ERC721.sol\":1128:1425  function supportsInterface(bytes4 interfaceId) external pure override returns (bool){... */\n    tag_28:\n        /* \"34_ERC721/ERC721.sol\":1207:1211  bool */\n      0x00\n        /* \"34_ERC721/ERC721.sol\":1262:1287  type(IERC721).interfaceId */\n      0x67e1b100000000000000000000000000000000000000000000000000000000\n        /* \"34_ERC721/ERC721.sol\":1247:1287  interfaceId == type(IERC721).interfaceId */\n      not(0xffffffffffffffffffffffffffffffffffffffffffffffffffffffff)\n      and\n        /* \"34_ERC721/ERC721.sol\":1247:1258  interfaceId */\n      dup3\n        /* \"34_ERC721/ERC721.sol\":1247:1287  interfaceId == type(IERC721).interfaceId */\n      not(0xffffffffffffffffffffffffffffffffffffffffffffffffffffffff)\n      and\n      eq\n        /* \"34_ERC721/ERC721.sol\":1247:1348  interfaceId == type(IERC721).interfaceId ||... */\n      dup1\n      tag_106\n      jumpi\n      pop\n        /* \"34_ERC721/ERC721.sol\":1323:1348  type(IERC165).interfaceId */\n      0x01ffc9a700000000000000000000000000000000000000000000000000000000\n        /* \"34_ERC721/ERC721.sol\":1308:1348  interfaceId == type(IERC165).interfaceId */\n      not(0xffffffffffffffffffffffffffffffffffffffffffffffffffffffff)\n      and\n        /* \"34_ERC721/ERC721.sol\":1308:1319  interfaceId */\n      dup3\n        /* \"34_ERC721/ERC721.sol\":1308:1348  interfaceId == type(IERC165).interfaceId */\n      not(0xffffffffffffffffffffffffffffffffffffffffffffffffffffffff)\n      and\n      eq\n        /* \"34_ERC721/ERC721.sol\":1247:1348  interfaceId == type(IERC721).interfaceId ||... */\n    tag_106:\n        /* \"34_ERC721/ERC721.sol\":1247:1417  interfaceId == type(IERC721).interfaceId ||... */\n      dup1\n      tag_107\n      jumpi\n      pop\n        /* \"34_ERC721/ERC721.sol\":1384:1417  type(IERC721Metadata).interfaceId */\n      0x5b5e139f00000000000000000000000000000000000000000000000000000000\n        /* \"34_ERC721/ERC721.sol\":1369:1417  interfaceId == type(IERC721Metadata).interfaceId */\n      not(0xffffffffffffffffffffffffffffffffffffffffffffffffffffffff)\n      and\n        /* \"34_ERC721/ERC721.sol\":1369:1380  interfaceId */\n      dup3\n        /* \"34_ERC721/ERC721.sol\":1369:1417  interfaceId == type(IERC721Metadata).interfaceId */\n      not(0xffffffffffffffffffffffffffffffffffffffffffffffffffffffff)\n      and\n      eq\n        /* \"34_ERC721/ERC721.sol\":1247:1417  interfaceId == type(IERC721).interfaceId ||... */\n    tag_107:\n        /* \"34_ERC721/ERC721.sol\":1223:1417  return... */\n      swap1\n      pop\n        /* \"34_ERC721/ERC721.sol\":1128:1425  function supportsInterface(bytes4 interfaceId) external pure override returns (bool){... */\n      swap2\n      swap1\n      pop\n      jump\t// out\n        /* \"34_ERC721/ERC721.sol\":347:374  string public override name */\n    tag_32:\n      0x00\n      dup1\n      sload\n      tag_108\n      swap1\n      tag_109\n      jump\t// in\n    tag_108:\n      dup1\n      0x1f\n      add\n      0x20\n      dup1\n      swap2\n      div\n      mul\n      0x20\n      add\n      mload(0x40)\n      swap1\n      dup2\n      add\n      0x40\n      mstore\n      dup1\n      swap3\n      swap2\n      swap1\n      dup2\n      dup2\n      mstore\n      0x20\n      add\n      dup3\n      dup1\n      sload\n      tag_110\n      swap1\n      tag_109\n      jump\t// in\n    tag_110:\n      dup1\n      iszero\n      tag_111\n      jumpi\n      dup1\n      0x1f\n      lt\n      tag_112\n      jumpi\n      0x0100\n      dup1\n      dup4\n      sload\n      div\n      mul\n      dup4\n      mstore\n      swap2\n      0x20\n      add\n      swap2\n      jump(tag_111)\n    tag_112:\n      dup3\n      add\n      swap2\n      swap1\n      0x00\n      mstore\n      keccak256(0x00, 0x20)\n      swap1\n    tag_113:\n      dup2\n      sload\n      dup2\n      mstore\n      swap1\n      0x01\n      add\n      swap1\n      0x20\n      add\n      dup1\n      dup4\n      gt\n      tag_113\n      jumpi\n      dup3\n      swap1\n      sub\n      0x1f\n      and\n      dup3\n      add\n      swap2\n    tag_111:\n      pop\n      pop\n      pop\n      pop\n      pop\n      dup2\n      jump\t// out\n        /* \"34_ERC721/ERC721.sol\":3461:3748  function getApproved(uint256 tokenId) external view override returns (address operator) {... */\n    tag_38:\n        /* \"34_ERC721/ERC721.sol\":3531:3547  address operator */\n      0x00\n        /* \"34_ERC721/ERC721.sol\":3597:3598  0 */\n      0x00\n        /* \"34_ERC721/ERC721.sol\":3569:3599  ownerOf(tokenId) != address(0) */\n      0xffffffffffffffffffffffffffffffffffffffff\n      and\n        /* \"34_ERC721/ERC721.sol\":3569:3585  ownerOf(tokenId) */\n      tag_115\n        /* \"34_ERC721/ERC721.sol\":3577:3584  tokenId */\n      dup4\n        /* \"34_ERC721/ERC721.sol\":3569:3576  ownerOf */\n      tag_54\n        /* \"34_ERC721/ERC721.sol\":3569:3585  ownerOf(tokenId) */\n      jump\t// in\n    tag_115:\n        /* \"34_ERC721/ERC721.sol\":3569:3599  ownerOf(tokenId) != address(0) */\n      0xffffffffffffffffffffffffffffffffffffffff\n      and\n      sub\n        /* \"34_ERC721/ERC721.sol\":3560:3604  require (ownerOf(tokenId) != address(0), \"\") */\n      tag_116\n      jumpi\n      mload(0x40)\n      0x08c379a000000000000000000000000000000000000000000000000000000000\n      dup2\n      mstore\n      0x04\n      add\n      tag_117\n      swap1\n      tag_118\n      jump\t// in\n    tag_117:\n      mload(0x40)\n      dup1\n      swap2\n      sub\n      swap1\n      revert\n    tag_116:\n        /* \"34_ERC721/ERC721.sol\":3647:3662  _tokenApprovals */\n      0x04\n        /* \"34_ERC721/ERC721.sol\":3647:3671  _tokenApprovals[tokenId] */\n      0x00\n        /* \"34_ERC721/ERC721.sol\":3663:3670  tokenId */\n      dup4\n        /* \"34_ERC721/ERC721.sol\":3647:3671  _tokenApprovals[tokenId] */\n      dup2\n      mstore\n      0x20\n      add\n      swap1\n      dup2\n      mstore\n      0x20\n      add\n      0x00\n      keccak256\n      0x00\n      swap1\n      sload\n      swap1\n      0x0100\n      exp\n      swap1\n      div\n      0xffffffffffffffffffffffffffffffffffffffff\n      and\n        /* \"34_ERC721/ERC721.sol\":3636:3671  operator = _tokenApprovals[tokenId] */\n      swap1\n      pop\n        /* \"34_ERC721/ERC721.sol\":3710:3711  0 */\n      0x00\n        /* \"34_ERC721/ERC721.sol\":3690:3712  operator == address(0) */\n      0xffffffffffffffffffffffffffffffffffffffff\n      and\n        /* \"34_ERC721/ERC721.sol\":3690:3698  operator */\n      dup2\n        /* \"34_ERC721/ERC721.sol\":3690:3712  operator == address(0) */\n      0xffffffffffffffffffffffffffffffffffffffff\n      and\n      eq\n        /* \"34_ERC721/ERC721.sol\":3682:3717  require(operator == address(0), \"\") */\n      tag_119\n      jumpi\n      mload(0x40)\n      0x08c379a000000000000000000000000000000000000000000000000000000000\n      dup2\n      mstore\n      0x04\n      add\n      tag_120\n      swap1\n      tag_118\n      jump\t// in\n    tag_120:\n      mload(0x40)\n      dup1\n      swap2\n      sub\n      swap1\n      revert\n    tag_119:\n        /* \"34_ERC721/ERC721.sol\":3461:3748  function getApproved(uint256 tokenId) external view override returns (address operator) {... */\n      swap2\n      swap1\n      pop\n      jump\t// out\n        /* \"34_ERC721/ERC721.sol\":2598:2905  function transferFrom (address from, address to, uint256 tokenId) external override {... */\n    tag_44:\n        /* \"34_ERC721/ERC721.sol\":2693:2706  address owner */\n      0x00\n        /* \"34_ERC721/ERC721.sol\":2709:2725  ownerOf(tokenId) */\n      tag_122\n        /* \"34_ERC721/ERC721.sol\":2717:2724  tokenId */\n      dup3\n        /* \"34_ERC721/ERC721.sol\":2709:2716  ownerOf */\n      tag_54\n        /* \"34_ERC721/ERC721.sol\":2709:2725  ownerOf(tokenId) */\n      jump\t// in\n    tag_122:\n        /* \"34_ERC721/ERC721.sol\":2693:2725  address owner = ownerOf(tokenId) */\n      swap1\n      pop\n        /* \"34_ERC721/ERC721.sol\":2745:2790  _isApprovedOrOwner(owner, msg.sender,tokenId) */\n      tag_123\n        /* \"34_ERC721/ERC721.sol\":2764:2769  owner */\n      dup2\n        /* \"34_ERC721/ERC721.sol\":2771:2781  msg.sender */\n      caller\n        /* \"34_ERC721/ERC721.sol\":2782:2789  tokenId */\n      dup5\n        /* \"34_ERC721/ERC721.sol\":2745:2763  _isApprovedOrOwner */\n      tag_124\n        /* \"34_ERC721/ERC721.sol\":2745:2790  _isApprovedOrOwner(owner, msg.sender,tokenId) */\n      jump\t// in\n    tag_123:\n        /* \"34_ERC721/ERC721.sol\":2736:2796  require (_isApprovedOrOwner(owner, msg.sender,tokenId) , \"\") */\n      tag_125\n      jumpi\n      mload(0x40)\n      0x08c379a000000000000000000000000000000000000000000000000000000000\n      dup2\n      mstore\n      0x04\n      add\n      tag_126\n      swap1\n      tag_118\n      jump\t// in\n    tag_126:\n      mload(0x40)\n      dup1\n      swap2\n      sub\n      swap1\n      revert\n    tag_125:\n        /* \"34_ERC721/ERC721.sol\":2869:2897  _transfer(from, to, tokenId) */\n      tag_127\n        /* \"34_ERC721/ERC721.sol\":2879:2883  from */\n      dup5\n        /* \"34_ERC721/ERC721.sol\":2885:2887  to */\n      dup5\n        /* \"34_ERC721/ERC721.sol\":2889:2896  tokenId */\n      dup5\n        /* \"34_ERC721/ERC721.sol\":2869:2878  _transfer */\n      tag_128\n        /* \"34_ERC721/ERC721.sol\":2869:2897  _transfer(from, to, tokenId) */\n      jump\t// in\n    tag_127:\n        /* \"34_ERC721/ERC721.sol\":2682:2905  {... */\n      pop\n        /* \"34_ERC721/ERC721.sol\":2598:2905  function transferFrom (address from, address to, uint256 tokenId) external override {... */\n      pop\n      pop\n      pop\n      jump\t// out\n        /* \"34_ERC721/WTFApe.sol\":504:668  function mint(address to, uint256 tokenId) external  {... */\n    tag_48:\n        /* \"34_ERC721/WTFApe.sol\":585:586  0 */\n      0x00\n        /* \"34_ERC721/WTFApe.sol\":576:583  tokenId */\n      dup2\n        /* \"34_ERC721/WTFApe.sol\":576:586  tokenId>=0 */\n      lt\n      iszero\n        /* \"34_ERC721/WTFApe.sol\":576:606  tokenId>=0 && tokenId<MAX_APES */\n      dup1\n      iszero\n      tag_130\n      jumpi\n      pop\n        /* \"34_ERC721/WTFApe.sol\":598:606  MAX_APES */\n      sload(0x06)\n        /* \"34_ERC721/WTFApe.sol\":590:597  tokenId */\n      dup2\n        /* \"34_ERC721/WTFApe.sol\":590:606  tokenId<MAX_APES */\n      lt\n        /* \"34_ERC721/WTFApe.sol\":576:606  tokenId>=0 && tokenId<MAX_APES */\n    tag_130:\n        /* \"34_ERC721/WTFApe.sol\":568:631  require(tokenId>=0 && tokenId<MAX_APES, \"tokenId out of range\") */\n      tag_131\n      jumpi\n      mload(0x40)\n      0x08c379a000000000000000000000000000000000000000000000000000000000\n      dup2\n      mstore\n      0x04\n      add\n      tag_132\n      swap1\n      tag_133\n      jump\t// in\n    tag_132:\n      mload(0x40)\n      dup1\n      swap2\n      sub\n      swap1\n      revert\n    tag_131:\n        /* \"34_ERC721/WTFApe.sol\":642:660  _mint(to, tokenId) */\n      tag_134\n        /* \"34_ERC721/WTFApe.sol\":648:650  to */\n      dup3\n        /* \"34_ERC721/WTFApe.sol\":652:659  tokenId */\n      dup3\n        /* \"34_ERC721/WTFApe.sol\":642:647  _mint */\n      tag_135\n        /* \"34_ERC721/WTFApe.sol\":642:660  _mint(to, tokenId) */\n      jump\t// in\n    tag_134:\n        /* \"34_ERC721/WTFApe.sol\":504:668  function mint(address to, uint256 tokenId) external  {... */\n      pop\n      pop\n      jump\t// out\n        /* \"34_ERC721/ERC721.sol\":2218:2590  function safeTransferFrom(address from, address to, uint256 tokenId) external override {... */\n    tag_51:\n        /* \"34_ERC721/ERC721.sol\":2316:2329  address owner */\n      0x00\n        /* \"34_ERC721/ERC721.sol\":2332:2348  ownerOf(tokenId) */\n      tag_137\n        /* \"34_ERC721/ERC721.sol\":2340:2347  tokenId */\n      dup3\n        /* \"34_ERC721/ERC721.sol\":2332:2339  ownerOf */\n      tag_54\n        /* \"34_ERC721/ERC721.sol\":2332:2348  ownerOf(tokenId) */\n      jump\t// in\n    tag_137:\n        /* \"34_ERC721/ERC721.sol\":2316:2348  address owner = ownerOf(tokenId) */\n      swap1\n      pop\n        /* \"34_ERC721/ERC721.sol\":2368:2414  _isApprovedOrOwner(owner, msg.sender, tokenId) */\n      tag_138\n        /* \"34_ERC721/ERC721.sol\":2387:2392  owner */\n      dup2\n        /* \"34_ERC721/ERC721.sol\":2394:2404  msg.sender */\n      caller\n        /* \"34_ERC721/ERC721.sol\":2406:2413  tokenId */\n      dup5\n        /* \"34_ERC721/ERC721.sol\":2368:2386  _isApprovedOrOwner */\n      tag_124\n        /* \"34_ERC721/ERC721.sol\":2368:2414  _isApprovedOrOwner(owner, msg.sender, tokenId) */\n      jump\t// in\n    tag_138:\n        /* \"34_ERC721/ERC721.sol\":2359:2420  require (_isApprovedOrOwner(owner, msg.sender, tokenId) , \"\") */\n      tag_139\n      jumpi\n      mload(0x40)\n      0x08c379a000000000000000000000000000000000000000000000000000000000\n      dup2\n      mstore\n      0x04\n      add\n      tag_140\n      swap1\n      tag_118\n      jump\t// in\n    tag_140:\n      mload(0x40)\n      dup1\n      swap2\n      sub\n      swap1\n      revert\n    tag_139:\n        /* \"34_ERC721/ERC721.sol\":2493:2521  _transfer(from, to, tokenId) */\n      tag_141\n        /* \"34_ERC721/ERC721.sol\":2503:2507  from */\n      dup5\n        /* \"34_ERC721/ERC721.sol\":2509:2511  to */\n      dup5\n        /* \"34_ERC721/ERC721.sol\":2513:2520  tokenId */\n      dup5\n        /* \"34_ERC721/ERC721.sol\":2493:2502  _transfer */\n      tag_128\n        /* \"34_ERC721/ERC721.sol\":2493:2521  _transfer(from, to, tokenId) */\n      jump\t// in\n    tag_141:\n        /* \"34_ERC721/ERC721.sol\":2532:2582  _checkERC721Received(from, to, tokenId, bytes(\"\")) */\n      tag_142\n        /* \"34_ERC721/ERC721.sol\":2553:2557  from */\n      dup5\n        /* \"34_ERC721/ERC721.sol\":2559:2561  to */\n      dup5\n        /* \"34_ERC721/ERC721.sol\":2563:2570  tokenId */\n      dup5\n        /* \"34_ERC721/ERC721.sol\":2572:2581  bytes(\"\") */\n      mload(0x40)\n      dup1\n      0x20\n      add\n      0x40\n      mstore\n      dup1\n      0x00\n      dup2\n      mstore\n      pop\n        /* \"34_ERC721/ERC721.sol\":2532:2552  _checkERC721Received */\n      tag_143\n        /* \"34_ERC721/ERC721.sol\":2532:2582  _checkERC721Received(from, to, tokenId, bytes(\"\")) */\n      jump\t// in\n    tag_142:\n        /* \"34_ERC721/ERC721.sol\":2305:2590  {... */\n      pop\n        /* \"34_ERC721/ERC721.sol\":2218:2590  function safeTransferFrom(address from, address to, uint256 tokenId) external override {... */\n      pop\n      pop\n      pop\n      jump\t// out\n        /* \"34_ERC721/ERC721.sol\":1630:1815  function ownerOf(uint tokenId) public view override returns (address owner){... */\n    tag_54:\n        /* \"34_ERC721/ERC721.sol\":1691:1704  address owner */\n      0x00\n        /* \"34_ERC721/ERC721.sol\":1724:1731  _owners */\n      0x02\n        /* \"34_ERC721/ERC721.sol\":1724:1740  _owners[tokenId] */\n      0x00\n        /* \"34_ERC721/ERC721.sol\":1732:1739  tokenId */\n      dup4\n        /* \"34_ERC721/ERC721.sol\":1724:1740  _owners[tokenId] */\n      dup2\n      mstore\n      0x20\n      add\n      swap1\n      dup2\n      mstore\n      0x20\n      add\n      0x00\n      keccak256\n      0x00\n      swap1\n      sload\n      swap1\n      0x0100\n      exp\n      swap1\n      div\n      0xffffffffffffffffffffffffffffffffffffffff\n      and\n        /* \"34_ERC721/ERC721.sol\":1716:1740  owner = _owners[tokenId] */\n      swap1\n      pop\n        /* \"34_ERC721/ERC721.sol\":1777:1778  0 */\n      0x00\n        /* \"34_ERC721/ERC721.sol\":1760:1779  owner != address(0) */\n      0xffffffffffffffffffffffffffffffffffffffff\n      and\n        /* \"34_ERC721/ERC721.sol\":1760:1765  owner */\n      dup2\n        /* \"34_ERC721/ERC721.sol\":1760:1779  owner != address(0) */\n      0xffffffffffffffffffffffffffffffffffffffff\n      and\n      sub\n        /* \"34_ERC721/ERC721.sol\":1751:1784  require (owner != address(0), \"\") */\n      tag_145\n      jumpi\n      mload(0x40)\n      0x08c379a000000000000000000000000000000000000000000000000000000000\n      dup2\n      mstore\n      0x04\n      add\n      tag_146\n      swap1\n      tag_118\n      jump\t// in\n    tag_146:\n      mload(0x40)\n      dup1\n      swap2\n      sub\n      swap1\n      revert\n    tag_145:\n        /* \"34_ERC721/ERC721.sol\":1630:1815  function ownerOf(uint tokenId) public view override returns (address owner){... */\n      swap2\n      swap1\n      pop\n      jump\t// out\n        /* \"34_ERC721/ERC721.sol\":469:514  mapping(address => uint256 ) public _balances */\n    tag_59:\n      mstore(0x20, 0x03)\n      dup1\n      0x00\n      mstore\n      keccak256(0x00, 0x40)\n      0x00\n      swap2\n      pop\n      swap1\n      pop\n      sload\n      dup2\n      jump\t// out\n        /* \"34_ERC721/ERC721.sol\":1433:1622  function balanceOf (address owner) external view override returns (uint256 balance) {... */\n    tag_64:\n        /* \"34_ERC721/ERC721.sol\":1500:1515  uint256 balance */\n      0x00\n        /* \"34_ERC721/ERC721.sol\":1553:1554  0 */\n      0x00\n        /* \"34_ERC721/ERC721.sol\":1536:1555  owner != address(0) */\n      0xffffffffffffffffffffffffffffffffffffffff\n      and\n        /* \"34_ERC721/ERC721.sol\":1536:1541  owner */\n      dup3\n        /* \"34_ERC721/ERC721.sol\":1536:1555  owner != address(0) */\n      0xffffffffffffffffffffffffffffffffffffffff\n      and\n      sub\n        /* \"34_ERC721/ERC721.sol\":1528:1560  require(owner != address(0), \"\") */\n      tag_148\n      jumpi\n      mload(0x40)\n      0x08c379a000000000000000000000000000000000000000000000000000000000\n      dup2\n      mstore\n      0x04\n      add\n      tag_149\n      swap1\n      tag_118\n      jump\t// in\n    tag_149:\n      mload(0x40)\n      dup1\n      swap2\n      sub\n      swap1\n      revert\n    tag_148:\n        /* \"34_ERC721/ERC721.sol\":1598:1607  _balances */\n      0x03\n        /* \"34_ERC721/ERC721.sol\":1598:1614  _balances[owner] */\n      0x00\n        /* \"34_ERC721/ERC721.sol\":1608:1613  owner */\n      dup4\n        /* \"34_ERC721/ERC721.sol\":1598:1614  _balances[owner] */\n      0xffffffffffffffffffffffffffffffffffffffff\n      and\n      0xffffffffffffffffffffffffffffffffffffffff\n      and\n      dup2\n      mstore\n      0x20\n      add\n      swap1\n      dup2\n      mstore\n      0x20\n      add\n      0x00\n      keccak256\n      sload\n        /* \"34_ERC721/ERC721.sol\":1591:1614  return _balances[owner] */\n      swap1\n      pop\n        /* \"34_ERC721/ERC721.sol\":1433:1622  function balanceOf (address owner) external view override returns (uint256 balance) {... */\n      swap2\n      swap1\n      pop\n      jump\t// out\n        /* \"34_ERC721/ERC721.sol\":381:410  string public override symbol */\n    tag_67:\n      0x01\n      dup1\n      sload\n      tag_150\n      swap1\n      tag_109\n      jump\t// in\n    tag_150:\n      dup1\n      0x1f\n      add\n      0x20\n      dup1\n      swap2\n      div\n      mul\n      0x20\n      add\n      mload(0x40)\n      swap1\n      dup2\n      add\n      0x40\n      mstore\n      dup1\n      swap3\n      swap2\n      swap1\n      dup2\n      dup2\n      mstore\n      0x20\n      add\n      dup3\n      dup1\n      sload\n      tag_151\n      swap1\n      tag_109\n      jump\t// in\n    tag_151:\n      dup1\n      iszero\n      tag_152\n      jumpi\n      dup1\n      0x1f\n      lt\n      tag_153\n      jumpi\n      0x0100\n      dup1\n      dup4\n      sload\n      div\n      mul\n      dup4\n      mstore\n      swap2\n      0x20\n      add\n      swap2\n      jump(tag_152)\n    tag_153:\n      dup3\n      add\n      swap2\n      swap1\n      0x00\n      mstore\n      keccak256(0x00, 0x20)\n      swap1\n    tag_154:\n      dup2\n      sload\n      dup2\n      mstore\n      swap1\n      0x01\n      add\n      swap1\n      0x20\n      add\n      dup1\n      dup4\n      gt\n      tag_154\n      jumpi\n      dup3\n      swap1\n      sub\n      0x1f\n      and\n      dup3\n      add\n      swap2\n    tag_152:\n      pop\n      pop\n      pop\n      pop\n      pop\n      dup2\n      jump\t// out\n        /* \"34_ERC721/ERC721.sol\":419:462  mapping(uint256 => address ) public _owners */\n    tag_71:\n      mstore(0x20, 0x02)\n      dup1\n      0x00\n      mstore\n      keccak256(0x00, 0x40)\n      0x00\n      swap2\n      pop\n      sload\n      swap1\n      0x0100\n      exp\n      swap1\n      div\n      0xffffffffffffffffffffffffffffffffffffffff\n      and\n      dup2\n      jump\t// out\n        /* \"34_ERC721/ERC721.sol\":521:572  mapping(uint256 => address ) public _tokenApprovals */\n    tag_75:\n      mstore(0x20, 0x04)\n      dup1\n      0x00\n      mstore\n      keccak256(0x00, 0x40)\n      0x00\n      swap2\n      pop\n      sload\n      swap1\n      0x0100\n      exp\n      swap1\n      div\n      0xffffffffffffffffffffffffffffffffffffffff\n      and\n      dup2\n      jump\t// out\n        /* \"34_ERC721/ERC721.sol\":1823:2210  function safeTransferFrom(address from, address to, uint256 tokenId, bytes calldata data) external override {... */\n    tag_80:\n        /* \"34_ERC721/ERC721.sol\":1942:1955  address owner */\n      0x00\n        /* \"34_ERC721/ERC721.sol\":1958:1974  ownerOf(tokenId) */\n      tag_156\n        /* \"34_ERC721/ERC721.sol\":1966:1973  tokenId */\n      dup5\n        /* \"34_ERC721/ERC721.sol\":1958:1965  ownerOf */\n      tag_54\n        /* \"34_ERC721/ERC721.sol\":1958:1974  ownerOf(tokenId) */\n      jump\t// in\n    tag_156:\n        /* \"34_ERC721/ERC721.sol\":1942:1974  address owner = ownerOf(tokenId) */\n      swap1\n      pop\n        /* \"34_ERC721/ERC721.sol\":1994:2039  _isApprovedOrOwner(owner, msg.sender,tokenId) */\n      tag_157\n        /* \"34_ERC721/ERC721.sol\":2013:2018  owner */\n      dup2\n        /* \"34_ERC721/ERC721.sol\":2020:2030  msg.sender */\n      caller\n        /* \"34_ERC721/ERC721.sol\":2031:2038  tokenId */\n      dup7\n        /* \"34_ERC721/ERC721.sol\":1994:2012  _isApprovedOrOwner */\n      tag_124\n        /* \"34_ERC721/ERC721.sol\":1994:2039  _isApprovedOrOwner(owner, msg.sender,tokenId) */\n      jump\t// in\n    tag_157:\n        /* \"34_ERC721/ERC721.sol\":1985:2045  require (_isApprovedOrOwner(owner, msg.sender,tokenId) , \"\") */\n      tag_158\n      jumpi\n      mload(0x40)\n      0x08c379a000000000000000000000000000000000000000000000000000000000\n      dup2\n      mstore\n      0x04\n      add\n      tag_159\n      swap1\n      tag_118\n      jump\t// in\n    tag_159:\n      mload(0x40)\n      dup1\n      swap2\n      sub\n      swap1\n      revert\n    tag_158:\n        /* \"34_ERC721/ERC721.sol\":2118:2146  _transfer(from, to, tokenId) */\n      tag_160\n        /* \"34_ERC721/ERC721.sol\":2128:2132  from */\n      dup7\n        /* \"34_ERC721/ERC721.sol\":2134:2136  to */\n      dup7\n        /* \"34_ERC721/ERC721.sol\":2138:2145  tokenId */\n      dup7\n        /* \"34_ERC721/ERC721.sol\":2118:2127  _transfer */\n      tag_128\n        /* \"34_ERC721/ERC721.sol\":2118:2146  _transfer(from, to, tokenId) */\n      jump\t// in\n    tag_160:\n        /* \"34_ERC721/ERC721.sol\":2157:2202  _checkERC721Received(from, to, tokenId, data) */\n      tag_161\n        /* \"34_ERC721/ERC721.sol\":2178:2182  from */\n      dup7\n        /* \"34_ERC721/ERC721.sol\":2184:2186  to */\n      dup7\n        /* \"34_ERC721/ERC721.sol\":2188:2195  tokenId */\n      dup7\n        /* \"34_ERC721/ERC721.sol\":2197:2201  data */\n      dup7\n      dup7\n        /* \"34_ERC721/ERC721.sol\":2157:2202  _checkERC721Received(from, to, tokenId, data) */\n      dup1\n      dup1\n      0x1f\n      add\n      0x20\n      dup1\n      swap2\n      div\n      mul\n      0x20\n      add\n      mload(0x40)\n      swap1\n      dup2\n      add\n      0x40\n      mstore\n      dup1\n      swap4\n      swap3\n      swap2\n      swap1\n      dup2\n      dup2\n      mstore\n      0x20\n      add\n      dup4\n      dup4\n      dup1\n      dup3\n      dup5\n      calldatacopy\n      0x00\n      dup2\n      dup5\n      add\n      mstore\n      not(0x1f)\n      0x1f\n      dup3\n      add\n      and\n      swap1\n      pop\n      dup1\n      dup4\n      add\n      swap3\n      pop\n      pop\n      pop\n      pop\n      pop\n      pop\n      pop\n        /* \"34_ERC721/ERC721.sol\":2157:2177  _checkERC721Received */\n      tag_143\n        /* \"34_ERC721/ERC721.sol\":2157:2202  _checkERC721Received(from, to, tokenId, data) */\n      jump\t// in\n    tag_161:\n        /* \"34_ERC721/ERC721.sol\":1931:2210  {... */\n      pop\n        /* \"34_ERC721/ERC721.sol\":1823:2210  function safeTransferFrom(address from, address to, uint256 tokenId, bytes calldata data) external override {... */\n      pop\n      pop\n      pop\n      pop\n      pop\n      jump\t// out\n        /* \"34_ERC721/WTFApe.sol\":133:161  uint public MAX_APES = 10000 */\n    tag_82:\n      sload(0x06)\n      dup2\n      jump\t// out\n        /* \"34_ERC721/ERC721.sol\":3247:3453  function setApproveAll(address operator, bool approved) external override {... */\n    tag_87:\n        /* \"34_ERC721/ERC721.sol\":3375:3383  approved */\n      dup1\n        /* \"34_ERC721/ERC721.sol\":3332:3350  _operatorApprovals */\n      0x05\n        /* \"34_ERC721/ERC721.sol\":3332:3362  _operatorApprovals[msg.sender] */\n      0x00\n        /* \"34_ERC721/ERC721.sol\":3351:3361  msg.sender */\n      caller\n        /* \"34_ERC721/ERC721.sol\":3332:3362  _operatorApprovals[msg.sender] */\n      0xffffffffffffffffffffffffffffffffffffffff\n      and\n      0xffffffffffffffffffffffffffffffffffffffff\n      and\n      dup2\n      mstore\n      0x20\n      add\n      swap1\n      dup2\n      mstore\n      0x20\n      add\n      0x00\n      keccak256\n        /* \"34_ERC721/ERC721.sol\":3332:3372  _operatorApprovals[msg.sender][operator] */\n      0x00\n        /* \"34_ERC721/ERC721.sol\":3363:3371  operator */\n      dup5\n        /* \"34_ERC721/ERC721.sol\":3332:3372  _operatorApprovals[msg.sender][operator] */\n      0xffffffffffffffffffffffffffffffffffffffff\n      and\n      0xffffffffffffffffffffffffffffffffffffffff\n      and\n      dup2\n      mstore\n      0x20\n      add\n      swap1\n      dup2\n      mstore\n      0x20\n      add\n      0x00\n      keccak256\n      0x00\n        /* \"34_ERC721/ERC721.sol\":3332:3383  _operatorApprovals[msg.sender][operator] = approved */\n      0x0100\n      exp\n      dup2\n      sload\n      dup2\n      0xff\n      mul\n      not\n      and\n      swap1\n      dup4\n      iszero\n      iszero\n      mul\n      or\n      swap1\n      sstore\n      pop\n        /* \"34_ERC721/ERC721.sol\":3436:3444  approved */\n      dup1\n        /* \"34_ERC721/ERC721.sol\":3399:3445  ApprovalForAll(msg.sender, operator, approved) */\n      iszero\n      iszero\n        /* \"34_ERC721/ERC721.sol\":3426:3434  operator */\n      dup3\n        /* \"34_ERC721/ERC721.sol\":3399:3445  ApprovalForAll(msg.sender, operator, approved) */\n      0xffffffffffffffffffffffffffffffffffffffff\n      and\n        /* \"34_ERC721/ERC721.sol\":3414:3424  msg.sender */\n      caller\n        /* \"34_ERC721/ERC721.sol\":3399:3445  ApprovalForAll(msg.sender, operator, approved) */\n      0xffffffffffffffffffffffffffffffffffffffff\n      and\n      0x17307eab39ab6107e8899845ad3d59bd9653f200f220920489ca2b5937696c31\n      mload(0x40)\n      mload(0x40)\n      dup1\n      swap2\n      sub\n      swap1\n      log4\n        /* \"34_ERC721/ERC721.sol\":3247:3453  function setApproveAll(address operator, bool approved) external override {... */\n      pop\n      pop\n      jump\t// out\n        /* \"34_ERC721/ERC721.sol\":5811:6127  function tokenURI(uint256 tokenId) public view virtual override returns (string memory) {... */\n    tag_90:\n        /* \"34_ERC721/ERC721.sol\":5884:5897  string memory */\n      0x60\n        /* \"34_ERC721/ERC721.sol\":5946:5947  0 */\n      0x00\n        /* \"34_ERC721/ERC721.sol\":5918:5948  _owners[tokenId] != address(0) */\n      0xffffffffffffffffffffffffffffffffffffffff\n      and\n        /* \"34_ERC721/ERC721.sol\":5918:5925  _owners */\n      0x02\n        /* \"34_ERC721/ERC721.sol\":5918:5934  _owners[tokenId] */\n      0x00\n        /* \"34_ERC721/ERC721.sol\":5926:5933  tokenId */\n      dup5\n        /* \"34_ERC721/ERC721.sol\":5918:5934  _owners[tokenId] */\n      dup2\n      mstore\n      0x20\n      add\n      swap1\n      dup2\n      mstore\n      0x20\n      add\n      0x00\n      keccak256\n      0x00\n      swap1\n      sload\n      swap1\n      0x0100\n      exp\n      swap1\n      div\n      0xffffffffffffffffffffffffffffffffffffffff\n      and\n        /* \"34_ERC721/ERC721.sol\":5918:5948  _owners[tokenId] != address(0) */\n      0xffffffffffffffffffffffffffffffffffffffff\n      and\n      sub\n        /* \"34_ERC721/ERC721.sol\":5910:5968  require(_owners[tokenId] != address(0), \"Token Not Exist\") */\n      tag_164\n      jumpi\n      mload(0x40)\n      0x08c379a000000000000000000000000000000000000000000000000000000000\n      dup2\n      mstore\n      0x04\n      add\n      tag_165\n      swap1\n      tag_166\n      jump\t// in\n    tag_165:\n      mload(0x40)\n      dup1\n      swap2\n      sub\n      swap1\n      revert\n    tag_164:\n        /* \"34_ERC721/ERC721.sol\":5981:6002  string memory baseURI */\n      0x00\n        /* \"34_ERC721/ERC721.sol\":6005:6015  _baseURI() */\n      tag_167\n        /* \"34_ERC721/ERC721.sol\":6005:6013  _baseURI */\n      tag_168\n        /* \"34_ERC721/ERC721.sol\":6005:6015  _baseURI() */\n      jump\t// in\n    tag_167:\n        /* \"34_ERC721/ERC721.sol\":5981:6015  string memory baseURI = _baseURI() */\n      swap1\n      pop\n        /* \"34_ERC721/ERC721.sol\":6057:6058  0 */\n      0x00\n        /* \"34_ERC721/ERC721.sol\":6039:6046  baseURI */\n      dup2\n        /* \"34_ERC721/ERC721.sol\":6033:6054  bytes(baseURI).length */\n      mload\n        /* \"34_ERC721/ERC721.sol\":6033:6058  bytes(baseURI).length > 0 */\n      gt\n        /* \"34_ERC721/ERC721.sol\":6033:6119  bytes(baseURI).length > 0 ? string(abi.encodePacked(baseURI, tokenId.toString())) : \"\" */\n      tag_169\n      jumpi\n      mload(0x40)\n      dup1\n      0x20\n      add\n      0x40\n      mstore\n      dup1\n      0x00\n      dup2\n      mstore\n      pop\n      jump(tag_170)\n    tag_169:\n        /* \"34_ERC721/ERC721.sol\":6085:6092  baseURI */\n      dup1\n        /* \"34_ERC721/ERC721.sol\":6094:6112  tokenId.toString() */\n      tag_171\n        /* \"34_ERC721/ERC721.sol\":6094:6101  tokenId */\n      dup5\n        /* \"34_ERC721/ERC721.sol\":6094:6110  tokenId.toString */\n      tag_172\n        /* \"34_ERC721/ERC721.sol\":6094:6112  tokenId.toString() */\n      jump\t// in\n    tag_171:\n        /* \"34_ERC721/ERC721.sol\":6068:6113  abi.encodePacked(baseURI, tokenId.toString()) */\n      add(0x20, mload(0x40))\n      tag_173\n      swap3\n      swap2\n      swap1\n      tag_174\n      jump\t// in\n    tag_173:\n      mload(0x40)\n      0x20\n      dup2\n      dup4\n      sub\n      sub\n      dup2\n      mstore\n      swap1\n      0x40\n      mstore\n        /* \"34_ERC721/ERC721.sol\":6033:6119  bytes(baseURI).length > 0 ? string(abi.encodePacked(baseURI, tokenId.toString())) : \"\" */\n    tag_170:\n        /* \"34_ERC721/ERC721.sol\":6026:6119  return bytes(baseURI).length > 0 ? string(abi.encodePacked(baseURI, tokenId.toString())) : \"\" */\n      swap2\n      pop\n      pop\n        /* \"34_ERC721/ERC721.sol\":5811:6127  function tokenURI(uint256 tokenId) public view virtual override returns (string memory) {... */\n      swap2\n      swap1\n      pop\n      jump\t// out\n        /* \"34_ERC721/ERC721.sol\":579:649  mapping(address => mapping(address => bool)) public _operatorApprovals */\n    tag_95:\n      mstore(0x20, 0x05)\n      dup2\n      0x00\n      mstore\n      mstore(0x20, keccak256(0x00, 0x40))\n      dup1\n      0x00\n      mstore\n      keccak256(0x00, 0x40)\n      0x00\n      swap2\n      pop\n      swap2\n      pop\n      swap1\n      sload\n      swap1\n      0x0100\n      exp\n      swap1\n      div\n      0xff\n      and\n      dup2\n      jump\t// out\n        /* \"34_ERC721/ERC721.sol\":2913:3239  function approve(uint256 tokenId, address operator) external override{... */\n    tag_100:\n        /* \"34_ERC721/ERC721.sol\":2993:3006  address owner */\n      0x00\n        /* \"34_ERC721/ERC721.sol\":3009:3016  _owners */\n      0x02\n        /* \"34_ERC721/ERC721.sol\":3009:3025  _owners[tokenId] */\n      0x00\n        /* \"34_ERC721/ERC721.sol\":3017:3024  tokenId */\n      dup5\n        /* \"34_ERC721/ERC721.sol\":3009:3025  _owners[tokenId] */\n      dup2\n      mstore\n      0x20\n      add\n      swap1\n      dup2\n      mstore\n      0x20\n      add\n      0x00\n      keccak256\n      0x00\n      swap1\n      sload\n      swap1\n      0x0100\n      exp\n      swap1\n      div\n      0xffffffffffffffffffffffffffffffffffffffff\n      and\n        /* \"34_ERC721/ERC721.sol\":2993:3025  address owner = _owners[tokenId] */\n      swap1\n      pop\n        /* \"34_ERC721/ERC721.sol\":3054:3064  msg.sender */\n      caller\n        /* \"34_ERC721/ERC721.sol\":3045:3064  owner == msg.sender */\n      0xffffffffffffffffffffffffffffffffffffffff\n      and\n        /* \"34_ERC721/ERC721.sol\":3045:3050  owner */\n      dup2\n        /* \"34_ERC721/ERC721.sol\":3045:3064  owner == msg.sender */\n      0xffffffffffffffffffffffffffffffffffffffff\n      and\n      eq\n        /* \"34_ERC721/ERC721.sol\":3045:3103  owner == msg.sender || _operatorApprovals[owner][operator] */\n      dup1\n      tag_176\n      jumpi\n      pop\n        /* \"34_ERC721/ERC721.sol\":3068:3086  _operatorApprovals */\n      0x05\n        /* \"34_ERC721/ERC721.sol\":3068:3093  _operatorApprovals[owner] */\n      0x00\n        /* \"34_ERC721/ERC721.sol\":3087:3092  owner */\n      dup3\n        /* \"34_ERC721/ERC721.sol\":3068:3093  _operatorApprovals[owner] */\n      0xffffffffffffffffffffffffffffffffffffffff\n      and\n      0xffffffffffffffffffffffffffffffffffffffff\n      and\n      dup2\n      mstore\n      0x20\n      add\n      swap1\n      dup2\n      mstore\n      0x20\n      add\n      0x00\n      keccak256\n        /* \"34_ERC721/ERC721.sol\":3068:3103  _operatorApprovals[owner][operator] */\n      0x00\n        /* \"34_ERC721/ERC721.sol\":3094:3102  operator */\n      dup4\n        /* \"34_ERC721/ERC721.sol\":3068:3103  _operatorApprovals[owner][operator] */\n      0xffffffffffffffffffffffffffffffffffffffff\n      and\n      0xffffffffffffffffffffffffffffffffffffffff\n      and\n      dup2\n      mstore\n      0x20\n      add\n      swap1\n      dup2\n      mstore\n      0x20\n      add\n      0x00\n      keccak256\n      0x00\n      swap1\n      sload\n      swap1\n      0x0100\n      exp\n      swap1\n      div\n      0xff\n      and\n        /* \"34_ERC721/ERC721.sol\":3045:3103  owner == msg.sender || _operatorApprovals[owner][operator] */\n    tag_176:\n        /* \"34_ERC721/ERC721.sol\":3036:3108  require (owner == msg.sender || _operatorApprovals[owner][operator], \"\") */\n      tag_177\n      jumpi\n      mload(0x40)\n      0x08c379a000000000000000000000000000000000000000000000000000000000\n      dup2\n      mstore\n      0x04\n      add\n      tag_178\n      swap1\n      tag_118\n      jump\t// in\n    tag_178:\n      mload(0x40)\n      dup1\n      swap2\n      sub\n      swap1\n      revert\n    tag_177:\n        /* \"34_ERC721/ERC721.sol\":3178:3186  operator */\n      dup2\n        /* \"34_ERC721/ERC721.sol\":3151:3166  _tokenApprovals */\n      0x04\n        /* \"34_ERC721/ERC721.sol\":3151:3175  _tokenApprovals[tokenId] */\n      0x00\n        /* \"34_ERC721/ERC721.sol\":3167:3174  tokenId */\n      dup6\n        /* \"34_ERC721/ERC721.sol\":3151:3175  _tokenApprovals[tokenId] */\n      dup2\n      mstore\n      0x20\n      add\n      swap1\n      dup2\n      mstore\n      0x20\n      add\n      0x00\n      keccak256\n      0x00\n        /* \"34_ERC721/ERC721.sol\":3151:3186  _tokenApprovals[tokenId] = operator */\n      0x0100\n      exp\n      dup2\n      sload\n      dup2\n      0xffffffffffffffffffffffffffffffffffffffff\n      mul\n      not\n      and\n      swap1\n      dup4\n      0xffffffffffffffffffffffffffffffffffffffff\n      and\n      mul\n      or\n      swap1\n      sstore\n      pop\n        /* \"34_ERC721/ERC721.sol\":3197:3231  _approve(owner, operator, tokenId) */\n      tag_179\n        /* \"34_ERC721/ERC721.sol\":3206:3211  owner */\n      dup2\n        /* \"34_ERC721/ERC721.sol\":3213:3221  operator */\n      dup4\n        /* \"34_ERC721/ERC721.sol\":3223:3230  tokenId */\n      dup6\n        /* \"34_ERC721/ERC721.sol\":3197:3205  _approve */\n      tag_180\n        /* \"34_ERC721/ERC721.sol\":3197:3231  _approve(owner, operator, tokenId) */\n      jump\t// in\n    tag_179:\n        /* \"34_ERC721/ERC721.sol\":2982:3239  {... */\n      pop\n        /* \"34_ERC721/ERC721.sol\":2913:3239  function approve(uint256 tokenId, address operator) external override{... */\n      pop\n      pop\n      jump\t// out\n        /* \"34_ERC721/ERC721.sol\":3756:3901  function isApprovedAll(address operator) external view override returns (bool) {... */\n    tag_103:\n        /* \"34_ERC721/ERC721.sol\":3829:3833  bool */\n      0x00\n        /* \"34_ERC721/ERC721.sol\":3853:3871  _operatorApprovals */\n      0x05\n        /* \"34_ERC721/ERC721.sol\":3853:3883  _operatorApprovals[msg.sender] */\n      0x00\n        /* \"34_ERC721/ERC721.sol\":3872:3882  msg.sender */\n      caller\n        /* \"34_ERC721/ERC721.sol\":3853:3883  _operatorApprovals[msg.sender] */\n      0xffffffffffffffffffffffffffffffffffffffff\n      and\n      0xffffffffffffffffffffffffffffffffffffffff\n      and\n      dup2\n      mstore\n      0x20\n      add\n      swap1\n      dup2\n      mstore\n      0x20\n      add\n      0x00\n      keccak256\n        /* \"34_ERC721/ERC721.sol\":3853:3893  _operatorApprovals[msg.sender][operator] */\n      0x00\n        /* \"34_ERC721/ERC721.sol\":3884:3892  operator */\n      dup4\n        /* \"34_ERC721/ERC721.sol\":3853:3893  _operatorApprovals[msg.sender][operator] */\n      0xffffffffffffffffffffffffffffffffffffffff\n      and\n      0xffffffffffffffffffffffffffffffffffffffff\n      and\n      dup2\n      mstore\n      0x20\n      add\n      swap1\n      dup2\n      mstore\n      0x20\n      add\n      0x00\n      keccak256\n      0x00\n      swap1\n      sload\n      swap1\n      0x0100\n      exp\n      swap1\n      div\n      0xff\n      and\n        /* \"34_ERC721/ERC721.sol\":3846:3893  return _operatorApprovals[msg.sender][operator] */\n      swap1\n      pop\n        /* \"34_ERC721/ERC721.sol\":3756:3901  function isApprovedAll(address operator) external view override returns (bool) {... */\n      swap2\n      swap1\n      pop\n      jump\t// out\n        /* \"34_ERC721/ERC721.sol\":3909:4181  function _isApprovedOrOwner(address owner, address operator, uint256 tokenId) private view returns (bool) {... */\n    tag_124:\n        /* \"34_ERC721/ERC721.sol\":4009:4013  bool */\n      0x00\n        /* \"34_ERC721/ERC721.sol\":4045:4050  owner */\n      dup4\n        /* \"34_ERC721/ERC721.sol\":4033:4050  operator == owner */\n      0xffffffffffffffffffffffffffffffffffffffff\n      and\n        /* \"34_ERC721/ERC721.sol\":4033:4041  operator */\n      dup4\n        /* \"34_ERC721/ERC721.sol\":4033:4050  operator == owner */\n      0xffffffffffffffffffffffffffffffffffffffff\n      and\n      eq\n        /* \"34_ERC721/ERC721.sol\":4033:4103  operator == owner ||... */\n      dup1\n      tag_183\n      jumpi\n      pop\n        /* \"34_ERC721/ERC721.sol\":4095:4103  operator */\n      dup3\n        /* \"34_ERC721/ERC721.sol\":4067:4103  _tokenApprovals[tokenId] == operator */\n      0xffffffffffffffffffffffffffffffffffffffff\n      and\n        /* \"34_ERC721/ERC721.sol\":4067:4082  _tokenApprovals */\n      0x04\n        /* \"34_ERC721/ERC721.sol\":4067:4091  _tokenApprovals[tokenId] */\n      0x00\n        /* \"34_ERC721/ERC721.sol\":4083:4090  tokenId */\n      dup5\n        /* \"34_ERC721/ERC721.sol\":4067:4091  _tokenApprovals[tokenId] */\n      dup2\n      mstore\n      0x20\n      add\n      swap1\n      dup2\n      mstore\n      0x20\n      add\n      0x00\n      keccak256\n      0x00\n      swap1\n      sload\n      swap1\n      0x0100\n      exp\n      swap1\n      div\n      0xffffffffffffffffffffffffffffffffffffffff\n      and\n        /* \"34_ERC721/ERC721.sol\":4067:4103  _tokenApprovals[tokenId] == operator */\n      0xffffffffffffffffffffffffffffffffffffffff\n      and\n      eq\n        /* \"34_ERC721/ERC721.sol\":4033:4103  operator == owner ||... */\n    tag_183:\n        /* \"34_ERC721/ERC721.sol\":4033:4171  operator == owner ||... */\n      dup1\n      tag_184\n      jumpi\n      pop\n        /* \"34_ERC721/ERC721.sol\":4136:4154  _operatorApprovals */\n      0x05\n        /* \"34_ERC721/ERC721.sol\":4136:4161  _operatorApprovals[owner] */\n      0x00\n        /* \"34_ERC721/ERC721.sol\":4155:4160  owner */\n      dup6\n        /* \"34_ERC721/ERC721.sol\":4136:4161  _operatorApprovals[owner] */\n      0xffffffffffffffffffffffffffffffffffffffff\n      and\n      0xffffffffffffffffffffffffffffffffffffffff\n      and\n      dup2\n      mstore\n      0x20\n      add\n      swap1\n      dup2\n      mstore\n      0x20\n      add\n      0x00\n      keccak256\n        /* \"34_ERC721/ERC721.sol\":4136:4171  _operatorApprovals[owner][operator] */\n      0x00\n        /* \"34_ERC721/ERC721.sol\":4162:4170  operator */\n      dup5\n        /* \"34_ERC721/ERC721.sol\":4136:4171  _operatorApprovals[owner][operator] */\n      0xffffffffffffffffffffffffffffffffffffffff\n      and\n      0xffffffffffffffffffffffffffffffffffffffff\n      and\n      dup2\n      mstore\n      0x20\n      add\n      swap1\n      dup2\n      mstore\n      0x20\n      add\n      0x00\n      keccak256\n      0x00\n      swap1\n      sload\n      swap1\n      0x0100\n      exp\n      swap1\n      div\n      0xff\n      and\n        /* \"34_ERC721/ERC721.sol\":4033:4171  operator == owner ||... */\n    tag_184:\n        /* \"34_ERC721/ERC721.sol\":4026:4171  return operator == owner ||... */\n      swap1\n      pop\n        /* \"34_ERC721/ERC721.sol\":3909:4181  function _isApprovedOrOwner(address owner, address operator, uint256 tokenId) private view returns (bool) {... */\n      swap4\n      swap3\n      pop\n      pop\n      pop\n      jump\t// out\n        /* \"34_ERC721/ERC721.sol\":4392:4718  function _transfer (address from, address to, uint256 tokenId) private {... */\n    tag_128:\n        /* \"34_ERC721/ERC721.sol\":4497:4498  0 */\n      0x00\n        /* \"34_ERC721/ERC721.sol\":4483:4499  to != address(0) */\n      0xffffffffffffffffffffffffffffffffffffffff\n      and\n        /* \"34_ERC721/ERC721.sol\":4483:4485  to */\n      dup3\n        /* \"34_ERC721/ERC721.sol\":4483:4499  to != address(0) */\n      0xffffffffffffffffffffffffffffffffffffffff\n      and\n      sub\n        /* \"34_ERC721/ERC721.sol\":4474:4504  require (to != address(0), \"\") */\n      tag_186\n      jumpi\n      mload(0x40)\n      0x08c379a000000000000000000000000000000000000000000000000000000000\n      dup2\n      mstore\n      0x04\n      add\n      tag_187\n      swap1\n      tag_118\n      jump\t// in\n    tag_187:\n      mload(0x40)\n      dup1\n      swap2\n      sub\n      swap1\n      revert\n    tag_186:\n        /* \"34_ERC721/ERC721.sol\":4540:4575  _approve(from, address(0), tokenId) */\n      tag_188\n        /* \"34_ERC721/ERC721.sol\":4549:4553  from */\n      dup4\n        /* \"34_ERC721/ERC721.sol\":4563:4564  0 */\n      0x00\n        /* \"34_ERC721/ERC721.sol\":4567:4574  tokenId */\n      dup4\n        /* \"34_ERC721/ERC721.sol\":4540:4548  _approve */\n      tag_180\n        /* \"34_ERC721/ERC721.sol\":4540:4575  _approve(from, address(0), tokenId) */\n      jump\t// in\n    tag_188:\n        /* \"34_ERC721/ERC721.sol\":4607:4609  to */\n      dup2\n        /* \"34_ERC721/ERC721.sol\":4588:4595  _owners */\n      0x02\n        /* \"34_ERC721/ERC721.sol\":4588:4604  _owners[tokenId] */\n      0x00\n        /* \"34_ERC721/ERC721.sol\":4596:4603  tokenId */\n      dup4\n        /* \"34_ERC721/ERC721.sol\":4588:4604  _owners[tokenId] */\n      dup2\n      mstore\n      0x20\n      add\n      swap1\n      dup2\n      mstore\n      0x20\n      add\n      0x00\n      keccak256\n      0x00\n        /* \"34_ERC721/ERC721.sol\":4588:4609  _owners[tokenId] = to */\n      0x0100\n      exp\n      dup2\n      sload\n      dup2\n      0xffffffffffffffffffffffffffffffffffffffff\n      mul\n      not\n      and\n      swap1\n      dup4\n      0xffffffffffffffffffffffffffffffffffffffff\n      and\n      mul\n      or\n      swap1\n      sstore\n      pop\n        /* \"34_ERC721/ERC721.sol\":4638:4639  1 */\n      0x01\n        /* \"34_ERC721/ERC721.sol\":4620:4629  _balances */\n      0x03\n        /* \"34_ERC721/ERC721.sol\":4620:4635  _balances[from] */\n      0x00\n        /* \"34_ERC721/ERC721.sol\":4630:4634  from */\n      dup6\n        /* \"34_ERC721/ERC721.sol\":4620:4635  _balances[from] */\n      0xffffffffffffffffffffffffffffffffffffffff\n      and\n      0xffffffffffffffffffffffffffffffffffffffff\n      and\n      dup2\n      mstore\n      0x20\n      add\n      swap1\n      dup2\n      mstore\n      0x20\n      add\n      0x00\n      keccak256\n      0x00\n        /* \"34_ERC721/ERC721.sol\":4620:4639  _balances[from] -=1 */\n      dup3\n      dup3\n      sload\n      tag_189\n      swap2\n      swap1\n      tag_190\n      jump\t// in\n    tag_189:\n      swap3\n      pop\n      pop\n      dup2\n      swap1\n      sstore\n      pop\n        /* \"34_ERC721/ERC721.sol\":4666:4667  1 */\n      0x01\n        /* \"34_ERC721/ERC721.sol\":4650:4659  _balances */\n      0x03\n        /* \"34_ERC721/ERC721.sol\":4650:4663  _balances[to] */\n      0x00\n        /* \"34_ERC721/ERC721.sol\":4660:4662  to */\n      dup5\n        /* \"34_ERC721/ERC721.sol\":4650:4663  _balances[to] */\n      0xffffffffffffffffffffffffffffffffffffffff\n      and\n      0xffffffffffffffffffffffffffffffffffffffff\n      and\n      dup2\n      mstore\n      0x20\n      add\n      swap1\n      dup2\n      mstore\n      0x20\n      add\n      0x00\n      keccak256\n      0x00\n        /* \"34_ERC721/ERC721.sol\":4650:4667  _balances[to] -=1 */\n      dup3\n      dup3\n      sload\n      tag_191\n      swap2\n      swap1\n      tag_190\n      jump\t// in\n    tag_191:\n      swap3\n      pop\n      pop\n      dup2\n      swap1\n      sstore\n      pop\n        /* \"34_ERC721/ERC721.sol\":4702:4709  tokenId */\n      dup1\n        /* \"34_ERC721/ERC721.sol\":4698:4700  to */\n      dup3\n        /* \"34_ERC721/ERC721.sol\":4683:4710  Transfer(from, to, tokenId) */\n      0xffffffffffffffffffffffffffffffffffffffff\n      and\n        /* \"34_ERC721/ERC721.sol\":4692:4696  from */\n      dup5\n        /* \"34_ERC721/ERC721.sol\":4683:4710  Transfer(from, to, tokenId) */\n      0xffffffffffffffffffffffffffffffffffffffff\n      and\n      0xddf252ad1be2c89b69c2b068fc378daa952ba7f163c4a11628f55a4df523b3ef\n      mload(0x40)\n      mload(0x40)\n      dup1\n      swap2\n      sub\n      swap1\n      log4\n        /* \"34_ERC721/ERC721.sol\":4392:4718  function _transfer (address from, address to, uint256 tokenId) private {... */\n      pop\n      pop\n      pop\n      jump\t// out\n        /* \"34_ERC721/ERC721.sol\":6890:7204  function _mint(address to, uint tokenId) internal virtual {... */\n    tag_135:\n        /* \"34_ERC721/ERC721.sol\":6981:6982  0 */\n      0x00\n        /* \"34_ERC721/ERC721.sol\":6967:6983  to != address(0) */\n      0xffffffffffffffffffffffffffffffffffffffff\n      and\n        /* \"34_ERC721/ERC721.sol\":6967:6969  to */\n      dup3\n        /* \"34_ERC721/ERC721.sol\":6967:6983  to != address(0) */\n      0xffffffffffffffffffffffffffffffffffffffff\n      and\n      sub\n        /* \"34_ERC721/ERC721.sol\":6959:7008  require(to != address(0), \"mint to zero address\") */\n      tag_193\n      jumpi\n      mload(0x40)\n      0x08c379a000000000000000000000000000000000000000000000000000000000\n      dup2\n      mstore\n      0x04\n      add\n      tag_194\n      swap1\n      tag_195\n      jump\t// in\n    tag_194:\n      mload(0x40)\n      dup1\n      swap2\n      sub\n      swap1\n      revert\n    tag_193:\n        /* \"34_ERC721/ERC721.sol\":7055:7056  0 */\n      0x00\n        /* \"34_ERC721/ERC721.sol\":7027:7057  _owners[tokenId] == address(0) */\n      0xffffffffffffffffffffffffffffffffffffffff\n      and\n        /* \"34_ERC721/ERC721.sol\":7027:7034  _owners */\n      0x02\n        /* \"34_ERC721/ERC721.sol\":7027:7043  _owners[tokenId] */\n      0x00\n        /* \"34_ERC721/ERC721.sol\":7035:7042  tokenId */\n      dup4\n        /* \"34_ERC721/ERC721.sol\":7027:7043  _owners[tokenId] */\n      dup2\n      mstore\n      0x20\n      add\n      swap1\n      dup2\n      mstore\n      0x20\n      add\n      0x00\n      keccak256\n      0x00\n      swap1\n      sload\n      swap1\n      0x0100\n      exp\n      swap1\n      div\n      0xffffffffffffffffffffffffffffffffffffffff\n      and\n        /* \"34_ERC721/ERC721.sol\":7027:7057  _owners[tokenId] == address(0) */\n      0xffffffffffffffffffffffffffffffffffffffff\n      and\n      eq\n        /* \"34_ERC721/ERC721.sol\":7019:7082  require(_owners[tokenId] == address(0), \"token already minted\") */\n      tag_196\n      jumpi\n      mload(0x40)\n      0x08c379a000000000000000000000000000000000000000000000000000000000\n      dup2\n      mstore\n      0x04\n      add\n      tag_197\n      swap1\n      tag_198\n      jump\t// in\n    tag_197:\n      mload(0x40)\n      dup1\n      swap2\n      sub\n      swap1\n      revert\n    tag_196:\n        /* \"34_ERC721/ERC721.sol\":7112:7113  1 */\n      0x01\n        /* \"34_ERC721/ERC721.sol\":7095:7104  _balances */\n      0x03\n        /* \"34_ERC721/ERC721.sol\":7095:7108  _balances[to] */\n      0x00\n        /* \"34_ERC721/ERC721.sol\":7105:7107  to */\n      dup5\n        /* \"34_ERC721/ERC721.sol\":7095:7108  _balances[to] */\n      0xffffffffffffffffffffffffffffffffffffffff\n      and\n      0xffffffffffffffffffffffffffffffffffffffff\n      and\n      dup2\n      mstore\n      0x20\n      add\n      swap1\n      dup2\n      mstore\n      0x20\n      add\n      0x00\n      keccak256\n      0x00\n        /* \"34_ERC721/ERC721.sol\":7095:7113  _balances[to] += 1 */\n      dup3\n      dup3\n      sload\n      tag_199\n      swap2\n      swap1\n      tag_200\n      jump\t// in\n    tag_199:\n      swap3\n      pop\n      pop\n      dup2\n      swap1\n      sstore\n      pop\n        /* \"34_ERC721/ERC721.sol\":7143:7145  to */\n      dup2\n        /* \"34_ERC721/ERC721.sol\":7124:7131  _owners */\n      0x02\n        /* \"34_ERC721/ERC721.sol\":7124:7140  _owners[tokenId] */\n      0x00\n        /* \"34_ERC721/ERC721.sol\":7132:7139  tokenId */\n      dup4\n        /* \"34_ERC721/ERC721.sol\":7124:7140  _owners[tokenId] */\n      dup2\n      mstore\n      0x20\n      add\n      swap1\n      dup2\n      mstore\n      0x20\n      add\n      0x00\n      keccak256\n      0x00\n        /* \"34_ERC721/ERC721.sol\":7124:7145  _owners[tokenId] = to */\n      0x0100\n      exp\n      dup2\n      sload\n      dup2\n      0xffffffffffffffffffffffffffffffffffffffff\n      mul\n      not\n      and\n      swap1\n      dup4\n      0xffffffffffffffffffffffffffffffffffffffff\n      and\n      mul\n      or\n      swap1\n      sstore\n      pop\n        /* \"34_ERC721/ERC721.sol\":7188:7195  tokenId */\n      dup1\n        /* \"34_ERC721/ERC721.sol\":7184:7186  to */\n      dup3\n        /* \"34_ERC721/ERC721.sol\":7163:7196  Transfer(address(0), to, tokenId) */\n      0xffffffffffffffffffffffffffffffffffffffff\n      and\n        /* \"34_ERC721/ERC721.sol\":7180:7181  0 */\n      0x00\n        /* \"34_ERC721/ERC721.sol\":7163:7196  Transfer(address(0), to, tokenId) */\n      0xffffffffffffffffffffffffffffffffffffffff\n      and\n      0xddf252ad1be2c89b69c2b068fc378daa952ba7f163c4a11628f55a4df523b3ef\n      mload(0x40)\n      mload(0x40)\n      dup1\n      swap2\n      sub\n      swap1\n      log4\n        /* \"34_ERC721/ERC721.sol\":6890:7204  function _mint(address to, uint tokenId) internal virtual {... */\n      pop\n      pop\n      jump\t// out\n        /* \"34_ERC721/ERC721.sol\":4914:5718  function _checkERC721Received(address from, address to, uint256 tokenId, bytes memory data) private {... */\n    tag_143:\n        /* \"34_ERC721/ERC721.sol\":5043:5044  0 */\n      0x00\n        /* \"34_ERC721/ERC721.sol\":5028:5030  to */\n      dup4\n        /* \"34_ERC721/ERC721.sol\":5028:5042  to.code.length */\n      0xffffffffffffffffffffffffffffffffffffffff\n      and\n      extcodesize\n        /* \"34_ERC721/ERC721.sol\":5028:5044  to.code.length>0 */\n      gt\n        /* \"34_ERC721/ERC721.sol\":5025:5711  if(to.code.length>0){... */\n      iszero\n      tag_202\n      jumpi\n        /* \"34_ERC721/ERC721.sol\":5080:5082  to */\n      dup3\n        /* \"34_ERC721/ERC721.sol\":5064:5100  IERC721Receiver(to).onERC721Received */\n      0xffffffffffffffffffffffffffffffffffffffff\n      and\n      0x150b7a02\n        /* \"34_ERC721/ERC721.sol\":5101:5111  msg.sender */\n      caller\n        /* \"34_ERC721/ERC721.sol\":5113:5117  from */\n      dup7\n        /* \"34_ERC721/ERC721.sol\":5119:5126  tokenId */\n      dup6\n        /* \"34_ERC721/ERC721.sol\":5128:5132  data */\n      dup6\n        /* \"34_ERC721/ERC721.sol\":5064:5133  IERC721Receiver(to).onERC721Received(msg.sender, from, tokenId, data) */\n      mload(0x40)\n      dup6\n      0xffffffff\n      and\n      0xe0\n      shl\n      dup2\n      mstore\n      0x04\n      add\n      tag_203\n      swap5\n      swap4\n      swap3\n      swap2\n      swap1\n      tag_204\n      jump\t// in\n    tag_203:\n      0x20\n      mload(0x40)\n      dup1\n      dup4\n      sub\n      dup2\n      0x00\n      dup8\n      gas\n      call\n      swap3\n      pop\n      pop\n      pop\n      dup1\n      iszero\n      tag_205\n      jumpi\n      pop\n      mload(0x40)\n      returndatasize\n      not(0x1f)\n      0x1f\n      dup3\n      add\n      and\n      dup3\n      add\n      dup1\n      0x40\n      mstore\n      pop\n      dup2\n      add\n      swap1\n      tag_206\n      swap2\n      swap1\n      tag_207\n      jump\t// in\n    tag_206:\n      0x01\n    tag_205:\n        /* \"34_ERC721/ERC721.sol\":5060:5700  try IERC721Receiver(to).onERC721Received(msg.sender, from, tokenId, data) returns (bytes4 retval) {... */\n      tag_208\n      jumpi\n      returndatasize\n      dup1\n      0x00\n      dup2\n      eq\n      tag_213\n      jumpi\n      mload(0x40)\n      swap2\n      pop\n      and(add(returndatasize, 0x3f), not(0x1f))\n      dup3\n      add\n      0x40\n      mstore\n      returndatasize\n      dup3\n      mstore\n      returndatasize\n      0x00\n      0x20\n      dup5\n      add\n      returndatacopy\n      jump(tag_212)\n    tag_213:\n      0x60\n      swap2\n      pop\n    tag_212:\n      pop\n        /* \"34_ERC721/ERC721.sol\":5392:5393  0 */\n      0x00\n        /* \"34_ERC721/ERC721.sol\":5375:5381  reason */\n      dup2\n        /* \"34_ERC721/ERC721.sol\":5375:5388  reason.length */\n      mload\n        /* \"34_ERC721/ERC721.sol\":5375:5393  reason.length == 0 */\n      sub\n        /* \"34_ERC721/ERC721.sol\":5371:5683  if (reason.length == 0) {... */\n      tag_214\n      jumpi\n        /* \"34_ERC721/ERC721.sol\":5447:5449  to */\n      dup4\n        /* \"34_ERC721/ERC721.sol\":5425:5450  InvaildERC721Receiver(to) */\n      mload(0x40)\n      0xf9ecab6200000000000000000000000000000000000000000000000000000000\n      dup2\n      mstore\n      0x04\n      add\n      tag_215\n      swap2\n      swap1\n      tag_40\n      jump\t// in\n    tag_215:\n      mload(0x40)\n      dup1\n      swap2\n      sub\n      swap1\n      revert\n        /* \"34_ERC721/ERC721.sol\":5371:5683  if (reason.length == 0) {... */\n    tag_214:\n        /* \"34_ERC721/ERC721.sol\":5633:5639  reason */\n      dup1\n        /* \"34_ERC721/ERC721.sol\":5627:5640  mload(reason) */\n      mload\n        /* \"34_ERC721/ERC721.sol\":5618:5624  reason */\n      dup2\n        /* \"34_ERC721/ERC721.sol\":5614:5616  32 */\n      0x20\n        /* \"34_ERC721/ERC721.sol\":5610:5625  add(32, reason) */\n      add\n        /* \"34_ERC721/ERC721.sol\":5603:5641  revert(add(32, reason), mload(reason)) */\n      revert\n        /* \"34_ERC721/ERC721.sol\":5060:5700  try IERC721Receiver(to).onERC721Received(msg.sender, from, tokenId, data) returns (bytes4 retval) {... */\n    tag_208:\n        /* \"34_ERC721/ERC721.sol\":5191:5232  IERC721Receiver.onERC721Received.selector */\n      shl(0xe0, 0x150b7a02)\n        /* \"34_ERC721/ERC721.sol\":5181:5232  retval != IERC721Receiver.onERC721Received.selector */\n      not(0xffffffffffffffffffffffffffffffffffffffffffffffffffffffff)\n      and\n        /* \"34_ERC721/ERC721.sol\":5181:5187  retval */\n      dup2\n        /* \"34_ERC721/ERC721.sol\":5181:5232  retval != IERC721Receiver.onERC721Received.selector */\n      not(0xffffffffffffffffffffffffffffffffffffffffffffffffffffffff)\n      and\n      eq\n        /* \"34_ERC721/ERC721.sol\":5177:5309  if (retval != IERC721Receiver.onERC721Received.selector) {... */\n      tag_218\n      jumpi\n        /* \"34_ERC721/ERC721.sol\":5286:5288  to */\n      dup4\n        /* \"34_ERC721/ERC721.sol\":5264:5289  InvaildERC721Receiver(to) */\n      mload(0x40)\n      0xf9ecab6200000000000000000000000000000000000000000000000000000000\n      dup2\n      mstore\n      0x04\n      add\n      tag_219\n      swap2\n      swap1\n      tag_40\n      jump\t// in\n    tag_219:\n      mload(0x40)\n      dup1\n      swap2\n      sub\n      swap1\n      revert\n        /* \"34_ERC721/ERC721.sol\":5177:5309  if (retval != IERC721Receiver.onERC721Received.selector) {... */\n    tag_218:\n        /* \"34_ERC721/ERC721.sol\":5134:5324  returns (bytes4 retval) {... */\n      pop\n        /* \"34_ERC721/ERC721.sol\":5025:5711  if(to.code.length>0){... */\n    tag_202:\n        /* \"34_ERC721/ERC721.sol\":4914:5718  function _checkERC721Received(address from, address to, uint256 tokenId, bytes memory data) private {... */\n      pop\n      pop\n      pop\n      pop\n      jump\t// out\n        /* \"34_ERC721/WTFApe.sol\":348:496  function _baseURI() internal pure override returns (string memory){... */\n    tag_168:\n        /* \"34_ERC721/WTFApe.sol\":400:413  string memory */\n      0x60\n        /* \"34_ERC721/WTFApe.sol\":425:488  return \"ipfs://QmeSjSinHpPnmXmspMjwiXyN6zS4E9zccariGR3jxcaWtq/\" */\n      mload(0x40)\n      dup1\n      0x60\n      add\n      0x40\n      mstore\n      dup1\n      0x36\n      dup2\n      mstore\n      0x20\n      add\n      data_8382b382247cd07401a2ef2f394137c3f3b0972798bae0a9c78b0c261acbb56b\n      0x36\n      swap2\n      codecopy\n      swap1\n      pop\n        /* \"34_ERC721/WTFApe.sol\":348:496  function _baseURI() internal pure override returns (string memory){... */\n      swap1\n      jump\t// out\n        /* \"34_ERC721/Strings.sol\":412:1135  function toString(uint256 value) internal pure returns (string memory) {... */\n    tag_172:\n        /* \"34_ERC721/Strings.sol\":468:481  string memory */\n      0x60\n        /* \"34_ERC721/Strings.sol\":698:699  0 */\n      0x00\n        /* \"34_ERC721/Strings.sol\":689:694  value */\n      dup3\n        /* \"34_ERC721/Strings.sol\":689:699  value == 0 */\n      sub\n        /* \"34_ERC721/Strings.sol\":685:738  if (value == 0) {... */\n      tag_222\n      jumpi\n        /* \"34_ERC721/Strings.sol\":716:726  return \"0\" */\n      mload(0x40)\n      dup1\n      0x40\n      add\n      0x40\n      mstore\n      dup1\n      0x01\n      dup2\n      mstore\n      0x20\n      add\n      0x3000000000000000000000000000000000000000000000000000000000000000\n      dup2\n      mstore\n      pop\n      swap1\n      pop\n      jump(tag_221)\n        /* \"34_ERC721/Strings.sol\":685:738  if (value == 0) {... */\n    tag_222:\n        /* \"34_ERC721/Strings.sol\":748:760  uint256 temp */\n      0x00\n        /* \"34_ERC721/Strings.sol\":763:768  value */\n      dup3\n        /* \"34_ERC721/Strings.sol\":748:768  uint256 temp = value */\n      swap1\n      pop\n        /* \"34_ERC721/Strings.sol\":779:793  uint256 digits */\n      0x00\n        /* \"34_ERC721/Strings.sol\":804:882  while (temp != 0) {... */\n    tag_223:\n        /* \"34_ERC721/Strings.sol\":819:820  0 */\n      0x00\n        /* \"34_ERC721/Strings.sol\":811:815  temp */\n      dup3\n        /* \"34_ERC721/Strings.sol\":811:820  temp != 0 */\n      eq\n        /* \"34_ERC721/Strings.sol\":804:882  while (temp != 0) {... */\n      tag_224\n      jumpi\n        /* \"34_ERC721/Strings.sol\":837:845  digits++ */\n      dup1\n      dup1\n      tag_225\n      swap1\n      tag_226\n      jump\t// in\n    tag_225:\n      swap2\n      pop\n      pop\n        /* \"34_ERC721/Strings.sol\":868:870  10 */\n      0x0a\n        /* \"34_ERC721/Strings.sol\":860:870  temp /= 10 */\n      dup3\n      tag_227\n      swap2\n      swap1\n      tag_228\n      jump\t// in\n    tag_227:\n      swap2\n      pop\n        /* \"34_ERC721/Strings.sol\":804:882  while (temp != 0) {... */\n      jump(tag_223)\n    tag_224:\n        /* \"34_ERC721/Strings.sol\":892:911  bytes memory buffer */\n      0x00\n        /* \"34_ERC721/Strings.sol\":924:930  digits */\n      dup2\n        /* \"34_ERC721/Strings.sol\":914:931  new bytes(digits) */\n      0xffffffffffffffff\n      dup2\n      gt\n      iszero\n      tag_229\n      jumpi\n      tag_230\n      tag_231\n      jump\t// in\n    tag_230:\n    tag_229:\n      mload(0x40)\n      swap1\n      dup1\n      dup3\n      mstore\n      dup1\n      0x1f\n      add\n      not(0x1f)\n      and\n      0x20\n      add\n      dup3\n      add\n      0x40\n      mstore\n      dup1\n      iszero\n      tag_232\n      jumpi\n      dup2\n      0x20\n      add\n      0x01\n      dup3\n      mul\n      dup1\n      calldatasize\n      dup4\n      calldatacopy\n      dup1\n      dup3\n      add\n      swap2\n      pop\n      pop\n      swap1\n      pop\n    tag_232:\n      pop\n        /* \"34_ERC721/Strings.sol\":892:931  bytes memory buffer = new bytes(digits) */\n      swap1\n      pop\n        /* \"34_ERC721/Strings.sol\":942:1096  while (value != 0) {... */\n    tag_233:\n        /* \"34_ERC721/Strings.sol\":958:959  0 */\n      0x00\n        /* \"34_ERC721/Strings.sol\":949:954  value */\n      dup6\n        /* \"34_ERC721/Strings.sol\":949:959  value != 0 */\n      eq\n        /* \"34_ERC721/Strings.sol\":942:1096  while (value != 0) {... */\n      tag_234\n      jumpi\n        /* \"34_ERC721/Strings.sol\":986:987  1 */\n      0x01\n        /* \"34_ERC721/Strings.sol\":976:987  digits -= 1 */\n      dup3\n      tag_235\n      swap2\n      swap1\n      tag_190\n      jump\t// in\n    tag_235:\n      swap2\n      pop\n        /* \"34_ERC721/Strings.sol\":1053:1055  10 */\n      0x0a\n        /* \"34_ERC721/Strings.sol\":1045:1050  value */\n      dup6\n        /* \"34_ERC721/Strings.sol\":1045:1055  value % 10 */\n      tag_236\n      swap2\n      swap1\n      tag_237\n      jump\t// in\n    tag_236:\n        /* \"34_ERC721/Strings.sol\":1032:1034  48 */\n      0x30\n        /* \"34_ERC721/Strings.sol\":1032:1056  48 + uint256(value % 10) */\n      tag_238\n      swap2\n      swap1\n      tag_200\n      jump\t// in\n    tag_238:\n        /* \"34_ERC721/Strings.sol\":1019:1058  bytes1(uint8(48 + uint256(value % 10))) */\n      0xf8\n      shl\n        /* \"34_ERC721/Strings.sol\":1002:1008  buffer */\n      dup2\n        /* \"34_ERC721/Strings.sol\":1009:1015  digits */\n      dup4\n        /* \"34_ERC721/Strings.sol\":1002:1016  buffer[digits] */\n      dup2\n      mload\n      dup2\n      lt\n      tag_239\n      jumpi\n      tag_240\n      tag_241\n      jump\t// in\n    tag_240:\n    tag_239:\n      0x20\n      add\n      add\n        /* \"34_ERC721/Strings.sol\":1002:1058  buffer[digits] = bytes1(uint8(48 + uint256(value % 10))) */\n      swap1\n      not(0xffffffffffffffffffffffffffffffffffffffffffffffffffffffffffffff)\n      and\n      swap1\n      dup2\n      0x00\n      byte\n      swap1\n      mstore8\n      pop\n        /* \"34_ERC721/Strings.sol\":1082:1084  10 */\n      0x0a\n        /* \"34_ERC721/Strings.sol\":1073:1084  value /= 10 */\n      dup6\n      tag_242\n      swap2\n      swap1\n      tag_228\n      jump\t// in\n    tag_242:\n      swap5\n      pop\n        /* \"34_ERC721/Strings.sol\":942:1096  while (value != 0) {... */\n      jump(tag_233)\n    tag_234:\n        /* \"34_ERC721/Strings.sol\":1120:1126  buffer */\n      dup1\n        /* \"34_ERC721/Strings.sol\":1106:1127  return string(buffer) */\n      swap4\n      pop\n      pop\n      pop\n      pop\n        /* \"34_ERC721/Strings.sol\":412:1135  function toString(uint256 value) internal pure returns (string memory) {... */\n    tag_221:\n      swap2\n      swap1\n      pop\n      jump\t// out\n        /* \"34_ERC721/ERC721.sol\":4726:4906  function _approve(address owner, address operator, uint256 tokenId) private {... */\n    tag_180:\n        /* \"34_ERC721/ERC721.sol\":4840:4848  operator */\n      dup2\n        /* \"34_ERC721/ERC721.sol\":4813:4828  _tokenApprovals */\n      0x04\n        /* \"34_ERC721/ERC721.sol\":4813:4837  _tokenApprovals[tokenId] */\n      0x00\n        /* \"34_ERC721/ERC721.sol\":4829:4836  tokenId */\n      dup4\n        /* \"34_ERC721/ERC721.sol\":4813:4837  _tokenApprovals[tokenId] */\n      dup2\n      mstore\n      0x20\n      add\n      swap1\n      dup2\n      mstore\n      0x20\n      add\n      0x00\n      keccak256\n      0x00\n        /* \"34_ERC721/ERC721.sol\":4813:4848  _tokenApprovals[tokenId] = operator */\n      0x0100\n      exp\n      dup2\n      sload\n      dup2\n      0xffffffffffffffffffffffffffffffffffffffff\n      mul\n      not\n      and\n      swap1\n      dup4\n      0xffffffffffffffffffffffffffffffffffffffff\n      and\n      mul\n      or\n      swap1\n      sstore\n      pop\n        /* \"34_ERC721/ERC721.sol\":4890:4897  tokenId */\n      dup1\n        /* \"34_ERC721/ERC721.sol\":4880:4888  operator */\n      dup3\n        /* \"34_ERC721/ERC721.sol\":4864:4898  Approval(owner, operator, tokenId) */\n      0xffffffffffffffffffffffffffffffffffffffff\n      and\n        /* \"34_ERC721/ERC721.sol\":4873:4878  owner */\n      dup5\n        /* \"34_ERC721/ERC721.sol\":4864:4898  Approval(owner, operator, tokenId) */\n      0xffffffffffffffffffffffffffffffffffffffff\n      and\n      0x8c5be1e5ebec7d5bd14f71427d1e84f3dd0314c0f7b2291e5b200ac8c7c3b925\n      mload(0x40)\n      mload(0x40)\n      dup1\n      swap2\n      sub\n      swap1\n      log4\n        /* \"34_ERC721/ERC721.sol\":4726:4906  function _approve(address owner, address operator, uint256 tokenId) private {... */\n      pop\n      pop\n      pop\n      jump\t// out\n        /* \"#utility.yul\":88:205   */\n    tag_245:\n        /* \"#utility.yul\":197:198   */\n      0x00\n        /* \"#utility.yul\":194:195   */\n      0x00\n        /* \"#utility.yul\":187:199   */\n      revert\n        /* \"#utility.yul\":211:328   */\n    tag_246:\n        /* \"#utility.yul\":320:321   */\n      0x00\n        /* \"#utility.yul\":317:318   */\n      0x00\n        /* \"#utility.yul\":310:322   */\n      revert\n        /* \"#utility.yul\":334:483   */\n    tag_247:\n        /* \"#utility.yul\":370:377   */\n      0x00\n        /* \"#utility.yul\":410:476   */\n      0xffffffff00000000000000000000000000000000000000000000000000000000\n        /* \"#utility.yul\":403:408   */\n      dup3\n        /* \"#utility.yul\":399:477   */\n      and\n        /* \"#utility.yul\":388:477   */\n      swap1\n      pop\n        /* \"#utility.yul\":334:483   */\n      swap2\n      swap1\n      pop\n      jump\t// out\n        /* \"#utility.yul\":489:609   */\n    tag_248:\n        /* \"#utility.yul\":561:584   */\n      tag_297\n        /* \"#utility.yul\":578:583   */\n      dup2\n        /* \"#utility.yul\":561:584   */\n      tag_247\n      jump\t// in\n    tag_297:\n        /* \"#utility.yul\":554:559   */\n      dup2\n        /* \"#utility.yul\":551:585   */\n      eq\n        /* \"#utility.yul\":541:603   */\n      tag_298\n      jumpi\n        /* \"#utility.yul\":599:600   */\n      0x00\n        /* \"#utility.yul\":596:597   */\n      0x00\n        /* \"#utility.yul\":589:601   */\n      revert\n        /* \"#utility.yul\":541:603   */\n    tag_298:\n        /* \"#utility.yul\":489:609   */\n      pop\n      jump\t// out\n        /* \"#utility.yul\":615:752   */\n    tag_249:\n        /* \"#utility.yul\":660:665   */\n      0x00\n        /* \"#utility.yul\":698:704   */\n      dup2\n        /* \"#utility.yul\":685:705   */\n      calldataload\n        /* \"#utility.yul\":676:705   */\n      swap1\n      pop\n        /* \"#utility.yul\":714:746   */\n      tag_300\n        /* \"#utility.yul\":740:745   */\n      dup2\n        /* \"#utility.yul\":714:746   */\n      tag_248\n      jump\t// in\n    tag_300:\n        /* \"#utility.yul\":615:752   */\n      swap3\n      swap2\n      pop\n      pop\n      jump\t// out\n        /* \"#utility.yul\":758:1085   */\n    tag_27:\n        /* \"#utility.yul\":816:822   */\n      0x00\n        /* \"#utility.yul\":865:867   */\n      0x20\n        /* \"#utility.yul\":853:862   */\n      dup3\n        /* \"#utility.yul\":844:851   */\n      dup5\n        /* \"#utility.yul\":840:863   */\n      sub\n        /* \"#utility.yul\":836:868   */\n      slt\n        /* \"#utility.yul\":833:952   */\n      iszero\n      tag_302\n      jumpi\n        /* \"#utility.yul\":871:950   */\n      tag_303\n      tag_245\n      jump\t// in\n    tag_303:\n        /* \"#utility.yul\":833:952   */\n    tag_302:\n        /* \"#utility.yul\":991:992   */\n      0x00\n        /* \"#utility.yul\":1016:1068   */\n      tag_304\n        /* \"#utility.yul\":1060:1067   */\n      dup5\n        /* \"#utility.yul\":1051:1057   */\n      dup3\n        /* \"#utility.yul\":1040:1049   */\n      dup6\n        /* \"#utility.yul\":1036:1058   */\n      add\n        /* \"#utility.yul\":1016:1068   */\n      tag_249\n      jump\t// in\n    tag_304:\n        /* \"#utility.yul\":1006:1068   */\n      swap2\n      pop\n        /* \"#utility.yul\":962:1078   */\n      pop\n        /* \"#utility.yul\":758:1085   */\n      swap3\n      swap2\n      pop\n      pop\n      jump\t// out\n        /* \"#utility.yul\":1091:1181   */\n    tag_250:\n        /* \"#utility.yul\":1125:1132   */\n      0x00\n        /* \"#utility.yul\":1168:1173   */\n      dup2\n        /* \"#utility.yul\":1161:1174   */\n      iszero\n        /* \"#utility.yul\":1154:1175   */\n      iszero\n        /* \"#utility.yul\":1143:1175   */\n      swap1\n      pop\n        /* \"#utility.yul\":1091:1181   */\n      swap2\n      swap1\n      pop\n      jump\t// out\n        /* \"#utility.yul\":1187:1296   */\n    tag_251:\n        /* \"#utility.yul\":1268:1289   */\n      tag_307\n        /* \"#utility.yul\":1283:1288   */\n      dup2\n        /* \"#utility.yul\":1268:1289   */\n      tag_250\n      jump\t// in\n    tag_307:\n        /* \"#utility.yul\":1263:1266   */\n      dup3\n        /* \"#utility.yul\":1256:1290   */\n      mstore\n        /* \"#utility.yul\":1187:1296   */\n      pop\n      pop\n      jump\t// out\n        /* \"#utility.yul\":1302:1512   */\n    tag_30:\n        /* \"#utility.yul\":1389:1393   */\n      0x00\n        /* \"#utility.yul\":1427:1429   */\n      0x20\n        /* \"#utility.yul\":1416:1425   */\n      dup3\n        /* \"#utility.yul\":1412:1430   */\n      add\n        /* \"#utility.yul\":1404:1430   */\n      swap1\n      pop\n        /* \"#utility.yul\":1440:1505   */\n      tag_309\n        /* \"#utility.yul\":1502:1503   */\n      0x00\n        /* \"#utility.yul\":1491:1500   */\n      dup4\n        /* \"#utility.yul\":1487:1504   */\n      add\n        /* \"#utility.yul\":1478:1484   */\n      dup5\n        /* \"#utility.yul\":1440:1505   */\n      tag_251\n      jump\t// in\n    tag_309:\n        /* \"#utility.yul\":1302:1512   */\n      swap3\n      swap2\n      pop\n      pop\n      jump\t// out\n        /* \"#utility.yul\":1518:1617   */\n    tag_252:\n        /* \"#utility.yul\":1570:1576   */\n      0x00\n        /* \"#utility.yul\":1604:1609   */\n      dup2\n        /* \"#utility.yul\":1598:1610   */\n      mload\n        /* \"#utility.yul\":1588:1610   */\n      swap1\n      pop\n        /* \"#utility.yul\":1518:1617   */\n      swap2\n      swap1\n      pop\n      jump\t// out\n        /* \"#utility.yul\":1623:1792   */\n    tag_253:\n        /* \"#utility.yul\":1707:1718   */\n      0x00\n        /* \"#utility.yul\":1741:1747   */\n      dup3\n        /* \"#utility.yul\":1736:1739   */\n      dup3\n        /* \"#utility.yul\":1729:1748   */\n      mstore\n        /* \"#utility.yul\":1781:1785   */\n      0x20\n        /* \"#utility.yul\":1776:1779   */\n      dup3\n        /* \"#utility.yul\":1772:1786   */\n      add\n        /* \"#utility.yul\":1757:1786   */\n      swap1\n      pop\n        /* \"#utility.yul\":1623:1792   */\n      swap3\n      swap2\n      pop\n      pop\n      jump\t// out\n        /* \"#utility.yul\":1798:1937   */\n    tag_254:\n        /* \"#utility.yul\":1887:1893   */\n      dup3\n        /* \"#utility.yul\":1882:1885   */\n      dup2\n        /* \"#utility.yul\":1877:1880   */\n      dup4\n        /* \"#utility.yul\":1871:1894   */\n      mcopy\n        /* \"#utility.yul\":1928:1929   */\n      0x00\n        /* \"#utility.yul\":1919:1925   */\n      dup4\n        /* \"#utility.yul\":1914:1917   */\n      dup4\n        /* \"#utility.yul\":1910:1926   */\n      add\n        /* \"#utility.yul\":1903:1930   */\n      mstore\n        /* \"#utility.yul\":1798:1937   */\n      pop\n      pop\n      pop\n      jump\t// out\n        /* \"#utility.yul\":1943:2045   */\n    tag_255:\n        /* \"#utility.yul\":1984:1990   */\n      0x00\n        /* \"#utility.yul\":2035:2037   */\n      0x1f\n        /* \"#utility.yul\":2031:2038   */\n      not\n        /* \"#utility.yul\":2026:2028   */\n      0x1f\n        /* \"#utility.yul\":2019:2024   */\n      dup4\n        /* \"#utility.yul\":2015:2029   */\n      add\n        /* \"#utility.yul\":2011:2039   */\n      and\n        /* \"#utility.yul\":2001:2039   */\n      swap1\n      pop\n        /* \"#utility.yul\":1943:2045   */\n      swap2\n      swap1\n      pop\n      jump\t// out\n        /* \"#utility.yul\":2051:2428   */\n    tag_256:\n        /* \"#utility.yul\":2139:2142   */\n      0x00\n        /* \"#utility.yul\":2167:2206   */\n      tag_315\n        /* \"#utility.yul\":2200:2205   */\n      dup3\n        /* \"#utility.yul\":2167:2206   */\n      tag_252\n      jump\t// in\n    tag_315:\n        /* \"#utility.yul\":2222:2293   */\n      tag_316\n        /* \"#utility.yul\":2286:2292   */\n      dup2\n        /* \"#utility.yul\":2281:2284   */\n      dup6\n        /* \"#utility.yul\":2222:2293   */\n      tag_253\n      jump\t// in\n    tag_316:\n        /* \"#utility.yul\":2215:2293   */\n      swap4\n      pop\n        /* \"#utility.yul\":2302:2367   */\n      tag_317\n        /* \"#utility.yul\":2360:2366   */\n      dup2\n        /* \"#utility.yul\":2355:2358   */\n      dup6\n        /* \"#utility.yul\":2348:2352   */\n      0x20\n        /* \"#utility.yul\":2341:2346   */\n      dup7\n        /* \"#utility.yul\":2337:2353   */\n      add\n        /* \"#utility.yul\":2302:2367   */\n      tag_254\n      jump\t// in\n    tag_317:\n        /* \"#utility.yul\":2392:2421   */\n      tag_318\n        /* \"#utility.yul\":2414:2420   */\n      dup2\n        /* \"#utility.yul\":2392:2421   */\n      tag_255\n      jump\t// in\n    tag_318:\n        /* \"#utility.yul\":2387:2390   */\n      dup5\n        /* \"#utility.yul\":2383:2422   */\n      add\n        /* \"#utility.yul\":2376:2422   */\n      swap2\n      pop\n        /* \"#utility.yul\":2143:2428   */\n      pop\n        /* \"#utility.yul\":2051:2428   */\n      swap3\n      swap2\n      pop\n      pop\n      jump\t// out\n        /* \"#utility.yul\":2434:2747   */\n    tag_34:\n        /* \"#utility.yul\":2547:2551   */\n      0x00\n        /* \"#utility.yul\":2585:2587   */\n      0x20\n        /* \"#utility.yul\":2574:2583   */\n      dup3\n        /* \"#utility.yul\":2570:2588   */\n      add\n        /* \"#utility.yul\":2562:2588   */\n      swap1\n      pop\n        /* \"#utility.yul\":2634:2643   */\n      dup2\n        /* \"#utility.yul\":2628:2632   */\n      dup2\n        /* \"#utility.yul\":2624:2644   */\n      sub\n        /* \"#utility.yul\":2620:2621   */\n      0x00\n        /* \"#utility.yul\":2609:2618   */\n      dup4\n        /* \"#utility.yul\":2605:2622   */\n      add\n        /* \"#utility.yul\":2598:2645   */\n      mstore\n        /* \"#utility.yul\":2662:2740   */\n      tag_320\n        /* \"#utility.yul\":2735:2739   */\n      dup2\n        /* \"#utility.yul\":2726:2732   */\n      dup5\n        /* \"#utility.yul\":2662:2740   */\n      tag_256\n      jump\t// in\n    tag_320:\n        /* \"#utility.yul\":2654:2740   */\n      swap1\n      pop\n        /* \"#utility.yul\":2434:2747   */\n      swap3\n      swap2\n      pop\n      pop\n      jump\t// out\n        /* \"#utility.yul\":2753:2830   */\n    tag_257:\n        /* \"#utility.yul\":2790:2797   */\n      0x00\n        /* \"#utility.yul\":2819:2824   */\n      dup2\n        /* \"#utility.yul\":2808:2824   */\n      swap1\n      pop\n        /* \"#utility.yul\":2753:2830   */\n      swap2\n      swap1\n      pop\n      jump\t// out\n        /* \"#utility.yul\":2836:2958   */\n    tag_258:\n        /* \"#utility.yul\":2909:2933   */\n      tag_323\n        /* \"#utility.yul\":2927:2932   */\n      dup2\n        /* \"#utility.yul\":2909:2933   */\n      tag_257\n      jump\t// in\n    tag_323:\n        /* \"#utility.yul\":2902:2907   */\n      dup2\n        /* \"#utility.yul\":2899:2934   */\n      eq\n        /* \"#utility.yul\":2889:2952   */\n      tag_324\n      jumpi\n        /* \"#utility.yul\":2948:2949   */\n      0x00\n        /* \"#utility.yul\":2945:2946   */\n      0x00\n        /* \"#utility.yul\":2938:2950   */\n      revert\n        /* \"#utility.yul\":2889:2952   */\n    tag_324:\n        /* \"#utility.yul\":2836:2958   */\n      pop\n      jump\t// out\n        /* \"#utility.yul\":2964:3103   */\n    tag_259:\n        /* \"#utility.yul\":3010:3015   */\n      0x00\n        /* \"#utility.yul\":3048:3054   */\n      dup2\n        /* \"#utility.yul\":3035:3055   */\n      calldataload\n        /* \"#utility.yul\":3026:3055   */\n      swap1\n      pop\n        /* \"#utility.yul\":3064:3097   */\n      tag_326\n        /* \"#utility.yul\":3091:3096   */\n      dup2\n        /* \"#utility.yul\":3064:3097   */\n      tag_258\n      jump\t// in\n    tag_326:\n        /* \"#utility.yul\":2964:3103   */\n      swap3\n      swap2\n      pop\n      pop\n      jump\t// out\n        /* \"#utility.yul\":3109:3438   */\n    tag_37:\n        /* \"#utility.yul\":3168:3174   */\n      0x00\n        /* \"#utility.yul\":3217:3219   */\n      0x20\n        /* \"#utility.yul\":3205:3214   */\n      dup3\n        /* \"#utility.yul\":3196:3203   */\n      dup5\n        /* \"#utility.yul\":3192:3215   */\n      sub\n        /* \"#utility.yul\":3188:3220   */\n      slt\n        /* \"#utility.yul\":3185:3304   */\n      iszero\n      tag_328\n      jumpi\n        /* \"#utility.yul\":3223:3302   */\n      tag_329\n      tag_245\n      jump\t// in\n    tag_329:\n        /* \"#utility.yul\":3185:3304   */\n    tag_328:\n        /* \"#utility.yul\":3343:3344   */\n      0x00\n        /* \"#utility.yul\":3368:3421   */\n      tag_330\n        /* \"#utility.yul\":3413:3420   */\n      dup5\n        /* \"#utility.yul\":3404:3410   */\n      dup3\n        /* \"#utility.yul\":3393:3402   */\n      dup6\n        /* \"#utility.yul\":3389:3411   */\n      add\n        /* \"#utility.yul\":3368:3421   */\n      tag_259\n      jump\t// in\n    tag_330:\n        /* \"#utility.yul\":3358:3421   */\n      swap2\n      pop\n        /* \"#utility.yul\":3314:3431   */\n      pop\n        /* \"#utility.yul\":3109:3438   */\n      swap3\n      swap2\n      pop\n      pop\n      jump\t// out\n        /* \"#utility.yul\":3444:3570   */\n    tag_260:\n        /* \"#utility.yul\":3481:3488   */\n      0x00\n        /* \"#utility.yul\":3521:3563   */\n      0xffffffffffffffffffffffffffffffffffffffff\n        /* \"#utility.yul\":3514:3519   */\n      dup3\n        /* \"#utility.yul\":3510:3564   */\n      and\n        /* \"#utility.yul\":3499:3564   */\n      swap1\n      pop\n        /* \"#utility.yul\":3444:3570   */\n      swap2\n      swap1\n      pop\n      jump\t// out\n        /* \"#utility.yul\":3576:3672   */\n    tag_261:\n        /* \"#utility.yul\":3613:3620   */\n      0x00\n        /* \"#utility.yul\":3642:3666   */\n      tag_333\n        /* \"#utility.yul\":3660:3665   */\n      dup3\n        /* \"#utility.yul\":3642:3666   */\n      tag_260\n      jump\t// in\n    tag_333:\n        /* \"#utility.yul\":3631:3666   */\n      swap1\n      pop\n        /* \"#utility.yul\":3576:3672   */\n      swap2\n      swap1\n      pop\n      jump\t// out\n        /* \"#utility.yul\":3678:3796   */\n    tag_262:\n        /* \"#utility.yul\":3765:3789   */\n      tag_335\n        /* \"#utility.yul\":3783:3788   */\n      dup2\n        /* \"#utility.yul\":3765:3789   */\n      tag_261\n      jump\t// in\n    tag_335:\n        /* \"#utility.yul\":3760:3763   */\n      dup3\n        /* \"#utility.yul\":3753:3790   */\n      mstore\n        /* \"#utility.yul\":3678:3796   */\n      pop\n      pop\n      jump\t// out\n        /* \"#utility.yul\":3802:4024   */\n    tag_40:\n        /* \"#utility.yul\":3895:3899   */\n      0x00\n        /* \"#utility.yul\":3933:3935   */\n      0x20\n        /* \"#utility.yul\":3922:3931   */\n      dup3\n        /* \"#utility.yul\":3918:3936   */\n      add\n        /* \"#utility.yul\":3910:3936   */\n      swap1\n      pop\n        /* \"#utility.yul\":3946:4017   */\n      tag_337\n        /* \"#utility.yul\":4014:4015   */\n      0x00\n        /* \"#utility.yul\":4003:4012   */\n      dup4\n        /* \"#utility.yul\":3999:4016   */\n      add\n        /* \"#utility.yul\":3990:3996   */\n      dup5\n        /* \"#utility.yul\":3946:4017   */\n      tag_262\n      jump\t// in\n    tag_337:\n        /* \"#utility.yul\":3802:4024   */\n      swap3\n      swap2\n      pop\n      pop\n      jump\t// out\n        /* \"#utility.yul\":4030:4152   */\n    tag_263:\n        /* \"#utility.yul\":4103:4127   */\n      tag_339\n        /* \"#utility.yul\":4121:4126   */\n      dup2\n        /* \"#utility.yul\":4103:4127   */\n      tag_261\n      jump\t// in\n    tag_339:\n        /* \"#utility.yul\":4096:4101   */\n      dup2\n        /* \"#utility.yul\":4093:4128   */\n      eq\n        /* \"#utility.yul\":4083:4146   */\n      tag_340\n      jumpi\n        /* \"#utility.yul\":4142:4143   */\n      0x00\n        /* \"#utility.yul\":4139:4140   */\n      0x00\n        /* \"#utility.yul\":4132:4144   */\n      revert\n        /* \"#utility.yul\":4083:4146   */\n    tag_340:\n        /* \"#utility.yul\":4030:4152   */\n      pop\n      jump\t// out\n        /* \"#utility.yul\":4158:4297   */\n    tag_264:\n        /* \"#utility.yul\":4204:4209   */\n      0x00\n        /* \"#utility.yul\":4242:4248   */\n      dup2\n        /* \"#utility.yul\":4229:4249   */\n      calldataload\n        /* \"#utility.yul\":4220:4249   */\n      swap1\n      pop\n        /* \"#utility.yul\":4258:4291   */\n      tag_342\n        /* \"#utility.yul\":4285:4290   */\n      dup2\n        /* \"#utility.yul\":4258:4291   */\n      tag_263\n      jump\t// in\n    tag_342:\n        /* \"#utility.yul\":4158:4297   */\n      swap3\n      swap2\n      pop\n      pop\n      jump\t// out\n        /* \"#utility.yul\":4303:4922   */\n    tag_43:\n        /* \"#utility.yul\":4380:4386   */\n      0x00\n        /* \"#utility.yul\":4388:4394   */\n      0x00\n        /* \"#utility.yul\":4396:4402   */\n      0x00\n        /* \"#utility.yul\":4445:4447   */\n      0x60\n        /* \"#utility.yul\":4433:4442   */\n      dup5\n        /* \"#utility.yul\":4424:4431   */\n      dup7\n        /* \"#utility.yul\":4420:4443   */\n      sub\n        /* \"#utility.yul\":4416:4448   */\n      slt\n        /* \"#utility.yul\":4413:4532   */\n      iszero\n      tag_344\n      jumpi\n        /* \"#utility.yul\":4451:4530   */\n      tag_345\n      tag_245\n      jump\t// in\n    tag_345:\n        /* \"#utility.yul\":4413:4532   */\n    tag_344:\n        /* \"#utility.yul\":4571:4572   */\n      0x00\n        /* \"#utility.yul\":4596:4649   */\n      tag_346\n        /* \"#utility.yul\":4641:4648   */\n      dup7\n        /* \"#utility.yul\":4632:4638   */\n      dup3\n        /* \"#utility.yul\":4621:4630   */\n      dup8\n        /* \"#utility.yul\":4617:4639   */\n      add\n        /* \"#utility.yul\":4596:4649   */\n      tag_264\n      jump\t// in\n    tag_346:\n        /* \"#utility.yul\":4586:4649   */\n      swap4\n      pop\n        /* \"#utility.yul\":4542:4659   */\n      pop\n        /* \"#utility.yul\":4698:4700   */\n      0x20\n        /* \"#utility.yul\":4724:4777   */\n      tag_347\n        /* \"#utility.yul\":4769:4776   */\n      dup7\n        /* \"#utility.yul\":4760:4766   */\n      dup3\n        /* \"#utility.yul\":4749:4758   */\n      dup8\n        /* \"#utility.yul\":4745:4767   */\n      add\n        /* \"#utility.yul\":4724:4777   */\n      tag_264\n      jump\t// in\n    tag_347:\n        /* \"#utility.yul\":4714:4777   */\n      swap3\n      pop\n        /* \"#utility.yul\":4669:4787   */\n      pop\n        /* \"#utility.yul\":4826:4828   */\n      0x40\n        /* \"#utility.yul\":4852:4905   */\n      tag_348\n        /* \"#utility.yul\":4897:4904   */\n      dup7\n        /* \"#utility.yul\":4888:4894   */\n      dup3\n        /* \"#utility.yul\":4877:4886   */\n      dup8\n        /* \"#utility.yul\":4873:4895   */\n      add\n        /* \"#utility.yul\":4852:4905   */\n      tag_259\n      jump\t// in\n    tag_348:\n        /* \"#utility.yul\":4842:4905   */\n      swap2\n      pop\n        /* \"#utility.yul\":4797:4915   */\n      pop\n        /* \"#utility.yul\":4303:4922   */\n      swap3\n      pop\n      swap3\n      pop\n      swap3\n      jump\t// out\n        /* \"#utility.yul\":4928:5402   */\n    tag_47:\n        /* \"#utility.yul\":4996:5002   */\n      0x00\n        /* \"#utility.yul\":5004:5010   */\n      0x00\n        /* \"#utility.yul\":5053:5055   */\n      0x40\n        /* \"#utility.yul\":5041:5050   */\n      dup4\n        /* \"#utility.yul\":5032:5039   */\n      dup6\n        /* \"#utility.yul\":5028:5051   */\n      sub\n        /* \"#utility.yul\":5024:5056   */\n      slt\n        /* \"#utility.yul\":5021:5140   */\n      iszero\n      tag_350\n      jumpi\n        /* \"#utility.yul\":5059:5138   */\n      tag_351\n      tag_245\n      jump\t// in\n    tag_351:\n        /* \"#utility.yul\":5021:5140   */\n    tag_350:\n        /* \"#utility.yul\":5179:5180   */\n      0x00\n        /* \"#utility.yul\":5204:5257   */\n      tag_352\n        /* \"#utility.yul\":5249:5256   */\n      dup6\n        /* \"#utility.yul\":5240:5246   */\n      dup3\n        /* \"#utility.yul\":5229:5238   */\n      dup7\n        /* \"#utility.yul\":5225:5247   */\n      add\n        /* \"#utility.yul\":5204:5257   */\n      tag_264\n      jump\t// in\n    tag_352:\n        /* \"#utility.yul\":5194:5257   */\n      swap3\n      pop\n        /* \"#utility.yul\":5150:5267   */\n      pop\n        /* \"#utility.yul\":5306:5308   */\n      0x20\n        /* \"#utility.yul\":5332:5385   */\n      tag_353\n        /* \"#utility.yul\":5377:5384   */\n      dup6\n        /* \"#utility.yul\":5368:5374   */\n      dup3\n        /* \"#utility.yul\":5357:5366   */\n      dup7\n        /* \"#utility.yul\":5353:5375   */\n      add\n        /* \"#utility.yul\":5332:5385   */\n      tag_259\n      jump\t// in\n    tag_353:\n        /* \"#utility.yul\":5322:5385   */\n      swap2\n      pop\n        /* \"#utility.yul\":5277:5395   */\n      pop\n        /* \"#utility.yul\":4928:5402   */\n      swap3\n      pop\n      swap3\n      swap1\n      pop\n      jump\t// out\n        /* \"#utility.yul\":5408:5737   */\n    tag_58:\n        /* \"#utility.yul\":5467:5473   */\n      0x00\n        /* \"#utility.yul\":5516:5518   */\n      0x20\n        /* \"#utility.yul\":5504:5513   */\n      dup3\n        /* \"#utility.yul\":5495:5502   */\n      dup5\n        /* \"#utility.yul\":5491:5514   */\n      sub\n        /* \"#utility.yul\":5487:5519   */\n      slt\n        /* \"#utility.yul\":5484:5603   */\n      iszero\n      tag_355\n      jumpi\n        /* \"#utility.yul\":5522:5601   */\n      tag_356\n      tag_245\n      jump\t// in\n    tag_356:\n        /* \"#utility.yul\":5484:5603   */\n    tag_355:\n        /* \"#utility.yul\":5642:5643   */\n      0x00\n        /* \"#utility.yul\":5667:5720   */\n      tag_357\n        /* \"#utility.yul\":5712:5719   */\n      dup5\n        /* \"#utility.yul\":5703:5709   */\n      dup3\n        /* \"#utility.yul\":5692:5701   */\n      dup6\n        /* \"#utility.yul\":5688:5710   */\n      add\n        /* \"#utility.yul\":5667:5720   */\n      tag_264\n      jump\t// in\n    tag_357:\n        /* \"#utility.yul\":5657:5720   */\n      swap2\n      pop\n        /* \"#utility.yul\":5613:5730   */\n      pop\n        /* \"#utility.yul\":5408:5737   */\n      swap3\n      swap2\n      pop\n      pop\n      jump\t// out\n        /* \"#utility.yul\":5743:5861   */\n    tag_265:\n        /* \"#utility.yul\":5830:5854   */\n      tag_359\n        /* \"#utility.yul\":5848:5853   */\n      dup2\n        /* \"#utility.yul\":5830:5854   */\n      tag_257\n      jump\t// in\n    tag_359:\n        /* \"#utility.yul\":5825:5828   */\n      dup3\n        /* \"#utility.yul\":5818:5855   */\n      mstore\n        /* \"#utility.yul\":5743:5861   */\n      pop\n      pop\n      jump\t// out\n        /* \"#utility.yul\":5867:6089   */\n    tag_61:\n        /* \"#utility.yul\":5960:5964   */\n      0x00\n        /* \"#utility.yul\":5998:6000   */\n      0x20\n        /* \"#utility.yul\":5987:5996   */\n      dup3\n        /* \"#utility.yul\":5983:6001   */\n      add\n        /* \"#utility.yul\":5975:6001   */\n      swap1\n      pop\n        /* \"#utility.yul\":6011:6082   */\n      tag_361\n        /* \"#utility.yul\":6079:6080   */\n      0x00\n        /* \"#utility.yul\":6068:6077   */\n      dup4\n        /* \"#utility.yul\":6064:6081   */\n      add\n        /* \"#utility.yul\":6055:6061   */\n      dup5\n        /* \"#utility.yul\":6011:6082   */\n      tag_265\n      jump\t// in\n    tag_361:\n        /* \"#utility.yul\":5867:6089   */\n      swap3\n      swap2\n      pop\n      pop\n      jump\t// out\n        /* \"#utility.yul\":6095:6212   */\n    tag_266:\n        /* \"#utility.yul\":6204:6205   */\n      0x00\n        /* \"#utility.yul\":6201:6202   */\n      0x00\n        /* \"#utility.yul\":6194:6206   */\n      revert\n        /* \"#utility.yul\":6218:6335   */\n    tag_267:\n        /* \"#utility.yul\":6327:6328   */\n      0x00\n        /* \"#utility.yul\":6324:6325   */\n      0x00\n        /* \"#utility.yul\":6317:6329   */\n      revert\n        /* \"#utility.yul\":6341:6458   */\n    tag_268:\n        /* \"#utility.yul\":6450:6451   */\n      0x00\n        /* \"#utility.yul\":6447:6448   */\n      0x00\n        /* \"#utility.yul\":6440:6452   */\n      revert\n        /* \"#utility.yul\":6477:7029   */\n    tag_269:\n        /* \"#utility.yul\":6534:6542   */\n      0x00\n        /* \"#utility.yul\":6544:6550   */\n      0x00\n        /* \"#utility.yul\":6594:6597   */\n      dup4\n        /* \"#utility.yul\":6587:6591   */\n      0x1f\n        /* \"#utility.yul\":6579:6585   */\n      dup5\n        /* \"#utility.yul\":6575:6592   */\n      add\n        /* \"#utility.yul\":6571:6598   */\n      slt\n        /* \"#utility.yul\":6561:6683   */\n      tag_366\n      jumpi\n        /* \"#utility.yul\":6602:6681   */\n      tag_367\n      tag_266\n      jump\t// in\n    tag_367:\n        /* \"#utility.yul\":6561:6683   */\n    tag_366:\n        /* \"#utility.yul\":6715:6721   */\n      dup3\n        /* \"#utility.yul\":6702:6722   */\n      calldataload\n        /* \"#utility.yul\":6692:6722   */\n      swap1\n      pop\n        /* \"#utility.yul\":6745:6763   */\n      0xffffffffffffffff\n        /* \"#utility.yul\":6737:6743   */\n      dup2\n        /* \"#utility.yul\":6734:6764   */\n      gt\n        /* \"#utility.yul\":6731:6848   */\n      iszero\n      tag_368\n      jumpi\n        /* \"#utility.yul\":6767:6846   */\n      tag_369\n      tag_267\n      jump\t// in\n    tag_369:\n        /* \"#utility.yul\":6731:6848   */\n    tag_368:\n        /* \"#utility.yul\":6881:6885   */\n      0x20\n        /* \"#utility.yul\":6873:6879   */\n      dup4\n        /* \"#utility.yul\":6869:6886   */\n      add\n        /* \"#utility.yul\":6857:6886   */\n      swap2\n      pop\n        /* \"#utility.yul\":6935:6938   */\n      dup4\n        /* \"#utility.yul\":6927:6931   */\n      0x01\n        /* \"#utility.yul\":6919:6925   */\n      dup3\n        /* \"#utility.yul\":6915:6932   */\n      mul\n        /* \"#utility.yul\":6905:6913   */\n      dup4\n        /* \"#utility.yul\":6901:6933   */\n      add\n        /* \"#utility.yul\":6898:6939   */\n      gt\n        /* \"#utility.yul\":6895:7023   */\n      iszero\n      tag_370\n      jumpi\n        /* \"#utility.yul\":6942:7021   */\n      tag_371\n      tag_268\n      jump\t// in\n    tag_371:\n        /* \"#utility.yul\":6895:7023   */\n    tag_370:\n        /* \"#utility.yul\":6477:7029   */\n      swap3\n      pop\n      swap3\n      swap1\n      pop\n      jump\t// out\n        /* \"#utility.yul\":7035:7998   */\n    tag_79:\n        /* \"#utility.yul\":7132:7138   */\n      0x00\n        /* \"#utility.yul\":7140:7146   */\n      0x00\n        /* \"#utility.yul\":7148:7154   */\n      0x00\n        /* \"#utility.yul\":7156:7162   */\n      0x00\n        /* \"#utility.yul\":7164:7170   */\n      0x00\n        /* \"#utility.yul\":7213:7216   */\n      0x80\n        /* \"#utility.yul\":7201:7210   */\n      dup7\n        /* \"#utility.yul\":7192:7199   */\n      dup9\n        /* \"#utility.yul\":7188:7211   */\n      sub\n        /* \"#utility.yul\":7184:7217   */\n      slt\n        /* \"#utility.yul\":7181:7301   */\n      iszero\n      tag_373\n      jumpi\n        /* \"#utility.yul\":7220:7299   */\n      tag_374\n      tag_245\n      jump\t// in\n    tag_374:\n        /* \"#utility.yul\":7181:7301   */\n    tag_373:\n        /* \"#utility.yul\":7340:7341   */\n      0x00\n        /* \"#utility.yul\":7365:7418   */\n      tag_375\n        /* \"#utility.yul\":7410:7417   */\n      dup9\n        /* \"#utility.yul\":7401:7407   */\n      dup3\n        /* \"#utility.yul\":7390:7399   */\n      dup10\n        /* \"#utility.yul\":7386:7408   */\n      add\n        /* \"#utility.yul\":7365:7418   */\n      tag_264\n      jump\t// in\n    tag_375:\n        /* \"#utility.yul\":7355:7418   */\n      swap6\n      pop\n        /* \"#utility.yul\":7311:7428   */\n      pop\n        /* \"#utility.yul\":7467:7469   */\n      0x20\n        /* \"#utility.yul\":7493:7546   */\n      tag_376\n        /* \"#utility.yul\":7538:7545   */\n      dup9\n        /* \"#utility.yul\":7529:7535   */\n      dup3\n        /* \"#utility.yul\":7518:7527   */\n      dup10\n        /* \"#utility.yul\":7514:7536   */\n      add\n        /* \"#utility.yul\":7493:7546   */\n      tag_264\n      jump\t// in\n    tag_376:\n        /* \"#utility.yul\":7483:7546   */\n      swap5\n      pop\n        /* \"#utility.yul\":7438:7556   */\n      pop\n        /* \"#utility.yul\":7595:7597   */\n      0x40\n        /* \"#utility.yul\":7621:7674   */\n      tag_377\n        /* \"#utility.yul\":7666:7673   */\n      dup9\n        /* \"#utility.yul\":7657:7663   */\n      dup3\n        /* \"#utility.yul\":7646:7655   */\n      dup10\n        /* \"#utility.yul\":7642:7664   */\n      add\n        /* \"#utility.yul\":7621:7674   */\n      tag_259\n      jump\t// in\n    tag_377:\n        /* \"#utility.yul\":7611:7674   */\n      swap4\n      pop\n        /* \"#utility.yul\":7566:7684   */\n      pop\n        /* \"#utility.yul\":7751:7753   */\n      0x60\n        /* \"#utility.yul\":7740:7749   */\n      dup7\n        /* \"#utility.yul\":7736:7754   */\n      add\n        /* \"#utility.yul\":7723:7755   */\n      calldataload\n        /* \"#utility.yul\":7782:7800   */\n      0xffffffffffffffff\n        /* \"#utility.yul\":7774:7780   */\n      dup2\n        /* \"#utility.yul\":7771:7801   */\n      gt\n        /* \"#utility.yul\":7768:7885   */\n      iszero\n      tag_378\n      jumpi\n        /* \"#utility.yul\":7804:7883   */\n      tag_379\n      tag_246\n      jump\t// in\n    tag_379:\n        /* \"#utility.yul\":7768:7885   */\n    tag_378:\n        /* \"#utility.yul\":7917:7981   */\n      tag_380\n        /* \"#utility.yul\":7973:7980   */\n      dup9\n        /* \"#utility.yul\":7964:7970   */\n      dup3\n        /* \"#utility.yul\":7953:7962   */\n      dup10\n        /* \"#utility.yul\":7949:7971   */\n      add\n        /* \"#utility.yul\":7917:7981   */\n      tag_269\n      jump\t// in\n    tag_380:\n        /* \"#utility.yul\":7899:7981   */\n      swap3\n      pop\n      swap3\n      pop\n        /* \"#utility.yul\":7694:7991   */\n      pop\n        /* \"#utility.yul\":7035:7998   */\n      swap3\n      swap6\n      pop\n      swap3\n      swap6\n      swap1\n      swap4\n      pop\n      jump\t// out\n        /* \"#utility.yul\":8004:8120   */\n    tag_270:\n        /* \"#utility.yul\":8074:8095   */\n      tag_382\n        /* \"#utility.yul\":8089:8094   */\n      dup2\n        /* \"#utility.yul\":8074:8095   */\n      tag_250\n      jump\t// in\n    tag_382:\n        /* \"#utility.yul\":8067:8072   */\n      dup2\n        /* \"#utility.yul\":8064:8096   */\n      eq\n        /* \"#utility.yul\":8054:8114   */\n      tag_383\n      jumpi\n        /* \"#utility.yul\":8110:8111   */\n      0x00\n        /* \"#utility.yul\":8107:8108   */\n      0x00\n        /* \"#utility.yul\":8100:8112   */\n      revert\n        /* \"#utility.yul\":8054:8114   */\n    tag_383:\n        /* \"#utility.yul\":8004:8120   */\n      pop\n      jump\t// out\n        /* \"#utility.yul\":8126:8259   */\n    tag_271:\n        /* \"#utility.yul\":8169:8174   */\n      0x00\n        /* \"#utility.yul\":8207:8213   */\n      dup2\n        /* \"#utility.yul\":8194:8214   */\n      calldataload\n        /* \"#utility.yul\":8185:8214   */\n      swap1\n      pop\n        /* \"#utility.yul\":8223:8253   */\n      tag_385\n        /* \"#utility.yul\":8247:8252   */\n      dup2\n        /* \"#utility.yul\":8223:8253   */\n      tag_270\n      jump\t// in\n    tag_385:\n        /* \"#utility.yul\":8126:8259   */\n      swap3\n      swap2\n      pop\n      pop\n      jump\t// out\n        /* \"#utility.yul\":8265:8733   */\n    tag_86:\n        /* \"#utility.yul\":8330:8336   */\n      0x00\n        /* \"#utility.yul\":8338:8344   */\n      0x00\n        /* \"#utility.yul\":8387:8389   */\n      0x40\n        /* \"#utility.yul\":8375:8384   */\n      dup4\n        /* \"#utility.yul\":8366:8373   */\n      dup6\n        /* \"#utility.yul\":8362:8385   */\n      sub\n        /* \"#utility.yul\":8358:8390   */\n      slt\n        /* \"#utility.yul\":8355:8474   */\n      iszero\n      tag_387\n      jumpi\n        /* \"#utility.yul\":8393:8472   */\n      tag_388\n      tag_245\n      jump\t// in\n    tag_388:\n        /* \"#utility.yul\":8355:8474   */\n    tag_387:\n        /* \"#utility.yul\":8513:8514   */\n      0x00\n        /* \"#utility.yul\":8538:8591   */\n      tag_389\n        /* \"#utility.yul\":8583:8590   */\n      dup6\n        /* \"#utility.yul\":8574:8580   */\n      dup3\n        /* \"#utility.yul\":8563:8572   */\n      dup7\n        /* \"#utility.yul\":8559:8581   */\n      add\n        /* \"#utility.yul\":8538:8591   */\n      tag_264\n      jump\t// in\n    tag_389:\n        /* \"#utility.yul\":8528:8591   */\n      swap3\n      pop\n        /* \"#utility.yul\":8484:8601   */\n      pop\n        /* \"#utility.yul\":8640:8642   */\n      0x20\n        /* \"#utility.yul\":8666:8716   */\n      tag_390\n        /* \"#utility.yul\":8708:8715   */\n      dup6\n        /* \"#utility.yul\":8699:8705   */\n      dup3\n        /* \"#utility.yul\":8688:8697   */\n      dup7\n        /* \"#utility.yul\":8684:8706   */\n      add\n        /* \"#utility.yul\":8666:8716   */\n      tag_271\n      jump\t// in\n    tag_390:\n        /* \"#utility.yul\":8656:8716   */\n      swap2\n      pop\n        /* \"#utility.yul\":8611:8726   */\n      pop\n        /* \"#utility.yul\":8265:8733   */\n      swap3\n      pop\n      swap3\n      swap1\n      pop\n      jump\t// out\n        /* \"#utility.yul\":8739:9213   */\n    tag_94:\n        /* \"#utility.yul\":8807:8813   */\n      0x00\n        /* \"#utility.yul\":8815:8821   */\n      0x00\n        /* \"#utility.yul\":8864:8866   */\n      0x40\n        /* \"#utility.yul\":8852:8861   */\n      dup4\n        /* \"#utility.yul\":8843:8850   */\n      dup6\n        /* \"#utility.yul\":8839:8862   */\n      sub\n        /* \"#utility.yul\":8835:8867   */\n      slt\n        /* \"#utility.yul\":8832:8951   */\n      iszero\n      tag_392\n      jumpi\n        /* \"#utility.yul\":8870:8949   */\n      tag_393\n      tag_245\n      jump\t// in\n    tag_393:\n        /* \"#utility.yul\":8832:8951   */\n    tag_392:\n        /* \"#utility.yul\":8990:8991   */\n      0x00\n        /* \"#utility.yul\":9015:9068   */\n      tag_394\n        /* \"#utility.yul\":9060:9067   */\n      dup6\n        /* \"#utility.yul\":9051:9057   */\n      dup3\n        /* \"#utility.yul\":9040:9049   */\n      dup7\n        /* \"#utility.yul\":9036:9058   */\n      add\n        /* \"#utility.yul\":9015:9068   */\n      tag_264\n      jump\t// in\n    tag_394:\n        /* \"#utility.yul\":9005:9068   */\n      swap3\n      pop\n        /* \"#utility.yul\":8961:9078   */\n      pop\n        /* \"#utility.yul\":9117:9119   */\n      0x20\n        /* \"#utility.yul\":9143:9196   */\n      tag_395\n        /* \"#utility.yul\":9188:9195   */\n      dup6\n        /* \"#utility.yul\":9179:9185   */\n      dup3\n        /* \"#utility.yul\":9168:9177   */\n      dup7\n        /* \"#utility.yul\":9164:9186   */\n      add\n        /* \"#utility.yul\":9143:9196   */\n      tag_264\n      jump\t// in\n    tag_395:\n        /* \"#utility.yul\":9133:9196   */\n      swap2\n      pop\n        /* \"#utility.yul\":9088:9206   */\n      pop\n        /* \"#utility.yul\":8739:9213   */\n      swap3\n      pop\n      swap3\n      swap1\n      pop\n      jump\t// out\n        /* \"#utility.yul\":9219:9693   */\n    tag_99:\n        /* \"#utility.yul\":9287:9293   */\n      0x00\n        /* \"#utility.yul\":9295:9301   */\n      0x00\n        /* \"#utility.yul\":9344:9346   */\n      0x40\n        /* \"#utility.yul\":9332:9341   */\n      dup4\n        /* \"#utility.yul\":9323:9330   */\n      dup6\n        /* \"#utility.yul\":9319:9342   */\n      sub\n        /* \"#utility.yul\":9315:9347   */\n      slt\n        /* \"#utility.yul\":9312:9431   */\n      iszero\n      tag_397\n      jumpi\n        /* \"#utility.yul\":9350:9429   */\n      tag_398\n      tag_245\n      jump\t// in\n    tag_398:\n        /* \"#utility.yul\":9312:9431   */\n    tag_397:\n        /* \"#utility.yul\":9470:9471   */\n      0x00\n        /* \"#utility.yul\":9495:9548   */\n      tag_399\n        /* \"#utility.yul\":9540:9547   */\n      dup6\n        /* \"#utility.yul\":9531:9537   */\n      dup3\n        /* \"#utility.yul\":9520:9529   */\n      dup7\n        /* \"#utility.yul\":9516:9538   */\n      add\n        /* \"#utility.yul\":9495:9548   */\n      tag_259\n      jump\t// in\n    tag_399:\n        /* \"#utility.yul\":9485:9548   */\n      swap3\n      pop\n        /* \"#utility.yul\":9441:9558   */\n      pop\n        /* \"#utility.yul\":9597:9599   */\n      0x20\n        /* \"#utility.yul\":9623:9676   */\n      tag_400\n        /* \"#utility.yul\":9668:9675   */\n      dup6\n        /* \"#utility.yul\":9659:9665   */\n      dup3\n        /* \"#utility.yul\":9648:9657   */\n      dup7\n        /* \"#utility.yul\":9644:9666   */\n      add\n        /* \"#utility.yul\":9623:9676   */\n      tag_264\n      jump\t// in\n    tag_400:\n        /* \"#utility.yul\":9613:9676   */\n      swap2\n      pop\n        /* \"#utility.yul\":9568:9686   */\n      pop\n        /* \"#utility.yul\":9219:9693   */\n      swap3\n      pop\n      swap3\n      swap1\n      pop\n      jump\t// out\n        /* \"#utility.yul\":9699:9879   */\n    tag_272:\n        /* \"#utility.yul\":9747:9824   */\n      0x4e487b7100000000000000000000000000000000000000000000000000000000\n        /* \"#utility.yul\":9744:9745   */\n      0x00\n        /* \"#utility.yul\":9737:9825   */\n      mstore\n        /* \"#utility.yul\":9844:9848   */\n      0x22\n        /* \"#utility.yul\":9841:9842   */\n      0x04\n        /* \"#utility.yul\":9834:9849   */\n      mstore\n        /* \"#utility.yul\":9868:9872   */\n      0x24\n        /* \"#utility.yul\":9865:9866   */\n      0x00\n        /* \"#utility.yul\":9858:9873   */\n      revert\n        /* \"#utility.yul\":9885:10205   */\n    tag_109:\n        /* \"#utility.yul\":9929:9935   */\n      0x00\n        /* \"#utility.yul\":9966:9967   */\n      0x02\n        /* \"#utility.yul\":9960:9964   */\n      dup3\n        /* \"#utility.yul\":9956:9968   */\n      div\n        /* \"#utility.yul\":9946:9968   */\n      swap1\n      pop\n        /* \"#utility.yul\":10013:10014   */\n      0x01\n        /* \"#utility.yul\":10007:10011   */\n      dup3\n        /* \"#utility.yul\":10003:10015   */\n      and\n        /* \"#utility.yul\":10034:10052   */\n      dup1\n        /* \"#utility.yul\":10024:10105   */\n      tag_403\n      jumpi\n        /* \"#utility.yul\":10090:10094   */\n      0x7f\n        /* \"#utility.yul\":10082:10088   */\n      dup3\n        /* \"#utility.yul\":10078:10095   */\n      and\n        /* \"#utility.yul\":10068:10095   */\n      swap2\n      pop\n        /* \"#utility.yul\":10024:10105   */\n    tag_403:\n        /* \"#utility.yul\":10152:10154   */\n      0x20\n        /* \"#utility.yul\":10144:10150   */\n      dup3\n        /* \"#utility.yul\":10141:10155   */\n      lt\n        /* \"#utility.yul\":10121:10139   */\n      dup2\n        /* \"#utility.yul\":10118:10156   */\n      sub\n        /* \"#utility.yul\":10115:10199   */\n      tag_404\n      jumpi\n        /* \"#utility.yul\":10171:10189   */\n      tag_405\n      tag_272\n      jump\t// in\n    tag_405:\n        /* \"#utility.yul\":10115:10199   */\n    tag_404:\n        /* \"#utility.yul\":9936:10205   */\n      pop\n        /* \"#utility.yul\":9885:10205   */\n      swap2\n      swap1\n      pop\n      jump\t// out\n        /* \"#utility.yul\":10211:10325   */\n    tag_273:\n      pop\n      jump\t// out\n        /* \"#utility.yul\":10331:10695   */\n    tag_274:\n        /* \"#utility.yul\":10473:10476   */\n      0x00\n        /* \"#utility.yul\":10494:10560   */\n      tag_408\n        /* \"#utility.yul\":10558:10559   */\n      0x00\n        /* \"#utility.yul\":10553:10556   */\n      dup4\n        /* \"#utility.yul\":10494:10560   */\n      tag_253\n      jump\t// in\n    tag_408:\n        /* \"#utility.yul\":10487:10560   */\n      swap2\n      pop\n        /* \"#utility.yul\":10569:10662   */\n      tag_409\n        /* \"#utility.yul\":10658:10661   */\n      dup3\n        /* \"#utility.yul\":10569:10662   */\n      tag_273\n      jump\t// in\n    tag_409:\n        /* \"#utility.yul\":10687:10688   */\n      0x00\n        /* \"#utility.yul\":10682:10685   */\n      dup3\n        /* \"#utility.yul\":10678:10689   */\n      add\n        /* \"#utility.yul\":10671:10689   */\n      swap1\n      pop\n        /* \"#utility.yul\":10331:10695   */\n      swap2\n      swap1\n      pop\n      jump\t// out\n        /* \"#utility.yul\":10701:11120   */\n    tag_118:\n        /* \"#utility.yul\":10867:10871   */\n      0x00\n        /* \"#utility.yul\":10905:10907   */\n      0x20\n        /* \"#utility.yul\":10894:10903   */\n      dup3\n        /* \"#utility.yul\":10890:10908   */\n      add\n        /* \"#utility.yul\":10882:10908   */\n      swap1\n      pop\n        /* \"#utility.yul\":10954:10963   */\n      dup2\n        /* \"#utility.yul\":10948:10952   */\n      dup2\n        /* \"#utility.yul\":10944:10964   */\n      sub\n        /* \"#utility.yul\":10940:10941   */\n      0x00\n        /* \"#utility.yul\":10929:10938   */\n      dup4\n        /* \"#utility.yul\":10925:10942   */\n      add\n        /* \"#utility.yul\":10918:10965   */\n      mstore\n        /* \"#utility.yul\":10982:11113   */\n      tag_411\n        /* \"#utility.yul\":11108:11112   */\n      dup2\n        /* \"#utility.yul\":10982:11113   */\n      tag_274\n      jump\t// in\n    tag_411:\n        /* \"#utility.yul\":10974:11113   */\n      swap1\n      pop\n        /* \"#utility.yul\":10701:11120   */\n      swap2\n      swap1\n      pop\n      jump\t// out\n        /* \"#utility.yul\":11126:11296   */\n    tag_275:\n        /* \"#utility.yul\":11266:11288   */\n      0x746f6b656e4964206f7574206f662072616e6765000000000000000000000000\n        /* \"#utility.yul\":11262:11263   */\n      0x00\n        /* \"#utility.yul\":11254:11260   */\n      dup3\n        /* \"#utility.yul\":11250:11264   */\n      add\n        /* \"#utility.yul\":11243:11289   */\n      mstore\n        /* \"#utility.yul\":11126:11296   */\n      pop\n      jump\t// out\n        /* \"#utility.yul\":11302:11668   */\n    tag_276:\n        /* \"#utility.yul\":11444:11447   */\n      0x00\n        /* \"#utility.yul\":11465:11532   */\n      tag_414\n        /* \"#utility.yul\":11529:11531   */\n      0x14\n        /* \"#utility.yul\":11524:11527   */\n      dup4\n        /* \"#utility.yul\":11465:11532   */\n      tag_253\n      jump\t// in\n    tag_414:\n        /* \"#utility.yul\":11458:11532   */\n      swap2\n      pop\n        /* \"#utility.yul\":11541:11634   */\n      tag_415\n        /* \"#utility.yul\":11630:11633   */\n      dup3\n        /* \"#utility.yul\":11541:11634   */\n      tag_275\n      jump\t// in\n    tag_415:\n        /* \"#utility.yul\":11659:11661   */\n      0x20\n        /* \"#utility.yul\":11654:11657   */\n      dup3\n        /* \"#utility.yul\":11650:11662   */\n      add\n        /* \"#utility.yul\":11643:11662   */\n      swap1\n      pop\n        /* \"#utility.yul\":11302:11668   */\n      swap2\n      swap1\n      pop\n      jump\t// out\n        /* \"#utility.yul\":11674:12093   */\n    tag_133:\n        /* \"#utility.yul\":11840:11844   */\n      0x00\n        /* \"#utility.yul\":11878:11880   */\n      0x20\n        /* \"#utility.yul\":11867:11876   */\n      dup3\n        /* \"#utility.yul\":11863:11881   */\n      add\n        /* \"#utility.yul\":11855:11881   */\n      swap1\n      pop\n        /* \"#utility.yul\":11927:11936   */\n      dup2\n        /* \"#utility.yul\":11921:11925   */\n      dup2\n        /* \"#utility.yul\":11917:11937   */\n      sub\n        /* \"#utility.yul\":11913:11914   */\n      0x00\n        /* \"#utility.yul\":11902:11911   */\n      dup4\n        /* \"#utility.yul\":11898:11915   */\n      add\n        /* \"#utility.yul\":11891:11938   */\n      mstore\n        /* \"#utility.yul\":11955:12086   */\n      tag_417\n        /* \"#utility.yul\":12081:12085   */\n      dup2\n        /* \"#utility.yul\":11955:12086   */\n      tag_276\n      jump\t// in\n    tag_417:\n        /* \"#utility.yul\":11947:12086   */\n      swap1\n      pop\n        /* \"#utility.yul\":11674:12093   */\n      swap2\n      swap1\n      pop\n      jump\t// out\n        /* \"#utility.yul\":12099:12264   */\n    tag_277:\n        /* \"#utility.yul\":12239:12256   */\n      0x546f6b656e204e6f742045786973740000000000000000000000000000000000\n        /* \"#utility.yul\":12235:12236   */\n      0x00\n        /* \"#utility.yul\":12227:12233   */\n      dup3\n        /* \"#utility.yul\":12223:12237   */\n      add\n        /* \"#utility.yul\":12216:12257   */\n      mstore\n        /* \"#utility.yul\":12099:12264   */\n      pop\n      jump\t// out\n        /* \"#utility.yul\":12270:12636   */\n    tag_278:\n        /* \"#utility.yul\":12412:12415   */\n      0x00\n        /* \"#utility.yul\":12433:12500   */\n      tag_420\n        /* \"#utility.yul\":12497:12499   */\n      0x0f\n        /* \"#utility.yul\":12492:12495   */\n      dup4\n        /* \"#utility.yul\":12433:12500   */\n      tag_253\n      jump\t// in\n    tag_420:\n        /* \"#utility.yul\":12426:12500   */\n      swap2\n      pop\n        /* \"#utility.yul\":12509:12602   */\n      tag_421\n        /* \"#utility.yul\":12598:12601   */\n      dup3\n        /* \"#utility.yul\":12509:12602   */\n      tag_277\n      jump\t// in\n    tag_421:\n        /* \"#utility.yul\":12627:12629   */\n      0x20\n        /* \"#utility.yul\":12622:12625   */\n      dup3\n        /* \"#utility.yul\":12618:12630   */\n      add\n        /* \"#utility.yul\":12611:12630   */\n      swap1\n      pop\n        /* \"#utility.yul\":12270:12636   */\n      swap2\n      swap1\n      pop\n      jump\t// out\n        /* \"#utility.yul\":12642:13061   */\n    tag_166:\n        /* \"#utility.yul\":12808:12812   */\n      0x00\n        /* \"#utility.yul\":12846:12848   */\n      0x20\n        /* \"#utility.yul\":12835:12844   */\n      dup3\n        /* \"#utility.yul\":12831:12849   */\n      add\n        /* \"#utility.yul\":12823:12849   */\n      swap1\n      pop\n        /* \"#utility.yul\":12895:12904   */\n      dup2\n        /* \"#utility.yul\":12889:12893   */\n      dup2\n        /* \"#utility.yul\":12885:12905   */\n      sub\n        /* \"#utility.yul\":12881:12882   */\n      0x00\n        /* \"#utility.yul\":12870:12879   */\n      dup4\n        /* \"#utility.yul\":12866:12883   */\n      add\n        /* \"#utility.yul\":12859:12906   */\n      mstore\n        /* \"#utility.yul\":12923:13054   */\n      tag_423\n        /* \"#utility.yul\":13049:13053   */\n      dup2\n        /* \"#utility.yul\":12923:13054   */\n      tag_278\n      jump\t// in\n    tag_423:\n        /* \"#utility.yul\":12915:13054   */\n      swap1\n      pop\n        /* \"#utility.yul\":12642:13061   */\n      swap2\n      swap1\n      pop\n      jump\t// out\n        /* \"#utility.yul\":13067:13215   */\n    tag_279:\n        /* \"#utility.yul\":13169:13180   */\n      0x00\n        /* \"#utility.yul\":13206:13209   */\n      dup2\n        /* \"#utility.yul\":13191:13209   */\n      swap1\n      pop\n        /* \"#utility.yul\":13067:13215   */\n      swap3\n      swap2\n      pop\n      pop\n      jump\t// out\n        /* \"#utility.yul\":13221:13611   */\n    tag_280:\n        /* \"#utility.yul\":13327:13330   */\n      0x00\n        /* \"#utility.yul\":13355:13394   */\n      tag_426\n        /* \"#utility.yul\":13388:13393   */\n      dup3\n        /* \"#utility.yul\":13355:13394   */\n      tag_252\n      jump\t// in\n    tag_426:\n        /* \"#utility.yul\":13410:13499   */\n      tag_427\n        /* \"#utility.yul\":13492:13498   */\n      dup2\n        /* \"#utility.yul\":13487:13490   */\n      dup6\n        /* \"#utility.yul\":13410:13499   */\n      tag_279\n      jump\t// in\n    tag_427:\n        /* \"#utility.yul\":13403:13499   */\n      swap4\n      pop\n        /* \"#utility.yul\":13508:13573   */\n      tag_428\n        /* \"#utility.yul\":13566:13572   */\n      dup2\n        /* \"#utility.yul\":13561:13564   */\n      dup6\n        /* \"#utility.yul\":13554:13558   */\n      0x20\n        /* \"#utility.yul\":13547:13552   */\n      dup7\n        /* \"#utility.yul\":13543:13559   */\n      add\n        /* \"#utility.yul\":13508:13573   */\n      tag_254\n      jump\t// in\n    tag_428:\n        /* \"#utility.yul\":13598:13604   */\n      dup1\n        /* \"#utility.yul\":13593:13596   */\n      dup5\n        /* \"#utility.yul\":13589:13605   */\n      add\n        /* \"#utility.yul\":13582:13605   */\n      swap2\n      pop\n        /* \"#utility.yul\":13331:13611   */\n      pop\n        /* \"#utility.yul\":13221:13611   */\n      swap3\n      swap2\n      pop\n      pop\n      jump\t// out\n        /* \"#utility.yul\":13617:14052   */\n    tag_174:\n        /* \"#utility.yul\":13797:13800   */\n      0x00\n        /* \"#utility.yul\":13819:13914   */\n      tag_430\n        /* \"#utility.yul\":13910:13913   */\n      dup3\n        /* \"#utility.yul\":13901:13907   */\n      dup6\n        /* \"#utility.yul\":13819:13914   */\n      tag_280\n      jump\t// in\n    tag_430:\n        /* \"#utility.yul\":13812:13914   */\n      swap2\n      pop\n        /* \"#utility.yul\":13931:14026   */\n      tag_431\n        /* \"#utility.yul\":14022:14025   */\n      dup3\n        /* \"#utility.yul\":14013:14019   */\n      dup5\n        /* \"#utility.yul\":13931:14026   */\n      tag_280\n      jump\t// in\n    tag_431:\n        /* \"#utility.yul\":13924:14026   */\n      swap2\n      pop\n        /* \"#utility.yul\":14043:14046   */\n      dup2\n        /* \"#utility.yul\":14036:14046   */\n      swap1\n      pop\n        /* \"#utility.yul\":13617:14052   */\n      swap4\n      swap3\n      pop\n      pop\n      pop\n      jump\t// out\n        /* \"#utility.yul\":14058:14238   */\n    tag_281:\n        /* \"#utility.yul\":14106:14183   */\n      0x4e487b7100000000000000000000000000000000000000000000000000000000\n        /* \"#utility.yul\":14103:14104   */\n      0x00\n        /* \"#utility.yul\":14096:14184   */\n      mstore\n        /* \"#utility.yul\":14203:14207   */\n      0x11\n        /* \"#utility.yul\":14200:14201   */\n      0x04\n        /* \"#utility.yul\":14193:14208   */\n      mstore\n        /* \"#utility.yul\":14227:14231   */\n      0x24\n        /* \"#utility.yul\":14224:14225   */\n      0x00\n        /* \"#utility.yul\":14217:14232   */\n      revert\n        /* \"#utility.yul\":14244:14438   */\n    tag_190:\n        /* \"#utility.yul\":14284:14288   */\n      0x00\n        /* \"#utility.yul\":14304:14324   */\n      tag_434\n        /* \"#utility.yul\":14322:14323   */\n      dup3\n        /* \"#utility.yul\":14304:14324   */\n      tag_257\n      jump\t// in\n    tag_434:\n        /* \"#utility.yul\":14299:14324   */\n      swap2\n      pop\n        /* \"#utility.yul\":14338:14358   */\n      tag_435\n        /* \"#utility.yul\":14356:14357   */\n      dup4\n        /* \"#utility.yul\":14338:14358   */\n      tag_257\n      jump\t// in\n    tag_435:\n        /* \"#utility.yul\":14333:14358   */\n      swap3\n      pop\n        /* \"#utility.yul\":14382:14383   */\n      dup3\n        /* \"#utility.yul\":14379:14380   */\n      dup3\n        /* \"#utility.yul\":14375:14384   */\n      sub\n        /* \"#utility.yul\":14367:14384   */\n      swap1\n      pop\n        /* \"#utility.yul\":14406:14407   */\n      dup2\n        /* \"#utility.yul\":14400:14404   */\n      dup2\n        /* \"#utility.yul\":14397:14408   */\n      gt\n        /* \"#utility.yul\":14394:14431   */\n      iszero\n      tag_436\n      jumpi\n        /* \"#utility.yul\":14411:14429   */\n      tag_437\n      tag_281\n      jump\t// in\n    tag_437:\n        /* \"#utility.yul\":14394:14431   */\n    tag_436:\n        /* \"#utility.yul\":14244:14438   */\n      swap3\n      swap2\n      pop\n      pop\n      jump\t// out\n        /* \"#utility.yul\":14444:14614   */\n    tag_282:\n        /* \"#utility.yul\":14584:14606   */\n      0x6d696e7420746f207a65726f2061646472657373000000000000000000000000\n        /* \"#utility.yul\":14580:14581   */\n      0x00\n        /* \"#utility.yul\":14572:14578   */\n      dup3\n        /* \"#utility.yul\":14568:14582   */\n      add\n        /* \"#utility.yul\":14561:14607   */\n      mstore\n        /* \"#utility.yul\":14444:14614   */\n      pop\n      jump\t// out\n        /* \"#utility.yul\":14620:14986   */\n    tag_283:\n        /* \"#utility.yul\":14762:14765   */\n      0x00\n        /* \"#utility.yul\":14783:14850   */\n      tag_440\n        /* \"#utility.yul\":14847:14849   */\n      0x14\n        /* \"#utility.yul\":14842:14845   */\n      dup4\n        /* \"#utility.yul\":14783:14850   */\n      tag_253\n      jump\t// in\n    tag_440:\n        /* \"#utility.yul\":14776:14850   */\n      swap2\n      pop\n        /* \"#utility.yul\":14859:14952   */\n      tag_441\n        /* \"#utility.yul\":14948:14951   */\n      dup3\n        /* \"#utility.yul\":14859:14952   */\n      tag_282\n      jump\t// in\n    tag_441:\n        /* \"#utility.yul\":14977:14979   */\n      0x20\n        /* \"#utility.yul\":14972:14975   */\n      dup3\n        /* \"#utility.yul\":14968:14980   */\n      add\n        /* \"#utility.yul\":14961:14980   */\n      swap1\n      pop\n        /* \"#utility.yul\":14620:14986   */\n      swap2\n      swap1\n      pop\n      jump\t// out\n        /* \"#utility.yul\":14992:15411   */\n    tag_195:\n        /* \"#utility.yul\":15158:15162   */\n      0x00\n        /* \"#utility.yul\":15196:15198   */\n      0x20\n        /* \"#utility.yul\":15185:15194   */\n      dup3\n        /* \"#utility.yul\":15181:15199   */\n      add\n        /* \"#utility.yul\":15173:15199   */\n      swap1\n      pop\n        /* \"#utility.yul\":15245:15254   */\n      dup2\n        /* \"#utility.yul\":15239:15243   */\n      dup2\n        /* \"#utility.yul\":15235:15255   */\n      sub\n        /* \"#utility.yul\":15231:15232   */\n      0x00\n        /* \"#utility.yul\":15220:15229   */\n      dup4\n        /* \"#utility.yul\":15216:15233   */\n      add\n        /* \"#utility.yul\":15209:15256   */\n      mstore\n        /* \"#utility.yul\":15273:15404   */\n      tag_443\n        /* \"#utility.yul\":15399:15403   */\n      dup2\n        /* \"#utility.yul\":15273:15404   */\n      tag_283\n      jump\t// in\n    tag_443:\n        /* \"#utility.yul\":15265:15404   */\n      swap1\n      pop\n        /* \"#utility.yul\":14992:15411   */\n      swap2\n      swap1\n      pop\n      jump\t// out\n        /* \"#utility.yul\":15417:15587   */\n    tag_284:\n        /* \"#utility.yul\":15557:15579   */\n      0x746f6b656e20616c7265616479206d696e746564000000000000000000000000\n        /* \"#utility.yul\":15553:15554   */\n      0x00\n        /* \"#utility.yul\":15545:15551   */\n      dup3\n        /* \"#utility.yul\":15541:15555   */\n      add\n        /* \"#utility.yul\":15534:15580   */\n      mstore\n        /* \"#utility.yul\":15417:15587   */\n      pop\n      jump\t// out\n        /* \"#utility.yul\":15593:15959   */\n    tag_285:\n        /* \"#utility.yul\":15735:15738   */\n      0x00\n        /* \"#utility.yul\":15756:15823   */\n      tag_446\n        /* \"#utility.yul\":15820:15822   */\n      0x14\n        /* \"#utility.yul\":15815:15818   */\n      dup4\n        /* \"#utility.yul\":15756:15823   */\n      tag_253\n      jump\t// in\n    tag_446:\n        /* \"#utility.yul\":15749:15823   */\n      swap2\n      pop\n        /* \"#utility.yul\":15832:15925   */\n      tag_447\n        /* \"#utility.yul\":15921:15924   */\n      dup3\n        /* \"#utility.yul\":15832:15925   */\n      tag_284\n      jump\t// in\n    tag_447:\n        /* \"#utility.yul\":15950:15952   */\n      0x20\n        /* \"#utility.yul\":15945:15948   */\n      dup3\n        /* \"#utility.yul\":15941:15953   */\n      add\n        /* \"#utility.yul\":15934:15953   */\n      swap1\n      pop\n        /* \"#utility.yul\":15593:15959   */\n      swap2\n      swap1\n      pop\n      jump\t// out\n        /* \"#utility.yul\":15965:16384   */\n    tag_198:\n        /* \"#utility.yul\":16131:16135   */\n      0x00\n        /* \"#utility.yul\":16169:16171   */\n      0x20\n        /* \"#utility.yul\":16158:16167   */\n      dup3\n        /* \"#utility.yul\":16154:16172   */\n      add\n        /* \"#utility.yul\":16146:16172   */\n      swap1\n      pop\n        /* \"#utility.yul\":16218:16227   */\n      dup2\n        /* \"#utility.yul\":16212:16216   */\n      dup2\n        /* \"#utility.yul\":16208:16228   */\n      sub\n        /* \"#utility.yul\":16204:16205   */\n      0x00\n        /* \"#utility.yul\":16193:16202   */\n      dup4\n        /* \"#utility.yul\":16189:16206   */\n      add\n        /* \"#utility.yul\":16182:16229   */\n      mstore\n        /* \"#utility.yul\":16246:16377   */\n      tag_449\n        /* \"#utility.yul\":16372:16376   */\n      dup2\n        /* \"#utility.yul\":16246:16377   */\n      tag_285\n      jump\t// in\n    tag_449:\n        /* \"#utility.yul\":16238:16377   */\n      swap1\n      pop\n        /* \"#utility.yul\":15965:16384   */\n      swap2\n      swap1\n      pop\n      jump\t// out\n        /* \"#utility.yul\":16390:16581   */\n    tag_200:\n        /* \"#utility.yul\":16430:16433   */\n      0x00\n        /* \"#utility.yul\":16449:16469   */\n      tag_451\n        /* \"#utility.yul\":16467:16468   */\n      dup3\n        /* \"#utility.yul\":16449:16469   */\n      tag_257\n      jump\t// in\n    tag_451:\n        /* \"#utility.yul\":16444:16469   */\n      swap2\n      pop\n        /* \"#utility.yul\":16483:16503   */\n      tag_452\n        /* \"#utility.yul\":16501:16502   */\n      dup4\n        /* \"#utility.yul\":16483:16503   */\n      tag_257\n      jump\t// in\n    tag_452:\n        /* \"#utility.yul\":16478:16503   */\n      swap3\n      pop\n        /* \"#utility.yul\":16526:16527   */\n      dup3\n        /* \"#utility.yul\":16523:16524   */\n      dup3\n        /* \"#utility.yul\":16519:16528   */\n      add\n        /* \"#utility.yul\":16512:16528   */\n      swap1\n      pop\n        /* \"#utility.yul\":16547:16550   */\n      dup1\n        /* \"#utility.yul\":16544:16545   */\n      dup3\n        /* \"#utility.yul\":16541:16551   */\n      gt\n        /* \"#utility.yul\":16538:16574   */\n      iszero\n      tag_453\n      jumpi\n        /* \"#utility.yul\":16554:16572   */\n      tag_454\n      tag_281\n      jump\t// in\n    tag_454:\n        /* \"#utility.yul\":16538:16574   */\n    tag_453:\n        /* \"#utility.yul\":16390:16581   */\n      swap3\n      swap2\n      pop\n      pop\n      jump\t// out\n        /* \"#utility.yul\":16587:16685   */\n    tag_286:\n        /* \"#utility.yul\":16638:16644   */\n      0x00\n        /* \"#utility.yul\":16672:16677   */\n      dup2\n        /* \"#utility.yul\":16666:16678   */\n      mload\n        /* \"#utility.yul\":16656:16678   */\n      swap1\n      pop\n        /* \"#utility.yul\":16587:16685   */\n      swap2\n      swap1\n      pop\n      jump\t// out\n        /* \"#utility.yul\":16691:16859   */\n    tag_287:\n        /* \"#utility.yul\":16774:16785   */\n      0x00\n        /* \"#utility.yul\":16808:16814   */\n      dup3\n        /* \"#utility.yul\":16803:16806   */\n      dup3\n        /* \"#utility.yul\":16796:16815   */\n      mstore\n        /* \"#utility.yul\":16848:16852   */\n      0x20\n        /* \"#utility.yul\":16843:16846   */\n      dup3\n        /* \"#utility.yul\":16839:16853   */\n      add\n        /* \"#utility.yul\":16824:16853   */\n      swap1\n      pop\n        /* \"#utility.yul\":16691:16859   */\n      swap3\n      swap2\n      pop\n      pop\n      jump\t// out\n        /* \"#utility.yul\":16865:17238   */\n    tag_288:\n        /* \"#utility.yul\":16951:16954   */\n      0x00\n        /* \"#utility.yul\":16979:17017   */\n      tag_458\n        /* \"#utility.yul\":17011:17016   */\n      dup3\n        /* \"#utility.yul\":16979:17017   */\n      tag_286\n      jump\t// in\n    tag_458:\n        /* \"#utility.yul\":17033:17103   */\n      tag_459\n        /* \"#utility.yul\":17096:17102   */\n      dup2\n        /* \"#utility.yul\":17091:17094   */\n      dup6\n        /* \"#utility.yul\":17033:17103   */\n      tag_287\n      jump\t// in\n    tag_459:\n        /* \"#utility.yul\":17026:17103   */\n      swap4\n      pop\n        /* \"#utility.yul\":17112:17177   */\n      tag_460\n        /* \"#utility.yul\":17170:17176   */\n      dup2\n        /* \"#utility.yul\":17165:17168   */\n      dup6\n        /* \"#utility.yul\":17158:17162   */\n      0x20\n        /* \"#utility.yul\":17151:17156   */\n      dup7\n        /* \"#utility.yul\":17147:17163   */\n      add\n        /* \"#utility.yul\":17112:17177   */\n      tag_254\n      jump\t// in\n    tag_460:\n        /* \"#utility.yul\":17202:17231   */\n      tag_461\n        /* \"#utility.yul\":17224:17230   */\n      dup2\n        /* \"#utility.yul\":17202:17231   */\n      tag_255\n      jump\t// in\n    tag_461:\n        /* \"#utility.yul\":17197:17200   */\n      dup5\n        /* \"#utility.yul\":17193:17232   */\n      add\n        /* \"#utility.yul\":17186:17232   */\n      swap2\n      pop\n        /* \"#utility.yul\":16955:17238   */\n      pop\n        /* \"#utility.yul\":16865:17238   */\n      swap3\n      swap2\n      pop\n      pop\n      jump\t// out\n        /* \"#utility.yul\":17244:17884   */\n    tag_204:\n        /* \"#utility.yul\":17439:17443   */\n      0x00\n        /* \"#utility.yul\":17477:17480   */\n      0x80\n        /* \"#utility.yul\":17466:17475   */\n      dup3\n        /* \"#utility.yul\":17462:17481   */\n      add\n        /* \"#utility.yul\":17454:17481   */\n      swap1\n      pop\n        /* \"#utility.yul\":17491:17562   */\n      tag_463\n        /* \"#utility.yul\":17559:17560   */\n      0x00\n        /* \"#utility.yul\":17548:17557   */\n      dup4\n        /* \"#utility.yul\":17544:17561   */\n      add\n        /* \"#utility.yul\":17535:17541   */\n      dup8\n        /* \"#utility.yul\":17491:17562   */\n      tag_262\n      jump\t// in\n    tag_463:\n        /* \"#utility.yul\":17572:17644   */\n      tag_464\n        /* \"#utility.yul\":17640:17642   */\n      0x20\n        /* \"#utility.yul\":17629:17638   */\n      dup4\n        /* \"#utility.yul\":17625:17643   */\n      add\n        /* \"#utility.yul\":17616:17622   */\n      dup7\n        /* \"#utility.yul\":17572:17644   */\n      tag_262\n      jump\t// in\n    tag_464:\n        /* \"#utility.yul\":17654:17726   */\n      tag_465\n        /* \"#utility.yul\":17722:17724   */\n      0x40\n        /* \"#utility.yul\":17711:17720   */\n      dup4\n        /* \"#utility.yul\":17707:17725   */\n      add\n        /* \"#utility.yul\":17698:17704   */\n      dup6\n        /* \"#utility.yul\":17654:17726   */\n      tag_265\n      jump\t// in\n    tag_465:\n        /* \"#utility.yul\":17773:17782   */\n      dup2\n        /* \"#utility.yul\":17767:17771   */\n      dup2\n        /* \"#utility.yul\":17763:17783   */\n      sub\n        /* \"#utility.yul\":17758:17760   */\n      0x60\n        /* \"#utility.yul\":17747:17756   */\n      dup4\n        /* \"#utility.yul\":17743:17761   */\n      add\n        /* \"#utility.yul\":17736:17784   */\n      mstore\n        /* \"#utility.yul\":17801:17877   */\n      tag_466\n        /* \"#utility.yul\":17872:17876   */\n      dup2\n        /* \"#utility.yul\":17863:17869   */\n      dup5\n        /* \"#utility.yul\":17801:17877   */\n      tag_288\n      jump\t// in\n    tag_466:\n        /* \"#utility.yul\":17793:17877   */\n      swap1\n      pop\n        /* \"#utility.yul\":17244:17884   */\n      swap6\n      swap5\n      pop\n      pop\n      pop\n      pop\n      pop\n      jump\t// out\n        /* \"#utility.yul\":17890:18031   */\n    tag_289:\n        /* \"#utility.yul\":17946:17951   */\n      0x00\n        /* \"#utility.yul\":17977:17983   */\n      dup2\n        /* \"#utility.yul\":17971:17984   */\n      mload\n        /* \"#utility.yul\":17962:17984   */\n      swap1\n      pop\n        /* \"#utility.yul\":17993:18025   */\n      tag_468\n        /* \"#utility.yul\":18019:18024   */\n      dup2\n        /* \"#utility.yul\":17993:18025   */\n      tag_248\n      jump\t// in\n    tag_468:\n        /* \"#utility.yul\":17890:18031   */\n      swap3\n      swap2\n      pop\n      pop\n      jump\t// out\n        /* \"#utility.yul\":18037:18386   */\n    tag_207:\n        /* \"#utility.yul\":18106:18112   */\n      0x00\n        /* \"#utility.yul\":18155:18157   */\n      0x20\n        /* \"#utility.yul\":18143:18152   */\n      dup3\n        /* \"#utility.yul\":18134:18141   */\n      dup5\n        /* \"#utility.yul\":18130:18153   */\n      sub\n        /* \"#utility.yul\":18126:18158   */\n      slt\n        /* \"#utility.yul\":18123:18242   */\n      iszero\n      tag_470\n      jumpi\n        /* \"#utility.yul\":18161:18240   */\n      tag_471\n      tag_245\n      jump\t// in\n    tag_471:\n        /* \"#utility.yul\":18123:18242   */\n    tag_470:\n        /* \"#utility.yul\":18281:18282   */\n      0x00\n        /* \"#utility.yul\":18306:18369   */\n      tag_472\n        /* \"#utility.yul\":18361:18368   */\n      dup5\n        /* \"#utility.yul\":18352:18358   */\n      dup3\n        /* \"#utility.yul\":18341:18350   */\n      dup6\n        /* \"#utility.yul\":18337:18359   */\n      add\n        /* \"#utility.yul\":18306:18369   */\n      tag_289\n      jump\t// in\n    tag_472:\n        /* \"#utility.yul\":18296:18369   */\n      swap2\n      pop\n        /* \"#utility.yul\":18252:18379   */\n      pop\n        /* \"#utility.yul\":18037:18386   */\n      swap3\n      swap2\n      pop\n      pop\n      jump\t// out\n        /* \"#utility.yul\":18392:18625   */\n    tag_226:\n        /* \"#utility.yul\":18431:18434   */\n      0x00\n        /* \"#utility.yul\":18454:18478   */\n      tag_474\n        /* \"#utility.yul\":18472:18477   */\n      dup3\n        /* \"#utility.yul\":18454:18478   */\n      tag_257\n      jump\t// in\n    tag_474:\n        /* \"#utility.yul\":18445:18478   */\n      swap2\n      pop\n        /* \"#utility.yul\":18500:18566   */\n      0xffffffffffffffffffffffffffffffffffffffffffffffffffffffffffffffff\n        /* \"#utility.yul\":18493:18498   */\n      dup3\n        /* \"#utility.yul\":18490:18567   */\n      sub\n        /* \"#utility.yul\":18487:18590   */\n      tag_475\n      jumpi\n        /* \"#utility.yul\":18570:18588   */\n      tag_476\n      tag_281\n      jump\t// in\n    tag_476:\n        /* \"#utility.yul\":18487:18590   */\n    tag_475:\n        /* \"#utility.yul\":18617:18618   */\n      0x01\n        /* \"#utility.yul\":18610:18615   */\n      dup3\n        /* \"#utility.yul\":18606:18619   */\n      add\n        /* \"#utility.yul\":18599:18619   */\n      swap1\n      pop\n        /* \"#utility.yul\":18392:18625   */\n      swap2\n      swap1\n      pop\n      jump\t// out\n        /* \"#utility.yul\":18631:18811   */\n    tag_290:\n        /* \"#utility.yul\":18679:18756   */\n      0x4e487b7100000000000000000000000000000000000000000000000000000000\n        /* \"#utility.yul\":18676:18677   */\n      0x00\n        /* \"#utility.yul\":18669:18757   */\n      mstore\n        /* \"#utility.yul\":18776:18780   */\n      0x12\n        /* \"#utility.yul\":18773:18774   */\n      0x04\n        /* \"#utility.yul\":18766:18781   */\n      mstore\n        /* \"#utility.yul\":18800:18804   */\n      0x24\n        /* \"#utility.yul\":18797:18798   */\n      0x00\n        /* \"#utility.yul\":18790:18805   */\n      revert\n        /* \"#utility.yul\":18817:19002   */\n    tag_228:\n        /* \"#utility.yul\":18857:18858   */\n      0x00\n        /* \"#utility.yul\":18874:18894   */\n      tag_479\n        /* \"#utility.yul\":18892:18893   */\n      dup3\n        /* \"#utility.yul\":18874:18894   */\n      tag_257\n      jump\t// in\n    tag_479:\n        /* \"#utility.yul\":18869:18894   */\n      swap2\n      pop\n        /* \"#utility.yul\":18908:18928   */\n      tag_480\n        /* \"#utility.yul\":18926:18927   */\n      dup4\n        /* \"#utility.yul\":18908:18928   */\n      tag_257\n      jump\t// in\n    tag_480:\n        /* \"#utility.yul\":18903:18928   */\n      swap3\n      pop\n        /* \"#utility.yul\":18947:18948   */\n      dup3\n        /* \"#utility.yul\":18937:18972   */\n      tag_481\n      jumpi\n        /* \"#utility.yul\":18952:18970   */\n      tag_482\n      tag_290\n      jump\t// in\n    tag_482:\n        /* \"#utility.yul\":18937:18972   */\n    tag_481:\n        /* \"#utility.yul\":18994:18995   */\n      dup3\n        /* \"#utility.yul\":18991:18992   */\n      dup3\n        /* \"#utility.yul\":18987:18996   */\n      div\n        /* \"#utility.yul\":18982:18996   */\n      swap1\n      pop\n        /* \"#utility.yul\":18817:19002   */\n      swap3\n      swap2\n      pop\n      pop\n      jump\t// out\n        /* \"#utility.yul\":19008:19188   */\n    tag_231:\n        /* \"#utility.yul\":19056:19133   */\n      0x4e487b7100000000000000000000000000000000000000000000000000000000\n        /* \"#utility.yul\":19053:19054   */\n      0x00\n        /* \"#utility.yul\":19046:19134   */\n      mstore\n        /* \"#utility.yul\":19153:19157   */\n      0x41\n        /* \"#utility.yul\":19150:19151   */\n      0x04\n        /* \"#utility.yul\":19143:19158   */\n      mstore\n        /* \"#utility.yul\":19177:19181   */\n      0x24\n        /* \"#utility.yul\":19174:19175   */\n      0x00\n        /* \"#utility.yul\":19167:19182   */\n      revert\n        /* \"#utility.yul\":19194:19370   */\n    tag_237:\n        /* \"#utility.yul\":19226:19227   */\n      0x00\n        /* \"#utility.yul\":19243:19263   */\n      tag_485\n        /* \"#utility.yul\":19261:19262   */\n      dup3\n        /* \"#utility.yul\":19243:19263   */\n      tag_257\n      jump\t// in\n    tag_485:\n        /* \"#utility.yul\":19238:19263   */\n      swap2\n      pop\n        /* \"#utility.yul\":19277:19297   */\n      tag_486\n        /* \"#utility.yul\":19295:19296   */\n      dup4\n        /* \"#utility.yul\":19277:19297   */\n      tag_257\n      jump\t// in\n    tag_486:\n        /* \"#utility.yul\":19272:19297   */\n      swap3\n      pop\n        /* \"#utility.yul\":19316:19317   */\n      dup3\n        /* \"#utility.yul\":19306:19341   */\n      tag_487\n      jumpi\n        /* \"#utility.yul\":19321:19339   */\n      tag_488\n      tag_290\n      jump\t// in\n    tag_488:\n        /* \"#utility.yul\":19306:19341   */\n    tag_487:\n        /* \"#utility.yul\":19362:19363   */\n      dup3\n        /* \"#utility.yul\":19359:19360   */\n      dup3\n        /* \"#utility.yul\":19355:19364   */\n      mod\n        /* \"#utility.yul\":19350:19364   */\n      swap1\n      pop\n        /* \"#utility.yul\":19194:19370   */\n      swap3\n      swap2\n      pop\n      pop\n      jump\t// out\n        /* \"#utility.yul\":19376:19556   */\n    tag_241:\n        /* \"#utility.yul\":19424:19501   */\n      0x4e487b7100000000000000000000000000000000000000000000000000000000\n        /* \"#utility.yul\":19421:19422   */\n      0x00\n        /* \"#utility.yul\":19414:19502   */\n      mstore\n        /* \"#utility.yul\":19521:19525   */\n      0x32\n        /* \"#utility.yul\":19518:19519   */\n      0x04\n        /* \"#utility.yul\":19511:19526   */\n      mstore\n        /* \"#utility.yul\":19545:19549   */\n      0x24\n        /* \"#utility.yul\":19542:19543   */\n      0x00\n        /* \"#utility.yul\":19535:19550   */\n      revert\n    stop\n    data_8382b382247cd07401a2ef2f394137c3f3b0972798bae0a9c78b0c261acbb56b 697066733a2f2f516d65536a53696e4870506e6d586d73704d6a776958794e367a533445397a63636172694752336a7863615774712f\n\n    auxdata: 0xa2646970667358221220aab85726b9e1baef81766bccf95967e66360cca33d9991677d19dbd1c48e60c964736f6c634300081e0033\n}\n",
				"bytecode": {
					"linkReferences": {},
					"object": "6080604052612710600655348015610015575f5ffd5b506040516127d73803806127d7833981810160405281019061003791906101ae565b8181815f90816100479190610434565b5080600190816100579190610434565b5050505050610503565b5f604051905090565b5f5ffd5b5f5ffd5b5f5ffd5b5f5ffd5b5f601f19601f8301169050919050565b7f4e487b71000000000000000000000000000000000000000000000000000000005f52604160045260245ffd5b6100c08261007a565b810181811067ffffffffffffffff821117156100df576100de61008a565b5b80604052505050565b5f6100f1610061565b90506100fd82826100b7565b919050565b5f67ffffffffffffffff82111561011c5761011b61008a565b5b6101258261007a565b9050602081019050919050565b8281835e5f83830152505050565b5f61015261014d84610102565b6100e8565b90508281526020810184848401111561016e5761016d610076565b5b610179848285610132565b509392505050565b5f82601f83011261019557610194610072565b5b81516101a5848260208601610140565b91505092915050565b5f5f604083850312156101c4576101c361006a565b5b5f83015167ffffffffffffffff8111156101e1576101e061006e565b5b6101ed85828601610181565b925050602083015167ffffffffffffffff81111561020e5761020d61006e565b5b61021a85828601610181565b9150509250929050565b5f81519050919050565b7f4e487b71000000000000000000000000000000000000000000000000000000005f52602260045260245ffd5b5f600282049050600182168061027257607f821691505b6020821081036102855761028461022e565b5b50919050565b5f819050815f5260205f209050919050565b5f6020601f8301049050919050565b5f82821b905092915050565b5f600883026102e77fffffffffffffffffffffffffffffffffffffffffffffffffffffffffffffffff826102ac565b6102f186836102ac565b95508019841693508086168417925050509392505050565b5f819050919050565b5f819050919050565b5f61033561033061032b84610309565b610312565b610309565b9050919050565b5f819050919050565b61034e8361031b565b61036261035a8261033c565b8484546102b8565b825550505050565b5f5f905090565b61037961036a565b610384818484610345565b505050565b5b818110156103a75761039c5f82610371565b60018101905061038a565b5050565b601f8211156103ec576103bd8161028b565b6103c68461029d565b810160208510156103d5578190505b6103e96103e18561029d565b830182610389565b50505b505050565b5f82821c905092915050565b5f61040c5f19846008026103f1565b1980831691505092915050565b5f61042483836103fd565b9150826002028217905092915050565b61043d82610224565b67ffffffffffffffff8111156104565761045561008a565b5b610460825461025b565b61046b8282856103ab565b5f60209050601f83116001811461049c575f841561048a578287015190505b6104948582610419565b8655506104fb565b601f1984166104aa8661028b565b5f5b828110156104d1578489015182556001820191506020850194506020810190506104ac565b868310156104ee57848901516104ea601f8916826103fd565b8355505b6001600288020188555050505b505050505050565b6122c7806105105f395ff3fe608060405234801561000f575f5ffd5b506004361061011f575f3560e01c806395d89b41116100ab578063c33544021161006f578063c33544021461033d578063c87b56dd14610359578063edc3bc3f14610389578063febe4909146103b9578063ffb74e64146103d55761011f565b806395d89b4114610285578063992924a6146102a3578063a7cc0136146102d3578063b88d4fde14610303578063bb8a16bd1461031f5761011f565b806340c10f19116100f257806340c10f19146101bd57806342842e0e146101d95780636352211e146101f55780636ebcf6071461022557806370a08231146102555761011f565b806301ffc9a71461012357806306fdde0314610153578063081812fc1461017157806323b872dd146101a1575b5f5ffd5b61013d600480360381019061013891906118ac565b610405565b60405161014a91906118f1565b60405180910390f35b61015b61053d565b604051610168919061197a565b60405180910390f35b61018b600480360381019061018691906119cd565b6105c8565b6040516101989190611a37565b60405180910390f35b6101bb60048036038101906101b69190611a7a565b6106e5565b005b6101d760048036038101906101d29190611aca565b61074c565b005b6101f360048036038101906101ee9190611a7a565b6107aa565b005b61020f600480360381019061020a91906119cd565b61082b565b60405161021c9190611a37565b60405180910390f35b61023f600480360381019061023a9190611b08565b6108d2565b60405161024c9190611b42565b60405180910390f35b61026f600480360381019061026a9190611b08565b6108e7565b60405161027c9190611b42565b60405180910390f35b61028d61099b565b60405161029a919061197a565b60405180910390f35b6102bd60048036038101906102b891906119cd565b610a27565b6040516102ca9190611a37565b60405180910390f35b6102ed60048036038101906102e891906119cd565b610a57565b6040516102fa9190611a37565b60405180910390f35b61031d60048036038101906103189190611bbc565b610a87565b005b610327610b3f565b6040516103349190611b42565b60405180910390f35b61035760048036038101906103529190611c6a565b610b45565b005b610373600480360381019061036e91906119cd565b610c35565b604051610380919061197a565b60405180910390f35b6103a3600480360381019061039e9190611ca8565b610d2f565b6040516103b091906118f1565b60405180910390f35b6103d360048036038101906103ce9190611ce6565b610d59565b005b6103ef60048036038101906103ea9190611b08565b610ee6565b6040516103fc91906118f1565b60405180910390f35b5f7e67e1b1000000000000000000000000000000000000000000000000000000007bffffffffffffffffffffffffffffffffffffffffffffffffffffffff1916827bffffffffffffffffffffffffffffffffffffffffffffffffffffffff191614806104ce57507f01ffc9a7000000000000000000000000000000000000000000000000000000007bffffffffffffffffffffffffffffffffffffffffffffffffffffffff1916827bffffffffffffffffffffffffffffffffffffffffffffffffffffffff1916145b8061053657507f5b5e139f000000000000000000000000000000000000000000000000000000007bffffffffffffffffffffffffffffffffffffffffffffffffffffffff1916827bffffffffffffffffffffffffffffffffffffffffffffffffffffffff1916145b9050919050565b5f805461054990611d51565b80601f016020809104026020016040519081016040528092919081815260200182805461057590611d51565b80156105c05780601f10610597576101008083540402835291602001916105c0565b820191905f5260205f20905b8154815290600101906020018083116105a357829003601f168201915b505050505081565b5f5f73ffffffffffffffffffffffffffffffffffffffff166105e98361082b565b73ffffffffffffffffffffffffffffffffffffffff160361063f576040517f08c379a000000000000000000000000000000000000000000000000000000000815260040161063690611da4565b60405180910390fd5b60045f8381526020019081526020015f205f9054906101000a900473ffffffffffffffffffffffffffffffffffffffff1690505f73ffffffffffffffffffffffffffffffffffffffff168173ffffffffffffffffffffffffffffffffffffffff16146106e0576040517f08c379a00000000000000000000000000000000000000000000000000000000081526004016106d790611da4565b60405180910390fd5b919050565b5f6106ef8261082b565b90506106fc813384610f73565b61073b576040517f08c379a000000000000000000000000000000000000000000000000000000000815260040161073290611da4565b60405180910390fd5b61074684848461109e565b50505050565b5f811015801561075d575060065481105b61079c576040517f08c379a000000000000000000000000000000000000000000000000000000000815260040161079390611e0c565b60405180910390fd5b6107a6828261126e565b5050565b5f6107b48261082b565b90506107c1813384610f73565b610800576040517f08c379a00000000000000000000000000000000000000000000000000000000081526004016107f790611da4565b60405180910390fd5b61080b84848461109e565b61082584848460405180602001604052805f81525061147c565b50505050565b5f60025f8381526020019081526020015f205f9054906101000a900473ffffffffffffffffffffffffffffffffffffffff1690505f73ffffffffffffffffffffffffffffffffffffffff168173ffffffffffffffffffffffffffffffffffffffff16036108cd576040517f08c379a00000000000000000000000000000000000000000000000000000000081526004016108c490611da4565b60405180910390fd5b919050565b6003602052805f5260405f205f915090505481565b5f5f73ffffffffffffffffffffffffffffffffffffffff168273ffffffffffffffffffffffffffffffffffffffff1603610956576040517f08c379a000000000000000000000000000000000000000000000000000000000815260040161094d90611da4565b60405180910390fd5b60035f8373ffffffffffffffffffffffffffffffffffffffff1673ffffffffffffffffffffffffffffffffffffffff1681526020019081526020015f20549050919050565b600180546109a890611d51565b80601f01602080910402602001604051908101604052809291908181526020018280546109d490611d51565b8015610a1f5780601f106109f657610100808354040283529160200191610a1f565b820191905f5260205f20905b815481529060010190602001808311610a0257829003601f168201915b505050505081565b6002602052805f5260405f205f915054906101000a900473ffffffffffffffffffffffffffffffffffffffff1681565b6004602052805f5260405f205f915054906101000a900473ffffffffffffffffffffffffffffffffffffffff1681565b5f610a918461082b565b9050610a9e813386610f73565b610add576040517f08c379a0000000000000000000000000000000000000000000000000000000008152600401610ad490611da4565b60405180910390fd5b610ae886868661109e565b610b3786868686868080601f0160208091040260200160405190810160405280939291908181526020018383808284375f81840152601f19601f8201169050808301925050505050505061147c565b505050505050565b60065481565b8060055f3373ffffffffffffffffffffffffffffffffffffffff1673ffffffffffffffffffffffffffffffffffffffff1681526020019081526020015f205f8473ffffffffffffffffffffffffffffffffffffffff1673ffffffffffffffffffffffffffffffffffffffff1681526020019081526020015f205f6101000a81548160ff0219169083151502179055508015158273ffffffffffffffffffffffffffffffffffffffff163373ffffffffffffffffffffffffffffffffffffffff167f17307eab39ab6107e8899845ad3d59bd9653f200f220920489ca2b5937696c3160405160405180910390a45050565b60605f73ffffffffffffffffffffffffffffffffffffffff1660025f8481526020019081526020015f205f9054906101000a900473ffffffffffffffffffffffffffffffffffffffff1673ffffffffffffffffffffffffffffffffffffffff1603610cd5576040517f08c379a0000000000000000000000000000000000000000000000000000000008152600401610ccc90611e74565b60405180910390fd5b5f610cde611627565b90505f815111610cfc5760405180602001604052805f815250610d27565b80610d0684611647565b604051602001610d17929190611ecc565b6040516020818303038152906040525b915050919050565b6005602052815f5260405f20602052805f5260405f205f915091509054906101000a900460ff1681565b5f60025f8481526020019081526020015f205f9054906101000a900473ffffffffffffffffffffffffffffffffffffffff1690503373ffffffffffffffffffffffffffffffffffffffff168173ffffffffffffffffffffffffffffffffffffffff161480610e48575060055f8273ffffffffffffffffffffffffffffffffffffffff1673ffffffffffffffffffffffffffffffffffffffff1681526020019081526020015f205f8373ffffffffffffffffffffffffffffffffffffffff1673ffffffffffffffffffffffffffffffffffffffff1681526020019081526020015f205f9054906101000a900460ff165b610e87576040517f08c379a0000000000000000000000000000000000000000000000000000000008152600401610e7e90611da4565b60405180910390fd5b8160045f8581526020019081526020015f205f6101000a81548173ffffffffffffffffffffffffffffffffffffffff021916908373ffffffffffffffffffffffffffffffffffffffff160217905550610ee18183856117a0565b505050565b5f60055f3373ffffffffffffffffffffffffffffffffffffffff1673ffffffffffffffffffffffffffffffffffffffff1681526020019081526020015f205f8373ffffffffffffffffffffffffffffffffffffffff1673ffffffffffffffffffffffffffffffffffffffff1681526020019081526020015f205f9054906101000a900460ff169050919050565b5f8373ffffffffffffffffffffffffffffffffffffffff168373ffffffffffffffffffffffffffffffffffffffff16148061100957508273ffffffffffffffffffffffffffffffffffffffff1660045f8481526020019081526020015f205f9054906101000a900473ffffffffffffffffffffffffffffffffffffffff1673ffffffffffffffffffffffffffffffffffffffff16145b80611095575060055f8573ffffffffffffffffffffffffffffffffffffffff1673ffffffffffffffffffffffffffffffffffffffff1681526020019081526020015f205f8473ffffffffffffffffffffffffffffffffffffffff1673ffffffffffffffffffffffffffffffffffffffff1681526020019081526020015f205f9054906101000a900460ff165b90509392505050565b5f73ffffffffffffffffffffffffffffffffffffffff168273ffffffffffffffffffffffffffffffffffffffff160361110c576040517f08c379a000000000000000000000000000000000000000000000000000000000815260040161110390611da4565b60405180910390fd5b611117835f836117a0565b8160025f8381526020019081526020015f205f6101000a81548173ffffffffffffffffffffffffffffffffffffffff021916908373ffffffffffffffffffffffffffffffffffffffff160217905550600160035f8573ffffffffffffffffffffffffffffffffffffffff1673ffffffffffffffffffffffffffffffffffffffff1681526020019081526020015f205f8282546111b39190611f1c565b92505081905550600160035f8473ffffffffffffffffffffffffffffffffffffffff1673ffffffffffffffffffffffffffffffffffffffff1681526020019081526020015f205f8282546112079190611f1c565b92505081905550808273ffffffffffffffffffffffffffffffffffffffff168473ffffffffffffffffffffffffffffffffffffffff167fddf252ad1be2c89b69c2b068fc378daa952ba7f163c4a11628f55a4df523b3ef60405160405180910390a4505050565b5f73ffffffffffffffffffffffffffffffffffffffff168273ffffffffffffffffffffffffffffffffffffffff16036112dc576040517f08c379a00000000000000000000000000000000000000000000000000000000081526004016112d390611f99565b60405180910390fd5b5f73ffffffffffffffffffffffffffffffffffffffff1660025f8381526020019081526020015f205f9054906101000a900473ffffffffffffffffffffffffffffffffffffffff1673ffffffffffffffffffffffffffffffffffffffff161461137a576040517f08c379a000000000000000000000000000000000000000000000000000000000815260040161137190612001565b60405180910390fd5b600160035f8473ffffffffffffffffffffffffffffffffffffffff1673ffffffffffffffffffffffffffffffffffffffff1681526020019081526020015f205f8282546113c7919061201f565b925050819055508160025f8381526020019081526020015f205f6101000a81548173ffffffffffffffffffffffffffffffffffffffff021916908373ffffffffffffffffffffffffffffffffffffffff160217905550808273ffffffffffffffffffffffffffffffffffffffff165f73ffffffffffffffffffffffffffffffffffffffff167fddf252ad1be2c89b69c2b068fc378daa952ba7f163c4a11628f55a4df523b3ef60405160405180910390a45050565b5f8373ffffffffffffffffffffffffffffffffffffffff163b1115611621578273ffffffffffffffffffffffffffffffffffffffff1663150b7a02338685856040518563ffffffff1660e01b81526004016114da94939291906120a4565b6020604051808303815f875af192505050801561151557506040513d601f19601f820116820180604052508101906115129190612102565b60015b611596573d805f8114611543576040519150601f19603f3d011682016040523d82523d5f602084013e611548565b606091505b505f81510361158e57836040517ff9ecab620000000000000000000000000000000000000000000000000000000081526004016115859190611a37565b60405180910390fd5b805181602001fd5b63150b7a0260e01b7bffffffffffffffffffffffffffffffffffffffffffffffffffffffff1916817bffffffffffffffffffffffffffffffffffffffffffffffffffffffff19161461161f57836040517ff9ecab620000000000000000000000000000000000000000000000000000000081526004016116169190611a37565b60405180910390fd5b505b50505050565b606060405180606001604052806036815260200161225c60369139905090565b60605f820361168d576040518060400160405280600181526020017f3000000000000000000000000000000000000000000000000000000000000000815250905061179b565b5f8290505f5b5f82146116bc5780806116a59061212d565b915050600a826116b591906121a1565b9150611693565b5f8167ffffffffffffffff8111156116d7576116d66121d1565b5b6040519080825280601f01601f1916602001820160405280156117095781602001600182028036833780820191505090505b5090505b5f8514611794576001826117219190611f1c565b9150600a8561173091906121fe565b603061173c919061201f565b60f81b8183815181106117525761175161222e565b5b60200101907effffffffffffffffffffffffffffffffffffffffffffffffffffffffffffff191690815f1a905350600a8561178d91906121a1565b945061170d565b8093505050505b919050565b8160045f8381526020019081526020015f205f6101000a81548173ffffffffffffffffffffffffffffffffffffffff021916908373ffffffffffffffffffffffffffffffffffffffff160217905550808273ffffffffffffffffffffffffffffffffffffffff168473ffffffffffffffffffffffffffffffffffffffff167f8c5be1e5ebec7d5bd14f71427d1e84f3dd0314c0f7b2291e5b200ac8c7c3b92560405160405180910390a4505050565b5f5ffd5b5f5ffd5b5f7fffffffff0000000000000000000000000000000000000000000000000000000082169050919050565b61188b81611857565b8114611895575f5ffd5b50565b5f813590506118a681611882565b92915050565b5f602082840312156118c1576118c061184f565b5b5f6118ce84828501611898565b91505092915050565b5f8115159050919050565b6118eb816118d7565b82525050565b5f6020820190506119045f8301846118e2565b92915050565b5f81519050919050565b5f82825260208201905092915050565b8281835e5f83830152505050565b5f601f19601f8301169050919050565b5f61194c8261190a565b6119568185611914565b9350611966818560208601611924565b61196f81611932565b840191505092915050565b5f6020820190508181035f8301526119928184611942565b905092915050565b5f819050919050565b6119ac8161199a565b81146119b6575f5ffd5b50565b5f813590506119c7816119a3565b92915050565b5f602082840312156119e2576119e161184f565b5b5f6119ef848285016119b9565b91505092915050565b5f73ffffffffffffffffffffffffffffffffffffffff82169050919050565b5f611a21826119f8565b9050919050565b611a3181611a17565b82525050565b5f602082019050611a4a5f830184611a28565b92915050565b611a5981611a17565b8114611a63575f5ffd5b50565b5f81359050611a7481611a50565b92915050565b5f5f5f60608486031215611a9157611a9061184f565b5b5f611a9e86828701611a66565b9350506020611aaf86828701611a66565b9250506040611ac0868287016119b9565b9150509250925092565b5f5f60408385031215611ae057611adf61184f565b5b5f611aed85828601611a66565b9250506020611afe858286016119b9565b9150509250929050565b5f60208284031215611b1d57611b1c61184f565b5b5f611b2a84828501611a66565b91505092915050565b611b3c8161199a565b82525050565b5f602082019050611b555f830184611b33565b92915050565b5f5ffd5b5f5ffd5b5f5ffd5b5f5f83601f840112611b7c57611b7b611b5b565b5b8235905067ffffffffffffffff811115611b9957611b98611b5f565b5b602083019150836001820283011115611bb557611bb4611b63565b5b9250929050565b5f5f5f5f5f60808688031215611bd557611bd461184f565b5b5f611be288828901611a66565b9550506020611bf388828901611a66565b9450506040611c04888289016119b9565b935050606086013567ffffffffffffffff811115611c2557611c24611853565b5b611c3188828901611b67565b92509250509295509295909350565b611c49816118d7565b8114611c53575f5ffd5b50565b5f81359050611c6481611c40565b92915050565b5f5f60408385031215611c8057611c7f61184f565b5b5f611c8d85828601611a66565b9250506020611c9e85828601611c56565b9150509250929050565b5f5f60408385031215611cbe57611cbd61184f565b5b5f611ccb85828601611a66565b9250506020611cdc85828601611a66565b9150509250929050565b5f5f60408385031215611cfc57611cfb61184f565b5b5f611d09858286016119b9565b9250506020611d1a85828601611a66565b9150509250929050565b7f4e487b71000000000000000000000000000000000000000000000000000000005f52602260045260245ffd5b5f6002820490506001821680611d6857607f821691505b602082108103611d7b57611d7a611d24565b5b50919050565b50565b5f611d8f5f83611914565b9150611d9a82611d81565b5f82019050919050565b5f6020820190508181035f830152611dbb81611d84565b9050919050565b7f746f6b656e4964206f7574206f662072616e67650000000000000000000000005f82015250565b5f611df6601483611914565b9150611e0182611dc2565b602082019050919050565b5f6020820190508181035f830152611e2381611dea565b9050919050565b7f546f6b656e204e6f7420457869737400000000000000000000000000000000005f82015250565b5f611e5e600f83611914565b9150611e6982611e2a565b602082019050919050565b5f6020820190508181035f830152611e8b81611e52565b9050919050565b5f81905092915050565b5f611ea68261190a565b611eb08185611e92565b9350611ec0818560208601611924565b80840191505092915050565b5f611ed78285611e9c565b9150611ee38284611e9c565b91508190509392505050565b7f4e487b71000000000000000000000000000000000000000000000000000000005f52601160045260245ffd5b5f611f268261199a565b9150611f318361199a565b9250828203905081811115611f4957611f48611eef565b5b92915050565b7f6d696e7420746f207a65726f20616464726573730000000000000000000000005f82015250565b5f611f83601483611914565b9150611f8e82611f4f565b602082019050919050565b5f6020820190508181035f830152611fb081611f77565b9050919050565b7f746f6b656e20616c7265616479206d696e7465640000000000000000000000005f82015250565b5f611feb601483611914565b9150611ff682611fb7565b602082019050919050565b5f6020820190508181035f83015261201881611fdf565b9050919050565b5f6120298261199a565b91506120348361199a565b925082820190508082111561204c5761204b611eef565b5b92915050565b5f81519050919050565b5f82825260208201905092915050565b5f61207682612052565b612080818561205c565b9350612090818560208601611924565b61209981611932565b840191505092915050565b5f6080820190506120b75f830187611a28565b6120c46020830186611a28565b6120d16040830185611b33565b81810360608301526120e3818461206c565b905095945050505050565b5f815190506120fc81611882565b92915050565b5f602082840312156121175761211661184f565b5b5f612124848285016120ee565b91505092915050565b5f6121378261199a565b91507fffffffffffffffffffffffffffffffffffffffffffffffffffffffffffffffff820361216957612168611eef565b5b600182019050919050565b7f4e487b71000000000000000000000000000000000000000000000000000000005f52601260045260245ffd5b5f6121ab8261199a565b91506121b68361199a565b9250826121c6576121c5612174565b5b828204905092915050565b7f4e487b71000000000000000000000000000000000000000000000000000000005f52604160045260245ffd5b5f6122088261199a565b91506122138361199a565b92508261222357612222612174565b5b828206905092915050565b7f4e487b71000000000000000000000000000000000000000000000000000000005f52603260045260245ffdfe697066733a2f2f516d65536a53696e4870506e6d586d73704d6a776958794e367a533445397a63636172694752336a7863615774712fa2646970667358221220aab85726b9e1baef81766bccf95967e66360cca33d9991677d19dbd1c48e60c964736f6c634300081e0033",
					"opcodes": "PUSH1 0x80 PUSH1 0x40 MSTORE PUSH2 0x2710 PUSH1 0x6 SSTORE CALLVALUE DUP1 ISZERO PUSH2 0x15 JUMPI PUSH0 PUSH0 REVERT JUMPDEST POP PUSH1 0x40 MLOAD PUSH2 0x27D7 CODESIZE SUB DUP1 PUSH2 0x27D7 DUP4 CODECOPY DUP2 DUP2 ADD PUSH1 0x40 MSTORE DUP2 ADD SWAP1 PUSH2 0x37 SWAP2 SWAP1 PUSH2 0x1AE JUMP JUMPDEST DUP2 DUP2 DUP2 PUSH0 SWAP1 DUP2 PUSH2 0x47 SWAP2 SWAP1 PUSH2 0x434 JUMP JUMPDEST POP DUP1 PUSH1 0x1 SWAP1 DUP2 PUSH2 0x57 SWAP2 SWAP1 PUSH2 0x434 JUMP JUMPDEST POP POP POP POP POP PUSH2 0x503 JUMP JUMPDEST PUSH0 PUSH1 0x40 MLOAD SWAP1 POP SWAP1 JUMP JUMPDEST PUSH0 PUSH0 REVERT JUMPDEST PUSH0 PUSH0 REVERT JUMPDEST PUSH0 PUSH0 REVERT JUMPDEST PUSH0 PUSH0 REVERT JUMPDEST PUSH0 PUSH1 0x1F NOT PUSH1 0x1F DUP4 ADD AND SWAP1 POP SWAP2 SWAP1 POP JUMP JUMPDEST PUSH32 0x4E487B7100000000000000000000000000000000000000000000000000000000 PUSH0 MSTORE PUSH1 0x41 PUSH1 0x4 MSTORE PUSH1 0x24 PUSH0 REVERT JUMPDEST PUSH2 0xC0 DUP3 PUSH2 0x7A JUMP JUMPDEST DUP2 ADD DUP2 DUP2 LT PUSH8 0xFFFFFFFFFFFFFFFF DUP3 GT OR ISZERO PUSH2 0xDF JUMPI PUSH2 0xDE PUSH2 0x8A JUMP JUMPDEST JUMPDEST DUP1 PUSH1 0x40 MSTORE POP POP POP JUMP JUMPDEST PUSH0 PUSH2 0xF1 PUSH2 0x61 JUMP JUMPDEST SWAP1 POP PUSH2 0xFD DUP3 DUP3 PUSH2 0xB7 JUMP JUMPDEST SWAP2 SWAP1 POP JUMP JUMPDEST PUSH0 PUSH8 0xFFFFFFFFFFFFFFFF DUP3 GT ISZERO PUSH2 0x11C JUMPI PUSH2 0x11B PUSH2 0x8A JUMP JUMPDEST JUMPDEST PUSH2 0x125 DUP3 PUSH2 0x7A JUMP JUMPDEST SWAP1 POP PUSH1 0x20 DUP2 ADD SWAP1 POP SWAP2 SWAP1 POP JUMP JUMPDEST DUP3 DUP2 DUP4 MCOPY PUSH0 DUP4 DUP4 ADD MSTORE POP POP POP JUMP JUMPDEST PUSH0 PUSH2 0x152 PUSH2 0x14D DUP5 PUSH2 0x102 JUMP JUMPDEST PUSH2 0xE8 JUMP JUMPDEST SWAP1 POP DUP3 DUP2 MSTORE PUSH1 0x20 DUP2 ADD DUP5 DUP5 DUP5 ADD GT ISZERO PUSH2 0x16E JUMPI PUSH2 0x16D PUSH2 0x76 JUMP JUMPDEST JUMPDEST PUSH2 0x179 DUP5 DUP3 DUP6 PUSH2 0x132 JUMP JUMPDEST POP SWAP4 SWAP3 POP POP POP JUMP JUMPDEST PUSH0 DUP3 PUSH1 0x1F DUP4 ADD SLT PUSH2 0x195 JUMPI PUSH2 0x194 PUSH2 0x72 JUMP JUMPDEST JUMPDEST DUP2 MLOAD PUSH2 0x1A5 DUP5 DUP3 PUSH1 0x20 DUP7 ADD PUSH2 0x140 JUMP JUMPDEST SWAP2 POP POP SWAP3 SWAP2 POP POP JUMP JUMPDEST PUSH0 PUSH0 PUSH1 0x40 DUP4 DUP6 SUB SLT ISZERO PUSH2 0x1C4 JUMPI PUSH2 0x1C3 PUSH2 0x6A JUMP JUMPDEST JUMPDEST PUSH0 DUP4 ADD MLOAD PUSH8 0xFFFFFFFFFFFFFFFF DUP2 GT ISZERO PUSH2 0x1E1 JUMPI PUSH2 0x1E0 PUSH2 0x6E JUMP JUMPDEST JUMPDEST PUSH2 0x1ED DUP6 DUP3 DUP7 ADD PUSH2 0x181 JUMP JUMPDEST SWAP3 POP POP PUSH1 0x20 DUP4 ADD MLOAD PUSH8 0xFFFFFFFFFFFFFFFF DUP2 GT ISZERO PUSH2 0x20E JUMPI PUSH2 0x20D PUSH2 0x6E JUMP JUMPDEST JUMPDEST PUSH2 0x21A DUP6 DUP3 DUP7 ADD PUSH2 0x181 JUMP JUMPDEST SWAP2 POP POP SWAP3 POP SWAP3 SWAP1 POP JUMP JUMPDEST PUSH0 DUP2 MLOAD SWAP1 POP SWAP2 SWAP1 POP JUMP JUMPDEST PUSH32 0x4E487B7100000000000000000000000000000000000000000000000000000000 PUSH0 MSTORE PUSH1 0x22 PUSH1 0x4 MSTORE PUSH1 0x24 PUSH0 REVERT JUMPDEST PUSH0 PUSH1 0x2 DUP3 DIV SWAP1 POP PUSH1 0x1 DUP3 AND DUP1 PUSH2 0x272 JUMPI PUSH1 0x7F DUP3 AND SWAP2 POP JUMPDEST PUSH1 0x20 DUP3 LT DUP2 SUB PUSH2 0x285 JUMPI PUSH2 0x284 PUSH2 0x22E JUMP JUMPDEST JUMPDEST POP SWAP2 SWAP1 POP JUMP JUMPDEST PUSH0 DUP2 SWAP1 POP DUP2 PUSH0 MSTORE PUSH1 0x20 PUSH0 KECCAK256 SWAP1 POP SWAP2 SWAP1 POP JUMP JUMPDEST PUSH0 PUSH1 0x20 PUSH1 0x1F DUP4 ADD DIV SWAP1 POP SWAP2 SWAP1 POP JUMP JUMPDEST PUSH0 DUP3 DUP3 SHL SWAP1 POP SWAP3 SWAP2 POP POP JUMP JUMPDEST PUSH0 PUSH1 0x8 DUP4 MUL PUSH2 0x2E7 PUSH32 0xFFFFFFFFFFFFFFFFFFFFFFFFFFFFFFFFFFFFFFFFFFFFFFFFFFFFFFFFFFFFFFFF DUP3 PUSH2 0x2AC JUMP JUMPDEST PUSH2 0x2F1 DUP7 DUP4 PUSH2 0x2AC JUMP JUMPDEST SWAP6 POP DUP1 NOT DUP5 AND SWAP4 POP DUP1 DUP7 AND DUP5 OR SWAP3 POP POP POP SWAP4 SWAP3 POP POP POP JUMP JUMPDEST PUSH0 DUP2 SWAP1 POP SWAP2 SWAP1 POP JUMP JUMPDEST PUSH0 DUP2 SWAP1 POP SWAP2 SWAP1 POP JUMP JUMPDEST PUSH0 PUSH2 0x335 PUSH2 0x330 PUSH2 0x32B DUP5 PUSH2 0x309 JUMP JUMPDEST PUSH2 0x312 JUMP JUMPDEST PUSH2 0x309 JUMP JUMPDEST SWAP1 POP SWAP2 SWAP1 POP JUMP JUMPDEST PUSH0 DUP2 SWAP1 POP SWAP2 SWAP1 POP JUMP JUMPDEST PUSH2 0x34E DUP4 PUSH2 0x31B JUMP JUMPDEST PUSH2 0x362 PUSH2 0x35A DUP3 PUSH2 0x33C JUMP JUMPDEST DUP5 DUP5 SLOAD PUSH2 0x2B8 JUMP JUMPDEST DUP3 SSTORE POP POP POP POP JUMP JUMPDEST PUSH0 PUSH0 SWAP1 POP SWAP1 JUMP JUMPDEST PUSH2 0x379 PUSH2 0x36A JUMP JUMPDEST PUSH2 0x384 DUP2 DUP5 DUP5 PUSH2 0x345 JUMP JUMPDEST POP POP POP JUMP JUMPDEST JUMPDEST DUP2 DUP2 LT ISZERO PUSH2 0x3A7 JUMPI PUSH2 0x39C PUSH0 DUP3 PUSH2 0x371 JUMP JUMPDEST PUSH1 0x1 DUP2 ADD SWAP1 POP PUSH2 0x38A JUMP JUMPDEST POP POP JUMP JUMPDEST PUSH1 0x1F DUP3 GT ISZERO PUSH2 0x3EC JUMPI PUSH2 0x3BD DUP2 PUSH2 0x28B JUMP JUMPDEST PUSH2 0x3C6 DUP5 PUSH2 0x29D JUMP JUMPDEST DUP2 ADD PUSH1 0x20 DUP6 LT ISZERO PUSH2 0x3D5 JUMPI DUP2 SWAP1 POP JUMPDEST PUSH2 0x3E9 PUSH2 0x3E1 DUP6 PUSH2 0x29D JUMP JUMPDEST DUP4 ADD DUP3 PUSH2 0x389 JUMP JUMPDEST POP POP JUMPDEST POP POP POP JUMP JUMPDEST PUSH0 DUP3 DUP3 SHR SWAP1 POP SWAP3 SWAP2 POP POP JUMP JUMPDEST PUSH0 PUSH2 0x40C PUSH0 NOT DUP5 PUSH1 0x8 MUL PUSH2 0x3F1 JUMP JUMPDEST NOT DUP1 DUP4 AND SWAP2 POP POP SWAP3 SWAP2 POP POP JUMP JUMPDEST PUSH0 PUSH2 0x424 DUP4 DUP4 PUSH2 0x3FD JUMP JUMPDEST SWAP2 POP DUP3 PUSH1 0x2 MUL DUP3 OR SWAP1 POP SWAP3 SWAP2 POP POP JUMP JUMPDEST PUSH2 0x43D DUP3 PUSH2 0x224 JUMP JUMPDEST PUSH8 0xFFFFFFFFFFFFFFFF DUP2 GT ISZERO PUSH2 0x456 JUMPI PUSH2 0x455 PUSH2 0x8A JUMP JUMPDEST JUMPDEST PUSH2 0x460 DUP3 SLOAD PUSH2 0x25B JUMP JUMPDEST PUSH2 0x46B DUP3 DUP3 DUP6 PUSH2 0x3AB JUMP JUMPDEST PUSH0 PUSH1 0x20 SWAP1 POP PUSH1 0x1F DUP4 GT PUSH1 0x1 DUP2 EQ PUSH2 0x49C JUMPI PUSH0 DUP5 ISZERO PUSH2 0x48A JUMPI DUP3 DUP8 ADD MLOAD SWAP1 POP JUMPDEST PUSH2 0x494 DUP6 DUP3 PUSH2 0x419 JUMP JUMPDEST DUP7 SSTORE POP PUSH2 0x4FB JUMP JUMPDEST PUSH1 0x1F NOT DUP5 AND PUSH2 0x4AA DUP7 PUSH2 0x28B JUMP JUMPDEST PUSH0 JUMPDEST DUP3 DUP2 LT ISZERO PUSH2 0x4D1 JUMPI DUP5 DUP10 ADD MLOAD DUP3 SSTORE PUSH1 0x1 DUP3 ADD SWAP2 POP PUSH1 0x20 DUP6 ADD SWAP5 POP PUSH1 0x20 DUP2 ADD SWAP1 POP PUSH2 0x4AC JUMP JUMPDEST DUP7 DUP4 LT ISZERO PUSH2 0x4EE JUMPI DUP5 DUP10 ADD MLOAD PUSH2 0x4EA PUSH1 0x1F DUP10 AND DUP3 PUSH2 0x3FD JUMP JUMPDEST DUP4 SSTORE POP JUMPDEST PUSH1 0x1 PUSH1 0x2 DUP9 MUL ADD DUP9 SSTORE POP POP POP JUMPDEST POP POP POP POP POP POP JUMP JUMPDEST PUSH2 0x22C7 DUP1 PUSH2 0x510 PUSH0 CODECOPY PUSH0 RETURN INVALID PUSH1 0x80 PUSH1 0x40 MSTORE CALLVALUE DUP1 ISZERO PUSH2 0xF JUMPI PUSH0 PUSH0 REVERT JUMPDEST POP PUSH1 0x4 CALLDATASIZE LT PUSH2 0x11F JUMPI PUSH0 CALLDATALOAD PUSH1 0xE0 SHR DUP1 PUSH4 0x95D89B41 GT PUSH2 0xAB JUMPI DUP1 PUSH4 0xC3354402 GT PUSH2 0x6F JUMPI DUP1 PUSH4 0xC3354402 EQ PUSH2 0x33D JUMPI DUP1 PUSH4 0xC87B56DD EQ PUSH2 0x359 JUMPI DUP1 PUSH4 0xEDC3BC3F EQ PUSH2 0x389 JUMPI DUP1 PUSH4 0xFEBE4909 EQ PUSH2 0x3B9 JUMPI DUP1 PUSH4 0xFFB74E64 EQ PUSH2 0x3D5 JUMPI PUSH2 0x11F JUMP JUMPDEST DUP1 PUSH4 0x95D89B41 EQ PUSH2 0x285 JUMPI DUP1 PUSH4 0x992924A6 EQ PUSH2 0x2A3 JUMPI DUP1 PUSH4 0xA7CC0136 EQ PUSH2 0x2D3 JUMPI DUP1 PUSH4 0xB88D4FDE EQ PUSH2 0x303 JUMPI DUP1 PUSH4 0xBB8A16BD EQ PUSH2 0x31F JUMPI PUSH2 0x11F JUMP JUMPDEST DUP1 PUSH4 0x40C10F19 GT PUSH2 0xF2 JUMPI DUP1 PUSH4 0x40C10F19 EQ PUSH2 0x1BD JUMPI DUP1 PUSH4 0x42842E0E EQ PUSH2 0x1D9 JUMPI DUP1 PUSH4 0x6352211E EQ PUSH2 0x1F5 JUMPI DUP1 PUSH4 0x6EBCF607 EQ PUSH2 0x225 JUMPI DUP1 PUSH4 0x70A08231 EQ PUSH2 0x255 JUMPI PUSH2 0x11F JUMP JUMPDEST DUP1 PUSH4 0x1FFC9A7 EQ PUSH2 0x123 JUMPI DUP1 PUSH4 0x6FDDE03 EQ PUSH2 0x153 JUMPI DUP1 PUSH4 0x81812FC EQ PUSH2 0x171 JUMPI DUP1 PUSH4 0x23B872DD EQ PUSH2 0x1A1 JUMPI JUMPDEST PUSH0 PUSH0 REVERT JUMPDEST PUSH2 0x13D PUSH1 0x4 DUP1 CALLDATASIZE SUB DUP2 ADD SWAP1 PUSH2 0x138 SWAP2 SWAP1 PUSH2 0x18AC JUMP JUMPDEST PUSH2 0x405 JUMP JUMPDEST PUSH1 0x40 MLOAD PUSH2 0x14A SWAP2 SWAP1 PUSH2 0x18F1 JUMP JUMPDEST PUSH1 0x40 MLOAD DUP1 SWAP2 SUB SWAP1 RETURN JUMPDEST PUSH2 0x15B PUSH2 0x53D JUMP JUMPDEST PUSH1 0x40 MLOAD PUSH2 0x168 SWAP2 SWAP1 PUSH2 0x197A JUMP JUMPDEST PUSH1 0x40 MLOAD DUP1 SWAP2 SUB SWAP1 RETURN JUMPDEST PUSH2 0x18B PUSH1 0x4 DUP1 CALLDATASIZE SUB DUP2 ADD SWAP1 PUSH2 0x186 SWAP2 SWAP1 PUSH2 0x19CD JUMP JUMPDEST PUSH2 0x5C8 JUMP JUMPDEST PUSH1 0x40 MLOAD PUSH2 0x198 SWAP2 SWAP1 PUSH2 0x1A37 JUMP JUMPDEST PUSH1 0x40 MLOAD DUP1 SWAP2 SUB SWAP1 RETURN JUMPDEST PUSH2 0x1BB PUSH1 0x4 DUP1 CALLDATASIZE SUB DUP2 ADD SWAP1 PUSH2 0x1B6 SWAP2 SWAP1 PUSH2 0x1A7A JUMP JUMPDEST PUSH2 0x6E5 JUMP JUMPDEST STOP JUMPDEST PUSH2 0x1D7 PUSH1 0x4 DUP1 CALLDATASIZE SUB DUP2 ADD SWAP1 PUSH2 0x1D2 SWAP2 SWAP1 PUSH2 0x1ACA JUMP JUMPDEST PUSH2 0x74C JUMP JUMPDEST STOP JUMPDEST PUSH2 0x1F3 PUSH1 0x4 DUP1 CALLDATASIZE SUB DUP2 ADD SWAP1 PUSH2 0x1EE SWAP2 SWAP1 PUSH2 0x1A7A JUMP JUMPDEST PUSH2 0x7AA JUMP JUMPDEST STOP JUMPDEST PUSH2 0x20F PUSH1 0x4 DUP1 CALLDATASIZE SUB DUP2 ADD SWAP1 PUSH2 0x20A SWAP2 SWAP1 PUSH2 0x19CD JUMP JUMPDEST PUSH2 0x82B JUMP JUMPDEST PUSH1 0x40 MLOAD PUSH2 0x21C SWAP2 SWAP1 PUSH2 0x1A37 JUMP JUMPDEST PUSH1 0x40 MLOAD DUP1 SWAP2 SUB SWAP1 RETURN JUMPDEST PUSH2 0x23F PUSH1 0x4 DUP1 CALLDATASIZE SUB DUP2 ADD SWAP1 PUSH2 0x23A SWAP2 SWAP1 PUSH2 0x1B08 JUMP JUMPDEST PUSH2 0x8D2 JUMP JUMPDEST PUSH1 0x40 MLOAD PUSH2 0x24C SWAP2 SWAP1 PUSH2 0x1B42 JUMP JUMPDEST PUSH1 0x40 MLOAD DUP1 SWAP2 SUB SWAP1 RETURN JUMPDEST PUSH2 0x26F PUSH1 0x4 DUP1 CALLDATASIZE SUB DUP2 ADD SWAP1 PUSH2 0x26A SWAP2 SWAP1 PUSH2 0x1B08 JUMP JUMPDEST PUSH2 0x8E7 JUMP JUMPDEST PUSH1 0x40 MLOAD PUSH2 0x27C SWAP2 SWAP1 PUSH2 0x1B42 JUMP JUMPDEST PUSH1 0x40 MLOAD DUP1 SWAP2 SUB SWAP1 RETURN JUMPDEST PUSH2 0x28D PUSH2 0x99B JUMP JUMPDEST PUSH1 0x40 MLOAD PUSH2 0x29A SWAP2 SWAP1 PUSH2 0x197A JUMP JUMPDEST PUSH1 0x40 MLOAD DUP1 SWAP2 SUB SWAP1 RETURN JUMPDEST PUSH2 0x2BD PUSH1 0x4 DUP1 CALLDATASIZE SUB DUP2 ADD SWAP1 PUSH2 0x2B8 SWAP2 SWAP1 PUSH2 0x19CD JUMP JUMPDEST PUSH2 0xA27 JUMP JUMPDEST PUSH1 0x40 MLOAD PUSH2 0x2CA SWAP2 SWAP1 PUSH2 0x1A37 JUMP JUMPDEST PUSH1 0x40 MLOAD DUP1 SWAP2 SUB SWAP1 RETURN JUMPDEST PUSH2 0x2ED PUSH1 0x4 DUP1 CALLDATASIZE SUB DUP2 ADD SWAP1 PUSH2 0x2E8 SWAP2 SWAP1 PUSH2 0x19CD JUMP JUMPDEST PUSH2 0xA57 JUMP JUMPDEST PUSH1 0x40 MLOAD PUSH2 0x2FA SWAP2 SWAP1 PUSH2 0x1A37 JUMP JUMPDEST PUSH1 0x40 MLOAD DUP1 SWAP2 SUB SWAP1 RETURN JUMPDEST PUSH2 0x31D PUSH1 0x4 DUP1 CALLDATASIZE SUB DUP2 ADD SWAP1 PUSH2 0x318 SWAP2 SWAP1 PUSH2 0x1BBC JUMP JUMPDEST PUSH2 0xA87 JUMP JUMPDEST STOP JUMPDEST PUSH2 0x327 PUSH2 0xB3F JUMP JUMPDEST PUSH1 0x40 MLOAD PUSH2 0x334 SWAP2 SWAP1 PUSH2 0x1B42 JUMP JUMPDEST PUSH1 0x40 MLOAD DUP1 SWAP2 SUB SWAP1 RETURN JUMPDEST PUSH2 0x357 PUSH1 0x4 DUP1 CALLDATASIZE SUB DUP2 ADD SWAP1 PUSH2 0x352 SWAP2 SWAP1 PUSH2 0x1C6A JUMP JUMPDEST PUSH2 0xB45 JUMP JUMPDEST STOP JUMPDEST PUSH2 0x373 PUSH1 0x4 DUP1 CALLDATASIZE SUB DUP2 ADD SWAP1 PUSH2 0x36E SWAP2 SWAP1 PUSH2 0x19CD JUMP JUMPDEST PUSH2 0xC35 JUMP JUMPDEST PUSH1 0x40 MLOAD PUSH2 0x380 SWAP2 SWAP1 PUSH2 0x197A JUMP JUMPDEST PUSH1 0x40 MLOAD DUP1 SWAP2 SUB SWAP1 RETURN JUMPDEST PUSH2 0x3A3 PUSH1 0x4 DUP1 CALLDATASIZE SUB DUP2 ADD SWAP1 PUSH2 0x39E SWAP2 SWAP1 PUSH2 0x1CA8 JUMP JUMPDEST PUSH2 0xD2F JUMP JUMPDEST PUSH1 0x40 MLOAD PUSH2 0x3B0 SWAP2 SWAP1 PUSH2 0x18F1 JUMP JUMPDEST PUSH1 0x40 MLOAD DUP1 SWAP2 SUB SWAP1 RETURN JUMPDEST PUSH2 0x3D3 PUSH1 0x4 DUP1 CALLDATASIZE SUB DUP2 ADD SWAP1 PUSH2 0x3CE SWAP2 SWAP1 PUSH2 0x1CE6 JUMP JUMPDEST PUSH2 0xD59 JUMP JUMPDEST STOP JUMPDEST PUSH2 0x3EF PUSH1 0x4 DUP1 CALLDATASIZE SUB DUP2 ADD SWAP1 PUSH2 0x3EA SWAP2 SWAP1 PUSH2 0x1B08 JUMP JUMPDEST PUSH2 0xEE6 JUMP JUMPDEST PUSH1 0x40 MLOAD PUSH2 0x3FC SWAP2 SWAP1 PUSH2 0x18F1 JUMP JUMPDEST PUSH1 0x40 MLOAD DUP1 SWAP2 SUB SWAP1 RETURN JUMPDEST PUSH0 PUSH31 0x67E1B100000000000000000000000000000000000000000000000000000000 PUSH28 0xFFFFFFFFFFFFFFFFFFFFFFFFFFFFFFFFFFFFFFFFFFFFFFFFFFFFFFFF NOT AND DUP3 PUSH28 0xFFFFFFFFFFFFFFFFFFFFFFFFFFFFFFFFFFFFFFFFFFFFFFFFFFFFFFFF NOT AND EQ DUP1 PUSH2 0x4CE JUMPI POP PUSH32 0x1FFC9A700000000000000000000000000000000000000000000000000000000 PUSH28 0xFFFFFFFFFFFFFFFFFFFFFFFFFFFFFFFFFFFFFFFFFFFFFFFFFFFFFFFF NOT AND DUP3 PUSH28 0xFFFFFFFFFFFFFFFFFFFFFFFFFFFFFFFFFFFFFFFFFFFFFFFFFFFFFFFF NOT AND EQ JUMPDEST DUP1 PUSH2 0x536 JUMPI POP PUSH32 0x5B5E139F00000000000000000000000000000000000000000000000000000000 PUSH28 0xFFFFFFFFFFFFFFFFFFFFFFFFFFFFFFFFFFFFFFFFFFFFFFFFFFFFFFFF NOT AND DUP3 PUSH28 0xFFFFFFFFFFFFFFFFFFFFFFFFFFFFFFFFFFFFFFFFFFFFFFFFFFFFFFFF NOT AND EQ JUMPDEST SWAP1 POP SWAP2 SWAP1 POP JUMP JUMPDEST PUSH0 DUP1 SLOAD PUSH2 0x549 SWAP1 PUSH2 0x1D51 JUMP JUMPDEST DUP1 PUSH1 0x1F ADD PUSH1 0x20 DUP1 SWAP2 DIV MUL PUSH1 0x20 ADD PUSH1 0x40 MLOAD SWAP1 DUP2 ADD PUSH1 0x40 MSTORE DUP1 SWAP3 SWAP2 SWAP1 DUP2 DUP2 MSTORE PUSH1 0x20 ADD DUP3 DUP1 SLOAD PUSH2 0x575 SWAP1 PUSH2 0x1D51 JUMP JUMPDEST DUP1 ISZERO PUSH2 0x5C0 JUMPI DUP1 PUSH1 0x1F LT PUSH2 0x597 JUMPI PUSH2 0x100 DUP1 DUP4 SLOAD DIV MUL DUP4 MSTORE SWAP2 PUSH1 0x20 ADD SWAP2 PUSH2 0x5C0 JUMP JUMPDEST DUP3 ADD SWAP2 SWAP1 PUSH0 MSTORE PUSH1 0x20 PUSH0 KECCAK256 SWAP1 JUMPDEST DUP2 SLOAD DUP2 MSTORE SWAP1 PUSH1 0x1 ADD SWAP1 PUSH1 0x20 ADD DUP1 DUP4 GT PUSH2 0x5A3 JUMPI DUP3 SWAP1 SUB PUSH1 0x1F AND DUP3 ADD SWAP2 JUMPDEST POP POP POP POP POP DUP2 JUMP JUMPDEST PUSH0 PUSH0 PUSH20 0xFFFFFFFFFFFFFFFFFFFFFFFFFFFFFFFFFFFFFFFF AND PUSH2 0x5E9 DUP4 PUSH2 0x82B JUMP JUMPDEST PUSH20 0xFFFFFFFFFFFFFFFFFFFFFFFFFFFFFFFFFFFFFFFF AND SUB PUSH2 0x63F JUMPI PUSH1 0x40 MLOAD PUSH32 0x8C379A000000000000000000000000000000000000000000000000000000000 DUP2 MSTORE PUSH1 0x4 ADD PUSH2 0x636 SWAP1 PUSH2 0x1DA4 JUMP JUMPDEST PUSH1 0x40 MLOAD DUP1 SWAP2 SUB SWAP1 REVERT JUMPDEST PUSH1 0x4 PUSH0 DUP4 DUP2 MSTORE PUSH1 0x20 ADD SWAP1 DUP2 MSTORE PUSH1 0x20 ADD PUSH0 KECCAK256 PUSH0 SWAP1 SLOAD SWAP1 PUSH2 0x100 EXP SWAP1 DIV PUSH20 0xFFFFFFFFFFFFFFFFFFFFFFFFFFFFFFFFFFFFFFFF AND SWAP1 POP PUSH0 PUSH20 0xFFFFFFFFFFFFFFFFFFFFFFFFFFFFFFFFFFFFFFFF AND DUP2 PUSH20 0xFFFFFFFFFFFFFFFFFFFFFFFFFFFFFFFFFFFFFFFF AND EQ PUSH2 0x6E0 JUMPI PUSH1 0x40 MLOAD PUSH32 0x8C379A000000000000000000000000000000000000000000000000000000000 DUP2 MSTORE PUSH1 0x4 ADD PUSH2 0x6D7 SWAP1 PUSH2 0x1DA4 JUMP JUMPDEST PUSH1 0x40 MLOAD DUP1 SWAP2 SUB SWAP1 REVERT JUMPDEST SWAP2 SWAP1 POP JUMP JUMPDEST PUSH0 PUSH2 0x6EF DUP3 PUSH2 0x82B JUMP JUMPDEST SWAP1 POP PUSH2 0x6FC DUP2 CALLER DUP5 PUSH2 0xF73 JUMP JUMPDEST PUSH2 0x73B JUMPI PUSH1 0x40 MLOAD PUSH32 0x8C379A000000000000000000000000000000000000000000000000000000000 DUP2 MSTORE PUSH1 0x4 ADD PUSH2 0x732 SWAP1 PUSH2 0x1DA4 JUMP JUMPDEST PUSH1 0x40 MLOAD DUP1 SWAP2 SUB SWAP1 REVERT JUMPDEST PUSH2 0x746 DUP5 DUP5 DUP5 PUSH2 0x109E JUMP JUMPDEST POP POP POP POP JUMP JUMPDEST PUSH0 DUP2 LT ISZERO DUP1 ISZERO PUSH2 0x75D JUMPI POP PUSH1 0x6 SLOAD DUP2 LT JUMPDEST PUSH2 0x79C JUMPI PUSH1 0x40 MLOAD PUSH32 0x8C379A000000000000000000000000000000000000000000000000000000000 DUP2 MSTORE PUSH1 0x4 ADD PUSH2 0x793 SWAP1 PUSH2 0x1E0C JUMP JUMPDEST PUSH1 0x40 MLOAD DUP1 SWAP2 SUB SWAP1 REVERT JUMPDEST PUSH2 0x7A6 DUP3 DUP3 PUSH2 0x126E JUMP JUMPDEST POP POP JUMP JUMPDEST PUSH0 PUSH2 0x7B4 DUP3 PUSH2 0x82B JUMP JUMPDEST SWAP1 POP PUSH2 0x7C1 DUP2 CALLER DUP5 PUSH2 0xF73 JUMP JUMPDEST PUSH2 0x800 JUMPI PUSH1 0x40 MLOAD PUSH32 0x8C379A000000000000000000000000000000000000000000000000000000000 DUP2 MSTORE PUSH1 0x4 ADD PUSH2 0x7F7 SWAP1 PUSH2 0x1DA4 JUMP JUMPDEST PUSH1 0x40 MLOAD DUP1 SWAP2 SUB SWAP1 REVERT JUMPDEST PUSH2 0x80B DUP5 DUP5 DUP5 PUSH2 0x109E JUMP JUMPDEST PUSH2 0x825 DUP5 DUP5 DUP5 PUSH1 0x40 MLOAD DUP1 PUSH1 0x20 ADD PUSH1 0x40 MSTORE DUP1 PUSH0 DUP2 MSTORE POP PUSH2 0x147C JUMP JUMPDEST POP POP POP POP JUMP JUMPDEST PUSH0 PUSH1 0x2 PUSH0 DUP4 DUP2 MSTORE PUSH1 0x20 ADD SWAP1 DUP2 MSTORE PUSH1 0x20 ADD PUSH0 KECCAK256 PUSH0 SWAP1 SLOAD SWAP1 PUSH2 0x100 EXP SWAP1 DIV PUSH20 0xFFFFFFFFFFFFFFFFFFFFFFFFFFFFFFFFFFFFFFFF AND SWAP1 POP PUSH0 PUSH20 0xFFFFFFFFFFFFFFFFFFFFFFFFFFFFFFFFFFFFFFFF AND DUP2 PUSH20 0xFFFFFFFFFFFFFFFFFFFFFFFFFFFFFFFFFFFFFFFF AND SUB PUSH2 0x8CD JUMPI PUSH1 0x40 MLOAD PUSH32 0x8C379A000000000000000000000000000000000000000000000000000000000 DUP2 MSTORE PUSH1 0x4 ADD PUSH2 0x8C4 SWAP1 PUSH2 0x1DA4 JUMP JUMPDEST PUSH1 0x40 MLOAD DUP1 SWAP2 SUB SWAP1 REVERT JUMPDEST SWAP2 SWAP1 POP JUMP JUMPDEST PUSH1 0x3 PUSH1 0x20 MSTORE DUP1 PUSH0 MSTORE PUSH1 0x40 PUSH0 KECCAK256 PUSH0 SWAP2 POP SWAP1 POP SLOAD DUP2 JUMP JUMPDEST PUSH0 PUSH0 PUSH20 0xFFFFFFFFFFFFFFFFFFFFFFFFFFFFFFFFFFFFFFFF AND DUP3 PUSH20 0xFFFFFFFFFFFFFFFFFFFFFFFFFFFFFFFFFFFFFFFF AND SUB PUSH2 0x956 JUMPI PUSH1 0x40 MLOAD PUSH32 0x8C379A000000000000000000000000000000000000000000000000000000000 DUP2 MSTORE PUSH1 0x4 ADD PUSH2 0x94D SWAP1 PUSH2 0x1DA4 JUMP JUMPDEST PUSH1 0x40 MLOAD DUP1 SWAP2 SUB SWAP1 REVERT JUMPDEST PUSH1 0x3 PUSH0 DUP4 PUSH20 0xFFFFFFFFFFFFFFFFFFFFFFFFFFFFFFFFFFFFFFFF AND PUSH20 0xFFFFFFFFFFFFFFFFFFFFFFFFFFFFFFFFFFFFFFFF AND DUP2 MSTORE PUSH1 0x20 ADD SWAP1 DUP2 MSTORE PUSH1 0x20 ADD PUSH0 KECCAK256 SLOAD SWAP1 POP SWAP2 SWAP1 POP JUMP JUMPDEST PUSH1 0x1 DUP1 SLOAD PUSH2 0x9A8 SWAP1 PUSH2 0x1D51 JUMP JUMPDEST DUP1 PUSH1 0x1F ADD PUSH1 0x20 DUP1 SWAP2 DIV MUL PUSH1 0x20 ADD PUSH1 0x40 MLOAD SWAP1 DUP2 ADD PUSH1 0x40 MSTORE DUP1 SWAP3 SWAP2 SWAP1 DUP2 DUP2 MSTORE PUSH1 0x20 ADD DUP3 DUP1 SLOAD PUSH2 0x9D4 SWAP1 PUSH2 0x1D51 JUMP JUMPDEST DUP1 ISZERO PUSH2 0xA1F JUMPI DUP1 PUSH1 0x1F LT PUSH2 0x9F6 JUMPI PUSH2 0x100 DUP1 DUP4 SLOAD DIV MUL DUP4 MSTORE SWAP2 PUSH1 0x20 ADD SWAP2 PUSH2 0xA1F JUMP JUMPDEST DUP3 ADD SWAP2 SWAP1 PUSH0 MSTORE PUSH1 0x20 PUSH0 KECCAK256 SWAP1 JUMPDEST DUP2 SLOAD DUP2 MSTORE SWAP1 PUSH1 0x1 ADD SWAP1 PUSH1 0x20 ADD DUP1 DUP4 GT PUSH2 0xA02 JUMPI DUP3 SWAP1 SUB PUSH1 0x1F AND DUP3 ADD SWAP2 JUMPDEST POP POP POP POP POP DUP2 JUMP JUMPDEST PUSH1 0x2 PUSH1 0x20 MSTORE DUP1 PUSH0 MSTORE PUSH1 0x40 PUSH0 KECCAK256 PUSH0 SWAP2 POP SLOAD SWAP1 PUSH2 0x100 EXP SWAP1 DIV PUSH20 0xFFFFFFFFFFFFFFFFFFFFFFFFFFFFFFFFFFFFFFFF AND DUP2 JUMP JUMPDEST PUSH1 0x4 PUSH1 0x20 MSTORE DUP1 PUSH0 MSTORE PUSH1 0x40 PUSH0 KECCAK256 PUSH0 SWAP2 POP SLOAD SWAP1 PUSH2 0x100 EXP SWAP1 DIV PUSH20 0xFFFFFFFFFFFFFFFFFFFFFFFFFFFFFFFFFFFFFFFF AND DUP2 JUMP JUMPDEST PUSH0 PUSH2 0xA91 DUP5 PUSH2 0x82B JUMP JUMPDEST SWAP1 POP PUSH2 0xA9E DUP2 CALLER DUP7 PUSH2 0xF73 JUMP JUMPDEST PUSH2 0xADD JUMPI PUSH1 0x40 MLOAD PUSH32 0x8C379A000000000000000000000000000000000000000000000000000000000 DUP2 MSTORE PUSH1 0x4 ADD PUSH2 0xAD4 SWAP1 PUSH2 0x1DA4 JUMP JUMPDEST PUSH1 0x40 MLOAD DUP1 SWAP2 SUB SWAP1 REVERT JUMPDEST PUSH2 0xAE8 DUP7 DUP7 DUP7 PUSH2 0x109E JUMP JUMPDEST PUSH2 0xB37 DUP7 DUP7 DUP7 DUP7 DUP7 DUP1 DUP1 PUSH1 0x1F ADD PUSH1 0x20 DUP1 SWAP2 DIV MUL PUSH1 0x20 ADD PUSH1 0x40 MLOAD SWAP1 DUP2 ADD PUSH1 0x40 MSTORE DUP1 SWAP4 SWAP3 SWAP2 SWAP1 DUP2 DUP2 MSTORE PUSH1 0x20 ADD DUP4 DUP4 DUP1 DUP3 DUP5 CALLDATACOPY PUSH0 DUP2 DUP5 ADD MSTORE PUSH1 0x1F NOT PUSH1 0x1F DUP3 ADD AND SWAP1 POP DUP1 DUP4 ADD SWAP3 POP POP POP POP POP POP POP PUSH2 0x147C JUMP JUMPDEST POP POP POP POP POP POP JUMP JUMPDEST PUSH1 0x6 SLOAD DUP2 JUMP JUMPDEST DUP1 PUSH1 0x5 PUSH0 CALLER PUSH20 0xFFFFFFFFFFFFFFFFFFFFFFFFFFFFFFFFFFFFFFFF AND PUSH20 0xFFFFFFFFFFFFFFFFFFFFFFFFFFFFFFFFFFFFFFFF AND DUP2 MSTORE PUSH1 0x20 ADD SWAP1 DUP2 MSTORE PUSH1 0x20 ADD PUSH0 KECCAK256 PUSH0 DUP5 PUSH20 0xFFFFFFFFFFFFFFFFFFFFFFFFFFFFFFFFFFFFFFFF AND PUSH20 0xFFFFFFFFFFFFFFFFFFFFFFFFFFFFFFFFFFFFFFFF AND DUP2 MSTORE PUSH1 0x20 ADD SWAP1 DUP2 MSTORE PUSH1 0x20 ADD PUSH0 KECCAK256 PUSH0 PUSH2 0x100 EXP DUP2 SLOAD DUP2 PUSH1 0xFF MUL NOT AND SWAP1 DUP4 ISZERO ISZERO MUL OR SWAP1 SSTORE POP DUP1 ISZERO ISZERO DUP3 PUSH20 0xFFFFFFFFFFFFFFFFFFFFFFFFFFFFFFFFFFFFFFFF AND CALLER PUSH20 0xFFFFFFFFFFFFFFFFFFFFFFFFFFFFFFFFFFFFFFFF AND PUSH32 0x17307EAB39AB6107E8899845AD3D59BD9653F200F220920489CA2B5937696C31 PUSH1 0x40 MLOAD PUSH1 0x40 MLOAD DUP1 SWAP2 SUB SWAP1 LOG4 POP POP JUMP JUMPDEST PUSH1 0x60 PUSH0 PUSH20 0xFFFFFFFFFFFFFFFFFFFFFFFFFFFFFFFFFFFFFFFF AND PUSH1 0x2 PUSH0 DUP5 DUP2 MSTORE PUSH1 0x20 ADD SWAP1 DUP2 MSTORE PUSH1 0x20 ADD PUSH0 KECCAK256 PUSH0 SWAP1 SLOAD SWAP1 PUSH2 0x100 EXP SWAP1 DIV PUSH20 0xFFFFFFFFFFFFFFFFFFFFFFFFFFFFFFFFFFFFFFFF AND PUSH20 0xFFFFFFFFFFFFFFFFFFFFFFFFFFFFFFFFFFFFFFFF AND SUB PUSH2 0xCD5 JUMPI PUSH1 0x40 MLOAD PUSH32 0x8C379A000000000000000000000000000000000000000000000000000000000 DUP2 MSTORE PUSH1 0x4 ADD PUSH2 0xCCC SWAP1 PUSH2 0x1E74 JUMP JUMPDEST PUSH1 0x40 MLOAD DUP1 SWAP2 SUB SWAP1 REVERT JUMPDEST PUSH0 PUSH2 0xCDE PUSH2 0x1627 JUMP JUMPDEST SWAP1 POP PUSH0 DUP2 MLOAD GT PUSH2 0xCFC JUMPI PUSH1 0x40 MLOAD DUP1 PUSH1 0x20 ADD PUSH1 0x40 MSTORE DUP1 PUSH0 DUP2 MSTORE POP PUSH2 0xD27 JUMP JUMPDEST DUP1 PUSH2 0xD06 DUP5 PUSH2 0x1647 JUMP JUMPDEST PUSH1 0x40 MLOAD PUSH1 0x20 ADD PUSH2 0xD17 SWAP3 SWAP2 SWAP1 PUSH2 0x1ECC JUMP JUMPDEST PUSH1 0x40 MLOAD PUSH1 0x20 DUP2 DUP4 SUB SUB DUP2 MSTORE SWAP1 PUSH1 0x40 MSTORE JUMPDEST SWAP2 POP POP SWAP2 SWAP1 POP JUMP JUMPDEST PUSH1 0x5 PUSH1 0x20 MSTORE DUP2 PUSH0 MSTORE PUSH1 0x40 PUSH0 KECCAK256 PUSH1 0x20 MSTORE DUP1 PUSH0 MSTORE PUSH1 0x40 PUSH0 KECCAK256 PUSH0 SWAP2 POP SWAP2 POP SWAP1 SLOAD SWAP1 PUSH2 0x100 EXP SWAP1 DIV PUSH1 0xFF AND DUP2 JUMP JUMPDEST PUSH0 PUSH1 0x2 PUSH0 DUP5 DUP2 MSTORE PUSH1 0x20 ADD SWAP1 DUP2 MSTORE PUSH1 0x20 ADD PUSH0 KECCAK256 PUSH0 SWAP1 SLOAD SWAP1 PUSH2 0x100 EXP SWAP1 DIV PUSH20 0xFFFFFFFFFFFFFFFFFFFFFFFFFFFFFFFFFFFFFFFF AND SWAP1 POP CALLER PUSH20 0xFFFFFFFFFFFFFFFFFFFFFFFFFFFFFFFFFFFFFFFF AND DUP2 PUSH20 0xFFFFFFFFFFFFFFFFFFFFFFFFFFFFFFFFFFFFFFFF AND EQ DUP1 PUSH2 0xE48 JUMPI POP PUSH1 0x5 PUSH0 DUP3 PUSH20 0xFFFFFFFFFFFFFFFFFFFFFFFFFFFFFFFFFFFFFFFF AND PUSH20 0xFFFFFFFFFFFFFFFFFFFFFFFFFFFFFFFFFFFFFFFF AND DUP2 MSTORE PUSH1 0x20 ADD SWAP1 DUP2 MSTORE PUSH1 0x20 ADD PUSH0 KECCAK256 PUSH0 DUP4 PUSH20 0xFFFFFFFFFFFFFFFFFFFFFFFFFFFFFFFFFFFFFFFF AND PUSH20 0xFFFFFFFFFFFFFFFFFFFFFFFFFFFFFFFFFFFFFFFF AND DUP2 MSTORE PUSH1 0x20 ADD SWAP1 DUP2 MSTORE PUSH1 0x20 ADD PUSH0 KECCAK256 PUSH0 SWAP1 SLOAD SWAP1 PUSH2 0x100 EXP SWAP1 DIV PUSH1 0xFF AND JUMPDEST PUSH2 0xE87 JUMPI PUSH1 0x40 MLOAD PUSH32 0x8C379A000000000000000000000000000000000000000000000000000000000 DUP2 MSTORE PUSH1 0x4 ADD PUSH2 0xE7E SWAP1 PUSH2 0x1DA4 JUMP JUMPDEST PUSH1 0x40 MLOAD DUP1 SWAP2 SUB SWAP1 REVERT JUMPDEST DUP2 PUSH1 0x4 PUSH0 DUP6 DUP2 MSTORE PUSH1 0x20 ADD SWAP1 DUP2 MSTORE PUSH1 0x20 ADD PUSH0 KECCAK256 PUSH0 PUSH2 0x100 EXP DUP2 SLOAD DUP2 PUSH20 0xFFFFFFFFFFFFFFFFFFFFFFFFFFFFFFFFFFFFFFFF MUL NOT AND SWAP1 DUP4 PUSH20 0xFFFFFFFFFFFFFFFFFFFFFFFFFFFFFFFFFFFFFFFF AND MUL OR SWAP1 SSTORE POP PUSH2 0xEE1 DUP2 DUP4 DUP6 PUSH2 0x17A0 JUMP JUMPDEST POP POP POP JUMP JUMPDEST PUSH0 PUSH1 0x5 PUSH0 CALLER PUSH20 0xFFFFFFFFFFFFFFFFFFFFFFFFFFFFFFFFFFFFFFFF AND PUSH20 0xFFFFFFFFFFFFFFFFFFFFFFFFFFFFFFFFFFFFFFFF AND DUP2 MSTORE PUSH1 0x20 ADD SWAP1 DUP2 MSTORE PUSH1 0x20 ADD PUSH0 KECCAK256 PUSH0 DUP4 PUSH20 0xFFFFFFFFFFFFFFFFFFFFFFFFFFFFFFFFFFFFFFFF AND PUSH20 0xFFFFFFFFFFFFFFFFFFFFFFFFFFFFFFFFFFFFFFFF AND DUP2 MSTORE PUSH1 0x20 ADD SWAP1 DUP2 MSTORE PUSH1 0x20 ADD PUSH0 KECCAK256 PUSH0 SWAP1 SLOAD SWAP1 PUSH2 0x100 EXP SWAP1 DIV PUSH1 0xFF AND SWAP1 POP SWAP2 SWAP1 POP JUMP JUMPDEST PUSH0 DUP4 PUSH20 0xFFFFFFFFFFFFFFFFFFFFFFFFFFFFFFFFFFFFFFFF AND DUP4 PUSH20 0xFFFFFFFFFFFFFFFFFFFFFFFFFFFFFFFFFFFFFFFF AND EQ DUP1 PUSH2 0x1009 JUMPI POP DUP3 PUSH20 0xFFFFFFFFFFFFFFFFFFFFFFFFFFFFFFFFFFFFFFFF AND PUSH1 0x4 PUSH0 DUP5 DUP2 MSTORE PUSH1 0x20 ADD SWAP1 DUP2 MSTORE PUSH1 0x20 ADD PUSH0 KECCAK256 PUSH0 SWAP1 SLOAD SWAP1 PUSH2 0x100 EXP SWAP1 DIV PUSH20 0xFFFFFFFFFFFFFFFFFFFFFFFFFFFFFFFFFFFFFFFF AND PUSH20 0xFFFFFFFFFFFFFFFFFFFFFFFFFFFFFFFFFFFFFFFF AND EQ JUMPDEST DUP1 PUSH2 0x1095 JUMPI POP PUSH1 0x5 PUSH0 DUP6 PUSH20 0xFFFFFFFFFFFFFFFFFFFFFFFFFFFFFFFFFFFFFFFF AND PUSH20 0xFFFFFFFFFFFFFFFFFFFFFFFFFFFFFFFFFFFFFFFF AND DUP2 MSTORE PUSH1 0x20 ADD SWAP1 DUP2 MSTORE PUSH1 0x20 ADD PUSH0 KECCAK256 PUSH0 DUP5 PUSH20 0xFFFFFFFFFFFFFFFFFFFFFFFFFFFFFFFFFFFFFFFF AND PUSH20 0xFFFFFFFFFFFFFFFFFFFFFFFFFFFFFFFFFFFFFFFF AND DUP2 MSTORE PUSH1 0x20 ADD SWAP1 DUP2 MSTORE PUSH1 0x20 ADD PUSH0 KECCAK256 PUSH0 SWAP1 SLOAD SWAP1 PUSH2 0x100 EXP SWAP1 DIV PUSH1 0xFF AND JUMPDEST SWAP1 POP SWAP4 SWAP3 POP POP POP JUMP JUMPDEST PUSH0 PUSH20 0xFFFFFFFFFFFFFFFFFFFFFFFFFFFFFFFFFFFFFFFF AND DUP3 PUSH20 0xFFFFFFFFFFFFFFFFFFFFFFFFFFFFFFFFFFFFFFFF AND SUB PUSH2 0x110C JUMPI PUSH1 0x40 MLOAD PUSH32 0x8C379A000000000000000000000000000000000000000000000000000000000 DUP2 MSTORE PUSH1 0x4 ADD PUSH2 0x1103 SWAP1 PUSH2 0x1DA4 JUMP JUMPDEST PUSH1 0x40 MLOAD DUP1 SWAP2 SUB SWAP1 REVERT JUMPDEST PUSH2 0x1117 DUP4 PUSH0 DUP4 PUSH2 0x17A0 JUMP JUMPDEST DUP2 PUSH1 0x2 PUSH0 DUP4 DUP2 MSTORE PUSH1 0x20 ADD SWAP1 DUP2 MSTORE PUSH1 0x20 ADD PUSH0 KECCAK256 PUSH0 PUSH2 0x100 EXP DUP2 SLOAD DUP2 PUSH20 0xFFFFFFFFFFFFFFFFFFFFFFFFFFFFFFFFFFFFFFFF MUL NOT AND SWAP1 DUP4 PUSH20 0xFFFFFFFFFFFFFFFFFFFFFFFFFFFFFFFFFFFFFFFF AND MUL OR SWAP1 SSTORE POP PUSH1 0x1 PUSH1 0x3 PUSH0 DUP6 PUSH20 0xFFFFFFFFFFFFFFFFFFFFFFFFFFFFFFFFFFFFFFFF AND PUSH20 0xFFFFFFFFFFFFFFFFFFFFFFFFFFFFFFFFFFFFFFFF AND DUP2 MSTORE PUSH1 0x20 ADD SWAP1 DUP2 MSTORE PUSH1 0x20 ADD PUSH0 KECCAK256 PUSH0 DUP3 DUP3 SLOAD PUSH2 0x11B3 SWAP2 SWAP1 PUSH2 0x1F1C JUMP JUMPDEST SWAP3 POP POP DUP2 SWAP1 SSTORE POP PUSH1 0x1 PUSH1 0x3 PUSH0 DUP5 PUSH20 0xFFFFFFFFFFFFFFFFFFFFFFFFFFFFFFFFFFFFFFFF AND PUSH20 0xFFFFFFFFFFFFFFFFFFFFFFFFFFFFFFFFFFFFFFFF AND DUP2 MSTORE PUSH1 0x20 ADD SWAP1 DUP2 MSTORE PUSH1 0x20 ADD PUSH0 KECCAK256 PUSH0 DUP3 DUP3 SLOAD PUSH2 0x1207 SWAP2 SWAP1 PUSH2 0x1F1C JUMP JUMPDEST SWAP3 POP POP DUP2 SWAP1 SSTORE POP DUP1 DUP3 PUSH20 0xFFFFFFFFFFFFFFFFFFFFFFFFFFFFFFFFFFFFFFFF AND DUP5 PUSH20 0xFFFFFFFFFFFFFFFFFFFFFFFFFFFFFFFFFFFFFFFF AND PUSH32 0xDDF252AD1BE2C89B69C2B068FC378DAA952BA7F163C4A11628F55A4DF523B3EF PUSH1 0x40 MLOAD PUSH1 0x40 MLOAD DUP1 SWAP2 SUB SWAP1 LOG4 POP POP POP JUMP JUMPDEST PUSH0 PUSH20 0xFFFFFFFFFFFFFFFFFFFFFFFFFFFFFFFFFFFFFFFF AND DUP3 PUSH20 0xFFFFFFFFFFFFFFFFFFFFFFFFFFFFFFFFFFFFFFFF AND SUB PUSH2 0x12DC JUMPI PUSH1 0x40 MLOAD PUSH32 0x8C379A000000000000000000000000000000000000000000000000000000000 DUP2 MSTORE PUSH1 0x4 ADD PUSH2 0x12D3 SWAP1 PUSH2 0x1F99 JUMP JUMPDEST PUSH1 0x40 MLOAD DUP1 SWAP2 SUB SWAP1 REVERT JUMPDEST PUSH0 PUSH20 0xFFFFFFFFFFFFFFFFFFFFFFFFFFFFFFFFFFFFFFFF AND PUSH1 0x2 PUSH0 DUP4 DUP2 MSTORE PUSH1 0x20 ADD SWAP1 DUP2 MSTORE PUSH1 0x20 ADD PUSH0 KECCAK256 PUSH0 SWAP1 SLOAD SWAP1 PUSH2 0x100 EXP SWAP1 DIV PUSH20 0xFFFFFFFFFFFFFFFFFFFFFFFFFFFFFFFFFFFFFFFF AND PUSH20 0xFFFFFFFFFFFFFFFFFFFFFFFFFFFFFFFFFFFFFFFF AND EQ PUSH2 0x137A JUMPI PUSH1 0x40 MLOAD PUSH32 0x8C379A000000000000000000000000000000000000000000000000000000000 DUP2 MSTORE PUSH1 0x4 ADD PUSH2 0x1371 SWAP1 PUSH2 0x2001 JUMP JUMPDEST PUSH1 0x40 MLOAD DUP1 SWAP2 SUB SWAP1 REVERT JUMPDEST PUSH1 0x1 PUSH1 0x3 PUSH0 DUP5 PUSH20 0xFFFFFFFFFFFFFFFFFFFFFFFFFFFFFFFFFFFFFFFF AND PUSH20 0xFFFFFFFFFFFFFFFFFFFFFFFFFFFFFFFFFFFFFFFF AND DUP2 MSTORE PUSH1 0x20 ADD SWAP1 DUP2 MSTORE PUSH1 0x20 ADD PUSH0 KECCAK256 PUSH0 DUP3 DUP3 SLOAD PUSH2 0x13C7 SWAP2 SWAP1 PUSH2 0x201F JUMP JUMPDEST SWAP3 POP POP DUP2 SWAP1 SSTORE POP DUP2 PUSH1 0x2 PUSH0 DUP4 DUP2 MSTORE PUSH1 0x20 ADD SWAP1 DUP2 MSTORE PUSH1 0x20 ADD PUSH0 KECCAK256 PUSH0 PUSH2 0x100 EXP DUP2 SLOAD DUP2 PUSH20 0xFFFFFFFFFFFFFFFFFFFFFFFFFFFFFFFFFFFFFFFF MUL NOT AND SWAP1 DUP4 PUSH20 0xFFFFFFFFFFFFFFFFFFFFFFFFFFFFFFFFFFFFFFFF AND MUL OR SWAP1 SSTORE POP DUP1 DUP3 PUSH20 0xFFFFFFFFFFFFFFFFFFFFFFFFFFFFFFFFFFFFFFFF AND PUSH0 PUSH20 0xFFFFFFFFFFFFFFFFFFFFFFFFFFFFFFFFFFFFFFFF AND PUSH32 0xDDF252AD1BE2C89B69C2B068FC378DAA952BA7F163C4A11628F55A4DF523B3EF PUSH1 0x40 MLOAD PUSH1 0x40 MLOAD DUP1 SWAP2 SUB SWAP1 LOG4 POP POP JUMP JUMPDEST PUSH0 DUP4 PUSH20 0xFFFFFFFFFFFFFFFFFFFFFFFFFFFFFFFFFFFFFFFF AND EXTCODESIZE GT ISZERO PUSH2 0x1621 JUMPI DUP3 PUSH20 0xFFFFFFFFFFFFFFFFFFFFFFFFFFFFFFFFFFFFFFFF AND PUSH4 0x150B7A02 CALLER DUP7 DUP6 DUP6 PUSH1 0x40 MLOAD DUP6 PUSH4 0xFFFFFFFF AND PUSH1 0xE0 SHL DUP2 MSTORE PUSH1 0x4 ADD PUSH2 0x14DA SWAP5 SWAP4 SWAP3 SWAP2 SWAP1 PUSH2 0x20A4 JUMP JUMPDEST PUSH1 0x20 PUSH1 0x40 MLOAD DUP1 DUP4 SUB DUP2 PUSH0 DUP8 GAS CALL SWAP3 POP POP POP DUP1 ISZERO PUSH2 0x1515 JUMPI POP PUSH1 0x40 MLOAD RETURNDATASIZE PUSH1 0x1F NOT PUSH1 0x1F DUP3 ADD AND DUP3 ADD DUP1 PUSH1 0x40 MSTORE POP DUP2 ADD SWAP1 PUSH2 0x1512 SWAP2 SWAP1 PUSH2 0x2102 JUMP JUMPDEST PUSH1 0x1 JUMPDEST PUSH2 0x1596 JUMPI RETURNDATASIZE DUP1 PUSH0 DUP2 EQ PUSH2 0x1543 JUMPI PUSH1 0x40 MLOAD SWAP2 POP PUSH1 0x1F NOT PUSH1 0x3F RETURNDATASIZE ADD AND DUP3 ADD PUSH1 0x40 MSTORE RETURNDATASIZE DUP3 MSTORE RETURNDATASIZE PUSH0 PUSH1 0x20 DUP5 ADD RETURNDATACOPY PUSH2 0x1548 JUMP JUMPDEST PUSH1 0x60 SWAP2 POP JUMPDEST POP PUSH0 DUP2 MLOAD SUB PUSH2 0x158E JUMPI DUP4 PUSH1 0x40 MLOAD PUSH32 0xF9ECAB6200000000000000000000000000000000000000000000000000000000 DUP2 MSTORE PUSH1 0x4 ADD PUSH2 0x1585 SWAP2 SWAP1 PUSH2 0x1A37 JUMP JUMPDEST PUSH1 0x40 MLOAD DUP1 SWAP2 SUB SWAP1 REVERT JUMPDEST DUP1 MLOAD DUP2 PUSH1 0x20 ADD REVERT JUMPDEST PUSH4 0x150B7A02 PUSH1 0xE0 SHL PUSH28 0xFFFFFFFFFFFFFFFFFFFFFFFFFFFFFFFFFFFFFFFFFFFFFFFFFFFFFFFF NOT AND DUP2 PUSH28 0xFFFFFFFFFFFFFFFFFFFFFFFFFFFFFFFFFFFFFFFFFFFFFFFFFFFFFFFF NOT AND EQ PUSH2 0x161F JUMPI DUP4 PUSH1 0x40 MLOAD PUSH32 0xF9ECAB6200000000000000000000000000000000000000000000000000000000 DUP2 MSTORE PUSH1 0x4 ADD PUSH2 0x1616 SWAP2 SWAP1 PUSH2 0x1A37 JUMP JUMPDEST PUSH1 0x40 MLOAD DUP1 SWAP2 SUB SWAP1 REVERT JUMPDEST POP JUMPDEST POP POP POP POP JUMP JUMPDEST PUSH1 0x60 PUSH1 0x40 MLOAD DUP1 PUSH1 0x60 ADD PUSH1 0x40 MSTORE DUP1 PUSH1 0x36 DUP2 MSTORE PUSH1 0x20 ADD PUSH2 0x225C PUSH1 0x36 SWAP2 CODECOPY SWAP1 POP SWAP1 JUMP JUMPDEST PUSH1 0x60 PUSH0 DUP3 SUB PUSH2 0x168D JUMPI PUSH1 0x40 MLOAD DUP1 PUSH1 0x40 ADD PUSH1 0x40 MSTORE DUP1 PUSH1 0x1 DUP2 MSTORE PUSH1 0x20 ADD PUSH32 0x3000000000000000000000000000000000000000000000000000000000000000 DUP2 MSTORE POP SWAP1 POP PUSH2 0x179B JUMP JUMPDEST PUSH0 DUP3 SWAP1 POP PUSH0 JUMPDEST PUSH0 DUP3 EQ PUSH2 0x16BC JUMPI DUP1 DUP1 PUSH2 0x16A5 SWAP1 PUSH2 0x212D JUMP JUMPDEST SWAP2 POP POP PUSH1 0xA DUP3 PUSH2 0x16B5 SWAP2 SWAP1 PUSH2 0x21A1 JUMP JUMPDEST SWAP2 POP PUSH2 0x1693 JUMP JUMPDEST PUSH0 DUP2 PUSH8 0xFFFFFFFFFFFFFFFF DUP2 GT ISZERO PUSH2 0x16D7 JUMPI PUSH2 0x16D6 PUSH2 0x21D1 JUMP JUMPDEST JUMPDEST PUSH1 0x40 MLOAD SWAP1 DUP1 DUP3 MSTORE DUP1 PUSH1 0x1F ADD PUSH1 0x1F NOT AND PUSH1 0x20 ADD DUP3 ADD PUSH1 0x40 MSTORE DUP1 ISZERO PUSH2 0x1709 JUMPI DUP2 PUSH1 0x20 ADD PUSH1 0x1 DUP3 MUL DUP1 CALLDATASIZE DUP4 CALLDATACOPY DUP1 DUP3 ADD SWAP2 POP POP SWAP1 POP JUMPDEST POP SWAP1 POP JUMPDEST PUSH0 DUP6 EQ PUSH2 0x1794 JUMPI PUSH1 0x1 DUP3 PUSH2 0x1721 SWAP2 SWAP1 PUSH2 0x1F1C JUMP JUMPDEST SWAP2 POP PUSH1 0xA DUP6 PUSH2 0x1730 SWAP2 SWAP1 PUSH2 0x21FE JUMP JUMPDEST PUSH1 0x30 PUSH2 0x173C SWAP2 SWAP1 PUSH2 0x201F JUMP JUMPDEST PUSH1 0xF8 SHL DUP2 DUP4 DUP2 MLOAD DUP2 LT PUSH2 0x1752 JUMPI PUSH2 0x1751 PUSH2 0x222E JUMP JUMPDEST JUMPDEST PUSH1 0x20 ADD ADD SWAP1 PUSH31 0xFFFFFFFFFFFFFFFFFFFFFFFFFFFFFFFFFFFFFFFFFFFFFFFFFFFFFFFFFFFFFF NOT AND SWAP1 DUP2 PUSH0 BYTE SWAP1 MSTORE8 POP PUSH1 0xA DUP6 PUSH2 0x178D SWAP2 SWAP1 PUSH2 0x21A1 JUMP JUMPDEST SWAP5 POP PUSH2 0x170D JUMP JUMPDEST DUP1 SWAP4 POP POP POP POP JUMPDEST SWAP2 SWAP1 POP JUMP JUMPDEST DUP2 PUSH1 0x4 PUSH0 DUP4 DUP2 MSTORE PUSH1 0x20 ADD SWAP1 DUP2 MSTORE PUSH1 0x20 ADD PUSH0 KECCAK256 PUSH0 PUSH2 0x100 EXP DUP2 SLOAD DUP2 PUSH20 0xFFFFFFFFFFFFFFFFFFFFFFFFFFFFFFFFFFFFFFFF MUL NOT AND SWAP1 DUP4 PUSH20 0xFFFFFFFFFFFFFFFFFFFFFFFFFFFFFFFFFFFFFFFF AND MUL OR SWAP1 SSTORE POP DUP1 DUP3 PUSH20 0xFFFFFFFFFFFFFFFFFFFFFFFFFFFFFFFFFFFFFFFF AND DUP5 PUSH20 0xFFFFFFFFFFFFFFFFFFFFFFFFFFFFFFFFFFFFFFFF AND PUSH32 0x8C5BE1E5EBEC7D5BD14F71427D1E84F3DD0314C0F7B2291E5B200AC8C7C3B925 PUSH1 0x40 MLOAD PUSH1 0x40 MLOAD DUP1 SWAP2 SUB SWAP1 LOG4 POP POP POP JUMP JUMPDEST PUSH0 PUSH0 REVERT JUMPDEST PUSH0 PUSH0 REVERT JUMPDEST PUSH0 PUSH32 0xFFFFFFFF00000000000000000000000000000000000000000000000000000000 DUP3 AND SWAP1 POP SWAP2 SWAP1 POP JUMP JUMPDEST PUSH2 0x188B DUP2 PUSH2 0x1857 JUMP JUMPDEST DUP2 EQ PUSH2 0x1895 JUMPI PUSH0 PUSH0 REVERT JUMPDEST POP JUMP JUMPDEST PUSH0 DUP2 CALLDATALOAD SWAP1 POP PUSH2 0x18A6 DUP2 PUSH2 0x1882 JUMP JUMPDEST SWAP3 SWAP2 POP POP JUMP JUMPDEST PUSH0 PUSH1 0x20 DUP3 DUP5 SUB SLT ISZERO PUSH2 0x18C1 JUMPI PUSH2 0x18C0 PUSH2 0x184F JUMP JUMPDEST JUMPDEST PUSH0 PUSH2 0x18CE DUP5 DUP3 DUP6 ADD PUSH2 0x1898 JUMP JUMPDEST SWAP2 POP POP SWAP3 SWAP2 POP POP JUMP JUMPDEST PUSH0 DUP2 ISZERO ISZERO SWAP1 POP SWAP2 SWAP1 POP JUMP JUMPDEST PUSH2 0x18EB DUP2 PUSH2 0x18D7 JUMP JUMPDEST DUP3 MSTORE POP POP JUMP JUMPDEST PUSH0 PUSH1 0x20 DUP3 ADD SWAP1 POP PUSH2 0x1904 PUSH0 DUP4 ADD DUP5 PUSH2 0x18E2 JUMP JUMPDEST SWAP3 SWAP2 POP POP JUMP JUMPDEST PUSH0 DUP2 MLOAD SWAP1 POP SWAP2 SWAP1 POP JUMP JUMPDEST PUSH0 DUP3 DUP3 MSTORE PUSH1 0x20 DUP3 ADD SWAP1 POP SWAP3 SWAP2 POP POP JUMP JUMPDEST DUP3 DUP2 DUP4 MCOPY PUSH0 DUP4 DUP4 ADD MSTORE POP POP POP JUMP JUMPDEST PUSH0 PUSH1 0x1F NOT PUSH1 0x1F DUP4 ADD AND SWAP1 POP SWAP2 SWAP1 POP JUMP JUMPDEST PUSH0 PUSH2 0x194C DUP3 PUSH2 0x190A JUMP JUMPDEST PUSH2 0x1956 DUP2 DUP6 PUSH2 0x1914 JUMP JUMPDEST SWAP4 POP PUSH2 0x1966 DUP2 DUP6 PUSH1 0x20 DUP7 ADD PUSH2 0x1924 JUMP JUMPDEST PUSH2 0x196F DUP2 PUSH2 0x1932 JUMP JUMPDEST DUP5 ADD SWAP2 POP POP SWAP3 SWAP2 POP POP JUMP JUMPDEST PUSH0 PUSH1 0x20 DUP3 ADD SWAP1 POP DUP2 DUP2 SUB PUSH0 DUP4 ADD MSTORE PUSH2 0x1992 DUP2 DUP5 PUSH2 0x1942 JUMP JUMPDEST SWAP1 POP SWAP3 SWAP2 POP POP JUMP JUMPDEST PUSH0 DUP2 SWAP1 POP SWAP2 SWAP1 POP JUMP JUMPDEST PUSH2 0x19AC DUP2 PUSH2 0x199A JUMP JUMPDEST DUP2 EQ PUSH2 0x19B6 JUMPI PUSH0 PUSH0 REVERT JUMPDEST POP JUMP JUMPDEST PUSH0 DUP2 CALLDATALOAD SWAP1 POP PUSH2 0x19C7 DUP2 PUSH2 0x19A3 JUMP JUMPDEST SWAP3 SWAP2 POP POP JUMP JUMPDEST PUSH0 PUSH1 0x20 DUP3 DUP5 SUB SLT ISZERO PUSH2 0x19E2 JUMPI PUSH2 0x19E1 PUSH2 0x184F JUMP JUMPDEST JUMPDEST PUSH0 PUSH2 0x19EF DUP5 DUP3 DUP6 ADD PUSH2 0x19B9 JUMP JUMPDEST SWAP2 POP POP SWAP3 SWAP2 POP POP JUMP JUMPDEST PUSH0 PUSH20 0xFFFFFFFFFFFFFFFFFFFFFFFFFFFFFFFFFFFFFFFF DUP3 AND SWAP1 POP SWAP2 SWAP1 POP JUMP JUMPDEST PUSH0 PUSH2 0x1A21 DUP3 PUSH2 0x19F8 JUMP JUMPDEST SWAP1 POP SWAP2 SWAP1 POP JUMP JUMPDEST PUSH2 0x1A31 DUP2 PUSH2 0x1A17 JUMP JUMPDEST DUP3 MSTORE POP POP JUMP JUMPDEST PUSH0 PUSH1 0x20 DUP3 ADD SWAP1 POP PUSH2 0x1A4A PUSH0 DUP4 ADD DUP5 PUSH2 0x1A28 JUMP JUMPDEST SWAP3 SWAP2 POP POP JUMP JUMPDEST PUSH2 0x1A59 DUP2 PUSH2 0x1A17 JUMP JUMPDEST DUP2 EQ PUSH2 0x1A63 JUMPI PUSH0 PUSH0 REVERT JUMPDEST POP JUMP JUMPDEST PUSH0 DUP2 CALLDATALOAD SWAP1 POP PUSH2 0x1A74 DUP2 PUSH2 0x1A50 JUMP JUMPDEST SWAP3 SWAP2 POP POP JUMP JUMPDEST PUSH0 PUSH0 PUSH0 PUSH1 0x60 DUP5 DUP7 SUB SLT ISZERO PUSH2 0x1A91 JUMPI PUSH2 0x1A90 PUSH2 0x184F JUMP JUMPDEST JUMPDEST PUSH0 PUSH2 0x1A9E DUP7 DUP3 DUP8 ADD PUSH2 0x1A66 JUMP JUMPDEST SWAP4 POP POP PUSH1 0x20 PUSH2 0x1AAF DUP7 DUP3 DUP8 ADD PUSH2 0x1A66 JUMP JUMPDEST SWAP3 POP POP PUSH1 0x40 PUSH2 0x1AC0 DUP7 DUP3 DUP8 ADD PUSH2 0x19B9 JUMP JUMPDEST SWAP2 POP POP SWAP3 POP SWAP3 POP SWAP3 JUMP JUMPDEST PUSH0 PUSH0 PUSH1 0x40 DUP4 DUP6 SUB SLT ISZERO PUSH2 0x1AE0 JUMPI PUSH2 0x1ADF PUSH2 0x184F JUMP JUMPDEST JUMPDEST PUSH0 PUSH2 0x1AED DUP6 DUP3 DUP7 ADD PUSH2 0x1A66 JUMP JUMPDEST SWAP3 POP POP PUSH1 0x20 PUSH2 0x1AFE DUP6 DUP3 DUP7 ADD PUSH2 0x19B9 JUMP JUMPDEST SWAP2 POP POP SWAP3 POP SWAP3 SWAP1 POP JUMP JUMPDEST PUSH0 PUSH1 0x20 DUP3 DUP5 SUB SLT ISZERO PUSH2 0x1B1D JUMPI PUSH2 0x1B1C PUSH2 0x184F JUMP JUMPDEST JUMPDEST PUSH0 PUSH2 0x1B2A DUP5 DUP3 DUP6 ADD PUSH2 0x1A66 JUMP JUMPDEST SWAP2 POP POP SWAP3 SWAP2 POP POP JUMP JUMPDEST PUSH2 0x1B3C DUP2 PUSH2 0x199A JUMP JUMPDEST DUP3 MSTORE POP POP JUMP JUMPDEST PUSH0 PUSH1 0x20 DUP3 ADD SWAP1 POP PUSH2 0x1B55 PUSH0 DUP4 ADD DUP5 PUSH2 0x1B33 JUMP JUMPDEST SWAP3 SWAP2 POP POP JUMP JUMPDEST PUSH0 PUSH0 REVERT JUMPDEST PUSH0 PUSH0 REVERT JUMPDEST PUSH0 PUSH0 REVERT JUMPDEST PUSH0 PUSH0 DUP4 PUSH1 0x1F DUP5 ADD SLT PUSH2 0x1B7C JUMPI PUSH2 0x1B7B PUSH2 0x1B5B JUMP JUMPDEST JUMPDEST DUP3 CALLDATALOAD SWAP1 POP PUSH8 0xFFFFFFFFFFFFFFFF DUP2 GT ISZERO PUSH2 0x1B99 JUMPI PUSH2 0x1B98 PUSH2 0x1B5F JUMP JUMPDEST JUMPDEST PUSH1 0x20 DUP4 ADD SWAP2 POP DUP4 PUSH1 0x1 DUP3 MUL DUP4 ADD GT ISZERO PUSH2 0x1BB5 JUMPI PUSH2 0x1BB4 PUSH2 0x1B63 JUMP JUMPDEST JUMPDEST SWAP3 POP SWAP3 SWAP1 POP JUMP JUMPDEST PUSH0 PUSH0 PUSH0 PUSH0 PUSH0 PUSH1 0x80 DUP7 DUP9 SUB SLT ISZERO PUSH2 0x1BD5 JUMPI PUSH2 0x1BD4 PUSH2 0x184F JUMP JUMPDEST JUMPDEST PUSH0 PUSH2 0x1BE2 DUP9 DUP3 DUP10 ADD PUSH2 0x1A66 JUMP JUMPDEST SWAP6 POP POP PUSH1 0x20 PUSH2 0x1BF3 DUP9 DUP3 DUP10 ADD PUSH2 0x1A66 JUMP JUMPDEST SWAP5 POP POP PUSH1 0x40 PUSH2 0x1C04 DUP9 DUP3 DUP10 ADD PUSH2 0x19B9 JUMP JUMPDEST SWAP4 POP POP PUSH1 0x60 DUP7 ADD CALLDATALOAD PUSH8 0xFFFFFFFFFFFFFFFF DUP2 GT ISZERO PUSH2 0x1C25 JUMPI PUSH2 0x1C24 PUSH2 0x1853 JUMP JUMPDEST JUMPDEST PUSH2 0x1C31 DUP9 DUP3 DUP10 ADD PUSH2 0x1B67 JUMP JUMPDEST SWAP3 POP SWAP3 POP POP SWAP3 SWAP6 POP SWAP3 SWAP6 SWAP1 SWAP4 POP JUMP JUMPDEST PUSH2 0x1C49 DUP2 PUSH2 0x18D7 JUMP JUMPDEST DUP2 EQ PUSH2 0x1C53 JUMPI PUSH0 PUSH0 REVERT JUMPDEST POP JUMP JUMPDEST PUSH0 DUP2 CALLDATALOAD SWAP1 POP PUSH2 0x1C64 DUP2 PUSH2 0x1C40 JUMP JUMPDEST SWAP3 SWAP2 POP POP JUMP JUMPDEST PUSH0 PUSH0 PUSH1 0x40 DUP4 DUP6 SUB SLT ISZERO PUSH2 0x1C80 JUMPI PUSH2 0x1C7F PUSH2 0x184F JUMP JUMPDEST JUMPDEST PUSH0 PUSH2 0x1C8D DUP6 DUP3 DUP7 ADD PUSH2 0x1A66 JUMP JUMPDEST SWAP3 POP POP PUSH1 0x20 PUSH2 0x1C9E DUP6 DUP3 DUP7 ADD PUSH2 0x1C56 JUMP JUMPDEST SWAP2 POP POP SWAP3 POP SWAP3 SWAP1 POP JUMP JUMPDEST PUSH0 PUSH0 PUSH1 0x40 DUP4 DUP6 SUB SLT ISZERO PUSH2 0x1CBE JUMPI PUSH2 0x1CBD PUSH2 0x184F JUMP JUMPDEST JUMPDEST PUSH0 PUSH2 0x1CCB DUP6 DUP3 DUP7 ADD PUSH2 0x1A66 JUMP JUMPDEST SWAP3 POP POP PUSH1 0x20 PUSH2 0x1CDC DUP6 DUP3 DUP7 ADD PUSH2 0x1A66 JUMP JUMPDEST SWAP2 POP POP SWAP3 POP SWAP3 SWAP1 POP JUMP JUMPDEST PUSH0 PUSH0 PUSH1 0x40 DUP4 DUP6 SUB SLT ISZERO PUSH2 0x1CFC JUMPI PUSH2 0x1CFB PUSH2 0x184F JUMP JUMPDEST JUMPDEST PUSH0 PUSH2 0x1D09 DUP6 DUP3 DUP7 ADD PUSH2 0x19B9 JUMP JUMPDEST SWAP3 POP POP PUSH1 0x20 PUSH2 0x1D1A DUP6 DUP3 DUP7 ADD PUSH2 0x1A66 JUMP JUMPDEST SWAP2 POP POP SWAP3 POP SWAP3 SWAP1 POP JUMP JUMPDEST PUSH32 0x4E487B7100000000000000000000000000000000000000000000000000000000 PUSH0 MSTORE PUSH1 0x22 PUSH1 0x4 MSTORE PUSH1 0x24 PUSH0 REVERT JUMPDEST PUSH0 PUSH1 0x2 DUP3 DIV SWAP1 POP PUSH1 0x1 DUP3 AND DUP1 PUSH2 0x1D68 JUMPI PUSH1 0x7F DUP3 AND SWAP2 POP JUMPDEST PUSH1 0x20 DUP3 LT DUP2 SUB PUSH2 0x1D7B JUMPI PUSH2 0x1D7A PUSH2 0x1D24 JUMP JUMPDEST JUMPDEST POP SWAP2 SWAP1 POP JUMP JUMPDEST POP JUMP JUMPDEST PUSH0 PUSH2 0x1D8F PUSH0 DUP4 PUSH2 0x1914 JUMP JUMPDEST SWAP2 POP PUSH2 0x1D9A DUP3 PUSH2 0x1D81 JUMP JUMPDEST PUSH0 DUP3 ADD SWAP1 POP SWAP2 SWAP1 POP JUMP JUMPDEST PUSH0 PUSH1 0x20 DUP3 ADD SWAP1 POP DUP2 DUP2 SUB PUSH0 DUP4 ADD MSTORE PUSH2 0x1DBB DUP2 PUSH2 0x1D84 JUMP JUMPDEST SWAP1 POP SWAP2 SWAP1 POP JUMP JUMPDEST PUSH32 0x746F6B656E4964206F7574206F662072616E6765000000000000000000000000 PUSH0 DUP3 ADD MSTORE POP JUMP JUMPDEST PUSH0 PUSH2 0x1DF6 PUSH1 0x14 DUP4 PUSH2 0x1914 JUMP JUMPDEST SWAP2 POP PUSH2 0x1E01 DUP3 PUSH2 0x1DC2 JUMP JUMPDEST PUSH1 0x20 DUP3 ADD SWAP1 POP SWAP2 SWAP1 POP JUMP JUMPDEST PUSH0 PUSH1 0x20 DUP3 ADD SWAP1 POP DUP2 DUP2 SUB PUSH0 DUP4 ADD MSTORE PUSH2 0x1E23 DUP2 PUSH2 0x1DEA JUMP JUMPDEST SWAP1 POP SWAP2 SWAP1 POP JUMP JUMPDEST PUSH32 0x546F6B656E204E6F742045786973740000000000000000000000000000000000 PUSH0 DUP3 ADD MSTORE POP JUMP JUMPDEST PUSH0 PUSH2 0x1E5E PUSH1 0xF DUP4 PUSH2 0x1914 JUMP JUMPDEST SWAP2 POP PUSH2 0x1E69 DUP3 PUSH2 0x1E2A JUMP JUMPDEST PUSH1 0x20 DUP3 ADD SWAP1 POP SWAP2 SWAP1 POP JUMP JUMPDEST PUSH0 PUSH1 0x20 DUP3 ADD SWAP1 POP DUP2 DUP2 SUB PUSH0 DUP4 ADD MSTORE PUSH2 0x1E8B DUP2 PUSH2 0x1E52 JUMP JUMPDEST SWAP1 POP SWAP2 SWAP1 POP JUMP JUMPDEST PUSH0 DUP2 SWAP1 POP SWAP3 SWAP2 POP POP JUMP JUMPDEST PUSH0 PUSH2 0x1EA6 DUP3 PUSH2 0x190A JUMP JUMPDEST PUSH2 0x1EB0 DUP2 DUP6 PUSH2 0x1E92 JUMP JUMPDEST SWAP4 POP PUSH2 0x1EC0 DUP2 DUP6 PUSH1 0x20 DUP7 ADD PUSH2 0x1924 JUMP JUMPDEST DUP1 DUP5 ADD SWAP2 POP POP SWAP3 SWAP2 POP POP JUMP JUMPDEST PUSH0 PUSH2 0x1ED7 DUP3 DUP6 PUSH2 0x1E9C JUMP JUMPDEST SWAP2 POP PUSH2 0x1EE3 DUP3 DUP5 PUSH2 0x1E9C JUMP JUMPDEST SWAP2 POP DUP2 SWAP1 POP SWAP4 SWAP3 POP POP POP JUMP JUMPDEST PUSH32 0x4E487B7100000000000000000000000000000000000000000000000000000000 PUSH0 MSTORE PUSH1 0x11 PUSH1 0x4 MSTORE PUSH1 0x24 PUSH0 REVERT JUMPDEST PUSH0 PUSH2 0x1F26 DUP3 PUSH2 0x199A JUMP JUMPDEST SWAP2 POP PUSH2 0x1F31 DUP4 PUSH2 0x199A JUMP JUMPDEST SWAP3 POP DUP3 DUP3 SUB SWAP1 POP DUP2 DUP2 GT ISZERO PUSH2 0x1F49 JUMPI PUSH2 0x1F48 PUSH2 0x1EEF JUMP JUMPDEST JUMPDEST SWAP3 SWAP2 POP POP JUMP JUMPDEST PUSH32 0x6D696E7420746F207A65726F2061646472657373000000000000000000000000 PUSH0 DUP3 ADD MSTORE POP JUMP JUMPDEST PUSH0 PUSH2 0x1F83 PUSH1 0x14 DUP4 PUSH2 0x1914 JUMP JUMPDEST SWAP2 POP PUSH2 0x1F8E DUP3 PUSH2 0x1F4F JUMP JUMPDEST PUSH1 0x20 DUP3 ADD SWAP1 POP SWAP2 SWAP1 POP JUMP JUMPDEST PUSH0 PUSH1 0x20 DUP3 ADD SWAP1 POP DUP2 DUP2 SUB PUSH0 DUP4 ADD MSTORE PUSH2 0x1FB0 DUP2 PUSH2 0x1F77 JUMP JUMPDEST SWAP1 POP SWAP2 SWAP1 POP JUMP JUMPDEST PUSH32 0x746F6B656E20616C7265616479206D696E746564000000000000000000000000 PUSH0 DUP3 ADD MSTORE POP JUMP JUMPDEST PUSH0 PUSH2 0x1FEB PUSH1 0x14 DUP4 PUSH2 0x1914 JUMP JUMPDEST SWAP2 POP PUSH2 0x1FF6 DUP3 PUSH2 0x1FB7 JUMP JUMPDEST PUSH1 0x20 DUP3 ADD SWAP1 POP SWAP2 SWAP1 POP JUMP JUMPDEST PUSH0 PUSH1 0x20 DUP3 ADD SWAP1 POP DUP2 DUP2 SUB PUSH0 DUP4 ADD MSTORE PUSH2 0x2018 DUP2 PUSH2 0x1FDF JUMP JUMPDEST SWAP1 POP SWAP2 SWAP1 POP JUMP JUMPDEST PUSH0 PUSH2 0x2029 DUP3 PUSH2 0x199A JUMP JUMPDEST SWAP2 POP PUSH2 0x2034 DUP4 PUSH2 0x199A JUMP JUMPDEST SWAP3 POP DUP3 DUP3 ADD SWAP1 POP DUP1 DUP3 GT ISZERO PUSH2 0x204C JUMPI PUSH2 0x204B PUSH2 0x1EEF JUMP JUMPDEST JUMPDEST SWAP3 SWAP2 POP POP JUMP JUMPDEST PUSH0 DUP2 MLOAD SWAP1 POP SWAP2 SWAP1 POP JUMP JUMPDEST PUSH0 DUP3 DUP3 MSTORE PUSH1 0x20 DUP3 ADD SWAP1 POP SWAP3 SWAP2 POP POP JUMP JUMPDEST PUSH0 PUSH2 0x2076 DUP3 PUSH2 0x2052 JUMP JUMPDEST PUSH2 0x2080 DUP2 DUP6 PUSH2 0x205C JUMP JUMPDEST SWAP4 POP PUSH2 0x2090 DUP2 DUP6 PUSH1 0x20 DUP7 ADD PUSH2 0x1924 JUMP JUMPDEST PUSH2 0x2099 DUP2 PUSH2 0x1932 JUMP JUMPDEST DUP5 ADD SWAP2 POP POP SWAP3 SWAP2 POP POP JUMP JUMPDEST PUSH0 PUSH1 0x80 DUP3 ADD SWAP1 POP PUSH2 0x20B7 PUSH0 DUP4 ADD DUP8 PUSH2 0x1A28 JUMP JUMPDEST PUSH2 0x20C4 PUSH1 0x20 DUP4 ADD DUP7 PUSH2 0x1A28 JUMP JUMPDEST PUSH2 0x20D1 PUSH1 0x40 DUP4 ADD DUP6 PUSH2 0x1B33 JUMP JUMPDEST DUP2 DUP2 SUB PUSH1 0x60 DUP4 ADD MSTORE PUSH2 0x20E3 DUP2 DUP5 PUSH2 0x206C JUMP JUMPDEST SWAP1 POP SWAP6 SWAP5 POP POP POP POP POP JUMP JUMPDEST PUSH0 DUP2 MLOAD SWAP1 POP PUSH2 0x20FC DUP2 PUSH2 0x1882 JUMP JUMPDEST SWAP3 SWAP2 POP POP JUMP JUMPDEST PUSH0 PUSH1 0x20 DUP3 DUP5 SUB SLT ISZERO PUSH2 0x2117 JUMPI PUSH2 0x2116 PUSH2 0x184F JUMP JUMPDEST JUMPDEST PUSH0 PUSH2 0x2124 DUP5 DUP3 DUP6 ADD PUSH2 0x20EE JUMP JUMPDEST SWAP2 POP POP SWAP3 SWAP2 POP POP JUMP JUMPDEST PUSH0 PUSH2 0x2137 DUP3 PUSH2 0x199A JUMP JUMPDEST SWAP2 POP PUSH32 0xFFFFFFFFFFFFFFFFFFFFFFFFFFFFFFFFFFFFFFFFFFFFFFFFFFFFFFFFFFFFFFFF DUP3 SUB PUSH2 0x2169 JUMPI PUSH2 0x2168 PUSH2 0x1EEF JUMP JUMPDEST JUMPDEST PUSH1 0x1 DUP3 ADD SWAP1 POP SWAP2 SWAP1 POP JUMP JUMPDEST PUSH32 0x4E487B7100000000000000000000000000000000000000000000000000000000 PUSH0 MSTORE PUSH1 0x12 PUSH1 0x4 MSTORE PUSH1 0x24 PUSH0 REVERT JUMPDEST PUSH0 PUSH2 0x21AB DUP3 PUSH2 0x199A JUMP JUMPDEST SWAP2 POP PUSH2 0x21B6 DUP4 PUSH2 0x199A JUMP JUMPDEST SWAP3 POP DUP3 PUSH2 0x21C6 JUMPI PUSH2 0x21C5 PUSH2 0x2174 JUMP JUMPDEST JUMPDEST DUP3 DUP3 DIV SWAP1 POP SWAP3 SWAP2 POP POP JUMP JUMPDEST PUSH32 0x4E487B7100000000000000000000000000000000000000000000000000000000 PUSH0 MSTORE PUSH1 0x41 PUSH1 0x4 MSTORE PUSH1 0x24 PUSH0 REVERT JUMPDEST PUSH0 PUSH2 0x2208 DUP3 PUSH2 0x199A JUMP JUMPDEST SWAP2 POP PUSH2 0x2213 DUP4 PUSH2 0x199A JUMP JUMPDEST SWAP3 POP DUP3 PUSH2 0x2223 JUMPI PUSH2 0x2222 PUSH2 0x2174 JUMP JUMPDEST JUMPDEST DUP3 DUP3 MOD SWAP1 POP SWAP3 SWAP2 POP POP JUMP JUMPDEST PUSH32 0x4E487B7100000000000000000000000000000000000000000000000000000000 PUSH0 MSTORE PUSH1 0x32 PUSH1 0x4 MSTORE PUSH1 0x24 PUSH0 REVERT INVALID PUSH10 0x7066733A2F2F516D6553 PUSH11 0x53696E4870506E6D586D73 PUSH17 0x4D6A776958794E367A533445397A636361 PUSH19 0x694752336A7863615774712FA2646970667358 0x22 SLT KECCAK256 0xAA 0xB8 JUMPI 0x26 0xB9 RJUMPI 0xBAEF DUP2 PUSH23 0x6BCCF95967E66360CCA33D9991677D19DBD1C48E60C964 PUSH20 0x6F6C634300081E00330000000000000000000000 "
				},
				"gasEstimates": {
					"creation": {
						"codeDepositCost": "1780600",
						"executionCost": "infinite",
						"totalCost": "infinite"
					},
					"external": {
						"MAX_APES()": "2536",
						"_balances(address)": "2891",
						"_operatorApprovals(address,address)": "infinite",
						"_owners(uint256)": "2872",
						"_tokenApprovals(uint256)": "2894",
						"approve(uint256,address)": "55943",
						"balanceOf(address)": "2974",
						"getApproved(uint256)": "5308",
						"isApprovedAll(address)": "3067",
						"mint(address,uint256)": "infinite",
						"name()": "infinite",
						"ownerOf(uint256)": "2986",
						"safeTransferFrom(address,address,uint256)": "infinite",
						"safeTransferFrom(address,address,uint256,bytes)": "infinite",
						"setApproveAll(address,bool)": "27016",
						"supportsInterface(bytes4)": "745",
						"symbol()": "infinite",
						"tokenURI(uint256)": "infinite",
						"transferFrom(address,address,uint256)": "infinite"
					},
					"internal": {
						"_baseURI()": "infinite"
					}
				},
				"methodIdentifiers": {
					"MAX_APES()": "bb8a16bd",
					"_balances(address)": "6ebcf607",
					"_operatorApprovals(address,address)": "edc3bc3f",
					"_owners(uint256)": "992924a6",
					"_tokenApprovals(uint256)": "a7cc0136",
					"approve(uint256,address)": "febe4909",
					"balanceOf(address)": "70a08231",
					"getApproved(uint256)": "081812fc",
					"isApprovedAll(address)": "ffb74e64",
					"mint(address,uint256)": "40c10f19",
					"name()": "06fdde03",
					"ownerOf(uint256)": "6352211e",
					"safeTransferFrom(address,address,uint256)": "42842e0e",
					"safeTransferFrom(address,address,uint256,bytes)": "b88d4fde",
					"setApproveAll(address,bool)": "c3354402",
					"supportsInterface(bytes4)": "01ffc9a7",
					"symbol()": "95d89b41",
					"tokenURI(uint256)": "c87b56dd",
					"transferFrom(address,address,uint256)": "23b872dd"
				}
			},
			"storageLayout": {
				"storage": [
					{
						"astId": 21,
						"contract": "34_ERC721/WTFApe.sol:WTFApe",
						"label": "name",
						"offset": 0,
						"slot": "0",
						"type": "t_string_storage"
					},
					{
						"astId": 24,
						"contract": "34_ERC721/WTFApe.sol:WTFApe",
						"label": "symbol",
						"offset": 0,
						"slot": "1",
						"type": "t_string_storage"
					},
					{
						"astId": 28,
						"contract": "34_ERC721/WTFApe.sol:WTFApe",
						"label": "_owners",
						"offset": 0,
						"slot": "2",
						"type": "t_mapping(t_uint256,t_address)"
					},
					{
						"astId": 32,
						"contract": "34_ERC721/WTFApe.sol:WTFApe",
						"label": "_balances",
						"offset": 0,
						"slot": "3",
						"type": "t_mapping(t_address,t_uint256)"
					},
					{
						"astId": 36,
						"contract": "34_ERC721/WTFApe.sol:WTFApe",
						"label": "_tokenApprovals",
						"offset": 0,
						"slot": "4",
						"type": "t_mapping(t_uint256,t_address)"
					},
					{
						"astId": 42,
						"contract": "34_ERC721/WTFApe.sol:WTFApe",
						"label": "_operatorApprovals",
						"offset": 0,
						"slot": "5",
						"type": "t_mapping(t_address,t_mapping(t_address,t_bool))"
					},
					{
						"astId": 1112,
						"contract": "34_ERC721/WTFApe.sol:WTFApe",
						"label": "MAX_APES",
						"offset": 0,
						"slot": "6",
						"type": "t_uint256"
					}
				],
				"types": {
					"t_address": {
						"encoding": "inplace",
						"label": "address",
						"numberOfBytes": "20"
					},
					"t_bool": {
						"encoding": "inplace",
						"label": "bool",
						"numberOfBytes": "1"
					},
					"t_mapping(t_address,t_bool)": {
						"encoding": "mapping",
						"key": "t_address",
						"label": "mapping(address => bool)",
						"numberOfBytes": "32",
						"value": "t_bool"
					},
					"t_mapping(t_address,t_mapping(t_address,t_bool))": {
						"encoding": "mapping",
						"key": "t_address",
						"label": "mapping(address => mapping(address => bool))",
						"numberOfBytes": "32",
						"value": "t_mapping(t_address,t_bool)"
					},
					"t_mapping(t_address,t_uint256)": {
						"encoding": "mapping",
						"key": "t_address",
						"label": "mapping(address => uint256)",
						"numberOfBytes": "32",
						"value": "t_uint256"
					},
					"t_mapping(t_uint256,t_address)": {
						"encoding": "mapping",
						"key": "t_uint256",
						"label": "mapping(uint256 => address)",
						"numberOfBytes": "32",
						"value": "t_address"
					},
					"t_string_storage": {
						"encoding": "bytes",
						"label": "string",
						"numberOfBytes": "32"
					},
					"t_uint256": {
						"encoding": "inplace",
						"label": "uint256",
						"numberOfBytes": "32"
					}
				}
			},
			"userdoc": {
				"kind": "user",
				"methods": {
					"supportsInterface(bytes4)": {
						"notice": "bytes4(keccak256(ERC721.Transfer.selector) ^ keccak256(ERC721.Approval.selector) ^ ··· ^keccak256(ERC721.isApprovedForAll.selector)) bytes4(keccak256(IERC721Metadata.name.selector ^ IERC721Metadata.symbol.selector ^ IERC721Metadata.tokenURI.selector))*"
					},
					"tokenURI(uint256)": {
						"notice": "实现IERC721Metadata的tokenURI函数，查询metadata。"
					}
				},
				"version": 1
			}
		}
	}
}