{
	"34_ERC721/ERC721.sol": {
		"ERC721": {
			"abi": [
				{
					"inputs": [
						{
							"internalType": "string",
							"name": "_name",
							"type": "string"
						},
						{
							"internalType": "string",
							"name": "_symbol",
							"type": "string"
						}
					],
					"stateMutability": "nonpayable",
					"type": "constructor"
				},
				{
					"inputs": [
						{
							"internalType": "address",
							"name": "receiver",
							"type": "address"
						}
					],
					"name": "InvaildERC721Receiver",
					"type": "error"
				},
				{
					"anonymous": false,
					"inputs": [
						{
							"indexed": true,
							"internalType": "address",
							"name": "owner",
							"type": "address"
						},
						{
							"indexed": true,
							"internalType": "address",
							"name": "operator",
							"type": "address"
						},
						{
							"indexed": true,
							"internalType": "uint256",
							"name": "tokenId",
							"type": "uint256"
						}
					],
					"name": "Approval",
					"type": "event"
				},
				{
					"anonymous": false,
					"inputs": [
						{
							"indexed": true,
							"internalType": "address",
							"name": "owner",
							"type": "address"
						},
						{
							"indexed": true,
							"internalType": "address",
							"name": "operator",
							"type": "address"
						},
						{
							"indexed": true,
							"internalType": "bool",
							"name": "approved",
							"type": "bool"
						}
					],
					"name": "ApprovalForAll",
					"type": "event"
				},
				{
					"anonymous": false,
					"inputs": [
						{
							"indexed": true,
							"internalType": "address",
							"name": "from",
							"type": "address"
						},
						{
							"indexed": true,
							"internalType": "address",
							"name": "to",
							"type": "address"
						},
						{
							"indexed": true,
							"internalType": "uint256",
							"name": "tokenId",
							"type": "uint256"
						}
					],
					"name": "Transfer",
					"type": "event"
				},
				{
					"inputs": [
						{
							"internalType": "address",
							"name": "",
							"type": "address"
						}
					],
					"name": "_balances",
					"outputs": [
						{
							"internalType": "uint256",
							"name": "",
							"type": "uint256"
						}
					],
					"stateMutability": "view",
					"type": "function"
				},
				{
					"inputs": [
						{
							"internalType": "address",
							"name": "",
							"type": "address"
						},
						{
							"internalType": "address",
							"name": "",
							"type": "address"
						}
					],
					"name": "_operatorApprovals",
					"outputs": [
						{
							"internalType": "bool",
							"name": "",
							"type": "bool"
						}
					],
					"stateMutability": "view",
					"type": "function"
				},
				{
					"inputs": [
						{
							"internalType": "uint256",
							"name": "",
							"type": "uint256"
						}
					],
					"name": "_owners",
					"outputs": [
						{
							"internalType": "address",
							"name": "",
							"type": "address"
						}
					],
					"stateMutability": "view",
					"type": "function"
				},
				{
					"inputs": [
						{
							"internalType": "uint256",
							"name": "",
							"type": "uint256"
						}
					],
					"name": "_tokenApprovals",
					"outputs": [
						{
							"internalType": "address",
							"name": "",
							"type": "address"
						}
					],
					"stateMutability": "view",
					"type": "function"
				},
				{
					"inputs": [
						{
							"internalType": "uint256",
							"name": "tokenId",
							"type": "uint256"
						},
						{
							"internalType": "address",
							"name": "operator",
							"type": "address"
						}
					],
					"name": "approve",
					"outputs": [],
					"stateMutability": "nonpayable",
					"type": "function"
				},
				{
					"inputs": [
						{
							"internalType": "address",
							"name": "owner",
							"type": "address"
						}
					],
					"name": "balanceOf",
					"outputs": [
						{
							"internalType": "uint256",
							"name": "balance",
							"type": "uint256"
						}
					],
					"stateMutability": "view",
					"type": "function"
				},
				{
					"inputs": [
						{
							"internalType": "uint256",
							"name": "tokenId",
							"type": "uint256"
						}
					],
					"name": "getApproved",
					"outputs": [
						{
							"internalType": "address",
							"name": "operator",
							"type": "address"
						}
					],
					"stateMutability": "view",
					"type": "function"
				},
				{
					"inputs": [
						{
							"internalType": "address",
							"name": "operator",
							"type": "address"
						}
					],
					"name": "isApprovedAll",
					"outputs": [
						{
							"internalType": "bool",
							"name": "",
							"type": "bool"
						}
					],
					"stateMutability": "view",
					"type": "function"
				},
				{
					"inputs": [],
					"name": "name",
					"outputs": [
						{
							"internalType": "string",
							"name": "",
							"type": "string"
						}
					],
					"stateMutability": "view",
					"type": "function"
				},
				{
					"inputs": [
						{
							"internalType": "uint256",
							"name": "tokenId",
							"type": "uint256"
						}
					],
					"name": "ownerOf",
					"outputs": [
						{
							"internalType": "address",
							"name": "owner",
							"type": "address"
						}
					],
					"stateMutability": "view",
					"type": "function"
				},
				{
					"inputs": [
						{
							"internalType": "address",
							"name": "from",
							"type": "address"
						},
						{
							"internalType": "address",
							"name": "to",
							"type": "address"
						},
						{
							"internalType": "uint256",
							"name": "tokenId",
							"type": "uint256"
						}
					],
					"name": "safeTransferFrom",
					"outputs": [],
					"stateMutability": "nonpayable",
					"type": "function"
				},
				{
					"inputs": [
						{
							"internalType": "address",
							"name": "from",
							"type": "address"
						},
						{
							"internalType": "address",
							"name": "to",
							"type": "address"
						},
						{
							"internalType": "uint256",
							"name": "tokenId",
							"type": "uint256"
						},
						{
							"internalType": "bytes",
							"name": "data",
							"type": "bytes"
						}
					],
					"name": "safeTransferFrom",
					"outputs": [],
					"stateMutability": "nonpayable",
					"type": "function"
				},
				{
					"inputs": [
						{
							"internalType": "address",
							"name": "operator",
							"type": "address"
						},
						{
							"internalType": "bool",
							"name": "approved",
							"type": "bool"
						}
					],
					"name": "setApproveAll",
					"outputs": [],
					"stateMutability": "nonpayable",
					"type": "function"
				},
				{
					"inputs": [
						{
							"internalType": "bytes4",
							"name": "interfaceId",
							"type": "bytes4"
						}
					],
					"name": "supportsInterface",
					"outputs": [
						{
							"internalType": "bool",
							"name": "",
							"type": "bool"
						}
					],
					"stateMutability": "pure",
					"type": "function"
				},
				{
					"inputs": [],
					"name": "symbol",
					"outputs": [
						{
							"internalType": "string",
							"name": "",
							"type": "string"
						}
					],
					"stateMutability": "view",
					"type": "function"
				},
				{
					"inputs": [
						{
							"internalType": "uint256",
							"name": "tokenId",
							"type": "uint256"
						}
					],
					"name": "tokenURI",
					"outputs": [
						{
							"internalType": "string",
							"name": "",
							"type": "string"
						}
					],
					"stateMutability": "view",
					"type": "function"
				},
				{
					"inputs": [
						{
							"internalType": "address",
							"name": "from",
							"type": "address"
						},
						{
							"internalType": "address",
							"name": "to",
							"type": "address"
						},
						{
							"internalType": "uint256",
							"name": "tokenId",
							"type": "uint256"
						}
					],
					"name": "transferFrom",
					"outputs": [],
					"stateMutability": "nonpayable",
					"type": "function"
				}
			],
			"devdoc": {
				"kind": "dev",
				"methods": {},
				"version": 1
			},
			"evm": {
				"assembly": "    /* \"34_ERC721/ERC721.sol\":262:7684  contract ERC721 is IERC721, IERC721Metadata {... */\n  mstore(0x40, 0x80)\n    /* \"34_ERC721/ERC721.sol\":712:826  constructor(string memory _name, string memory _symbol) {... */\n  callvalue\n  dup1\n  iszero\n  tag_1\n  jumpi\n  revert(0x00, 0x00)\ntag_1:\n  pop\n  mload(0x40)\n  sub(codesize, bytecodeSize)\n  dup1\n  bytecodeSize\n  dup4\n  codecopy\n  dup2\n  dup2\n  add\n  0x40\n  mstore\n  dup2\n  add\n  swap1\n  tag_2\n  swap2\n  swap1\n  tag_3\n  jump\t// in\ntag_2:\n    /* \"34_ERC721/ERC721.sol\":786:791  _name */\n  dup2\n    /* \"34_ERC721/ERC721.sol\":779:783  name */\n  0x00\n    /* \"34_ERC721/ERC721.sol\":779:791  name = _name */\n  swap1\n  dup2\n  tag_6\n  swap2\n  swap1\n  tag_7\n  jump\t// in\ntag_6:\n  pop\n    /* \"34_ERC721/ERC721.sol\":811:818  _symbol */\n  dup1\n    /* \"34_ERC721/ERC721.sol\":802:808  symbol */\n  0x01\n    /* \"34_ERC721/ERC721.sol\":802:818  symbol = _symbol */\n  swap1\n  dup2\n  tag_8\n  swap2\n  swap1\n  tag_7\n  jump\t// in\ntag_8:\n  pop\n    /* \"34_ERC721/ERC721.sol\":712:826  constructor(string memory _name, string memory _symbol) {... */\n  pop\n  pop\n    /* \"34_ERC721/ERC721.sol\":262:7684  contract ERC721 is IERC721, IERC721Metadata {... */\n  jump(tag_9)\n    /* \"#utility.yul\":7:82   */\ntag_10:\n    /* \"#utility.yul\":40:46   */\n  0x00\n    /* \"#utility.yul\":73:75   */\n  0x40\n    /* \"#utility.yul\":67:76   */\n  mload\n    /* \"#utility.yul\":57:76   */\n  swap1\n  pop\n    /* \"#utility.yul\":7:82   */\n  swap1\n  jump\t// out\n    /* \"#utility.yul\":88:205   */\ntag_11:\n    /* \"#utility.yul\":197:198   */\n  0x00\n    /* \"#utility.yul\":194:195   */\n  0x00\n    /* \"#utility.yul\":187:199   */\n  revert\n    /* \"#utility.yul\":211:328   */\ntag_12:\n    /* \"#utility.yul\":320:321   */\n  0x00\n    /* \"#utility.yul\":317:318   */\n  0x00\n    /* \"#utility.yul\":310:322   */\n  revert\n    /* \"#utility.yul\":334:451   */\ntag_13:\n    /* \"#utility.yul\":443:444   */\n  0x00\n    /* \"#utility.yul\":440:441   */\n  0x00\n    /* \"#utility.yul\":433:445   */\n  revert\n    /* \"#utility.yul\":457:574   */\ntag_14:\n    /* \"#utility.yul\":566:567   */\n  0x00\n    /* \"#utility.yul\":563:564   */\n  0x00\n    /* \"#utility.yul\":556:568   */\n  revert\n    /* \"#utility.yul\":580:682   */\ntag_15:\n    /* \"#utility.yul\":621:627   */\n  0x00\n    /* \"#utility.yul\":672:674   */\n  0x1f\n    /* \"#utility.yul\":668:675   */\n  not\n    /* \"#utility.yul\":663:665   */\n  0x1f\n    /* \"#utility.yul\":656:661   */\n  dup4\n    /* \"#utility.yul\":652:666   */\n  add\n    /* \"#utility.yul\":648:676   */\n  and\n    /* \"#utility.yul\":638:676   */\n  swap1\n  pop\n    /* \"#utility.yul\":580:682   */\n  swap2\n  swap1\n  pop\n  jump\t// out\n    /* \"#utility.yul\":688:868   */\ntag_16:\n    /* \"#utility.yul\":736:813   */\n  0x4e487b7100000000000000000000000000000000000000000000000000000000\n    /* \"#utility.yul\":733:734   */\n  0x00\n    /* \"#utility.yul\":726:814   */\n  mstore\n    /* \"#utility.yul\":833:837   */\n  0x41\n    /* \"#utility.yul\":830:831   */\n  0x04\n    /* \"#utility.yul\":823:838   */\n  mstore\n    /* \"#utility.yul\":857:861   */\n  0x24\n    /* \"#utility.yul\":854:855   */\n  0x00\n    /* \"#utility.yul\":847:862   */\n  revert\n    /* \"#utility.yul\":874:1155   */\ntag_17:\n    /* \"#utility.yul\":957:984   */\n  tag_51\n    /* \"#utility.yul\":979:983   */\n  dup3\n    /* \"#utility.yul\":957:984   */\n  tag_15\n  jump\t// in\ntag_51:\n    /* \"#utility.yul\":949:955   */\n  dup2\n    /* \"#utility.yul\":945:985   */\n  add\n    /* \"#utility.yul\":1087:1093   */\n  dup2\n    /* \"#utility.yul\":1075:1085   */\n  dup2\n    /* \"#utility.yul\":1072:1094   */\n  lt\n    /* \"#utility.yul\":1051:1069   */\n  0xffffffffffffffff\n    /* \"#utility.yul\":1039:1049   */\n  dup3\n    /* \"#utility.yul\":1036:1070   */\n  gt\n    /* \"#utility.yul\":1033:1095   */\n  or\n    /* \"#utility.yul\":1030:1118   */\n  iszero\n  tag_52\n  jumpi\n    /* \"#utility.yul\":1098:1116   */\n  tag_53\n  tag_16\n  jump\t// in\ntag_53:\n    /* \"#utility.yul\":1030:1118   */\ntag_52:\n    /* \"#utility.yul\":1138:1148   */\n  dup1\n    /* \"#utility.yul\":1134:1136   */\n  0x40\n    /* \"#utility.yul\":1127:1149   */\n  mstore\n    /* \"#utility.yul\":917:1155   */\n  pop\n    /* \"#utility.yul\":874:1155   */\n  pop\n  pop\n  jump\t// out\n    /* \"#utility.yul\":1161:1290   */\ntag_18:\n    /* \"#utility.yul\":1195:1201   */\n  0x00\n    /* \"#utility.yul\":1222:1242   */\n  tag_55\n  tag_10\n  jump\t// in\ntag_55:\n    /* \"#utility.yul\":1212:1242   */\n  swap1\n  pop\n    /* \"#utility.yul\":1251:1284   */\n  tag_56\n    /* \"#utility.yul\":1279:1283   */\n  dup3\n    /* \"#utility.yul\":1271:1277   */\n  dup3\n    /* \"#utility.yul\":1251:1284   */\n  tag_17\n  jump\t// in\ntag_56:\n    /* \"#utility.yul\":1161:1290   */\n  swap2\n  swap1\n  pop\n  jump\t// out\n    /* \"#utility.yul\":1296:1604   */\ntag_19:\n    /* \"#utility.yul\":1358:1362   */\n  0x00\n    /* \"#utility.yul\":1448:1466   */\n  0xffffffffffffffff\n    /* \"#utility.yul\":1440:1446   */\n  dup3\n    /* \"#utility.yul\":1437:1467   */\n  gt\n    /* \"#utility.yul\":1434:1490   */\n  iszero\n  tag_58\n  jumpi\n    /* \"#utility.yul\":1470:1488   */\n  tag_59\n  tag_16\n  jump\t// in\ntag_59:\n    /* \"#utility.yul\":1434:1490   */\ntag_58:\n    /* \"#utility.yul\":1508:1537   */\n  tag_60\n    /* \"#utility.yul\":1530:1536   */\n  dup3\n    /* \"#utility.yul\":1508:1537   */\n  tag_15\n  jump\t// in\ntag_60:\n    /* \"#utility.yul\":1500:1537   */\n  swap1\n  pop\n    /* \"#utility.yul\":1592:1596   */\n  0x20\n    /* \"#utility.yul\":1586:1590   */\n  dup2\n    /* \"#utility.yul\":1582:1597   */\n  add\n    /* \"#utility.yul\":1574:1597   */\n  swap1\n  pop\n    /* \"#utility.yul\":1296:1604   */\n  swap2\n  swap1\n  pop\n  jump\t// out\n    /* \"#utility.yul\":1610:1749   */\ntag_20:\n    /* \"#utility.yul\":1699:1705   */\n  dup3\n    /* \"#utility.yul\":1694:1697   */\n  dup2\n    /* \"#utility.yul\":1689:1692   */\n  dup4\n    /* \"#utility.yul\":1683:1706   */\n  mcopy\n    /* \"#utility.yul\":1740:1741   */\n  0x00\n    /* \"#utility.yul\":1731:1737   */\n  dup4\n    /* \"#utility.yul\":1726:1729   */\n  dup4\n    /* \"#utility.yul\":1722:1738   */\n  add\n    /* \"#utility.yul\":1715:1742   */\n  mstore\n    /* \"#utility.yul\":1610:1749   */\n  pop\n  pop\n  pop\n  jump\t// out\n    /* \"#utility.yul\":1755:2189   */\ntag_21:\n    /* \"#utility.yul\":1844:1849   */\n  0x00\n    /* \"#utility.yul\":1869:1935   */\n  tag_63\n    /* \"#utility.yul\":1885:1934   */\n  tag_64\n    /* \"#utility.yul\":1927:1933   */\n  dup5\n    /* \"#utility.yul\":1885:1934   */\n  tag_19\n  jump\t// in\ntag_64:\n    /* \"#utility.yul\":1869:1935   */\n  tag_18\n  jump\t// in\ntag_63:\n    /* \"#utility.yul\":1860:1935   */\n  swap1\n  pop\n    /* \"#utility.yul\":1958:1964   */\n  dup3\n    /* \"#utility.yul\":1951:1956   */\n  dup2\n    /* \"#utility.yul\":1944:1965   */\n  mstore\n    /* \"#utility.yul\":1996:2000   */\n  0x20\n    /* \"#utility.yul\":1989:1994   */\n  dup2\n    /* \"#utility.yul\":1985:2001   */\n  add\n    /* \"#utility.yul\":2034:2037   */\n  dup5\n    /* \"#utility.yul\":2025:2031   */\n  dup5\n    /* \"#utility.yul\":2020:2023   */\n  dup5\n    /* \"#utility.yul\":2016:2032   */\n  add\n    /* \"#utility.yul\":2013:2038   */\n  gt\n    /* \"#utility.yul\":2010:2122   */\n  iszero\n  tag_65\n  jumpi\n    /* \"#utility.yul\":2041:2120   */\n  tag_66\n  tag_14\n  jump\t// in\ntag_66:\n    /* \"#utility.yul\":2010:2122   */\ntag_65:\n    /* \"#utility.yul\":2131:2183   */\n  tag_67\n    /* \"#utility.yul\":2176:2182   */\n  dup5\n    /* \"#utility.yul\":2171:2174   */\n  dup3\n    /* \"#utility.yul\":2166:2169   */\n  dup6\n    /* \"#utility.yul\":2131:2183   */\n  tag_20\n  jump\t// in\ntag_67:\n    /* \"#utility.yul\":1850:2189   */\n  pop\n    /* \"#utility.yul\":1755:2189   */\n  swap4\n  swap3\n  pop\n  pop\n  pop\n  jump\t// out\n    /* \"#utility.yul\":2209:2564   */\ntag_22:\n    /* \"#utility.yul\":2276:2281   */\n  0x00\n    /* \"#utility.yul\":2325:2328   */\n  dup3\n    /* \"#utility.yul\":2318:2322   */\n  0x1f\n    /* \"#utility.yul\":2310:2316   */\n  dup4\n    /* \"#utility.yul\":2306:2323   */\n  add\n    /* \"#utility.yul\":2302:2329   */\n  slt\n    /* \"#utility.yul\":2292:2414   */\n  tag_69\n  jumpi\n    /* \"#utility.yul\":2333:2412   */\n  tag_70\n  tag_13\n  jump\t// in\ntag_70:\n    /* \"#utility.yul\":2292:2414   */\ntag_69:\n    /* \"#utility.yul\":2443:2449   */\n  dup2\n    /* \"#utility.yul\":2437:2450   */\n  mload\n    /* \"#utility.yul\":2468:2558   */\n  tag_71\n    /* \"#utility.yul\":2554:2557   */\n  dup5\n    /* \"#utility.yul\":2546:2552   */\n  dup3\n    /* \"#utility.yul\":2539:2543   */\n  0x20\n    /* \"#utility.yul\":2531:2537   */\n  dup7\n    /* \"#utility.yul\":2527:2544   */\n  add\n    /* \"#utility.yul\":2468:2558   */\n  tag_21\n  jump\t// in\ntag_71:\n    /* \"#utility.yul\":2459:2558   */\n  swap2\n  pop\n    /* \"#utility.yul\":2282:2564   */\n  pop\n    /* \"#utility.yul\":2209:2564   */\n  swap3\n  swap2\n  pop\n  pop\n  jump\t// out\n    /* \"#utility.yul\":2570:3423   */\ntag_3:\n    /* \"#utility.yul\":2669:2675   */\n  0x00\n    /* \"#utility.yul\":2677:2683   */\n  0x00\n    /* \"#utility.yul\":2726:2728   */\n  0x40\n    /* \"#utility.yul\":2714:2723   */\n  dup4\n    /* \"#utility.yul\":2705:2712   */\n  dup6\n    /* \"#utility.yul\":2701:2724   */\n  sub\n    /* \"#utility.yul\":2697:2729   */\n  slt\n    /* \"#utility.yul\":2694:2813   */\n  iszero\n  tag_73\n  jumpi\n    /* \"#utility.yul\":2732:2811   */\n  tag_74\n  tag_11\n  jump\t// in\ntag_74:\n    /* \"#utility.yul\":2694:2813   */\ntag_73:\n    /* \"#utility.yul\":2873:2874   */\n  0x00\n    /* \"#utility.yul\":2862:2871   */\n  dup4\n    /* \"#utility.yul\":2858:2875   */\n  add\n    /* \"#utility.yul\":2852:2876   */\n  mload\n    /* \"#utility.yul\":2903:2921   */\n  0xffffffffffffffff\n    /* \"#utility.yul\":2895:2901   */\n  dup2\n    /* \"#utility.yul\":2892:2922   */\n  gt\n    /* \"#utility.yul\":2889:3006   */\n  iszero\n  tag_75\n  jumpi\n    /* \"#utility.yul\":2925:3004   */\n  tag_76\n  tag_12\n  jump\t// in\ntag_76:\n    /* \"#utility.yul\":2889:3006   */\ntag_75:\n    /* \"#utility.yul\":3030:3104   */\n  tag_77\n    /* \"#utility.yul\":3096:3103   */\n  dup6\n    /* \"#utility.yul\":3087:3093   */\n  dup3\n    /* \"#utility.yul\":3076:3085   */\n  dup7\n    /* \"#utility.yul\":3072:3094   */\n  add\n    /* \"#utility.yul\":3030:3104   */\n  tag_22\n  jump\t// in\ntag_77:\n    /* \"#utility.yul\":3020:3104   */\n  swap3\n  pop\n    /* \"#utility.yul\":2823:3114   */\n  pop\n    /* \"#utility.yul\":3174:3176   */\n  0x20\n    /* \"#utility.yul\":3163:3172   */\n  dup4\n    /* \"#utility.yul\":3159:3177   */\n  add\n    /* \"#utility.yul\":3153:3178   */\n  mload\n    /* \"#utility.yul\":3205:3223   */\n  0xffffffffffffffff\n    /* \"#utility.yul\":3197:3203   */\n  dup2\n    /* \"#utility.yul\":3194:3224   */\n  gt\n    /* \"#utility.yul\":3191:3308   */\n  iszero\n  tag_78\n  jumpi\n    /* \"#utility.yul\":3227:3306   */\n  tag_79\n  tag_12\n  jump\t// in\ntag_79:\n    /* \"#utility.yul\":3191:3308   */\ntag_78:\n    /* \"#utility.yul\":3332:3406   */\n  tag_80\n    /* \"#utility.yul\":3398:3405   */\n  dup6\n    /* \"#utility.yul\":3389:3395   */\n  dup3\n    /* \"#utility.yul\":3378:3387   */\n  dup7\n    /* \"#utility.yul\":3374:3396   */\n  add\n    /* \"#utility.yul\":3332:3406   */\n  tag_22\n  jump\t// in\ntag_80:\n    /* \"#utility.yul\":3322:3406   */\n  swap2\n  pop\n    /* \"#utility.yul\":3124:3416   */\n  pop\n    /* \"#utility.yul\":2570:3423   */\n  swap3\n  pop\n  swap3\n  swap1\n  pop\n  jump\t// out\n    /* \"#utility.yul\":3429:3528   */\ntag_23:\n    /* \"#utility.yul\":3481:3487   */\n  0x00\n    /* \"#utility.yul\":3515:3520   */\n  dup2\n    /* \"#utility.yul\":3509:3521   */\n  mload\n    /* \"#utility.yul\":3499:3521   */\n  swap1\n  pop\n    /* \"#utility.yul\":3429:3528   */\n  swap2\n  swap1\n  pop\n  jump\t// out\n    /* \"#utility.yul\":3534:3714   */\ntag_24:\n    /* \"#utility.yul\":3582:3659   */\n  0x4e487b7100000000000000000000000000000000000000000000000000000000\n    /* \"#utility.yul\":3579:3580   */\n  0x00\n    /* \"#utility.yul\":3572:3660   */\n  mstore\n    /* \"#utility.yul\":3679:3683   */\n  0x22\n    /* \"#utility.yul\":3676:3677   */\n  0x04\n    /* \"#utility.yul\":3669:3684   */\n  mstore\n    /* \"#utility.yul\":3703:3707   */\n  0x24\n    /* \"#utility.yul\":3700:3701   */\n  0x00\n    /* \"#utility.yul\":3693:3708   */\n  revert\n    /* \"#utility.yul\":3720:4040   */\ntag_25:\n    /* \"#utility.yul\":3764:3770   */\n  0x00\n    /* \"#utility.yul\":3801:3802   */\n  0x02\n    /* \"#utility.yul\":3795:3799   */\n  dup3\n    /* \"#utility.yul\":3791:3803   */\n  div\n    /* \"#utility.yul\":3781:3803   */\n  swap1\n  pop\n    /* \"#utility.yul\":3848:3849   */\n  0x01\n    /* \"#utility.yul\":3842:3846   */\n  dup3\n    /* \"#utility.yul\":3838:3850   */\n  and\n    /* \"#utility.yul\":3869:3887   */\n  dup1\n    /* \"#utility.yul\":3859:3940   */\n  tag_84\n  jumpi\n    /* \"#utility.yul\":3925:3929   */\n  0x7f\n    /* \"#utility.yul\":3917:3923   */\n  dup3\n    /* \"#utility.yul\":3913:3930   */\n  and\n    /* \"#utility.yul\":3903:3930   */\n  swap2\n  pop\n    /* \"#utility.yul\":3859:3940   */\ntag_84:\n    /* \"#utility.yul\":3987:3989   */\n  0x20\n    /* \"#utility.yul\":3979:3985   */\n  dup3\n    /* \"#utility.yul\":3976:3990   */\n  lt\n    /* \"#utility.yul\":3956:3974   */\n  dup2\n    /* \"#utility.yul\":3953:3991   */\n  sub\n    /* \"#utility.yul\":3950:4034   */\n  tag_85\n  jumpi\n    /* \"#utility.yul\":4006:4024   */\n  tag_86\n  tag_24\n  jump\t// in\ntag_86:\n    /* \"#utility.yul\":3950:4034   */\ntag_85:\n    /* \"#utility.yul\":3771:4040   */\n  pop\n    /* \"#utility.yul\":3720:4040   */\n  swap2\n  swap1\n  pop\n  jump\t// out\n    /* \"#utility.yul\":4046:4187   */\ntag_26:\n    /* \"#utility.yul\":4095:4099   */\n  0x00\n    /* \"#utility.yul\":4118:4121   */\n  dup2\n    /* \"#utility.yul\":4110:4121   */\n  swap1\n  pop\n    /* \"#utility.yul\":4141:4144   */\n  dup2\n    /* \"#utility.yul\":4138:4139   */\n  0x00\n    /* \"#utility.yul\":4131:4145   */\n  mstore\n    /* \"#utility.yul\":4175:4179   */\n  0x20\n    /* \"#utility.yul\":4172:4173   */\n  0x00\n    /* \"#utility.yul\":4162:4180   */\n  keccak256\n    /* \"#utility.yul\":4154:4180   */\n  swap1\n  pop\n    /* \"#utility.yul\":4046:4187   */\n  swap2\n  swap1\n  pop\n  jump\t// out\n    /* \"#utility.yul\":4193:4286   */\ntag_27:\n    /* \"#utility.yul\":4230:4236   */\n  0x00\n    /* \"#utility.yul\":4277:4279   */\n  0x20\n    /* \"#utility.yul\":4272:4274   */\n  0x1f\n    /* \"#utility.yul\":4265:4270   */\n  dup4\n    /* \"#utility.yul\":4261:4275   */\n  add\n    /* \"#utility.yul\":4257:4280   */\n  div\n    /* \"#utility.yul\":4247:4280   */\n  swap1\n  pop\n    /* \"#utility.yul\":4193:4286   */\n  swap2\n  swap1\n  pop\n  jump\t// out\n    /* \"#utility.yul\":4292:4399   */\ntag_28:\n    /* \"#utility.yul\":4336:4344   */\n  0x00\n    /* \"#utility.yul\":4386:4391   */\n  dup3\n    /* \"#utility.yul\":4380:4384   */\n  dup3\n    /* \"#utility.yul\":4376:4392   */\n  shl\n    /* \"#utility.yul\":4355:4392   */\n  swap1\n  pop\n    /* \"#utility.yul\":4292:4399   */\n  swap3\n  swap2\n  pop\n  pop\n  jump\t// out\n    /* \"#utility.yul\":4405:4798   */\ntag_29:\n    /* \"#utility.yul\":4474:4480   */\n  0x00\n    /* \"#utility.yul\":4524:4525   */\n  0x08\n    /* \"#utility.yul\":4512:4522   */\n  dup4\n    /* \"#utility.yul\":4508:4526   */\n  mul\n    /* \"#utility.yul\":4547:4644   */\n  tag_91\n    /* \"#utility.yul\":4577:4643   */\n  0xffffffffffffffffffffffffffffffffffffffffffffffffffffffffffffffff\n    /* \"#utility.yul\":4566:4575   */\n  dup3\n    /* \"#utility.yul\":4547:4644   */\n  tag_28\n  jump\t// in\ntag_91:\n    /* \"#utility.yul\":4665:4704   */\n  tag_92\n    /* \"#utility.yul\":4695:4703   */\n  dup7\n    /* \"#utility.yul\":4684:4693   */\n  dup4\n    /* \"#utility.yul\":4665:4704   */\n  tag_28\n  jump\t// in\ntag_92:\n    /* \"#utility.yul\":4653:4704   */\n  swap6\n  pop\n    /* \"#utility.yul\":4737:4741   */\n  dup1\n    /* \"#utility.yul\":4733:4742   */\n  not\n    /* \"#utility.yul\":4726:4731   */\n  dup5\n    /* \"#utility.yul\":4722:4743   */\n  and\n    /* \"#utility.yul\":4713:4743   */\n  swap4\n  pop\n    /* \"#utility.yul\":4786:4790   */\n  dup1\n    /* \"#utility.yul\":4776:4784   */\n  dup7\n    /* \"#utility.yul\":4772:4791   */\n  and\n    /* \"#utility.yul\":4765:4770   */\n  dup5\n    /* \"#utility.yul\":4762:4792   */\n  or\n    /* \"#utility.yul\":4752:4792   */\n  swap3\n  pop\n    /* \"#utility.yul\":4481:4798   */\n  pop\n  pop\n    /* \"#utility.yul\":4405:4798   */\n  swap4\n  swap3\n  pop\n  pop\n  pop\n  jump\t// out\n    /* \"#utility.yul\":4804:4881   */\ntag_30:\n    /* \"#utility.yul\":4841:4848   */\n  0x00\n    /* \"#utility.yul\":4870:4875   */\n  dup2\n    /* \"#utility.yul\":4859:4875   */\n  swap1\n  pop\n    /* \"#utility.yul\":4804:4881   */\n  swap2\n  swap1\n  pop\n  jump\t// out\n    /* \"#utility.yul\":4887:4947   */\ntag_31:\n    /* \"#utility.yul\":4915:4918   */\n  0x00\n    /* \"#utility.yul\":4936:4941   */\n  dup2\n    /* \"#utility.yul\":4929:4941   */\n  swap1\n  pop\n    /* \"#utility.yul\":4887:4947   */\n  swap2\n  swap1\n  pop\n  jump\t// out\n    /* \"#utility.yul\":4953:5095   */\ntag_32:\n    /* \"#utility.yul\":5003:5012   */\n  0x00\n    /* \"#utility.yul\":5036:5089   */\n  tag_96\n    /* \"#utility.yul\":5054:5088   */\n  tag_97\n    /* \"#utility.yul\":5063:5087   */\n  tag_98\n    /* \"#utility.yul\":5081:5086   */\n  dup5\n    /* \"#utility.yul\":5063:5087   */\n  tag_30\n  jump\t// in\ntag_98:\n    /* \"#utility.yul\":5054:5088   */\n  tag_31\n  jump\t// in\ntag_97:\n    /* \"#utility.yul\":5036:5089   */\n  tag_30\n  jump\t// in\ntag_96:\n    /* \"#utility.yul\":5023:5089   */\n  swap1\n  pop\n    /* \"#utility.yul\":4953:5095   */\n  swap2\n  swap1\n  pop\n  jump\t// out\n    /* \"#utility.yul\":5101:5176   */\ntag_33:\n    /* \"#utility.yul\":5144:5147   */\n  0x00\n    /* \"#utility.yul\":5165:5170   */\n  dup2\n    /* \"#utility.yul\":5158:5170   */\n  swap1\n  pop\n    /* \"#utility.yul\":5101:5176   */\n  swap2\n  swap1\n  pop\n  jump\t// out\n    /* \"#utility.yul\":5182:5451   */\ntag_34:\n    /* \"#utility.yul\":5292:5331   */\n  tag_101\n    /* \"#utility.yul\":5323:5330   */\n  dup4\n    /* \"#utility.yul\":5292:5331   */\n  tag_32\n  jump\t// in\ntag_101:\n    /* \"#utility.yul\":5353:5444   */\n  tag_102\n    /* \"#utility.yul\":5402:5443   */\n  tag_103\n    /* \"#utility.yul\":5426:5442   */\n  dup3\n    /* \"#utility.yul\":5402:5443   */\n  tag_33\n  jump\t// in\ntag_103:\n    /* \"#utility.yul\":5394:5400   */\n  dup5\n    /* \"#utility.yul\":5387:5391   */\n  dup5\n    /* \"#utility.yul\":5381:5392   */\n  sload\n    /* \"#utility.yul\":5353:5444   */\n  tag_29\n  jump\t// in\ntag_102:\n    /* \"#utility.yul\":5347:5351   */\n  dup3\n    /* \"#utility.yul\":5340:5445   */\n  sstore\n    /* \"#utility.yul\":5258:5451   */\n  pop\n    /* \"#utility.yul\":5182:5451   */\n  pop\n  pop\n  pop\n  jump\t// out\n    /* \"#utility.yul\":5457:5530   */\ntag_35:\n    /* \"#utility.yul\":5502:5505   */\n  0x00\n    /* \"#utility.yul\":5523:5524   */\n  0x00\n    /* \"#utility.yul\":5516:5524   */\n  swap1\n  pop\n    /* \"#utility.yul\":5457:5530   */\n  swap1\n  jump\t// out\n    /* \"#utility.yul\":5536:5725   */\ntag_36:\n    /* \"#utility.yul\":5613:5645   */\n  tag_106\n  tag_35\n  jump\t// in\ntag_106:\n    /* \"#utility.yul\":5654:5719   */\n  tag_107\n    /* \"#utility.yul\":5712:5718   */\n  dup2\n    /* \"#utility.yul\":5704:5710   */\n  dup5\n    /* \"#utility.yul\":5698:5702   */\n  dup5\n    /* \"#utility.yul\":5654:5719   */\n  tag_34\n  jump\t// in\ntag_107:\n    /* \"#utility.yul\":5589:5725   */\n  pop\n    /* \"#utility.yul\":5536:5725   */\n  pop\n  pop\n  jump\t// out\n    /* \"#utility.yul\":5731:5917   */\ntag_37:\n    /* \"#utility.yul\":5791:5911   */\ntag_109:\n    /* \"#utility.yul\":5808:5811   */\n  dup2\n    /* \"#utility.yul\":5801:5806   */\n  dup2\n    /* \"#utility.yul\":5798:5812   */\n  lt\n    /* \"#utility.yul\":5791:5911   */\n  iszero\n  tag_111\n  jumpi\n    /* \"#utility.yul\":5862:5901   */\n  tag_112\n    /* \"#utility.yul\":5899:5900   */\n  0x00\n    /* \"#utility.yul\":5892:5897   */\n  dup3\n    /* \"#utility.yul\":5862:5901   */\n  tag_36\n  jump\t// in\ntag_112:\n    /* \"#utility.yul\":5835:5836   */\n  0x01\n    /* \"#utility.yul\":5828:5833   */\n  dup2\n    /* \"#utility.yul\":5824:5837   */\n  add\n    /* \"#utility.yul\":5815:5837   */\n  swap1\n  pop\n    /* \"#utility.yul\":5791:5911   */\n  jump(tag_109)\ntag_111:\n    /* \"#utility.yul\":5731:5917   */\n  pop\n  pop\n  jump\t// out\n    /* \"#utility.yul\":5923:6466   */\ntag_38:\n    /* \"#utility.yul\":6024:6026   */\n  0x1f\n    /* \"#utility.yul\":6019:6022   */\n  dup3\n    /* \"#utility.yul\":6016:6027   */\n  gt\n    /* \"#utility.yul\":6013:6459   */\n  iszero\n  tag_114\n  jumpi\n    /* \"#utility.yul\":6058:6096   */\n  tag_115\n    /* \"#utility.yul\":6090:6095   */\n  dup2\n    /* \"#utility.yul\":6058:6096   */\n  tag_26\n  jump\t// in\ntag_115:\n    /* \"#utility.yul\":6142:6171   */\n  tag_116\n    /* \"#utility.yul\":6160:6170   */\n  dup5\n    /* \"#utility.yul\":6142:6171   */\n  tag_27\n  jump\t// in\ntag_116:\n    /* \"#utility.yul\":6132:6140   */\n  dup2\n    /* \"#utility.yul\":6128:6172   */\n  add\n    /* \"#utility.yul\":6325:6327   */\n  0x20\n    /* \"#utility.yul\":6313:6323   */\n  dup6\n    /* \"#utility.yul\":6310:6328   */\n  lt\n    /* \"#utility.yul\":6307:6356   */\n  iszero\n  tag_117\n  jumpi\n    /* \"#utility.yul\":6346:6354   */\n  dup2\n    /* \"#utility.yul\":6331:6354   */\n  swap1\n  pop\n    /* \"#utility.yul\":6307:6356   */\ntag_117:\n    /* \"#utility.yul\":6369:6449   */\n  tag_118\n    /* \"#utility.yul\":6425:6447   */\n  tag_119\n    /* \"#utility.yul\":6443:6446   */\n  dup6\n    /* \"#utility.yul\":6425:6447   */\n  tag_27\n  jump\t// in\ntag_119:\n    /* \"#utility.yul\":6415:6423   */\n  dup4\n    /* \"#utility.yul\":6411:6448   */\n  add\n    /* \"#utility.yul\":6398:6409   */\n  dup3\n    /* \"#utility.yul\":6369:6449   */\n  tag_37\n  jump\t// in\ntag_118:\n    /* \"#utility.yul\":6028:6459   */\n  pop\n  pop\n    /* \"#utility.yul\":6013:6459   */\ntag_114:\n    /* \"#utility.yul\":5923:6466   */\n  pop\n  pop\n  pop\n  jump\t// out\n    /* \"#utility.yul\":6472:6589   */\ntag_39:\n    /* \"#utility.yul\":6526:6534   */\n  0x00\n    /* \"#utility.yul\":6576:6581   */\n  dup3\n    /* \"#utility.yul\":6570:6574   */\n  dup3\n    /* \"#utility.yul\":6566:6582   */\n  shr\n    /* \"#utility.yul\":6545:6582   */\n  swap1\n  pop\n    /* \"#utility.yul\":6472:6589   */\n  swap3\n  swap2\n  pop\n  pop\n  jump\t// out\n    /* \"#utility.yul\":6595:6764   */\ntag_40:\n    /* \"#utility.yul\":6639:6645   */\n  0x00\n    /* \"#utility.yul\":6672:6723   */\n  tag_122\n    /* \"#utility.yul\":6720:6721   */\n  0x00\n    /* \"#utility.yul\":6716:6722   */\n  not\n    /* \"#utility.yul\":6708:6713   */\n  dup5\n    /* \"#utility.yul\":6705:6706   */\n  0x08\n    /* \"#utility.yul\":6701:6714   */\n  mul\n    /* \"#utility.yul\":6672:6723   */\n  tag_39\n  jump\t// in\ntag_122:\n    /* \"#utility.yul\":6668:6724   */\n  not\n    /* \"#utility.yul\":6753:6757   */\n  dup1\n    /* \"#utility.yul\":6747:6751   */\n  dup4\n    /* \"#utility.yul\":6743:6758   */\n  and\n    /* \"#utility.yul\":6733:6758   */\n  swap2\n  pop\n    /* \"#utility.yul\":6646:6764   */\n  pop\n    /* \"#utility.yul\":6595:6764   */\n  swap3\n  swap2\n  pop\n  pop\n  jump\t// out\n    /* \"#utility.yul\":6769:7064   */\ntag_41:\n    /* \"#utility.yul\":6845:6849   */\n  0x00\n    /* \"#utility.yul\":6991:7020   */\n  tag_124\n    /* \"#utility.yul\":7016:7019   */\n  dup4\n    /* \"#utility.yul\":7010:7014   */\n  dup4\n    /* \"#utility.yul\":6991:7020   */\n  tag_40\n  jump\t// in\ntag_124:\n    /* \"#utility.yul\":6983:7020   */\n  swap2\n  pop\n    /* \"#utility.yul\":7053:7056   */\n  dup3\n    /* \"#utility.yul\":7050:7051   */\n  0x02\n    /* \"#utility.yul\":7046:7057   */\n  mul\n    /* \"#utility.yul\":7040:7044   */\n  dup3\n    /* \"#utility.yul\":7037:7058   */\n  or\n    /* \"#utility.yul\":7029:7058   */\n  swap1\n  pop\n    /* \"#utility.yul\":6769:7064   */\n  swap3\n  swap2\n  pop\n  pop\n  jump\t// out\n    /* \"#utility.yul\":7069:8464   */\ntag_7:\n    /* \"#utility.yul\":7186:7223   */\n  tag_126\n    /* \"#utility.yul\":7219:7222   */\n  dup3\n    /* \"#utility.yul\":7186:7223   */\n  tag_23\n  jump\t// in\ntag_126:\n    /* \"#utility.yul\":7288:7306   */\n  0xffffffffffffffff\n    /* \"#utility.yul\":7280:7286   */\n  dup2\n    /* \"#utility.yul\":7277:7307   */\n  gt\n    /* \"#utility.yul\":7274:7330   */\n  iszero\n  tag_127\n  jumpi\n    /* \"#utility.yul\":7310:7328   */\n  tag_128\n  tag_16\n  jump\t// in\ntag_128:\n    /* \"#utility.yul\":7274:7330   */\ntag_127:\n    /* \"#utility.yul\":7354:7392   */\n  tag_129\n    /* \"#utility.yul\":7386:7390   */\n  dup3\n    /* \"#utility.yul\":7380:7391   */\n  sload\n    /* \"#utility.yul\":7354:7392   */\n  tag_25\n  jump\t// in\ntag_129:\n    /* \"#utility.yul\":7439:7506   */\n  tag_130\n    /* \"#utility.yul\":7499:7505   */\n  dup3\n    /* \"#utility.yul\":7491:7497   */\n  dup3\n    /* \"#utility.yul\":7485:7489   */\n  dup6\n    /* \"#utility.yul\":7439:7506   */\n  tag_38\n  jump\t// in\ntag_130:\n    /* \"#utility.yul\":7533:7534   */\n  0x00\n    /* \"#utility.yul\":7557:7561   */\n  0x20\n    /* \"#utility.yul\":7544:7561   */\n  swap1\n  pop\n    /* \"#utility.yul\":7589:7591   */\n  0x1f\n    /* \"#utility.yul\":7581:7587   */\n  dup4\n    /* \"#utility.yul\":7578:7592   */\n  gt\n    /* \"#utility.yul\":7606:7607   */\n  0x01\n    /* \"#utility.yul\":7601:8219   */\n  dup2\n  eq\n  tag_132\n  jumpi\n    /* \"#utility.yul\":8263:8264   */\n  0x00\n    /* \"#utility.yul\":8280:8286   */\n  dup5\n    /* \"#utility.yul\":8277:8354   */\n  iszero\n  tag_133\n  jumpi\n    /* \"#utility.yul\":8329:8338   */\n  dup3\n    /* \"#utility.yul\":8324:8327   */\n  dup8\n    /* \"#utility.yul\":8320:8339   */\n  add\n    /* \"#utility.yul\":8314:8340   */\n  mload\n    /* \"#utility.yul\":8305:8340   */\n  swap1\n  pop\n    /* \"#utility.yul\":8277:8354   */\ntag_133:\n    /* \"#utility.yul\":8380:8447   */\n  tag_134\n    /* \"#utility.yul\":8440:8446   */\n  dup6\n    /* \"#utility.yul\":8433:8438   */\n  dup3\n    /* \"#utility.yul\":8380:8447   */\n  tag_41\n  jump\t// in\ntag_134:\n    /* \"#utility.yul\":8374:8378   */\n  dup7\n    /* \"#utility.yul\":8367:8448   */\n  sstore\n    /* \"#utility.yul\":8236:8458   */\n  pop\n    /* \"#utility.yul\":7571:8458   */\n  jump(tag_131)\n    /* \"#utility.yul\":7601:8219   */\ntag_132:\n    /* \"#utility.yul\":7653:7657   */\n  0x1f\n    /* \"#utility.yul\":7649:7658   */\n  not\n    /* \"#utility.yul\":7641:7647   */\n  dup5\n    /* \"#utility.yul\":7637:7659   */\n  and\n    /* \"#utility.yul\":7687:7724   */\n  tag_135\n    /* \"#utility.yul\":7719:7723   */\n  dup7\n    /* \"#utility.yul\":7687:7724   */\n  tag_26\n  jump\t// in\ntag_135:\n    /* \"#utility.yul\":7746:7747   */\n  0x00\n    /* \"#utility.yul\":7760:7968   */\ntag_136:\n    /* \"#utility.yul\":7774:7781   */\n  dup3\n    /* \"#utility.yul\":7771:7772   */\n  dup2\n    /* \"#utility.yul\":7768:7782   */\n  lt\n    /* \"#utility.yul\":7760:7968   */\n  iszero\n  tag_138\n  jumpi\n    /* \"#utility.yul\":7853:7862   */\n  dup5\n    /* \"#utility.yul\":7848:7851   */\n  dup10\n    /* \"#utility.yul\":7844:7863   */\n  add\n    /* \"#utility.yul\":7838:7864   */\n  mload\n    /* \"#utility.yul\":7830:7836   */\n  dup3\n    /* \"#utility.yul\":7823:7865   */\n  sstore\n    /* \"#utility.yul\":7904:7905   */\n  0x01\n    /* \"#utility.yul\":7896:7902   */\n  dup3\n    /* \"#utility.yul\":7892:7906   */\n  add\n    /* \"#utility.yul\":7882:7906   */\n  swap2\n  pop\n    /* \"#utility.yul\":7951:7953   */\n  0x20\n    /* \"#utility.yul\":7940:7949   */\n  dup6\n    /* \"#utility.yul\":7936:7954   */\n  add\n    /* \"#utility.yul\":7923:7954   */\n  swap5\n  pop\n    /* \"#utility.yul\":7797:7801   */\n  0x20\n    /* \"#utility.yul\":7794:7795   */\n  dup2\n    /* \"#utility.yul\":7790:7802   */\n  add\n    /* \"#utility.yul\":7785:7802   */\n  swap1\n  pop\n    /* \"#utility.yul\":7760:7968   */\n  jump(tag_136)\ntag_138:\n    /* \"#utility.yul\":7996:8002   */\n  dup7\n    /* \"#utility.yul\":7987:7994   */\n  dup4\n    /* \"#utility.yul\":7984:8003   */\n  lt\n    /* \"#utility.yul\":7981:8160   */\n  iszero\n  tag_139\n  jumpi\n    /* \"#utility.yul\":8054:8063   */\n  dup5\n    /* \"#utility.yul\":8049:8052   */\n  dup10\n    /* \"#utility.yul\":8045:8064   */\n  add\n    /* \"#utility.yul\":8039:8065   */\n  mload\n    /* \"#utility.yul\":8097:8145   */\n  tag_140\n    /* \"#utility.yul\":8139:8143   */\n  0x1f\n    /* \"#utility.yul\":8131:8137   */\n  dup10\n    /* \"#utility.yul\":8127:8144   */\n  and\n    /* \"#utility.yul\":8116:8125   */\n  dup3\n    /* \"#utility.yul\":8097:8145   */\n  tag_40\n  jump\t// in\ntag_140:\n    /* \"#utility.yul\":8089:8095   */\n  dup4\n    /* \"#utility.yul\":8082:8146   */\n  sstore\n    /* \"#utility.yul\":8004:8160   */\n  pop\n    /* \"#utility.yul\":7981:8160   */\ntag_139:\n    /* \"#utility.yul\":8206:8207   */\n  0x01\n    /* \"#utility.yul\":8202:8203   */\n  0x02\n    /* \"#utility.yul\":8194:8200   */\n  dup9\n    /* \"#utility.yul\":8190:8204   */\n  mul\n    /* \"#utility.yul\":8186:8208   */\n  add\n    /* \"#utility.yul\":8180:8184   */\n  dup9\n    /* \"#utility.yul\":8173:8209   */\n  sstore\n    /* \"#utility.yul\":7608:8219   */\n  pop\n  pop\n  pop\n    /* \"#utility.yul\":7571:8458   */\ntag_131:\n  pop\n    /* \"#utility.yul\":7161:8464   */\n  pop\n  pop\n  pop\n    /* \"#utility.yul\":7069:8464   */\n  pop\n  pop\n  jump\t// out\n    /* \"34_ERC721/ERC721.sol\":262:7684  contract ERC721 is IERC721, IERC721Metadata {... */\ntag_9:\n  dataSize(sub_0)\n  dup1\n  dataOffset(sub_0)\n  0x00\n  codecopy\n  0x00\n  return\nstop\n\nsub_0: assembly {\n        /* \"34_ERC721/ERC721.sol\":262:7684  contract ERC721 is IERC721, IERC721Metadata {... */\n      mstore(0x40, 0x80)\n      callvalue\n      dup1\n      iszero\n      tag_1\n      jumpi\n      revert(0x00, 0x00)\n    tag_1:\n      pop\n      jumpi(tag_2, lt(calldatasize, 0x04))\n      shr(0xe0, calldataload(0x00))\n      dup1\n      0x95d89b41\n      gt\n      tag_20\n      jumpi\n      dup1\n      0xc3354402\n      gt\n      tag_21\n      jumpi\n      dup1\n      0xc3354402\n      eq\n      tag_15\n      jumpi\n      dup1\n      0xc87b56dd\n      eq\n      tag_16\n      jumpi\n      dup1\n      0xedc3bc3f\n      eq\n      tag_17\n      jumpi\n      dup1\n      0xfebe4909\n      eq\n      tag_18\n      jumpi\n      dup1\n      0xffb74e64\n      eq\n      tag_19\n      jumpi\n      jump(tag_2)\n    tag_21:\n      dup1\n      0x95d89b41\n      eq\n      tag_11\n      jumpi\n      dup1\n      0x992924a6\n      eq\n      tag_12\n      jumpi\n      dup1\n      0xa7cc0136\n      eq\n      tag_13\n      jumpi\n      dup1\n      0xb88d4fde\n      eq\n      tag_14\n      jumpi\n      jump(tag_2)\n    tag_20:\n      dup1\n      0x42842e0e\n      gt\n      tag_22\n      jumpi\n      dup1\n      0x42842e0e\n      eq\n      tag_7\n      jumpi\n      dup1\n      0x6352211e\n      eq\n      tag_8\n      jumpi\n      dup1\n      0x6ebcf607\n      eq\n      tag_9\n      jumpi\n      dup1\n      0x70a08231\n      eq\n      tag_10\n      jumpi\n      jump(tag_2)\n    tag_22:\n      dup1\n      0x01ffc9a7\n      eq\n      tag_3\n      jumpi\n      dup1\n      0x06fdde03\n      eq\n      tag_4\n      jumpi\n      dup1\n      0x081812fc\n      eq\n      tag_5\n      jumpi\n      dup1\n      0x23b872dd\n      eq\n      tag_6\n      jumpi\n    tag_2:\n      revert(0x00, 0x00)\n        /* \"34_ERC721/ERC721.sol\":1128:1425  function supportsInterface(bytes4 interfaceId) external pure override returns (bool){... */\n    tag_3:\n      tag_23\n      0x04\n      dup1\n      calldatasize\n      sub\n      dup2\n      add\n      swap1\n      tag_24\n      swap2\n      swap1\n      tag_25\n      jump\t// in\n    tag_24:\n      tag_26\n      jump\t// in\n    tag_23:\n      mload(0x40)\n      tag_27\n      swap2\n      swap1\n      tag_28\n      jump\t// in\n    tag_27:\n      mload(0x40)\n      dup1\n      swap2\n      sub\n      swap1\n      return\n        /* \"34_ERC721/ERC721.sol\":347:374  string public override name */\n    tag_4:\n      tag_29\n      tag_30\n      jump\t// in\n    tag_29:\n      mload(0x40)\n      tag_31\n      swap2\n      swap1\n      tag_32\n      jump\t// in\n    tag_31:\n      mload(0x40)\n      dup1\n      swap2\n      sub\n      swap1\n      return\n        /* \"34_ERC721/ERC721.sol\":3461:3748  function getApproved(uint256 tokenId) external view override returns (address operator) {... */\n    tag_5:\n      tag_33\n      0x04\n      dup1\n      calldatasize\n      sub\n      dup2\n      add\n      swap1\n      tag_34\n      swap2\n      swap1\n      tag_35\n      jump\t// in\n    tag_34:\n      tag_36\n      jump\t// in\n    tag_33:\n      mload(0x40)\n      tag_37\n      swap2\n      swap1\n      tag_38\n      jump\t// in\n    tag_37:\n      mload(0x40)\n      dup1\n      swap2\n      sub\n      swap1\n      return\n        /* \"34_ERC721/ERC721.sol\":2598:2905  function transferFrom (address from, address to, uint256 tokenId) external override {... */\n    tag_6:\n      tag_39\n      0x04\n      dup1\n      calldatasize\n      sub\n      dup2\n      add\n      swap1\n      tag_40\n      swap2\n      swap1\n      tag_41\n      jump\t// in\n    tag_40:\n      tag_42\n      jump\t// in\n    tag_39:\n      stop\n        /* \"34_ERC721/ERC721.sol\":2218:2590  function safeTransferFrom(address from, address to, uint256 tokenId) external override {... */\n    tag_7:\n      tag_43\n      0x04\n      dup1\n      calldatasize\n      sub\n      dup2\n      add\n      swap1\n      tag_44\n      swap2\n      swap1\n      tag_41\n      jump\t// in\n    tag_44:\n      tag_45\n      jump\t// in\n    tag_43:\n      stop\n        /* \"34_ERC721/ERC721.sol\":1630:1815  function ownerOf(uint tokenId) public view override returns (address owner){... */\n    tag_8:\n      tag_46\n      0x04\n      dup1\n      calldatasize\n      sub\n      dup2\n      add\n      swap1\n      tag_47\n      swap2\n      swap1\n      tag_35\n      jump\t// in\n    tag_47:\n      tag_48\n      jump\t// in\n    tag_46:\n      mload(0x40)\n      tag_49\n      swap2\n      swap1\n      tag_38\n      jump\t// in\n    tag_49:\n      mload(0x40)\n      dup1\n      swap2\n      sub\n      swap1\n      return\n        /* \"34_ERC721/ERC721.sol\":469:514  mapping(address => uint256 ) public _balances */\n    tag_9:\n      tag_50\n      0x04\n      dup1\n      calldatasize\n      sub\n      dup2\n      add\n      swap1\n      tag_51\n      swap2\n      swap1\n      tag_52\n      jump\t// in\n    tag_51:\n      tag_53\n      jump\t// in\n    tag_50:\n      mload(0x40)\n      tag_54\n      swap2\n      swap1\n      tag_55\n      jump\t// in\n    tag_54:\n      mload(0x40)\n      dup1\n      swap2\n      sub\n      swap1\n      return\n        /* \"34_ERC721/ERC721.sol\":1433:1622  function balanceOf (address owner) external view override returns (uint256 balance) {... */\n    tag_10:\n      tag_56\n      0x04\n      dup1\n      calldatasize\n      sub\n      dup2\n      add\n      swap1\n      tag_57\n      swap2\n      swap1\n      tag_52\n      jump\t// in\n    tag_57:\n      tag_58\n      jump\t// in\n    tag_56:\n      mload(0x40)\n      tag_59\n      swap2\n      swap1\n      tag_55\n      jump\t// in\n    tag_59:\n      mload(0x40)\n      dup1\n      swap2\n      sub\n      swap1\n      return\n        /* \"34_ERC721/ERC721.sol\":381:410  string public override symbol */\n    tag_11:\n      tag_60\n      tag_61\n      jump\t// in\n    tag_60:\n      mload(0x40)\n      tag_62\n      swap2\n      swap1\n      tag_32\n      jump\t// in\n    tag_62:\n      mload(0x40)\n      dup1\n      swap2\n      sub\n      swap1\n      return\n        /* \"34_ERC721/ERC721.sol\":419:462  mapping(uint256 => address ) public _owners */\n    tag_12:\n      tag_63\n      0x04\n      dup1\n      calldatasize\n      sub\n      dup2\n      add\n      swap1\n      tag_64\n      swap2\n      swap1\n      tag_35\n      jump\t// in\n    tag_64:\n      tag_65\n      jump\t// in\n    tag_63:\n      mload(0x40)\n      tag_66\n      swap2\n      swap1\n      tag_38\n      jump\t// in\n    tag_66:\n      mload(0x40)\n      dup1\n      swap2\n      sub\n      swap1\n      return\n        /* \"34_ERC721/ERC721.sol\":521:572  mapping(uint256 => address ) public _tokenApprovals */\n    tag_13:\n      tag_67\n      0x04\n      dup1\n      calldatasize\n      sub\n      dup2\n      add\n      swap1\n      tag_68\n      swap2\n      swap1\n      tag_35\n      jump\t// in\n    tag_68:\n      tag_69\n      jump\t// in\n    tag_67:\n      mload(0x40)\n      tag_70\n      swap2\n      swap1\n      tag_38\n      jump\t// in\n    tag_70:\n      mload(0x40)\n      dup1\n      swap2\n      sub\n      swap1\n      return\n        /* \"34_ERC721/ERC721.sol\":1823:2210  function safeTransferFrom(address from, address to, uint256 tokenId, bytes calldata data) external override {... */\n    tag_14:\n      tag_71\n      0x04\n      dup1\n      calldatasize\n      sub\n      dup2\n      add\n      swap1\n      tag_72\n      swap2\n      swap1\n      tag_73\n      jump\t// in\n    tag_72:\n      tag_74\n      jump\t// in\n    tag_71:\n      stop\n        /* \"34_ERC721/ERC721.sol\":3247:3453  function setApproveAll(address operator, bool approved) external override {... */\n    tag_15:\n      tag_75\n      0x04\n      dup1\n      calldatasize\n      sub\n      dup2\n      add\n      swap1\n      tag_76\n      swap2\n      swap1\n      tag_77\n      jump\t// in\n    tag_76:\n      tag_78\n      jump\t// in\n    tag_75:\n      stop\n        /* \"34_ERC721/ERC721.sol\":5811:6127  function tokenURI(uint256 tokenId) public view virtual override returns (string memory) {... */\n    tag_16:\n      tag_79\n      0x04\n      dup1\n      calldatasize\n      sub\n      dup2\n      add\n      swap1\n      tag_80\n      swap2\n      swap1\n      tag_35\n      jump\t// in\n    tag_80:\n      tag_81\n      jump\t// in\n    tag_79:\n      mload(0x40)\n      tag_82\n      swap2\n      swap1\n      tag_32\n      jump\t// in\n    tag_82:\n      mload(0x40)\n      dup1\n      swap2\n      sub\n      swap1\n      return\n        /* \"34_ERC721/ERC721.sol\":579:649  mapping(address => mapping(address => bool)) public _operatorApprovals */\n    tag_17:\n      tag_83\n      0x04\n      dup1\n      calldatasize\n      sub\n      dup2\n      add\n      swap1\n      tag_84\n      swap2\n      swap1\n      tag_85\n      jump\t// in\n    tag_84:\n      tag_86\n      jump\t// in\n    tag_83:\n      mload(0x40)\n      tag_87\n      swap2\n      swap1\n      tag_28\n      jump\t// in\n    tag_87:\n      mload(0x40)\n      dup1\n      swap2\n      sub\n      swap1\n      return\n        /* \"34_ERC721/ERC721.sol\":2913:3239  function approve(uint256 tokenId, address operator) external override{... */\n    tag_18:\n      tag_88\n      0x04\n      dup1\n      calldatasize\n      sub\n      dup2\n      add\n      swap1\n      tag_89\n      swap2\n      swap1\n      tag_90\n      jump\t// in\n    tag_89:\n      tag_91\n      jump\t// in\n    tag_88:\n      stop\n        /* \"34_ERC721/ERC721.sol\":3756:3901  function isApprovedAll(address operator) external view override returns (bool) {... */\n    tag_19:\n      tag_92\n      0x04\n      dup1\n      calldatasize\n      sub\n      dup2\n      add\n      swap1\n      tag_93\n      swap2\n      swap1\n      tag_52\n      jump\t// in\n    tag_93:\n      tag_94\n      jump\t// in\n    tag_92:\n      mload(0x40)\n      tag_95\n      swap2\n      swap1\n      tag_28\n      jump\t// in\n    tag_95:\n      mload(0x40)\n      dup1\n      swap2\n      sub\n      swap1\n      return\n        /* \"34_ERC721/ERC721.sol\":1128:1425  function supportsInterface(bytes4 interfaceId) external pure override returns (bool){... */\n    tag_26:\n        /* \"34_ERC721/ERC721.sol\":1207:1211  bool */\n      0x00\n        /* \"34_ERC721/ERC721.sol\":1262:1287  type(IERC721).interfaceId */\n      0x67e1b100000000000000000000000000000000000000000000000000000000\n        /* \"34_ERC721/ERC721.sol\":1247:1287  interfaceId == type(IERC721).interfaceId */\n      not(0xffffffffffffffffffffffffffffffffffffffffffffffffffffffff)\n      and\n        /* \"34_ERC721/ERC721.sol\":1247:1258  interfaceId */\n      dup3\n        /* \"34_ERC721/ERC721.sol\":1247:1287  interfaceId == type(IERC721).interfaceId */\n      not(0xffffffffffffffffffffffffffffffffffffffffffffffffffffffff)\n      and\n      eq\n        /* \"34_ERC721/ERC721.sol\":1247:1348  interfaceId == type(IERC721).interfaceId ||... */\n      dup1\n      tag_97\n      jumpi\n      pop\n        /* \"34_ERC721/ERC721.sol\":1323:1348  type(IERC165).interfaceId */\n      0x01ffc9a700000000000000000000000000000000000000000000000000000000\n        /* \"34_ERC721/ERC721.sol\":1308:1348  interfaceId == type(IERC165).interfaceId */\n      not(0xffffffffffffffffffffffffffffffffffffffffffffffffffffffff)\n      and\n        /* \"34_ERC721/ERC721.sol\":1308:1319  interfaceId */\n      dup3\n        /* \"34_ERC721/ERC721.sol\":1308:1348  interfaceId == type(IERC165).interfaceId */\n      not(0xffffffffffffffffffffffffffffffffffffffffffffffffffffffff)\n      and\n      eq\n        /* \"34_ERC721/ERC721.sol\":1247:1348  interfaceId == type(IERC721).interfaceId ||... */\n    tag_97:\n        /* \"34_ERC721/ERC721.sol\":1247:1417  interfaceId == type(IERC721).interfaceId ||... */\n      dup1\n      tag_98\n      jumpi\n      pop\n        /* \"34_ERC721/ERC721.sol\":1384:1417  type(IERC721Metadata).interfaceId */\n      0x5b5e139f00000000000000000000000000000000000000000000000000000000\n        /* \"34_ERC721/ERC721.sol\":1369:1417  interfaceId == type(IERC721Metadata).interfaceId */\n      not(0xffffffffffffffffffffffffffffffffffffffffffffffffffffffff)\n      and\n        /* \"34_ERC721/ERC721.sol\":1369:1380  interfaceId */\n      dup3\n        /* \"34_ERC721/ERC721.sol\":1369:1417  interfaceId == type(IERC721Metadata).interfaceId */\n      not(0xffffffffffffffffffffffffffffffffffffffffffffffffffffffff)\n      and\n      eq\n        /* \"34_ERC721/ERC721.sol\":1247:1417  interfaceId == type(IERC721).interfaceId ||... */\n    tag_98:\n        /* \"34_ERC721/ERC721.sol\":1223:1417  return... */\n      swap1\n      pop\n        /* \"34_ERC721/ERC721.sol\":1128:1425  function supportsInterface(bytes4 interfaceId) external pure override returns (bool){... */\n      swap2\n      swap1\n      pop\n      jump\t// out\n        /* \"34_ERC721/ERC721.sol\":347:374  string public override name */\n    tag_30:\n      0x00\n      dup1\n      sload\n      tag_99\n      swap1\n      tag_100\n      jump\t// in\n    tag_99:\n      dup1\n      0x1f\n      add\n      0x20\n      dup1\n      swap2\n      div\n      mul\n      0x20\n      add\n      mload(0x40)\n      swap1\n      dup2\n      add\n      0x40\n      mstore\n      dup1\n      swap3\n      swap2\n      swap1\n      dup2\n      dup2\n      mstore\n      0x20\n      add\n      dup3\n      dup1\n      sload\n      tag_101\n      swap1\n      tag_100\n      jump\t// in\n    tag_101:\n      dup1\n      iszero\n      tag_102\n      jumpi\n      dup1\n      0x1f\n      lt\n      tag_103\n      jumpi\n      0x0100\n      dup1\n      dup4\n      sload\n      div\n      mul\n      dup4\n      mstore\n      swap2\n      0x20\n      add\n      swap2\n      jump(tag_102)\n    tag_103:\n      dup3\n      add\n      swap2\n      swap1\n      0x00\n      mstore\n      keccak256(0x00, 0x20)\n      swap1\n    tag_104:\n      dup2\n      sload\n      dup2\n      mstore\n      swap1\n      0x01\n      add\n      swap1\n      0x20\n      add\n      dup1\n      dup4\n      gt\n      tag_104\n      jumpi\n      dup3\n      swap1\n      sub\n      0x1f\n      and\n      dup3\n      add\n      swap2\n    tag_102:\n      pop\n      pop\n      pop\n      pop\n      pop\n      dup2\n      jump\t// out\n        /* \"34_ERC721/ERC721.sol\":3461:3748  function getApproved(uint256 tokenId) external view override returns (address operator) {... */\n    tag_36:\n        /* \"34_ERC721/ERC721.sol\":3531:3547  address operator */\n      0x00\n        /* \"34_ERC721/ERC721.sol\":3597:3598  0 */\n      0x00\n        /* \"34_ERC721/ERC721.sol\":3569:3599  ownerOf(tokenId) != address(0) */\n      0xffffffffffffffffffffffffffffffffffffffff\n      and\n        /* \"34_ERC721/ERC721.sol\":3569:3585  ownerOf(tokenId) */\n      tag_106\n        /* \"34_ERC721/ERC721.sol\":3577:3584  tokenId */\n      dup4\n        /* \"34_ERC721/ERC721.sol\":3569:3576  ownerOf */\n      tag_48\n        /* \"34_ERC721/ERC721.sol\":3569:3585  ownerOf(tokenId) */\n      jump\t// in\n    tag_106:\n        /* \"34_ERC721/ERC721.sol\":3569:3599  ownerOf(tokenId) != address(0) */\n      0xffffffffffffffffffffffffffffffffffffffff\n      and\n      sub\n        /* \"34_ERC721/ERC721.sol\":3560:3604  require (ownerOf(tokenId) != address(0), \"\") */\n      tag_107\n      jumpi\n      mload(0x40)\n      0x08c379a000000000000000000000000000000000000000000000000000000000\n      dup2\n      mstore\n      0x04\n      add\n      tag_108\n      swap1\n      tag_109\n      jump\t// in\n    tag_108:\n      mload(0x40)\n      dup1\n      swap2\n      sub\n      swap1\n      revert\n    tag_107:\n        /* \"34_ERC721/ERC721.sol\":3647:3662  _tokenApprovals */\n      0x04\n        /* \"34_ERC721/ERC721.sol\":3647:3671  _tokenApprovals[tokenId] */\n      0x00\n        /* \"34_ERC721/ERC721.sol\":3663:3670  tokenId */\n      dup4\n        /* \"34_ERC721/ERC721.sol\":3647:3671  _tokenApprovals[tokenId] */\n      dup2\n      mstore\n      0x20\n      add\n      swap1\n      dup2\n      mstore\n      0x20\n      add\n      0x00\n      keccak256\n      0x00\n      swap1\n      sload\n      swap1\n      0x0100\n      exp\n      swap1\n      div\n      0xffffffffffffffffffffffffffffffffffffffff\n      and\n        /* \"34_ERC721/ERC721.sol\":3636:3671  operator = _tokenApprovals[tokenId] */\n      swap1\n      pop\n        /* \"34_ERC721/ERC721.sol\":3710:3711  0 */\n      0x00\n        /* \"34_ERC721/ERC721.sol\":3690:3712  operator == address(0) */\n      0xffffffffffffffffffffffffffffffffffffffff\n      and\n        /* \"34_ERC721/ERC721.sol\":3690:3698  operator */\n      dup2\n        /* \"34_ERC721/ERC721.sol\":3690:3712  operator == address(0) */\n      0xffffffffffffffffffffffffffffffffffffffff\n      and\n      eq\n        /* \"34_ERC721/ERC721.sol\":3682:3717  require(operator == address(0), \"\") */\n      tag_110\n      jumpi\n      mload(0x40)\n      0x08c379a000000000000000000000000000000000000000000000000000000000\n      dup2\n      mstore\n      0x04\n      add\n      tag_111\n      swap1\n      tag_109\n      jump\t// in\n    tag_111:\n      mload(0x40)\n      dup1\n      swap2\n      sub\n      swap1\n      revert\n    tag_110:\n        /* \"34_ERC721/ERC721.sol\":3461:3748  function getApproved(uint256 tokenId) external view override returns (address operator) {... */\n      swap2\n      swap1\n      pop\n      jump\t// out\n        /* \"34_ERC721/ERC721.sol\":2598:2905  function transferFrom (address from, address to, uint256 tokenId) external override {... */\n    tag_42:\n        /* \"34_ERC721/ERC721.sol\":2693:2706  address owner */\n      0x00\n        /* \"34_ERC721/ERC721.sol\":2709:2725  ownerOf(tokenId) */\n      tag_113\n        /* \"34_ERC721/ERC721.sol\":2717:2724  tokenId */\n      dup3\n        /* \"34_ERC721/ERC721.sol\":2709:2716  ownerOf */\n      tag_48\n        /* \"34_ERC721/ERC721.sol\":2709:2725  ownerOf(tokenId) */\n      jump\t// in\n    tag_113:\n        /* \"34_ERC721/ERC721.sol\":2693:2725  address owner = ownerOf(tokenId) */\n      swap1\n      pop\n        /* \"34_ERC721/ERC721.sol\":2745:2790  _isApprovedOrOwner(owner, msg.sender,tokenId) */\n      tag_114\n        /* \"34_ERC721/ERC721.sol\":2764:2769  owner */\n      dup2\n        /* \"34_ERC721/ERC721.sol\":2771:2781  msg.sender */\n      caller\n        /* \"34_ERC721/ERC721.sol\":2782:2789  tokenId */\n      dup5\n        /* \"34_ERC721/ERC721.sol\":2745:2763  _isApprovedOrOwner */\n      tag_115\n        /* \"34_ERC721/ERC721.sol\":2745:2790  _isApprovedOrOwner(owner, msg.sender,tokenId) */\n      jump\t// in\n    tag_114:\n        /* \"34_ERC721/ERC721.sol\":2736:2796  require (_isApprovedOrOwner(owner, msg.sender,tokenId) , \"\") */\n      tag_116\n      jumpi\n      mload(0x40)\n      0x08c379a000000000000000000000000000000000000000000000000000000000\n      dup2\n      mstore\n      0x04\n      add\n      tag_117\n      swap1\n      tag_109\n      jump\t// in\n    tag_117:\n      mload(0x40)\n      dup1\n      swap2\n      sub\n      swap1\n      revert\n    tag_116:\n        /* \"34_ERC721/ERC721.sol\":2869:2897  _transfer(from, to, tokenId) */\n      tag_118\n        /* \"34_ERC721/ERC721.sol\":2879:2883  from */\n      dup5\n        /* \"34_ERC721/ERC721.sol\":2885:2887  to */\n      dup5\n        /* \"34_ERC721/ERC721.sol\":2889:2896  tokenId */\n      dup5\n        /* \"34_ERC721/ERC721.sol\":2869:2878  _transfer */\n      tag_119\n        /* \"34_ERC721/ERC721.sol\":2869:2897  _transfer(from, to, tokenId) */\n      jump\t// in\n    tag_118:\n        /* \"34_ERC721/ERC721.sol\":2682:2905  {... */\n      pop\n        /* \"34_ERC721/ERC721.sol\":2598:2905  function transferFrom (address from, address to, uint256 tokenId) external override {... */\n      pop\n      pop\n      pop\n      jump\t// out\n        /* \"34_ERC721/ERC721.sol\":2218:2590  function safeTransferFrom(address from, address to, uint256 tokenId) external override {... */\n    tag_45:\n        /* \"34_ERC721/ERC721.sol\":2316:2329  address owner */\n      0x00\n        /* \"34_ERC721/ERC721.sol\":2332:2348  ownerOf(tokenId) */\n      tag_121\n        /* \"34_ERC721/ERC721.sol\":2340:2347  tokenId */\n      dup3\n        /* \"34_ERC721/ERC721.sol\":2332:2339  ownerOf */\n      tag_48\n        /* \"34_ERC721/ERC721.sol\":2332:2348  ownerOf(tokenId) */\n      jump\t// in\n    tag_121:\n        /* \"34_ERC721/ERC721.sol\":2316:2348  address owner = ownerOf(tokenId) */\n      swap1\n      pop\n        /* \"34_ERC721/ERC721.sol\":2368:2414  _isApprovedOrOwner(owner, msg.sender, tokenId) */\n      tag_122\n        /* \"34_ERC721/ERC721.sol\":2387:2392  owner */\n      dup2\n        /* \"34_ERC721/ERC721.sol\":2394:2404  msg.sender */\n      caller\n        /* \"34_ERC721/ERC721.sol\":2406:2413  tokenId */\n      dup5\n        /* \"34_ERC721/ERC721.sol\":2368:2386  _isApprovedOrOwner */\n      tag_115\n        /* \"34_ERC721/ERC721.sol\":2368:2414  _isApprovedOrOwner(owner, msg.sender, tokenId) */\n      jump\t// in\n    tag_122:\n        /* \"34_ERC721/ERC721.sol\":2359:2420  require (_isApprovedOrOwner(owner, msg.sender, tokenId) , \"\") */\n      tag_123\n      jumpi\n      mload(0x40)\n      0x08c379a000000000000000000000000000000000000000000000000000000000\n      dup2\n      mstore\n      0x04\n      add\n      tag_124\n      swap1\n      tag_109\n      jump\t// in\n    tag_124:\n      mload(0x40)\n      dup1\n      swap2\n      sub\n      swap1\n      revert\n    tag_123:\n        /* \"34_ERC721/ERC721.sol\":2493:2521  _transfer(from, to, tokenId) */\n      tag_125\n        /* \"34_ERC721/ERC721.sol\":2503:2507  from */\n      dup5\n        /* \"34_ERC721/ERC721.sol\":2509:2511  to */\n      dup5\n        /* \"34_ERC721/ERC721.sol\":2513:2520  tokenId */\n      dup5\n        /* \"34_ERC721/ERC721.sol\":2493:2502  _transfer */\n      tag_119\n        /* \"34_ERC721/ERC721.sol\":2493:2521  _transfer(from, to, tokenId) */\n      jump\t// in\n    tag_125:\n        /* \"34_ERC721/ERC721.sol\":2532:2582  _checkERC721Received(from, to, tokenId, bytes(\"\")) */\n      tag_126\n        /* \"34_ERC721/ERC721.sol\":2553:2557  from */\n      dup5\n        /* \"34_ERC721/ERC721.sol\":2559:2561  to */\n      dup5\n        /* \"34_ERC721/ERC721.sol\":2563:2570  tokenId */\n      dup5\n        /* \"34_ERC721/ERC721.sol\":2572:2581  bytes(\"\") */\n      mload(0x40)\n      dup1\n      0x20\n      add\n      0x40\n      mstore\n      dup1\n      0x00\n      dup2\n      mstore\n      pop\n        /* \"34_ERC721/ERC721.sol\":2532:2552  _checkERC721Received */\n      tag_127\n        /* \"34_ERC721/ERC721.sol\":2532:2582  _checkERC721Received(from, to, tokenId, bytes(\"\")) */\n      jump\t// in\n    tag_126:\n        /* \"34_ERC721/ERC721.sol\":2305:2590  {... */\n      pop\n        /* \"34_ERC721/ERC721.sol\":2218:2590  function safeTransferFrom(address from, address to, uint256 tokenId) external override {... */\n      pop\n      pop\n      pop\n      jump\t// out\n        /* \"34_ERC721/ERC721.sol\":1630:1815  function ownerOf(uint tokenId) public view override returns (address owner){... */\n    tag_48:\n        /* \"34_ERC721/ERC721.sol\":1691:1704  address owner */\n      0x00\n        /* \"34_ERC721/ERC721.sol\":1724:1731  _owners */\n      0x02\n        /* \"34_ERC721/ERC721.sol\":1724:1740  _owners[tokenId] */\n      0x00\n        /* \"34_ERC721/ERC721.sol\":1732:1739  tokenId */\n      dup4\n        /* \"34_ERC721/ERC721.sol\":1724:1740  _owners[tokenId] */\n      dup2\n      mstore\n      0x20\n      add\n      swap1\n      dup2\n      mstore\n      0x20\n      add\n      0x00\n      keccak256\n      0x00\n      swap1\n      sload\n      swap1\n      0x0100\n      exp\n      swap1\n      div\n      0xffffffffffffffffffffffffffffffffffffffff\n      and\n        /* \"34_ERC721/ERC721.sol\":1716:1740  owner = _owners[tokenId] */\n      swap1\n      pop\n        /* \"34_ERC721/ERC721.sol\":1777:1778  0 */\n      0x00\n        /* \"34_ERC721/ERC721.sol\":1760:1779  owner != address(0) */\n      0xffffffffffffffffffffffffffffffffffffffff\n      and\n        /* \"34_ERC721/ERC721.sol\":1760:1765  owner */\n      dup2\n        /* \"34_ERC721/ERC721.sol\":1760:1779  owner != address(0) */\n      0xffffffffffffffffffffffffffffffffffffffff\n      and\n      sub\n        /* \"34_ERC721/ERC721.sol\":1751:1784  require (owner != address(0), \"\") */\n      tag_129\n      jumpi\n      mload(0x40)\n      0x08c379a000000000000000000000000000000000000000000000000000000000\n      dup2\n      mstore\n      0x04\n      add\n      tag_130\n      swap1\n      tag_109\n      jump\t// in\n    tag_130:\n      mload(0x40)\n      dup1\n      swap2\n      sub\n      swap1\n      revert\n    tag_129:\n        /* \"34_ERC721/ERC721.sol\":1630:1815  function ownerOf(uint tokenId) public view override returns (address owner){... */\n      swap2\n      swap1\n      pop\n      jump\t// out\n        /* \"34_ERC721/ERC721.sol\":469:514  mapping(address => uint256 ) public _balances */\n    tag_53:\n      mstore(0x20, 0x03)\n      dup1\n      0x00\n      mstore\n      keccak256(0x00, 0x40)\n      0x00\n      swap2\n      pop\n      swap1\n      pop\n      sload\n      dup2\n      jump\t// out\n        /* \"34_ERC721/ERC721.sol\":1433:1622  function balanceOf (address owner) external view override returns (uint256 balance) {... */\n    tag_58:\n        /* \"34_ERC721/ERC721.sol\":1500:1515  uint256 balance */\n      0x00\n        /* \"34_ERC721/ERC721.sol\":1553:1554  0 */\n      0x00\n        /* \"34_ERC721/ERC721.sol\":1536:1555  owner != address(0) */\n      0xffffffffffffffffffffffffffffffffffffffff\n      and\n        /* \"34_ERC721/ERC721.sol\":1536:1541  owner */\n      dup3\n        /* \"34_ERC721/ERC721.sol\":1536:1555  owner != address(0) */\n      0xffffffffffffffffffffffffffffffffffffffff\n      and\n      sub\n        /* \"34_ERC721/ERC721.sol\":1528:1560  require(owner != address(0), \"\") */\n      tag_132\n      jumpi\n      mload(0x40)\n      0x08c379a000000000000000000000000000000000000000000000000000000000\n      dup2\n      mstore\n      0x04\n      add\n      tag_133\n      swap1\n      tag_109\n      jump\t// in\n    tag_133:\n      mload(0x40)\n      dup1\n      swap2\n      sub\n      swap1\n      revert\n    tag_132:\n        /* \"34_ERC721/ERC721.sol\":1598:1607  _balances */\n      0x03\n        /* \"34_ERC721/ERC721.sol\":1598:1614  _balances[owner] */\n      0x00\n        /* \"34_ERC721/ERC721.sol\":1608:1613  owner */\n      dup4\n        /* \"34_ERC721/ERC721.sol\":1598:1614  _balances[owner] */\n      0xffffffffffffffffffffffffffffffffffffffff\n      and\n      0xffffffffffffffffffffffffffffffffffffffff\n      and\n      dup2\n      mstore\n      0x20\n      add\n      swap1\n      dup2\n      mstore\n      0x20\n      add\n      0x00\n      keccak256\n      sload\n        /* \"34_ERC721/ERC721.sol\":1591:1614  return _balances[owner] */\n      swap1\n      pop\n        /* \"34_ERC721/ERC721.sol\":1433:1622  function balanceOf (address owner) external view override returns (uint256 balance) {... */\n      swap2\n      swap1\n      pop\n      jump\t// out\n        /* \"34_ERC721/ERC721.sol\":381:410  string public override symbol */\n    tag_61:\n      0x01\n      dup1\n      sload\n      tag_134\n      swap1\n      tag_100\n      jump\t// in\n    tag_134:\n      dup1\n      0x1f\n      add\n      0x20\n      dup1\n      swap2\n      div\n      mul\n      0x20\n      add\n      mload(0x40)\n      swap1\n      dup2\n      add\n      0x40\n      mstore\n      dup1\n      swap3\n      swap2\n      swap1\n      dup2\n      dup2\n      mstore\n      0x20\n      add\n      dup3\n      dup1\n      sload\n      tag_135\n      swap1\n      tag_100\n      jump\t// in\n    tag_135:\n      dup1\n      iszero\n      tag_136\n      jumpi\n      dup1\n      0x1f\n      lt\n      tag_137\n      jumpi\n      0x0100\n      dup1\n      dup4\n      sload\n      div\n      mul\n      dup4\n      mstore\n      swap2\n      0x20\n      add\n      swap2\n      jump(tag_136)\n    tag_137:\n      dup3\n      add\n      swap2\n      swap1\n      0x00\n      mstore\n      keccak256(0x00, 0x20)\n      swap1\n    tag_138:\n      dup2\n      sload\n      dup2\n      mstore\n      swap1\n      0x01\n      add\n      swap1\n      0x20\n      add\n      dup1\n      dup4\n      gt\n      tag_138\n      jumpi\n      dup3\n      swap1\n      sub\n      0x1f\n      and\n      dup3\n      add\n      swap2\n    tag_136:\n      pop\n      pop\n      pop\n      pop\n      pop\n      dup2\n      jump\t// out\n        /* \"34_ERC721/ERC721.sol\":419:462  mapping(uint256 => address ) public _owners */\n    tag_65:\n      mstore(0x20, 0x02)\n      dup1\n      0x00\n      mstore\n      keccak256(0x00, 0x40)\n      0x00\n      swap2\n      pop\n      sload\n      swap1\n      0x0100\n      exp\n      swap1\n      div\n      0xffffffffffffffffffffffffffffffffffffffff\n      and\n      dup2\n      jump\t// out\n        /* \"34_ERC721/ERC721.sol\":521:572  mapping(uint256 => address ) public _tokenApprovals */\n    tag_69:\n      mstore(0x20, 0x04)\n      dup1\n      0x00\n      mstore\n      keccak256(0x00, 0x40)\n      0x00\n      swap2\n      pop\n      sload\n      swap1\n      0x0100\n      exp\n      swap1\n      div\n      0xffffffffffffffffffffffffffffffffffffffff\n      and\n      dup2\n      jump\t// out\n        /* \"34_ERC721/ERC721.sol\":1823:2210  function safeTransferFrom(address from, address to, uint256 tokenId, bytes calldata data) external override {... */\n    tag_74:\n        /* \"34_ERC721/ERC721.sol\":1942:1955  address owner */\n      0x00\n        /* \"34_ERC721/ERC721.sol\":1958:1974  ownerOf(tokenId) */\n      tag_140\n        /* \"34_ERC721/ERC721.sol\":1966:1973  tokenId */\n      dup5\n        /* \"34_ERC721/ERC721.sol\":1958:1965  ownerOf */\n      tag_48\n        /* \"34_ERC721/ERC721.sol\":1958:1974  ownerOf(tokenId) */\n      jump\t// in\n    tag_140:\n        /* \"34_ERC721/ERC721.sol\":1942:1974  address owner = ownerOf(tokenId) */\n      swap1\n      pop\n        /* \"34_ERC721/ERC721.sol\":1994:2039  _isApprovedOrOwner(owner, msg.sender,tokenId) */\n      tag_141\n        /* \"34_ERC721/ERC721.sol\":2013:2018  owner */\n      dup2\n        /* \"34_ERC721/ERC721.sol\":2020:2030  msg.sender */\n      caller\n        /* \"34_ERC721/ERC721.sol\":2031:2038  tokenId */\n      dup7\n        /* \"34_ERC721/ERC721.sol\":1994:2012  _isApprovedOrOwner */\n      tag_115\n        /* \"34_ERC721/ERC721.sol\":1994:2039  _isApprovedOrOwner(owner, msg.sender,tokenId) */\n      jump\t// in\n    tag_141:\n        /* \"34_ERC721/ERC721.sol\":1985:2045  require (_isApprovedOrOwner(owner, msg.sender,tokenId) , \"\") */\n      tag_142\n      jumpi\n      mload(0x40)\n      0x08c379a000000000000000000000000000000000000000000000000000000000\n      dup2\n      mstore\n      0x04\n      add\n      tag_143\n      swap1\n      tag_109\n      jump\t// in\n    tag_143:\n      mload(0x40)\n      dup1\n      swap2\n      sub\n      swap1\n      revert\n    tag_142:\n        /* \"34_ERC721/ERC721.sol\":2118:2146  _transfer(from, to, tokenId) */\n      tag_144\n        /* \"34_ERC721/ERC721.sol\":2128:2132  from */\n      dup7\n        /* \"34_ERC721/ERC721.sol\":2134:2136  to */\n      dup7\n        /* \"34_ERC721/ERC721.sol\":2138:2145  tokenId */\n      dup7\n        /* \"34_ERC721/ERC721.sol\":2118:2127  _transfer */\n      tag_119\n        /* \"34_ERC721/ERC721.sol\":2118:2146  _transfer(from, to, tokenId) */\n      jump\t// in\n    tag_144:\n        /* \"34_ERC721/ERC721.sol\":2157:2202  _checkERC721Received(from, to, tokenId, data) */\n      tag_145\n        /* \"34_ERC721/ERC721.sol\":2178:2182  from */\n      dup7\n        /* \"34_ERC721/ERC721.sol\":2184:2186  to */\n      dup7\n        /* \"34_ERC721/ERC721.sol\":2188:2195  tokenId */\n      dup7\n        /* \"34_ERC721/ERC721.sol\":2197:2201  data */\n      dup7\n      dup7\n        /* \"34_ERC721/ERC721.sol\":2157:2202  _checkERC721Received(from, to, tokenId, data) */\n      dup1\n      dup1\n      0x1f\n      add\n      0x20\n      dup1\n      swap2\n      div\n      mul\n      0x20\n      add\n      mload(0x40)\n      swap1\n      dup2\n      add\n      0x40\n      mstore\n      dup1\n      swap4\n      swap3\n      swap2\n      swap1\n      dup2\n      dup2\n      mstore\n      0x20\n      add\n      dup4\n      dup4\n      dup1\n      dup3\n      dup5\n      calldatacopy\n      0x00\n      dup2\n      dup5\n      add\n      mstore\n      not(0x1f)\n      0x1f\n      dup3\n      add\n      and\n      swap1\n      pop\n      dup1\n      dup4\n      add\n      swap3\n      pop\n      pop\n      pop\n      pop\n      pop\n      pop\n      pop\n        /* \"34_ERC721/ERC721.sol\":2157:2177  _checkERC721Received */\n      tag_127\n        /* \"34_ERC721/ERC721.sol\":2157:2202  _checkERC721Received(from, to, tokenId, data) */\n      jump\t// in\n    tag_145:\n        /* \"34_ERC721/ERC721.sol\":1931:2210  {... */\n      pop\n        /* \"34_ERC721/ERC721.sol\":1823:2210  function safeTransferFrom(address from, address to, uint256 tokenId, bytes calldata data) external override {... */\n      pop\n      pop\n      pop\n      pop\n      pop\n      jump\t// out\n        /* \"34_ERC721/ERC721.sol\":3247:3453  function setApproveAll(address operator, bool approved) external override {... */\n    tag_78:\n        /* \"34_ERC721/ERC721.sol\":3375:3383  approved */\n      dup1\n        /* \"34_ERC721/ERC721.sol\":3332:3350  _operatorApprovals */\n      0x05\n        /* \"34_ERC721/ERC721.sol\":3332:3362  _operatorApprovals[msg.sender] */\n      0x00\n        /* \"34_ERC721/ERC721.sol\":3351:3361  msg.sender */\n      caller\n        /* \"34_ERC721/ERC721.sol\":3332:3362  _operatorApprovals[msg.sender] */\n      0xffffffffffffffffffffffffffffffffffffffff\n      and\n      0xffffffffffffffffffffffffffffffffffffffff\n      and\n      dup2\n      mstore\n      0x20\n      add\n      swap1\n      dup2\n      mstore\n      0x20\n      add\n      0x00\n      keccak256\n        /* \"34_ERC721/ERC721.sol\":3332:3372  _operatorApprovals[msg.sender][operator] */\n      0x00\n        /* \"34_ERC721/ERC721.sol\":3363:3371  operator */\n      dup5\n        /* \"34_ERC721/ERC721.sol\":3332:3372  _operatorApprovals[msg.sender][operator] */\n      0xffffffffffffffffffffffffffffffffffffffff\n      and\n      0xffffffffffffffffffffffffffffffffffffffff\n      and\n      dup2\n      mstore\n      0x20\n      add\n      swap1\n      dup2\n      mstore\n      0x20\n      add\n      0x00\n      keccak256\n      0x00\n        /* \"34_ERC721/ERC721.sol\":3332:3383  _operatorApprovals[msg.sender][operator] = approved */\n      0x0100\n      exp\n      dup2\n      sload\n      dup2\n      0xff\n      mul\n      not\n      and\n      swap1\n      dup4\n      iszero\n      iszero\n      mul\n      or\n      swap1\n      sstore\n      pop\n        /* \"34_ERC721/ERC721.sol\":3436:3444  approved */\n      dup1\n        /* \"34_ERC721/ERC721.sol\":3399:3445  ApprovalForAll(msg.sender, operator, approved) */\n      iszero\n      iszero\n        /* \"34_ERC721/ERC721.sol\":3426:3434  operator */\n      dup3\n        /* \"34_ERC721/ERC721.sol\":3399:3445  ApprovalForAll(msg.sender, operator, approved) */\n      0xffffffffffffffffffffffffffffffffffffffff\n      and\n        /* \"34_ERC721/ERC721.sol\":3414:3424  msg.sender */\n      caller\n        /* \"34_ERC721/ERC721.sol\":3399:3445  ApprovalForAll(msg.sender, operator, approved) */\n      0xffffffffffffffffffffffffffffffffffffffff\n      and\n      0x17307eab39ab6107e8899845ad3d59bd9653f200f220920489ca2b5937696c31\n      mload(0x40)\n      mload(0x40)\n      dup1\n      swap2\n      sub\n      swap1\n      log4\n        /* \"34_ERC721/ERC721.sol\":3247:3453  function setApproveAll(address operator, bool approved) external override {... */\n      pop\n      pop\n      jump\t// out\n        /* \"34_ERC721/ERC721.sol\":5811:6127  function tokenURI(uint256 tokenId) public view virtual override returns (string memory) {... */\n    tag_81:\n        /* \"34_ERC721/ERC721.sol\":5884:5897  string memory */\n      0x60\n        /* \"34_ERC721/ERC721.sol\":5946:5947  0 */\n      0x00\n        /* \"34_ERC721/ERC721.sol\":5918:5948  _owners[tokenId] != address(0) */\n      0xffffffffffffffffffffffffffffffffffffffff\n      and\n        /* \"34_ERC721/ERC721.sol\":5918:5925  _owners */\n      0x02\n        /* \"34_ERC721/ERC721.sol\":5918:5934  _owners[tokenId] */\n      0x00\n        /* \"34_ERC721/ERC721.sol\":5926:5933  tokenId */\n      dup5\n        /* \"34_ERC721/ERC721.sol\":5918:5934  _owners[tokenId] */\n      dup2\n      mstore\n      0x20\n      add\n      swap1\n      dup2\n      mstore\n      0x20\n      add\n      0x00\n      keccak256\n      0x00\n      swap1\n      sload\n      swap1\n      0x0100\n      exp\n      swap1\n      div\n      0xffffffffffffffffffffffffffffffffffffffff\n      and\n        /* \"34_ERC721/ERC721.sol\":5918:5948  _owners[tokenId] != address(0) */\n      0xffffffffffffffffffffffffffffffffffffffff\n      and\n      sub\n        /* \"34_ERC721/ERC721.sol\":5910:5968  require(_owners[tokenId] != address(0), \"Token Not Exist\") */\n      tag_148\n      jumpi\n      mload(0x40)\n      0x08c379a000000000000000000000000000000000000000000000000000000000\n      dup2\n      mstore\n      0x04\n      add\n      tag_149\n      swap1\n      tag_150\n      jump\t// in\n    tag_149:\n      mload(0x40)\n      dup1\n      swap2\n      sub\n      swap1\n      revert\n    tag_148:\n        /* \"34_ERC721/ERC721.sol\":5981:6002  string memory baseURI */\n      0x00\n        /* \"34_ERC721/ERC721.sol\":6005:6015  _baseURI() */\n      tag_151\n        /* \"34_ERC721/ERC721.sol\":6005:6013  _baseURI */\n      tag_152\n        /* \"34_ERC721/ERC721.sol\":6005:6015  _baseURI() */\n      jump\t// in\n    tag_151:\n        /* \"34_ERC721/ERC721.sol\":5981:6015  string memory baseURI = _baseURI() */\n      swap1\n      pop\n        /* \"34_ERC721/ERC721.sol\":6057:6058  0 */\n      0x00\n        /* \"34_ERC721/ERC721.sol\":6039:6046  baseURI */\n      dup2\n        /* \"34_ERC721/ERC721.sol\":6033:6054  bytes(baseURI).length */\n      mload\n        /* \"34_ERC721/ERC721.sol\":6033:6058  bytes(baseURI).length > 0 */\n      gt\n        /* \"34_ERC721/ERC721.sol\":6033:6119  bytes(baseURI).length > 0 ? string(abi.encodePacked(baseURI, tokenId.toString())) : \"\" */\n      tag_153\n      jumpi\n      mload(0x40)\n      dup1\n      0x20\n      add\n      0x40\n      mstore\n      dup1\n      0x00\n      dup2\n      mstore\n      pop\n      jump(tag_154)\n    tag_153:\n        /* \"34_ERC721/ERC721.sol\":6085:6092  baseURI */\n      dup1\n        /* \"34_ERC721/ERC721.sol\":6094:6112  tokenId.toString() */\n      tag_155\n        /* \"34_ERC721/ERC721.sol\":6094:6101  tokenId */\n      dup5\n        /* \"34_ERC721/ERC721.sol\":6094:6110  tokenId.toString */\n      tag_156\n        /* \"34_ERC721/ERC721.sol\":6094:6112  tokenId.toString() */\n      jump\t// in\n    tag_155:\n        /* \"34_ERC721/ERC721.sol\":6068:6113  abi.encodePacked(baseURI, tokenId.toString()) */\n      add(0x20, mload(0x40))\n      tag_157\n      swap3\n      swap2\n      swap1\n      tag_158\n      jump\t// in\n    tag_157:\n      mload(0x40)\n      0x20\n      dup2\n      dup4\n      sub\n      sub\n      dup2\n      mstore\n      swap1\n      0x40\n      mstore\n        /* \"34_ERC721/ERC721.sol\":6033:6119  bytes(baseURI).length > 0 ? string(abi.encodePacked(baseURI, tokenId.toString())) : \"\" */\n    tag_154:\n        /* \"34_ERC721/ERC721.sol\":6026:6119  return bytes(baseURI).length > 0 ? string(abi.encodePacked(baseURI, tokenId.toString())) : \"\" */\n      swap2\n      pop\n      pop\n        /* \"34_ERC721/ERC721.sol\":5811:6127  function tokenURI(uint256 tokenId) public view virtual override returns (string memory) {... */\n      swap2\n      swap1\n      pop\n      jump\t// out\n        /* \"34_ERC721/ERC721.sol\":579:649  mapping(address => mapping(address => bool)) public _operatorApprovals */\n    tag_86:\n      mstore(0x20, 0x05)\n      dup2\n      0x00\n      mstore\n      mstore(0x20, keccak256(0x00, 0x40))\n      dup1\n      0x00\n      mstore\n      keccak256(0x00, 0x40)\n      0x00\n      swap2\n      pop\n      swap2\n      pop\n      swap1\n      sload\n      swap1\n      0x0100\n      exp\n      swap1\n      div\n      0xff\n      and\n      dup2\n      jump\t// out\n        /* \"34_ERC721/ERC721.sol\":2913:3239  function approve(uint256 tokenId, address operator) external override{... */\n    tag_91:\n        /* \"34_ERC721/ERC721.sol\":2993:3006  address owner */\n      0x00\n        /* \"34_ERC721/ERC721.sol\":3009:3016  _owners */\n      0x02\n        /* \"34_ERC721/ERC721.sol\":3009:3025  _owners[tokenId] */\n      0x00\n        /* \"34_ERC721/ERC721.sol\":3017:3024  tokenId */\n      dup5\n        /* \"34_ERC721/ERC721.sol\":3009:3025  _owners[tokenId] */\n      dup2\n      mstore\n      0x20\n      add\n      swap1\n      dup2\n      mstore\n      0x20\n      add\n      0x00\n      keccak256\n      0x00\n      swap1\n      sload\n      swap1\n      0x0100\n      exp\n      swap1\n      div\n      0xffffffffffffffffffffffffffffffffffffffff\n      and\n        /* \"34_ERC721/ERC721.sol\":2993:3025  address owner = _owners[tokenId] */\n      swap1\n      pop\n        /* \"34_ERC721/ERC721.sol\":3054:3064  msg.sender */\n      caller\n        /* \"34_ERC721/ERC721.sol\":3045:3064  owner == msg.sender */\n      0xffffffffffffffffffffffffffffffffffffffff\n      and\n        /* \"34_ERC721/ERC721.sol\":3045:3050  owner */\n      dup2\n        /* \"34_ERC721/ERC721.sol\":3045:3064  owner == msg.sender */\n      0xffffffffffffffffffffffffffffffffffffffff\n      and\n      eq\n        /* \"34_ERC721/ERC721.sol\":3045:3103  owner == msg.sender || _operatorApprovals[owner][operator] */\n      dup1\n      tag_160\n      jumpi\n      pop\n        /* \"34_ERC721/ERC721.sol\":3068:3086  _operatorApprovals */\n      0x05\n        /* \"34_ERC721/ERC721.sol\":3068:3093  _operatorApprovals[owner] */\n      0x00\n        /* \"34_ERC721/ERC721.sol\":3087:3092  owner */\n      dup3\n        /* \"34_ERC721/ERC721.sol\":3068:3093  _operatorApprovals[owner] */\n      0xffffffffffffffffffffffffffffffffffffffff\n      and\n      0xffffffffffffffffffffffffffffffffffffffff\n      and\n      dup2\n      mstore\n      0x20\n      add\n      swap1\n      dup2\n      mstore\n      0x20\n      add\n      0x00\n      keccak256\n        /* \"34_ERC721/ERC721.sol\":3068:3103  _operatorApprovals[owner][operator] */\n      0x00\n        /* \"34_ERC721/ERC721.sol\":3094:3102  operator */\n      dup4\n        /* \"34_ERC721/ERC721.sol\":3068:3103  _operatorApprovals[owner][operator] */\n      0xffffffffffffffffffffffffffffffffffffffff\n      and\n      0xffffffffffffffffffffffffffffffffffffffff\n      and\n      dup2\n      mstore\n      0x20\n      add\n      swap1\n      dup2\n      mstore\n      0x20\n      add\n      0x00\n      keccak256\n      0x00\n      swap1\n      sload\n      swap1\n      0x0100\n      exp\n      swap1\n      div\n      0xff\n      and\n        /* \"34_ERC721/ERC721.sol\":3045:3103  owner == msg.sender || _operatorApprovals[owner][operator] */\n    tag_160:\n        /* \"34_ERC721/ERC721.sol\":3036:3108  require (owner == msg.sender || _operatorApprovals[owner][operator], \"\") */\n      tag_161\n      jumpi\n      mload(0x40)\n      0x08c379a000000000000000000000000000000000000000000000000000000000\n      dup2\n      mstore\n      0x04\n      add\n      tag_162\n      swap1\n      tag_109\n      jump\t// in\n    tag_162:\n      mload(0x40)\n      dup1\n      swap2\n      sub\n      swap1\n      revert\n    tag_161:\n        /* \"34_ERC721/ERC721.sol\":3178:3186  operator */\n      dup2\n        /* \"34_ERC721/ERC721.sol\":3151:3166  _tokenApprovals */\n      0x04\n        /* \"34_ERC721/ERC721.sol\":3151:3175  _tokenApprovals[tokenId] */\n      0x00\n        /* \"34_ERC721/ERC721.sol\":3167:3174  tokenId */\n      dup6\n        /* \"34_ERC721/ERC721.sol\":3151:3175  _tokenApprovals[tokenId] */\n      dup2\n      mstore\n      0x20\n      add\n      swap1\n      dup2\n      mstore\n      0x20\n      add\n      0x00\n      keccak256\n      0x00\n        /* \"34_ERC721/ERC721.sol\":3151:3186  _tokenApprovals[tokenId] = operator */\n      0x0100\n      exp\n      dup2\n      sload\n      dup2\n      0xffffffffffffffffffffffffffffffffffffffff\n      mul\n      not\n      and\n      swap1\n      dup4\n      0xffffffffffffffffffffffffffffffffffffffff\n      and\n      mul\n      or\n      swap1\n      sstore\n      pop\n        /* \"34_ERC721/ERC721.sol\":3197:3231  _approve(owner, operator, tokenId) */\n      tag_163\n        /* \"34_ERC721/ERC721.sol\":3206:3211  owner */\n      dup2\n        /* \"34_ERC721/ERC721.sol\":3213:3221  operator */\n      dup4\n        /* \"34_ERC721/ERC721.sol\":3223:3230  tokenId */\n      dup6\n        /* \"34_ERC721/ERC721.sol\":3197:3205  _approve */\n      tag_164\n        /* \"34_ERC721/ERC721.sol\":3197:3231  _approve(owner, operator, tokenId) */\n      jump\t// in\n    tag_163:\n        /* \"34_ERC721/ERC721.sol\":2982:3239  {... */\n      pop\n        /* \"34_ERC721/ERC721.sol\":2913:3239  function approve(uint256 tokenId, address operator) external override{... */\n      pop\n      pop\n      jump\t// out\n        /* \"34_ERC721/ERC721.sol\":3756:3901  function isApprovedAll(address operator) external view override returns (bool) {... */\n    tag_94:\n        /* \"34_ERC721/ERC721.sol\":3829:3833  bool */\n      0x00\n        /* \"34_ERC721/ERC721.sol\":3853:3871  _operatorApprovals */\n      0x05\n        /* \"34_ERC721/ERC721.sol\":3853:3883  _operatorApprovals[msg.sender] */\n      0x00\n        /* \"34_ERC721/ERC721.sol\":3872:3882  msg.sender */\n      caller\n        /* \"34_ERC721/ERC721.sol\":3853:3883  _operatorApprovals[msg.sender] */\n      0xffffffffffffffffffffffffffffffffffffffff\n      and\n      0xffffffffffffffffffffffffffffffffffffffff\n      and\n      dup2\n      mstore\n      0x20\n      add\n      swap1\n      dup2\n      mstore\n      0x20\n      add\n      0x00\n      keccak256\n        /* \"34_ERC721/ERC721.sol\":3853:3893  _operatorApprovals[msg.sender][operator] */\n      0x00\n        /* \"34_ERC721/ERC721.sol\":3884:3892  operator */\n      dup4\n        /* \"34_ERC721/ERC721.sol\":3853:3893  _operatorApprovals[msg.sender][operator] */\n      0xffffffffffffffffffffffffffffffffffffffff\n      and\n      0xffffffffffffffffffffffffffffffffffffffff\n      and\n      dup2\n      mstore\n      0x20\n      add\n      swap1\n      dup2\n      mstore\n      0x20\n      add\n      0x00\n      keccak256\n      0x00\n      swap1\n      sload\n      swap1\n      0x0100\n      exp\n      swap1\n      div\n      0xff\n      and\n        /* \"34_ERC721/ERC721.sol\":3846:3893  return _operatorApprovals[msg.sender][operator] */\n      swap1\n      pop\n        /* \"34_ERC721/ERC721.sol\":3756:3901  function isApprovedAll(address operator) external view override returns (bool) {... */\n      swap2\n      swap1\n      pop\n      jump\t// out\n        /* \"34_ERC721/ERC721.sol\":3909:4181  function _isApprovedOrOwner(address owner, address operator, uint256 tokenId) private view returns (bool) {... */\n    tag_115:\n        /* \"34_ERC721/ERC721.sol\":4009:4013  bool */\n      0x00\n        /* \"34_ERC721/ERC721.sol\":4045:4050  owner */\n      dup4\n        /* \"34_ERC721/ERC721.sol\":4033:4050  operator == owner */\n      0xffffffffffffffffffffffffffffffffffffffff\n      and\n        /* \"34_ERC721/ERC721.sol\":4033:4041  operator */\n      dup4\n        /* \"34_ERC721/ERC721.sol\":4033:4050  operator == owner */\n      0xffffffffffffffffffffffffffffffffffffffff\n      and\n      eq\n        /* \"34_ERC721/ERC721.sol\":4033:4103  operator == owner ||... */\n      dup1\n      tag_167\n      jumpi\n      pop\n        /* \"34_ERC721/ERC721.sol\":4095:4103  operator */\n      dup3\n        /* \"34_ERC721/ERC721.sol\":4067:4103  _tokenApprovals[tokenId] == operator */\n      0xffffffffffffffffffffffffffffffffffffffff\n      and\n        /* \"34_ERC721/ERC721.sol\":4067:4082  _tokenApprovals */\n      0x04\n        /* \"34_ERC721/ERC721.sol\":4067:4091  _tokenApprovals[tokenId] */\n      0x00\n        /* \"34_ERC721/ERC721.sol\":4083:4090  tokenId */\n      dup5\n        /* \"34_ERC721/ERC721.sol\":4067:4091  _tokenApprovals[tokenId] */\n      dup2\n      mstore\n      0x20\n      add\n      swap1\n      dup2\n      mstore\n      0x20\n      add\n      0x00\n      keccak256\n      0x00\n      swap1\n      sload\n      swap1\n      0x0100\n      exp\n      swap1\n      div\n      0xffffffffffffffffffffffffffffffffffffffff\n      and\n        /* \"34_ERC721/ERC721.sol\":4067:4103  _tokenApprovals[tokenId] == operator */\n      0xffffffffffffffffffffffffffffffffffffffff\n      and\n      eq\n        /* \"34_ERC721/ERC721.sol\":4033:4103  operator == owner ||... */\n    tag_167:\n        /* \"34_ERC721/ERC721.sol\":4033:4171  operator == owner ||... */\n      dup1\n      tag_168\n      jumpi\n      pop\n        /* \"34_ERC721/ERC721.sol\":4136:4154  _operatorApprovals */\n      0x05\n        /* \"34_ERC721/ERC721.sol\":4136:4161  _operatorApprovals[owner] */\n      0x00\n        /* \"34_ERC721/ERC721.sol\":4155:4160  owner */\n      dup6\n        /* \"34_ERC721/ERC721.sol\":4136:4161  _operatorApprovals[owner] */\n      0xffffffffffffffffffffffffffffffffffffffff\n      and\n      0xffffffffffffffffffffffffffffffffffffffff\n      and\n      dup2\n      mstore\n      0x20\n      add\n      swap1\n      dup2\n      mstore\n      0x20\n      add\n      0x00\n      keccak256\n        /* \"34_ERC721/ERC721.sol\":4136:4171  _operatorApprovals[owner][operator] */\n      0x00\n        /* \"34_ERC721/ERC721.sol\":4162:4170  operator */\n      dup5\n        /* \"34_ERC721/ERC721.sol\":4136:4171  _operatorApprovals[owner][operator] */\n      0xffffffffffffffffffffffffffffffffffffffff\n      and\n      0xffffffffffffffffffffffffffffffffffffffff\n      and\n      dup2\n      mstore\n      0x20\n      add\n      swap1\n      dup2\n      mstore\n      0x20\n      add\n      0x00\n      keccak256\n      0x00\n      swap1\n      sload\n      swap1\n      0x0100\n      exp\n      swap1\n      div\n      0xff\n      and\n        /* \"34_ERC721/ERC721.sol\":4033:4171  operator == owner ||... */\n    tag_168:\n        /* \"34_ERC721/ERC721.sol\":4026:4171  return operator == owner ||... */\n      swap1\n      pop\n        /* \"34_ERC721/ERC721.sol\":3909:4181  function _isApprovedOrOwner(address owner, address operator, uint256 tokenId) private view returns (bool) {... */\n      swap4\n      swap3\n      pop\n      pop\n      pop\n      jump\t// out\n        /* \"34_ERC721/ERC721.sol\":4392:4718  function _transfer (address from, address to, uint256 tokenId) private {... */\n    tag_119:\n        /* \"34_ERC721/ERC721.sol\":4497:4498  0 */\n      0x00\n        /* \"34_ERC721/ERC721.sol\":4483:4499  to != address(0) */\n      0xffffffffffffffffffffffffffffffffffffffff\n      and\n        /* \"34_ERC721/ERC721.sol\":4483:4485  to */\n      dup3\n        /* \"34_ERC721/ERC721.sol\":4483:4499  to != address(0) */\n      0xffffffffffffffffffffffffffffffffffffffff\n      and\n      sub\n        /* \"34_ERC721/ERC721.sol\":4474:4504  require (to != address(0), \"\") */\n      tag_170\n      jumpi\n      mload(0x40)\n      0x08c379a000000000000000000000000000000000000000000000000000000000\n      dup2\n      mstore\n      0x04\n      add\n      tag_171\n      swap1\n      tag_109\n      jump\t// in\n    tag_171:\n      mload(0x40)\n      dup1\n      swap2\n      sub\n      swap1\n      revert\n    tag_170:\n        /* \"34_ERC721/ERC721.sol\":4540:4575  _approve(from, address(0), tokenId) */\n      tag_172\n        /* \"34_ERC721/ERC721.sol\":4549:4553  from */\n      dup4\n        /* \"34_ERC721/ERC721.sol\":4563:4564  0 */\n      0x00\n        /* \"34_ERC721/ERC721.sol\":4567:4574  tokenId */\n      dup4\n        /* \"34_ERC721/ERC721.sol\":4540:4548  _approve */\n      tag_164\n        /* \"34_ERC721/ERC721.sol\":4540:4575  _approve(from, address(0), tokenId) */\n      jump\t// in\n    tag_172:\n        /* \"34_ERC721/ERC721.sol\":4607:4609  to */\n      dup2\n        /* \"34_ERC721/ERC721.sol\":4588:4595  _owners */\n      0x02\n        /* \"34_ERC721/ERC721.sol\":4588:4604  _owners[tokenId] */\n      0x00\n        /* \"34_ERC721/ERC721.sol\":4596:4603  tokenId */\n      dup4\n        /* \"34_ERC721/ERC721.sol\":4588:4604  _owners[tokenId] */\n      dup2\n      mstore\n      0x20\n      add\n      swap1\n      dup2\n      mstore\n      0x20\n      add\n      0x00\n      keccak256\n      0x00\n        /* \"34_ERC721/ERC721.sol\":4588:4609  _owners[tokenId] = to */\n      0x0100\n      exp\n      dup2\n      sload\n      dup2\n      0xffffffffffffffffffffffffffffffffffffffff\n      mul\n      not\n      and\n      swap1\n      dup4\n      0xffffffffffffffffffffffffffffffffffffffff\n      and\n      mul\n      or\n      swap1\n      sstore\n      pop\n        /* \"34_ERC721/ERC721.sol\":4638:4639  1 */\n      0x01\n        /* \"34_ERC721/ERC721.sol\":4620:4629  _balances */\n      0x03\n        /* \"34_ERC721/ERC721.sol\":4620:4635  _balances[from] */\n      0x00\n        /* \"34_ERC721/ERC721.sol\":4630:4634  from */\n      dup6\n        /* \"34_ERC721/ERC721.sol\":4620:4635  _balances[from] */\n      0xffffffffffffffffffffffffffffffffffffffff\n      and\n      0xffffffffffffffffffffffffffffffffffffffff\n      and\n      dup2\n      mstore\n      0x20\n      add\n      swap1\n      dup2\n      mstore\n      0x20\n      add\n      0x00\n      keccak256\n      0x00\n        /* \"34_ERC721/ERC721.sol\":4620:4639  _balances[from] -=1 */\n      dup3\n      dup3\n      sload\n      tag_173\n      swap2\n      swap1\n      tag_174\n      jump\t// in\n    tag_173:\n      swap3\n      pop\n      pop\n      dup2\n      swap1\n      sstore\n      pop\n        /* \"34_ERC721/ERC721.sol\":4666:4667  1 */\n      0x01\n        /* \"34_ERC721/ERC721.sol\":4650:4659  _balances */\n      0x03\n        /* \"34_ERC721/ERC721.sol\":4650:4663  _balances[to] */\n      0x00\n        /* \"34_ERC721/ERC721.sol\":4660:4662  to */\n      dup5\n        /* \"34_ERC721/ERC721.sol\":4650:4663  _balances[to] */\n      0xffffffffffffffffffffffffffffffffffffffff\n      and\n      0xffffffffffffffffffffffffffffffffffffffff\n      and\n      dup2\n      mstore\n      0x20\n      add\n      swap1\n      dup2\n      mstore\n      0x20\n      add\n      0x00\n      keccak256\n      0x00\n        /* \"34_ERC721/ERC721.sol\":4650:4667  _balances[to] -=1 */\n      dup3\n      dup3\n      sload\n      tag_175\n      swap2\n      swap1\n      tag_174\n      jump\t// in\n    tag_175:\n      swap3\n      pop\n      pop\n      dup2\n      swap1\n      sstore\n      pop\n        /* \"34_ERC721/ERC721.sol\":4702:4709  tokenId */\n      dup1\n        /* \"34_ERC721/ERC721.sol\":4698:4700  to */\n      dup3\n        /* \"34_ERC721/ERC721.sol\":4683:4710  Transfer(from, to, tokenId) */\n      0xffffffffffffffffffffffffffffffffffffffff\n      and\n        /* \"34_ERC721/ERC721.sol\":4692:4696  from */\n      dup5\n        /* \"34_ERC721/ERC721.sol\":4683:4710  Transfer(from, to, tokenId) */\n      0xffffffffffffffffffffffffffffffffffffffff\n      and\n      0xddf252ad1be2c89b69c2b068fc378daa952ba7f163c4a11628f55a4df523b3ef\n      mload(0x40)\n      mload(0x40)\n      dup1\n      swap2\n      sub\n      swap1\n      log4\n        /* \"34_ERC721/ERC721.sol\":4392:4718  function _transfer (address from, address to, uint256 tokenId) private {... */\n      pop\n      pop\n      pop\n      jump\t// out\n        /* \"34_ERC721/ERC721.sol\":4914:5718  function _checkERC721Received(address from, address to, uint256 tokenId, bytes memory data) private {... */\n    tag_127:\n        /* \"34_ERC721/ERC721.sol\":5043:5044  0 */\n      0x00\n        /* \"34_ERC721/ERC721.sol\":5028:5030  to */\n      dup4\n        /* \"34_ERC721/ERC721.sol\":5028:5042  to.code.length */\n      0xffffffffffffffffffffffffffffffffffffffff\n      and\n      extcodesize\n        /* \"34_ERC721/ERC721.sol\":5028:5044  to.code.length>0 */\n      gt\n        /* \"34_ERC721/ERC721.sol\":5025:5711  if(to.code.length>0){... */\n      iszero\n      tag_177\n      jumpi\n        /* \"34_ERC721/ERC721.sol\":5080:5082  to */\n      dup3\n        /* \"34_ERC721/ERC721.sol\":5064:5100  IERC721Receiver(to).onERC721Received */\n      0xffffffffffffffffffffffffffffffffffffffff\n      and\n      0x150b7a02\n        /* \"34_ERC721/ERC721.sol\":5101:5111  msg.sender */\n      caller\n        /* \"34_ERC721/ERC721.sol\":5113:5117  from */\n      dup7\n        /* \"34_ERC721/ERC721.sol\":5119:5126  tokenId */\n      dup6\n        /* \"34_ERC721/ERC721.sol\":5128:5132  data */\n      dup6\n        /* \"34_ERC721/ERC721.sol\":5064:5133  IERC721Receiver(to).onERC721Received(msg.sender, from, tokenId, data) */\n      mload(0x40)\n      dup6\n      0xffffffff\n      and\n      0xe0\n      shl\n      dup2\n      mstore\n      0x04\n      add\n      tag_178\n      swap5\n      swap4\n      swap3\n      swap2\n      swap1\n      tag_179\n      jump\t// in\n    tag_178:\n      0x20\n      mload(0x40)\n      dup1\n      dup4\n      sub\n      dup2\n      0x00\n      dup8\n      gas\n      call\n      swap3\n      pop\n      pop\n      pop\n      dup1\n      iszero\n      tag_180\n      jumpi\n      pop\n      mload(0x40)\n      returndatasize\n      not(0x1f)\n      0x1f\n      dup3\n      add\n      and\n      dup3\n      add\n      dup1\n      0x40\n      mstore\n      pop\n      dup2\n      add\n      swap1\n      tag_181\n      swap2\n      swap1\n      tag_182\n      jump\t// in\n    tag_181:\n      0x01\n    tag_180:\n        /* \"34_ERC721/ERC721.sol\":5060:5700  try IERC721Receiver(to).onERC721Received(msg.sender, from, tokenId, data) returns (bytes4 retval) {... */\n      tag_183\n      jumpi\n      returndatasize\n      dup1\n      0x00\n      dup2\n      eq\n      tag_188\n      jumpi\n      mload(0x40)\n      swap2\n      pop\n      and(add(returndatasize, 0x3f), not(0x1f))\n      dup3\n      add\n      0x40\n      mstore\n      returndatasize\n      dup3\n      mstore\n      returndatasize\n      0x00\n      0x20\n      dup5\n      add\n      returndatacopy\n      jump(tag_187)\n    tag_188:\n      0x60\n      swap2\n      pop\n    tag_187:\n      pop\n        /* \"34_ERC721/ERC721.sol\":5392:5393  0 */\n      0x00\n        /* \"34_ERC721/ERC721.sol\":5375:5381  reason */\n      dup2\n        /* \"34_ERC721/ERC721.sol\":5375:5388  reason.length */\n      mload\n        /* \"34_ERC721/ERC721.sol\":5375:5393  reason.length == 0 */\n      sub\n        /* \"34_ERC721/ERC721.sol\":5371:5683  if (reason.length == 0) {... */\n      tag_189\n      jumpi\n        /* \"34_ERC721/ERC721.sol\":5447:5449  to */\n      dup4\n        /* \"34_ERC721/ERC721.sol\":5425:5450  InvaildERC721Receiver(to) */\n      mload(0x40)\n      0xf9ecab6200000000000000000000000000000000000000000000000000000000\n      dup2\n      mstore\n      0x04\n      add\n      tag_190\n      swap2\n      swap1\n      tag_38\n      jump\t// in\n    tag_190:\n      mload(0x40)\n      dup1\n      swap2\n      sub\n      swap1\n      revert\n        /* \"34_ERC721/ERC721.sol\":5371:5683  if (reason.length == 0) {... */\n    tag_189:\n        /* \"34_ERC721/ERC721.sol\":5633:5639  reason */\n      dup1\n        /* \"34_ERC721/ERC721.sol\":5627:5640  mload(reason) */\n      mload\n        /* \"34_ERC721/ERC721.sol\":5618:5624  reason */\n      dup2\n        /* \"34_ERC721/ERC721.sol\":5614:5616  32 */\n      0x20\n        /* \"34_ERC721/ERC721.sol\":5610:5625  add(32, reason) */\n      add\n        /* \"34_ERC721/ERC721.sol\":5603:5641  revert(add(32, reason), mload(reason)) */\n      revert\n        /* \"34_ERC721/ERC721.sol\":5060:5700  try IERC721Receiver(to).onERC721Received(msg.sender, from, tokenId, data) returns (bytes4 retval) {... */\n    tag_183:\n        /* \"34_ERC721/ERC721.sol\":5191:5232  IERC721Receiver.onERC721Received.selector */\n      shl(0xe0, 0x150b7a02)\n        /* \"34_ERC721/ERC721.sol\":5181:5232  retval != IERC721Receiver.onERC721Received.selector */\n      not(0xffffffffffffffffffffffffffffffffffffffffffffffffffffffff)\n      and\n        /* \"34_ERC721/ERC721.sol\":5181:5187  retval */\n      dup2\n        /* \"34_ERC721/ERC721.sol\":5181:5232  retval != IERC721Receiver.onERC721Received.selector */\n      not(0xffffffffffffffffffffffffffffffffffffffffffffffffffffffff)\n      and\n      eq\n        /* \"34_ERC721/ERC721.sol\":5177:5309  if (retval != IERC721Receiver.onERC721Received.selector) {... */\n      tag_193\n      jumpi\n        /* \"34_ERC721/ERC721.sol\":5286:5288  to */\n      dup4\n        /* \"34_ERC721/ERC721.sol\":5264:5289  InvaildERC721Receiver(to) */\n      mload(0x40)\n      0xf9ecab6200000000000000000000000000000000000000000000000000000000\n      dup2\n      mstore\n      0x04\n      add\n      tag_194\n      swap2\n      swap1\n      tag_38\n      jump\t// in\n    tag_194:\n      mload(0x40)\n      dup1\n      swap2\n      sub\n      swap1\n      revert\n        /* \"34_ERC721/ERC721.sol\":5177:5309  if (retval != IERC721Receiver.onERC721Received.selector) {... */\n    tag_193:\n        /* \"34_ERC721/ERC721.sol\":5134:5324  returns (bytes4 retval) {... */\n      pop\n        /* \"34_ERC721/ERC721.sol\":5025:5711  if(to.code.length>0){... */\n    tag_177:\n        /* \"34_ERC721/ERC721.sol\":4914:5718  function _checkERC721Received(address from, address to, uint256 tokenId, bytes memory data) private {... */\n      pop\n      pop\n      pop\n      pop\n      jump\t// out\n        /* \"34_ERC721/ERC721.sol\":6344:6438  function _baseURI() internal view virtual returns (string memory) {... */\n    tag_152:\n        /* \"34_ERC721/ERC721.sol\":6395:6408  string memory */\n      0x60\n        /* \"34_ERC721/ERC721.sol\":6421:6430  return \"\" */\n      mload(0x40)\n      dup1\n      0x20\n      add\n      0x40\n      mstore\n      dup1\n      0x00\n      dup2\n      mstore\n      pop\n      swap1\n      pop\n        /* \"34_ERC721/ERC721.sol\":6344:6438  function _baseURI() internal view virtual returns (string memory) {... */\n      swap1\n      jump\t// out\n        /* \"34_ERC721/Strings.sol\":412:1135  function toString(uint256 value) internal pure returns (string memory) {... */\n    tag_156:\n        /* \"34_ERC721/Strings.sol\":468:481  string memory */\n      0x60\n        /* \"34_ERC721/Strings.sol\":698:699  0 */\n      0x00\n        /* \"34_ERC721/Strings.sol\":689:694  value */\n      dup3\n        /* \"34_ERC721/Strings.sol\":689:699  value == 0 */\n      sub\n        /* \"34_ERC721/Strings.sol\":685:738  if (value == 0) {... */\n      tag_197\n      jumpi\n        /* \"34_ERC721/Strings.sol\":716:726  return \"0\" */\n      mload(0x40)\n      dup1\n      0x40\n      add\n      0x40\n      mstore\n      dup1\n      0x01\n      dup2\n      mstore\n      0x20\n      add\n      0x3000000000000000000000000000000000000000000000000000000000000000\n      dup2\n      mstore\n      pop\n      swap1\n      pop\n      jump(tag_196)\n        /* \"34_ERC721/Strings.sol\":685:738  if (value == 0) {... */\n    tag_197:\n        /* \"34_ERC721/Strings.sol\":748:760  uint256 temp */\n      0x00\n        /* \"34_ERC721/Strings.sol\":763:768  value */\n      dup3\n        /* \"34_ERC721/Strings.sol\":748:768  uint256 temp = value */\n      swap1\n      pop\n        /* \"34_ERC721/Strings.sol\":779:793  uint256 digits */\n      0x00\n        /* \"34_ERC721/Strings.sol\":804:882  while (temp != 0) {... */\n    tag_198:\n        /* \"34_ERC721/Strings.sol\":819:820  0 */\n      0x00\n        /* \"34_ERC721/Strings.sol\":811:815  temp */\n      dup3\n        /* \"34_ERC721/Strings.sol\":811:820  temp != 0 */\n      eq\n        /* \"34_ERC721/Strings.sol\":804:882  while (temp != 0) {... */\n      tag_199\n      jumpi\n        /* \"34_ERC721/Strings.sol\":837:845  digits++ */\n      dup1\n      dup1\n      tag_200\n      swap1\n      tag_201\n      jump\t// in\n    tag_200:\n      swap2\n      pop\n      pop\n        /* \"34_ERC721/Strings.sol\":868:870  10 */\n      0x0a\n        /* \"34_ERC721/Strings.sol\":860:870  temp /= 10 */\n      dup3\n      tag_202\n      swap2\n      swap1\n      tag_203\n      jump\t// in\n    tag_202:\n      swap2\n      pop\n        /* \"34_ERC721/Strings.sol\":804:882  while (temp != 0) {... */\n      jump(tag_198)\n    tag_199:\n        /* \"34_ERC721/Strings.sol\":892:911  bytes memory buffer */\n      0x00\n        /* \"34_ERC721/Strings.sol\":924:930  digits */\n      dup2\n        /* \"34_ERC721/Strings.sol\":914:931  new bytes(digits) */\n      0xffffffffffffffff\n      dup2\n      gt\n      iszero\n      tag_204\n      jumpi\n      tag_205\n      tag_206\n      jump\t// in\n    tag_205:\n    tag_204:\n      mload(0x40)\n      swap1\n      dup1\n      dup3\n      mstore\n      dup1\n      0x1f\n      add\n      not(0x1f)\n      and\n      0x20\n      add\n      dup3\n      add\n      0x40\n      mstore\n      dup1\n      iszero\n      tag_207\n      jumpi\n      dup2\n      0x20\n      add\n      0x01\n      dup3\n      mul\n      dup1\n      calldatasize\n      dup4\n      calldatacopy\n      dup1\n      dup3\n      add\n      swap2\n      pop\n      pop\n      swap1\n      pop\n    tag_207:\n      pop\n        /* \"34_ERC721/Strings.sol\":892:931  bytes memory buffer = new bytes(digits) */\n      swap1\n      pop\n        /* \"34_ERC721/Strings.sol\":942:1096  while (value != 0) {... */\n    tag_208:\n        /* \"34_ERC721/Strings.sol\":958:959  0 */\n      0x00\n        /* \"34_ERC721/Strings.sol\":949:954  value */\n      dup6\n        /* \"34_ERC721/Strings.sol\":949:959  value != 0 */\n      eq\n        /* \"34_ERC721/Strings.sol\":942:1096  while (value != 0) {... */\n      tag_209\n      jumpi\n        /* \"34_ERC721/Strings.sol\":986:987  1 */\n      0x01\n        /* \"34_ERC721/Strings.sol\":976:987  digits -= 1 */\n      dup3\n      tag_210\n      swap2\n      swap1\n      tag_174\n      jump\t// in\n    tag_210:\n      swap2\n      pop\n        /* \"34_ERC721/Strings.sol\":1053:1055  10 */\n      0x0a\n        /* \"34_ERC721/Strings.sol\":1045:1050  value */\n      dup6\n        /* \"34_ERC721/Strings.sol\":1045:1055  value % 10 */\n      tag_211\n      swap2\n      swap1\n      tag_212\n      jump\t// in\n    tag_211:\n        /* \"34_ERC721/Strings.sol\":1032:1034  48 */\n      0x30\n        /* \"34_ERC721/Strings.sol\":1032:1056  48 + uint256(value % 10) */\n      tag_213\n      swap2\n      swap1\n      tag_214\n      jump\t// in\n    tag_213:\n        /* \"34_ERC721/Strings.sol\":1019:1058  bytes1(uint8(48 + uint256(value % 10))) */\n      0xf8\n      shl\n        /* \"34_ERC721/Strings.sol\":1002:1008  buffer */\n      dup2\n        /* \"34_ERC721/Strings.sol\":1009:1015  digits */\n      dup4\n        /* \"34_ERC721/Strings.sol\":1002:1016  buffer[digits] */\n      dup2\n      mload\n      dup2\n      lt\n      tag_215\n      jumpi\n      tag_216\n      tag_217\n      jump\t// in\n    tag_216:\n    tag_215:\n      0x20\n      add\n      add\n        /* \"34_ERC721/Strings.sol\":1002:1058  buffer[digits] = bytes1(uint8(48 + uint256(value % 10))) */\n      swap1\n      not(0xffffffffffffffffffffffffffffffffffffffffffffffffffffffffffffff)\n      and\n      swap1\n      dup2\n      0x00\n      byte\n      swap1\n      mstore8\n      pop\n        /* \"34_ERC721/Strings.sol\":1082:1084  10 */\n      0x0a\n        /* \"34_ERC721/Strings.sol\":1073:1084  value /= 10 */\n      dup6\n      tag_218\n      swap2\n      swap1\n      tag_203\n      jump\t// in\n    tag_218:\n      swap5\n      pop\n        /* \"34_ERC721/Strings.sol\":942:1096  while (value != 0) {... */\n      jump(tag_208)\n    tag_209:\n        /* \"34_ERC721/Strings.sol\":1120:1126  buffer */\n      dup1\n        /* \"34_ERC721/Strings.sol\":1106:1127  return string(buffer) */\n      swap4\n      pop\n      pop\n      pop\n      pop\n        /* \"34_ERC721/Strings.sol\":412:1135  function toString(uint256 value) internal pure returns (string memory) {... */\n    tag_196:\n      swap2\n      swap1\n      pop\n      jump\t// out\n        /* \"34_ERC721/ERC721.sol\":4726:4906  function _approve(address owner, address operator, uint256 tokenId) private {... */\n    tag_164:\n        /* \"34_ERC721/ERC721.sol\":4840:4848  operator */\n      dup2\n        /* \"34_ERC721/ERC721.sol\":4813:4828  _tokenApprovals */\n      0x04\n        /* \"34_ERC721/ERC721.sol\":4813:4837  _tokenApprovals[tokenId] */\n      0x00\n        /* \"34_ERC721/ERC721.sol\":4829:4836  tokenId */\n      dup4\n        /* \"34_ERC721/ERC721.sol\":4813:4837  _tokenApprovals[tokenId] */\n      dup2\n      mstore\n      0x20\n      add\n      swap1\n      dup2\n      mstore\n      0x20\n      add\n      0x00\n      keccak256\n      0x00\n        /* \"34_ERC721/ERC721.sol\":4813:4848  _tokenApprovals[tokenId] = operator */\n      0x0100\n      exp\n      dup2\n      sload\n      dup2\n      0xffffffffffffffffffffffffffffffffffffffff\n      mul\n      not\n      and\n      swap1\n      dup4\n      0xffffffffffffffffffffffffffffffffffffffff\n      and\n      mul\n      or\n      swap1\n      sstore\n      pop\n        /* \"34_ERC721/ERC721.sol\":4890:4897  tokenId */\n      dup1\n        /* \"34_ERC721/ERC721.sol\":4880:4888  operator */\n      dup3\n        /* \"34_ERC721/ERC721.sol\":4864:4898  Approval(owner, operator, tokenId) */\n      0xffffffffffffffffffffffffffffffffffffffff\n      and\n        /* \"34_ERC721/ERC721.sol\":4873:4878  owner */\n      dup5\n        /* \"34_ERC721/ERC721.sol\":4864:4898  Approval(owner, operator, tokenId) */\n      0xffffffffffffffffffffffffffffffffffffffff\n      and\n      0x8c5be1e5ebec7d5bd14f71427d1e84f3dd0314c0f7b2291e5b200ac8c7c3b925\n      mload(0x40)\n      mload(0x40)\n      dup1\n      swap2\n      sub\n      swap1\n      log4\n        /* \"34_ERC721/ERC721.sol\":4726:4906  function _approve(address owner, address operator, uint256 tokenId) private {... */\n      pop\n      pop\n      pop\n      jump\t// out\n        /* \"#utility.yul\":88:205   */\n    tag_221:\n        /* \"#utility.yul\":197:198   */\n      0x00\n        /* \"#utility.yul\":194:195   */\n      0x00\n        /* \"#utility.yul\":187:199   */\n      revert\n        /* \"#utility.yul\":211:328   */\n    tag_222:\n        /* \"#utility.yul\":320:321   */\n      0x00\n        /* \"#utility.yul\":317:318   */\n      0x00\n        /* \"#utility.yul\":310:322   */\n      revert\n        /* \"#utility.yul\":334:483   */\n    tag_223:\n        /* \"#utility.yul\":370:377   */\n      0x00\n        /* \"#utility.yul\":410:476   */\n      0xffffffff00000000000000000000000000000000000000000000000000000000\n        /* \"#utility.yul\":403:408   */\n      dup3\n        /* \"#utility.yul\":399:477   */\n      and\n        /* \"#utility.yul\":388:477   */\n      swap1\n      pop\n        /* \"#utility.yul\":334:483   */\n      swap2\n      swap1\n      pop\n      jump\t// out\n        /* \"#utility.yul\":489:609   */\n    tag_224:\n        /* \"#utility.yul\":561:584   */\n      tag_267\n        /* \"#utility.yul\":578:583   */\n      dup2\n        /* \"#utility.yul\":561:584   */\n      tag_223\n      jump\t// in\n    tag_267:\n        /* \"#utility.yul\":554:559   */\n      dup2\n        /* \"#utility.yul\":551:585   */\n      eq\n        /* \"#utility.yul\":541:603   */\n      tag_268\n      jumpi\n        /* \"#utility.yul\":599:600   */\n      0x00\n        /* \"#utility.yul\":596:597   */\n      0x00\n        /* \"#utility.yul\":589:601   */\n      revert\n        /* \"#utility.yul\":541:603   */\n    tag_268:\n        /* \"#utility.yul\":489:609   */\n      pop\n      jump\t// out\n        /* \"#utility.yul\":615:752   */\n    tag_225:\n        /* \"#utility.yul\":660:665   */\n      0x00\n        /* \"#utility.yul\":698:704   */\n      dup2\n        /* \"#utility.yul\":685:705   */\n      calldataload\n        /* \"#utility.yul\":676:705   */\n      swap1\n      pop\n        /* \"#utility.yul\":714:746   */\n      tag_270\n        /* \"#utility.yul\":740:745   */\n      dup2\n        /* \"#utility.yul\":714:746   */\n      tag_224\n      jump\t// in\n    tag_270:\n        /* \"#utility.yul\":615:752   */\n      swap3\n      swap2\n      pop\n      pop\n      jump\t// out\n        /* \"#utility.yul\":758:1085   */\n    tag_25:\n        /* \"#utility.yul\":816:822   */\n      0x00\n        /* \"#utility.yul\":865:867   */\n      0x20\n        /* \"#utility.yul\":853:862   */\n      dup3\n        /* \"#utility.yul\":844:851   */\n      dup5\n        /* \"#utility.yul\":840:863   */\n      sub\n        /* \"#utility.yul\":836:868   */\n      slt\n        /* \"#utility.yul\":833:952   */\n      iszero\n      tag_272\n      jumpi\n        /* \"#utility.yul\":871:950   */\n      tag_273\n      tag_221\n      jump\t// in\n    tag_273:\n        /* \"#utility.yul\":833:952   */\n    tag_272:\n        /* \"#utility.yul\":991:992   */\n      0x00\n        /* \"#utility.yul\":1016:1068   */\n      tag_274\n        /* \"#utility.yul\":1060:1067   */\n      dup5\n        /* \"#utility.yul\":1051:1057   */\n      dup3\n        /* \"#utility.yul\":1040:1049   */\n      dup6\n        /* \"#utility.yul\":1036:1058   */\n      add\n        /* \"#utility.yul\":1016:1068   */\n      tag_225\n      jump\t// in\n    tag_274:\n        /* \"#utility.yul\":1006:1068   */\n      swap2\n      pop\n        /* \"#utility.yul\":962:1078   */\n      pop\n        /* \"#utility.yul\":758:1085   */\n      swap3\n      swap2\n      pop\n      pop\n      jump\t// out\n        /* \"#utility.yul\":1091:1181   */\n    tag_226:\n        /* \"#utility.yul\":1125:1132   */\n      0x00\n        /* \"#utility.yul\":1168:1173   */\n      dup2\n        /* \"#utility.yul\":1161:1174   */\n      iszero\n        /* \"#utility.yul\":1154:1175   */\n      iszero\n        /* \"#utility.yul\":1143:1175   */\n      swap1\n      pop\n        /* \"#utility.yul\":1091:1181   */\n      swap2\n      swap1\n      pop\n      jump\t// out\n        /* \"#utility.yul\":1187:1296   */\n    tag_227:\n        /* \"#utility.yul\":1268:1289   */\n      tag_277\n        /* \"#utility.yul\":1283:1288   */\n      dup2\n        /* \"#utility.yul\":1268:1289   */\n      tag_226\n      jump\t// in\n    tag_277:\n        /* \"#utility.yul\":1263:1266   */\n      dup3\n        /* \"#utility.yul\":1256:1290   */\n      mstore\n        /* \"#utility.yul\":1187:1296   */\n      pop\n      pop\n      jump\t// out\n        /* \"#utility.yul\":1302:1512   */\n    tag_28:\n        /* \"#utility.yul\":1389:1393   */\n      0x00\n        /* \"#utility.yul\":1427:1429   */\n      0x20\n        /* \"#utility.yul\":1416:1425   */\n      dup3\n        /* \"#utility.yul\":1412:1430   */\n      add\n        /* \"#utility.yul\":1404:1430   */\n      swap1\n      pop\n        /* \"#utility.yul\":1440:1505   */\n      tag_279\n        /* \"#utility.yul\":1502:1503   */\n      0x00\n        /* \"#utility.yul\":1491:1500   */\n      dup4\n        /* \"#utility.yul\":1487:1504   */\n      add\n        /* \"#utility.yul\":1478:1484   */\n      dup5\n        /* \"#utility.yul\":1440:1505   */\n      tag_227\n      jump\t// in\n    tag_279:\n        /* \"#utility.yul\":1302:1512   */\n      swap3\n      swap2\n      pop\n      pop\n      jump\t// out\n        /* \"#utility.yul\":1518:1617   */\n    tag_228:\n        /* \"#utility.yul\":1570:1576   */\n      0x00\n        /* \"#utility.yul\":1604:1609   */\n      dup2\n        /* \"#utility.yul\":1598:1610   */\n      mload\n        /* \"#utility.yul\":1588:1610   */\n      swap1\n      pop\n        /* \"#utility.yul\":1518:1617   */\n      swap2\n      swap1\n      pop\n      jump\t// out\n        /* \"#utility.yul\":1623:1792   */\n    tag_229:\n        /* \"#utility.yul\":1707:1718   */\n      0x00\n        /* \"#utility.yul\":1741:1747   */\n      dup3\n        /* \"#utility.yul\":1736:1739   */\n      dup3\n        /* \"#utility.yul\":1729:1748   */\n      mstore\n        /* \"#utility.yul\":1781:1785   */\n      0x20\n        /* \"#utility.yul\":1776:1779   */\n      dup3\n        /* \"#utility.yul\":1772:1786   */\n      add\n        /* \"#utility.yul\":1757:1786   */\n      swap1\n      pop\n        /* \"#utility.yul\":1623:1792   */\n      swap3\n      swap2\n      pop\n      pop\n      jump\t// out\n        /* \"#utility.yul\":1798:1937   */\n    tag_230:\n        /* \"#utility.yul\":1887:1893   */\n      dup3\n        /* \"#utility.yul\":1882:1885   */\n      dup2\n        /* \"#utility.yul\":1877:1880   */\n      dup4\n        /* \"#utility.yul\":1871:1894   */\n      mcopy\n        /* \"#utility.yul\":1928:1929   */\n      0x00\n        /* \"#utility.yul\":1919:1925   */\n      dup4\n        /* \"#utility.yul\":1914:1917   */\n      dup4\n        /* \"#utility.yul\":1910:1926   */\n      add\n        /* \"#utility.yul\":1903:1930   */\n      mstore\n        /* \"#utility.yul\":1798:1937   */\n      pop\n      pop\n      pop\n      jump\t// out\n        /* \"#utility.yul\":1943:2045   */\n    tag_231:\n        /* \"#utility.yul\":1984:1990   */\n      0x00\n        /* \"#utility.yul\":2035:2037   */\n      0x1f\n        /* \"#utility.yul\":2031:2038   */\n      not\n        /* \"#utility.yul\":2026:2028   */\n      0x1f\n        /* \"#utility.yul\":2019:2024   */\n      dup4\n        /* \"#utility.yul\":2015:2029   */\n      add\n        /* \"#utility.yul\":2011:2039   */\n      and\n        /* \"#utility.yul\":2001:2039   */\n      swap1\n      pop\n        /* \"#utility.yul\":1943:2045   */\n      swap2\n      swap1\n      pop\n      jump\t// out\n        /* \"#utility.yul\":2051:2428   */\n    tag_232:\n        /* \"#utility.yul\":2139:2142   */\n      0x00\n        /* \"#utility.yul\":2167:2206   */\n      tag_285\n        /* \"#utility.yul\":2200:2205   */\n      dup3\n        /* \"#utility.yul\":2167:2206   */\n      tag_228\n      jump\t// in\n    tag_285:\n        /* \"#utility.yul\":2222:2293   */\n      tag_286\n        /* \"#utility.yul\":2286:2292   */\n      dup2\n        /* \"#utility.yul\":2281:2284   */\n      dup6\n        /* \"#utility.yul\":2222:2293   */\n      tag_229\n      jump\t// in\n    tag_286:\n        /* \"#utility.yul\":2215:2293   */\n      swap4\n      pop\n        /* \"#utility.yul\":2302:2367   */\n      tag_287\n        /* \"#utility.yul\":2360:2366   */\n      dup2\n        /* \"#utility.yul\":2355:2358   */\n      dup6\n        /* \"#utility.yul\":2348:2352   */\n      0x20\n        /* \"#utility.yul\":2341:2346   */\n      dup7\n        /* \"#utility.yul\":2337:2353   */\n      add\n        /* \"#utility.yul\":2302:2367   */\n      tag_230\n      jump\t// in\n    tag_287:\n        /* \"#utility.yul\":2392:2421   */\n      tag_288\n        /* \"#utility.yul\":2414:2420   */\n      dup2\n        /* \"#utility.yul\":2392:2421   */\n      tag_231\n      jump\t// in\n    tag_288:\n        /* \"#utility.yul\":2387:2390   */\n      dup5\n        /* \"#utility.yul\":2383:2422   */\n      add\n        /* \"#utility.yul\":2376:2422   */\n      swap2\n      pop\n        /* \"#utility.yul\":2143:2428   */\n      pop\n        /* \"#utility.yul\":2051:2428   */\n      swap3\n      swap2\n      pop\n      pop\n      jump\t// out\n        /* \"#utility.yul\":2434:2747   */\n    tag_32:\n        /* \"#utility.yul\":2547:2551   */\n      0x00\n        /* \"#utility.yul\":2585:2587   */\n      0x20\n        /* \"#utility.yul\":2574:2583   */\n      dup3\n        /* \"#utility.yul\":2570:2588   */\n      add\n        /* \"#utility.yul\":2562:2588   */\n      swap1\n      pop\n        /* \"#utility.yul\":2634:2643   */\n      dup2\n        /* \"#utility.yul\":2628:2632   */\n      dup2\n        /* \"#utility.yul\":2624:2644   */\n      sub\n        /* \"#utility.yul\":2620:2621   */\n      0x00\n        /* \"#utility.yul\":2609:2618   */\n      dup4\n        /* \"#utility.yul\":2605:2622   */\n      add\n        /* \"#utility.yul\":2598:2645   */\n      mstore\n        /* \"#utility.yul\":2662:2740   */\n      tag_290\n        /* \"#utility.yul\":2735:2739   */\n      dup2\n        /* \"#utility.yul\":2726:2732   */\n      dup5\n        /* \"#utility.yul\":2662:2740   */\n      tag_232\n      jump\t// in\n    tag_290:\n        /* \"#utility.yul\":2654:2740   */\n      swap1\n      pop\n        /* \"#utility.yul\":2434:2747   */\n      swap3\n      swap2\n      pop\n      pop\n      jump\t// out\n        /* \"#utility.yul\":2753:2830   */\n    tag_233:\n        /* \"#utility.yul\":2790:2797   */\n      0x00\n        /* \"#utility.yul\":2819:2824   */\n      dup2\n        /* \"#utility.yul\":2808:2824   */\n      swap1\n      pop\n        /* \"#utility.yul\":2753:2830   */\n      swap2\n      swap1\n      pop\n      jump\t// out\n        /* \"#utility.yul\":2836:2958   */\n    tag_234:\n        /* \"#utility.yul\":2909:2933   */\n      tag_293\n        /* \"#utility.yul\":2927:2932   */\n      dup2\n        /* \"#utility.yul\":2909:2933   */\n      tag_233\n      jump\t// in\n    tag_293:\n        /* \"#utility.yul\":2902:2907   */\n      dup2\n        /* \"#utility.yul\":2899:2934   */\n      eq\n        /* \"#utility.yul\":2889:2952   */\n      tag_294\n      jumpi\n        /* \"#utility.yul\":2948:2949   */\n      0x00\n        /* \"#utility.yul\":2945:2946   */\n      0x00\n        /* \"#utility.yul\":2938:2950   */\n      revert\n        /* \"#utility.yul\":2889:2952   */\n    tag_294:\n        /* \"#utility.yul\":2836:2958   */\n      pop\n      jump\t// out\n        /* \"#utility.yul\":2964:3103   */\n    tag_235:\n        /* \"#utility.yul\":3010:3015   */\n      0x00\n        /* \"#utility.yul\":3048:3054   */\n      dup2\n        /* \"#utility.yul\":3035:3055   */\n      calldataload\n        /* \"#utility.yul\":3026:3055   */\n      swap1\n      pop\n        /* \"#utility.yul\":3064:3097   */\n      tag_296\n        /* \"#utility.yul\":3091:3096   */\n      dup2\n        /* \"#utility.yul\":3064:3097   */\n      tag_234\n      jump\t// in\n    tag_296:\n        /* \"#utility.yul\":2964:3103   */\n      swap3\n      swap2\n      pop\n      pop\n      jump\t// out\n        /* \"#utility.yul\":3109:3438   */\n    tag_35:\n        /* \"#utility.yul\":3168:3174   */\n      0x00\n        /* \"#utility.yul\":3217:3219   */\n      0x20\n        /* \"#utility.yul\":3205:3214   */\n      dup3\n        /* \"#utility.yul\":3196:3203   */\n      dup5\n        /* \"#utility.yul\":3192:3215   */\n      sub\n        /* \"#utility.yul\":3188:3220   */\n      slt\n        /* \"#utility.yul\":3185:3304   */\n      iszero\n      tag_298\n      jumpi\n        /* \"#utility.yul\":3223:3302   */\n      tag_299\n      tag_221\n      jump\t// in\n    tag_299:\n        /* \"#utility.yul\":3185:3304   */\n    tag_298:\n        /* \"#utility.yul\":3343:3344   */\n      0x00\n        /* \"#utility.yul\":3368:3421   */\n      tag_300\n        /* \"#utility.yul\":3413:3420   */\n      dup5\n        /* \"#utility.yul\":3404:3410   */\n      dup3\n        /* \"#utility.yul\":3393:3402   */\n      dup6\n        /* \"#utility.yul\":3389:3411   */\n      add\n        /* \"#utility.yul\":3368:3421   */\n      tag_235\n      jump\t// in\n    tag_300:\n        /* \"#utility.yul\":3358:3421   */\n      swap2\n      pop\n        /* \"#utility.yul\":3314:3431   */\n      pop\n        /* \"#utility.yul\":3109:3438   */\n      swap3\n      swap2\n      pop\n      pop\n      jump\t// out\n        /* \"#utility.yul\":3444:3570   */\n    tag_236:\n        /* \"#utility.yul\":3481:3488   */\n      0x00\n        /* \"#utility.yul\":3521:3563   */\n      0xffffffffffffffffffffffffffffffffffffffff\n        /* \"#utility.yul\":3514:3519   */\n      dup3\n        /* \"#utility.yul\":3510:3564   */\n      and\n        /* \"#utility.yul\":3499:3564   */\n      swap1\n      pop\n        /* \"#utility.yul\":3444:3570   */\n      swap2\n      swap1\n      pop\n      jump\t// out\n        /* \"#utility.yul\":3576:3672   */\n    tag_237:\n        /* \"#utility.yul\":3613:3620   */\n      0x00\n        /* \"#utility.yul\":3642:3666   */\n      tag_303\n        /* \"#utility.yul\":3660:3665   */\n      dup3\n        /* \"#utility.yul\":3642:3666   */\n      tag_236\n      jump\t// in\n    tag_303:\n        /* \"#utility.yul\":3631:3666   */\n      swap1\n      pop\n        /* \"#utility.yul\":3576:3672   */\n      swap2\n      swap1\n      pop\n      jump\t// out\n        /* \"#utility.yul\":3678:3796   */\n    tag_238:\n        /* \"#utility.yul\":3765:3789   */\n      tag_305\n        /* \"#utility.yul\":3783:3788   */\n      dup2\n        /* \"#utility.yul\":3765:3789   */\n      tag_237\n      jump\t// in\n    tag_305:\n        /* \"#utility.yul\":3760:3763   */\n      dup3\n        /* \"#utility.yul\":3753:3790   */\n      mstore\n        /* \"#utility.yul\":3678:3796   */\n      pop\n      pop\n      jump\t// out\n        /* \"#utility.yul\":3802:4024   */\n    tag_38:\n        /* \"#utility.yul\":3895:3899   */\n      0x00\n        /* \"#utility.yul\":3933:3935   */\n      0x20\n        /* \"#utility.yul\":3922:3931   */\n      dup3\n        /* \"#utility.yul\":3918:3936   */\n      add\n        /* \"#utility.yul\":3910:3936   */\n      swap1\n      pop\n        /* \"#utility.yul\":3946:4017   */\n      tag_307\n        /* \"#utility.yul\":4014:4015   */\n      0x00\n        /* \"#utility.yul\":4003:4012   */\n      dup4\n        /* \"#utility.yul\":3999:4016   */\n      add\n        /* \"#utility.yul\":3990:3996   */\n      dup5\n        /* \"#utility.yul\":3946:4017   */\n      tag_238\n      jump\t// in\n    tag_307:\n        /* \"#utility.yul\":3802:4024   */\n      swap3\n      swap2\n      pop\n      pop\n      jump\t// out\n        /* \"#utility.yul\":4030:4152   */\n    tag_239:\n        /* \"#utility.yul\":4103:4127   */\n      tag_309\n        /* \"#utility.yul\":4121:4126   */\n      dup2\n        /* \"#utility.yul\":4103:4127   */\n      tag_237\n      jump\t// in\n    tag_309:\n        /* \"#utility.yul\":4096:4101   */\n      dup2\n        /* \"#utility.yul\":4093:4128   */\n      eq\n        /* \"#utility.yul\":4083:4146   */\n      tag_310\n      jumpi\n        /* \"#utility.yul\":4142:4143   */\n      0x00\n        /* \"#utility.yul\":4139:4140   */\n      0x00\n        /* \"#utility.yul\":4132:4144   */\n      revert\n        /* \"#utility.yul\":4083:4146   */\n    tag_310:\n        /* \"#utility.yul\":4030:4152   */\n      pop\n      jump\t// out\n        /* \"#utility.yul\":4158:4297   */\n    tag_240:\n        /* \"#utility.yul\":4204:4209   */\n      0x00\n        /* \"#utility.yul\":4242:4248   */\n      dup2\n        /* \"#utility.yul\":4229:4249   */\n      calldataload\n        /* \"#utility.yul\":4220:4249   */\n      swap1\n      pop\n        /* \"#utility.yul\":4258:4291   */\n      tag_312\n        /* \"#utility.yul\":4285:4290   */\n      dup2\n        /* \"#utility.yul\":4258:4291   */\n      tag_239\n      jump\t// in\n    tag_312:\n        /* \"#utility.yul\":4158:4297   */\n      swap3\n      swap2\n      pop\n      pop\n      jump\t// out\n        /* \"#utility.yul\":4303:4922   */\n    tag_41:\n        /* \"#utility.yul\":4380:4386   */\n      0x00\n        /* \"#utility.yul\":4388:4394   */\n      0x00\n        /* \"#utility.yul\":4396:4402   */\n      0x00\n        /* \"#utility.yul\":4445:4447   */\n      0x60\n        /* \"#utility.yul\":4433:4442   */\n      dup5\n        /* \"#utility.yul\":4424:4431   */\n      dup7\n        /* \"#utility.yul\":4420:4443   */\n      sub\n        /* \"#utility.yul\":4416:4448   */\n      slt\n        /* \"#utility.yul\":4413:4532   */\n      iszero\n      tag_314\n      jumpi\n        /* \"#utility.yul\":4451:4530   */\n      tag_315\n      tag_221\n      jump\t// in\n    tag_315:\n        /* \"#utility.yul\":4413:4532   */\n    tag_314:\n        /* \"#utility.yul\":4571:4572   */\n      0x00\n        /* \"#utility.yul\":4596:4649   */\n      tag_316\n        /* \"#utility.yul\":4641:4648   */\n      dup7\n        /* \"#utility.yul\":4632:4638   */\n      dup3\n        /* \"#utility.yul\":4621:4630   */\n      dup8\n        /* \"#utility.yul\":4617:4639   */\n      add\n        /* \"#utility.yul\":4596:4649   */\n      tag_240\n      jump\t// in\n    tag_316:\n        /* \"#utility.yul\":4586:4649   */\n      swap4\n      pop\n        /* \"#utility.yul\":4542:4659   */\n      pop\n        /* \"#utility.yul\":4698:4700   */\n      0x20\n        /* \"#utility.yul\":4724:4777   */\n      tag_317\n        /* \"#utility.yul\":4769:4776   */\n      dup7\n        /* \"#utility.yul\":4760:4766   */\n      dup3\n        /* \"#utility.yul\":4749:4758   */\n      dup8\n        /* \"#utility.yul\":4745:4767   */\n      add\n        /* \"#utility.yul\":4724:4777   */\n      tag_240\n      jump\t// in\n    tag_317:\n        /* \"#utility.yul\":4714:4777   */\n      swap3\n      pop\n        /* \"#utility.yul\":4669:4787   */\n      pop\n        /* \"#utility.yul\":4826:4828   */\n      0x40\n        /* \"#utility.yul\":4852:4905   */\n      tag_318\n        /* \"#utility.yul\":4897:4904   */\n      dup7\n        /* \"#utility.yul\":4888:4894   */\n      dup3\n        /* \"#utility.yul\":4877:4886   */\n      dup8\n        /* \"#utility.yul\":4873:4895   */\n      add\n        /* \"#utility.yul\":4852:4905   */\n      tag_235\n      jump\t// in\n    tag_318:\n        /* \"#utility.yul\":4842:4905   */\n      swap2\n      pop\n        /* \"#utility.yul\":4797:4915   */\n      pop\n        /* \"#utility.yul\":4303:4922   */\n      swap3\n      pop\n      swap3\n      pop\n      swap3\n      jump\t// out\n        /* \"#utility.yul\":4928:5257   */\n    tag_52:\n        /* \"#utility.yul\":4987:4993   */\n      0x00\n        /* \"#utility.yul\":5036:5038   */\n      0x20\n        /* \"#utility.yul\":5024:5033   */\n      dup3\n        /* \"#utility.yul\":5015:5022   */\n      dup5\n        /* \"#utility.yul\":5011:5034   */\n      sub\n        /* \"#utility.yul\":5007:5039   */\n      slt\n        /* \"#utility.yul\":5004:5123   */\n      iszero\n      tag_320\n      jumpi\n        /* \"#utility.yul\":5042:5121   */\n      tag_321\n      tag_221\n      jump\t// in\n    tag_321:\n        /* \"#utility.yul\":5004:5123   */\n    tag_320:\n        /* \"#utility.yul\":5162:5163   */\n      0x00\n        /* \"#utility.yul\":5187:5240   */\n      tag_322\n        /* \"#utility.yul\":5232:5239   */\n      dup5\n        /* \"#utility.yul\":5223:5229   */\n      dup3\n        /* \"#utility.yul\":5212:5221   */\n      dup6\n        /* \"#utility.yul\":5208:5230   */\n      add\n        /* \"#utility.yul\":5187:5240   */\n      tag_240\n      jump\t// in\n    tag_322:\n        /* \"#utility.yul\":5177:5240   */\n      swap2\n      pop\n        /* \"#utility.yul\":5133:5250   */\n      pop\n        /* \"#utility.yul\":4928:5257   */\n      swap3\n      swap2\n      pop\n      pop\n      jump\t// out\n        /* \"#utility.yul\":5263:5381   */\n    tag_241:\n        /* \"#utility.yul\":5350:5374   */\n      tag_324\n        /* \"#utility.yul\":5368:5373   */\n      dup2\n        /* \"#utility.yul\":5350:5374   */\n      tag_233\n      jump\t// in\n    tag_324:\n        /* \"#utility.yul\":5345:5348   */\n      dup3\n        /* \"#utility.yul\":5338:5375   */\n      mstore\n        /* \"#utility.yul\":5263:5381   */\n      pop\n      pop\n      jump\t// out\n        /* \"#utility.yul\":5387:5609   */\n    tag_55:\n        /* \"#utility.yul\":5480:5484   */\n      0x00\n        /* \"#utility.yul\":5518:5520   */\n      0x20\n        /* \"#utility.yul\":5507:5516   */\n      dup3\n        /* \"#utility.yul\":5503:5521   */\n      add\n        /* \"#utility.yul\":5495:5521   */\n      swap1\n      pop\n        /* \"#utility.yul\":5531:5602   */\n      tag_326\n        /* \"#utility.yul\":5599:5600   */\n      0x00\n        /* \"#utility.yul\":5588:5597   */\n      dup4\n        /* \"#utility.yul\":5584:5601   */\n      add\n        /* \"#utility.yul\":5575:5581   */\n      dup5\n        /* \"#utility.yul\":5531:5602   */\n      tag_241\n      jump\t// in\n    tag_326:\n        /* \"#utility.yul\":5387:5609   */\n      swap3\n      swap2\n      pop\n      pop\n      jump\t// out\n        /* \"#utility.yul\":5615:5732   */\n    tag_242:\n        /* \"#utility.yul\":5724:5725   */\n      0x00\n        /* \"#utility.yul\":5721:5722   */\n      0x00\n        /* \"#utility.yul\":5714:5726   */\n      revert\n        /* \"#utility.yul\":5738:5855   */\n    tag_243:\n        /* \"#utility.yul\":5847:5848   */\n      0x00\n        /* \"#utility.yul\":5844:5845   */\n      0x00\n        /* \"#utility.yul\":5837:5849   */\n      revert\n        /* \"#utility.yul\":5861:5978   */\n    tag_244:\n        /* \"#utility.yul\":5970:5971   */\n      0x00\n        /* \"#utility.yul\":5967:5968   */\n      0x00\n        /* \"#utility.yul\":5960:5972   */\n      revert\n        /* \"#utility.yul\":5997:6549   */\n    tag_245:\n        /* \"#utility.yul\":6054:6062   */\n      0x00\n        /* \"#utility.yul\":6064:6070   */\n      0x00\n        /* \"#utility.yul\":6114:6117   */\n      dup4\n        /* \"#utility.yul\":6107:6111   */\n      0x1f\n        /* \"#utility.yul\":6099:6105   */\n      dup5\n        /* \"#utility.yul\":6095:6112   */\n      add\n        /* \"#utility.yul\":6091:6118   */\n      slt\n        /* \"#utility.yul\":6081:6203   */\n      tag_331\n      jumpi\n        /* \"#utility.yul\":6122:6201   */\n      tag_332\n      tag_242\n      jump\t// in\n    tag_332:\n        /* \"#utility.yul\":6081:6203   */\n    tag_331:\n        /* \"#utility.yul\":6235:6241   */\n      dup3\n        /* \"#utility.yul\":6222:6242   */\n      calldataload\n        /* \"#utility.yul\":6212:6242   */\n      swap1\n      pop\n        /* \"#utility.yul\":6265:6283   */\n      0xffffffffffffffff\n        /* \"#utility.yul\":6257:6263   */\n      dup2\n        /* \"#utility.yul\":6254:6284   */\n      gt\n        /* \"#utility.yul\":6251:6368   */\n      iszero\n      tag_333\n      jumpi\n        /* \"#utility.yul\":6287:6366   */\n      tag_334\n      tag_243\n      jump\t// in\n    tag_334:\n        /* \"#utility.yul\":6251:6368   */\n    tag_333:\n        /* \"#utility.yul\":6401:6405   */\n      0x20\n        /* \"#utility.yul\":6393:6399   */\n      dup4\n        /* \"#utility.yul\":6389:6406   */\n      add\n        /* \"#utility.yul\":6377:6406   */\n      swap2\n      pop\n        /* \"#utility.yul\":6455:6458   */\n      dup4\n        /* \"#utility.yul\":6447:6451   */\n      0x01\n        /* \"#utility.yul\":6439:6445   */\n      dup3\n        /* \"#utility.yul\":6435:6452   */\n      mul\n        /* \"#utility.yul\":6425:6433   */\n      dup4\n        /* \"#utility.yul\":6421:6453   */\n      add\n        /* \"#utility.yul\":6418:6459   */\n      gt\n        /* \"#utility.yul\":6415:6543   */\n      iszero\n      tag_335\n      jumpi\n        /* \"#utility.yul\":6462:6541   */\n      tag_336\n      tag_244\n      jump\t// in\n    tag_336:\n        /* \"#utility.yul\":6415:6543   */\n    tag_335:\n        /* \"#utility.yul\":5997:6549   */\n      swap3\n      pop\n      swap3\n      swap1\n      pop\n      jump\t// out\n        /* \"#utility.yul\":6555:7518   */\n    tag_73:\n        /* \"#utility.yul\":6652:6658   */\n      0x00\n        /* \"#utility.yul\":6660:6666   */\n      0x00\n        /* \"#utility.yul\":6668:6674   */\n      0x00\n        /* \"#utility.yul\":6676:6682   */\n      0x00\n        /* \"#utility.yul\":6684:6690   */\n      0x00\n        /* \"#utility.yul\":6733:6736   */\n      0x80\n        /* \"#utility.yul\":6721:6730   */\n      dup7\n        /* \"#utility.yul\":6712:6719   */\n      dup9\n        /* \"#utility.yul\":6708:6731   */\n      sub\n        /* \"#utility.yul\":6704:6737   */\n      slt\n        /* \"#utility.yul\":6701:6821   */\n      iszero\n      tag_338\n      jumpi\n        /* \"#utility.yul\":6740:6819   */\n      tag_339\n      tag_221\n      jump\t// in\n    tag_339:\n        /* \"#utility.yul\":6701:6821   */\n    tag_338:\n        /* \"#utility.yul\":6860:6861   */\n      0x00\n        /* \"#utility.yul\":6885:6938   */\n      tag_340\n        /* \"#utility.yul\":6930:6937   */\n      dup9\n        /* \"#utility.yul\":6921:6927   */\n      dup3\n        /* \"#utility.yul\":6910:6919   */\n      dup10\n        /* \"#utility.yul\":6906:6928   */\n      add\n        /* \"#utility.yul\":6885:6938   */\n      tag_240\n      jump\t// in\n    tag_340:\n        /* \"#utility.yul\":6875:6938   */\n      swap6\n      pop\n        /* \"#utility.yul\":6831:6948   */\n      pop\n        /* \"#utility.yul\":6987:6989   */\n      0x20\n        /* \"#utility.yul\":7013:7066   */\n      tag_341\n        /* \"#utility.yul\":7058:7065   */\n      dup9\n        /* \"#utility.yul\":7049:7055   */\n      dup3\n        /* \"#utility.yul\":7038:7047   */\n      dup10\n        /* \"#utility.yul\":7034:7056   */\n      add\n        /* \"#utility.yul\":7013:7066   */\n      tag_240\n      jump\t// in\n    tag_341:\n        /* \"#utility.yul\":7003:7066   */\n      swap5\n      pop\n        /* \"#utility.yul\":6958:7076   */\n      pop\n        /* \"#utility.yul\":7115:7117   */\n      0x40\n        /* \"#utility.yul\":7141:7194   */\n      tag_342\n        /* \"#utility.yul\":7186:7193   */\n      dup9\n        /* \"#utility.yul\":7177:7183   */\n      dup3\n        /* \"#utility.yul\":7166:7175   */\n      dup10\n        /* \"#utility.yul\":7162:7184   */\n      add\n        /* \"#utility.yul\":7141:7194   */\n      tag_235\n      jump\t// in\n    tag_342:\n        /* \"#utility.yul\":7131:7194   */\n      swap4\n      pop\n        /* \"#utility.yul\":7086:7204   */\n      pop\n        /* \"#utility.yul\":7271:7273   */\n      0x60\n        /* \"#utility.yul\":7260:7269   */\n      dup7\n        /* \"#utility.yul\":7256:7274   */\n      add\n        /* \"#utility.yul\":7243:7275   */\n      calldataload\n        /* \"#utility.yul\":7302:7320   */\n      0xffffffffffffffff\n        /* \"#utility.yul\":7294:7300   */\n      dup2\n        /* \"#utility.yul\":7291:7321   */\n      gt\n        /* \"#utility.yul\":7288:7405   */\n      iszero\n      tag_343\n      jumpi\n        /* \"#utility.yul\":7324:7403   */\n      tag_344\n      tag_222\n      jump\t// in\n    tag_344:\n        /* \"#utility.yul\":7288:7405   */\n    tag_343:\n        /* \"#utility.yul\":7437:7501   */\n      tag_345\n        /* \"#utility.yul\":7493:7500   */\n      dup9\n        /* \"#utility.yul\":7484:7490   */\n      dup3\n        /* \"#utility.yul\":7473:7482   */\n      dup10\n        /* \"#utility.yul\":7469:7491   */\n      add\n        /* \"#utility.yul\":7437:7501   */\n      tag_245\n      jump\t// in\n    tag_345:\n        /* \"#utility.yul\":7419:7501   */\n      swap3\n      pop\n      swap3\n      pop\n        /* \"#utility.yul\":7214:7511   */\n      pop\n        /* \"#utility.yul\":6555:7518   */\n      swap3\n      swap6\n      pop\n      swap3\n      swap6\n      swap1\n      swap4\n      pop\n      jump\t// out\n        /* \"#utility.yul\":7524:7640   */\n    tag_246:\n        /* \"#utility.yul\":7594:7615   */\n      tag_347\n        /* \"#utility.yul\":7609:7614   */\n      dup2\n        /* \"#utility.yul\":7594:7615   */\n      tag_226\n      jump\t// in\n    tag_347:\n        /* \"#utility.yul\":7587:7592   */\n      dup2\n        /* \"#utility.yul\":7584:7616   */\n      eq\n        /* \"#utility.yul\":7574:7634   */\n      tag_348\n      jumpi\n        /* \"#utility.yul\":7630:7631   */\n      0x00\n        /* \"#utility.yul\":7627:7628   */\n      0x00\n        /* \"#utility.yul\":7620:7632   */\n      revert\n        /* \"#utility.yul\":7574:7634   */\n    tag_348:\n        /* \"#utility.yul\":7524:7640   */\n      pop\n      jump\t// out\n        /* \"#utility.yul\":7646:7779   */\n    tag_247:\n        /* \"#utility.yul\":7689:7694   */\n      0x00\n        /* \"#utility.yul\":7727:7733   */\n      dup2\n        /* \"#utility.yul\":7714:7734   */\n      calldataload\n        /* \"#utility.yul\":7705:7734   */\n      swap1\n      pop\n        /* \"#utility.yul\":7743:7773   */\n      tag_350\n        /* \"#utility.yul\":7767:7772   */\n      dup2\n        /* \"#utility.yul\":7743:7773   */\n      tag_246\n      jump\t// in\n    tag_350:\n        /* \"#utility.yul\":7646:7779   */\n      swap3\n      swap2\n      pop\n      pop\n      jump\t// out\n        /* \"#utility.yul\":7785:8253   */\n    tag_77:\n        /* \"#utility.yul\":7850:7856   */\n      0x00\n        /* \"#utility.yul\":7858:7864   */\n      0x00\n        /* \"#utility.yul\":7907:7909   */\n      0x40\n        /* \"#utility.yul\":7895:7904   */\n      dup4\n        /* \"#utility.yul\":7886:7893   */\n      dup6\n        /* \"#utility.yul\":7882:7905   */\n      sub\n        /* \"#utility.yul\":7878:7910   */\n      slt\n        /* \"#utility.yul\":7875:7994   */\n      iszero\n      tag_352\n      jumpi\n        /* \"#utility.yul\":7913:7992   */\n      tag_353\n      tag_221\n      jump\t// in\n    tag_353:\n        /* \"#utility.yul\":7875:7994   */\n    tag_352:\n        /* \"#utility.yul\":8033:8034   */\n      0x00\n        /* \"#utility.yul\":8058:8111   */\n      tag_354\n        /* \"#utility.yul\":8103:8110   */\n      dup6\n        /* \"#utility.yul\":8094:8100   */\n      dup3\n        /* \"#utility.yul\":8083:8092   */\n      dup7\n        /* \"#utility.yul\":8079:8101   */\n      add\n        /* \"#utility.yul\":8058:8111   */\n      tag_240\n      jump\t// in\n    tag_354:\n        /* \"#utility.yul\":8048:8111   */\n      swap3\n      pop\n        /* \"#utility.yul\":8004:8121   */\n      pop\n        /* \"#utility.yul\":8160:8162   */\n      0x20\n        /* \"#utility.yul\":8186:8236   */\n      tag_355\n        /* \"#utility.yul\":8228:8235   */\n      dup6\n        /* \"#utility.yul\":8219:8225   */\n      dup3\n        /* \"#utility.yul\":8208:8217   */\n      dup7\n        /* \"#utility.yul\":8204:8226   */\n      add\n        /* \"#utility.yul\":8186:8236   */\n      tag_247\n      jump\t// in\n    tag_355:\n        /* \"#utility.yul\":8176:8236   */\n      swap2\n      pop\n        /* \"#utility.yul\":8131:8246   */\n      pop\n        /* \"#utility.yul\":7785:8253   */\n      swap3\n      pop\n      swap3\n      swap1\n      pop\n      jump\t// out\n        /* \"#utility.yul\":8259:8733   */\n    tag_85:\n        /* \"#utility.yul\":8327:8333   */\n      0x00\n        /* \"#utility.yul\":8335:8341   */\n      0x00\n        /* \"#utility.yul\":8384:8386   */\n      0x40\n        /* \"#utility.yul\":8372:8381   */\n      dup4\n        /* \"#utility.yul\":8363:8370   */\n      dup6\n        /* \"#utility.yul\":8359:8382   */\n      sub\n        /* \"#utility.yul\":8355:8387   */\n      slt\n        /* \"#utility.yul\":8352:8471   */\n      iszero\n      tag_357\n      jumpi\n        /* \"#utility.yul\":8390:8469   */\n      tag_358\n      tag_221\n      jump\t// in\n    tag_358:\n        /* \"#utility.yul\":8352:8471   */\n    tag_357:\n        /* \"#utility.yul\":8510:8511   */\n      0x00\n        /* \"#utility.yul\":8535:8588   */\n      tag_359\n        /* \"#utility.yul\":8580:8587   */\n      dup6\n        /* \"#utility.yul\":8571:8577   */\n      dup3\n        /* \"#utility.yul\":8560:8569   */\n      dup7\n        /* \"#utility.yul\":8556:8578   */\n      add\n        /* \"#utility.yul\":8535:8588   */\n      tag_240\n      jump\t// in\n    tag_359:\n        /* \"#utility.yul\":8525:8588   */\n      swap3\n      pop\n        /* \"#utility.yul\":8481:8598   */\n      pop\n        /* \"#utility.yul\":8637:8639   */\n      0x20\n        /* \"#utility.yul\":8663:8716   */\n      tag_360\n        /* \"#utility.yul\":8708:8715   */\n      dup6\n        /* \"#utility.yul\":8699:8705   */\n      dup3\n        /* \"#utility.yul\":8688:8697   */\n      dup7\n        /* \"#utility.yul\":8684:8706   */\n      add\n        /* \"#utility.yul\":8663:8716   */\n      tag_240\n      jump\t// in\n    tag_360:\n        /* \"#utility.yul\":8653:8716   */\n      swap2\n      pop\n        /* \"#utility.yul\":8608:8726   */\n      pop\n        /* \"#utility.yul\":8259:8733   */\n      swap3\n      pop\n      swap3\n      swap1\n      pop\n      jump\t// out\n        /* \"#utility.yul\":8739:9213   */\n    tag_90:\n        /* \"#utility.yul\":8807:8813   */\n      0x00\n        /* \"#utility.yul\":8815:8821   */\n      0x00\n        /* \"#utility.yul\":8864:8866   */\n      0x40\n        /* \"#utility.yul\":8852:8861   */\n      dup4\n        /* \"#utility.yul\":8843:8850   */\n      dup6\n        /* \"#utility.yul\":8839:8862   */\n      sub\n        /* \"#utility.yul\":8835:8867   */\n      slt\n        /* \"#utility.yul\":8832:8951   */\n      iszero\n      tag_362\n      jumpi\n        /* \"#utility.yul\":8870:8949   */\n      tag_363\n      tag_221\n      jump\t// in\n    tag_363:\n        /* \"#utility.yul\":8832:8951   */\n    tag_362:\n        /* \"#utility.yul\":8990:8991   */\n      0x00\n        /* \"#utility.yul\":9015:9068   */\n      tag_364\n        /* \"#utility.yul\":9060:9067   */\n      dup6\n        /* \"#utility.yul\":9051:9057   */\n      dup3\n        /* \"#utility.yul\":9040:9049   */\n      dup7\n        /* \"#utility.yul\":9036:9058   */\n      add\n        /* \"#utility.yul\":9015:9068   */\n      tag_235\n      jump\t// in\n    tag_364:\n        /* \"#utility.yul\":9005:9068   */\n      swap3\n      pop\n        /* \"#utility.yul\":8961:9078   */\n      pop\n        /* \"#utility.yul\":9117:9119   */\n      0x20\n        /* \"#utility.yul\":9143:9196   */\n      tag_365\n        /* \"#utility.yul\":9188:9195   */\n      dup6\n        /* \"#utility.yul\":9179:9185   */\n      dup3\n        /* \"#utility.yul\":9168:9177   */\n      dup7\n        /* \"#utility.yul\":9164:9186   */\n      add\n        /* \"#utility.yul\":9143:9196   */\n      tag_240\n      jump\t// in\n    tag_365:\n        /* \"#utility.yul\":9133:9196   */\n      swap2\n      pop\n        /* \"#utility.yul\":9088:9206   */\n      pop\n        /* \"#utility.yul\":8739:9213   */\n      swap3\n      pop\n      swap3\n      swap1\n      pop\n      jump\t// out\n        /* \"#utility.yul\":9219:9399   */\n    tag_248:\n        /* \"#utility.yul\":9267:9344   */\n      0x4e487b7100000000000000000000000000000000000000000000000000000000\n        /* \"#utility.yul\":9264:9265   */\n      0x00\n        /* \"#utility.yul\":9257:9345   */\n      mstore\n        /* \"#utility.yul\":9364:9368   */\n      0x22\n        /* \"#utility.yul\":9361:9362   */\n      0x04\n        /* \"#utility.yul\":9354:9369   */\n      mstore\n        /* \"#utility.yul\":9388:9392   */\n      0x24\n        /* \"#utility.yul\":9385:9386   */\n      0x00\n        /* \"#utility.yul\":9378:9393   */\n      revert\n        /* \"#utility.yul\":9405:9725   */\n    tag_100:\n        /* \"#utility.yul\":9449:9455   */\n      0x00\n        /* \"#utility.yul\":9486:9487   */\n      0x02\n        /* \"#utility.yul\":9480:9484   */\n      dup3\n        /* \"#utility.yul\":9476:9488   */\n      div\n        /* \"#utility.yul\":9466:9488   */\n      swap1\n      pop\n        /* \"#utility.yul\":9533:9534   */\n      0x01\n        /* \"#utility.yul\":9527:9531   */\n      dup3\n        /* \"#utility.yul\":9523:9535   */\n      and\n        /* \"#utility.yul\":9554:9572   */\n      dup1\n        /* \"#utility.yul\":9544:9625   */\n      tag_368\n      jumpi\n        /* \"#utility.yul\":9610:9614   */\n      0x7f\n        /* \"#utility.yul\":9602:9608   */\n      dup3\n        /* \"#utility.yul\":9598:9615   */\n      and\n        /* \"#utility.yul\":9588:9615   */\n      swap2\n      pop\n        /* \"#utility.yul\":9544:9625   */\n    tag_368:\n        /* \"#utility.yul\":9672:9674   */\n      0x20\n        /* \"#utility.yul\":9664:9670   */\n      dup3\n        /* \"#utility.yul\":9661:9675   */\n      lt\n        /* \"#utility.yul\":9641:9659   */\n      dup2\n        /* \"#utility.yul\":9638:9676   */\n      sub\n        /* \"#utility.yul\":9635:9719   */\n      tag_369\n      jumpi\n        /* \"#utility.yul\":9691:9709   */\n      tag_370\n      tag_248\n      jump\t// in\n    tag_370:\n        /* \"#utility.yul\":9635:9719   */\n    tag_369:\n        /* \"#utility.yul\":9456:9725   */\n      pop\n        /* \"#utility.yul\":9405:9725   */\n      swap2\n      swap1\n      pop\n      jump\t// out\n        /* \"#utility.yul\":9731:9845   */\n    tag_249:\n      pop\n      jump\t// out\n        /* \"#utility.yul\":9851:10215   */\n    tag_250:\n        /* \"#utility.yul\":9993:9996   */\n      0x00\n        /* \"#utility.yul\":10014:10080   */\n      tag_373\n        /* \"#utility.yul\":10078:10079   */\n      0x00\n        /* \"#utility.yul\":10073:10076   */\n      dup4\n        /* \"#utility.yul\":10014:10080   */\n      tag_229\n      jump\t// in\n    tag_373:\n        /* \"#utility.yul\":10007:10080   */\n      swap2\n      pop\n        /* \"#utility.yul\":10089:10182   */\n      tag_374\n        /* \"#utility.yul\":10178:10181   */\n      dup3\n        /* \"#utility.yul\":10089:10182   */\n      tag_249\n      jump\t// in\n    tag_374:\n        /* \"#utility.yul\":10207:10208   */\n      0x00\n        /* \"#utility.yul\":10202:10205   */\n      dup3\n        /* \"#utility.yul\":10198:10209   */\n      add\n        /* \"#utility.yul\":10191:10209   */\n      swap1\n      pop\n        /* \"#utility.yul\":9851:10215   */\n      swap2\n      swap1\n      pop\n      jump\t// out\n        /* \"#utility.yul\":10221:10640   */\n    tag_109:\n        /* \"#utility.yul\":10387:10391   */\n      0x00\n        /* \"#utility.yul\":10425:10427   */\n      0x20\n        /* \"#utility.yul\":10414:10423   */\n      dup3\n        /* \"#utility.yul\":10410:10428   */\n      add\n        /* \"#utility.yul\":10402:10428   */\n      swap1\n      pop\n        /* \"#utility.yul\":10474:10483   */\n      dup2\n        /* \"#utility.yul\":10468:10472   */\n      dup2\n        /* \"#utility.yul\":10464:10484   */\n      sub\n        /* \"#utility.yul\":10460:10461   */\n      0x00\n        /* \"#utility.yul\":10449:10458   */\n      dup4\n        /* \"#utility.yul\":10445:10462   */\n      add\n        /* \"#utility.yul\":10438:10485   */\n      mstore\n        /* \"#utility.yul\":10502:10633   */\n      tag_376\n        /* \"#utility.yul\":10628:10632   */\n      dup2\n        /* \"#utility.yul\":10502:10633   */\n      tag_250\n      jump\t// in\n    tag_376:\n        /* \"#utility.yul\":10494:10633   */\n      swap1\n      pop\n        /* \"#utility.yul\":10221:10640   */\n      swap2\n      swap1\n      pop\n      jump\t// out\n        /* \"#utility.yul\":10646:10811   */\n    tag_251:\n        /* \"#utility.yul\":10786:10803   */\n      0x546f6b656e204e6f742045786973740000000000000000000000000000000000\n        /* \"#utility.yul\":10782:10783   */\n      0x00\n        /* \"#utility.yul\":10774:10780   */\n      dup3\n        /* \"#utility.yul\":10770:10784   */\n      add\n        /* \"#utility.yul\":10763:10804   */\n      mstore\n        /* \"#utility.yul\":10646:10811   */\n      pop\n      jump\t// out\n        /* \"#utility.yul\":10817:11183   */\n    tag_252:\n        /* \"#utility.yul\":10959:10962   */\n      0x00\n        /* \"#utility.yul\":10980:11047   */\n      tag_379\n        /* \"#utility.yul\":11044:11046   */\n      0x0f\n        /* \"#utility.yul\":11039:11042   */\n      dup4\n        /* \"#utility.yul\":10980:11047   */\n      tag_229\n      jump\t// in\n    tag_379:\n        /* \"#utility.yul\":10973:11047   */\n      swap2\n      pop\n        /* \"#utility.yul\":11056:11149   */\n      tag_380\n        /* \"#utility.yul\":11145:11148   */\n      dup3\n        /* \"#utility.yul\":11056:11149   */\n      tag_251\n      jump\t// in\n    tag_380:\n        /* \"#utility.yul\":11174:11176   */\n      0x20\n        /* \"#utility.yul\":11169:11172   */\n      dup3\n        /* \"#utility.yul\":11165:11177   */\n      add\n        /* \"#utility.yul\":11158:11177   */\n      swap1\n      pop\n        /* \"#utility.yul\":10817:11183   */\n      swap2\n      swap1\n      pop\n      jump\t// out\n        /* \"#utility.yul\":11189:11608   */\n    tag_150:\n        /* \"#utility.yul\":11355:11359   */\n      0x00\n        /* \"#utility.yul\":11393:11395   */\n      0x20\n        /* \"#utility.yul\":11382:11391   */\n      dup3\n        /* \"#utility.yul\":11378:11396   */\n      add\n        /* \"#utility.yul\":11370:11396   */\n      swap1\n      pop\n        /* \"#utility.yul\":11442:11451   */\n      dup2\n        /* \"#utility.yul\":11436:11440   */\n      dup2\n        /* \"#utility.yul\":11432:11452   */\n      sub\n        /* \"#utility.yul\":11428:11429   */\n      0x00\n        /* \"#utility.yul\":11417:11426   */\n      dup4\n        /* \"#utility.yul\":11413:11430   */\n      add\n        /* \"#utility.yul\":11406:11453   */\n      mstore\n        /* \"#utility.yul\":11470:11601   */\n      tag_382\n        /* \"#utility.yul\":11596:11600   */\n      dup2\n        /* \"#utility.yul\":11470:11601   */\n      tag_252\n      jump\t// in\n    tag_382:\n        /* \"#utility.yul\":11462:11601   */\n      swap1\n      pop\n        /* \"#utility.yul\":11189:11608   */\n      swap2\n      swap1\n      pop\n      jump\t// out\n        /* \"#utility.yul\":11614:11762   */\n    tag_253:\n        /* \"#utility.yul\":11716:11727   */\n      0x00\n        /* \"#utility.yul\":11753:11756   */\n      dup2\n        /* \"#utility.yul\":11738:11756   */\n      swap1\n      pop\n        /* \"#utility.yul\":11614:11762   */\n      swap3\n      swap2\n      pop\n      pop\n      jump\t// out\n        /* \"#utility.yul\":11768:12158   */\n    tag_254:\n        /* \"#utility.yul\":11874:11877   */\n      0x00\n        /* \"#utility.yul\":11902:11941   */\n      tag_385\n        /* \"#utility.yul\":11935:11940   */\n      dup3\n        /* \"#utility.yul\":11902:11941   */\n      tag_228\n      jump\t// in\n    tag_385:\n        /* \"#utility.yul\":11957:12046   */\n      tag_386\n        /* \"#utility.yul\":12039:12045   */\n      dup2\n        /* \"#utility.yul\":12034:12037   */\n      dup6\n        /* \"#utility.yul\":11957:12046   */\n      tag_253\n      jump\t// in\n    tag_386:\n        /* \"#utility.yul\":11950:12046   */\n      swap4\n      pop\n        /* \"#utility.yul\":12055:12120   */\n      tag_387\n        /* \"#utility.yul\":12113:12119   */\n      dup2\n        /* \"#utility.yul\":12108:12111   */\n      dup6\n        /* \"#utility.yul\":12101:12105   */\n      0x20\n        /* \"#utility.yul\":12094:12099   */\n      dup7\n        /* \"#utility.yul\":12090:12106   */\n      add\n        /* \"#utility.yul\":12055:12120   */\n      tag_230\n      jump\t// in\n    tag_387:\n        /* \"#utility.yul\":12145:12151   */\n      dup1\n        /* \"#utility.yul\":12140:12143   */\n      dup5\n        /* \"#utility.yul\":12136:12152   */\n      add\n        /* \"#utility.yul\":12129:12152   */\n      swap2\n      pop\n        /* \"#utility.yul\":11878:12158   */\n      pop\n        /* \"#utility.yul\":11768:12158   */\n      swap3\n      swap2\n      pop\n      pop\n      jump\t// out\n        /* \"#utility.yul\":12164:12599   */\n    tag_158:\n        /* \"#utility.yul\":12344:12347   */\n      0x00\n        /* \"#utility.yul\":12366:12461   */\n      tag_389\n        /* \"#utility.yul\":12457:12460   */\n      dup3\n        /* \"#utility.yul\":12448:12454   */\n      dup6\n        /* \"#utility.yul\":12366:12461   */\n      tag_254\n      jump\t// in\n    tag_389:\n        /* \"#utility.yul\":12359:12461   */\n      swap2\n      pop\n        /* \"#utility.yul\":12478:12573   */\n      tag_390\n        /* \"#utility.yul\":12569:12572   */\n      dup3\n        /* \"#utility.yul\":12560:12566   */\n      dup5\n        /* \"#utility.yul\":12478:12573   */\n      tag_254\n      jump\t// in\n    tag_390:\n        /* \"#utility.yul\":12471:12573   */\n      swap2\n      pop\n        /* \"#utility.yul\":12590:12593   */\n      dup2\n        /* \"#utility.yul\":12583:12593   */\n      swap1\n      pop\n        /* \"#utility.yul\":12164:12599   */\n      swap4\n      swap3\n      pop\n      pop\n      pop\n      jump\t// out\n        /* \"#utility.yul\":12605:12785   */\n    tag_255:\n        /* \"#utility.yul\":12653:12730   */\n      0x4e487b7100000000000000000000000000000000000000000000000000000000\n        /* \"#utility.yul\":12650:12651   */\n      0x00\n        /* \"#utility.yul\":12643:12731   */\n      mstore\n        /* \"#utility.yul\":12750:12754   */\n      0x11\n        /* \"#utility.yul\":12747:12748   */\n      0x04\n        /* \"#utility.yul\":12740:12755   */\n      mstore\n        /* \"#utility.yul\":12774:12778   */\n      0x24\n        /* \"#utility.yul\":12771:12772   */\n      0x00\n        /* \"#utility.yul\":12764:12779   */\n      revert\n        /* \"#utility.yul\":12791:12985   */\n    tag_174:\n        /* \"#utility.yul\":12831:12835   */\n      0x00\n        /* \"#utility.yul\":12851:12871   */\n      tag_393\n        /* \"#utility.yul\":12869:12870   */\n      dup3\n        /* \"#utility.yul\":12851:12871   */\n      tag_233\n      jump\t// in\n    tag_393:\n        /* \"#utility.yul\":12846:12871   */\n      swap2\n      pop\n        /* \"#utility.yul\":12885:12905   */\n      tag_394\n        /* \"#utility.yul\":12903:12904   */\n      dup4\n        /* \"#utility.yul\":12885:12905   */\n      tag_233\n      jump\t// in\n    tag_394:\n        /* \"#utility.yul\":12880:12905   */\n      swap3\n      pop\n        /* \"#utility.yul\":12929:12930   */\n      dup3\n        /* \"#utility.yul\":12926:12927   */\n      dup3\n        /* \"#utility.yul\":12922:12931   */\n      sub\n        /* \"#utility.yul\":12914:12931   */\n      swap1\n      pop\n        /* \"#utility.yul\":12953:12954   */\n      dup2\n        /* \"#utility.yul\":12947:12951   */\n      dup2\n        /* \"#utility.yul\":12944:12955   */\n      gt\n        /* \"#utility.yul\":12941:12978   */\n      iszero\n      tag_395\n      jumpi\n        /* \"#utility.yul\":12958:12976   */\n      tag_396\n      tag_255\n      jump\t// in\n    tag_396:\n        /* \"#utility.yul\":12941:12978   */\n    tag_395:\n        /* \"#utility.yul\":12791:12985   */\n      swap3\n      swap2\n      pop\n      pop\n      jump\t// out\n        /* \"#utility.yul\":12991:13089   */\n    tag_256:\n        /* \"#utility.yul\":13042:13048   */\n      0x00\n        /* \"#utility.yul\":13076:13081   */\n      dup2\n        /* \"#utility.yul\":13070:13082   */\n      mload\n        /* \"#utility.yul\":13060:13082   */\n      swap1\n      pop\n        /* \"#utility.yul\":12991:13089   */\n      swap2\n      swap1\n      pop\n      jump\t// out\n        /* \"#utility.yul\":13095:13263   */\n    tag_257:\n        /* \"#utility.yul\":13178:13189   */\n      0x00\n        /* \"#utility.yul\":13212:13218   */\n      dup3\n        /* \"#utility.yul\":13207:13210   */\n      dup3\n        /* \"#utility.yul\":13200:13219   */\n      mstore\n        /* \"#utility.yul\":13252:13256   */\n      0x20\n        /* \"#utility.yul\":13247:13250   */\n      dup3\n        /* \"#utility.yul\":13243:13257   */\n      add\n        /* \"#utility.yul\":13228:13257   */\n      swap1\n      pop\n        /* \"#utility.yul\":13095:13263   */\n      swap3\n      swap2\n      pop\n      pop\n      jump\t// out\n        /* \"#utility.yul\":13269:13642   */\n    tag_258:\n        /* \"#utility.yul\":13355:13358   */\n      0x00\n        /* \"#utility.yul\":13383:13421   */\n      tag_400\n        /* \"#utility.yul\":13415:13420   */\n      dup3\n        /* \"#utility.yul\":13383:13421   */\n      tag_256\n      jump\t// in\n    tag_400:\n        /* \"#utility.yul\":13437:13507   */\n      tag_401\n        /* \"#utility.yul\":13500:13506   */\n      dup2\n        /* \"#utility.yul\":13495:13498   */\n      dup6\n        /* \"#utility.yul\":13437:13507   */\n      tag_257\n      jump\t// in\n    tag_401:\n        /* \"#utility.yul\":13430:13507   */\n      swap4\n      pop\n        /* \"#utility.yul\":13516:13581   */\n      tag_402\n        /* \"#utility.yul\":13574:13580   */\n      dup2\n        /* \"#utility.yul\":13569:13572   */\n      dup6\n        /* \"#utility.yul\":13562:13566   */\n      0x20\n        /* \"#utility.yul\":13555:13560   */\n      dup7\n        /* \"#utility.yul\":13551:13567   */\n      add\n        /* \"#utility.yul\":13516:13581   */\n      tag_230\n      jump\t// in\n    tag_402:\n        /* \"#utility.yul\":13606:13635   */\n      tag_403\n        /* \"#utility.yul\":13628:13634   */\n      dup2\n        /* \"#utility.yul\":13606:13635   */\n      tag_231\n      jump\t// in\n    tag_403:\n        /* \"#utility.yul\":13601:13604   */\n      dup5\n        /* \"#utility.yul\":13597:13636   */\n      add\n        /* \"#utility.yul\":13590:13636   */\n      swap2\n      pop\n        /* \"#utility.yul\":13359:13642   */\n      pop\n        /* \"#utility.yul\":13269:13642   */\n      swap3\n      swap2\n      pop\n      pop\n      jump\t// out\n        /* \"#utility.yul\":13648:14288   */\n    tag_179:\n        /* \"#utility.yul\":13843:13847   */\n      0x00\n        /* \"#utility.yul\":13881:13884   */\n      0x80\n        /* \"#utility.yul\":13870:13879   */\n      dup3\n        /* \"#utility.yul\":13866:13885   */\n      add\n        /* \"#utility.yul\":13858:13885   */\n      swap1\n      pop\n        /* \"#utility.yul\":13895:13966   */\n      tag_405\n        /* \"#utility.yul\":13963:13964   */\n      0x00\n        /* \"#utility.yul\":13952:13961   */\n      dup4\n        /* \"#utility.yul\":13948:13965   */\n      add\n        /* \"#utility.yul\":13939:13945   */\n      dup8\n        /* \"#utility.yul\":13895:13966   */\n      tag_238\n      jump\t// in\n    tag_405:\n        /* \"#utility.yul\":13976:14048   */\n      tag_406\n        /* \"#utility.yul\":14044:14046   */\n      0x20\n        /* \"#utility.yul\":14033:14042   */\n      dup4\n        /* \"#utility.yul\":14029:14047   */\n      add\n        /* \"#utility.yul\":14020:14026   */\n      dup7\n        /* \"#utility.yul\":13976:14048   */\n      tag_238\n      jump\t// in\n    tag_406:\n        /* \"#utility.yul\":14058:14130   */\n      tag_407\n        /* \"#utility.yul\":14126:14128   */\n      0x40\n        /* \"#utility.yul\":14115:14124   */\n      dup4\n        /* \"#utility.yul\":14111:14129   */\n      add\n        /* \"#utility.yul\":14102:14108   */\n      dup6\n        /* \"#utility.yul\":14058:14130   */\n      tag_241\n      jump\t// in\n    tag_407:\n        /* \"#utility.yul\":14177:14186   */\n      dup2\n        /* \"#utility.yul\":14171:14175   */\n      dup2\n        /* \"#utility.yul\":14167:14187   */\n      sub\n        /* \"#utility.yul\":14162:14164   */\n      0x60\n        /* \"#utility.yul\":14151:14160   */\n      dup4\n        /* \"#utility.yul\":14147:14165   */\n      add\n        /* \"#utility.yul\":14140:14188   */\n      mstore\n        /* \"#utility.yul\":14205:14281   */\n      tag_408\n        /* \"#utility.yul\":14276:14280   */\n      dup2\n        /* \"#utility.yul\":14267:14273   */\n      dup5\n        /* \"#utility.yul\":14205:14281   */\n      tag_258\n      jump\t// in\n    tag_408:\n        /* \"#utility.yul\":14197:14281   */\n      swap1\n      pop\n        /* \"#utility.yul\":13648:14288   */\n      swap6\n      swap5\n      pop\n      pop\n      pop\n      pop\n      pop\n      jump\t// out\n        /* \"#utility.yul\":14294:14435   */\n    tag_259:\n        /* \"#utility.yul\":14350:14355   */\n      0x00\n        /* \"#utility.yul\":14381:14387   */\n      dup2\n        /* \"#utility.yul\":14375:14388   */\n      mload\n        /* \"#utility.yul\":14366:14388   */\n      swap1\n      pop\n        /* \"#utility.yul\":14397:14429   */\n      tag_410\n        /* \"#utility.yul\":14423:14428   */\n      dup2\n        /* \"#utility.yul\":14397:14429   */\n      tag_224\n      jump\t// in\n    tag_410:\n        /* \"#utility.yul\":14294:14435   */\n      swap3\n      swap2\n      pop\n      pop\n      jump\t// out\n        /* \"#utility.yul\":14441:14790   */\n    tag_182:\n        /* \"#utility.yul\":14510:14516   */\n      0x00\n        /* \"#utility.yul\":14559:14561   */\n      0x20\n        /* \"#utility.yul\":14547:14556   */\n      dup3\n        /* \"#utility.yul\":14538:14545   */\n      dup5\n        /* \"#utility.yul\":14534:14557   */\n      sub\n        /* \"#utility.yul\":14530:14562   */\n      slt\n        /* \"#utility.yul\":14527:14646   */\n      iszero\n      tag_412\n      jumpi\n        /* \"#utility.yul\":14565:14644   */\n      tag_413\n      tag_221\n      jump\t// in\n    tag_413:\n        /* \"#utility.yul\":14527:14646   */\n    tag_412:\n        /* \"#utility.yul\":14685:14686   */\n      0x00\n        /* \"#utility.yul\":14710:14773   */\n      tag_414\n        /* \"#utility.yul\":14765:14772   */\n      dup5\n        /* \"#utility.yul\":14756:14762   */\n      dup3\n        /* \"#utility.yul\":14745:14754   */\n      dup6\n        /* \"#utility.yul\":14741:14763   */\n      add\n        /* \"#utility.yul\":14710:14773   */\n      tag_259\n      jump\t// in\n    tag_414:\n        /* \"#utility.yul\":14700:14773   */\n      swap2\n      pop\n        /* \"#utility.yul\":14656:14783   */\n      pop\n        /* \"#utility.yul\":14441:14790   */\n      swap3\n      swap2\n      pop\n      pop\n      jump\t// out\n        /* \"#utility.yul\":14796:15029   */\n    tag_201:\n        /* \"#utility.yul\":14835:14838   */\n      0x00\n        /* \"#utility.yul\":14858:14882   */\n      tag_416\n        /* \"#utility.yul\":14876:14881   */\n      dup3\n        /* \"#utility.yul\":14858:14882   */\n      tag_233\n      jump\t// in\n    tag_416:\n        /* \"#utility.yul\":14849:14882   */\n      swap2\n      pop\n        /* \"#utility.yul\":14904:14970   */\n      0xffffffffffffffffffffffffffffffffffffffffffffffffffffffffffffffff\n        /* \"#utility.yul\":14897:14902   */\n      dup3\n        /* \"#utility.yul\":14894:14971   */\n      sub\n        /* \"#utility.yul\":14891:14994   */\n      tag_417\n      jumpi\n        /* \"#utility.yul\":14974:14992   */\n      tag_418\n      tag_255\n      jump\t// in\n    tag_418:\n        /* \"#utility.yul\":14891:14994   */\n    tag_417:\n        /* \"#utility.yul\":15021:15022   */\n      0x01\n        /* \"#utility.yul\":15014:15019   */\n      dup3\n        /* \"#utility.yul\":15010:15023   */\n      add\n        /* \"#utility.yul\":15003:15023   */\n      swap1\n      pop\n        /* \"#utility.yul\":14796:15029   */\n      swap2\n      swap1\n      pop\n      jump\t// out\n        /* \"#utility.yul\":15035:15215   */\n    tag_260:\n        /* \"#utility.yul\":15083:15160   */\n      0x4e487b7100000000000000000000000000000000000000000000000000000000\n        /* \"#utility.yul\":15080:15081   */\n      0x00\n        /* \"#utility.yul\":15073:15161   */\n      mstore\n        /* \"#utility.yul\":15180:15184   */\n      0x12\n        /* \"#utility.yul\":15177:15178   */\n      0x04\n        /* \"#utility.yul\":15170:15185   */\n      mstore\n        /* \"#utility.yul\":15204:15208   */\n      0x24\n        /* \"#utility.yul\":15201:15202   */\n      0x00\n        /* \"#utility.yul\":15194:15209   */\n      revert\n        /* \"#utility.yul\":15221:15406   */\n    tag_203:\n        /* \"#utility.yul\":15261:15262   */\n      0x00\n        /* \"#utility.yul\":15278:15298   */\n      tag_421\n        /* \"#utility.yul\":15296:15297   */\n      dup3\n        /* \"#utility.yul\":15278:15298   */\n      tag_233\n      jump\t// in\n    tag_421:\n        /* \"#utility.yul\":15273:15298   */\n      swap2\n      pop\n        /* \"#utility.yul\":15312:15332   */\n      tag_422\n        /* \"#utility.yul\":15330:15331   */\n      dup4\n        /* \"#utility.yul\":15312:15332   */\n      tag_233\n      jump\t// in\n    tag_422:\n        /* \"#utility.yul\":15307:15332   */\n      swap3\n      pop\n        /* \"#utility.yul\":15351:15352   */\n      dup3\n        /* \"#utility.yul\":15341:15376   */\n      tag_423\n      jumpi\n        /* \"#utility.yul\":15356:15374   */\n      tag_424\n      tag_260\n      jump\t// in\n    tag_424:\n        /* \"#utility.yul\":15341:15376   */\n    tag_423:\n        /* \"#utility.yul\":15398:15399   */\n      dup3\n        /* \"#utility.yul\":15395:15396   */\n      dup3\n        /* \"#utility.yul\":15391:15400   */\n      div\n        /* \"#utility.yul\":15386:15400   */\n      swap1\n      pop\n        /* \"#utility.yul\":15221:15406   */\n      swap3\n      swap2\n      pop\n      pop\n      jump\t// out\n        /* \"#utility.yul\":15412:15592   */\n    tag_206:\n        /* \"#utility.yul\":15460:15537   */\n      0x4e487b7100000000000000000000000000000000000000000000000000000000\n        /* \"#utility.yul\":15457:15458   */\n      0x00\n        /* \"#utility.yul\":15450:15538   */\n      mstore\n        /* \"#utility.yul\":15557:15561   */\n      0x41\n        /* \"#utility.yul\":15554:15555   */\n      0x04\n        /* \"#utility.yul\":15547:15562   */\n      mstore\n        /* \"#utility.yul\":15581:15585   */\n      0x24\n        /* \"#utility.yul\":15578:15579   */\n      0x00\n        /* \"#utility.yul\":15571:15586   */\n      revert\n        /* \"#utility.yul\":15598:15774   */\n    tag_212:\n        /* \"#utility.yul\":15630:15631   */\n      0x00\n        /* \"#utility.yul\":15647:15667   */\n      tag_427\n        /* \"#utility.yul\":15665:15666   */\n      dup3\n        /* \"#utility.yul\":15647:15667   */\n      tag_233\n      jump\t// in\n    tag_427:\n        /* \"#utility.yul\":15642:15667   */\n      swap2\n      pop\n        /* \"#utility.yul\":15681:15701   */\n      tag_428\n        /* \"#utility.yul\":15699:15700   */\n      dup4\n        /* \"#utility.yul\":15681:15701   */\n      tag_233\n      jump\t// in\n    tag_428:\n        /* \"#utility.yul\":15676:15701   */\n      swap3\n      pop\n        /* \"#utility.yul\":15720:15721   */\n      dup3\n        /* \"#utility.yul\":15710:15745   */\n      tag_429\n      jumpi\n        /* \"#utility.yul\":15725:15743   */\n      tag_430\n      tag_260\n      jump\t// in\n    tag_430:\n        /* \"#utility.yul\":15710:15745   */\n    tag_429:\n        /* \"#utility.yul\":15766:15767   */\n      dup3\n        /* \"#utility.yul\":15763:15764   */\n      dup3\n        /* \"#utility.yul\":15759:15768   */\n      mod\n        /* \"#utility.yul\":15754:15768   */\n      swap1\n      pop\n        /* \"#utility.yul\":15598:15774   */\n      swap3\n      swap2\n      pop\n      pop\n      jump\t// out\n        /* \"#utility.yul\":15780:15971   */\n    tag_214:\n        /* \"#utility.yul\":15820:15823   */\n      0x00\n        /* \"#utility.yul\":15839:15859   */\n      tag_432\n        /* \"#utility.yul\":15857:15858   */\n      dup3\n        /* \"#utility.yul\":15839:15859   */\n      tag_233\n      jump\t// in\n    tag_432:\n        /* \"#utility.yul\":15834:15859   */\n      swap2\n      pop\n        /* \"#utility.yul\":15873:15893   */\n      tag_433\n        /* \"#utility.yul\":15891:15892   */\n      dup4\n        /* \"#utility.yul\":15873:15893   */\n      tag_233\n      jump\t// in\n    tag_433:\n        /* \"#utility.yul\":15868:15893   */\n      swap3\n      pop\n        /* \"#utility.yul\":15916:15917   */\n      dup3\n        /* \"#utility.yul\":15913:15914   */\n      dup3\n        /* \"#utility.yul\":15909:15918   */\n      add\n        /* \"#utility.yul\":15902:15918   */\n      swap1\n      pop\n        /* \"#utility.yul\":15937:15940   */\n      dup1\n        /* \"#utility.yul\":15934:15935   */\n      dup3\n        /* \"#utility.yul\":15931:15941   */\n      gt\n        /* \"#utility.yul\":15928:15964   */\n      iszero\n      tag_434\n      jumpi\n        /* \"#utility.yul\":15944:15962   */\n      tag_435\n      tag_255\n      jump\t// in\n    tag_435:\n        /* \"#utility.yul\":15928:15964   */\n    tag_434:\n        /* \"#utility.yul\":15780:15971   */\n      swap3\n      swap2\n      pop\n      pop\n      jump\t// out\n        /* \"#utility.yul\":15977:16157   */\n    tag_217:\n        /* \"#utility.yul\":16025:16102   */\n      0x4e487b7100000000000000000000000000000000000000000000000000000000\n        /* \"#utility.yul\":16022:16023   */\n      0x00\n        /* \"#utility.yul\":16015:16103   */\n      mstore\n        /* \"#utility.yul\":16122:16126   */\n      0x32\n        /* \"#utility.yul\":16119:16120   */\n      0x04\n        /* \"#utility.yul\":16112:16127   */\n      mstore\n        /* \"#utility.yul\":16146:16150   */\n      0x24\n        /* \"#utility.yul\":16143:16144   */\n      0x00\n        /* \"#utility.yul\":16136:16151   */\n      revert\n\n    auxdata: 0xa2646970667358221220fede38afe8da89a3faf1c31f4de821cc4e08812ba9f25a0462c0248308d4884d64736f6c634300081e0033\n}\n",
				"bytecode": {
					"linkReferences": {},
					"object": "608060405234801561000f575f5ffd5b50604051612355380380612355833981810160405281019061003191906101a4565b815f908161003f919061042a565b50806001908161004f919061042a565b5050506104f9565b5f604051905090565b5f5ffd5b5f5ffd5b5f5ffd5b5f5ffd5b5f601f19601f8301169050919050565b7f4e487b71000000000000000000000000000000000000000000000000000000005f52604160045260245ffd5b6100b682610070565b810181811067ffffffffffffffff821117156100d5576100d4610080565b5b80604052505050565b5f6100e7610057565b90506100f382826100ad565b919050565b5f67ffffffffffffffff82111561011257610111610080565b5b61011b82610070565b9050602081019050919050565b8281835e5f83830152505050565b5f610148610143846100f8565b6100de565b9050828152602081018484840111156101645761016361006c565b5b61016f848285610128565b509392505050565b5f82601f83011261018b5761018a610068565b5b815161019b848260208601610136565b91505092915050565b5f5f604083850312156101ba576101b9610060565b5b5f83015167ffffffffffffffff8111156101d7576101d6610064565b5b6101e385828601610177565b925050602083015167ffffffffffffffff81111561020457610203610064565b5b61021085828601610177565b9150509250929050565b5f81519050919050565b7f4e487b71000000000000000000000000000000000000000000000000000000005f52602260045260245ffd5b5f600282049050600182168061026857607f821691505b60208210810361027b5761027a610224565b5b50919050565b5f819050815f5260205f209050919050565b5f6020601f8301049050919050565b5f82821b905092915050565b5f600883026102dd7fffffffffffffffffffffffffffffffffffffffffffffffffffffffffffffffff826102a2565b6102e786836102a2565b95508019841693508086168417925050509392505050565b5f819050919050565b5f819050919050565b5f61032b610326610321846102ff565b610308565b6102ff565b9050919050565b5f819050919050565b61034483610311565b61035861035082610332565b8484546102ae565b825550505050565b5f5f905090565b61036f610360565b61037a81848461033b565b505050565b5b8181101561039d576103925f82610367565b600181019050610380565b5050565b601f8211156103e2576103b381610281565b6103bc84610293565b810160208510156103cb578190505b6103df6103d785610293565b83018261037f565b50505b505050565b5f82821c905092915050565b5f6104025f19846008026103e7565b1980831691505092915050565b5f61041a83836103f3565b9150826002028217905092915050565b6104338261021a565b67ffffffffffffffff81111561044c5761044b610080565b5b6104568254610251565b6104618282856103a1565b5f60209050601f831160018114610492575f8415610480578287015190505b61048a858261040f565b8655506104f1565b601f1984166104a086610281565b5f5b828110156104c7578489015182556001820191506020850194506020810190506104a2565b868310156104e457848901516104e0601f8916826103f3565b8355505b6001600288020188555050505b505050505050565b611e4f806105065f395ff3fe608060405234801561000f575f5ffd5b5060043610610109575f3560e01c806395d89b41116100a0578063c33544021161006f578063c3354402146102ed578063c87b56dd14610309578063edc3bc3f14610339578063febe490914610369578063ffb74e641461038557610109565b806395d89b4114610253578063992924a614610271578063a7cc0136146102a1578063b88d4fde146102d157610109565b806342842e0e116100dc57806342842e0e146101a75780636352211e146101c35780636ebcf607146101f357806370a082311461022357610109565b806301ffc9a71461010d57806306fdde031461013d578063081812fc1461015b57806323b872dd1461018b575b5f5ffd5b610127600480360381019061012291906115e0565b6103b5565b6040516101349190611625565b60405180910390f35b6101456104ed565b60405161015291906116ae565b60405180910390f35b61017560048036038101906101709190611701565b610578565b604051610182919061176b565b60405180910390f35b6101a560048036038101906101a091906117ae565b610695565b005b6101c160048036038101906101bc91906117ae565b6106fc565b005b6101dd60048036038101906101d89190611701565b61077d565b6040516101ea919061176b565b60405180910390f35b61020d600480360381019061020891906117fe565b610824565b60405161021a9190611838565b60405180910390f35b61023d600480360381019061023891906117fe565b610839565b60405161024a9190611838565b60405180910390f35b61025b6108ed565b60405161026891906116ae565b60405180910390f35b61028b60048036038101906102869190611701565b610979565b604051610298919061176b565b60405180910390f35b6102bb60048036038101906102b69190611701565b6109a9565b6040516102c8919061176b565b60405180910390f35b6102eb60048036038101906102e691906118b2565b6109d9565b005b61030760048036038101906103029190611960565b610a91565b005b610323600480360381019061031e9190611701565b610b81565b60405161033091906116ae565b60405180910390f35b610353600480360381019061034e919061199e565b610c7b565b6040516103609190611625565b60405180910390f35b610383600480360381019061037e91906119dc565b610ca5565b005b61039f600480360381019061039a91906117fe565b610e32565b6040516103ac9190611625565b60405180910390f35b5f7e67e1b1000000000000000000000000000000000000000000000000000000007bffffffffffffffffffffffffffffffffffffffffffffffffffffffff1916827bffffffffffffffffffffffffffffffffffffffffffffffffffffffff1916148061047e57507f01ffc9a7000000000000000000000000000000000000000000000000000000007bffffffffffffffffffffffffffffffffffffffffffffffffffffffff1916827bffffffffffffffffffffffffffffffffffffffffffffffffffffffff1916145b806104e657507f5b5e139f000000000000000000000000000000000000000000000000000000007bffffffffffffffffffffffffffffffffffffffffffffffffffffffff1916827bffffffffffffffffffffffffffffffffffffffffffffffffffffffff1916145b9050919050565b5f80546104f990611a47565b80601f016020809104026020016040519081016040528092919081815260200182805461052590611a47565b80156105705780601f1061054757610100808354040283529160200191610570565b820191905f5260205f20905b81548152906001019060200180831161055357829003601f168201915b505050505081565b5f5f73ffffffffffffffffffffffffffffffffffffffff166105998361077d565b73ffffffffffffffffffffffffffffffffffffffff16036105ef576040517f08c379a00000000000000000000000000000000000000000000000000000000081526004016105e690611a9a565b60405180910390fd5b60045f8381526020019081526020015f205f9054906101000a900473ffffffffffffffffffffffffffffffffffffffff1690505f73ffffffffffffffffffffffffffffffffffffffff168173ffffffffffffffffffffffffffffffffffffffff1614610690576040517f08c379a000000000000000000000000000000000000000000000000000000000815260040161068790611a9a565b60405180910390fd5b919050565b5f61069f8261077d565b90506106ac813384610ebf565b6106eb576040517f08c379a00000000000000000000000000000000000000000000000000000000081526004016106e290611a9a565b60405180910390fd5b6106f6848484610fea565b50505050565b5f6107068261077d565b9050610713813384610ebf565b610752576040517f08c379a000000000000000000000000000000000000000000000000000000000815260040161074990611a9a565b60405180910390fd5b61075d848484610fea565b61077784848460405180602001604052805f8152506111ba565b50505050565b5f60025f8381526020019081526020015f205f9054906101000a900473ffffffffffffffffffffffffffffffffffffffff1690505f73ffffffffffffffffffffffffffffffffffffffff168173ffffffffffffffffffffffffffffffffffffffff160361081f576040517f08c379a000000000000000000000000000000000000000000000000000000000815260040161081690611a9a565b60405180910390fd5b919050565b6003602052805f5260405f205f915090505481565b5f5f73ffffffffffffffffffffffffffffffffffffffff168273ffffffffffffffffffffffffffffffffffffffff16036108a8576040517f08c379a000000000000000000000000000000000000000000000000000000000815260040161089f90611a9a565b60405180910390fd5b60035f8373ffffffffffffffffffffffffffffffffffffffff1673ffffffffffffffffffffffffffffffffffffffff1681526020019081526020015f20549050919050565b600180546108fa90611a47565b80601f016020809104026020016040519081016040528092919081815260200182805461092690611a47565b80156109715780601f1061094857610100808354040283529160200191610971565b820191905f5260205f20905b81548152906001019060200180831161095457829003601f168201915b505050505081565b6002602052805f5260405f205f915054906101000a900473ffffffffffffffffffffffffffffffffffffffff1681565b6004602052805f5260405f205f915054906101000a900473ffffffffffffffffffffffffffffffffffffffff1681565b5f6109e38461077d565b90506109f0813386610ebf565b610a2f576040517f08c379a0000000000000000000000000000000000000000000000000000000008152600401610a2690611a9a565b60405180910390fd5b610a3a868686610fea565b610a8986868686868080601f0160208091040260200160405190810160405280939291908181526020018383808284375f81840152601f19601f820116905080830192505050505050506111ba565b505050505050565b8060055f3373ffffffffffffffffffffffffffffffffffffffff1673ffffffffffffffffffffffffffffffffffffffff1681526020019081526020015f205f8473ffffffffffffffffffffffffffffffffffffffff1673ffffffffffffffffffffffffffffffffffffffff1681526020019081526020015f205f6101000a81548160ff0219169083151502179055508015158273ffffffffffffffffffffffffffffffffffffffff163373ffffffffffffffffffffffffffffffffffffffff167f17307eab39ab6107e8899845ad3d59bd9653f200f220920489ca2b5937696c3160405160405180910390a45050565b60605f73ffffffffffffffffffffffffffffffffffffffff1660025f8481526020019081526020015f205f9054906101000a900473ffffffffffffffffffffffffffffffffffffffff1673ffffffffffffffffffffffffffffffffffffffff1603610c21576040517f08c379a0000000000000000000000000000000000000000000000000000000008152600401610c1890611b02565b60405180910390fd5b5f610c2a611365565b90505f815111610c485760405180602001604052805f815250610c73565b80610c528461137b565b604051602001610c63929190611b5a565b6040516020818303038152906040525b915050919050565b6005602052815f5260405f20602052805f5260405f205f915091509054906101000a900460ff1681565b5f60025f8481526020019081526020015f205f9054906101000a900473ffffffffffffffffffffffffffffffffffffffff1690503373ffffffffffffffffffffffffffffffffffffffff168173ffffffffffffffffffffffffffffffffffffffff161480610d94575060055f8273ffffffffffffffffffffffffffffffffffffffff1673ffffffffffffffffffffffffffffffffffffffff1681526020019081526020015f205f8373ffffffffffffffffffffffffffffffffffffffff1673ffffffffffffffffffffffffffffffffffffffff1681526020019081526020015f205f9054906101000a900460ff165b610dd3576040517f08c379a0000000000000000000000000000000000000000000000000000000008152600401610dca90611a9a565b60405180910390fd5b8160045f8581526020019081526020015f205f6101000a81548173ffffffffffffffffffffffffffffffffffffffff021916908373ffffffffffffffffffffffffffffffffffffffff160217905550610e2d8183856114d4565b505050565b5f60055f3373ffffffffffffffffffffffffffffffffffffffff1673ffffffffffffffffffffffffffffffffffffffff1681526020019081526020015f205f8373ffffffffffffffffffffffffffffffffffffffff1673ffffffffffffffffffffffffffffffffffffffff1681526020019081526020015f205f9054906101000a900460ff169050919050565b5f8373ffffffffffffffffffffffffffffffffffffffff168373ffffffffffffffffffffffffffffffffffffffff161480610f5557508273ffffffffffffffffffffffffffffffffffffffff1660045f8481526020019081526020015f205f9054906101000a900473ffffffffffffffffffffffffffffffffffffffff1673ffffffffffffffffffffffffffffffffffffffff16145b80610fe1575060055f8573ffffffffffffffffffffffffffffffffffffffff1673ffffffffffffffffffffffffffffffffffffffff1681526020019081526020015f205f8473ffffffffffffffffffffffffffffffffffffffff1673ffffffffffffffffffffffffffffffffffffffff1681526020019081526020015f205f9054906101000a900460ff165b90509392505050565b5f73ffffffffffffffffffffffffffffffffffffffff168273ffffffffffffffffffffffffffffffffffffffff1603611058576040517f08c379a000000000000000000000000000000000000000000000000000000000815260040161104f90611a9a565b60405180910390fd5b611063835f836114d4565b8160025f8381526020019081526020015f205f6101000a81548173ffffffffffffffffffffffffffffffffffffffff021916908373ffffffffffffffffffffffffffffffffffffffff160217905550600160035f8573ffffffffffffffffffffffffffffffffffffffff1673ffffffffffffffffffffffffffffffffffffffff1681526020019081526020015f205f8282546110ff9190611baa565b92505081905550600160035f8473ffffffffffffffffffffffffffffffffffffffff1673ffffffffffffffffffffffffffffffffffffffff1681526020019081526020015f205f8282546111539190611baa565b92505081905550808273ffffffffffffffffffffffffffffffffffffffff168473ffffffffffffffffffffffffffffffffffffffff167fddf252ad1be2c89b69c2b068fc378daa952ba7f163c4a11628f55a4df523b3ef60405160405180910390a4505050565b5f8373ffffffffffffffffffffffffffffffffffffffff163b111561135f578273ffffffffffffffffffffffffffffffffffffffff1663150b7a02338685856040518563ffffffff1660e01b81526004016112189493929190611c2f565b6020604051808303815f875af192505050801561125357506040513d601f19601f820116820180604052508101906112509190611c8d565b60015b6112d4573d805f8114611281576040519150601f19603f3d011682016040523d82523d5f602084013e611286565b606091505b505f8151036112cc57836040517ff9ecab620000000000000000000000000000000000000000000000000000000081526004016112c3919061176b565b60405180910390fd5b805181602001fd5b63150b7a0260e01b7bffffffffffffffffffffffffffffffffffffffffffffffffffffffff1916817bffffffffffffffffffffffffffffffffffffffffffffffffffffffff19161461135d57836040517ff9ecab62000000000000000000000000000000000000000000000000000000008152600401611354919061176b565b60405180910390fd5b505b50505050565b606060405180602001604052805f815250905090565b60605f82036113c1576040518060400160405280600181526020017f300000000000000000000000000000000000000000000000000000000000000081525090506114cf565b5f8290505f5b5f82146113f05780806113d990611cb8565b915050600a826113e99190611d2c565b91506113c7565b5f8167ffffffffffffffff81111561140b5761140a611d5c565b5b6040519080825280601f01601f19166020018201604052801561143d5781602001600182028036833780820191505090505b5090505b5f85146114c8576001826114559190611baa565b9150600a856114649190611d89565b60306114709190611db9565b60f81b81838151811061148657611485611dec565b5b60200101907effffffffffffffffffffffffffffffffffffffffffffffffffffffffffffff191690815f1a905350600a856114c19190611d2c565b9450611441565b8093505050505b919050565b8160045f8381526020019081526020015f205f6101000a81548173ffffffffffffffffffffffffffffffffffffffff021916908373ffffffffffffffffffffffffffffffffffffffff160217905550808273ffffffffffffffffffffffffffffffffffffffff168473ffffffffffffffffffffffffffffffffffffffff167f8c5be1e5ebec7d5bd14f71427d1e84f3dd0314c0f7b2291e5b200ac8c7c3b92560405160405180910390a4505050565b5f5ffd5b5f5ffd5b5f7fffffffff0000000000000000000000000000000000000000000000000000000082169050919050565b6115bf8161158b565b81146115c9575f5ffd5b50565b5f813590506115da816115b6565b92915050565b5f602082840312156115f5576115f4611583565b5b5f611602848285016115cc565b91505092915050565b5f8115159050919050565b61161f8161160b565b82525050565b5f6020820190506116385f830184611616565b92915050565b5f81519050919050565b5f82825260208201905092915050565b8281835e5f83830152505050565b5f601f19601f8301169050919050565b5f6116808261163e565b61168a8185611648565b935061169a818560208601611658565b6116a381611666565b840191505092915050565b5f6020820190508181035f8301526116c68184611676565b905092915050565b5f819050919050565b6116e0816116ce565b81146116ea575f5ffd5b50565b5f813590506116fb816116d7565b92915050565b5f6020828403121561171657611715611583565b5b5f611723848285016116ed565b91505092915050565b5f73ffffffffffffffffffffffffffffffffffffffff82169050919050565b5f6117558261172c565b9050919050565b6117658161174b565b82525050565b5f60208201905061177e5f83018461175c565b92915050565b61178d8161174b565b8114611797575f5ffd5b50565b5f813590506117a881611784565b92915050565b5f5f5f606084860312156117c5576117c4611583565b5b5f6117d28682870161179a565b93505060206117e38682870161179a565b92505060406117f4868287016116ed565b9150509250925092565b5f6020828403121561181357611812611583565b5b5f6118208482850161179a565b91505092915050565b611832816116ce565b82525050565b5f60208201905061184b5f830184611829565b92915050565b5f5ffd5b5f5ffd5b5f5ffd5b5f5f83601f84011261187257611871611851565b5b8235905067ffffffffffffffff81111561188f5761188e611855565b5b6020830191508360018202830111156118ab576118aa611859565b5b9250929050565b5f5f5f5f5f608086880312156118cb576118ca611583565b5b5f6118d88882890161179a565b95505060206118e98882890161179a565b94505060406118fa888289016116ed565b935050606086013567ffffffffffffffff81111561191b5761191a611587565b5b6119278882890161185d565b92509250509295509295909350565b61193f8161160b565b8114611949575f5ffd5b50565b5f8135905061195a81611936565b92915050565b5f5f6040838503121561197657611975611583565b5b5f6119838582860161179a565b92505060206119948582860161194c565b9150509250929050565b5f5f604083850312156119b4576119b3611583565b5b5f6119c18582860161179a565b92505060206119d28582860161179a565b9150509250929050565b5f5f604083850312156119f2576119f1611583565b5b5f6119ff858286016116ed565b9250506020611a108582860161179a565b9150509250929050565b7f4e487b71000000000000000000000000000000000000000000000000000000005f52602260045260245ffd5b5f6002820490506001821680611a5e57607f821691505b602082108103611a7157611a70611a1a565b5b50919050565b50565b5f611a855f83611648565b9150611a9082611a77565b5f82019050919050565b5f6020820190508181035f830152611ab181611a7a565b9050919050565b7f546f6b656e204e6f7420457869737400000000000000000000000000000000005f82015250565b5f611aec600f83611648565b9150611af782611ab8565b602082019050919050565b5f6020820190508181035f830152611b1981611ae0565b9050919050565b5f81905092915050565b5f611b348261163e565b611b3e8185611b20565b9350611b4e818560208601611658565b80840191505092915050565b5f611b658285611b2a565b9150611b718284611b2a565b91508190509392505050565b7f4e487b71000000000000000000000000000000000000000000000000000000005f52601160045260245ffd5b5f611bb4826116ce565b9150611bbf836116ce565b9250828203905081811115611bd757611bd6611b7d565b5b92915050565b5f81519050919050565b5f82825260208201905092915050565b5f611c0182611bdd565b611c0b8185611be7565b9350611c1b818560208601611658565b611c2481611666565b840191505092915050565b5f608082019050611c425f83018761175c565b611c4f602083018661175c565b611c5c6040830185611829565b8181036060830152611c6e8184611bf7565b905095945050505050565b5f81519050611c87816115b6565b92915050565b5f60208284031215611ca257611ca1611583565b5b5f611caf84828501611c79565b91505092915050565b5f611cc2826116ce565b91507fffffffffffffffffffffffffffffffffffffffffffffffffffffffffffffffff8203611cf457611cf3611b7d565b5b600182019050919050565b7f4e487b71000000000000000000000000000000000000000000000000000000005f52601260045260245ffd5b5f611d36826116ce565b9150611d41836116ce565b925082611d5157611d50611cff565b5b828204905092915050565b7f4e487b71000000000000000000000000000000000000000000000000000000005f52604160045260245ffd5b5f611d93826116ce565b9150611d9e836116ce565b925082611dae57611dad611cff565b5b828206905092915050565b5f611dc3826116ce565b9150611dce836116ce565b9250828201905080821115611de657611de5611b7d565b5b92915050565b7f4e487b71000000000000000000000000000000000000000000000000000000005f52603260045260245ffdfea2646970667358221220fede38afe8da89a3faf1c31f4de821cc4e08812ba9f25a0462c0248308d4884d64736f6c634300081e0033",
					"opcodes": "PUSH1 0x80 PUSH1 0x40 MSTORE CALLVALUE DUP1 ISZERO PUSH2 0xF JUMPI PUSH0 PUSH0 REVERT JUMPDEST POP PUSH1 0x40 MLOAD PUSH2 0x2355 CODESIZE SUB DUP1 PUSH2 0x2355 DUP4 CODECOPY DUP2 DUP2 ADD PUSH1 0x40 MSTORE DUP2 ADD SWAP1 PUSH2 0x31 SWAP2 SWAP1 PUSH2 0x1A4 JUMP JUMPDEST DUP2 PUSH0 SWAP1 DUP2 PUSH2 0x3F SWAP2 SWAP1 PUSH2 0x42A JUMP JUMPDEST POP DUP1 PUSH1 0x1 SWAP1 DUP2 PUSH2 0x4F SWAP2 SWAP1 PUSH2 0x42A JUMP JUMPDEST POP POP POP PUSH2 0x4F9 JUMP JUMPDEST PUSH0 PUSH1 0x40 MLOAD SWAP1 POP SWAP1 JUMP JUMPDEST PUSH0 PUSH0 REVERT JUMPDEST PUSH0 PUSH0 REVERT JUMPDEST PUSH0 PUSH0 REVERT JUMPDEST PUSH0 PUSH0 REVERT JUMPDEST PUSH0 PUSH1 0x1F NOT PUSH1 0x1F DUP4 ADD AND SWAP1 POP SWAP2 SWAP1 POP JUMP JUMPDEST PUSH32 0x4E487B7100000000000000000000000000000000000000000000000000000000 PUSH0 MSTORE PUSH1 0x41 PUSH1 0x4 MSTORE PUSH1 0x24 PUSH0 REVERT JUMPDEST PUSH2 0xB6 DUP3 PUSH2 0x70 JUMP JUMPDEST DUP2 ADD DUP2 DUP2 LT PUSH8 0xFFFFFFFFFFFFFFFF DUP3 GT OR ISZERO PUSH2 0xD5 JUMPI PUSH2 0xD4 PUSH2 0x80 JUMP JUMPDEST JUMPDEST DUP1 PUSH1 0x40 MSTORE POP POP POP JUMP JUMPDEST PUSH0 PUSH2 0xE7 PUSH2 0x57 JUMP JUMPDEST SWAP1 POP PUSH2 0xF3 DUP3 DUP3 PUSH2 0xAD JUMP JUMPDEST SWAP2 SWAP1 POP JUMP JUMPDEST PUSH0 PUSH8 0xFFFFFFFFFFFFFFFF DUP3 GT ISZERO PUSH2 0x112 JUMPI PUSH2 0x111 PUSH2 0x80 JUMP JUMPDEST JUMPDEST PUSH2 0x11B DUP3 PUSH2 0x70 JUMP JUMPDEST SWAP1 POP PUSH1 0x20 DUP2 ADD SWAP1 POP SWAP2 SWAP1 POP JUMP JUMPDEST DUP3 DUP2 DUP4 MCOPY PUSH0 DUP4 DUP4 ADD MSTORE POP POP POP JUMP JUMPDEST PUSH0 PUSH2 0x148 PUSH2 0x143 DUP5 PUSH2 0xF8 JUMP JUMPDEST PUSH2 0xDE JUMP JUMPDEST SWAP1 POP DUP3 DUP2 MSTORE PUSH1 0x20 DUP2 ADD DUP5 DUP5 DUP5 ADD GT ISZERO PUSH2 0x164 JUMPI PUSH2 0x163 PUSH2 0x6C JUMP JUMPDEST JUMPDEST PUSH2 0x16F DUP5 DUP3 DUP6 PUSH2 0x128 JUMP JUMPDEST POP SWAP4 SWAP3 POP POP POP JUMP JUMPDEST PUSH0 DUP3 PUSH1 0x1F DUP4 ADD SLT PUSH2 0x18B JUMPI PUSH2 0x18A PUSH2 0x68 JUMP JUMPDEST JUMPDEST DUP2 MLOAD PUSH2 0x19B DUP5 DUP3 PUSH1 0x20 DUP7 ADD PUSH2 0x136 JUMP JUMPDEST SWAP2 POP POP SWAP3 SWAP2 POP POP JUMP JUMPDEST PUSH0 PUSH0 PUSH1 0x40 DUP4 DUP6 SUB SLT ISZERO PUSH2 0x1BA JUMPI PUSH2 0x1B9 PUSH2 0x60 JUMP JUMPDEST JUMPDEST PUSH0 DUP4 ADD MLOAD PUSH8 0xFFFFFFFFFFFFFFFF DUP2 GT ISZERO PUSH2 0x1D7 JUMPI PUSH2 0x1D6 PUSH2 0x64 JUMP JUMPDEST JUMPDEST PUSH2 0x1E3 DUP6 DUP3 DUP7 ADD PUSH2 0x177 JUMP JUMPDEST SWAP3 POP POP PUSH1 0x20 DUP4 ADD MLOAD PUSH8 0xFFFFFFFFFFFFFFFF DUP2 GT ISZERO PUSH2 0x204 JUMPI PUSH2 0x203 PUSH2 0x64 JUMP JUMPDEST JUMPDEST PUSH2 0x210 DUP6 DUP3 DUP7 ADD PUSH2 0x177 JUMP JUMPDEST SWAP2 POP POP SWAP3 POP SWAP3 SWAP1 POP JUMP JUMPDEST PUSH0 DUP2 MLOAD SWAP1 POP SWAP2 SWAP1 POP JUMP JUMPDEST PUSH32 0x4E487B7100000000000000000000000000000000000000000000000000000000 PUSH0 MSTORE PUSH1 0x22 PUSH1 0x4 MSTORE PUSH1 0x24 PUSH0 REVERT JUMPDEST PUSH0 PUSH1 0x2 DUP3 DIV SWAP1 POP PUSH1 0x1 DUP3 AND DUP1 PUSH2 0x268 JUMPI PUSH1 0x7F DUP3 AND SWAP2 POP JUMPDEST PUSH1 0x20 DUP3 LT DUP2 SUB PUSH2 0x27B JUMPI PUSH2 0x27A PUSH2 0x224 JUMP JUMPDEST JUMPDEST POP SWAP2 SWAP1 POP JUMP JUMPDEST PUSH0 DUP2 SWAP1 POP DUP2 PUSH0 MSTORE PUSH1 0x20 PUSH0 KECCAK256 SWAP1 POP SWAP2 SWAP1 POP JUMP JUMPDEST PUSH0 PUSH1 0x20 PUSH1 0x1F DUP4 ADD DIV SWAP1 POP SWAP2 SWAP1 POP JUMP JUMPDEST PUSH0 DUP3 DUP3 SHL SWAP1 POP SWAP3 SWAP2 POP POP JUMP JUMPDEST PUSH0 PUSH1 0x8 DUP4 MUL PUSH2 0x2DD PUSH32 0xFFFFFFFFFFFFFFFFFFFFFFFFFFFFFFFFFFFFFFFFFFFFFFFFFFFFFFFFFFFFFFFF DUP3 PUSH2 0x2A2 JUMP JUMPDEST PUSH2 0x2E7 DUP7 DUP4 PUSH2 0x2A2 JUMP JUMPDEST SWAP6 POP DUP1 NOT DUP5 AND SWAP4 POP DUP1 DUP7 AND DUP5 OR SWAP3 POP POP POP SWAP4 SWAP3 POP POP POP JUMP JUMPDEST PUSH0 DUP2 SWAP1 POP SWAP2 SWAP1 POP JUMP JUMPDEST PUSH0 DUP2 SWAP1 POP SWAP2 SWAP1 POP JUMP JUMPDEST PUSH0 PUSH2 0x32B PUSH2 0x326 PUSH2 0x321 DUP5 PUSH2 0x2FF JUMP JUMPDEST PUSH2 0x308 JUMP JUMPDEST PUSH2 0x2FF JUMP JUMPDEST SWAP1 POP SWAP2 SWAP1 POP JUMP JUMPDEST PUSH0 DUP2 SWAP1 POP SWAP2 SWAP1 POP JUMP JUMPDEST PUSH2 0x344 DUP4 PUSH2 0x311 JUMP JUMPDEST PUSH2 0x358 PUSH2 0x350 DUP3 PUSH2 0x332 JUMP JUMPDEST DUP5 DUP5 SLOAD PUSH2 0x2AE JUMP JUMPDEST DUP3 SSTORE POP POP POP POP JUMP JUMPDEST PUSH0 PUSH0 SWAP1 POP SWAP1 JUMP JUMPDEST PUSH2 0x36F PUSH2 0x360 JUMP JUMPDEST PUSH2 0x37A DUP2 DUP5 DUP5 PUSH2 0x33B JUMP JUMPDEST POP POP POP JUMP JUMPDEST JUMPDEST DUP2 DUP2 LT ISZERO PUSH2 0x39D JUMPI PUSH2 0x392 PUSH0 DUP3 PUSH2 0x367 JUMP JUMPDEST PUSH1 0x1 DUP2 ADD SWAP1 POP PUSH2 0x380 JUMP JUMPDEST POP POP JUMP JUMPDEST PUSH1 0x1F DUP3 GT ISZERO PUSH2 0x3E2 JUMPI PUSH2 0x3B3 DUP2 PUSH2 0x281 JUMP JUMPDEST PUSH2 0x3BC DUP5 PUSH2 0x293 JUMP JUMPDEST DUP2 ADD PUSH1 0x20 DUP6 LT ISZERO PUSH2 0x3CB JUMPI DUP2 SWAP1 POP JUMPDEST PUSH2 0x3DF PUSH2 0x3D7 DUP6 PUSH2 0x293 JUMP JUMPDEST DUP4 ADD DUP3 PUSH2 0x37F JUMP JUMPDEST POP POP JUMPDEST POP POP POP JUMP JUMPDEST PUSH0 DUP3 DUP3 SHR SWAP1 POP SWAP3 SWAP2 POP POP JUMP JUMPDEST PUSH0 PUSH2 0x402 PUSH0 NOT DUP5 PUSH1 0x8 MUL PUSH2 0x3E7 JUMP JUMPDEST NOT DUP1 DUP4 AND SWAP2 POP POP SWAP3 SWAP2 POP POP JUMP JUMPDEST PUSH0 PUSH2 0x41A DUP4 DUP4 PUSH2 0x3F3 JUMP JUMPDEST SWAP2 POP DUP3 PUSH1 0x2 MUL DUP3 OR SWAP1 POP SWAP3 SWAP2 POP POP JUMP JUMPDEST PUSH2 0x433 DUP3 PUSH2 0x21A JUMP JUMPDEST PUSH8 0xFFFFFFFFFFFFFFFF DUP2 GT ISZERO PUSH2 0x44C JUMPI PUSH2 0x44B PUSH2 0x80 JUMP JUMPDEST JUMPDEST PUSH2 0x456 DUP3 SLOAD PUSH2 0x251 JUMP JUMPDEST PUSH2 0x461 DUP3 DUP3 DUP6 PUSH2 0x3A1 JUMP JUMPDEST PUSH0 PUSH1 0x20 SWAP1 POP PUSH1 0x1F DUP4 GT PUSH1 0x1 DUP2 EQ PUSH2 0x492 JUMPI PUSH0 DUP5 ISZERO PUSH2 0x480 JUMPI DUP3 DUP8 ADD MLOAD SWAP1 POP JUMPDEST PUSH2 0x48A DUP6 DUP3 PUSH2 0x40F JUMP JUMPDEST DUP7 SSTORE POP PUSH2 0x4F1 JUMP JUMPDEST PUSH1 0x1F NOT DUP5 AND PUSH2 0x4A0 DUP7 PUSH2 0x281 JUMP JUMPDEST PUSH0 JUMPDEST DUP3 DUP2 LT ISZERO PUSH2 0x4C7 JUMPI DUP5 DUP10 ADD MLOAD DUP3 SSTORE PUSH1 0x1 DUP3 ADD SWAP2 POP PUSH1 0x20 DUP6 ADD SWAP5 POP PUSH1 0x20 DUP2 ADD SWAP1 POP PUSH2 0x4A2 JUMP JUMPDEST DUP7 DUP4 LT ISZERO PUSH2 0x4E4 JUMPI DUP5 DUP10 ADD MLOAD PUSH2 0x4E0 PUSH1 0x1F DUP10 AND DUP3 PUSH2 0x3F3 JUMP JUMPDEST DUP4 SSTORE POP JUMPDEST PUSH1 0x1 PUSH1 0x2 DUP9 MUL ADD DUP9 SSTORE POP POP POP JUMPDEST POP POP POP POP POP POP JUMP JUMPDEST PUSH2 0x1E4F DUP1 PUSH2 0x506 PUSH0 CODECOPY PUSH0 RETURN INVALID PUSH1 0x80 PUSH1 0x40 MSTORE CALLVALUE DUP1 ISZERO PUSH2 0xF JUMPI PUSH0 PUSH0 REVERT JUMPDEST POP PUSH1 0x4 CALLDATASIZE LT PUSH2 0x109 JUMPI PUSH0 CALLDATALOAD PUSH1 0xE0 SHR DUP1 PUSH4 0x95D89B41 GT PUSH2 0xA0 JUMPI DUP1 PUSH4 0xC3354402 GT PUSH2 0x6F JUMPI DUP1 PUSH4 0xC3354402 EQ PUSH2 0x2ED JUMPI DUP1 PUSH4 0xC87B56DD EQ PUSH2 0x309 JUMPI DUP1 PUSH4 0xEDC3BC3F EQ PUSH2 0x339 JUMPI DUP1 PUSH4 0xFEBE4909 EQ PUSH2 0x369 JUMPI DUP1 PUSH4 0xFFB74E64 EQ PUSH2 0x385 JUMPI PUSH2 0x109 JUMP JUMPDEST DUP1 PUSH4 0x95D89B41 EQ PUSH2 0x253 JUMPI DUP1 PUSH4 0x992924A6 EQ PUSH2 0x271 JUMPI DUP1 PUSH4 0xA7CC0136 EQ PUSH2 0x2A1 JUMPI DUP1 PUSH4 0xB88D4FDE EQ PUSH2 0x2D1 JUMPI PUSH2 0x109 JUMP JUMPDEST DUP1 PUSH4 0x42842E0E GT PUSH2 0xDC JUMPI DUP1 PUSH4 0x42842E0E EQ PUSH2 0x1A7 JUMPI DUP1 PUSH4 0x6352211E EQ PUSH2 0x1C3 JUMPI DUP1 PUSH4 0x6EBCF607 EQ PUSH2 0x1F3 JUMPI DUP1 PUSH4 0x70A08231 EQ PUSH2 0x223 JUMPI PUSH2 0x109 JUMP JUMPDEST DUP1 PUSH4 0x1FFC9A7 EQ PUSH2 0x10D JUMPI DUP1 PUSH4 0x6FDDE03 EQ PUSH2 0x13D JUMPI DUP1 PUSH4 0x81812FC EQ PUSH2 0x15B JUMPI DUP1 PUSH4 0x23B872DD EQ PUSH2 0x18B JUMPI JUMPDEST PUSH0 PUSH0 REVERT JUMPDEST PUSH2 0x127 PUSH1 0x4 DUP1 CALLDATASIZE SUB DUP2 ADD SWAP1 PUSH2 0x122 SWAP2 SWAP1 PUSH2 0x15E0 JUMP JUMPDEST PUSH2 0x3B5 JUMP JUMPDEST PUSH1 0x40 MLOAD PUSH2 0x134 SWAP2 SWAP1 PUSH2 0x1625 JUMP JUMPDEST PUSH1 0x40 MLOAD DUP1 SWAP2 SUB SWAP1 RETURN JUMPDEST PUSH2 0x145 PUSH2 0x4ED JUMP JUMPDEST PUSH1 0x40 MLOAD PUSH2 0x152 SWAP2 SWAP1 PUSH2 0x16AE JUMP JUMPDEST PUSH1 0x40 MLOAD DUP1 SWAP2 SUB SWAP1 RETURN JUMPDEST PUSH2 0x175 PUSH1 0x4 DUP1 CALLDATASIZE SUB DUP2 ADD SWAP1 PUSH2 0x170 SWAP2 SWAP1 PUSH2 0x1701 JUMP JUMPDEST PUSH2 0x578 JUMP JUMPDEST PUSH1 0x40 MLOAD PUSH2 0x182 SWAP2 SWAP1 PUSH2 0x176B JUMP JUMPDEST PUSH1 0x40 MLOAD DUP1 SWAP2 SUB SWAP1 RETURN JUMPDEST PUSH2 0x1A5 PUSH1 0x4 DUP1 CALLDATASIZE SUB DUP2 ADD SWAP1 PUSH2 0x1A0 SWAP2 SWAP1 PUSH2 0x17AE JUMP JUMPDEST PUSH2 0x695 JUMP JUMPDEST STOP JUMPDEST PUSH2 0x1C1 PUSH1 0x4 DUP1 CALLDATASIZE SUB DUP2 ADD SWAP1 PUSH2 0x1BC SWAP2 SWAP1 PUSH2 0x17AE JUMP JUMPDEST PUSH2 0x6FC JUMP JUMPDEST STOP JUMPDEST PUSH2 0x1DD PUSH1 0x4 DUP1 CALLDATASIZE SUB DUP2 ADD SWAP1 PUSH2 0x1D8 SWAP2 SWAP1 PUSH2 0x1701 JUMP JUMPDEST PUSH2 0x77D JUMP JUMPDEST PUSH1 0x40 MLOAD PUSH2 0x1EA SWAP2 SWAP1 PUSH2 0x176B JUMP JUMPDEST PUSH1 0x40 MLOAD DUP1 SWAP2 SUB SWAP1 RETURN JUMPDEST PUSH2 0x20D PUSH1 0x4 DUP1 CALLDATASIZE SUB DUP2 ADD SWAP1 PUSH2 0x208 SWAP2 SWAP1 PUSH2 0x17FE JUMP JUMPDEST PUSH2 0x824 JUMP JUMPDEST PUSH1 0x40 MLOAD PUSH2 0x21A SWAP2 SWAP1 PUSH2 0x1838 JUMP JUMPDEST PUSH1 0x40 MLOAD DUP1 SWAP2 SUB SWAP1 RETURN JUMPDEST PUSH2 0x23D PUSH1 0x4 DUP1 CALLDATASIZE SUB DUP2 ADD SWAP1 PUSH2 0x238 SWAP2 SWAP1 PUSH2 0x17FE JUMP JUMPDEST PUSH2 0x839 JUMP JUMPDEST PUSH1 0x40 MLOAD PUSH2 0x24A SWAP2 SWAP1 PUSH2 0x1838 JUMP JUMPDEST PUSH1 0x40 MLOAD DUP1 SWAP2 SUB SWAP1 RETURN JUMPDEST PUSH2 0x25B PUSH2 0x8ED JUMP JUMPDEST PUSH1 0x40 MLOAD PUSH2 0x268 SWAP2 SWAP1 PUSH2 0x16AE JUMP JUMPDEST PUSH1 0x40 MLOAD DUP1 SWAP2 SUB SWAP1 RETURN JUMPDEST PUSH2 0x28B PUSH1 0x4 DUP1 CALLDATASIZE SUB DUP2 ADD SWAP1 PUSH2 0x286 SWAP2 SWAP1 PUSH2 0x1701 JUMP JUMPDEST PUSH2 0x979 JUMP JUMPDEST PUSH1 0x40 MLOAD PUSH2 0x298 SWAP2 SWAP1 PUSH2 0x176B JUMP JUMPDEST PUSH1 0x40 MLOAD DUP1 SWAP2 SUB SWAP1 RETURN JUMPDEST PUSH2 0x2BB PUSH1 0x4 DUP1 CALLDATASIZE SUB DUP2 ADD SWAP1 PUSH2 0x2B6 SWAP2 SWAP1 PUSH2 0x1701 JUMP JUMPDEST PUSH2 0x9A9 JUMP JUMPDEST PUSH1 0x40 MLOAD PUSH2 0x2C8 SWAP2 SWAP1 PUSH2 0x176B JUMP JUMPDEST PUSH1 0x40 MLOAD DUP1 SWAP2 SUB SWAP1 RETURN JUMPDEST PUSH2 0x2EB PUSH1 0x4 DUP1 CALLDATASIZE SUB DUP2 ADD SWAP1 PUSH2 0x2E6 SWAP2 SWAP1 PUSH2 0x18B2 JUMP JUMPDEST PUSH2 0x9D9 JUMP JUMPDEST STOP JUMPDEST PUSH2 0x307 PUSH1 0x4 DUP1 CALLDATASIZE SUB DUP2 ADD SWAP1 PUSH2 0x302 SWAP2 SWAP1 PUSH2 0x1960 JUMP JUMPDEST PUSH2 0xA91 JUMP JUMPDEST STOP JUMPDEST PUSH2 0x323 PUSH1 0x4 DUP1 CALLDATASIZE SUB DUP2 ADD SWAP1 PUSH2 0x31E SWAP2 SWAP1 PUSH2 0x1701 JUMP JUMPDEST PUSH2 0xB81 JUMP JUMPDEST PUSH1 0x40 MLOAD PUSH2 0x330 SWAP2 SWAP1 PUSH2 0x16AE JUMP JUMPDEST PUSH1 0x40 MLOAD DUP1 SWAP2 SUB SWAP1 RETURN JUMPDEST PUSH2 0x353 PUSH1 0x4 DUP1 CALLDATASIZE SUB DUP2 ADD SWAP1 PUSH2 0x34E SWAP2 SWAP1 PUSH2 0x199E JUMP JUMPDEST PUSH2 0xC7B JUMP JUMPDEST PUSH1 0x40 MLOAD PUSH2 0x360 SWAP2 SWAP1 PUSH2 0x1625 JUMP JUMPDEST PUSH1 0x40 MLOAD DUP1 SWAP2 SUB SWAP1 RETURN JUMPDEST PUSH2 0x383 PUSH1 0x4 DUP1 CALLDATASIZE SUB DUP2 ADD SWAP1 PUSH2 0x37E SWAP2 SWAP1 PUSH2 0x19DC JUMP JUMPDEST PUSH2 0xCA5 JUMP JUMPDEST STOP JUMPDEST PUSH2 0x39F PUSH1 0x4 DUP1 CALLDATASIZE SUB DUP2 ADD SWAP1 PUSH2 0x39A SWAP2 SWAP1 PUSH2 0x17FE JUMP JUMPDEST PUSH2 0xE32 JUMP JUMPDEST PUSH1 0x40 MLOAD PUSH2 0x3AC SWAP2 SWAP1 PUSH2 0x1625 JUMP JUMPDEST PUSH1 0x40 MLOAD DUP1 SWAP2 SUB SWAP1 RETURN JUMPDEST PUSH0 PUSH31 0x67E1B100000000000000000000000000000000000000000000000000000000 PUSH28 0xFFFFFFFFFFFFFFFFFFFFFFFFFFFFFFFFFFFFFFFFFFFFFFFFFFFFFFFF NOT AND DUP3 PUSH28 0xFFFFFFFFFFFFFFFFFFFFFFFFFFFFFFFFFFFFFFFFFFFFFFFFFFFFFFFF NOT AND EQ DUP1 PUSH2 0x47E JUMPI POP PUSH32 0x1FFC9A700000000000000000000000000000000000000000000000000000000 PUSH28 0xFFFFFFFFFFFFFFFFFFFFFFFFFFFFFFFFFFFFFFFFFFFFFFFFFFFFFFFF NOT AND DUP3 PUSH28 0xFFFFFFFFFFFFFFFFFFFFFFFFFFFFFFFFFFFFFFFFFFFFFFFFFFFFFFFF NOT AND EQ JUMPDEST DUP1 PUSH2 0x4E6 JUMPI POP PUSH32 0x5B5E139F00000000000000000000000000000000000000000000000000000000 PUSH28 0xFFFFFFFFFFFFFFFFFFFFFFFFFFFFFFFFFFFFFFFFFFFFFFFFFFFFFFFF NOT AND DUP3 PUSH28 0xFFFFFFFFFFFFFFFFFFFFFFFFFFFFFFFFFFFFFFFFFFFFFFFFFFFFFFFF NOT AND EQ JUMPDEST SWAP1 POP SWAP2 SWAP1 POP JUMP JUMPDEST PUSH0 DUP1 SLOAD PUSH2 0x4F9 SWAP1 PUSH2 0x1A47 JUMP JUMPDEST DUP1 PUSH1 0x1F ADD PUSH1 0x20 DUP1 SWAP2 DIV MUL PUSH1 0x20 ADD PUSH1 0x40 MLOAD SWAP1 DUP2 ADD PUSH1 0x40 MSTORE DUP1 SWAP3 SWAP2 SWAP1 DUP2 DUP2 MSTORE PUSH1 0x20 ADD DUP3 DUP1 SLOAD PUSH2 0x525 SWAP1 PUSH2 0x1A47 JUMP JUMPDEST DUP1 ISZERO PUSH2 0x570 JUMPI DUP1 PUSH1 0x1F LT PUSH2 0x547 JUMPI PUSH2 0x100 DUP1 DUP4 SLOAD DIV MUL DUP4 MSTORE SWAP2 PUSH1 0x20 ADD SWAP2 PUSH2 0x570 JUMP JUMPDEST DUP3 ADD SWAP2 SWAP1 PUSH0 MSTORE PUSH1 0x20 PUSH0 KECCAK256 SWAP1 JUMPDEST DUP2 SLOAD DUP2 MSTORE SWAP1 PUSH1 0x1 ADD SWAP1 PUSH1 0x20 ADD DUP1 DUP4 GT PUSH2 0x553 JUMPI DUP3 SWAP1 SUB PUSH1 0x1F AND DUP3 ADD SWAP2 JUMPDEST POP POP POP POP POP DUP2 JUMP JUMPDEST PUSH0 PUSH0 PUSH20 0xFFFFFFFFFFFFFFFFFFFFFFFFFFFFFFFFFFFFFFFF AND PUSH2 0x599 DUP4 PUSH2 0x77D JUMP JUMPDEST PUSH20 0xFFFFFFFFFFFFFFFFFFFFFFFFFFFFFFFFFFFFFFFF AND SUB PUSH2 0x5EF JUMPI PUSH1 0x40 MLOAD PUSH32 0x8C379A000000000000000000000000000000000000000000000000000000000 DUP2 MSTORE PUSH1 0x4 ADD PUSH2 0x5E6 SWAP1 PUSH2 0x1A9A JUMP JUMPDEST PUSH1 0x40 MLOAD DUP1 SWAP2 SUB SWAP1 REVERT JUMPDEST PUSH1 0x4 PUSH0 DUP4 DUP2 MSTORE PUSH1 0x20 ADD SWAP1 DUP2 MSTORE PUSH1 0x20 ADD PUSH0 KECCAK256 PUSH0 SWAP1 SLOAD SWAP1 PUSH2 0x100 EXP SWAP1 DIV PUSH20 0xFFFFFFFFFFFFFFFFFFFFFFFFFFFFFFFFFFFFFFFF AND SWAP1 POP PUSH0 PUSH20 0xFFFFFFFFFFFFFFFFFFFFFFFFFFFFFFFFFFFFFFFF AND DUP2 PUSH20 0xFFFFFFFFFFFFFFFFFFFFFFFFFFFFFFFFFFFFFFFF AND EQ PUSH2 0x690 JUMPI PUSH1 0x40 MLOAD PUSH32 0x8C379A000000000000000000000000000000000000000000000000000000000 DUP2 MSTORE PUSH1 0x4 ADD PUSH2 0x687 SWAP1 PUSH2 0x1A9A JUMP JUMPDEST PUSH1 0x40 MLOAD DUP1 SWAP2 SUB SWAP1 REVERT JUMPDEST SWAP2 SWAP1 POP JUMP JUMPDEST PUSH0 PUSH2 0x69F DUP3 PUSH2 0x77D JUMP JUMPDEST SWAP1 POP PUSH2 0x6AC DUP2 CALLER DUP5 PUSH2 0xEBF JUMP JUMPDEST PUSH2 0x6EB JUMPI PUSH1 0x40 MLOAD PUSH32 0x8C379A000000000000000000000000000000000000000000000000000000000 DUP2 MSTORE PUSH1 0x4 ADD PUSH2 0x6E2 SWAP1 PUSH2 0x1A9A JUMP JUMPDEST PUSH1 0x40 MLOAD DUP1 SWAP2 SUB SWAP1 REVERT JUMPDEST PUSH2 0x6F6 DUP5 DUP5 DUP5 PUSH2 0xFEA JUMP JUMPDEST POP POP POP POP JUMP JUMPDEST PUSH0 PUSH2 0x706 DUP3 PUSH2 0x77D JUMP JUMPDEST SWAP1 POP PUSH2 0x713 DUP2 CALLER DUP5 PUSH2 0xEBF JUMP JUMPDEST PUSH2 0x752 JUMPI PUSH1 0x40 MLOAD PUSH32 0x8C379A000000000000000000000000000000000000000000000000000000000 DUP2 MSTORE PUSH1 0x4 ADD PUSH2 0x749 SWAP1 PUSH2 0x1A9A JUMP JUMPDEST PUSH1 0x40 MLOAD DUP1 SWAP2 SUB SWAP1 REVERT JUMPDEST PUSH2 0x75D DUP5 DUP5 DUP5 PUSH2 0xFEA JUMP JUMPDEST PUSH2 0x777 DUP5 DUP5 DUP5 PUSH1 0x40 MLOAD DUP1 PUSH1 0x20 ADD PUSH1 0x40 MSTORE DUP1 PUSH0 DUP2 MSTORE POP PUSH2 0x11BA JUMP JUMPDEST POP POP POP POP JUMP JUMPDEST PUSH0 PUSH1 0x2 PUSH0 DUP4 DUP2 MSTORE PUSH1 0x20 ADD SWAP1 DUP2 MSTORE PUSH1 0x20 ADD PUSH0 KECCAK256 PUSH0 SWAP1 SLOAD SWAP1 PUSH2 0x100 EXP SWAP1 DIV PUSH20 0xFFFFFFFFFFFFFFFFFFFFFFFFFFFFFFFFFFFFFFFF AND SWAP1 POP PUSH0 PUSH20 0xFFFFFFFFFFFFFFFFFFFFFFFFFFFFFFFFFFFFFFFF AND DUP2 PUSH20 0xFFFFFFFFFFFFFFFFFFFFFFFFFFFFFFFFFFFFFFFF AND SUB PUSH2 0x81F JUMPI PUSH1 0x40 MLOAD PUSH32 0x8C379A000000000000000000000000000000000000000000000000000000000 DUP2 MSTORE PUSH1 0x4 ADD PUSH2 0x816 SWAP1 PUSH2 0x1A9A JUMP JUMPDEST PUSH1 0x40 MLOAD DUP1 SWAP2 SUB SWAP1 REVERT JUMPDEST SWAP2 SWAP1 POP JUMP JUMPDEST PUSH1 0x3 PUSH1 0x20 MSTORE DUP1 PUSH0 MSTORE PUSH1 0x40 PUSH0 KECCAK256 PUSH0 SWAP2 POP SWAP1 POP SLOAD DUP2 JUMP JUMPDEST PUSH0 PUSH0 PUSH20 0xFFFFFFFFFFFFFFFFFFFFFFFFFFFFFFFFFFFFFFFF AND DUP3 PUSH20 0xFFFFFFFFFFFFFFFFFFFFFFFFFFFFFFFFFFFFFFFF AND SUB PUSH2 0x8A8 JUMPI PUSH1 0x40 MLOAD PUSH32 0x8C379A000000000000000000000000000000000000000000000000000000000 DUP2 MSTORE PUSH1 0x4 ADD PUSH2 0x89F SWAP1 PUSH2 0x1A9A JUMP JUMPDEST PUSH1 0x40 MLOAD DUP1 SWAP2 SUB SWAP1 REVERT JUMPDEST PUSH1 0x3 PUSH0 DUP4 PUSH20 0xFFFFFFFFFFFFFFFFFFFFFFFFFFFFFFFFFFFFFFFF AND PUSH20 0xFFFFFFFFFFFFFFFFFFFFFFFFFFFFFFFFFFFFFFFF AND DUP2 MSTORE PUSH1 0x20 ADD SWAP1 DUP2 MSTORE PUSH1 0x20 ADD PUSH0 KECCAK256 SLOAD SWAP1 POP SWAP2 SWAP1 POP JUMP JUMPDEST PUSH1 0x1 DUP1 SLOAD PUSH2 0x8FA SWAP1 PUSH2 0x1A47 JUMP JUMPDEST DUP1 PUSH1 0x1F ADD PUSH1 0x20 DUP1 SWAP2 DIV MUL PUSH1 0x20 ADD PUSH1 0x40 MLOAD SWAP1 DUP2 ADD PUSH1 0x40 MSTORE DUP1 SWAP3 SWAP2 SWAP1 DUP2 DUP2 MSTORE PUSH1 0x20 ADD DUP3 DUP1 SLOAD PUSH2 0x926 SWAP1 PUSH2 0x1A47 JUMP JUMPDEST DUP1 ISZERO PUSH2 0x971 JUMPI DUP1 PUSH1 0x1F LT PUSH2 0x948 JUMPI PUSH2 0x100 DUP1 DUP4 SLOAD DIV MUL DUP4 MSTORE SWAP2 PUSH1 0x20 ADD SWAP2 PUSH2 0x971 JUMP JUMPDEST DUP3 ADD SWAP2 SWAP1 PUSH0 MSTORE PUSH1 0x20 PUSH0 KECCAK256 SWAP1 JUMPDEST DUP2 SLOAD DUP2 MSTORE SWAP1 PUSH1 0x1 ADD SWAP1 PUSH1 0x20 ADD DUP1 DUP4 GT PUSH2 0x954 JUMPI DUP3 SWAP1 SUB PUSH1 0x1F AND DUP3 ADD SWAP2 JUMPDEST POP POP POP POP POP DUP2 JUMP JUMPDEST PUSH1 0x2 PUSH1 0x20 MSTORE DUP1 PUSH0 MSTORE PUSH1 0x40 PUSH0 KECCAK256 PUSH0 SWAP2 POP SLOAD SWAP1 PUSH2 0x100 EXP SWAP1 DIV PUSH20 0xFFFFFFFFFFFFFFFFFFFFFFFFFFFFFFFFFFFFFFFF AND DUP2 JUMP JUMPDEST PUSH1 0x4 PUSH1 0x20 MSTORE DUP1 PUSH0 MSTORE PUSH1 0x40 PUSH0 KECCAK256 PUSH0 SWAP2 POP SLOAD SWAP1 PUSH2 0x100 EXP SWAP1 DIV PUSH20 0xFFFFFFFFFFFFFFFFFFFFFFFFFFFFFFFFFFFFFFFF AND DUP2 JUMP JUMPDEST PUSH0 PUSH2 0x9E3 DUP5 PUSH2 0x77D JUMP JUMPDEST SWAP1 POP PUSH2 0x9F0 DUP2 CALLER DUP7 PUSH2 0xEBF JUMP JUMPDEST PUSH2 0xA2F JUMPI PUSH1 0x40 MLOAD PUSH32 0x8C379A000000000000000000000000000000000000000000000000000000000 DUP2 MSTORE PUSH1 0x4 ADD PUSH2 0xA26 SWAP1 PUSH2 0x1A9A JUMP JUMPDEST PUSH1 0x40 MLOAD DUP1 SWAP2 SUB SWAP1 REVERT JUMPDEST PUSH2 0xA3A DUP7 DUP7 DUP7 PUSH2 0xFEA JUMP JUMPDEST PUSH2 0xA89 DUP7 DUP7 DUP7 DUP7 DUP7 DUP1 DUP1 PUSH1 0x1F ADD PUSH1 0x20 DUP1 SWAP2 DIV MUL PUSH1 0x20 ADD PUSH1 0x40 MLOAD SWAP1 DUP2 ADD PUSH1 0x40 MSTORE DUP1 SWAP4 SWAP3 SWAP2 SWAP1 DUP2 DUP2 MSTORE PUSH1 0x20 ADD DUP4 DUP4 DUP1 DUP3 DUP5 CALLDATACOPY PUSH0 DUP2 DUP5 ADD MSTORE PUSH1 0x1F NOT PUSH1 0x1F DUP3 ADD AND SWAP1 POP DUP1 DUP4 ADD SWAP3 POP POP POP POP POP POP POP PUSH2 0x11BA JUMP JUMPDEST POP POP POP POP POP POP JUMP JUMPDEST DUP1 PUSH1 0x5 PUSH0 CALLER PUSH20 0xFFFFFFFFFFFFFFFFFFFFFFFFFFFFFFFFFFFFFFFF AND PUSH20 0xFFFFFFFFFFFFFFFFFFFFFFFFFFFFFFFFFFFFFFFF AND DUP2 MSTORE PUSH1 0x20 ADD SWAP1 DUP2 MSTORE PUSH1 0x20 ADD PUSH0 KECCAK256 PUSH0 DUP5 PUSH20 0xFFFFFFFFFFFFFFFFFFFFFFFFFFFFFFFFFFFFFFFF AND PUSH20 0xFFFFFFFFFFFFFFFFFFFFFFFFFFFFFFFFFFFFFFFF AND DUP2 MSTORE PUSH1 0x20 ADD SWAP1 DUP2 MSTORE PUSH1 0x20 ADD PUSH0 KECCAK256 PUSH0 PUSH2 0x100 EXP DUP2 SLOAD DUP2 PUSH1 0xFF MUL NOT AND SWAP1 DUP4 ISZERO ISZERO MUL OR SWAP1 SSTORE POP DUP1 ISZERO ISZERO DUP3 PUSH20 0xFFFFFFFFFFFFFFFFFFFFFFFFFFFFFFFFFFFFFFFF AND CALLER PUSH20 0xFFFFFFFFFFFFFFFFFFFFFFFFFFFFFFFFFFFFFFFF AND PUSH32 0x17307EAB39AB6107E8899845AD3D59BD9653F200F220920489CA2B5937696C31 PUSH1 0x40 MLOAD PUSH1 0x40 MLOAD DUP1 SWAP2 SUB SWAP1 LOG4 POP POP JUMP JUMPDEST PUSH1 0x60 PUSH0 PUSH20 0xFFFFFFFFFFFFFFFFFFFFFFFFFFFFFFFFFFFFFFFF AND PUSH1 0x2 PUSH0 DUP5 DUP2 MSTORE PUSH1 0x20 ADD SWAP1 DUP2 MSTORE PUSH1 0x20 ADD PUSH0 KECCAK256 PUSH0 SWAP1 SLOAD SWAP1 PUSH2 0x100 EXP SWAP1 DIV PUSH20 0xFFFFFFFFFFFFFFFFFFFFFFFFFFFFFFFFFFFFFFFF AND PUSH20 0xFFFFFFFFFFFFFFFFFFFFFFFFFFFFFFFFFFFFFFFF AND SUB PUSH2 0xC21 JUMPI PUSH1 0x40 MLOAD PUSH32 0x8C379A000000000000000000000000000000000000000000000000000000000 DUP2 MSTORE PUSH1 0x4 ADD PUSH2 0xC18 SWAP1 PUSH2 0x1B02 JUMP JUMPDEST PUSH1 0x40 MLOAD DUP1 SWAP2 SUB SWAP1 REVERT JUMPDEST PUSH0 PUSH2 0xC2A PUSH2 0x1365 JUMP JUMPDEST SWAP1 POP PUSH0 DUP2 MLOAD GT PUSH2 0xC48 JUMPI PUSH1 0x40 MLOAD DUP1 PUSH1 0x20 ADD PUSH1 0x40 MSTORE DUP1 PUSH0 DUP2 MSTORE POP PUSH2 0xC73 JUMP JUMPDEST DUP1 PUSH2 0xC52 DUP5 PUSH2 0x137B JUMP JUMPDEST PUSH1 0x40 MLOAD PUSH1 0x20 ADD PUSH2 0xC63 SWAP3 SWAP2 SWAP1 PUSH2 0x1B5A JUMP JUMPDEST PUSH1 0x40 MLOAD PUSH1 0x20 DUP2 DUP4 SUB SUB DUP2 MSTORE SWAP1 PUSH1 0x40 MSTORE JUMPDEST SWAP2 POP POP SWAP2 SWAP1 POP JUMP JUMPDEST PUSH1 0x5 PUSH1 0x20 MSTORE DUP2 PUSH0 MSTORE PUSH1 0x40 PUSH0 KECCAK256 PUSH1 0x20 MSTORE DUP1 PUSH0 MSTORE PUSH1 0x40 PUSH0 KECCAK256 PUSH0 SWAP2 POP SWAP2 POP SWAP1 SLOAD SWAP1 PUSH2 0x100 EXP SWAP1 DIV PUSH1 0xFF AND DUP2 JUMP JUMPDEST PUSH0 PUSH1 0x2 PUSH0 DUP5 DUP2 MSTORE PUSH1 0x20 ADD SWAP1 DUP2 MSTORE PUSH1 0x20 ADD PUSH0 KECCAK256 PUSH0 SWAP1 SLOAD SWAP1 PUSH2 0x100 EXP SWAP1 DIV PUSH20 0xFFFFFFFFFFFFFFFFFFFFFFFFFFFFFFFFFFFFFFFF AND SWAP1 POP CALLER PUSH20 0xFFFFFFFFFFFFFFFFFFFFFFFFFFFFFFFFFFFFFFFF AND DUP2 PUSH20 0xFFFFFFFFFFFFFFFFFFFFFFFFFFFFFFFFFFFFFFFF AND EQ DUP1 PUSH2 0xD94 JUMPI POP PUSH1 0x5 PUSH0 DUP3 PUSH20 0xFFFFFFFFFFFFFFFFFFFFFFFFFFFFFFFFFFFFFFFF AND PUSH20 0xFFFFFFFFFFFFFFFFFFFFFFFFFFFFFFFFFFFFFFFF AND DUP2 MSTORE PUSH1 0x20 ADD SWAP1 DUP2 MSTORE PUSH1 0x20 ADD PUSH0 KECCAK256 PUSH0 DUP4 PUSH20 0xFFFFFFFFFFFFFFFFFFFFFFFFFFFFFFFFFFFFFFFF AND PUSH20 0xFFFFFFFFFFFFFFFFFFFFFFFFFFFFFFFFFFFFFFFF AND DUP2 MSTORE PUSH1 0x20 ADD SWAP1 DUP2 MSTORE PUSH1 0x20 ADD PUSH0 KECCAK256 PUSH0 SWAP1 SLOAD SWAP1 PUSH2 0x100 EXP SWAP1 DIV PUSH1 0xFF AND JUMPDEST PUSH2 0xDD3 JUMPI PUSH1 0x40 MLOAD PUSH32 0x8C379A000000000000000000000000000000000000000000000000000000000 DUP2 MSTORE PUSH1 0x4 ADD PUSH2 0xDCA SWAP1 PUSH2 0x1A9A JUMP JUMPDEST PUSH1 0x40 MLOAD DUP1 SWAP2 SUB SWAP1 REVERT JUMPDEST DUP2 PUSH1 0x4 PUSH0 DUP6 DUP2 MSTORE PUSH1 0x20 ADD SWAP1 DUP2 MSTORE PUSH1 0x20 ADD PUSH0 KECCAK256 PUSH0 PUSH2 0x100 EXP DUP2 SLOAD DUP2 PUSH20 0xFFFFFFFFFFFFFFFFFFFFFFFFFFFFFFFFFFFFFFFF MUL NOT AND SWAP1 DUP4 PUSH20 0xFFFFFFFFFFFFFFFFFFFFFFFFFFFFFFFFFFFFFFFF AND MUL OR SWAP1 SSTORE POP PUSH2 0xE2D DUP2 DUP4 DUP6 PUSH2 0x14D4 JUMP JUMPDEST POP POP POP JUMP JUMPDEST PUSH0 PUSH1 0x5 PUSH0 CALLER PUSH20 0xFFFFFFFFFFFFFFFFFFFFFFFFFFFFFFFFFFFFFFFF AND PUSH20 0xFFFFFFFFFFFFFFFFFFFFFFFFFFFFFFFFFFFFFFFF AND DUP2 MSTORE PUSH1 0x20 ADD SWAP1 DUP2 MSTORE PUSH1 0x20 ADD PUSH0 KECCAK256 PUSH0 DUP4 PUSH20 0xFFFFFFFFFFFFFFFFFFFFFFFFFFFFFFFFFFFFFFFF AND PUSH20 0xFFFFFFFFFFFFFFFFFFFFFFFFFFFFFFFFFFFFFFFF AND DUP2 MSTORE PUSH1 0x20 ADD SWAP1 DUP2 MSTORE PUSH1 0x20 ADD PUSH0 KECCAK256 PUSH0 SWAP1 SLOAD SWAP1 PUSH2 0x100 EXP SWAP1 DIV PUSH1 0xFF AND SWAP1 POP SWAP2 SWAP1 POP JUMP JUMPDEST PUSH0 DUP4 PUSH20 0xFFFFFFFFFFFFFFFFFFFFFFFFFFFFFFFFFFFFFFFF AND DUP4 PUSH20 0xFFFFFFFFFFFFFFFFFFFFFFFFFFFFFFFFFFFFFFFF AND EQ DUP1 PUSH2 0xF55 JUMPI POP DUP3 PUSH20 0xFFFFFFFFFFFFFFFFFFFFFFFFFFFFFFFFFFFFFFFF AND PUSH1 0x4 PUSH0 DUP5 DUP2 MSTORE PUSH1 0x20 ADD SWAP1 DUP2 MSTORE PUSH1 0x20 ADD PUSH0 KECCAK256 PUSH0 SWAP1 SLOAD SWAP1 PUSH2 0x100 EXP SWAP1 DIV PUSH20 0xFFFFFFFFFFFFFFFFFFFFFFFFFFFFFFFFFFFFFFFF AND PUSH20 0xFFFFFFFFFFFFFFFFFFFFFFFFFFFFFFFFFFFFFFFF AND EQ JUMPDEST DUP1 PUSH2 0xFE1 JUMPI POP PUSH1 0x5 PUSH0 DUP6 PUSH20 0xFFFFFFFFFFFFFFFFFFFFFFFFFFFFFFFFFFFFFFFF AND PUSH20 0xFFFFFFFFFFFFFFFFFFFFFFFFFFFFFFFFFFFFFFFF AND DUP2 MSTORE PUSH1 0x20 ADD SWAP1 DUP2 MSTORE PUSH1 0x20 ADD PUSH0 KECCAK256 PUSH0 DUP5 PUSH20 0xFFFFFFFFFFFFFFFFFFFFFFFFFFFFFFFFFFFFFFFF AND PUSH20 0xFFFFFFFFFFFFFFFFFFFFFFFFFFFFFFFFFFFFFFFF AND DUP2 MSTORE PUSH1 0x20 ADD SWAP1 DUP2 MSTORE PUSH1 0x20 ADD PUSH0 KECCAK256 PUSH0 SWAP1 SLOAD SWAP1 PUSH2 0x100 EXP SWAP1 DIV PUSH1 0xFF AND JUMPDEST SWAP1 POP SWAP4 SWAP3 POP POP POP JUMP JUMPDEST PUSH0 PUSH20 0xFFFFFFFFFFFFFFFFFFFFFFFFFFFFFFFFFFFFFFFF AND DUP3 PUSH20 0xFFFFFFFFFFFFFFFFFFFFFFFFFFFFFFFFFFFFFFFF AND SUB PUSH2 0x1058 JUMPI PUSH1 0x40 MLOAD PUSH32 0x8C379A000000000000000000000000000000000000000000000000000000000 DUP2 MSTORE PUSH1 0x4 ADD PUSH2 0x104F SWAP1 PUSH2 0x1A9A JUMP JUMPDEST PUSH1 0x40 MLOAD DUP1 SWAP2 SUB SWAP1 REVERT JUMPDEST PUSH2 0x1063 DUP4 PUSH0 DUP4 PUSH2 0x14D4 JUMP JUMPDEST DUP2 PUSH1 0x2 PUSH0 DUP4 DUP2 MSTORE PUSH1 0x20 ADD SWAP1 DUP2 MSTORE PUSH1 0x20 ADD PUSH0 KECCAK256 PUSH0 PUSH2 0x100 EXP DUP2 SLOAD DUP2 PUSH20 0xFFFFFFFFFFFFFFFFFFFFFFFFFFFFFFFFFFFFFFFF MUL NOT AND SWAP1 DUP4 PUSH20 0xFFFFFFFFFFFFFFFFFFFFFFFFFFFFFFFFFFFFFFFF AND MUL OR SWAP1 SSTORE POP PUSH1 0x1 PUSH1 0x3 PUSH0 DUP6 PUSH20 0xFFFFFFFFFFFFFFFFFFFFFFFFFFFFFFFFFFFFFFFF AND PUSH20 0xFFFFFFFFFFFFFFFFFFFFFFFFFFFFFFFFFFFFFFFF AND DUP2 MSTORE PUSH1 0x20 ADD SWAP1 DUP2 MSTORE PUSH1 0x20 ADD PUSH0 KECCAK256 PUSH0 DUP3 DUP3 SLOAD PUSH2 0x10FF SWAP2 SWAP1 PUSH2 0x1BAA JUMP JUMPDEST SWAP3 POP POP DUP2 SWAP1 SSTORE POP PUSH1 0x1 PUSH1 0x3 PUSH0 DUP5 PUSH20 0xFFFFFFFFFFFFFFFFFFFFFFFFFFFFFFFFFFFFFFFF AND PUSH20 0xFFFFFFFFFFFFFFFFFFFFFFFFFFFFFFFFFFFFFFFF AND DUP2 MSTORE PUSH1 0x20 ADD SWAP1 DUP2 MSTORE PUSH1 0x20 ADD PUSH0 KECCAK256 PUSH0 DUP3 DUP3 SLOAD PUSH2 0x1153 SWAP2 SWAP1 PUSH2 0x1BAA JUMP JUMPDEST SWAP3 POP POP DUP2 SWAP1 SSTORE POP DUP1 DUP3 PUSH20 0xFFFFFFFFFFFFFFFFFFFFFFFFFFFFFFFFFFFFFFFF AND DUP5 PUSH20 0xFFFFFFFFFFFFFFFFFFFFFFFFFFFFFFFFFFFFFFFF AND PUSH32 0xDDF252AD1BE2C89B69C2B068FC378DAA952BA7F163C4A11628F55A4DF523B3EF PUSH1 0x40 MLOAD PUSH1 0x40 MLOAD DUP1 SWAP2 SUB SWAP1 LOG4 POP POP POP JUMP JUMPDEST PUSH0 DUP4 PUSH20 0xFFFFFFFFFFFFFFFFFFFFFFFFFFFFFFFFFFFFFFFF AND EXTCODESIZE GT ISZERO PUSH2 0x135F JUMPI DUP3 PUSH20 0xFFFFFFFFFFFFFFFFFFFFFFFFFFFFFFFFFFFFFFFF AND PUSH4 0x150B7A02 CALLER DUP7 DUP6 DUP6 PUSH1 0x40 MLOAD DUP6 PUSH4 0xFFFFFFFF AND PUSH1 0xE0 SHL DUP2 MSTORE PUSH1 0x4 ADD PUSH2 0x1218 SWAP5 SWAP4 SWAP3 SWAP2 SWAP1 PUSH2 0x1C2F JUMP JUMPDEST PUSH1 0x20 PUSH1 0x40 MLOAD DUP1 DUP4 SUB DUP2 PUSH0 DUP8 GAS CALL SWAP3 POP POP POP DUP1 ISZERO PUSH2 0x1253 JUMPI POP PUSH1 0x40 MLOAD RETURNDATASIZE PUSH1 0x1F NOT PUSH1 0x1F DUP3 ADD AND DUP3 ADD DUP1 PUSH1 0x40 MSTORE POP DUP2 ADD SWAP1 PUSH2 0x1250 SWAP2 SWAP1 PUSH2 0x1C8D JUMP JUMPDEST PUSH1 0x1 JUMPDEST PUSH2 0x12D4 JUMPI RETURNDATASIZE DUP1 PUSH0 DUP2 EQ PUSH2 0x1281 JUMPI PUSH1 0x40 MLOAD SWAP2 POP PUSH1 0x1F NOT PUSH1 0x3F RETURNDATASIZE ADD AND DUP3 ADD PUSH1 0x40 MSTORE RETURNDATASIZE DUP3 MSTORE RETURNDATASIZE PUSH0 PUSH1 0x20 DUP5 ADD RETURNDATACOPY PUSH2 0x1286 JUMP JUMPDEST PUSH1 0x60 SWAP2 POP JUMPDEST POP PUSH0 DUP2 MLOAD SUB PUSH2 0x12CC JUMPI DUP4 PUSH1 0x40 MLOAD PUSH32 0xF9ECAB6200000000000000000000000000000000000000000000000000000000 DUP2 MSTORE PUSH1 0x4 ADD PUSH2 0x12C3 SWAP2 SWAP1 PUSH2 0x176B JUMP JUMPDEST PUSH1 0x40 MLOAD DUP1 SWAP2 SUB SWAP1 REVERT JUMPDEST DUP1 MLOAD DUP2 PUSH1 0x20 ADD REVERT JUMPDEST PUSH4 0x150B7A02 PUSH1 0xE0 SHL PUSH28 0xFFFFFFFFFFFFFFFFFFFFFFFFFFFFFFFFFFFFFFFFFFFFFFFFFFFFFFFF NOT AND DUP2 PUSH28 0xFFFFFFFFFFFFFFFFFFFFFFFFFFFFFFFFFFFFFFFFFFFFFFFFFFFFFFFF NOT AND EQ PUSH2 0x135D JUMPI DUP4 PUSH1 0x40 MLOAD PUSH32 0xF9ECAB6200000000000000000000000000000000000000000000000000000000 DUP2 MSTORE PUSH1 0x4 ADD PUSH2 0x1354 SWAP2 SWAP1 PUSH2 0x176B JUMP JUMPDEST PUSH1 0x40 MLOAD DUP1 SWAP2 SUB SWAP1 REVERT JUMPDEST POP JUMPDEST POP POP POP POP JUMP JUMPDEST PUSH1 0x60 PUSH1 0x40 MLOAD DUP1 PUSH1 0x20 ADD PUSH1 0x40 MSTORE DUP1 PUSH0 DUP2 MSTORE POP SWAP1 POP SWAP1 JUMP JUMPDEST PUSH1 0x60 PUSH0 DUP3 SUB PUSH2 0x13C1 JUMPI PUSH1 0x40 MLOAD DUP1 PUSH1 0x40 ADD PUSH1 0x40 MSTORE DUP1 PUSH1 0x1 DUP2 MSTORE PUSH1 0x20 ADD PUSH32 0x3000000000000000000000000000000000000000000000000000000000000000 DUP2 MSTORE POP SWAP1 POP PUSH2 0x14CF JUMP JUMPDEST PUSH0 DUP3 SWAP1 POP PUSH0 JUMPDEST PUSH0 DUP3 EQ PUSH2 0x13F0 JUMPI DUP1 DUP1 PUSH2 0x13D9 SWAP1 PUSH2 0x1CB8 JUMP JUMPDEST SWAP2 POP POP PUSH1 0xA DUP3 PUSH2 0x13E9 SWAP2 SWAP1 PUSH2 0x1D2C JUMP JUMPDEST SWAP2 POP PUSH2 0x13C7 JUMP JUMPDEST PUSH0 DUP2 PUSH8 0xFFFFFFFFFFFFFFFF DUP2 GT ISZERO PUSH2 0x140B JUMPI PUSH2 0x140A PUSH2 0x1D5C JUMP JUMPDEST JUMPDEST PUSH1 0x40 MLOAD SWAP1 DUP1 DUP3 MSTORE DUP1 PUSH1 0x1F ADD PUSH1 0x1F NOT AND PUSH1 0x20 ADD DUP3 ADD PUSH1 0x40 MSTORE DUP1 ISZERO PUSH2 0x143D JUMPI DUP2 PUSH1 0x20 ADD PUSH1 0x1 DUP3 MUL DUP1 CALLDATASIZE DUP4 CALLDATACOPY DUP1 DUP3 ADD SWAP2 POP POP SWAP1 POP JUMPDEST POP SWAP1 POP JUMPDEST PUSH0 DUP6 EQ PUSH2 0x14C8 JUMPI PUSH1 0x1 DUP3 PUSH2 0x1455 SWAP2 SWAP1 PUSH2 0x1BAA JUMP JUMPDEST SWAP2 POP PUSH1 0xA DUP6 PUSH2 0x1464 SWAP2 SWAP1 PUSH2 0x1D89 JUMP JUMPDEST PUSH1 0x30 PUSH2 0x1470 SWAP2 SWAP1 PUSH2 0x1DB9 JUMP JUMPDEST PUSH1 0xF8 SHL DUP2 DUP4 DUP2 MLOAD DUP2 LT PUSH2 0x1486 JUMPI PUSH2 0x1485 PUSH2 0x1DEC JUMP JUMPDEST JUMPDEST PUSH1 0x20 ADD ADD SWAP1 PUSH31 0xFFFFFFFFFFFFFFFFFFFFFFFFFFFFFFFFFFFFFFFFFFFFFFFFFFFFFFFFFFFFFF NOT AND SWAP1 DUP2 PUSH0 BYTE SWAP1 MSTORE8 POP PUSH1 0xA DUP6 PUSH2 0x14C1 SWAP2 SWAP1 PUSH2 0x1D2C JUMP JUMPDEST SWAP5 POP PUSH2 0x1441 JUMP JUMPDEST DUP1 SWAP4 POP POP POP POP JUMPDEST SWAP2 SWAP1 POP JUMP JUMPDEST DUP2 PUSH1 0x4 PUSH0 DUP4 DUP2 MSTORE PUSH1 0x20 ADD SWAP1 DUP2 MSTORE PUSH1 0x20 ADD PUSH0 KECCAK256 PUSH0 PUSH2 0x100 EXP DUP2 SLOAD DUP2 PUSH20 0xFFFFFFFFFFFFFFFFFFFFFFFFFFFFFFFFFFFFFFFF MUL NOT AND SWAP1 DUP4 PUSH20 0xFFFFFFFFFFFFFFFFFFFFFFFFFFFFFFFFFFFFFFFF AND MUL OR SWAP1 SSTORE POP DUP1 DUP3 PUSH20 0xFFFFFFFFFFFFFFFFFFFFFFFFFFFFFFFFFFFFFFFF AND DUP5 PUSH20 0xFFFFFFFFFFFFFFFFFFFFFFFFFFFFFFFFFFFFFFFF AND PUSH32 0x8C5BE1E5EBEC7D5BD14F71427D1E84F3DD0314C0F7B2291E5B200AC8C7C3B925 PUSH1 0x40 MLOAD PUSH1 0x40 MLOAD DUP1 SWAP2 SUB SWAP1 LOG4 POP POP POP JUMP JUMPDEST PUSH0 PUSH0 REVERT JUMPDEST PUSH0 PUSH0 REVERT JUMPDEST PUSH0 PUSH32 0xFFFFFFFF00000000000000000000000000000000000000000000000000000000 DUP3 AND SWAP1 POP SWAP2 SWAP1 POP JUMP JUMPDEST PUSH2 0x15BF DUP2 PUSH2 0x158B JUMP JUMPDEST DUP2 EQ PUSH2 0x15C9 JUMPI PUSH0 PUSH0 REVERT JUMPDEST POP JUMP JUMPDEST PUSH0 DUP2 CALLDATALOAD SWAP1 POP PUSH2 0x15DA DUP2 PUSH2 0x15B6 JUMP JUMPDEST SWAP3 SWAP2 POP POP JUMP JUMPDEST PUSH0 PUSH1 0x20 DUP3 DUP5 SUB SLT ISZERO PUSH2 0x15F5 JUMPI PUSH2 0x15F4 PUSH2 0x1583 JUMP JUMPDEST JUMPDEST PUSH0 PUSH2 0x1602 DUP5 DUP3 DUP6 ADD PUSH2 0x15CC JUMP JUMPDEST SWAP2 POP POP SWAP3 SWAP2 POP POP JUMP JUMPDEST PUSH0 DUP2 ISZERO ISZERO SWAP1 POP SWAP2 SWAP1 POP JUMP JUMPDEST PUSH2 0x161F DUP2 PUSH2 0x160B JUMP JUMPDEST DUP3 MSTORE POP POP JUMP JUMPDEST PUSH0 PUSH1 0x20 DUP3 ADD SWAP1 POP PUSH2 0x1638 PUSH0 DUP4 ADD DUP5 PUSH2 0x1616 JUMP JUMPDEST SWAP3 SWAP2 POP POP JUMP JUMPDEST PUSH0 DUP2 MLOAD SWAP1 POP SWAP2 SWAP1 POP JUMP JUMPDEST PUSH0 DUP3 DUP3 MSTORE PUSH1 0x20 DUP3 ADD SWAP1 POP SWAP3 SWAP2 POP POP JUMP JUMPDEST DUP3 DUP2 DUP4 MCOPY PUSH0 DUP4 DUP4 ADD MSTORE POP POP POP JUMP JUMPDEST PUSH0 PUSH1 0x1F NOT PUSH1 0x1F DUP4 ADD AND SWAP1 POP SWAP2 SWAP1 POP JUMP JUMPDEST PUSH0 PUSH2 0x1680 DUP3 PUSH2 0x163E JUMP JUMPDEST PUSH2 0x168A DUP2 DUP6 PUSH2 0x1648 JUMP JUMPDEST SWAP4 POP PUSH2 0x169A DUP2 DUP6 PUSH1 0x20 DUP7 ADD PUSH2 0x1658 JUMP JUMPDEST PUSH2 0x16A3 DUP2 PUSH2 0x1666 JUMP JUMPDEST DUP5 ADD SWAP2 POP POP SWAP3 SWAP2 POP POP JUMP JUMPDEST PUSH0 PUSH1 0x20 DUP3 ADD SWAP1 POP DUP2 DUP2 SUB PUSH0 DUP4 ADD MSTORE PUSH2 0x16C6 DUP2 DUP5 PUSH2 0x1676 JUMP JUMPDEST SWAP1 POP SWAP3 SWAP2 POP POP JUMP JUMPDEST PUSH0 DUP2 SWAP1 POP SWAP2 SWAP1 POP JUMP JUMPDEST PUSH2 0x16E0 DUP2 PUSH2 0x16CE JUMP JUMPDEST DUP2 EQ PUSH2 0x16EA JUMPI PUSH0 PUSH0 REVERT JUMPDEST POP JUMP JUMPDEST PUSH0 DUP2 CALLDATALOAD SWAP1 POP PUSH2 0x16FB DUP2 PUSH2 0x16D7 JUMP JUMPDEST SWAP3 SWAP2 POP POP JUMP JUMPDEST PUSH0 PUSH1 0x20 DUP3 DUP5 SUB SLT ISZERO PUSH2 0x1716 JUMPI PUSH2 0x1715 PUSH2 0x1583 JUMP JUMPDEST JUMPDEST PUSH0 PUSH2 0x1723 DUP5 DUP3 DUP6 ADD PUSH2 0x16ED JUMP JUMPDEST SWAP2 POP POP SWAP3 SWAP2 POP POP JUMP JUMPDEST PUSH0 PUSH20 0xFFFFFFFFFFFFFFFFFFFFFFFFFFFFFFFFFFFFFFFF DUP3 AND SWAP1 POP SWAP2 SWAP1 POP JUMP JUMPDEST PUSH0 PUSH2 0x1755 DUP3 PUSH2 0x172C JUMP JUMPDEST SWAP1 POP SWAP2 SWAP1 POP JUMP JUMPDEST PUSH2 0x1765 DUP2 PUSH2 0x174B JUMP JUMPDEST DUP3 MSTORE POP POP JUMP JUMPDEST PUSH0 PUSH1 0x20 DUP3 ADD SWAP1 POP PUSH2 0x177E PUSH0 DUP4 ADD DUP5 PUSH2 0x175C JUMP JUMPDEST SWAP3 SWAP2 POP POP JUMP JUMPDEST PUSH2 0x178D DUP2 PUSH2 0x174B JUMP JUMPDEST DUP2 EQ PUSH2 0x1797 JUMPI PUSH0 PUSH0 REVERT JUMPDEST POP JUMP JUMPDEST PUSH0 DUP2 CALLDATALOAD SWAP1 POP PUSH2 0x17A8 DUP2 PUSH2 0x1784 JUMP JUMPDEST SWAP3 SWAP2 POP POP JUMP JUMPDEST PUSH0 PUSH0 PUSH0 PUSH1 0x60 DUP5 DUP7 SUB SLT ISZERO PUSH2 0x17C5 JUMPI PUSH2 0x17C4 PUSH2 0x1583 JUMP JUMPDEST JUMPDEST PUSH0 PUSH2 0x17D2 DUP7 DUP3 DUP8 ADD PUSH2 0x179A JUMP JUMPDEST SWAP4 POP POP PUSH1 0x20 PUSH2 0x17E3 DUP7 DUP3 DUP8 ADD PUSH2 0x179A JUMP JUMPDEST SWAP3 POP POP PUSH1 0x40 PUSH2 0x17F4 DUP7 DUP3 DUP8 ADD PUSH2 0x16ED JUMP JUMPDEST SWAP2 POP POP SWAP3 POP SWAP3 POP SWAP3 JUMP JUMPDEST PUSH0 PUSH1 0x20 DUP3 DUP5 SUB SLT ISZERO PUSH2 0x1813 JUMPI PUSH2 0x1812 PUSH2 0x1583 JUMP JUMPDEST JUMPDEST PUSH0 PUSH2 0x1820 DUP5 DUP3 DUP6 ADD PUSH2 0x179A JUMP JUMPDEST SWAP2 POP POP SWAP3 SWAP2 POP POP JUMP JUMPDEST PUSH2 0x1832 DUP2 PUSH2 0x16CE JUMP JUMPDEST DUP3 MSTORE POP POP JUMP JUMPDEST PUSH0 PUSH1 0x20 DUP3 ADD SWAP1 POP PUSH2 0x184B PUSH0 DUP4 ADD DUP5 PUSH2 0x1829 JUMP JUMPDEST SWAP3 SWAP2 POP POP JUMP JUMPDEST PUSH0 PUSH0 REVERT JUMPDEST PUSH0 PUSH0 REVERT JUMPDEST PUSH0 PUSH0 REVERT JUMPDEST PUSH0 PUSH0 DUP4 PUSH1 0x1F DUP5 ADD SLT PUSH2 0x1872 JUMPI PUSH2 0x1871 PUSH2 0x1851 JUMP JUMPDEST JUMPDEST DUP3 CALLDATALOAD SWAP1 POP PUSH8 0xFFFFFFFFFFFFFFFF DUP2 GT ISZERO PUSH2 0x188F JUMPI PUSH2 0x188E PUSH2 0x1855 JUMP JUMPDEST JUMPDEST PUSH1 0x20 DUP4 ADD SWAP2 POP DUP4 PUSH1 0x1 DUP3 MUL DUP4 ADD GT ISZERO PUSH2 0x18AB JUMPI PUSH2 0x18AA PUSH2 0x1859 JUMP JUMPDEST JUMPDEST SWAP3 POP SWAP3 SWAP1 POP JUMP JUMPDEST PUSH0 PUSH0 PUSH0 PUSH0 PUSH0 PUSH1 0x80 DUP7 DUP9 SUB SLT ISZERO PUSH2 0x18CB JUMPI PUSH2 0x18CA PUSH2 0x1583 JUMP JUMPDEST JUMPDEST PUSH0 PUSH2 0x18D8 DUP9 DUP3 DUP10 ADD PUSH2 0x179A JUMP JUMPDEST SWAP6 POP POP PUSH1 0x20 PUSH2 0x18E9 DUP9 DUP3 DUP10 ADD PUSH2 0x179A JUMP JUMPDEST SWAP5 POP POP PUSH1 0x40 PUSH2 0x18FA DUP9 DUP3 DUP10 ADD PUSH2 0x16ED JUMP JUMPDEST SWAP4 POP POP PUSH1 0x60 DUP7 ADD CALLDATALOAD PUSH8 0xFFFFFFFFFFFFFFFF DUP2 GT ISZERO PUSH2 0x191B JUMPI PUSH2 0x191A PUSH2 0x1587 JUMP JUMPDEST JUMPDEST PUSH2 0x1927 DUP9 DUP3 DUP10 ADD PUSH2 0x185D JUMP JUMPDEST SWAP3 POP SWAP3 POP POP SWAP3 SWAP6 POP SWAP3 SWAP6 SWAP1 SWAP4 POP JUMP JUMPDEST PUSH2 0x193F DUP2 PUSH2 0x160B JUMP JUMPDEST DUP2 EQ PUSH2 0x1949 JUMPI PUSH0 PUSH0 REVERT JUMPDEST POP JUMP JUMPDEST PUSH0 DUP2 CALLDATALOAD SWAP1 POP PUSH2 0x195A DUP2 PUSH2 0x1936 JUMP JUMPDEST SWAP3 SWAP2 POP POP JUMP JUMPDEST PUSH0 PUSH0 PUSH1 0x40 DUP4 DUP6 SUB SLT ISZERO PUSH2 0x1976 JUMPI PUSH2 0x1975 PUSH2 0x1583 JUMP JUMPDEST JUMPDEST PUSH0 PUSH2 0x1983 DUP6 DUP3 DUP7 ADD PUSH2 0x179A JUMP JUMPDEST SWAP3 POP POP PUSH1 0x20 PUSH2 0x1994 DUP6 DUP3 DUP7 ADD PUSH2 0x194C JUMP JUMPDEST SWAP2 POP POP SWAP3 POP SWAP3 SWAP1 POP JUMP JUMPDEST PUSH0 PUSH0 PUSH1 0x40 DUP4 DUP6 SUB SLT ISZERO PUSH2 0x19B4 JUMPI PUSH2 0x19B3 PUSH2 0x1583 JUMP JUMPDEST JUMPDEST PUSH0 PUSH2 0x19C1 DUP6 DUP3 DUP7 ADD PUSH2 0x179A JUMP JUMPDEST SWAP3 POP POP PUSH1 0x20 PUSH2 0x19D2 DUP6 DUP3 DUP7 ADD PUSH2 0x179A JUMP JUMPDEST SWAP2 POP POP SWAP3 POP SWAP3 SWAP1 POP JUMP JUMPDEST PUSH0 PUSH0 PUSH1 0x40 DUP4 DUP6 SUB SLT ISZERO PUSH2 0x19F2 JUMPI PUSH2 0x19F1 PUSH2 0x1583 JUMP JUMPDEST JUMPDEST PUSH0 PUSH2 0x19FF DUP6 DUP3 DUP7 ADD PUSH2 0x16ED JUMP JUMPDEST SWAP3 POP POP PUSH1 0x20 PUSH2 0x1A10 DUP6 DUP3 DUP7 ADD PUSH2 0x179A JUMP JUMPDEST SWAP2 POP POP SWAP3 POP SWAP3 SWAP1 POP JUMP JUMPDEST PUSH32 0x4E487B7100000000000000000000000000000000000000000000000000000000 PUSH0 MSTORE PUSH1 0x22 PUSH1 0x4 MSTORE PUSH1 0x24 PUSH0 REVERT JUMPDEST PUSH0 PUSH1 0x2 DUP3 DIV SWAP1 POP PUSH1 0x1 DUP3 AND DUP1 PUSH2 0x1A5E JUMPI PUSH1 0x7F DUP3 AND SWAP2 POP JUMPDEST PUSH1 0x20 DUP3 LT DUP2 SUB PUSH2 0x1A71 JUMPI PUSH2 0x1A70 PUSH2 0x1A1A JUMP JUMPDEST JUMPDEST POP SWAP2 SWAP1 POP JUMP JUMPDEST POP JUMP JUMPDEST PUSH0 PUSH2 0x1A85 PUSH0 DUP4 PUSH2 0x1648 JUMP JUMPDEST SWAP2 POP PUSH2 0x1A90 DUP3 PUSH2 0x1A77 JUMP JUMPDEST PUSH0 DUP3 ADD SWAP1 POP SWAP2 SWAP1 POP JUMP JUMPDEST PUSH0 PUSH1 0x20 DUP3 ADD SWAP1 POP DUP2 DUP2 SUB PUSH0 DUP4 ADD MSTORE PUSH2 0x1AB1 DUP2 PUSH2 0x1A7A JUMP JUMPDEST SWAP1 POP SWAP2 SWAP1 POP JUMP JUMPDEST PUSH32 0x546F6B656E204E6F742045786973740000000000000000000000000000000000 PUSH0 DUP3 ADD MSTORE POP JUMP JUMPDEST PUSH0 PUSH2 0x1AEC PUSH1 0xF DUP4 PUSH2 0x1648 JUMP JUMPDEST SWAP2 POP PUSH2 0x1AF7 DUP3 PUSH2 0x1AB8 JUMP JUMPDEST PUSH1 0x20 DUP3 ADD SWAP1 POP SWAP2 SWAP1 POP JUMP JUMPDEST PUSH0 PUSH1 0x20 DUP3 ADD SWAP1 POP DUP2 DUP2 SUB PUSH0 DUP4 ADD MSTORE PUSH2 0x1B19 DUP2 PUSH2 0x1AE0 JUMP JUMPDEST SWAP1 POP SWAP2 SWAP1 POP JUMP JUMPDEST PUSH0 DUP2 SWAP1 POP SWAP3 SWAP2 POP POP JUMP JUMPDEST PUSH0 PUSH2 0x1B34 DUP3 PUSH2 0x163E JUMP JUMPDEST PUSH2 0x1B3E DUP2 DUP6 PUSH2 0x1B20 JUMP JUMPDEST SWAP4 POP PUSH2 0x1B4E DUP2 DUP6 PUSH1 0x20 DUP7 ADD PUSH2 0x1658 JUMP JUMPDEST DUP1 DUP5 ADD SWAP2 POP POP SWAP3 SWAP2 POP POP JUMP JUMPDEST PUSH0 PUSH2 0x1B65 DUP3 DUP6 PUSH2 0x1B2A JUMP JUMPDEST SWAP2 POP PUSH2 0x1B71 DUP3 DUP5 PUSH2 0x1B2A JUMP JUMPDEST SWAP2 POP DUP2 SWAP1 POP SWAP4 SWAP3 POP POP POP JUMP JUMPDEST PUSH32 0x4E487B7100000000000000000000000000000000000000000000000000000000 PUSH0 MSTORE PUSH1 0x11 PUSH1 0x4 MSTORE PUSH1 0x24 PUSH0 REVERT JUMPDEST PUSH0 PUSH2 0x1BB4 DUP3 PUSH2 0x16CE JUMP JUMPDEST SWAP2 POP PUSH2 0x1BBF DUP4 PUSH2 0x16CE JUMP JUMPDEST SWAP3 POP DUP3 DUP3 SUB SWAP1 POP DUP2 DUP2 GT ISZERO PUSH2 0x1BD7 JUMPI PUSH2 0x1BD6 PUSH2 0x1B7D JUMP JUMPDEST JUMPDEST SWAP3 SWAP2 POP POP JUMP JUMPDEST PUSH0 DUP2 MLOAD SWAP1 POP SWAP2 SWAP1 POP JUMP JUMPDEST PUSH0 DUP3 DUP3 MSTORE PUSH1 0x20 DUP3 ADD SWAP1 POP SWAP3 SWAP2 POP POP JUMP JUMPDEST PUSH0 PUSH2 0x1C01 DUP3 PUSH2 0x1BDD JUMP JUMPDEST PUSH2 0x1C0B DUP2 DUP6 PUSH2 0x1BE7 JUMP JUMPDEST SWAP4 POP PUSH2 0x1C1B DUP2 DUP6 PUSH1 0x20 DUP7 ADD PUSH2 0x1658 JUMP JUMPDEST PUSH2 0x1C24 DUP2 PUSH2 0x1666 JUMP JUMPDEST DUP5 ADD SWAP2 POP POP SWAP3 SWAP2 POP POP JUMP JUMPDEST PUSH0 PUSH1 0x80 DUP3 ADD SWAP1 POP PUSH2 0x1C42 PUSH0 DUP4 ADD DUP8 PUSH2 0x175C JUMP JUMPDEST PUSH2 0x1C4F PUSH1 0x20 DUP4 ADD DUP7 PUSH2 0x175C JUMP JUMPDEST PUSH2 0x1C5C PUSH1 0x40 DUP4 ADD DUP6 PUSH2 0x1829 JUMP JUMPDEST DUP2 DUP2 SUB PUSH1 0x60 DUP4 ADD MSTORE PUSH2 0x1C6E DUP2 DUP5 PUSH2 0x1BF7 JUMP JUMPDEST SWAP1 POP SWAP6 SWAP5 POP POP POP POP POP JUMP JUMPDEST PUSH0 DUP2 MLOAD SWAP1 POP PUSH2 0x1C87 DUP2 PUSH2 0x15B6 JUMP JUMPDEST SWAP3 SWAP2 POP POP JUMP JUMPDEST PUSH0 PUSH1 0x20 DUP3 DUP5 SUB SLT ISZERO PUSH2 0x1CA2 JUMPI PUSH2 0x1CA1 PUSH2 0x1583 JUMP JUMPDEST JUMPDEST PUSH0 PUSH2 0x1CAF DUP5 DUP3 DUP6 ADD PUSH2 0x1C79 JUMP JUMPDEST SWAP2 POP POP SWAP3 SWAP2 POP POP JUMP JUMPDEST PUSH0 PUSH2 0x1CC2 DUP3 PUSH2 0x16CE JUMP JUMPDEST SWAP2 POP PUSH32 0xFFFFFFFFFFFFFFFFFFFFFFFFFFFFFFFFFFFFFFFFFFFFFFFFFFFFFFFFFFFFFFFF DUP3 SUB PUSH2 0x1CF4 JUMPI PUSH2 0x1CF3 PUSH2 0x1B7D JUMP JUMPDEST JUMPDEST PUSH1 0x1 DUP3 ADD SWAP1 POP SWAP2 SWAP1 POP JUMP JUMPDEST PUSH32 0x4E487B7100000000000000000000000000000000000000000000000000000000 PUSH0 MSTORE PUSH1 0x12 PUSH1 0x4 MSTORE PUSH1 0x24 PUSH0 REVERT JUMPDEST PUSH0 PUSH2 0x1D36 DUP3 PUSH2 0x16CE JUMP JUMPDEST SWAP2 POP PUSH2 0x1D41 DUP4 PUSH2 0x16CE JUMP JUMPDEST SWAP3 POP DUP3 PUSH2 0x1D51 JUMPI PUSH2 0x1D50 PUSH2 0x1CFF JUMP JUMPDEST JUMPDEST DUP3 DUP3 DIV SWAP1 POP SWAP3 SWAP2 POP POP JUMP JUMPDEST PUSH32 0x4E487B7100000000000000000000000000000000000000000000000000000000 PUSH0 MSTORE PUSH1 0x41 PUSH1 0x4 MSTORE PUSH1 0x24 PUSH0 REVERT JUMPDEST PUSH0 PUSH2 0x1D93 DUP3 PUSH2 0x16CE JUMP JUMPDEST SWAP2 POP PUSH2 0x1D9E DUP4 PUSH2 0x16CE JUMP JUMPDEST SWAP3 POP DUP3 PUSH2 0x1DAE JUMPI PUSH2 0x1DAD PUSH2 0x1CFF JUMP JUMPDEST JUMPDEST DUP3 DUP3 MOD SWAP1 POP SWAP3 SWAP2 POP POP JUMP JUMPDEST PUSH0 PUSH2 0x1DC3 DUP3 PUSH2 0x16CE JUMP JUMPDEST SWAP2 POP PUSH2 0x1DCE DUP4 PUSH2 0x16CE JUMP JUMPDEST SWAP3 POP DUP3 DUP3 ADD SWAP1 POP DUP1 DUP3 GT ISZERO PUSH2 0x1DE6 JUMPI PUSH2 0x1DE5 PUSH2 0x1B7D JUMP JUMPDEST JUMPDEST SWAP3 SWAP2 POP POP JUMP JUMPDEST PUSH32 0x4E487B7100000000000000000000000000000000000000000000000000000000 PUSH0 MSTORE PUSH1 0x32 PUSH1 0x4 MSTORE PUSH1 0x24 PUSH0 REVERT INVALID LOG2 PUSH5 0x6970667358 0x22 SLT KECCAK256 INVALID 0xDE CODESIZE 0xAF 0xE8 0xDA DUP10 LOG3 STATICCALL CALL 0xC3 0x1F 0x4D 0xE8 0x21 0xCC 0x4E ADDMOD DUP2 0x2B 0xA9 CALLCODE GAS DIV PUSH3 0xC02483 ADDMOD 0xD4 DUP9 0x4D PUSH5 0x736F6C6343 STOP ADDMOD 0x1E STOP CALLER "
				},
				"gasEstimates": {
					"creation": {
						"codeDepositCost": "1551800",
						"executionCost": "infinite",
						"totalCost": "infinite"
					},
					"external": {
						"_balances(address)": "2869",
						"_operatorApprovals(address,address)": "infinite",
						"_owners(uint256)": "2872",
						"_tokenApprovals(uint256)": "2894",
						"approve(uint256,address)": "55943",
						"balanceOf(address)": "2952",
						"getApproved(uint256)": "5308",
						"isApprovedAll(address)": "3067",
						"name()": "infinite",
						"ownerOf(uint256)": "2964",
						"safeTransferFrom(address,address,uint256)": "infinite",
						"safeTransferFrom(address,address,uint256,bytes)": "infinite",
						"setApproveAll(address,bool)": "27016",
						"supportsInterface(bytes4)": "745",
						"symbol()": "infinite",
						"tokenURI(uint256)": "infinite",
						"transferFrom(address,address,uint256)": "infinite"
					},
					"internal": {
						"_approve(address,address,uint256)": "26289",
						"_baseURI()": "infinite",
						"_burn(uint256)": "infinite",
						"_checkERC721Received(address,address,uint256,bytes memory)": "infinite",
						"_isApprovedOrOwner(address,address,uint256)": "4639",
						"_mint(address,uint256)": "infinite",
						"_safeTransfer(address,address,uint256,bytes memory)": "infinite",
						"_transfer(address,address,uint256)": "infinite"
					}
				},
				"methodIdentifiers": {
					"_balances(address)": "6ebcf607",
					"_operatorApprovals(address,address)": "edc3bc3f",
					"_owners(uint256)": "992924a6",
					"_tokenApprovals(uint256)": "a7cc0136",
					"approve(uint256,address)": "febe4909",
					"balanceOf(address)": "70a08231",
					"getApproved(uint256)": "081812fc",
					"isApprovedAll(address)": "ffb74e64",
					"name()": "06fdde03",
					"ownerOf(uint256)": "6352211e",
					"safeTransferFrom(address,address,uint256)": "42842e0e",
					"safeTransferFrom(address,address,uint256,bytes)": "b88d4fde",
					"setApproveAll(address,bool)": "c3354402",
					"supportsInterface(bytes4)": "01ffc9a7",
					"symbol()": "95d89b41",
					"tokenURI(uint256)": "c87b56dd",
					"transferFrom(address,address,uint256)": "23b872dd"
				}
			},
			"storageLayout": {
				"storage": [
					{
						"astId": 21,
						"contract": "34_ERC721/ERC721.sol:ERC721",
						"label": "name",
						"offset": 0,
						"slot": "0",
						"type": "t_string_storage"
					},
					{
						"astId": 24,
						"contract": "34_ERC721/ERC721.sol:ERC721",
						"label": "symbol",
						"offset": 0,
						"slot": "1",
						"type": "t_string_storage"
					},
					{
						"astId": 28,
						"contract": "34_ERC721/ERC721.sol:ERC721",
						"label": "_owners",
						"offset": 0,
						"slot": "2",
						"type": "t_mapping(t_uint256,t_address)"
					},
					{
						"astId": 32,
						"contract": "34_ERC721/ERC721.sol:ERC721",
						"label": "_balances",
						"offset": 0,
						"slot": "3",
						"type": "t_mapping(t_address,t_uint256)"
					},
					{
						"astId": 36,
						"contract": "34_ERC721/ERC721.sol:ERC721",
						"label": "_tokenApprovals",
						"offset": 0,
						"slot": "4",
						"type": "t_mapping(t_uint256,t_address)"
					},
					{
						"astId": 42,
						"contract": "34_ERC721/ERC721.sol:ERC721",
						"label": "_operatorApprovals",
						"offset": 0,
						"slot": "5",
						"type": "t_mapping(t_address,t_mapping(t_address,t_bool))"
					}
				],
				"types": {
					"t_address": {
						"encoding": "inplace",
						"label": "address",
						"numberOfBytes": "20"
					},
					"t_bool": {
						"encoding": "inplace",
						"label": "bool",
						"numberOfBytes": "1"
					},
					"t_mapping(t_address,t_bool)": {
						"encoding": "mapping",
						"key": "t_address",
						"label": "mapping(address => bool)",
						"numberOfBytes": "32",
						"value": "t_bool"
					},
					"t_mapping(t_address,t_mapping(t_address,t_bool))": {
						"encoding": "mapping",
						"key": "t_address",
						"label": "mapping(address => mapping(address => bool))",
						"numberOfBytes": "32",
						"value": "t_mapping(t_address,t_bool)"
					},
					"t_mapping(t_address,t_uint256)": {
						"encoding": "mapping",
						"key": "t_address",
						"label": "mapping(address => uint256)",
						"numberOfBytes": "32",
						"value": "t_uint256"
					},
					"t_mapping(t_uint256,t_address)": {
						"encoding": "mapping",
						"key": "t_uint256",
						"label": "mapping(uint256 => address)",
						"numberOfBytes": "32",
						"value": "t_address"
					},
					"t_string_storage": {
						"encoding": "bytes",
						"label": "string",
						"numberOfBytes": "32"
					},
					"t_uint256": {
						"encoding": "inplace",
						"label": "uint256",
						"numberOfBytes": "32"
					}
				}
			},
			"userdoc": {
				"kind": "user",
				"methods": {
					"supportsInterface(bytes4)": {
						"notice": "bytes4(keccak256(ERC721.Transfer.selector) ^ keccak256(ERC721.Approval.selector) ^ ··· ^keccak256(ERC721.isApprovedForAll.selector)) bytes4(keccak256(IERC721Metadata.name.selector ^ IERC721Metadata.symbol.selector ^ IERC721Metadata.tokenURI.selector))*"
					},
					"tokenURI(uint256)": {
						"notice": "实现IERC721Metadata的tokenURI函数，查询metadata。"
					}
				},
				"version": 1
			}
		}
	}
}