{
	"Task2/work2/LXApe.sol": {
		"LXApe": {
			"abi": [
				{
					"inputs": [
						{
							"internalType": "string",
							"name": "_name",
							"type": "string"
						},
						{
							"internalType": "string",
							"name": "_symbol",
							"type": "string"
						}
					],
					"stateMutability": "nonpayable",
					"type": "constructor"
				},
				{
					"inputs": [
						{
							"internalType": "address",
							"name": "receiver",
							"type": "address"
						}
					],
					"name": "ERC721InvalidReceiver",
					"type": "error"
				},
				{
					"anonymous": false,
					"inputs": [
						{
							"indexed": true,
							"internalType": "address",
							"name": "owner",
							"type": "address"
						},
						{
							"indexed": true,
							"internalType": "address",
							"name": "approved",
							"type": "address"
						},
						{
							"indexed": true,
							"internalType": "uint256",
							"name": "tokenId",
							"type": "uint256"
						}
					],
					"name": "Approval",
					"type": "event"
				},
				{
					"anonymous": false,
					"inputs": [
						{
							"indexed": true,
							"internalType": "address",
							"name": "owner",
							"type": "address"
						},
						{
							"indexed": true,
							"internalType": "address",
							"name": "operator",
							"type": "address"
						},
						{
							"indexed": false,
							"internalType": "bool",
							"name": "approved",
							"type": "bool"
						}
					],
					"name": "ApprovalForAll",
					"type": "event"
				},
				{
					"anonymous": false,
					"inputs": [
						{
							"indexed": true,
							"internalType": "address",
							"name": "from",
							"type": "address"
						},
						{
							"indexed": true,
							"internalType": "address",
							"name": "to",
							"type": "address"
						},
						{
							"indexed": true,
							"internalType": "uint256",
							"name": "tokenId",
							"type": "uint256"
						}
					],
					"name": "Transfer",
					"type": "event"
				},
				{
					"inputs": [],
					"name": "MAX_APES",
					"outputs": [
						{
							"internalType": "uint256",
							"name": "",
							"type": "uint256"
						}
					],
					"stateMutability": "view",
					"type": "function"
				},
				{
					"inputs": [
						{
							"internalType": "address",
							"name": "to",
							"type": "address"
						},
						{
							"internalType": "uint256",
							"name": "tokenId",
							"type": "uint256"
						}
					],
					"name": "approve",
					"outputs": [],
					"stateMutability": "nonpayable",
					"type": "function"
				},
				{
					"inputs": [
						{
							"internalType": "address",
							"name": "owner",
							"type": "address"
						}
					],
					"name": "balanceOf",
					"outputs": [
						{
							"internalType": "uint256",
							"name": "balance",
							"type": "uint256"
						}
					],
					"stateMutability": "view",
					"type": "function"
				},
				{
					"inputs": [
						{
							"internalType": "uint256",
							"name": "tokenId",
							"type": "uint256"
						}
					],
					"name": "getApproved",
					"outputs": [
						{
							"internalType": "address",
							"name": "operator",
							"type": "address"
						}
					],
					"stateMutability": "view",
					"type": "function"
				},
				{
					"inputs": [
						{
							"internalType": "address",
							"name": "owner",
							"type": "address"
						},
						{
							"internalType": "address",
							"name": "operator",
							"type": "address"
						}
					],
					"name": "isApprovedForAll",
					"outputs": [
						{
							"internalType": "bool",
							"name": "",
							"type": "bool"
						}
					],
					"stateMutability": "view",
					"type": "function"
				},
				{
					"inputs": [
						{
							"internalType": "address",
							"name": "to",
							"type": "address"
						},
						{
							"internalType": "uint256",
							"name": "tokenId",
							"type": "uint256"
						}
					],
					"name": "mintNFT",
					"outputs": [],
					"stateMutability": "nonpayable",
					"type": "function"
				},
				{
					"inputs": [],
					"name": "name",
					"outputs": [
						{
							"internalType": "string",
							"name": "",
							"type": "string"
						}
					],
					"stateMutability": "view",
					"type": "function"
				},
				{
					"inputs": [
						{
							"internalType": "uint256",
							"name": "tokenId",
							"type": "uint256"
						}
					],
					"name": "ownerOf",
					"outputs": [
						{
							"internalType": "address",
							"name": "owner",
							"type": "address"
						}
					],
					"stateMutability": "view",
					"type": "function"
				},
				{
					"inputs": [
						{
							"internalType": "address",
							"name": "from",
							"type": "address"
						},
						{
							"internalType": "address",
							"name": "to",
							"type": "address"
						},
						{
							"internalType": "uint256",
							"name": "tokenId",
							"type": "uint256"
						}
					],
					"name": "safeTransferFrom",
					"outputs": [],
					"stateMutability": "nonpayable",
					"type": "function"
				},
				{
					"inputs": [
						{
							"internalType": "address",
							"name": "from",
							"type": "address"
						},
						{
							"internalType": "address",
							"name": "to",
							"type": "address"
						},
						{
							"internalType": "uint256",
							"name": "tokenId",
							"type": "uint256"
						},
						{
							"internalType": "bytes",
							"name": "data",
							"type": "bytes"
						}
					],
					"name": "safeTransferFrom",
					"outputs": [],
					"stateMutability": "nonpayable",
					"type": "function"
				},
				{
					"inputs": [
						{
							"internalType": "address",
							"name": "operator",
							"type": "address"
						},
						{
							"internalType": "bool",
							"name": "approved",
							"type": "bool"
						}
					],
					"name": "setApprovalForAll",
					"outputs": [],
					"stateMutability": "nonpayable",
					"type": "function"
				},
				{
					"inputs": [
						{
							"internalType": "bytes4",
							"name": "interfaceId",
							"type": "bytes4"
						}
					],
					"name": "supportsInterface",
					"outputs": [
						{
							"internalType": "bool",
							"name": "",
							"type": "bool"
						}
					],
					"stateMutability": "pure",
					"type": "function"
				},
				{
					"inputs": [],
					"name": "symbol",
					"outputs": [
						{
							"internalType": "string",
							"name": "",
							"type": "string"
						}
					],
					"stateMutability": "view",
					"type": "function"
				},
				{
					"inputs": [
						{
							"internalType": "uint256",
							"name": "tokenId",
							"type": "uint256"
						}
					],
					"name": "tokenURI",
					"outputs": [
						{
							"internalType": "string",
							"name": "",
							"type": "string"
						}
					],
					"stateMutability": "view",
					"type": "function"
				},
				{
					"inputs": [
						{
							"internalType": "address",
							"name": "from",
							"type": "address"
						},
						{
							"internalType": "address",
							"name": "to",
							"type": "address"
						},
						{
							"internalType": "uint256",
							"name": "tokenId",
							"type": "uint256"
						}
					],
					"name": "transferFrom",
					"outputs": [],
					"stateMutability": "nonpayable",
					"type": "function"
				}
			],
			"devdoc": {
				"events": {
					"Approval(address,address,uint256)": {
						"details": "Emitted when `owner` enables `approved` to manage the `tokenId` token."
					},
					"ApprovalForAll(address,address,bool)": {
						"details": "Emitted when `owner` enables or disables (`approved`) `operator` to manage all of its assets."
					},
					"Transfer(address,address,uint256)": {
						"details": "Emitted when `tokenId` token is transferred from `from` to `to`."
					}
				},
				"kind": "dev",
				"methods": {
					"approve(address,uint256)": {
						"details": "Gives permission to `to` to transfer `tokenId` token to another account. The approval is cleared when the token is transferred. Only a single account can be approved at a time, so approving the zero address clears previous approvals. Requirements: - The caller must own the token or be an approved operator. - `tokenId` must exist. Emits an {Approval} event."
					},
					"balanceOf(address)": {
						"details": "Returns the number of tokens in ``owner``'s account."
					},
					"getApproved(uint256)": {
						"details": "Returns the account approved for `tokenId` token. Requirements: - `tokenId` must exist."
					},
					"isApprovedForAll(address,address)": {
						"details": "Returns if the `operator` is allowed to manage all of the assets of `owner`. See {setApprovalForAll}"
					},
					"ownerOf(uint256)": {
						"details": "Returns the owner of the `tokenId` token. Requirements: - `tokenId` must exist."
					},
					"safeTransferFrom(address,address,uint256)": {
						"details": "Safely transfers `tokenId` token from `from` to `to`, checking first that contract recipients are aware of the ERC-721 protocol to prevent tokens from being forever locked. Requirements: - `from` cannot be the zero address. - `to` cannot be the zero address. - `tokenId` token must exist and be owned by `from`. - If the caller is not `from`, it must have been allowed to move this token by either {approve} or   {setApprovalForAll}. - If `to` refers to a smart contract, it must implement {IERC721Receiver-onERC721Received}, which is called upon   a safe transfer. Emits a {Transfer} event."
					},
					"safeTransferFrom(address,address,uint256,bytes)": {
						"details": "Safely transfers `tokenId` token from `from` to `to`. Requirements: - `from` cannot be the zero address. - `to` cannot be the zero address. - `tokenId` token must exist and be owned by `from`. - If the caller is not `from`, it must be approved to move this token by either {approve} or {setApprovalForAll}. - If `to` refers to a smart contract, it must implement {IERC721Receiver-onERC721Received}, which is called upon   a safe transfer. Emits a {Transfer} event."
					},
					"setApprovalForAll(address,bool)": {
						"details": "Approve or remove `operator` as an operator for the caller. Operators can call {transferFrom} or {safeTransferFrom} for any token owned by the caller. Requirements: - The `operator` cannot be the address zero. Emits an {ApprovalForAll} event."
					},
					"supportsInterface(bytes4)": {
						"details": "Returns true if this contract implements the interface defined by `interfaceId`. See the corresponding https://eips.ethereum.org/EIPS/eip-165#how-interfaces-are-identified[ERC section] to learn more about how these ids are created. This function call must use less than 30 000 gas."
					},
					"tokenURI(uint256)": {
						"details": "Returns the Uniform Resource Identifier (URI) for `tokenId` token."
					},
					"transferFrom(address,address,uint256)": {
						"details": "Transfers `tokenId` token from `from` to `to`. WARNING: Note that the caller is responsible to confirm that the recipient is capable of receiving ERC-721 or else they may be permanently lost. Usage of {safeTransferFrom} prevents loss, though the caller must understand this adds an external call which potentially creates a reentrancy vulnerability. Requirements: - `from` cannot be the zero address. - `to` cannot be the zero address. - `tokenId` token must be owned by `from`. - If the caller is not `from`, it must be approved to move this token by either {approve} or {setApprovalForAll}. Emits a {Transfer} event."
					}
				},
				"version": 1
			},
			"evm": {
				"assembly": "    /* \"Task2/work2/LXApe.sol\":101:667  contract LXApe is ERC721 {... */\n  mstore(0x40, 0x80)\n    /* \"Task2/work2/LXApe.sol\":161:166  10000 */\n  0x2710\n    /* \"Task2/work2/LXApe.sol\":135:166  uint256 public MAX_APES = 10000 */\n  0x06\n  sstore\n    /* \"Task2/work2/LXApe.sol\":175:261  constructor(string memory _name, string memory _symbol) ERC721(_name, _symbol){... */\n  callvalue\n  dup1\n  iszero\n  tag_1\n  jumpi\n  revert(0x00, 0x00)\ntag_1:\n  pop\n  mload(0x40)\n  sub(codesize, bytecodeSize)\n  dup1\n  bytecodeSize\n  dup4\n  codecopy\n  dup2\n  dup2\n  add\n  0x40\n  mstore\n  dup2\n  add\n  swap1\n  tag_2\n  swap2\n  swap1\n  tag_3\n  jump\t// in\ntag_2:\n    /* \"Task2/work2/LXApe.sol\":238:243  _name */\n  dup2\n    /* \"Task2/work2/LXApe.sol\":245:252  _symbol */\n  dup2\n    /* \"Task2/work2/ERC721.sol\":812:817  _name */\n  dup2\n    /* \"Task2/work2/ERC721.sol\":805:809  name */\n  0x00\n    /* \"Task2/work2/ERC721.sol\":805:817  name = _name */\n  swap1\n  dup2\n  tag_7\n  swap2\n  swap1\n  tag_8\n  jump\t// in\ntag_7:\n  pop\n    /* \"Task2/work2/ERC721.sol\":837:844  _symbol */\n  dup1\n    /* \"Task2/work2/ERC721.sol\":828:834  symbol */\n  0x01\n    /* \"Task2/work2/ERC721.sol\":828:844  symbol = _symbol */\n  swap1\n  dup2\n  tag_9\n  swap2\n  swap1\n  tag_8\n  jump\t// in\ntag_9:\n  pop\n    /* \"Task2/work2/ERC721.sol\":739:852  constructor(string memory _name, string memory _symbol){... */\n  pop\n  pop\n    /* \"Task2/work2/LXApe.sol\":175:261  constructor(string memory _name, string memory _symbol) ERC721(_name, _symbol){... */\n  pop\n  pop\n    /* \"Task2/work2/LXApe.sol\":101:667  contract LXApe is ERC721 {... */\n  jump(tag_11)\n    /* \"#utility.yul\":7:82   */\ntag_12:\n    /* \"#utility.yul\":40:46   */\n  0x00\n    /* \"#utility.yul\":73:75   */\n  0x40\n    /* \"#utility.yul\":67:76   */\n  mload\n    /* \"#utility.yul\":57:76   */\n  swap1\n  pop\n    /* \"#utility.yul\":7:82   */\n  swap1\n  jump\t// out\n    /* \"#utility.yul\":88:205   */\ntag_13:\n    /* \"#utility.yul\":197:198   */\n  0x00\n    /* \"#utility.yul\":194:195   */\n  0x00\n    /* \"#utility.yul\":187:199   */\n  revert\n    /* \"#utility.yul\":211:328   */\ntag_14:\n    /* \"#utility.yul\":320:321   */\n  0x00\n    /* \"#utility.yul\":317:318   */\n  0x00\n    /* \"#utility.yul\":310:322   */\n  revert\n    /* \"#utility.yul\":334:451   */\ntag_15:\n    /* \"#utility.yul\":443:444   */\n  0x00\n    /* \"#utility.yul\":440:441   */\n  0x00\n    /* \"#utility.yul\":433:445   */\n  revert\n    /* \"#utility.yul\":457:574   */\ntag_16:\n    /* \"#utility.yul\":566:567   */\n  0x00\n    /* \"#utility.yul\":563:564   */\n  0x00\n    /* \"#utility.yul\":556:568   */\n  revert\n    /* \"#utility.yul\":580:682   */\ntag_17:\n    /* \"#utility.yul\":621:627   */\n  0x00\n    /* \"#utility.yul\":672:674   */\n  0x1f\n    /* \"#utility.yul\":668:675   */\n  not\n    /* \"#utility.yul\":663:665   */\n  0x1f\n    /* \"#utility.yul\":656:661   */\n  dup4\n    /* \"#utility.yul\":652:666   */\n  add\n    /* \"#utility.yul\":648:676   */\n  and\n    /* \"#utility.yul\":638:676   */\n  swap1\n  pop\n    /* \"#utility.yul\":580:682   */\n  swap2\n  swap1\n  pop\n  jump\t// out\n    /* \"#utility.yul\":688:868   */\ntag_18:\n    /* \"#utility.yul\":736:813   */\n  0x4e487b7100000000000000000000000000000000000000000000000000000000\n    /* \"#utility.yul\":733:734   */\n  0x00\n    /* \"#utility.yul\":726:814   */\n  mstore\n    /* \"#utility.yul\":833:837   */\n  0x41\n    /* \"#utility.yul\":830:831   */\n  0x04\n    /* \"#utility.yul\":823:838   */\n  mstore\n    /* \"#utility.yul\":857:861   */\n  0x24\n    /* \"#utility.yul\":854:855   */\n  0x00\n    /* \"#utility.yul\":847:862   */\n  revert\n    /* \"#utility.yul\":874:1155   */\ntag_19:\n    /* \"#utility.yul\":957:984   */\n  tag_53\n    /* \"#utility.yul\":979:983   */\n  dup3\n    /* \"#utility.yul\":957:984   */\n  tag_17\n  jump\t// in\ntag_53:\n    /* \"#utility.yul\":949:955   */\n  dup2\n    /* \"#utility.yul\":945:985   */\n  add\n    /* \"#utility.yul\":1087:1093   */\n  dup2\n    /* \"#utility.yul\":1075:1085   */\n  dup2\n    /* \"#utility.yul\":1072:1094   */\n  lt\n    /* \"#utility.yul\":1051:1069   */\n  0xffffffffffffffff\n    /* \"#utility.yul\":1039:1049   */\n  dup3\n    /* \"#utility.yul\":1036:1070   */\n  gt\n    /* \"#utility.yul\":1033:1095   */\n  or\n    /* \"#utility.yul\":1030:1118   */\n  iszero\n  tag_54\n  jumpi\n    /* \"#utility.yul\":1098:1116   */\n  tag_55\n  tag_18\n  jump\t// in\ntag_55:\n    /* \"#utility.yul\":1030:1118   */\ntag_54:\n    /* \"#utility.yul\":1138:1148   */\n  dup1\n    /* \"#utility.yul\":1134:1136   */\n  0x40\n    /* \"#utility.yul\":1127:1149   */\n  mstore\n    /* \"#utility.yul\":917:1155   */\n  pop\n    /* \"#utility.yul\":874:1155   */\n  pop\n  pop\n  jump\t// out\n    /* \"#utility.yul\":1161:1290   */\ntag_20:\n    /* \"#utility.yul\":1195:1201   */\n  0x00\n    /* \"#utility.yul\":1222:1242   */\n  tag_57\n  tag_12\n  jump\t// in\ntag_57:\n    /* \"#utility.yul\":1212:1242   */\n  swap1\n  pop\n    /* \"#utility.yul\":1251:1284   */\n  tag_58\n    /* \"#utility.yul\":1279:1283   */\n  dup3\n    /* \"#utility.yul\":1271:1277   */\n  dup3\n    /* \"#utility.yul\":1251:1284   */\n  tag_19\n  jump\t// in\ntag_58:\n    /* \"#utility.yul\":1161:1290   */\n  swap2\n  swap1\n  pop\n  jump\t// out\n    /* \"#utility.yul\":1296:1604   */\ntag_21:\n    /* \"#utility.yul\":1358:1362   */\n  0x00\n    /* \"#utility.yul\":1448:1466   */\n  0xffffffffffffffff\n    /* \"#utility.yul\":1440:1446   */\n  dup3\n    /* \"#utility.yul\":1437:1467   */\n  gt\n    /* \"#utility.yul\":1434:1490   */\n  iszero\n  tag_60\n  jumpi\n    /* \"#utility.yul\":1470:1488   */\n  tag_61\n  tag_18\n  jump\t// in\ntag_61:\n    /* \"#utility.yul\":1434:1490   */\ntag_60:\n    /* \"#utility.yul\":1508:1537   */\n  tag_62\n    /* \"#utility.yul\":1530:1536   */\n  dup3\n    /* \"#utility.yul\":1508:1537   */\n  tag_17\n  jump\t// in\ntag_62:\n    /* \"#utility.yul\":1500:1537   */\n  swap1\n  pop\n    /* \"#utility.yul\":1592:1596   */\n  0x20\n    /* \"#utility.yul\":1586:1590   */\n  dup2\n    /* \"#utility.yul\":1582:1597   */\n  add\n    /* \"#utility.yul\":1574:1597   */\n  swap1\n  pop\n    /* \"#utility.yul\":1296:1604   */\n  swap2\n  swap1\n  pop\n  jump\t// out\n    /* \"#utility.yul\":1610:1749   */\ntag_22:\n    /* \"#utility.yul\":1699:1705   */\n  dup3\n    /* \"#utility.yul\":1694:1697   */\n  dup2\n    /* \"#utility.yul\":1689:1692   */\n  dup4\n    /* \"#utility.yul\":1683:1706   */\n  mcopy\n    /* \"#utility.yul\":1740:1741   */\n  0x00\n    /* \"#utility.yul\":1731:1737   */\n  dup4\n    /* \"#utility.yul\":1726:1729   */\n  dup4\n    /* \"#utility.yul\":1722:1738   */\n  add\n    /* \"#utility.yul\":1715:1742   */\n  mstore\n    /* \"#utility.yul\":1610:1749   */\n  pop\n  pop\n  pop\n  jump\t// out\n    /* \"#utility.yul\":1755:2189   */\ntag_23:\n    /* \"#utility.yul\":1844:1849   */\n  0x00\n    /* \"#utility.yul\":1869:1935   */\n  tag_65\n    /* \"#utility.yul\":1885:1934   */\n  tag_66\n    /* \"#utility.yul\":1927:1933   */\n  dup5\n    /* \"#utility.yul\":1885:1934   */\n  tag_21\n  jump\t// in\ntag_66:\n    /* \"#utility.yul\":1869:1935   */\n  tag_20\n  jump\t// in\ntag_65:\n    /* \"#utility.yul\":1860:1935   */\n  swap1\n  pop\n    /* \"#utility.yul\":1958:1964   */\n  dup3\n    /* \"#utility.yul\":1951:1956   */\n  dup2\n    /* \"#utility.yul\":1944:1965   */\n  mstore\n    /* \"#utility.yul\":1996:2000   */\n  0x20\n    /* \"#utility.yul\":1989:1994   */\n  dup2\n    /* \"#utility.yul\":1985:2001   */\n  add\n    /* \"#utility.yul\":2034:2037   */\n  dup5\n    /* \"#utility.yul\":2025:2031   */\n  dup5\n    /* \"#utility.yul\":2020:2023   */\n  dup5\n    /* \"#utility.yul\":2016:2032   */\n  add\n    /* \"#utility.yul\":2013:2038   */\n  gt\n    /* \"#utility.yul\":2010:2122   */\n  iszero\n  tag_67\n  jumpi\n    /* \"#utility.yul\":2041:2120   */\n  tag_68\n  tag_16\n  jump\t// in\ntag_68:\n    /* \"#utility.yul\":2010:2122   */\ntag_67:\n    /* \"#utility.yul\":2131:2183   */\n  tag_69\n    /* \"#utility.yul\":2176:2182   */\n  dup5\n    /* \"#utility.yul\":2171:2174   */\n  dup3\n    /* \"#utility.yul\":2166:2169   */\n  dup6\n    /* \"#utility.yul\":2131:2183   */\n  tag_22\n  jump\t// in\ntag_69:\n    /* \"#utility.yul\":1850:2189   */\n  pop\n    /* \"#utility.yul\":1755:2189   */\n  swap4\n  swap3\n  pop\n  pop\n  pop\n  jump\t// out\n    /* \"#utility.yul\":2209:2564   */\ntag_24:\n    /* \"#utility.yul\":2276:2281   */\n  0x00\n    /* \"#utility.yul\":2325:2328   */\n  dup3\n    /* \"#utility.yul\":2318:2322   */\n  0x1f\n    /* \"#utility.yul\":2310:2316   */\n  dup4\n    /* \"#utility.yul\":2306:2323   */\n  add\n    /* \"#utility.yul\":2302:2329   */\n  slt\n    /* \"#utility.yul\":2292:2414   */\n  tag_71\n  jumpi\n    /* \"#utility.yul\":2333:2412   */\n  tag_72\n  tag_15\n  jump\t// in\ntag_72:\n    /* \"#utility.yul\":2292:2414   */\ntag_71:\n    /* \"#utility.yul\":2443:2449   */\n  dup2\n    /* \"#utility.yul\":2437:2450   */\n  mload\n    /* \"#utility.yul\":2468:2558   */\n  tag_73\n    /* \"#utility.yul\":2554:2557   */\n  dup5\n    /* \"#utility.yul\":2546:2552   */\n  dup3\n    /* \"#utility.yul\":2539:2543   */\n  0x20\n    /* \"#utility.yul\":2531:2537   */\n  dup7\n    /* \"#utility.yul\":2527:2544   */\n  add\n    /* \"#utility.yul\":2468:2558   */\n  tag_23\n  jump\t// in\ntag_73:\n    /* \"#utility.yul\":2459:2558   */\n  swap2\n  pop\n    /* \"#utility.yul\":2282:2564   */\n  pop\n    /* \"#utility.yul\":2209:2564   */\n  swap3\n  swap2\n  pop\n  pop\n  jump\t// out\n    /* \"#utility.yul\":2570:3423   */\ntag_3:\n    /* \"#utility.yul\":2669:2675   */\n  0x00\n    /* \"#utility.yul\":2677:2683   */\n  0x00\n    /* \"#utility.yul\":2726:2728   */\n  0x40\n    /* \"#utility.yul\":2714:2723   */\n  dup4\n    /* \"#utility.yul\":2705:2712   */\n  dup6\n    /* \"#utility.yul\":2701:2724   */\n  sub\n    /* \"#utility.yul\":2697:2729   */\n  slt\n    /* \"#utility.yul\":2694:2813   */\n  iszero\n  tag_75\n  jumpi\n    /* \"#utility.yul\":2732:2811   */\n  tag_76\n  tag_13\n  jump\t// in\ntag_76:\n    /* \"#utility.yul\":2694:2813   */\ntag_75:\n    /* \"#utility.yul\":2873:2874   */\n  0x00\n    /* \"#utility.yul\":2862:2871   */\n  dup4\n    /* \"#utility.yul\":2858:2875   */\n  add\n    /* \"#utility.yul\":2852:2876   */\n  mload\n    /* \"#utility.yul\":2903:2921   */\n  0xffffffffffffffff\n    /* \"#utility.yul\":2895:2901   */\n  dup2\n    /* \"#utility.yul\":2892:2922   */\n  gt\n    /* \"#utility.yul\":2889:3006   */\n  iszero\n  tag_77\n  jumpi\n    /* \"#utility.yul\":2925:3004   */\n  tag_78\n  tag_14\n  jump\t// in\ntag_78:\n    /* \"#utility.yul\":2889:3006   */\ntag_77:\n    /* \"#utility.yul\":3030:3104   */\n  tag_79\n    /* \"#utility.yul\":3096:3103   */\n  dup6\n    /* \"#utility.yul\":3087:3093   */\n  dup3\n    /* \"#utility.yul\":3076:3085   */\n  dup7\n    /* \"#utility.yul\":3072:3094   */\n  add\n    /* \"#utility.yul\":3030:3104   */\n  tag_24\n  jump\t// in\ntag_79:\n    /* \"#utility.yul\":3020:3104   */\n  swap3\n  pop\n    /* \"#utility.yul\":2823:3114   */\n  pop\n    /* \"#utility.yul\":3174:3176   */\n  0x20\n    /* \"#utility.yul\":3163:3172   */\n  dup4\n    /* \"#utility.yul\":3159:3177   */\n  add\n    /* \"#utility.yul\":3153:3178   */\n  mload\n    /* \"#utility.yul\":3205:3223   */\n  0xffffffffffffffff\n    /* \"#utility.yul\":3197:3203   */\n  dup2\n    /* \"#utility.yul\":3194:3224   */\n  gt\n    /* \"#utility.yul\":3191:3308   */\n  iszero\n  tag_80\n  jumpi\n    /* \"#utility.yul\":3227:3306   */\n  tag_81\n  tag_14\n  jump\t// in\ntag_81:\n    /* \"#utility.yul\":3191:3308   */\ntag_80:\n    /* \"#utility.yul\":3332:3406   */\n  tag_82\n    /* \"#utility.yul\":3398:3405   */\n  dup6\n    /* \"#utility.yul\":3389:3395   */\n  dup3\n    /* \"#utility.yul\":3378:3387   */\n  dup7\n    /* \"#utility.yul\":3374:3396   */\n  add\n    /* \"#utility.yul\":3332:3406   */\n  tag_24\n  jump\t// in\ntag_82:\n    /* \"#utility.yul\":3322:3406   */\n  swap2\n  pop\n    /* \"#utility.yul\":3124:3416   */\n  pop\n    /* \"#utility.yul\":2570:3423   */\n  swap3\n  pop\n  swap3\n  swap1\n  pop\n  jump\t// out\n    /* \"#utility.yul\":3429:3528   */\ntag_25:\n    /* \"#utility.yul\":3481:3487   */\n  0x00\n    /* \"#utility.yul\":3515:3520   */\n  dup2\n    /* \"#utility.yul\":3509:3521   */\n  mload\n    /* \"#utility.yul\":3499:3521   */\n  swap1\n  pop\n    /* \"#utility.yul\":3429:3528   */\n  swap2\n  swap1\n  pop\n  jump\t// out\n    /* \"#utility.yul\":3534:3714   */\ntag_26:\n    /* \"#utility.yul\":3582:3659   */\n  0x4e487b7100000000000000000000000000000000000000000000000000000000\n    /* \"#utility.yul\":3579:3580   */\n  0x00\n    /* \"#utility.yul\":3572:3660   */\n  mstore\n    /* \"#utility.yul\":3679:3683   */\n  0x22\n    /* \"#utility.yul\":3676:3677   */\n  0x04\n    /* \"#utility.yul\":3669:3684   */\n  mstore\n    /* \"#utility.yul\":3703:3707   */\n  0x24\n    /* \"#utility.yul\":3700:3701   */\n  0x00\n    /* \"#utility.yul\":3693:3708   */\n  revert\n    /* \"#utility.yul\":3720:4040   */\ntag_27:\n    /* \"#utility.yul\":3764:3770   */\n  0x00\n    /* \"#utility.yul\":3801:3802   */\n  0x02\n    /* \"#utility.yul\":3795:3799   */\n  dup3\n    /* \"#utility.yul\":3791:3803   */\n  div\n    /* \"#utility.yul\":3781:3803   */\n  swap1\n  pop\n    /* \"#utility.yul\":3848:3849   */\n  0x01\n    /* \"#utility.yul\":3842:3846   */\n  dup3\n    /* \"#utility.yul\":3838:3850   */\n  and\n    /* \"#utility.yul\":3869:3887   */\n  dup1\n    /* \"#utility.yul\":3859:3940   */\n  tag_86\n  jumpi\n    /* \"#utility.yul\":3925:3929   */\n  0x7f\n    /* \"#utility.yul\":3917:3923   */\n  dup3\n    /* \"#utility.yul\":3913:3930   */\n  and\n    /* \"#utility.yul\":3903:3930   */\n  swap2\n  pop\n    /* \"#utility.yul\":3859:3940   */\ntag_86:\n    /* \"#utility.yul\":3987:3989   */\n  0x20\n    /* \"#utility.yul\":3979:3985   */\n  dup3\n    /* \"#utility.yul\":3976:3990   */\n  lt\n    /* \"#utility.yul\":3956:3974   */\n  dup2\n    /* \"#utility.yul\":3953:3991   */\n  sub\n    /* \"#utility.yul\":3950:4034   */\n  tag_87\n  jumpi\n    /* \"#utility.yul\":4006:4024   */\n  tag_88\n  tag_26\n  jump\t// in\ntag_88:\n    /* \"#utility.yul\":3950:4034   */\ntag_87:\n    /* \"#utility.yul\":3771:4040   */\n  pop\n    /* \"#utility.yul\":3720:4040   */\n  swap2\n  swap1\n  pop\n  jump\t// out\n    /* \"#utility.yul\":4046:4187   */\ntag_28:\n    /* \"#utility.yul\":4095:4099   */\n  0x00\n    /* \"#utility.yul\":4118:4121   */\n  dup2\n    /* \"#utility.yul\":4110:4121   */\n  swap1\n  pop\n    /* \"#utility.yul\":4141:4144   */\n  dup2\n    /* \"#utility.yul\":4138:4139   */\n  0x00\n    /* \"#utility.yul\":4131:4145   */\n  mstore\n    /* \"#utility.yul\":4175:4179   */\n  0x20\n    /* \"#utility.yul\":4172:4173   */\n  0x00\n    /* \"#utility.yul\":4162:4180   */\n  keccak256\n    /* \"#utility.yul\":4154:4180   */\n  swap1\n  pop\n    /* \"#utility.yul\":4046:4187   */\n  swap2\n  swap1\n  pop\n  jump\t// out\n    /* \"#utility.yul\":4193:4286   */\ntag_29:\n    /* \"#utility.yul\":4230:4236   */\n  0x00\n    /* \"#utility.yul\":4277:4279   */\n  0x20\n    /* \"#utility.yul\":4272:4274   */\n  0x1f\n    /* \"#utility.yul\":4265:4270   */\n  dup4\n    /* \"#utility.yul\":4261:4275   */\n  add\n    /* \"#utility.yul\":4257:4280   */\n  div\n    /* \"#utility.yul\":4247:4280   */\n  swap1\n  pop\n    /* \"#utility.yul\":4193:4286   */\n  swap2\n  swap1\n  pop\n  jump\t// out\n    /* \"#utility.yul\":4292:4399   */\ntag_30:\n    /* \"#utility.yul\":4336:4344   */\n  0x00\n    /* \"#utility.yul\":4386:4391   */\n  dup3\n    /* \"#utility.yul\":4380:4384   */\n  dup3\n    /* \"#utility.yul\":4376:4392   */\n  shl\n    /* \"#utility.yul\":4355:4392   */\n  swap1\n  pop\n    /* \"#utility.yul\":4292:4399   */\n  swap3\n  swap2\n  pop\n  pop\n  jump\t// out\n    /* \"#utility.yul\":4405:4798   */\ntag_31:\n    /* \"#utility.yul\":4474:4480   */\n  0x00\n    /* \"#utility.yul\":4524:4525   */\n  0x08\n    /* \"#utility.yul\":4512:4522   */\n  dup4\n    /* \"#utility.yul\":4508:4526   */\n  mul\n    /* \"#utility.yul\":4547:4644   */\n  tag_93\n    /* \"#utility.yul\":4577:4643   */\n  0xffffffffffffffffffffffffffffffffffffffffffffffffffffffffffffffff\n    /* \"#utility.yul\":4566:4575   */\n  dup3\n    /* \"#utility.yul\":4547:4644   */\n  tag_30\n  jump\t// in\ntag_93:\n    /* \"#utility.yul\":4665:4704   */\n  tag_94\n    /* \"#utility.yul\":4695:4703   */\n  dup7\n    /* \"#utility.yul\":4684:4693   */\n  dup4\n    /* \"#utility.yul\":4665:4704   */\n  tag_30\n  jump\t// in\ntag_94:\n    /* \"#utility.yul\":4653:4704   */\n  swap6\n  pop\n    /* \"#utility.yul\":4737:4741   */\n  dup1\n    /* \"#utility.yul\":4733:4742   */\n  not\n    /* \"#utility.yul\":4726:4731   */\n  dup5\n    /* \"#utility.yul\":4722:4743   */\n  and\n    /* \"#utility.yul\":4713:4743   */\n  swap4\n  pop\n    /* \"#utility.yul\":4786:4790   */\n  dup1\n    /* \"#utility.yul\":4776:4784   */\n  dup7\n    /* \"#utility.yul\":4772:4791   */\n  and\n    /* \"#utility.yul\":4765:4770   */\n  dup5\n    /* \"#utility.yul\":4762:4792   */\n  or\n    /* \"#utility.yul\":4752:4792   */\n  swap3\n  pop\n    /* \"#utility.yul\":4481:4798   */\n  pop\n  pop\n    /* \"#utility.yul\":4405:4798   */\n  swap4\n  swap3\n  pop\n  pop\n  pop\n  jump\t// out\n    /* \"#utility.yul\":4804:4881   */\ntag_32:\n    /* \"#utility.yul\":4841:4848   */\n  0x00\n    /* \"#utility.yul\":4870:4875   */\n  dup2\n    /* \"#utility.yul\":4859:4875   */\n  swap1\n  pop\n    /* \"#utility.yul\":4804:4881   */\n  swap2\n  swap1\n  pop\n  jump\t// out\n    /* \"#utility.yul\":4887:4947   */\ntag_33:\n    /* \"#utility.yul\":4915:4918   */\n  0x00\n    /* \"#utility.yul\":4936:4941   */\n  dup2\n    /* \"#utility.yul\":4929:4941   */\n  swap1\n  pop\n    /* \"#utility.yul\":4887:4947   */\n  swap2\n  swap1\n  pop\n  jump\t// out\n    /* \"#utility.yul\":4953:5095   */\ntag_34:\n    /* \"#utility.yul\":5003:5012   */\n  0x00\n    /* \"#utility.yul\":5036:5089   */\n  tag_98\n    /* \"#utility.yul\":5054:5088   */\n  tag_99\n    /* \"#utility.yul\":5063:5087   */\n  tag_100\n    /* \"#utility.yul\":5081:5086   */\n  dup5\n    /* \"#utility.yul\":5063:5087   */\n  tag_32\n  jump\t// in\ntag_100:\n    /* \"#utility.yul\":5054:5088   */\n  tag_33\n  jump\t// in\ntag_99:\n    /* \"#utility.yul\":5036:5089   */\n  tag_32\n  jump\t// in\ntag_98:\n    /* \"#utility.yul\":5023:5089   */\n  swap1\n  pop\n    /* \"#utility.yul\":4953:5095   */\n  swap2\n  swap1\n  pop\n  jump\t// out\n    /* \"#utility.yul\":5101:5176   */\ntag_35:\n    /* \"#utility.yul\":5144:5147   */\n  0x00\n    /* \"#utility.yul\":5165:5170   */\n  dup2\n    /* \"#utility.yul\":5158:5170   */\n  swap1\n  pop\n    /* \"#utility.yul\":5101:5176   */\n  swap2\n  swap1\n  pop\n  jump\t// out\n    /* \"#utility.yul\":5182:5451   */\ntag_36:\n    /* \"#utility.yul\":5292:5331   */\n  tag_103\n    /* \"#utility.yul\":5323:5330   */\n  dup4\n    /* \"#utility.yul\":5292:5331   */\n  tag_34\n  jump\t// in\ntag_103:\n    /* \"#utility.yul\":5353:5444   */\n  tag_104\n    /* \"#utility.yul\":5402:5443   */\n  tag_105\n    /* \"#utility.yul\":5426:5442   */\n  dup3\n    /* \"#utility.yul\":5402:5443   */\n  tag_35\n  jump\t// in\ntag_105:\n    /* \"#utility.yul\":5394:5400   */\n  dup5\n    /* \"#utility.yul\":5387:5391   */\n  dup5\n    /* \"#utility.yul\":5381:5392   */\n  sload\n    /* \"#utility.yul\":5353:5444   */\n  tag_31\n  jump\t// in\ntag_104:\n    /* \"#utility.yul\":5347:5351   */\n  dup3\n    /* \"#utility.yul\":5340:5445   */\n  sstore\n    /* \"#utility.yul\":5258:5451   */\n  pop\n    /* \"#utility.yul\":5182:5451   */\n  pop\n  pop\n  pop\n  jump\t// out\n    /* \"#utility.yul\":5457:5530   */\ntag_37:\n    /* \"#utility.yul\":5502:5505   */\n  0x00\n    /* \"#utility.yul\":5523:5524   */\n  0x00\n    /* \"#utility.yul\":5516:5524   */\n  swap1\n  pop\n    /* \"#utility.yul\":5457:5530   */\n  swap1\n  jump\t// out\n    /* \"#utility.yul\":5536:5725   */\ntag_38:\n    /* \"#utility.yul\":5613:5645   */\n  tag_108\n  tag_37\n  jump\t// in\ntag_108:\n    /* \"#utility.yul\":5654:5719   */\n  tag_109\n    /* \"#utility.yul\":5712:5718   */\n  dup2\n    /* \"#utility.yul\":5704:5710   */\n  dup5\n    /* \"#utility.yul\":5698:5702   */\n  dup5\n    /* \"#utility.yul\":5654:5719   */\n  tag_36\n  jump\t// in\ntag_109:\n    /* \"#utility.yul\":5589:5725   */\n  pop\n    /* \"#utility.yul\":5536:5725   */\n  pop\n  pop\n  jump\t// out\n    /* \"#utility.yul\":5731:5917   */\ntag_39:\n    /* \"#utility.yul\":5791:5911   */\ntag_111:\n    /* \"#utility.yul\":5808:5811   */\n  dup2\n    /* \"#utility.yul\":5801:5806   */\n  dup2\n    /* \"#utility.yul\":5798:5812   */\n  lt\n    /* \"#utility.yul\":5791:5911   */\n  iszero\n  tag_113\n  jumpi\n    /* \"#utility.yul\":5862:5901   */\n  tag_114\n    /* \"#utility.yul\":5899:5900   */\n  0x00\n    /* \"#utility.yul\":5892:5897   */\n  dup3\n    /* \"#utility.yul\":5862:5901   */\n  tag_38\n  jump\t// in\ntag_114:\n    /* \"#utility.yul\":5835:5836   */\n  0x01\n    /* \"#utility.yul\":5828:5833   */\n  dup2\n    /* \"#utility.yul\":5824:5837   */\n  add\n    /* \"#utility.yul\":5815:5837   */\n  swap1\n  pop\n    /* \"#utility.yul\":5791:5911   */\n  jump(tag_111)\ntag_113:\n    /* \"#utility.yul\":5731:5917   */\n  pop\n  pop\n  jump\t// out\n    /* \"#utility.yul\":5923:6466   */\ntag_40:\n    /* \"#utility.yul\":6024:6026   */\n  0x1f\n    /* \"#utility.yul\":6019:6022   */\n  dup3\n    /* \"#utility.yul\":6016:6027   */\n  gt\n    /* \"#utility.yul\":6013:6459   */\n  iszero\n  tag_116\n  jumpi\n    /* \"#utility.yul\":6058:6096   */\n  tag_117\n    /* \"#utility.yul\":6090:6095   */\n  dup2\n    /* \"#utility.yul\":6058:6096   */\n  tag_28\n  jump\t// in\ntag_117:\n    /* \"#utility.yul\":6142:6171   */\n  tag_118\n    /* \"#utility.yul\":6160:6170   */\n  dup5\n    /* \"#utility.yul\":6142:6171   */\n  tag_29\n  jump\t// in\ntag_118:\n    /* \"#utility.yul\":6132:6140   */\n  dup2\n    /* \"#utility.yul\":6128:6172   */\n  add\n    /* \"#utility.yul\":6325:6327   */\n  0x20\n    /* \"#utility.yul\":6313:6323   */\n  dup6\n    /* \"#utility.yul\":6310:6328   */\n  lt\n    /* \"#utility.yul\":6307:6356   */\n  iszero\n  tag_119\n  jumpi\n    /* \"#utility.yul\":6346:6354   */\n  dup2\n    /* \"#utility.yul\":6331:6354   */\n  swap1\n  pop\n    /* \"#utility.yul\":6307:6356   */\ntag_119:\n    /* \"#utility.yul\":6369:6449   */\n  tag_120\n    /* \"#utility.yul\":6425:6447   */\n  tag_121\n    /* \"#utility.yul\":6443:6446   */\n  dup6\n    /* \"#utility.yul\":6425:6447   */\n  tag_29\n  jump\t// in\ntag_121:\n    /* \"#utility.yul\":6415:6423   */\n  dup4\n    /* \"#utility.yul\":6411:6448   */\n  add\n    /* \"#utility.yul\":6398:6409   */\n  dup3\n    /* \"#utility.yul\":6369:6449   */\n  tag_39\n  jump\t// in\ntag_120:\n    /* \"#utility.yul\":6028:6459   */\n  pop\n  pop\n    /* \"#utility.yul\":6013:6459   */\ntag_116:\n    /* \"#utility.yul\":5923:6466   */\n  pop\n  pop\n  pop\n  jump\t// out\n    /* \"#utility.yul\":6472:6589   */\ntag_41:\n    /* \"#utility.yul\":6526:6534   */\n  0x00\n    /* \"#utility.yul\":6576:6581   */\n  dup3\n    /* \"#utility.yul\":6570:6574   */\n  dup3\n    /* \"#utility.yul\":6566:6582   */\n  shr\n    /* \"#utility.yul\":6545:6582   */\n  swap1\n  pop\n    /* \"#utility.yul\":6472:6589   */\n  swap3\n  swap2\n  pop\n  pop\n  jump\t// out\n    /* \"#utility.yul\":6595:6764   */\ntag_42:\n    /* \"#utility.yul\":6639:6645   */\n  0x00\n    /* \"#utility.yul\":6672:6723   */\n  tag_124\n    /* \"#utility.yul\":6720:6721   */\n  0x00\n    /* \"#utility.yul\":6716:6722   */\n  not\n    /* \"#utility.yul\":6708:6713   */\n  dup5\n    /* \"#utility.yul\":6705:6706   */\n  0x08\n    /* \"#utility.yul\":6701:6714   */\n  mul\n    /* \"#utility.yul\":6672:6723   */\n  tag_41\n  jump\t// in\ntag_124:\n    /* \"#utility.yul\":6668:6724   */\n  not\n    /* \"#utility.yul\":6753:6757   */\n  dup1\n    /* \"#utility.yul\":6747:6751   */\n  dup4\n    /* \"#utility.yul\":6743:6758   */\n  and\n    /* \"#utility.yul\":6733:6758   */\n  swap2\n  pop\n    /* \"#utility.yul\":6646:6764   */\n  pop\n    /* \"#utility.yul\":6595:6764   */\n  swap3\n  swap2\n  pop\n  pop\n  jump\t// out\n    /* \"#utility.yul\":6769:7064   */\ntag_43:\n    /* \"#utility.yul\":6845:6849   */\n  0x00\n    /* \"#utility.yul\":6991:7020   */\n  tag_126\n    /* \"#utility.yul\":7016:7019   */\n  dup4\n    /* \"#utility.yul\":7010:7014   */\n  dup4\n    /* \"#utility.yul\":6991:7020   */\n  tag_42\n  jump\t// in\ntag_126:\n    /* \"#utility.yul\":6983:7020   */\n  swap2\n  pop\n    /* \"#utility.yul\":7053:7056   */\n  dup3\n    /* \"#utility.yul\":7050:7051   */\n  0x02\n    /* \"#utility.yul\":7046:7057   */\n  mul\n    /* \"#utility.yul\":7040:7044   */\n  dup3\n    /* \"#utility.yul\":7037:7058   */\n  or\n    /* \"#utility.yul\":7029:7058   */\n  swap1\n  pop\n    /* \"#utility.yul\":6769:7064   */\n  swap3\n  swap2\n  pop\n  pop\n  jump\t// out\n    /* \"#utility.yul\":7069:8464   */\ntag_8:\n    /* \"#utility.yul\":7186:7223   */\n  tag_128\n    /* \"#utility.yul\":7219:7222   */\n  dup3\n    /* \"#utility.yul\":7186:7223   */\n  tag_25\n  jump\t// in\ntag_128:\n    /* \"#utility.yul\":7288:7306   */\n  0xffffffffffffffff\n    /* \"#utility.yul\":7280:7286   */\n  dup2\n    /* \"#utility.yul\":7277:7307   */\n  gt\n    /* \"#utility.yul\":7274:7330   */\n  iszero\n  tag_129\n  jumpi\n    /* \"#utility.yul\":7310:7328   */\n  tag_130\n  tag_18\n  jump\t// in\ntag_130:\n    /* \"#utility.yul\":7274:7330   */\ntag_129:\n    /* \"#utility.yul\":7354:7392   */\n  tag_131\n    /* \"#utility.yul\":7386:7390   */\n  dup3\n    /* \"#utility.yul\":7380:7391   */\n  sload\n    /* \"#utility.yul\":7354:7392   */\n  tag_27\n  jump\t// in\ntag_131:\n    /* \"#utility.yul\":7439:7506   */\n  tag_132\n    /* \"#utility.yul\":7499:7505   */\n  dup3\n    /* \"#utility.yul\":7491:7497   */\n  dup3\n    /* \"#utility.yul\":7485:7489   */\n  dup6\n    /* \"#utility.yul\":7439:7506   */\n  tag_40\n  jump\t// in\ntag_132:\n    /* \"#utility.yul\":7533:7534   */\n  0x00\n    /* \"#utility.yul\":7557:7561   */\n  0x20\n    /* \"#utility.yul\":7544:7561   */\n  swap1\n  pop\n    /* \"#utility.yul\":7589:7591   */\n  0x1f\n    /* \"#utility.yul\":7581:7587   */\n  dup4\n    /* \"#utility.yul\":7578:7592   */\n  gt\n    /* \"#utility.yul\":7606:7607   */\n  0x01\n    /* \"#utility.yul\":7601:8219   */\n  dup2\n  eq\n  tag_134\n  jumpi\n    /* \"#utility.yul\":8263:8264   */\n  0x00\n    /* \"#utility.yul\":8280:8286   */\n  dup5\n    /* \"#utility.yul\":8277:8354   */\n  iszero\n  tag_135\n  jumpi\n    /* \"#utility.yul\":8329:8338   */\n  dup3\n    /* \"#utility.yul\":8324:8327   */\n  dup8\n    /* \"#utility.yul\":8320:8339   */\n  add\n    /* \"#utility.yul\":8314:8340   */\n  mload\n    /* \"#utility.yul\":8305:8340   */\n  swap1\n  pop\n    /* \"#utility.yul\":8277:8354   */\ntag_135:\n    /* \"#utility.yul\":8380:8447   */\n  tag_136\n    /* \"#utility.yul\":8440:8446   */\n  dup6\n    /* \"#utility.yul\":8433:8438   */\n  dup3\n    /* \"#utility.yul\":8380:8447   */\n  tag_43\n  jump\t// in\ntag_136:\n    /* \"#utility.yul\":8374:8378   */\n  dup7\n    /* \"#utility.yul\":8367:8448   */\n  sstore\n    /* \"#utility.yul\":8236:8458   */\n  pop\n    /* \"#utility.yul\":7571:8458   */\n  jump(tag_133)\n    /* \"#utility.yul\":7601:8219   */\ntag_134:\n    /* \"#utility.yul\":7653:7657   */\n  0x1f\n    /* \"#utility.yul\":7649:7658   */\n  not\n    /* \"#utility.yul\":7641:7647   */\n  dup5\n    /* \"#utility.yul\":7637:7659   */\n  and\n    /* \"#utility.yul\":7687:7724   */\n  tag_137\n    /* \"#utility.yul\":7719:7723   */\n  dup7\n    /* \"#utility.yul\":7687:7724   */\n  tag_28\n  jump\t// in\ntag_137:\n    /* \"#utility.yul\":7746:7747   */\n  0x00\n    /* \"#utility.yul\":7760:7968   */\ntag_138:\n    /* \"#utility.yul\":7774:7781   */\n  dup3\n    /* \"#utility.yul\":7771:7772   */\n  dup2\n    /* \"#utility.yul\":7768:7782   */\n  lt\n    /* \"#utility.yul\":7760:7968   */\n  iszero\n  tag_140\n  jumpi\n    /* \"#utility.yul\":7853:7862   */\n  dup5\n    /* \"#utility.yul\":7848:7851   */\n  dup10\n    /* \"#utility.yul\":7844:7863   */\n  add\n    /* \"#utility.yul\":7838:7864   */\n  mload\n    /* \"#utility.yul\":7830:7836   */\n  dup3\n    /* \"#utility.yul\":7823:7865   */\n  sstore\n    /* \"#utility.yul\":7904:7905   */\n  0x01\n    /* \"#utility.yul\":7896:7902   */\n  dup3\n    /* \"#utility.yul\":7892:7906   */\n  add\n    /* \"#utility.yul\":7882:7906   */\n  swap2\n  pop\n    /* \"#utility.yul\":7951:7953   */\n  0x20\n    /* \"#utility.yul\":7940:7949   */\n  dup6\n    /* \"#utility.yul\":7936:7954   */\n  add\n    /* \"#utility.yul\":7923:7954   */\n  swap5\n  pop\n    /* \"#utility.yul\":7797:7801   */\n  0x20\n    /* \"#utility.yul\":7794:7795   */\n  dup2\n    /* \"#utility.yul\":7790:7802   */\n  add\n    /* \"#utility.yul\":7785:7802   */\n  swap1\n  pop\n    /* \"#utility.yul\":7760:7968   */\n  jump(tag_138)\ntag_140:\n    /* \"#utility.yul\":7996:8002   */\n  dup7\n    /* \"#utility.yul\":7987:7994   */\n  dup4\n    /* \"#utility.yul\":7984:8003   */\n  lt\n    /* \"#utility.yul\":7981:8160   */\n  iszero\n  tag_141\n  jumpi\n    /* \"#utility.yul\":8054:8063   */\n  dup5\n    /* \"#utility.yul\":8049:8052   */\n  dup10\n    /* \"#utility.yul\":8045:8064   */\n  add\n    /* \"#utility.yul\":8039:8065   */\n  mload\n    /* \"#utility.yul\":8097:8145   */\n  tag_142\n    /* \"#utility.yul\":8139:8143   */\n  0x1f\n    /* \"#utility.yul\":8131:8137   */\n  dup10\n    /* \"#utility.yul\":8127:8144   */\n  and\n    /* \"#utility.yul\":8116:8125   */\n  dup3\n    /* \"#utility.yul\":8097:8145   */\n  tag_42\n  jump\t// in\ntag_142:\n    /* \"#utility.yul\":8089:8095   */\n  dup4\n    /* \"#utility.yul\":8082:8146   */\n  sstore\n    /* \"#utility.yul\":8004:8160   */\n  pop\n    /* \"#utility.yul\":7981:8160   */\ntag_141:\n    /* \"#utility.yul\":8206:8207   */\n  0x01\n    /* \"#utility.yul\":8202:8203   */\n  0x02\n    /* \"#utility.yul\":8194:8200   */\n  dup9\n    /* \"#utility.yul\":8190:8204   */\n  mul\n    /* \"#utility.yul\":8186:8208   */\n  add\n    /* \"#utility.yul\":8180:8184   */\n  dup9\n    /* \"#utility.yul\":8173:8209   */\n  sstore\n    /* \"#utility.yul\":7608:8219   */\n  pop\n  pop\n  pop\n    /* \"#utility.yul\":7571:8458   */\ntag_133:\n  pop\n    /* \"#utility.yul\":7161:8464   */\n  pop\n  pop\n  pop\n    /* \"#utility.yul\":7069:8464   */\n  pop\n  pop\n  jump\t// out\n    /* \"Task2/work2/LXApe.sol\":101:667  contract LXApe is ERC721 {... */\ntag_11:\n  dataSize(sub_0)\n  dup1\n  dataOffset(sub_0)\n  0x00\n  codecopy\n  0x00\n  return\nstop\n\nsub_0: assembly {\n        /* \"Task2/work2/LXApe.sol\":101:667  contract LXApe is ERC721 {... */\n      mstore(0x40, 0x80)\n      callvalue\n      dup1\n      iszero\n      tag_1\n      jumpi\n      revert(0x00, 0x00)\n    tag_1:\n      pop\n      jumpi(tag_2, lt(calldatasize, 0x04))\n      shr(0xe0, calldataload(0x00))\n      dup1\n      0x6352211e\n      gt\n      tag_18\n      jumpi\n      dup1\n      0xb88d4fde\n      gt\n      tag_19\n      jumpi\n      dup1\n      0xb88d4fde\n      eq\n      tag_14\n      jumpi\n      dup1\n      0xbb8a16bd\n      eq\n      tag_15\n      jumpi\n      dup1\n      0xc87b56dd\n      eq\n      tag_16\n      jumpi\n      dup1\n      0xe985e9c5\n      eq\n      tag_17\n      jumpi\n      jump(tag_2)\n    tag_19:\n      dup1\n      0x6352211e\n      eq\n      tag_10\n      jumpi\n      dup1\n      0x70a08231\n      eq\n      tag_11\n      jumpi\n      dup1\n      0x95d89b41\n      eq\n      tag_12\n      jumpi\n      dup1\n      0xa22cb465\n      eq\n      tag_13\n      jumpi\n      jump(tag_2)\n    tag_18:\n      dup1\n      0x095ea7b3\n      gt\n      tag_20\n      jumpi\n      dup1\n      0x095ea7b3\n      eq\n      tag_6\n      jumpi\n      dup1\n      0x23b872dd\n      eq\n      tag_7\n      jumpi\n      dup1\n      0x3c168eab\n      eq\n      tag_8\n      jumpi\n      dup1\n      0x42842e0e\n      eq\n      tag_9\n      jumpi\n      jump(tag_2)\n    tag_20:\n      dup1\n      0x01ffc9a7\n      eq\n      tag_3\n      jumpi\n      dup1\n      0x06fdde03\n      eq\n      tag_4\n      jumpi\n      dup1\n      0x081812fc\n      eq\n      tag_5\n      jumpi\n    tag_2:\n      revert(0x00, 0x00)\n        /* \"Task2/work2/ERC721.sol\":1720:1992  function supportsInterface(bytes4 interfaceId) external pure returns (bool) {... */\n    tag_3:\n      tag_21\n      0x04\n      dup1\n      calldatasize\n      sub\n      dup2\n      add\n      swap1\n      tag_22\n      swap2\n      swap1\n      tag_23\n      jump\t// in\n    tag_22:\n      tag_24\n      jump\t// in\n    tag_21:\n      mload(0x40)\n      tag_25\n      swap2\n      swap1\n      tag_26\n      jump\t// in\n    tag_25:\n      mload(0x40)\n      dup1\n      swap2\n      sub\n      swap1\n      return\n        /* \"Task2/work2/ERC721.sol\":382:400  string public name */\n    tag_4:\n      tag_27\n      tag_28\n      jump\t// in\n    tag_27:\n      mload(0x40)\n      tag_29\n      swap2\n      swap1\n      tag_30\n      jump\t// in\n    tag_29:\n      mload(0x40)\n      dup1\n      swap2\n      sub\n      swap1\n      return\n        /* \"Task2/work2/ERC721.sol\":8907:9115  function getApproved(uint256 tokenId) external view override  returns (address operator) {... */\n    tag_5:\n      tag_31\n      0x04\n      dup1\n      calldatasize\n      sub\n      dup2\n      add\n      swap1\n      tag_32\n      swap2\n      swap1\n      tag_33\n      jump\t// in\n    tag_32:\n      tag_34\n      jump\t// in\n    tag_31:\n      mload(0x40)\n      tag_35\n      swap2\n      swap1\n      tag_36\n      jump\t// in\n    tag_35:\n      mload(0x40)\n      dup1\n      swap2\n      sub\n      swap1\n      return\n        /* \"Task2/work2/ERC721.sol\":7739:8111  function approve(address to, uint256 tokenId) external override {... */\n    tag_6:\n      tag_37\n      0x04\n      dup1\n      calldatasize\n      sub\n      dup2\n      add\n      swap1\n      tag_38\n      swap2\n      swap1\n      tag_39\n      jump\t// in\n    tag_38:\n      tag_40\n      jump\t// in\n    tag_37:\n      stop\n        /* \"Task2/work2/ERC721.sol\":7070:7261  function transferFrom(address from, address to, uint256 tokenId) external override {... */\n    tag_7:\n      tag_41\n      0x04\n      dup1\n      calldatasize\n      sub\n      dup2\n      add\n      swap1\n      tag_42\n      swap2\n      swap1\n      tag_43\n      jump\t// in\n    tag_42:\n      tag_44\n      jump\t// in\n    tag_41:\n      stop\n        /* \"Task2/work2/LXApe.sol\":510:664  function mintNFT(address to, uint256 tokenId) external {... */\n    tag_8:\n      tag_45\n      0x04\n      dup1\n      calldatasize\n      sub\n      dup2\n      add\n      swap1\n      tag_46\n      swap2\n      swap1\n      tag_39\n      jump\t// in\n    tag_46:\n      tag_47\n      jump\t// in\n    tag_45:\n      stop\n        /* \"Task2/work2/ERC721.sol\":5915:6308  function safeTransferFrom(address from, address to, uint256 tokenId) external override {... */\n    tag_9:\n      tag_48\n      0x04\n      dup1\n      calldatasize\n      sub\n      dup2\n      add\n      swap1\n      tag_49\n      swap2\n      swap1\n      tag_43\n      jump\t// in\n    tag_49:\n      tag_50\n      jump\t// in\n    tag_48:\n      stop\n        /* \"Task2/work2/ERC721.sol\":2359:2541  function ownerOf(uint256 tokenId) external view override returns (address owner) {... */\n    tag_10:\n      tag_51\n      0x04\n      dup1\n      calldatasize\n      sub\n      dup2\n      add\n      swap1\n      tag_52\n      swap2\n      swap1\n      tag_33\n      jump\t// in\n    tag_52:\n      tag_53\n      jump\t// in\n    tag_51:\n      mload(0x40)\n      tag_54\n      swap2\n      swap1\n      tag_36\n      jump\t// in\n    tag_54:\n      mload(0x40)\n      dup1\n      swap2\n      sub\n      swap1\n      return\n        /* \"Task2/work2/ERC721.sol\":2084:2208  function balanceOf(address owner) public view override returns (uint256 balance) {... */\n    tag_11:\n      tag_55\n      0x04\n      dup1\n      calldatasize\n      sub\n      dup2\n      add\n      swap1\n      tag_56\n      swap2\n      swap1\n      tag_57\n      jump\t// in\n    tag_56:\n      tag_58\n      jump\t// in\n    tag_55:\n      mload(0x40)\n      tag_59\n      swap2\n      swap1\n      tag_60\n      jump\t// in\n    tag_59:\n      mload(0x40)\n      dup1\n      swap2\n      sub\n      swap1\n      return\n        /* \"Task2/work2/ERC721.sol\":407:427  string public symbol */\n    tag_12:\n      tag_61\n      tag_62\n      jump\t// in\n    tag_61:\n      mload(0x40)\n      tag_63\n      swap2\n      swap1\n      tag_30\n      jump\t// in\n    tag_63:\n      mload(0x40)\n      dup1\n      swap2\n      sub\n      swap1\n      return\n        /* \"Task2/work2/ERC721.sol\":8449:8748  function setApprovalForAll(address operator, bool approved) external override {... */\n    tag_13:\n      tag_64\n      0x04\n      dup1\n      calldatasize\n      sub\n      dup2\n      add\n      swap1\n      tag_65\n      swap2\n      swap1\n      tag_66\n      jump\t// in\n    tag_65:\n      tag_67\n      jump\t// in\n    tag_64:\n      stop\n        /* \"Task2/work2/ERC721.sol\":3133:3543  function safeTransferFrom(address from, address to, uint256 tokenId, bytes calldata data) external override  {... */\n    tag_14:\n      tag_68\n      0x04\n      dup1\n      calldatasize\n      sub\n      dup2\n      add\n      swap1\n      tag_69\n      swap2\n      swap1\n      tag_70\n      jump\t// in\n    tag_69:\n      tag_71\n      jump\t// in\n    tag_68:\n      stop\n        /* \"Task2/work2/LXApe.sol\":135:166  uint256 public MAX_APES = 10000 */\n    tag_15:\n      tag_72\n      tag_73\n      jump\t// in\n    tag_72:\n      mload(0x40)\n      tag_74\n      swap2\n      swap1\n      tag_60\n      jump\t// in\n    tag_74:\n      mload(0x40)\n      dup1\n      swap2\n      sub\n      swap1\n      return\n        /* \"Task2/work2/ERC721.sol\":960:1257  function tokenURI(uint256 tokenId) external view returns (string memory) {... */\n    tag_16:\n      tag_75\n      0x04\n      dup1\n      calldatasize\n      sub\n      dup2\n      add\n      swap1\n      tag_76\n      swap2\n      swap1\n      tag_33\n      jump\t// in\n    tag_76:\n      tag_77\n      jump\t// in\n    tag_75:\n      mload(0x40)\n      tag_78\n      swap2\n      swap1\n      tag_30\n      jump\t// in\n    tag_78:\n      mload(0x40)\n      dup1\n      swap2\n      sub\n      swap1\n      return\n        /* \"Task2/work2/ERC721.sol\":9271:9420  function isApprovedForAll(address owner, address operator) external view returns (bool) {... */\n    tag_17:\n      tag_79\n      0x04\n      dup1\n      calldatasize\n      sub\n      dup2\n      add\n      swap1\n      tag_80\n      swap2\n      swap1\n      tag_81\n      jump\t// in\n    tag_80:\n      tag_82\n      jump\t// in\n    tag_79:\n      mload(0x40)\n      tag_83\n      swap2\n      swap1\n      tag_26\n      jump\t// in\n    tag_83:\n      mload(0x40)\n      dup1\n      swap2\n      sub\n      swap1\n      return\n        /* \"Task2/work2/ERC721.sol\":1720:1992  function supportsInterface(bytes4 interfaceId) external pure returns (bool) {... */\n    tag_24:\n        /* \"Task2/work2/ERC721.sol\":1790:1794  bool */\n      0x00\n        /* \"Task2/work2/ERC721.sol\":1829:1854  type(IERC721).interfaceId */\n      0x80ac58cd00000000000000000000000000000000000000000000000000000000\n        /* \"Task2/work2/ERC721.sol\":1814:1854  interfaceId == type(IERC721).interfaceId */\n      not(0xffffffffffffffffffffffffffffffffffffffffffffffffffffffff)\n      and\n        /* \"Task2/work2/ERC721.sol\":1814:1825  interfaceId */\n      dup3\n        /* \"Task2/work2/ERC721.sol\":1814:1854  interfaceId == type(IERC721).interfaceId */\n      not(0xffffffffffffffffffffffffffffffffffffffffffffffffffffffff)\n      and\n      eq\n        /* \"Task2/work2/ERC721.sol\":1814:1915  interfaceId == type(IERC721).interfaceId ||... */\n      dup1\n      tag_85\n      jumpi\n      pop\n        /* \"Task2/work2/ERC721.sol\":1890:1915  type(IERC165).interfaceId */\n      0x01ffc9a700000000000000000000000000000000000000000000000000000000\n        /* \"Task2/work2/ERC721.sol\":1875:1915  interfaceId == type(IERC165).interfaceId */\n      not(0xffffffffffffffffffffffffffffffffffffffffffffffffffffffff)\n      and\n        /* \"Task2/work2/ERC721.sol\":1875:1886  interfaceId */\n      dup3\n        /* \"Task2/work2/ERC721.sol\":1875:1915  interfaceId == type(IERC165).interfaceId */\n      not(0xffffffffffffffffffffffffffffffffffffffffffffffffffffffff)\n      and\n      eq\n        /* \"Task2/work2/ERC721.sol\":1814:1915  interfaceId == type(IERC721).interfaceId ||... */\n    tag_85:\n        /* \"Task2/work2/ERC721.sol\":1814:1984  interfaceId == type(IERC721).interfaceId ||... */\n      dup1\n      tag_86\n      jumpi\n      pop\n        /* \"Task2/work2/ERC721.sol\":1951:1984  type(IERC721Metadata).interfaceId */\n      0x5b5e139f00000000000000000000000000000000000000000000000000000000\n        /* \"Task2/work2/ERC721.sol\":1936:1984  interfaceId == type(IERC721Metadata).interfaceId */\n      not(0xffffffffffffffffffffffffffffffffffffffffffffffffffffffff)\n      and\n        /* \"Task2/work2/ERC721.sol\":1936:1947  interfaceId */\n      dup3\n        /* \"Task2/work2/ERC721.sol\":1936:1984  interfaceId == type(IERC721Metadata).interfaceId */\n      not(0xffffffffffffffffffffffffffffffffffffffffffffffffffffffff)\n      and\n      eq\n        /* \"Task2/work2/ERC721.sol\":1814:1984  interfaceId == type(IERC721).interfaceId ||... */\n    tag_86:\n        /* \"Task2/work2/ERC721.sol\":1807:1984  return interfaceId == type(IERC721).interfaceId ||... */\n      swap1\n      pop\n        /* \"Task2/work2/ERC721.sol\":1720:1992  function supportsInterface(bytes4 interfaceId) external pure returns (bool) {... */\n      swap2\n      swap1\n      pop\n      jump\t// out\n        /* \"Task2/work2/ERC721.sol\":382:400  string public name */\n    tag_28:\n      0x00\n      dup1\n      sload\n      tag_87\n      swap1\n      tag_88\n      jump\t// in\n    tag_87:\n      dup1\n      0x1f\n      add\n      0x20\n      dup1\n      swap2\n      div\n      mul\n      0x20\n      add\n      mload(0x40)\n      swap1\n      dup2\n      add\n      0x40\n      mstore\n      dup1\n      swap3\n      swap2\n      swap1\n      dup2\n      dup2\n      mstore\n      0x20\n      add\n      dup3\n      dup1\n      sload\n      tag_89\n      swap1\n      tag_88\n      jump\t// in\n    tag_89:\n      dup1\n      iszero\n      tag_90\n      jumpi\n      dup1\n      0x1f\n      lt\n      tag_91\n      jumpi\n      0x0100\n      dup1\n      dup4\n      sload\n      div\n      mul\n      dup4\n      mstore\n      swap2\n      0x20\n      add\n      swap2\n      jump(tag_90)\n    tag_91:\n      dup3\n      add\n      swap2\n      swap1\n      0x00\n      mstore\n      keccak256(0x00, 0x20)\n      swap1\n    tag_92:\n      dup2\n      sload\n      dup2\n      mstore\n      swap1\n      0x01\n      add\n      swap1\n      0x20\n      add\n      dup1\n      dup4\n      gt\n      tag_92\n      jumpi\n      dup3\n      swap1\n      sub\n      0x1f\n      and\n      dup3\n      add\n      swap2\n    tag_90:\n      pop\n      pop\n      pop\n      pop\n      pop\n      dup2\n      jump\t// out\n        /* \"Task2/work2/ERC721.sol\":8907:9115  function getApproved(uint256 tokenId) external view override  returns (address operator) {... */\n    tag_34:\n        /* \"Task2/work2/ERC721.sol\":8978:8994  address operator */\n      0x00\n        /* \"Task2/work2/ERC721.sol\":9043:9044  0 */\n      0x00\n        /* \"Task2/work2/ERC721.sol\":9015:9045  _owners[tokenId] != address(0) */\n      0xffffffffffffffffffffffffffffffffffffffff\n      and\n        /* \"Task2/work2/ERC721.sol\":9015:9022  _owners */\n      0x02\n        /* \"Task2/work2/ERC721.sol\":9015:9031  _owners[tokenId] */\n      0x00\n        /* \"Task2/work2/ERC721.sol\":9023:9030  tokenId */\n      dup5\n        /* \"Task2/work2/ERC721.sol\":9015:9031  _owners[tokenId] */\n      dup2\n      mstore\n      0x20\n      add\n      swap1\n      dup2\n      mstore\n      0x20\n      add\n      0x00\n      keccak256\n      0x00\n      swap1\n      sload\n      swap1\n      0x0100\n      exp\n      swap1\n      div\n      0xffffffffffffffffffffffffffffffffffffffff\n      and\n        /* \"Task2/work2/ERC721.sol\":9015:9045  _owners[tokenId] != address(0) */\n      0xffffffffffffffffffffffffffffffffffffffff\n      and\n      sub\n        /* \"Task2/work2/ERC721.sol\":9007:9065  require(_owners[tokenId] != address(0), \"token not exist\") */\n      tag_94\n      jumpi\n      mload(0x40)\n      0x08c379a000000000000000000000000000000000000000000000000000000000\n      dup2\n      mstore\n      0x04\n      add\n      tag_95\n      swap1\n      tag_96\n      jump\t// in\n    tag_95:\n      mload(0x40)\n      dup1\n      swap2\n      sub\n      swap1\n      revert\n    tag_94:\n        /* \"Task2/work2/ERC721.sol\":9083:9098  _tokenApprovals */\n      0x04\n        /* \"Task2/work2/ERC721.sol\":9083:9107  _tokenApprovals[tokenId] */\n      0x00\n        /* \"Task2/work2/ERC721.sol\":9099:9106  tokenId */\n      dup4\n        /* \"Task2/work2/ERC721.sol\":9083:9107  _tokenApprovals[tokenId] */\n      dup2\n      mstore\n      0x20\n      add\n      swap1\n      dup2\n      mstore\n      0x20\n      add\n      0x00\n      keccak256\n      0x00\n      swap1\n      sload\n      swap1\n      0x0100\n      exp\n      swap1\n      div\n      0xffffffffffffffffffffffffffffffffffffffff\n      and\n        /* \"Task2/work2/ERC721.sol\":9076:9107  return _tokenApprovals[tokenId] */\n      swap1\n      pop\n        /* \"Task2/work2/ERC721.sol\":8907:9115  function getApproved(uint256 tokenId) external view override  returns (address operator) {... */\n      swap2\n      swap1\n      pop\n      jump\t// out\n        /* \"Task2/work2/ERC721.sol\":7739:8111  function approve(address to, uint256 tokenId) external override {... */\n    tag_40:\n        /* \"Task2/work2/ERC721.sol\":7814:7827  address owner */\n      0x00\n        /* \"Task2/work2/ERC721.sol\":7830:7837  _owners */\n      0x02\n        /* \"Task2/work2/ERC721.sol\":7830:7846  _owners[tokenId] */\n      0x00\n        /* \"Task2/work2/ERC721.sol\":7838:7845  tokenId */\n      dup4\n        /* \"Task2/work2/ERC721.sol\":7830:7846  _owners[tokenId] */\n      dup2\n      mstore\n      0x20\n      add\n      swap1\n      dup2\n      mstore\n      0x20\n      add\n      0x00\n      keccak256\n      0x00\n      swap1\n      sload\n      swap1\n      0x0100\n      exp\n      swap1\n      div\n      0xffffffffffffffffffffffffffffffffffffffff\n      and\n        /* \"Task2/work2/ERC721.sol\":7814:7846  address owner = _owners[tokenId] */\n      swap1\n      pop\n        /* \"Task2/work2/ERC721.sol\":7893:7894  0 */\n      0x00\n        /* \"Task2/work2/ERC721.sol\":7865:7895  _owners[tokenId] != address(0) */\n      0xffffffffffffffffffffffffffffffffffffffff\n      and\n        /* \"Task2/work2/ERC721.sol\":7865:7872  _owners */\n      0x02\n        /* \"Task2/work2/ERC721.sol\":7865:7881  _owners[tokenId] */\n      0x00\n        /* \"Task2/work2/ERC721.sol\":7873:7880  tokenId */\n      dup5\n        /* \"Task2/work2/ERC721.sol\":7865:7881  _owners[tokenId] */\n      dup2\n      mstore\n      0x20\n      add\n      swap1\n      dup2\n      mstore\n      0x20\n      add\n      0x00\n      keccak256\n      0x00\n      swap1\n      sload\n      swap1\n      0x0100\n      exp\n      swap1\n      div\n      0xffffffffffffffffffffffffffffffffffffffff\n      and\n        /* \"Task2/work2/ERC721.sol\":7865:7895  _owners[tokenId] != address(0) */\n      0xffffffffffffffffffffffffffffffffffffffff\n      and\n      sub\n        /* \"Task2/work2/ERC721.sol\":7857:7915  require(_owners[tokenId] != address(0), \"token not exist\") */\n      tag_98\n      jumpi\n      mload(0x40)\n      0x08c379a000000000000000000000000000000000000000000000000000000000\n      dup2\n      mstore\n      0x04\n      add\n      tag_99\n      swap1\n      tag_96\n      jump\t// in\n    tag_99:\n      mload(0x40)\n      dup1\n      swap2\n      sub\n      swap1\n      revert\n    tag_98:\n        /* \"Task2/work2/ERC721.sol\":7948:7953  owner */\n      dup1\n        /* \"Task2/work2/ERC721.sol\":7934:7953  msg.sender == owner */\n      0xffffffffffffffffffffffffffffffffffffffff\n      and\n        /* \"Task2/work2/ERC721.sol\":7934:7944  msg.sender */\n      caller\n        /* \"Task2/work2/ERC721.sol\":7934:7953  msg.sender == owner */\n      0xffffffffffffffffffffffffffffffffffffffff\n      and\n      eq\n        /* \"Task2/work2/ERC721.sol\":7926:8014  require(msg.sender == owner, \"The caller must own the token or be an approved operator\") */\n      tag_100\n      jumpi\n      mload(0x40)\n      0x08c379a000000000000000000000000000000000000000000000000000000000\n      dup2\n      mstore\n      0x04\n      add\n      tag_101\n      swap1\n      tag_102\n      jump\t// in\n    tag_101:\n      mload(0x40)\n      dup1\n      swap2\n      sub\n      swap1\n      revert\n    tag_100:\n        /* \"Task2/work2/ERC721.sol\":8052:8054  to */\n      dup3\n        /* \"Task2/work2/ERC721.sol\":8025:8040  _tokenApprovals */\n      0x04\n        /* \"Task2/work2/ERC721.sol\":8025:8049  _tokenApprovals[tokenId] */\n      0x00\n        /* \"Task2/work2/ERC721.sol\":8041:8048  tokenId */\n      dup5\n        /* \"Task2/work2/ERC721.sol\":8025:8049  _tokenApprovals[tokenId] */\n      dup2\n      mstore\n      0x20\n      add\n      swap1\n      dup2\n      mstore\n      0x20\n      add\n      0x00\n      keccak256\n      0x00\n        /* \"Task2/work2/ERC721.sol\":8025:8054  _tokenApprovals[tokenId] = to */\n      0x0100\n      exp\n      dup2\n      sload\n      dup2\n      0xffffffffffffffffffffffffffffffffffffffff\n      mul\n      not\n      and\n      swap1\n      dup4\n      0xffffffffffffffffffffffffffffffffffffffff\n      and\n      mul\n      or\n      swap1\n      sstore\n      pop\n        /* \"Task2/work2/ERC721.sol\":8095:8102  tokenId */\n      dup2\n        /* \"Task2/work2/ERC721.sol\":8091:8093  to */\n      dup4\n        /* \"Task2/work2/ERC721.sol\":8070:8103  Approval(msg.sender, to, tokenId) */\n      0xffffffffffffffffffffffffffffffffffffffff\n      and\n        /* \"Task2/work2/ERC721.sol\":8079:8089  msg.sender */\n      caller\n        /* \"Task2/work2/ERC721.sol\":8070:8103  Approval(msg.sender, to, tokenId) */\n      0xffffffffffffffffffffffffffffffffffffffff\n      and\n      0x8c5be1e5ebec7d5bd14f71427d1e84f3dd0314c0f7b2291e5b200ac8c7c3b925\n      mload(0x40)\n      mload(0x40)\n      dup1\n      swap2\n      sub\n      swap1\n      log4\n        /* \"Task2/work2/ERC721.sol\":7803:8111  {... */\n      pop\n        /* \"Task2/work2/ERC721.sol\":7739:8111  function approve(address to, uint256 tokenId) external override {... */\n      pop\n      pop\n      jump\t// out\n        /* \"Task2/work2/ERC721.sol\":7070:7261  function transferFrom(address from, address to, uint256 tokenId) external override {... */\n    tag_44:\n        /* \"Task2/work2/ERC721.sol\":7164:7214  _checkERC721Receiver(from, to, tokenId, bytes(\"\")) */\n      tag_104\n        /* \"Task2/work2/ERC721.sol\":7185:7189  from */\n      dup4\n        /* \"Task2/work2/ERC721.sol\":7191:7193  to */\n      dup4\n        /* \"Task2/work2/ERC721.sol\":7195:7202  tokenId */\n      dup4\n        /* \"Task2/work2/ERC721.sol\":7204:7213  bytes(\"\") */\n      mload(0x40)\n      dup1\n      0x20\n      add\n      0x40\n      mstore\n      dup1\n      0x00\n      dup2\n      mstore\n      pop\n        /* \"Task2/work2/ERC721.sol\":7164:7184  _checkERC721Receiver */\n      tag_105\n        /* \"Task2/work2/ERC721.sol\":7164:7214  _checkERC721Receiver(from, to, tokenId, bytes(\"\")) */\n      jump\t// in\n    tag_104:\n        /* \"Task2/work2/ERC721.sol\":7225:7253  _transfer(from, to, tokenId) */\n      tag_106\n        /* \"Task2/work2/ERC721.sol\":7235:7239  from */\n      dup4\n        /* \"Task2/work2/ERC721.sol\":7241:7243  to */\n      dup4\n        /* \"Task2/work2/ERC721.sol\":7245:7252  tokenId */\n      dup4\n        /* \"Task2/work2/ERC721.sol\":7225:7234  _transfer */\n      tag_107\n        /* \"Task2/work2/ERC721.sol\":7225:7253  _transfer(from, to, tokenId) */\n      jump\t// in\n    tag_106:\n        /* \"Task2/work2/ERC721.sol\":7070:7261  function transferFrom(address from, address to, uint256 tokenId) external override {... */\n      pop\n      pop\n      pop\n      jump\t// out\n        /* \"Task2/work2/LXApe.sol\":510:664  function mintNFT(address to, uint256 tokenId) external {... */\n    tag_47:\n        /* \"Task2/work2/LXApe.sol\":594:602  MAX_APES */\n      sload(0x06)\n        /* \"Task2/work2/LXApe.sol\":584:591  tokenId */\n      dup2\n        /* \"Task2/work2/LXApe.sol\":584:602  tokenId < MAX_APES */\n      lt\n        /* \"Task2/work2/LXApe.sol\":576:627  require(tokenId < MAX_APES, \"tokenId out of range\") */\n      tag_109\n      jumpi\n      mload(0x40)\n      0x08c379a000000000000000000000000000000000000000000000000000000000\n      dup2\n      mstore\n      0x04\n      add\n      tag_110\n      swap1\n      tag_111\n      jump\t// in\n    tag_110:\n      mload(0x40)\n      dup1\n      swap2\n      sub\n      swap1\n      revert\n    tag_109:\n        /* \"Task2/work2/LXApe.sol\":638:656  _mint(to, tokenId) */\n      tag_112\n        /* \"Task2/work2/LXApe.sol\":644:646  to */\n      dup3\n        /* \"Task2/work2/LXApe.sol\":648:655  tokenId */\n      dup3\n        /* \"Task2/work2/LXApe.sol\":638:643  _mint */\n      tag_113\n        /* \"Task2/work2/LXApe.sol\":638:656  _mint(to, tokenId) */\n      jump\t// in\n    tag_112:\n        /* \"Task2/work2/LXApe.sol\":510:664  function mintNFT(address to, uint256 tokenId) external {... */\n      pop\n      pop\n      jump\t// out\n        /* \"Task2/work2/ERC721.sol\":5915:6308  function safeTransferFrom(address from, address to, uint256 tokenId) external override {... */\n    tag_50:\n        /* \"Task2/work2/ERC721.sol\":6021:6061  _checkOwnedOrApproved(from, to, tokenId) */\n      tag_115\n        /* \"Task2/work2/ERC721.sol\":6043:6047  from */\n      dup4\n        /* \"Task2/work2/ERC721.sol\":6049:6051  to */\n      dup4\n        /* \"Task2/work2/ERC721.sol\":6053:6060  tokenId */\n      dup4\n        /* \"Task2/work2/ERC721.sol\":6021:6042  _checkOwnedOrApproved */\n      tag_116\n        /* \"Task2/work2/ERC721.sol\":6021:6061  _checkOwnedOrApproved(from, to, tokenId) */\n      jump\t// in\n    tag_115:\n        /* \"Task2/work2/ERC721.sol\":6013:6200  require(_checkOwnedOrApproved(from, to, tokenId), \"`tokenId` token must exist and be owned by `from` or `from` must be approved to move this token by either approve or setApprovalForAll\") */\n      tag_117\n      jumpi\n      mload(0x40)\n      0x08c379a000000000000000000000000000000000000000000000000000000000\n      dup2\n      mstore\n      0x04\n      add\n      tag_118\n      swap1\n      tag_119\n      jump\t// in\n    tag_118:\n      mload(0x40)\n      dup1\n      swap2\n      sub\n      swap1\n      revert\n    tag_117:\n        /* \"Task2/work2/ERC721.sol\":6211:6261  _checkERC721Receiver(from, to, tokenId, bytes(\"\")) */\n      tag_120\n        /* \"Task2/work2/ERC721.sol\":6232:6236  from */\n      dup4\n        /* \"Task2/work2/ERC721.sol\":6238:6240  to */\n      dup4\n        /* \"Task2/work2/ERC721.sol\":6242:6249  tokenId */\n      dup4\n        /* \"Task2/work2/ERC721.sol\":6251:6260  bytes(\"\") */\n      mload(0x40)\n      dup1\n      0x20\n      add\n      0x40\n      mstore\n      dup1\n      0x00\n      dup2\n      mstore\n      pop\n        /* \"Task2/work2/ERC721.sol\":6211:6231  _checkERC721Receiver */\n      tag_105\n        /* \"Task2/work2/ERC721.sol\":6211:6261  _checkERC721Receiver(from, to, tokenId, bytes(\"\")) */\n      jump\t// in\n    tag_120:\n        /* \"Task2/work2/ERC721.sol\":6272:6300  _transfer(from, to, tokenId) */\n      tag_121\n        /* \"Task2/work2/ERC721.sol\":6282:6286  from */\n      dup4\n        /* \"Task2/work2/ERC721.sol\":6288:6290  to */\n      dup4\n        /* \"Task2/work2/ERC721.sol\":6292:6299  tokenId */\n      dup4\n        /* \"Task2/work2/ERC721.sol\":6272:6281  _transfer */\n      tag_107\n        /* \"Task2/work2/ERC721.sol\":6272:6300  _transfer(from, to, tokenId) */\n      jump\t// in\n    tag_121:\n        /* \"Task2/work2/ERC721.sol\":5915:6308  function safeTransferFrom(address from, address to, uint256 tokenId) external override {... */\n      pop\n      pop\n      pop\n      jump\t// out\n        /* \"Task2/work2/ERC721.sol\":2359:2541  function ownerOf(uint256 tokenId) external view override returns (address owner) {... */\n    tag_53:\n        /* \"Task2/work2/ERC721.sol\":2425:2438  address owner */\n      0x00\n        /* \"Task2/work2/ERC721.sol\":2459:2466  _owners */\n      0x02\n        /* \"Task2/work2/ERC721.sol\":2459:2475  _owners[tokenId] */\n      0x00\n        /* \"Task2/work2/ERC721.sol\":2467:2474  tokenId */\n      dup4\n        /* \"Task2/work2/ERC721.sol\":2459:2475  _owners[tokenId] */\n      dup2\n      mstore\n      0x20\n      add\n      swap1\n      dup2\n      mstore\n      0x20\n      add\n      0x00\n      keccak256\n      0x00\n      swap1\n      sload\n      swap1\n      0x0100\n      exp\n      swap1\n      div\n      0xffffffffffffffffffffffffffffffffffffffff\n      and\n        /* \"Task2/work2/ERC721.sol\":2451:2475  owner = _owners[tokenId] */\n      swap1\n      pop\n        /* \"Task2/work2/ERC721.sol\":2511:2512  0 */\n      0x00\n        /* \"Task2/work2/ERC721.sol\":2494:2513  owner != address(0) */\n      0xffffffffffffffffffffffffffffffffffffffff\n      and\n        /* \"Task2/work2/ERC721.sol\":2494:2499  owner */\n      dup2\n        /* \"Task2/work2/ERC721.sol\":2494:2513  owner != address(0) */\n      0xffffffffffffffffffffffffffffffffffffffff\n      and\n      sub\n        /* \"Task2/work2/ERC721.sol\":2486:2533  require(owner != address(0), \"token not exist\") */\n      tag_123\n      jumpi\n      mload(0x40)\n      0x08c379a000000000000000000000000000000000000000000000000000000000\n      dup2\n      mstore\n      0x04\n      add\n      tag_124\n      swap1\n      tag_96\n      jump\t// in\n    tag_124:\n      mload(0x40)\n      dup1\n      swap2\n      sub\n      swap1\n      revert\n    tag_123:\n        /* \"Task2/work2/ERC721.sol\":2359:2541  function ownerOf(uint256 tokenId) external view override returns (address owner) {... */\n      swap2\n      swap1\n      pop\n      jump\t// out\n        /* \"Task2/work2/ERC721.sol\":2084:2208  function balanceOf(address owner) public view override returns (uint256 balance) {... */\n    tag_58:\n        /* \"Task2/work2/ERC721.sol\":2148:2163  uint256 balance */\n      0x00\n        /* \"Task2/work2/ERC721.sol\":2183:2193  _balanceOf */\n      0x03\n        /* \"Task2/work2/ERC721.sol\":2183:2200  _balanceOf[owner] */\n      0x00\n        /* \"Task2/work2/ERC721.sol\":2194:2199  owner */\n      dup4\n        /* \"Task2/work2/ERC721.sol\":2183:2200  _balanceOf[owner] */\n      0xffffffffffffffffffffffffffffffffffffffff\n      and\n      0xffffffffffffffffffffffffffffffffffffffff\n      and\n      dup2\n      mstore\n      0x20\n      add\n      swap1\n      dup2\n      mstore\n      0x20\n      add\n      0x00\n      keccak256\n      sload\n        /* \"Task2/work2/ERC721.sol\":2176:2200  return _balanceOf[owner] */\n      swap1\n      pop\n        /* \"Task2/work2/ERC721.sol\":2084:2208  function balanceOf(address owner) public view override returns (uint256 balance) {... */\n      swap2\n      swap1\n      pop\n      jump\t// out\n        /* \"Task2/work2/ERC721.sol\":407:427  string public symbol */\n    tag_62:\n      0x01\n      dup1\n      sload\n      tag_126\n      swap1\n      tag_88\n      jump\t// in\n    tag_126:\n      dup1\n      0x1f\n      add\n      0x20\n      dup1\n      swap2\n      div\n      mul\n      0x20\n      add\n      mload(0x40)\n      swap1\n      dup2\n      add\n      0x40\n      mstore\n      dup1\n      swap3\n      swap2\n      swap1\n      dup2\n      dup2\n      mstore\n      0x20\n      add\n      dup3\n      dup1\n      sload\n      tag_127\n      swap1\n      tag_88\n      jump\t// in\n    tag_127:\n      dup1\n      iszero\n      tag_128\n      jumpi\n      dup1\n      0x1f\n      lt\n      tag_129\n      jumpi\n      0x0100\n      dup1\n      dup4\n      sload\n      div\n      mul\n      dup4\n      mstore\n      swap2\n      0x20\n      add\n      swap2\n      jump(tag_128)\n    tag_129:\n      dup3\n      add\n      swap2\n      swap1\n      0x00\n      mstore\n      keccak256(0x00, 0x20)\n      swap1\n    tag_130:\n      dup2\n      sload\n      dup2\n      mstore\n      swap1\n      0x01\n      add\n      swap1\n      0x20\n      add\n      dup1\n      dup4\n      gt\n      tag_130\n      jumpi\n      dup3\n      swap1\n      sub\n      0x1f\n      and\n      dup3\n      add\n      swap2\n    tag_128:\n      pop\n      pop\n      pop\n      pop\n      pop\n      dup2\n      jump\t// out\n        /* \"Task2/work2/ERC721.sol\":8449:8748  function setApprovalForAll(address operator, bool approved) external override {... */\n    tag_67:\n        /* \"Task2/work2/ERC721.sol\":8566:8567  0 */\n      0x00\n        /* \"Task2/work2/ERC721.sol\":8546:8568  operator != address(0) */\n      0xffffffffffffffffffffffffffffffffffffffff\n      and\n        /* \"Task2/work2/ERC721.sol\":8546:8554  operator */\n      dup3\n        /* \"Task2/work2/ERC721.sol\":8546:8568  operator != address(0) */\n      0xffffffffffffffffffffffffffffffffffffffff\n      and\n      sub\n        /* \"Task2/work2/ERC721.sol\":8538:8616  require(operator != address(0),  \"The `operator` cannot be the address zero.\") */\n      tag_132\n      jumpi\n      mload(0x40)\n      0x08c379a000000000000000000000000000000000000000000000000000000000\n      dup2\n      mstore\n      0x04\n      add\n      tag_133\n      swap1\n      tag_134\n      jump\t// in\n    tag_133:\n      mload(0x40)\n      dup1\n      swap2\n      sub\n      swap1\n      revert\n    tag_132:\n        /* \"Task2/work2/ERC721.sol\":8670:8678  approved */\n      dup1\n        /* \"Task2/work2/ERC721.sol\":8627:8645  _operatorApprovals */\n      0x05\n        /* \"Task2/work2/ERC721.sol\":8627:8657  _operatorApprovals[msg.sender] */\n      0x00\n        /* \"Task2/work2/ERC721.sol\":8646:8656  msg.sender */\n      caller\n        /* \"Task2/work2/ERC721.sol\":8627:8657  _operatorApprovals[msg.sender] */\n      0xffffffffffffffffffffffffffffffffffffffff\n      and\n      0xffffffffffffffffffffffffffffffffffffffff\n      and\n      dup2\n      mstore\n      0x20\n      add\n      swap1\n      dup2\n      mstore\n      0x20\n      add\n      0x00\n      keccak256\n        /* \"Task2/work2/ERC721.sol\":8627:8667  _operatorApprovals[msg.sender][operator] */\n      0x00\n        /* \"Task2/work2/ERC721.sol\":8658:8666  operator */\n      dup5\n        /* \"Task2/work2/ERC721.sol\":8627:8667  _operatorApprovals[msg.sender][operator] */\n      0xffffffffffffffffffffffffffffffffffffffff\n      and\n      0xffffffffffffffffffffffffffffffffffffffff\n      and\n      dup2\n      mstore\n      0x20\n      add\n      swap1\n      dup2\n      mstore\n      0x20\n      add\n      0x00\n      keccak256\n      0x00\n        /* \"Task2/work2/ERC721.sol\":8627:8678  _operatorApprovals[msg.sender][operator] = approved */\n      0x0100\n      exp\n      dup2\n      sload\n      dup2\n      0xff\n      mul\n      not\n      and\n      swap1\n      dup4\n      iszero\n      iszero\n      mul\n      or\n      swap1\n      sstore\n      pop\n        /* \"Task2/work2/ERC721.sol\":8721:8729  operator */\n      dup2\n        /* \"Task2/work2/ERC721.sol\":8694:8740  ApprovalForAll(msg.sender, operator, approved) */\n      0xffffffffffffffffffffffffffffffffffffffff\n      and\n        /* \"Task2/work2/ERC721.sol\":8709:8719  msg.sender */\n      caller\n        /* \"Task2/work2/ERC721.sol\":8694:8740  ApprovalForAll(msg.sender, operator, approved) */\n      0xffffffffffffffffffffffffffffffffffffffff\n      and\n      0x17307eab39ab6107e8899845ad3d59bd9653f200f220920489ca2b5937696c31\n        /* \"Task2/work2/ERC721.sol\":8731:8739  approved */\n      dup4\n        /* \"Task2/work2/ERC721.sol\":8694:8740  ApprovalForAll(msg.sender, operator, approved) */\n      mload(0x40)\n      tag_135\n      swap2\n      swap1\n      tag_26\n      jump\t// in\n    tag_135:\n      mload(0x40)\n      dup1\n      swap2\n      sub\n      swap1\n      log3\n        /* \"Task2/work2/ERC721.sol\":8449:8748  function setApprovalForAll(address operator, bool approved) external override {... */\n      pop\n      pop\n      jump\t// out\n        /* \"Task2/work2/ERC721.sol\":3133:3543  function safeTransferFrom(address from, address to, uint256 tokenId, bytes calldata data) external override  {... */\n    tag_71:\n        /* \"Task2/work2/ERC721.sol\":3261:3301  _checkOwnedOrApproved(from, to, tokenId) */\n      tag_137\n        /* \"Task2/work2/ERC721.sol\":3283:3287  from */\n      dup6\n        /* \"Task2/work2/ERC721.sol\":3289:3291  to */\n      dup6\n        /* \"Task2/work2/ERC721.sol\":3293:3300  tokenId */\n      dup6\n        /* \"Task2/work2/ERC721.sol\":3261:3282  _checkOwnedOrApproved */\n      tag_116\n        /* \"Task2/work2/ERC721.sol\":3261:3301  _checkOwnedOrApproved(from, to, tokenId) */\n      jump\t// in\n    tag_137:\n        /* \"Task2/work2/ERC721.sol\":3253:3440  require(_checkOwnedOrApproved(from, to, tokenId), \"`tokenId` token must exist and be owned by `from` or `from` must be approved to move this token by either approve or setApprovalForAll\") */\n      tag_138\n      jumpi\n      mload(0x40)\n      0x08c379a000000000000000000000000000000000000000000000000000000000\n      dup2\n      mstore\n      0x04\n      add\n      tag_139\n      swap1\n      tag_119\n      jump\t// in\n    tag_139:\n      mload(0x40)\n      dup1\n      swap2\n      sub\n      swap1\n      revert\n    tag_138:\n        /* \"Task2/work2/ERC721.sol\":3451:3496  _checkERC721Receiver(from, to, tokenId, data) */\n      tag_140\n        /* \"Task2/work2/ERC721.sol\":3472:3476  from */\n      dup6\n        /* \"Task2/work2/ERC721.sol\":3478:3480  to */\n      dup6\n        /* \"Task2/work2/ERC721.sol\":3482:3489  tokenId */\n      dup6\n        /* \"Task2/work2/ERC721.sol\":3491:3495  data */\n      dup6\n      dup6\n        /* \"Task2/work2/ERC721.sol\":3451:3496  _checkERC721Receiver(from, to, tokenId, data) */\n      dup1\n      dup1\n      0x1f\n      add\n      0x20\n      dup1\n      swap2\n      div\n      mul\n      0x20\n      add\n      mload(0x40)\n      swap1\n      dup2\n      add\n      0x40\n      mstore\n      dup1\n      swap4\n      swap3\n      swap2\n      swap1\n      dup2\n      dup2\n      mstore\n      0x20\n      add\n      dup4\n      dup4\n      dup1\n      dup3\n      dup5\n      calldatacopy\n      0x00\n      dup2\n      dup5\n      add\n      mstore\n      not(0x1f)\n      0x1f\n      dup3\n      add\n      and\n      swap1\n      pop\n      dup1\n      dup4\n      add\n      swap3\n      pop\n      pop\n      pop\n      pop\n      pop\n      pop\n      pop\n        /* \"Task2/work2/ERC721.sol\":3451:3471  _checkERC721Receiver */\n      tag_105\n        /* \"Task2/work2/ERC721.sol\":3451:3496  _checkERC721Receiver(from, to, tokenId, data) */\n      jump\t// in\n    tag_140:\n        /* \"Task2/work2/ERC721.sol\":3507:3535  _transfer(from, to, tokenId) */\n      tag_141\n        /* \"Task2/work2/ERC721.sol\":3517:3521  from */\n      dup6\n        /* \"Task2/work2/ERC721.sol\":3523:3525  to */\n      dup6\n        /* \"Task2/work2/ERC721.sol\":3527:3534  tokenId */\n      dup6\n        /* \"Task2/work2/ERC721.sol\":3507:3516  _transfer */\n      tag_107\n        /* \"Task2/work2/ERC721.sol\":3507:3535  _transfer(from, to, tokenId) */\n      jump\t// in\n    tag_141:\n        /* \"Task2/work2/ERC721.sol\":3133:3543  function safeTransferFrom(address from, address to, uint256 tokenId, bytes calldata data) external override  {... */\n      pop\n      pop\n      pop\n      pop\n      pop\n      jump\t// out\n        /* \"Task2/work2/LXApe.sol\":135:166  uint256 public MAX_APES = 10000 */\n    tag_73:\n      sload(0x06)\n      dup2\n      jump\t// out\n        /* \"Task2/work2/ERC721.sol\":960:1257  function tokenURI(uint256 tokenId) external view returns (string memory) {... */\n    tag_77:\n        /* \"Task2/work2/ERC721.sol\":1018:1031  string memory */\n      0x60\n        /* \"Task2/work2/ERC721.sol\":1080:1081  0 */\n      0x00\n        /* \"Task2/work2/ERC721.sol\":1052:1082  _owners[tokenId] != address(0) */\n      0xffffffffffffffffffffffffffffffffffffffff\n      and\n        /* \"Task2/work2/ERC721.sol\":1052:1059  _owners */\n      0x02\n        /* \"Task2/work2/ERC721.sol\":1052:1068  _owners[tokenId] */\n      0x00\n        /* \"Task2/work2/ERC721.sol\":1060:1067  tokenId */\n      dup5\n        /* \"Task2/work2/ERC721.sol\":1052:1068  _owners[tokenId] */\n      dup2\n      mstore\n      0x20\n      add\n      swap1\n      dup2\n      mstore\n      0x20\n      add\n      0x00\n      keccak256\n      0x00\n      swap1\n      sload\n      swap1\n      0x0100\n      exp\n      swap1\n      div\n      0xffffffffffffffffffffffffffffffffffffffff\n      and\n        /* \"Task2/work2/ERC721.sol\":1052:1082  _owners[tokenId] != address(0) */\n      0xffffffffffffffffffffffffffffffffffffffff\n      and\n      sub\n        /* \"Task2/work2/ERC721.sol\":1044:1102  require(_owners[tokenId] != address(0), \"token not exist\") */\n      tag_143\n      jumpi\n      mload(0x40)\n      0x08c379a000000000000000000000000000000000000000000000000000000000\n      dup2\n      mstore\n      0x04\n      add\n      tag_144\n      swap1\n      tag_96\n      jump\t// in\n    tag_144:\n      mload(0x40)\n      dup1\n      swap2\n      sub\n      swap1\n      revert\n    tag_143:\n        /* \"Task2/work2/ERC721.sol\":1114:1135  string memory baseURI */\n      0x00\n        /* \"Task2/work2/ERC721.sol\":1138:1148  _baseURI() */\n      tag_145\n        /* \"Task2/work2/ERC721.sol\":1138:1146  _baseURI */\n      tag_146\n        /* \"Task2/work2/ERC721.sol\":1138:1148  _baseURI() */\n      jump\t// in\n    tag_145:\n        /* \"Task2/work2/ERC721.sol\":1114:1148  string memory baseURI = _baseURI() */\n      swap1\n      pop\n        /* \"Task2/work2/ERC721.sol\":1188:1189  0 */\n      0x00\n        /* \"Task2/work2/ERC721.sol\":1172:1179  baseURI */\n      dup2\n        /* \"Task2/work2/ERC721.sol\":1166:1187  bytes(baseURI).length */\n      mload\n        /* \"Task2/work2/ERC721.sol\":1166:1189  bytes(baseURI).length>0 */\n      gt\n        /* \"Task2/work2/ERC721.sol\":1166:1249  bytes(baseURI).length>0? string(abi.encodePacked(baseURI, tokenId.toString())) : \"\" */\n      tag_147\n      jumpi\n      mload(0x40)\n      dup1\n      0x20\n      add\n      0x40\n      mstore\n      dup1\n      0x00\n      dup2\n      mstore\n      pop\n      jump(tag_148)\n    tag_147:\n        /* \"Task2/work2/ERC721.sol\":1215:1222  baseURI */\n      dup1\n        /* \"Task2/work2/ERC721.sol\":1224:1242  tokenId.toString() */\n      tag_149\n        /* \"Task2/work2/ERC721.sol\":1224:1231  tokenId */\n      dup5\n        /* \"Task2/work2/ERC721.sol\":1224:1240  tokenId.toString */\n      tag_150\n        /* \"Task2/work2/ERC721.sol\":1224:1242  tokenId.toString() */\n      jump\t// in\n    tag_149:\n        /* \"Task2/work2/ERC721.sol\":1198:1243  abi.encodePacked(baseURI, tokenId.toString()) */\n      add(0x20, mload(0x40))\n      tag_151\n      swap3\n      swap2\n      swap1\n      tag_152\n      jump\t// in\n    tag_151:\n      mload(0x40)\n      0x20\n      dup2\n      dup4\n      sub\n      sub\n      dup2\n      mstore\n      swap1\n      0x40\n      mstore\n        /* \"Task2/work2/ERC721.sol\":1166:1249  bytes(baseURI).length>0? string(abi.encodePacked(baseURI, tokenId.toString())) : \"\" */\n    tag_148:\n        /* \"Task2/work2/ERC721.sol\":1159:1249  return bytes(baseURI).length>0? string(abi.encodePacked(baseURI, tokenId.toString())) : \"\" */\n      swap2\n      pop\n      pop\n        /* \"Task2/work2/ERC721.sol\":960:1257  function tokenURI(uint256 tokenId) external view returns (string memory) {... */\n      swap2\n      swap1\n      pop\n      jump\t// out\n        /* \"Task2/work2/ERC721.sol\":9271:9420  function isApprovedForAll(address owner, address operator) external view returns (bool) {... */\n    tag_82:\n        /* \"Task2/work2/ERC721.sol\":9353:9357  bool */\n      0x00\n        /* \"Task2/work2/ERC721.sol\":9377:9395  _operatorApprovals */\n      0x05\n        /* \"Task2/work2/ERC721.sol\":9377:9402  _operatorApprovals[owner] */\n      0x00\n        /* \"Task2/work2/ERC721.sol\":9396:9401  owner */\n      dup5\n        /* \"Task2/work2/ERC721.sol\":9377:9402  _operatorApprovals[owner] */\n      0xffffffffffffffffffffffffffffffffffffffff\n      and\n      0xffffffffffffffffffffffffffffffffffffffff\n      and\n      dup2\n      mstore\n      0x20\n      add\n      swap1\n      dup2\n      mstore\n      0x20\n      add\n      0x00\n      keccak256\n        /* \"Task2/work2/ERC721.sol\":9377:9412  _operatorApprovals[owner][operator] */\n      0x00\n        /* \"Task2/work2/ERC721.sol\":9403:9411  operator */\n      dup4\n        /* \"Task2/work2/ERC721.sol\":9377:9412  _operatorApprovals[owner][operator] */\n      0xffffffffffffffffffffffffffffffffffffffff\n      and\n      0xffffffffffffffffffffffffffffffffffffffff\n      and\n      dup2\n      mstore\n      0x20\n      add\n      swap1\n      dup2\n      mstore\n      0x20\n      add\n      0x00\n      keccak256\n      0x00\n      swap1\n      sload\n      swap1\n      0x0100\n      exp\n      swap1\n      div\n      0xff\n      and\n        /* \"Task2/work2/ERC721.sol\":9370:9412  return _operatorApprovals[owner][operator] */\n      swap1\n      pop\n        /* \"Task2/work2/ERC721.sol\":9271:9420  function isApprovedForAll(address owner, address operator) external view returns (bool) {... */\n      swap3\n      swap2\n      pop\n      pop\n      jump\t// out\n        /* \"Task2/work2/ERC721.sol\":4389:5180  function _checkERC721Receiver(address from, address to, uint256 tokenId, bytes memory data) private {... */\n    tag_105:\n        /* \"Task2/work2/ERC721.sol\":4520:4521  0 */\n      0x00\n        /* \"Task2/work2/ERC721.sol\":4503:4505  to */\n      dup4\n        /* \"Task2/work2/ERC721.sol\":4503:4517  to.code.length */\n      0xffffffffffffffffffffffffffffffffffffffff\n      and\n      extcodesize\n        /* \"Task2/work2/ERC721.sol\":4503:4521  to.code.length > 0 */\n      gt\n        /* \"Task2/work2/ERC721.sol\":4500:5173  if(to.code.length > 0){... */\n      iszero\n      tag_155\n      jumpi\n        /* \"Task2/work2/ERC721.sol\":4557:4559  to */\n      dup3\n        /* \"Task2/work2/ERC721.sol\":4541:4577  IERC721Receiver(to).onERC721Received */\n      0xffffffffffffffffffffffffffffffffffffffff\n      and\n      0x150b7a02\n        /* \"Task2/work2/ERC721.sol\":4578:4588  msg.sender */\n      caller\n        /* \"Task2/work2/ERC721.sol\":4590:4594  from */\n      dup7\n        /* \"Task2/work2/ERC721.sol\":4596:4603  tokenId */\n      dup6\n        /* \"Task2/work2/ERC721.sol\":4605:4609  data */\n      dup6\n        /* \"Task2/work2/ERC721.sol\":4541:4610  IERC721Receiver(to).onERC721Received(msg.sender, from, tokenId, data) */\n      mload(0x40)\n      dup6\n      0xffffffff\n      and\n      0xe0\n      shl\n      dup2\n      mstore\n      0x04\n      add\n      tag_156\n      swap5\n      swap4\n      swap3\n      swap2\n      swap1\n      tag_157\n      jump\t// in\n    tag_156:\n      0x20\n      mload(0x40)\n      dup1\n      dup4\n      sub\n      dup2\n      0x00\n      dup8\n      gas\n      call\n      swap3\n      pop\n      pop\n      pop\n      dup1\n      iszero\n      tag_158\n      jumpi\n      pop\n      mload(0x40)\n      returndatasize\n      not(0x1f)\n      0x1f\n      dup3\n      add\n      and\n      dup3\n      add\n      dup1\n      0x40\n      mstore\n      pop\n      dup2\n      add\n      swap1\n      tag_159\n      swap2\n      swap1\n      tag_160\n      jump\t// in\n    tag_159:\n      0x01\n    tag_158:\n        /* \"Task2/work2/ERC721.sol\":4537:5162  try IERC721Receiver(to).onERC721Received(msg.sender, from, tokenId, data) returns (bytes4 retval) {... */\n      tag_161\n      jumpi\n      returndatasize\n      dup1\n      0x00\n      dup2\n      eq\n      tag_166\n      jumpi\n      mload(0x40)\n      swap2\n      pop\n      and(add(returndatasize, 0x3f), not(0x1f))\n      dup3\n      add\n      0x40\n      mstore\n      returndatasize\n      dup3\n      mstore\n      returndatasize\n      0x00\n      0x20\n      dup5\n      add\n      returndatacopy\n      jump(tag_165)\n    tag_166:\n      0x60\n      swap2\n      pop\n    tag_165:\n      pop\n        /* \"Task2/work2/ERC721.sol\":4868:4869  0 */\n      0x00\n        /* \"Task2/work2/ERC721.sol\":4851:4857  reason */\n      dup2\n        /* \"Task2/work2/ERC721.sol\":4851:4864  reason.length */\n      mload\n        /* \"Task2/work2/ERC721.sol\":4851:4869  reason.length == 0 */\n      sub\n        /* \"Task2/work2/ERC721.sol\":4847:5147  if (reason.length == 0) {... */\n      tag_167\n      jumpi\n        /* \"Task2/work2/ERC721.sol\":4923:4925  to */\n      dup4\n        /* \"Task2/work2/ERC721.sol\":4901:4926  ERC721InvalidReceiver(to) */\n      mload(0x40)\n      0x64a0ae9200000000000000000000000000000000000000000000000000000000\n      dup2\n      mstore\n      0x04\n      add\n      tag_168\n      swap2\n      swap1\n      tag_36\n      jump\t// in\n    tag_168:\n      mload(0x40)\n      dup1\n      swap2\n      sub\n      swap1\n      revert\n        /* \"Task2/work2/ERC721.sol\":4847:5147  if (reason.length == 0) {... */\n    tag_167:\n        /* \"Task2/work2/ERC721.sol\":5097:5103  reason */\n      dup1\n        /* \"Task2/work2/ERC721.sol\":5091:5104  mload(reason) */\n      mload\n        /* \"Task2/work2/ERC721.sol\":5082:5088  reason */\n      dup2\n        /* \"Task2/work2/ERC721.sol\":5078:5080  32 */\n      0x20\n        /* \"Task2/work2/ERC721.sol\":5074:5089  add(32, reason) */\n      add\n        /* \"Task2/work2/ERC721.sol\":5067:5105  revert(add(32, reason), mload(reason)) */\n      revert\n        /* \"Task2/work2/ERC721.sol\":4537:5162  try IERC721Receiver(to).onERC721Received(msg.sender, from, tokenId, data) returns (bytes4 retval) {... */\n    tag_161:\n        /* \"Task2/work2/ERC721.sol\":4667:4708  IERC721Receiver.onERC721Received.selector */\n      shl(0xe0, 0x150b7a02)\n        /* \"Task2/work2/ERC721.sol\":4657:4708  retval != IERC721Receiver.onERC721Received.selector */\n      not(0xffffffffffffffffffffffffffffffffffffffffffffffffffffffff)\n      and\n        /* \"Task2/work2/ERC721.sol\":4657:4663  retval */\n      dup2\n        /* \"Task2/work2/ERC721.sol\":4657:4708  retval != IERC721Receiver.onERC721Received.selector */\n      not(0xffffffffffffffffffffffffffffffffffffffffffffffffffffffff)\n      and\n      eq\n        /* \"Task2/work2/ERC721.sol\":4654:4784  if(retval != IERC721Receiver.onERC721Received.selector){... */\n      tag_171\n      jumpi\n        /* \"Task2/work2/ERC721.sol\":4761:4763  to */\n      dup4\n        /* \"Task2/work2/ERC721.sol\":4739:4764  ERC721InvalidReceiver(to) */\n      mload(0x40)\n      0x64a0ae9200000000000000000000000000000000000000000000000000000000\n      dup2\n      mstore\n      0x04\n      add\n      tag_172\n      swap2\n      swap1\n      tag_36\n      jump\t// in\n    tag_172:\n      mload(0x40)\n      dup1\n      swap2\n      sub\n      swap1\n      revert\n        /* \"Task2/work2/ERC721.sol\":4654:4784  if(retval != IERC721Receiver.onERC721Received.selector){... */\n    tag_171:\n        /* \"Task2/work2/ERC721.sol\":4611:4799  returns (bytes4 retval) {... */\n      pop\n        /* \"Task2/work2/ERC721.sol\":4500:5173  if(to.code.length > 0){... */\n    tag_155:\n        /* \"Task2/work2/ERC721.sol\":4389:5180  function _checkERC721Receiver(address from, address to, uint256 tokenId, bytes memory data) private {... */\n      pop\n      pop\n      pop\n      pop\n      jump\t// out\n        /* \"Task2/work2/ERC721.sol\":3551:3865  function _transfer(address from, address to, uint256 tokenId) private {... */\n    tag_107:\n        /* \"Task2/work2/ERC721.sol\":3652:3653  1 */\n      0x01\n        /* \"Task2/work2/ERC721.sol\":3632:3642  _balanceOf */\n      0x03\n        /* \"Task2/work2/ERC721.sol\":3632:3648  _balanceOf[from] */\n      0x00\n        /* \"Task2/work2/ERC721.sol\":3643:3647  from */\n      dup6\n        /* \"Task2/work2/ERC721.sol\":3632:3648  _balanceOf[from] */\n      0xffffffffffffffffffffffffffffffffffffffff\n      and\n      0xffffffffffffffffffffffffffffffffffffffff\n      and\n      dup2\n      mstore\n      0x20\n      add\n      swap1\n      dup2\n      mstore\n      0x20\n      add\n      0x00\n      keccak256\n      0x00\n        /* \"Task2/work2/ERC721.sol\":3632:3653  _balanceOf[from] -= 1 */\n      dup3\n      dup3\n      sload\n      tag_174\n      swap2\n      swap1\n      tag_175\n      jump\t// in\n    tag_174:\n      swap3\n      pop\n      pop\n      dup2\n      swap1\n      sstore\n      pop\n        /* \"Task2/work2/ERC721.sol\":3682:3683  1 */\n      0x01\n        /* \"Task2/work2/ERC721.sol\":3664:3674  _balanceOf */\n      0x03\n        /* \"Task2/work2/ERC721.sol\":3664:3678  _balanceOf[to] */\n      0x00\n        /* \"Task2/work2/ERC721.sol\":3675:3677  to */\n      dup5\n        /* \"Task2/work2/ERC721.sol\":3664:3678  _balanceOf[to] */\n      0xffffffffffffffffffffffffffffffffffffffff\n      and\n      0xffffffffffffffffffffffffffffffffffffffff\n      and\n      dup2\n      mstore\n      0x20\n      add\n      swap1\n      dup2\n      mstore\n      0x20\n      add\n      0x00\n      keccak256\n      0x00\n        /* \"Task2/work2/ERC721.sol\":3664:3683  _balanceOf[to] += 1 */\n      dup3\n      dup3\n      sload\n      tag_176\n      swap2\n      swap1\n      tag_177\n      jump\t// in\n    tag_176:\n      swap3\n      pop\n      pop\n      dup2\n      swap1\n      sstore\n      pop\n        /* \"Task2/work2/ERC721.sol\":3713:3715  to */\n      dup2\n        /* \"Task2/work2/ERC721.sol\":3694:3701  _owners */\n      0x02\n        /* \"Task2/work2/ERC721.sol\":3694:3710  _owners[tokenId] */\n      0x00\n        /* \"Task2/work2/ERC721.sol\":3702:3709  tokenId */\n      dup4\n        /* \"Task2/work2/ERC721.sol\":3694:3710  _owners[tokenId] */\n      dup2\n      mstore\n      0x20\n      add\n      swap1\n      dup2\n      mstore\n      0x20\n      add\n      0x00\n      keccak256\n      0x00\n        /* \"Task2/work2/ERC721.sol\":3694:3715  _owners[tokenId] = to */\n      0x0100\n      exp\n      dup2\n      sload\n      dup2\n      0xffffffffffffffffffffffffffffffffffffffff\n      mul\n      not\n      and\n      swap1\n      dup4\n      0xffffffffffffffffffffffffffffffffffffffff\n      and\n      mul\n      or\n      swap1\n      sstore\n      pop\n        /* \"Task2/work2/ERC721.sol\":3750:3757  tokenId */\n      dup1\n        /* \"Task2/work2/ERC721.sol\":3746:3748  to */\n      dup3\n        /* \"Task2/work2/ERC721.sol\":3731:3758  Transfer(from, to, tokenId) */\n      0xffffffffffffffffffffffffffffffffffffffff\n      and\n        /* \"Task2/work2/ERC721.sol\":3740:3744  from */\n      dup5\n        /* \"Task2/work2/ERC721.sol\":3731:3758  Transfer(from, to, tokenId) */\n      0xffffffffffffffffffffffffffffffffffffffff\n      and\n      0xddf252ad1be2c89b69c2b068fc378daa952ba7f163c4a11628f55a4df523b3ef\n      mload(0x40)\n      mload(0x40)\n      dup1\n      swap2\n      sub\n      swap1\n      log4\n        /* \"Task2/work2/ERC721.sol\":3806:3807  0 */\n      0x00\n        /* \"Task2/work2/ERC721.sol\":3771:3786  _tokenApprovals */\n      0x04\n        /* \"Task2/work2/ERC721.sol\":3771:3795  _tokenApprovals[tokenId] */\n      0x00\n        /* \"Task2/work2/ERC721.sol\":3787:3794  tokenId */\n      dup4\n        /* \"Task2/work2/ERC721.sol\":3771:3795  _tokenApprovals[tokenId] */\n      dup2\n      mstore\n      0x20\n      add\n      swap1\n      dup2\n      mstore\n      0x20\n      add\n      0x00\n      keccak256\n      0x00\n        /* \"Task2/work2/ERC721.sol\":3771:3808  _tokenApprovals[tokenId] = address(0) */\n      0x0100\n      exp\n      dup2\n      sload\n      dup2\n      0xffffffffffffffffffffffffffffffffffffffff\n      mul\n      not\n      and\n      swap1\n      dup4\n      0xffffffffffffffffffffffffffffffffffffffff\n      and\n      mul\n      or\n      swap1\n      sstore\n      pop\n        /* \"Task2/work2/ERC721.sol\":3849:3856  tokenId */\n      dup1\n        /* \"Task2/work2/ERC721.sol\":3845:3846  0 */\n      0x00\n        /* \"Task2/work2/ERC721.sol\":3824:3857  Approval(to, address(0), tokenId) */\n      0xffffffffffffffffffffffffffffffffffffffff\n      and\n        /* \"Task2/work2/ERC721.sol\":3833:3835  to */\n      dup4\n        /* \"Task2/work2/ERC721.sol\":3824:3857  Approval(to, address(0), tokenId) */\n      0xffffffffffffffffffffffffffffffffffffffff\n      and\n      0x8c5be1e5ebec7d5bd14f71427d1e84f3dd0314c0f7b2291e5b200ac8c7c3b925\n      mload(0x40)\n      mload(0x40)\n      dup1\n      swap2\n      sub\n      swap1\n      log4\n        /* \"Task2/work2/ERC721.sol\":3551:3865  function _transfer(address from, address to, uint256 tokenId) private {... */\n      pop\n      pop\n      pop\n      jump\t// out\n        /* \"Task2/work2/ERC721.sol\":9428:9747  function _mint(address to, uint256 tokenId) internal  {... */\n    tag_113:\n        /* \"Task2/work2/ERC721.sol\":9515:9516  0 */\n      0x00\n        /* \"Task2/work2/ERC721.sol\":9501:9517  to != address(0) */\n      0xffffffffffffffffffffffffffffffffffffffff\n      and\n        /* \"Task2/work2/ERC721.sol\":9501:9503  to */\n      dup3\n        /* \"Task2/work2/ERC721.sol\":9501:9517  to != address(0) */\n      0xffffffffffffffffffffffffffffffffffffffff\n      and\n      sub\n        /* \"Task2/work2/ERC721.sol\":9493:9553  require(to != address(0), \"`to` cannot be the zero address\") */\n      tag_179\n      jumpi\n      mload(0x40)\n      0x08c379a000000000000000000000000000000000000000000000000000000000\n      dup2\n      mstore\n      0x04\n      add\n      tag_180\n      swap1\n      tag_181\n      jump\t// in\n    tag_180:\n      mload(0x40)\n      dup1\n      swap2\n      sub\n      swap1\n      revert\n    tag_179:\n        /* \"Task2/work2/ERC721.sol\":9600:9601  0 */\n      0x00\n        /* \"Task2/work2/ERC721.sol\":9572:9602  _owners[tokenId] == address(0) */\n      0xffffffffffffffffffffffffffffffffffffffff\n      and\n        /* \"Task2/work2/ERC721.sol\":9572:9579  _owners */\n      0x02\n        /* \"Task2/work2/ERC721.sol\":9572:9588  _owners[tokenId] */\n      0x00\n        /* \"Task2/work2/ERC721.sol\":9580:9587  tokenId */\n      dup4\n        /* \"Task2/work2/ERC721.sol\":9572:9588  _owners[tokenId] */\n      dup2\n      mstore\n      0x20\n      add\n      swap1\n      dup2\n      mstore\n      0x20\n      add\n      0x00\n      keccak256\n      0x00\n      swap1\n      sload\n      swap1\n      0x0100\n      exp\n      swap1\n      div\n      0xffffffffffffffffffffffffffffffffffffffff\n      and\n        /* \"Task2/work2/ERC721.sol\":9572:9602  _owners[tokenId] == address(0) */\n      0xffffffffffffffffffffffffffffffffffffffff\n      and\n      eq\n        /* \"Task2/work2/ERC721.sol\":9564:9628  require(_owners[tokenId] == address(0), \"token has been minted\") */\n      tag_182\n      jumpi\n      mload(0x40)\n      0x08c379a000000000000000000000000000000000000000000000000000000000\n      dup2\n      mstore\n      0x04\n      add\n      tag_183\n      swap1\n      tag_184\n      jump\t// in\n    tag_183:\n      mload(0x40)\n      dup1\n      swap2\n      sub\n      swap1\n      revert\n    tag_182:\n        /* \"Task2/work2/ERC721.sol\":9658:9660  to */\n      dup2\n        /* \"Task2/work2/ERC721.sol\":9639:9646  _owners */\n      0x02\n        /* \"Task2/work2/ERC721.sol\":9639:9655  _owners[tokenId] */\n      0x00\n        /* \"Task2/work2/ERC721.sol\":9647:9654  tokenId */\n      dup4\n        /* \"Task2/work2/ERC721.sol\":9639:9655  _owners[tokenId] */\n      dup2\n      mstore\n      0x20\n      add\n      swap1\n      dup2\n      mstore\n      0x20\n      add\n      0x00\n      keccak256\n      0x00\n        /* \"Task2/work2/ERC721.sol\":9639:9660  _owners[tokenId] = to */\n      0x0100\n      exp\n      dup2\n      sload\n      dup2\n      0xffffffffffffffffffffffffffffffffffffffff\n      mul\n      not\n      and\n      swap1\n      dup4\n      0xffffffffffffffffffffffffffffffffffffffff\n      and\n      mul\n      or\n      swap1\n      sstore\n      pop\n        /* \"Task2/work2/ERC721.sol\":9689:9690  1 */\n      0x01\n        /* \"Task2/work2/ERC721.sol\":9671:9681  _balanceOf */\n      0x03\n        /* \"Task2/work2/ERC721.sol\":9671:9685  _balanceOf[to] */\n      0x00\n        /* \"Task2/work2/ERC721.sol\":9682:9684  to */\n      dup5\n        /* \"Task2/work2/ERC721.sol\":9671:9685  _balanceOf[to] */\n      0xffffffffffffffffffffffffffffffffffffffff\n      and\n      0xffffffffffffffffffffffffffffffffffffffff\n      and\n      dup2\n      mstore\n      0x20\n      add\n      swap1\n      dup2\n      mstore\n      0x20\n      add\n      0x00\n      keccak256\n      0x00\n        /* \"Task2/work2/ERC721.sol\":9671:9690  _balanceOf[to] += 1 */\n      dup3\n      dup3\n      sload\n      tag_185\n      swap2\n      swap1\n      tag_177\n      jump\t// in\n    tag_185:\n      swap3\n      pop\n      pop\n      dup2\n      swap1\n      sstore\n      pop\n        /* \"Task2/work2/ERC721.sol\":9731:9738  tokenId */\n      dup1\n        /* \"Task2/work2/ERC721.sol\":9727:9729  to */\n      dup3\n        /* \"Task2/work2/ERC721.sol\":9706:9739  Transfer(address(0), to, tokenId) */\n      0xffffffffffffffffffffffffffffffffffffffff\n      and\n        /* \"Task2/work2/ERC721.sol\":9723:9724  0 */\n      0x00\n        /* \"Task2/work2/ERC721.sol\":9706:9739  Transfer(address(0), to, tokenId) */\n      0xffffffffffffffffffffffffffffffffffffffff\n      and\n      0xddf252ad1be2c89b69c2b068fc378daa952ba7f163c4a11628f55a4df523b3ef\n      mload(0x40)\n      mload(0x40)\n      dup1\n      swap2\n      sub\n      swap1\n      log4\n        /* \"Task2/work2/ERC721.sol\":9428:9747  function _mint(address to, uint256 tokenId) internal  {... */\n      pop\n      pop\n      jump\t// out\n        /* \"Task2/work2/ERC721.sol\":3873:4381  function _checkOwnedOrApproved(address from, address to, uint256 tokenId) private view returns (bool) {... */\n    tag_116:\n        /* \"Task2/work2/ERC721.sol\":3969:3973  bool */\n      0x00\n        /* \"Task2/work2/ERC721.sol\":4010:4011  0 */\n      0x00\n        /* \"Task2/work2/ERC721.sol\":3994:4012  from != address(0) */\n      0xffffffffffffffffffffffffffffffffffffffff\n      and\n        /* \"Task2/work2/ERC721.sol\":3994:3998  from */\n      dup5\n        /* \"Task2/work2/ERC721.sol\":3994:4012  from != address(0) */\n      0xffffffffffffffffffffffffffffffffffffffff\n      and\n      sub\n        /* \"Task2/work2/ERC721.sol\":3986:4050  require(from != address(0), \"`from` cannot be the zero address\") */\n      tag_187\n      jumpi\n      mload(0x40)\n      0x08c379a000000000000000000000000000000000000000000000000000000000\n      dup2\n      mstore\n      0x04\n      add\n      tag_188\n      swap1\n      tag_189\n      jump\t// in\n    tag_188:\n      mload(0x40)\n      dup1\n      swap2\n      sub\n      swap1\n      revert\n    tag_187:\n        /* \"Task2/work2/ERC721.sol\":4083:4084  0 */\n      0x00\n        /* \"Task2/work2/ERC721.sol\":4069:4085  to != address(0) */\n      0xffffffffffffffffffffffffffffffffffffffff\n      and\n        /* \"Task2/work2/ERC721.sol\":4069:4071  to */\n      dup4\n        /* \"Task2/work2/ERC721.sol\":4069:4085  to != address(0) */\n      0xffffffffffffffffffffffffffffffffffffffff\n      and\n      sub\n        /* \"Task2/work2/ERC721.sol\":4061:4121  require(to != address(0), \"`to` cannot be the zero address\") */\n      tag_190\n      jumpi\n      mload(0x40)\n      0x08c379a000000000000000000000000000000000000000000000000000000000\n      dup2\n      mstore\n      0x04\n      add\n      tag_191\n      swap1\n      tag_181\n      jump\t// in\n    tag_191:\n      mload(0x40)\n      dup1\n      swap2\n      sub\n      swap1\n      revert\n    tag_190:\n        /* \"Task2/work2/ERC721.sol\":4132:4145  address owner */\n      0x00\n        /* \"Task2/work2/ERC721.sol\":4148:4155  _owners */\n      0x02\n        /* \"Task2/work2/ERC721.sol\":4148:4164  _owners[tokenId] */\n      0x00\n        /* \"Task2/work2/ERC721.sol\":4156:4163  tokenId */\n      dup5\n        /* \"Task2/work2/ERC721.sol\":4148:4164  _owners[tokenId] */\n      dup2\n      mstore\n      0x20\n      add\n      swap1\n      dup2\n      mstore\n      0x20\n      add\n      0x00\n      keccak256\n      0x00\n      swap1\n      sload\n      swap1\n      0x0100\n      exp\n      swap1\n      div\n      0xffffffffffffffffffffffffffffffffffffffff\n      and\n        /* \"Task2/work2/ERC721.sol\":4132:4164  address owner = _owners[tokenId] */\n      swap1\n      pop\n        /* \"Task2/work2/ERC721.sol\":4200:4201  0 */\n      0x00\n        /* \"Task2/work2/ERC721.sol\":4183:4202  owner != address(0) */\n      0xffffffffffffffffffffffffffffffffffffffff\n      and\n        /* \"Task2/work2/ERC721.sol\":4183:4188  owner */\n      dup2\n        /* \"Task2/work2/ERC721.sol\":4183:4202  owner != address(0) */\n      0xffffffffffffffffffffffffffffffffffffffff\n      and\n      sub\n        /* \"Task2/work2/ERC721.sol\":4175:4222  require(owner != address(0), \"token not exist\") */\n      tag_192\n      jumpi\n      mload(0x40)\n      0x08c379a000000000000000000000000000000000000000000000000000000000\n      dup2\n      mstore\n      0x04\n      add\n      tag_193\n      swap1\n      tag_96\n      jump\t// in\n    tag_193:\n      mload(0x40)\n      dup1\n      swap2\n      sub\n      swap1\n      revert\n    tag_192:\n        /* \"Task2/work2/ERC721.sol\":4233:4249  address approved */\n      0x00\n        /* \"Task2/work2/ERC721.sol\":4252:4267  _tokenApprovals */\n      0x04\n        /* \"Task2/work2/ERC721.sol\":4252:4276  _tokenApprovals[tokenId] */\n      0x00\n        /* \"Task2/work2/ERC721.sol\":4268:4275  tokenId */\n      dup6\n        /* \"Task2/work2/ERC721.sol\":4252:4276  _tokenApprovals[tokenId] */\n      dup2\n      mstore\n      0x20\n      add\n      swap1\n      dup2\n      mstore\n      0x20\n      add\n      0x00\n      keccak256\n      0x00\n      swap1\n      sload\n      swap1\n      0x0100\n      exp\n      swap1\n      div\n      0xffffffffffffffffffffffffffffffffffffffff\n      and\n        /* \"Task2/work2/ERC721.sol\":4233:4276  address approved = _tokenApprovals[tokenId] */\n      swap1\n      pop\n        /* \"Task2/work2/ERC721.sol\":4303:4307  from */\n      dup6\n        /* \"Task2/work2/ERC721.sol\":4294:4307  owner == from */\n      0xffffffffffffffffffffffffffffffffffffffff\n      and\n        /* \"Task2/work2/ERC721.sol\":4294:4299  owner */\n      dup3\n        /* \"Task2/work2/ERC721.sol\":4294:4307  owner == from */\n      0xffffffffffffffffffffffffffffffffffffffff\n      and\n      eq\n        /* \"Task2/work2/ERC721.sol\":4294:4333  owner == from || approved == msg.sender */\n      dup1\n      tag_194\n      jumpi\n      pop\n        /* \"Task2/work2/ERC721.sol\":4323:4333  msg.sender */\n      caller\n        /* \"Task2/work2/ERC721.sol\":4311:4333  approved == msg.sender */\n      0xffffffffffffffffffffffffffffffffffffffff\n      and\n        /* \"Task2/work2/ERC721.sol\":4311:4319  approved */\n      dup2\n        /* \"Task2/work2/ERC721.sol\":4311:4333  approved == msg.sender */\n      0xffffffffffffffffffffffffffffffffffffffff\n      and\n      eq\n        /* \"Task2/work2/ERC721.sol\":4294:4333  owner == from || approved == msg.sender */\n    tag_194:\n        /* \"Task2/work2/ERC721.sol\":4294:4373  owner == from || approved == msg.sender || _operatorApprovals[from][msg.sender] */\n      dup1\n      tag_195\n      jumpi\n      pop\n        /* \"Task2/work2/ERC721.sol\":4337:4355  _operatorApprovals */\n      0x05\n        /* \"Task2/work2/ERC721.sol\":4337:4361  _operatorApprovals[from] */\n      0x00\n        /* \"Task2/work2/ERC721.sol\":4356:4360  from */\n      dup8\n        /* \"Task2/work2/ERC721.sol\":4337:4361  _operatorApprovals[from] */\n      0xffffffffffffffffffffffffffffffffffffffff\n      and\n      0xffffffffffffffffffffffffffffffffffffffff\n      and\n      dup2\n      mstore\n      0x20\n      add\n      swap1\n      dup2\n      mstore\n      0x20\n      add\n      0x00\n      keccak256\n        /* \"Task2/work2/ERC721.sol\":4337:4373  _operatorApprovals[from][msg.sender] */\n      0x00\n        /* \"Task2/work2/ERC721.sol\":4362:4372  msg.sender */\n      caller\n        /* \"Task2/work2/ERC721.sol\":4337:4373  _operatorApprovals[from][msg.sender] */\n      0xffffffffffffffffffffffffffffffffffffffff\n      and\n      0xffffffffffffffffffffffffffffffffffffffff\n      and\n      dup2\n      mstore\n      0x20\n      add\n      swap1\n      dup2\n      mstore\n      0x20\n      add\n      0x00\n      keccak256\n      0x00\n      swap1\n      sload\n      swap1\n      0x0100\n      exp\n      swap1\n      div\n      0xff\n      and\n        /* \"Task2/work2/ERC721.sol\":4294:4373  owner == from || approved == msg.sender || _operatorApprovals[from][msg.sender] */\n    tag_195:\n        /* \"Task2/work2/ERC721.sol\":4287:4373  return owner == from || approved == msg.sender || _operatorApprovals[from][msg.sender] */\n      swap3\n      pop\n      pop\n      pop\n        /* \"Task2/work2/ERC721.sol\":3873:4381  function _checkOwnedOrApproved(address from, address to, uint256 tokenId) private view returns (bool) {... */\n      swap4\n      swap3\n      pop\n      pop\n      pop\n      jump\t// out\n        /* \"Task2/work2/LXApe.sol\":269:502  function _baseURI() internal pure override returns (string memory) {... */\n    tag_146:\n        /* \"Task2/work2/LXApe.sol\":321:334  string memory */\n      0x60\n        /* \"Task2/work2/LXApe.sol\":418:494  return \"ipfs://bafkreib3knhd2yzwbb66ccezx5236ej3dvrogqes5movzmeukpfdsfdshu/\" */\n      mload(0x40)\n      dup1\n      0x80\n      add\n      0x40\n      mstore\n      dup1\n      0x43\n      dup2\n      mstore\n      0x20\n      add\n      data_695c49d69a9524854e904cd2e5e6e5e31cb707deaafbe9a6f55d4bdf8d53c976\n      0x43\n      swap2\n      codecopy\n      swap1\n      pop\n        /* \"Task2/work2/LXApe.sol\":269:502  function _baseURI() internal pure override returns (string memory) {... */\n      swap1\n      jump\t// out\n        /* \"Task2/work2/Strings.sol\":412:1135  function toString(uint256 value) internal pure returns (string memory) {... */\n    tag_150:\n        /* \"Task2/work2/Strings.sol\":468:481  string memory */\n      0x60\n        /* \"Task2/work2/Strings.sol\":698:699  0 */\n      0x00\n        /* \"Task2/work2/Strings.sol\":689:694  value */\n      dup3\n        /* \"Task2/work2/Strings.sol\":689:699  value == 0 */\n      sub\n        /* \"Task2/work2/Strings.sol\":685:738  if (value == 0) {... */\n      tag_198\n      jumpi\n        /* \"Task2/work2/Strings.sol\":716:726  return \"0\" */\n      mload(0x40)\n      dup1\n      0x40\n      add\n      0x40\n      mstore\n      dup1\n      0x01\n      dup2\n      mstore\n      0x20\n      add\n      0x3000000000000000000000000000000000000000000000000000000000000000\n      dup2\n      mstore\n      pop\n      swap1\n      pop\n      jump(tag_197)\n        /* \"Task2/work2/Strings.sol\":685:738  if (value == 0) {... */\n    tag_198:\n        /* \"Task2/work2/Strings.sol\":748:760  uint256 temp */\n      0x00\n        /* \"Task2/work2/Strings.sol\":763:768  value */\n      dup3\n        /* \"Task2/work2/Strings.sol\":748:768  uint256 temp = value */\n      swap1\n      pop\n        /* \"Task2/work2/Strings.sol\":779:793  uint256 digits */\n      0x00\n        /* \"Task2/work2/Strings.sol\":804:882  while (temp != 0) {... */\n    tag_199:\n        /* \"Task2/work2/Strings.sol\":819:820  0 */\n      0x00\n        /* \"Task2/work2/Strings.sol\":811:815  temp */\n      dup3\n        /* \"Task2/work2/Strings.sol\":811:820  temp != 0 */\n      eq\n        /* \"Task2/work2/Strings.sol\":804:882  while (temp != 0) {... */\n      tag_200\n      jumpi\n        /* \"Task2/work2/Strings.sol\":837:845  digits++ */\n      dup1\n      dup1\n      tag_201\n      swap1\n      tag_202\n      jump\t// in\n    tag_201:\n      swap2\n      pop\n      pop\n        /* \"Task2/work2/Strings.sol\":868:870  10 */\n      0x0a\n        /* \"Task2/work2/Strings.sol\":860:870  temp /= 10 */\n      dup3\n      tag_203\n      swap2\n      swap1\n      tag_204\n      jump\t// in\n    tag_203:\n      swap2\n      pop\n        /* \"Task2/work2/Strings.sol\":804:882  while (temp != 0) {... */\n      jump(tag_199)\n    tag_200:\n        /* \"Task2/work2/Strings.sol\":892:911  bytes memory buffer */\n      0x00\n        /* \"Task2/work2/Strings.sol\":924:930  digits */\n      dup2\n        /* \"Task2/work2/Strings.sol\":914:931  new bytes(digits) */\n      0xffffffffffffffff\n      dup2\n      gt\n      iszero\n      tag_205\n      jumpi\n      tag_206\n      tag_207\n      jump\t// in\n    tag_206:\n    tag_205:\n      mload(0x40)\n      swap1\n      dup1\n      dup3\n      mstore\n      dup1\n      0x1f\n      add\n      not(0x1f)\n      and\n      0x20\n      add\n      dup3\n      add\n      0x40\n      mstore\n      dup1\n      iszero\n      tag_208\n      jumpi\n      dup2\n      0x20\n      add\n      0x01\n      dup3\n      mul\n      dup1\n      calldatasize\n      dup4\n      calldatacopy\n      dup1\n      dup3\n      add\n      swap2\n      pop\n      pop\n      swap1\n      pop\n    tag_208:\n      pop\n        /* \"Task2/work2/Strings.sol\":892:931  bytes memory buffer = new bytes(digits) */\n      swap1\n      pop\n        /* \"Task2/work2/Strings.sol\":942:1096  while (value != 0) {... */\n    tag_209:\n        /* \"Task2/work2/Strings.sol\":958:959  0 */\n      0x00\n        /* \"Task2/work2/Strings.sol\":949:954  value */\n      dup6\n        /* \"Task2/work2/Strings.sol\":949:959  value != 0 */\n      eq\n        /* \"Task2/work2/Strings.sol\":942:1096  while (value != 0) {... */\n      tag_210\n      jumpi\n        /* \"Task2/work2/Strings.sol\":986:987  1 */\n      0x01\n        /* \"Task2/work2/Strings.sol\":976:987  digits -= 1 */\n      dup3\n      tag_211\n      swap2\n      swap1\n      tag_175\n      jump\t// in\n    tag_211:\n      swap2\n      pop\n        /* \"Task2/work2/Strings.sol\":1053:1055  10 */\n      0x0a\n        /* \"Task2/work2/Strings.sol\":1045:1050  value */\n      dup6\n        /* \"Task2/work2/Strings.sol\":1045:1055  value % 10 */\n      tag_212\n      swap2\n      swap1\n      tag_213\n      jump\t// in\n    tag_212:\n        /* \"Task2/work2/Strings.sol\":1032:1034  48 */\n      0x30\n        /* \"Task2/work2/Strings.sol\":1032:1056  48 + uint256(value % 10) */\n      tag_214\n      swap2\n      swap1\n      tag_177\n      jump\t// in\n    tag_214:\n        /* \"Task2/work2/Strings.sol\":1019:1058  bytes1(uint8(48 + uint256(value % 10))) */\n      0xf8\n      shl\n        /* \"Task2/work2/Strings.sol\":1002:1008  buffer */\n      dup2\n        /* \"Task2/work2/Strings.sol\":1009:1015  digits */\n      dup4\n        /* \"Task2/work2/Strings.sol\":1002:1016  buffer[digits] */\n      dup2\n      mload\n      dup2\n      lt\n      tag_215\n      jumpi\n      tag_216\n      tag_217\n      jump\t// in\n    tag_216:\n    tag_215:\n      0x20\n      add\n      add\n        /* \"Task2/work2/Strings.sol\":1002:1058  buffer[digits] = bytes1(uint8(48 + uint256(value % 10))) */\n      swap1\n      not(0xffffffffffffffffffffffffffffffffffffffffffffffffffffffffffffff)\n      and\n      swap1\n      dup2\n      0x00\n      byte\n      swap1\n      mstore8\n      pop\n        /* \"Task2/work2/Strings.sol\":1082:1084  10 */\n      0x0a\n        /* \"Task2/work2/Strings.sol\":1073:1084  value /= 10 */\n      dup6\n      tag_218\n      swap2\n      swap1\n      tag_204\n      jump\t// in\n    tag_218:\n      swap5\n      pop\n        /* \"Task2/work2/Strings.sol\":942:1096  while (value != 0) {... */\n      jump(tag_209)\n    tag_210:\n        /* \"Task2/work2/Strings.sol\":1120:1126  buffer */\n      dup1\n        /* \"Task2/work2/Strings.sol\":1106:1127  return string(buffer) */\n      swap4\n      pop\n      pop\n      pop\n      pop\n        /* \"Task2/work2/Strings.sol\":412:1135  function toString(uint256 value) internal pure returns (string memory) {... */\n    tag_197:\n      swap2\n      swap1\n      pop\n      jump\t// out\n        /* \"#utility.yul\":88:205   */\n    tag_220:\n        /* \"#utility.yul\":197:198   */\n      0x00\n        /* \"#utility.yul\":194:195   */\n      0x00\n        /* \"#utility.yul\":187:199   */\n      revert\n        /* \"#utility.yul\":211:328   */\n    tag_221:\n        /* \"#utility.yul\":320:321   */\n      0x00\n        /* \"#utility.yul\":317:318   */\n      0x00\n        /* \"#utility.yul\":310:322   */\n      revert\n        /* \"#utility.yul\":334:483   */\n    tag_222:\n        /* \"#utility.yul\":370:377   */\n      0x00\n        /* \"#utility.yul\":410:476   */\n      0xffffffff00000000000000000000000000000000000000000000000000000000\n        /* \"#utility.yul\":403:408   */\n      dup3\n        /* \"#utility.yul\":399:477   */\n      and\n        /* \"#utility.yul\":388:477   */\n      swap1\n      pop\n        /* \"#utility.yul\":334:483   */\n      swap2\n      swap1\n      pop\n      jump\t// out\n        /* \"#utility.yul\":489:609   */\n    tag_223:\n        /* \"#utility.yul\":561:584   */\n      tag_278\n        /* \"#utility.yul\":578:583   */\n      dup2\n        /* \"#utility.yul\":561:584   */\n      tag_222\n      jump\t// in\n    tag_278:\n        /* \"#utility.yul\":554:559   */\n      dup2\n        /* \"#utility.yul\":551:585   */\n      eq\n        /* \"#utility.yul\":541:603   */\n      tag_279\n      jumpi\n        /* \"#utility.yul\":599:600   */\n      0x00\n        /* \"#utility.yul\":596:597   */\n      0x00\n        /* \"#utility.yul\":589:601   */\n      revert\n        /* \"#utility.yul\":541:603   */\n    tag_279:\n        /* \"#utility.yul\":489:609   */\n      pop\n      jump\t// out\n        /* \"#utility.yul\":615:752   */\n    tag_224:\n        /* \"#utility.yul\":660:665   */\n      0x00\n        /* \"#utility.yul\":698:704   */\n      dup2\n        /* \"#utility.yul\":685:705   */\n      calldataload\n        /* \"#utility.yul\":676:705   */\n      swap1\n      pop\n        /* \"#utility.yul\":714:746   */\n      tag_281\n        /* \"#utility.yul\":740:745   */\n      dup2\n        /* \"#utility.yul\":714:746   */\n      tag_223\n      jump\t// in\n    tag_281:\n        /* \"#utility.yul\":615:752   */\n      swap3\n      swap2\n      pop\n      pop\n      jump\t// out\n        /* \"#utility.yul\":758:1085   */\n    tag_23:\n        /* \"#utility.yul\":816:822   */\n      0x00\n        /* \"#utility.yul\":865:867   */\n      0x20\n        /* \"#utility.yul\":853:862   */\n      dup3\n        /* \"#utility.yul\":844:851   */\n      dup5\n        /* \"#utility.yul\":840:863   */\n      sub\n        /* \"#utility.yul\":836:868   */\n      slt\n        /* \"#utility.yul\":833:952   */\n      iszero\n      tag_283\n      jumpi\n        /* \"#utility.yul\":871:950   */\n      tag_284\n      tag_220\n      jump\t// in\n    tag_284:\n        /* \"#utility.yul\":833:952   */\n    tag_283:\n        /* \"#utility.yul\":991:992   */\n      0x00\n        /* \"#utility.yul\":1016:1068   */\n      tag_285\n        /* \"#utility.yul\":1060:1067   */\n      dup5\n        /* \"#utility.yul\":1051:1057   */\n      dup3\n        /* \"#utility.yul\":1040:1049   */\n      dup6\n        /* \"#utility.yul\":1036:1058   */\n      add\n        /* \"#utility.yul\":1016:1068   */\n      tag_224\n      jump\t// in\n    tag_285:\n        /* \"#utility.yul\":1006:1068   */\n      swap2\n      pop\n        /* \"#utility.yul\":962:1078   */\n      pop\n        /* \"#utility.yul\":758:1085   */\n      swap3\n      swap2\n      pop\n      pop\n      jump\t// out\n        /* \"#utility.yul\":1091:1181   */\n    tag_225:\n        /* \"#utility.yul\":1125:1132   */\n      0x00\n        /* \"#utility.yul\":1168:1173   */\n      dup2\n        /* \"#utility.yul\":1161:1174   */\n      iszero\n        /* \"#utility.yul\":1154:1175   */\n      iszero\n        /* \"#utility.yul\":1143:1175   */\n      swap1\n      pop\n        /* \"#utility.yul\":1091:1181   */\n      swap2\n      swap1\n      pop\n      jump\t// out\n        /* \"#utility.yul\":1187:1296   */\n    tag_226:\n        /* \"#utility.yul\":1268:1289   */\n      tag_288\n        /* \"#utility.yul\":1283:1288   */\n      dup2\n        /* \"#utility.yul\":1268:1289   */\n      tag_225\n      jump\t// in\n    tag_288:\n        /* \"#utility.yul\":1263:1266   */\n      dup3\n        /* \"#utility.yul\":1256:1290   */\n      mstore\n        /* \"#utility.yul\":1187:1296   */\n      pop\n      pop\n      jump\t// out\n        /* \"#utility.yul\":1302:1512   */\n    tag_26:\n        /* \"#utility.yul\":1389:1393   */\n      0x00\n        /* \"#utility.yul\":1427:1429   */\n      0x20\n        /* \"#utility.yul\":1416:1425   */\n      dup3\n        /* \"#utility.yul\":1412:1430   */\n      add\n        /* \"#utility.yul\":1404:1430   */\n      swap1\n      pop\n        /* \"#utility.yul\":1440:1505   */\n      tag_290\n        /* \"#utility.yul\":1502:1503   */\n      0x00\n        /* \"#utility.yul\":1491:1500   */\n      dup4\n        /* \"#utility.yul\":1487:1504   */\n      add\n        /* \"#utility.yul\":1478:1484   */\n      dup5\n        /* \"#utility.yul\":1440:1505   */\n      tag_226\n      jump\t// in\n    tag_290:\n        /* \"#utility.yul\":1302:1512   */\n      swap3\n      swap2\n      pop\n      pop\n      jump\t// out\n        /* \"#utility.yul\":1518:1617   */\n    tag_227:\n        /* \"#utility.yul\":1570:1576   */\n      0x00\n        /* \"#utility.yul\":1604:1609   */\n      dup2\n        /* \"#utility.yul\":1598:1610   */\n      mload\n        /* \"#utility.yul\":1588:1610   */\n      swap1\n      pop\n        /* \"#utility.yul\":1518:1617   */\n      swap2\n      swap1\n      pop\n      jump\t// out\n        /* \"#utility.yul\":1623:1792   */\n    tag_228:\n        /* \"#utility.yul\":1707:1718   */\n      0x00\n        /* \"#utility.yul\":1741:1747   */\n      dup3\n        /* \"#utility.yul\":1736:1739   */\n      dup3\n        /* \"#utility.yul\":1729:1748   */\n      mstore\n        /* \"#utility.yul\":1781:1785   */\n      0x20\n        /* \"#utility.yul\":1776:1779   */\n      dup3\n        /* \"#utility.yul\":1772:1786   */\n      add\n        /* \"#utility.yul\":1757:1786   */\n      swap1\n      pop\n        /* \"#utility.yul\":1623:1792   */\n      swap3\n      swap2\n      pop\n      pop\n      jump\t// out\n        /* \"#utility.yul\":1798:1937   */\n    tag_229:\n        /* \"#utility.yul\":1887:1893   */\n      dup3\n        /* \"#utility.yul\":1882:1885   */\n      dup2\n        /* \"#utility.yul\":1877:1880   */\n      dup4\n        /* \"#utility.yul\":1871:1894   */\n      mcopy\n        /* \"#utility.yul\":1928:1929   */\n      0x00\n        /* \"#utility.yul\":1919:1925   */\n      dup4\n        /* \"#utility.yul\":1914:1917   */\n      dup4\n        /* \"#utility.yul\":1910:1926   */\n      add\n        /* \"#utility.yul\":1903:1930   */\n      mstore\n        /* \"#utility.yul\":1798:1937   */\n      pop\n      pop\n      pop\n      jump\t// out\n        /* \"#utility.yul\":1943:2045   */\n    tag_230:\n        /* \"#utility.yul\":1984:1990   */\n      0x00\n        /* \"#utility.yul\":2035:2037   */\n      0x1f\n        /* \"#utility.yul\":2031:2038   */\n      not\n        /* \"#utility.yul\":2026:2028   */\n      0x1f\n        /* \"#utility.yul\":2019:2024   */\n      dup4\n        /* \"#utility.yul\":2015:2029   */\n      add\n        /* \"#utility.yul\":2011:2039   */\n      and\n        /* \"#utility.yul\":2001:2039   */\n      swap1\n      pop\n        /* \"#utility.yul\":1943:2045   */\n      swap2\n      swap1\n      pop\n      jump\t// out\n        /* \"#utility.yul\":2051:2428   */\n    tag_231:\n        /* \"#utility.yul\":2139:2142   */\n      0x00\n        /* \"#utility.yul\":2167:2206   */\n      tag_296\n        /* \"#utility.yul\":2200:2205   */\n      dup3\n        /* \"#utility.yul\":2167:2206   */\n      tag_227\n      jump\t// in\n    tag_296:\n        /* \"#utility.yul\":2222:2293   */\n      tag_297\n        /* \"#utility.yul\":2286:2292   */\n      dup2\n        /* \"#utility.yul\":2281:2284   */\n      dup6\n        /* \"#utility.yul\":2222:2293   */\n      tag_228\n      jump\t// in\n    tag_297:\n        /* \"#utility.yul\":2215:2293   */\n      swap4\n      pop\n        /* \"#utility.yul\":2302:2367   */\n      tag_298\n        /* \"#utility.yul\":2360:2366   */\n      dup2\n        /* \"#utility.yul\":2355:2358   */\n      dup6\n        /* \"#utility.yul\":2348:2352   */\n      0x20\n        /* \"#utility.yul\":2341:2346   */\n      dup7\n        /* \"#utility.yul\":2337:2353   */\n      add\n        /* \"#utility.yul\":2302:2367   */\n      tag_229\n      jump\t// in\n    tag_298:\n        /* \"#utility.yul\":2392:2421   */\n      tag_299\n        /* \"#utility.yul\":2414:2420   */\n      dup2\n        /* \"#utility.yul\":2392:2421   */\n      tag_230\n      jump\t// in\n    tag_299:\n        /* \"#utility.yul\":2387:2390   */\n      dup5\n        /* \"#utility.yul\":2383:2422   */\n      add\n        /* \"#utility.yul\":2376:2422   */\n      swap2\n      pop\n        /* \"#utility.yul\":2143:2428   */\n      pop\n        /* \"#utility.yul\":2051:2428   */\n      swap3\n      swap2\n      pop\n      pop\n      jump\t// out\n        /* \"#utility.yul\":2434:2747   */\n    tag_30:\n        /* \"#utility.yul\":2547:2551   */\n      0x00\n        /* \"#utility.yul\":2585:2587   */\n      0x20\n        /* \"#utility.yul\":2574:2583   */\n      dup3\n        /* \"#utility.yul\":2570:2588   */\n      add\n        /* \"#utility.yul\":2562:2588   */\n      swap1\n      pop\n        /* \"#utility.yul\":2634:2643   */\n      dup2\n        /* \"#utility.yul\":2628:2632   */\n      dup2\n        /* \"#utility.yul\":2624:2644   */\n      sub\n        /* \"#utility.yul\":2620:2621   */\n      0x00\n        /* \"#utility.yul\":2609:2618   */\n      dup4\n        /* \"#utility.yul\":2605:2622   */\n      add\n        /* \"#utility.yul\":2598:2645   */\n      mstore\n        /* \"#utility.yul\":2662:2740   */\n      tag_301\n        /* \"#utility.yul\":2735:2739   */\n      dup2\n        /* \"#utility.yul\":2726:2732   */\n      dup5\n        /* \"#utility.yul\":2662:2740   */\n      tag_231\n      jump\t// in\n    tag_301:\n        /* \"#utility.yul\":2654:2740   */\n      swap1\n      pop\n        /* \"#utility.yul\":2434:2747   */\n      swap3\n      swap2\n      pop\n      pop\n      jump\t// out\n        /* \"#utility.yul\":2753:2830   */\n    tag_232:\n        /* \"#utility.yul\":2790:2797   */\n      0x00\n        /* \"#utility.yul\":2819:2824   */\n      dup2\n        /* \"#utility.yul\":2808:2824   */\n      swap1\n      pop\n        /* \"#utility.yul\":2753:2830   */\n      swap2\n      swap1\n      pop\n      jump\t// out\n        /* \"#utility.yul\":2836:2958   */\n    tag_233:\n        /* \"#utility.yul\":2909:2933   */\n      tag_304\n        /* \"#utility.yul\":2927:2932   */\n      dup2\n        /* \"#utility.yul\":2909:2933   */\n      tag_232\n      jump\t// in\n    tag_304:\n        /* \"#utility.yul\":2902:2907   */\n      dup2\n        /* \"#utility.yul\":2899:2934   */\n      eq\n        /* \"#utility.yul\":2889:2952   */\n      tag_305\n      jumpi\n        /* \"#utility.yul\":2948:2949   */\n      0x00\n        /* \"#utility.yul\":2945:2946   */\n      0x00\n        /* \"#utility.yul\":2938:2950   */\n      revert\n        /* \"#utility.yul\":2889:2952   */\n    tag_305:\n        /* \"#utility.yul\":2836:2958   */\n      pop\n      jump\t// out\n        /* \"#utility.yul\":2964:3103   */\n    tag_234:\n        /* \"#utility.yul\":3010:3015   */\n      0x00\n        /* \"#utility.yul\":3048:3054   */\n      dup2\n        /* \"#utility.yul\":3035:3055   */\n      calldataload\n        /* \"#utility.yul\":3026:3055   */\n      swap1\n      pop\n        /* \"#utility.yul\":3064:3097   */\n      tag_307\n        /* \"#utility.yul\":3091:3096   */\n      dup2\n        /* \"#utility.yul\":3064:3097   */\n      tag_233\n      jump\t// in\n    tag_307:\n        /* \"#utility.yul\":2964:3103   */\n      swap3\n      swap2\n      pop\n      pop\n      jump\t// out\n        /* \"#utility.yul\":3109:3438   */\n    tag_33:\n        /* \"#utility.yul\":3168:3174   */\n      0x00\n        /* \"#utility.yul\":3217:3219   */\n      0x20\n        /* \"#utility.yul\":3205:3214   */\n      dup3\n        /* \"#utility.yul\":3196:3203   */\n      dup5\n        /* \"#utility.yul\":3192:3215   */\n      sub\n        /* \"#utility.yul\":3188:3220   */\n      slt\n        /* \"#utility.yul\":3185:3304   */\n      iszero\n      tag_309\n      jumpi\n        /* \"#utility.yul\":3223:3302   */\n      tag_310\n      tag_220\n      jump\t// in\n    tag_310:\n        /* \"#utility.yul\":3185:3304   */\n    tag_309:\n        /* \"#utility.yul\":3343:3344   */\n      0x00\n        /* \"#utility.yul\":3368:3421   */\n      tag_311\n        /* \"#utility.yul\":3413:3420   */\n      dup5\n        /* \"#utility.yul\":3404:3410   */\n      dup3\n        /* \"#utility.yul\":3393:3402   */\n      dup6\n        /* \"#utility.yul\":3389:3411   */\n      add\n        /* \"#utility.yul\":3368:3421   */\n      tag_234\n      jump\t// in\n    tag_311:\n        /* \"#utility.yul\":3358:3421   */\n      swap2\n      pop\n        /* \"#utility.yul\":3314:3431   */\n      pop\n        /* \"#utility.yul\":3109:3438   */\n      swap3\n      swap2\n      pop\n      pop\n      jump\t// out\n        /* \"#utility.yul\":3444:3570   */\n    tag_235:\n        /* \"#utility.yul\":3481:3488   */\n      0x00\n        /* \"#utility.yul\":3521:3563   */\n      0xffffffffffffffffffffffffffffffffffffffff\n        /* \"#utility.yul\":3514:3519   */\n      dup3\n        /* \"#utility.yul\":3510:3564   */\n      and\n        /* \"#utility.yul\":3499:3564   */\n      swap1\n      pop\n        /* \"#utility.yul\":3444:3570   */\n      swap2\n      swap1\n      pop\n      jump\t// out\n        /* \"#utility.yul\":3576:3672   */\n    tag_236:\n        /* \"#utility.yul\":3613:3620   */\n      0x00\n        /* \"#utility.yul\":3642:3666   */\n      tag_314\n        /* \"#utility.yul\":3660:3665   */\n      dup3\n        /* \"#utility.yul\":3642:3666   */\n      tag_235\n      jump\t// in\n    tag_314:\n        /* \"#utility.yul\":3631:3666   */\n      swap1\n      pop\n        /* \"#utility.yul\":3576:3672   */\n      swap2\n      swap1\n      pop\n      jump\t// out\n        /* \"#utility.yul\":3678:3796   */\n    tag_237:\n        /* \"#utility.yul\":3765:3789   */\n      tag_316\n        /* \"#utility.yul\":3783:3788   */\n      dup2\n        /* \"#utility.yul\":3765:3789   */\n      tag_236\n      jump\t// in\n    tag_316:\n        /* \"#utility.yul\":3760:3763   */\n      dup3\n        /* \"#utility.yul\":3753:3790   */\n      mstore\n        /* \"#utility.yul\":3678:3796   */\n      pop\n      pop\n      jump\t// out\n        /* \"#utility.yul\":3802:4024   */\n    tag_36:\n        /* \"#utility.yul\":3895:3899   */\n      0x00\n        /* \"#utility.yul\":3933:3935   */\n      0x20\n        /* \"#utility.yul\":3922:3931   */\n      dup3\n        /* \"#utility.yul\":3918:3936   */\n      add\n        /* \"#utility.yul\":3910:3936   */\n      swap1\n      pop\n        /* \"#utility.yul\":3946:4017   */\n      tag_318\n        /* \"#utility.yul\":4014:4015   */\n      0x00\n        /* \"#utility.yul\":4003:4012   */\n      dup4\n        /* \"#utility.yul\":3999:4016   */\n      add\n        /* \"#utility.yul\":3990:3996   */\n      dup5\n        /* \"#utility.yul\":3946:4017   */\n      tag_237\n      jump\t// in\n    tag_318:\n        /* \"#utility.yul\":3802:4024   */\n      swap3\n      swap2\n      pop\n      pop\n      jump\t// out\n        /* \"#utility.yul\":4030:4152   */\n    tag_238:\n        /* \"#utility.yul\":4103:4127   */\n      tag_320\n        /* \"#utility.yul\":4121:4126   */\n      dup2\n        /* \"#utility.yul\":4103:4127   */\n      tag_236\n      jump\t// in\n    tag_320:\n        /* \"#utility.yul\":4096:4101   */\n      dup2\n        /* \"#utility.yul\":4093:4128   */\n      eq\n        /* \"#utility.yul\":4083:4146   */\n      tag_321\n      jumpi\n        /* \"#utility.yul\":4142:4143   */\n      0x00\n        /* \"#utility.yul\":4139:4140   */\n      0x00\n        /* \"#utility.yul\":4132:4144   */\n      revert\n        /* \"#utility.yul\":4083:4146   */\n    tag_321:\n        /* \"#utility.yul\":4030:4152   */\n      pop\n      jump\t// out\n        /* \"#utility.yul\":4158:4297   */\n    tag_239:\n        /* \"#utility.yul\":4204:4209   */\n      0x00\n        /* \"#utility.yul\":4242:4248   */\n      dup2\n        /* \"#utility.yul\":4229:4249   */\n      calldataload\n        /* \"#utility.yul\":4220:4249   */\n      swap1\n      pop\n        /* \"#utility.yul\":4258:4291   */\n      tag_323\n        /* \"#utility.yul\":4285:4290   */\n      dup2\n        /* \"#utility.yul\":4258:4291   */\n      tag_238\n      jump\t// in\n    tag_323:\n        /* \"#utility.yul\":4158:4297   */\n      swap3\n      swap2\n      pop\n      pop\n      jump\t// out\n        /* \"#utility.yul\":4303:4777   */\n    tag_39:\n        /* \"#utility.yul\":4371:4377   */\n      0x00\n        /* \"#utility.yul\":4379:4385   */\n      0x00\n        /* \"#utility.yul\":4428:4430   */\n      0x40\n        /* \"#utility.yul\":4416:4425   */\n      dup4\n        /* \"#utility.yul\":4407:4414   */\n      dup6\n        /* \"#utility.yul\":4403:4426   */\n      sub\n        /* \"#utility.yul\":4399:4431   */\n      slt\n        /* \"#utility.yul\":4396:4515   */\n      iszero\n      tag_325\n      jumpi\n        /* \"#utility.yul\":4434:4513   */\n      tag_326\n      tag_220\n      jump\t// in\n    tag_326:\n        /* \"#utility.yul\":4396:4515   */\n    tag_325:\n        /* \"#utility.yul\":4554:4555   */\n      0x00\n        /* \"#utility.yul\":4579:4632   */\n      tag_327\n        /* \"#utility.yul\":4624:4631   */\n      dup6\n        /* \"#utility.yul\":4615:4621   */\n      dup3\n        /* \"#utility.yul\":4604:4613   */\n      dup7\n        /* \"#utility.yul\":4600:4622   */\n      add\n        /* \"#utility.yul\":4579:4632   */\n      tag_239\n      jump\t// in\n    tag_327:\n        /* \"#utility.yul\":4569:4632   */\n      swap3\n      pop\n        /* \"#utility.yul\":4525:4642   */\n      pop\n        /* \"#utility.yul\":4681:4683   */\n      0x20\n        /* \"#utility.yul\":4707:4760   */\n      tag_328\n        /* \"#utility.yul\":4752:4759   */\n      dup6\n        /* \"#utility.yul\":4743:4749   */\n      dup3\n        /* \"#utility.yul\":4732:4741   */\n      dup7\n        /* \"#utility.yul\":4728:4750   */\n      add\n        /* \"#utility.yul\":4707:4760   */\n      tag_234\n      jump\t// in\n    tag_328:\n        /* \"#utility.yul\":4697:4760   */\n      swap2\n      pop\n        /* \"#utility.yul\":4652:4770   */\n      pop\n        /* \"#utility.yul\":4303:4777   */\n      swap3\n      pop\n      swap3\n      swap1\n      pop\n      jump\t// out\n        /* \"#utility.yul\":4783:5402   */\n    tag_43:\n        /* \"#utility.yul\":4860:4866   */\n      0x00\n        /* \"#utility.yul\":4868:4874   */\n      0x00\n        /* \"#utility.yul\":4876:4882   */\n      0x00\n        /* \"#utility.yul\":4925:4927   */\n      0x60\n        /* \"#utility.yul\":4913:4922   */\n      dup5\n        /* \"#utility.yul\":4904:4911   */\n      dup7\n        /* \"#utility.yul\":4900:4923   */\n      sub\n        /* \"#utility.yul\":4896:4928   */\n      slt\n        /* \"#utility.yul\":4893:5012   */\n      iszero\n      tag_330\n      jumpi\n        /* \"#utility.yul\":4931:5010   */\n      tag_331\n      tag_220\n      jump\t// in\n    tag_331:\n        /* \"#utility.yul\":4893:5012   */\n    tag_330:\n        /* \"#utility.yul\":5051:5052   */\n      0x00\n        /* \"#utility.yul\":5076:5129   */\n      tag_332\n        /* \"#utility.yul\":5121:5128   */\n      dup7\n        /* \"#utility.yul\":5112:5118   */\n      dup3\n        /* \"#utility.yul\":5101:5110   */\n      dup8\n        /* \"#utility.yul\":5097:5119   */\n      add\n        /* \"#utility.yul\":5076:5129   */\n      tag_239\n      jump\t// in\n    tag_332:\n        /* \"#utility.yul\":5066:5129   */\n      swap4\n      pop\n        /* \"#utility.yul\":5022:5139   */\n      pop\n        /* \"#utility.yul\":5178:5180   */\n      0x20\n        /* \"#utility.yul\":5204:5257   */\n      tag_333\n        /* \"#utility.yul\":5249:5256   */\n      dup7\n        /* \"#utility.yul\":5240:5246   */\n      dup3\n        /* \"#utility.yul\":5229:5238   */\n      dup8\n        /* \"#utility.yul\":5225:5247   */\n      add\n        /* \"#utility.yul\":5204:5257   */\n      tag_239\n      jump\t// in\n    tag_333:\n        /* \"#utility.yul\":5194:5257   */\n      swap3\n      pop\n        /* \"#utility.yul\":5149:5267   */\n      pop\n        /* \"#utility.yul\":5306:5308   */\n      0x40\n        /* \"#utility.yul\":5332:5385   */\n      tag_334\n        /* \"#utility.yul\":5377:5384   */\n      dup7\n        /* \"#utility.yul\":5368:5374   */\n      dup3\n        /* \"#utility.yul\":5357:5366   */\n      dup8\n        /* \"#utility.yul\":5353:5375   */\n      add\n        /* \"#utility.yul\":5332:5385   */\n      tag_234\n      jump\t// in\n    tag_334:\n        /* \"#utility.yul\":5322:5385   */\n      swap2\n      pop\n        /* \"#utility.yul\":5277:5395   */\n      pop\n        /* \"#utility.yul\":4783:5402   */\n      swap3\n      pop\n      swap3\n      pop\n      swap3\n      jump\t// out\n        /* \"#utility.yul\":5408:5737   */\n    tag_57:\n        /* \"#utility.yul\":5467:5473   */\n      0x00\n        /* \"#utility.yul\":5516:5518   */\n      0x20\n        /* \"#utility.yul\":5504:5513   */\n      dup3\n        /* \"#utility.yul\":5495:5502   */\n      dup5\n        /* \"#utility.yul\":5491:5514   */\n      sub\n        /* \"#utility.yul\":5487:5519   */\n      slt\n        /* \"#utility.yul\":5484:5603   */\n      iszero\n      tag_336\n      jumpi\n        /* \"#utility.yul\":5522:5601   */\n      tag_337\n      tag_220\n      jump\t// in\n    tag_337:\n        /* \"#utility.yul\":5484:5603   */\n    tag_336:\n        /* \"#utility.yul\":5642:5643   */\n      0x00\n        /* \"#utility.yul\":5667:5720   */\n      tag_338\n        /* \"#utility.yul\":5712:5719   */\n      dup5\n        /* \"#utility.yul\":5703:5709   */\n      dup3\n        /* \"#utility.yul\":5692:5701   */\n      dup6\n        /* \"#utility.yul\":5688:5710   */\n      add\n        /* \"#utility.yul\":5667:5720   */\n      tag_239\n      jump\t// in\n    tag_338:\n        /* \"#utility.yul\":5657:5720   */\n      swap2\n      pop\n        /* \"#utility.yul\":5613:5730   */\n      pop\n        /* \"#utility.yul\":5408:5737   */\n      swap3\n      swap2\n      pop\n      pop\n      jump\t// out\n        /* \"#utility.yul\":5743:5861   */\n    tag_240:\n        /* \"#utility.yul\":5830:5854   */\n      tag_340\n        /* \"#utility.yul\":5848:5853   */\n      dup2\n        /* \"#utility.yul\":5830:5854   */\n      tag_232\n      jump\t// in\n    tag_340:\n        /* \"#utility.yul\":5825:5828   */\n      dup3\n        /* \"#utility.yul\":5818:5855   */\n      mstore\n        /* \"#utility.yul\":5743:5861   */\n      pop\n      pop\n      jump\t// out\n        /* \"#utility.yul\":5867:6089   */\n    tag_60:\n        /* \"#utility.yul\":5960:5964   */\n      0x00\n        /* \"#utility.yul\":5998:6000   */\n      0x20\n        /* \"#utility.yul\":5987:5996   */\n      dup3\n        /* \"#utility.yul\":5983:6001   */\n      add\n        /* \"#utility.yul\":5975:6001   */\n      swap1\n      pop\n        /* \"#utility.yul\":6011:6082   */\n      tag_342\n        /* \"#utility.yul\":6079:6080   */\n      0x00\n        /* \"#utility.yul\":6068:6077   */\n      dup4\n        /* \"#utility.yul\":6064:6081   */\n      add\n        /* \"#utility.yul\":6055:6061   */\n      dup5\n        /* \"#utility.yul\":6011:6082   */\n      tag_240\n      jump\t// in\n    tag_342:\n        /* \"#utility.yul\":5867:6089   */\n      swap3\n      swap2\n      pop\n      pop\n      jump\t// out\n        /* \"#utility.yul\":6095:6211   */\n    tag_241:\n        /* \"#utility.yul\":6165:6186   */\n      tag_344\n        /* \"#utility.yul\":6180:6185   */\n      dup2\n        /* \"#utility.yul\":6165:6186   */\n      tag_225\n      jump\t// in\n    tag_344:\n        /* \"#utility.yul\":6158:6163   */\n      dup2\n        /* \"#utility.yul\":6155:6187   */\n      eq\n        /* \"#utility.yul\":6145:6205   */\n      tag_345\n      jumpi\n        /* \"#utility.yul\":6201:6202   */\n      0x00\n        /* \"#utility.yul\":6198:6199   */\n      0x00\n        /* \"#utility.yul\":6191:6203   */\n      revert\n        /* \"#utility.yul\":6145:6205   */\n    tag_345:\n        /* \"#utility.yul\":6095:6211   */\n      pop\n      jump\t// out\n        /* \"#utility.yul\":6217:6350   */\n    tag_242:\n        /* \"#utility.yul\":6260:6265   */\n      0x00\n        /* \"#utility.yul\":6298:6304   */\n      dup2\n        /* \"#utility.yul\":6285:6305   */\n      calldataload\n        /* \"#utility.yul\":6276:6305   */\n      swap1\n      pop\n        /* \"#utility.yul\":6314:6344   */\n      tag_347\n        /* \"#utility.yul\":6338:6343   */\n      dup2\n        /* \"#utility.yul\":6314:6344   */\n      tag_241\n      jump\t// in\n    tag_347:\n        /* \"#utility.yul\":6217:6350   */\n      swap3\n      swap2\n      pop\n      pop\n      jump\t// out\n        /* \"#utility.yul\":6356:6824   */\n    tag_66:\n        /* \"#utility.yul\":6421:6427   */\n      0x00\n        /* \"#utility.yul\":6429:6435   */\n      0x00\n        /* \"#utility.yul\":6478:6480   */\n      0x40\n        /* \"#utility.yul\":6466:6475   */\n      dup4\n        /* \"#utility.yul\":6457:6464   */\n      dup6\n        /* \"#utility.yul\":6453:6476   */\n      sub\n        /* \"#utility.yul\":6449:6481   */\n      slt\n        /* \"#utility.yul\":6446:6565   */\n      iszero\n      tag_349\n      jumpi\n        /* \"#utility.yul\":6484:6563   */\n      tag_350\n      tag_220\n      jump\t// in\n    tag_350:\n        /* \"#utility.yul\":6446:6565   */\n    tag_349:\n        /* \"#utility.yul\":6604:6605   */\n      0x00\n        /* \"#utility.yul\":6629:6682   */\n      tag_351\n        /* \"#utility.yul\":6674:6681   */\n      dup6\n        /* \"#utility.yul\":6665:6671   */\n      dup3\n        /* \"#utility.yul\":6654:6663   */\n      dup7\n        /* \"#utility.yul\":6650:6672   */\n      add\n        /* \"#utility.yul\":6629:6682   */\n      tag_239\n      jump\t// in\n    tag_351:\n        /* \"#utility.yul\":6619:6682   */\n      swap3\n      pop\n        /* \"#utility.yul\":6575:6692   */\n      pop\n        /* \"#utility.yul\":6731:6733   */\n      0x20\n        /* \"#utility.yul\":6757:6807   */\n      tag_352\n        /* \"#utility.yul\":6799:6806   */\n      dup6\n        /* \"#utility.yul\":6790:6796   */\n      dup3\n        /* \"#utility.yul\":6779:6788   */\n      dup7\n        /* \"#utility.yul\":6775:6797   */\n      add\n        /* \"#utility.yul\":6757:6807   */\n      tag_242\n      jump\t// in\n    tag_352:\n        /* \"#utility.yul\":6747:6807   */\n      swap2\n      pop\n        /* \"#utility.yul\":6702:6817   */\n      pop\n        /* \"#utility.yul\":6356:6824   */\n      swap3\n      pop\n      swap3\n      swap1\n      pop\n      jump\t// out\n        /* \"#utility.yul\":6830:6947   */\n    tag_243:\n        /* \"#utility.yul\":6939:6940   */\n      0x00\n        /* \"#utility.yul\":6936:6937   */\n      0x00\n        /* \"#utility.yul\":6929:6941   */\n      revert\n        /* \"#utility.yul\":6953:7070   */\n    tag_244:\n        /* \"#utility.yul\":7062:7063   */\n      0x00\n        /* \"#utility.yul\":7059:7060   */\n      0x00\n        /* \"#utility.yul\":7052:7064   */\n      revert\n        /* \"#utility.yul\":7076:7193   */\n    tag_245:\n        /* \"#utility.yul\":7185:7186   */\n      0x00\n        /* \"#utility.yul\":7182:7183   */\n      0x00\n        /* \"#utility.yul\":7175:7187   */\n      revert\n        /* \"#utility.yul\":7212:7764   */\n    tag_246:\n        /* \"#utility.yul\":7269:7277   */\n      0x00\n        /* \"#utility.yul\":7279:7285   */\n      0x00\n        /* \"#utility.yul\":7329:7332   */\n      dup4\n        /* \"#utility.yul\":7322:7326   */\n      0x1f\n        /* \"#utility.yul\":7314:7320   */\n      dup5\n        /* \"#utility.yul\":7310:7327   */\n      add\n        /* \"#utility.yul\":7306:7333   */\n      slt\n        /* \"#utility.yul\":7296:7418   */\n      tag_357\n      jumpi\n        /* \"#utility.yul\":7337:7416   */\n      tag_358\n      tag_243\n      jump\t// in\n    tag_358:\n        /* \"#utility.yul\":7296:7418   */\n    tag_357:\n        /* \"#utility.yul\":7450:7456   */\n      dup3\n        /* \"#utility.yul\":7437:7457   */\n      calldataload\n        /* \"#utility.yul\":7427:7457   */\n      swap1\n      pop\n        /* \"#utility.yul\":7480:7498   */\n      0xffffffffffffffff\n        /* \"#utility.yul\":7472:7478   */\n      dup2\n        /* \"#utility.yul\":7469:7499   */\n      gt\n        /* \"#utility.yul\":7466:7583   */\n      iszero\n      tag_359\n      jumpi\n        /* \"#utility.yul\":7502:7581   */\n      tag_360\n      tag_244\n      jump\t// in\n    tag_360:\n        /* \"#utility.yul\":7466:7583   */\n    tag_359:\n        /* \"#utility.yul\":7616:7620   */\n      0x20\n        /* \"#utility.yul\":7608:7614   */\n      dup4\n        /* \"#utility.yul\":7604:7621   */\n      add\n        /* \"#utility.yul\":7592:7621   */\n      swap2\n      pop\n        /* \"#utility.yul\":7670:7673   */\n      dup4\n        /* \"#utility.yul\":7662:7666   */\n      0x01\n        /* \"#utility.yul\":7654:7660   */\n      dup3\n        /* \"#utility.yul\":7650:7667   */\n      mul\n        /* \"#utility.yul\":7640:7648   */\n      dup4\n        /* \"#utility.yul\":7636:7668   */\n      add\n        /* \"#utility.yul\":7633:7674   */\n      gt\n        /* \"#utility.yul\":7630:7758   */\n      iszero\n      tag_361\n      jumpi\n        /* \"#utility.yul\":7677:7756   */\n      tag_362\n      tag_245\n      jump\t// in\n    tag_362:\n        /* \"#utility.yul\":7630:7758   */\n    tag_361:\n        /* \"#utility.yul\":7212:7764   */\n      swap3\n      pop\n      swap3\n      swap1\n      pop\n      jump\t// out\n        /* \"#utility.yul\":7770:8733   */\n    tag_70:\n        /* \"#utility.yul\":7867:7873   */\n      0x00\n        /* \"#utility.yul\":7875:7881   */\n      0x00\n        /* \"#utility.yul\":7883:7889   */\n      0x00\n        /* \"#utility.yul\":7891:7897   */\n      0x00\n        /* \"#utility.yul\":7899:7905   */\n      0x00\n        /* \"#utility.yul\":7948:7951   */\n      0x80\n        /* \"#utility.yul\":7936:7945   */\n      dup7\n        /* \"#utility.yul\":7927:7934   */\n      dup9\n        /* \"#utility.yul\":7923:7946   */\n      sub\n        /* \"#utility.yul\":7919:7952   */\n      slt\n        /* \"#utility.yul\":7916:8036   */\n      iszero\n      tag_364\n      jumpi\n        /* \"#utility.yul\":7955:8034   */\n      tag_365\n      tag_220\n      jump\t// in\n    tag_365:\n        /* \"#utility.yul\":7916:8036   */\n    tag_364:\n        /* \"#utility.yul\":8075:8076   */\n      0x00\n        /* \"#utility.yul\":8100:8153   */\n      tag_366\n        /* \"#utility.yul\":8145:8152   */\n      dup9\n        /* \"#utility.yul\":8136:8142   */\n      dup3\n        /* \"#utility.yul\":8125:8134   */\n      dup10\n        /* \"#utility.yul\":8121:8143   */\n      add\n        /* \"#utility.yul\":8100:8153   */\n      tag_239\n      jump\t// in\n    tag_366:\n        /* \"#utility.yul\":8090:8153   */\n      swap6\n      pop\n        /* \"#utility.yul\":8046:8163   */\n      pop\n        /* \"#utility.yul\":8202:8204   */\n      0x20\n        /* \"#utility.yul\":8228:8281   */\n      tag_367\n        /* \"#utility.yul\":8273:8280   */\n      dup9\n        /* \"#utility.yul\":8264:8270   */\n      dup3\n        /* \"#utility.yul\":8253:8262   */\n      dup10\n        /* \"#utility.yul\":8249:8271   */\n      add\n        /* \"#utility.yul\":8228:8281   */\n      tag_239\n      jump\t// in\n    tag_367:\n        /* \"#utility.yul\":8218:8281   */\n      swap5\n      pop\n        /* \"#utility.yul\":8173:8291   */\n      pop\n        /* \"#utility.yul\":8330:8332   */\n      0x40\n        /* \"#utility.yul\":8356:8409   */\n      tag_368\n        /* \"#utility.yul\":8401:8408   */\n      dup9\n        /* \"#utility.yul\":8392:8398   */\n      dup3\n        /* \"#utility.yul\":8381:8390   */\n      dup10\n        /* \"#utility.yul\":8377:8399   */\n      add\n        /* \"#utility.yul\":8356:8409   */\n      tag_234\n      jump\t// in\n    tag_368:\n        /* \"#utility.yul\":8346:8409   */\n      swap4\n      pop\n        /* \"#utility.yul\":8301:8419   */\n      pop\n        /* \"#utility.yul\":8486:8488   */\n      0x60\n        /* \"#utility.yul\":8475:8484   */\n      dup7\n        /* \"#utility.yul\":8471:8489   */\n      add\n        /* \"#utility.yul\":8458:8490   */\n      calldataload\n        /* \"#utility.yul\":8517:8535   */\n      0xffffffffffffffff\n        /* \"#utility.yul\":8509:8515   */\n      dup2\n        /* \"#utility.yul\":8506:8536   */\n      gt\n        /* \"#utility.yul\":8503:8620   */\n      iszero\n      tag_369\n      jumpi\n        /* \"#utility.yul\":8539:8618   */\n      tag_370\n      tag_221\n      jump\t// in\n    tag_370:\n        /* \"#utility.yul\":8503:8620   */\n    tag_369:\n        /* \"#utility.yul\":8652:8716   */\n      tag_371\n        /* \"#utility.yul\":8708:8715   */\n      dup9\n        /* \"#utility.yul\":8699:8705   */\n      dup3\n        /* \"#utility.yul\":8688:8697   */\n      dup10\n        /* \"#utility.yul\":8684:8706   */\n      add\n        /* \"#utility.yul\":8652:8716   */\n      tag_246\n      jump\t// in\n    tag_371:\n        /* \"#utility.yul\":8634:8716   */\n      swap3\n      pop\n      swap3\n      pop\n        /* \"#utility.yul\":8429:8726   */\n      pop\n        /* \"#utility.yul\":7770:8733   */\n      swap3\n      swap6\n      pop\n      swap3\n      swap6\n      swap1\n      swap4\n      pop\n      jump\t// out\n        /* \"#utility.yul\":8739:9213   */\n    tag_81:\n        /* \"#utility.yul\":8807:8813   */\n      0x00\n        /* \"#utility.yul\":8815:8821   */\n      0x00\n        /* \"#utility.yul\":8864:8866   */\n      0x40\n        /* \"#utility.yul\":8852:8861   */\n      dup4\n        /* \"#utility.yul\":8843:8850   */\n      dup6\n        /* \"#utility.yul\":8839:8862   */\n      sub\n        /* \"#utility.yul\":8835:8867   */\n      slt\n        /* \"#utility.yul\":8832:8951   */\n      iszero\n      tag_373\n      jumpi\n        /* \"#utility.yul\":8870:8949   */\n      tag_374\n      tag_220\n      jump\t// in\n    tag_374:\n        /* \"#utility.yul\":8832:8951   */\n    tag_373:\n        /* \"#utility.yul\":8990:8991   */\n      0x00\n        /* \"#utility.yul\":9015:9068   */\n      tag_375\n        /* \"#utility.yul\":9060:9067   */\n      dup6\n        /* \"#utility.yul\":9051:9057   */\n      dup3\n        /* \"#utility.yul\":9040:9049   */\n      dup7\n        /* \"#utility.yul\":9036:9058   */\n      add\n        /* \"#utility.yul\":9015:9068   */\n      tag_239\n      jump\t// in\n    tag_375:\n        /* \"#utility.yul\":9005:9068   */\n      swap3\n      pop\n        /* \"#utility.yul\":8961:9078   */\n      pop\n        /* \"#utility.yul\":9117:9119   */\n      0x20\n        /* \"#utility.yul\":9143:9196   */\n      tag_376\n        /* \"#utility.yul\":9188:9195   */\n      dup6\n        /* \"#utility.yul\":9179:9185   */\n      dup3\n        /* \"#utility.yul\":9168:9177   */\n      dup7\n        /* \"#utility.yul\":9164:9186   */\n      add\n        /* \"#utility.yul\":9143:9196   */\n      tag_239\n      jump\t// in\n    tag_376:\n        /* \"#utility.yul\":9133:9196   */\n      swap2\n      pop\n        /* \"#utility.yul\":9088:9206   */\n      pop\n        /* \"#utility.yul\":8739:9213   */\n      swap3\n      pop\n      swap3\n      swap1\n      pop\n      jump\t// out\n        /* \"#utility.yul\":9219:9399   */\n    tag_247:\n        /* \"#utility.yul\":9267:9344   */\n      0x4e487b7100000000000000000000000000000000000000000000000000000000\n        /* \"#utility.yul\":9264:9265   */\n      0x00\n        /* \"#utility.yul\":9257:9345   */\n      mstore\n        /* \"#utility.yul\":9364:9368   */\n      0x22\n        /* \"#utility.yul\":9361:9362   */\n      0x04\n        /* \"#utility.yul\":9354:9369   */\n      mstore\n        /* \"#utility.yul\":9388:9392   */\n      0x24\n        /* \"#utility.yul\":9385:9386   */\n      0x00\n        /* \"#utility.yul\":9378:9393   */\n      revert\n        /* \"#utility.yul\":9405:9725   */\n    tag_88:\n        /* \"#utility.yul\":9449:9455   */\n      0x00\n        /* \"#utility.yul\":9486:9487   */\n      0x02\n        /* \"#utility.yul\":9480:9484   */\n      dup3\n        /* \"#utility.yul\":9476:9488   */\n      div\n        /* \"#utility.yul\":9466:9488   */\n      swap1\n      pop\n        /* \"#utility.yul\":9533:9534   */\n      0x01\n        /* \"#utility.yul\":9527:9531   */\n      dup3\n        /* \"#utility.yul\":9523:9535   */\n      and\n        /* \"#utility.yul\":9554:9572   */\n      dup1\n        /* \"#utility.yul\":9544:9625   */\n      tag_379\n      jumpi\n        /* \"#utility.yul\":9610:9614   */\n      0x7f\n        /* \"#utility.yul\":9602:9608   */\n      dup3\n        /* \"#utility.yul\":9598:9615   */\n      and\n        /* \"#utility.yul\":9588:9615   */\n      swap2\n      pop\n        /* \"#utility.yul\":9544:9625   */\n    tag_379:\n        /* \"#utility.yul\":9672:9674   */\n      0x20\n        /* \"#utility.yul\":9664:9670   */\n      dup3\n        /* \"#utility.yul\":9661:9675   */\n      lt\n        /* \"#utility.yul\":9641:9659   */\n      dup2\n        /* \"#utility.yul\":9638:9676   */\n      sub\n        /* \"#utility.yul\":9635:9719   */\n      tag_380\n      jumpi\n        /* \"#utility.yul\":9691:9709   */\n      tag_381\n      tag_247\n      jump\t// in\n    tag_381:\n        /* \"#utility.yul\":9635:9719   */\n    tag_380:\n        /* \"#utility.yul\":9456:9725   */\n      pop\n        /* \"#utility.yul\":9405:9725   */\n      swap2\n      swap1\n      pop\n      jump\t// out\n        /* \"#utility.yul\":9731:9896   */\n    tag_248:\n        /* \"#utility.yul\":9871:9888   */\n      0x746f6b656e206e6f742065786973740000000000000000000000000000000000\n        /* \"#utility.yul\":9867:9868   */\n      0x00\n        /* \"#utility.yul\":9859:9865   */\n      dup3\n        /* \"#utility.yul\":9855:9869   */\n      add\n        /* \"#utility.yul\":9848:9889   */\n      mstore\n        /* \"#utility.yul\":9731:9896   */\n      pop\n      jump\t// out\n        /* \"#utility.yul\":9902:10268   */\n    tag_249:\n        /* \"#utility.yul\":10044:10047   */\n      0x00\n        /* \"#utility.yul\":10065:10132   */\n      tag_384\n        /* \"#utility.yul\":10129:10131   */\n      0x0f\n        /* \"#utility.yul\":10124:10127   */\n      dup4\n        /* \"#utility.yul\":10065:10132   */\n      tag_228\n      jump\t// in\n    tag_384:\n        /* \"#utility.yul\":10058:10132   */\n      swap2\n      pop\n        /* \"#utility.yul\":10141:10234   */\n      tag_385\n        /* \"#utility.yul\":10230:10233   */\n      dup3\n        /* \"#utility.yul\":10141:10234   */\n      tag_248\n      jump\t// in\n    tag_385:\n        /* \"#utility.yul\":10259:10261   */\n      0x20\n        /* \"#utility.yul\":10254:10257   */\n      dup3\n        /* \"#utility.yul\":10250:10262   */\n      add\n        /* \"#utility.yul\":10243:10262   */\n      swap1\n      pop\n        /* \"#utility.yul\":9902:10268   */\n      swap2\n      swap1\n      pop\n      jump\t// out\n        /* \"#utility.yul\":10274:10693   */\n    tag_96:\n        /* \"#utility.yul\":10440:10444   */\n      0x00\n        /* \"#utility.yul\":10478:10480   */\n      0x20\n        /* \"#utility.yul\":10467:10476   */\n      dup3\n        /* \"#utility.yul\":10463:10481   */\n      add\n        /* \"#utility.yul\":10455:10481   */\n      swap1\n      pop\n        /* \"#utility.yul\":10527:10536   */\n      dup2\n        /* \"#utility.yul\":10521:10525   */\n      dup2\n        /* \"#utility.yul\":10517:10537   */\n      sub\n        /* \"#utility.yul\":10513:10514   */\n      0x00\n        /* \"#utility.yul\":10502:10511   */\n      dup4\n        /* \"#utility.yul\":10498:10515   */\n      add\n        /* \"#utility.yul\":10491:10538   */\n      mstore\n        /* \"#utility.yul\":10555:10686   */\n      tag_387\n        /* \"#utility.yul\":10681:10685   */\n      dup2\n        /* \"#utility.yul\":10555:10686   */\n      tag_249\n      jump\t// in\n    tag_387:\n        /* \"#utility.yul\":10547:10686   */\n      swap1\n      pop\n        /* \"#utility.yul\":10274:10693   */\n      swap2\n      swap1\n      pop\n      jump\t// out\n        /* \"#utility.yul\":10699:10942   */\n    tag_250:\n        /* \"#utility.yul\":10839:10873   */\n      0x5468652063616c6c6572206d757374206f776e2074686520746f6b656e206f72\n        /* \"#utility.yul\":10835:10836   */\n      0x00\n        /* \"#utility.yul\":10827:10833   */\n      dup3\n        /* \"#utility.yul\":10823:10837   */\n      add\n        /* \"#utility.yul\":10816:10874   */\n      mstore\n        /* \"#utility.yul\":10908:10934   */\n      0x20626520616e20617070726f766564206f70657261746f720000000000000000\n        /* \"#utility.yul\":10903:10905   */\n      0x20\n        /* \"#utility.yul\":10895:10901   */\n      dup3\n        /* \"#utility.yul\":10891:10906   */\n      add\n        /* \"#utility.yul\":10884:10935   */\n      mstore\n        /* \"#utility.yul\":10699:10942   */\n      pop\n      jump\t// out\n        /* \"#utility.yul\":10948:11314   */\n    tag_251:\n        /* \"#utility.yul\":11090:11093   */\n      0x00\n        /* \"#utility.yul\":11111:11178   */\n      tag_390\n        /* \"#utility.yul\":11175:11177   */\n      0x38\n        /* \"#utility.yul\":11170:11173   */\n      dup4\n        /* \"#utility.yul\":11111:11178   */\n      tag_228\n      jump\t// in\n    tag_390:\n        /* \"#utility.yul\":11104:11178   */\n      swap2\n      pop\n        /* \"#utility.yul\":11187:11280   */\n      tag_391\n        /* \"#utility.yul\":11276:11279   */\n      dup3\n        /* \"#utility.yul\":11187:11280   */\n      tag_250\n      jump\t// in\n    tag_391:\n        /* \"#utility.yul\":11305:11307   */\n      0x40\n        /* \"#utility.yul\":11300:11303   */\n      dup3\n        /* \"#utility.yul\":11296:11308   */\n      add\n        /* \"#utility.yul\":11289:11308   */\n      swap1\n      pop\n        /* \"#utility.yul\":10948:11314   */\n      swap2\n      swap1\n      pop\n      jump\t// out\n        /* \"#utility.yul\":11320:11739   */\n    tag_102:\n        /* \"#utility.yul\":11486:11490   */\n      0x00\n        /* \"#utility.yul\":11524:11526   */\n      0x20\n        /* \"#utility.yul\":11513:11522   */\n      dup3\n        /* \"#utility.yul\":11509:11527   */\n      add\n        /* \"#utility.yul\":11501:11527   */\n      swap1\n      pop\n        /* \"#utility.yul\":11573:11582   */\n      dup2\n        /* \"#utility.yul\":11567:11571   */\n      dup2\n        /* \"#utility.yul\":11563:11583   */\n      sub\n        /* \"#utility.yul\":11559:11560   */\n      0x00\n        /* \"#utility.yul\":11548:11557   */\n      dup4\n        /* \"#utility.yul\":11544:11561   */\n      add\n        /* \"#utility.yul\":11537:11584   */\n      mstore\n        /* \"#utility.yul\":11601:11732   */\n      tag_393\n        /* \"#utility.yul\":11727:11731   */\n      dup2\n        /* \"#utility.yul\":11601:11732   */\n      tag_251\n      jump\t// in\n    tag_393:\n        /* \"#utility.yul\":11593:11732   */\n      swap1\n      pop\n        /* \"#utility.yul\":11320:11739   */\n      swap2\n      swap1\n      pop\n      jump\t// out\n        /* \"#utility.yul\":11745:11915   */\n    tag_252:\n        /* \"#utility.yul\":11885:11907   */\n      0x746f6b656e4964206f7574206f662072616e6765000000000000000000000000\n        /* \"#utility.yul\":11881:11882   */\n      0x00\n        /* \"#utility.yul\":11873:11879   */\n      dup3\n        /* \"#utility.yul\":11869:11883   */\n      add\n        /* \"#utility.yul\":11862:11908   */\n      mstore\n        /* \"#utility.yul\":11745:11915   */\n      pop\n      jump\t// out\n        /* \"#utility.yul\":11921:12287   */\n    tag_253:\n        /* \"#utility.yul\":12063:12066   */\n      0x00\n        /* \"#utility.yul\":12084:12151   */\n      tag_396\n        /* \"#utility.yul\":12148:12150   */\n      0x14\n        /* \"#utility.yul\":12143:12146   */\n      dup4\n        /* \"#utility.yul\":12084:12151   */\n      tag_228\n      jump\t// in\n    tag_396:\n        /* \"#utility.yul\":12077:12151   */\n      swap2\n      pop\n        /* \"#utility.yul\":12160:12253   */\n      tag_397\n        /* \"#utility.yul\":12249:12252   */\n      dup3\n        /* \"#utility.yul\":12160:12253   */\n      tag_252\n      jump\t// in\n    tag_397:\n        /* \"#utility.yul\":12278:12280   */\n      0x20\n        /* \"#utility.yul\":12273:12276   */\n      dup3\n        /* \"#utility.yul\":12269:12281   */\n      add\n        /* \"#utility.yul\":12262:12281   */\n      swap1\n      pop\n        /* \"#utility.yul\":11921:12287   */\n      swap2\n      swap1\n      pop\n      jump\t// out\n        /* \"#utility.yul\":12293:12712   */\n    tag_111:\n        /* \"#utility.yul\":12459:12463   */\n      0x00\n        /* \"#utility.yul\":12497:12499   */\n      0x20\n        /* \"#utility.yul\":12486:12495   */\n      dup3\n        /* \"#utility.yul\":12482:12500   */\n      add\n        /* \"#utility.yul\":12474:12500   */\n      swap1\n      pop\n        /* \"#utility.yul\":12546:12555   */\n      dup2\n        /* \"#utility.yul\":12540:12544   */\n      dup2\n        /* \"#utility.yul\":12536:12556   */\n      sub\n        /* \"#utility.yul\":12532:12533   */\n      0x00\n        /* \"#utility.yul\":12521:12530   */\n      dup4\n        /* \"#utility.yul\":12517:12534   */\n      add\n        /* \"#utility.yul\":12510:12557   */\n      mstore\n        /* \"#utility.yul\":12574:12705   */\n      tag_399\n        /* \"#utility.yul\":12700:12704   */\n      dup2\n        /* \"#utility.yul\":12574:12705   */\n      tag_253\n      jump\t// in\n    tag_399:\n        /* \"#utility.yul\":12566:12705   */\n      swap1\n      pop\n        /* \"#utility.yul\":12293:12712   */\n      swap2\n      swap1\n      pop\n      jump\t// out\n        /* \"#utility.yul\":12718:13151   */\n    tag_254:\n        /* \"#utility.yul\":12858:12892   */\n      0x60746f6b656e49646020746f6b656e206d75737420657869737420616e642062\n        /* \"#utility.yul\":12854:12855   */\n      0x00\n        /* \"#utility.yul\":12846:12852   */\n      dup3\n        /* \"#utility.yul\":12842:12856   */\n      add\n        /* \"#utility.yul\":12835:12893   */\n      mstore\n        /* \"#utility.yul\":12927:12961   */\n      0x65206f776e6564206279206066726f6d60206f72206066726f6d60206d757374\n        /* \"#utility.yul\":12922:12924   */\n      0x20\n        /* \"#utility.yul\":12914:12920   */\n      dup3\n        /* \"#utility.yul\":12910:12925   */\n      add\n        /* \"#utility.yul\":12903:12962   */\n      mstore\n        /* \"#utility.yul\":12996:13030   */\n      0x20626520617070726f76656420746f206d6f7665207468697320746f6b656e20\n        /* \"#utility.yul\":12991:12993   */\n      0x40\n        /* \"#utility.yul\":12983:12989   */\n      dup3\n        /* \"#utility.yul\":12979:12994   */\n      add\n        /* \"#utility.yul\":12972:13031   */\n      mstore\n        /* \"#utility.yul\":13065:13099   */\n      0x62792065697468657220617070726f7665206f7220736574417070726f76616c\n        /* \"#utility.yul\":13060:13062   */\n      0x60\n        /* \"#utility.yul\":13052:13058   */\n      dup3\n        /* \"#utility.yul\":13048:13063   */\n      add\n        /* \"#utility.yul\":13041:13100   */\n      mstore\n        /* \"#utility.yul\":13135:13143   */\n      0x466f72416c6c0000000000000000000000000000000000000000000000000000\n        /* \"#utility.yul\":13129:13132   */\n      0x80\n        /* \"#utility.yul\":13121:13127   */\n      dup3\n        /* \"#utility.yul\":13117:13133   */\n      add\n        /* \"#utility.yul\":13110:13144   */\n      mstore\n        /* \"#utility.yul\":12718:13151   */\n      pop\n      jump\t// out\n        /* \"#utility.yul\":13157:13525   */\n    tag_255:\n        /* \"#utility.yul\":13299:13302   */\n      0x00\n        /* \"#utility.yul\":13320:13388   */\n      tag_402\n        /* \"#utility.yul\":13384:13387   */\n      0x86\n        /* \"#utility.yul\":13379:13382   */\n      dup4\n        /* \"#utility.yul\":13320:13388   */\n      tag_228\n      jump\t// in\n    tag_402:\n        /* \"#utility.yul\":13313:13388   */\n      swap2\n      pop\n        /* \"#utility.yul\":13397:13490   */\n      tag_403\n        /* \"#utility.yul\":13486:13489   */\n      dup3\n        /* \"#utility.yul\":13397:13490   */\n      tag_254\n      jump\t// in\n    tag_403:\n        /* \"#utility.yul\":13515:13518   */\n      0xa0\n        /* \"#utility.yul\":13510:13513   */\n      dup3\n        /* \"#utility.yul\":13506:13519   */\n      add\n        /* \"#utility.yul\":13499:13519   */\n      swap1\n      pop\n        /* \"#utility.yul\":13157:13525   */\n      swap2\n      swap1\n      pop\n      jump\t// out\n        /* \"#utility.yul\":13531:13950   */\n    tag_119:\n        /* \"#utility.yul\":13697:13701   */\n      0x00\n        /* \"#utility.yul\":13735:13737   */\n      0x20\n        /* \"#utility.yul\":13724:13733   */\n      dup3\n        /* \"#utility.yul\":13720:13738   */\n      add\n        /* \"#utility.yul\":13712:13738   */\n      swap1\n      pop\n        /* \"#utility.yul\":13784:13793   */\n      dup2\n        /* \"#utility.yul\":13778:13782   */\n      dup2\n        /* \"#utility.yul\":13774:13794   */\n      sub\n        /* \"#utility.yul\":13770:13771   */\n      0x00\n        /* \"#utility.yul\":13759:13768   */\n      dup4\n        /* \"#utility.yul\":13755:13772   */\n      add\n        /* \"#utility.yul\":13748:13795   */\n      mstore\n        /* \"#utility.yul\":13812:13943   */\n      tag_405\n        /* \"#utility.yul\":13938:13942   */\n      dup2\n        /* \"#utility.yul\":13812:13943   */\n      tag_255\n      jump\t// in\n    tag_405:\n        /* \"#utility.yul\":13804:13943   */\n      swap1\n      pop\n        /* \"#utility.yul\":13531:13950   */\n      swap2\n      swap1\n      pop\n      jump\t// out\n        /* \"#utility.yul\":13956:14185   */\n    tag_256:\n        /* \"#utility.yul\":14096:14130   */\n      0x54686520606f70657261746f72602063616e6e6f742062652074686520616464\n        /* \"#utility.yul\":14092:14093   */\n      0x00\n        /* \"#utility.yul\":14084:14090   */\n      dup3\n        /* \"#utility.yul\":14080:14094   */\n      add\n        /* \"#utility.yul\":14073:14131   */\n      mstore\n        /* \"#utility.yul\":14165:14177   */\n      0x72657373207a65726f2e00000000000000000000000000000000000000000000\n        /* \"#utility.yul\":14160:14162   */\n      0x20\n        /* \"#utility.yul\":14152:14158   */\n      dup3\n        /* \"#utility.yul\":14148:14163   */\n      add\n        /* \"#utility.yul\":14141:14178   */\n      mstore\n        /* \"#utility.yul\":13956:14185   */\n      pop\n      jump\t// out\n        /* \"#utility.yul\":14191:14557   */\n    tag_257:\n        /* \"#utility.yul\":14333:14336   */\n      0x00\n        /* \"#utility.yul\":14354:14421   */\n      tag_408\n        /* \"#utility.yul\":14418:14420   */\n      0x2a\n        /* \"#utility.yul\":14413:14416   */\n      dup4\n        /* \"#utility.yul\":14354:14421   */\n      tag_228\n      jump\t// in\n    tag_408:\n        /* \"#utility.yul\":14347:14421   */\n      swap2\n      pop\n        /* \"#utility.yul\":14430:14523   */\n      tag_409\n        /* \"#utility.yul\":14519:14522   */\n      dup3\n        /* \"#utility.yul\":14430:14523   */\n      tag_256\n      jump\t// in\n    tag_409:\n        /* \"#utility.yul\":14548:14550   */\n      0x40\n        /* \"#utility.yul\":14543:14546   */\n      dup3\n        /* \"#utility.yul\":14539:14551   */\n      add\n        /* \"#utility.yul\":14532:14551   */\n      swap1\n      pop\n        /* \"#utility.yul\":14191:14557   */\n      swap2\n      swap1\n      pop\n      jump\t// out\n        /* \"#utility.yul\":14563:14982   */\n    tag_134:\n        /* \"#utility.yul\":14729:14733   */\n      0x00\n        /* \"#utility.yul\":14767:14769   */\n      0x20\n        /* \"#utility.yul\":14756:14765   */\n      dup3\n        /* \"#utility.yul\":14752:14770   */\n      add\n        /* \"#utility.yul\":14744:14770   */\n      swap1\n      pop\n        /* \"#utility.yul\":14816:14825   */\n      dup2\n        /* \"#utility.yul\":14810:14814   */\n      dup2\n        /* \"#utility.yul\":14806:14826   */\n      sub\n        /* \"#utility.yul\":14802:14803   */\n      0x00\n        /* \"#utility.yul\":14791:14800   */\n      dup4\n        /* \"#utility.yul\":14787:14804   */\n      add\n        /* \"#utility.yul\":14780:14827   */\n      mstore\n        /* \"#utility.yul\":14844:14975   */\n      tag_411\n        /* \"#utility.yul\":14970:14974   */\n      dup2\n        /* \"#utility.yul\":14844:14975   */\n      tag_257\n      jump\t// in\n    tag_411:\n        /* \"#utility.yul\":14836:14975   */\n      swap1\n      pop\n        /* \"#utility.yul\":14563:14982   */\n      swap2\n      swap1\n      pop\n      jump\t// out\n        /* \"#utility.yul\":14988:15136   */\n    tag_258:\n        /* \"#utility.yul\":15090:15101   */\n      0x00\n        /* \"#utility.yul\":15127:15130   */\n      dup2\n        /* \"#utility.yul\":15112:15130   */\n      swap1\n      pop\n        /* \"#utility.yul\":14988:15136   */\n      swap3\n      swap2\n      pop\n      pop\n      jump\t// out\n        /* \"#utility.yul\":15142:15532   */\n    tag_259:\n        /* \"#utility.yul\":15248:15251   */\n      0x00\n        /* \"#utility.yul\":15276:15315   */\n      tag_414\n        /* \"#utility.yul\":15309:15314   */\n      dup3\n        /* \"#utility.yul\":15276:15315   */\n      tag_227\n      jump\t// in\n    tag_414:\n        /* \"#utility.yul\":15331:15420   */\n      tag_415\n        /* \"#utility.yul\":15413:15419   */\n      dup2\n        /* \"#utility.yul\":15408:15411   */\n      dup6\n        /* \"#utility.yul\":15331:15420   */\n      tag_258\n      jump\t// in\n    tag_415:\n        /* \"#utility.yul\":15324:15420   */\n      swap4\n      pop\n        /* \"#utility.yul\":15429:15494   */\n      tag_416\n        /* \"#utility.yul\":15487:15493   */\n      dup2\n        /* \"#utility.yul\":15482:15485   */\n      dup6\n        /* \"#utility.yul\":15475:15479   */\n      0x20\n        /* \"#utility.yul\":15468:15473   */\n      dup7\n        /* \"#utility.yul\":15464:15480   */\n      add\n        /* \"#utility.yul\":15429:15494   */\n      tag_229\n      jump\t// in\n    tag_416:\n        /* \"#utility.yul\":15519:15525   */\n      dup1\n        /* \"#utility.yul\":15514:15517   */\n      dup5\n        /* \"#utility.yul\":15510:15526   */\n      add\n        /* \"#utility.yul\":15503:15526   */\n      swap2\n      pop\n        /* \"#utility.yul\":15252:15532   */\n      pop\n        /* \"#utility.yul\":15142:15532   */\n      swap3\n      swap2\n      pop\n      pop\n      jump\t// out\n        /* \"#utility.yul\":15538:15973   */\n    tag_152:\n        /* \"#utility.yul\":15718:15721   */\n      0x00\n        /* \"#utility.yul\":15740:15835   */\n      tag_418\n        /* \"#utility.yul\":15831:15834   */\n      dup3\n        /* \"#utility.yul\":15822:15828   */\n      dup6\n        /* \"#utility.yul\":15740:15835   */\n      tag_259\n      jump\t// in\n    tag_418:\n        /* \"#utility.yul\":15733:15835   */\n      swap2\n      pop\n        /* \"#utility.yul\":15852:15947   */\n      tag_419\n        /* \"#utility.yul\":15943:15946   */\n      dup3\n        /* \"#utility.yul\":15934:15940   */\n      dup5\n        /* \"#utility.yul\":15852:15947   */\n      tag_259\n      jump\t// in\n    tag_419:\n        /* \"#utility.yul\":15845:15947   */\n      swap2\n      pop\n        /* \"#utility.yul\":15964:15967   */\n      dup2\n        /* \"#utility.yul\":15957:15967   */\n      swap1\n      pop\n        /* \"#utility.yul\":15538:15973   */\n      swap4\n      swap3\n      pop\n      pop\n      pop\n      jump\t// out\n        /* \"#utility.yul\":15979:16077   */\n    tag_260:\n        /* \"#utility.yul\":16030:16036   */\n      0x00\n        /* \"#utility.yul\":16064:16069   */\n      dup2\n        /* \"#utility.yul\":16058:16070   */\n      mload\n        /* \"#utility.yul\":16048:16070   */\n      swap1\n      pop\n        /* \"#utility.yul\":15979:16077   */\n      swap2\n      swap1\n      pop\n      jump\t// out\n        /* \"#utility.yul\":16083:16251   */\n    tag_261:\n        /* \"#utility.yul\":16166:16177   */\n      0x00\n        /* \"#utility.yul\":16200:16206   */\n      dup3\n        /* \"#utility.yul\":16195:16198   */\n      dup3\n        /* \"#utility.yul\":16188:16207   */\n      mstore\n        /* \"#utility.yul\":16240:16244   */\n      0x20\n        /* \"#utility.yul\":16235:16238   */\n      dup3\n        /* \"#utility.yul\":16231:16245   */\n      add\n        /* \"#utility.yul\":16216:16245   */\n      swap1\n      pop\n        /* \"#utility.yul\":16083:16251   */\n      swap3\n      swap2\n      pop\n      pop\n      jump\t// out\n        /* \"#utility.yul\":16257:16630   */\n    tag_262:\n        /* \"#utility.yul\":16343:16346   */\n      0x00\n        /* \"#utility.yul\":16371:16409   */\n      tag_423\n        /* \"#utility.yul\":16403:16408   */\n      dup3\n        /* \"#utility.yul\":16371:16409   */\n      tag_260\n      jump\t// in\n    tag_423:\n        /* \"#utility.yul\":16425:16495   */\n      tag_424\n        /* \"#utility.yul\":16488:16494   */\n      dup2\n        /* \"#utility.yul\":16483:16486   */\n      dup6\n        /* \"#utility.yul\":16425:16495   */\n      tag_261\n      jump\t// in\n    tag_424:\n        /* \"#utility.yul\":16418:16495   */\n      swap4\n      pop\n        /* \"#utility.yul\":16504:16569   */\n      tag_425\n        /* \"#utility.yul\":16562:16568   */\n      dup2\n        /* \"#utility.yul\":16557:16560   */\n      dup6\n        /* \"#utility.yul\":16550:16554   */\n      0x20\n        /* \"#utility.yul\":16543:16548   */\n      dup7\n        /* \"#utility.yul\":16539:16555   */\n      add\n        /* \"#utility.yul\":16504:16569   */\n      tag_229\n      jump\t// in\n    tag_425:\n        /* \"#utility.yul\":16594:16623   */\n      tag_426\n        /* \"#utility.yul\":16616:16622   */\n      dup2\n        /* \"#utility.yul\":16594:16623   */\n      tag_230\n      jump\t// in\n    tag_426:\n        /* \"#utility.yul\":16589:16592   */\n      dup5\n        /* \"#utility.yul\":16585:16624   */\n      add\n        /* \"#utility.yul\":16578:16624   */\n      swap2\n      pop\n        /* \"#utility.yul\":16347:16630   */\n      pop\n        /* \"#utility.yul\":16257:16630   */\n      swap3\n      swap2\n      pop\n      pop\n      jump\t// out\n        /* \"#utility.yul\":16636:17276   */\n    tag_157:\n        /* \"#utility.yul\":16831:16835   */\n      0x00\n        /* \"#utility.yul\":16869:16872   */\n      0x80\n        /* \"#utility.yul\":16858:16867   */\n      dup3\n        /* \"#utility.yul\":16854:16873   */\n      add\n        /* \"#utility.yul\":16846:16873   */\n      swap1\n      pop\n        /* \"#utility.yul\":16883:16954   */\n      tag_428\n        /* \"#utility.yul\":16951:16952   */\n      0x00\n        /* \"#utility.yul\":16940:16949   */\n      dup4\n        /* \"#utility.yul\":16936:16953   */\n      add\n        /* \"#utility.yul\":16927:16933   */\n      dup8\n        /* \"#utility.yul\":16883:16954   */\n      tag_237\n      jump\t// in\n    tag_428:\n        /* \"#utility.yul\":16964:17036   */\n      tag_429\n        /* \"#utility.yul\":17032:17034   */\n      0x20\n        /* \"#utility.yul\":17021:17030   */\n      dup4\n        /* \"#utility.yul\":17017:17035   */\n      add\n        /* \"#utility.yul\":17008:17014   */\n      dup7\n        /* \"#utility.yul\":16964:17036   */\n      tag_237\n      jump\t// in\n    tag_429:\n        /* \"#utility.yul\":17046:17118   */\n      tag_430\n        /* \"#utility.yul\":17114:17116   */\n      0x40\n        /* \"#utility.yul\":17103:17112   */\n      dup4\n        /* \"#utility.yul\":17099:17117   */\n      add\n        /* \"#utility.yul\":17090:17096   */\n      dup6\n        /* \"#utility.yul\":17046:17118   */\n      tag_240\n      jump\t// in\n    tag_430:\n        /* \"#utility.yul\":17165:17174   */\n      dup2\n        /* \"#utility.yul\":17159:17163   */\n      dup2\n        /* \"#utility.yul\":17155:17175   */\n      sub\n        /* \"#utility.yul\":17150:17152   */\n      0x60\n        /* \"#utility.yul\":17139:17148   */\n      dup4\n        /* \"#utility.yul\":17135:17153   */\n      add\n        /* \"#utility.yul\":17128:17176   */\n      mstore\n        /* \"#utility.yul\":17193:17269   */\n      tag_431\n        /* \"#utility.yul\":17264:17268   */\n      dup2\n        /* \"#utility.yul\":17255:17261   */\n      dup5\n        /* \"#utility.yul\":17193:17269   */\n      tag_262\n      jump\t// in\n    tag_431:\n        /* \"#utility.yul\":17185:17269   */\n      swap1\n      pop\n        /* \"#utility.yul\":16636:17276   */\n      swap6\n      swap5\n      pop\n      pop\n      pop\n      pop\n      pop\n      jump\t// out\n        /* \"#utility.yul\":17282:17423   */\n    tag_263:\n        /* \"#utility.yul\":17338:17343   */\n      0x00\n        /* \"#utility.yul\":17369:17375   */\n      dup2\n        /* \"#utility.yul\":17363:17376   */\n      mload\n        /* \"#utility.yul\":17354:17376   */\n      swap1\n      pop\n        /* \"#utility.yul\":17385:17417   */\n      tag_433\n        /* \"#utility.yul\":17411:17416   */\n      dup2\n        /* \"#utility.yul\":17385:17417   */\n      tag_223\n      jump\t// in\n    tag_433:\n        /* \"#utility.yul\":17282:17423   */\n      swap3\n      swap2\n      pop\n      pop\n      jump\t// out\n        /* \"#utility.yul\":17429:17778   */\n    tag_160:\n        /* \"#utility.yul\":17498:17504   */\n      0x00\n        /* \"#utility.yul\":17547:17549   */\n      0x20\n        /* \"#utility.yul\":17535:17544   */\n      dup3\n        /* \"#utility.yul\":17526:17533   */\n      dup5\n        /* \"#utility.yul\":17522:17545   */\n      sub\n        /* \"#utility.yul\":17518:17550   */\n      slt\n        /* \"#utility.yul\":17515:17634   */\n      iszero\n      tag_435\n      jumpi\n        /* \"#utility.yul\":17553:17632   */\n      tag_436\n      tag_220\n      jump\t// in\n    tag_436:\n        /* \"#utility.yul\":17515:17634   */\n    tag_435:\n        /* \"#utility.yul\":17673:17674   */\n      0x00\n        /* \"#utility.yul\":17698:17761   */\n      tag_437\n        /* \"#utility.yul\":17753:17760   */\n      dup5\n        /* \"#utility.yul\":17744:17750   */\n      dup3\n        /* \"#utility.yul\":17733:17742   */\n      dup6\n        /* \"#utility.yul\":17729:17751   */\n      add\n        /* \"#utility.yul\":17698:17761   */\n      tag_263\n      jump\t// in\n    tag_437:\n        /* \"#utility.yul\":17688:17761   */\n      swap2\n      pop\n        /* \"#utility.yul\":17644:17771   */\n      pop\n        /* \"#utility.yul\":17429:17778   */\n      swap3\n      swap2\n      pop\n      pop\n      jump\t// out\n        /* \"#utility.yul\":17784:17964   */\n    tag_264:\n        /* \"#utility.yul\":17832:17909   */\n      0x4e487b7100000000000000000000000000000000000000000000000000000000\n        /* \"#utility.yul\":17829:17830   */\n      0x00\n        /* \"#utility.yul\":17822:17910   */\n      mstore\n        /* \"#utility.yul\":17929:17933   */\n      0x11\n        /* \"#utility.yul\":17926:17927   */\n      0x04\n        /* \"#utility.yul\":17919:17934   */\n      mstore\n        /* \"#utility.yul\":17953:17957   */\n      0x24\n        /* \"#utility.yul\":17950:17951   */\n      0x00\n        /* \"#utility.yul\":17943:17958   */\n      revert\n        /* \"#utility.yul\":17970:18164   */\n    tag_175:\n        /* \"#utility.yul\":18010:18014   */\n      0x00\n        /* \"#utility.yul\":18030:18050   */\n      tag_440\n        /* \"#utility.yul\":18048:18049   */\n      dup3\n        /* \"#utility.yul\":18030:18050   */\n      tag_232\n      jump\t// in\n    tag_440:\n        /* \"#utility.yul\":18025:18050   */\n      swap2\n      pop\n        /* \"#utility.yul\":18064:18084   */\n      tag_441\n        /* \"#utility.yul\":18082:18083   */\n      dup4\n        /* \"#utility.yul\":18064:18084   */\n      tag_232\n      jump\t// in\n    tag_441:\n        /* \"#utility.yul\":18059:18084   */\n      swap3\n      pop\n        /* \"#utility.yul\":18108:18109   */\n      dup3\n        /* \"#utility.yul\":18105:18106   */\n      dup3\n        /* \"#utility.yul\":18101:18110   */\n      sub\n        /* \"#utility.yul\":18093:18110   */\n      swap1\n      pop\n        /* \"#utility.yul\":18132:18133   */\n      dup2\n        /* \"#utility.yul\":18126:18130   */\n      dup2\n        /* \"#utility.yul\":18123:18134   */\n      gt\n        /* \"#utility.yul\":18120:18157   */\n      iszero\n      tag_442\n      jumpi\n        /* \"#utility.yul\":18137:18155   */\n      tag_443\n      tag_264\n      jump\t// in\n    tag_443:\n        /* \"#utility.yul\":18120:18157   */\n    tag_442:\n        /* \"#utility.yul\":17970:18164   */\n      swap3\n      swap2\n      pop\n      pop\n      jump\t// out\n        /* \"#utility.yul\":18170:18361   */\n    tag_177:\n        /* \"#utility.yul\":18210:18213   */\n      0x00\n        /* \"#utility.yul\":18229:18249   */\n      tag_445\n        /* \"#utility.yul\":18247:18248   */\n      dup3\n        /* \"#utility.yul\":18229:18249   */\n      tag_232\n      jump\t// in\n    tag_445:\n        /* \"#utility.yul\":18224:18249   */\n      swap2\n      pop\n        /* \"#utility.yul\":18263:18283   */\n      tag_446\n        /* \"#utility.yul\":18281:18282   */\n      dup4\n        /* \"#utility.yul\":18263:18283   */\n      tag_232\n      jump\t// in\n    tag_446:\n        /* \"#utility.yul\":18258:18283   */\n      swap3\n      pop\n        /* \"#utility.yul\":18306:18307   */\n      dup3\n        /* \"#utility.yul\":18303:18304   */\n      dup3\n        /* \"#utility.yul\":18299:18308   */\n      add\n        /* \"#utility.yul\":18292:18308   */\n      swap1\n      pop\n        /* \"#utility.yul\":18327:18330   */\n      dup1\n        /* \"#utility.yul\":18324:18325   */\n      dup3\n        /* \"#utility.yul\":18321:18331   */\n      gt\n        /* \"#utility.yul\":18318:18354   */\n      iszero\n      tag_447\n      jumpi\n        /* \"#utility.yul\":18334:18352   */\n      tag_448\n      tag_264\n      jump\t// in\n    tag_448:\n        /* \"#utility.yul\":18318:18354   */\n    tag_447:\n        /* \"#utility.yul\":18170:18361   */\n      swap3\n      swap2\n      pop\n      pop\n      jump\t// out\n        /* \"#utility.yul\":18367:18548   */\n    tag_265:\n        /* \"#utility.yul\":18507:18540   */\n      0x60746f602063616e6e6f7420626520746865207a65726f206164647265737300\n        /* \"#utility.yul\":18503:18504   */\n      0x00\n        /* \"#utility.yul\":18495:18501   */\n      dup3\n        /* \"#utility.yul\":18491:18505   */\n      add\n        /* \"#utility.yul\":18484:18541   */\n      mstore\n        /* \"#utility.yul\":18367:18548   */\n      pop\n      jump\t// out\n        /* \"#utility.yul\":18554:18920   */\n    tag_266:\n        /* \"#utility.yul\":18696:18699   */\n      0x00\n        /* \"#utility.yul\":18717:18784   */\n      tag_451\n        /* \"#utility.yul\":18781:18783   */\n      0x1f\n        /* \"#utility.yul\":18776:18779   */\n      dup4\n        /* \"#utility.yul\":18717:18784   */\n      tag_228\n      jump\t// in\n    tag_451:\n        /* \"#utility.yul\":18710:18784   */\n      swap2\n      pop\n        /* \"#utility.yul\":18793:18886   */\n      tag_452\n        /* \"#utility.yul\":18882:18885   */\n      dup3\n        /* \"#utility.yul\":18793:18886   */\n      tag_265\n      jump\t// in\n    tag_452:\n        /* \"#utility.yul\":18911:18913   */\n      0x20\n        /* \"#utility.yul\":18906:18909   */\n      dup3\n        /* \"#utility.yul\":18902:18914   */\n      add\n        /* \"#utility.yul\":18895:18914   */\n      swap1\n      pop\n        /* \"#utility.yul\":18554:18920   */\n      swap2\n      swap1\n      pop\n      jump\t// out\n        /* \"#utility.yul\":18926:19345   */\n    tag_181:\n        /* \"#utility.yul\":19092:19096   */\n      0x00\n        /* \"#utility.yul\":19130:19132   */\n      0x20\n        /* \"#utility.yul\":19119:19128   */\n      dup3\n        /* \"#utility.yul\":19115:19133   */\n      add\n        /* \"#utility.yul\":19107:19133   */\n      swap1\n      pop\n        /* \"#utility.yul\":19179:19188   */\n      dup2\n        /* \"#utility.yul\":19173:19177   */\n      dup2\n        /* \"#utility.yul\":19169:19189   */\n      sub\n        /* \"#utility.yul\":19165:19166   */\n      0x00\n        /* \"#utility.yul\":19154:19163   */\n      dup4\n        /* \"#utility.yul\":19150:19167   */\n      add\n        /* \"#utility.yul\":19143:19190   */\n      mstore\n        /* \"#utility.yul\":19207:19338   */\n      tag_454\n        /* \"#utility.yul\":19333:19337   */\n      dup2\n        /* \"#utility.yul\":19207:19338   */\n      tag_266\n      jump\t// in\n    tag_454:\n        /* \"#utility.yul\":19199:19338   */\n      swap1\n      pop\n        /* \"#utility.yul\":18926:19345   */\n      swap2\n      swap1\n      pop\n      jump\t// out\n        /* \"#utility.yul\":19351:19522   */\n    tag_267:\n        /* \"#utility.yul\":19491:19514   */\n      0x746f6b656e20686173206265656e206d696e7465640000000000000000000000\n        /* \"#utility.yul\":19487:19488   */\n      0x00\n        /* \"#utility.yul\":19479:19485   */\n      dup3\n        /* \"#utility.yul\":19475:19489   */\n      add\n        /* \"#utility.yul\":19468:19515   */\n      mstore\n        /* \"#utility.yul\":19351:19522   */\n      pop\n      jump\t// out\n        /* \"#utility.yul\":19528:19894   */\n    tag_268:\n        /* \"#utility.yul\":19670:19673   */\n      0x00\n        /* \"#utility.yul\":19691:19758   */\n      tag_457\n        /* \"#utility.yul\":19755:19757   */\n      0x15\n        /* \"#utility.yul\":19750:19753   */\n      dup4\n        /* \"#utility.yul\":19691:19758   */\n      tag_228\n      jump\t// in\n    tag_457:\n        /* \"#utility.yul\":19684:19758   */\n      swap2\n      pop\n        /* \"#utility.yul\":19767:19860   */\n      tag_458\n        /* \"#utility.yul\":19856:19859   */\n      dup3\n        /* \"#utility.yul\":19767:19860   */\n      tag_267\n      jump\t// in\n    tag_458:\n        /* \"#utility.yul\":19885:19887   */\n      0x20\n        /* \"#utility.yul\":19880:19883   */\n      dup3\n        /* \"#utility.yul\":19876:19888   */\n      add\n        /* \"#utility.yul\":19869:19888   */\n      swap1\n      pop\n        /* \"#utility.yul\":19528:19894   */\n      swap2\n      swap1\n      pop\n      jump\t// out\n        /* \"#utility.yul\":19900:20319   */\n    tag_184:\n        /* \"#utility.yul\":20066:20070   */\n      0x00\n        /* \"#utility.yul\":20104:20106   */\n      0x20\n        /* \"#utility.yul\":20093:20102   */\n      dup3\n        /* \"#utility.yul\":20089:20107   */\n      add\n        /* \"#utility.yul\":20081:20107   */\n      swap1\n      pop\n        /* \"#utility.yul\":20153:20162   */\n      dup2\n        /* \"#utility.yul\":20147:20151   */\n      dup2\n        /* \"#utility.yul\":20143:20163   */\n      sub\n        /* \"#utility.yul\":20139:20140   */\n      0x00\n        /* \"#utility.yul\":20128:20137   */\n      dup4\n        /* \"#utility.yul\":20124:20141   */\n      add\n        /* \"#utility.yul\":20117:20164   */\n      mstore\n        /* \"#utility.yul\":20181:20312   */\n      tag_460\n        /* \"#utility.yul\":20307:20311   */\n      dup2\n        /* \"#utility.yul\":20181:20312   */\n      tag_268\n      jump\t// in\n    tag_460:\n        /* \"#utility.yul\":20173:20312   */\n      swap1\n      pop\n        /* \"#utility.yul\":19900:20319   */\n      swap2\n      swap1\n      pop\n      jump\t// out\n        /* \"#utility.yul\":20325:20545   */\n    tag_269:\n        /* \"#utility.yul\":20465:20499   */\n      0x6066726f6d602063616e6e6f7420626520746865207a65726f20616464726573\n        /* \"#utility.yul\":20461:20462   */\n      0x00\n        /* \"#utility.yul\":20453:20459   */\n      dup3\n        /* \"#utility.yul\":20449:20463   */\n      add\n        /* \"#utility.yul\":20442:20500   */\n      mstore\n        /* \"#utility.yul\":20534:20537   */\n      0x7300000000000000000000000000000000000000000000000000000000000000\n        /* \"#utility.yul\":20529:20531   */\n      0x20\n        /* \"#utility.yul\":20521:20527   */\n      dup3\n        /* \"#utility.yul\":20517:20532   */\n      add\n        /* \"#utility.yul\":20510:20538   */\n      mstore\n        /* \"#utility.yul\":20325:20545   */\n      pop\n      jump\t// out\n        /* \"#utility.yul\":20551:20917   */\n    tag_270:\n        /* \"#utility.yul\":20693:20696   */\n      0x00\n        /* \"#utility.yul\":20714:20781   */\n      tag_463\n        /* \"#utility.yul\":20778:20780   */\n      0x21\n        /* \"#utility.yul\":20773:20776   */\n      dup4\n        /* \"#utility.yul\":20714:20781   */\n      tag_228\n      jump\t// in\n    tag_463:\n        /* \"#utility.yul\":20707:20781   */\n      swap2\n      pop\n        /* \"#utility.yul\":20790:20883   */\n      tag_464\n        /* \"#utility.yul\":20879:20882   */\n      dup3\n        /* \"#utility.yul\":20790:20883   */\n      tag_269\n      jump\t// in\n    tag_464:\n        /* \"#utility.yul\":20908:20910   */\n      0x40\n        /* \"#utility.yul\":20903:20906   */\n      dup3\n        /* \"#utility.yul\":20899:20911   */\n      add\n        /* \"#utility.yul\":20892:20911   */\n      swap1\n      pop\n        /* \"#utility.yul\":20551:20917   */\n      swap2\n      swap1\n      pop\n      jump\t// out\n        /* \"#utility.yul\":20923:21342   */\n    tag_189:\n        /* \"#utility.yul\":21089:21093   */\n      0x00\n        /* \"#utility.yul\":21127:21129   */\n      0x20\n        /* \"#utility.yul\":21116:21125   */\n      dup3\n        /* \"#utility.yul\":21112:21130   */\n      add\n        /* \"#utility.yul\":21104:21130   */\n      swap1\n      pop\n        /* \"#utility.yul\":21176:21185   */\n      dup2\n        /* \"#utility.yul\":21170:21174   */\n      dup2\n        /* \"#utility.yul\":21166:21186   */\n      sub\n        /* \"#utility.yul\":21162:21163   */\n      0x00\n        /* \"#utility.yul\":21151:21160   */\n      dup4\n        /* \"#utility.yul\":21147:21164   */\n      add\n        /* \"#utility.yul\":21140:21187   */\n      mstore\n        /* \"#utility.yul\":21204:21335   */\n      tag_466\n        /* \"#utility.yul\":21330:21334   */\n      dup2\n        /* \"#utility.yul\":21204:21335   */\n      tag_270\n      jump\t// in\n    tag_466:\n        /* \"#utility.yul\":21196:21335   */\n      swap1\n      pop\n        /* \"#utility.yul\":20923:21342   */\n      swap2\n      swap1\n      pop\n      jump\t// out\n        /* \"#utility.yul\":21348:21581   */\n    tag_202:\n        /* \"#utility.yul\":21387:21390   */\n      0x00\n        /* \"#utility.yul\":21410:21434   */\n      tag_468\n        /* \"#utility.yul\":21428:21433   */\n      dup3\n        /* \"#utility.yul\":21410:21434   */\n      tag_232\n      jump\t// in\n    tag_468:\n        /* \"#utility.yul\":21401:21434   */\n      swap2\n      pop\n        /* \"#utility.yul\":21456:21522   */\n      0xffffffffffffffffffffffffffffffffffffffffffffffffffffffffffffffff\n        /* \"#utility.yul\":21449:21454   */\n      dup3\n        /* \"#utility.yul\":21446:21523   */\n      sub\n        /* \"#utility.yul\":21443:21546   */\n      tag_469\n      jumpi\n        /* \"#utility.yul\":21526:21544   */\n      tag_470\n      tag_264\n      jump\t// in\n    tag_470:\n        /* \"#utility.yul\":21443:21546   */\n    tag_469:\n        /* \"#utility.yul\":21573:21574   */\n      0x01\n        /* \"#utility.yul\":21566:21571   */\n      dup3\n        /* \"#utility.yul\":21562:21575   */\n      add\n        /* \"#utility.yul\":21555:21575   */\n      swap1\n      pop\n        /* \"#utility.yul\":21348:21581   */\n      swap2\n      swap1\n      pop\n      jump\t// out\n        /* \"#utility.yul\":21587:21767   */\n    tag_271:\n        /* \"#utility.yul\":21635:21712   */\n      0x4e487b7100000000000000000000000000000000000000000000000000000000\n        /* \"#utility.yul\":21632:21633   */\n      0x00\n        /* \"#utility.yul\":21625:21713   */\n      mstore\n        /* \"#utility.yul\":21732:21736   */\n      0x12\n        /* \"#utility.yul\":21729:21730   */\n      0x04\n        /* \"#utility.yul\":21722:21737   */\n      mstore\n        /* \"#utility.yul\":21756:21760   */\n      0x24\n        /* \"#utility.yul\":21753:21754   */\n      0x00\n        /* \"#utility.yul\":21746:21761   */\n      revert\n        /* \"#utility.yul\":21773:21958   */\n    tag_204:\n        /* \"#utility.yul\":21813:21814   */\n      0x00\n        /* \"#utility.yul\":21830:21850   */\n      tag_473\n        /* \"#utility.yul\":21848:21849   */\n      dup3\n        /* \"#utility.yul\":21830:21850   */\n      tag_232\n      jump\t// in\n    tag_473:\n        /* \"#utility.yul\":21825:21850   */\n      swap2\n      pop\n        /* \"#utility.yul\":21864:21884   */\n      tag_474\n        /* \"#utility.yul\":21882:21883   */\n      dup4\n        /* \"#utility.yul\":21864:21884   */\n      tag_232\n      jump\t// in\n    tag_474:\n        /* \"#utility.yul\":21859:21884   */\n      swap3\n      pop\n        /* \"#utility.yul\":21903:21904   */\n      dup3\n        /* \"#utility.yul\":21893:21928   */\n      tag_475\n      jumpi\n        /* \"#utility.yul\":21908:21926   */\n      tag_476\n      tag_271\n      jump\t// in\n    tag_476:\n        /* \"#utility.yul\":21893:21928   */\n    tag_475:\n        /* \"#utility.yul\":21950:21951   */\n      dup3\n        /* \"#utility.yul\":21947:21948   */\n      dup3\n        /* \"#utility.yul\":21943:21952   */\n      div\n        /* \"#utility.yul\":21938:21952   */\n      swap1\n      pop\n        /* \"#utility.yul\":21773:21958   */\n      swap3\n      swap2\n      pop\n      pop\n      jump\t// out\n        /* \"#utility.yul\":21964:22144   */\n    tag_207:\n        /* \"#utility.yul\":22012:22089   */\n      0x4e487b7100000000000000000000000000000000000000000000000000000000\n        /* \"#utility.yul\":22009:22010   */\n      0x00\n        /* \"#utility.yul\":22002:22090   */\n      mstore\n        /* \"#utility.yul\":22109:22113   */\n      0x41\n        /* \"#utility.yul\":22106:22107   */\n      0x04\n        /* \"#utility.yul\":22099:22114   */\n      mstore\n        /* \"#utility.yul\":22133:22137   */\n      0x24\n        /* \"#utility.yul\":22130:22131   */\n      0x00\n        /* \"#utility.yul\":22123:22138   */\n      revert\n        /* \"#utility.yul\":22150:22326   */\n    tag_213:\n        /* \"#utility.yul\":22182:22183   */\n      0x00\n        /* \"#utility.yul\":22199:22219   */\n      tag_479\n        /* \"#utility.yul\":22217:22218   */\n      dup3\n        /* \"#utility.yul\":22199:22219   */\n      tag_232\n      jump\t// in\n    tag_479:\n        /* \"#utility.yul\":22194:22219   */\n      swap2\n      pop\n        /* \"#utility.yul\":22233:22253   */\n      tag_480\n        /* \"#utility.yul\":22251:22252   */\n      dup4\n        /* \"#utility.yul\":22233:22253   */\n      tag_232\n      jump\t// in\n    tag_480:\n        /* \"#utility.yul\":22228:22253   */\n      swap3\n      pop\n        /* \"#utility.yul\":22272:22273   */\n      dup3\n        /* \"#utility.yul\":22262:22297   */\n      tag_481\n      jumpi\n        /* \"#utility.yul\":22277:22295   */\n      tag_482\n      tag_271\n      jump\t// in\n    tag_482:\n        /* \"#utility.yul\":22262:22297   */\n    tag_481:\n        /* \"#utility.yul\":22318:22319   */\n      dup3\n        /* \"#utility.yul\":22315:22316   */\n      dup3\n        /* \"#utility.yul\":22311:22320   */\n      mod\n        /* \"#utility.yul\":22306:22320   */\n      swap1\n      pop\n        /* \"#utility.yul\":22150:22326   */\n      swap3\n      swap2\n      pop\n      pop\n      jump\t// out\n        /* \"#utility.yul\":22332:22512   */\n    tag_217:\n        /* \"#utility.yul\":22380:22457   */\n      0x4e487b7100000000000000000000000000000000000000000000000000000000\n        /* \"#utility.yul\":22377:22378   */\n      0x00\n        /* \"#utility.yul\":22370:22458   */\n      mstore\n        /* \"#utility.yul\":22477:22481   */\n      0x32\n        /* \"#utility.yul\":22474:22475   */\n      0x04\n        /* \"#utility.yul\":22467:22482   */\n      mstore\n        /* \"#utility.yul\":22501:22505   */\n      0x24\n        /* \"#utility.yul\":22498:22499   */\n      0x00\n        /* \"#utility.yul\":22491:22506   */\n      revert\n    stop\n    data_695c49d69a9524854e904cd2e5e6e5e31cb707deaafbe9a6f55d4bdf8d53c976 697066733a2f2f6261666b72656962336b6e686432797a77626236366363657a7835323336656a336476726f67716573356d6f767a6d65756b7066647366647368752f\n\n    auxdata: 0xa26469706673582212207525769c82f75dcc1f03bda1566e9409e98392bddf574f35eafdcd1d9c04532364736f6c634300081e0033\n}\n",
				"bytecode": {
					"linkReferences": {},
					"object": "6080604052612710600655348015610015575f5ffd5b5060405161294d38038061294d833981810160405281019061003791906101ae565b8181815f90816100479190610434565b5080600190816100579190610434565b5050505050610503565b5f604051905090565b5f5ffd5b5f5ffd5b5f5ffd5b5f5ffd5b5f601f19601f8301169050919050565b7f4e487b71000000000000000000000000000000000000000000000000000000005f52604160045260245ffd5b6100c08261007a565b810181811067ffffffffffffffff821117156100df576100de61008a565b5b80604052505050565b5f6100f1610061565b90506100fd82826100b7565b919050565b5f67ffffffffffffffff82111561011c5761011b61008a565b5b6101258261007a565b9050602081019050919050565b8281835e5f83830152505050565b5f61015261014d84610102565b6100e8565b90508281526020810184848401111561016e5761016d610076565b5b610179848285610132565b509392505050565b5f82601f83011261019557610194610072565b5b81516101a5848260208601610140565b91505092915050565b5f5f604083850312156101c4576101c361006a565b5b5f83015167ffffffffffffffff8111156101e1576101e061006e565b5b6101ed85828601610181565b925050602083015167ffffffffffffffff81111561020e5761020d61006e565b5b61021a85828601610181565b9150509250929050565b5f81519050919050565b7f4e487b71000000000000000000000000000000000000000000000000000000005f52602260045260245ffd5b5f600282049050600182168061027257607f821691505b6020821081036102855761028461022e565b5b50919050565b5f819050815f5260205f209050919050565b5f6020601f8301049050919050565b5f82821b905092915050565b5f600883026102e77fffffffffffffffffffffffffffffffffffffffffffffffffffffffffffffffff826102ac565b6102f186836102ac565b95508019841693508086168417925050509392505050565b5f819050919050565b5f819050919050565b5f61033561033061032b84610309565b610312565b610309565b9050919050565b5f819050919050565b61034e8361031b565b61036261035a8261033c565b8484546102b8565b825550505050565b5f5f905090565b61037961036a565b610384818484610345565b505050565b5b818110156103a75761039c5f82610371565b60018101905061038a565b5050565b601f8211156103ec576103bd8161028b565b6103c68461029d565b810160208510156103d5578190505b6103e96103e18561029d565b830182610389565b50505b505050565b5f82821c905092915050565b5f61040c5f19846008026103f1565b1980831691505092915050565b5f61042483836103fd565b9150826002028217905092915050565b61043d82610224565b67ffffffffffffffff8111156104565761045561008a565b5b610460825461025b565b61046b8282856103ab565b5f60209050601f83116001811461049c575f841561048a578287015190505b6104948582610419565b8655506104fb565b601f1984166104aa8661028b565b5f5b828110156104d1578489015182556001820191506020850194506020810190506104ac565b868310156104ee57848901516104ea601f8916826103fd565b8355505b6001600288020188555050505b505050505050565b61243d806105105f395ff3fe608060405234801561000f575f5ffd5b50600436106100f3575f3560e01c80636352211e11610095578063b88d4fde11610064578063b88d4fde1461027f578063bb8a16bd1461029b578063c87b56dd146102b9578063e985e9c5146102e9576100f3565b80636352211e146101e557806370a082311461021557806395d89b4114610245578063a22cb46514610263576100f3565b8063095ea7b3116100d1578063095ea7b31461017557806323b872dd146101915780633c168eab146101ad57806342842e0e146101c9576100f3565b806301ffc9a7146100f757806306fdde0314610127578063081812fc14610145575b5f5ffd5b610111600480360381019061010c91906117ea565b610319565b60405161011e919061182f565b60405180910390f35b61012f610452565b60405161013c91906118b8565b60405180910390f35b61015f600480360381019061015a919061190b565b6104dd565b60405161016c9190611975565b60405180910390f35b61018f600480360381019061018a91906119b8565b6105b4565b005b6101ab60048036038101906101a691906119f6565b6107a3565b005b6101c760048036038101906101c291906119b8565b6107cd565b005b6101e360048036038101906101de91906119f6565b61081f565b005b6101ff60048036038101906101fa919061190b565b610893565b60405161020c9190611975565b60405180910390f35b61022f600480360381019061022a9190611a46565b61093a565b60405161023c9190611a80565b60405180910390f35b61024d610980565b60405161025a91906118b8565b60405180910390f35b61027d60048036038101906102789190611ac3565b610a0c565b005b61029960048036038101906102949190611b62565b610b72565b005b6102a3610c1d565b6040516102b09190611a80565b60405180910390f35b6102d360048036038101906102ce919061190b565b610c23565b6040516102e091906118b8565b60405180910390f35b61030360048036038101906102fe9190611be6565b610d1d565b604051610310919061182f565b60405180910390f35b5f7f80ac58cd000000000000000000000000000000000000000000000000000000007bffffffffffffffffffffffffffffffffffffffffffffffffffffffff1916827bffffffffffffffffffffffffffffffffffffffffffffffffffffffff191614806103e357507f01ffc9a7000000000000000000000000000000000000000000000000000000007bffffffffffffffffffffffffffffffffffffffffffffffffffffffff1916827bffffffffffffffffffffffffffffffffffffffffffffffffffffffff1916145b8061044b57507f5b5e139f000000000000000000000000000000000000000000000000000000007bffffffffffffffffffffffffffffffffffffffffffffffffffffffff1916827bffffffffffffffffffffffffffffffffffffffffffffffffffffffff1916145b9050919050565b5f805461045e90611c51565b80601f016020809104026020016040519081016040528092919081815260200182805461048a90611c51565b80156104d55780601f106104ac576101008083540402835291602001916104d5565b820191905f5260205f20905b8154815290600101906020018083116104b857829003601f168201915b505050505081565b5f5f73ffffffffffffffffffffffffffffffffffffffff1660025f8481526020019081526020015f205f9054906101000a900473ffffffffffffffffffffffffffffffffffffffff1673ffffffffffffffffffffffffffffffffffffffff160361057c576040517f08c379a000000000000000000000000000000000000000000000000000000000815260040161057390611ccb565b60405180910390fd5b60045f8381526020019081526020015f205f9054906101000a900473ffffffffffffffffffffffffffffffffffffffff169050919050565b5f60025f8381526020019081526020015f205f9054906101000a900473ffffffffffffffffffffffffffffffffffffffff1690505f73ffffffffffffffffffffffffffffffffffffffff1660025f8481526020019081526020015f205f9054906101000a900473ffffffffffffffffffffffffffffffffffffffff1673ffffffffffffffffffffffffffffffffffffffff1603610686576040517f08c379a000000000000000000000000000000000000000000000000000000000815260040161067d90611ccb565b60405180910390fd5b8073ffffffffffffffffffffffffffffffffffffffff163373ffffffffffffffffffffffffffffffffffffffff16146106f4576040517f08c379a00000000000000000000000000000000000000000000000000000000081526004016106eb90611d59565b60405180910390fd5b8260045f8481526020019081526020015f205f6101000a81548173ffffffffffffffffffffffffffffffffffffffff021916908373ffffffffffffffffffffffffffffffffffffffff160217905550818373ffffffffffffffffffffffffffffffffffffffff163373ffffffffffffffffffffffffffffffffffffffff167f8c5be1e5ebec7d5bd14f71427d1e84f3dd0314c0f7b2291e5b200ac8c7c3b92560405160405180910390a4505050565b6107bd83838360405180602001604052805f815250610dab565b6107c8838383610f56565b505050565b6006548110610811576040517f08c379a000000000000000000000000000000000000000000000000000000000815260040161080890611dc1565b60405180910390fd5b61081b8282611157565b5050565b61082a838383611365565b610869576040517f08c379a000000000000000000000000000000000000000000000000000000000815260040161086090611ec1565b60405180910390fd5b61088383838360405180602001604052805f815250610dab565b61088e838383610f56565b505050565b5f60025f8381526020019081526020015f205f9054906101000a900473ffffffffffffffffffffffffffffffffffffffff1690505f73ffffffffffffffffffffffffffffffffffffffff168173ffffffffffffffffffffffffffffffffffffffff1603610935576040517f08c379a000000000000000000000000000000000000000000000000000000000815260040161092c90611ccb565b60405180910390fd5b919050565b5f60035f8373ffffffffffffffffffffffffffffffffffffffff1673ffffffffffffffffffffffffffffffffffffffff1681526020019081526020015f20549050919050565b6001805461098d90611c51565b80601f01602080910402602001604051908101604052809291908181526020018280546109b990611c51565b8015610a045780601f106109db57610100808354040283529160200191610a04565b820191905f5260205f20905b8154815290600101906020018083116109e757829003601f168201915b505050505081565b5f73ffffffffffffffffffffffffffffffffffffffff168273ffffffffffffffffffffffffffffffffffffffff1603610a7a576040517f08c379a0000000000000000000000000000000000000000000000000000000008152600401610a7190611f4f565b60405180910390fd5b8060055f3373ffffffffffffffffffffffffffffffffffffffff1673ffffffffffffffffffffffffffffffffffffffff1681526020019081526020015f205f8473ffffffffffffffffffffffffffffffffffffffff1673ffffffffffffffffffffffffffffffffffffffff1681526020019081526020015f205f6101000a81548160ff0219169083151502179055508173ffffffffffffffffffffffffffffffffffffffff163373ffffffffffffffffffffffffffffffffffffffff167f17307eab39ab6107e8899845ad3d59bd9653f200f220920489ca2b5937696c3183604051610b66919061182f565b60405180910390a35050565b610b7d858585611365565b610bbc576040517f08c379a0000000000000000000000000000000000000000000000000000000008152600401610bb390611ec1565b60405180910390fd5b610c0b85858585858080601f0160208091040260200160405190810160405280939291908181526020018383808284375f81840152601f19601f82011690508083019250505050505050610dab565b610c16858585610f56565b5050505050565b60065481565b60605f73ffffffffffffffffffffffffffffffffffffffff1660025f8481526020019081526020015f205f9054906101000a900473ffffffffffffffffffffffffffffffffffffffff1673ffffffffffffffffffffffffffffffffffffffff1603610cc3576040517f08c379a0000000000000000000000000000000000000000000000000000000008152600401610cba90611ccb565b60405180910390fd5b5f610ccc611614565b90505f815111610cea5760405180602001604052805f815250610d15565b80610cf484611634565b604051602001610d05929190611fa7565b6040516020818303038152906040525b915050919050565b5f60055f8473ffffffffffffffffffffffffffffffffffffffff1673ffffffffffffffffffffffffffffffffffffffff1681526020019081526020015f205f8373ffffffffffffffffffffffffffffffffffffffff1673ffffffffffffffffffffffffffffffffffffffff1681526020019081526020015f205f9054906101000a900460ff16905092915050565b5f8373ffffffffffffffffffffffffffffffffffffffff163b1115610f50578273ffffffffffffffffffffffffffffffffffffffff1663150b7a02338685856040518563ffffffff1660e01b8152600401610e09949392919061201c565b6020604051808303815f875af1925050508015610e4457506040513d601f19601f82011682018060405250810190610e41919061207a565b60015b610ec5573d805f8114610e72576040519150601f19603f3d011682016040523d82523d5f602084013e610e77565b606091505b505f815103610ebd57836040517f64a0ae92000000000000000000000000000000000000000000000000000000008152600401610eb49190611975565b60405180910390fd5b805181602001fd5b63150b7a0260e01b7bffffffffffffffffffffffffffffffffffffffffffffffffffffffff1916817bffffffffffffffffffffffffffffffffffffffffffffffffffffffff191614610f4e57836040517f64a0ae92000000000000000000000000000000000000000000000000000000008152600401610f459190611975565b60405180910390fd5b505b50505050565b600160035f8573ffffffffffffffffffffffffffffffffffffffff1673ffffffffffffffffffffffffffffffffffffffff1681526020019081526020015f205f828254610fa391906120d2565b92505081905550600160035f8473ffffffffffffffffffffffffffffffffffffffff1673ffffffffffffffffffffffffffffffffffffffff1681526020019081526020015f205f828254610ff79190612105565b925050819055508160025f8381526020019081526020015f205f6101000a81548173ffffffffffffffffffffffffffffffffffffffff021916908373ffffffffffffffffffffffffffffffffffffffff160217905550808273ffffffffffffffffffffffffffffffffffffffff168473ffffffffffffffffffffffffffffffffffffffff167fddf252ad1be2c89b69c2b068fc378daa952ba7f163c4a11628f55a4df523b3ef60405160405180910390a45f60045f8381526020019081526020015f205f6101000a81548173ffffffffffffffffffffffffffffffffffffffff021916908373ffffffffffffffffffffffffffffffffffffffff160217905550805f73ffffffffffffffffffffffffffffffffffffffff168373ffffffffffffffffffffffffffffffffffffffff167f8c5be1e5ebec7d5bd14f71427d1e84f3dd0314c0f7b2291e5b200ac8c7c3b92560405160405180910390a4505050565b5f73ffffffffffffffffffffffffffffffffffffffff168273ffffffffffffffffffffffffffffffffffffffff16036111c5576040517f08c379a00000000000000000000000000000000000000000000000000000000081526004016111bc90612182565b60405180910390fd5b5f73ffffffffffffffffffffffffffffffffffffffff1660025f8381526020019081526020015f205f9054906101000a900473ffffffffffffffffffffffffffffffffffffffff1673ffffffffffffffffffffffffffffffffffffffff1614611263576040517f08c379a000000000000000000000000000000000000000000000000000000000815260040161125a906121ea565b60405180910390fd5b8160025f8381526020019081526020015f205f6101000a81548173ffffffffffffffffffffffffffffffffffffffff021916908373ffffffffffffffffffffffffffffffffffffffff160217905550600160035f8473ffffffffffffffffffffffffffffffffffffffff1673ffffffffffffffffffffffffffffffffffffffff1681526020019081526020015f205f8282546112ff9190612105565b92505081905550808273ffffffffffffffffffffffffffffffffffffffff165f73ffffffffffffffffffffffffffffffffffffffff167fddf252ad1be2c89b69c2b068fc378daa952ba7f163c4a11628f55a4df523b3ef60405160405180910390a45050565b5f5f73ffffffffffffffffffffffffffffffffffffffff168473ffffffffffffffffffffffffffffffffffffffff16036113d4576040517f08c379a00000000000000000000000000000000000000000000000000000000081526004016113cb90612278565b60405180910390fd5b5f73ffffffffffffffffffffffffffffffffffffffff168373ffffffffffffffffffffffffffffffffffffffff1603611442576040517f08c379a000000000000000000000000000000000000000000000000000000000815260040161143990612182565b60405180910390fd5b5f60025f8481526020019081526020015f205f9054906101000a900473ffffffffffffffffffffffffffffffffffffffff1690505f73ffffffffffffffffffffffffffffffffffffffff168173ffffffffffffffffffffffffffffffffffffffff16036114e4576040517f08c379a00000000000000000000000000000000000000000000000000000000081526004016114db90611ccb565b60405180910390fd5b5f60045f8581526020019081526020015f205f9054906101000a900473ffffffffffffffffffffffffffffffffffffffff1690508573ffffffffffffffffffffffffffffffffffffffff168273ffffffffffffffffffffffffffffffffffffffff16148061157d57503373ffffffffffffffffffffffffffffffffffffffff168173ffffffffffffffffffffffffffffffffffffffff16145b80611609575060055f8773ffffffffffffffffffffffffffffffffffffffff1673ffffffffffffffffffffffffffffffffffffffff1681526020019081526020015f205f3373ffffffffffffffffffffffffffffffffffffffff1673ffffffffffffffffffffffffffffffffffffffff1681526020019081526020015f205f9054906101000a900460ff165b925050509392505050565b60606040518060800160405280604381526020016123c560439139905090565b60605f820361167a576040518060400160405280600181526020017f30000000000000000000000000000000000000000000000000000000000000008152509050611788565b5f8290505f5b5f82146116a957808061169290612296565b915050600a826116a2919061230a565b9150611680565b5f8167ffffffffffffffff8111156116c4576116c361233a565b5b6040519080825280601f01601f1916602001820160405280156116f65781602001600182028036833780820191505090505b5090505b5f85146117815760018261170e91906120d2565b9150600a8561171d9190612367565b60306117299190612105565b60f81b81838151811061173f5761173e612397565b5b60200101907effffffffffffffffffffffffffffffffffffffffffffffffffffffffffffff191690815f1a905350600a8561177a919061230a565b94506116fa565b8093505050505b919050565b5f5ffd5b5f5ffd5b5f7fffffffff0000000000000000000000000000000000000000000000000000000082169050919050565b6117c981611795565b81146117d3575f5ffd5b50565b5f813590506117e4816117c0565b92915050565b5f602082840312156117ff576117fe61178d565b5b5f61180c848285016117d6565b91505092915050565b5f8115159050919050565b61182981611815565b82525050565b5f6020820190506118425f830184611820565b92915050565b5f81519050919050565b5f82825260208201905092915050565b8281835e5f83830152505050565b5f601f19601f8301169050919050565b5f61188a82611848565b6118948185611852565b93506118a4818560208601611862565b6118ad81611870565b840191505092915050565b5f6020820190508181035f8301526118d08184611880565b905092915050565b5f819050919050565b6118ea816118d8565b81146118f4575f5ffd5b50565b5f81359050611905816118e1565b92915050565b5f602082840312156119205761191f61178d565b5b5f61192d848285016118f7565b91505092915050565b5f73ffffffffffffffffffffffffffffffffffffffff82169050919050565b5f61195f82611936565b9050919050565b61196f81611955565b82525050565b5f6020820190506119885f830184611966565b92915050565b61199781611955565b81146119a1575f5ffd5b50565b5f813590506119b28161198e565b92915050565b5f5f604083850312156119ce576119cd61178d565b5b5f6119db858286016119a4565b92505060206119ec858286016118f7565b9150509250929050565b5f5f5f60608486031215611a0d57611a0c61178d565b5b5f611a1a868287016119a4565b9350506020611a2b868287016119a4565b9250506040611a3c868287016118f7565b9150509250925092565b5f60208284031215611a5b57611a5a61178d565b5b5f611a68848285016119a4565b91505092915050565b611a7a816118d8565b82525050565b5f602082019050611a935f830184611a71565b92915050565b611aa281611815565b8114611aac575f5ffd5b50565b5f81359050611abd81611a99565b92915050565b5f5f60408385031215611ad957611ad861178d565b5b5f611ae6858286016119a4565b9250506020611af785828601611aaf565b9150509250929050565b5f5ffd5b5f5ffd5b5f5ffd5b5f5f83601f840112611b2257611b21611b01565b5b8235905067ffffffffffffffff811115611b3f57611b3e611b05565b5b602083019150836001820283011115611b5b57611b5a611b09565b5b9250929050565b5f5f5f5f5f60808688031215611b7b57611b7a61178d565b5b5f611b88888289016119a4565b9550506020611b99888289016119a4565b9450506040611baa888289016118f7565b935050606086013567ffffffffffffffff811115611bcb57611bca611791565b5b611bd788828901611b0d565b92509250509295509295909350565b5f5f60408385031215611bfc57611bfb61178d565b5b5f611c09858286016119a4565b9250506020611c1a858286016119a4565b9150509250929050565b7f4e487b71000000000000000000000000000000000000000000000000000000005f52602260045260245ffd5b5f6002820490506001821680611c6857607f821691505b602082108103611c7b57611c7a611c24565b5b50919050565b7f746f6b656e206e6f7420657869737400000000000000000000000000000000005f82015250565b5f611cb5600f83611852565b9150611cc082611c81565b602082019050919050565b5f6020820190508181035f830152611ce281611ca9565b9050919050565b7f5468652063616c6c6572206d757374206f776e2074686520746f6b656e206f725f8201527f20626520616e20617070726f766564206f70657261746f720000000000000000602082015250565b5f611d43603883611852565b9150611d4e82611ce9565b604082019050919050565b5f6020820190508181035f830152611d7081611d37565b9050919050565b7f746f6b656e4964206f7574206f662072616e67650000000000000000000000005f82015250565b5f611dab601483611852565b9150611db682611d77565b602082019050919050565b5f6020820190508181035f830152611dd881611d9f565b9050919050565b7f60746f6b656e49646020746f6b656e206d75737420657869737420616e6420625f8201527f65206f776e6564206279206066726f6d60206f72206066726f6d60206d75737460208201527f20626520617070726f76656420746f206d6f7665207468697320746f6b656e2060408201527f62792065697468657220617070726f7665206f7220736574417070726f76616c60608201527f466f72416c6c0000000000000000000000000000000000000000000000000000608082015250565b5f611eab608683611852565b9150611eb682611ddf565b60a082019050919050565b5f6020820190508181035f830152611ed881611e9f565b9050919050565b7f54686520606f70657261746f72602063616e6e6f7420626520746865206164645f8201527f72657373207a65726f2e00000000000000000000000000000000000000000000602082015250565b5f611f39602a83611852565b9150611f4482611edf565b604082019050919050565b5f6020820190508181035f830152611f6681611f2d565b9050919050565b5f81905092915050565b5f611f8182611848565b611f8b8185611f6d565b9350611f9b818560208601611862565b80840191505092915050565b5f611fb28285611f77565b9150611fbe8284611f77565b91508190509392505050565b5f81519050919050565b5f82825260208201905092915050565b5f611fee82611fca565b611ff88185611fd4565b9350612008818560208601611862565b61201181611870565b840191505092915050565b5f60808201905061202f5f830187611966565b61203c6020830186611966565b6120496040830185611a71565b818103606083015261205b8184611fe4565b905095945050505050565b5f81519050612074816117c0565b92915050565b5f6020828403121561208f5761208e61178d565b5b5f61209c84828501612066565b91505092915050565b7f4e487b71000000000000000000000000000000000000000000000000000000005f52601160045260245ffd5b5f6120dc826118d8565b91506120e7836118d8565b92508282039050818111156120ff576120fe6120a5565b5b92915050565b5f61210f826118d8565b915061211a836118d8565b9250828201905080821115612132576121316120a5565b5b92915050565b7f60746f602063616e6e6f7420626520746865207a65726f2061646472657373005f82015250565b5f61216c601f83611852565b915061217782612138565b602082019050919050565b5f6020820190508181035f83015261219981612160565b9050919050565b7f746f6b656e20686173206265656e206d696e74656400000000000000000000005f82015250565b5f6121d4601583611852565b91506121df826121a0565b602082019050919050565b5f6020820190508181035f830152612201816121c8565b9050919050565b7f6066726f6d602063616e6e6f7420626520746865207a65726f206164647265735f8201527f7300000000000000000000000000000000000000000000000000000000000000602082015250565b5f612262602183611852565b915061226d82612208565b604082019050919050565b5f6020820190508181035f83015261228f81612256565b9050919050565b5f6122a0826118d8565b91507fffffffffffffffffffffffffffffffffffffffffffffffffffffffffffffffff82036122d2576122d16120a5565b5b600182019050919050565b7f4e487b71000000000000000000000000000000000000000000000000000000005f52601260045260245ffd5b5f612314826118d8565b915061231f836118d8565b92508261232f5761232e6122dd565b5b828204905092915050565b7f4e487b71000000000000000000000000000000000000000000000000000000005f52604160045260245ffd5b5f612371826118d8565b915061237c836118d8565b92508261238c5761238b6122dd565b5b828206905092915050565b7f4e487b71000000000000000000000000000000000000000000000000000000005f52603260045260245ffdfe697066733a2f2f6261666b72656962336b6e686432797a77626236366363657a7835323336656a336476726f67716573356d6f767a6d65756b7066647366647368752fa26469706673582212207525769c82f75dcc1f03bda1566e9409e98392bddf574f35eafdcd1d9c04532364736f6c634300081e0033",
					"opcodes": "PUSH1 0x80 PUSH1 0x40 MSTORE PUSH2 0x2710 PUSH1 0x6 SSTORE CALLVALUE DUP1 ISZERO PUSH2 0x15 JUMPI PUSH0 PUSH0 REVERT JUMPDEST POP PUSH1 0x40 MLOAD PUSH2 0x294D CODESIZE SUB DUP1 PUSH2 0x294D DUP4 CODECOPY DUP2 DUP2 ADD PUSH1 0x40 MSTORE DUP2 ADD SWAP1 PUSH2 0x37 SWAP2 SWAP1 PUSH2 0x1AE JUMP JUMPDEST DUP2 DUP2 DUP2 PUSH0 SWAP1 DUP2 PUSH2 0x47 SWAP2 SWAP1 PUSH2 0x434 JUMP JUMPDEST POP DUP1 PUSH1 0x1 SWAP1 DUP2 PUSH2 0x57 SWAP2 SWAP1 PUSH2 0x434 JUMP JUMPDEST POP POP POP POP POP PUSH2 0x503 JUMP JUMPDEST PUSH0 PUSH1 0x40 MLOAD SWAP1 POP SWAP1 JUMP JUMPDEST PUSH0 PUSH0 REVERT JUMPDEST PUSH0 PUSH0 REVERT JUMPDEST PUSH0 PUSH0 REVERT JUMPDEST PUSH0 PUSH0 REVERT JUMPDEST PUSH0 PUSH1 0x1F NOT PUSH1 0x1F DUP4 ADD AND SWAP1 POP SWAP2 SWAP1 POP JUMP JUMPDEST PUSH32 0x4E487B7100000000000000000000000000000000000000000000000000000000 PUSH0 MSTORE PUSH1 0x41 PUSH1 0x4 MSTORE PUSH1 0x24 PUSH0 REVERT JUMPDEST PUSH2 0xC0 DUP3 PUSH2 0x7A JUMP JUMPDEST DUP2 ADD DUP2 DUP2 LT PUSH8 0xFFFFFFFFFFFFFFFF DUP3 GT OR ISZERO PUSH2 0xDF JUMPI PUSH2 0xDE PUSH2 0x8A JUMP JUMPDEST JUMPDEST DUP1 PUSH1 0x40 MSTORE POP POP POP JUMP JUMPDEST PUSH0 PUSH2 0xF1 PUSH2 0x61 JUMP JUMPDEST SWAP1 POP PUSH2 0xFD DUP3 DUP3 PUSH2 0xB7 JUMP JUMPDEST SWAP2 SWAP1 POP JUMP JUMPDEST PUSH0 PUSH8 0xFFFFFFFFFFFFFFFF DUP3 GT ISZERO PUSH2 0x11C JUMPI PUSH2 0x11B PUSH2 0x8A JUMP JUMPDEST JUMPDEST PUSH2 0x125 DUP3 PUSH2 0x7A JUMP JUMPDEST SWAP1 POP PUSH1 0x20 DUP2 ADD SWAP1 POP SWAP2 SWAP1 POP JUMP JUMPDEST DUP3 DUP2 DUP4 MCOPY PUSH0 DUP4 DUP4 ADD MSTORE POP POP POP JUMP JUMPDEST PUSH0 PUSH2 0x152 PUSH2 0x14D DUP5 PUSH2 0x102 JUMP JUMPDEST PUSH2 0xE8 JUMP JUMPDEST SWAP1 POP DUP3 DUP2 MSTORE PUSH1 0x20 DUP2 ADD DUP5 DUP5 DUP5 ADD GT ISZERO PUSH2 0x16E JUMPI PUSH2 0x16D PUSH2 0x76 JUMP JUMPDEST JUMPDEST PUSH2 0x179 DUP5 DUP3 DUP6 PUSH2 0x132 JUMP JUMPDEST POP SWAP4 SWAP3 POP POP POP JUMP JUMPDEST PUSH0 DUP3 PUSH1 0x1F DUP4 ADD SLT PUSH2 0x195 JUMPI PUSH2 0x194 PUSH2 0x72 JUMP JUMPDEST JUMPDEST DUP2 MLOAD PUSH2 0x1A5 DUP5 DUP3 PUSH1 0x20 DUP7 ADD PUSH2 0x140 JUMP JUMPDEST SWAP2 POP POP SWAP3 SWAP2 POP POP JUMP JUMPDEST PUSH0 PUSH0 PUSH1 0x40 DUP4 DUP6 SUB SLT ISZERO PUSH2 0x1C4 JUMPI PUSH2 0x1C3 PUSH2 0x6A JUMP JUMPDEST JUMPDEST PUSH0 DUP4 ADD MLOAD PUSH8 0xFFFFFFFFFFFFFFFF DUP2 GT ISZERO PUSH2 0x1E1 JUMPI PUSH2 0x1E0 PUSH2 0x6E JUMP JUMPDEST JUMPDEST PUSH2 0x1ED DUP6 DUP3 DUP7 ADD PUSH2 0x181 JUMP JUMPDEST SWAP3 POP POP PUSH1 0x20 DUP4 ADD MLOAD PUSH8 0xFFFFFFFFFFFFFFFF DUP2 GT ISZERO PUSH2 0x20E JUMPI PUSH2 0x20D PUSH2 0x6E JUMP JUMPDEST JUMPDEST PUSH2 0x21A DUP6 DUP3 DUP7 ADD PUSH2 0x181 JUMP JUMPDEST SWAP2 POP POP SWAP3 POP SWAP3 SWAP1 POP JUMP JUMPDEST PUSH0 DUP2 MLOAD SWAP1 POP SWAP2 SWAP1 POP JUMP JUMPDEST PUSH32 0x4E487B7100000000000000000000000000000000000000000000000000000000 PUSH0 MSTORE PUSH1 0x22 PUSH1 0x4 MSTORE PUSH1 0x24 PUSH0 REVERT JUMPDEST PUSH0 PUSH1 0x2 DUP3 DIV SWAP1 POP PUSH1 0x1 DUP3 AND DUP1 PUSH2 0x272 JUMPI PUSH1 0x7F DUP3 AND SWAP2 POP JUMPDEST PUSH1 0x20 DUP3 LT DUP2 SUB PUSH2 0x285 JUMPI PUSH2 0x284 PUSH2 0x22E JUMP JUMPDEST JUMPDEST POP SWAP2 SWAP1 POP JUMP JUMPDEST PUSH0 DUP2 SWAP1 POP DUP2 PUSH0 MSTORE PUSH1 0x20 PUSH0 KECCAK256 SWAP1 POP SWAP2 SWAP1 POP JUMP JUMPDEST PUSH0 PUSH1 0x20 PUSH1 0x1F DUP4 ADD DIV SWAP1 POP SWAP2 SWAP1 POP JUMP JUMPDEST PUSH0 DUP3 DUP3 SHL SWAP1 POP SWAP3 SWAP2 POP POP JUMP JUMPDEST PUSH0 PUSH1 0x8 DUP4 MUL PUSH2 0x2E7 PUSH32 0xFFFFFFFFFFFFFFFFFFFFFFFFFFFFFFFFFFFFFFFFFFFFFFFFFFFFFFFFFFFFFFFF DUP3 PUSH2 0x2AC JUMP JUMPDEST PUSH2 0x2F1 DUP7 DUP4 PUSH2 0x2AC JUMP JUMPDEST SWAP6 POP DUP1 NOT DUP5 AND SWAP4 POP DUP1 DUP7 AND DUP5 OR SWAP3 POP POP POP SWAP4 SWAP3 POP POP POP JUMP JUMPDEST PUSH0 DUP2 SWAP1 POP SWAP2 SWAP1 POP JUMP JUMPDEST PUSH0 DUP2 SWAP1 POP SWAP2 SWAP1 POP JUMP JUMPDEST PUSH0 PUSH2 0x335 PUSH2 0x330 PUSH2 0x32B DUP5 PUSH2 0x309 JUMP JUMPDEST PUSH2 0x312 JUMP JUMPDEST PUSH2 0x309 JUMP JUMPDEST SWAP1 POP SWAP2 SWAP1 POP JUMP JUMPDEST PUSH0 DUP2 SWAP1 POP SWAP2 SWAP1 POP JUMP JUMPDEST PUSH2 0x34E DUP4 PUSH2 0x31B JUMP JUMPDEST PUSH2 0x362 PUSH2 0x35A DUP3 PUSH2 0x33C JUMP JUMPDEST DUP5 DUP5 SLOAD PUSH2 0x2B8 JUMP JUMPDEST DUP3 SSTORE POP POP POP POP JUMP JUMPDEST PUSH0 PUSH0 SWAP1 POP SWAP1 JUMP JUMPDEST PUSH2 0x379 PUSH2 0x36A JUMP JUMPDEST PUSH2 0x384 DUP2 DUP5 DUP5 PUSH2 0x345 JUMP JUMPDEST POP POP POP JUMP JUMPDEST JUMPDEST DUP2 DUP2 LT ISZERO PUSH2 0x3A7 JUMPI PUSH2 0x39C PUSH0 DUP3 PUSH2 0x371 JUMP JUMPDEST PUSH1 0x1 DUP2 ADD SWAP1 POP PUSH2 0x38A JUMP JUMPDEST POP POP JUMP JUMPDEST PUSH1 0x1F DUP3 GT ISZERO PUSH2 0x3EC JUMPI PUSH2 0x3BD DUP2 PUSH2 0x28B JUMP JUMPDEST PUSH2 0x3C6 DUP5 PUSH2 0x29D JUMP JUMPDEST DUP2 ADD PUSH1 0x20 DUP6 LT ISZERO PUSH2 0x3D5 JUMPI DUP2 SWAP1 POP JUMPDEST PUSH2 0x3E9 PUSH2 0x3E1 DUP6 PUSH2 0x29D JUMP JUMPDEST DUP4 ADD DUP3 PUSH2 0x389 JUMP JUMPDEST POP POP JUMPDEST POP POP POP JUMP JUMPDEST PUSH0 DUP3 DUP3 SHR SWAP1 POP SWAP3 SWAP2 POP POP JUMP JUMPDEST PUSH0 PUSH2 0x40C PUSH0 NOT DUP5 PUSH1 0x8 MUL PUSH2 0x3F1 JUMP JUMPDEST NOT DUP1 DUP4 AND SWAP2 POP POP SWAP3 SWAP2 POP POP JUMP JUMPDEST PUSH0 PUSH2 0x424 DUP4 DUP4 PUSH2 0x3FD JUMP JUMPDEST SWAP2 POP DUP3 PUSH1 0x2 MUL DUP3 OR SWAP1 POP SWAP3 SWAP2 POP POP JUMP JUMPDEST PUSH2 0x43D DUP3 PUSH2 0x224 JUMP JUMPDEST PUSH8 0xFFFFFFFFFFFFFFFF DUP2 GT ISZERO PUSH2 0x456 JUMPI PUSH2 0x455 PUSH2 0x8A JUMP JUMPDEST JUMPDEST PUSH2 0x460 DUP3 SLOAD PUSH2 0x25B JUMP JUMPDEST PUSH2 0x46B DUP3 DUP3 DUP6 PUSH2 0x3AB JUMP JUMPDEST PUSH0 PUSH1 0x20 SWAP1 POP PUSH1 0x1F DUP4 GT PUSH1 0x1 DUP2 EQ PUSH2 0x49C JUMPI PUSH0 DUP5 ISZERO PUSH2 0x48A JUMPI DUP3 DUP8 ADD MLOAD SWAP1 POP JUMPDEST PUSH2 0x494 DUP6 DUP3 PUSH2 0x419 JUMP JUMPDEST DUP7 SSTORE POP PUSH2 0x4FB JUMP JUMPDEST PUSH1 0x1F NOT DUP5 AND PUSH2 0x4AA DUP7 PUSH2 0x28B JUMP JUMPDEST PUSH0 JUMPDEST DUP3 DUP2 LT ISZERO PUSH2 0x4D1 JUMPI DUP5 DUP10 ADD MLOAD DUP3 SSTORE PUSH1 0x1 DUP3 ADD SWAP2 POP PUSH1 0x20 DUP6 ADD SWAP5 POP PUSH1 0x20 DUP2 ADD SWAP1 POP PUSH2 0x4AC JUMP JUMPDEST DUP7 DUP4 LT ISZERO PUSH2 0x4EE JUMPI DUP5 DUP10 ADD MLOAD PUSH2 0x4EA PUSH1 0x1F DUP10 AND DUP3 PUSH2 0x3FD JUMP JUMPDEST DUP4 SSTORE POP JUMPDEST PUSH1 0x1 PUSH1 0x2 DUP9 MUL ADD DUP9 SSTORE POP POP POP JUMPDEST POP POP POP POP POP POP JUMP JUMPDEST PUSH2 0x243D DUP1 PUSH2 0x510 PUSH0 CODECOPY PUSH0 RETURN INVALID PUSH1 0x80 PUSH1 0x40 MSTORE CALLVALUE DUP1 ISZERO PUSH2 0xF JUMPI PUSH0 PUSH0 REVERT JUMPDEST POP PUSH1 0x4 CALLDATASIZE LT PUSH2 0xF3 JUMPI PUSH0 CALLDATALOAD PUSH1 0xE0 SHR DUP1 PUSH4 0x6352211E GT PUSH2 0x95 JUMPI DUP1 PUSH4 0xB88D4FDE GT PUSH2 0x64 JUMPI DUP1 PUSH4 0xB88D4FDE EQ PUSH2 0x27F JUMPI DUP1 PUSH4 0xBB8A16BD EQ PUSH2 0x29B JUMPI DUP1 PUSH4 0xC87B56DD EQ PUSH2 0x2B9 JUMPI DUP1 PUSH4 0xE985E9C5 EQ PUSH2 0x2E9 JUMPI PUSH2 0xF3 JUMP JUMPDEST DUP1 PUSH4 0x6352211E EQ PUSH2 0x1E5 JUMPI DUP1 PUSH4 0x70A08231 EQ PUSH2 0x215 JUMPI DUP1 PUSH4 0x95D89B41 EQ PUSH2 0x245 JUMPI DUP1 PUSH4 0xA22CB465 EQ PUSH2 0x263 JUMPI PUSH2 0xF3 JUMP JUMPDEST DUP1 PUSH4 0x95EA7B3 GT PUSH2 0xD1 JUMPI DUP1 PUSH4 0x95EA7B3 EQ PUSH2 0x175 JUMPI DUP1 PUSH4 0x23B872DD EQ PUSH2 0x191 JUMPI DUP1 PUSH4 0x3C168EAB EQ PUSH2 0x1AD JUMPI DUP1 PUSH4 0x42842E0E EQ PUSH2 0x1C9 JUMPI PUSH2 0xF3 JUMP JUMPDEST DUP1 PUSH4 0x1FFC9A7 EQ PUSH2 0xF7 JUMPI DUP1 PUSH4 0x6FDDE03 EQ PUSH2 0x127 JUMPI DUP1 PUSH4 0x81812FC EQ PUSH2 0x145 JUMPI JUMPDEST PUSH0 PUSH0 REVERT JUMPDEST PUSH2 0x111 PUSH1 0x4 DUP1 CALLDATASIZE SUB DUP2 ADD SWAP1 PUSH2 0x10C SWAP2 SWAP1 PUSH2 0x17EA JUMP JUMPDEST PUSH2 0x319 JUMP JUMPDEST PUSH1 0x40 MLOAD PUSH2 0x11E SWAP2 SWAP1 PUSH2 0x182F JUMP JUMPDEST PUSH1 0x40 MLOAD DUP1 SWAP2 SUB SWAP1 RETURN JUMPDEST PUSH2 0x12F PUSH2 0x452 JUMP JUMPDEST PUSH1 0x40 MLOAD PUSH2 0x13C SWAP2 SWAP1 PUSH2 0x18B8 JUMP JUMPDEST PUSH1 0x40 MLOAD DUP1 SWAP2 SUB SWAP1 RETURN JUMPDEST PUSH2 0x15F PUSH1 0x4 DUP1 CALLDATASIZE SUB DUP2 ADD SWAP1 PUSH2 0x15A SWAP2 SWAP1 PUSH2 0x190B JUMP JUMPDEST PUSH2 0x4DD JUMP JUMPDEST PUSH1 0x40 MLOAD PUSH2 0x16C SWAP2 SWAP1 PUSH2 0x1975 JUMP JUMPDEST PUSH1 0x40 MLOAD DUP1 SWAP2 SUB SWAP1 RETURN JUMPDEST PUSH2 0x18F PUSH1 0x4 DUP1 CALLDATASIZE SUB DUP2 ADD SWAP1 PUSH2 0x18A SWAP2 SWAP1 PUSH2 0x19B8 JUMP JUMPDEST PUSH2 0x5B4 JUMP JUMPDEST STOP JUMPDEST PUSH2 0x1AB PUSH1 0x4 DUP1 CALLDATASIZE SUB DUP2 ADD SWAP1 PUSH2 0x1A6 SWAP2 SWAP1 PUSH2 0x19F6 JUMP JUMPDEST PUSH2 0x7A3 JUMP JUMPDEST STOP JUMPDEST PUSH2 0x1C7 PUSH1 0x4 DUP1 CALLDATASIZE SUB DUP2 ADD SWAP1 PUSH2 0x1C2 SWAP2 SWAP1 PUSH2 0x19B8 JUMP JUMPDEST PUSH2 0x7CD JUMP JUMPDEST STOP JUMPDEST PUSH2 0x1E3 PUSH1 0x4 DUP1 CALLDATASIZE SUB DUP2 ADD SWAP1 PUSH2 0x1DE SWAP2 SWAP1 PUSH2 0x19F6 JUMP JUMPDEST PUSH2 0x81F JUMP JUMPDEST STOP JUMPDEST PUSH2 0x1FF PUSH1 0x4 DUP1 CALLDATASIZE SUB DUP2 ADD SWAP1 PUSH2 0x1FA SWAP2 SWAP1 PUSH2 0x190B JUMP JUMPDEST PUSH2 0x893 JUMP JUMPDEST PUSH1 0x40 MLOAD PUSH2 0x20C SWAP2 SWAP1 PUSH2 0x1975 JUMP JUMPDEST PUSH1 0x40 MLOAD DUP1 SWAP2 SUB SWAP1 RETURN JUMPDEST PUSH2 0x22F PUSH1 0x4 DUP1 CALLDATASIZE SUB DUP2 ADD SWAP1 PUSH2 0x22A SWAP2 SWAP1 PUSH2 0x1A46 JUMP JUMPDEST PUSH2 0x93A JUMP JUMPDEST PUSH1 0x40 MLOAD PUSH2 0x23C SWAP2 SWAP1 PUSH2 0x1A80 JUMP JUMPDEST PUSH1 0x40 MLOAD DUP1 SWAP2 SUB SWAP1 RETURN JUMPDEST PUSH2 0x24D PUSH2 0x980 JUMP JUMPDEST PUSH1 0x40 MLOAD PUSH2 0x25A SWAP2 SWAP1 PUSH2 0x18B8 JUMP JUMPDEST PUSH1 0x40 MLOAD DUP1 SWAP2 SUB SWAP1 RETURN JUMPDEST PUSH2 0x27D PUSH1 0x4 DUP1 CALLDATASIZE SUB DUP2 ADD SWAP1 PUSH2 0x278 SWAP2 SWAP1 PUSH2 0x1AC3 JUMP JUMPDEST PUSH2 0xA0C JUMP JUMPDEST STOP JUMPDEST PUSH2 0x299 PUSH1 0x4 DUP1 CALLDATASIZE SUB DUP2 ADD SWAP1 PUSH2 0x294 SWAP2 SWAP1 PUSH2 0x1B62 JUMP JUMPDEST PUSH2 0xB72 JUMP JUMPDEST STOP JUMPDEST PUSH2 0x2A3 PUSH2 0xC1D JUMP JUMPDEST PUSH1 0x40 MLOAD PUSH2 0x2B0 SWAP2 SWAP1 PUSH2 0x1A80 JUMP JUMPDEST PUSH1 0x40 MLOAD DUP1 SWAP2 SUB SWAP1 RETURN JUMPDEST PUSH2 0x2D3 PUSH1 0x4 DUP1 CALLDATASIZE SUB DUP2 ADD SWAP1 PUSH2 0x2CE SWAP2 SWAP1 PUSH2 0x190B JUMP JUMPDEST PUSH2 0xC23 JUMP JUMPDEST PUSH1 0x40 MLOAD PUSH2 0x2E0 SWAP2 SWAP1 PUSH2 0x18B8 JUMP JUMPDEST PUSH1 0x40 MLOAD DUP1 SWAP2 SUB SWAP1 RETURN JUMPDEST PUSH2 0x303 PUSH1 0x4 DUP1 CALLDATASIZE SUB DUP2 ADD SWAP1 PUSH2 0x2FE SWAP2 SWAP1 PUSH2 0x1BE6 JUMP JUMPDEST PUSH2 0xD1D JUMP JUMPDEST PUSH1 0x40 MLOAD PUSH2 0x310 SWAP2 SWAP1 PUSH2 0x182F JUMP JUMPDEST PUSH1 0x40 MLOAD DUP1 SWAP2 SUB SWAP1 RETURN JUMPDEST PUSH0 PUSH32 0x80AC58CD00000000000000000000000000000000000000000000000000000000 PUSH28 0xFFFFFFFFFFFFFFFFFFFFFFFFFFFFFFFFFFFFFFFFFFFFFFFFFFFFFFFF NOT AND DUP3 PUSH28 0xFFFFFFFFFFFFFFFFFFFFFFFFFFFFFFFFFFFFFFFFFFFFFFFFFFFFFFFF NOT AND EQ DUP1 PUSH2 0x3E3 JUMPI POP PUSH32 0x1FFC9A700000000000000000000000000000000000000000000000000000000 PUSH28 0xFFFFFFFFFFFFFFFFFFFFFFFFFFFFFFFFFFFFFFFFFFFFFFFFFFFFFFFF NOT AND DUP3 PUSH28 0xFFFFFFFFFFFFFFFFFFFFFFFFFFFFFFFFFFFFFFFFFFFFFFFFFFFFFFFF NOT AND EQ JUMPDEST DUP1 PUSH2 0x44B JUMPI POP PUSH32 0x5B5E139F00000000000000000000000000000000000000000000000000000000 PUSH28 0xFFFFFFFFFFFFFFFFFFFFFFFFFFFFFFFFFFFFFFFFFFFFFFFFFFFFFFFF NOT AND DUP3 PUSH28 0xFFFFFFFFFFFFFFFFFFFFFFFFFFFFFFFFFFFFFFFFFFFFFFFFFFFFFFFF NOT AND EQ JUMPDEST SWAP1 POP SWAP2 SWAP1 POP JUMP JUMPDEST PUSH0 DUP1 SLOAD PUSH2 0x45E SWAP1 PUSH2 0x1C51 JUMP JUMPDEST DUP1 PUSH1 0x1F ADD PUSH1 0x20 DUP1 SWAP2 DIV MUL PUSH1 0x20 ADD PUSH1 0x40 MLOAD SWAP1 DUP2 ADD PUSH1 0x40 MSTORE DUP1 SWAP3 SWAP2 SWAP1 DUP2 DUP2 MSTORE PUSH1 0x20 ADD DUP3 DUP1 SLOAD PUSH2 0x48A SWAP1 PUSH2 0x1C51 JUMP JUMPDEST DUP1 ISZERO PUSH2 0x4D5 JUMPI DUP1 PUSH1 0x1F LT PUSH2 0x4AC JUMPI PUSH2 0x100 DUP1 DUP4 SLOAD DIV MUL DUP4 MSTORE SWAP2 PUSH1 0x20 ADD SWAP2 PUSH2 0x4D5 JUMP JUMPDEST DUP3 ADD SWAP2 SWAP1 PUSH0 MSTORE PUSH1 0x20 PUSH0 KECCAK256 SWAP1 JUMPDEST DUP2 SLOAD DUP2 MSTORE SWAP1 PUSH1 0x1 ADD SWAP1 PUSH1 0x20 ADD DUP1 DUP4 GT PUSH2 0x4B8 JUMPI DUP3 SWAP1 SUB PUSH1 0x1F AND DUP3 ADD SWAP2 JUMPDEST POP POP POP POP POP DUP2 JUMP JUMPDEST PUSH0 PUSH0 PUSH20 0xFFFFFFFFFFFFFFFFFFFFFFFFFFFFFFFFFFFFFFFF AND PUSH1 0x2 PUSH0 DUP5 DUP2 MSTORE PUSH1 0x20 ADD SWAP1 DUP2 MSTORE PUSH1 0x20 ADD PUSH0 KECCAK256 PUSH0 SWAP1 SLOAD SWAP1 PUSH2 0x100 EXP SWAP1 DIV PUSH20 0xFFFFFFFFFFFFFFFFFFFFFFFFFFFFFFFFFFFFFFFF AND PUSH20 0xFFFFFFFFFFFFFFFFFFFFFFFFFFFFFFFFFFFFFFFF AND SUB PUSH2 0x57C JUMPI PUSH1 0x40 MLOAD PUSH32 0x8C379A000000000000000000000000000000000000000000000000000000000 DUP2 MSTORE PUSH1 0x4 ADD PUSH2 0x573 SWAP1 PUSH2 0x1CCB JUMP JUMPDEST PUSH1 0x40 MLOAD DUP1 SWAP2 SUB SWAP1 REVERT JUMPDEST PUSH1 0x4 PUSH0 DUP4 DUP2 MSTORE PUSH1 0x20 ADD SWAP1 DUP2 MSTORE PUSH1 0x20 ADD PUSH0 KECCAK256 PUSH0 SWAP1 SLOAD SWAP1 PUSH2 0x100 EXP SWAP1 DIV PUSH20 0xFFFFFFFFFFFFFFFFFFFFFFFFFFFFFFFFFFFFFFFF AND SWAP1 POP SWAP2 SWAP1 POP JUMP JUMPDEST PUSH0 PUSH1 0x2 PUSH0 DUP4 DUP2 MSTORE PUSH1 0x20 ADD SWAP1 DUP2 MSTORE PUSH1 0x20 ADD PUSH0 KECCAK256 PUSH0 SWAP1 SLOAD SWAP1 PUSH2 0x100 EXP SWAP1 DIV PUSH20 0xFFFFFFFFFFFFFFFFFFFFFFFFFFFFFFFFFFFFFFFF AND SWAP1 POP PUSH0 PUSH20 0xFFFFFFFFFFFFFFFFFFFFFFFFFFFFFFFFFFFFFFFF AND PUSH1 0x2 PUSH0 DUP5 DUP2 MSTORE PUSH1 0x20 ADD SWAP1 DUP2 MSTORE PUSH1 0x20 ADD PUSH0 KECCAK256 PUSH0 SWAP1 SLOAD SWAP1 PUSH2 0x100 EXP SWAP1 DIV PUSH20 0xFFFFFFFFFFFFFFFFFFFFFFFFFFFFFFFFFFFFFFFF AND PUSH20 0xFFFFFFFFFFFFFFFFFFFFFFFFFFFFFFFFFFFFFFFF AND SUB PUSH2 0x686 JUMPI PUSH1 0x40 MLOAD PUSH32 0x8C379A000000000000000000000000000000000000000000000000000000000 DUP2 MSTORE PUSH1 0x4 ADD PUSH2 0x67D SWAP1 PUSH2 0x1CCB JUMP JUMPDEST PUSH1 0x40 MLOAD DUP1 SWAP2 SUB SWAP1 REVERT JUMPDEST DUP1 PUSH20 0xFFFFFFFFFFFFFFFFFFFFFFFFFFFFFFFFFFFFFFFF AND CALLER PUSH20 0xFFFFFFFFFFFFFFFFFFFFFFFFFFFFFFFFFFFFFFFF AND EQ PUSH2 0x6F4 JUMPI PUSH1 0x40 MLOAD PUSH32 0x8C379A000000000000000000000000000000000000000000000000000000000 DUP2 MSTORE PUSH1 0x4 ADD PUSH2 0x6EB SWAP1 PUSH2 0x1D59 JUMP JUMPDEST PUSH1 0x40 MLOAD DUP1 SWAP2 SUB SWAP1 REVERT JUMPDEST DUP3 PUSH1 0x4 PUSH0 DUP5 DUP2 MSTORE PUSH1 0x20 ADD SWAP1 DUP2 MSTORE PUSH1 0x20 ADD PUSH0 KECCAK256 PUSH0 PUSH2 0x100 EXP DUP2 SLOAD DUP2 PUSH20 0xFFFFFFFFFFFFFFFFFFFFFFFFFFFFFFFFFFFFFFFF MUL NOT AND SWAP1 DUP4 PUSH20 0xFFFFFFFFFFFFFFFFFFFFFFFFFFFFFFFFFFFFFFFF AND MUL OR SWAP1 SSTORE POP DUP2 DUP4 PUSH20 0xFFFFFFFFFFFFFFFFFFFFFFFFFFFFFFFFFFFFFFFF AND CALLER PUSH20 0xFFFFFFFFFFFFFFFFFFFFFFFFFFFFFFFFFFFFFFFF AND PUSH32 0x8C5BE1E5EBEC7D5BD14F71427D1E84F3DD0314C0F7B2291E5B200AC8C7C3B925 PUSH1 0x40 MLOAD PUSH1 0x40 MLOAD DUP1 SWAP2 SUB SWAP1 LOG4 POP POP POP JUMP JUMPDEST PUSH2 0x7BD DUP4 DUP4 DUP4 PUSH1 0x40 MLOAD DUP1 PUSH1 0x20 ADD PUSH1 0x40 MSTORE DUP1 PUSH0 DUP2 MSTORE POP PUSH2 0xDAB JUMP JUMPDEST PUSH2 0x7C8 DUP4 DUP4 DUP4 PUSH2 0xF56 JUMP JUMPDEST POP POP POP JUMP JUMPDEST PUSH1 0x6 SLOAD DUP2 LT PUSH2 0x811 JUMPI PUSH1 0x40 MLOAD PUSH32 0x8C379A000000000000000000000000000000000000000000000000000000000 DUP2 MSTORE PUSH1 0x4 ADD PUSH2 0x808 SWAP1 PUSH2 0x1DC1 JUMP JUMPDEST PUSH1 0x40 MLOAD DUP1 SWAP2 SUB SWAP1 REVERT JUMPDEST PUSH2 0x81B DUP3 DUP3 PUSH2 0x1157 JUMP JUMPDEST POP POP JUMP JUMPDEST PUSH2 0x82A DUP4 DUP4 DUP4 PUSH2 0x1365 JUMP JUMPDEST PUSH2 0x869 JUMPI PUSH1 0x40 MLOAD PUSH32 0x8C379A000000000000000000000000000000000000000000000000000000000 DUP2 MSTORE PUSH1 0x4 ADD PUSH2 0x860 SWAP1 PUSH2 0x1EC1 JUMP JUMPDEST PUSH1 0x40 MLOAD DUP1 SWAP2 SUB SWAP1 REVERT JUMPDEST PUSH2 0x883 DUP4 DUP4 DUP4 PUSH1 0x40 MLOAD DUP1 PUSH1 0x20 ADD PUSH1 0x40 MSTORE DUP1 PUSH0 DUP2 MSTORE POP PUSH2 0xDAB JUMP JUMPDEST PUSH2 0x88E DUP4 DUP4 DUP4 PUSH2 0xF56 JUMP JUMPDEST POP POP POP JUMP JUMPDEST PUSH0 PUSH1 0x2 PUSH0 DUP4 DUP2 MSTORE PUSH1 0x20 ADD SWAP1 DUP2 MSTORE PUSH1 0x20 ADD PUSH0 KECCAK256 PUSH0 SWAP1 SLOAD SWAP1 PUSH2 0x100 EXP SWAP1 DIV PUSH20 0xFFFFFFFFFFFFFFFFFFFFFFFFFFFFFFFFFFFFFFFF AND SWAP1 POP PUSH0 PUSH20 0xFFFFFFFFFFFFFFFFFFFFFFFFFFFFFFFFFFFFFFFF AND DUP2 PUSH20 0xFFFFFFFFFFFFFFFFFFFFFFFFFFFFFFFFFFFFFFFF AND SUB PUSH2 0x935 JUMPI PUSH1 0x40 MLOAD PUSH32 0x8C379A000000000000000000000000000000000000000000000000000000000 DUP2 MSTORE PUSH1 0x4 ADD PUSH2 0x92C SWAP1 PUSH2 0x1CCB JUMP JUMPDEST PUSH1 0x40 MLOAD DUP1 SWAP2 SUB SWAP1 REVERT JUMPDEST SWAP2 SWAP1 POP JUMP JUMPDEST PUSH0 PUSH1 0x3 PUSH0 DUP4 PUSH20 0xFFFFFFFFFFFFFFFFFFFFFFFFFFFFFFFFFFFFFFFF AND PUSH20 0xFFFFFFFFFFFFFFFFFFFFFFFFFFFFFFFFFFFFFFFF AND DUP2 MSTORE PUSH1 0x20 ADD SWAP1 DUP2 MSTORE PUSH1 0x20 ADD PUSH0 KECCAK256 SLOAD SWAP1 POP SWAP2 SWAP1 POP JUMP JUMPDEST PUSH1 0x1 DUP1 SLOAD PUSH2 0x98D SWAP1 PUSH2 0x1C51 JUMP JUMPDEST DUP1 PUSH1 0x1F ADD PUSH1 0x20 DUP1 SWAP2 DIV MUL PUSH1 0x20 ADD PUSH1 0x40 MLOAD SWAP1 DUP2 ADD PUSH1 0x40 MSTORE DUP1 SWAP3 SWAP2 SWAP1 DUP2 DUP2 MSTORE PUSH1 0x20 ADD DUP3 DUP1 SLOAD PUSH2 0x9B9 SWAP1 PUSH2 0x1C51 JUMP JUMPDEST DUP1 ISZERO PUSH2 0xA04 JUMPI DUP1 PUSH1 0x1F LT PUSH2 0x9DB JUMPI PUSH2 0x100 DUP1 DUP4 SLOAD DIV MUL DUP4 MSTORE SWAP2 PUSH1 0x20 ADD SWAP2 PUSH2 0xA04 JUMP JUMPDEST DUP3 ADD SWAP2 SWAP1 PUSH0 MSTORE PUSH1 0x20 PUSH0 KECCAK256 SWAP1 JUMPDEST DUP2 SLOAD DUP2 MSTORE SWAP1 PUSH1 0x1 ADD SWAP1 PUSH1 0x20 ADD DUP1 DUP4 GT PUSH2 0x9E7 JUMPI DUP3 SWAP1 SUB PUSH1 0x1F AND DUP3 ADD SWAP2 JUMPDEST POP POP POP POP POP DUP2 JUMP JUMPDEST PUSH0 PUSH20 0xFFFFFFFFFFFFFFFFFFFFFFFFFFFFFFFFFFFFFFFF AND DUP3 PUSH20 0xFFFFFFFFFFFFFFFFFFFFFFFFFFFFFFFFFFFFFFFF AND SUB PUSH2 0xA7A JUMPI PUSH1 0x40 MLOAD PUSH32 0x8C379A000000000000000000000000000000000000000000000000000000000 DUP2 MSTORE PUSH1 0x4 ADD PUSH2 0xA71 SWAP1 PUSH2 0x1F4F JUMP JUMPDEST PUSH1 0x40 MLOAD DUP1 SWAP2 SUB SWAP1 REVERT JUMPDEST DUP1 PUSH1 0x5 PUSH0 CALLER PUSH20 0xFFFFFFFFFFFFFFFFFFFFFFFFFFFFFFFFFFFFFFFF AND PUSH20 0xFFFFFFFFFFFFFFFFFFFFFFFFFFFFFFFFFFFFFFFF AND DUP2 MSTORE PUSH1 0x20 ADD SWAP1 DUP2 MSTORE PUSH1 0x20 ADD PUSH0 KECCAK256 PUSH0 DUP5 PUSH20 0xFFFFFFFFFFFFFFFFFFFFFFFFFFFFFFFFFFFFFFFF AND PUSH20 0xFFFFFFFFFFFFFFFFFFFFFFFFFFFFFFFFFFFFFFFF AND DUP2 MSTORE PUSH1 0x20 ADD SWAP1 DUP2 MSTORE PUSH1 0x20 ADD PUSH0 KECCAK256 PUSH0 PUSH2 0x100 EXP DUP2 SLOAD DUP2 PUSH1 0xFF MUL NOT AND SWAP1 DUP4 ISZERO ISZERO MUL OR SWAP1 SSTORE POP DUP2 PUSH20 0xFFFFFFFFFFFFFFFFFFFFFFFFFFFFFFFFFFFFFFFF AND CALLER PUSH20 0xFFFFFFFFFFFFFFFFFFFFFFFFFFFFFFFFFFFFFFFF AND PUSH32 0x17307EAB39AB6107E8899845AD3D59BD9653F200F220920489CA2B5937696C31 DUP4 PUSH1 0x40 MLOAD PUSH2 0xB66 SWAP2 SWAP1 PUSH2 0x182F JUMP JUMPDEST PUSH1 0x40 MLOAD DUP1 SWAP2 SUB SWAP1 LOG3 POP POP JUMP JUMPDEST PUSH2 0xB7D DUP6 DUP6 DUP6 PUSH2 0x1365 JUMP JUMPDEST PUSH2 0xBBC JUMPI PUSH1 0x40 MLOAD PUSH32 0x8C379A000000000000000000000000000000000000000000000000000000000 DUP2 MSTORE PUSH1 0x4 ADD PUSH2 0xBB3 SWAP1 PUSH2 0x1EC1 JUMP JUMPDEST PUSH1 0x40 MLOAD DUP1 SWAP2 SUB SWAP1 REVERT JUMPDEST PUSH2 0xC0B DUP6 DUP6 DUP6 DUP6 DUP6 DUP1 DUP1 PUSH1 0x1F ADD PUSH1 0x20 DUP1 SWAP2 DIV MUL PUSH1 0x20 ADD PUSH1 0x40 MLOAD SWAP1 DUP2 ADD PUSH1 0x40 MSTORE DUP1 SWAP4 SWAP3 SWAP2 SWAP1 DUP2 DUP2 MSTORE PUSH1 0x20 ADD DUP4 DUP4 DUP1 DUP3 DUP5 CALLDATACOPY PUSH0 DUP2 DUP5 ADD MSTORE PUSH1 0x1F NOT PUSH1 0x1F DUP3 ADD AND SWAP1 POP DUP1 DUP4 ADD SWAP3 POP POP POP POP POP POP POP PUSH2 0xDAB JUMP JUMPDEST PUSH2 0xC16 DUP6 DUP6 DUP6 PUSH2 0xF56 JUMP JUMPDEST POP POP POP POP POP JUMP JUMPDEST PUSH1 0x6 SLOAD DUP2 JUMP JUMPDEST PUSH1 0x60 PUSH0 PUSH20 0xFFFFFFFFFFFFFFFFFFFFFFFFFFFFFFFFFFFFFFFF AND PUSH1 0x2 PUSH0 DUP5 DUP2 MSTORE PUSH1 0x20 ADD SWAP1 DUP2 MSTORE PUSH1 0x20 ADD PUSH0 KECCAK256 PUSH0 SWAP1 SLOAD SWAP1 PUSH2 0x100 EXP SWAP1 DIV PUSH20 0xFFFFFFFFFFFFFFFFFFFFFFFFFFFFFFFFFFFFFFFF AND PUSH20 0xFFFFFFFFFFFFFFFFFFFFFFFFFFFFFFFFFFFFFFFF AND SUB PUSH2 0xCC3 JUMPI PUSH1 0x40 MLOAD PUSH32 0x8C379A000000000000000000000000000000000000000000000000000000000 DUP2 MSTORE PUSH1 0x4 ADD PUSH2 0xCBA SWAP1 PUSH2 0x1CCB JUMP JUMPDEST PUSH1 0x40 MLOAD DUP1 SWAP2 SUB SWAP1 REVERT JUMPDEST PUSH0 PUSH2 0xCCC PUSH2 0x1614 JUMP JUMPDEST SWAP1 POP PUSH0 DUP2 MLOAD GT PUSH2 0xCEA JUMPI PUSH1 0x40 MLOAD DUP1 PUSH1 0x20 ADD PUSH1 0x40 MSTORE DUP1 PUSH0 DUP2 MSTORE POP PUSH2 0xD15 JUMP JUMPDEST DUP1 PUSH2 0xCF4 DUP5 PUSH2 0x1634 JUMP JUMPDEST PUSH1 0x40 MLOAD PUSH1 0x20 ADD PUSH2 0xD05 SWAP3 SWAP2 SWAP1 PUSH2 0x1FA7 JUMP JUMPDEST PUSH1 0x40 MLOAD PUSH1 0x20 DUP2 DUP4 SUB SUB DUP2 MSTORE SWAP1 PUSH1 0x40 MSTORE JUMPDEST SWAP2 POP POP SWAP2 SWAP1 POP JUMP JUMPDEST PUSH0 PUSH1 0x5 PUSH0 DUP5 PUSH20 0xFFFFFFFFFFFFFFFFFFFFFFFFFFFFFFFFFFFFFFFF AND PUSH20 0xFFFFFFFFFFFFFFFFFFFFFFFFFFFFFFFFFFFFFFFF AND DUP2 MSTORE PUSH1 0x20 ADD SWAP1 DUP2 MSTORE PUSH1 0x20 ADD PUSH0 KECCAK256 PUSH0 DUP4 PUSH20 0xFFFFFFFFFFFFFFFFFFFFFFFFFFFFFFFFFFFFFFFF AND PUSH20 0xFFFFFFFFFFFFFFFFFFFFFFFFFFFFFFFFFFFFFFFF AND DUP2 MSTORE PUSH1 0x20 ADD SWAP1 DUP2 MSTORE PUSH1 0x20 ADD PUSH0 KECCAK256 PUSH0 SWAP1 SLOAD SWAP1 PUSH2 0x100 EXP SWAP1 DIV PUSH1 0xFF AND SWAP1 POP SWAP3 SWAP2 POP POP JUMP JUMPDEST PUSH0 DUP4 PUSH20 0xFFFFFFFFFFFFFFFFFFFFFFFFFFFFFFFFFFFFFFFF AND EXTCODESIZE GT ISZERO PUSH2 0xF50 JUMPI DUP3 PUSH20 0xFFFFFFFFFFFFFFFFFFFFFFFFFFFFFFFFFFFFFFFF AND PUSH4 0x150B7A02 CALLER DUP7 DUP6 DUP6 PUSH1 0x40 MLOAD DUP6 PUSH4 0xFFFFFFFF AND PUSH1 0xE0 SHL DUP2 MSTORE PUSH1 0x4 ADD PUSH2 0xE09 SWAP5 SWAP4 SWAP3 SWAP2 SWAP1 PUSH2 0x201C JUMP JUMPDEST PUSH1 0x20 PUSH1 0x40 MLOAD DUP1 DUP4 SUB DUP2 PUSH0 DUP8 GAS CALL SWAP3 POP POP POP DUP1 ISZERO PUSH2 0xE44 JUMPI POP PUSH1 0x40 MLOAD RETURNDATASIZE PUSH1 0x1F NOT PUSH1 0x1F DUP3 ADD AND DUP3 ADD DUP1 PUSH1 0x40 MSTORE POP DUP2 ADD SWAP1 PUSH2 0xE41 SWAP2 SWAP1 PUSH2 0x207A JUMP JUMPDEST PUSH1 0x1 JUMPDEST PUSH2 0xEC5 JUMPI RETURNDATASIZE DUP1 PUSH0 DUP2 EQ PUSH2 0xE72 JUMPI PUSH1 0x40 MLOAD SWAP2 POP PUSH1 0x1F NOT PUSH1 0x3F RETURNDATASIZE ADD AND DUP3 ADD PUSH1 0x40 MSTORE RETURNDATASIZE DUP3 MSTORE RETURNDATASIZE PUSH0 PUSH1 0x20 DUP5 ADD RETURNDATACOPY PUSH2 0xE77 JUMP JUMPDEST PUSH1 0x60 SWAP2 POP JUMPDEST POP PUSH0 DUP2 MLOAD SUB PUSH2 0xEBD JUMPI DUP4 PUSH1 0x40 MLOAD PUSH32 0x64A0AE9200000000000000000000000000000000000000000000000000000000 DUP2 MSTORE PUSH1 0x4 ADD PUSH2 0xEB4 SWAP2 SWAP1 PUSH2 0x1975 JUMP JUMPDEST PUSH1 0x40 MLOAD DUP1 SWAP2 SUB SWAP1 REVERT JUMPDEST DUP1 MLOAD DUP2 PUSH1 0x20 ADD REVERT JUMPDEST PUSH4 0x150B7A02 PUSH1 0xE0 SHL PUSH28 0xFFFFFFFFFFFFFFFFFFFFFFFFFFFFFFFFFFFFFFFFFFFFFFFFFFFFFFFF NOT AND DUP2 PUSH28 0xFFFFFFFFFFFFFFFFFFFFFFFFFFFFFFFFFFFFFFFFFFFFFFFFFFFFFFFF NOT AND EQ PUSH2 0xF4E JUMPI DUP4 PUSH1 0x40 MLOAD PUSH32 0x64A0AE9200000000000000000000000000000000000000000000000000000000 DUP2 MSTORE PUSH1 0x4 ADD PUSH2 0xF45 SWAP2 SWAP1 PUSH2 0x1975 JUMP JUMPDEST PUSH1 0x40 MLOAD DUP1 SWAP2 SUB SWAP1 REVERT JUMPDEST POP JUMPDEST POP POP POP POP JUMP JUMPDEST PUSH1 0x1 PUSH1 0x3 PUSH0 DUP6 PUSH20 0xFFFFFFFFFFFFFFFFFFFFFFFFFFFFFFFFFFFFFFFF AND PUSH20 0xFFFFFFFFFFFFFFFFFFFFFFFFFFFFFFFFFFFFFFFF AND DUP2 MSTORE PUSH1 0x20 ADD SWAP1 DUP2 MSTORE PUSH1 0x20 ADD PUSH0 KECCAK256 PUSH0 DUP3 DUP3 SLOAD PUSH2 0xFA3 SWAP2 SWAP1 PUSH2 0x20D2 JUMP JUMPDEST SWAP3 POP POP DUP2 SWAP1 SSTORE POP PUSH1 0x1 PUSH1 0x3 PUSH0 DUP5 PUSH20 0xFFFFFFFFFFFFFFFFFFFFFFFFFFFFFFFFFFFFFFFF AND PUSH20 0xFFFFFFFFFFFFFFFFFFFFFFFFFFFFFFFFFFFFFFFF AND DUP2 MSTORE PUSH1 0x20 ADD SWAP1 DUP2 MSTORE PUSH1 0x20 ADD PUSH0 KECCAK256 PUSH0 DUP3 DUP3 SLOAD PUSH2 0xFF7 SWAP2 SWAP1 PUSH2 0x2105 JUMP JUMPDEST SWAP3 POP POP DUP2 SWAP1 SSTORE POP DUP2 PUSH1 0x2 PUSH0 DUP4 DUP2 MSTORE PUSH1 0x20 ADD SWAP1 DUP2 MSTORE PUSH1 0x20 ADD PUSH0 KECCAK256 PUSH0 PUSH2 0x100 EXP DUP2 SLOAD DUP2 PUSH20 0xFFFFFFFFFFFFFFFFFFFFFFFFFFFFFFFFFFFFFFFF MUL NOT AND SWAP1 DUP4 PUSH20 0xFFFFFFFFFFFFFFFFFFFFFFFFFFFFFFFFFFFFFFFF AND MUL OR SWAP1 SSTORE POP DUP1 DUP3 PUSH20 0xFFFFFFFFFFFFFFFFFFFFFFFFFFFFFFFFFFFFFFFF AND DUP5 PUSH20 0xFFFFFFFFFFFFFFFFFFFFFFFFFFFFFFFFFFFFFFFF AND PUSH32 0xDDF252AD1BE2C89B69C2B068FC378DAA952BA7F163C4A11628F55A4DF523B3EF PUSH1 0x40 MLOAD PUSH1 0x40 MLOAD DUP1 SWAP2 SUB SWAP1 LOG4 PUSH0 PUSH1 0x4 PUSH0 DUP4 DUP2 MSTORE PUSH1 0x20 ADD SWAP1 DUP2 MSTORE PUSH1 0x20 ADD PUSH0 KECCAK256 PUSH0 PUSH2 0x100 EXP DUP2 SLOAD DUP2 PUSH20 0xFFFFFFFFFFFFFFFFFFFFFFFFFFFFFFFFFFFFFFFF MUL NOT AND SWAP1 DUP4 PUSH20 0xFFFFFFFFFFFFFFFFFFFFFFFFFFFFFFFFFFFFFFFF AND MUL OR SWAP1 SSTORE POP DUP1 PUSH0 PUSH20 0xFFFFFFFFFFFFFFFFFFFFFFFFFFFFFFFFFFFFFFFF AND DUP4 PUSH20 0xFFFFFFFFFFFFFFFFFFFFFFFFFFFFFFFFFFFFFFFF AND PUSH32 0x8C5BE1E5EBEC7D5BD14F71427D1E84F3DD0314C0F7B2291E5B200AC8C7C3B925 PUSH1 0x40 MLOAD PUSH1 0x40 MLOAD DUP1 SWAP2 SUB SWAP1 LOG4 POP POP POP JUMP JUMPDEST PUSH0 PUSH20 0xFFFFFFFFFFFFFFFFFFFFFFFFFFFFFFFFFFFFFFFF AND DUP3 PUSH20 0xFFFFFFFFFFFFFFFFFFFFFFFFFFFFFFFFFFFFFFFF AND SUB PUSH2 0x11C5 JUMPI PUSH1 0x40 MLOAD PUSH32 0x8C379A000000000000000000000000000000000000000000000000000000000 DUP2 MSTORE PUSH1 0x4 ADD PUSH2 0x11BC SWAP1 PUSH2 0x2182 JUMP JUMPDEST PUSH1 0x40 MLOAD DUP1 SWAP2 SUB SWAP1 REVERT JUMPDEST PUSH0 PUSH20 0xFFFFFFFFFFFFFFFFFFFFFFFFFFFFFFFFFFFFFFFF AND PUSH1 0x2 PUSH0 DUP4 DUP2 MSTORE PUSH1 0x20 ADD SWAP1 DUP2 MSTORE PUSH1 0x20 ADD PUSH0 KECCAK256 PUSH0 SWAP1 SLOAD SWAP1 PUSH2 0x100 EXP SWAP1 DIV PUSH20 0xFFFFFFFFFFFFFFFFFFFFFFFFFFFFFFFFFFFFFFFF AND PUSH20 0xFFFFFFFFFFFFFFFFFFFFFFFFFFFFFFFFFFFFFFFF AND EQ PUSH2 0x1263 JUMPI PUSH1 0x40 MLOAD PUSH32 0x8C379A000000000000000000000000000000000000000000000000000000000 DUP2 MSTORE PUSH1 0x4 ADD PUSH2 0x125A SWAP1 PUSH2 0x21EA JUMP JUMPDEST PUSH1 0x40 MLOAD DUP1 SWAP2 SUB SWAP1 REVERT JUMPDEST DUP2 PUSH1 0x2 PUSH0 DUP4 DUP2 MSTORE PUSH1 0x20 ADD SWAP1 DUP2 MSTORE PUSH1 0x20 ADD PUSH0 KECCAK256 PUSH0 PUSH2 0x100 EXP DUP2 SLOAD DUP2 PUSH20 0xFFFFFFFFFFFFFFFFFFFFFFFFFFFFFFFFFFFFFFFF MUL NOT AND SWAP1 DUP4 PUSH20 0xFFFFFFFFFFFFFFFFFFFFFFFFFFFFFFFFFFFFFFFF AND MUL OR SWAP1 SSTORE POP PUSH1 0x1 PUSH1 0x3 PUSH0 DUP5 PUSH20 0xFFFFFFFFFFFFFFFFFFFFFFFFFFFFFFFFFFFFFFFF AND PUSH20 0xFFFFFFFFFFFFFFFFFFFFFFFFFFFFFFFFFFFFFFFF AND DUP2 MSTORE PUSH1 0x20 ADD SWAP1 DUP2 MSTORE PUSH1 0x20 ADD PUSH0 KECCAK256 PUSH0 DUP3 DUP3 SLOAD PUSH2 0x12FF SWAP2 SWAP1 PUSH2 0x2105 JUMP JUMPDEST SWAP3 POP POP DUP2 SWAP1 SSTORE POP DUP1 DUP3 PUSH20 0xFFFFFFFFFFFFFFFFFFFFFFFFFFFFFFFFFFFFFFFF AND PUSH0 PUSH20 0xFFFFFFFFFFFFFFFFFFFFFFFFFFFFFFFFFFFFFFFF AND PUSH32 0xDDF252AD1BE2C89B69C2B068FC378DAA952BA7F163C4A11628F55A4DF523B3EF PUSH1 0x40 MLOAD PUSH1 0x40 MLOAD DUP1 SWAP2 SUB SWAP1 LOG4 POP POP JUMP JUMPDEST PUSH0 PUSH0 PUSH20 0xFFFFFFFFFFFFFFFFFFFFFFFFFFFFFFFFFFFFFFFF AND DUP5 PUSH20 0xFFFFFFFFFFFFFFFFFFFFFFFFFFFFFFFFFFFFFFFF AND SUB PUSH2 0x13D4 JUMPI PUSH1 0x40 MLOAD PUSH32 0x8C379A000000000000000000000000000000000000000000000000000000000 DUP2 MSTORE PUSH1 0x4 ADD PUSH2 0x13CB SWAP1 PUSH2 0x2278 JUMP JUMPDEST PUSH1 0x40 MLOAD DUP1 SWAP2 SUB SWAP1 REVERT JUMPDEST PUSH0 PUSH20 0xFFFFFFFFFFFFFFFFFFFFFFFFFFFFFFFFFFFFFFFF AND DUP4 PUSH20 0xFFFFFFFFFFFFFFFFFFFFFFFFFFFFFFFFFFFFFFFF AND SUB PUSH2 0x1442 JUMPI PUSH1 0x40 MLOAD PUSH32 0x8C379A000000000000000000000000000000000000000000000000000000000 DUP2 MSTORE PUSH1 0x4 ADD PUSH2 0x1439 SWAP1 PUSH2 0x2182 JUMP JUMPDEST PUSH1 0x40 MLOAD DUP1 SWAP2 SUB SWAP1 REVERT JUMPDEST PUSH0 PUSH1 0x2 PUSH0 DUP5 DUP2 MSTORE PUSH1 0x20 ADD SWAP1 DUP2 MSTORE PUSH1 0x20 ADD PUSH0 KECCAK256 PUSH0 SWAP1 SLOAD SWAP1 PUSH2 0x100 EXP SWAP1 DIV PUSH20 0xFFFFFFFFFFFFFFFFFFFFFFFFFFFFFFFFFFFFFFFF AND SWAP1 POP PUSH0 PUSH20 0xFFFFFFFFFFFFFFFFFFFFFFFFFFFFFFFFFFFFFFFF AND DUP2 PUSH20 0xFFFFFFFFFFFFFFFFFFFFFFFFFFFFFFFFFFFFFFFF AND SUB PUSH2 0x14E4 JUMPI PUSH1 0x40 MLOAD PUSH32 0x8C379A000000000000000000000000000000000000000000000000000000000 DUP2 MSTORE PUSH1 0x4 ADD PUSH2 0x14DB SWAP1 PUSH2 0x1CCB JUMP JUMPDEST PUSH1 0x40 MLOAD DUP1 SWAP2 SUB SWAP1 REVERT JUMPDEST PUSH0 PUSH1 0x4 PUSH0 DUP6 DUP2 MSTORE PUSH1 0x20 ADD SWAP1 DUP2 MSTORE PUSH1 0x20 ADD PUSH0 KECCAK256 PUSH0 SWAP1 SLOAD SWAP1 PUSH2 0x100 EXP SWAP1 DIV PUSH20 0xFFFFFFFFFFFFFFFFFFFFFFFFFFFFFFFFFFFFFFFF AND SWAP1 POP DUP6 PUSH20 0xFFFFFFFFFFFFFFFFFFFFFFFFFFFFFFFFFFFFFFFF AND DUP3 PUSH20 0xFFFFFFFFFFFFFFFFFFFFFFFFFFFFFFFFFFFFFFFF AND EQ DUP1 PUSH2 0x157D JUMPI POP CALLER PUSH20 0xFFFFFFFFFFFFFFFFFFFFFFFFFFFFFFFFFFFFFFFF AND DUP2 PUSH20 0xFFFFFFFFFFFFFFFFFFFFFFFFFFFFFFFFFFFFFFFF AND EQ JUMPDEST DUP1 PUSH2 0x1609 JUMPI POP PUSH1 0x5 PUSH0 DUP8 PUSH20 0xFFFFFFFFFFFFFFFFFFFFFFFFFFFFFFFFFFFFFFFF AND PUSH20 0xFFFFFFFFFFFFFFFFFFFFFFFFFFFFFFFFFFFFFFFF AND DUP2 MSTORE PUSH1 0x20 ADD SWAP1 DUP2 MSTORE PUSH1 0x20 ADD PUSH0 KECCAK256 PUSH0 CALLER PUSH20 0xFFFFFFFFFFFFFFFFFFFFFFFFFFFFFFFFFFFFFFFF AND PUSH20 0xFFFFFFFFFFFFFFFFFFFFFFFFFFFFFFFFFFFFFFFF AND DUP2 MSTORE PUSH1 0x20 ADD SWAP1 DUP2 MSTORE PUSH1 0x20 ADD PUSH0 KECCAK256 PUSH0 SWAP1 SLOAD SWAP1 PUSH2 0x100 EXP SWAP1 DIV PUSH1 0xFF AND JUMPDEST SWAP3 POP POP POP SWAP4 SWAP3 POP POP POP JUMP JUMPDEST PUSH1 0x60 PUSH1 0x40 MLOAD DUP1 PUSH1 0x80 ADD PUSH1 0x40 MSTORE DUP1 PUSH1 0x43 DUP2 MSTORE PUSH1 0x20 ADD PUSH2 0x23C5 PUSH1 0x43 SWAP2 CODECOPY SWAP1 POP SWAP1 JUMP JUMPDEST PUSH1 0x60 PUSH0 DUP3 SUB PUSH2 0x167A JUMPI PUSH1 0x40 MLOAD DUP1 PUSH1 0x40 ADD PUSH1 0x40 MSTORE DUP1 PUSH1 0x1 DUP2 MSTORE PUSH1 0x20 ADD PUSH32 0x3000000000000000000000000000000000000000000000000000000000000000 DUP2 MSTORE POP SWAP1 POP PUSH2 0x1788 JUMP JUMPDEST PUSH0 DUP3 SWAP1 POP PUSH0 JUMPDEST PUSH0 DUP3 EQ PUSH2 0x16A9 JUMPI DUP1 DUP1 PUSH2 0x1692 SWAP1 PUSH2 0x2296 JUMP JUMPDEST SWAP2 POP POP PUSH1 0xA DUP3 PUSH2 0x16A2 SWAP2 SWAP1 PUSH2 0x230A JUMP JUMPDEST SWAP2 POP PUSH2 0x1680 JUMP JUMPDEST PUSH0 DUP2 PUSH8 0xFFFFFFFFFFFFFFFF DUP2 GT ISZERO PUSH2 0x16C4 JUMPI PUSH2 0x16C3 PUSH2 0x233A JUMP JUMPDEST JUMPDEST PUSH1 0x40 MLOAD SWAP1 DUP1 DUP3 MSTORE DUP1 PUSH1 0x1F ADD PUSH1 0x1F NOT AND PUSH1 0x20 ADD DUP3 ADD PUSH1 0x40 MSTORE DUP1 ISZERO PUSH2 0x16F6 JUMPI DUP2 PUSH1 0x20 ADD PUSH1 0x1 DUP3 MUL DUP1 CALLDATASIZE DUP4 CALLDATACOPY DUP1 DUP3 ADD SWAP2 POP POP SWAP1 POP JUMPDEST POP SWAP1 POP JUMPDEST PUSH0 DUP6 EQ PUSH2 0x1781 JUMPI PUSH1 0x1 DUP3 PUSH2 0x170E SWAP2 SWAP1 PUSH2 0x20D2 JUMP JUMPDEST SWAP2 POP PUSH1 0xA DUP6 PUSH2 0x171D SWAP2 SWAP1 PUSH2 0x2367 JUMP JUMPDEST PUSH1 0x30 PUSH2 0x1729 SWAP2 SWAP1 PUSH2 0x2105 JUMP JUMPDEST PUSH1 0xF8 SHL DUP2 DUP4 DUP2 MLOAD DUP2 LT PUSH2 0x173F JUMPI PUSH2 0x173E PUSH2 0x2397 JUMP JUMPDEST JUMPDEST PUSH1 0x20 ADD ADD SWAP1 PUSH31 0xFFFFFFFFFFFFFFFFFFFFFFFFFFFFFFFFFFFFFFFFFFFFFFFFFFFFFFFFFFFFFF NOT AND SWAP1 DUP2 PUSH0 BYTE SWAP1 MSTORE8 POP PUSH1 0xA DUP6 PUSH2 0x177A SWAP2 SWAP1 PUSH2 0x230A JUMP JUMPDEST SWAP5 POP PUSH2 0x16FA JUMP JUMPDEST DUP1 SWAP4 POP POP POP POP JUMPDEST SWAP2 SWAP1 POP JUMP JUMPDEST PUSH0 PUSH0 REVERT JUMPDEST PUSH0 PUSH0 REVERT JUMPDEST PUSH0 PUSH32 0xFFFFFFFF00000000000000000000000000000000000000000000000000000000 DUP3 AND SWAP1 POP SWAP2 SWAP1 POP JUMP JUMPDEST PUSH2 0x17C9 DUP2 PUSH2 0x1795 JUMP JUMPDEST DUP2 EQ PUSH2 0x17D3 JUMPI PUSH0 PUSH0 REVERT JUMPDEST POP JUMP JUMPDEST PUSH0 DUP2 CALLDATALOAD SWAP1 POP PUSH2 0x17E4 DUP2 PUSH2 0x17C0 JUMP JUMPDEST SWAP3 SWAP2 POP POP JUMP JUMPDEST PUSH0 PUSH1 0x20 DUP3 DUP5 SUB SLT ISZERO PUSH2 0x17FF JUMPI PUSH2 0x17FE PUSH2 0x178D JUMP JUMPDEST JUMPDEST PUSH0 PUSH2 0x180C DUP5 DUP3 DUP6 ADD PUSH2 0x17D6 JUMP JUMPDEST SWAP2 POP POP SWAP3 SWAP2 POP POP JUMP JUMPDEST PUSH0 DUP2 ISZERO ISZERO SWAP1 POP SWAP2 SWAP1 POP JUMP JUMPDEST PUSH2 0x1829 DUP2 PUSH2 0x1815 JUMP JUMPDEST DUP3 MSTORE POP POP JUMP JUMPDEST PUSH0 PUSH1 0x20 DUP3 ADD SWAP1 POP PUSH2 0x1842 PUSH0 DUP4 ADD DUP5 PUSH2 0x1820 JUMP JUMPDEST SWAP3 SWAP2 POP POP JUMP JUMPDEST PUSH0 DUP2 MLOAD SWAP1 POP SWAP2 SWAP1 POP JUMP JUMPDEST PUSH0 DUP3 DUP3 MSTORE PUSH1 0x20 DUP3 ADD SWAP1 POP SWAP3 SWAP2 POP POP JUMP JUMPDEST DUP3 DUP2 DUP4 MCOPY PUSH0 DUP4 DUP4 ADD MSTORE POP POP POP JUMP JUMPDEST PUSH0 PUSH1 0x1F NOT PUSH1 0x1F DUP4 ADD AND SWAP1 POP SWAP2 SWAP1 POP JUMP JUMPDEST PUSH0 PUSH2 0x188A DUP3 PUSH2 0x1848 JUMP JUMPDEST PUSH2 0x1894 DUP2 DUP6 PUSH2 0x1852 JUMP JUMPDEST SWAP4 POP PUSH2 0x18A4 DUP2 DUP6 PUSH1 0x20 DUP7 ADD PUSH2 0x1862 JUMP JUMPDEST PUSH2 0x18AD DUP2 PUSH2 0x1870 JUMP JUMPDEST DUP5 ADD SWAP2 POP POP SWAP3 SWAP2 POP POP JUMP JUMPDEST PUSH0 PUSH1 0x20 DUP3 ADD SWAP1 POP DUP2 DUP2 SUB PUSH0 DUP4 ADD MSTORE PUSH2 0x18D0 DUP2 DUP5 PUSH2 0x1880 JUMP JUMPDEST SWAP1 POP SWAP3 SWAP2 POP POP JUMP JUMPDEST PUSH0 DUP2 SWAP1 POP SWAP2 SWAP1 POP JUMP JUMPDEST PUSH2 0x18EA DUP2 PUSH2 0x18D8 JUMP JUMPDEST DUP2 EQ PUSH2 0x18F4 JUMPI PUSH0 PUSH0 REVERT JUMPDEST POP JUMP JUMPDEST PUSH0 DUP2 CALLDATALOAD SWAP1 POP PUSH2 0x1905 DUP2 PUSH2 0x18E1 JUMP JUMPDEST SWAP3 SWAP2 POP POP JUMP JUMPDEST PUSH0 PUSH1 0x20 DUP3 DUP5 SUB SLT ISZERO PUSH2 0x1920 JUMPI PUSH2 0x191F PUSH2 0x178D JUMP JUMPDEST JUMPDEST PUSH0 PUSH2 0x192D DUP5 DUP3 DUP6 ADD PUSH2 0x18F7 JUMP JUMPDEST SWAP2 POP POP SWAP3 SWAP2 POP POP JUMP JUMPDEST PUSH0 PUSH20 0xFFFFFFFFFFFFFFFFFFFFFFFFFFFFFFFFFFFFFFFF DUP3 AND SWAP1 POP SWAP2 SWAP1 POP JUMP JUMPDEST PUSH0 PUSH2 0x195F DUP3 PUSH2 0x1936 JUMP JUMPDEST SWAP1 POP SWAP2 SWAP1 POP JUMP JUMPDEST PUSH2 0x196F DUP2 PUSH2 0x1955 JUMP JUMPDEST DUP3 MSTORE POP POP JUMP JUMPDEST PUSH0 PUSH1 0x20 DUP3 ADD SWAP1 POP PUSH2 0x1988 PUSH0 DUP4 ADD DUP5 PUSH2 0x1966 JUMP JUMPDEST SWAP3 SWAP2 POP POP JUMP JUMPDEST PUSH2 0x1997 DUP2 PUSH2 0x1955 JUMP JUMPDEST DUP2 EQ PUSH2 0x19A1 JUMPI PUSH0 PUSH0 REVERT JUMPDEST POP JUMP JUMPDEST PUSH0 DUP2 CALLDATALOAD SWAP1 POP PUSH2 0x19B2 DUP2 PUSH2 0x198E JUMP JUMPDEST SWAP3 SWAP2 POP POP JUMP JUMPDEST PUSH0 PUSH0 PUSH1 0x40 DUP4 DUP6 SUB SLT ISZERO PUSH2 0x19CE JUMPI PUSH2 0x19CD PUSH2 0x178D JUMP JUMPDEST JUMPDEST PUSH0 PUSH2 0x19DB DUP6 DUP3 DUP7 ADD PUSH2 0x19A4 JUMP JUMPDEST SWAP3 POP POP PUSH1 0x20 PUSH2 0x19EC DUP6 DUP3 DUP7 ADD PUSH2 0x18F7 JUMP JUMPDEST SWAP2 POP POP SWAP3 POP SWAP3 SWAP1 POP JUMP JUMPDEST PUSH0 PUSH0 PUSH0 PUSH1 0x60 DUP5 DUP7 SUB SLT ISZERO PUSH2 0x1A0D JUMPI PUSH2 0x1A0C PUSH2 0x178D JUMP JUMPDEST JUMPDEST PUSH0 PUSH2 0x1A1A DUP7 DUP3 DUP8 ADD PUSH2 0x19A4 JUMP JUMPDEST SWAP4 POP POP PUSH1 0x20 PUSH2 0x1A2B DUP7 DUP3 DUP8 ADD PUSH2 0x19A4 JUMP JUMPDEST SWAP3 POP POP PUSH1 0x40 PUSH2 0x1A3C DUP7 DUP3 DUP8 ADD PUSH2 0x18F7 JUMP JUMPDEST SWAP2 POP POP SWAP3 POP SWAP3 POP SWAP3 JUMP JUMPDEST PUSH0 PUSH1 0x20 DUP3 DUP5 SUB SLT ISZERO PUSH2 0x1A5B JUMPI PUSH2 0x1A5A PUSH2 0x178D JUMP JUMPDEST JUMPDEST PUSH0 PUSH2 0x1A68 DUP5 DUP3 DUP6 ADD PUSH2 0x19A4 JUMP JUMPDEST SWAP2 POP POP SWAP3 SWAP2 POP POP JUMP JUMPDEST PUSH2 0x1A7A DUP2 PUSH2 0x18D8 JUMP JUMPDEST DUP3 MSTORE POP POP JUMP JUMPDEST PUSH0 PUSH1 0x20 DUP3 ADD SWAP1 POP PUSH2 0x1A93 PUSH0 DUP4 ADD DUP5 PUSH2 0x1A71 JUMP JUMPDEST SWAP3 SWAP2 POP POP JUMP JUMPDEST PUSH2 0x1AA2 DUP2 PUSH2 0x1815 JUMP JUMPDEST DUP2 EQ PUSH2 0x1AAC JUMPI PUSH0 PUSH0 REVERT JUMPDEST POP JUMP JUMPDEST PUSH0 DUP2 CALLDATALOAD SWAP1 POP PUSH2 0x1ABD DUP2 PUSH2 0x1A99 JUMP JUMPDEST SWAP3 SWAP2 POP POP JUMP JUMPDEST PUSH0 PUSH0 PUSH1 0x40 DUP4 DUP6 SUB SLT ISZERO PUSH2 0x1AD9 JUMPI PUSH2 0x1AD8 PUSH2 0x178D JUMP JUMPDEST JUMPDEST PUSH0 PUSH2 0x1AE6 DUP6 DUP3 DUP7 ADD PUSH2 0x19A4 JUMP JUMPDEST SWAP3 POP POP PUSH1 0x20 PUSH2 0x1AF7 DUP6 DUP3 DUP7 ADD PUSH2 0x1AAF JUMP JUMPDEST SWAP2 POP POP SWAP3 POP SWAP3 SWAP1 POP JUMP JUMPDEST PUSH0 PUSH0 REVERT JUMPDEST PUSH0 PUSH0 REVERT JUMPDEST PUSH0 PUSH0 REVERT JUMPDEST PUSH0 PUSH0 DUP4 PUSH1 0x1F DUP5 ADD SLT PUSH2 0x1B22 JUMPI PUSH2 0x1B21 PUSH2 0x1B01 JUMP JUMPDEST JUMPDEST DUP3 CALLDATALOAD SWAP1 POP PUSH8 0xFFFFFFFFFFFFFFFF DUP2 GT ISZERO PUSH2 0x1B3F JUMPI PUSH2 0x1B3E PUSH2 0x1B05 JUMP JUMPDEST JUMPDEST PUSH1 0x20 DUP4 ADD SWAP2 POP DUP4 PUSH1 0x1 DUP3 MUL DUP4 ADD GT ISZERO PUSH2 0x1B5B JUMPI PUSH2 0x1B5A PUSH2 0x1B09 JUMP JUMPDEST JUMPDEST SWAP3 POP SWAP3 SWAP1 POP JUMP JUMPDEST PUSH0 PUSH0 PUSH0 PUSH0 PUSH0 PUSH1 0x80 DUP7 DUP9 SUB SLT ISZERO PUSH2 0x1B7B JUMPI PUSH2 0x1B7A PUSH2 0x178D JUMP JUMPDEST JUMPDEST PUSH0 PUSH2 0x1B88 DUP9 DUP3 DUP10 ADD PUSH2 0x19A4 JUMP JUMPDEST SWAP6 POP POP PUSH1 0x20 PUSH2 0x1B99 DUP9 DUP3 DUP10 ADD PUSH2 0x19A4 JUMP JUMPDEST SWAP5 POP POP PUSH1 0x40 PUSH2 0x1BAA DUP9 DUP3 DUP10 ADD PUSH2 0x18F7 JUMP JUMPDEST SWAP4 POP POP PUSH1 0x60 DUP7 ADD CALLDATALOAD PUSH8 0xFFFFFFFFFFFFFFFF DUP2 GT ISZERO PUSH2 0x1BCB JUMPI PUSH2 0x1BCA PUSH2 0x1791 JUMP JUMPDEST JUMPDEST PUSH2 0x1BD7 DUP9 DUP3 DUP10 ADD PUSH2 0x1B0D JUMP JUMPDEST SWAP3 POP SWAP3 POP POP SWAP3 SWAP6 POP SWAP3 SWAP6 SWAP1 SWAP4 POP JUMP JUMPDEST PUSH0 PUSH0 PUSH1 0x40 DUP4 DUP6 SUB SLT ISZERO PUSH2 0x1BFC JUMPI PUSH2 0x1BFB PUSH2 0x178D JUMP JUMPDEST JUMPDEST PUSH0 PUSH2 0x1C09 DUP6 DUP3 DUP7 ADD PUSH2 0x19A4 JUMP JUMPDEST SWAP3 POP POP PUSH1 0x20 PUSH2 0x1C1A DUP6 DUP3 DUP7 ADD PUSH2 0x19A4 JUMP JUMPDEST SWAP2 POP POP SWAP3 POP SWAP3 SWAP1 POP JUMP JUMPDEST PUSH32 0x4E487B7100000000000000000000000000000000000000000000000000000000 PUSH0 MSTORE PUSH1 0x22 PUSH1 0x4 MSTORE PUSH1 0x24 PUSH0 REVERT JUMPDEST PUSH0 PUSH1 0x2 DUP3 DIV SWAP1 POP PUSH1 0x1 DUP3 AND DUP1 PUSH2 0x1C68 JUMPI PUSH1 0x7F DUP3 AND SWAP2 POP JUMPDEST PUSH1 0x20 DUP3 LT DUP2 SUB PUSH2 0x1C7B JUMPI PUSH2 0x1C7A PUSH2 0x1C24 JUMP JUMPDEST JUMPDEST POP SWAP2 SWAP1 POP JUMP JUMPDEST PUSH32 0x746F6B656E206E6F742065786973740000000000000000000000000000000000 PUSH0 DUP3 ADD MSTORE POP JUMP JUMPDEST PUSH0 PUSH2 0x1CB5 PUSH1 0xF DUP4 PUSH2 0x1852 JUMP JUMPDEST SWAP2 POP PUSH2 0x1CC0 DUP3 PUSH2 0x1C81 JUMP JUMPDEST PUSH1 0x20 DUP3 ADD SWAP1 POP SWAP2 SWAP1 POP JUMP JUMPDEST PUSH0 PUSH1 0x20 DUP3 ADD SWAP1 POP DUP2 DUP2 SUB PUSH0 DUP4 ADD MSTORE PUSH2 0x1CE2 DUP2 PUSH2 0x1CA9 JUMP JUMPDEST SWAP1 POP SWAP2 SWAP1 POP JUMP JUMPDEST PUSH32 0x5468652063616C6C6572206D757374206F776E2074686520746F6B656E206F72 PUSH0 DUP3 ADD MSTORE PUSH32 0x20626520616E20617070726F766564206F70657261746F720000000000000000 PUSH1 0x20 DUP3 ADD MSTORE POP JUMP JUMPDEST PUSH0 PUSH2 0x1D43 PUSH1 0x38 DUP4 PUSH2 0x1852 JUMP JUMPDEST SWAP2 POP PUSH2 0x1D4E DUP3 PUSH2 0x1CE9 JUMP JUMPDEST PUSH1 0x40 DUP3 ADD SWAP1 POP SWAP2 SWAP1 POP JUMP JUMPDEST PUSH0 PUSH1 0x20 DUP3 ADD SWAP1 POP DUP2 DUP2 SUB PUSH0 DUP4 ADD MSTORE PUSH2 0x1D70 DUP2 PUSH2 0x1D37 JUMP JUMPDEST SWAP1 POP SWAP2 SWAP1 POP JUMP JUMPDEST PUSH32 0x746F6B656E4964206F7574206F662072616E6765000000000000000000000000 PUSH0 DUP3 ADD MSTORE POP JUMP JUMPDEST PUSH0 PUSH2 0x1DAB PUSH1 0x14 DUP4 PUSH2 0x1852 JUMP JUMPDEST SWAP2 POP PUSH2 0x1DB6 DUP3 PUSH2 0x1D77 JUMP JUMPDEST PUSH1 0x20 DUP3 ADD SWAP1 POP SWAP2 SWAP1 POP JUMP JUMPDEST PUSH0 PUSH1 0x20 DUP3 ADD SWAP1 POP DUP2 DUP2 SUB PUSH0 DUP4 ADD MSTORE PUSH2 0x1DD8 DUP2 PUSH2 0x1D9F JUMP JUMPDEST SWAP1 POP SWAP2 SWAP1 POP JUMP JUMPDEST PUSH32 0x60746F6B656E49646020746F6B656E206D75737420657869737420616E642062 PUSH0 DUP3 ADD MSTORE PUSH32 0x65206F776E6564206279206066726F6D60206F72206066726F6D60206D757374 PUSH1 0x20 DUP3 ADD MSTORE PUSH32 0x20626520617070726F76656420746F206D6F7665207468697320746F6B656E20 PUSH1 0x40 DUP3 ADD MSTORE PUSH32 0x62792065697468657220617070726F7665206F7220736574417070726F76616C PUSH1 0x60 DUP3 ADD MSTORE PUSH32 0x466F72416C6C0000000000000000000000000000000000000000000000000000 PUSH1 0x80 DUP3 ADD MSTORE POP JUMP JUMPDEST PUSH0 PUSH2 0x1EAB PUSH1 0x86 DUP4 PUSH2 0x1852 JUMP JUMPDEST SWAP2 POP PUSH2 0x1EB6 DUP3 PUSH2 0x1DDF JUMP JUMPDEST PUSH1 0xA0 DUP3 ADD SWAP1 POP SWAP2 SWAP1 POP JUMP JUMPDEST PUSH0 PUSH1 0x20 DUP3 ADD SWAP1 POP DUP2 DUP2 SUB PUSH0 DUP4 ADD MSTORE PUSH2 0x1ED8 DUP2 PUSH2 0x1E9F JUMP JUMPDEST SWAP1 POP SWAP2 SWAP1 POP JUMP JUMPDEST PUSH32 0x54686520606F70657261746F72602063616E6E6F742062652074686520616464 PUSH0 DUP3 ADD MSTORE PUSH32 0x72657373207A65726F2E00000000000000000000000000000000000000000000 PUSH1 0x20 DUP3 ADD MSTORE POP JUMP JUMPDEST PUSH0 PUSH2 0x1F39 PUSH1 0x2A DUP4 PUSH2 0x1852 JUMP JUMPDEST SWAP2 POP PUSH2 0x1F44 DUP3 PUSH2 0x1EDF JUMP JUMPDEST PUSH1 0x40 DUP3 ADD SWAP1 POP SWAP2 SWAP1 POP JUMP JUMPDEST PUSH0 PUSH1 0x20 DUP3 ADD SWAP1 POP DUP2 DUP2 SUB PUSH0 DUP4 ADD MSTORE PUSH2 0x1F66 DUP2 PUSH2 0x1F2D JUMP JUMPDEST SWAP1 POP SWAP2 SWAP1 POP JUMP JUMPDEST PUSH0 DUP2 SWAP1 POP SWAP3 SWAP2 POP POP JUMP JUMPDEST PUSH0 PUSH2 0x1F81 DUP3 PUSH2 0x1848 JUMP JUMPDEST PUSH2 0x1F8B DUP2 DUP6 PUSH2 0x1F6D JUMP JUMPDEST SWAP4 POP PUSH2 0x1F9B DUP2 DUP6 PUSH1 0x20 DUP7 ADD PUSH2 0x1862 JUMP JUMPDEST DUP1 DUP5 ADD SWAP2 POP POP SWAP3 SWAP2 POP POP JUMP JUMPDEST PUSH0 PUSH2 0x1FB2 DUP3 DUP6 PUSH2 0x1F77 JUMP JUMPDEST SWAP2 POP PUSH2 0x1FBE DUP3 DUP5 PUSH2 0x1F77 JUMP JUMPDEST SWAP2 POP DUP2 SWAP1 POP SWAP4 SWAP3 POP POP POP JUMP JUMPDEST PUSH0 DUP2 MLOAD SWAP1 POP SWAP2 SWAP1 POP JUMP JUMPDEST PUSH0 DUP3 DUP3 MSTORE PUSH1 0x20 DUP3 ADD SWAP1 POP SWAP3 SWAP2 POP POP JUMP JUMPDEST PUSH0 PUSH2 0x1FEE DUP3 PUSH2 0x1FCA JUMP JUMPDEST PUSH2 0x1FF8 DUP2 DUP6 PUSH2 0x1FD4 JUMP JUMPDEST SWAP4 POP PUSH2 0x2008 DUP2 DUP6 PUSH1 0x20 DUP7 ADD PUSH2 0x1862 JUMP JUMPDEST PUSH2 0x2011 DUP2 PUSH2 0x1870 JUMP JUMPDEST DUP5 ADD SWAP2 POP POP SWAP3 SWAP2 POP POP JUMP JUMPDEST PUSH0 PUSH1 0x80 DUP3 ADD SWAP1 POP PUSH2 0x202F PUSH0 DUP4 ADD DUP8 PUSH2 0x1966 JUMP JUMPDEST PUSH2 0x203C PUSH1 0x20 DUP4 ADD DUP7 PUSH2 0x1966 JUMP JUMPDEST PUSH2 0x2049 PUSH1 0x40 DUP4 ADD DUP6 PUSH2 0x1A71 JUMP JUMPDEST DUP2 DUP2 SUB PUSH1 0x60 DUP4 ADD MSTORE PUSH2 0x205B DUP2 DUP5 PUSH2 0x1FE4 JUMP JUMPDEST SWAP1 POP SWAP6 SWAP5 POP POP POP POP POP JUMP JUMPDEST PUSH0 DUP2 MLOAD SWAP1 POP PUSH2 0x2074 DUP2 PUSH2 0x17C0 JUMP JUMPDEST SWAP3 SWAP2 POP POP JUMP JUMPDEST PUSH0 PUSH1 0x20 DUP3 DUP5 SUB SLT ISZERO PUSH2 0x208F JUMPI PUSH2 0x208E PUSH2 0x178D JUMP JUMPDEST JUMPDEST PUSH0 PUSH2 0x209C DUP5 DUP3 DUP6 ADD PUSH2 0x2066 JUMP JUMPDEST SWAP2 POP POP SWAP3 SWAP2 POP POP JUMP JUMPDEST PUSH32 0x4E487B7100000000000000000000000000000000000000000000000000000000 PUSH0 MSTORE PUSH1 0x11 PUSH1 0x4 MSTORE PUSH1 0x24 PUSH0 REVERT JUMPDEST PUSH0 PUSH2 0x20DC DUP3 PUSH2 0x18D8 JUMP JUMPDEST SWAP2 POP PUSH2 0x20E7 DUP4 PUSH2 0x18D8 JUMP JUMPDEST SWAP3 POP DUP3 DUP3 SUB SWAP1 POP DUP2 DUP2 GT ISZERO PUSH2 0x20FF JUMPI PUSH2 0x20FE PUSH2 0x20A5 JUMP JUMPDEST JUMPDEST SWAP3 SWAP2 POP POP JUMP JUMPDEST PUSH0 PUSH2 0x210F DUP3 PUSH2 0x18D8 JUMP JUMPDEST SWAP2 POP PUSH2 0x211A DUP4 PUSH2 0x18D8 JUMP JUMPDEST SWAP3 POP DUP3 DUP3 ADD SWAP1 POP DUP1 DUP3 GT ISZERO PUSH2 0x2132 JUMPI PUSH2 0x2131 PUSH2 0x20A5 JUMP JUMPDEST JUMPDEST SWAP3 SWAP2 POP POP JUMP JUMPDEST PUSH32 0x60746F602063616E6E6F7420626520746865207A65726F206164647265737300 PUSH0 DUP3 ADD MSTORE POP JUMP JUMPDEST PUSH0 PUSH2 0x216C PUSH1 0x1F DUP4 PUSH2 0x1852 JUMP JUMPDEST SWAP2 POP PUSH2 0x2177 DUP3 PUSH2 0x2138 JUMP JUMPDEST PUSH1 0x20 DUP3 ADD SWAP1 POP SWAP2 SWAP1 POP JUMP JUMPDEST PUSH0 PUSH1 0x20 DUP3 ADD SWAP1 POP DUP2 DUP2 SUB PUSH0 DUP4 ADD MSTORE PUSH2 0x2199 DUP2 PUSH2 0x2160 JUMP JUMPDEST SWAP1 POP SWAP2 SWAP1 POP JUMP JUMPDEST PUSH32 0x746F6B656E20686173206265656E206D696E7465640000000000000000000000 PUSH0 DUP3 ADD MSTORE POP JUMP JUMPDEST PUSH0 PUSH2 0x21D4 PUSH1 0x15 DUP4 PUSH2 0x1852 JUMP JUMPDEST SWAP2 POP PUSH2 0x21DF DUP3 PUSH2 0x21A0 JUMP JUMPDEST PUSH1 0x20 DUP3 ADD SWAP1 POP SWAP2 SWAP1 POP JUMP JUMPDEST PUSH0 PUSH1 0x20 DUP3 ADD SWAP1 POP DUP2 DUP2 SUB PUSH0 DUP4 ADD MSTORE PUSH2 0x2201 DUP2 PUSH2 0x21C8 JUMP JUMPDEST SWAP1 POP SWAP2 SWAP1 POP JUMP JUMPDEST PUSH32 0x6066726F6D602063616E6E6F7420626520746865207A65726F20616464726573 PUSH0 DUP3 ADD MSTORE PUSH32 0x7300000000000000000000000000000000000000000000000000000000000000 PUSH1 0x20 DUP3 ADD MSTORE POP JUMP JUMPDEST PUSH0 PUSH2 0x2262 PUSH1 0x21 DUP4 PUSH2 0x1852 JUMP JUMPDEST SWAP2 POP PUSH2 0x226D DUP3 PUSH2 0x2208 JUMP JUMPDEST PUSH1 0x40 DUP3 ADD SWAP1 POP SWAP2 SWAP1 POP JUMP JUMPDEST PUSH0 PUSH1 0x20 DUP3 ADD SWAP1 POP DUP2 DUP2 SUB PUSH0 DUP4 ADD MSTORE PUSH2 0x228F DUP2 PUSH2 0x2256 JUMP JUMPDEST SWAP1 POP SWAP2 SWAP1 POP JUMP JUMPDEST PUSH0 PUSH2 0x22A0 DUP3 PUSH2 0x18D8 JUMP JUMPDEST SWAP2 POP PUSH32 0xFFFFFFFFFFFFFFFFFFFFFFFFFFFFFFFFFFFFFFFFFFFFFFFFFFFFFFFFFFFFFFFF DUP3 SUB PUSH2 0x22D2 JUMPI PUSH2 0x22D1 PUSH2 0x20A5 JUMP JUMPDEST JUMPDEST PUSH1 0x1 DUP3 ADD SWAP1 POP SWAP2 SWAP1 POP JUMP JUMPDEST PUSH32 0x4E487B7100000000000000000000000000000000000000000000000000000000 PUSH0 MSTORE PUSH1 0x12 PUSH1 0x4 MSTORE PUSH1 0x24 PUSH0 REVERT JUMPDEST PUSH0 PUSH2 0x2314 DUP3 PUSH2 0x18D8 JUMP JUMPDEST SWAP2 POP PUSH2 0x231F DUP4 PUSH2 0x18D8 JUMP JUMPDEST SWAP3 POP DUP3 PUSH2 0x232F JUMPI PUSH2 0x232E PUSH2 0x22DD JUMP JUMPDEST JUMPDEST DUP3 DUP3 DIV SWAP1 POP SWAP3 SWAP2 POP POP JUMP JUMPDEST PUSH32 0x4E487B7100000000000000000000000000000000000000000000000000000000 PUSH0 MSTORE PUSH1 0x41 PUSH1 0x4 MSTORE PUSH1 0x24 PUSH0 REVERT JUMPDEST PUSH0 PUSH2 0x2371 DUP3 PUSH2 0x18D8 JUMP JUMPDEST SWAP2 POP PUSH2 0x237C DUP4 PUSH2 0x18D8 JUMP JUMPDEST SWAP3 POP DUP3 PUSH2 0x238C JUMPI PUSH2 0x238B PUSH2 0x22DD JUMP JUMPDEST JUMPDEST DUP3 DUP3 MOD SWAP1 POP SWAP3 SWAP2 POP POP JUMP JUMPDEST PUSH32 0x4E487B7100000000000000000000000000000000000000000000000000000000 PUSH0 MSTORE PUSH1 0x32 PUSH1 0x4 MSTORE PUSH1 0x24 PUSH0 REVERT INVALID PUSH10 0x7066733A2F2F6261666B PUSH19 0x656962336B6E686432797A7762623636636365 PUSH27 0x7835323336656A336476726F67716573356D6F767A6D65756B7066 PUSH5 0x7366647368 PUSH22 0x2FA26469706673582212207525769C82F75DCC1F03BD LOG1 JUMP PUSH15 0x9409E98392BDDF574F35EAFDCD1D9C DIV MSTORE8 0x23 PUSH5 0x736F6C6343 STOP ADDMOD 0x1E STOP CALLER "
				},
				"gasEstimates": {
					"creation": {
						"codeDepositCost": "1855400",
						"executionCost": "infinite",
						"totalCost": "infinite"
					},
					"external": {
						"MAX_APES()": "2469",
						"approve(address,uint256)": "31408",
						"balanceOf(address)": "2874",
						"getApproved(uint256)": "5165",
						"isApprovedForAll(address,address)": "infinite",
						"mintNFT(address,uint256)": "infinite",
						"name()": "infinite",
						"ownerOf(uint256)": "2961",
						"safeTransferFrom(address,address,uint256)": "infinite",
						"safeTransferFrom(address,address,uint256,bytes)": "infinite",
						"setApprovalForAll(address,bool)": "infinite",
						"supportsInterface(bytes4)": "745",
						"symbol()": "infinite",
						"tokenURI(uint256)": "infinite",
						"transferFrom(address,address,uint256)": "infinite"
					},
					"internal": {
						"_baseURI()": "infinite"
					}
				},
				"methodIdentifiers": {
					"MAX_APES()": "bb8a16bd",
					"approve(address,uint256)": "095ea7b3",
					"balanceOf(address)": "70a08231",
					"getApproved(uint256)": "081812fc",
					"isApprovedForAll(address,address)": "e985e9c5",
					"mintNFT(address,uint256)": "3c168eab",
					"name()": "06fdde03",
					"ownerOf(uint256)": "6352211e",
					"safeTransferFrom(address,address,uint256)": "42842e0e",
					"safeTransferFrom(address,address,uint256,bytes)": "b88d4fde",
					"setApprovalForAll(address,bool)": "a22cb465",
					"supportsInterface(bytes4)": "01ffc9a7",
					"symbol()": "95d89b41",
					"tokenURI(uint256)": "c87b56dd",
					"transferFrom(address,address,uint256)": "23b872dd"
				}
			},
			"storageLayout": {
				"storage": [
					{
						"astId": 20,
						"contract": "Task2/work2/LXApe.sol:LXApe",
						"label": "name",
						"offset": 0,
						"slot": "0",
						"type": "t_string_storage"
					},
					{
						"astId": 22,
						"contract": "Task2/work2/LXApe.sol:LXApe",
						"label": "symbol",
						"offset": 0,
						"slot": "1",
						"type": "t_string_storage"
					},
					{
						"astId": 26,
						"contract": "Task2/work2/LXApe.sol:LXApe",
						"label": "_owners",
						"offset": 0,
						"slot": "2",
						"type": "t_mapping(t_uint256,t_address)"
					},
					{
						"astId": 30,
						"contract": "Task2/work2/LXApe.sol:LXApe",
						"label": "_balanceOf",
						"offset": 0,
						"slot": "3",
						"type": "t_mapping(t_address,t_uint256)"
					},
					{
						"astId": 34,
						"contract": "Task2/work2/LXApe.sol:LXApe",
						"label": "_tokenApprovals",
						"offset": 0,
						"slot": "4",
						"type": "t_mapping(t_uint256,t_address)"
					},
					{
						"astId": 40,
						"contract": "Task2/work2/LXApe.sol:LXApe",
						"label": "_operatorApprovals",
						"offset": 0,
						"slot": "5",
						"type": "t_mapping(t_address,t_mapping(t_address,t_bool))"
					},
					{
						"astId": 834,
						"contract": "Task2/work2/LXApe.sol:LXApe",
						"label": "MAX_APES",
						"offset": 0,
						"slot": "6",
						"type": "t_uint256"
					}
				],
				"types": {
					"t_address": {
						"encoding": "inplace",
						"label": "address",
						"numberOfBytes": "20"
					},
					"t_bool": {
						"encoding": "inplace",
						"label": "bool",
						"numberOfBytes": "1"
					},
					"t_mapping(t_address,t_bool)": {
						"encoding": "mapping",
						"key": "t_address",
						"label": "mapping(address => bool)",
						"numberOfBytes": "32",
						"value": "t_bool"
					},
					"t_mapping(t_address,t_mapping(t_address,t_bool))": {
						"encoding": "mapping",
						"key": "t_address",
						"label": "mapping(address => mapping(address => bool))",
						"numberOfBytes": "32",
						"value": "t_mapping(t_address,t_bool)"
					},
					"t_mapping(t_address,t_uint256)": {
						"encoding": "mapping",
						"key": "t_address",
						"label": "mapping(address => uint256)",
						"numberOfBytes": "32",
						"value": "t_uint256"
					},
					"t_mapping(t_uint256,t_address)": {
						"encoding": "mapping",
						"key": "t_uint256",
						"label": "mapping(uint256 => address)",
						"numberOfBytes": "32",
						"value": "t_address"
					},
					"t_string_storage": {
						"encoding": "bytes",
						"label": "string",
						"numberOfBytes": "32"
					},
					"t_uint256": {
						"encoding": "inplace",
						"label": "uint256",
						"numberOfBytes": "32"
					}
				}
			},
			"userdoc": {
				"kind": "user",
				"methods": {},
				"version": 1
			}
		}
	}
}