{
	"data": {
		"bytecode": {
			"linkReferences": {},
			"object": "6080604052348015600e575f5ffd5b506103f18061001c5f395ff3fe608060405234801561000f575f5ffd5b5060043610610029575f3560e01c8063d43fc4711461002d575b5f5ffd5b610047600480360381019061004291906101f1565b61005e565b604051610055929190610277565b60405180910390f35b5f5f5f5f90505f60018787905061007591906102cb565b90505b808211610141575f6002838361008e91906102cb565b610098919061032b565b836100a3919061035b565b90508787828181106100b8576100b761038e565b5b9050602002013586036100d4576001819450945050505061014d565b8787828181106100e7576100e661038e565b5b9050602002013586111561010957600181610102919061035b565b925061013b565b87878281811061011c5761011b61038e565b5b9050602002013586101561013a5760018161013791906102cb565b91505b5b50610078565b5f878790509350935050505b935093915050565b5f5ffd5b5f5ffd5b5f5ffd5b5f5ffd5b5f5ffd5b5f5f83601f84011261017e5761017d61015d565b5b8235905067ffffffffffffffff81111561019b5761019a610161565b5b6020830191508360208202830111156101b7576101b6610165565b5b9250929050565b5f819050919050565b6101d0816101be565b81146101da575f5ffd5b50565b5f813590506101eb816101c7565b92915050565b5f5f5f6040848603121561020857610207610155565b5b5f84013567ffffffffffffffff81111561022557610224610159565b5b61023186828701610169565b93509350506020610244868287016101dd565b9150509250925092565b5f8115159050919050565b6102628161024e565b82525050565b610271816101be565b82525050565b5f60408201905061028a5f830185610259565b6102976020830184610268565b9392505050565b7f4e487b71000000000000000000000000000000000000000000000000000000005f52601160045260245ffd5b5f6102d5826101be565b91506102e0836101be565b92508282039050818111156102f8576102f761029e565b5b92915050565b7f4e487b71000000000000000000000000000000000000000000000000000000005f52601260045260245ffd5b5f610335826101be565b9150610340836101be565b9250826103505761034f6102fe565b5b828204905092915050565b5f610365826101be565b9150610370836101be565b92508282019050808211156103885761038761029e565b5b92915050565b7f4e487b71000000000000000000000000000000000000000000000000000000005f52603260045260245ffdfea264697066735822122068c6a19b3936b8878044d2576133ef79cf80ae40c195d27e4c3a7d34edb43e8464736f6c634300081e0033",
			"opcodes": "PUSH1 0x80 PUSH1 0x40 MSTORE CALLVALUE DUP1 ISZERO PUSH1 0xE JUMPI PUSH0 PUSH0 REVERT JUMPDEST POP PUSH2 0x3F1 DUP1 PUSH2 0x1C PUSH0 CODECOPY PUSH0 RETURN INVALID PUSH1 0x80 PUSH1 0x40 MSTORE CALLVALUE DUP1 ISZERO PUSH2 0xF JUMPI PUSH0 PUSH0 REVERT JUMPDEST POP PUSH1 0x4 CALLDATASIZE LT PUSH2 0x29 JUMPI PUSH0 CALLDATALOAD PUSH1 0xE0 SHR DUP1 PUSH4 0xD43FC471 EQ PUSH2 0x2D JUMPI JUMPDEST PUSH0 PUSH0 REVERT JUMPDEST PUSH2 0x47 PUSH1 0x4 DUP1 CALLDATASIZE SUB DUP2 ADD SWAP1 PUSH2 0x42 SWAP2 SWAP1 PUSH2 0x1F1 JUMP JUMPDEST PUSH2 0x5E JUMP JUMPDEST PUSH1 0x40 MLOAD PUSH2 0x55 SWAP3 SWAP2 SWAP1 PUSH2 0x277 JUMP JUMPDEST PUSH1 0x40 MLOAD DUP1 SWAP2 SUB SWAP1 RETURN JUMPDEST PUSH0 PUSH0 PUSH0 PUSH0 SWAP1 POP PUSH0 PUSH1 0x1 DUP8 DUP8 SWAP1 POP PUSH2 0x75 SWAP2 SWAP1 PUSH2 0x2CB JUMP JUMPDEST SWAP1 POP JUMPDEST DUP1 DUP3 GT PUSH2 0x141 JUMPI PUSH0 PUSH1 0x2 DUP4 DUP4 PUSH2 0x8E SWAP2 SWAP1 PUSH2 0x2CB JUMP JUMPDEST PUSH2 0x98 SWAP2 SWAP1 PUSH2 0x32B JUMP JUMPDEST DUP4 PUSH2 0xA3 SWAP2 SWAP1 PUSH2 0x35B JUMP JUMPDEST SWAP1 POP DUP8 DUP8 DUP3 DUP2 DUP2 LT PUSH2 0xB8 JUMPI PUSH2 0xB7 PUSH2 0x38E JUMP JUMPDEST JUMPDEST SWAP1 POP PUSH1 0x20 MUL ADD CALLDATALOAD DUP7 SUB PUSH2 0xD4 JUMPI PUSH1 0x1 DUP2 SWAP5 POP SWAP5 POP POP POP POP PUSH2 0x14D JUMP JUMPDEST DUP8 DUP8 DUP3 DUP2 DUP2 LT PUSH2 0xE7 JUMPI PUSH2 0xE6 PUSH2 0x38E JUMP JUMPDEST JUMPDEST SWAP1 POP PUSH1 0x20 MUL ADD CALLDATALOAD DUP7 GT ISZERO PUSH2 0x109 JUMPI PUSH1 0x1 DUP2 PUSH2 0x102 SWAP2 SWAP1 PUSH2 0x35B JUMP JUMPDEST SWAP3 POP PUSH2 0x13B JUMP JUMPDEST DUP8 DUP8 DUP3 DUP2 DUP2 LT PUSH2 0x11C JUMPI PUSH2 0x11B PUSH2 0x38E JUMP JUMPDEST JUMPDEST SWAP1 POP PUSH1 0x20 MUL ADD CALLDATALOAD DUP7 LT ISZERO PUSH2 0x13A JUMPI PUSH1 0x1 DUP2 PUSH2 0x137 SWAP2 SWAP1 PUSH2 0x2CB JUMP JUMPDEST SWAP2 POP JUMPDEST JUMPDEST POP PUSH2 0x78 JUMP JUMPDEST PUSH0 DUP8 DUP8 SWAP1 POP SWAP4 POP SWAP4 POP POP POP JUMPDEST SWAP4 POP SWAP4 SWAP2 POP POP JUMP JUMPDEST PUSH0 PUSH0 REVERT JUMPDEST PUSH0 PUSH0 REVERT JUMPDEST PUSH0 PUSH0 REVERT JUMPDEST PUSH0 PUSH0 REVERT JUMPDEST PUSH0 PUSH0 REVERT JUMPDEST PUSH0 PUSH0 DUP4 PUSH1 0x1F DUP5 ADD SLT PUSH2 0x17E JUMPI PUSH2 0x17D PUSH2 0x15D JUMP JUMPDEST JUMPDEST DUP3 CALLDATALOAD SWAP1 POP PUSH8 0xFFFFFFFFFFFFFFFF DUP2 GT ISZERO PUSH2 0x19B JUMPI PUSH2 0x19A PUSH2 0x161 JUMP JUMPDEST JUMPDEST PUSH1 0x20 DUP4 ADD SWAP2 POP DUP4 PUSH1 0x20 DUP3 MUL DUP4 ADD GT ISZERO PUSH2 0x1B7 JUMPI PUSH2 0x1B6 PUSH2 0x165 JUMP JUMPDEST JUMPDEST SWAP3 POP SWAP3 SWAP1 POP JUMP JUMPDEST PUSH0 DUP2 SWAP1 POP SWAP2 SWAP1 POP JUMP JUMPDEST PUSH2 0x1D0 DUP2 PUSH2 0x1BE JUMP JUMPDEST DUP2 EQ PUSH2 0x1DA JUMPI PUSH0 PUSH0 REVERT JUMPDEST POP JUMP JUMPDEST PUSH0 DUP2 CALLDATALOAD SWAP1 POP PUSH2 0x1EB DUP2 PUSH2 0x1C7 JUMP JUMPDEST SWAP3 SWAP2 POP POP JUMP JUMPDEST PUSH0 PUSH0 PUSH0 PUSH1 0x40 DUP5 DUP7 SUB SLT ISZERO PUSH2 0x208 JUMPI PUSH2 0x207 PUSH2 0x155 JUMP JUMPDEST JUMPDEST PUSH0 DUP5 ADD CALLDATALOAD PUSH8 0xFFFFFFFFFFFFFFFF DUP2 GT ISZERO PUSH2 0x225 JUMPI PUSH2 0x224 PUSH2 0x159 JUMP JUMPDEST JUMPDEST PUSH2 0x231 DUP7 DUP3 DUP8 ADD PUSH2 0x169 JUMP JUMPDEST SWAP4 POP SWAP4 POP POP PUSH1 0x20 PUSH2 0x244 DUP7 DUP3 DUP8 ADD PUSH2 0x1DD JUMP JUMPDEST SWAP2 POP POP SWAP3 POP SWAP3 POP SWAP3 JUMP JUMPDEST PUSH0 DUP2 ISZERO ISZERO SWAP1 POP SWAP2 SWAP1 POP JUMP JUMPDEST PUSH2 0x262 DUP2 PUSH2 0x24E JUMP JUMPDEST DUP3 MSTORE POP POP JUMP JUMPDEST PUSH2 0x271 DUP2 PUSH2 0x1BE JUMP JUMPDEST DUP3 MSTORE POP POP JUMP JUMPDEST PUSH0 PUSH1 0x40 DUP3 ADD SWAP1 POP PUSH2 0x28A PUSH0 DUP4 ADD DUP6 PUSH2 0x259 JUMP JUMPDEST PUSH2 0x297 PUSH1 0x20 DUP4 ADD DUP5 PUSH2 0x268 JUMP JUMPDEST SWAP4 SWAP3 POP POP POP JUMP JUMPDEST PUSH32 0x4E487B7100000000000000000000000000000000000000000000000000000000 PUSH0 MSTORE PUSH1 0x11 PUSH1 0x4 MSTORE PUSH1 0x24 PUSH0 REVERT JUMPDEST PUSH0 PUSH2 0x2D5 DUP3 PUSH2 0x1BE JUMP JUMPDEST SWAP2 POP PUSH2 0x2E0 DUP4 PUSH2 0x1BE JUMP JUMPDEST SWAP3 POP DUP3 DUP3 SUB SWAP1 POP DUP2 DUP2 GT ISZERO PUSH2 0x2F8 JUMPI PUSH2 0x2F7 PUSH2 0x29E JUMP JUMPDEST JUMPDEST SWAP3 SWAP2 POP POP JUMP JUMPDEST PUSH32 0x4E487B7100000000000000000000000000000000000000000000000000000000 PUSH0 MSTORE PUSH1 0x12 PUSH1 0x4 MSTORE PUSH1 0x24 PUSH0 REVERT JUMPDEST PUSH0 PUSH2 0x335 DUP3 PUSH2 0x1BE JUMP JUMPDEST SWAP2 POP PUSH2 0x340 DUP4 PUSH2 0x1BE JUMP JUMPDEST SWAP3 POP DUP3 PUSH2 0x350 JUMPI PUSH2 0x34F PUSH2 0x2FE JUMP JUMPDEST JUMPDEST DUP3 DUP3 DIV SWAP1 POP SWAP3 SWAP2 POP POP JUMP JUMPDEST PUSH0 PUSH2 0x365 DUP3 PUSH2 0x1BE JUMP JUMPDEST SWAP2 POP PUSH2 0x370 DUP4 PUSH2 0x1BE JUMP JUMPDEST SWAP3 POP DUP3 DUP3 ADD SWAP1 POP DUP1 DUP3 GT ISZERO PUSH2 0x388 JUMPI PUSH2 0x387 PUSH2 0x29E JUMP JUMPDEST JUMPDEST SWAP3 SWAP2 POP POP JUMP JUMPDEST PUSH32 0x4E487B7100000000000000000000000000000000000000000000000000000000 PUSH0 MSTORE PUSH1 0x32 PUSH1 0x4 MSTORE PUSH1 0x24 PUSH0 REVERT INVALID LOG2 PUSH5 0x6970667358 0x22 SLT KECCAK256 PUSH9 0xC6A19B3936B8878044 0xD2 JUMPI PUSH2 0x33EF PUSH26 0xCF80AE40C195D27E4C3A7D34EDB43E8464736F6C634300081E00 CALLER "
		},
		"gasEstimates": {
			"creation": {
				"codeDepositCost": "201800",
				"executionCost": "243",
				"totalCost": "202043"
			},
			"external": {
				"search(uint256[],uint256)": "infinite"
			}
		},
		"methodIdentifiers": {
			"search(uint256[],uint256)": "d43fc471"
		}
	},
	"abi": [
		{
			"inputs": [
				{
					"internalType": "uint256[]",
					"name": "arr",
					"type": "uint256[]"
				},
				{
					"internalType": "uint256",
					"name": "target",
					"type": "uint256"
				}
			],
			"name": "search",
			"outputs": [
				{
					"internalType": "bool",
					"name": "",
					"type": "bool"
				},
				{
					"internalType": "uint256",
					"name": "",
					"type": "uint256"
				}
			],
			"stateMutability": "pure",
			"type": "function"
		}
	]
}