{
	"data": {
		"bytecode": {
			"linkReferences": {},
			"object": "6080604052348015600e575f5ffd5b506105f08061001c5f395ff3fe608060405234801561000f575f5ffd5b5060043610610029575f3560e01c8063088b9bf61461002d575b5f5ffd5b6100476004803603810190610042919061035b565b61005d565b6040516100549190610499565b60405180910390f35b60605f838390508686905061007291906104e6565b67ffffffffffffffff81111561008b5761008a610519565b5b6040519080825280602002602001820160405280156100b95781602001602082028036833780820191505090505b5090505f5f90505f5f90505f5f90505b888890508310806100dc57508686905082105b156102e35788889050831080156100f557508686905082105b156102065786868381811061010d5761010c610546565b5b9050602002013589898581811061012757610126610546565b5b905060200201351161017f5788888481811061014657610145610546565b5b905060200201358482815181106101605761015f610546565b5b602002602001018181525050828061017790610573565b935050610201565b86868381811061019257610191610546565b5b905060200201358989858181106101ac576101ab610546565b5b9050602002013510610200578686838181106101cb576101ca610546565b5b905060200201358482815181106101e5576101e4610546565b5b60200260200101818152505081806101fc90610573565b9250505b5b6102d0565b88889050831015801561021b57508686905082105b1561026c5786868381811061023357610232610546565b5b9050602002013584828151811061024d5761024c610546565b5b602002602001018181525050818061026490610573565b9250506102cf565b86869050821015801561028157508888905083105b156102ce5788888481811061029957610298610546565b5b905060200201358482815181106102b3576102b2610546565b5b60200260200101818152505082806102ca90610573565b9350505b5b5b80806102db90610573565b9150506100c9565b83945050505050949350505050565b5f5ffd5b5f5ffd5b5f5ffd5b5f5ffd5b5f5ffd5b5f5f83601f84011261031b5761031a6102fa565b5b8235905067ffffffffffffffff811115610338576103376102fe565b5b60208301915083602082028301111561035457610353610302565b5b9250929050565b5f5f5f5f60408587031215610373576103726102f2565b5b5f85013567ffffffffffffffff8111156103905761038f6102f6565b5b61039c87828801610306565b9450945050602085013567ffffffffffffffff8111156103bf576103be6102f6565b5b6103cb87828801610306565b925092505092959194509250565b5f81519050919050565b5f82825260208201905092915050565b5f819050602082019050919050565b5f819050919050565b61041481610402565b82525050565b5f610425838361040b565b60208301905092915050565b5f602082019050919050565b5f610447826103d9565b61045181856103e3565b935061045c836103f3565b805f5b8381101561048c578151610473888261041a565b975061047e83610431565b92505060018101905061045f565b5085935050505092915050565b5f6020820190508181035f8301526104b1818461043d565b905092915050565b7f4e487b71000000000000000000000000000000000000000000000000000000005f52601160045260245ffd5b5f6104f082610402565b91506104fb83610402565b9250828201905080821115610513576105126104b9565b5b92915050565b7f4e487b71000000000000000000000000000000000000000000000000000000005f52604160045260245ffd5b7f4e487b71000000000000000000000000000000000000000000000000000000005f52603260045260245ffd5b5f61057d82610402565b91507fffffffffffffffffffffffffffffffffffffffffffffffffffffffffffffffff82036105af576105ae6104b9565b5b60018201905091905056fea2646970667358221220a8d8369fc0a4e235569e6d50b391fa873e231e3e9a0a809c33170ced33bf393664736f6c634300081e0033",
			"opcodes": "PUSH1 0x80 PUSH1 0x40 MSTORE CALLVALUE DUP1 ISZERO PUSH1 0xE JUMPI PUSH0 PUSH0 REVERT JUMPDEST POP PUSH2 0x5F0 DUP1 PUSH2 0x1C PUSH0 CODECOPY PUSH0 RETURN INVALID PUSH1 0x80 PUSH1 0x40 MSTORE CALLVALUE DUP1 ISZERO PUSH2 0xF JUMPI PUSH0 PUSH0 REVERT JUMPDEST POP PUSH1 0x4 CALLDATASIZE LT PUSH2 0x29 JUMPI PUSH0 CALLDATALOAD PUSH1 0xE0 SHR DUP1 PUSH4 0x88B9BF6 EQ PUSH2 0x2D JUMPI JUMPDEST PUSH0 PUSH0 REVERT JUMPDEST PUSH2 0x47 PUSH1 0x4 DUP1 CALLDATASIZE SUB DUP2 ADD SWAP1 PUSH2 0x42 SWAP2 SWAP1 PUSH2 0x35B JUMP JUMPDEST PUSH2 0x5D JUMP JUMPDEST PUSH1 0x40 MLOAD PUSH2 0x54 SWAP2 SWAP1 PUSH2 0x499 JUMP JUMPDEST PUSH1 0x40 MLOAD DUP1 SWAP2 SUB SWAP1 RETURN JUMPDEST PUSH1 0x60 PUSH0 DUP4 DUP4 SWAP1 POP DUP7 DUP7 SWAP1 POP PUSH2 0x72 SWAP2 SWAP1 PUSH2 0x4E6 JUMP JUMPDEST PUSH8 0xFFFFFFFFFFFFFFFF DUP2 GT ISZERO PUSH2 0x8B JUMPI PUSH2 0x8A PUSH2 0x519 JUMP JUMPDEST JUMPDEST PUSH1 0x40 MLOAD SWAP1 DUP1 DUP3 MSTORE DUP1 PUSH1 0x20 MUL PUSH1 0x20 ADD DUP3 ADD PUSH1 0x40 MSTORE DUP1 ISZERO PUSH2 0xB9 JUMPI DUP2 PUSH1 0x20 ADD PUSH1 0x20 DUP3 MUL DUP1 CALLDATASIZE DUP4 CALLDATACOPY DUP1 DUP3 ADD SWAP2 POP POP SWAP1 POP JUMPDEST POP SWAP1 POP PUSH0 PUSH0 SWAP1 POP PUSH0 PUSH0 SWAP1 POP PUSH0 PUSH0 SWAP1 POP JUMPDEST DUP9 DUP9 SWAP1 POP DUP4 LT DUP1 PUSH2 0xDC JUMPI POP DUP7 DUP7 SWAP1 POP DUP3 LT JUMPDEST ISZERO PUSH2 0x2E3 JUMPI DUP9 DUP9 SWAP1 POP DUP4 LT DUP1 ISZERO PUSH2 0xF5 JUMPI POP DUP7 DUP7 SWAP1 POP DUP3 LT JUMPDEST ISZERO PUSH2 0x206 JUMPI DUP7 DUP7 DUP4 DUP2 DUP2 LT PUSH2 0x10D JUMPI PUSH2 0x10C PUSH2 0x546 JUMP JUMPDEST JUMPDEST SWAP1 POP PUSH1 0x20 MUL ADD CALLDATALOAD DUP10 DUP10 DUP6 DUP2 DUP2 LT PUSH2 0x127 JUMPI PUSH2 0x126 PUSH2 0x546 JUMP JUMPDEST JUMPDEST SWAP1 POP PUSH1 0x20 MUL ADD CALLDATALOAD GT PUSH2 0x17F JUMPI DUP9 DUP9 DUP5 DUP2 DUP2 LT PUSH2 0x146 JUMPI PUSH2 0x145 PUSH2 0x546 JUMP JUMPDEST JUMPDEST SWAP1 POP PUSH1 0x20 MUL ADD CALLDATALOAD DUP5 DUP3 DUP2 MLOAD DUP2 LT PUSH2 0x160 JUMPI PUSH2 0x15F PUSH2 0x546 JUMP JUMPDEST JUMPDEST PUSH1 0x20 MUL PUSH1 0x20 ADD ADD DUP2 DUP2 MSTORE POP POP DUP3 DUP1 PUSH2 0x177 SWAP1 PUSH2 0x573 JUMP JUMPDEST SWAP4 POP POP PUSH2 0x201 JUMP JUMPDEST DUP7 DUP7 DUP4 DUP2 DUP2 LT PUSH2 0x192 JUMPI PUSH2 0x191 PUSH2 0x546 JUMP JUMPDEST JUMPDEST SWAP1 POP PUSH1 0x20 MUL ADD CALLDATALOAD DUP10 DUP10 DUP6 DUP2 DUP2 LT PUSH2 0x1AC JUMPI PUSH2 0x1AB PUSH2 0x546 JUMP JUMPDEST JUMPDEST SWAP1 POP PUSH1 0x20 MUL ADD CALLDATALOAD LT PUSH2 0x200 JUMPI DUP7 DUP7 DUP4 DUP2 DUP2 LT PUSH2 0x1CB JUMPI PUSH2 0x1CA PUSH2 0x546 JUMP JUMPDEST JUMPDEST SWAP1 POP PUSH1 0x20 MUL ADD CALLDATALOAD DUP5 DUP3 DUP2 MLOAD DUP2 LT PUSH2 0x1E5 JUMPI PUSH2 0x1E4 PUSH2 0x546 JUMP JUMPDEST JUMPDEST PUSH1 0x20 MUL PUSH1 0x20 ADD ADD DUP2 DUP2 MSTORE POP POP DUP2 DUP1 PUSH2 0x1FC SWAP1 PUSH2 0x573 JUMP JUMPDEST SWAP3 POP POP JUMPDEST JUMPDEST PUSH2 0x2D0 JUMP JUMPDEST DUP9 DUP9 SWAP1 POP DUP4 LT ISZERO DUP1 ISZERO PUSH2 0x21B JUMPI POP DUP7 DUP7 SWAP1 POP DUP3 LT JUMPDEST ISZERO PUSH2 0x26C JUMPI DUP7 DUP7 DUP4 DUP2 DUP2 LT PUSH2 0x233 JUMPI PUSH2 0x232 PUSH2 0x546 JUMP JUMPDEST JUMPDEST SWAP1 POP PUSH1 0x20 MUL ADD CALLDATALOAD DUP5 DUP3 DUP2 MLOAD DUP2 LT PUSH2 0x24D JUMPI PUSH2 0x24C PUSH2 0x546 JUMP JUMPDEST JUMPDEST PUSH1 0x20 MUL PUSH1 0x20 ADD ADD DUP2 DUP2 MSTORE POP POP DUP2 DUP1 PUSH2 0x264 SWAP1 PUSH2 0x573 JUMP JUMPDEST SWAP3 POP POP PUSH2 0x2CF JUMP JUMPDEST DUP7 DUP7 SWAP1 POP DUP3 LT ISZERO DUP1 ISZERO PUSH2 0x281 JUMPI POP DUP9 DUP9 SWAP1 POP DUP4 LT JUMPDEST ISZERO PUSH2 0x2CE JUMPI DUP9 DUP9 DUP5 DUP2 DUP2 LT PUSH2 0x299 JUMPI PUSH2 0x298 PUSH2 0x546 JUMP JUMPDEST JUMPDEST SWAP1 POP PUSH1 0x20 MUL ADD CALLDATALOAD DUP5 DUP3 DUP2 MLOAD DUP2 LT PUSH2 0x2B3 JUMPI PUSH2 0x2B2 PUSH2 0x546 JUMP JUMPDEST JUMPDEST PUSH1 0x20 MUL PUSH1 0x20 ADD ADD DUP2 DUP2 MSTORE POP POP DUP3 DUP1 PUSH2 0x2CA SWAP1 PUSH2 0x573 JUMP JUMPDEST SWAP4 POP POP JUMPDEST JUMPDEST JUMPDEST DUP1 DUP1 PUSH2 0x2DB SWAP1 PUSH2 0x573 JUMP JUMPDEST SWAP2 POP POP PUSH2 0xC9 JUMP JUMPDEST DUP4 SWAP5 POP POP POP POP POP SWAP5 SWAP4 POP POP POP POP JUMP JUMPDEST PUSH0 PUSH0 REVERT JUMPDEST PUSH0 PUSH0 REVERT JUMPDEST PUSH0 PUSH0 REVERT JUMPDEST PUSH0 PUSH0 REVERT JUMPDEST PUSH0 PUSH0 REVERT JUMPDEST PUSH0 PUSH0 DUP4 PUSH1 0x1F DUP5 ADD SLT PUSH2 0x31B JUMPI PUSH2 0x31A PUSH2 0x2FA JUMP JUMPDEST JUMPDEST DUP3 CALLDATALOAD SWAP1 POP PUSH8 0xFFFFFFFFFFFFFFFF DUP2 GT ISZERO PUSH2 0x338 JUMPI PUSH2 0x337 PUSH2 0x2FE JUMP JUMPDEST JUMPDEST PUSH1 0x20 DUP4 ADD SWAP2 POP DUP4 PUSH1 0x20 DUP3 MUL DUP4 ADD GT ISZERO PUSH2 0x354 JUMPI PUSH2 0x353 PUSH2 0x302 JUMP JUMPDEST JUMPDEST SWAP3 POP SWAP3 SWAP1 POP JUMP JUMPDEST PUSH0 PUSH0 PUSH0 PUSH0 PUSH1 0x40 DUP6 DUP8 SUB SLT ISZERO PUSH2 0x373 JUMPI PUSH2 0x372 PUSH2 0x2F2 JUMP JUMPDEST JUMPDEST PUSH0 DUP6 ADD CALLDATALOAD PUSH8 0xFFFFFFFFFFFFFFFF DUP2 GT ISZERO PUSH2 0x390 JUMPI PUSH2 0x38F PUSH2 0x2F6 JUMP JUMPDEST JUMPDEST PUSH2 0x39C DUP8 DUP3 DUP9 ADD PUSH2 0x306 JUMP JUMPDEST SWAP5 POP SWAP5 POP POP PUSH1 0x20 DUP6 ADD CALLDATALOAD PUSH8 0xFFFFFFFFFFFFFFFF DUP2 GT ISZERO PUSH2 0x3BF JUMPI PUSH2 0x3BE PUSH2 0x2F6 JUMP JUMPDEST JUMPDEST PUSH2 0x3CB DUP8 DUP3 DUP9 ADD PUSH2 0x306 JUMP JUMPDEST SWAP3 POP SWAP3 POP POP SWAP3 SWAP6 SWAP2 SWAP5 POP SWAP3 POP JUMP JUMPDEST PUSH0 DUP2 MLOAD SWAP1 POP SWAP2 SWAP1 POP JUMP JUMPDEST PUSH0 DUP3 DUP3 MSTORE PUSH1 0x20 DUP3 ADD SWAP1 POP SWAP3 SWAP2 POP POP JUMP JUMPDEST PUSH0 DUP2 SWAP1 POP PUSH1 0x20 DUP3 ADD SWAP1 POP SWAP2 SWAP1 POP JUMP JUMPDEST PUSH0 DUP2 SWAP1 POP SWAP2 SWAP1 POP JUMP JUMPDEST PUSH2 0x414 DUP2 PUSH2 0x402 JUMP JUMPDEST DUP3 MSTORE POP POP JUMP JUMPDEST PUSH0 PUSH2 0x425 DUP4 DUP4 PUSH2 0x40B JUMP JUMPDEST PUSH1 0x20 DUP4 ADD SWAP1 POP SWAP3 SWAP2 POP POP JUMP JUMPDEST PUSH0 PUSH1 0x20 DUP3 ADD SWAP1 POP SWAP2 SWAP1 POP JUMP JUMPDEST PUSH0 PUSH2 0x447 DUP3 PUSH2 0x3D9 JUMP JUMPDEST PUSH2 0x451 DUP2 DUP6 PUSH2 0x3E3 JUMP JUMPDEST SWAP4 POP PUSH2 0x45C DUP4 PUSH2 0x3F3 JUMP JUMPDEST DUP1 PUSH0 JUMPDEST DUP4 DUP2 LT ISZERO PUSH2 0x48C JUMPI DUP2 MLOAD PUSH2 0x473 DUP9 DUP3 PUSH2 0x41A JUMP JUMPDEST SWAP8 POP PUSH2 0x47E DUP4 PUSH2 0x431 JUMP JUMPDEST SWAP3 POP POP PUSH1 0x1 DUP2 ADD SWAP1 POP PUSH2 0x45F JUMP JUMPDEST POP DUP6 SWAP4 POP POP POP POP SWAP3 SWAP2 POP POP JUMP JUMPDEST PUSH0 PUSH1 0x20 DUP3 ADD SWAP1 POP DUP2 DUP2 SUB PUSH0 DUP4 ADD MSTORE PUSH2 0x4B1 DUP2 DUP5 PUSH2 0x43D JUMP JUMPDEST SWAP1 POP SWAP3 SWAP2 POP POP JUMP JUMPDEST PUSH32 0x4E487B7100000000000000000000000000000000000000000000000000000000 PUSH0 MSTORE PUSH1 0x11 PUSH1 0x4 MSTORE PUSH1 0x24 PUSH0 REVERT JUMPDEST PUSH0 PUSH2 0x4F0 DUP3 PUSH2 0x402 JUMP JUMPDEST SWAP2 POP PUSH2 0x4FB DUP4 PUSH2 0x402 JUMP JUMPDEST SWAP3 POP DUP3 DUP3 ADD SWAP1 POP DUP1 DUP3 GT ISZERO PUSH2 0x513 JUMPI PUSH2 0x512 PUSH2 0x4B9 JUMP JUMPDEST JUMPDEST SWAP3 SWAP2 POP POP JUMP JUMPDEST PUSH32 0x4E487B7100000000000000000000000000000000000000000000000000000000 PUSH0 MSTORE PUSH1 0x41 PUSH1 0x4 MSTORE PUSH1 0x24 PUSH0 REVERT JUMPDEST PUSH32 0x4E487B7100000000000000000000000000000000000000000000000000000000 PUSH0 MSTORE PUSH1 0x32 PUSH1 0x4 MSTORE PUSH1 0x24 PUSH0 REVERT JUMPDEST PUSH0 PUSH2 0x57D DUP3 PUSH2 0x402 JUMP JUMPDEST SWAP2 POP PUSH32 0xFFFFFFFFFFFFFFFFFFFFFFFFFFFFFFFFFFFFFFFFFFFFFFFFFFFFFFFFFFFFFFFF DUP3 SUB PUSH2 0x5AF JUMPI PUSH2 0x5AE PUSH2 0x4B9 JUMP JUMPDEST JUMPDEST PUSH1 0x1 DUP3 ADD SWAP1 POP SWAP2 SWAP1 POP JUMP INVALID LOG2 PUSH5 0x6970667358 0x22 SLT KECCAK256 0xA8 0xD8 CALLDATASIZE SWAP16 0xC0 LOG4 0xE2 CALLDATALOAD JUMP SWAP15 PUSH14 0x50B391FA873E231E3E9A0A809C33 OR 0xC 0xED CALLER 0xBF CODECOPY CALLDATASIZE PUSH5 0x736F6C6343 STOP ADDMOD 0x1E STOP CALLER "
		},
		"gasEstimates": {
			"creation": {
				"codeDepositCost": "304000",
				"executionCost": "341",
				"totalCost": "304341"
			},
			"external": {
				"merge(uint256[],uint256[])": "infinite"
			}
		},
		"methodIdentifiers": {
			"merge(uint256[],uint256[])": "088b9bf6"
		}
	},
	"abi": [
		{
			"inputs": [
				{
					"internalType": "uint256[]",
					"name": "arr1",
					"type": "uint256[]"
				},
				{
					"internalType": "uint256[]",
					"name": "arr2",
					"type": "uint256[]"
				}
			],
			"name": "merge",
			"outputs": [
				{
					"internalType": "uint256[]",
					"name": "",
					"type": "uint256[]"
				}
			],
			"stateMutability": "pure",
			"type": "function"
		}
	]
}